{
	"low/encoding.sol": {
		"Encoding": {
			"abi": [
				{
					"inputs": [],
					"name": "combineStrigBytes",
					"outputs": [
						{
							"internalType": "bytes",
							"name": "",
							"type": "bytes"
						}
					],
					"stateMutability": "pure",
					"type": "function"
				},
				{
					"inputs": [],
					"name": "combineStrigEncode",
					"outputs": [
						{
							"internalType": "bytes",
							"name": "",
							"type": "bytes"
						}
					],
					"stateMutability": "pure",
					"type": "function"
				},
				{
					"inputs": [],
					"name": "combineString",
					"outputs": [
						{
							"internalType": "bytes",
							"name": "",
							"type": "bytes"
						}
					],
					"stateMutability": "pure",
					"type": "function"
				},
				{
					"inputs": [],
					"name": "decode",
					"outputs": [
						{
							"internalType": "string",
							"name": "",
							"type": "string"
						}
					],
					"stateMutability": "pure",
					"type": "function"
				},
				{
					"inputs": [],
					"name": "multiDecode",
					"outputs": [
						{
							"internalType": "string",
							"name": "",
							"type": "string"
						},
						{
							"internalType": "string",
							"name": "",
							"type": "string"
						}
					],
					"stateMutability": "pure",
					"type": "function"
				},
				{
					"inputs": [],
					"name": "multiEncode",
					"outputs": [
						{
							"internalType": "bytes",
							"name": "",
							"type": "bytes"
						}
					],
					"stateMutability": "pure",
					"type": "function"
				},
				{
					"inputs": [
						{
							"internalType": "address",
							"name": "winner",
							"type": "address"
						}
					],
					"name": "withdraw",
					"outputs": [
						{
							"internalType": "bool",
							"name": "",
							"type": "bool"
						}
					],
					"stateMutability": "nonpayable",
					"type": "function"
				}
			],
			"devdoc": {
				"kind": "dev",
				"methods": {},
				"version": 1
			},
			"evm": {
				"assembly": "    /* \"low/encoding.sol\":58:2202  contract Encoding{... */\n  mstore(0x40, 0x80)\n  callvalue\n  dup1\n  iszero\n  tag_1\n  jumpi\n  revert(0x00, 0x00)\ntag_1:\n  pop\n  dataSize(sub_0)\n  dup1\n  dataOffset(sub_0)\n  0x00\n  codecopy\n  0x00\n  return\nstop\n\nsub_0: assembly {\n        /* \"low/encoding.sol\":58:2202  contract Encoding{... */\n      mstore(0x40, 0x80)\n      callvalue\n      dup1\n      iszero\n      tag_1\n      jumpi\n      revert(0x00, 0x00)\n    tag_1:\n      pop\n      jumpi(tag_2, lt(calldatasize, 0x04))\n      shr(0xe0, calldataload(0x00))\n      dup1\n      0x86fda78a\n      gt\n      tag_10\n      jumpi\n      dup1\n      0x86fda78a\n      eq\n      tag_6\n      jumpi\n      dup1\n      0xa6dc49b8\n      eq\n      tag_7\n      jumpi\n      dup1\n      0xc0f8940c\n      eq\n      tag_8\n      jumpi\n      dup1\n      0xc452d79b\n      eq\n      tag_9\n      jumpi\n      jump(tag_2)\n    tag_10:\n      dup1\n      0x1198252a\n      eq\n      tag_3\n      jumpi\n      dup1\n      0x51cff8d9\n      eq\n      tag_4\n      jumpi\n      dup1\n      0x5485c6a1\n      eq\n      tag_5\n      jumpi\n    tag_2:\n      revert(0x00, 0x00)\n        /* \"low/encoding.sol\":447:567  function combineStrigEncode() external pure returns(bytes memory){... */\n    tag_3:\n      tag_11\n      tag_12\n      jump\t// in\n    tag_11:\n      mload(0x40)\n      tag_13\n      swap2\n      swap1\n      tag_14\n      jump\t// in\n    tag_13:\n      mload(0x40)\n      dup1\n      swap2\n      sub\n      swap1\n      return\n        /* \"low/encoding.sol\":1880:2198  function withdraw( address winner) external returns(bool){... */\n    tag_4:\n      tag_15\n      0x04\n      dup1\n      calldatasize\n      sub\n      dup2\n      add\n      swap1\n      tag_16\n      swap2\n      swap1\n      tag_17\n      jump\t// in\n    tag_16:\n      tag_18\n      jump\t// in\n    tag_15:\n      mload(0x40)\n      tag_19\n      swap2\n      swap1\n      tag_20\n      jump\t// in\n    tag_19:\n      mload(0x40)\n      dup1\n      swap2\n      sub\n      swap1\n      return\n        /* \"low/encoding.sol\":336:443  function combineString() public pure returns(bytes memory){... */\n    tag_5:\n      tag_21\n      tag_22\n      jump\t// in\n    tag_21:\n      mload(0x40)\n      tag_23\n      swap2\n      swap1\n      tag_14\n      jump\t// in\n    tag_23:\n      mload(0x40)\n      dup1\n      swap2\n      sub\n      swap1\n      return\n        /* \"low/encoding.sol\":643:794  function combineStrigBytes() external pure returns(bytes memory){... */\n    tag_6:\n      tag_24\n      tag_25\n      jump\t// in\n    tag_24:\n      mload(0x40)\n      tag_26\n      swap2\n      swap1\n      tag_14\n      jump\t// in\n    tag_26:\n      mload(0x40)\n      dup1\n      swap2\n      sub\n      swap1\n      return\n        /* \"low/encoding.sol\":1246:1379  function multiEncode() public pure returns(bytes memory){... */\n    tag_7:\n      tag_27\n      tag_28\n      jump\t// in\n    tag_27:\n      mload(0x40)\n      tag_29\n      swap2\n      swap1\n      tag_14\n      jump\t// in\n    tag_29:\n      mload(0x40)\n      dup1\n      swap2\n      sub\n      swap1\n      return\n        /* \"low/encoding.sol\":974:1243  function decode() external pure returns (string memory){... */\n    tag_8:\n      tag_30\n      tag_31\n      jump\t// in\n    tag_30:\n      mload(0x40)\n      tag_32\n      swap2\n      swap1\n      tag_33\n      jump\t// in\n    tag_32:\n      mload(0x40)\n      dup1\n      swap2\n      sub\n      swap1\n      return\n        /* \"low/encoding.sol\":1382:1642  function multiDecode() external pure returns(string memory,string memory){... */\n    tag_9:\n      tag_34\n      tag_35\n      jump\t// in\n    tag_34:\n      mload(0x40)\n      tag_36\n      swap3\n      swap2\n      swap1\n      tag_37\n      jump\t// in\n    tag_36:\n      mload(0x40)\n      dup1\n      swap2\n      sub\n      swap1\n      return\n        /* \"low/encoding.sol\":447:567  function combineStrigEncode() external pure returns(bytes memory){... */\n    tag_12:\n        /* \"low/encoding.sol\":499:511  bytes memory */\n      0x60\n        /* \"low/encoding.sol\":529:560  abi.encodePacked('hello world') */\n      add(0x20, mload(0x40))\n      tag_39\n      swap1\n      tag_40\n      jump\t// in\n    tag_39:\n      mload(0x40)\n      0x20\n      dup2\n      dup4\n      sub\n      sub\n      dup2\n      mstore\n      swap1\n      0x40\n      mstore\n        /* \"low/encoding.sol\":522:560  return abi.encodePacked('hello world') */\n      swap1\n      pop\n        /* \"low/encoding.sol\":447:567  function combineStrigEncode() external pure returns(bytes memory){... */\n      swap1\n      jump\t// out\n        /* \"low/encoding.sol\":1880:2198  function withdraw( address winner) external returns(bool){... */\n    tag_18:\n        /* \"low/encoding.sol\":1932:1936  bool */\n      0x00\n        /* \"low/encoding.sol\":2112:2124  bool success */\n      0x00\n        /* \"low/encoding.sol\":2129:2135  winner */\n      dup3\n        /* \"low/encoding.sol\":2129:2140  winner.call */\n      0xffffffffffffffffffffffffffffffffffffffff\n      and\n        /* \"low/encoding.sol\":2148:2169  address(this).balance */\n      selfbalance\n        /* \"low/encoding.sol\":2129:2174  winner.call{value: address(this).balance}(\"\") */\n      mload(0x40)\n      tag_42\n      swap1\n      tag_43\n      jump\t// in\n    tag_42:\n      0x00\n      mload(0x40)\n      dup1\n      dup4\n      sub\n      dup2\n      dup6\n      dup8\n      gas\n      call\n      swap3\n      pop\n      pop\n      pop\n      returndatasize\n      dup1\n      0x00\n      dup2\n      eq\n      tag_46\n      jumpi\n      mload(0x40)\n      swap2\n      pop\n      and(add(returndatasize, 0x3f), not(0x1f))\n      dup3\n      add\n      0x40\n      mstore\n      returndatasize\n      dup3\n      mstore\n      returndatasize\n      0x00\n      0x20\n      dup5\n      add\n      returndatacopy\n      jump(tag_45)\n    tag_46:\n      0x60\n      swap2\n      pop\n    tag_45:\n      pop\n        /* \"low/encoding.sol\":2111:2174  (bool success,) = winner.call{value: address(this).balance}(\"\") */\n      pop\n      swap1\n      pop\n        /* \"low/encoding.sol\":2187:2194  success */\n      dup1\n        /* \"low/encoding.sol\":2180:2194  return success */\n      swap2\n      pop\n      pop\n        /* \"low/encoding.sol\":1880:2198  function withdraw( address winner) external returns(bool){... */\n      swap2\n      swap1\n      pop\n      jump\t// out\n        /* \"low/encoding.sol\":336:443  function combineString() public pure returns(bytes memory){... */\n    tag_22:\n        /* \"low/encoding.sol\":381:393  bytes memory */\n      0x60\n        /* \"low/encoding.sol\":411:436  abi.encode('hello world') */\n      add(0x20, mload(0x40))\n      tag_48\n      swap1\n      tag_49\n      jump\t// in\n    tag_48:\n      mload(0x40)\n      0x20\n      dup2\n      dup4\n      sub\n      sub\n      dup2\n      mstore\n      swap1\n      0x40\n      mstore\n        /* \"low/encoding.sol\":404:436  return abi.encode('hello world') */\n      swap1\n      pop\n        /* \"low/encoding.sol\":336:443  function combineString() public pure returns(bytes memory){... */\n      swap1\n      jump\t// out\n        /* \"low/encoding.sol\":643:794  function combineStrigBytes() external pure returns(bytes memory){... */\n    tag_25:\n        /* \"low/encoding.sol\":694:706  bytes memory */\n      0x60\n        /* \"low/encoding.sol\":767:787  bytes('hello world') */\n      mload(0x40)\n      dup1\n      0x40\n      add\n      0x40\n      mstore\n      dup1\n      0x0b\n      dup2\n      mstore\n      0x20\n      add\n      0x68656c6c6f20776f726c64000000000000000000000000000000000000000000\n      dup2\n      mstore\n      pop\n        /* \"low/encoding.sol\":760:787  return bytes('hello world') */\n      swap1\n      pop\n        /* \"low/encoding.sol\":643:794  function combineStrigBytes() external pure returns(bytes memory){... */\n      swap1\n      jump\t// out\n        /* \"low/encoding.sol\":1246:1379  function multiEncode() public pure returns(bytes memory){... */\n    tag_28:\n        /* \"low/encoding.sol\":1289:1301  bytes memory */\n      0x60\n        /* \"low/encoding.sol\":1304:1321  bytes memory name */\n      0x00\n        /* \"low/encoding.sol\":1324:1362  abi.encode('hello world','i am himxa') */\n      add(0x20, mload(0x40))\n      tag_52\n      swap1\n      tag_53\n      jump\t// in\n    tag_52:\n      mload(0x40)\n      0x20\n      dup2\n      dup4\n      sub\n      sub\n      dup2\n      mstore\n      swap1\n      0x40\n      mstore\n        /* \"low/encoding.sol\":1304:1362  bytes memory name = abi.encode('hello world','i am himxa') */\n      swap1\n      pop\n        /* \"low/encoding.sol\":1371:1375  name */\n      dup1\n        /* \"low/encoding.sol\":1364:1375  return name */\n      swap2\n      pop\n      pop\n        /* \"low/encoding.sol\":1246:1379  function multiEncode() public pure returns(bytes memory){... */\n      swap1\n      jump\t// out\n        /* \"low/encoding.sol\":974:1243  function decode() external pure returns (string memory){... */\n    tag_31:\n        /* \"low/encoding.sol\":1015:1028  string memory */\n      0x60\n        /* \"low/encoding.sol\":1167:1186  string memory world */\n      0x00\n        /* \"low/encoding.sol\":1200:1215  combineString() */\n      tag_55\n        /* \"low/encoding.sol\":1200:1213  combineString */\n      tag_22\n        /* \"low/encoding.sol\":1200:1215  combineString() */\n      jump\t// in\n    tag_55:\n        /* \"low/encoding.sol\":1189:1225  abi.decode(combineString(),(string)) */\n      dup1\n      0x20\n      add\n      swap1\n      mload\n      dup2\n      add\n      swap1\n      tag_56\n      swap2\n      swap1\n      tag_57\n      jump\t// in\n    tag_56:\n        /* \"low/encoding.sol\":1167:1225  string memory world = abi.decode(combineString(),(string)) */\n      swap1\n      pop\n        /* \"low/encoding.sol\":1235:1240  world */\n      dup1\n        /* \"low/encoding.sol\":1228:1240  return world */\n      swap2\n      pop\n      pop\n        /* \"low/encoding.sol\":974:1243  function decode() external pure returns (string memory){... */\n      swap1\n      jump\t// out\n        /* \"low/encoding.sol\":1382:1642  function multiDecode() external pure returns(string memory,string memory){... */\n    tag_35:\n        /* \"low/encoding.sol\":1427:1440  string memory */\n      0x60\n        /* \"low/encoding.sol\":1441:1454  string memory */\n      dup1\n        /* \"low/encoding.sol\":1531:1550  string memory world */\n      0x00\n        /* \"low/encoding.sol\":1551:1570  string memory intro */\n      0x00\n        /* \"low/encoding.sol\":1585:1598  multiEncode() */\n      tag_59\n        /* \"low/encoding.sol\":1585:1596  multiEncode */\n      tag_28\n        /* \"low/encoding.sol\":1585:1598  multiEncode() */\n      jump\t// in\n    tag_59:\n        /* \"low/encoding.sol\":1574:1615  abi.decode(multiEncode(),(string,string)) */\n      dup1\n      0x20\n      add\n      swap1\n      mload\n      dup2\n      add\n      swap1\n      tag_60\n      swap2\n      swap1\n      tag_61\n      jump\t// in\n    tag_60:\n        /* \"low/encoding.sol\":1530:1615  (string memory world,string memory intro) = abi.decode(multiEncode(),(string,string)) */\n      swap2\n      pop\n      swap2\n      pop\n        /* \"low/encoding.sol\":1625:1630  world */\n      dup2\n        /* \"low/encoding.sol\":1631:1636  intro */\n      dup2\n        /* \"low/encoding.sol\":1618:1637  return(world,intro) */\n      swap4\n      pop\n      swap4\n      pop\n      pop\n      pop\n        /* \"low/encoding.sol\":1382:1642  function multiDecode() external pure returns(string memory,string memory){... */\n      swap1\n      swap2\n      jump\t// out\n        /* \"#utility.yul\":7:105   */\n    tag_62:\n        /* \"#utility.yul\":58:64   */\n      0x00\n        /* \"#utility.yul\":92:97   */\n      dup2\n        /* \"#utility.yul\":86:98   */\n      mload\n        /* \"#utility.yul\":76:98   */\n      swap1\n      pop\n        /* \"#utility.yul\":7:105   */\n      swap2\n      swap1\n      pop\n      jump\t// out\n        /* \"#utility.yul\":111:279   */\n    tag_63:\n        /* \"#utility.yul\":194:205   */\n      0x00\n        /* \"#utility.yul\":228:234   */\n      dup3\n        /* \"#utility.yul\":223:226   */\n      dup3\n        /* \"#utility.yul\":216:235   */\n      mstore\n        /* \"#utility.yul\":268:272   */\n      0x20\n        /* \"#utility.yul\":263:266   */\n      dup3\n        /* \"#utility.yul\":259:273   */\n      add\n        /* \"#utility.yul\":244:273   */\n      swap1\n      pop\n        /* \"#utility.yul\":111:279   */\n      swap3\n      swap2\n      pop\n      pop\n      jump\t// out\n        /* \"#utility.yul\":285:424   */\n    tag_64:\n        /* \"#utility.yul\":374:380   */\n      dup3\n        /* \"#utility.yul\":369:372   */\n      dup2\n        /* \"#utility.yul\":364:367   */\n      dup4\n        /* \"#utility.yul\":358:381   */\n      mcopy\n        /* \"#utility.yul\":415:416   */\n      0x00\n        /* \"#utility.yul\":406:412   */\n      dup4\n        /* \"#utility.yul\":401:404   */\n      dup4\n        /* \"#utility.yul\":397:413   */\n      add\n        /* \"#utility.yul\":390:417   */\n      mstore\n        /* \"#utility.yul\":285:424   */\n      pop\n      pop\n      pop\n      jump\t// out\n        /* \"#utility.yul\":430:532   */\n    tag_65:\n        /* \"#utility.yul\":471:477   */\n      0x00\n        /* \"#utility.yul\":522:524   */\n      0x1f\n        /* \"#utility.yul\":518:525   */\n      not\n        /* \"#utility.yul\":513:515   */\n      0x1f\n        /* \"#utility.yul\":506:511   */\n      dup4\n        /* \"#utility.yul\":502:516   */\n      add\n        /* \"#utility.yul\":498:526   */\n      and\n        /* \"#utility.yul\":488:526   */\n      swap1\n      pop\n        /* \"#utility.yul\":430:532   */\n      swap2\n      swap1\n      pop\n      jump\t// out\n        /* \"#utility.yul\":538:911   */\n    tag_66:\n        /* \"#utility.yul\":624:627   */\n      0x00\n        /* \"#utility.yul\":652:690   */\n      tag_102\n        /* \"#utility.yul\":684:689   */\n      dup3\n        /* \"#utility.yul\":652:690   */\n      tag_62\n      jump\t// in\n    tag_102:\n        /* \"#utility.yul\":706:776   */\n      tag_103\n        /* \"#utility.yul\":769:775   */\n      dup2\n        /* \"#utility.yul\":764:767   */\n      dup6\n        /* \"#utility.yul\":706:776   */\n      tag_63\n      jump\t// in\n    tag_103:\n        /* \"#utility.yul\":699:776   */\n      swap4\n      pop\n        /* \"#utility.yul\":785:850   */\n      tag_104\n        /* \"#utility.yul\":843:849   */\n      dup2\n        /* \"#utility.yul\":838:841   */\n      dup6\n        /* \"#utility.yul\":831:835   */\n      0x20\n        /* \"#utility.yul\":824:829   */\n      dup7\n        /* \"#utility.yul\":820:836   */\n      add\n        /* \"#utility.yul\":785:850   */\n      tag_64\n      jump\t// in\n    tag_104:\n        /* \"#utility.yul\":875:904   */\n      tag_105\n        /* \"#utility.yul\":897:903   */\n      dup2\n        /* \"#utility.yul\":875:904   */\n      tag_65\n      jump\t// in\n    tag_105:\n        /* \"#utility.yul\":870:873   */\n      dup5\n        /* \"#utility.yul\":866:905   */\n      add\n        /* \"#utility.yul\":859:905   */\n      swap2\n      pop\n        /* \"#utility.yul\":628:911   */\n      pop\n        /* \"#utility.yul\":538:911   */\n      swap3\n      swap2\n      pop\n      pop\n      jump\t// out\n        /* \"#utility.yul\":917:1226   */\n    tag_14:\n        /* \"#utility.yul\":1028:1032   */\n      0x00\n        /* \"#utility.yul\":1066:1068   */\n      0x20\n        /* \"#utility.yul\":1055:1064   */\n      dup3\n        /* \"#utility.yul\":1051:1069   */\n      add\n        /* \"#utility.yul\":1043:1069   */\n      swap1\n      pop\n        /* \"#utility.yul\":1115:1124   */\n      dup2\n        /* \"#utility.yul\":1109:1113   */\n      dup2\n        /* \"#utility.yul\":1105:1125   */\n      sub\n        /* \"#utility.yul\":1101:1102   */\n      0x00\n        /* \"#utility.yul\":1090:1099   */\n      dup4\n        /* \"#utility.yul\":1086:1103   */\n      add\n        /* \"#utility.yul\":1079:1126   */\n      mstore\n        /* \"#utility.yul\":1143:1219   */\n      tag_107\n        /* \"#utility.yul\":1214:1218   */\n      dup2\n        /* \"#utility.yul\":1205:1211   */\n      dup5\n        /* \"#utility.yul\":1143:1219   */\n      tag_66\n      jump\t// in\n    tag_107:\n        /* \"#utility.yul\":1135:1219   */\n      swap1\n      pop\n        /* \"#utility.yul\":917:1226   */\n      swap3\n      swap2\n      pop\n      pop\n      jump\t// out\n        /* \"#utility.yul\":1232:1307   */\n    tag_67:\n        /* \"#utility.yul\":1265:1271   */\n      0x00\n        /* \"#utility.yul\":1298:1300   */\n      0x40\n        /* \"#utility.yul\":1292:1301   */\n      mload\n        /* \"#utility.yul\":1282:1301   */\n      swap1\n      pop\n        /* \"#utility.yul\":1232:1307   */\n      swap1\n      jump\t// out\n        /* \"#utility.yul\":1313:1430   */\n    tag_68:\n        /* \"#utility.yul\":1422:1423   */\n      0x00\n        /* \"#utility.yul\":1419:1420   */\n      0x00\n        /* \"#utility.yul\":1412:1424   */\n      revert\n        /* \"#utility.yul\":1436:1553   */\n    tag_69:\n        /* \"#utility.yul\":1545:1546   */\n      0x00\n        /* \"#utility.yul\":1542:1543   */\n      0x00\n        /* \"#utility.yul\":1535:1547   */\n      revert\n        /* \"#utility.yul\":1559:1685   */\n    tag_70:\n        /* \"#utility.yul\":1596:1603   */\n      0x00\n        /* \"#utility.yul\":1636:1678   */\n      0xffffffffffffffffffffffffffffffffffffffff\n        /* \"#utility.yul\":1629:1634   */\n      dup3\n        /* \"#utility.yul\":1625:1679   */\n      and\n        /* \"#utility.yul\":1614:1679   */\n      swap1\n      pop\n        /* \"#utility.yul\":1559:1685   */\n      swap2\n      swap1\n      pop\n      jump\t// out\n        /* \"#utility.yul\":1691:1787   */\n    tag_71:\n        /* \"#utility.yul\":1728:1735   */\n      0x00\n        /* \"#utility.yul\":1757:1781   */\n      tag_113\n        /* \"#utility.yul\":1775:1780   */\n      dup3\n        /* \"#utility.yul\":1757:1781   */\n      tag_70\n      jump\t// in\n    tag_113:\n        /* \"#utility.yul\":1746:1781   */\n      swap1\n      pop\n        /* \"#utility.yul\":1691:1787   */\n      swap2\n      swap1\n      pop\n      jump\t// out\n        /* \"#utility.yul\":1793:1915   */\n    tag_72:\n        /* \"#utility.yul\":1866:1890   */\n      tag_115\n        /* \"#utility.yul\":1884:1889   */\n      dup2\n        /* \"#utility.yul\":1866:1890   */\n      tag_71\n      jump\t// in\n    tag_115:\n        /* \"#utility.yul\":1859:1864   */\n      dup2\n        /* \"#utility.yul\":1856:1891   */\n      eq\n        /* \"#utility.yul\":1846:1909   */\n      tag_116\n      jumpi\n        /* \"#utility.yul\":1905:1906   */\n      0x00\n        /* \"#utility.yul\":1902:1903   */\n      0x00\n        /* \"#utility.yul\":1895:1907   */\n      revert\n        /* \"#utility.yul\":1846:1909   */\n    tag_116:\n        /* \"#utility.yul\":1793:1915   */\n      pop\n      jump\t// out\n        /* \"#utility.yul\":1921:2060   */\n    tag_73:\n        /* \"#utility.yul\":1967:1972   */\n      0x00\n        /* \"#utility.yul\":2005:2011   */\n      dup2\n        /* \"#utility.yul\":1992:2012   */\n      calldataload\n        /* \"#utility.yul\":1983:2012   */\n      swap1\n      pop\n        /* \"#utility.yul\":2021:2054   */\n      tag_118\n        /* \"#utility.yul\":2048:2053   */\n      dup2\n        /* \"#utility.yul\":2021:2054   */\n      tag_72\n      jump\t// in\n    tag_118:\n        /* \"#utility.yul\":1921:2060   */\n      swap3\n      swap2\n      pop\n      pop\n      jump\t// out\n        /* \"#utility.yul\":2066:2395   */\n    tag_17:\n        /* \"#utility.yul\":2125:2131   */\n      0x00\n        /* \"#utility.yul\":2174:2176   */\n      0x20\n        /* \"#utility.yul\":2162:2171   */\n      dup3\n        /* \"#utility.yul\":2153:2160   */\n      dup5\n        /* \"#utility.yul\":2149:2172   */\n      sub\n        /* \"#utility.yul\":2145:2177   */\n      slt\n        /* \"#utility.yul\":2142:2261   */\n      iszero\n      tag_120\n      jumpi\n        /* \"#utility.yul\":2180:2259   */\n      tag_121\n      tag_68\n      jump\t// in\n    tag_121:\n        /* \"#utility.yul\":2142:2261   */\n    tag_120:\n        /* \"#utility.yul\":2300:2301   */\n      0x00\n        /* \"#utility.yul\":2325:2378   */\n      tag_122\n        /* \"#utility.yul\":2370:2377   */\n      dup5\n        /* \"#utility.yul\":2361:2367   */\n      dup3\n        /* \"#utility.yul\":2350:2359   */\n      dup6\n        /* \"#utility.yul\":2346:2368   */\n      add\n        /* \"#utility.yul\":2325:2378   */\n      tag_73\n      jump\t// in\n    tag_122:\n        /* \"#utility.yul\":2315:2378   */\n      swap2\n      pop\n        /* \"#utility.yul\":2271:2388   */\n      pop\n        /* \"#utility.yul\":2066:2395   */\n      swap3\n      swap2\n      pop\n      pop\n      jump\t// out\n        /* \"#utility.yul\":2401:2491   */\n    tag_74:\n        /* \"#utility.yul\":2435:2442   */\n      0x00\n        /* \"#utility.yul\":2478:2483   */\n      dup2\n        /* \"#utility.yul\":2471:2484   */\n      iszero\n        /* \"#utility.yul\":2464:2485   */\n      iszero\n        /* \"#utility.yul\":2453:2485   */\n      swap1\n      pop\n        /* \"#utility.yul\":2401:2491   */\n      swap2\n      swap1\n      pop\n      jump\t// out\n        /* \"#utility.yul\":2497:2606   */\n    tag_75:\n        /* \"#utility.yul\":2578:2599   */\n      tag_125\n        /* \"#utility.yul\":2593:2598   */\n      dup2\n        /* \"#utility.yul\":2578:2599   */\n      tag_74\n      jump\t// in\n    tag_125:\n        /* \"#utility.yul\":2573:2576   */\n      dup3\n        /* \"#utility.yul\":2566:2600   */\n      mstore\n        /* \"#utility.yul\":2497:2606   */\n      pop\n      pop\n      jump\t// out\n        /* \"#utility.yul\":2612:2822   */\n    tag_20:\n        /* \"#utility.yul\":2699:2703   */\n      0x00\n        /* \"#utility.yul\":2737:2739   */\n      0x20\n        /* \"#utility.yul\":2726:2735   */\n      dup3\n        /* \"#utility.yul\":2722:2740   */\n      add\n        /* \"#utility.yul\":2714:2740   */\n      swap1\n      pop\n        /* \"#utility.yul\":2750:2815   */\n      tag_127\n        /* \"#utility.yul\":2812:2813   */\n      0x00\n        /* \"#utility.yul\":2801:2810   */\n      dup4\n        /* \"#utility.yul\":2797:2814   */\n      add\n        /* \"#utility.yul\":2788:2794   */\n      dup5\n        /* \"#utility.yul\":2750:2815   */\n      tag_75\n      jump\t// in\n    tag_127:\n        /* \"#utility.yul\":2612:2822   */\n      swap3\n      swap2\n      pop\n      pop\n      jump\t// out\n        /* \"#utility.yul\":2828:2927   */\n    tag_76:\n        /* \"#utility.yul\":2880:2886   */\n      0x00\n        /* \"#utility.yul\":2914:2919   */\n      dup2\n        /* \"#utility.yul\":2908:2920   */\n      mload\n        /* \"#utility.yul\":2898:2920   */\n      swap1\n      pop\n        /* \"#utility.yul\":2828:2927   */\n      swap2\n      swap1\n      pop\n      jump\t// out\n        /* \"#utility.yul\":2933:3102   */\n    tag_77:\n        /* \"#utility.yul\":3017:3028   */\n      0x00\n        /* \"#utility.yul\":3051:3057   */\n      dup3\n        /* \"#utility.yul\":3046:3049   */\n      dup3\n        /* \"#utility.yul\":3039:3058   */\n      mstore\n        /* \"#utility.yul\":3091:3095   */\n      0x20\n        /* \"#utility.yul\":3086:3089   */\n      dup3\n        /* \"#utility.yul\":3082:3096   */\n      add\n        /* \"#utility.yul\":3067:3096   */\n      swap1\n      pop\n        /* \"#utility.yul\":2933:3102   */\n      swap3\n      swap2\n      pop\n      pop\n      jump\t// out\n        /* \"#utility.yul\":3108:3485   */\n    tag_78:\n        /* \"#utility.yul\":3196:3199   */\n      0x00\n        /* \"#utility.yul\":3224:3263   */\n      tag_131\n        /* \"#utility.yul\":3257:3262   */\n      dup3\n        /* \"#utility.yul\":3224:3263   */\n      tag_76\n      jump\t// in\n    tag_131:\n        /* \"#utility.yul\":3279:3350   */\n      tag_132\n        /* \"#utility.yul\":3343:3349   */\n      dup2\n        /* \"#utility.yul\":3338:3341   */\n      dup6\n        /* \"#utility.yul\":3279:3350   */\n      tag_77\n      jump\t// in\n    tag_132:\n        /* \"#utility.yul\":3272:3350   */\n      swap4\n      pop\n        /* \"#utility.yul\":3359:3424   */\n      tag_133\n        /* \"#utility.yul\":3417:3423   */\n      dup2\n        /* \"#utility.yul\":3412:3415   */\n      dup6\n        /* \"#utility.yul\":3405:3409   */\n      0x20\n        /* \"#utility.yul\":3398:3403   */\n      dup7\n        /* \"#utility.yul\":3394:3410   */\n      add\n        /* \"#utility.yul\":3359:3424   */\n      tag_64\n      jump\t// in\n    tag_133:\n        /* \"#utility.yul\":3449:3478   */\n      tag_134\n        /* \"#utility.yul\":3471:3477   */\n      dup2\n        /* \"#utility.yul\":3449:3478   */\n      tag_65\n      jump\t// in\n    tag_134:\n        /* \"#utility.yul\":3444:3447   */\n      dup5\n        /* \"#utility.yul\":3440:3479   */\n      add\n        /* \"#utility.yul\":3433:3479   */\n      swap2\n      pop\n        /* \"#utility.yul\":3200:3485   */\n      pop\n        /* \"#utility.yul\":3108:3485   */\n      swap3\n      swap2\n      pop\n      pop\n      jump\t// out\n        /* \"#utility.yul\":3491:3804   */\n    tag_33:\n        /* \"#utility.yul\":3604:3608   */\n      0x00\n        /* \"#utility.yul\":3642:3644   */\n      0x20\n        /* \"#utility.yul\":3631:3640   */\n      dup3\n        /* \"#utility.yul\":3627:3645   */\n      add\n        /* \"#utility.yul\":3619:3645   */\n      swap1\n      pop\n        /* \"#utility.yul\":3691:3700   */\n      dup2\n        /* \"#utility.yul\":3685:3689   */\n      dup2\n        /* \"#utility.yul\":3681:3701   */\n      sub\n        /* \"#utility.yul\":3677:3678   */\n      0x00\n        /* \"#utility.yul\":3666:3675   */\n      dup4\n        /* \"#utility.yul\":3662:3679   */\n      add\n        /* \"#utility.yul\":3655:3702   */\n      mstore\n        /* \"#utility.yul\":3719:3797   */\n      tag_136\n        /* \"#utility.yul\":3792:3796   */\n      dup2\n        /* \"#utility.yul\":3783:3789   */\n      dup5\n        /* \"#utility.yul\":3719:3797   */\n      tag_78\n      jump\t// in\n    tag_136:\n        /* \"#utility.yul\":3711:3797   */\n      swap1\n      pop\n        /* \"#utility.yul\":3491:3804   */\n      swap3\n      swap2\n      pop\n      pop\n      jump\t// out\n        /* \"#utility.yul\":3810:4324   */\n    tag_37:\n        /* \"#utility.yul\":3971:3975   */\n      0x00\n        /* \"#utility.yul\":4009:4011   */\n      0x40\n        /* \"#utility.yul\":3998:4007   */\n      dup3\n        /* \"#utility.yul\":3994:4012   */\n      add\n        /* \"#utility.yul\":3986:4012   */\n      swap1\n      pop\n        /* \"#utility.yul\":4058:4067   */\n      dup2\n        /* \"#utility.yul\":4052:4056   */\n      dup2\n        /* \"#utility.yul\":4048:4068   */\n      sub\n        /* \"#utility.yul\":4044:4045   */\n      0x00\n        /* \"#utility.yul\":4033:4042   */\n      dup4\n        /* \"#utility.yul\":4029:4046   */\n      add\n        /* \"#utility.yul\":4022:4069   */\n      mstore\n        /* \"#utility.yul\":4086:4164   */\n      tag_138\n        /* \"#utility.yul\":4159:4163   */\n      dup2\n        /* \"#utility.yul\":4150:4156   */\n      dup6\n        /* \"#utility.yul\":4086:4164   */\n      tag_78\n      jump\t// in\n    tag_138:\n        /* \"#utility.yul\":4078:4164   */\n      swap1\n      pop\n        /* \"#utility.yul\":4211:4220   */\n      dup2\n        /* \"#utility.yul\":4205:4209   */\n      dup2\n        /* \"#utility.yul\":4201:4221   */\n      sub\n        /* \"#utility.yul\":4196:4198   */\n      0x20\n        /* \"#utility.yul\":4185:4194   */\n      dup4\n        /* \"#utility.yul\":4181:4199   */\n      add\n        /* \"#utility.yul\":4174:4222   */\n      mstore\n        /* \"#utility.yul\":4239:4317   */\n      tag_139\n        /* \"#utility.yul\":4312:4316   */\n      dup2\n        /* \"#utility.yul\":4303:4309   */\n      dup5\n        /* \"#utility.yul\":4239:4317   */\n      tag_78\n      jump\t// in\n    tag_139:\n        /* \"#utility.yul\":4231:4317   */\n      swap1\n      pop\n        /* \"#utility.yul\":3810:4324   */\n      swap4\n      swap3\n      pop\n      pop\n      pop\n      jump\t// out\n        /* \"#utility.yul\":4330:4478   */\n    tag_79:\n        /* \"#utility.yul\":4432:4443   */\n      0x00\n        /* \"#utility.yul\":4469:4472   */\n      dup2\n        /* \"#utility.yul\":4454:4472   */\n      swap1\n      pop\n        /* \"#utility.yul\":4330:4478   */\n      swap3\n      swap2\n      pop\n      pop\n      jump\t// out\n        /* \"#utility.yul\":4484:4645   */\n    tag_80:\n        /* \"#utility.yul\":4624:4637   */\n      0x68656c6c6f20776f726c64000000000000000000000000000000000000000000\n        /* \"#utility.yul\":4620:4621   */\n      0x00\n        /* \"#utility.yul\":4612:4618   */\n      dup3\n        /* \"#utility.yul\":4608:4622   */\n      add\n        /* \"#utility.yul\":4601:4638   */\n      mstore\n        /* \"#utility.yul\":4484:4645   */\n      pop\n      jump\t// out\n        /* \"#utility.yul\":4651:5053   */\n    tag_81:\n        /* \"#utility.yul\":4811:4814   */\n      0x00\n        /* \"#utility.yul\":4832:4917   */\n      tag_143\n        /* \"#utility.yul\":4914:4916   */\n      0x0b\n        /* \"#utility.yul\":4909:4912   */\n      dup4\n        /* \"#utility.yul\":4832:4917   */\n      tag_79\n      jump\t// in\n    tag_143:\n        /* \"#utility.yul\":4825:4917   */\n      swap2\n      pop\n        /* \"#utility.yul\":4926:5019   */\n      tag_144\n        /* \"#utility.yul\":5015:5018   */\n      dup3\n        /* \"#utility.yul\":4926:5019   */\n      tag_80\n      jump\t// in\n    tag_144:\n        /* \"#utility.yul\":5044:5046   */\n      0x0b\n        /* \"#utility.yul\":5039:5042   */\n      dup3\n        /* \"#utility.yul\":5035:5047   */\n      add\n        /* \"#utility.yul\":5028:5047   */\n      swap1\n      pop\n        /* \"#utility.yul\":4651:5053   */\n      swap2\n      swap1\n      pop\n      jump\t// out\n        /* \"#utility.yul\":5059:5440   */\n    tag_40:\n        /* \"#utility.yul\":5244:5247   */\n      0x00\n        /* \"#utility.yul\":5266:5414   */\n      tag_146\n        /* \"#utility.yul\":5410:5413   */\n      dup3\n        /* \"#utility.yul\":5266:5414   */\n      tag_81\n      jump\t// in\n    tag_146:\n        /* \"#utility.yul\":5259:5414   */\n      swap2\n      pop\n        /* \"#utility.yul\":5431:5434   */\n      dup2\n        /* \"#utility.yul\":5424:5434   */\n      swap1\n      pop\n        /* \"#utility.yul\":5059:5440   */\n      swap2\n      swap1\n      pop\n      jump\t// out\n        /* \"#utility.yul\":5446:5593   */\n    tag_82:\n        /* \"#utility.yul\":5547:5558   */\n      0x00\n        /* \"#utility.yul\":5584:5587   */\n      dup2\n        /* \"#utility.yul\":5569:5587   */\n      swap1\n      pop\n        /* \"#utility.yul\":5446:5593   */\n      swap3\n      swap2\n      pop\n      pop\n      jump\t// out\n        /* \"#utility.yul\":5599:5713   */\n    tag_83:\n      pop\n      jump\t// out\n        /* \"#utility.yul\":5719:6117   */\n    tag_84:\n        /* \"#utility.yul\":5878:5881   */\n      0x00\n        /* \"#utility.yul\":5899:5982   */\n      tag_150\n        /* \"#utility.yul\":5980:5981   */\n      0x00\n        /* \"#utility.yul\":5975:5978   */\n      dup4\n        /* \"#utility.yul\":5899:5982   */\n      tag_82\n      jump\t// in\n    tag_150:\n        /* \"#utility.yul\":5892:5982   */\n      swap2\n      pop\n        /* \"#utility.yul\":5991:6084   */\n      tag_151\n        /* \"#utility.yul\":6080:6083   */\n      dup3\n        /* \"#utility.yul\":5991:6084   */\n      tag_83\n      jump\t// in\n    tag_151:\n        /* \"#utility.yul\":6109:6110   */\n      0x00\n        /* \"#utility.yul\":6104:6107   */\n      dup3\n        /* \"#utility.yul\":6100:6111   */\n      add\n        /* \"#utility.yul\":6093:6111   */\n      swap1\n      pop\n        /* \"#utility.yul\":5719:6117   */\n      swap2\n      swap1\n      pop\n      jump\t// out\n        /* \"#utility.yul\":6123:6502   */\n    tag_43:\n        /* \"#utility.yul\":6307:6310   */\n      0x00\n        /* \"#utility.yul\":6329:6476   */\n      tag_153\n        /* \"#utility.yul\":6472:6475   */\n      dup3\n        /* \"#utility.yul\":6329:6476   */\n      tag_84\n      jump\t// in\n    tag_153:\n        /* \"#utility.yul\":6322:6476   */\n      swap2\n      pop\n        /* \"#utility.yul\":6493:6496   */\n      dup2\n        /* \"#utility.yul\":6486:6496   */\n      swap1\n      pop\n        /* \"#utility.yul\":6123:6502   */\n      swap2\n      swap1\n      pop\n      jump\t// out\n        /* \"#utility.yul\":6508:6874   */\n    tag_85:\n        /* \"#utility.yul\":6650:6653   */\n      0x00\n        /* \"#utility.yul\":6671:6738   */\n      tag_155\n        /* \"#utility.yul\":6735:6737   */\n      0x0b\n        /* \"#utility.yul\":6730:6733   */\n      dup4\n        /* \"#utility.yul\":6671:6738   */\n      tag_77\n      jump\t// in\n    tag_155:\n        /* \"#utility.yul\":6664:6738   */\n      swap2\n      pop\n        /* \"#utility.yul\":6747:6840   */\n      tag_156\n        /* \"#utility.yul\":6836:6839   */\n      dup3\n        /* \"#utility.yul\":6747:6840   */\n      tag_80\n      jump\t// in\n    tag_156:\n        /* \"#utility.yul\":6865:6867   */\n      0x20\n        /* \"#utility.yul\":6860:6863   */\n      dup3\n        /* \"#utility.yul\":6856:6868   */\n      add\n        /* \"#utility.yul\":6849:6868   */\n      swap1\n      pop\n        /* \"#utility.yul\":6508:6874   */\n      swap2\n      swap1\n      pop\n      jump\t// out\n        /* \"#utility.yul\":6880:7299   */\n    tag_49:\n        /* \"#utility.yul\":7046:7050   */\n      0x00\n        /* \"#utility.yul\":7084:7086   */\n      0x20\n        /* \"#utility.yul\":7073:7082   */\n      dup3\n        /* \"#utility.yul\":7069:7087   */\n      add\n        /* \"#utility.yul\":7061:7087   */\n      swap1\n      pop\n        /* \"#utility.yul\":7133:7142   */\n      dup2\n        /* \"#utility.yul\":7127:7131   */\n      dup2\n        /* \"#utility.yul\":7123:7143   */\n      sub\n        /* \"#utility.yul\":7119:7120   */\n      0x00\n        /* \"#utility.yul\":7108:7117   */\n      dup4\n        /* \"#utility.yul\":7104:7121   */\n      add\n        /* \"#utility.yul\":7097:7144   */\n      mstore\n        /* \"#utility.yul\":7161:7292   */\n      tag_158\n        /* \"#utility.yul\":7287:7291   */\n      dup2\n        /* \"#utility.yul\":7161:7292   */\n      tag_85\n      jump\t// in\n    tag_158:\n        /* \"#utility.yul\":7153:7292   */\n      swap1\n      pop\n        /* \"#utility.yul\":6880:7299   */\n      swap2\n      swap1\n      pop\n      jump\t// out\n        /* \"#utility.yul\":7305:7465   */\n    tag_86:\n        /* \"#utility.yul\":7445:7457   */\n      0x6920616d2068696d786100000000000000000000000000000000000000000000\n        /* \"#utility.yul\":7441:7442   */\n      0x00\n        /* \"#utility.yul\":7433:7439   */\n      dup3\n        /* \"#utility.yul\":7429:7443   */\n      add\n        /* \"#utility.yul\":7422:7458   */\n      mstore\n        /* \"#utility.yul\":7305:7465   */\n      pop\n      jump\t// out\n        /* \"#utility.yul\":7471:7837   */\n    tag_87:\n        /* \"#utility.yul\":7613:7616   */\n      0x00\n        /* \"#utility.yul\":7634:7701   */\n      tag_161\n        /* \"#utility.yul\":7698:7700   */\n      0x0a\n        /* \"#utility.yul\":7693:7696   */\n      dup4\n        /* \"#utility.yul\":7634:7701   */\n      tag_77\n      jump\t// in\n    tag_161:\n        /* \"#utility.yul\":7627:7701   */\n      swap2\n      pop\n        /* \"#utility.yul\":7710:7803   */\n      tag_162\n        /* \"#utility.yul\":7799:7802   */\n      dup3\n        /* \"#utility.yul\":7710:7803   */\n      tag_86\n      jump\t// in\n    tag_162:\n        /* \"#utility.yul\":7828:7830   */\n      0x20\n        /* \"#utility.yul\":7823:7826   */\n      dup3\n        /* \"#utility.yul\":7819:7831   */\n      add\n        /* \"#utility.yul\":7812:7831   */\n      swap1\n      pop\n        /* \"#utility.yul\":7471:7837   */\n      swap2\n      swap1\n      pop\n      jump\t// out\n        /* \"#utility.yul\":7843:8569   */\n    tag_53:\n        /* \"#utility.yul\":8110:8114   */\n      0x00\n        /* \"#utility.yul\":8148:8150   */\n      0x40\n        /* \"#utility.yul\":8137:8146   */\n      dup3\n        /* \"#utility.yul\":8133:8151   */\n      add\n        /* \"#utility.yul\":8125:8151   */\n      swap1\n      pop\n        /* \"#utility.yul\":8197:8206   */\n      dup2\n        /* \"#utility.yul\":8191:8195   */\n      dup2\n        /* \"#utility.yul\":8187:8207   */\n      sub\n        /* \"#utility.yul\":8183:8184   */\n      0x00\n        /* \"#utility.yul\":8172:8181   */\n      dup4\n        /* \"#utility.yul\":8168:8185   */\n      add\n        /* \"#utility.yul\":8161:8208   */\n      mstore\n        /* \"#utility.yul\":8225:8356   */\n      tag_164\n        /* \"#utility.yul\":8351:8355   */\n      dup2\n        /* \"#utility.yul\":8225:8356   */\n      tag_85\n      jump\t// in\n    tag_164:\n        /* \"#utility.yul\":8217:8356   */\n      swap1\n      pop\n        /* \"#utility.yul\":8403:8412   */\n      dup2\n        /* \"#utility.yul\":8397:8401   */\n      dup2\n        /* \"#utility.yul\":8393:8413   */\n      sub\n        /* \"#utility.yul\":8388:8390   */\n      0x20\n        /* \"#utility.yul\":8377:8386   */\n      dup4\n        /* \"#utility.yul\":8373:8391   */\n      add\n        /* \"#utility.yul\":8366:8414   */\n      mstore\n        /* \"#utility.yul\":8431:8562   */\n      tag_165\n        /* \"#utility.yul\":8557:8561   */\n      dup2\n        /* \"#utility.yul\":8431:8562   */\n      tag_87\n      jump\t// in\n    tag_165:\n        /* \"#utility.yul\":8423:8562   */\n      swap1\n      pop\n        /* \"#utility.yul\":7843:8569   */\n      swap2\n      swap1\n      pop\n      jump\t// out\n        /* \"#utility.yul\":8575:8692   */\n    tag_88:\n        /* \"#utility.yul\":8684:8685   */\n      0x00\n        /* \"#utility.yul\":8681:8682   */\n      0x00\n        /* \"#utility.yul\":8674:8686   */\n      revert\n        /* \"#utility.yul\":8698:8815   */\n    tag_89:\n        /* \"#utility.yul\":8807:8808   */\n      0x00\n        /* \"#utility.yul\":8804:8805   */\n      0x00\n        /* \"#utility.yul\":8797:8809   */\n      revert\n        /* \"#utility.yul\":8821:9001   */\n    tag_90:\n        /* \"#utility.yul\":8869:8946   */\n      0x4e487b7100000000000000000000000000000000000000000000000000000000\n        /* \"#utility.yul\":8866:8867   */\n      0x00\n        /* \"#utility.yul\":8859:8947   */\n      mstore\n        /* \"#utility.yul\":8966:8970   */\n      0x41\n        /* \"#utility.yul\":8963:8964   */\n      0x04\n        /* \"#utility.yul\":8956:8971   */\n      mstore\n        /* \"#utility.yul\":8990:8994   */\n      0x24\n        /* \"#utility.yul\":8987:8988   */\n      0x00\n        /* \"#utility.yul\":8980:8995   */\n      revert\n        /* \"#utility.yul\":9007:9288   */\n    tag_91:\n        /* \"#utility.yul\":9090:9117   */\n      tag_170\n        /* \"#utility.yul\":9112:9116   */\n      dup3\n        /* \"#utility.yul\":9090:9117   */\n      tag_65\n      jump\t// in\n    tag_170:\n        /* \"#utility.yul\":9082:9088   */\n      dup2\n        /* \"#utility.yul\":9078:9118   */\n      add\n        /* \"#utility.yul\":9220:9226   */\n      dup2\n        /* \"#utility.yul\":9208:9218   */\n      dup2\n        /* \"#utility.yul\":9205:9227   */\n      lt\n        /* \"#utility.yul\":9184:9202   */\n      0xffffffffffffffff\n        /* \"#utility.yul\":9172:9182   */\n      dup3\n        /* \"#utility.yul\":9169:9203   */\n      gt\n        /* \"#utility.yul\":9166:9228   */\n      or\n        /* \"#utility.yul\":9163:9251   */\n      iszero\n      tag_171\n      jumpi\n        /* \"#utility.yul\":9231:9249   */\n      tag_172\n      tag_90\n      jump\t// in\n    tag_172:\n        /* \"#utility.yul\":9163:9251   */\n    tag_171:\n        /* \"#utility.yul\":9271:9281   */\n      dup1\n        /* \"#utility.yul\":9267:9269   */\n      0x40\n        /* \"#utility.yul\":9260:9282   */\n      mstore\n        /* \"#utility.yul\":9050:9288   */\n      pop\n        /* \"#utility.yul\":9007:9288   */\n      pop\n      pop\n      jump\t// out\n        /* \"#utility.yul\":9294:9423   */\n    tag_92:\n        /* \"#utility.yul\":9328:9334   */\n      0x00\n        /* \"#utility.yul\":9355:9375   */\n      tag_174\n      tag_67\n      jump\t// in\n    tag_174:\n        /* \"#utility.yul\":9345:9375   */\n      swap1\n      pop\n        /* \"#utility.yul\":9384:9417   */\n      tag_175\n        /* \"#utility.yul\":9412:9416   */\n      dup3\n        /* \"#utility.yul\":9404:9410   */\n      dup3\n        /* \"#utility.yul\":9384:9417   */\n      tag_91\n      jump\t// in\n    tag_175:\n        /* \"#utility.yul\":9294:9423   */\n      swap2\n      swap1\n      pop\n      jump\t// out\n        /* \"#utility.yul\":9429:9737   */\n    tag_93:\n        /* \"#utility.yul\":9491:9495   */\n      0x00\n        /* \"#utility.yul\":9581:9599   */\n      0xffffffffffffffff\n        /* \"#utility.yul\":9573:9579   */\n      dup3\n        /* \"#utility.yul\":9570:9600   */\n      gt\n        /* \"#utility.yul\":9567:9623   */\n      iszero\n      tag_177\n      jumpi\n        /* \"#utility.yul\":9603:9621   */\n      tag_178\n      tag_90\n      jump\t// in\n    tag_178:\n        /* \"#utility.yul\":9567:9623   */\n    tag_177:\n        /* \"#utility.yul\":9641:9670   */\n      tag_179\n        /* \"#utility.yul\":9663:9669   */\n      dup3\n        /* \"#utility.yul\":9641:9670   */\n      tag_65\n      jump\t// in\n    tag_179:\n        /* \"#utility.yul\":9633:9670   */\n      swap1\n      pop\n        /* \"#utility.yul\":9725:9729   */\n      0x20\n        /* \"#utility.yul\":9719:9723   */\n      dup2\n        /* \"#utility.yul\":9715:9730   */\n      add\n        /* \"#utility.yul\":9707:9730   */\n      swap1\n      pop\n        /* \"#utility.yul\":9429:9737   */\n      swap2\n      swap1\n      pop\n      jump\t// out\n        /* \"#utility.yul\":9743:10177   */\n    tag_94:\n        /* \"#utility.yul\":9832:9837   */\n      0x00\n        /* \"#utility.yul\":9857:9923   */\n      tag_181\n        /* \"#utility.yul\":9873:9922   */\n      tag_182\n        /* \"#utility.yul\":9915:9921   */\n      dup5\n        /* \"#utility.yul\":9873:9922   */\n      tag_93\n      jump\t// in\n    tag_182:\n        /* \"#utility.yul\":9857:9923   */\n      tag_92\n      jump\t// in\n    tag_181:\n        /* \"#utility.yul\":9848:9923   */\n      swap1\n      pop\n        /* \"#utility.yul\":9946:9952   */\n      dup3\n        /* \"#utility.yul\":9939:9944   */\n      dup2\n        /* \"#utility.yul\":9932:9953   */\n      mstore\n        /* \"#utility.yul\":9984:9988   */\n      0x20\n        /* \"#utility.yul\":9977:9982   */\n      dup2\n        /* \"#utility.yul\":9973:9989   */\n      add\n        /* \"#utility.yul\":10022:10025   */\n      dup5\n        /* \"#utility.yul\":10013:10019   */\n      dup5\n        /* \"#utility.yul\":10008:10011   */\n      dup5\n        /* \"#utility.yul\":10004:10020   */\n      add\n        /* \"#utility.yul\":10001:10026   */\n      gt\n        /* \"#utility.yul\":9998:10110   */\n      iszero\n      tag_183\n      jumpi\n        /* \"#utility.yul\":10029:10108   */\n      tag_184\n      tag_89\n      jump\t// in\n    tag_184:\n        /* \"#utility.yul\":9998:10110   */\n    tag_183:\n        /* \"#utility.yul\":10119:10171   */\n      tag_185\n        /* \"#utility.yul\":10164:10170   */\n      dup5\n        /* \"#utility.yul\":10159:10162   */\n      dup3\n        /* \"#utility.yul\":10154:10157   */\n      dup6\n        /* \"#utility.yul\":10119:10171   */\n      tag_64\n      jump\t// in\n    tag_185:\n        /* \"#utility.yul\":9838:10177   */\n      pop\n        /* \"#utility.yul\":9743:10177   */\n      swap4\n      swap3\n      pop\n      pop\n      pop\n      jump\t// out\n        /* \"#utility.yul\":10197:10552   */\n    tag_95:\n        /* \"#utility.yul\":10264:10269   */\n      0x00\n        /* \"#utility.yul\":10313:10316   */\n      dup3\n        /* \"#utility.yul\":10306:10310   */\n      0x1f\n        /* \"#utility.yul\":10298:10304   */\n      dup4\n        /* \"#utility.yul\":10294:10311   */\n      add\n        /* \"#utility.yul\":10290:10317   */\n      slt\n        /* \"#utility.yul\":10280:10402   */\n      tag_187\n      jumpi\n        /* \"#utility.yul\":10321:10400   */\n      tag_188\n      tag_88\n      jump\t// in\n    tag_188:\n        /* \"#utility.yul\":10280:10402   */\n    tag_187:\n        /* \"#utility.yul\":10431:10437   */\n      dup2\n        /* \"#utility.yul\":10425:10438   */\n      mload\n        /* \"#utility.yul\":10456:10546   */\n      tag_189\n        /* \"#utility.yul\":10542:10545   */\n      dup5\n        /* \"#utility.yul\":10534:10540   */\n      dup3\n        /* \"#utility.yul\":10527:10531   */\n      0x20\n        /* \"#utility.yul\":10519:10525   */\n      dup7\n        /* \"#utility.yul\":10515:10532   */\n      add\n        /* \"#utility.yul\":10456:10546   */\n      tag_94\n      jump\t// in\n    tag_189:\n        /* \"#utility.yul\":10447:10546   */\n      swap2\n      pop\n        /* \"#utility.yul\":10270:10552   */\n      pop\n        /* \"#utility.yul\":10197:10552   */\n      swap3\n      swap2\n      pop\n      pop\n      jump\t// out\n        /* \"#utility.yul\":10558:11082   */\n    tag_57:\n        /* \"#utility.yul\":10638:10644   */\n      0x00\n        /* \"#utility.yul\":10687:10689   */\n      0x20\n        /* \"#utility.yul\":10675:10684   */\n      dup3\n        /* \"#utility.yul\":10666:10673   */\n      dup5\n        /* \"#utility.yul\":10662:10685   */\n      sub\n        /* \"#utility.yul\":10658:10690   */\n      slt\n        /* \"#utility.yul\":10655:10774   */\n      iszero\n      tag_191\n      jumpi\n        /* \"#utility.yul\":10693:10772   */\n      tag_192\n      tag_68\n      jump\t// in\n    tag_192:\n        /* \"#utility.yul\":10655:10774   */\n    tag_191:\n        /* \"#utility.yul\":10834:10835   */\n      0x00\n        /* \"#utility.yul\":10823:10832   */\n      dup3\n        /* \"#utility.yul\":10819:10836   */\n      add\n        /* \"#utility.yul\":10813:10837   */\n      mload\n        /* \"#utility.yul\":10864:10882   */\n      0xffffffffffffffff\n        /* \"#utility.yul\":10856:10862   */\n      dup2\n        /* \"#utility.yul\":10853:10883   */\n      gt\n        /* \"#utility.yul\":10850:10967   */\n      iszero\n      tag_193\n      jumpi\n        /* \"#utility.yul\":10886:10965   */\n      tag_194\n      tag_69\n      jump\t// in\n    tag_194:\n        /* \"#utility.yul\":10850:10967   */\n    tag_193:\n        /* \"#utility.yul\":10991:11065   */\n      tag_195\n        /* \"#utility.yul\":11057:11064   */\n      dup5\n        /* \"#utility.yul\":11048:11054   */\n      dup3\n        /* \"#utility.yul\":11037:11046   */\n      dup6\n        /* \"#utility.yul\":11033:11055   */\n      add\n        /* \"#utility.yul\":10991:11065   */\n      tag_95\n      jump\t// in\n    tag_195:\n        /* \"#utility.yul\":10981:11065   */\n      swap2\n      pop\n        /* \"#utility.yul\":10784:11075   */\n      pop\n        /* \"#utility.yul\":10558:11082   */\n      swap3\n      swap2\n      pop\n      pop\n      jump\t// out\n        /* \"#utility.yul\":11088:11941   */\n    tag_61:\n        /* \"#utility.yul\":11187:11193   */\n      0x00\n        /* \"#utility.yul\":11195:11201   */\n      0x00\n        /* \"#utility.yul\":11244:11246   */\n      0x40\n        /* \"#utility.yul\":11232:11241   */\n      dup4\n        /* \"#utility.yul\":11223:11230   */\n      dup6\n        /* \"#utility.yul\":11219:11242   */\n      sub\n        /* \"#utility.yul\":11215:11247   */\n      slt\n        /* \"#utility.yul\":11212:11331   */\n      iszero\n      tag_197\n      jumpi\n        /* \"#utility.yul\":11250:11329   */\n      tag_198\n      tag_68\n      jump\t// in\n    tag_198:\n        /* \"#utility.yul\":11212:11331   */\n    tag_197:\n        /* \"#utility.yul\":11391:11392   */\n      0x00\n        /* \"#utility.yul\":11380:11389   */\n      dup4\n        /* \"#utility.yul\":11376:11393   */\n      add\n        /* \"#utility.yul\":11370:11394   */\n      mload\n        /* \"#utility.yul\":11421:11439   */\n      0xffffffffffffffff\n        /* \"#utility.yul\":11413:11419   */\n      dup2\n        /* \"#utility.yul\":11410:11440   */\n      gt\n        /* \"#utility.yul\":11407:11524   */\n      iszero\n      tag_199\n      jumpi\n        /* \"#utility.yul\":11443:11522   */\n      tag_200\n      tag_69\n      jump\t// in\n    tag_200:\n        /* \"#utility.yul\":11407:11524   */\n    tag_199:\n        /* \"#utility.yul\":11548:11622   */\n      tag_201\n        /* \"#utility.yul\":11614:11621   */\n      dup6\n        /* \"#utility.yul\":11605:11611   */\n      dup3\n        /* \"#utility.yul\":11594:11603   */\n      dup7\n        /* \"#utility.yul\":11590:11612   */\n      add\n        /* \"#utility.yul\":11548:11622   */\n      tag_95\n      jump\t// in\n    tag_201:\n        /* \"#utility.yul\":11538:11622   */\n      swap3\n      pop\n        /* \"#utility.yul\":11341:11632   */\n      pop\n        /* \"#utility.yul\":11692:11694   */\n      0x20\n        /* \"#utility.yul\":11681:11690   */\n      dup4\n        /* \"#utility.yul\":11677:11695   */\n      add\n        /* \"#utility.yul\":11671:11696   */\n      mload\n        /* \"#utility.yul\":11723:11741   */\n      0xffffffffffffffff\n        /* \"#utility.yul\":11715:11721   */\n      dup2\n        /* \"#utility.yul\":11712:11742   */\n      gt\n        /* \"#utility.yul\":11709:11826   */\n      iszero\n      tag_202\n      jumpi\n        /* \"#utility.yul\":11745:11824   */\n      tag_203\n      tag_69\n      jump\t// in\n    tag_203:\n        /* \"#utility.yul\":11709:11826   */\n    tag_202:\n        /* \"#utility.yul\":11850:11924   */\n      tag_204\n        /* \"#utility.yul\":11916:11923   */\n      dup6\n        /* \"#utility.yul\":11907:11913   */\n      dup3\n        /* \"#utility.yul\":11896:11905   */\n      dup7\n        /* \"#utility.yul\":11892:11914   */\n      add\n        /* \"#utility.yul\":11850:11924   */\n      tag_95\n      jump\t// in\n    tag_204:\n        /* \"#utility.yul\":11840:11924   */\n      swap2\n      pop\n        /* \"#utility.yul\":11642:11934   */\n      pop\n        /* \"#utility.yul\":11088:11941   */\n      swap3\n      pop\n      swap3\n      swap1\n      pop\n      jump\t// out\n\n    auxdata: 0xa26469706673582212205cff2af3206ee78d555d49c9fadd8317bb2db59aa07f9d8b9dde3fe292d1214d64736f6c634300081e0033\n}\n",
				"bytecode": {
					"linkReferences": {},
					"object": "6080604052348015600e575f5ffd5b506108538061001c5f395ff3fe608060405234801561000f575f5ffd5b506004361061007b575f3560e01c806386fda78a1161005957806386fda78a146100eb578063a6dc49b814610109578063c0f8940c14610127578063c452d79b146101455761007b565b80631198252a1461007f57806351cff8d91461009d5780635485c6a1146100cd575b5f5ffd5b610087610164565b604051610094919061034e565b60405180910390f35b6100b760048036038101906100b291906103d9565b610189565b6040516100c4919061041e565b60405180910390f35b6100d56101fb565b6040516100e2919061034e565b60405180910390f35b6100f3610220565b604051610100919061034e565b60405180910390f35b61011161025d565b60405161011e919061034e565b60405180910390f35b61012f610287565b60405161013c9190610489565b60405180910390f35b61014d6102ae565b60405161015b9291906104a9565b60405180910390f35b606060405160200161017590610532565b604051602081830303815290604052905090565b5f5f8273ffffffffffffffffffffffffffffffffffffffff16476040516101af90610573565b5f6040518083038185875af1925050503d805f81146101e9576040519150601f19603f3d011682016040523d82523d5f602084013e6101ee565b606091505b5050905080915050919050565b606060405160200161020c906105a9565b604051602081830303815290604052905090565b60606040518060400160405280600b81526020017f68656c6c6f20776f726c64000000000000000000000000000000000000000000815250905090565b60605f60405160200161026f90610611565b60405160208183030381529060405290508091505090565b60605f6102926101fb565b8060200190518101906102a59190610760565b90508091505090565b6060805f5f6102bb61025d565b8060200190518101906102ce91906107a7565b9150915081819350935050509091565b5f81519050919050565b5f82825260208201905092915050565b8281835e5f83830152505050565b5f601f19601f8301169050919050565b5f610320826102de565b61032a81856102e8565b935061033a8185602086016102f8565b61034381610306565b840191505092915050565b5f6020820190508181035f8301526103668184610316565b905092915050565b5f604051905090565b5f5ffd5b5f5ffd5b5f73ffffffffffffffffffffffffffffffffffffffff82169050919050565b5f6103a88261037f565b9050919050565b6103b88161039e565b81146103c2575f5ffd5b50565b5f813590506103d3816103af565b92915050565b5f602082840312156103ee576103ed610377565b5b5f6103fb848285016103c5565b91505092915050565b5f8115159050919050565b61041881610404565b82525050565b5f6020820190506104315f83018461040f565b92915050565b5f81519050919050565b5f82825260208201905092915050565b5f61045b82610437565b6104658185610441565b93506104758185602086016102f8565b61047e81610306565b840191505092915050565b5f6020820190508181035f8301526104a18184610451565b905092915050565b5f6040820190508181035f8301526104c18185610451565b905081810360208301526104d58184610451565b90509392505050565b5f81905092915050565b7f68656c6c6f20776f726c640000000000000000000000000000000000000000005f82015250565b5f61051c600b836104de565b9150610527826104e8565b600b82019050919050565b5f61053c82610510565b9150819050919050565b5f81905092915050565b50565b5f61055e5f83610546565b915061056982610550565b5f82019050919050565b5f61057d82610553565b9150819050919050565b5f610593600b83610441565b915061059e826104e8565b602082019050919050565b5f6020820190508181035f8301526105c081610587565b9050919050565b7f6920616d2068696d7861000000000000000000000000000000000000000000005f82015250565b5f6105fb600a83610441565b9150610606826105c7565b602082019050919050565b5f6040820190508181035f83015261062881610587565b9050818103602083015261063b816105ef565b9050919050565b5f5ffd5b5f5ffd5b7f4e487b71000000000000000000000000000000000000000000000000000000005f52604160045260245ffd5b61068082610306565b810181811067ffffffffffffffff8211171561069f5761069e61064a565b5b80604052505050565b5f6106b161036e565b90506106bd8282610677565b919050565b5f67ffffffffffffffff8211156106dc576106db61064a565b5b6106e582610306565b9050602081019050919050565b5f6107046106ff846106c2565b6106a8565b9050828152602081018484840111156107205761071f610646565b5b61072b8482856102f8565b509392505050565b5f82601f83011261074757610746610642565b5b81516107578482602086016106f2565b91505092915050565b5f6020828403121561077557610774610377565b5b5f82015167ffffffffffffffff8111156107925761079161037b565b5b61079e84828501610733565b91505092915050565b5f5f604083850312156107bd576107bc610377565b5b5f83015167ffffffffffffffff8111156107da576107d961037b565b5b6107e685828601610733565b925050602083015167ffffffffffffffff8111156108075761080661037b565b5b61081385828601610733565b915050925092905056fea26469706673582212205cff2af3206ee78d555d49c9fadd8317bb2db59aa07f9d8b9dde3fe292d1214d64736f6c634300081e0033",
					"opcodes": "PUSH1 0x80 PUSH1 0x40 MSTORE CALLVALUE DUP1 ISZERO PUSH1 0xE JUMPI PUSH0 PUSH0 REVERT JUMPDEST POP PUSH2 0x853 DUP1 PUSH2 0x1C PUSH0 CODECOPY PUSH0 RETURN INVALID PUSH1 0x80 PUSH1 0x40 MSTORE CALLVALUE DUP1 ISZERO PUSH2 0xF JUMPI PUSH0 PUSH0 REVERT JUMPDEST POP PUSH1 0x4 CALLDATASIZE LT PUSH2 0x7B JUMPI PUSH0 CALLDATALOAD PUSH1 0xE0 SHR DUP1 PUSH4 0x86FDA78A GT PUSH2 0x59 JUMPI DUP1 PUSH4 0x86FDA78A EQ PUSH2 0xEB JUMPI DUP1 PUSH4 0xA6DC49B8 EQ PUSH2 0x109 JUMPI DUP1 PUSH4 0xC0F8940C EQ PUSH2 0x127 JUMPI DUP1 PUSH4 0xC452D79B EQ PUSH2 0x145 JUMPI PUSH2 0x7B JUMP JUMPDEST DUP1 PUSH4 0x1198252A EQ PUSH2 0x7F JUMPI DUP1 PUSH4 0x51CFF8D9 EQ PUSH2 0x9D JUMPI DUP1 PUSH4 0x5485C6A1 EQ PUSH2 0xCD JUMPI JUMPDEST PUSH0 PUSH0 REVERT JUMPDEST PUSH2 0x87 PUSH2 0x164 JUMP JUMPDEST PUSH1 0x40 MLOAD PUSH2 0x94 SWAP2 SWAP1 PUSH2 0x34E JUMP JUMPDEST PUSH1 0x40 MLOAD DUP1 SWAP2 SUB SWAP1 RETURN JUMPDEST PUSH2 0xB7 PUSH1 0x4 DUP1 CALLDATASIZE SUB DUP2 ADD SWAP1 PUSH2 0xB2 SWAP2 SWAP1 PUSH2 0x3D9 JUMP JUMPDEST PUSH2 0x189 JUMP JUMPDEST PUSH1 0x40 MLOAD PUSH2 0xC4 SWAP2 SWAP1 PUSH2 0x41E JUMP JUMPDEST PUSH1 0x40 MLOAD DUP1 SWAP2 SUB SWAP1 RETURN JUMPDEST PUSH2 0xD5 PUSH2 0x1FB JUMP JUMPDEST PUSH1 0x40 MLOAD PUSH2 0xE2 SWAP2 SWAP1 PUSH2 0x34E JUMP JUMPDEST PUSH1 0x40 MLOAD DUP1 SWAP2 SUB SWAP1 RETURN JUMPDEST PUSH2 0xF3 PUSH2 0x220 JUMP JUMPDEST PUSH1 0x40 MLOAD PUSH2 0x100 SWAP2 SWAP1 PUSH2 0x34E JUMP JUMPDEST PUSH1 0x40 MLOAD DUP1 SWAP2 SUB SWAP1 RETURN JUMPDEST PUSH2 0x111 PUSH2 0x25D JUMP JUMPDEST PUSH1 0x40 MLOAD PUSH2 0x11E SWAP2 SWAP1 PUSH2 0x34E JUMP JUMPDEST PUSH1 0x40 MLOAD DUP1 SWAP2 SUB SWAP1 RETURN JUMPDEST PUSH2 0x12F PUSH2 0x287 JUMP JUMPDEST PUSH1 0x40 MLOAD PUSH2 0x13C SWAP2 SWAP1 PUSH2 0x489 JUMP JUMPDEST PUSH1 0x40 MLOAD DUP1 SWAP2 SUB SWAP1 RETURN JUMPDEST PUSH2 0x14D PUSH2 0x2AE JUMP JUMPDEST PUSH1 0x40 MLOAD PUSH2 0x15B SWAP3 SWAP2 SWAP1 PUSH2 0x4A9 JUMP JUMPDEST PUSH1 0x40 MLOAD DUP1 SWAP2 SUB SWAP1 RETURN JUMPDEST PUSH1 0x60 PUSH1 0x40 MLOAD PUSH1 0x20 ADD PUSH2 0x175 SWAP1 PUSH2 0x532 JUMP JUMPDEST PUSH1 0x40 MLOAD PUSH1 0x20 DUP2 DUP4 SUB SUB DUP2 MSTORE SWAP1 PUSH1 0x40 MSTORE SWAP1 POP SWAP1 JUMP JUMPDEST PUSH0 PUSH0 DUP3 PUSH20 0xFFFFFFFFFFFFFFFFFFFFFFFFFFFFFFFFFFFFFFFF AND SELFBALANCE PUSH1 0x40 MLOAD PUSH2 0x1AF SWAP1 PUSH2 0x573 JUMP JUMPDEST PUSH0 PUSH1 0x40 MLOAD DUP1 DUP4 SUB DUP2 DUP6 DUP8 GAS CALL SWAP3 POP POP POP RETURNDATASIZE DUP1 PUSH0 DUP2 EQ PUSH2 0x1E9 JUMPI PUSH1 0x40 MLOAD SWAP2 POP PUSH1 0x1F NOT PUSH1 0x3F RETURNDATASIZE ADD AND DUP3 ADD PUSH1 0x40 MSTORE RETURNDATASIZE DUP3 MSTORE RETURNDATASIZE PUSH0 PUSH1 0x20 DUP5 ADD RETURNDATACOPY PUSH2 0x1EE JUMP JUMPDEST PUSH1 0x60 SWAP2 POP JUMPDEST POP POP SWAP1 POP DUP1 SWAP2 POP POP SWAP2 SWAP1 POP JUMP JUMPDEST PUSH1 0x60 PUSH1 0x40 MLOAD PUSH1 0x20 ADD PUSH2 0x20C SWAP1 PUSH2 0x5A9 JUMP JUMPDEST PUSH1 0x40 MLOAD PUSH1 0x20 DUP2 DUP4 SUB SUB DUP2 MSTORE SWAP1 PUSH1 0x40 MSTORE SWAP1 POP SWAP1 JUMP JUMPDEST PUSH1 0x60 PUSH1 0x40 MLOAD DUP1 PUSH1 0x40 ADD PUSH1 0x40 MSTORE DUP1 PUSH1 0xB DUP2 MSTORE PUSH1 0x20 ADD PUSH32 0x68656C6C6F20776F726C64000000000000000000000000000000000000000000 DUP2 MSTORE POP SWAP1 POP SWAP1 JUMP JUMPDEST PUSH1 0x60 PUSH0 PUSH1 0x40 MLOAD PUSH1 0x20 ADD PUSH2 0x26F SWAP1 PUSH2 0x611 JUMP JUMPDEST PUSH1 0x40 MLOAD PUSH1 0x20 DUP2 DUP4 SUB SUB DUP2 MSTORE SWAP1 PUSH1 0x40 MSTORE SWAP1 POP DUP1 SWAP2 POP POP SWAP1 JUMP JUMPDEST PUSH1 0x60 PUSH0 PUSH2 0x292 PUSH2 0x1FB JUMP JUMPDEST DUP1 PUSH1 0x20 ADD SWAP1 MLOAD DUP2 ADD SWAP1 PUSH2 0x2A5 SWAP2 SWAP1 PUSH2 0x760 JUMP JUMPDEST SWAP1 POP DUP1 SWAP2 POP POP SWAP1 JUMP JUMPDEST PUSH1 0x60 DUP1 PUSH0 PUSH0 PUSH2 0x2BB PUSH2 0x25D JUMP JUMPDEST DUP1 PUSH1 0x20 ADD SWAP1 MLOAD DUP2 ADD SWAP1 PUSH2 0x2CE SWAP2 SWAP1 PUSH2 0x7A7 JUMP JUMPDEST SWAP2 POP SWAP2 POP DUP2 DUP2 SWAP4 POP SWAP4 POP POP POP SWAP1 SWAP2 JUMP JUMPDEST PUSH0 DUP2 MLOAD SWAP1 POP SWAP2 SWAP1 POP JUMP JUMPDEST PUSH0 DUP3 DUP3 MSTORE PUSH1 0x20 DUP3 ADD SWAP1 POP SWAP3 SWAP2 POP POP JUMP JUMPDEST DUP3 DUP2 DUP4 MCOPY PUSH0 DUP4 DUP4 ADD MSTORE POP POP POP JUMP JUMPDEST PUSH0 PUSH1 0x1F NOT PUSH1 0x1F DUP4 ADD AND SWAP1 POP SWAP2 SWAP1 POP JUMP JUMPDEST PUSH0 PUSH2 0x320 DUP3 PUSH2 0x2DE JUMP JUMPDEST PUSH2 0x32A DUP2 DUP6 PUSH2 0x2E8 JUMP JUMPDEST SWAP4 POP PUSH2 0x33A DUP2 DUP6 PUSH1 0x20 DUP7 ADD PUSH2 0x2F8 JUMP JUMPDEST PUSH2 0x343 DUP2 PUSH2 0x306 JUMP JUMPDEST DUP5 ADD SWAP2 POP POP SWAP3 SWAP2 POP POP JUMP JUMPDEST PUSH0 PUSH1 0x20 DUP3 ADD SWAP1 POP DUP2 DUP2 SUB PUSH0 DUP4 ADD MSTORE PUSH2 0x366 DUP2 DUP5 PUSH2 0x316 JUMP JUMPDEST SWAP1 POP SWAP3 SWAP2 POP POP JUMP JUMPDEST PUSH0 PUSH1 0x40 MLOAD SWAP1 POP SWAP1 JUMP JUMPDEST PUSH0 PUSH0 REVERT JUMPDEST PUSH0 PUSH0 REVERT JUMPDEST PUSH0 PUSH20 0xFFFFFFFFFFFFFFFFFFFFFFFFFFFFFFFFFFFFFFFF DUP3 AND SWAP1 POP SWAP2 SWAP1 POP JUMP JUMPDEST PUSH0 PUSH2 0x3A8 DUP3 PUSH2 0x37F JUMP JUMPDEST SWAP1 POP SWAP2 SWAP1 POP JUMP JUMPDEST PUSH2 0x3B8 DUP2 PUSH2 0x39E JUMP JUMPDEST DUP2 EQ PUSH2 0x3C2 JUMPI PUSH0 PUSH0 REVERT JUMPDEST POP JUMP JUMPDEST PUSH0 DUP2 CALLDATALOAD SWAP1 POP PUSH2 0x3D3 DUP2 PUSH2 0x3AF JUMP JUMPDEST SWAP3 SWAP2 POP POP JUMP JUMPDEST PUSH0 PUSH1 0x20 DUP3 DUP5 SUB SLT ISZERO PUSH2 0x3EE JUMPI PUSH2 0x3ED PUSH2 0x377 JUMP JUMPDEST JUMPDEST PUSH0 PUSH2 0x3FB DUP5 DUP3 DUP6 ADD PUSH2 0x3C5 JUMP JUMPDEST SWAP2 POP POP SWAP3 SWAP2 POP POP JUMP JUMPDEST PUSH0 DUP2 ISZERO ISZERO SWAP1 POP SWAP2 SWAP1 POP JUMP JUMPDEST PUSH2 0x418 DUP2 PUSH2 0x404 JUMP JUMPDEST DUP3 MSTORE POP POP JUMP JUMPDEST PUSH0 PUSH1 0x20 DUP3 ADD SWAP1 POP PUSH2 0x431 PUSH0 DUP4 ADD DUP5 PUSH2 0x40F JUMP JUMPDEST SWAP3 SWAP2 POP POP JUMP JUMPDEST PUSH0 DUP2 MLOAD SWAP1 POP SWAP2 SWAP1 POP JUMP JUMPDEST PUSH0 DUP3 DUP3 MSTORE PUSH1 0x20 DUP3 ADD SWAP1 POP SWAP3 SWAP2 POP POP JUMP JUMPDEST PUSH0 PUSH2 0x45B DUP3 PUSH2 0x437 JUMP JUMPDEST PUSH2 0x465 DUP2 DUP6 PUSH2 0x441 JUMP JUMPDEST SWAP4 POP PUSH2 0x475 DUP2 DUP6 PUSH1 0x20 DUP7 ADD PUSH2 0x2F8 JUMP JUMPDEST PUSH2 0x47E DUP2 PUSH2 0x306 JUMP JUMPDEST DUP5 ADD SWAP2 POP POP SWAP3 SWAP2 POP POP JUMP JUMPDEST PUSH0 PUSH1 0x20 DUP3 ADD SWAP1 POP DUP2 DUP2 SUB PUSH0 DUP4 ADD MSTORE PUSH2 0x4A1 DUP2 DUP5 PUSH2 0x451 JUMP JUMPDEST SWAP1 POP SWAP3 SWAP2 POP POP JUMP JUMPDEST PUSH0 PUSH1 0x40 DUP3 ADD SWAP1 POP DUP2 DUP2 SUB PUSH0 DUP4 ADD MSTORE PUSH2 0x4C1 DUP2 DUP6 PUSH2 0x451 JUMP JUMPDEST SWAP1 POP DUP2 DUP2 SUB PUSH1 0x20 DUP4 ADD MSTORE PUSH2 0x4D5 DUP2 DUP5 PUSH2 0x451 JUMP JUMPDEST SWAP1 POP SWAP4 SWAP3 POP POP POP JUMP JUMPDEST PUSH0 DUP2 SWAP1 POP SWAP3 SWAP2 POP POP JUMP JUMPDEST PUSH32 0x68656C6C6F20776F726C64000000000000000000000000000000000000000000 PUSH0 DUP3 ADD MSTORE POP JUMP JUMPDEST PUSH0 PUSH2 0x51C PUSH1 0xB DUP4 PUSH2 0x4DE JUMP JUMPDEST SWAP2 POP PUSH2 0x527 DUP3 PUSH2 0x4E8 JUMP JUMPDEST PUSH1 0xB DUP3 ADD SWAP1 POP SWAP2 SWAP1 POP JUMP JUMPDEST PUSH0 PUSH2 0x53C DUP3 PUSH2 0x510 JUMP JUMPDEST SWAP2 POP DUP2 SWAP1 POP SWAP2 SWAP1 POP JUMP JUMPDEST PUSH0 DUP2 SWAP1 POP SWAP3 SWAP2 POP POP JUMP JUMPDEST POP JUMP JUMPDEST PUSH0 PUSH2 0x55E PUSH0 DUP4 PUSH2 0x546 JUMP JUMPDEST SWAP2 POP PUSH2 0x569 DUP3 PUSH2 0x550 JUMP JUMPDEST PUSH0 DUP3 ADD SWAP1 POP SWAP2 SWAP1 POP JUMP JUMPDEST PUSH0 PUSH2 0x57D DUP3 PUSH2 0x553 JUMP JUMPDEST SWAP2 POP DUP2 SWAP1 POP SWAP2 SWAP1 POP JUMP JUMPDEST PUSH0 PUSH2 0x593 PUSH1 0xB DUP4 PUSH2 0x441 JUMP JUMPDEST SWAP2 POP PUSH2 0x59E DUP3 PUSH2 0x4E8 JUMP JUMPDEST PUSH1 0x20 DUP3 ADD SWAP1 POP SWAP2 SWAP1 POP JUMP JUMPDEST PUSH0 PUSH1 0x20 DUP3 ADD SWAP1 POP DUP2 DUP2 SUB PUSH0 DUP4 ADD MSTORE PUSH2 0x5C0 DUP2 PUSH2 0x587 JUMP JUMPDEST SWAP1 POP SWAP2 SWAP1 POP JUMP JUMPDEST PUSH32 0x6920616D2068696D786100000000000000000000000000000000000000000000 PUSH0 DUP3 ADD MSTORE POP JUMP JUMPDEST PUSH0 PUSH2 0x5FB PUSH1 0xA DUP4 PUSH2 0x441 JUMP JUMPDEST SWAP2 POP PUSH2 0x606 DUP3 PUSH2 0x5C7 JUMP JUMPDEST PUSH1 0x20 DUP3 ADD SWAP1 POP SWAP2 SWAP1 POP JUMP JUMPDEST PUSH0 PUSH1 0x40 DUP3 ADD SWAP1 POP DUP2 DUP2 SUB PUSH0 DUP4 ADD MSTORE PUSH2 0x628 DUP2 PUSH2 0x587 JUMP JUMPDEST SWAP1 POP DUP2 DUP2 SUB PUSH1 0x20 DUP4 ADD MSTORE PUSH2 0x63B DUP2 PUSH2 0x5EF JUMP JUMPDEST SWAP1 POP SWAP2 SWAP1 POP JUMP JUMPDEST PUSH0 PUSH0 REVERT JUMPDEST PUSH0 PUSH0 REVERT JUMPDEST PUSH32 0x4E487B7100000000000000000000000000000000000000000000000000000000 PUSH0 MSTORE PUSH1 0x41 PUSH1 0x4 MSTORE PUSH1 0x24 PUSH0 REVERT JUMPDEST PUSH2 0x680 DUP3 PUSH2 0x306 JUMP JUMPDEST DUP2 ADD DUP2 DUP2 LT PUSH8 0xFFFFFFFFFFFFFFFF DUP3 GT OR ISZERO PUSH2 0x69F JUMPI PUSH2 0x69E PUSH2 0x64A JUMP JUMPDEST JUMPDEST DUP1 PUSH1 0x40 MSTORE POP POP POP JUMP JUMPDEST PUSH0 PUSH2 0x6B1 PUSH2 0x36E JUMP JUMPDEST SWAP1 POP PUSH2 0x6BD DUP3 DUP3 PUSH2 0x677 JUMP JUMPDEST SWAP2 SWAP1 POP JUMP JUMPDEST PUSH0 PUSH8 0xFFFFFFFFFFFFFFFF DUP3 GT ISZERO PUSH2 0x6DC JUMPI PUSH2 0x6DB PUSH2 0x64A JUMP JUMPDEST JUMPDEST PUSH2 0x6E5 DUP3 PUSH2 0x306 JUMP JUMPDEST SWAP1 POP PUSH1 0x20 DUP2 ADD SWAP1 POP SWAP2 SWAP1 POP JUMP JUMPDEST PUSH0 PUSH2 0x704 PUSH2 0x6FF DUP5 PUSH2 0x6C2 JUMP JUMPDEST PUSH2 0x6A8 JUMP JUMPDEST SWAP1 POP DUP3 DUP2 MSTORE PUSH1 0x20 DUP2 ADD DUP5 DUP5 DUP5 ADD GT ISZERO PUSH2 0x720 JUMPI PUSH2 0x71F PUSH2 0x646 JUMP JUMPDEST JUMPDEST PUSH2 0x72B DUP5 DUP3 DUP6 PUSH2 0x2F8 JUMP JUMPDEST POP SWAP4 SWAP3 POP POP POP JUMP JUMPDEST PUSH0 DUP3 PUSH1 0x1F DUP4 ADD SLT PUSH2 0x747 JUMPI PUSH2 0x746 PUSH2 0x642 JUMP JUMPDEST JUMPDEST DUP2 MLOAD PUSH2 0x757 DUP5 DUP3 PUSH1 0x20 DUP7 ADD PUSH2 0x6F2 JUMP JUMPDEST SWAP2 POP POP SWAP3 SWAP2 POP POP JUMP JUMPDEST PUSH0 PUSH1 0x20 DUP3 DUP5 SUB SLT ISZERO PUSH2 0x775 JUMPI PUSH2 0x774 PUSH2 0x377 JUMP JUMPDEST JUMPDEST PUSH0 DUP3 ADD MLOAD PUSH8 0xFFFFFFFFFFFFFFFF DUP2 GT ISZERO PUSH2 0x792 JUMPI PUSH2 0x791 PUSH2 0x37B JUMP JUMPDEST JUMPDEST PUSH2 0x79E DUP5 DUP3 DUP6 ADD PUSH2 0x733 JUMP JUMPDEST SWAP2 POP POP SWAP3 SWAP2 POP POP JUMP JUMPDEST PUSH0 PUSH0 PUSH1 0x40 DUP4 DUP6 SUB SLT ISZERO PUSH2 0x7BD JUMPI PUSH2 0x7BC PUSH2 0x377 JUMP JUMPDEST JUMPDEST PUSH0 DUP4 ADD MLOAD PUSH8 0xFFFFFFFFFFFFFFFF DUP2 GT ISZERO PUSH2 0x7DA JUMPI PUSH2 0x7D9 PUSH2 0x37B JUMP JUMPDEST JUMPDEST PUSH2 0x7E6 DUP6 DUP3 DUP7 ADD PUSH2 0x733 JUMP JUMPDEST SWAP3 POP POP PUSH1 0x20 DUP4 ADD MLOAD PUSH8 0xFFFFFFFFFFFFFFFF DUP2 GT ISZERO PUSH2 0x807 JUMPI PUSH2 0x806 PUSH2 0x37B JUMP JUMPDEST JUMPDEST PUSH2 0x813 DUP6 DUP3 DUP7 ADD PUSH2 0x733 JUMP JUMPDEST SWAP2 POP POP SWAP3 POP SWAP3 SWAP1 POP JUMP INVALID LOG2 PUSH5 0x6970667358 0x22 SLT KECCAK256 TLOAD SELFDESTRUCT 0x2A RETURN KECCAK256 PUSH15 0xE78D555D49C9FADD8317BB2DB59AA0 PUSH32 0x9D8B9DDE3FE292D1214D64736F6C634300081E00330000000000000000000000 "
				},
				"gasEstimates": {
					"creation": {
						"codeDepositCost": "426200",
						"executionCost": "459",
						"totalCost": "426659"
					},
					"external": {
						"combineStrigBytes()": "infinite",
						"combineStrigEncode()": "infinite",
						"combineString()": "infinite",
						"decode()": "infinite",
						"multiDecode()": "infinite",
						"multiEncode()": "infinite",
						"withdraw(address)": "infinite"
					}
				},
				"methodIdentifiers": {
					"combineStrigBytes()": "86fda78a",
					"combineStrigEncode()": "1198252a",
					"combineString()": "5485c6a1",
					"decode()": "c0f8940c",
					"multiDecode()": "c452d79b",
					"multiEncode()": "a6dc49b8",
					"withdraw(address)": "51cff8d9"
				}
			},
			"storageLayout": {
				"storage": [],
				"types": null
			},
			"userdoc": {
				"kind": "user",
				"methods": {},
				"version": 1
			}
		}
	}
}