{
	"fundme/fundme.sol": {
		"Fundme": {
			"abi": [
				{
					"inputs": [
						{
							"internalType": "address",
							"name": "",
							"type": "address"
						}
					],
					"name": "addressToAmountFunded",
					"outputs": [
						{
							"internalType": "uint256",
							"name": "",
							"type": "uint256"
						}
					],
					"stateMutability": "view",
					"type": "function"
				},
				{
					"inputs": [
						{
							"internalType": "uint256",
							"name": "",
							"type": "uint256"
						}
					],
					"name": "funders",
					"outputs": [
						{
							"internalType": "address",
							"name": "",
							"type": "address"
						}
					],
					"stateMutability": "view",
					"type": "function"
				},
				{
					"inputs": [],
					"name": "fundme",
					"outputs": [],
					"stateMutability": "payable",
					"type": "function"
				},
				{
					"inputs": [],
					"name": "withdraw",
					"outputs": [],
					"stateMutability": "nonpayable",
					"type": "function"
				}
			],
			"devdoc": {
				"kind": "dev",
				"methods": {},
				"version": 1
			},
			"evm": {
				"assembly": "    /* \"fundme/fundme.sol\":246:2189  contract Fundme{... */\n  mstore(0x40, 0x80)\n  callvalue\n  dup1\n  iszero\n  tag_1\n  jumpi\n  revert(0x00, 0x00)\ntag_1:\n  pop\n  dataSize(sub_0)\n  dup1\n  dataOffset(sub_0)\n  0x00\n  codecopy\n  0x00\n  return\nstop\n\nsub_0: assembly {\n        /* \"fundme/fundme.sol\":246:2189  contract Fundme{... */\n      mstore(0x40, 0x80)\n      jumpi(tag_1, lt(calldatasize, 0x04))\n      shr(0xe0, calldataload(0x00))\n      dup1\n      0x3ccfd60b\n      eq\n      tag_2\n      jumpi\n      dup1\n      0x3e47d6f3\n      eq\n      tag_3\n      jumpi\n      dup1\n      0xd1d9165d\n      eq\n      tag_4\n      jumpi\n      dup1\n      0xdc0d3dff\n      eq\n      tag_5\n      jumpi\n    tag_1:\n      revert(0x00, 0x00)\n        /* \"fundme/fundme.sol\":1267:2182  function withdraw()public{... */\n    tag_2:\n      callvalue\n      dup1\n      iszero\n      tag_6\n      jumpi\n      revert(0x00, 0x00)\n    tag_6:\n      pop\n      tag_7\n      tag_8\n      jump\t// in\n    tag_7:\n      stop\n        /* \"fundme/fundme.sol\":520:578  mapping ( address => uint256) public addressToAmountFunded */\n    tag_3:\n      callvalue\n      dup1\n      iszero\n      tag_9\n      jumpi\n      revert(0x00, 0x00)\n    tag_9:\n      pop\n      tag_10\n      0x04\n      dup1\n      calldatasize\n      sub\n      dup2\n      add\n      swap1\n      tag_11\n      swap2\n      swap1\n      tag_12\n      jump\t// in\n    tag_11:\n      tag_13\n      jump\t// in\n    tag_10:\n      mload(0x40)\n      tag_14\n      swap2\n      swap1\n      tag_15\n      jump\t// in\n    tag_14:\n      mload(0x40)\n      dup1\n      swap2\n      sub\n      swap1\n      return\n        /* \"fundme/fundme.sol\":651:1264  function fundme() public payable {... */\n    tag_4:\n      tag_16\n      tag_17\n      jump\t// in\n    tag_16:\n      stop\n        /* \"fundme/fundme.sol\":493:517  address[] public funders */\n    tag_5:\n      callvalue\n      dup1\n      iszero\n      tag_18\n      jumpi\n      revert(0x00, 0x00)\n    tag_18:\n      pop\n      tag_19\n      0x04\n      dup1\n      calldatasize\n      sub\n      dup2\n      add\n      swap1\n      tag_20\n      swap2\n      swap1\n      tag_21\n      jump\t// in\n    tag_20:\n      tag_22\n      jump\t// in\n    tag_19:\n      mload(0x40)\n      tag_23\n      swap2\n      swap1\n      tag_24\n      jump\t// in\n    tag_23:\n      mload(0x40)\n      dup1\n      swap2\n      sub\n      swap1\n      return\n        /* \"fundme/fundme.sol\":1267:2182  function withdraw()public{... */\n    tag_8:\n        /* \"fundme/fundme.sol\":1450:1463  uint256 index */\n      0x00\n        /* \"fundme/fundme.sol\":1466:1467  0 */\n      0x00\n        /* \"fundme/fundme.sol\":1450:1467  uint256 index = 0 */\n      swap1\n      pop\n        /* \"fundme/fundme.sol\":1446:1579  for(uint256 index = 0;index < funders.length; index++){... */\n    tag_26:\n        /* \"fundme/fundme.sol\":1476:1483  funders */\n      0x00\n        /* \"fundme/fundme.sol\":1476:1490  funders.length */\n      dup1\n      sload\n      swap1\n      pop\n        /* \"fundme/fundme.sol\":1468:1473  index */\n      dup2\n        /* \"fundme/fundme.sol\":1468:1490  index < funders.length */\n      lt\n        /* \"fundme/fundme.sol\":1446:1579  for(uint256 index = 0;index < funders.length; index++){... */\n      iszero\n      tag_27\n      jumpi\n        /* \"fundme/fundme.sol\":1505:1520  address founder */\n      0x00\n        /* \"fundme/fundme.sol\":1523:1530  funders */\n      0x00\n        /* \"fundme/fundme.sol\":1531:1536  index */\n      dup3\n        /* \"fundme/fundme.sol\":1523:1537  funders[index] */\n      dup2\n      sload\n      dup2\n      lt\n      tag_29\n      jumpi\n      tag_30\n      tag_31\n      jump\t// in\n    tag_30:\n    tag_29:\n      swap1\n      0x00\n      mstore\n      keccak256(0x00, 0x20)\n      add\n      0x00\n      swap1\n      sload\n      swap1\n      0x0100\n      exp\n      swap1\n      div\n      0xffffffffffffffffffffffffffffffffffffffff\n      and\n        /* \"fundme/fundme.sol\":1505:1537  address founder = funders[index] */\n      swap1\n      pop\n        /* \"fundme/fundme.sol\":1575:1576  0 */\n      0x00\n        /* \"fundme/fundme.sol\":1542:1563  addressToAmountFunded */\n      0x01\n        /* \"fundme/fundme.sol\":1542:1572  addressToAmountFunded[founder] */\n      0x00\n        /* \"fundme/fundme.sol\":1564:1571  founder */\n      dup4\n        /* \"fundme/fundme.sol\":1542:1572  addressToAmountFunded[founder] */\n      0xffffffffffffffffffffffffffffffffffffffff\n      and\n      0xffffffffffffffffffffffffffffffffffffffff\n      and\n      dup2\n      mstore\n      0x20\n      add\n      swap1\n      dup2\n      mstore\n      0x20\n      add\n      0x00\n      keccak256\n        /* \"fundme/fundme.sol\":1542:1576  addressToAmountFunded[founder] = 0 */\n      dup2\n      swap1\n      sstore\n      pop\n        /* \"fundme/fundme.sol\":1500:1579  {... */\n      pop\n        /* \"fundme/fundme.sol\":1492:1499  index++ */\n      dup1\n      dup1\n      0x01\n      add\n      swap2\n      pop\n      pop\n        /* \"fundme/fundme.sol\":1446:1579  for(uint256 index = 0;index < funders.length; index++){... */\n      jump(tag_26)\n    tag_27:\n      pop\n        /* \"fundme/fundme.sol\":1605:1606  0 */\n      0x00\n        /* \"fundme/fundme.sol\":1591:1607  new address[](0) */\n      0xffffffffffffffff\n      dup2\n      gt\n      iszero\n      tag_33\n      jumpi\n      tag_34\n      tag_35\n      jump\t// in\n    tag_34:\n    tag_33:\n      mload(0x40)\n      swap1\n      dup1\n      dup3\n      mstore\n      dup1\n      0x20\n      mul\n      0x20\n      add\n      dup3\n      add\n      0x40\n      mstore\n      dup1\n      iszero\n      tag_36\n      jumpi\n      dup2\n      0x20\n      add\n      0x20\n      dup3\n      mul\n      dup1\n      calldatasize\n      dup4\n      calldatacopy\n      dup1\n      dup3\n      add\n      swap2\n      pop\n      pop\n      swap1\n      pop\n    tag_36:\n      pop\n        /* \"fundme/fundme.sol\":1581:1588  funders */\n      0x00\n        /* \"fundme/fundme.sol\":1581:1607  funders = new address[](0) */\n      swap1\n      dup1\n      mload\n      swap1\n      0x20\n      add\n      swap1\n      tag_37\n      swap3\n      swap2\n      swap1\n      tag_38\n      jump\t// in\n    tag_37:\n      pop\n        /* \"fundme/fundme.sol\":1702:1712  msg.sender */\n      caller\n        /* \"fundme/fundme.sol\":1694:1722  payable(msg.sender).transfer */\n      0xffffffffffffffffffffffffffffffffffffffff\n      and\n        /* \"fundme/fundme.sol\":1694:1745  payable(msg.sender).transfer(address(this).balance) */\n      0x08fc\n        /* \"fundme/fundme.sol\":1723:1744  address(this).balance */\n      selfbalance\n        /* \"fundme/fundme.sol\":1694:1745  payable(msg.sender).transfer(address(this).balance) */\n      swap1\n      dup2\n      iszero\n      mul\n      swap1\n      mload(0x40)\n      0x00\n      mload(0x40)\n      dup1\n      dup4\n      sub\n      dup2\n      dup6\n      dup9\n      dup9\n      call\n      swap4\n      pop\n      pop\n      pop\n      pop\n      iszero\n      dup1\n      iszero\n      tag_40\n      jumpi\n      returndatacopy(0x00, 0x00, returndatasize)\n      revert(0x00, returndatasize)\n    tag_40:\n      pop\n        /* \"fundme/fundme.sol\":1835:1847  bool success */\n      0x00\n        /* \"fundme/fundme.sol\":1858:1868  msg.sender */\n      caller\n        /* \"fundme/fundme.sol\":1850:1874  payable(msg.sender).send */\n      0xffffffffffffffffffffffffffffffffffffffff\n      and\n        /* \"fundme/fundme.sol\":1850:1897  payable(msg.sender).send(address(this).balance) */\n      0x08fc\n        /* \"fundme/fundme.sol\":1875:1896  address(this).balance */\n      selfbalance\n        /* \"fundme/fundme.sol\":1850:1897  payable(msg.sender).send(address(this).balance) */\n      swap1\n      dup2\n      iszero\n      mul\n      swap1\n      mload(0x40)\n      0x00\n      mload(0x40)\n      dup1\n      dup4\n      sub\n      dup2\n      dup6\n      dup9\n      dup9\n      call\n      swap4\n      pop\n      pop\n      pop\n      pop\n        /* \"fundme/fundme.sol\":1835:1897  bool success = payable(msg.sender).send(address(this).balance) */\n      swap1\n      pop\n        /* \"fundme/fundme.sol\":1948:1955  success */\n      dup1\n        /* \"fundme/fundme.sol\":1940:1974  require(success,'transfer failed') */\n      tag_42\n      jumpi\n      mload(0x40)\n      0x08c379a000000000000000000000000000000000000000000000000000000000\n      dup2\n      mstore\n      0x04\n      add\n      tag_43\n      swap1\n      tag_44\n      jump\t// in\n    tag_43:\n      mload(0x40)\n      dup1\n      swap2\n      sub\n      swap1\n      revert\n    tag_42:\n        /* \"fundme/fundme.sol\":2051:2067  bool callsuccess */\n      0x00\n        /* \"fundme/fundme.sol\":2079:2089  msg.sender */\n      caller\n        /* \"fundme/fundme.sol\":2071:2095  payable(msg.sender).call */\n      0xffffffffffffffffffffffffffffffffffffffff\n      and\n        /* \"fundme/fundme.sol\":2102:2123  address(this).balance */\n      selfbalance\n        /* \"fundme/fundme.sol\":2071:2128  payable(msg.sender).call{value:address(this).balance}('') */\n      mload(0x40)\n      tag_45\n      swap1\n      tag_46\n      jump\t// in\n    tag_45:\n      0x00\n      mload(0x40)\n      dup1\n      dup4\n      sub\n      dup2\n      dup6\n      dup8\n      gas\n      call\n      swap3\n      pop\n      pop\n      pop\n      returndatasize\n      dup1\n      0x00\n      dup2\n      eq\n      tag_49\n      jumpi\n      mload(0x40)\n      swap2\n      pop\n      and(add(returndatasize, 0x3f), not(0x1f))\n      dup3\n      add\n      0x40\n      mstore\n      returndatasize\n      dup3\n      mstore\n      returndatasize\n      0x00\n      0x20\n      dup5\n      add\n      returndatacopy\n      jump(tag_48)\n    tag_49:\n      0x60\n      swap2\n      pop\n    tag_48:\n      pop\n        /* \"fundme/fundme.sol\":2050:2128  (bool callsuccess,)= payable(msg.sender).call{value:address(this).balance}('') */\n      pop\n      swap1\n      pop\n        /* \"fundme/fundme.sol\":2139:2150  callsuccess */\n      dup1\n        /* \"fundme/fundme.sol\":2131:2169  require(callsuccess,'transfer failed') */\n      tag_50\n      jumpi\n      mload(0x40)\n      0x08c379a000000000000000000000000000000000000000000000000000000000\n      dup2\n      mstore\n      0x04\n      add\n      tag_51\n      swap1\n      tag_44\n      jump\t// in\n    tag_51:\n      mload(0x40)\n      dup1\n      swap2\n      sub\n      swap1\n      revert\n    tag_50:\n        /* \"fundme/fundme.sol\":1292:2182  {... */\n      pop\n      pop\n        /* \"fundme/fundme.sol\":1267:2182  function withdraw()public{... */\n      jump\t// out\n        /* \"fundme/fundme.sol\":520:578  mapping ( address => uint256) public addressToAmountFunded */\n    tag_13:\n      mstore(0x20, 0x01)\n      dup1\n      0x00\n      mstore\n      keccak256(0x00, 0x40)\n      0x00\n      swap2\n      pop\n      swap1\n      pop\n      sload\n      dup2\n      jump\t// out\n        /* \"fundme/fundme.sol\":651:1264  function fundme() public payable {... */\n    tag_17:\n        /* \"fundme/fundme.sol\":743:758  uint256 minimum */\n      0x00\n        /* \"fundme/fundme.sol\":761:765  5e18 */\n      0x4563918244f40000\n        /* \"fundme/fundme.sol\":743:765  uint256 minimum = 5e18 */\n      swap1\n      pop\n        /* \"fundme/fundme.sol\":1036:1043  minimum */\n      dup1\n        /* \"fundme/fundme.sol\":1004:1033  msg.value.getConvertionRate() */\n      tag_53\n        /* \"fundme/fundme.sol\":1004:1013  msg.value */\n      callvalue\n        /* \"fundme/fundme.sol\":1004:1031  msg.value.getConvertionRate */\n      tag_54\n        /* \"fundme/fundme.sol\":1004:1033  msg.value.getConvertionRate() */\n      jump\t// in\n    tag_53:\n        /* \"fundme/fundme.sol\":1004:1043  msg.value.getConvertionRate() > minimum */\n      gt\n        /* \"fundme/fundme.sol\":996:1072  require(msg.value.getConvertionRate() > minimum,'please increase the value') */\n      tag_55\n      jumpi\n      mload(0x40)\n      0x08c379a000000000000000000000000000000000000000000000000000000000\n      dup2\n      mstore\n      0x04\n      add\n      tag_56\n      swap1\n      tag_57\n      jump\t// in\n    tag_56:\n      mload(0x40)\n      dup1\n      swap2\n      sub\n      swap1\n      revert\n    tag_55:\n        /* \"fundme/fundme.sol\":1114:1123  msg.value */\n      callvalue\n        /* \"fundme/fundme.sol\":1077:1098  addressToAmountFunded */\n      0x01\n        /* \"fundme/fundme.sol\":1077:1110  addressToAmountFunded[msg.sender] */\n      0x00\n        /* \"fundme/fundme.sol\":1099:1109  msg.sender */\n      caller\n        /* \"fundme/fundme.sol\":1077:1110  addressToAmountFunded[msg.sender] */\n      0xffffffffffffffffffffffffffffffffffffffff\n      and\n      0xffffffffffffffffffffffffffffffffffffffff\n      and\n      dup2\n      mstore\n      0x20\n      add\n      swap1\n      dup2\n      mstore\n      0x20\n      add\n      0x00\n      keccak256\n      0x00\n        /* \"fundme/fundme.sol\":1077:1123  addressToAmountFunded[msg.sender] += msg.value */\n      dup3\n      dup3\n      sload\n      tag_58\n      swap2\n      swap1\n      tag_59\n      jump\t// in\n    tag_58:\n      swap3\n      pop\n      pop\n      dup2\n      swap1\n      sstore\n      pop\n        /* \"fundme/fundme.sol\":1127:1134  funders */\n      0x00\n        /* \"fundme/fundme.sol\":1140:1150  msg.sender */\n      caller\n        /* \"fundme/fundme.sol\":1127:1151  funders.push(msg.sender) */\n      swap1\n      dup1\n      0x01\n      dup2\n      sload\n      add\n      dup1\n      dup3\n      sstore\n      dup1\n      swap2\n      pop\n      pop\n      0x01\n      swap1\n      sub\n      swap1\n      0x00\n      mstore\n      keccak256(0x00, 0x20)\n      add\n      0x00\n      swap1\n      swap2\n      swap1\n      swap2\n      swap1\n      swap2\n      0x0100\n      exp\n      dup2\n      sload\n      dup2\n      0xffffffffffffffffffffffffffffffffffffffff\n      mul\n      not\n      and\n      swap1\n      dup4\n      0xffffffffffffffffffffffffffffffffffffffff\n      and\n      mul\n      or\n      swap1\n      sstore\n      pop\n        /* \"fundme/fundme.sol\":684:1264  {... */\n      pop\n        /* \"fundme/fundme.sol\":651:1264  function fundme() public payable {... */\n      jump\t// out\n        /* \"fundme/fundme.sol\":493:517  address[] public funders */\n    tag_22:\n      0x00\n      dup2\n      dup2\n      sload\n      dup2\n      lt\n      tag_61\n      jumpi\n      0x00\n      dup1\n      revert\n    tag_61:\n      swap1\n      0x00\n      mstore\n      keccak256(0x00, 0x20)\n      add\n      0x00\n      swap2\n      pop\n      sload\n      swap1\n      0x0100\n      exp\n      swap1\n      div\n      0xffffffffffffffffffffffffffffffffffffffff\n      and\n      dup2\n      jump\t// out\n        /* \"fundme/lib.sol\":881:1106  function getConvertionRate(... */\n    tag_54:\n        /* \"fundme/lib.sol\":964:971  uint256 */\n      0x00\n        /* \"fundme/lib.sol\":983:996  uint256 price */\n      0x00\n        /* \"fundme/lib.sol\":999:1009  getPrice() */\n      tag_64\n        /* \"fundme/lib.sol\":999:1007  getPrice */\n      tag_65\n        /* \"fundme/lib.sol\":999:1009  getPrice() */\n      jump\t// in\n    tag_64:\n        /* \"fundme/lib.sol\":983:1009  uint256 price = getPrice() */\n      swap1\n      pop\n        /* \"fundme/lib.sol\":1020:1040  uint256 ethamountUsd */\n      0x00\n        /* \"fundme/lib.sol\":1065:1069  1e18 */\n      0x0de0b6b3a7640000\n        /* \"fundme/lib.sol\":1052:1061  ethAmount */\n      dup5\n        /* \"fundme/lib.sol\":1044:1049  price */\n      dup4\n        /* \"fundme/lib.sol\":1044:1061  price * ethAmount */\n      tag_66\n      swap2\n      swap1\n      tag_67\n      jump\t// in\n    tag_66:\n        /* \"fundme/lib.sol\":1043:1069  (price * ethAmount) / 1e18 */\n      tag_68\n      swap2\n      swap1\n      tag_69\n      jump\t// in\n    tag_68:\n        /* \"fundme/lib.sol\":1020:1069  uint256 ethamountUsd = (price * ethAmount) / 1e18 */\n      swap1\n      pop\n        /* \"fundme/lib.sol\":1087:1099  ethamountUsd */\n      dup1\n        /* \"fundme/lib.sol\":1080:1099  return ethamountUsd */\n      swap3\n      pop\n      pop\n      pop\n        /* \"fundme/lib.sol\":881:1106  function getConvertionRate(... */\n      swap2\n      swap1\n      pop\n      jump\t// out\n        /* \"fundme/lib.sol\":269:875  function getPrice() internal view returns (uint256) {... */\n    tag_65:\n        /* \"fundme/lib.sol\":312:319  uint256 */\n      0x00\n        /* \"fundme/lib.sol\":499:530  AggregatorV3Interface pricefeed */\n      0x00\n        /* \"fundme/lib.sol\":568:610  0x694AA1769357215DE4FAC081bf1f309aDC325306 */\n      0x694aa1769357215de4fac081bf1f309adc325306\n        /* \"fundme/lib.sol\":499:620  AggregatorV3Interface pricefeed = AggregatorV3Interface(... */\n      swap1\n      pop\n        /* \"fundme/lib.sol\":780:792  int256 price */\n      0x00\n        /* \"fundme/lib.sol\":802:811  pricefeed */\n      dup2\n        /* \"fundme/lib.sol\":802:827  pricefeed.latestRoundData */\n      0xffffffffffffffffffffffffffffffffffffffff\n      and\n      0xfeaf968c\n        /* \"fundme/lib.sol\":802:829  pricefeed.latestRoundData() */\n      mload(0x40)\n      dup2\n      0xffffffff\n      and\n      0xe0\n      shl\n      dup2\n      mstore\n      0x04\n      add\n      0xa0\n      mload(0x40)\n      dup1\n      dup4\n      sub\n      dup2\n      dup7\n      gas\n      staticcall\n      iszero\n      dup1\n      iszero\n      tag_72\n      jumpi\n      returndatacopy(0x00, 0x00, returndatasize)\n      revert(0x00, returndatasize)\n    tag_72:\n      pop\n      pop\n      pop\n      pop\n      mload(0x40)\n      returndatasize\n      not(0x1f)\n      0x1f\n      dup3\n      add\n      and\n      dup3\n      add\n      dup1\n      0x40\n      mstore\n      pop\n      dup2\n      add\n      swap1\n      tag_73\n      swap2\n      swap1\n      tag_74\n      jump\t// in\n    tag_73:\n        /* \"fundme/lib.sol\":777:829  (, int256 price, , , ) = pricefeed.latestRoundData() */\n      pop\n      pop\n      pop\n      swap2\n      pop\n      pop\n        /* \"fundme/lib.sol\":863:867  1e10 */\n      0x02540be400\n        /* \"fundme/lib.sol\":855:860  price */\n      dup2\n        /* \"fundme/lib.sol\":855:867  price * 1e10 */\n      tag_75\n      swap2\n      swap1\n      tag_76\n      jump\t// in\n    tag_75:\n        /* \"fundme/lib.sol\":840:868  return uint256(price * 1e10) */\n      swap3\n      pop\n      pop\n      pop\n        /* \"fundme/lib.sol\":269:875  function getPrice() internal view returns (uint256) {... */\n      swap1\n      jump\t// out\n    tag_38:\n      dup3\n      dup1\n      sload\n      dup3\n      dup3\n      sstore\n      swap1\n      0x00\n      mstore\n      keccak256(0x00, 0x20)\n      swap1\n      dup2\n      add\n      swap3\n      dup3\n      iszero\n      tag_77\n      jumpi\n      swap2\n      0x20\n      mul\n      dup3\n      add\n    tag_78:\n      dup3\n      dup2\n      gt\n      iszero\n      tag_79\n      jumpi\n      dup3\n      mload\n      dup3\n      exp(0x0100, 0x00)\n      dup2\n      sload\n      dup2\n      0xffffffffffffffffffffffffffffffffffffffff\n      mul\n      not\n      and\n      swap1\n      dup4\n      0xffffffffffffffffffffffffffffffffffffffff\n      and\n      mul\n      or\n      swap1\n      sstore\n      pop\n      swap2\n      0x20\n      add\n      swap2\n      swap1\n      0x01\n      add\n      swap1\n      jump(tag_78)\n    tag_79:\n    tag_77:\n      pop\n      swap1\n      pop\n      tag_80\n      swap2\n      swap1\n      tag_81\n      jump\t// in\n    tag_80:\n      pop\n      swap1\n      jump\t// out\n    tag_81:\n    tag_82:\n      dup1\n      dup3\n      gt\n      iszero\n      tag_83\n      jumpi\n      0x00\n      dup2\n      0x00\n      swap1\n      sstore\n      pop\n      0x01\n      add\n      jump(tag_82)\n    tag_83:\n      pop\n      swap1\n      jump\t// out\n        /* \"#utility.yul\":88:205   */\n    tag_85:\n        /* \"#utility.yul\":197:198   */\n      0x00\n        /* \"#utility.yul\":194:195   */\n      0x00\n        /* \"#utility.yul\":187:199   */\n      revert\n        /* \"#utility.yul\":334:460   */\n    tag_87:\n        /* \"#utility.yul\":371:378   */\n      0x00\n        /* \"#utility.yul\":411:453   */\n      0xffffffffffffffffffffffffffffffffffffffff\n        /* \"#utility.yul\":404:409   */\n      dup3\n        /* \"#utility.yul\":400:454   */\n      and\n        /* \"#utility.yul\":389:454   */\n      swap1\n      pop\n        /* \"#utility.yul\":334:460   */\n      swap2\n      swap1\n      pop\n      jump\t// out\n        /* \"#utility.yul\":466:562   */\n    tag_88:\n        /* \"#utility.yul\":503:510   */\n      0x00\n        /* \"#utility.yul\":532:556   */\n      tag_119\n        /* \"#utility.yul\":550:555   */\n      dup3\n        /* \"#utility.yul\":532:556   */\n      tag_87\n      jump\t// in\n    tag_119:\n        /* \"#utility.yul\":521:556   */\n      swap1\n      pop\n        /* \"#utility.yul\":466:562   */\n      swap2\n      swap1\n      pop\n      jump\t// out\n        /* \"#utility.yul\":568:690   */\n    tag_89:\n        /* \"#utility.yul\":641:665   */\n      tag_121\n        /* \"#utility.yul\":659:664   */\n      dup2\n        /* \"#utility.yul\":641:665   */\n      tag_88\n      jump\t// in\n    tag_121:\n        /* \"#utility.yul\":634:639   */\n      dup2\n        /* \"#utility.yul\":631:666   */\n      eq\n        /* \"#utility.yul\":621:684   */\n      tag_122\n      jumpi\n        /* \"#utility.yul\":680:681   */\n      0x00\n        /* \"#utility.yul\":677:678   */\n      0x00\n        /* \"#utility.yul\":670:682   */\n      revert\n        /* \"#utility.yul\":621:684   */\n    tag_122:\n        /* \"#utility.yul\":568:690   */\n      pop\n      jump\t// out\n        /* \"#utility.yul\":696:835   */\n    tag_90:\n        /* \"#utility.yul\":742:747   */\n      0x00\n        /* \"#utility.yul\":780:786   */\n      dup2\n        /* \"#utility.yul\":767:787   */\n      calldataload\n        /* \"#utility.yul\":758:787   */\n      swap1\n      pop\n        /* \"#utility.yul\":796:829   */\n      tag_124\n        /* \"#utility.yul\":823:828   */\n      dup2\n        /* \"#utility.yul\":796:829   */\n      tag_89\n      jump\t// in\n    tag_124:\n        /* \"#utility.yul\":696:835   */\n      swap3\n      swap2\n      pop\n      pop\n      jump\t// out\n        /* \"#utility.yul\":841:1170   */\n    tag_12:\n        /* \"#utility.yul\":900:906   */\n      0x00\n        /* \"#utility.yul\":949:951   */\n      0x20\n        /* \"#utility.yul\":937:946   */\n      dup3\n        /* \"#utility.yul\":928:935   */\n      dup5\n        /* \"#utility.yul\":924:947   */\n      sub\n        /* \"#utility.yul\":920:952   */\n      slt\n        /* \"#utility.yul\":917:1036   */\n      iszero\n      tag_126\n      jumpi\n        /* \"#utility.yul\":955:1034   */\n      tag_127\n      tag_85\n      jump\t// in\n    tag_127:\n        /* \"#utility.yul\":917:1036   */\n    tag_126:\n        /* \"#utility.yul\":1075:1076   */\n      0x00\n        /* \"#utility.yul\":1100:1153   */\n      tag_128\n        /* \"#utility.yul\":1145:1152   */\n      dup5\n        /* \"#utility.yul\":1136:1142   */\n      dup3\n        /* \"#utility.yul\":1125:1134   */\n      dup6\n        /* \"#utility.yul\":1121:1143   */\n      add\n        /* \"#utility.yul\":1100:1153   */\n      tag_90\n      jump\t// in\n    tag_128:\n        /* \"#utility.yul\":1090:1153   */\n      swap2\n      pop\n        /* \"#utility.yul\":1046:1163   */\n      pop\n        /* \"#utility.yul\":841:1170   */\n      swap3\n      swap2\n      pop\n      pop\n      jump\t// out\n        /* \"#utility.yul\":1176:1253   */\n    tag_91:\n        /* \"#utility.yul\":1213:1220   */\n      0x00\n        /* \"#utility.yul\":1242:1247   */\n      dup2\n        /* \"#utility.yul\":1231:1247   */\n      swap1\n      pop\n        /* \"#utility.yul\":1176:1253   */\n      swap2\n      swap1\n      pop\n      jump\t// out\n        /* \"#utility.yul\":1259:1377   */\n    tag_92:\n        /* \"#utility.yul\":1346:1370   */\n      tag_131\n        /* \"#utility.yul\":1364:1369   */\n      dup2\n        /* \"#utility.yul\":1346:1370   */\n      tag_91\n      jump\t// in\n    tag_131:\n        /* \"#utility.yul\":1341:1344   */\n      dup3\n        /* \"#utility.yul\":1334:1371   */\n      mstore\n        /* \"#utility.yul\":1259:1377   */\n      pop\n      pop\n      jump\t// out\n        /* \"#utility.yul\":1383:1605   */\n    tag_15:\n        /* \"#utility.yul\":1476:1480   */\n      0x00\n        /* \"#utility.yul\":1514:1516   */\n      0x20\n        /* \"#utility.yul\":1503:1512   */\n      dup3\n        /* \"#utility.yul\":1499:1517   */\n      add\n        /* \"#utility.yul\":1491:1517   */\n      swap1\n      pop\n        /* \"#utility.yul\":1527:1598   */\n      tag_133\n        /* \"#utility.yul\":1595:1596   */\n      0x00\n        /* \"#utility.yul\":1584:1593   */\n      dup4\n        /* \"#utility.yul\":1580:1597   */\n      add\n        /* \"#utility.yul\":1571:1577   */\n      dup5\n        /* \"#utility.yul\":1527:1598   */\n      tag_92\n      jump\t// in\n    tag_133:\n        /* \"#utility.yul\":1383:1605   */\n      swap3\n      swap2\n      pop\n      pop\n      jump\t// out\n        /* \"#utility.yul\":1611:1733   */\n    tag_93:\n        /* \"#utility.yul\":1684:1708   */\n      tag_135\n        /* \"#utility.yul\":1702:1707   */\n      dup2\n        /* \"#utility.yul\":1684:1708   */\n      tag_91\n      jump\t// in\n    tag_135:\n        /* \"#utility.yul\":1677:1682   */\n      dup2\n        /* \"#utility.yul\":1674:1709   */\n      eq\n        /* \"#utility.yul\":1664:1727   */\n      tag_136\n      jumpi\n        /* \"#utility.yul\":1723:1724   */\n      0x00\n        /* \"#utility.yul\":1720:1721   */\n      0x00\n        /* \"#utility.yul\":1713:1725   */\n      revert\n        /* \"#utility.yul\":1664:1727   */\n    tag_136:\n        /* \"#utility.yul\":1611:1733   */\n      pop\n      jump\t// out\n        /* \"#utility.yul\":1739:1878   */\n    tag_94:\n        /* \"#utility.yul\":1785:1790   */\n      0x00\n        /* \"#utility.yul\":1823:1829   */\n      dup2\n        /* \"#utility.yul\":1810:1830   */\n      calldataload\n        /* \"#utility.yul\":1801:1830   */\n      swap1\n      pop\n        /* \"#utility.yul\":1839:1872   */\n      tag_138\n        /* \"#utility.yul\":1866:1871   */\n      dup2\n        /* \"#utility.yul\":1839:1872   */\n      tag_93\n      jump\t// in\n    tag_138:\n        /* \"#utility.yul\":1739:1878   */\n      swap3\n      swap2\n      pop\n      pop\n      jump\t// out\n        /* \"#utility.yul\":1884:2213   */\n    tag_21:\n        /* \"#utility.yul\":1943:1949   */\n      0x00\n        /* \"#utility.yul\":1992:1994   */\n      0x20\n        /* \"#utility.yul\":1980:1989   */\n      dup3\n        /* \"#utility.yul\":1971:1978   */\n      dup5\n        /* \"#utility.yul\":1967:1990   */\n      sub\n        /* \"#utility.yul\":1963:1995   */\n      slt\n        /* \"#utility.yul\":1960:2079   */\n      iszero\n      tag_140\n      jumpi\n        /* \"#utility.yul\":1998:2077   */\n      tag_141\n      tag_85\n      jump\t// in\n    tag_141:\n        /* \"#utility.yul\":1960:2079   */\n    tag_140:\n        /* \"#utility.yul\":2118:2119   */\n      0x00\n        /* \"#utility.yul\":2143:2196   */\n      tag_142\n        /* \"#utility.yul\":2188:2195   */\n      dup5\n        /* \"#utility.yul\":2179:2185   */\n      dup3\n        /* \"#utility.yul\":2168:2177   */\n      dup6\n        /* \"#utility.yul\":2164:2186   */\n      add\n        /* \"#utility.yul\":2143:2196   */\n      tag_94\n      jump\t// in\n    tag_142:\n        /* \"#utility.yul\":2133:2196   */\n      swap2\n      pop\n        /* \"#utility.yul\":2089:2206   */\n      pop\n        /* \"#utility.yul\":1884:2213   */\n      swap3\n      swap2\n      pop\n      pop\n      jump\t// out\n        /* \"#utility.yul\":2219:2337   */\n    tag_95:\n        /* \"#utility.yul\":2306:2330   */\n      tag_144\n        /* \"#utility.yul\":2324:2329   */\n      dup2\n        /* \"#utility.yul\":2306:2330   */\n      tag_88\n      jump\t// in\n    tag_144:\n        /* \"#utility.yul\":2301:2304   */\n      dup3\n        /* \"#utility.yul\":2294:2331   */\n      mstore\n        /* \"#utility.yul\":2219:2337   */\n      pop\n      pop\n      jump\t// out\n        /* \"#utility.yul\":2343:2565   */\n    tag_24:\n        /* \"#utility.yul\":2436:2440   */\n      0x00\n        /* \"#utility.yul\":2474:2476   */\n      0x20\n        /* \"#utility.yul\":2463:2472   */\n      dup3\n        /* \"#utility.yul\":2459:2477   */\n      add\n        /* \"#utility.yul\":2451:2477   */\n      swap1\n      pop\n        /* \"#utility.yul\":2487:2558   */\n      tag_146\n        /* \"#utility.yul\":2555:2556   */\n      0x00\n        /* \"#utility.yul\":2544:2553   */\n      dup4\n        /* \"#utility.yul\":2540:2557   */\n      add\n        /* \"#utility.yul\":2531:2537   */\n      dup5\n        /* \"#utility.yul\":2487:2558   */\n      tag_95\n      jump\t// in\n    tag_146:\n        /* \"#utility.yul\":2343:2565   */\n      swap3\n      swap2\n      pop\n      pop\n      jump\t// out\n        /* \"#utility.yul\":2571:2751   */\n    tag_31:\n        /* \"#utility.yul\":2619:2696   */\n      0x4e487b7100000000000000000000000000000000000000000000000000000000\n        /* \"#utility.yul\":2616:2617   */\n      0x00\n        /* \"#utility.yul\":2609:2697   */\n      mstore\n        /* \"#utility.yul\":2716:2720   */\n      0x32\n        /* \"#utility.yul\":2713:2714   */\n      0x04\n        /* \"#utility.yul\":2706:2721   */\n      mstore\n        /* \"#utility.yul\":2740:2744   */\n      0x24\n        /* \"#utility.yul\":2737:2738   */\n      0x00\n        /* \"#utility.yul\":2730:2745   */\n      revert\n        /* \"#utility.yul\":2757:2937   */\n    tag_35:\n        /* \"#utility.yul\":2805:2882   */\n      0x4e487b7100000000000000000000000000000000000000000000000000000000\n        /* \"#utility.yul\":2802:2803   */\n      0x00\n        /* \"#utility.yul\":2795:2883   */\n      mstore\n        /* \"#utility.yul\":2902:2906   */\n      0x41\n        /* \"#utility.yul\":2899:2900   */\n      0x04\n        /* \"#utility.yul\":2892:2907   */\n      mstore\n        /* \"#utility.yul\":2926:2930   */\n      0x24\n        /* \"#utility.yul\":2923:2924   */\n      0x00\n        /* \"#utility.yul\":2916:2931   */\n      revert\n        /* \"#utility.yul\":2943:3112   */\n    tag_96:\n        /* \"#utility.yul\":3027:3038   */\n      0x00\n        /* \"#utility.yul\":3061:3067   */\n      dup3\n        /* \"#utility.yul\":3056:3059   */\n      dup3\n        /* \"#utility.yul\":3049:3068   */\n      mstore\n        /* \"#utility.yul\":3101:3105   */\n      0x20\n        /* \"#utility.yul\":3096:3099   */\n      dup3\n        /* \"#utility.yul\":3092:3106   */\n      add\n        /* \"#utility.yul\":3077:3106   */\n      swap1\n      pop\n        /* \"#utility.yul\":2943:3112   */\n      swap3\n      swap2\n      pop\n      pop\n      jump\t// out\n        /* \"#utility.yul\":3118:3283   */\n    tag_97:\n        /* \"#utility.yul\":3258:3275   */\n      0x7472616e73666572206661696c65640000000000000000000000000000000000\n        /* \"#utility.yul\":3254:3255   */\n      0x00\n        /* \"#utility.yul\":3246:3252   */\n      dup3\n        /* \"#utility.yul\":3242:3256   */\n      add\n        /* \"#utility.yul\":3235:3276   */\n      mstore\n        /* \"#utility.yul\":3118:3283   */\n      pop\n      jump\t// out\n        /* \"#utility.yul\":3289:3655   */\n    tag_98:\n        /* \"#utility.yul\":3431:3434   */\n      0x00\n        /* \"#utility.yul\":3452:3519   */\n      tag_152\n        /* \"#utility.yul\":3516:3518   */\n      0x0f\n        /* \"#utility.yul\":3511:3514   */\n      dup4\n        /* \"#utility.yul\":3452:3519   */\n      tag_96\n      jump\t// in\n    tag_152:\n        /* \"#utility.yul\":3445:3519   */\n      swap2\n      pop\n        /* \"#utility.yul\":3528:3621   */\n      tag_153\n        /* \"#utility.yul\":3617:3620   */\n      dup3\n        /* \"#utility.yul\":3528:3621   */\n      tag_97\n      jump\t// in\n    tag_153:\n        /* \"#utility.yul\":3646:3648   */\n      0x20\n        /* \"#utility.yul\":3641:3644   */\n      dup3\n        /* \"#utility.yul\":3637:3649   */\n      add\n        /* \"#utility.yul\":3630:3649   */\n      swap1\n      pop\n        /* \"#utility.yul\":3289:3655   */\n      swap2\n      swap1\n      pop\n      jump\t// out\n        /* \"#utility.yul\":3661:4080   */\n    tag_44:\n        /* \"#utility.yul\":3827:3831   */\n      0x00\n        /* \"#utility.yul\":3865:3867   */\n      0x20\n        /* \"#utility.yul\":3854:3863   */\n      dup3\n        /* \"#utility.yul\":3850:3868   */\n      add\n        /* \"#utility.yul\":3842:3868   */\n      swap1\n      pop\n        /* \"#utility.yul\":3914:3923   */\n      dup2\n        /* \"#utility.yul\":3908:3912   */\n      dup2\n        /* \"#utility.yul\":3904:3924   */\n      sub\n        /* \"#utility.yul\":3900:3901   */\n      0x00\n        /* \"#utility.yul\":3889:3898   */\n      dup4\n        /* \"#utility.yul\":3885:3902   */\n      add\n        /* \"#utility.yul\":3878:3925   */\n      mstore\n        /* \"#utility.yul\":3942:4073   */\n      tag_155\n        /* \"#utility.yul\":4068:4072   */\n      dup2\n        /* \"#utility.yul\":3942:4073   */\n      tag_98\n      jump\t// in\n    tag_155:\n        /* \"#utility.yul\":3934:4073   */\n      swap1\n      pop\n        /* \"#utility.yul\":3661:4080   */\n      swap2\n      swap1\n      pop\n      jump\t// out\n        /* \"#utility.yul\":4086:4233   */\n    tag_99:\n        /* \"#utility.yul\":4187:4198   */\n      0x00\n        /* \"#utility.yul\":4224:4227   */\n      dup2\n        /* \"#utility.yul\":4209:4227   */\n      swap1\n      pop\n        /* \"#utility.yul\":4086:4233   */\n      swap3\n      swap2\n      pop\n      pop\n      jump\t// out\n        /* \"#utility.yul\":4239:4353   */\n    tag_100:\n      pop\n      jump\t// out\n        /* \"#utility.yul\":4359:4757   */\n    tag_101:\n        /* \"#utility.yul\":4518:4521   */\n      0x00\n        /* \"#utility.yul\":4539:4622   */\n      tag_159\n        /* \"#utility.yul\":4620:4621   */\n      0x00\n        /* \"#utility.yul\":4615:4618   */\n      dup4\n        /* \"#utility.yul\":4539:4622   */\n      tag_99\n      jump\t// in\n    tag_159:\n        /* \"#utility.yul\":4532:4622   */\n      swap2\n      pop\n        /* \"#utility.yul\":4631:4724   */\n      tag_160\n        /* \"#utility.yul\":4720:4723   */\n      dup3\n        /* \"#utility.yul\":4631:4724   */\n      tag_100\n      jump\t// in\n    tag_160:\n        /* \"#utility.yul\":4749:4750   */\n      0x00\n        /* \"#utility.yul\":4744:4747   */\n      dup3\n        /* \"#utility.yul\":4740:4751   */\n      add\n        /* \"#utility.yul\":4733:4751   */\n      swap1\n      pop\n        /* \"#utility.yul\":4359:4757   */\n      swap2\n      swap1\n      pop\n      jump\t// out\n        /* \"#utility.yul\":4763:5142   */\n    tag_46:\n        /* \"#utility.yul\":4947:4950   */\n      0x00\n        /* \"#utility.yul\":4969:5116   */\n      tag_162\n        /* \"#utility.yul\":5112:5115   */\n      dup3\n        /* \"#utility.yul\":4969:5116   */\n      tag_101\n      jump\t// in\n    tag_162:\n        /* \"#utility.yul\":4962:5116   */\n      swap2\n      pop\n        /* \"#utility.yul\":5133:5136   */\n      dup2\n        /* \"#utility.yul\":5126:5136   */\n      swap1\n      pop\n        /* \"#utility.yul\":4763:5142   */\n      swap2\n      swap1\n      pop\n      jump\t// out\n        /* \"#utility.yul\":5148:5323   */\n    tag_102:\n        /* \"#utility.yul\":5288:5315   */\n      0x706c6561736520696e637265617365207468652076616c756500000000000000\n        /* \"#utility.yul\":5284:5285   */\n      0x00\n        /* \"#utility.yul\":5276:5282   */\n      dup3\n        /* \"#utility.yul\":5272:5286   */\n      add\n        /* \"#utility.yul\":5265:5316   */\n      mstore\n        /* \"#utility.yul\":5148:5323   */\n      pop\n      jump\t// out\n        /* \"#utility.yul\":5329:5695   */\n    tag_103:\n        /* \"#utility.yul\":5471:5474   */\n      0x00\n        /* \"#utility.yul\":5492:5559   */\n      tag_165\n        /* \"#utility.yul\":5556:5558   */\n      0x19\n        /* \"#utility.yul\":5551:5554   */\n      dup4\n        /* \"#utility.yul\":5492:5559   */\n      tag_96\n      jump\t// in\n    tag_165:\n        /* \"#utility.yul\":5485:5559   */\n      swap2\n      pop\n        /* \"#utility.yul\":5568:5661   */\n      tag_166\n        /* \"#utility.yul\":5657:5660   */\n      dup3\n        /* \"#utility.yul\":5568:5661   */\n      tag_102\n      jump\t// in\n    tag_166:\n        /* \"#utility.yul\":5686:5688   */\n      0x20\n        /* \"#utility.yul\":5681:5684   */\n      dup3\n        /* \"#utility.yul\":5677:5689   */\n      add\n        /* \"#utility.yul\":5670:5689   */\n      swap1\n      pop\n        /* \"#utility.yul\":5329:5695   */\n      swap2\n      swap1\n      pop\n      jump\t// out\n        /* \"#utility.yul\":5701:6120   */\n    tag_57:\n        /* \"#utility.yul\":5867:5871   */\n      0x00\n        /* \"#utility.yul\":5905:5907   */\n      0x20\n        /* \"#utility.yul\":5894:5903   */\n      dup3\n        /* \"#utility.yul\":5890:5908   */\n      add\n        /* \"#utility.yul\":5882:5908   */\n      swap1\n      pop\n        /* \"#utility.yul\":5954:5963   */\n      dup2\n        /* \"#utility.yul\":5948:5952   */\n      dup2\n        /* \"#utility.yul\":5944:5964   */\n      sub\n        /* \"#utility.yul\":5940:5941   */\n      0x00\n        /* \"#utility.yul\":5929:5938   */\n      dup4\n        /* \"#utility.yul\":5925:5942   */\n      add\n        /* \"#utility.yul\":5918:5965   */\n      mstore\n        /* \"#utility.yul\":5982:6113   */\n      tag_168\n        /* \"#utility.yul\":6108:6112   */\n      dup2\n        /* \"#utility.yul\":5982:6113   */\n      tag_103\n      jump\t// in\n    tag_168:\n        /* \"#utility.yul\":5974:6113   */\n      swap1\n      pop\n        /* \"#utility.yul\":5701:6120   */\n      swap2\n      swap1\n      pop\n      jump\t// out\n        /* \"#utility.yul\":6126:6306   */\n    tag_104:\n        /* \"#utility.yul\":6174:6251   */\n      0x4e487b7100000000000000000000000000000000000000000000000000000000\n        /* \"#utility.yul\":6171:6172   */\n      0x00\n        /* \"#utility.yul\":6164:6252   */\n      mstore\n        /* \"#utility.yul\":6271:6275   */\n      0x11\n        /* \"#utility.yul\":6268:6269   */\n      0x04\n        /* \"#utility.yul\":6261:6276   */\n      mstore\n        /* \"#utility.yul\":6295:6299   */\n      0x24\n        /* \"#utility.yul\":6292:6293   */\n      0x00\n        /* \"#utility.yul\":6285:6300   */\n      revert\n        /* \"#utility.yul\":6312:6503   */\n    tag_59:\n        /* \"#utility.yul\":6352:6355   */\n      0x00\n        /* \"#utility.yul\":6371:6391   */\n      tag_171\n        /* \"#utility.yul\":6389:6390   */\n      dup3\n        /* \"#utility.yul\":6371:6391   */\n      tag_91\n      jump\t// in\n    tag_171:\n        /* \"#utility.yul\":6366:6391   */\n      swap2\n      pop\n        /* \"#utility.yul\":6405:6425   */\n      tag_172\n        /* \"#utility.yul\":6423:6424   */\n      dup4\n        /* \"#utility.yul\":6405:6425   */\n      tag_91\n      jump\t// in\n    tag_172:\n        /* \"#utility.yul\":6400:6425   */\n      swap3\n      pop\n        /* \"#utility.yul\":6448:6449   */\n      dup3\n        /* \"#utility.yul\":6445:6446   */\n      dup3\n        /* \"#utility.yul\":6441:6450   */\n      add\n        /* \"#utility.yul\":6434:6450   */\n      swap1\n      pop\n        /* \"#utility.yul\":6469:6472   */\n      dup1\n        /* \"#utility.yul\":6466:6467   */\n      dup3\n        /* \"#utility.yul\":6463:6473   */\n      gt\n        /* \"#utility.yul\":6460:6496   */\n      iszero\n      tag_173\n      jumpi\n        /* \"#utility.yul\":6476:6494   */\n      tag_174\n      tag_104\n      jump\t// in\n    tag_174:\n        /* \"#utility.yul\":6460:6496   */\n    tag_173:\n        /* \"#utility.yul\":6312:6503   */\n      swap3\n      swap2\n      pop\n      pop\n      jump\t// out\n        /* \"#utility.yul\":6509:6919   */\n    tag_67:\n        /* \"#utility.yul\":6549:6556   */\n      0x00\n        /* \"#utility.yul\":6572:6592   */\n      tag_176\n        /* \"#utility.yul\":6590:6591   */\n      dup3\n        /* \"#utility.yul\":6572:6592   */\n      tag_91\n      jump\t// in\n    tag_176:\n        /* \"#utility.yul\":6567:6592   */\n      swap2\n      pop\n        /* \"#utility.yul\":6606:6626   */\n      tag_177\n        /* \"#utility.yul\":6624:6625   */\n      dup4\n        /* \"#utility.yul\":6606:6626   */\n      tag_91\n      jump\t// in\n    tag_177:\n        /* \"#utility.yul\":6601:6626   */\n      swap3\n      pop\n        /* \"#utility.yul\":6661:6662   */\n      dup3\n        /* \"#utility.yul\":6658:6659   */\n      dup3\n        /* \"#utility.yul\":6654:6663   */\n      mul\n        /* \"#utility.yul\":6683:6713   */\n      tag_178\n        /* \"#utility.yul\":6701:6712   */\n      dup2\n        /* \"#utility.yul\":6683:6713   */\n      tag_91\n      jump\t// in\n    tag_178:\n        /* \"#utility.yul\":6672:6713   */\n      swap2\n      pop\n        /* \"#utility.yul\":6862:6863   */\n      dup3\n        /* \"#utility.yul\":6853:6860   */\n      dup3\n        /* \"#utility.yul\":6849:6864   */\n      div\n        /* \"#utility.yul\":6846:6847   */\n      dup5\n        /* \"#utility.yul\":6843:6865   */\n      eq\n        /* \"#utility.yul\":6823:6824   */\n      dup4\n        /* \"#utility.yul\":6816:6825   */\n      iszero\n        /* \"#utility.yul\":6796:6879   */\n      or\n        /* \"#utility.yul\":6773:6912   */\n      tag_179\n      jumpi\n        /* \"#utility.yul\":6892:6910   */\n      tag_180\n      tag_104\n      jump\t// in\n    tag_180:\n        /* \"#utility.yul\":6773:6912   */\n    tag_179:\n        /* \"#utility.yul\":6557:6919   */\n      pop\n        /* \"#utility.yul\":6509:6919   */\n      swap3\n      swap2\n      pop\n      pop\n      jump\t// out\n        /* \"#utility.yul\":6925:7105   */\n    tag_105:\n        /* \"#utility.yul\":6973:7050   */\n      0x4e487b7100000000000000000000000000000000000000000000000000000000\n        /* \"#utility.yul\":6970:6971   */\n      0x00\n        /* \"#utility.yul\":6963:7051   */\n      mstore\n        /* \"#utility.yul\":7070:7074   */\n      0x12\n        /* \"#utility.yul\":7067:7068   */\n      0x04\n        /* \"#utility.yul\":7060:7075   */\n      mstore\n        /* \"#utility.yul\":7094:7098   */\n      0x24\n        /* \"#utility.yul\":7091:7092   */\n      0x00\n        /* \"#utility.yul\":7084:7099   */\n      revert\n        /* \"#utility.yul\":7111:7296   */\n    tag_69:\n        /* \"#utility.yul\":7151:7152   */\n      0x00\n        /* \"#utility.yul\":7168:7188   */\n      tag_183\n        /* \"#utility.yul\":7186:7187   */\n      dup3\n        /* \"#utility.yul\":7168:7188   */\n      tag_91\n      jump\t// in\n    tag_183:\n        /* \"#utility.yul\":7163:7188   */\n      swap2\n      pop\n        /* \"#utility.yul\":7202:7222   */\n      tag_184\n        /* \"#utility.yul\":7220:7221   */\n      dup4\n        /* \"#utility.yul\":7202:7222   */\n      tag_91\n      jump\t// in\n    tag_184:\n        /* \"#utility.yul\":7197:7222   */\n      swap3\n      pop\n        /* \"#utility.yul\":7241:7242   */\n      dup3\n        /* \"#utility.yul\":7231:7266   */\n      tag_185\n      jumpi\n        /* \"#utility.yul\":7246:7264   */\n      tag_186\n      tag_105\n      jump\t// in\n    tag_186:\n        /* \"#utility.yul\":7231:7266   */\n    tag_185:\n        /* \"#utility.yul\":7288:7289   */\n      dup3\n        /* \"#utility.yul\":7285:7286   */\n      dup3\n        /* \"#utility.yul\":7281:7290   */\n      div\n        /* \"#utility.yul\":7276:7290   */\n      swap1\n      pop\n        /* \"#utility.yul\":7111:7296   */\n      swap3\n      swap2\n      pop\n      pop\n      jump\t// out\n        /* \"#utility.yul\":7302:7407   */\n    tag_106:\n        /* \"#utility.yul\":7338:7345   */\n      0x00\n        /* \"#utility.yul\":7378:7400   */\n      0xffffffffffffffffffff\n        /* \"#utility.yul\":7371:7376   */\n      dup3\n        /* \"#utility.yul\":7367:7401   */\n      and\n        /* \"#utility.yul\":7356:7401   */\n      swap1\n      pop\n        /* \"#utility.yul\":7302:7407   */\n      swap2\n      swap1\n      pop\n      jump\t// out\n        /* \"#utility.yul\":7413:7533   */\n    tag_107:\n        /* \"#utility.yul\":7485:7508   */\n      tag_189\n        /* \"#utility.yul\":7502:7507   */\n      dup2\n        /* \"#utility.yul\":7485:7508   */\n      tag_106\n      jump\t// in\n    tag_189:\n        /* \"#utility.yul\":7478:7483   */\n      dup2\n        /* \"#utility.yul\":7475:7509   */\n      eq\n        /* \"#utility.yul\":7465:7527   */\n      tag_190\n      jumpi\n        /* \"#utility.yul\":7523:7524   */\n      0x00\n        /* \"#utility.yul\":7520:7521   */\n      0x00\n        /* \"#utility.yul\":7513:7525   */\n      revert\n        /* \"#utility.yul\":7465:7527   */\n    tag_190:\n        /* \"#utility.yul\":7413:7533   */\n      pop\n      jump\t// out\n        /* \"#utility.yul\":7539:7680   */\n    tag_108:\n        /* \"#utility.yul\":7595:7600   */\n      0x00\n        /* \"#utility.yul\":7626:7632   */\n      dup2\n        /* \"#utility.yul\":7620:7633   */\n      mload\n        /* \"#utility.yul\":7611:7633   */\n      swap1\n      pop\n        /* \"#utility.yul\":7642:7674   */\n      tag_192\n        /* \"#utility.yul\":7668:7673   */\n      dup2\n        /* \"#utility.yul\":7642:7674   */\n      tag_107\n      jump\t// in\n    tag_192:\n        /* \"#utility.yul\":7539:7680   */\n      swap3\n      swap2\n      pop\n      pop\n      jump\t// out\n        /* \"#utility.yul\":7686:7762   */\n    tag_109:\n        /* \"#utility.yul\":7722:7729   */\n      0x00\n        /* \"#utility.yul\":7751:7756   */\n      dup2\n        /* \"#utility.yul\":7740:7756   */\n      swap1\n      pop\n        /* \"#utility.yul\":7686:7762   */\n      swap2\n      swap1\n      pop\n      jump\t// out\n        /* \"#utility.yul\":7768:7888   */\n    tag_110:\n        /* \"#utility.yul\":7840:7863   */\n      tag_195\n        /* \"#utility.yul\":7857:7862   */\n      dup2\n        /* \"#utility.yul\":7840:7863   */\n      tag_109\n      jump\t// in\n    tag_195:\n        /* \"#utility.yul\":7833:7838   */\n      dup2\n        /* \"#utility.yul\":7830:7864   */\n      eq\n        /* \"#utility.yul\":7820:7882   */\n      tag_196\n      jumpi\n        /* \"#utility.yul\":7878:7879   */\n      0x00\n        /* \"#utility.yul\":7875:7876   */\n      0x00\n        /* \"#utility.yul\":7868:7880   */\n      revert\n        /* \"#utility.yul\":7820:7882   */\n    tag_196:\n        /* \"#utility.yul\":7768:7888   */\n      pop\n      jump\t// out\n        /* \"#utility.yul\":7894:8035   */\n    tag_111:\n        /* \"#utility.yul\":7950:7955   */\n      0x00\n        /* \"#utility.yul\":7981:7987   */\n      dup2\n        /* \"#utility.yul\":7975:7988   */\n      mload\n        /* \"#utility.yul\":7966:7988   */\n      swap1\n      pop\n        /* \"#utility.yul\":7997:8029   */\n      tag_198\n        /* \"#utility.yul\":8023:8028   */\n      dup2\n        /* \"#utility.yul\":7997:8029   */\n      tag_110\n      jump\t// in\n    tag_198:\n        /* \"#utility.yul\":7894:8035   */\n      swap3\n      swap2\n      pop\n      pop\n      jump\t// out\n        /* \"#utility.yul\":8041:8184   */\n    tag_112:\n        /* \"#utility.yul\":8098:8103   */\n      0x00\n        /* \"#utility.yul\":8129:8135   */\n      dup2\n        /* \"#utility.yul\":8123:8136   */\n      mload\n        /* \"#utility.yul\":8114:8136   */\n      swap1\n      pop\n        /* \"#utility.yul\":8145:8178   */\n      tag_200\n        /* \"#utility.yul\":8172:8177   */\n      dup2\n        /* \"#utility.yul\":8145:8178   */\n      tag_93\n      jump\t// in\n    tag_200:\n        /* \"#utility.yul\":8041:8184   */\n      swap3\n      swap2\n      pop\n      pop\n      jump\t// out\n        /* \"#utility.yul\":8190:9161   */\n    tag_74:\n        /* \"#utility.yul\":8293:8299   */\n      0x00\n        /* \"#utility.yul\":8301:8307   */\n      0x00\n        /* \"#utility.yul\":8309:8315   */\n      0x00\n        /* \"#utility.yul\":8317:8323   */\n      0x00\n        /* \"#utility.yul\":8325:8331   */\n      0x00\n        /* \"#utility.yul\":8374:8377   */\n      0xa0\n        /* \"#utility.yul\":8362:8371   */\n      dup7\n        /* \"#utility.yul\":8353:8360   */\n      dup9\n        /* \"#utility.yul\":8349:8372   */\n      sub\n        /* \"#utility.yul\":8345:8378   */\n      slt\n        /* \"#utility.yul\":8342:8462   */\n      iszero\n      tag_202\n      jumpi\n        /* \"#utility.yul\":8381:8460   */\n      tag_203\n      tag_85\n      jump\t// in\n    tag_203:\n        /* \"#utility.yul\":8342:8462   */\n    tag_202:\n        /* \"#utility.yul\":8501:8502   */\n      0x00\n        /* \"#utility.yul\":8526:8589   */\n      tag_204\n        /* \"#utility.yul\":8581:8588   */\n      dup9\n        /* \"#utility.yul\":8572:8578   */\n      dup3\n        /* \"#utility.yul\":8561:8570   */\n      dup10\n        /* \"#utility.yul\":8557:8579   */\n      add\n        /* \"#utility.yul\":8526:8589   */\n      tag_108\n      jump\t// in\n    tag_204:\n        /* \"#utility.yul\":8516:8589   */\n      swap6\n      pop\n        /* \"#utility.yul\":8472:8599   */\n      pop\n        /* \"#utility.yul\":8638:8640   */\n      0x20\n        /* \"#utility.yul\":8664:8727   */\n      tag_205\n        /* \"#utility.yul\":8719:8726   */\n      dup9\n        /* \"#utility.yul\":8710:8716   */\n      dup3\n        /* \"#utility.yul\":8699:8708   */\n      dup10\n        /* \"#utility.yul\":8695:8717   */\n      add\n        /* \"#utility.yul\":8664:8727   */\n      tag_111\n      jump\t// in\n    tag_205:\n        /* \"#utility.yul\":8654:8727   */\n      swap5\n      pop\n        /* \"#utility.yul\":8609:8737   */\n      pop\n        /* \"#utility.yul\":8776:8778   */\n      0x40\n        /* \"#utility.yul\":8802:8866   */\n      tag_206\n        /* \"#utility.yul\":8858:8865   */\n      dup9\n        /* \"#utility.yul\":8849:8855   */\n      dup3\n        /* \"#utility.yul\":8838:8847   */\n      dup10\n        /* \"#utility.yul\":8834:8856   */\n      add\n        /* \"#utility.yul\":8802:8866   */\n      tag_112\n      jump\t// in\n    tag_206:\n        /* \"#utility.yul\":8792:8866   */\n      swap4\n      pop\n        /* \"#utility.yul\":8747:8876   */\n      pop\n        /* \"#utility.yul\":8915:8917   */\n      0x60\n        /* \"#utility.yul\":8941:9005   */\n      tag_207\n        /* \"#utility.yul\":8997:9004   */\n      dup9\n        /* \"#utility.yul\":8988:8994   */\n      dup3\n        /* \"#utility.yul\":8977:8986   */\n      dup10\n        /* \"#utility.yul\":8973:8995   */\n      add\n        /* \"#utility.yul\":8941:9005   */\n      tag_112\n      jump\t// in\n    tag_207:\n        /* \"#utility.yul\":8931:9005   */\n      swap3\n      pop\n        /* \"#utility.yul\":8886:9015   */\n      pop\n        /* \"#utility.yul\":9054:9057   */\n      0x80\n        /* \"#utility.yul\":9081:9144   */\n      tag_208\n        /* \"#utility.yul\":9136:9143   */\n      dup9\n        /* \"#utility.yul\":9127:9133   */\n      dup3\n        /* \"#utility.yul\":9116:9125   */\n      dup10\n        /* \"#utility.yul\":9112:9134   */\n      add\n        /* \"#utility.yul\":9081:9144   */\n      tag_108\n      jump\t// in\n    tag_208:\n        /* \"#utility.yul\":9071:9144   */\n      swap2\n      pop\n        /* \"#utility.yul\":9025:9154   */\n      pop\n        /* \"#utility.yul\":8190:9161   */\n      swap3\n      swap6\n      pop\n      swap3\n      swap6\n      swap1\n      swap4\n      pop\n      jump\t// out\n        /* \"#utility.yul\":9167:9723   */\n    tag_76:\n        /* \"#utility.yul\":9206:9213   */\n      0x00\n        /* \"#utility.yul\":9229:9248   */\n      tag_210\n        /* \"#utility.yul\":9246:9247   */\n      dup3\n        /* \"#utility.yul\":9229:9248   */\n      tag_109\n      jump\t// in\n    tag_210:\n        /* \"#utility.yul\":9224:9248   */\n      swap2\n      pop\n        /* \"#utility.yul\":9262:9281   */\n      tag_211\n        /* \"#utility.yul\":9279:9280   */\n      dup4\n        /* \"#utility.yul\":9262:9281   */\n      tag_109\n      jump\t// in\n    tag_211:\n        /* \"#utility.yul\":9257:9281   */\n      swap3\n      pop\n        /* \"#utility.yul\":9316:9317   */\n      dup3\n        /* \"#utility.yul\":9313:9314   */\n      dup3\n        /* \"#utility.yul\":9309:9318   */\n      mul\n        /* \"#utility.yul\":9338:9367   */\n      tag_212\n        /* \"#utility.yul\":9355:9366   */\n      dup2\n        /* \"#utility.yul\":9338:9367   */\n      tag_109\n      jump\t// in\n    tag_212:\n        /* \"#utility.yul\":9327:9367   */\n      swap2\n      pop\n        /* \"#utility.yul\":9425:9491   */\n      0x8000000000000000000000000000000000000000000000000000000000000000\n        /* \"#utility.yul\":9422:9423   */\n      dup5\n        /* \"#utility.yul\":9419:9492   */\n      eq\n        /* \"#utility.yul\":9415:9416   */\n      0x00\n        /* \"#utility.yul\":9412:9413   */\n      dup5\n        /* \"#utility.yul\":9408:9417   */\n      slt\n        /* \"#utility.yul\":9404:9493   */\n      and\n        /* \"#utility.yul\":9401:9516   */\n      iszero\n      tag_213\n      jumpi\n        /* \"#utility.yul\":9496:9514   */\n      tag_214\n      tag_104\n      jump\t// in\n    tag_214:\n        /* \"#utility.yul\":9401:9516   */\n    tag_213:\n        /* \"#utility.yul\":9666:9667   */\n      dup3\n        /* \"#utility.yul\":9657:9664   */\n      dup3\n        /* \"#utility.yul\":9652:9668   */\n      sdiv\n        /* \"#utility.yul\":9649:9650   */\n      dup5\n        /* \"#utility.yul\":9646:9669   */\n      eq\n        /* \"#utility.yul\":9626:9627   */\n      dup4\n        /* \"#utility.yul\":9619:9628   */\n      iszero\n        /* \"#utility.yul\":9599:9683   */\n      or\n        /* \"#utility.yul\":9576:9716   */\n      tag_215\n      jumpi\n        /* \"#utility.yul\":9696:9714   */\n      tag_216\n      tag_104\n      jump\t// in\n    tag_216:\n        /* \"#utility.yul\":9576:9716   */\n    tag_215:\n        /* \"#utility.yul\":9214:9723   */\n      pop\n        /* \"#utility.yul\":9167:9723   */\n      swap3\n      swap2\n      pop\n      pop\n      jump\t// out\n\n    auxdata: 0xa26469706673582212209cf6165812eef78ebe5156cd363ec1da80e3c13754bb330277ca345643e1653564736f6c634300081e0033\n}\n",
				"bytecode": {
					"linkReferences": {},
					"object": "6080604052348015600e575f5ffd5b50610b718061001c5f395ff3fe60806040526004361061003e575f3560e01c80633ccfd60b146100425780633e47d6f314610058578063d1d9165d14610094578063dc0d3dff1461009e575b5f5ffd5b34801561004d575f5ffd5b506100566100da565b005b348015610063575f5ffd5b5061007e60048036038101906100799190610676565b61033f565b60405161008b91906106b9565b60405180910390f35b61009c610354565b005b3480156100a9575f5ffd5b506100c460048036038101906100bf91906106fc565b61045f565b6040516100d19190610736565b60405180910390f35b5f5f90505b5f80549050811015610179575f5f82815481106100ff576100fe61074f565b5b905f5260205f20015f9054906101000a900473ffffffffffffffffffffffffffffffffffffffff1690505f60015f8373ffffffffffffffffffffffffffffffffffffffff1673ffffffffffffffffffffffffffffffffffffffff1681526020019081526020015f20819055505080806001019150506100df565b505f67ffffffffffffffff8111156101945761019361077c565b5b6040519080825280602002602001820160405280156101c25781602001602082028036833780820191505090505b505f90805190602001906101d7929190610576565b503373ffffffffffffffffffffffffffffffffffffffff166108fc4790811502906040515f60405180830381858888f1935050505015801561021b573d5f5f3e3d5ffd5b505f3373ffffffffffffffffffffffffffffffffffffffff166108fc4790811502906040515f60405180830381858888f19350505050905080610293576040517f08c379a000000000000000000000000000000000000000000000000000000000815260040161028a90610803565b60405180910390fd5b5f3373ffffffffffffffffffffffffffffffffffffffff16476040516102b89061084e565b5f6040518083038185875af1925050503d805f81146102f2576040519150601f19603f3d011682016040523d82523d5f602084013e6102f7565b606091505b505090508061033b576040517f08c379a000000000000000000000000000000000000000000000000000000000815260040161033290610803565b60405180910390fd5b5050565b6001602052805f5260405f205f915090505481565b5f674563918244f4000090508061036a34610499565b116103aa576040517f08c379a00000000000000000000000000000000000000000000000000000000081526004016103a1906108ac565b60405180910390fd5b3460015f3373ffffffffffffffffffffffffffffffffffffffff1673ffffffffffffffffffffffffffffffffffffffff1681526020019081526020015f205f8282546103f691906108f7565b925050819055505f33908060018154018082558091505060019003905f5260205f20015f9091909190916101000a81548173ffffffffffffffffffffffffffffffffffffffff021916908373ffffffffffffffffffffffffffffffffffffffff16021790555050565b5f818154811061046d575f80fd5b905f5260205f20015f915054906101000a900473ffffffffffffffffffffffffffffffffffffffff1681565b5f5f6104a36104d1565b90505f670de0b6b3a764000084836104bb919061092a565b6104c59190610998565b90508092505050919050565b5f5f73694aa1769357215de4fac081bf1f309adc32530690505f8173ffffffffffffffffffffffffffffffffffffffff1663feaf968c6040518163ffffffff1660e01b815260040160a060405180830381865afa158015610534573d5f5f3e3d5ffd5b505050506040513d601f19601f820116820180604052508101906105589190610a4e565b5050509150506402540be4008161056f9190610ac5565b9250505090565b828054828255905f5260205f209081019282156105ec579160200282015b828111156105eb578251825f6101000a81548173ffffffffffffffffffffffffffffffffffffffff021916908373ffffffffffffffffffffffffffffffffffffffff16021790555091602001919060010190610594565b5b5090506105f991906105fd565b5090565b5b80821115610614575f815f9055506001016105fe565b5090565b5f5ffd5b5f73ffffffffffffffffffffffffffffffffffffffff82169050919050565b5f6106458261061c565b9050919050565b6106558161063b565b811461065f575f5ffd5b50565b5f813590506106708161064c565b92915050565b5f6020828403121561068b5761068a610618565b5b5f61069884828501610662565b91505092915050565b5f819050919050565b6106b3816106a1565b82525050565b5f6020820190506106cc5f8301846106aa565b92915050565b6106db816106a1565b81146106e5575f5ffd5b50565b5f813590506106f6816106d2565b92915050565b5f6020828403121561071157610710610618565b5b5f61071e848285016106e8565b91505092915050565b6107308161063b565b82525050565b5f6020820190506107495f830184610727565b92915050565b7f4e487b71000000000000000000000000000000000000000000000000000000005f52603260045260245ffd5b7f4e487b71000000000000000000000000000000000000000000000000000000005f52604160045260245ffd5b5f82825260208201905092915050565b7f7472616e73666572206661696c656400000000000000000000000000000000005f82015250565b5f6107ed600f836107a9565b91506107f8826107b9565b602082019050919050565b5f6020820190508181035f83015261081a816107e1565b9050919050565b5f81905092915050565b50565b5f6108395f83610821565b91506108448261082b565b5f82019050919050565b5f6108588261082e565b9150819050919050565b7f706c6561736520696e637265617365207468652076616c7565000000000000005f82015250565b5f6108966019836107a9565b91506108a182610862565b602082019050919050565b5f6020820190508181035f8301526108c38161088a565b9050919050565b7f4e487b71000000000000000000000000000000000000000000000000000000005f52601160045260245ffd5b5f610901826106a1565b915061090c836106a1565b9250828201905080821115610924576109236108ca565b5b92915050565b5f610934826106a1565b915061093f836106a1565b925082820261094d816106a1565b91508282048414831517610964576109636108ca565b5b5092915050565b7f4e487b71000000000000000000000000000000000000000000000000000000005f52601260045260245ffd5b5f6109a2826106a1565b91506109ad836106a1565b9250826109bd576109bc61096b565b5b828204905092915050565b5f69ffffffffffffffffffff82169050919050565b6109e6816109c8565b81146109f0575f5ffd5b50565b5f81519050610a01816109dd565b92915050565b5f819050919050565b610a1981610a07565b8114610a23575f5ffd5b50565b5f81519050610a3481610a10565b92915050565b5f81519050610a48816106d2565b92915050565b5f5f5f5f5f60a08688031215610a6757610a66610618565b5b5f610a74888289016109f3565b9550506020610a8588828901610a26565b9450506040610a9688828901610a3a565b9350506060610aa788828901610a3a565b9250506080610ab8888289016109f3565b9150509295509295909350565b5f610acf82610a07565b9150610ada83610a07565b9250828202610ae881610a07565b91507f800000000000000000000000000000000000000000000000000000000000000084145f84121615610b1f57610b1e6108ca565b5b8282058414831517610b3457610b336108ca565b5b509291505056fea26469706673582212209cf6165812eef78ebe5156cd363ec1da80e3c13754bb330277ca345643e1653564736f6c634300081e0033",
					"opcodes": "PUSH1 0x80 PUSH1 0x40 MSTORE CALLVALUE DUP1 ISZERO PUSH1 0xE JUMPI PUSH0 PUSH0 REVERT JUMPDEST POP PUSH2 0xB71 DUP1 PUSH2 0x1C PUSH0 CODECOPY PUSH0 RETURN INVALID PUSH1 0x80 PUSH1 0x40 MSTORE PUSH1 0x4 CALLDATASIZE LT PUSH2 0x3E JUMPI PUSH0 CALLDATALOAD PUSH1 0xE0 SHR DUP1 PUSH4 0x3CCFD60B EQ PUSH2 0x42 JUMPI DUP1 PUSH4 0x3E47D6F3 EQ PUSH2 0x58 JUMPI DUP1 PUSH4 0xD1D9165D EQ PUSH2 0x94 JUMPI DUP1 PUSH4 0xDC0D3DFF EQ PUSH2 0x9E JUMPI JUMPDEST PUSH0 PUSH0 REVERT JUMPDEST CALLVALUE DUP1 ISZERO PUSH2 0x4D JUMPI PUSH0 PUSH0 REVERT JUMPDEST POP PUSH2 0x56 PUSH2 0xDA JUMP JUMPDEST STOP JUMPDEST CALLVALUE DUP1 ISZERO PUSH2 0x63 JUMPI PUSH0 PUSH0 REVERT JUMPDEST POP PUSH2 0x7E PUSH1 0x4 DUP1 CALLDATASIZE SUB DUP2 ADD SWAP1 PUSH2 0x79 SWAP2 SWAP1 PUSH2 0x676 JUMP JUMPDEST PUSH2 0x33F JUMP JUMPDEST PUSH1 0x40 MLOAD PUSH2 0x8B SWAP2 SWAP1 PUSH2 0x6B9 JUMP JUMPDEST PUSH1 0x40 MLOAD DUP1 SWAP2 SUB SWAP1 RETURN JUMPDEST PUSH2 0x9C PUSH2 0x354 JUMP JUMPDEST STOP JUMPDEST CALLVALUE DUP1 ISZERO PUSH2 0xA9 JUMPI PUSH0 PUSH0 REVERT JUMPDEST POP PUSH2 0xC4 PUSH1 0x4 DUP1 CALLDATASIZE SUB DUP2 ADD SWAP1 PUSH2 0xBF SWAP2 SWAP1 PUSH2 0x6FC JUMP JUMPDEST PUSH2 0x45F JUMP JUMPDEST PUSH1 0x40 MLOAD PUSH2 0xD1 SWAP2 SWAP1 PUSH2 0x736 JUMP JUMPDEST PUSH1 0x40 MLOAD DUP1 SWAP2 SUB SWAP1 RETURN JUMPDEST PUSH0 PUSH0 SWAP1 POP JUMPDEST PUSH0 DUP1 SLOAD SWAP1 POP DUP2 LT ISZERO PUSH2 0x179 JUMPI PUSH0 PUSH0 DUP3 DUP2 SLOAD DUP2 LT PUSH2 0xFF JUMPI PUSH2 0xFE PUSH2 0x74F JUMP JUMPDEST JUMPDEST SWAP1 PUSH0 MSTORE PUSH1 0x20 PUSH0 KECCAK256 ADD PUSH0 SWAP1 SLOAD SWAP1 PUSH2 0x100 EXP SWAP1 DIV PUSH20 0xFFFFFFFFFFFFFFFFFFFFFFFFFFFFFFFFFFFFFFFF AND SWAP1 POP PUSH0 PUSH1 0x1 PUSH0 DUP4 PUSH20 0xFFFFFFFFFFFFFFFFFFFFFFFFFFFFFFFFFFFFFFFF AND PUSH20 0xFFFFFFFFFFFFFFFFFFFFFFFFFFFFFFFFFFFFFFFF AND DUP2 MSTORE PUSH1 0x20 ADD SWAP1 DUP2 MSTORE PUSH1 0x20 ADD PUSH0 KECCAK256 DUP2 SWAP1 SSTORE POP POP DUP1 DUP1 PUSH1 0x1 ADD SWAP2 POP POP PUSH2 0xDF JUMP JUMPDEST POP PUSH0 PUSH8 0xFFFFFFFFFFFFFFFF DUP2 GT ISZERO PUSH2 0x194 JUMPI PUSH2 0x193 PUSH2 0x77C JUMP JUMPDEST JUMPDEST PUSH1 0x40 MLOAD SWAP1 DUP1 DUP3 MSTORE DUP1 PUSH1 0x20 MUL PUSH1 0x20 ADD DUP3 ADD PUSH1 0x40 MSTORE DUP1 ISZERO PUSH2 0x1C2 JUMPI DUP2 PUSH1 0x20 ADD PUSH1 0x20 DUP3 MUL DUP1 CALLDATASIZE DUP4 CALLDATACOPY DUP1 DUP3 ADD SWAP2 POP POP SWAP1 POP JUMPDEST POP PUSH0 SWAP1 DUP1 MLOAD SWAP1 PUSH1 0x20 ADD SWAP1 PUSH2 0x1D7 SWAP3 SWAP2 SWAP1 PUSH2 0x576 JUMP JUMPDEST POP CALLER PUSH20 0xFFFFFFFFFFFFFFFFFFFFFFFFFFFFFFFFFFFFFFFF AND PUSH2 0x8FC SELFBALANCE SWAP1 DUP2 ISZERO MUL SWAP1 PUSH1 0x40 MLOAD PUSH0 PUSH1 0x40 MLOAD DUP1 DUP4 SUB DUP2 DUP6 DUP9 DUP9 CALL SWAP4 POP POP POP POP ISZERO DUP1 ISZERO PUSH2 0x21B JUMPI RETURNDATASIZE PUSH0 PUSH0 RETURNDATACOPY RETURNDATASIZE PUSH0 REVERT JUMPDEST POP PUSH0 CALLER PUSH20 0xFFFFFFFFFFFFFFFFFFFFFFFFFFFFFFFFFFFFFFFF AND PUSH2 0x8FC SELFBALANCE SWAP1 DUP2 ISZERO MUL SWAP1 PUSH1 0x40 MLOAD PUSH0 PUSH1 0x40 MLOAD DUP1 DUP4 SUB DUP2 DUP6 DUP9 DUP9 CALL SWAP4 POP POP POP POP SWAP1 POP DUP1 PUSH2 0x293 JUMPI PUSH1 0x40 MLOAD PUSH32 0x8C379A000000000000000000000000000000000000000000000000000000000 DUP2 MSTORE PUSH1 0x4 ADD PUSH2 0x28A SWAP1 PUSH2 0x803 JUMP JUMPDEST PUSH1 0x40 MLOAD DUP1 SWAP2 SUB SWAP1 REVERT JUMPDEST PUSH0 CALLER PUSH20 0xFFFFFFFFFFFFFFFFFFFFFFFFFFFFFFFFFFFFFFFF AND SELFBALANCE PUSH1 0x40 MLOAD PUSH2 0x2B8 SWAP1 PUSH2 0x84E JUMP JUMPDEST PUSH0 PUSH1 0x40 MLOAD DUP1 DUP4 SUB DUP2 DUP6 DUP8 GAS CALL SWAP3 POP POP POP RETURNDATASIZE DUP1 PUSH0 DUP2 EQ PUSH2 0x2F2 JUMPI PUSH1 0x40 MLOAD SWAP2 POP PUSH1 0x1F NOT PUSH1 0x3F RETURNDATASIZE ADD AND DUP3 ADD PUSH1 0x40 MSTORE RETURNDATASIZE DUP3 MSTORE RETURNDATASIZE PUSH0 PUSH1 0x20 DUP5 ADD RETURNDATACOPY PUSH2 0x2F7 JUMP JUMPDEST PUSH1 0x60 SWAP2 POP JUMPDEST POP POP SWAP1 POP DUP1 PUSH2 0x33B JUMPI PUSH1 0x40 MLOAD PUSH32 0x8C379A000000000000000000000000000000000000000000000000000000000 DUP2 MSTORE PUSH1 0x4 ADD PUSH2 0x332 SWAP1 PUSH2 0x803 JUMP JUMPDEST PUSH1 0x40 MLOAD DUP1 SWAP2 SUB SWAP1 REVERT JUMPDEST POP POP JUMP JUMPDEST PUSH1 0x1 PUSH1 0x20 MSTORE DUP1 PUSH0 MSTORE PUSH1 0x40 PUSH0 KECCAK256 PUSH0 SWAP2 POP SWAP1 POP SLOAD DUP2 JUMP JUMPDEST PUSH0 PUSH8 0x4563918244F40000 SWAP1 POP DUP1 PUSH2 0x36A CALLVALUE PUSH2 0x499 JUMP JUMPDEST GT PUSH2 0x3AA JUMPI PUSH1 0x40 MLOAD PUSH32 0x8C379A000000000000000000000000000000000000000000000000000000000 DUP2 MSTORE PUSH1 0x4 ADD PUSH2 0x3A1 SWAP1 PUSH2 0x8AC JUMP JUMPDEST PUSH1 0x40 MLOAD DUP1 SWAP2 SUB SWAP1 REVERT JUMPDEST CALLVALUE PUSH1 0x1 PUSH0 CALLER PUSH20 0xFFFFFFFFFFFFFFFFFFFFFFFFFFFFFFFFFFFFFFFF AND PUSH20 0xFFFFFFFFFFFFFFFFFFFFFFFFFFFFFFFFFFFFFFFF AND DUP2 MSTORE PUSH1 0x20 ADD SWAP1 DUP2 MSTORE PUSH1 0x20 ADD PUSH0 KECCAK256 PUSH0 DUP3 DUP3 SLOAD PUSH2 0x3F6 SWAP2 SWAP1 PUSH2 0x8F7 JUMP JUMPDEST SWAP3 POP POP DUP2 SWAP1 SSTORE POP PUSH0 CALLER SWAP1 DUP1 PUSH1 0x1 DUP2 SLOAD ADD DUP1 DUP3 SSTORE DUP1 SWAP2 POP POP PUSH1 0x1 SWAP1 SUB SWAP1 PUSH0 MSTORE PUSH1 0x20 PUSH0 KECCAK256 ADD PUSH0 SWAP1 SWAP2 SWAP1 SWAP2 SWAP1 SWAP2 PUSH2 0x100 EXP DUP2 SLOAD DUP2 PUSH20 0xFFFFFFFFFFFFFFFFFFFFFFFFFFFFFFFFFFFFFFFF MUL NOT AND SWAP1 DUP4 PUSH20 0xFFFFFFFFFFFFFFFFFFFFFFFFFFFFFFFFFFFFFFFF AND MUL OR SWAP1 SSTORE POP POP JUMP JUMPDEST PUSH0 DUP2 DUP2 SLOAD DUP2 LT PUSH2 0x46D JUMPI PUSH0 DUP1 REVERT JUMPDEST SWAP1 PUSH0 MSTORE PUSH1 0x20 PUSH0 KECCAK256 ADD PUSH0 SWAP2 POP SLOAD SWAP1 PUSH2 0x100 EXP SWAP1 DIV PUSH20 0xFFFFFFFFFFFFFFFFFFFFFFFFFFFFFFFFFFFFFFFF AND DUP2 JUMP JUMPDEST PUSH0 PUSH0 PUSH2 0x4A3 PUSH2 0x4D1 JUMP JUMPDEST SWAP1 POP PUSH0 PUSH8 0xDE0B6B3A7640000 DUP5 DUP4 PUSH2 0x4BB SWAP2 SWAP1 PUSH2 0x92A JUMP JUMPDEST PUSH2 0x4C5 SWAP2 SWAP1 PUSH2 0x998 JUMP JUMPDEST SWAP1 POP DUP1 SWAP3 POP POP POP SWAP2 SWAP1 POP JUMP JUMPDEST PUSH0 PUSH0 PUSH20 0x694AA1769357215DE4FAC081BF1F309ADC325306 SWAP1 POP PUSH0 DUP2 PUSH20 0xFFFFFFFFFFFFFFFFFFFFFFFFFFFFFFFFFFFFFFFF AND PUSH4 0xFEAF968C PUSH1 0x40 MLOAD DUP2 PUSH4 0xFFFFFFFF AND PUSH1 0xE0 SHL DUP2 MSTORE PUSH1 0x4 ADD PUSH1 0xA0 PUSH1 0x40 MLOAD DUP1 DUP4 SUB DUP2 DUP7 GAS STATICCALL ISZERO DUP1 ISZERO PUSH2 0x534 JUMPI RETURNDATASIZE PUSH0 PUSH0 RETURNDATACOPY RETURNDATASIZE PUSH0 REVERT JUMPDEST POP POP POP POP PUSH1 0x40 MLOAD RETURNDATASIZE PUSH1 0x1F NOT PUSH1 0x1F DUP3 ADD AND DUP3 ADD DUP1 PUSH1 0x40 MSTORE POP DUP2 ADD SWAP1 PUSH2 0x558 SWAP2 SWAP1 PUSH2 0xA4E JUMP JUMPDEST POP POP POP SWAP2 POP POP PUSH5 0x2540BE400 DUP2 PUSH2 0x56F SWAP2 SWAP1 PUSH2 0xAC5 JUMP JUMPDEST SWAP3 POP POP POP SWAP1 JUMP JUMPDEST DUP3 DUP1 SLOAD DUP3 DUP3 SSTORE SWAP1 PUSH0 MSTORE PUSH1 0x20 PUSH0 KECCAK256 SWAP1 DUP2 ADD SWAP3 DUP3 ISZERO PUSH2 0x5EC JUMPI SWAP2 PUSH1 0x20 MUL DUP3 ADD JUMPDEST DUP3 DUP2 GT ISZERO PUSH2 0x5EB JUMPI DUP3 MLOAD DUP3 PUSH0 PUSH2 0x100 EXP DUP2 SLOAD DUP2 PUSH20 0xFFFFFFFFFFFFFFFFFFFFFFFFFFFFFFFFFFFFFFFF MUL NOT AND SWAP1 DUP4 PUSH20 0xFFFFFFFFFFFFFFFFFFFFFFFFFFFFFFFFFFFFFFFF AND MUL OR SWAP1 SSTORE POP SWAP2 PUSH1 0x20 ADD SWAP2 SWAP1 PUSH1 0x1 ADD SWAP1 PUSH2 0x594 JUMP JUMPDEST JUMPDEST POP SWAP1 POP PUSH2 0x5F9 SWAP2 SWAP1 PUSH2 0x5FD JUMP JUMPDEST POP SWAP1 JUMP JUMPDEST JUMPDEST DUP1 DUP3 GT ISZERO PUSH2 0x614 JUMPI PUSH0 DUP2 PUSH0 SWAP1 SSTORE POP PUSH1 0x1 ADD PUSH2 0x5FE JUMP JUMPDEST POP SWAP1 JUMP JUMPDEST PUSH0 PUSH0 REVERT JUMPDEST PUSH0 PUSH20 0xFFFFFFFFFFFFFFFFFFFFFFFFFFFFFFFFFFFFFFFF DUP3 AND SWAP1 POP SWAP2 SWAP1 POP JUMP JUMPDEST PUSH0 PUSH2 0x645 DUP3 PUSH2 0x61C JUMP JUMPDEST SWAP1 POP SWAP2 SWAP1 POP JUMP JUMPDEST PUSH2 0x655 DUP2 PUSH2 0x63B JUMP JUMPDEST DUP2 EQ PUSH2 0x65F JUMPI PUSH0 PUSH0 REVERT JUMPDEST POP JUMP JUMPDEST PUSH0 DUP2 CALLDATALOAD SWAP1 POP PUSH2 0x670 DUP2 PUSH2 0x64C JUMP JUMPDEST SWAP3 SWAP2 POP POP JUMP JUMPDEST PUSH0 PUSH1 0x20 DUP3 DUP5 SUB SLT ISZERO PUSH2 0x68B JUMPI PUSH2 0x68A PUSH2 0x618 JUMP JUMPDEST JUMPDEST PUSH0 PUSH2 0x698 DUP5 DUP3 DUP6 ADD PUSH2 0x662 JUMP JUMPDEST SWAP2 POP POP SWAP3 SWAP2 POP POP JUMP JUMPDEST PUSH0 DUP2 SWAP1 POP SWAP2 SWAP1 POP JUMP JUMPDEST PUSH2 0x6B3 DUP2 PUSH2 0x6A1 JUMP JUMPDEST DUP3 MSTORE POP POP JUMP JUMPDEST PUSH0 PUSH1 0x20 DUP3 ADD SWAP1 POP PUSH2 0x6CC PUSH0 DUP4 ADD DUP5 PUSH2 0x6AA JUMP JUMPDEST SWAP3 SWAP2 POP POP JUMP JUMPDEST PUSH2 0x6DB DUP2 PUSH2 0x6A1 JUMP JUMPDEST DUP2 EQ PUSH2 0x6E5 JUMPI PUSH0 PUSH0 REVERT JUMPDEST POP JUMP JUMPDEST PUSH0 DUP2 CALLDATALOAD SWAP1 POP PUSH2 0x6F6 DUP2 PUSH2 0x6D2 JUMP JUMPDEST SWAP3 SWAP2 POP POP JUMP JUMPDEST PUSH0 PUSH1 0x20 DUP3 DUP5 SUB SLT ISZERO PUSH2 0x711 JUMPI PUSH2 0x710 PUSH2 0x618 JUMP JUMPDEST JUMPDEST PUSH0 PUSH2 0x71E DUP5 DUP3 DUP6 ADD PUSH2 0x6E8 JUMP JUMPDEST SWAP2 POP POP SWAP3 SWAP2 POP POP JUMP JUMPDEST PUSH2 0x730 DUP2 PUSH2 0x63B JUMP JUMPDEST DUP3 MSTORE POP POP JUMP JUMPDEST PUSH0 PUSH1 0x20 DUP3 ADD SWAP1 POP PUSH2 0x749 PUSH0 DUP4 ADD DUP5 PUSH2 0x727 JUMP JUMPDEST SWAP3 SWAP2 POP POP JUMP JUMPDEST PUSH32 0x4E487B7100000000000000000000000000000000000000000000000000000000 PUSH0 MSTORE PUSH1 0x32 PUSH1 0x4 MSTORE PUSH1 0x24 PUSH0 REVERT JUMPDEST PUSH32 0x4E487B7100000000000000000000000000000000000000000000000000000000 PUSH0 MSTORE PUSH1 0x41 PUSH1 0x4 MSTORE PUSH1 0x24 PUSH0 REVERT JUMPDEST PUSH0 DUP3 DUP3 MSTORE PUSH1 0x20 DUP3 ADD SWAP1 POP SWAP3 SWAP2 POP POP JUMP JUMPDEST PUSH32 0x7472616E73666572206661696C65640000000000000000000000000000000000 PUSH0 DUP3 ADD MSTORE POP JUMP JUMPDEST PUSH0 PUSH2 0x7ED PUSH1 0xF DUP4 PUSH2 0x7A9 JUMP JUMPDEST SWAP2 POP PUSH2 0x7F8 DUP3 PUSH2 0x7B9 JUMP JUMPDEST PUSH1 0x20 DUP3 ADD SWAP1 POP SWAP2 SWAP1 POP JUMP JUMPDEST PUSH0 PUSH1 0x20 DUP3 ADD SWAP1 POP DUP2 DUP2 SUB PUSH0 DUP4 ADD MSTORE PUSH2 0x81A DUP2 PUSH2 0x7E1 JUMP JUMPDEST SWAP1 POP SWAP2 SWAP1 POP JUMP JUMPDEST PUSH0 DUP2 SWAP1 POP SWAP3 SWAP2 POP POP JUMP JUMPDEST POP JUMP JUMPDEST PUSH0 PUSH2 0x839 PUSH0 DUP4 PUSH2 0x821 JUMP JUMPDEST SWAP2 POP PUSH2 0x844 DUP3 PUSH2 0x82B JUMP JUMPDEST PUSH0 DUP3 ADD SWAP1 POP SWAP2 SWAP1 POP JUMP JUMPDEST PUSH0 PUSH2 0x858 DUP3 PUSH2 0x82E JUMP JUMPDEST SWAP2 POP DUP2 SWAP1 POP SWAP2 SWAP1 POP JUMP JUMPDEST PUSH32 0x706C6561736520696E637265617365207468652076616C756500000000000000 PUSH0 DUP3 ADD MSTORE POP JUMP JUMPDEST PUSH0 PUSH2 0x896 PUSH1 0x19 DUP4 PUSH2 0x7A9 JUMP JUMPDEST SWAP2 POP PUSH2 0x8A1 DUP3 PUSH2 0x862 JUMP JUMPDEST PUSH1 0x20 DUP3 ADD SWAP1 POP SWAP2 SWAP1 POP JUMP JUMPDEST PUSH0 PUSH1 0x20 DUP3 ADD SWAP1 POP DUP2 DUP2 SUB PUSH0 DUP4 ADD MSTORE PUSH2 0x8C3 DUP2 PUSH2 0x88A JUMP JUMPDEST SWAP1 POP SWAP2 SWAP1 POP JUMP JUMPDEST PUSH32 0x4E487B7100000000000000000000000000000000000000000000000000000000 PUSH0 MSTORE PUSH1 0x11 PUSH1 0x4 MSTORE PUSH1 0x24 PUSH0 REVERT JUMPDEST PUSH0 PUSH2 0x901 DUP3 PUSH2 0x6A1 JUMP JUMPDEST SWAP2 POP PUSH2 0x90C DUP4 PUSH2 0x6A1 JUMP JUMPDEST SWAP3 POP DUP3 DUP3 ADD SWAP1 POP DUP1 DUP3 GT ISZERO PUSH2 0x924 JUMPI PUSH2 0x923 PUSH2 0x8CA JUMP JUMPDEST JUMPDEST SWAP3 SWAP2 POP POP JUMP JUMPDEST PUSH0 PUSH2 0x934 DUP3 PUSH2 0x6A1 JUMP JUMPDEST SWAP2 POP PUSH2 0x93F DUP4 PUSH2 0x6A1 JUMP JUMPDEST SWAP3 POP DUP3 DUP3 MUL PUSH2 0x94D DUP2 PUSH2 0x6A1 JUMP JUMPDEST SWAP2 POP DUP3 DUP3 DIV DUP5 EQ DUP4 ISZERO OR PUSH2 0x964 JUMPI PUSH2 0x963 PUSH2 0x8CA JUMP JUMPDEST JUMPDEST POP SWAP3 SWAP2 POP POP JUMP JUMPDEST PUSH32 0x4E487B7100000000000000000000000000000000000000000000000000000000 PUSH0 MSTORE PUSH1 0x12 PUSH1 0x4 MSTORE PUSH1 0x24 PUSH0 REVERT JUMPDEST PUSH0 PUSH2 0x9A2 DUP3 PUSH2 0x6A1 JUMP JUMPDEST SWAP2 POP PUSH2 0x9AD DUP4 PUSH2 0x6A1 JUMP JUMPDEST SWAP3 POP DUP3 PUSH2 0x9BD JUMPI PUSH2 0x9BC PUSH2 0x96B JUMP JUMPDEST JUMPDEST DUP3 DUP3 DIV SWAP1 POP SWAP3 SWAP2 POP POP JUMP JUMPDEST PUSH0 PUSH10 0xFFFFFFFFFFFFFFFFFFFF DUP3 AND SWAP1 POP SWAP2 SWAP1 POP JUMP JUMPDEST PUSH2 0x9E6 DUP2 PUSH2 0x9C8 JUMP JUMPDEST DUP2 EQ PUSH2 0x9F0 JUMPI PUSH0 PUSH0 REVERT JUMPDEST POP JUMP JUMPDEST PUSH0 DUP2 MLOAD SWAP1 POP PUSH2 0xA01 DUP2 PUSH2 0x9DD JUMP JUMPDEST SWAP3 SWAP2 POP POP JUMP JUMPDEST PUSH0 DUP2 SWAP1 POP SWAP2 SWAP1 POP JUMP JUMPDEST PUSH2 0xA19 DUP2 PUSH2 0xA07 JUMP JUMPDEST DUP2 EQ PUSH2 0xA23 JUMPI PUSH0 PUSH0 REVERT JUMPDEST POP JUMP JUMPDEST PUSH0 DUP2 MLOAD SWAP1 POP PUSH2 0xA34 DUP2 PUSH2 0xA10 JUMP JUMPDEST SWAP3 SWAP2 POP POP JUMP JUMPDEST PUSH0 DUP2 MLOAD SWAP1 POP PUSH2 0xA48 DUP2 PUSH2 0x6D2 JUMP JUMPDEST SWAP3 SWAP2 POP POP JUMP JUMPDEST PUSH0 PUSH0 PUSH0 PUSH0 PUSH0 PUSH1 0xA0 DUP7 DUP9 SUB SLT ISZERO PUSH2 0xA67 JUMPI PUSH2 0xA66 PUSH2 0x618 JUMP JUMPDEST JUMPDEST PUSH0 PUSH2 0xA74 DUP9 DUP3 DUP10 ADD PUSH2 0x9F3 JUMP JUMPDEST SWAP6 POP POP PUSH1 0x20 PUSH2 0xA85 DUP9 DUP3 DUP10 ADD PUSH2 0xA26 JUMP JUMPDEST SWAP5 POP POP PUSH1 0x40 PUSH2 0xA96 DUP9 DUP3 DUP10 ADD PUSH2 0xA3A JUMP JUMPDEST SWAP4 POP POP PUSH1 0x60 PUSH2 0xAA7 DUP9 DUP3 DUP10 ADD PUSH2 0xA3A JUMP JUMPDEST SWAP3 POP POP PUSH1 0x80 PUSH2 0xAB8 DUP9 DUP3 DUP10 ADD PUSH2 0x9F3 JUMP JUMPDEST SWAP2 POP POP SWAP3 SWAP6 POP SWAP3 SWAP6 SWAP1 SWAP4 POP JUMP JUMPDEST PUSH0 PUSH2 0xACF DUP3 PUSH2 0xA07 JUMP JUMPDEST SWAP2 POP PUSH2 0xADA DUP4 PUSH2 0xA07 JUMP JUMPDEST SWAP3 POP DUP3 DUP3 MUL PUSH2 0xAE8 DUP2 PUSH2 0xA07 JUMP JUMPDEST SWAP2 POP PUSH32 0x8000000000000000000000000000000000000000000000000000000000000000 DUP5 EQ PUSH0 DUP5 SLT AND ISZERO PUSH2 0xB1F JUMPI PUSH2 0xB1E PUSH2 0x8CA JUMP JUMPDEST JUMPDEST DUP3 DUP3 SDIV DUP5 EQ DUP4 ISZERO OR PUSH2 0xB34 JUMPI PUSH2 0xB33 PUSH2 0x8CA JUMP JUMPDEST JUMPDEST POP SWAP3 SWAP2 POP POP JUMP INVALID LOG2 PUSH5 0x6970667358 0x22 SLT KECCAK256 SWAP13 0xF6 AND PC SLT RETURNCONTRACT 0xF7 DUP15 0xBE MLOAD JUMP 0xCD CALLDATASIZE RETURNDATACOPY 0xC1 0xDA DUP1 CALLF 0xC137 SLOAD 0xBB CALLER MUL PUSH24 0xCA345643E1653564736F6C634300081E0033000000000000 "
				},
				"gasEstimates": {
					"creation": {
						"codeDepositCost": "585800",
						"executionCost": "617",
						"totalCost": "586417"
					},
					"external": {
						"addressToAmountFunded(address)": "2802",
						"funders(uint256)": "4987",
						"fundme()": "infinite",
						"withdraw()": "infinite"
					}
				},
				"methodIdentifiers": {
					"addressToAmountFunded(address)": "3e47d6f3",
					"funders(uint256)": "dc0d3dff",
					"fundme()": "d1d9165d",
					"withdraw()": "3ccfd60b"
				}
			},
			"storageLayout": {
				"storage": [
					{
						"astId": 55,
						"contract": "fundme/fundme.sol:Fundme",
						"label": "funders",
						"offset": 0,
						"slot": "0",
						"type": "t_array(t_address)dyn_storage"
					},
					{
						"astId": 59,
						"contract": "fundme/fundme.sol:Fundme",
						"label": "addressToAmountFunded",
						"offset": 0,
						"slot": "1",
						"type": "t_mapping(t_address,t_uint256)"
					}
				],
				"types": {
					"t_address": {
						"encoding": "inplace",
						"label": "address",
						"numberOfBytes": "20"
					},
					"t_array(t_address)dyn_storage": {
						"base": "t_address",
						"encoding": "dynamic_array",
						"label": "address[]",
						"numberOfBytes": "32"
					},
					"t_mapping(t_address,t_uint256)": {
						"encoding": "mapping",
						"key": "t_address",
						"label": "mapping(address => uint256)",
						"numberOfBytes": "32",
						"value": "t_uint256"
					},
					"t_uint256": {
						"encoding": "inplace",
						"label": "uint256",
						"numberOfBytes": "32"
					}
				}
			},
			"userdoc": {
				"kind": "user",
				"methods": {},
				"version": 1
			}
		}
	}
}