{
	"fundme/fundme.sol": {
		"Fundme": {
			"abi": [
				{
					"inputs": [],
					"name": "fundme",
					"outputs": [],
					"stateMutability": "payable",
					"type": "function"
				}
			],
			"devdoc": {
				"kind": "dev",
				"methods": {},
				"version": 1
			},
			"evm": {
				"assembly": "    /* \"fundme/fundme.sol\":120:521  contract Fundme{... */\n  mstore(0x40, 0x80)\n  callvalue\n  dup1\n  iszero\n  tag_1\n  jumpi\n  revert(0x00, 0x00)\ntag_1:\n  pop\n  dataSize(sub_0)\n  dup1\n  dataOffset(sub_0)\n  0x00\n  codecopy\n  0x00\n  return\nstop\n\nsub_0: assembly {\n        /* \"fundme/fundme.sol\":120:521  contract Fundme{... */\n      mstore(0x40, 0x80)\n      jumpi(tag_1, lt(calldatasize, 0x04))\n      shr(0xe0, calldataload(0x00))\n      dup1\n      0xd1d9165d\n      eq\n      tag_2\n      jumpi\n    tag_1:\n      revert(0x00, 0x00)\n        /* \"fundme/fundme.sol\":205:518  function fundme() public payable {... */\n    tag_2:\n      tag_3\n      tag_4\n      jump\t// in\n    tag_3:\n      stop\n    tag_4:\n        /* \"fundme/fundme.sol\":480:484  1e18 */\n      0x0de0b6b3a7640000\n        /* \"fundme/fundme.sol\":468:477  msg.value */\n      callvalue\n        /* \"fundme/fundme.sol\":468:484  msg.value > 1e18 */\n      gt\n        /* \"fundme/fundme.sol\":460:513  require(msg.value > 1e18,'please increase the value') */\n      tag_6\n      jumpi\n      mload(0x40)\n      0x08c379a000000000000000000000000000000000000000000000000000000000\n      dup2\n      mstore\n      0x04\n      add\n      tag_7\n      swap1\n      tag_8\n      jump\t// in\n    tag_7:\n      mload(0x40)\n      dup1\n      swap2\n      sub\n      swap1\n      revert\n    tag_6:\n        /* \"fundme/fundme.sol\":205:518  function fundme() public payable {... */\n      jump\t// out\n        /* \"#utility.yul\":7:176   */\n    tag_9:\n        /* \"#utility.yul\":91:102   */\n      0x00\n        /* \"#utility.yul\":125:131   */\n      dup3\n        /* \"#utility.yul\":120:123   */\n      dup3\n        /* \"#utility.yul\":113:132   */\n      mstore\n        /* \"#utility.yul\":165:169   */\n      0x20\n        /* \"#utility.yul\":160:163   */\n      dup3\n        /* \"#utility.yul\":156:170   */\n      add\n        /* \"#utility.yul\":141:170   */\n      swap1\n      pop\n        /* \"#utility.yul\":7:176   */\n      swap3\n      swap2\n      pop\n      pop\n      jump\t// out\n        /* \"#utility.yul\":182:357   */\n    tag_10:\n        /* \"#utility.yul\":322:349   */\n      0x706c6561736520696e637265617365207468652076616c756500000000000000\n        /* \"#utility.yul\":318:319   */\n      0x00\n        /* \"#utility.yul\":310:316   */\n      dup3\n        /* \"#utility.yul\":306:320   */\n      add\n        /* \"#utility.yul\":299:350   */\n      mstore\n        /* \"#utility.yul\":182:357   */\n      pop\n      jump\t// out\n        /* \"#utility.yul\":363:729   */\n    tag_11:\n        /* \"#utility.yul\":505:508   */\n      0x00\n        /* \"#utility.yul\":526:593   */\n      tag_16\n        /* \"#utility.yul\":590:592   */\n      0x19\n        /* \"#utility.yul\":585:588   */\n      dup4\n        /* \"#utility.yul\":526:593   */\n      tag_9\n      jump\t// in\n    tag_16:\n        /* \"#utility.yul\":519:593   */\n      swap2\n      pop\n        /* \"#utility.yul\":602:695   */\n      tag_17\n        /* \"#utility.yul\":691:694   */\n      dup3\n        /* \"#utility.yul\":602:695   */\n      tag_10\n      jump\t// in\n    tag_17:\n        /* \"#utility.yul\":720:722   */\n      0x20\n        /* \"#utility.yul\":715:718   */\n      dup3\n        /* \"#utility.yul\":711:723   */\n      add\n        /* \"#utility.yul\":704:723   */\n      swap1\n      pop\n        /* \"#utility.yul\":363:729   */\n      swap2\n      swap1\n      pop\n      jump\t// out\n        /* \"#utility.yul\":735:1154   */\n    tag_8:\n        /* \"#utility.yul\":901:905   */\n      0x00\n        /* \"#utility.yul\":939:941   */\n      0x20\n        /* \"#utility.yul\":928:937   */\n      dup3\n        /* \"#utility.yul\":924:942   */\n      add\n        /* \"#utility.yul\":916:942   */\n      swap1\n      pop\n        /* \"#utility.yul\":988:997   */\n      dup2\n        /* \"#utility.yul\":982:986   */\n      dup2\n        /* \"#utility.yul\":978:998   */\n      sub\n        /* \"#utility.yul\":974:975   */\n      0x00\n        /* \"#utility.yul\":963:972   */\n      dup4\n        /* \"#utility.yul\":959:976   */\n      add\n        /* \"#utility.yul\":952:999   */\n      mstore\n        /* \"#utility.yul\":1016:1147   */\n      tag_19\n        /* \"#utility.yul\":1142:1146   */\n      dup2\n        /* \"#utility.yul\":1016:1147   */\n      tag_11\n      jump\t// in\n    tag_19:\n        /* \"#utility.yul\":1008:1147   */\n      swap1\n      pop\n        /* \"#utility.yul\":735:1154   */\n      swap2\n      swap1\n      pop\n      jump\t// out\n\n    auxdata: 0xa2646970667358221220587758d9d9fc129230bf3196a0d47a397e0713148536ce5cb05016c6a12cadfc64736f6c634300081e0033\n}\n",
				"bytecode": {
					"linkReferences": {},
					"object": "6080604052348015600e575f5ffd5b506101188061001c5f395ff3fe608060405260043610601b575f3560e01c8063d1d9165d14601f575b5f5ffd5b60256027565b005b670de0b6b3a76400003411606e576040517f08c379a000000000000000000000000000000000000000000000000000000000815260040160659060c6565b60405180910390fd5b565b5f82825260208201905092915050565b7f706c6561736520696e637265617365207468652076616c7565000000000000005f82015250565b5f60b26019836070565b915060bb826080565b602082019050919050565b5f6020820190508181035f83015260db8160a8565b905091905056fea2646970667358221220587758d9d9fc129230bf3196a0d47a397e0713148536ce5cb05016c6a12cadfc64736f6c634300081e0033",
					"opcodes": "PUSH1 0x80 PUSH1 0x40 MSTORE CALLVALUE DUP1 ISZERO PUSH1 0xE JUMPI PUSH0 PUSH0 REVERT JUMPDEST POP PUSH2 0x118 DUP1 PUSH2 0x1C PUSH0 CODECOPY PUSH0 RETURN INVALID PUSH1 0x80 PUSH1 0x40 MSTORE PUSH1 0x4 CALLDATASIZE LT PUSH1 0x1B JUMPI PUSH0 CALLDATALOAD PUSH1 0xE0 SHR DUP1 PUSH4 0xD1D9165D EQ PUSH1 0x1F JUMPI JUMPDEST PUSH0 PUSH0 REVERT JUMPDEST PUSH1 0x25 PUSH1 0x27 JUMP JUMPDEST STOP JUMPDEST PUSH8 0xDE0B6B3A7640000 CALLVALUE GT PUSH1 0x6E JUMPI PUSH1 0x40 MLOAD PUSH32 0x8C379A000000000000000000000000000000000000000000000000000000000 DUP2 MSTORE PUSH1 0x4 ADD PUSH1 0x65 SWAP1 PUSH1 0xC6 JUMP JUMPDEST PUSH1 0x40 MLOAD DUP1 SWAP2 SUB SWAP1 REVERT JUMPDEST JUMP JUMPDEST PUSH0 DUP3 DUP3 MSTORE PUSH1 0x20 DUP3 ADD SWAP1 POP SWAP3 SWAP2 POP POP JUMP JUMPDEST PUSH32 0x706C6561736520696E637265617365207468652076616C756500000000000000 PUSH0 DUP3 ADD MSTORE POP JUMP JUMPDEST PUSH0 PUSH1 0xB2 PUSH1 0x19 DUP4 PUSH1 0x70 JUMP JUMPDEST SWAP2 POP PUSH1 0xBB DUP3 PUSH1 0x80 JUMP JUMPDEST PUSH1 0x20 DUP3 ADD SWAP1 POP SWAP2 SWAP1 POP JUMP JUMPDEST PUSH0 PUSH1 0x20 DUP3 ADD SWAP1 POP DUP2 DUP2 SUB PUSH0 DUP4 ADD MSTORE PUSH1 0xDB DUP2 PUSH1 0xA8 JUMP JUMPDEST SWAP1 POP SWAP2 SWAP1 POP JUMP INVALID LOG2 PUSH5 0x6970667358 0x22 SLT KECCAK256 PC PUSH24 0x58D9D9FC129230BF3196A0D47A397E0713148536CE5CB050 AND 0xC6 LOG1 0x2C 0xAD 0xFC PUSH5 0x736F6C6343 STOP ADDMOD 0x1E STOP CALLER "
				},
				"gasEstimates": {
					"creation": {
						"codeDepositCost": "56000",
						"executionCost": "103",
						"totalCost": "56103"
					},
					"external": {
						"fundme()": "403"
					}
				},
				"methodIdentifiers": {
					"fundme()": "d1d9165d"
				}
			},
			"storageLayout": {
				"storage": [],
				"types": null
			},
			"userdoc": {
				"kind": "user",
				"methods": {},
				"version": 1
			}
		}
	}
}