{
	"contanct.sol": {
		"Savecontact": {
			"abi": [
				{
					"inputs": [
						{
							"internalType": "string",
							"name": "_name",
							"type": "string"
						},
						{
							"internalType": "string",
							"name": "_number",
							"type": "string"
						},
						{
							"internalType": "string",
							"name": "_email",
							"type": "string"
						}
					],
					"name": "createUser",
					"outputs": [],
					"stateMutability": "nonpayable",
					"type": "function"
				},
				{
					"inputs": [
						{
							"internalType": "uint256",
							"name": "",
							"type": "uint256"
						}
					],
					"name": "userInfo",
					"outputs": [
						{
							"internalType": "string",
							"name": "name",
							"type": "string"
						},
						{
							"internalType": "string",
							"name": "number",
							"type": "string"
						},
						{
							"internalType": "string",
							"name": "email",
							"type": "string"
						}
					],
					"stateMutability": "view",
					"type": "function"
				},
				{
					"inputs": [
						{
							"internalType": "string",
							"name": "",
							"type": "string"
						}
					],
					"name": "userInfoByName",
					"outputs": [
						{
							"internalType": "string",
							"name": "name",
							"type": "string"
						},
						{
							"internalType": "string",
							"name": "number",
							"type": "string"
						},
						{
							"internalType": "string",
							"name": "email",
							"type": "string"
						}
					],
					"stateMutability": "view",
					"type": "function"
				}
			],
			"devdoc": {
				"kind": "dev",
				"methods": {},
				"version": 1
			},
			"evm": {
				"assembly": "    /* \"contanct.sol\":57:613  contract Savecontact {... */\n  mstore(0x40, 0x80)\n  callvalue\n  dup1\n  iszero\n  tag_1\n  jumpi\n  revert(0x00, 0x00)\ntag_1:\n  pop\n  dataSize(sub_0)\n  dup1\n  dataOffset(sub_0)\n  0x00\n  codecopy\n  0x00\n  return\nstop\n\nsub_0: assembly {\n        /* \"contanct.sol\":57:613  contract Savecontact {... */\n      mstore(0x40, 0x80)\n      callvalue\n      dup1\n      iszero\n      tag_1\n      jumpi\n      revert(0x00, 0x00)\n    tag_1:\n      pop\n      jumpi(tag_2, lt(calldatasize, 0x04))\n      shr(0xe0, calldataload(0x00))\n      dup1\n      0x37f0f282\n      eq\n      tag_3\n      jumpi\n      dup1\n      0x51d70bc4\n      eq\n      tag_4\n      jumpi\n      dup1\n      0x59ae069b\n      eq\n      tag_5\n      jumpi\n    tag_2:\n      revert(0x00, 0x00)\n        /* \"contanct.sol\":215:264  mapping(string => UserInfo) public userInfoByName */\n    tag_3:\n      tag_6\n      0x04\n      dup1\n      calldatasize\n      sub\n      dup2\n      add\n      swap1\n      tag_7\n      swap2\n      swap1\n      tag_8\n      jump\t// in\n    tag_7:\n      tag_9\n      jump\t// in\n    tag_6:\n      mload(0x40)\n      tag_10\n      swap4\n      swap3\n      swap2\n      swap1\n      tag_11\n      jump\t// in\n    tag_10:\n      mload(0x40)\n      dup1\n      swap2\n      sub\n      swap1\n      return\n        /* \"contanct.sol\":186:212  UserInfo[] public userInfo */\n    tag_4:\n      tag_12\n      0x04\n      dup1\n      calldatasize\n      sub\n      dup2\n      add\n      swap1\n      tag_13\n      swap2\n      swap1\n      tag_14\n      jump\t// in\n    tag_13:\n      tag_15\n      jump\t// in\n    tag_12:\n      mload(0x40)\n      tag_16\n      swap4\n      swap3\n      swap2\n      swap1\n      tag_11\n      jump\t// in\n    tag_16:\n      mload(0x40)\n      dup1\n      swap2\n      sub\n      swap1\n      return\n        /* \"contanct.sol\":271:611  function createUser(... */\n    tag_5:\n      tag_17\n      0x04\n      dup1\n      calldatasize\n      sub\n      dup2\n      add\n      swap1\n      tag_18\n      swap2\n      swap1\n      tag_19\n      jump\t// in\n    tag_18:\n      tag_20\n      jump\t// in\n    tag_17:\n      stop\n        /* \"contanct.sol\":215:264  mapping(string => UserInfo) public userInfoByName */\n    tag_9:\n      0x01\n      dup2\n      dup1\n      mload\n      0x20\n      dup2\n      add\n      dup3\n      add\n      dup1\n      mload\n      dup5\n      dup3\n      mstore\n      0x20\n      dup4\n      add\n      0x20\n      dup6\n      add\n      keccak256\n      dup2\n      dup4\n      mstore\n      dup1\n      swap6\n      pop\n      pop\n      pop\n      pop\n      pop\n      pop\n      0x00\n      swap2\n      pop\n      swap1\n      pop\n      dup1\n      0x00\n      add\n      dup1\n      sload\n      tag_21\n      swap1\n      tag_22\n      jump\t// in\n    tag_21:\n      dup1\n      0x1f\n      add\n      0x20\n      dup1\n      swap2\n      div\n      mul\n      0x20\n      add\n      mload(0x40)\n      swap1\n      dup2\n      add\n      0x40\n      mstore\n      dup1\n      swap3\n      swap2\n      swap1\n      dup2\n      dup2\n      mstore\n      0x20\n      add\n      dup3\n      dup1\n      sload\n      tag_23\n      swap1\n      tag_22\n      jump\t// in\n    tag_23:\n      dup1\n      iszero\n      tag_24\n      jumpi\n      dup1\n      0x1f\n      lt\n      tag_25\n      jumpi\n      0x0100\n      dup1\n      dup4\n      sload\n      div\n      mul\n      dup4\n      mstore\n      swap2\n      0x20\n      add\n      swap2\n      jump(tag_24)\n    tag_25:\n      dup3\n      add\n      swap2\n      swap1\n      0x00\n      mstore\n      keccak256(0x00, 0x20)\n      swap1\n    tag_26:\n      dup2\n      sload\n      dup2\n      mstore\n      swap1\n      0x01\n      add\n      swap1\n      0x20\n      add\n      dup1\n      dup4\n      gt\n      tag_26\n      jumpi\n      dup3\n      swap1\n      sub\n      0x1f\n      and\n      dup3\n      add\n      swap2\n    tag_24:\n      pop\n      pop\n      pop\n      pop\n      pop\n      swap1\n      dup1\n      0x01\n      add\n      dup1\n      sload\n      tag_27\n      swap1\n      tag_22\n      jump\t// in\n    tag_27:\n      dup1\n      0x1f\n      add\n      0x20\n      dup1\n      swap2\n      div\n      mul\n      0x20\n      add\n      mload(0x40)\n      swap1\n      dup2\n      add\n      0x40\n      mstore\n      dup1\n      swap3\n      swap2\n      swap1\n      dup2\n      dup2\n      mstore\n      0x20\n      add\n      dup3\n      dup1\n      sload\n      tag_28\n      swap1\n      tag_22\n      jump\t// in\n    tag_28:\n      dup1\n      iszero\n      tag_29\n      jumpi\n      dup1\n      0x1f\n      lt\n      tag_30\n      jumpi\n      0x0100\n      dup1\n      dup4\n      sload\n      div\n      mul\n      dup4\n      mstore\n      swap2\n      0x20\n      add\n      swap2\n      jump(tag_29)\n    tag_30:\n      dup3\n      add\n      swap2\n      swap1\n      0x00\n      mstore\n      keccak256(0x00, 0x20)\n      swap1\n    tag_31:\n      dup2\n      sload\n      dup2\n      mstore\n      swap1\n      0x01\n      add\n      swap1\n      0x20\n      add\n      dup1\n      dup4\n      gt\n      tag_31\n      jumpi\n      dup3\n      swap1\n      sub\n      0x1f\n      and\n      dup3\n      add\n      swap2\n    tag_29:\n      pop\n      pop\n      pop\n      pop\n      pop\n      swap1\n      dup1\n      0x02\n      add\n      dup1\n      sload\n      tag_32\n      swap1\n      tag_22\n      jump\t// in\n    tag_32:\n      dup1\n      0x1f\n      add\n      0x20\n      dup1\n      swap2\n      div\n      mul\n      0x20\n      add\n      mload(0x40)\n      swap1\n      dup2\n      add\n      0x40\n      mstore\n      dup1\n      swap3\n      swap2\n      swap1\n      dup2\n      dup2\n      mstore\n      0x20\n      add\n      dup3\n      dup1\n      sload\n      tag_33\n      swap1\n      tag_22\n      jump\t// in\n    tag_33:\n      dup1\n      iszero\n      tag_34\n      jumpi\n      dup1\n      0x1f\n      lt\n      tag_35\n      jumpi\n      0x0100\n      dup1\n      dup4\n      sload\n      div\n      mul\n      dup4\n      mstore\n      swap2\n      0x20\n      add\n      swap2\n      jump(tag_34)\n    tag_35:\n      dup3\n      add\n      swap2\n      swap1\n      0x00\n      mstore\n      keccak256(0x00, 0x20)\n      swap1\n    tag_36:\n      dup2\n      sload\n      dup2\n      mstore\n      swap1\n      0x01\n      add\n      swap1\n      0x20\n      add\n      dup1\n      dup4\n      gt\n      tag_36\n      jumpi\n      dup3\n      swap1\n      sub\n      0x1f\n      and\n      dup3\n      add\n      swap2\n    tag_34:\n      pop\n      pop\n      pop\n      pop\n      pop\n      swap1\n      pop\n      dup4\n      jump\t// out\n        /* \"contanct.sol\":186:212  UserInfo[] public userInfo */\n    tag_15:\n      0x00\n      dup2\n      dup2\n      sload\n      dup2\n      lt\n      tag_37\n      jumpi\n      0x00\n      dup1\n      revert\n    tag_37:\n      swap1\n      0x00\n      mstore\n      keccak256(0x00, 0x20)\n      swap1\n      0x03\n      mul\n      add\n      0x00\n      swap2\n      pop\n      swap1\n      pop\n      dup1\n      0x00\n      add\n      dup1\n      sload\n      tag_39\n      swap1\n      tag_22\n      jump\t// in\n    tag_39:\n      dup1\n      0x1f\n      add\n      0x20\n      dup1\n      swap2\n      div\n      mul\n      0x20\n      add\n      mload(0x40)\n      swap1\n      dup2\n      add\n      0x40\n      mstore\n      dup1\n      swap3\n      swap2\n      swap1\n      dup2\n      dup2\n      mstore\n      0x20\n      add\n      dup3\n      dup1\n      sload\n      tag_40\n      swap1\n      tag_22\n      jump\t// in\n    tag_40:\n      dup1\n      iszero\n      tag_41\n      jumpi\n      dup1\n      0x1f\n      lt\n      tag_42\n      jumpi\n      0x0100\n      dup1\n      dup4\n      sload\n      div\n      mul\n      dup4\n      mstore\n      swap2\n      0x20\n      add\n      swap2\n      jump(tag_41)\n    tag_42:\n      dup3\n      add\n      swap2\n      swap1\n      0x00\n      mstore\n      keccak256(0x00, 0x20)\n      swap1\n    tag_43:\n      dup2\n      sload\n      dup2\n      mstore\n      swap1\n      0x01\n      add\n      swap1\n      0x20\n      add\n      dup1\n      dup4\n      gt\n      tag_43\n      jumpi\n      dup3\n      swap1\n      sub\n      0x1f\n      and\n      dup3\n      add\n      swap2\n    tag_41:\n      pop\n      pop\n      pop\n      pop\n      pop\n      swap1\n      dup1\n      0x01\n      add\n      dup1\n      sload\n      tag_44\n      swap1\n      tag_22\n      jump\t// in\n    tag_44:\n      dup1\n      0x1f\n      add\n      0x20\n      dup1\n      swap2\n      div\n      mul\n      0x20\n      add\n      mload(0x40)\n      swap1\n      dup2\n      add\n      0x40\n      mstore\n      dup1\n      swap3\n      swap2\n      swap1\n      dup2\n      dup2\n      mstore\n      0x20\n      add\n      dup3\n      dup1\n      sload\n      tag_45\n      swap1\n      tag_22\n      jump\t// in\n    tag_45:\n      dup1\n      iszero\n      tag_46\n      jumpi\n      dup1\n      0x1f\n      lt\n      tag_47\n      jumpi\n      0x0100\n      dup1\n      dup4\n      sload\n      div\n      mul\n      dup4\n      mstore\n      swap2\n      0x20\n      add\n      swap2\n      jump(tag_46)\n    tag_47:\n      dup3\n      add\n      swap2\n      swap1\n      0x00\n      mstore\n      keccak256(0x00, 0x20)\n      swap1\n    tag_48:\n      dup2\n      sload\n      dup2\n      mstore\n      swap1\n      0x01\n      add\n      swap1\n      0x20\n      add\n      dup1\n      dup4\n      gt\n      tag_48\n      jumpi\n      dup3\n      swap1\n      sub\n      0x1f\n      and\n      dup3\n      add\n      swap2\n    tag_46:\n      pop\n      pop\n      pop\n      pop\n      pop\n      swap1\n      dup1\n      0x02\n      add\n      dup1\n      sload\n      tag_49\n      swap1\n      tag_22\n      jump\t// in\n    tag_49:\n      dup1\n      0x1f\n      add\n      0x20\n      dup1\n      swap2\n      div\n      mul\n      0x20\n      add\n      mload(0x40)\n      swap1\n      dup2\n      add\n      0x40\n      mstore\n      dup1\n      swap3\n      swap2\n      swap1\n      dup2\n      dup2\n      mstore\n      0x20\n      add\n      dup3\n      dup1\n      sload\n      tag_50\n      swap1\n      tag_22\n      jump\t// in\n    tag_50:\n      dup1\n      iszero\n      tag_51\n      jumpi\n      dup1\n      0x1f\n      lt\n      tag_52\n      jumpi\n      0x0100\n      dup1\n      dup4\n      sload\n      div\n      mul\n      dup4\n      mstore\n      swap2\n      0x20\n      add\n      swap2\n      jump(tag_51)\n    tag_52:\n      dup3\n      add\n      swap2\n      swap1\n      0x00\n      mstore\n      keccak256(0x00, 0x20)\n      swap1\n    tag_53:\n      dup2\n      sload\n      dup2\n      mstore\n      swap1\n      0x01\n      add\n      swap1\n      0x20\n      add\n      dup1\n      dup4\n      gt\n      tag_53\n      jumpi\n      dup3\n      swap1\n      sub\n      0x1f\n      and\n      dup3\n      add\n      swap2\n    tag_51:\n      pop\n      pop\n      pop\n      pop\n      pop\n      swap1\n      pop\n      dup4\n      jump\t// out\n        /* \"contanct.sol\":271:611  function createUser(... */\n    tag_20:\n        /* \"contanct.sol\":411:431  UserInfo memory user */\n      0x00\n        /* \"contanct.sol\":434:535  UserInfo({... */\n      mload(0x40)\n      dup1\n      0x60\n      add\n      0x40\n      mstore\n      dup1\n        /* \"contanct.sol\":463:468  _name */\n      dup6\n        /* \"contanct.sol\":434:535  UserInfo({... */\n      dup2\n      mstore\n      0x20\n      add\n        /* \"contanct.sol\":490:497  _number */\n      dup5\n        /* \"contanct.sol\":434:535  UserInfo({... */\n      dup2\n      mstore\n      0x20\n      add\n        /* \"contanct.sol\":518:524  _email */\n      dup4\n        /* \"contanct.sol\":434:535  UserInfo({... */\n      dup2\n      mstore\n      pop\n        /* \"contanct.sol\":411:535  UserInfo memory user = UserInfo({... */\n      swap1\n      pop\n        /* \"contanct.sol\":546:554  userInfo */\n      0x00\n        /* \"contanct.sol\":560:564  user */\n      dup2\n        /* \"contanct.sol\":546:565  userInfo.push(user) */\n      swap1\n      dup1\n      0x01\n      dup2\n      sload\n      add\n      dup1\n      dup3\n      sstore\n      dup1\n      swap2\n      pop\n      pop\n      0x01\n      swap1\n      sub\n      swap1\n      0x00\n      mstore\n      keccak256(0x00, 0x20)\n      swap1\n      0x03\n      mul\n      add\n      0x00\n      swap1\n      swap2\n      swap1\n      swap2\n      swap1\n      swap2\n      pop\n      0x00\n      dup3\n      add\n      mload\n      dup2\n      0x00\n      add\n      swap1\n      dup2\n      tag_56\n      swap2\n      swap1\n      tag_57\n      jump\t// in\n    tag_56:\n      pop\n      0x20\n      dup3\n      add\n      mload\n      dup2\n      0x01\n      add\n      swap1\n      dup2\n      tag_58\n      swap2\n      swap1\n      tag_57\n      jump\t// in\n    tag_58:\n      pop\n      0x40\n      dup3\n      add\n      mload\n      dup2\n      0x02\n      add\n      swap1\n      dup2\n      tag_59\n      swap2\n      swap1\n      tag_57\n      jump\t// in\n    tag_59:\n      pop\n      pop\n      pop\n        /* \"contanct.sol\":599:603  user */\n      dup1\n        /* \"contanct.sol\":575:589  userInfoByName */\n      0x01\n        /* \"contanct.sol\":590:595  _name */\n      dup6\n        /* \"contanct.sol\":575:596  userInfoByName[_name] */\n      mload(0x40)\n      tag_60\n      swap2\n      swap1\n      tag_61\n      jump\t// in\n    tag_60:\n      swap1\n      dup2\n      mstore\n      0x20\n      add\n      mload(0x40)\n      dup1\n      swap2\n      sub\n      swap1\n      keccak256\n        /* \"contanct.sol\":575:603  userInfoByName[_name] = user */\n      0x00\n      dup3\n      add\n      mload\n      dup2\n      0x00\n      add\n      swap1\n      dup2\n      tag_62\n      swap2\n      swap1\n      tag_57\n      jump\t// in\n    tag_62:\n      pop\n      0x20\n      dup3\n      add\n      mload\n      dup2\n      0x01\n      add\n      swap1\n      dup2\n      tag_63\n      swap2\n      swap1\n      tag_57\n      jump\t// in\n    tag_63:\n      pop\n      0x40\n      dup3\n      add\n      mload\n      dup2\n      0x02\n      add\n      swap1\n      dup2\n      tag_64\n      swap2\n      swap1\n      tag_57\n      jump\t// in\n    tag_64:\n      pop\n      swap1\n      pop\n      pop\n        /* \"contanct.sol\":401:611  {... */\n      pop\n        /* \"contanct.sol\":271:611  function createUser(... */\n      pop\n      pop\n      pop\n      jump\t// out\n        /* \"#utility.yul\":7:82   */\n    tag_65:\n        /* \"#utility.yul\":40:46   */\n      0x00\n        /* \"#utility.yul\":73:75   */\n      0x40\n        /* \"#utility.yul\":67:76   */\n      mload\n        /* \"#utility.yul\":57:76   */\n      swap1\n      pop\n        /* \"#utility.yul\":7:82   */\n      swap1\n      jump\t// out\n        /* \"#utility.yul\":88:205   */\n    tag_66:\n        /* \"#utility.yul\":197:198   */\n      0x00\n        /* \"#utility.yul\":194:195   */\n      0x00\n        /* \"#utility.yul\":187:199   */\n      revert\n        /* \"#utility.yul\":211:328   */\n    tag_67:\n        /* \"#utility.yul\":320:321   */\n      0x00\n        /* \"#utility.yul\":317:318   */\n      0x00\n        /* \"#utility.yul\":310:322   */\n      revert\n        /* \"#utility.yul\":334:451   */\n    tag_68:\n        /* \"#utility.yul\":443:444   */\n      0x00\n        /* \"#utility.yul\":440:441   */\n      0x00\n        /* \"#utility.yul\":433:445   */\n      revert\n        /* \"#utility.yul\":457:574   */\n    tag_69:\n        /* \"#utility.yul\":566:567   */\n      0x00\n        /* \"#utility.yul\":563:564   */\n      0x00\n        /* \"#utility.yul\":556:568   */\n      revert\n        /* \"#utility.yul\":580:682   */\n    tag_70:\n        /* \"#utility.yul\":621:627   */\n      0x00\n        /* \"#utility.yul\":672:674   */\n      0x1f\n        /* \"#utility.yul\":668:675   */\n      not\n        /* \"#utility.yul\":663:665   */\n      0x1f\n        /* \"#utility.yul\":656:661   */\n      dup4\n        /* \"#utility.yul\":652:666   */\n      add\n        /* \"#utility.yul\":648:676   */\n      and\n        /* \"#utility.yul\":638:676   */\n      swap1\n      pop\n        /* \"#utility.yul\":580:682   */\n      swap2\n      swap1\n      pop\n      jump\t// out\n        /* \"#utility.yul\":688:868   */\n    tag_71:\n        /* \"#utility.yul\":736:813   */\n      0x4e487b7100000000000000000000000000000000000000000000000000000000\n        /* \"#utility.yul\":733:734   */\n      0x00\n        /* \"#utility.yul\":726:814   */\n      mstore\n        /* \"#utility.yul\":833:837   */\n      0x41\n        /* \"#utility.yul\":830:831   */\n      0x04\n        /* \"#utility.yul\":823:838   */\n      mstore\n        /* \"#utility.yul\":857:861   */\n      0x24\n        /* \"#utility.yul\":854:855   */\n      0x00\n        /* \"#utility.yul\":847:862   */\n      revert\n        /* \"#utility.yul\":874:1155   */\n    tag_72:\n        /* \"#utility.yul\":957:984   */\n      tag_112\n        /* \"#utility.yul\":979:983   */\n      dup3\n        /* \"#utility.yul\":957:984   */\n      tag_70\n      jump\t// in\n    tag_112:\n        /* \"#utility.yul\":949:955   */\n      dup2\n        /* \"#utility.yul\":945:985   */\n      add\n        /* \"#utility.yul\":1087:1093   */\n      dup2\n        /* \"#utility.yul\":1075:1085   */\n      dup2\n        /* \"#utility.yul\":1072:1094   */\n      lt\n        /* \"#utility.yul\":1051:1069   */\n      0xffffffffffffffff\n        /* \"#utility.yul\":1039:1049   */\n      dup3\n        /* \"#utility.yul\":1036:1070   */\n      gt\n        /* \"#utility.yul\":1033:1095   */\n      or\n        /* \"#utility.yul\":1030:1118   */\n      iszero\n      tag_113\n      jumpi\n        /* \"#utility.yul\":1098:1116   */\n      tag_114\n      tag_71\n      jump\t// in\n    tag_114:\n        /* \"#utility.yul\":1030:1118   */\n    tag_113:\n        /* \"#utility.yul\":1138:1148   */\n      dup1\n        /* \"#utility.yul\":1134:1136   */\n      0x40\n        /* \"#utility.yul\":1127:1149   */\n      mstore\n        /* \"#utility.yul\":917:1155   */\n      pop\n        /* \"#utility.yul\":874:1155   */\n      pop\n      pop\n      jump\t// out\n        /* \"#utility.yul\":1161:1290   */\n    tag_73:\n        /* \"#utility.yul\":1195:1201   */\n      0x00\n        /* \"#utility.yul\":1222:1242   */\n      tag_116\n      tag_65\n      jump\t// in\n    tag_116:\n        /* \"#utility.yul\":1212:1242   */\n      swap1\n      pop\n        /* \"#utility.yul\":1251:1284   */\n      tag_117\n        /* \"#utility.yul\":1279:1283   */\n      dup3\n        /* \"#utility.yul\":1271:1277   */\n      dup3\n        /* \"#utility.yul\":1251:1284   */\n      tag_72\n      jump\t// in\n    tag_117:\n        /* \"#utility.yul\":1161:1290   */\n      swap2\n      swap1\n      pop\n      jump\t// out\n        /* \"#utility.yul\":1296:1604   */\n    tag_74:\n        /* \"#utility.yul\":1358:1362   */\n      0x00\n        /* \"#utility.yul\":1448:1466   */\n      0xffffffffffffffff\n        /* \"#utility.yul\":1440:1446   */\n      dup3\n        /* \"#utility.yul\":1437:1467   */\n      gt\n        /* \"#utility.yul\":1434:1490   */\n      iszero\n      tag_119\n      jumpi\n        /* \"#utility.yul\":1470:1488   */\n      tag_120\n      tag_71\n      jump\t// in\n    tag_120:\n        /* \"#utility.yul\":1434:1490   */\n    tag_119:\n        /* \"#utility.yul\":1508:1537   */\n      tag_121\n        /* \"#utility.yul\":1530:1536   */\n      dup3\n        /* \"#utility.yul\":1508:1537   */\n      tag_70\n      jump\t// in\n    tag_121:\n        /* \"#utility.yul\":1500:1537   */\n      swap1\n      pop\n        /* \"#utility.yul\":1592:1596   */\n      0x20\n        /* \"#utility.yul\":1586:1590   */\n      dup2\n        /* \"#utility.yul\":1582:1597   */\n      add\n        /* \"#utility.yul\":1574:1597   */\n      swap1\n      pop\n        /* \"#utility.yul\":1296:1604   */\n      swap2\n      swap1\n      pop\n      jump\t// out\n        /* \"#utility.yul\":1610:1758   */\n    tag_75:\n        /* \"#utility.yul\":1708:1714   */\n      dup3\n        /* \"#utility.yul\":1703:1706   */\n      dup2\n        /* \"#utility.yul\":1698:1701   */\n      dup4\n        /* \"#utility.yul\":1685:1715   */\n      calldatacopy\n        /* \"#utility.yul\":1749:1750   */\n      0x00\n        /* \"#utility.yul\":1740:1746   */\n      dup4\n        /* \"#utility.yul\":1735:1738   */\n      dup4\n        /* \"#utility.yul\":1731:1747   */\n      add\n        /* \"#utility.yul\":1724:1751   */\n      mstore\n        /* \"#utility.yul\":1610:1758   */\n      pop\n      pop\n      pop\n      jump\t// out\n        /* \"#utility.yul\":1764:2189   */\n    tag_76:\n        /* \"#utility.yul\":1842:1847   */\n      0x00\n        /* \"#utility.yul\":1867:1933   */\n      tag_124\n        /* \"#utility.yul\":1883:1932   */\n      tag_125\n        /* \"#utility.yul\":1925:1931   */\n      dup5\n        /* \"#utility.yul\":1883:1932   */\n      tag_74\n      jump\t// in\n    tag_125:\n        /* \"#utility.yul\":1867:1933   */\n      tag_73\n      jump\t// in\n    tag_124:\n        /* \"#utility.yul\":1858:1933   */\n      swap1\n      pop\n        /* \"#utility.yul\":1956:1962   */\n      dup3\n        /* \"#utility.yul\":1949:1954   */\n      dup2\n        /* \"#utility.yul\":1942:1963   */\n      mstore\n        /* \"#utility.yul\":1994:1998   */\n      0x20\n        /* \"#utility.yul\":1987:1992   */\n      dup2\n        /* \"#utility.yul\":1983:1999   */\n      add\n        /* \"#utility.yul\":2032:2035   */\n      dup5\n        /* \"#utility.yul\":2023:2029   */\n      dup5\n        /* \"#utility.yul\":2018:2021   */\n      dup5\n        /* \"#utility.yul\":2014:2030   */\n      add\n        /* \"#utility.yul\":2011:2036   */\n      gt\n        /* \"#utility.yul\":2008:2120   */\n      iszero\n      tag_126\n      jumpi\n        /* \"#utility.yul\":2039:2118   */\n      tag_127\n      tag_69\n      jump\t// in\n    tag_127:\n        /* \"#utility.yul\":2008:2120   */\n    tag_126:\n        /* \"#utility.yul\":2129:2183   */\n      tag_128\n        /* \"#utility.yul\":2176:2182   */\n      dup5\n        /* \"#utility.yul\":2171:2174   */\n      dup3\n        /* \"#utility.yul\":2166:2169   */\n      dup6\n        /* \"#utility.yul\":2129:2183   */\n      tag_75\n      jump\t// in\n    tag_128:\n        /* \"#utility.yul\":1848:2189   */\n      pop\n        /* \"#utility.yul\":1764:2189   */\n      swap4\n      swap3\n      pop\n      pop\n      pop\n      jump\t// out\n        /* \"#utility.yul\":2209:2549   */\n    tag_77:\n        /* \"#utility.yul\":2265:2270   */\n      0x00\n        /* \"#utility.yul\":2314:2317   */\n      dup3\n        /* \"#utility.yul\":2307:2311   */\n      0x1f\n        /* \"#utility.yul\":2299:2305   */\n      dup4\n        /* \"#utility.yul\":2295:2312   */\n      add\n        /* \"#utility.yul\":2291:2318   */\n      slt\n        /* \"#utility.yul\":2281:2403   */\n      tag_130\n      jumpi\n        /* \"#utility.yul\":2322:2401   */\n      tag_131\n      tag_68\n      jump\t// in\n    tag_131:\n        /* \"#utility.yul\":2281:2403   */\n    tag_130:\n        /* \"#utility.yul\":2439:2445   */\n      dup2\n        /* \"#utility.yul\":2426:2446   */\n      calldataload\n        /* \"#utility.yul\":2464:2543   */\n      tag_132\n        /* \"#utility.yul\":2539:2542   */\n      dup5\n        /* \"#utility.yul\":2531:2537   */\n      dup3\n        /* \"#utility.yul\":2524:2528   */\n      0x20\n        /* \"#utility.yul\":2516:2522   */\n      dup7\n        /* \"#utility.yul\":2512:2529   */\n      add\n        /* \"#utility.yul\":2464:2543   */\n      tag_76\n      jump\t// in\n    tag_132:\n        /* \"#utility.yul\":2455:2543   */\n      swap2\n      pop\n        /* \"#utility.yul\":2271:2549   */\n      pop\n        /* \"#utility.yul\":2209:2549   */\n      swap3\n      swap2\n      pop\n      pop\n      jump\t// out\n        /* \"#utility.yul\":2555:3064   */\n    tag_8:\n        /* \"#utility.yul\":2624:2630   */\n      0x00\n        /* \"#utility.yul\":2673:2675   */\n      0x20\n        /* \"#utility.yul\":2661:2670   */\n      dup3\n        /* \"#utility.yul\":2652:2659   */\n      dup5\n        /* \"#utility.yul\":2648:2671   */\n      sub\n        /* \"#utility.yul\":2644:2676   */\n      slt\n        /* \"#utility.yul\":2641:2760   */\n      iszero\n      tag_134\n      jumpi\n        /* \"#utility.yul\":2679:2758   */\n      tag_135\n      tag_66\n      jump\t// in\n    tag_135:\n        /* \"#utility.yul\":2641:2760   */\n    tag_134:\n        /* \"#utility.yul\":2827:2828   */\n      0x00\n        /* \"#utility.yul\":2816:2825   */\n      dup3\n        /* \"#utility.yul\":2812:2829   */\n      add\n        /* \"#utility.yul\":2799:2830   */\n      calldataload\n        /* \"#utility.yul\":2857:2875   */\n      0xffffffffffffffff\n        /* \"#utility.yul\":2849:2855   */\n      dup2\n        /* \"#utility.yul\":2846:2876   */\n      gt\n        /* \"#utility.yul\":2843:2960   */\n      iszero\n      tag_136\n      jumpi\n        /* \"#utility.yul\":2879:2958   */\n      tag_137\n      tag_67\n      jump\t// in\n    tag_137:\n        /* \"#utility.yul\":2843:2960   */\n    tag_136:\n        /* \"#utility.yul\":2984:3047   */\n      tag_138\n        /* \"#utility.yul\":3039:3046   */\n      dup5\n        /* \"#utility.yul\":3030:3036   */\n      dup3\n        /* \"#utility.yul\":3019:3028   */\n      dup6\n        /* \"#utility.yul\":3015:3037   */\n      add\n        /* \"#utility.yul\":2984:3047   */\n      tag_77\n      jump\t// in\n    tag_138:\n        /* \"#utility.yul\":2974:3047   */\n      swap2\n      pop\n        /* \"#utility.yul\":2770:3057   */\n      pop\n        /* \"#utility.yul\":2555:3064   */\n      swap3\n      swap2\n      pop\n      pop\n      jump\t// out\n        /* \"#utility.yul\":3070:3169   */\n    tag_78:\n        /* \"#utility.yul\":3122:3128   */\n      0x00\n        /* \"#utility.yul\":3156:3161   */\n      dup2\n        /* \"#utility.yul\":3150:3162   */\n      mload\n        /* \"#utility.yul\":3140:3162   */\n      swap1\n      pop\n        /* \"#utility.yul\":3070:3169   */\n      swap2\n      swap1\n      pop\n      jump\t// out\n        /* \"#utility.yul\":3175:3344   */\n    tag_79:\n        /* \"#utility.yul\":3259:3270   */\n      0x00\n        /* \"#utility.yul\":3293:3299   */\n      dup3\n        /* \"#utility.yul\":3288:3291   */\n      dup3\n        /* \"#utility.yul\":3281:3300   */\n      mstore\n        /* \"#utility.yul\":3333:3337   */\n      0x20\n        /* \"#utility.yul\":3328:3331   */\n      dup3\n        /* \"#utility.yul\":3324:3338   */\n      add\n        /* \"#utility.yul\":3309:3338   */\n      swap1\n      pop\n        /* \"#utility.yul\":3175:3344   */\n      swap3\n      swap2\n      pop\n      pop\n      jump\t// out\n        /* \"#utility.yul\":3350:3489   */\n    tag_80:\n        /* \"#utility.yul\":3439:3445   */\n      dup3\n        /* \"#utility.yul\":3434:3437   */\n      dup2\n        /* \"#utility.yul\":3429:3432   */\n      dup4\n        /* \"#utility.yul\":3423:3446   */\n      mcopy\n        /* \"#utility.yul\":3480:3481   */\n      0x00\n        /* \"#utility.yul\":3471:3477   */\n      dup4\n        /* \"#utility.yul\":3466:3469   */\n      dup4\n        /* \"#utility.yul\":3462:3478   */\n      add\n        /* \"#utility.yul\":3455:3482   */\n      mstore\n        /* \"#utility.yul\":3350:3489   */\n      pop\n      pop\n      pop\n      jump\t// out\n        /* \"#utility.yul\":3495:3872   */\n    tag_81:\n        /* \"#utility.yul\":3583:3586   */\n      0x00\n        /* \"#utility.yul\":3611:3650   */\n      tag_143\n        /* \"#utility.yul\":3644:3649   */\n      dup3\n        /* \"#utility.yul\":3611:3650   */\n      tag_78\n      jump\t// in\n    tag_143:\n        /* \"#utility.yul\":3666:3737   */\n      tag_144\n        /* \"#utility.yul\":3730:3736   */\n      dup2\n        /* \"#utility.yul\":3725:3728   */\n      dup6\n        /* \"#utility.yul\":3666:3737   */\n      tag_79\n      jump\t// in\n    tag_144:\n        /* \"#utility.yul\":3659:3737   */\n      swap4\n      pop\n        /* \"#utility.yul\":3746:3811   */\n      tag_145\n        /* \"#utility.yul\":3804:3810   */\n      dup2\n        /* \"#utility.yul\":3799:3802   */\n      dup6\n        /* \"#utility.yul\":3792:3796   */\n      0x20\n        /* \"#utility.yul\":3785:3790   */\n      dup7\n        /* \"#utility.yul\":3781:3797   */\n      add\n        /* \"#utility.yul\":3746:3811   */\n      tag_80\n      jump\t// in\n    tag_145:\n        /* \"#utility.yul\":3836:3865   */\n      tag_146\n        /* \"#utility.yul\":3858:3864   */\n      dup2\n        /* \"#utility.yul\":3836:3865   */\n      tag_70\n      jump\t// in\n    tag_146:\n        /* \"#utility.yul\":3831:3834   */\n      dup5\n        /* \"#utility.yul\":3827:3866   */\n      add\n        /* \"#utility.yul\":3820:3866   */\n      swap2\n      pop\n        /* \"#utility.yul\":3587:3872   */\n      pop\n        /* \"#utility.yul\":3495:3872   */\n      swap3\n      swap2\n      pop\n      pop\n      jump\t// out\n        /* \"#utility.yul\":3878:4593   */\n    tag_11:\n        /* \"#utility.yul\":4087:4091   */\n      0x00\n        /* \"#utility.yul\":4125:4127   */\n      0x60\n        /* \"#utility.yul\":4114:4123   */\n      dup3\n        /* \"#utility.yul\":4110:4128   */\n      add\n        /* \"#utility.yul\":4102:4128   */\n      swap1\n      pop\n        /* \"#utility.yul\":4174:4183   */\n      dup2\n        /* \"#utility.yul\":4168:4172   */\n      dup2\n        /* \"#utility.yul\":4164:4184   */\n      sub\n        /* \"#utility.yul\":4160:4161   */\n      0x00\n        /* \"#utility.yul\":4149:4158   */\n      dup4\n        /* \"#utility.yul\":4145:4162   */\n      add\n        /* \"#utility.yul\":4138:4185   */\n      mstore\n        /* \"#utility.yul\":4202:4280   */\n      tag_148\n        /* \"#utility.yul\":4275:4279   */\n      dup2\n        /* \"#utility.yul\":4266:4272   */\n      dup7\n        /* \"#utility.yul\":4202:4280   */\n      tag_81\n      jump\t// in\n    tag_148:\n        /* \"#utility.yul\":4194:4280   */\n      swap1\n      pop\n        /* \"#utility.yul\":4327:4336   */\n      dup2\n        /* \"#utility.yul\":4321:4325   */\n      dup2\n        /* \"#utility.yul\":4317:4337   */\n      sub\n        /* \"#utility.yul\":4312:4314   */\n      0x20\n        /* \"#utility.yul\":4301:4310   */\n      dup4\n        /* \"#utility.yul\":4297:4315   */\n      add\n        /* \"#utility.yul\":4290:4338   */\n      mstore\n        /* \"#utility.yul\":4355:4433   */\n      tag_149\n        /* \"#utility.yul\":4428:4432   */\n      dup2\n        /* \"#utility.yul\":4419:4425   */\n      dup6\n        /* \"#utility.yul\":4355:4433   */\n      tag_81\n      jump\t// in\n    tag_149:\n        /* \"#utility.yul\":4347:4433   */\n      swap1\n      pop\n        /* \"#utility.yul\":4480:4489   */\n      dup2\n        /* \"#utility.yul\":4474:4478   */\n      dup2\n        /* \"#utility.yul\":4470:4490   */\n      sub\n        /* \"#utility.yul\":4465:4467   */\n      0x40\n        /* \"#utility.yul\":4454:4463   */\n      dup4\n        /* \"#utility.yul\":4450:4468   */\n      add\n        /* \"#utility.yul\":4443:4491   */\n      mstore\n        /* \"#utility.yul\":4508:4586   */\n      tag_150\n        /* \"#utility.yul\":4581:4585   */\n      dup2\n        /* \"#utility.yul\":4572:4578   */\n      dup5\n        /* \"#utility.yul\":4508:4586   */\n      tag_81\n      jump\t// in\n    tag_150:\n        /* \"#utility.yul\":4500:4586   */\n      swap1\n      pop\n        /* \"#utility.yul\":3878:4593   */\n      swap5\n      swap4\n      pop\n      pop\n      pop\n      pop\n      jump\t// out\n        /* \"#utility.yul\":4599:4676   */\n    tag_82:\n        /* \"#utility.yul\":4636:4643   */\n      0x00\n        /* \"#utility.yul\":4665:4670   */\n      dup2\n        /* \"#utility.yul\":4654:4670   */\n      swap1\n      pop\n        /* \"#utility.yul\":4599:4676   */\n      swap2\n      swap1\n      pop\n      jump\t// out\n        /* \"#utility.yul\":4682:4804   */\n    tag_83:\n        /* \"#utility.yul\":4755:4779   */\n      tag_153\n        /* \"#utility.yul\":4773:4778   */\n      dup2\n        /* \"#utility.yul\":4755:4779   */\n      tag_82\n      jump\t// in\n    tag_153:\n        /* \"#utility.yul\":4748:4753   */\n      dup2\n        /* \"#utility.yul\":4745:4780   */\n      eq\n        /* \"#utility.yul\":4735:4798   */\n      tag_154\n      jumpi\n        /* \"#utility.yul\":4794:4795   */\n      0x00\n        /* \"#utility.yul\":4791:4792   */\n      0x00\n        /* \"#utility.yul\":4784:4796   */\n      revert\n        /* \"#utility.yul\":4735:4798   */\n    tag_154:\n        /* \"#utility.yul\":4682:4804   */\n      pop\n      jump\t// out\n        /* \"#utility.yul\":4810:4949   */\n    tag_84:\n        /* \"#utility.yul\":4856:4861   */\n      0x00\n        /* \"#utility.yul\":4894:4900   */\n      dup2\n        /* \"#utility.yul\":4881:4901   */\n      calldataload\n        /* \"#utility.yul\":4872:4901   */\n      swap1\n      pop\n        /* \"#utility.yul\":4910:4943   */\n      tag_156\n        /* \"#utility.yul\":4937:4942   */\n      dup2\n        /* \"#utility.yul\":4910:4943   */\n      tag_83\n      jump\t// in\n    tag_156:\n        /* \"#utility.yul\":4810:4949   */\n      swap3\n      swap2\n      pop\n      pop\n      jump\t// out\n        /* \"#utility.yul\":4955:5284   */\n    tag_14:\n        /* \"#utility.yul\":5014:5020   */\n      0x00\n        /* \"#utility.yul\":5063:5065   */\n      0x20\n        /* \"#utility.yul\":5051:5060   */\n      dup3\n        /* \"#utility.yul\":5042:5049   */\n      dup5\n        /* \"#utility.yul\":5038:5061   */\n      sub\n        /* \"#utility.yul\":5034:5066   */\n      slt\n        /* \"#utility.yul\":5031:5150   */\n      iszero\n      tag_158\n      jumpi\n        /* \"#utility.yul\":5069:5148   */\n      tag_159\n      tag_66\n      jump\t// in\n    tag_159:\n        /* \"#utility.yul\":5031:5150   */\n    tag_158:\n        /* \"#utility.yul\":5189:5190   */\n      0x00\n        /* \"#utility.yul\":5214:5267   */\n      tag_160\n        /* \"#utility.yul\":5259:5266   */\n      dup5\n        /* \"#utility.yul\":5250:5256   */\n      dup3\n        /* \"#utility.yul\":5239:5248   */\n      dup6\n        /* \"#utility.yul\":5235:5257   */\n      add\n        /* \"#utility.yul\":5214:5267   */\n      tag_84\n      jump\t// in\n    tag_160:\n        /* \"#utility.yul\":5204:5267   */\n      swap2\n      pop\n        /* \"#utility.yul\":5160:5277   */\n      pop\n        /* \"#utility.yul\":4955:5284   */\n      swap3\n      swap2\n      pop\n      pop\n      jump\t// out\n        /* \"#utility.yul\":5290:6449   */\n    tag_19:\n        /* \"#utility.yul\":5397:5403   */\n      0x00\n        /* \"#utility.yul\":5405:5411   */\n      0x00\n        /* \"#utility.yul\":5413:5419   */\n      0x00\n        /* \"#utility.yul\":5462:5464   */\n      0x60\n        /* \"#utility.yul\":5450:5459   */\n      dup5\n        /* \"#utility.yul\":5441:5448   */\n      dup7\n        /* \"#utility.yul\":5437:5460   */\n      sub\n        /* \"#utility.yul\":5433:5465   */\n      slt\n        /* \"#utility.yul\":5430:5549   */\n      iszero\n      tag_162\n      jumpi\n        /* \"#utility.yul\":5468:5547   */\n      tag_163\n      tag_66\n      jump\t// in\n    tag_163:\n        /* \"#utility.yul\":5430:5549   */\n    tag_162:\n        /* \"#utility.yul\":5616:5617   */\n      0x00\n        /* \"#utility.yul\":5605:5614   */\n      dup5\n        /* \"#utility.yul\":5601:5618   */\n      add\n        /* \"#utility.yul\":5588:5619   */\n      calldataload\n        /* \"#utility.yul\":5646:5664   */\n      0xffffffffffffffff\n        /* \"#utility.yul\":5638:5644   */\n      dup2\n        /* \"#utility.yul\":5635:5665   */\n      gt\n        /* \"#utility.yul\":5632:5749   */\n      iszero\n      tag_164\n      jumpi\n        /* \"#utility.yul\":5668:5747   */\n      tag_165\n      tag_67\n      jump\t// in\n    tag_165:\n        /* \"#utility.yul\":5632:5749   */\n    tag_164:\n        /* \"#utility.yul\":5773:5836   */\n      tag_166\n        /* \"#utility.yul\":5828:5835   */\n      dup7\n        /* \"#utility.yul\":5819:5825   */\n      dup3\n        /* \"#utility.yul\":5808:5817   */\n      dup8\n        /* \"#utility.yul\":5804:5826   */\n      add\n        /* \"#utility.yul\":5773:5836   */\n      tag_77\n      jump\t// in\n    tag_166:\n        /* \"#utility.yul\":5763:5836   */\n      swap4\n      pop\n        /* \"#utility.yul\":5559:5846   */\n      pop\n        /* \"#utility.yul\":5913:5915   */\n      0x20\n        /* \"#utility.yul\":5902:5911   */\n      dup5\n        /* \"#utility.yul\":5898:5916   */\n      add\n        /* \"#utility.yul\":5885:5917   */\n      calldataload\n        /* \"#utility.yul\":5944:5962   */\n      0xffffffffffffffff\n        /* \"#utility.yul\":5936:5942   */\n      dup2\n        /* \"#utility.yul\":5933:5963   */\n      gt\n        /* \"#utility.yul\":5930:6047   */\n      iszero\n      tag_167\n      jumpi\n        /* \"#utility.yul\":5966:6045   */\n      tag_168\n      tag_67\n      jump\t// in\n    tag_168:\n        /* \"#utility.yul\":5930:6047   */\n    tag_167:\n        /* \"#utility.yul\":6071:6134   */\n      tag_169\n        /* \"#utility.yul\":6126:6133   */\n      dup7\n        /* \"#utility.yul\":6117:6123   */\n      dup3\n        /* \"#utility.yul\":6106:6115   */\n      dup8\n        /* \"#utility.yul\":6102:6124   */\n      add\n        /* \"#utility.yul\":6071:6134   */\n      tag_77\n      jump\t// in\n    tag_169:\n        /* \"#utility.yul\":6061:6134   */\n      swap3\n      pop\n        /* \"#utility.yul\":5856:6144   */\n      pop\n        /* \"#utility.yul\":6211:6213   */\n      0x40\n        /* \"#utility.yul\":6200:6209   */\n      dup5\n        /* \"#utility.yul\":6196:6214   */\n      add\n        /* \"#utility.yul\":6183:6215   */\n      calldataload\n        /* \"#utility.yul\":6242:6260   */\n      0xffffffffffffffff\n        /* \"#utility.yul\":6234:6240   */\n      dup2\n        /* \"#utility.yul\":6231:6261   */\n      gt\n        /* \"#utility.yul\":6228:6345   */\n      iszero\n      tag_170\n      jumpi\n        /* \"#utility.yul\":6264:6343   */\n      tag_171\n      tag_67\n      jump\t// in\n    tag_171:\n        /* \"#utility.yul\":6228:6345   */\n    tag_170:\n        /* \"#utility.yul\":6369:6432   */\n      tag_172\n        /* \"#utility.yul\":6424:6431   */\n      dup7\n        /* \"#utility.yul\":6415:6421   */\n      dup3\n        /* \"#utility.yul\":6404:6413   */\n      dup8\n        /* \"#utility.yul\":6400:6422   */\n      add\n        /* \"#utility.yul\":6369:6432   */\n      tag_77\n      jump\t// in\n    tag_172:\n        /* \"#utility.yul\":6359:6432   */\n      swap2\n      pop\n        /* \"#utility.yul\":6154:6442   */\n      pop\n        /* \"#utility.yul\":5290:6449   */\n      swap3\n      pop\n      swap3\n      pop\n      swap3\n      jump\t// out\n        /* \"#utility.yul\":6455:6635   */\n    tag_85:\n        /* \"#utility.yul\":6503:6580   */\n      0x4e487b7100000000000000000000000000000000000000000000000000000000\n        /* \"#utility.yul\":6500:6501   */\n      0x00\n        /* \"#utility.yul\":6493:6581   */\n      mstore\n        /* \"#utility.yul\":6600:6604   */\n      0x22\n        /* \"#utility.yul\":6597:6598   */\n      0x04\n        /* \"#utility.yul\":6590:6605   */\n      mstore\n        /* \"#utility.yul\":6624:6628   */\n      0x24\n        /* \"#utility.yul\":6621:6622   */\n      0x00\n        /* \"#utility.yul\":6614:6629   */\n      revert\n        /* \"#utility.yul\":6641:6961   */\n    tag_22:\n        /* \"#utility.yul\":6685:6691   */\n      0x00\n        /* \"#utility.yul\":6722:6723   */\n      0x02\n        /* \"#utility.yul\":6716:6720   */\n      dup3\n        /* \"#utility.yul\":6712:6724   */\n      div\n        /* \"#utility.yul\":6702:6724   */\n      swap1\n      pop\n        /* \"#utility.yul\":6769:6770   */\n      0x01\n        /* \"#utility.yul\":6763:6767   */\n      dup3\n        /* \"#utility.yul\":6759:6771   */\n      and\n        /* \"#utility.yul\":6790:6808   */\n      dup1\n        /* \"#utility.yul\":6780:6861   */\n      tag_175\n      jumpi\n        /* \"#utility.yul\":6846:6850   */\n      0x7f\n        /* \"#utility.yul\":6838:6844   */\n      dup3\n        /* \"#utility.yul\":6834:6851   */\n      and\n        /* \"#utility.yul\":6824:6851   */\n      swap2\n      pop\n        /* \"#utility.yul\":6780:6861   */\n    tag_175:\n        /* \"#utility.yul\":6908:6910   */\n      0x20\n        /* \"#utility.yul\":6900:6906   */\n      dup3\n        /* \"#utility.yul\":6897:6911   */\n      lt\n        /* \"#utility.yul\":6877:6895   */\n      dup2\n        /* \"#utility.yul\":6874:6912   */\n      sub\n        /* \"#utility.yul\":6871:6955   */\n      tag_176\n      jumpi\n        /* \"#utility.yul\":6927:6945   */\n      tag_177\n      tag_85\n      jump\t// in\n    tag_177:\n        /* \"#utility.yul\":6871:6955   */\n    tag_176:\n        /* \"#utility.yul\":6692:6961   */\n      pop\n        /* \"#utility.yul\":6641:6961   */\n      swap2\n      swap1\n      pop\n      jump\t// out\n        /* \"#utility.yul\":6967:7108   */\n    tag_86:\n        /* \"#utility.yul\":7016:7020   */\n      0x00\n        /* \"#utility.yul\":7039:7042   */\n      dup2\n        /* \"#utility.yul\":7031:7042   */\n      swap1\n      pop\n        /* \"#utility.yul\":7062:7065   */\n      dup2\n        /* \"#utility.yul\":7059:7060   */\n      0x00\n        /* \"#utility.yul\":7052:7066   */\n      mstore\n        /* \"#utility.yul\":7096:7100   */\n      0x20\n        /* \"#utility.yul\":7093:7094   */\n      0x00\n        /* \"#utility.yul\":7083:7101   */\n      keccak256\n        /* \"#utility.yul\":7075:7101   */\n      swap1\n      pop\n        /* \"#utility.yul\":6967:7108   */\n      swap2\n      swap1\n      pop\n      jump\t// out\n        /* \"#utility.yul\":7114:7207   */\n    tag_87:\n        /* \"#utility.yul\":7151:7157   */\n      0x00\n        /* \"#utility.yul\":7198:7200   */\n      0x20\n        /* \"#utility.yul\":7193:7195   */\n      0x1f\n        /* \"#utility.yul\":7186:7191   */\n      dup4\n        /* \"#utility.yul\":7182:7196   */\n      add\n        /* \"#utility.yul\":7178:7201   */\n      div\n        /* \"#utility.yul\":7168:7201   */\n      swap1\n      pop\n        /* \"#utility.yul\":7114:7207   */\n      swap2\n      swap1\n      pop\n      jump\t// out\n        /* \"#utility.yul\":7213:7320   */\n    tag_88:\n        /* \"#utility.yul\":7257:7265   */\n      0x00\n        /* \"#utility.yul\":7307:7312   */\n      dup3\n        /* \"#utility.yul\":7301:7305   */\n      dup3\n        /* \"#utility.yul\":7297:7313   */\n      shl\n        /* \"#utility.yul\":7276:7313   */\n      swap1\n      pop\n        /* \"#utility.yul\":7213:7320   */\n      swap3\n      swap2\n      pop\n      pop\n      jump\t// out\n        /* \"#utility.yul\":7326:7719   */\n    tag_89:\n        /* \"#utility.yul\":7395:7401   */\n      0x00\n        /* \"#utility.yul\":7445:7446   */\n      0x08\n        /* \"#utility.yul\":7433:7443   */\n      dup4\n        /* \"#utility.yul\":7429:7447   */\n      mul\n        /* \"#utility.yul\":7468:7565   */\n      tag_182\n        /* \"#utility.yul\":7498:7564   */\n      0xffffffffffffffffffffffffffffffffffffffffffffffffffffffffffffffff\n        /* \"#utility.yul\":7487:7496   */\n      dup3\n        /* \"#utility.yul\":7468:7565   */\n      tag_88\n      jump\t// in\n    tag_182:\n        /* \"#utility.yul\":7586:7625   */\n      tag_183\n        /* \"#utility.yul\":7616:7624   */\n      dup7\n        /* \"#utility.yul\":7605:7614   */\n      dup4\n        /* \"#utility.yul\":7586:7625   */\n      tag_88\n      jump\t// in\n    tag_183:\n        /* \"#utility.yul\":7574:7625   */\n      swap6\n      pop\n        /* \"#utility.yul\":7658:7662   */\n      dup1\n        /* \"#utility.yul\":7654:7663   */\n      not\n        /* \"#utility.yul\":7647:7652   */\n      dup5\n        /* \"#utility.yul\":7643:7664   */\n      and\n        /* \"#utility.yul\":7634:7664   */\n      swap4\n      pop\n        /* \"#utility.yul\":7707:7711   */\n      dup1\n        /* \"#utility.yul\":7697:7705   */\n      dup7\n        /* \"#utility.yul\":7693:7712   */\n      and\n        /* \"#utility.yul\":7686:7691   */\n      dup5\n        /* \"#utility.yul\":7683:7713   */\n      or\n        /* \"#utility.yul\":7673:7713   */\n      swap3\n      pop\n        /* \"#utility.yul\":7402:7719   */\n      pop\n      pop\n        /* \"#utility.yul\":7326:7719   */\n      swap4\n      swap3\n      pop\n      pop\n      pop\n      jump\t// out\n        /* \"#utility.yul\":7725:7785   */\n    tag_90:\n        /* \"#utility.yul\":7753:7756   */\n      0x00\n        /* \"#utility.yul\":7774:7779   */\n      dup2\n        /* \"#utility.yul\":7767:7779   */\n      swap1\n      pop\n        /* \"#utility.yul\":7725:7785   */\n      swap2\n      swap1\n      pop\n      jump\t// out\n        /* \"#utility.yul\":7791:7933   */\n    tag_91:\n        /* \"#utility.yul\":7841:7850   */\n      0x00\n        /* \"#utility.yul\":7874:7927   */\n      tag_186\n        /* \"#utility.yul\":7892:7926   */\n      tag_187\n        /* \"#utility.yul\":7901:7925   */\n      tag_188\n        /* \"#utility.yul\":7919:7924   */\n      dup5\n        /* \"#utility.yul\":7901:7925   */\n      tag_82\n      jump\t// in\n    tag_188:\n        /* \"#utility.yul\":7892:7926   */\n      tag_90\n      jump\t// in\n    tag_187:\n        /* \"#utility.yul\":7874:7927   */\n      tag_82\n      jump\t// in\n    tag_186:\n        /* \"#utility.yul\":7861:7927   */\n      swap1\n      pop\n        /* \"#utility.yul\":7791:7933   */\n      swap2\n      swap1\n      pop\n      jump\t// out\n        /* \"#utility.yul\":7939:8014   */\n    tag_92:\n        /* \"#utility.yul\":7982:7985   */\n      0x00\n        /* \"#utility.yul\":8003:8008   */\n      dup2\n        /* \"#utility.yul\":7996:8008   */\n      swap1\n      pop\n        /* \"#utility.yul\":7939:8014   */\n      swap2\n      swap1\n      pop\n      jump\t// out\n        /* \"#utility.yul\":8020:8289   */\n    tag_93:\n        /* \"#utility.yul\":8130:8169   */\n      tag_191\n        /* \"#utility.yul\":8161:8168   */\n      dup4\n        /* \"#utility.yul\":8130:8169   */\n      tag_91\n      jump\t// in\n    tag_191:\n        /* \"#utility.yul\":8191:8282   */\n      tag_192\n        /* \"#utility.yul\":8240:8281   */\n      tag_193\n        /* \"#utility.yul\":8264:8280   */\n      dup3\n        /* \"#utility.yul\":8240:8281   */\n      tag_92\n      jump\t// in\n    tag_193:\n        /* \"#utility.yul\":8232:8238   */\n      dup5\n        /* \"#utility.yul\":8225:8229   */\n      dup5\n        /* \"#utility.yul\":8219:8230   */\n      sload\n        /* \"#utility.yul\":8191:8282   */\n      tag_89\n      jump\t// in\n    tag_192:\n        /* \"#utility.yul\":8185:8189   */\n      dup3\n        /* \"#utility.yul\":8178:8283   */\n      sstore\n        /* \"#utility.yul\":8096:8289   */\n      pop\n        /* \"#utility.yul\":8020:8289   */\n      pop\n      pop\n      pop\n      jump\t// out\n        /* \"#utility.yul\":8295:8368   */\n    tag_94:\n        /* \"#utility.yul\":8340:8343   */\n      0x00\n        /* \"#utility.yul\":8361:8362   */\n      0x00\n        /* \"#utility.yul\":8354:8362   */\n      swap1\n      pop\n        /* \"#utility.yul\":8295:8368   */\n      swap1\n      jump\t// out\n        /* \"#utility.yul\":8374:8563   */\n    tag_95:\n        /* \"#utility.yul\":8451:8483   */\n      tag_196\n      tag_94\n      jump\t// in\n    tag_196:\n        /* \"#utility.yul\":8492:8557   */\n      tag_197\n        /* \"#utility.yul\":8550:8556   */\n      dup2\n        /* \"#utility.yul\":8542:8548   */\n      dup5\n        /* \"#utility.yul\":8536:8540   */\n      dup5\n        /* \"#utility.yul\":8492:8557   */\n      tag_93\n      jump\t// in\n    tag_197:\n        /* \"#utility.yul\":8427:8563   */\n      pop\n        /* \"#utility.yul\":8374:8563   */\n      pop\n      pop\n      jump\t// out\n        /* \"#utility.yul\":8569:8755   */\n    tag_96:\n        /* \"#utility.yul\":8629:8749   */\n    tag_199:\n        /* \"#utility.yul\":8646:8649   */\n      dup2\n        /* \"#utility.yul\":8639:8644   */\n      dup2\n        /* \"#utility.yul\":8636:8650   */\n      lt\n        /* \"#utility.yul\":8629:8749   */\n      iszero\n      tag_201\n      jumpi\n        /* \"#utility.yul\":8700:8739   */\n      tag_202\n        /* \"#utility.yul\":8737:8738   */\n      0x00\n        /* \"#utility.yul\":8730:8735   */\n      dup3\n        /* \"#utility.yul\":8700:8739   */\n      tag_95\n      jump\t// in\n    tag_202:\n        /* \"#utility.yul\":8673:8674   */\n      0x01\n        /* \"#utility.yul\":8666:8671   */\n      dup2\n        /* \"#utility.yul\":8662:8675   */\n      add\n        /* \"#utility.yul\":8653:8675   */\n      swap1\n      pop\n        /* \"#utility.yul\":8629:8749   */\n      jump(tag_199)\n    tag_201:\n        /* \"#utility.yul\":8569:8755   */\n      pop\n      pop\n      jump\t// out\n        /* \"#utility.yul\":8761:9304   */\n    tag_97:\n        /* \"#utility.yul\":8862:8864   */\n      0x1f\n        /* \"#utility.yul\":8857:8860   */\n      dup3\n        /* \"#utility.yul\":8854:8865   */\n      gt\n        /* \"#utility.yul\":8851:9297   */\n      iszero\n      tag_204\n      jumpi\n        /* \"#utility.yul\":8896:8934   */\n      tag_205\n        /* \"#utility.yul\":8928:8933   */\n      dup2\n        /* \"#utility.yul\":8896:8934   */\n      tag_86\n      jump\t// in\n    tag_205:\n        /* \"#utility.yul\":8980:9009   */\n      tag_206\n        /* \"#utility.yul\":8998:9008   */\n      dup5\n        /* \"#utility.yul\":8980:9009   */\n      tag_87\n      jump\t// in\n    tag_206:\n        /* \"#utility.yul\":8970:8978   */\n      dup2\n        /* \"#utility.yul\":8966:9010   */\n      add\n        /* \"#utility.yul\":9163:9165   */\n      0x20\n        /* \"#utility.yul\":9151:9161   */\n      dup6\n        /* \"#utility.yul\":9148:9166   */\n      lt\n        /* \"#utility.yul\":9145:9194   */\n      iszero\n      tag_207\n      jumpi\n        /* \"#utility.yul\":9184:9192   */\n      dup2\n        /* \"#utility.yul\":9169:9192   */\n      swap1\n      pop\n        /* \"#utility.yul\":9145:9194   */\n    tag_207:\n        /* \"#utility.yul\":9207:9287   */\n      tag_208\n        /* \"#utility.yul\":9263:9285   */\n      tag_209\n        /* \"#utility.yul\":9281:9284   */\n      dup6\n        /* \"#utility.yul\":9263:9285   */\n      tag_87\n      jump\t// in\n    tag_209:\n        /* \"#utility.yul\":9253:9261   */\n      dup4\n        /* \"#utility.yul\":9249:9286   */\n      add\n        /* \"#utility.yul\":9236:9247   */\n      dup3\n        /* \"#utility.yul\":9207:9287   */\n      tag_96\n      jump\t// in\n    tag_208:\n        /* \"#utility.yul\":8866:9297   */\n      pop\n      pop\n        /* \"#utility.yul\":8851:9297   */\n    tag_204:\n        /* \"#utility.yul\":8761:9304   */\n      pop\n      pop\n      pop\n      jump\t// out\n        /* \"#utility.yul\":9310:9427   */\n    tag_98:\n        /* \"#utility.yul\":9364:9372   */\n      0x00\n        /* \"#utility.yul\":9414:9419   */\n      dup3\n        /* \"#utility.yul\":9408:9412   */\n      dup3\n        /* \"#utility.yul\":9404:9420   */\n      shr\n        /* \"#utility.yul\":9383:9420   */\n      swap1\n      pop\n        /* \"#utility.yul\":9310:9427   */\n      swap3\n      swap2\n      pop\n      pop\n      jump\t// out\n        /* \"#utility.yul\":9433:9602   */\n    tag_99:\n        /* \"#utility.yul\":9477:9483   */\n      0x00\n        /* \"#utility.yul\":9510:9561   */\n      tag_212\n        /* \"#utility.yul\":9558:9559   */\n      0x00\n        /* \"#utility.yul\":9554:9560   */\n      not\n        /* \"#utility.yul\":9546:9551   */\n      dup5\n        /* \"#utility.yul\":9543:9544   */\n      0x08\n        /* \"#utility.yul\":9539:9552   */\n      mul\n        /* \"#utility.yul\":9510:9561   */\n      tag_98\n      jump\t// in\n    tag_212:\n        /* \"#utility.yul\":9506:9562   */\n      not\n        /* \"#utility.yul\":9591:9595   */\n      dup1\n        /* \"#utility.yul\":9585:9589   */\n      dup4\n        /* \"#utility.yul\":9581:9596   */\n      and\n        /* \"#utility.yul\":9571:9596   */\n      swap2\n      pop\n        /* \"#utility.yul\":9484:9602   */\n      pop\n        /* \"#utility.yul\":9433:9602   */\n      swap3\n      swap2\n      pop\n      pop\n      jump\t// out\n        /* \"#utility.yul\":9607:9902   */\n    tag_100:\n        /* \"#utility.yul\":9683:9687   */\n      0x00\n        /* \"#utility.yul\":9829:9858   */\n      tag_214\n        /* \"#utility.yul\":9854:9857   */\n      dup4\n        /* \"#utility.yul\":9848:9852   */\n      dup4\n        /* \"#utility.yul\":9829:9858   */\n      tag_99\n      jump\t// in\n    tag_214:\n        /* \"#utility.yul\":9821:9858   */\n      swap2\n      pop\n        /* \"#utility.yul\":9891:9894   */\n      dup3\n        /* \"#utility.yul\":9888:9889   */\n      0x02\n        /* \"#utility.yul\":9884:9895   */\n      mul\n        /* \"#utility.yul\":9878:9882   */\n      dup3\n        /* \"#utility.yul\":9875:9896   */\n      or\n        /* \"#utility.yul\":9867:9896   */\n      swap1\n      pop\n        /* \"#utility.yul\":9607:9902   */\n      swap3\n      swap2\n      pop\n      pop\n      jump\t// out\n        /* \"#utility.yul\":9907:11302   */\n    tag_57:\n        /* \"#utility.yul\":10024:10061   */\n      tag_216\n        /* \"#utility.yul\":10057:10060   */\n      dup3\n        /* \"#utility.yul\":10024:10061   */\n      tag_78\n      jump\t// in\n    tag_216:\n        /* \"#utility.yul\":10126:10144   */\n      0xffffffffffffffff\n        /* \"#utility.yul\":10118:10124   */\n      dup2\n        /* \"#utility.yul\":10115:10145   */\n      gt\n        /* \"#utility.yul\":10112:10168   */\n      iszero\n      tag_217\n      jumpi\n        /* \"#utility.yul\":10148:10166   */\n      tag_218\n      tag_71\n      jump\t// in\n    tag_218:\n        /* \"#utility.yul\":10112:10168   */\n    tag_217:\n        /* \"#utility.yul\":10192:10230   */\n      tag_219\n        /* \"#utility.yul\":10224:10228   */\n      dup3\n        /* \"#utility.yul\":10218:10229   */\n      sload\n        /* \"#utility.yul\":10192:10230   */\n      tag_22\n      jump\t// in\n    tag_219:\n        /* \"#utility.yul\":10277:10344   */\n      tag_220\n        /* \"#utility.yul\":10337:10343   */\n      dup3\n        /* \"#utility.yul\":10329:10335   */\n      dup3\n        /* \"#utility.yul\":10323:10327   */\n      dup6\n        /* \"#utility.yul\":10277:10344   */\n      tag_97\n      jump\t// in\n    tag_220:\n        /* \"#utility.yul\":10371:10372   */\n      0x00\n        /* \"#utility.yul\":10395:10399   */\n      0x20\n        /* \"#utility.yul\":10382:10399   */\n      swap1\n      pop\n        /* \"#utility.yul\":10427:10429   */\n      0x1f\n        /* \"#utility.yul\":10419:10425   */\n      dup4\n        /* \"#utility.yul\":10416:10430   */\n      gt\n        /* \"#utility.yul\":10444:10445   */\n      0x01\n        /* \"#utility.yul\":10439:11057   */\n      dup2\n      eq\n      tag_222\n      jumpi\n        /* \"#utility.yul\":11101:11102   */\n      0x00\n        /* \"#utility.yul\":11118:11124   */\n      dup5\n        /* \"#utility.yul\":11115:11192   */\n      iszero\n      tag_223\n      jumpi\n        /* \"#utility.yul\":11167:11176   */\n      dup3\n        /* \"#utility.yul\":11162:11165   */\n      dup8\n        /* \"#utility.yul\":11158:11177   */\n      add\n        /* \"#utility.yul\":11152:11178   */\n      mload\n        /* \"#utility.yul\":11143:11178   */\n      swap1\n      pop\n        /* \"#utility.yul\":11115:11192   */\n    tag_223:\n        /* \"#utility.yul\":11218:11285   */\n      tag_224\n        /* \"#utility.yul\":11278:11284   */\n      dup6\n        /* \"#utility.yul\":11271:11276   */\n      dup3\n        /* \"#utility.yul\":11218:11285   */\n      tag_100\n      jump\t// in\n    tag_224:\n        /* \"#utility.yul\":11212:11216   */\n      dup7\n        /* \"#utility.yul\":11205:11286   */\n      sstore\n        /* \"#utility.yul\":11074:11296   */\n      pop\n        /* \"#utility.yul\":10409:11296   */\n      jump(tag_221)\n        /* \"#utility.yul\":10439:11057   */\n    tag_222:\n        /* \"#utility.yul\":10491:10495   */\n      0x1f\n        /* \"#utility.yul\":10487:10496   */\n      not\n        /* \"#utility.yul\":10479:10485   */\n      dup5\n        /* \"#utility.yul\":10475:10497   */\n      and\n        /* \"#utility.yul\":10525:10562   */\n      tag_225\n        /* \"#utility.yul\":10557:10561   */\n      dup7\n        /* \"#utility.yul\":10525:10562   */\n      tag_86\n      jump\t// in\n    tag_225:\n        /* \"#utility.yul\":10584:10585   */\n      0x00\n        /* \"#utility.yul\":10598:10806   */\n    tag_226:\n        /* \"#utility.yul\":10612:10619   */\n      dup3\n        /* \"#utility.yul\":10609:10610   */\n      dup2\n        /* \"#utility.yul\":10606:10620   */\n      lt\n        /* \"#utility.yul\":10598:10806   */\n      iszero\n      tag_228\n      jumpi\n        /* \"#utility.yul\":10691:10700   */\n      dup5\n        /* \"#utility.yul\":10686:10689   */\n      dup10\n        /* \"#utility.yul\":10682:10701   */\n      add\n        /* \"#utility.yul\":10676:10702   */\n      mload\n        /* \"#utility.yul\":10668:10674   */\n      dup3\n        /* \"#utility.yul\":10661:10703   */\n      sstore\n        /* \"#utility.yul\":10742:10743   */\n      0x01\n        /* \"#utility.yul\":10734:10740   */\n      dup3\n        /* \"#utility.yul\":10730:10744   */\n      add\n        /* \"#utility.yul\":10720:10744   */\n      swap2\n      pop\n        /* \"#utility.yul\":10789:10791   */\n      0x20\n        /* \"#utility.yul\":10778:10787   */\n      dup6\n        /* \"#utility.yul\":10774:10792   */\n      add\n        /* \"#utility.yul\":10761:10792   */\n      swap5\n      pop\n        /* \"#utility.yul\":10635:10639   */\n      0x20\n        /* \"#utility.yul\":10632:10633   */\n      dup2\n        /* \"#utility.yul\":10628:10640   */\n      add\n        /* \"#utility.yul\":10623:10640   */\n      swap1\n      pop\n        /* \"#utility.yul\":10598:10806   */\n      jump(tag_226)\n    tag_228:\n        /* \"#utility.yul\":10834:10840   */\n      dup7\n        /* \"#utility.yul\":10825:10832   */\n      dup4\n        /* \"#utility.yul\":10822:10841   */\n      lt\n        /* \"#utility.yul\":10819:10998   */\n      iszero\n      tag_229\n      jumpi\n        /* \"#utility.yul\":10892:10901   */\n      dup5\n        /* \"#utility.yul\":10887:10890   */\n      dup10\n        /* \"#utility.yul\":10883:10902   */\n      add\n        /* \"#utility.yul\":10877:10903   */\n      mload\n        /* \"#utility.yul\":10935:10983   */\n      tag_230\n        /* \"#utility.yul\":10977:10981   */\n      0x1f\n        /* \"#utility.yul\":10969:10975   */\n      dup10\n        /* \"#utility.yul\":10965:10982   */\n      and\n        /* \"#utility.yul\":10954:10963   */\n      dup3\n        /* \"#utility.yul\":10935:10983   */\n      tag_99\n      jump\t// in\n    tag_230:\n        /* \"#utility.yul\":10927:10933   */\n      dup4\n        /* \"#utility.yul\":10920:10984   */\n      sstore\n        /* \"#utility.yul\":10842:10998   */\n      pop\n        /* \"#utility.yul\":10819:10998   */\n    tag_229:\n        /* \"#utility.yul\":11044:11045   */\n      0x01\n        /* \"#utility.yul\":11040:11041   */\n      0x02\n        /* \"#utility.yul\":11032:11038   */\n      dup9\n        /* \"#utility.yul\":11028:11042   */\n      mul\n        /* \"#utility.yul\":11024:11046   */\n      add\n        /* \"#utility.yul\":11018:11022   */\n      dup9\n        /* \"#utility.yul\":11011:11047   */\n      sstore\n        /* \"#utility.yul\":10446:11057   */\n      pop\n      pop\n      pop\n        /* \"#utility.yul\":10409:11296   */\n    tag_221:\n      pop\n        /* \"#utility.yul\":9999:11302   */\n      pop\n      pop\n      pop\n        /* \"#utility.yul\":9907:11302   */\n      pop\n      pop\n      jump\t// out\n        /* \"#utility.yul\":11308:11456   */\n    tag_101:\n        /* \"#utility.yul\":11410:11421   */\n      0x00\n        /* \"#utility.yul\":11447:11450   */\n      dup2\n        /* \"#utility.yul\":11432:11450   */\n      swap1\n      pop\n        /* \"#utility.yul\":11308:11456   */\n      swap3\n      swap2\n      pop\n      pop\n      jump\t// out\n        /* \"#utility.yul\":11462:11852   */\n    tag_102:\n        /* \"#utility.yul\":11568:11571   */\n      0x00\n        /* \"#utility.yul\":11596:11635   */\n      tag_233\n        /* \"#utility.yul\":11629:11634   */\n      dup3\n        /* \"#utility.yul\":11596:11635   */\n      tag_78\n      jump\t// in\n    tag_233:\n        /* \"#utility.yul\":11651:11740   */\n      tag_234\n        /* \"#utility.yul\":11733:11739   */\n      dup2\n        /* \"#utility.yul\":11728:11731   */\n      dup6\n        /* \"#utility.yul\":11651:11740   */\n      tag_101\n      jump\t// in\n    tag_234:\n        /* \"#utility.yul\":11644:11740   */\n      swap4\n      pop\n        /* \"#utility.yul\":11749:11814   */\n      tag_235\n        /* \"#utility.yul\":11807:11813   */\n      dup2\n        /* \"#utility.yul\":11802:11805   */\n      dup6\n        /* \"#utility.yul\":11795:11799   */\n      0x20\n        /* \"#utility.yul\":11788:11793   */\n      dup7\n        /* \"#utility.yul\":11784:11800   */\n      add\n        /* \"#utility.yul\":11749:11814   */\n      tag_80\n      jump\t// in\n    tag_235:\n        /* \"#utility.yul\":11839:11845   */\n      dup1\n        /* \"#utility.yul\":11834:11837   */\n      dup5\n        /* \"#utility.yul\":11830:11846   */\n      add\n        /* \"#utility.yul\":11823:11846   */\n      swap2\n      pop\n        /* \"#utility.yul\":11572:11852   */\n      pop\n        /* \"#utility.yul\":11462:11852   */\n      swap3\n      swap2\n      pop\n      pop\n      jump\t// out\n        /* \"#utility.yul\":11858:12133   */\n    tag_61:\n        /* \"#utility.yul\":11990:11993   */\n      0x00\n        /* \"#utility.yul\":12012:12107   */\n      tag_237\n        /* \"#utility.yul\":12103:12106   */\n      dup3\n        /* \"#utility.yul\":12094:12100   */\n      dup5\n        /* \"#utility.yul\":12012:12107   */\n      tag_102\n      jump\t// in\n    tag_237:\n        /* \"#utility.yul\":12005:12107   */\n      swap2\n      pop\n        /* \"#utility.yul\":12124:12127   */\n      dup2\n        /* \"#utility.yul\":12117:12127   */\n      swap1\n      pop\n        /* \"#utility.yul\":11858:12133   */\n      swap3\n      swap2\n      pop\n      pop\n      jump\t// out\n\n    auxdata: 0xa26469706673582212204b8011d13e71ca53c0389184a3015bc869a789601461b194663f0c81c6abed6c64736f6c634300081e0033\n}\n",
				"bytecode": {
					"linkReferences": {},
					"object": "6080604052348015600e575f5ffd5b50610bdb8061001c5f395ff3fe608060405234801561000f575f5ffd5b506004361061003f575f3560e01c806337f0f2821461004357806351d70bc41461007557806359ae069b146100a7575b5f5ffd5b61005d60048036038101906100589190610696565b6100c3565b60405161006c9392919061073d565b60405180910390f35b61008f600480360381019061008a91906107ba565b610293565b60405161009e9392919061073d565b60405180910390f35b6100c160048036038101906100bc91906107e5565b610459565b005b6001818051602081018201805184825260208301602085012081835280955050505050505f91509050805f0180546100fa906108b6565b80601f0160208091040260200160405190810160405280929190818152602001828054610126906108b6565b80156101715780601f1061014857610100808354040283529160200191610171565b820191905f5260205f20905b81548152906001019060200180831161015457829003601f168201915b505050505090806001018054610186906108b6565b80601f01602080910402602001604051908101604052809291908181526020018280546101b2906108b6565b80156101fd5780601f106101d4576101008083540402835291602001916101fd565b820191905f5260205f20905b8154815290600101906020018083116101e057829003601f168201915b505050505090806002018054610212906108b6565b80601f016020809104026020016040519081016040528092919081815260200182805461023e906108b6565b80156102895780601f1061026057610100808354040283529160200191610289565b820191905f5260205f20905b81548152906001019060200180831161026c57829003601f168201915b5050505050905083565b5f81815481106102a1575f80fd5b905f5260205f2090600302015f91509050805f0180546102c0906108b6565b80601f01602080910402602001604051908101604052809291908181526020018280546102ec906108b6565b80156103375780601f1061030e57610100808354040283529160200191610337565b820191905f5260205f20905b81548152906001019060200180831161031a57829003601f168201915b50505050509080600101805461034c906108b6565b80601f0160208091040260200160405190810160405280929190818152602001828054610378906108b6565b80156103c35780601f1061039a576101008083540402835291602001916103c3565b820191905f5260205f20905b8154815290600101906020018083116103a657829003601f168201915b5050505050908060020180546103d8906108b6565b80601f0160208091040260200160405190810160405280929190818152602001828054610404906108b6565b801561044f5780601f106104265761010080835404028352916020019161044f565b820191905f5260205f20905b81548152906001019060200180831161043257829003601f168201915b5050505050905083565b5f60405180606001604052808581526020018481526020018381525090505f81908060018154018082558091505060019003905f5260205f2090600302015f909190919091505f820151815f0190816104b29190610a86565b5060208201518160010190816104c89190610a86565b5060408201518160020190816104de9190610a86565b505050806001856040516104f29190610b8f565b90815260200160405180910390205f820151815f0190816105139190610a86565b5060208201518160010190816105299190610a86565b50604082015181600201908161053f9190610a86565b5090505050505050565b5f604051905090565b5f5ffd5b5f5ffd5b5f5ffd5b5f5ffd5b5f601f19601f8301169050919050565b7f4e487b71000000000000000000000000000000000000000000000000000000005f52604160045260245ffd5b6105a882610562565b810181811067ffffffffffffffff821117156105c7576105c6610572565b5b80604052505050565b5f6105d9610549565b90506105e5828261059f565b919050565b5f67ffffffffffffffff82111561060457610603610572565b5b61060d82610562565b9050602081019050919050565b828183375f83830152505050565b5f61063a610635846105ea565b6105d0565b9050828152602081018484840111156106565761065561055e565b5b61066184828561061a565b509392505050565b5f82601f83011261067d5761067c61055a565b5b813561068d848260208601610628565b91505092915050565b5f602082840312156106ab576106aa610552565b5b5f82013567ffffffffffffffff8111156106c8576106c7610556565b5b6106d484828501610669565b91505092915050565b5f81519050919050565b5f82825260208201905092915050565b8281835e5f83830152505050565b5f61070f826106dd565b61071981856106e7565b93506107298185602086016106f7565b61073281610562565b840191505092915050565b5f6060820190508181035f8301526107558186610705565b905081810360208301526107698185610705565b9050818103604083015261077d8184610705565b9050949350505050565b5f819050919050565b61079981610787565b81146107a3575f5ffd5b50565b5f813590506107b481610790565b92915050565b5f602082840312156107cf576107ce610552565b5b5f6107dc848285016107a6565b91505092915050565b5f5f5f606084860312156107fc576107fb610552565b5b5f84013567ffffffffffffffff81111561081957610818610556565b5b61082586828701610669565b935050602084013567ffffffffffffffff81111561084657610845610556565b5b61085286828701610669565b925050604084013567ffffffffffffffff81111561087357610872610556565b5b61087f86828701610669565b9150509250925092565b7f4e487b71000000000000000000000000000000000000000000000000000000005f52602260045260245ffd5b5f60028204905060018216806108cd57607f821691505b6020821081036108e0576108df610889565b5b50919050565b5f819050815f5260205f209050919050565b5f6020601f8301049050919050565b5f82821b905092915050565b5f600883026109427fffffffffffffffffffffffffffffffffffffffffffffffffffffffffffffffff82610907565b61094c8683610907565b95508019841693508086168417925050509392505050565b5f819050919050565b5f61098761098261097d84610787565b610964565b610787565b9050919050565b5f819050919050565b6109a08361096d565b6109b46109ac8261098e565b848454610913565b825550505050565b5f5f905090565b6109cb6109bc565b6109d6818484610997565b505050565b5b818110156109f9576109ee5f826109c3565b6001810190506109dc565b5050565b601f821115610a3e57610a0f816108e6565b610a18846108f8565b81016020851015610a27578190505b610a3b610a33856108f8565b8301826109db565b50505b505050565b5f82821c905092915050565b5f610a5e5f1984600802610a43565b1980831691505092915050565b5f610a768383610a4f565b9150826002028217905092915050565b610a8f826106dd565b67ffffffffffffffff811115610aa857610aa7610572565b5b610ab282546108b6565b610abd8282856109fd565b5f60209050601f831160018114610aee575f8415610adc578287015190505b610ae68582610a6b565b865550610b4d565b601f198416610afc866108e6565b5f5b82811015610b2357848901518255600182019150602085019450602081019050610afe565b86831015610b405784890151610b3c601f891682610a4f565b8355505b6001600288020188555050505b505050505050565b5f81905092915050565b5f610b69826106dd565b610b738185610b55565b9350610b838185602086016106f7565b80840191505092915050565b5f610b9a8284610b5f565b91508190509291505056fea26469706673582212204b8011d13e71ca53c0389184a3015bc869a789601461b194663f0c81c6abed6c64736f6c634300081e0033",
					"opcodes": "PUSH1 0x80 PUSH1 0x40 MSTORE CALLVALUE DUP1 ISZERO PUSH1 0xE JUMPI PUSH0 PUSH0 REVERT JUMPDEST POP PUSH2 0xBDB DUP1 PUSH2 0x1C PUSH0 CODECOPY PUSH0 RETURN INVALID PUSH1 0x80 PUSH1 0x40 MSTORE CALLVALUE DUP1 ISZERO PUSH2 0xF JUMPI PUSH0 PUSH0 REVERT JUMPDEST POP PUSH1 0x4 CALLDATASIZE LT PUSH2 0x3F JUMPI PUSH0 CALLDATALOAD PUSH1 0xE0 SHR DUP1 PUSH4 0x37F0F282 EQ PUSH2 0x43 JUMPI DUP1 PUSH4 0x51D70BC4 EQ PUSH2 0x75 JUMPI DUP1 PUSH4 0x59AE069B EQ PUSH2 0xA7 JUMPI JUMPDEST PUSH0 PUSH0 REVERT JUMPDEST PUSH2 0x5D PUSH1 0x4 DUP1 CALLDATASIZE SUB DUP2 ADD SWAP1 PUSH2 0x58 SWAP2 SWAP1 PUSH2 0x696 JUMP JUMPDEST PUSH2 0xC3 JUMP JUMPDEST PUSH1 0x40 MLOAD PUSH2 0x6C SWAP4 SWAP3 SWAP2 SWAP1 PUSH2 0x73D JUMP JUMPDEST PUSH1 0x40 MLOAD DUP1 SWAP2 SUB SWAP1 RETURN JUMPDEST PUSH2 0x8F PUSH1 0x4 DUP1 CALLDATASIZE SUB DUP2 ADD SWAP1 PUSH2 0x8A SWAP2 SWAP1 PUSH2 0x7BA JUMP JUMPDEST PUSH2 0x293 JUMP JUMPDEST PUSH1 0x40 MLOAD PUSH2 0x9E SWAP4 SWAP3 SWAP2 SWAP1 PUSH2 0x73D JUMP JUMPDEST PUSH1 0x40 MLOAD DUP1 SWAP2 SUB SWAP1 RETURN JUMPDEST PUSH2 0xC1 PUSH1 0x4 DUP1 CALLDATASIZE SUB DUP2 ADD SWAP1 PUSH2 0xBC SWAP2 SWAP1 PUSH2 0x7E5 JUMP JUMPDEST PUSH2 0x459 JUMP JUMPDEST STOP JUMPDEST PUSH1 0x1 DUP2 DUP1 MLOAD PUSH1 0x20 DUP2 ADD DUP3 ADD DUP1 MLOAD DUP5 DUP3 MSTORE PUSH1 0x20 DUP4 ADD PUSH1 0x20 DUP6 ADD KECCAK256 DUP2 DUP4 MSTORE DUP1 SWAP6 POP POP POP POP POP POP PUSH0 SWAP2 POP SWAP1 POP DUP1 PUSH0 ADD DUP1 SLOAD PUSH2 0xFA SWAP1 PUSH2 0x8B6 JUMP JUMPDEST DUP1 PUSH1 0x1F ADD PUSH1 0x20 DUP1 SWAP2 DIV MUL PUSH1 0x20 ADD PUSH1 0x40 MLOAD SWAP1 DUP2 ADD PUSH1 0x40 MSTORE DUP1 SWAP3 SWAP2 SWAP1 DUP2 DUP2 MSTORE PUSH1 0x20 ADD DUP3 DUP1 SLOAD PUSH2 0x126 SWAP1 PUSH2 0x8B6 JUMP JUMPDEST DUP1 ISZERO PUSH2 0x171 JUMPI DUP1 PUSH1 0x1F LT PUSH2 0x148 JUMPI PUSH2 0x100 DUP1 DUP4 SLOAD DIV MUL DUP4 MSTORE SWAP2 PUSH1 0x20 ADD SWAP2 PUSH2 0x171 JUMP JUMPDEST DUP3 ADD SWAP2 SWAP1 PUSH0 MSTORE PUSH1 0x20 PUSH0 KECCAK256 SWAP1 JUMPDEST DUP2 SLOAD DUP2 MSTORE SWAP1 PUSH1 0x1 ADD SWAP1 PUSH1 0x20 ADD DUP1 DUP4 GT PUSH2 0x154 JUMPI DUP3 SWAP1 SUB PUSH1 0x1F AND DUP3 ADD SWAP2 JUMPDEST POP POP POP POP POP SWAP1 DUP1 PUSH1 0x1 ADD DUP1 SLOAD PUSH2 0x186 SWAP1 PUSH2 0x8B6 JUMP JUMPDEST DUP1 PUSH1 0x1F ADD PUSH1 0x20 DUP1 SWAP2 DIV MUL PUSH1 0x20 ADD PUSH1 0x40 MLOAD SWAP1 DUP2 ADD PUSH1 0x40 MSTORE DUP1 SWAP3 SWAP2 SWAP1 DUP2 DUP2 MSTORE PUSH1 0x20 ADD DUP3 DUP1 SLOAD PUSH2 0x1B2 SWAP1 PUSH2 0x8B6 JUMP JUMPDEST DUP1 ISZERO PUSH2 0x1FD JUMPI DUP1 PUSH1 0x1F LT PUSH2 0x1D4 JUMPI PUSH2 0x100 DUP1 DUP4 SLOAD DIV MUL DUP4 MSTORE SWAP2 PUSH1 0x20 ADD SWAP2 PUSH2 0x1FD JUMP JUMPDEST DUP3 ADD SWAP2 SWAP1 PUSH0 MSTORE PUSH1 0x20 PUSH0 KECCAK256 SWAP1 JUMPDEST DUP2 SLOAD DUP2 MSTORE SWAP1 PUSH1 0x1 ADD SWAP1 PUSH1 0x20 ADD DUP1 DUP4 GT PUSH2 0x1E0 JUMPI DUP3 SWAP1 SUB PUSH1 0x1F AND DUP3 ADD SWAP2 JUMPDEST POP POP POP POP POP SWAP1 DUP1 PUSH1 0x2 ADD DUP1 SLOAD PUSH2 0x212 SWAP1 PUSH2 0x8B6 JUMP JUMPDEST DUP1 PUSH1 0x1F ADD PUSH1 0x20 DUP1 SWAP2 DIV MUL PUSH1 0x20 ADD PUSH1 0x40 MLOAD SWAP1 DUP2 ADD PUSH1 0x40 MSTORE DUP1 SWAP3 SWAP2 SWAP1 DUP2 DUP2 MSTORE PUSH1 0x20 ADD DUP3 DUP1 SLOAD PUSH2 0x23E SWAP1 PUSH2 0x8B6 JUMP JUMPDEST DUP1 ISZERO PUSH2 0x289 JUMPI DUP1 PUSH1 0x1F LT PUSH2 0x260 JUMPI PUSH2 0x100 DUP1 DUP4 SLOAD DIV MUL DUP4 MSTORE SWAP2 PUSH1 0x20 ADD SWAP2 PUSH2 0x289 JUMP JUMPDEST DUP3 ADD SWAP2 SWAP1 PUSH0 MSTORE PUSH1 0x20 PUSH0 KECCAK256 SWAP1 JUMPDEST DUP2 SLOAD DUP2 MSTORE SWAP1 PUSH1 0x1 ADD SWAP1 PUSH1 0x20 ADD DUP1 DUP4 GT PUSH2 0x26C JUMPI DUP3 SWAP1 SUB PUSH1 0x1F AND DUP3 ADD SWAP2 JUMPDEST POP POP POP POP POP SWAP1 POP DUP4 JUMP JUMPDEST PUSH0 DUP2 DUP2 SLOAD DUP2 LT PUSH2 0x2A1 JUMPI PUSH0 DUP1 REVERT JUMPDEST SWAP1 PUSH0 MSTORE PUSH1 0x20 PUSH0 KECCAK256 SWAP1 PUSH1 0x3 MUL ADD PUSH0 SWAP2 POP SWAP1 POP DUP1 PUSH0 ADD DUP1 SLOAD PUSH2 0x2C0 SWAP1 PUSH2 0x8B6 JUMP JUMPDEST DUP1 PUSH1 0x1F ADD PUSH1 0x20 DUP1 SWAP2 DIV MUL PUSH1 0x20 ADD PUSH1 0x40 MLOAD SWAP1 DUP2 ADD PUSH1 0x40 MSTORE DUP1 SWAP3 SWAP2 SWAP1 DUP2 DUP2 MSTORE PUSH1 0x20 ADD DUP3 DUP1 SLOAD PUSH2 0x2EC SWAP1 PUSH2 0x8B6 JUMP JUMPDEST DUP1 ISZERO PUSH2 0x337 JUMPI DUP1 PUSH1 0x1F LT PUSH2 0x30E JUMPI PUSH2 0x100 DUP1 DUP4 SLOAD DIV MUL DUP4 MSTORE SWAP2 PUSH1 0x20 ADD SWAP2 PUSH2 0x337 JUMP JUMPDEST DUP3 ADD SWAP2 SWAP1 PUSH0 MSTORE PUSH1 0x20 PUSH0 KECCAK256 SWAP1 JUMPDEST DUP2 SLOAD DUP2 MSTORE SWAP1 PUSH1 0x1 ADD SWAP1 PUSH1 0x20 ADD DUP1 DUP4 GT PUSH2 0x31A JUMPI DUP3 SWAP1 SUB PUSH1 0x1F AND DUP3 ADD SWAP2 JUMPDEST POP POP POP POP POP SWAP1 DUP1 PUSH1 0x1 ADD DUP1 SLOAD PUSH2 0x34C SWAP1 PUSH2 0x8B6 JUMP JUMPDEST DUP1 PUSH1 0x1F ADD PUSH1 0x20 DUP1 SWAP2 DIV MUL PUSH1 0x20 ADD PUSH1 0x40 MLOAD SWAP1 DUP2 ADD PUSH1 0x40 MSTORE DUP1 SWAP3 SWAP2 SWAP1 DUP2 DUP2 MSTORE PUSH1 0x20 ADD DUP3 DUP1 SLOAD PUSH2 0x378 SWAP1 PUSH2 0x8B6 JUMP JUMPDEST DUP1 ISZERO PUSH2 0x3C3 JUMPI DUP1 PUSH1 0x1F LT PUSH2 0x39A JUMPI PUSH2 0x100 DUP1 DUP4 SLOAD DIV MUL DUP4 MSTORE SWAP2 PUSH1 0x20 ADD SWAP2 PUSH2 0x3C3 JUMP JUMPDEST DUP3 ADD SWAP2 SWAP1 PUSH0 MSTORE PUSH1 0x20 PUSH0 KECCAK256 SWAP1 JUMPDEST DUP2 SLOAD DUP2 MSTORE SWAP1 PUSH1 0x1 ADD SWAP1 PUSH1 0x20 ADD DUP1 DUP4 GT PUSH2 0x3A6 JUMPI DUP3 SWAP1 SUB PUSH1 0x1F AND DUP3 ADD SWAP2 JUMPDEST POP POP POP POP POP SWAP1 DUP1 PUSH1 0x2 ADD DUP1 SLOAD PUSH2 0x3D8 SWAP1 PUSH2 0x8B6 JUMP JUMPDEST DUP1 PUSH1 0x1F ADD PUSH1 0x20 DUP1 SWAP2 DIV MUL PUSH1 0x20 ADD PUSH1 0x40 MLOAD SWAP1 DUP2 ADD PUSH1 0x40 MSTORE DUP1 SWAP3 SWAP2 SWAP1 DUP2 DUP2 MSTORE PUSH1 0x20 ADD DUP3 DUP1 SLOAD PUSH2 0x404 SWAP1 PUSH2 0x8B6 JUMP JUMPDEST DUP1 ISZERO PUSH2 0x44F JUMPI DUP1 PUSH1 0x1F LT PUSH2 0x426 JUMPI PUSH2 0x100 DUP1 DUP4 SLOAD DIV MUL DUP4 MSTORE SWAP2 PUSH1 0x20 ADD SWAP2 PUSH2 0x44F JUMP JUMPDEST DUP3 ADD SWAP2 SWAP1 PUSH0 MSTORE PUSH1 0x20 PUSH0 KECCAK256 SWAP1 JUMPDEST DUP2 SLOAD DUP2 MSTORE SWAP1 PUSH1 0x1 ADD SWAP1 PUSH1 0x20 ADD DUP1 DUP4 GT PUSH2 0x432 JUMPI DUP3 SWAP1 SUB PUSH1 0x1F AND DUP3 ADD SWAP2 JUMPDEST POP POP POP POP POP SWAP1 POP DUP4 JUMP JUMPDEST PUSH0 PUSH1 0x40 MLOAD DUP1 PUSH1 0x60 ADD PUSH1 0x40 MSTORE DUP1 DUP6 DUP2 MSTORE PUSH1 0x20 ADD DUP5 DUP2 MSTORE PUSH1 0x20 ADD DUP4 DUP2 MSTORE POP SWAP1 POP PUSH0 DUP2 SWAP1 DUP1 PUSH1 0x1 DUP2 SLOAD ADD DUP1 DUP3 SSTORE DUP1 SWAP2 POP POP PUSH1 0x1 SWAP1 SUB SWAP1 PUSH0 MSTORE PUSH1 0x20 PUSH0 KECCAK256 SWAP1 PUSH1 0x3 MUL ADD PUSH0 SWAP1 SWAP2 SWAP1 SWAP2 SWAP1 SWAP2 POP PUSH0 DUP3 ADD MLOAD DUP2 PUSH0 ADD SWAP1 DUP2 PUSH2 0x4B2 SWAP2 SWAP1 PUSH2 0xA86 JUMP JUMPDEST POP PUSH1 0x20 DUP3 ADD MLOAD DUP2 PUSH1 0x1 ADD SWAP1 DUP2 PUSH2 0x4C8 SWAP2 SWAP1 PUSH2 0xA86 JUMP JUMPDEST POP PUSH1 0x40 DUP3 ADD MLOAD DUP2 PUSH1 0x2 ADD SWAP1 DUP2 PUSH2 0x4DE SWAP2 SWAP1 PUSH2 0xA86 JUMP JUMPDEST POP POP POP DUP1 PUSH1 0x1 DUP6 PUSH1 0x40 MLOAD PUSH2 0x4F2 SWAP2 SWAP1 PUSH2 0xB8F JUMP JUMPDEST SWAP1 DUP2 MSTORE PUSH1 0x20 ADD PUSH1 0x40 MLOAD DUP1 SWAP2 SUB SWAP1 KECCAK256 PUSH0 DUP3 ADD MLOAD DUP2 PUSH0 ADD SWAP1 DUP2 PUSH2 0x513 SWAP2 SWAP1 PUSH2 0xA86 JUMP JUMPDEST POP PUSH1 0x20 DUP3 ADD MLOAD DUP2 PUSH1 0x1 ADD SWAP1 DUP2 PUSH2 0x529 SWAP2 SWAP1 PUSH2 0xA86 JUMP JUMPDEST POP PUSH1 0x40 DUP3 ADD MLOAD DUP2 PUSH1 0x2 ADD SWAP1 DUP2 PUSH2 0x53F SWAP2 SWAP1 PUSH2 0xA86 JUMP JUMPDEST POP SWAP1 POP POP POP POP POP POP JUMP JUMPDEST PUSH0 PUSH1 0x40 MLOAD SWAP1 POP SWAP1 JUMP JUMPDEST PUSH0 PUSH0 REVERT JUMPDEST PUSH0 PUSH0 REVERT JUMPDEST PUSH0 PUSH0 REVERT JUMPDEST PUSH0 PUSH0 REVERT JUMPDEST PUSH0 PUSH1 0x1F NOT PUSH1 0x1F DUP4 ADD AND SWAP1 POP SWAP2 SWAP1 POP JUMP JUMPDEST PUSH32 0x4E487B7100000000000000000000000000000000000000000000000000000000 PUSH0 MSTORE PUSH1 0x41 PUSH1 0x4 MSTORE PUSH1 0x24 PUSH0 REVERT JUMPDEST PUSH2 0x5A8 DUP3 PUSH2 0x562 JUMP JUMPDEST DUP2 ADD DUP2 DUP2 LT PUSH8 0xFFFFFFFFFFFFFFFF DUP3 GT OR ISZERO PUSH2 0x5C7 JUMPI PUSH2 0x5C6 PUSH2 0x572 JUMP JUMPDEST JUMPDEST DUP1 PUSH1 0x40 MSTORE POP POP POP JUMP JUMPDEST PUSH0 PUSH2 0x5D9 PUSH2 0x549 JUMP JUMPDEST SWAP1 POP PUSH2 0x5E5 DUP3 DUP3 PUSH2 0x59F JUMP JUMPDEST SWAP2 SWAP1 POP JUMP JUMPDEST PUSH0 PUSH8 0xFFFFFFFFFFFFFFFF DUP3 GT ISZERO PUSH2 0x604 JUMPI PUSH2 0x603 PUSH2 0x572 JUMP JUMPDEST JUMPDEST PUSH2 0x60D DUP3 PUSH2 0x562 JUMP JUMPDEST SWAP1 POP PUSH1 0x20 DUP2 ADD SWAP1 POP SWAP2 SWAP1 POP JUMP JUMPDEST DUP3 DUP2 DUP4 CALLDATACOPY PUSH0 DUP4 DUP4 ADD MSTORE POP POP POP JUMP JUMPDEST PUSH0 PUSH2 0x63A PUSH2 0x635 DUP5 PUSH2 0x5EA JUMP JUMPDEST PUSH2 0x5D0 JUMP JUMPDEST SWAP1 POP DUP3 DUP2 MSTORE PUSH1 0x20 DUP2 ADD DUP5 DUP5 DUP5 ADD GT ISZERO PUSH2 0x656 JUMPI PUSH2 0x655 PUSH2 0x55E JUMP JUMPDEST JUMPDEST PUSH2 0x661 DUP5 DUP3 DUP6 PUSH2 0x61A JUMP JUMPDEST POP SWAP4 SWAP3 POP POP POP JUMP JUMPDEST PUSH0 DUP3 PUSH1 0x1F DUP4 ADD SLT PUSH2 0x67D JUMPI PUSH2 0x67C PUSH2 0x55A JUMP JUMPDEST JUMPDEST DUP2 CALLDATALOAD PUSH2 0x68D DUP5 DUP3 PUSH1 0x20 DUP7 ADD PUSH2 0x628 JUMP JUMPDEST SWAP2 POP POP SWAP3 SWAP2 POP POP JUMP JUMPDEST PUSH0 PUSH1 0x20 DUP3 DUP5 SUB SLT ISZERO PUSH2 0x6AB JUMPI PUSH2 0x6AA PUSH2 0x552 JUMP JUMPDEST JUMPDEST PUSH0 DUP3 ADD CALLDATALOAD PUSH8 0xFFFFFFFFFFFFFFFF DUP2 GT ISZERO PUSH2 0x6C8 JUMPI PUSH2 0x6C7 PUSH2 0x556 JUMP JUMPDEST JUMPDEST PUSH2 0x6D4 DUP5 DUP3 DUP6 ADD PUSH2 0x669 JUMP JUMPDEST SWAP2 POP POP SWAP3 SWAP2 POP POP JUMP JUMPDEST PUSH0 DUP2 MLOAD SWAP1 POP SWAP2 SWAP1 POP JUMP JUMPDEST PUSH0 DUP3 DUP3 MSTORE PUSH1 0x20 DUP3 ADD SWAP1 POP SWAP3 SWAP2 POP POP JUMP JUMPDEST DUP3 DUP2 DUP4 MCOPY PUSH0 DUP4 DUP4 ADD MSTORE POP POP POP JUMP JUMPDEST PUSH0 PUSH2 0x70F DUP3 PUSH2 0x6DD JUMP JUMPDEST PUSH2 0x719 DUP2 DUP6 PUSH2 0x6E7 JUMP JUMPDEST SWAP4 POP PUSH2 0x729 DUP2 DUP6 PUSH1 0x20 DUP7 ADD PUSH2 0x6F7 JUMP JUMPDEST PUSH2 0x732 DUP2 PUSH2 0x562 JUMP JUMPDEST DUP5 ADD SWAP2 POP POP SWAP3 SWAP2 POP POP JUMP JUMPDEST PUSH0 PUSH1 0x60 DUP3 ADD SWAP1 POP DUP2 DUP2 SUB PUSH0 DUP4 ADD MSTORE PUSH2 0x755 DUP2 DUP7 PUSH2 0x705 JUMP JUMPDEST SWAP1 POP DUP2 DUP2 SUB PUSH1 0x20 DUP4 ADD MSTORE PUSH2 0x769 DUP2 DUP6 PUSH2 0x705 JUMP JUMPDEST SWAP1 POP DUP2 DUP2 SUB PUSH1 0x40 DUP4 ADD MSTORE PUSH2 0x77D DUP2 DUP5 PUSH2 0x705 JUMP JUMPDEST SWAP1 POP SWAP5 SWAP4 POP POP POP POP JUMP JUMPDEST PUSH0 DUP2 SWAP1 POP SWAP2 SWAP1 POP JUMP JUMPDEST PUSH2 0x799 DUP2 PUSH2 0x787 JUMP JUMPDEST DUP2 EQ PUSH2 0x7A3 JUMPI PUSH0 PUSH0 REVERT JUMPDEST POP JUMP JUMPDEST PUSH0 DUP2 CALLDATALOAD SWAP1 POP PUSH2 0x7B4 DUP2 PUSH2 0x790 JUMP JUMPDEST SWAP3 SWAP2 POP POP JUMP JUMPDEST PUSH0 PUSH1 0x20 DUP3 DUP5 SUB SLT ISZERO PUSH2 0x7CF JUMPI PUSH2 0x7CE PUSH2 0x552 JUMP JUMPDEST JUMPDEST PUSH0 PUSH2 0x7DC DUP5 DUP3 DUP6 ADD PUSH2 0x7A6 JUMP JUMPDEST SWAP2 POP POP SWAP3 SWAP2 POP POP JUMP JUMPDEST PUSH0 PUSH0 PUSH0 PUSH1 0x60 DUP5 DUP7 SUB SLT ISZERO PUSH2 0x7FC JUMPI PUSH2 0x7FB PUSH2 0x552 JUMP JUMPDEST JUMPDEST PUSH0 DUP5 ADD CALLDATALOAD PUSH8 0xFFFFFFFFFFFFFFFF DUP2 GT ISZERO PUSH2 0x819 JUMPI PUSH2 0x818 PUSH2 0x556 JUMP JUMPDEST JUMPDEST PUSH2 0x825 DUP7 DUP3 DUP8 ADD PUSH2 0x669 JUMP JUMPDEST SWAP4 POP POP PUSH1 0x20 DUP5 ADD CALLDATALOAD PUSH8 0xFFFFFFFFFFFFFFFF DUP2 GT ISZERO PUSH2 0x846 JUMPI PUSH2 0x845 PUSH2 0x556 JUMP JUMPDEST JUMPDEST PUSH2 0x852 DUP7 DUP3 DUP8 ADD PUSH2 0x669 JUMP JUMPDEST SWAP3 POP POP PUSH1 0x40 DUP5 ADD CALLDATALOAD PUSH8 0xFFFFFFFFFFFFFFFF DUP2 GT ISZERO PUSH2 0x873 JUMPI PUSH2 0x872 PUSH2 0x556 JUMP JUMPDEST JUMPDEST PUSH2 0x87F DUP7 DUP3 DUP8 ADD PUSH2 0x669 JUMP JUMPDEST SWAP2 POP POP SWAP3 POP SWAP3 POP SWAP3 JUMP JUMPDEST PUSH32 0x4E487B7100000000000000000000000000000000000000000000000000000000 PUSH0 MSTORE PUSH1 0x22 PUSH1 0x4 MSTORE PUSH1 0x24 PUSH0 REVERT JUMPDEST PUSH0 PUSH1 0x2 DUP3 DIV SWAP1 POP PUSH1 0x1 DUP3 AND DUP1 PUSH2 0x8CD JUMPI PUSH1 0x7F DUP3 AND SWAP2 POP JUMPDEST PUSH1 0x20 DUP3 LT DUP2 SUB PUSH2 0x8E0 JUMPI PUSH2 0x8DF PUSH2 0x889 JUMP JUMPDEST JUMPDEST POP SWAP2 SWAP1 POP JUMP JUMPDEST PUSH0 DUP2 SWAP1 POP DUP2 PUSH0 MSTORE PUSH1 0x20 PUSH0 KECCAK256 SWAP1 POP SWAP2 SWAP1 POP JUMP JUMPDEST PUSH0 PUSH1 0x20 PUSH1 0x1F DUP4 ADD DIV SWAP1 POP SWAP2 SWAP1 POP JUMP JUMPDEST PUSH0 DUP3 DUP3 SHL SWAP1 POP SWAP3 SWAP2 POP POP JUMP JUMPDEST PUSH0 PUSH1 0x8 DUP4 MUL PUSH2 0x942 PUSH32 0xFFFFFFFFFFFFFFFFFFFFFFFFFFFFFFFFFFFFFFFFFFFFFFFFFFFFFFFFFFFFFFFF DUP3 PUSH2 0x907 JUMP JUMPDEST PUSH2 0x94C DUP7 DUP4 PUSH2 0x907 JUMP JUMPDEST SWAP6 POP DUP1 NOT DUP5 AND SWAP4 POP DUP1 DUP7 AND DUP5 OR SWAP3 POP POP POP SWAP4 SWAP3 POP POP POP JUMP JUMPDEST PUSH0 DUP2 SWAP1 POP SWAP2 SWAP1 POP JUMP JUMPDEST PUSH0 PUSH2 0x987 PUSH2 0x982 PUSH2 0x97D DUP5 PUSH2 0x787 JUMP JUMPDEST PUSH2 0x964 JUMP JUMPDEST PUSH2 0x787 JUMP JUMPDEST SWAP1 POP SWAP2 SWAP1 POP JUMP JUMPDEST PUSH0 DUP2 SWAP1 POP SWAP2 SWAP1 POP JUMP JUMPDEST PUSH2 0x9A0 DUP4 PUSH2 0x96D JUMP JUMPDEST PUSH2 0x9B4 PUSH2 0x9AC DUP3 PUSH2 0x98E JUMP JUMPDEST DUP5 DUP5 SLOAD PUSH2 0x913 JUMP JUMPDEST DUP3 SSTORE POP POP POP POP JUMP JUMPDEST PUSH0 PUSH0 SWAP1 POP SWAP1 JUMP JUMPDEST PUSH2 0x9CB PUSH2 0x9BC JUMP JUMPDEST PUSH2 0x9D6 DUP2 DUP5 DUP5 PUSH2 0x997 JUMP JUMPDEST POP POP POP JUMP JUMPDEST JUMPDEST DUP2 DUP2 LT ISZERO PUSH2 0x9F9 JUMPI PUSH2 0x9EE PUSH0 DUP3 PUSH2 0x9C3 JUMP JUMPDEST PUSH1 0x1 DUP2 ADD SWAP1 POP PUSH2 0x9DC JUMP JUMPDEST POP POP JUMP JUMPDEST PUSH1 0x1F DUP3 GT ISZERO PUSH2 0xA3E JUMPI PUSH2 0xA0F DUP2 PUSH2 0x8E6 JUMP JUMPDEST PUSH2 0xA18 DUP5 PUSH2 0x8F8 JUMP JUMPDEST DUP2 ADD PUSH1 0x20 DUP6 LT ISZERO PUSH2 0xA27 JUMPI DUP2 SWAP1 POP JUMPDEST PUSH2 0xA3B PUSH2 0xA33 DUP6 PUSH2 0x8F8 JUMP JUMPDEST DUP4 ADD DUP3 PUSH2 0x9DB JUMP JUMPDEST POP POP JUMPDEST POP POP POP JUMP JUMPDEST PUSH0 DUP3 DUP3 SHR SWAP1 POP SWAP3 SWAP2 POP POP JUMP JUMPDEST PUSH0 PUSH2 0xA5E PUSH0 NOT DUP5 PUSH1 0x8 MUL PUSH2 0xA43 JUMP JUMPDEST NOT DUP1 DUP4 AND SWAP2 POP POP SWAP3 SWAP2 POP POP JUMP JUMPDEST PUSH0 PUSH2 0xA76 DUP4 DUP4 PUSH2 0xA4F JUMP JUMPDEST SWAP2 POP DUP3 PUSH1 0x2 MUL DUP3 OR SWAP1 POP SWAP3 SWAP2 POP POP JUMP JUMPDEST PUSH2 0xA8F DUP3 PUSH2 0x6DD JUMP JUMPDEST PUSH8 0xFFFFFFFFFFFFFFFF DUP2 GT ISZERO PUSH2 0xAA8 JUMPI PUSH2 0xAA7 PUSH2 0x572 JUMP JUMPDEST JUMPDEST PUSH2 0xAB2 DUP3 SLOAD PUSH2 0x8B6 JUMP JUMPDEST PUSH2 0xABD DUP3 DUP3 DUP6 PUSH2 0x9FD JUMP JUMPDEST PUSH0 PUSH1 0x20 SWAP1 POP PUSH1 0x1F DUP4 GT PUSH1 0x1 DUP2 EQ PUSH2 0xAEE JUMPI PUSH0 DUP5 ISZERO PUSH2 0xADC JUMPI DUP3 DUP8 ADD MLOAD SWAP1 POP JUMPDEST PUSH2 0xAE6 DUP6 DUP3 PUSH2 0xA6B JUMP JUMPDEST DUP7 SSTORE POP PUSH2 0xB4D JUMP JUMPDEST PUSH1 0x1F NOT DUP5 AND PUSH2 0xAFC DUP7 PUSH2 0x8E6 JUMP JUMPDEST PUSH0 JUMPDEST DUP3 DUP2 LT ISZERO PUSH2 0xB23 JUMPI DUP5 DUP10 ADD MLOAD DUP3 SSTORE PUSH1 0x1 DUP3 ADD SWAP2 POP PUSH1 0x20 DUP6 ADD SWAP5 POP PUSH1 0x20 DUP2 ADD SWAP1 POP PUSH2 0xAFE JUMP JUMPDEST DUP7 DUP4 LT ISZERO PUSH2 0xB40 JUMPI DUP5 DUP10 ADD MLOAD PUSH2 0xB3C PUSH1 0x1F DUP10 AND DUP3 PUSH2 0xA4F JUMP JUMPDEST DUP4 SSTORE POP JUMPDEST PUSH1 0x1 PUSH1 0x2 DUP9 MUL ADD DUP9 SSTORE POP POP POP JUMPDEST POP POP POP POP POP POP JUMP JUMPDEST PUSH0 DUP2 SWAP1 POP SWAP3 SWAP2 POP POP JUMP JUMPDEST PUSH0 PUSH2 0xB69 DUP3 PUSH2 0x6DD JUMP JUMPDEST PUSH2 0xB73 DUP2 DUP6 PUSH2 0xB55 JUMP JUMPDEST SWAP4 POP PUSH2 0xB83 DUP2 DUP6 PUSH1 0x20 DUP7 ADD PUSH2 0x6F7 JUMP JUMPDEST DUP1 DUP5 ADD SWAP2 POP POP SWAP3 SWAP2 POP POP JUMP JUMPDEST PUSH0 PUSH2 0xB9A DUP3 DUP5 PUSH2 0xB5F JUMP JUMPDEST SWAP2 POP DUP2 SWAP1 POP SWAP3 SWAP2 POP POP JUMP INVALID LOG2 PUSH5 0x6970667358 0x22 SLT KECCAK256 0x4B DUP1 GT DATALOADN 0x3E71 0xCA MSTORE8 0xC0 CODESIZE SWAP2 DUP5 LOG3 ADD JUMPDEST 0xC8 PUSH10 0xA789601461B194663F0C DUP2 0xC6 0xAB 0xED PUSH13 0x64736F6C634300081E00330000 "
				},
				"gasEstimates": {
					"creation": {
						"codeDepositCost": "607000",
						"executionCost": "636",
						"totalCost": "607636"
					},
					"external": {
						"createUser(string,string,string)": "infinite",
						"userInfo(uint256)": "infinite",
						"userInfoByName(string)": "infinite"
					}
				},
				"methodIdentifiers": {
					"createUser(string,string,string)": "59ae069b",
					"userInfo(uint256)": "51d70bc4",
					"userInfoByName(string)": "37f0f282"
				}
			},
			"storageLayout": {
				"storage": [
					{
						"astId": 12,
						"contract": "contanct.sol:Savecontact",
						"label": "userInfo",
						"offset": 0,
						"slot": "0",
						"type": "t_array(t_struct(UserInfo)8_storage)dyn_storage"
					},
					{
						"astId": 17,
						"contract": "contanct.sol:Savecontact",
						"label": "userInfoByName",
						"offset": 0,
						"slot": "1",
						"type": "t_mapping(t_string_memory_ptr,t_struct(UserInfo)8_storage)"
					}
				],
				"types": {
					"t_array(t_struct(UserInfo)8_storage)dyn_storage": {
						"base": "t_struct(UserInfo)8_storage",
						"encoding": "dynamic_array",
						"label": "struct Savecontact.UserInfo[]",
						"numberOfBytes": "32"
					},
					"t_mapping(t_string_memory_ptr,t_struct(UserInfo)8_storage)": {
						"encoding": "mapping",
						"key": "t_string_memory_ptr",
						"label": "mapping(string => struct Savecontact.UserInfo)",
						"numberOfBytes": "32",
						"value": "t_struct(UserInfo)8_storage"
					},
					"t_string_memory_ptr": {
						"encoding": "bytes",
						"label": "string",
						"numberOfBytes": "32"
					},
					"t_string_storage": {
						"encoding": "bytes",
						"label": "string",
						"numberOfBytes": "32"
					},
					"t_struct(UserInfo)8_storage": {
						"encoding": "inplace",
						"label": "struct Savecontact.UserInfo",
						"members": [
							{
								"astId": 3,
								"contract": "contanct.sol:Savecontact",
								"label": "name",
								"offset": 0,
								"slot": "0",
								"type": "t_string_storage"
							},
							{
								"astId": 5,
								"contract": "contanct.sol:Savecontact",
								"label": "number",
								"offset": 0,
								"slot": "1",
								"type": "t_string_storage"
							},
							{
								"astId": 7,
								"contract": "contanct.sol:Savecontact",
								"label": "email",
								"offset": 0,
								"slot": "2",
								"type": "t_string_storage"
							}
						],
						"numberOfBytes": "96"
					}
				}
			},
			"userdoc": {
				"kind": "user",
				"methods": {},
				"version": 1
			}
		}
	}
}