{
	"exersice.sol": {
		"attackCoinflip": {
			"abi": [
				{
					"inputs": [],
					"stateMutability": "nonpayable",
					"type": "constructor"
				},
				{
					"inputs": [],
					"name": "consecutiveWins",
					"outputs": [
						{
							"internalType": "uint256",
							"name": "",
							"type": "uint256"
						}
					],
					"stateMutability": "view",
					"type": "function"
				},
				{
					"inputs": [],
					"name": "myGuess",
					"outputs": [],
					"stateMutability": "nonpayable",
					"type": "function"
				}
			],
			"devdoc": {
				"kind": "dev",
				"methods": {},
				"version": 1
			},
			"evm": {
				"assembly": "    /* \"exersice.sol\":819:1369  contract attackCoinflip{... */\n  mstore(0x40, 0x80)\n    /* \"exersice.sol\":900:977  57896044618658097711785492504343953926634992332820282019728792003956564819968 */\n  0x8000000000000000000000000000000000000000000000000000000000000000\n    /* \"exersice.sol\":883:977  uint256 FACTOR = 57896044618658097711785492504343953926634992332820282019728792003956564819968 */\n  0x01\n  sstore\n    /* \"exersice.sol\":997:1067  constructor(){... */\n  callvalue\n  dup1\n  iszero\n  tag_1\n  jumpi\n  revert(0x00, 0x00)\ntag_1:\n  pop\n    /* \"exersice.sol\":1021:1063  0xC6E3EF0441D98aB02dA7B54260dffadDAAA197AE */\n  0xc6e3ef0441d98ab02da7b54260dffaddaaa197ae\n    /* \"exersice.sol\":1014:1018  coin */\n  0x02\n  0x00\n    /* \"exersice.sol\":1014:1063  coin = 0xC6E3EF0441D98aB02dA7B54260dffadDAAA197AE */\n  0x0100\n  exp\n  dup2\n  sload\n  dup2\n  0xffffffffffffffffffffffffffffffffffffffff\n  mul\n  not\n  and\n  swap1\n  dup4\n  0xffffffffffffffffffffffffffffffffffffffff\n  and\n  mul\n  or\n  swap1\n  sstore\n  pop\n    /* \"exersice.sol\":819:1369  contract attackCoinflip{... */\n  dataSize(sub_0)\n  dup1\n  dataOffset(sub_0)\n  0x00\n  codecopy\n  0x00\n  return\nstop\n\nsub_0: assembly {\n        /* \"exersice.sol\":819:1369  contract attackCoinflip{... */\n      mstore(0x40, 0x80)\n      callvalue\n      dup1\n      iszero\n      tag_1\n      jumpi\n      revert(0x00, 0x00)\n    tag_1:\n      pop\n      jumpi(tag_2, lt(calldatasize, 0x04))\n      shr(0xe0, calldataload(0x00))\n      dup1\n      0x12c376a5\n      eq\n      tag_3\n      jumpi\n      dup1\n      0xe6f334d7\n      eq\n      tag_4\n      jumpi\n    tag_2:\n      revert(0x00, 0x00)\n        /* \"exersice.sol\":1070:1364  function myGuess() public{... */\n    tag_3:\n      tag_5\n      tag_6\n      jump\t// in\n    tag_5:\n      stop\n        /* \"exersice.sol\":847:877  uint256 public consecutiveWins */\n    tag_4:\n      tag_7\n      tag_8\n      jump\t// in\n    tag_7:\n      mload(0x40)\n      tag_9\n      swap2\n      swap1\n      tag_10\n      jump\t// in\n    tag_9:\n      mload(0x40)\n      dup1\n      swap2\n      sub\n      swap1\n      return\n        /* \"exersice.sol\":1070:1364  function myGuess() public{... */\n    tag_6:\n        /* \"exersice.sol\":1100:1118  uint256 blockValue */\n      0x00\n        /* \"exersice.sol\":1154:1155  1 */\n      0x01\n        /* \"exersice.sol\":1139:1151  block.number */\n      number\n        /* \"exersice.sol\":1139:1155  block.number - 1 */\n      tag_12\n      swap2\n      swap1\n      tag_13\n      jump\t// in\n    tag_12:\n        /* \"exersice.sol\":1129:1156  blockhash(block.number - 1) */\n      blockhash\n        /* \"exersice.sol\":1121:1157  uint256(blockhash(block.number - 1)) */\n      0x00\n      shr\n        /* \"exersice.sol\":1100:1157  uint256 blockValue = uint256(blockhash(block.number - 1)) */\n      swap1\n      pop\n        /* \"exersice.sol\":1161:1177  uint256 coinFlip */\n      0x00\n        /* \"exersice.sol\":1193:1199  FACTOR */\n      sload(0x01)\n        /* \"exersice.sol\":1180:1190  blockValue */\n      dup3\n        /* \"exersice.sol\":1180:1199  blockValue / FACTOR */\n      tag_14\n      swap2\n      swap1\n      tag_15\n      jump\t// in\n    tag_14:\n        /* \"exersice.sol\":1161:1199  uint256 coinFlip = blockValue / FACTOR */\n      swap1\n      pop\n        /* \"exersice.sol\":1209:1218  bool side */\n      0x00\n        /* \"exersice.sol\":1233:1234  1 */\n      0x01\n        /* \"exersice.sol\":1221:1229  coinFlip */\n      dup3\n        /* \"exersice.sol\":1221:1234  coinFlip == 1 */\n      eq\n        /* \"exersice.sol\":1221:1249  coinFlip == 1 ? true : false */\n      tag_16\n      jumpi\n        /* \"exersice.sol\":1244:1249  false */\n      0x00\n        /* \"exersice.sol\":1221:1249  coinFlip == 1 ? true : false */\n      jump(tag_17)\n    tag_16:\n        /* \"exersice.sol\":1237:1241  true */\n      0x01\n        /* \"exersice.sol\":1221:1249  coinFlip == 1 ? true : false */\n    tag_17:\n        /* \"exersice.sol\":1209:1249  bool side = coinFlip == 1 ? true : false */\n      swap1\n      pop\n        /* \"exersice.sol\":1259:1267  bool win */\n      0x00\n        /* \"exersice.sol\":1278:1282  coin */\n      0x02\n      0x00\n      swap1\n      sload\n      swap1\n      0x0100\n      exp\n      swap1\n      div\n      0xffffffffffffffffffffffffffffffffffffffff\n      and\n        /* \"exersice.sol\":1269:1288  IConflip(coin).flip */\n      0xffffffffffffffffffffffffffffffffffffffff\n      and\n      0x1d263f67\n        /* \"exersice.sol\":1289:1293  side */\n      dup4\n        /* \"exersice.sol\":1269:1294  IConflip(coin).flip(side) */\n      mload(0x40)\n      dup3\n      0xffffffff\n      and\n      0xe0\n      shl\n      dup2\n      mstore\n      0x04\n      add\n      tag_18\n      swap2\n      swap1\n      tag_19\n      jump\t// in\n    tag_18:\n      0x20\n      mload(0x40)\n      dup1\n      dup4\n      sub\n      dup2\n      0x00\n      dup8\n      gas\n      call\n      iszero\n      dup1\n      iszero\n      tag_21\n      jumpi\n      returndatacopy(0x00, 0x00, returndatasize)\n      revert(0x00, returndatasize)\n    tag_21:\n      pop\n      pop\n      pop\n      pop\n      mload(0x40)\n      returndatasize\n      not(0x1f)\n      0x1f\n      dup3\n      add\n      and\n      dup3\n      add\n      dup1\n      0x40\n      mstore\n      pop\n      dup2\n      add\n      swap1\n      tag_22\n      swap2\n      swap1\n      tag_23\n      jump\t// in\n    tag_22:\n        /* \"exersice.sol\":1259:1294  bool win= IConflip(coin).flip(side) */\n      swap1\n      pop\n        /* \"exersice.sol\":1308:1311  win */\n      dup1\n        /* \"exersice.sol\":1304:1340  if(!win){... */\n      tag_24\n      jumpi\n        /* \"exersice.sol\":1322:1330  revert() */\n      revert(0x00, 0x00)\n        /* \"exersice.sol\":1304:1340  if(!win){... */\n    tag_24:\n        /* \"exersice.sol\":1342:1357  consecutiveWins */\n      0x00\n      0x00\n        /* \"exersice.sol\":1342:1359  consecutiveWins++ */\n      dup2\n      sload\n      dup1\n      swap3\n      swap2\n      swap1\n      tag_25\n      swap1\n      tag_26\n      jump\t// in\n    tag_25:\n      swap2\n      swap1\n      pop\n      sstore\n      pop\n        /* \"exersice.sol\":1095:1364  {... */\n      pop\n      pop\n      pop\n      pop\n        /* \"exersice.sol\":1070:1364  function myGuess() public{... */\n      jump\t// out\n        /* \"exersice.sol\":847:877  uint256 public consecutiveWins */\n    tag_8:\n      sload(0x00)\n      dup2\n      jump\t// out\n        /* \"#utility.yul\":7:84   */\n    tag_27:\n        /* \"#utility.yul\":44:51   */\n      0x00\n        /* \"#utility.yul\":73:78   */\n      dup2\n        /* \"#utility.yul\":62:78   */\n      swap1\n      pop\n        /* \"#utility.yul\":7:84   */\n      swap2\n      swap1\n      pop\n      jump\t// out\n        /* \"#utility.yul\":90:208   */\n    tag_28:\n        /* \"#utility.yul\":177:201   */\n      tag_41\n        /* \"#utility.yul\":195:200   */\n      dup2\n        /* \"#utility.yul\":177:201   */\n      tag_27\n      jump\t// in\n    tag_41:\n        /* \"#utility.yul\":172:175   */\n      dup3\n        /* \"#utility.yul\":165:202   */\n      mstore\n        /* \"#utility.yul\":90:208   */\n      pop\n      pop\n      jump\t// out\n        /* \"#utility.yul\":214:436   */\n    tag_10:\n        /* \"#utility.yul\":307:311   */\n      0x00\n        /* \"#utility.yul\":345:347   */\n      0x20\n        /* \"#utility.yul\":334:343   */\n      dup3\n        /* \"#utility.yul\":330:348   */\n      add\n        /* \"#utility.yul\":322:348   */\n      swap1\n      pop\n        /* \"#utility.yul\":358:429   */\n      tag_43\n        /* \"#utility.yul\":426:427   */\n      0x00\n        /* \"#utility.yul\":415:424   */\n      dup4\n        /* \"#utility.yul\":411:428   */\n      add\n        /* \"#utility.yul\":402:408   */\n      dup5\n        /* \"#utility.yul\":358:429   */\n      tag_28\n      jump\t// in\n    tag_43:\n        /* \"#utility.yul\":214:436   */\n      swap3\n      swap2\n      pop\n      pop\n      jump\t// out\n        /* \"#utility.yul\":442:622   */\n    tag_29:\n        /* \"#utility.yul\":490:567   */\n      0x4e487b7100000000000000000000000000000000000000000000000000000000\n        /* \"#utility.yul\":487:488   */\n      0x00\n        /* \"#utility.yul\":480:568   */\n      mstore\n        /* \"#utility.yul\":587:591   */\n      0x11\n        /* \"#utility.yul\":584:585   */\n      0x04\n        /* \"#utility.yul\":577:592   */\n      mstore\n        /* \"#utility.yul\":611:615   */\n      0x24\n        /* \"#utility.yul\":608:609   */\n      0x00\n        /* \"#utility.yul\":601:616   */\n      revert\n        /* \"#utility.yul\":628:822   */\n    tag_13:\n        /* \"#utility.yul\":668:672   */\n      0x00\n        /* \"#utility.yul\":688:708   */\n      tag_46\n        /* \"#utility.yul\":706:707   */\n      dup3\n        /* \"#utility.yul\":688:708   */\n      tag_27\n      jump\t// in\n    tag_46:\n        /* \"#utility.yul\":683:708   */\n      swap2\n      pop\n        /* \"#utility.yul\":722:742   */\n      tag_47\n        /* \"#utility.yul\":740:741   */\n      dup4\n        /* \"#utility.yul\":722:742   */\n      tag_27\n      jump\t// in\n    tag_47:\n        /* \"#utility.yul\":717:742   */\n      swap3\n      pop\n        /* \"#utility.yul\":766:767   */\n      dup3\n        /* \"#utility.yul\":763:764   */\n      dup3\n        /* \"#utility.yul\":759:768   */\n      sub\n        /* \"#utility.yul\":751:768   */\n      swap1\n      pop\n        /* \"#utility.yul\":790:791   */\n      dup2\n        /* \"#utility.yul\":784:788   */\n      dup2\n        /* \"#utility.yul\":781:792   */\n      gt\n        /* \"#utility.yul\":778:815   */\n      iszero\n      tag_48\n      jumpi\n        /* \"#utility.yul\":795:813   */\n      tag_49\n      tag_29\n      jump\t// in\n    tag_49:\n        /* \"#utility.yul\":778:815   */\n    tag_48:\n        /* \"#utility.yul\":628:822   */\n      swap3\n      swap2\n      pop\n      pop\n      jump\t// out\n        /* \"#utility.yul\":828:1008   */\n    tag_30:\n        /* \"#utility.yul\":876:953   */\n      0x4e487b7100000000000000000000000000000000000000000000000000000000\n        /* \"#utility.yul\":873:874   */\n      0x00\n        /* \"#utility.yul\":866:954   */\n      mstore\n        /* \"#utility.yul\":973:977   */\n      0x12\n        /* \"#utility.yul\":970:971   */\n      0x04\n        /* \"#utility.yul\":963:978   */\n      mstore\n        /* \"#utility.yul\":997:1001   */\n      0x24\n        /* \"#utility.yul\":994:995   */\n      0x00\n        /* \"#utility.yul\":987:1002   */\n      revert\n        /* \"#utility.yul\":1014:1199   */\n    tag_15:\n        /* \"#utility.yul\":1054:1055   */\n      0x00\n        /* \"#utility.yul\":1071:1091   */\n      tag_52\n        /* \"#utility.yul\":1089:1090   */\n      dup3\n        /* \"#utility.yul\":1071:1091   */\n      tag_27\n      jump\t// in\n    tag_52:\n        /* \"#utility.yul\":1066:1091   */\n      swap2\n      pop\n        /* \"#utility.yul\":1105:1125   */\n      tag_53\n        /* \"#utility.yul\":1123:1124   */\n      dup4\n        /* \"#utility.yul\":1105:1125   */\n      tag_27\n      jump\t// in\n    tag_53:\n        /* \"#utility.yul\":1100:1125   */\n      swap3\n      pop\n        /* \"#utility.yul\":1144:1145   */\n      dup3\n        /* \"#utility.yul\":1134:1169   */\n      tag_54\n      jumpi\n        /* \"#utility.yul\":1149:1167   */\n      tag_55\n      tag_30\n      jump\t// in\n    tag_55:\n        /* \"#utility.yul\":1134:1169   */\n    tag_54:\n        /* \"#utility.yul\":1191:1192   */\n      dup3\n        /* \"#utility.yul\":1188:1189   */\n      dup3\n        /* \"#utility.yul\":1184:1193   */\n      div\n        /* \"#utility.yul\":1179:1193   */\n      swap1\n      pop\n        /* \"#utility.yul\":1014:1199   */\n      swap3\n      swap2\n      pop\n      pop\n      jump\t// out\n        /* \"#utility.yul\":1205:1295   */\n    tag_31:\n        /* \"#utility.yul\":1239:1246   */\n      0x00\n        /* \"#utility.yul\":1282:1287   */\n      dup2\n        /* \"#utility.yul\":1275:1288   */\n      iszero\n        /* \"#utility.yul\":1268:1289   */\n      iszero\n        /* \"#utility.yul\":1257:1289   */\n      swap1\n      pop\n        /* \"#utility.yul\":1205:1295   */\n      swap2\n      swap1\n      pop\n      jump\t// out\n        /* \"#utility.yul\":1301:1410   */\n    tag_32:\n        /* \"#utility.yul\":1382:1403   */\n      tag_58\n        /* \"#utility.yul\":1397:1402   */\n      dup2\n        /* \"#utility.yul\":1382:1403   */\n      tag_31\n      jump\t// in\n    tag_58:\n        /* \"#utility.yul\":1377:1380   */\n      dup3\n        /* \"#utility.yul\":1370:1404   */\n      mstore\n        /* \"#utility.yul\":1301:1410   */\n      pop\n      pop\n      jump\t// out\n        /* \"#utility.yul\":1416:1626   */\n    tag_19:\n        /* \"#utility.yul\":1503:1507   */\n      0x00\n        /* \"#utility.yul\":1541:1543   */\n      0x20\n        /* \"#utility.yul\":1530:1539   */\n      dup3\n        /* \"#utility.yul\":1526:1544   */\n      add\n        /* \"#utility.yul\":1518:1544   */\n      swap1\n      pop\n        /* \"#utility.yul\":1554:1619   */\n      tag_60\n        /* \"#utility.yul\":1616:1617   */\n      0x00\n        /* \"#utility.yul\":1605:1614   */\n      dup4\n        /* \"#utility.yul\":1601:1618   */\n      add\n        /* \"#utility.yul\":1592:1598   */\n      dup5\n        /* \"#utility.yul\":1554:1619   */\n      tag_32\n      jump\t// in\n    tag_60:\n        /* \"#utility.yul\":1416:1626   */\n      swap3\n      swap2\n      pop\n      pop\n      jump\t// out\n        /* \"#utility.yul\":1713:1830   */\n    tag_34:\n        /* \"#utility.yul\":1822:1823   */\n      0x00\n        /* \"#utility.yul\":1819:1820   */\n      0x00\n        /* \"#utility.yul\":1812:1824   */\n      revert\n        /* \"#utility.yul\":1959:2075   */\n    tag_36:\n        /* \"#utility.yul\":2029:2050   */\n      tag_65\n        /* \"#utility.yul\":2044:2049   */\n      dup2\n        /* \"#utility.yul\":2029:2050   */\n      tag_31\n      jump\t// in\n    tag_65:\n        /* \"#utility.yul\":2022:2027   */\n      dup2\n        /* \"#utility.yul\":2019:2051   */\n      eq\n        /* \"#utility.yul\":2009:2069   */\n      tag_66\n      jumpi\n        /* \"#utility.yul\":2065:2066   */\n      0x00\n        /* \"#utility.yul\":2062:2063   */\n      0x00\n        /* \"#utility.yul\":2055:2067   */\n      revert\n        /* \"#utility.yul\":2009:2069   */\n    tag_66:\n        /* \"#utility.yul\":1959:2075   */\n      pop\n      jump\t// out\n        /* \"#utility.yul\":2081:2218   */\n    tag_37:\n        /* \"#utility.yul\":2135:2140   */\n      0x00\n        /* \"#utility.yul\":2166:2172   */\n      dup2\n        /* \"#utility.yul\":2160:2173   */\n      mload\n        /* \"#utility.yul\":2151:2173   */\n      swap1\n      pop\n        /* \"#utility.yul\":2182:2212   */\n      tag_68\n        /* \"#utility.yul\":2206:2211   */\n      dup2\n        /* \"#utility.yul\":2182:2212   */\n      tag_36\n      jump\t// in\n    tag_68:\n        /* \"#utility.yul\":2081:2218   */\n      swap3\n      swap2\n      pop\n      pop\n      jump\t// out\n        /* \"#utility.yul\":2224:2569   */\n    tag_23:\n        /* \"#utility.yul\":2291:2297   */\n      0x00\n        /* \"#utility.yul\":2340:2342   */\n      0x20\n        /* \"#utility.yul\":2328:2337   */\n      dup3\n        /* \"#utility.yul\":2319:2326   */\n      dup5\n        /* \"#utility.yul\":2315:2338   */\n      sub\n        /* \"#utility.yul\":2311:2343   */\n      slt\n        /* \"#utility.yul\":2308:2427   */\n      iszero\n      tag_70\n      jumpi\n        /* \"#utility.yul\":2346:2425   */\n      tag_71\n      tag_34\n      jump\t// in\n    tag_71:\n        /* \"#utility.yul\":2308:2427   */\n    tag_70:\n        /* \"#utility.yul\":2466:2467   */\n      0x00\n        /* \"#utility.yul\":2491:2552   */\n      tag_72\n        /* \"#utility.yul\":2544:2551   */\n      dup5\n        /* \"#utility.yul\":2535:2541   */\n      dup3\n        /* \"#utility.yul\":2524:2533   */\n      dup6\n        /* \"#utility.yul\":2520:2542   */\n      add\n        /* \"#utility.yul\":2491:2552   */\n      tag_37\n      jump\t// in\n    tag_72:\n        /* \"#utility.yul\":2481:2552   */\n      swap2\n      pop\n        /* \"#utility.yul\":2437:2562   */\n      pop\n        /* \"#utility.yul\":2224:2569   */\n      swap3\n      swap2\n      pop\n      pop\n      jump\t// out\n        /* \"#utility.yul\":2575:2808   */\n    tag_26:\n        /* \"#utility.yul\":2614:2617   */\n      0x00\n        /* \"#utility.yul\":2637:2661   */\n      tag_74\n        /* \"#utility.yul\":2655:2660   */\n      dup3\n        /* \"#utility.yul\":2637:2661   */\n      tag_27\n      jump\t// in\n    tag_74:\n        /* \"#utility.yul\":2628:2661   */\n      swap2\n      pop\n        /* \"#utility.yul\":2683:2749   */\n      0xffffffffffffffffffffffffffffffffffffffffffffffffffffffffffffffff\n        /* \"#utility.yul\":2676:2681   */\n      dup3\n        /* \"#utility.yul\":2673:2750   */\n      sub\n        /* \"#utility.yul\":2670:2773   */\n      tag_75\n      jumpi\n        /* \"#utility.yul\":2753:2771   */\n      tag_76\n      tag_29\n      jump\t// in\n    tag_76:\n        /* \"#utility.yul\":2670:2773   */\n    tag_75:\n        /* \"#utility.yul\":2800:2801   */\n      0x01\n        /* \"#utility.yul\":2793:2798   */\n      dup3\n        /* \"#utility.yul\":2789:2802   */\n      add\n        /* \"#utility.yul\":2782:2802   */\n      swap1\n      pop\n        /* \"#utility.yul\":2575:2808   */\n      swap2\n      swap1\n      pop\n      jump\t// out\n\n    auxdata: 0xa2646970667358221220cf6277333bf3150f168ce13dd3c9cb4898c858ad9108f8f855e58f05c35a384264736f6c63430008220033\n}\n",
				"bytecode": {
					"linkReferences": {},
					"object": "60806040527f80000000000000000000000000000000000000000000000000000000000000006001553480156032575f5ffd5b5073c6e3ef0441d98ab02da7b54260dffaddaaa197ae60025f6101000a81548173ffffffffffffffffffffffffffffffffffffffff021916908373ffffffffffffffffffffffffffffffffffffffff160217905550610356806100945f395ff3fe608060405234801561000f575f5ffd5b5060043610610034575f3560e01c806312c376a514610038578063e6f334d714610042575b5f5ffd5b610040610060565b005b61004a61015a565b6040516100579190610177565b60405180910390f35b5f60014361006e91906101bd565b405f1c90505f60015482610082919061021d565b90505f60018214610093575f610096565b60015b90505f60025f9054906101000a900473ffffffffffffffffffffffffffffffffffffffff1673ffffffffffffffffffffffffffffffffffffffff16631d263f67836040518263ffffffff1660e01b81526004016100f39190610267565b6020604051808303815f875af115801561010f573d5f5f3e3d5ffd5b505050506040513d601f19601f8201168201806040525081019061013391906102ae565b90508061013e575f5ffd5b5f5f81548092919061014f906102d9565b919050555050505050565b5f5481565b5f819050919050565b6101718161015f565b82525050565b5f60208201905061018a5f830184610168565b92915050565b7f4e487b71000000000000000000000000000000000000000000000000000000005f52601160045260245ffd5b5f6101c78261015f565b91506101d28361015f565b92508282039050818111156101ea576101e9610190565b5b92915050565b7f4e487b71000000000000000000000000000000000000000000000000000000005f52601260045260245ffd5b5f6102278261015f565b91506102328361015f565b925082610242576102416101f0565b5b828204905092915050565b5f8115159050919050565b6102618161024d565b82525050565b5f60208201905061027a5f830184610258565b92915050565b5f5ffd5b61028d8161024d565b8114610297575f5ffd5b50565b5f815190506102a881610284565b92915050565b5f602082840312156102c3576102c2610280565b5b5f6102d08482850161029a565b91505092915050565b5f6102e38261015f565b91507fffffffffffffffffffffffffffffffffffffffffffffffffffffffffffffffff820361031557610314610190565b5b60018201905091905056fea2646970667358221220cf6277333bf3150f168ce13dd3c9cb4898c858ad9108f8f855e58f05c35a384264736f6c63430008220033",
					"opcodes": "PUSH1 0x80 PUSH1 0x40 MSTORE PUSH32 0x8000000000000000000000000000000000000000000000000000000000000000 PUSH1 0x1 SSTORE CALLVALUE DUP1 ISZERO PUSH1 0x32 JUMPI PUSH0 PUSH0 REVERT JUMPDEST POP PUSH20 0xC6E3EF0441D98AB02DA7B54260DFFADDAAA197AE PUSH1 0x2 PUSH0 PUSH2 0x100 EXP DUP2 SLOAD DUP2 PUSH20 0xFFFFFFFFFFFFFFFFFFFFFFFFFFFFFFFFFFFFFFFF MUL NOT AND SWAP1 DUP4 PUSH20 0xFFFFFFFFFFFFFFFFFFFFFFFFFFFFFFFFFFFFFFFF AND MUL OR SWAP1 SSTORE POP PUSH2 0x356 DUP1 PUSH2 0x94 PUSH0 CODECOPY PUSH0 RETURN INVALID PUSH1 0x80 PUSH1 0x40 MSTORE CALLVALUE DUP1 ISZERO PUSH2 0xF JUMPI PUSH0 PUSH0 REVERT JUMPDEST POP PUSH1 0x4 CALLDATASIZE LT PUSH2 0x34 JUMPI PUSH0 CALLDATALOAD PUSH1 0xE0 SHR DUP1 PUSH4 0x12C376A5 EQ PUSH2 0x38 JUMPI DUP1 PUSH4 0xE6F334D7 EQ PUSH2 0x42 JUMPI JUMPDEST PUSH0 PUSH0 REVERT JUMPDEST PUSH2 0x40 PUSH2 0x60 JUMP JUMPDEST STOP JUMPDEST PUSH2 0x4A PUSH2 0x15A JUMP JUMPDEST PUSH1 0x40 MLOAD PUSH2 0x57 SWAP2 SWAP1 PUSH2 0x177 JUMP JUMPDEST PUSH1 0x40 MLOAD DUP1 SWAP2 SUB SWAP1 RETURN JUMPDEST PUSH0 PUSH1 0x1 NUMBER PUSH2 0x6E SWAP2 SWAP1 PUSH2 0x1BD JUMP JUMPDEST BLOCKHASH PUSH0 SHR SWAP1 POP PUSH0 PUSH1 0x1 SLOAD DUP3 PUSH2 0x82 SWAP2 SWAP1 PUSH2 0x21D JUMP JUMPDEST SWAP1 POP PUSH0 PUSH1 0x1 DUP3 EQ PUSH2 0x93 JUMPI PUSH0 PUSH2 0x96 JUMP JUMPDEST PUSH1 0x1 JUMPDEST SWAP1 POP PUSH0 PUSH1 0x2 PUSH0 SWAP1 SLOAD SWAP1 PUSH2 0x100 EXP SWAP1 DIV PUSH20 0xFFFFFFFFFFFFFFFFFFFFFFFFFFFFFFFFFFFFFFFF AND PUSH20 0xFFFFFFFFFFFFFFFFFFFFFFFFFFFFFFFFFFFFFFFF AND PUSH4 0x1D263F67 DUP4 PUSH1 0x40 MLOAD DUP3 PUSH4 0xFFFFFFFF AND PUSH1 0xE0 SHL DUP2 MSTORE PUSH1 0x4 ADD PUSH2 0xF3 SWAP2 SWAP1 PUSH2 0x267 JUMP JUMPDEST PUSH1 0x20 PUSH1 0x40 MLOAD DUP1 DUP4 SUB DUP2 PUSH0 DUP8 GAS CALL ISZERO DUP1 ISZERO PUSH2 0x10F JUMPI RETURNDATASIZE PUSH0 PUSH0 RETURNDATACOPY RETURNDATASIZE PUSH0 REVERT JUMPDEST POP POP POP POP PUSH1 0x40 MLOAD RETURNDATASIZE PUSH1 0x1F NOT PUSH1 0x1F DUP3 ADD AND DUP3 ADD DUP1 PUSH1 0x40 MSTORE POP DUP2 ADD SWAP1 PUSH2 0x133 SWAP2 SWAP1 PUSH2 0x2AE JUMP JUMPDEST SWAP1 POP DUP1 PUSH2 0x13E JUMPI PUSH0 PUSH0 REVERT JUMPDEST PUSH0 PUSH0 DUP2 SLOAD DUP1 SWAP3 SWAP2 SWAP1 PUSH2 0x14F SWAP1 PUSH2 0x2D9 JUMP JUMPDEST SWAP2 SWAP1 POP SSTORE POP POP POP POP POP JUMP JUMPDEST PUSH0 SLOAD DUP2 JUMP JUMPDEST PUSH0 DUP2 SWAP1 POP SWAP2 SWAP1 POP JUMP JUMPDEST PUSH2 0x171 DUP2 PUSH2 0x15F JUMP JUMPDEST DUP3 MSTORE POP POP JUMP JUMPDEST PUSH0 PUSH1 0x20 DUP3 ADD SWAP1 POP PUSH2 0x18A PUSH0 DUP4 ADD DUP5 PUSH2 0x168 JUMP JUMPDEST SWAP3 SWAP2 POP POP JUMP JUMPDEST PUSH32 0x4E487B7100000000000000000000000000000000000000000000000000000000 PUSH0 MSTORE PUSH1 0x11 PUSH1 0x4 MSTORE PUSH1 0x24 PUSH0 REVERT JUMPDEST PUSH0 PUSH2 0x1C7 DUP3 PUSH2 0x15F JUMP JUMPDEST SWAP2 POP PUSH2 0x1D2 DUP4 PUSH2 0x15F JUMP JUMPDEST SWAP3 POP DUP3 DUP3 SUB SWAP1 POP DUP2 DUP2 GT ISZERO PUSH2 0x1EA JUMPI PUSH2 0x1E9 PUSH2 0x190 JUMP JUMPDEST JUMPDEST SWAP3 SWAP2 POP POP JUMP JUMPDEST PUSH32 0x4E487B7100000000000000000000000000000000000000000000000000000000 PUSH0 MSTORE PUSH1 0x12 PUSH1 0x4 MSTORE PUSH1 0x24 PUSH0 REVERT JUMPDEST PUSH0 PUSH2 0x227 DUP3 PUSH2 0x15F JUMP JUMPDEST SWAP2 POP PUSH2 0x232 DUP4 PUSH2 0x15F JUMP JUMPDEST SWAP3 POP DUP3 PUSH2 0x242 JUMPI PUSH2 0x241 PUSH2 0x1F0 JUMP JUMPDEST JUMPDEST DUP3 DUP3 DIV SWAP1 POP SWAP3 SWAP2 POP POP JUMP JUMPDEST PUSH0 DUP2 ISZERO ISZERO SWAP1 POP SWAP2 SWAP1 POP JUMP JUMPDEST PUSH2 0x261 DUP2 PUSH2 0x24D JUMP JUMPDEST DUP3 MSTORE POP POP JUMP JUMPDEST PUSH0 PUSH1 0x20 DUP3 ADD SWAP1 POP PUSH2 0x27A PUSH0 DUP4 ADD DUP5 PUSH2 0x258 JUMP JUMPDEST SWAP3 SWAP2 POP POP JUMP JUMPDEST PUSH0 PUSH0 REVERT JUMPDEST PUSH2 0x28D DUP2 PUSH2 0x24D JUMP JUMPDEST DUP2 EQ PUSH2 0x297 JUMPI PUSH0 PUSH0 REVERT JUMPDEST POP JUMP JUMPDEST PUSH0 DUP2 MLOAD SWAP1 POP PUSH2 0x2A8 DUP2 PUSH2 0x284 JUMP JUMPDEST SWAP3 SWAP2 POP POP JUMP JUMPDEST PUSH0 PUSH1 0x20 DUP3 DUP5 SUB SLT ISZERO PUSH2 0x2C3 JUMPI PUSH2 0x2C2 PUSH2 0x280 JUMP JUMPDEST JUMPDEST PUSH0 PUSH2 0x2D0 DUP5 DUP3 DUP6 ADD PUSH2 0x29A JUMP JUMPDEST SWAP2 POP POP SWAP3 SWAP2 POP POP JUMP JUMPDEST PUSH0 PUSH2 0x2E3 DUP3 PUSH2 0x15F JUMP JUMPDEST SWAP2 POP PUSH32 0xFFFFFFFFFFFFFFFFFFFFFFFFFFFFFFFFFFFFFFFFFFFFFFFFFFFFFFFFFFFFFFFF DUP3 SUB PUSH2 0x315 JUMPI PUSH2 0x314 PUSH2 0x190 JUMP JUMPDEST JUMPDEST PUSH1 0x1 DUP3 ADD SWAP1 POP SWAP2 SWAP1 POP JUMP INVALID LOG2 PUSH5 0x6970667358 0x22 SLT KECCAK256 0xCF PUSH3 0x77333B RETURN ISZERO 0xF AND DUP13 RJUMPI 0x3DD3 0xC9 0xCB BASEFEE SWAP9 0xC8 PC 0xAD SWAP2 ADDMOD EXTCALL EXTCALL SSTORE JUMPF 0x8F05 0xC3 GAS CODESIZE TIMESTAMP PUSH5 0x736F6C6343 STOP ADDMOD 0x22 STOP CALLER "
				},
				"gasEstimates": {
					"creation": {
						"codeDepositCost": "170800",
						"executionCost": "46584",
						"totalCost": "217384"
					},
					"external": {
						"consecutiveWins()": "2424",
						"myGuess()": "infinite"
					}
				},
				"methodIdentifiers": {
					"consecutiveWins()": "e6f334d7",
					"myGuess()": "12c376a5"
				}
			},
			"storageLayout": {
				"storage": [
					{
						"astId": 83,
						"contract": "exersice.sol:attackCoinflip",
						"label": "consecutiveWins",
						"offset": 0,
						"slot": "0",
						"type": "t_uint256"
					},
					{
						"astId": 86,
						"contract": "exersice.sol:attackCoinflip",
						"label": "FACTOR",
						"offset": 0,
						"slot": "1",
						"type": "t_uint256"
					},
					{
						"astId": 88,
						"contract": "exersice.sol:attackCoinflip",
						"label": "coin",
						"offset": 0,
						"slot": "2",
						"type": "t_address"
					}
				],
				"types": {
					"t_address": {
						"encoding": "inplace",
						"label": "address",
						"numberOfBytes": "20"
					},
					"t_uint256": {
						"encoding": "inplace",
						"label": "uint256",
						"numberOfBytes": "32"
					}
				}
			},
			"userdoc": {
				"kind": "user",
				"methods": {},
				"version": 1
			}
		}
	}
}