{
	"fundme/fundme.sol": {
		"Fundme": {
			"abi": [
				{
					"inputs": [
						{
							"internalType": "address",
							"name": "",
							"type": "address"
						}
					],
					"name": "addressToAmountFunded",
					"outputs": [
						{
							"internalType": "uint256",
							"name": "",
							"type": "uint256"
						}
					],
					"stateMutability": "view",
					"type": "function"
				},
				{
					"inputs": [
						{
							"internalType": "uint256",
							"name": "",
							"type": "uint256"
						}
					],
					"name": "funders",
					"outputs": [
						{
							"internalType": "address",
							"name": "",
							"type": "address"
						}
					],
					"stateMutability": "view",
					"type": "function"
				},
				{
					"inputs": [],
					"name": "fundme",
					"outputs": [],
					"stateMutability": "payable",
					"type": "function"
				}
			],
			"devdoc": {
				"kind": "dev",
				"methods": {},
				"version": 1
			},
			"evm": {
				"assembly": "    /* \"fundme/fundme.sol\":246:1273  contract Fundme{... */\n  mstore(0x40, 0x80)\n  callvalue\n  dup1\n  iszero\n  tag_1\n  jumpi\n  revert(0x00, 0x00)\ntag_1:\n  pop\n  dataSize(sub_0)\n  dup1\n  dataOffset(sub_0)\n  0x00\n  codecopy\n  0x00\n  return\nstop\n\nsub_0: assembly {\n        /* \"fundme/fundme.sol\":246:1273  contract Fundme{... */\n      mstore(0x40, 0x80)\n      jumpi(tag_1, lt(calldatasize, 0x04))\n      shr(0xe0, calldataload(0x00))\n      dup1\n      0x3e47d6f3\n      eq\n      tag_2\n      jumpi\n      dup1\n      0xd1d9165d\n      eq\n      tag_3\n      jumpi\n      dup1\n      0xdc0d3dff\n      eq\n      tag_4\n      jumpi\n    tag_1:\n      revert(0x00, 0x00)\n        /* \"fundme/fundme.sol\":520:578  mapping ( address => uint256) public addressToAmountFunded */\n    tag_2:\n      callvalue\n      dup1\n      iszero\n      tag_5\n      jumpi\n      revert(0x00, 0x00)\n    tag_5:\n      pop\n      tag_6\n      0x04\n      dup1\n      calldatasize\n      sub\n      dup2\n      add\n      swap1\n      tag_7\n      swap2\n      swap1\n      tag_8\n      jump\t// in\n    tag_7:\n      tag_9\n      jump\t// in\n    tag_6:\n      mload(0x40)\n      tag_10\n      swap2\n      swap1\n      tag_11\n      jump\t// in\n    tag_10:\n      mload(0x40)\n      dup1\n      swap2\n      sub\n      swap1\n      return\n        /* \"fundme/fundme.sol\":651:1264  function fundme() public payable {... */\n    tag_3:\n      tag_12\n      tag_13\n      jump\t// in\n    tag_12:\n      stop\n        /* \"fundme/fundme.sol\":493:517  address[] public funders */\n    tag_4:\n      callvalue\n      dup1\n      iszero\n      tag_14\n      jumpi\n      revert(0x00, 0x00)\n    tag_14:\n      pop\n      tag_15\n      0x04\n      dup1\n      calldatasize\n      sub\n      dup2\n      add\n      swap1\n      tag_16\n      swap2\n      swap1\n      tag_17\n      jump\t// in\n    tag_16:\n      tag_18\n      jump\t// in\n    tag_15:\n      mload(0x40)\n      tag_19\n      swap2\n      swap1\n      tag_20\n      jump\t// in\n    tag_19:\n      mload(0x40)\n      dup1\n      swap2\n      sub\n      swap1\n      return\n        /* \"fundme/fundme.sol\":520:578  mapping ( address => uint256) public addressToAmountFunded */\n    tag_9:\n      mstore(0x20, 0x01)\n      dup1\n      0x00\n      mstore\n      keccak256(0x00, 0x40)\n      0x00\n      swap2\n      pop\n      swap1\n      pop\n      sload\n      dup2\n      jump\t// out\n        /* \"fundme/fundme.sol\":651:1264  function fundme() public payable {... */\n    tag_13:\n        /* \"fundme/fundme.sol\":743:758  uint256 minimum */\n      0x00\n        /* \"fundme/fundme.sol\":761:765  5e18 */\n      0x4563918244f40000\n        /* \"fundme/fundme.sol\":743:765  uint256 minimum = 5e18 */\n      swap1\n      pop\n        /* \"fundme/fundme.sol\":1036:1043  minimum */\n      dup1\n        /* \"fundme/fundme.sol\":1004:1033  msg.value.getConvertionRate() */\n      tag_22\n        /* \"fundme/fundme.sol\":1004:1013  msg.value */\n      callvalue\n        /* \"fundme/fundme.sol\":1004:1031  msg.value.getConvertionRate */\n      tag_23\n        /* \"fundme/fundme.sol\":1004:1033  msg.value.getConvertionRate() */\n      jump\t// in\n    tag_22:\n        /* \"fundme/fundme.sol\":1004:1043  msg.value.getConvertionRate() > minimum */\n      gt\n        /* \"fundme/fundme.sol\":996:1072  require(msg.value.getConvertionRate() > minimum,'please increase the value') */\n      tag_24\n      jumpi\n      mload(0x40)\n      0x08c379a000000000000000000000000000000000000000000000000000000000\n      dup2\n      mstore\n      0x04\n      add\n      tag_25\n      swap1\n      tag_26\n      jump\t// in\n    tag_25:\n      mload(0x40)\n      dup1\n      swap2\n      sub\n      swap1\n      revert\n    tag_24:\n        /* \"fundme/fundme.sol\":1114:1123  msg.value */\n      callvalue\n        /* \"fundme/fundme.sol\":1077:1098  addressToAmountFunded */\n      0x01\n        /* \"fundme/fundme.sol\":1077:1110  addressToAmountFunded[msg.sender] */\n      0x00\n        /* \"fundme/fundme.sol\":1099:1109  msg.sender */\n      caller\n        /* \"fundme/fundme.sol\":1077:1110  addressToAmountFunded[msg.sender] */\n      0xffffffffffffffffffffffffffffffffffffffff\n      and\n      0xffffffffffffffffffffffffffffffffffffffff\n      and\n      dup2\n      mstore\n      0x20\n      add\n      swap1\n      dup2\n      mstore\n      0x20\n      add\n      0x00\n      keccak256\n      0x00\n        /* \"fundme/fundme.sol\":1077:1123  addressToAmountFunded[msg.sender] += msg.value */\n      dup3\n      dup3\n      sload\n      tag_27\n      swap2\n      swap1\n      tag_28\n      jump\t// in\n    tag_27:\n      swap3\n      pop\n      pop\n      dup2\n      swap1\n      sstore\n      pop\n        /* \"fundme/fundme.sol\":1127:1134  funders */\n      0x00\n        /* \"fundme/fundme.sol\":1140:1150  msg.sender */\n      caller\n        /* \"fundme/fundme.sol\":1127:1151  funders.push(msg.sender) */\n      swap1\n      dup1\n      0x01\n      dup2\n      sload\n      add\n      dup1\n      dup3\n      sstore\n      dup1\n      swap2\n      pop\n      pop\n      0x01\n      swap1\n      sub\n      swap1\n      0x00\n      mstore\n      keccak256(0x00, 0x20)\n      add\n      0x00\n      swap1\n      swap2\n      swap1\n      swap2\n      swap1\n      swap2\n      0x0100\n      exp\n      dup2\n      sload\n      dup2\n      0xffffffffffffffffffffffffffffffffffffffff\n      mul\n      not\n      and\n      swap1\n      dup4\n      0xffffffffffffffffffffffffffffffffffffffff\n      and\n      mul\n      or\n      swap1\n      sstore\n      pop\n        /* \"fundme/fundme.sol\":684:1264  {... */\n      pop\n        /* \"fundme/fundme.sol\":651:1264  function fundme() public payable {... */\n      jump\t// out\n        /* \"fundme/fundme.sol\":493:517  address[] public funders */\n    tag_18:\n      0x00\n      dup2\n      dup2\n      sload\n      dup2\n      lt\n      tag_30\n      jumpi\n      0x00\n      dup1\n      revert\n    tag_30:\n      swap1\n      0x00\n      mstore\n      keccak256(0x00, 0x20)\n      add\n      0x00\n      swap2\n      pop\n      sload\n      swap1\n      0x0100\n      exp\n      swap1\n      div\n      0xffffffffffffffffffffffffffffffffffffffff\n      and\n      dup2\n      jump\t// out\n        /* \"fundme/lib.sol\":881:1106  function getConvertionRate(... */\n    tag_23:\n        /* \"fundme/lib.sol\":964:971  uint256 */\n      0x00\n        /* \"fundme/lib.sol\":983:996  uint256 price */\n      0x00\n        /* \"fundme/lib.sol\":999:1009  getPrice() */\n      tag_33\n        /* \"fundme/lib.sol\":999:1007  getPrice */\n      tag_34\n        /* \"fundme/lib.sol\":999:1009  getPrice() */\n      jump\t// in\n    tag_33:\n        /* \"fundme/lib.sol\":983:1009  uint256 price = getPrice() */\n      swap1\n      pop\n        /* \"fundme/lib.sol\":1020:1040  uint256 ethamountUsd */\n      0x00\n        /* \"fundme/lib.sol\":1065:1069  1e18 */\n      0x0de0b6b3a7640000\n        /* \"fundme/lib.sol\":1052:1061  ethAmount */\n      dup5\n        /* \"fundme/lib.sol\":1044:1049  price */\n      dup4\n        /* \"fundme/lib.sol\":1044:1061  price * ethAmount */\n      tag_35\n      swap2\n      swap1\n      tag_36\n      jump\t// in\n    tag_35:\n        /* \"fundme/lib.sol\":1043:1069  (price * ethAmount) / 1e18 */\n      tag_37\n      swap2\n      swap1\n      tag_38\n      jump\t// in\n    tag_37:\n        /* \"fundme/lib.sol\":1020:1069  uint256 ethamountUsd = (price * ethAmount) / 1e18 */\n      swap1\n      pop\n        /* \"fundme/lib.sol\":1087:1099  ethamountUsd */\n      dup1\n        /* \"fundme/lib.sol\":1080:1099  return ethamountUsd */\n      swap3\n      pop\n      pop\n      pop\n        /* \"fundme/lib.sol\":881:1106  function getConvertionRate(... */\n      swap2\n      swap1\n      pop\n      jump\t// out\n        /* \"fundme/lib.sol\":269:875  function getPrice() internal view returns (uint256) {... */\n    tag_34:\n        /* \"fundme/lib.sol\":312:319  uint256 */\n      0x00\n        /* \"fundme/lib.sol\":499:530  AggregatorV3Interface pricefeed */\n      0x00\n        /* \"fundme/lib.sol\":568:610  0x694AA1769357215DE4FAC081bf1f309aDC325306 */\n      0x694aa1769357215de4fac081bf1f309adc325306\n        /* \"fundme/lib.sol\":499:620  AggregatorV3Interface pricefeed = AggregatorV3Interface(... */\n      swap1\n      pop\n        /* \"fundme/lib.sol\":780:792  int256 price */\n      0x00\n        /* \"fundme/lib.sol\":802:811  pricefeed */\n      dup2\n        /* \"fundme/lib.sol\":802:827  pricefeed.latestRoundData */\n      0xffffffffffffffffffffffffffffffffffffffff\n      and\n      0xfeaf968c\n        /* \"fundme/lib.sol\":802:829  pricefeed.latestRoundData() */\n      mload(0x40)\n      dup2\n      0xffffffff\n      and\n      0xe0\n      shl\n      dup2\n      mstore\n      0x04\n      add\n      0xa0\n      mload(0x40)\n      dup1\n      dup4\n      sub\n      dup2\n      dup7\n      gas\n      staticcall\n      iszero\n      dup1\n      iszero\n      tag_41\n      jumpi\n      returndatacopy(0x00, 0x00, returndatasize)\n      revert(0x00, returndatasize)\n    tag_41:\n      pop\n      pop\n      pop\n      pop\n      mload(0x40)\n      returndatasize\n      not(0x1f)\n      0x1f\n      dup3\n      add\n      and\n      dup3\n      add\n      dup1\n      0x40\n      mstore\n      pop\n      dup2\n      add\n      swap1\n      tag_42\n      swap2\n      swap1\n      tag_43\n      jump\t// in\n    tag_42:\n        /* \"fundme/lib.sol\":777:829  (, int256 price, , , ) = pricefeed.latestRoundData() */\n      pop\n      pop\n      pop\n      swap2\n      pop\n      pop\n        /* \"fundme/lib.sol\":863:867  1e10 */\n      0x02540be400\n        /* \"fundme/lib.sol\":855:860  price */\n      dup2\n        /* \"fundme/lib.sol\":855:867  price * 1e10 */\n      tag_44\n      swap2\n      swap1\n      tag_45\n      jump\t// in\n    tag_44:\n        /* \"fundme/lib.sol\":840:868  return uint256(price * 1e10) */\n      swap3\n      pop\n      pop\n      pop\n        /* \"fundme/lib.sol\":269:875  function getPrice() internal view returns (uint256) {... */\n      swap1\n      jump\t// out\n        /* \"#utility.yul\":88:205   */\n    tag_47:\n        /* \"#utility.yul\":197:198   */\n      0x00\n        /* \"#utility.yul\":194:195   */\n      0x00\n        /* \"#utility.yul\":187:199   */\n      revert\n        /* \"#utility.yul\":334:460   */\n    tag_49:\n        /* \"#utility.yul\":371:378   */\n      0x00\n        /* \"#utility.yul\":411:453   */\n      0xffffffffffffffffffffffffffffffffffffffff\n        /* \"#utility.yul\":404:409   */\n      dup3\n        /* \"#utility.yul\":400:454   */\n      and\n        /* \"#utility.yul\":389:454   */\n      swap1\n      pop\n        /* \"#utility.yul\":334:460   */\n      swap2\n      swap1\n      pop\n      jump\t// out\n        /* \"#utility.yul\":466:562   */\n    tag_50:\n        /* \"#utility.yul\":503:510   */\n      0x00\n        /* \"#utility.yul\":532:556   */\n      tag_76\n        /* \"#utility.yul\":550:555   */\n      dup3\n        /* \"#utility.yul\":532:556   */\n      tag_49\n      jump\t// in\n    tag_76:\n        /* \"#utility.yul\":521:556   */\n      swap1\n      pop\n        /* \"#utility.yul\":466:562   */\n      swap2\n      swap1\n      pop\n      jump\t// out\n        /* \"#utility.yul\":568:690   */\n    tag_51:\n        /* \"#utility.yul\":641:665   */\n      tag_78\n        /* \"#utility.yul\":659:664   */\n      dup2\n        /* \"#utility.yul\":641:665   */\n      tag_50\n      jump\t// in\n    tag_78:\n        /* \"#utility.yul\":634:639   */\n      dup2\n        /* \"#utility.yul\":631:666   */\n      eq\n        /* \"#utility.yul\":621:684   */\n      tag_79\n      jumpi\n        /* \"#utility.yul\":680:681   */\n      0x00\n        /* \"#utility.yul\":677:678   */\n      0x00\n        /* \"#utility.yul\":670:682   */\n      revert\n        /* \"#utility.yul\":621:684   */\n    tag_79:\n        /* \"#utility.yul\":568:690   */\n      pop\n      jump\t// out\n        /* \"#utility.yul\":696:835   */\n    tag_52:\n        /* \"#utility.yul\":742:747   */\n      0x00\n        /* \"#utility.yul\":780:786   */\n      dup2\n        /* \"#utility.yul\":767:787   */\n      calldataload\n        /* \"#utility.yul\":758:787   */\n      swap1\n      pop\n        /* \"#utility.yul\":796:829   */\n      tag_81\n        /* \"#utility.yul\":823:828   */\n      dup2\n        /* \"#utility.yul\":796:829   */\n      tag_51\n      jump\t// in\n    tag_81:\n        /* \"#utility.yul\":696:835   */\n      swap3\n      swap2\n      pop\n      pop\n      jump\t// out\n        /* \"#utility.yul\":841:1170   */\n    tag_8:\n        /* \"#utility.yul\":900:906   */\n      0x00\n        /* \"#utility.yul\":949:951   */\n      0x20\n        /* \"#utility.yul\":937:946   */\n      dup3\n        /* \"#utility.yul\":928:935   */\n      dup5\n        /* \"#utility.yul\":924:947   */\n      sub\n        /* \"#utility.yul\":920:952   */\n      slt\n        /* \"#utility.yul\":917:1036   */\n      iszero\n      tag_83\n      jumpi\n        /* \"#utility.yul\":955:1034   */\n      tag_84\n      tag_47\n      jump\t// in\n    tag_84:\n        /* \"#utility.yul\":917:1036   */\n    tag_83:\n        /* \"#utility.yul\":1075:1076   */\n      0x00\n        /* \"#utility.yul\":1100:1153   */\n      tag_85\n        /* \"#utility.yul\":1145:1152   */\n      dup5\n        /* \"#utility.yul\":1136:1142   */\n      dup3\n        /* \"#utility.yul\":1125:1134   */\n      dup6\n        /* \"#utility.yul\":1121:1143   */\n      add\n        /* \"#utility.yul\":1100:1153   */\n      tag_52\n      jump\t// in\n    tag_85:\n        /* \"#utility.yul\":1090:1153   */\n      swap2\n      pop\n        /* \"#utility.yul\":1046:1163   */\n      pop\n        /* \"#utility.yul\":841:1170   */\n      swap3\n      swap2\n      pop\n      pop\n      jump\t// out\n        /* \"#utility.yul\":1176:1253   */\n    tag_53:\n        /* \"#utility.yul\":1213:1220   */\n      0x00\n        /* \"#utility.yul\":1242:1247   */\n      dup2\n        /* \"#utility.yul\":1231:1247   */\n      swap1\n      pop\n        /* \"#utility.yul\":1176:1253   */\n      swap2\n      swap1\n      pop\n      jump\t// out\n        /* \"#utility.yul\":1259:1377   */\n    tag_54:\n        /* \"#utility.yul\":1346:1370   */\n      tag_88\n        /* \"#utility.yul\":1364:1369   */\n      dup2\n        /* \"#utility.yul\":1346:1370   */\n      tag_53\n      jump\t// in\n    tag_88:\n        /* \"#utility.yul\":1341:1344   */\n      dup3\n        /* \"#utility.yul\":1334:1371   */\n      mstore\n        /* \"#utility.yul\":1259:1377   */\n      pop\n      pop\n      jump\t// out\n        /* \"#utility.yul\":1383:1605   */\n    tag_11:\n        /* \"#utility.yul\":1476:1480   */\n      0x00\n        /* \"#utility.yul\":1514:1516   */\n      0x20\n        /* \"#utility.yul\":1503:1512   */\n      dup3\n        /* \"#utility.yul\":1499:1517   */\n      add\n        /* \"#utility.yul\":1491:1517   */\n      swap1\n      pop\n        /* \"#utility.yul\":1527:1598   */\n      tag_90\n        /* \"#utility.yul\":1595:1596   */\n      0x00\n        /* \"#utility.yul\":1584:1593   */\n      dup4\n        /* \"#utility.yul\":1580:1597   */\n      add\n        /* \"#utility.yul\":1571:1577   */\n      dup5\n        /* \"#utility.yul\":1527:1598   */\n      tag_54\n      jump\t// in\n    tag_90:\n        /* \"#utility.yul\":1383:1605   */\n      swap3\n      swap2\n      pop\n      pop\n      jump\t// out\n        /* \"#utility.yul\":1611:1733   */\n    tag_55:\n        /* \"#utility.yul\":1684:1708   */\n      tag_92\n        /* \"#utility.yul\":1702:1707   */\n      dup2\n        /* \"#utility.yul\":1684:1708   */\n      tag_53\n      jump\t// in\n    tag_92:\n        /* \"#utility.yul\":1677:1682   */\n      dup2\n        /* \"#utility.yul\":1674:1709   */\n      eq\n        /* \"#utility.yul\":1664:1727   */\n      tag_93\n      jumpi\n        /* \"#utility.yul\":1723:1724   */\n      0x00\n        /* \"#utility.yul\":1720:1721   */\n      0x00\n        /* \"#utility.yul\":1713:1725   */\n      revert\n        /* \"#utility.yul\":1664:1727   */\n    tag_93:\n        /* \"#utility.yul\":1611:1733   */\n      pop\n      jump\t// out\n        /* \"#utility.yul\":1739:1878   */\n    tag_56:\n        /* \"#utility.yul\":1785:1790   */\n      0x00\n        /* \"#utility.yul\":1823:1829   */\n      dup2\n        /* \"#utility.yul\":1810:1830   */\n      calldataload\n        /* \"#utility.yul\":1801:1830   */\n      swap1\n      pop\n        /* \"#utility.yul\":1839:1872   */\n      tag_95\n        /* \"#utility.yul\":1866:1871   */\n      dup2\n        /* \"#utility.yul\":1839:1872   */\n      tag_55\n      jump\t// in\n    tag_95:\n        /* \"#utility.yul\":1739:1878   */\n      swap3\n      swap2\n      pop\n      pop\n      jump\t// out\n        /* \"#utility.yul\":1884:2213   */\n    tag_17:\n        /* \"#utility.yul\":1943:1949   */\n      0x00\n        /* \"#utility.yul\":1992:1994   */\n      0x20\n        /* \"#utility.yul\":1980:1989   */\n      dup3\n        /* \"#utility.yul\":1971:1978   */\n      dup5\n        /* \"#utility.yul\":1967:1990   */\n      sub\n        /* \"#utility.yul\":1963:1995   */\n      slt\n        /* \"#utility.yul\":1960:2079   */\n      iszero\n      tag_97\n      jumpi\n        /* \"#utility.yul\":1998:2077   */\n      tag_98\n      tag_47\n      jump\t// in\n    tag_98:\n        /* \"#utility.yul\":1960:2079   */\n    tag_97:\n        /* \"#utility.yul\":2118:2119   */\n      0x00\n        /* \"#utility.yul\":2143:2196   */\n      tag_99\n        /* \"#utility.yul\":2188:2195   */\n      dup5\n        /* \"#utility.yul\":2179:2185   */\n      dup3\n        /* \"#utility.yul\":2168:2177   */\n      dup6\n        /* \"#utility.yul\":2164:2186   */\n      add\n        /* \"#utility.yul\":2143:2196   */\n      tag_56\n      jump\t// in\n    tag_99:\n        /* \"#utility.yul\":2133:2196   */\n      swap2\n      pop\n        /* \"#utility.yul\":2089:2206   */\n      pop\n        /* \"#utility.yul\":1884:2213   */\n      swap3\n      swap2\n      pop\n      pop\n      jump\t// out\n        /* \"#utility.yul\":2219:2337   */\n    tag_57:\n        /* \"#utility.yul\":2306:2330   */\n      tag_101\n        /* \"#utility.yul\":2324:2329   */\n      dup2\n        /* \"#utility.yul\":2306:2330   */\n      tag_50\n      jump\t// in\n    tag_101:\n        /* \"#utility.yul\":2301:2304   */\n      dup3\n        /* \"#utility.yul\":2294:2331   */\n      mstore\n        /* \"#utility.yul\":2219:2337   */\n      pop\n      pop\n      jump\t// out\n        /* \"#utility.yul\":2343:2565   */\n    tag_20:\n        /* \"#utility.yul\":2436:2440   */\n      0x00\n        /* \"#utility.yul\":2474:2476   */\n      0x20\n        /* \"#utility.yul\":2463:2472   */\n      dup3\n        /* \"#utility.yul\":2459:2477   */\n      add\n        /* \"#utility.yul\":2451:2477   */\n      swap1\n      pop\n        /* \"#utility.yul\":2487:2558   */\n      tag_103\n        /* \"#utility.yul\":2555:2556   */\n      0x00\n        /* \"#utility.yul\":2544:2553   */\n      dup4\n        /* \"#utility.yul\":2540:2557   */\n      add\n        /* \"#utility.yul\":2531:2537   */\n      dup5\n        /* \"#utility.yul\":2487:2558   */\n      tag_57\n      jump\t// in\n    tag_103:\n        /* \"#utility.yul\":2343:2565   */\n      swap3\n      swap2\n      pop\n      pop\n      jump\t// out\n        /* \"#utility.yul\":2571:2740   */\n    tag_58:\n        /* \"#utility.yul\":2655:2666   */\n      0x00\n        /* \"#utility.yul\":2689:2695   */\n      dup3\n        /* \"#utility.yul\":2684:2687   */\n      dup3\n        /* \"#utility.yul\":2677:2696   */\n      mstore\n        /* \"#utility.yul\":2729:2733   */\n      0x20\n        /* \"#utility.yul\":2724:2727   */\n      dup3\n        /* \"#utility.yul\":2720:2734   */\n      add\n        /* \"#utility.yul\":2705:2734   */\n      swap1\n      pop\n        /* \"#utility.yul\":2571:2740   */\n      swap3\n      swap2\n      pop\n      pop\n      jump\t// out\n        /* \"#utility.yul\":2746:2921   */\n    tag_59:\n        /* \"#utility.yul\":2886:2913   */\n      0x706c6561736520696e637265617365207468652076616c756500000000000000\n        /* \"#utility.yul\":2882:2883   */\n      0x00\n        /* \"#utility.yul\":2874:2880   */\n      dup3\n        /* \"#utility.yul\":2870:2884   */\n      add\n        /* \"#utility.yul\":2863:2914   */\n      mstore\n        /* \"#utility.yul\":2746:2921   */\n      pop\n      jump\t// out\n        /* \"#utility.yul\":2927:3293   */\n    tag_60:\n        /* \"#utility.yul\":3069:3072   */\n      0x00\n        /* \"#utility.yul\":3090:3157   */\n      tag_107\n        /* \"#utility.yul\":3154:3156   */\n      0x19\n        /* \"#utility.yul\":3149:3152   */\n      dup4\n        /* \"#utility.yul\":3090:3157   */\n      tag_58\n      jump\t// in\n    tag_107:\n        /* \"#utility.yul\":3083:3157   */\n      swap2\n      pop\n        /* \"#utility.yul\":3166:3259   */\n      tag_108\n        /* \"#utility.yul\":3255:3258   */\n      dup3\n        /* \"#utility.yul\":3166:3259   */\n      tag_59\n      jump\t// in\n    tag_108:\n        /* \"#utility.yul\":3284:3286   */\n      0x20\n        /* \"#utility.yul\":3279:3282   */\n      dup3\n        /* \"#utility.yul\":3275:3287   */\n      add\n        /* \"#utility.yul\":3268:3287   */\n      swap1\n      pop\n        /* \"#utility.yul\":2927:3293   */\n      swap2\n      swap1\n      pop\n      jump\t// out\n        /* \"#utility.yul\":3299:3718   */\n    tag_26:\n        /* \"#utility.yul\":3465:3469   */\n      0x00\n        /* \"#utility.yul\":3503:3505   */\n      0x20\n        /* \"#utility.yul\":3492:3501   */\n      dup3\n        /* \"#utility.yul\":3488:3506   */\n      add\n        /* \"#utility.yul\":3480:3506   */\n      swap1\n      pop\n        /* \"#utility.yul\":3552:3561   */\n      dup2\n        /* \"#utility.yul\":3546:3550   */\n      dup2\n        /* \"#utility.yul\":3542:3562   */\n      sub\n        /* \"#utility.yul\":3538:3539   */\n      0x00\n        /* \"#utility.yul\":3527:3536   */\n      dup4\n        /* \"#utility.yul\":3523:3540   */\n      add\n        /* \"#utility.yul\":3516:3563   */\n      mstore\n        /* \"#utility.yul\":3580:3711   */\n      tag_110\n        /* \"#utility.yul\":3706:3710   */\n      dup2\n        /* \"#utility.yul\":3580:3711   */\n      tag_60\n      jump\t// in\n    tag_110:\n        /* \"#utility.yul\":3572:3711   */\n      swap1\n      pop\n        /* \"#utility.yul\":3299:3718   */\n      swap2\n      swap1\n      pop\n      jump\t// out\n        /* \"#utility.yul\":3724:3904   */\n    tag_61:\n        /* \"#utility.yul\":3772:3849   */\n      0x4e487b7100000000000000000000000000000000000000000000000000000000\n        /* \"#utility.yul\":3769:3770   */\n      0x00\n        /* \"#utility.yul\":3762:3850   */\n      mstore\n        /* \"#utility.yul\":3869:3873   */\n      0x11\n        /* \"#utility.yul\":3866:3867   */\n      0x04\n        /* \"#utility.yul\":3859:3874   */\n      mstore\n        /* \"#utility.yul\":3893:3897   */\n      0x24\n        /* \"#utility.yul\":3890:3891   */\n      0x00\n        /* \"#utility.yul\":3883:3898   */\n      revert\n        /* \"#utility.yul\":3910:4101   */\n    tag_28:\n        /* \"#utility.yul\":3950:3953   */\n      0x00\n        /* \"#utility.yul\":3969:3989   */\n      tag_113\n        /* \"#utility.yul\":3987:3988   */\n      dup3\n        /* \"#utility.yul\":3969:3989   */\n      tag_53\n      jump\t// in\n    tag_113:\n        /* \"#utility.yul\":3964:3989   */\n      swap2\n      pop\n        /* \"#utility.yul\":4003:4023   */\n      tag_114\n        /* \"#utility.yul\":4021:4022   */\n      dup4\n        /* \"#utility.yul\":4003:4023   */\n      tag_53\n      jump\t// in\n    tag_114:\n        /* \"#utility.yul\":3998:4023   */\n      swap3\n      pop\n        /* \"#utility.yul\":4046:4047   */\n      dup3\n        /* \"#utility.yul\":4043:4044   */\n      dup3\n        /* \"#utility.yul\":4039:4048   */\n      add\n        /* \"#utility.yul\":4032:4048   */\n      swap1\n      pop\n        /* \"#utility.yul\":4067:4070   */\n      dup1\n        /* \"#utility.yul\":4064:4065   */\n      dup3\n        /* \"#utility.yul\":4061:4071   */\n      gt\n        /* \"#utility.yul\":4058:4094   */\n      iszero\n      tag_115\n      jumpi\n        /* \"#utility.yul\":4074:4092   */\n      tag_116\n      tag_61\n      jump\t// in\n    tag_116:\n        /* \"#utility.yul\":4058:4094   */\n    tag_115:\n        /* \"#utility.yul\":3910:4101   */\n      swap3\n      swap2\n      pop\n      pop\n      jump\t// out\n        /* \"#utility.yul\":4107:4517   */\n    tag_36:\n        /* \"#utility.yul\":4147:4154   */\n      0x00\n        /* \"#utility.yul\":4170:4190   */\n      tag_118\n        /* \"#utility.yul\":4188:4189   */\n      dup3\n        /* \"#utility.yul\":4170:4190   */\n      tag_53\n      jump\t// in\n    tag_118:\n        /* \"#utility.yul\":4165:4190   */\n      swap2\n      pop\n        /* \"#utility.yul\":4204:4224   */\n      tag_119\n        /* \"#utility.yul\":4222:4223   */\n      dup4\n        /* \"#utility.yul\":4204:4224   */\n      tag_53\n      jump\t// in\n    tag_119:\n        /* \"#utility.yul\":4199:4224   */\n      swap3\n      pop\n        /* \"#utility.yul\":4259:4260   */\n      dup3\n        /* \"#utility.yul\":4256:4257   */\n      dup3\n        /* \"#utility.yul\":4252:4261   */\n      mul\n        /* \"#utility.yul\":4281:4311   */\n      tag_120\n        /* \"#utility.yul\":4299:4310   */\n      dup2\n        /* \"#utility.yul\":4281:4311   */\n      tag_53\n      jump\t// in\n    tag_120:\n        /* \"#utility.yul\":4270:4311   */\n      swap2\n      pop\n        /* \"#utility.yul\":4460:4461   */\n      dup3\n        /* \"#utility.yul\":4451:4458   */\n      dup3\n        /* \"#utility.yul\":4447:4462   */\n      div\n        /* \"#utility.yul\":4444:4445   */\n      dup5\n        /* \"#utility.yul\":4441:4463   */\n      eq\n        /* \"#utility.yul\":4421:4422   */\n      dup4\n        /* \"#utility.yul\":4414:4423   */\n      iszero\n        /* \"#utility.yul\":4394:4477   */\n      or\n        /* \"#utility.yul\":4371:4510   */\n      tag_121\n      jumpi\n        /* \"#utility.yul\":4490:4508   */\n      tag_122\n      tag_61\n      jump\t// in\n    tag_122:\n        /* \"#utility.yul\":4371:4510   */\n    tag_121:\n        /* \"#utility.yul\":4155:4517   */\n      pop\n        /* \"#utility.yul\":4107:4517   */\n      swap3\n      swap2\n      pop\n      pop\n      jump\t// out\n        /* \"#utility.yul\":4523:4703   */\n    tag_62:\n        /* \"#utility.yul\":4571:4648   */\n      0x4e487b7100000000000000000000000000000000000000000000000000000000\n        /* \"#utility.yul\":4568:4569   */\n      0x00\n        /* \"#utility.yul\":4561:4649   */\n      mstore\n        /* \"#utility.yul\":4668:4672   */\n      0x12\n        /* \"#utility.yul\":4665:4666   */\n      0x04\n        /* \"#utility.yul\":4658:4673   */\n      mstore\n        /* \"#utility.yul\":4692:4696   */\n      0x24\n        /* \"#utility.yul\":4689:4690   */\n      0x00\n        /* \"#utility.yul\":4682:4697   */\n      revert\n        /* \"#utility.yul\":4709:4894   */\n    tag_38:\n        /* \"#utility.yul\":4749:4750   */\n      0x00\n        /* \"#utility.yul\":4766:4786   */\n      tag_125\n        /* \"#utility.yul\":4784:4785   */\n      dup3\n        /* \"#utility.yul\":4766:4786   */\n      tag_53\n      jump\t// in\n    tag_125:\n        /* \"#utility.yul\":4761:4786   */\n      swap2\n      pop\n        /* \"#utility.yul\":4800:4820   */\n      tag_126\n        /* \"#utility.yul\":4818:4819   */\n      dup4\n        /* \"#utility.yul\":4800:4820   */\n      tag_53\n      jump\t// in\n    tag_126:\n        /* \"#utility.yul\":4795:4820   */\n      swap3\n      pop\n        /* \"#utility.yul\":4839:4840   */\n      dup3\n        /* \"#utility.yul\":4829:4864   */\n      tag_127\n      jumpi\n        /* \"#utility.yul\":4844:4862   */\n      tag_128\n      tag_62\n      jump\t// in\n    tag_128:\n        /* \"#utility.yul\":4829:4864   */\n    tag_127:\n        /* \"#utility.yul\":4886:4887   */\n      dup3\n        /* \"#utility.yul\":4883:4884   */\n      dup3\n        /* \"#utility.yul\":4879:4888   */\n      div\n        /* \"#utility.yul\":4874:4888   */\n      swap1\n      pop\n        /* \"#utility.yul\":4709:4894   */\n      swap3\n      swap2\n      pop\n      pop\n      jump\t// out\n        /* \"#utility.yul\":4900:5005   */\n    tag_63:\n        /* \"#utility.yul\":4936:4943   */\n      0x00\n        /* \"#utility.yul\":4976:4998   */\n      0xffffffffffffffffffff\n        /* \"#utility.yul\":4969:4974   */\n      dup3\n        /* \"#utility.yul\":4965:4999   */\n      and\n        /* \"#utility.yul\":4954:4999   */\n      swap1\n      pop\n        /* \"#utility.yul\":4900:5005   */\n      swap2\n      swap1\n      pop\n      jump\t// out\n        /* \"#utility.yul\":5011:5131   */\n    tag_64:\n        /* \"#utility.yul\":5083:5106   */\n      tag_131\n        /* \"#utility.yul\":5100:5105   */\n      dup2\n        /* \"#utility.yul\":5083:5106   */\n      tag_63\n      jump\t// in\n    tag_131:\n        /* \"#utility.yul\":5076:5081   */\n      dup2\n        /* \"#utility.yul\":5073:5107   */\n      eq\n        /* \"#utility.yul\":5063:5125   */\n      tag_132\n      jumpi\n        /* \"#utility.yul\":5121:5122   */\n      0x00\n        /* \"#utility.yul\":5118:5119   */\n      0x00\n        /* \"#utility.yul\":5111:5123   */\n      revert\n        /* \"#utility.yul\":5063:5125   */\n    tag_132:\n        /* \"#utility.yul\":5011:5131   */\n      pop\n      jump\t// out\n        /* \"#utility.yul\":5137:5278   */\n    tag_65:\n        /* \"#utility.yul\":5193:5198   */\n      0x00\n        /* \"#utility.yul\":5224:5230   */\n      dup2\n        /* \"#utility.yul\":5218:5231   */\n      mload\n        /* \"#utility.yul\":5209:5231   */\n      swap1\n      pop\n        /* \"#utility.yul\":5240:5272   */\n      tag_134\n        /* \"#utility.yul\":5266:5271   */\n      dup2\n        /* \"#utility.yul\":5240:5272   */\n      tag_64\n      jump\t// in\n    tag_134:\n        /* \"#utility.yul\":5137:5278   */\n      swap3\n      swap2\n      pop\n      pop\n      jump\t// out\n        /* \"#utility.yul\":5284:5360   */\n    tag_66:\n        /* \"#utility.yul\":5320:5327   */\n      0x00\n        /* \"#utility.yul\":5349:5354   */\n      dup2\n        /* \"#utility.yul\":5338:5354   */\n      swap1\n      pop\n        /* \"#utility.yul\":5284:5360   */\n      swap2\n      swap1\n      pop\n      jump\t// out\n        /* \"#utility.yul\":5366:5486   */\n    tag_67:\n        /* \"#utility.yul\":5438:5461   */\n      tag_137\n        /* \"#utility.yul\":5455:5460   */\n      dup2\n        /* \"#utility.yul\":5438:5461   */\n      tag_66\n      jump\t// in\n    tag_137:\n        /* \"#utility.yul\":5431:5436   */\n      dup2\n        /* \"#utility.yul\":5428:5462   */\n      eq\n        /* \"#utility.yul\":5418:5480   */\n      tag_138\n      jumpi\n        /* \"#utility.yul\":5476:5477   */\n      0x00\n        /* \"#utility.yul\":5473:5474   */\n      0x00\n        /* \"#utility.yul\":5466:5478   */\n      revert\n        /* \"#utility.yul\":5418:5480   */\n    tag_138:\n        /* \"#utility.yul\":5366:5486   */\n      pop\n      jump\t// out\n        /* \"#utility.yul\":5492:5633   */\n    tag_68:\n        /* \"#utility.yul\":5548:5553   */\n      0x00\n        /* \"#utility.yul\":5579:5585   */\n      dup2\n        /* \"#utility.yul\":5573:5586   */\n      mload\n        /* \"#utility.yul\":5564:5586   */\n      swap1\n      pop\n        /* \"#utility.yul\":5595:5627   */\n      tag_140\n        /* \"#utility.yul\":5621:5626   */\n      dup2\n        /* \"#utility.yul\":5595:5627   */\n      tag_67\n      jump\t// in\n    tag_140:\n        /* \"#utility.yul\":5492:5633   */\n      swap3\n      swap2\n      pop\n      pop\n      jump\t// out\n        /* \"#utility.yul\":5639:5782   */\n    tag_69:\n        /* \"#utility.yul\":5696:5701   */\n      0x00\n        /* \"#utility.yul\":5727:5733   */\n      dup2\n        /* \"#utility.yul\":5721:5734   */\n      mload\n        /* \"#utility.yul\":5712:5734   */\n      swap1\n      pop\n        /* \"#utility.yul\":5743:5776   */\n      tag_142\n        /* \"#utility.yul\":5770:5775   */\n      dup2\n        /* \"#utility.yul\":5743:5776   */\n      tag_55\n      jump\t// in\n    tag_142:\n        /* \"#utility.yul\":5639:5782   */\n      swap3\n      swap2\n      pop\n      pop\n      jump\t// out\n        /* \"#utility.yul\":5788:6759   */\n    tag_43:\n        /* \"#utility.yul\":5891:5897   */\n      0x00\n        /* \"#utility.yul\":5899:5905   */\n      0x00\n        /* \"#utility.yul\":5907:5913   */\n      0x00\n        /* \"#utility.yul\":5915:5921   */\n      0x00\n        /* \"#utility.yul\":5923:5929   */\n      0x00\n        /* \"#utility.yul\":5972:5975   */\n      0xa0\n        /* \"#utility.yul\":5960:5969   */\n      dup7\n        /* \"#utility.yul\":5951:5958   */\n      dup9\n        /* \"#utility.yul\":5947:5970   */\n      sub\n        /* \"#utility.yul\":5943:5976   */\n      slt\n        /* \"#utility.yul\":5940:6060   */\n      iszero\n      tag_144\n      jumpi\n        /* \"#utility.yul\":5979:6058   */\n      tag_145\n      tag_47\n      jump\t// in\n    tag_145:\n        /* \"#utility.yul\":5940:6060   */\n    tag_144:\n        /* \"#utility.yul\":6099:6100   */\n      0x00\n        /* \"#utility.yul\":6124:6187   */\n      tag_146\n        /* \"#utility.yul\":6179:6186   */\n      dup9\n        /* \"#utility.yul\":6170:6176   */\n      dup3\n        /* \"#utility.yul\":6159:6168   */\n      dup10\n        /* \"#utility.yul\":6155:6177   */\n      add\n        /* \"#utility.yul\":6124:6187   */\n      tag_65\n      jump\t// in\n    tag_146:\n        /* \"#utility.yul\":6114:6187   */\n      swap6\n      pop\n        /* \"#utility.yul\":6070:6197   */\n      pop\n        /* \"#utility.yul\":6236:6238   */\n      0x20\n        /* \"#utility.yul\":6262:6325   */\n      tag_147\n        /* \"#utility.yul\":6317:6324   */\n      dup9\n        /* \"#utility.yul\":6308:6314   */\n      dup3\n        /* \"#utility.yul\":6297:6306   */\n      dup10\n        /* \"#utility.yul\":6293:6315   */\n      add\n        /* \"#utility.yul\":6262:6325   */\n      tag_68\n      jump\t// in\n    tag_147:\n        /* \"#utility.yul\":6252:6325   */\n      swap5\n      pop\n        /* \"#utility.yul\":6207:6335   */\n      pop\n        /* \"#utility.yul\":6374:6376   */\n      0x40\n        /* \"#utility.yul\":6400:6464   */\n      tag_148\n        /* \"#utility.yul\":6456:6463   */\n      dup9\n        /* \"#utility.yul\":6447:6453   */\n      dup3\n        /* \"#utility.yul\":6436:6445   */\n      dup10\n        /* \"#utility.yul\":6432:6454   */\n      add\n        /* \"#utility.yul\":6400:6464   */\n      tag_69\n      jump\t// in\n    tag_148:\n        /* \"#utility.yul\":6390:6464   */\n      swap4\n      pop\n        /* \"#utility.yul\":6345:6474   */\n      pop\n        /* \"#utility.yul\":6513:6515   */\n      0x60\n        /* \"#utility.yul\":6539:6603   */\n      tag_149\n        /* \"#utility.yul\":6595:6602   */\n      dup9\n        /* \"#utility.yul\":6586:6592   */\n      dup3\n        /* \"#utility.yul\":6575:6584   */\n      dup10\n        /* \"#utility.yul\":6571:6593   */\n      add\n        /* \"#utility.yul\":6539:6603   */\n      tag_69\n      jump\t// in\n    tag_149:\n        /* \"#utility.yul\":6529:6603   */\n      swap3\n      pop\n        /* \"#utility.yul\":6484:6613   */\n      pop\n        /* \"#utility.yul\":6652:6655   */\n      0x80\n        /* \"#utility.yul\":6679:6742   */\n      tag_150\n        /* \"#utility.yul\":6734:6741   */\n      dup9\n        /* \"#utility.yul\":6725:6731   */\n      dup3\n        /* \"#utility.yul\":6714:6723   */\n      dup10\n        /* \"#utility.yul\":6710:6732   */\n      add\n        /* \"#utility.yul\":6679:6742   */\n      tag_65\n      jump\t// in\n    tag_150:\n        /* \"#utility.yul\":6669:6742   */\n      swap2\n      pop\n        /* \"#utility.yul\":6623:6752   */\n      pop\n        /* \"#utility.yul\":5788:6759   */\n      swap3\n      swap6\n      pop\n      swap3\n      swap6\n      swap1\n      swap4\n      pop\n      jump\t// out\n        /* \"#utility.yul\":6765:7321   */\n    tag_45:\n        /* \"#utility.yul\":6804:6811   */\n      0x00\n        /* \"#utility.yul\":6827:6846   */\n      tag_152\n        /* \"#utility.yul\":6844:6845   */\n      dup3\n        /* \"#utility.yul\":6827:6846   */\n      tag_66\n      jump\t// in\n    tag_152:\n        /* \"#utility.yul\":6822:6846   */\n      swap2\n      pop\n        /* \"#utility.yul\":6860:6879   */\n      tag_153\n        /* \"#utility.yul\":6877:6878   */\n      dup4\n        /* \"#utility.yul\":6860:6879   */\n      tag_66\n      jump\t// in\n    tag_153:\n        /* \"#utility.yul\":6855:6879   */\n      swap3\n      pop\n        /* \"#utility.yul\":6914:6915   */\n      dup3\n        /* \"#utility.yul\":6911:6912   */\n      dup3\n        /* \"#utility.yul\":6907:6916   */\n      mul\n        /* \"#utility.yul\":6936:6965   */\n      tag_154\n        /* \"#utility.yul\":6953:6964   */\n      dup2\n        /* \"#utility.yul\":6936:6965   */\n      tag_66\n      jump\t// in\n    tag_154:\n        /* \"#utility.yul\":6925:6965   */\n      swap2\n      pop\n        /* \"#utility.yul\":7023:7089   */\n      0x8000000000000000000000000000000000000000000000000000000000000000\n        /* \"#utility.yul\":7020:7021   */\n      dup5\n        /* \"#utility.yul\":7017:7090   */\n      eq\n        /* \"#utility.yul\":7013:7014   */\n      0x00\n        /* \"#utility.yul\":7010:7011   */\n      dup5\n        /* \"#utility.yul\":7006:7015   */\n      slt\n        /* \"#utility.yul\":7002:7091   */\n      and\n        /* \"#utility.yul\":6999:7114   */\n      iszero\n      tag_155\n      jumpi\n        /* \"#utility.yul\":7094:7112   */\n      tag_156\n      tag_61\n      jump\t// in\n    tag_156:\n        /* \"#utility.yul\":6999:7114   */\n    tag_155:\n        /* \"#utility.yul\":7264:7265   */\n      dup3\n        /* \"#utility.yul\":7255:7262   */\n      dup3\n        /* \"#utility.yul\":7250:7266   */\n      sdiv\n        /* \"#utility.yul\":7247:7248   */\n      dup5\n        /* \"#utility.yul\":7244:7267   */\n      eq\n        /* \"#utility.yul\":7224:7225   */\n      dup4\n        /* \"#utility.yul\":7217:7226   */\n      iszero\n        /* \"#utility.yul\":7197:7281   */\n      or\n        /* \"#utility.yul\":7174:7314   */\n      tag_157\n      jumpi\n        /* \"#utility.yul\":7294:7312   */\n      tag_158\n      tag_61\n      jump\t// in\n    tag_158:\n        /* \"#utility.yul\":7174:7314   */\n    tag_157:\n        /* \"#utility.yul\":6812:7321   */\n      pop\n        /* \"#utility.yul\":6765:7321   */\n      swap3\n      swap2\n      pop\n      pop\n      jump\t// out\n\n    auxdata: 0xa264697066735822122043e367b4670526da0335f8a0b44ccce5c4f0dcbec5d9d0debf5b404d28fbb39064736f6c634300081e0033\n}\n",
				"bytecode": {
					"linkReferences": {},
					"object": "6080604052348015600e575f5ffd5b506107468061001c5f395ff3fe608060405260043610610033575f3560e01c80633e47d6f314610037578063d1d9165d14610073578063dc0d3dff1461007d575b5f5ffd5b348015610042575f5ffd5b5061005d6004803603810190610058919061034e565b6100b9565b60405161006a9190610391565b60405180910390f35b61007b6100ce565b005b348015610088575f5ffd5b506100a3600480360381019061009e91906103d4565b6101d9565b6040516100b0919061040e565b60405180910390f35b6001602052805f5260405f205f915090505481565b5f674563918244f400009050806100e434610213565b11610124576040517f08c379a000000000000000000000000000000000000000000000000000000000815260040161011b90610481565b60405180910390fd5b3460015f3373ffffffffffffffffffffffffffffffffffffffff1673ffffffffffffffffffffffffffffffffffffffff1681526020019081526020015f205f82825461017091906104cc565b925050819055505f33908060018154018082558091505060019003905f5260205f20015f9091909190916101000a81548173ffffffffffffffffffffffffffffffffffffffff021916908373ffffffffffffffffffffffffffffffffffffffff16021790555050565b5f81815481106101e7575f80fd5b905f5260205f20015f915054906101000a900473ffffffffffffffffffffffffffffffffffffffff1681565b5f5f61021d61024b565b90505f670de0b6b3a7640000848361023591906104ff565b61023f919061056d565b90508092505050919050565b5f5f73694aa1769357215de4fac081bf1f309adc32530690505f8173ffffffffffffffffffffffffffffffffffffffff1663feaf968c6040518163ffffffff1660e01b815260040160a060405180830381865afa1580156102ae573d5f5f3e3d5ffd5b505050506040513d601f19601f820116820180604052508101906102d29190610623565b5050509150506402540be400816102e9919061069a565b9250505090565b5f5ffd5b5f73ffffffffffffffffffffffffffffffffffffffff82169050919050565b5f61031d826102f4565b9050919050565b61032d81610313565b8114610337575f5ffd5b50565b5f8135905061034881610324565b92915050565b5f60208284031215610363576103626102f0565b5b5f6103708482850161033a565b91505092915050565b5f819050919050565b61038b81610379565b82525050565b5f6020820190506103a45f830184610382565b92915050565b6103b381610379565b81146103bd575f5ffd5b50565b5f813590506103ce816103aa565b92915050565b5f602082840312156103e9576103e86102f0565b5b5f6103f6848285016103c0565b91505092915050565b61040881610313565b82525050565b5f6020820190506104215f8301846103ff565b92915050565b5f82825260208201905092915050565b7f706c6561736520696e637265617365207468652076616c7565000000000000005f82015250565b5f61046b601983610427565b915061047682610437565b602082019050919050565b5f6020820190508181035f8301526104988161045f565b9050919050565b7f4e487b71000000000000000000000000000000000000000000000000000000005f52601160045260245ffd5b5f6104d682610379565b91506104e183610379565b92508282019050808211156104f9576104f861049f565b5b92915050565b5f61050982610379565b915061051483610379565b925082820261052281610379565b915082820484148315176105395761053861049f565b5b5092915050565b7f4e487b71000000000000000000000000000000000000000000000000000000005f52601260045260245ffd5b5f61057782610379565b915061058283610379565b92508261059257610591610540565b5b828204905092915050565b5f69ffffffffffffffffffff82169050919050565b6105bb8161059d565b81146105c5575f5ffd5b50565b5f815190506105d6816105b2565b92915050565b5f819050919050565b6105ee816105dc565b81146105f8575f5ffd5b50565b5f81519050610609816105e5565b92915050565b5f8151905061061d816103aa565b92915050565b5f5f5f5f5f60a0868803121561063c5761063b6102f0565b5b5f610649888289016105c8565b955050602061065a888289016105fb565b945050604061066b8882890161060f565b935050606061067c8882890161060f565b925050608061068d888289016105c8565b9150509295509295909350565b5f6106a4826105dc565b91506106af836105dc565b92508282026106bd816105dc565b91507f800000000000000000000000000000000000000000000000000000000000000084145f841216156106f4576106f361049f565b5b82820584148315176107095761070861049f565b5b509291505056fea264697066735822122043e367b4670526da0335f8a0b44ccce5c4f0dcbec5d9d0debf5b404d28fbb39064736f6c634300081e0033",
					"opcodes": "PUSH1 0x80 PUSH1 0x40 MSTORE CALLVALUE DUP1 ISZERO PUSH1 0xE JUMPI PUSH0 PUSH0 REVERT JUMPDEST POP PUSH2 0x746 DUP1 PUSH2 0x1C PUSH0 CODECOPY PUSH0 RETURN INVALID PUSH1 0x80 PUSH1 0x40 MSTORE PUSH1 0x4 CALLDATASIZE LT PUSH2 0x33 JUMPI PUSH0 CALLDATALOAD PUSH1 0xE0 SHR DUP1 PUSH4 0x3E47D6F3 EQ PUSH2 0x37 JUMPI DUP1 PUSH4 0xD1D9165D EQ PUSH2 0x73 JUMPI DUP1 PUSH4 0xDC0D3DFF EQ PUSH2 0x7D JUMPI JUMPDEST PUSH0 PUSH0 REVERT JUMPDEST CALLVALUE DUP1 ISZERO PUSH2 0x42 JUMPI PUSH0 PUSH0 REVERT JUMPDEST POP PUSH2 0x5D PUSH1 0x4 DUP1 CALLDATASIZE SUB DUP2 ADD SWAP1 PUSH2 0x58 SWAP2 SWAP1 PUSH2 0x34E JUMP JUMPDEST PUSH2 0xB9 JUMP JUMPDEST PUSH1 0x40 MLOAD PUSH2 0x6A SWAP2 SWAP1 PUSH2 0x391 JUMP JUMPDEST PUSH1 0x40 MLOAD DUP1 SWAP2 SUB SWAP1 RETURN JUMPDEST PUSH2 0x7B PUSH2 0xCE JUMP JUMPDEST STOP JUMPDEST CALLVALUE DUP1 ISZERO PUSH2 0x88 JUMPI PUSH0 PUSH0 REVERT JUMPDEST POP PUSH2 0xA3 PUSH1 0x4 DUP1 CALLDATASIZE SUB DUP2 ADD SWAP1 PUSH2 0x9E SWAP2 SWAP1 PUSH2 0x3D4 JUMP JUMPDEST PUSH2 0x1D9 JUMP JUMPDEST PUSH1 0x40 MLOAD PUSH2 0xB0 SWAP2 SWAP1 PUSH2 0x40E JUMP JUMPDEST PUSH1 0x40 MLOAD DUP1 SWAP2 SUB SWAP1 RETURN JUMPDEST PUSH1 0x1 PUSH1 0x20 MSTORE DUP1 PUSH0 MSTORE PUSH1 0x40 PUSH0 KECCAK256 PUSH0 SWAP2 POP SWAP1 POP SLOAD DUP2 JUMP JUMPDEST PUSH0 PUSH8 0x4563918244F40000 SWAP1 POP DUP1 PUSH2 0xE4 CALLVALUE PUSH2 0x213 JUMP JUMPDEST GT PUSH2 0x124 JUMPI PUSH1 0x40 MLOAD PUSH32 0x8C379A000000000000000000000000000000000000000000000000000000000 DUP2 MSTORE PUSH1 0x4 ADD PUSH2 0x11B SWAP1 PUSH2 0x481 JUMP JUMPDEST PUSH1 0x40 MLOAD DUP1 SWAP2 SUB SWAP1 REVERT JUMPDEST CALLVALUE PUSH1 0x1 PUSH0 CALLER PUSH20 0xFFFFFFFFFFFFFFFFFFFFFFFFFFFFFFFFFFFFFFFF AND PUSH20 0xFFFFFFFFFFFFFFFFFFFFFFFFFFFFFFFFFFFFFFFF AND DUP2 MSTORE PUSH1 0x20 ADD SWAP1 DUP2 MSTORE PUSH1 0x20 ADD PUSH0 KECCAK256 PUSH0 DUP3 DUP3 SLOAD PUSH2 0x170 SWAP2 SWAP1 PUSH2 0x4CC JUMP JUMPDEST SWAP3 POP POP DUP2 SWAP1 SSTORE POP PUSH0 CALLER SWAP1 DUP1 PUSH1 0x1 DUP2 SLOAD ADD DUP1 DUP3 SSTORE DUP1 SWAP2 POP POP PUSH1 0x1 SWAP1 SUB SWAP1 PUSH0 MSTORE PUSH1 0x20 PUSH0 KECCAK256 ADD PUSH0 SWAP1 SWAP2 SWAP1 SWAP2 SWAP1 SWAP2 PUSH2 0x100 EXP DUP2 SLOAD DUP2 PUSH20 0xFFFFFFFFFFFFFFFFFFFFFFFFFFFFFFFFFFFFFFFF MUL NOT AND SWAP1 DUP4 PUSH20 0xFFFFFFFFFFFFFFFFFFFFFFFFFFFFFFFFFFFFFFFF AND MUL OR SWAP1 SSTORE POP POP JUMP JUMPDEST PUSH0 DUP2 DUP2 SLOAD DUP2 LT PUSH2 0x1E7 JUMPI PUSH0 DUP1 REVERT JUMPDEST SWAP1 PUSH0 MSTORE PUSH1 0x20 PUSH0 KECCAK256 ADD PUSH0 SWAP2 POP SLOAD SWAP1 PUSH2 0x100 EXP SWAP1 DIV PUSH20 0xFFFFFFFFFFFFFFFFFFFFFFFFFFFFFFFFFFFFFFFF AND DUP2 JUMP JUMPDEST PUSH0 PUSH0 PUSH2 0x21D PUSH2 0x24B JUMP JUMPDEST SWAP1 POP PUSH0 PUSH8 0xDE0B6B3A7640000 DUP5 DUP4 PUSH2 0x235 SWAP2 SWAP1 PUSH2 0x4FF JUMP JUMPDEST PUSH2 0x23F SWAP2 SWAP1 PUSH2 0x56D JUMP JUMPDEST SWAP1 POP DUP1 SWAP3 POP POP POP SWAP2 SWAP1 POP JUMP JUMPDEST PUSH0 PUSH0 PUSH20 0x694AA1769357215DE4FAC081BF1F309ADC325306 SWAP1 POP PUSH0 DUP2 PUSH20 0xFFFFFFFFFFFFFFFFFFFFFFFFFFFFFFFFFFFFFFFF AND PUSH4 0xFEAF968C PUSH1 0x40 MLOAD DUP2 PUSH4 0xFFFFFFFF AND PUSH1 0xE0 SHL DUP2 MSTORE PUSH1 0x4 ADD PUSH1 0xA0 PUSH1 0x40 MLOAD DUP1 DUP4 SUB DUP2 DUP7 GAS STATICCALL ISZERO DUP1 ISZERO PUSH2 0x2AE JUMPI RETURNDATASIZE PUSH0 PUSH0 RETURNDATACOPY RETURNDATASIZE PUSH0 REVERT JUMPDEST POP POP POP POP PUSH1 0x40 MLOAD RETURNDATASIZE PUSH1 0x1F NOT PUSH1 0x1F DUP3 ADD AND DUP3 ADD DUP1 PUSH1 0x40 MSTORE POP DUP2 ADD SWAP1 PUSH2 0x2D2 SWAP2 SWAP1 PUSH2 0x623 JUMP JUMPDEST POP POP POP SWAP2 POP POP PUSH5 0x2540BE400 DUP2 PUSH2 0x2E9 SWAP2 SWAP1 PUSH2 0x69A JUMP JUMPDEST SWAP3 POP POP POP SWAP1 JUMP JUMPDEST PUSH0 PUSH0 REVERT JUMPDEST PUSH0 PUSH20 0xFFFFFFFFFFFFFFFFFFFFFFFFFFFFFFFFFFFFFFFF DUP3 AND SWAP1 POP SWAP2 SWAP1 POP JUMP JUMPDEST PUSH0 PUSH2 0x31D DUP3 PUSH2 0x2F4 JUMP JUMPDEST SWAP1 POP SWAP2 SWAP1 POP JUMP JUMPDEST PUSH2 0x32D DUP2 PUSH2 0x313 JUMP JUMPDEST DUP2 EQ PUSH2 0x337 JUMPI PUSH0 PUSH0 REVERT JUMPDEST POP JUMP JUMPDEST PUSH0 DUP2 CALLDATALOAD SWAP1 POP PUSH2 0x348 DUP2 PUSH2 0x324 JUMP JUMPDEST SWAP3 SWAP2 POP POP JUMP JUMPDEST PUSH0 PUSH1 0x20 DUP3 DUP5 SUB SLT ISZERO PUSH2 0x363 JUMPI PUSH2 0x362 PUSH2 0x2F0 JUMP JUMPDEST JUMPDEST PUSH0 PUSH2 0x370 DUP5 DUP3 DUP6 ADD PUSH2 0x33A JUMP JUMPDEST SWAP2 POP POP SWAP3 SWAP2 POP POP JUMP JUMPDEST PUSH0 DUP2 SWAP1 POP SWAP2 SWAP1 POP JUMP JUMPDEST PUSH2 0x38B DUP2 PUSH2 0x379 JUMP JUMPDEST DUP3 MSTORE POP POP JUMP JUMPDEST PUSH0 PUSH1 0x20 DUP3 ADD SWAP1 POP PUSH2 0x3A4 PUSH0 DUP4 ADD DUP5 PUSH2 0x382 JUMP JUMPDEST SWAP3 SWAP2 POP POP JUMP JUMPDEST PUSH2 0x3B3 DUP2 PUSH2 0x379 JUMP JUMPDEST DUP2 EQ PUSH2 0x3BD JUMPI PUSH0 PUSH0 REVERT JUMPDEST POP JUMP JUMPDEST PUSH0 DUP2 CALLDATALOAD SWAP1 POP PUSH2 0x3CE DUP2 PUSH2 0x3AA JUMP JUMPDEST SWAP3 SWAP2 POP POP JUMP JUMPDEST PUSH0 PUSH1 0x20 DUP3 DUP5 SUB SLT ISZERO PUSH2 0x3E9 JUMPI PUSH2 0x3E8 PUSH2 0x2F0 JUMP JUMPDEST JUMPDEST PUSH0 PUSH2 0x3F6 DUP5 DUP3 DUP6 ADD PUSH2 0x3C0 JUMP JUMPDEST SWAP2 POP POP SWAP3 SWAP2 POP POP JUMP JUMPDEST PUSH2 0x408 DUP2 PUSH2 0x313 JUMP JUMPDEST DUP3 MSTORE POP POP JUMP JUMPDEST PUSH0 PUSH1 0x20 DUP3 ADD SWAP1 POP PUSH2 0x421 PUSH0 DUP4 ADD DUP5 PUSH2 0x3FF JUMP JUMPDEST SWAP3 SWAP2 POP POP JUMP JUMPDEST PUSH0 DUP3 DUP3 MSTORE PUSH1 0x20 DUP3 ADD SWAP1 POP SWAP3 SWAP2 POP POP JUMP JUMPDEST PUSH32 0x706C6561736520696E637265617365207468652076616C756500000000000000 PUSH0 DUP3 ADD MSTORE POP JUMP JUMPDEST PUSH0 PUSH2 0x46B PUSH1 0x19 DUP4 PUSH2 0x427 JUMP JUMPDEST SWAP2 POP PUSH2 0x476 DUP3 PUSH2 0x437 JUMP JUMPDEST PUSH1 0x20 DUP3 ADD SWAP1 POP SWAP2 SWAP1 POP JUMP JUMPDEST PUSH0 PUSH1 0x20 DUP3 ADD SWAP1 POP DUP2 DUP2 SUB PUSH0 DUP4 ADD MSTORE PUSH2 0x498 DUP2 PUSH2 0x45F JUMP JUMPDEST SWAP1 POP SWAP2 SWAP1 POP JUMP JUMPDEST PUSH32 0x4E487B7100000000000000000000000000000000000000000000000000000000 PUSH0 MSTORE PUSH1 0x11 PUSH1 0x4 MSTORE PUSH1 0x24 PUSH0 REVERT JUMPDEST PUSH0 PUSH2 0x4D6 DUP3 PUSH2 0x379 JUMP JUMPDEST SWAP2 POP PUSH2 0x4E1 DUP4 PUSH2 0x379 JUMP JUMPDEST SWAP3 POP DUP3 DUP3 ADD SWAP1 POP DUP1 DUP3 GT ISZERO PUSH2 0x4F9 JUMPI PUSH2 0x4F8 PUSH2 0x49F JUMP JUMPDEST JUMPDEST SWAP3 SWAP2 POP POP JUMP JUMPDEST PUSH0 PUSH2 0x509 DUP3 PUSH2 0x379 JUMP JUMPDEST SWAP2 POP PUSH2 0x514 DUP4 PUSH2 0x379 JUMP JUMPDEST SWAP3 POP DUP3 DUP3 MUL PUSH2 0x522 DUP2 PUSH2 0x379 JUMP JUMPDEST SWAP2 POP DUP3 DUP3 DIV DUP5 EQ DUP4 ISZERO OR PUSH2 0x539 JUMPI PUSH2 0x538 PUSH2 0x49F JUMP JUMPDEST JUMPDEST POP SWAP3 SWAP2 POP POP JUMP JUMPDEST PUSH32 0x4E487B7100000000000000000000000000000000000000000000000000000000 PUSH0 MSTORE PUSH1 0x12 PUSH1 0x4 MSTORE PUSH1 0x24 PUSH0 REVERT JUMPDEST PUSH0 PUSH2 0x577 DUP3 PUSH2 0x379 JUMP JUMPDEST SWAP2 POP PUSH2 0x582 DUP4 PUSH2 0x379 JUMP JUMPDEST SWAP3 POP DUP3 PUSH2 0x592 JUMPI PUSH2 0x591 PUSH2 0x540 JUMP JUMPDEST JUMPDEST DUP3 DUP3 DIV SWAP1 POP SWAP3 SWAP2 POP POP JUMP JUMPDEST PUSH0 PUSH10 0xFFFFFFFFFFFFFFFFFFFF DUP3 AND SWAP1 POP SWAP2 SWAP1 POP JUMP JUMPDEST PUSH2 0x5BB DUP2 PUSH2 0x59D JUMP JUMPDEST DUP2 EQ PUSH2 0x5C5 JUMPI PUSH0 PUSH0 REVERT JUMPDEST POP JUMP JUMPDEST PUSH0 DUP2 MLOAD SWAP1 POP PUSH2 0x5D6 DUP2 PUSH2 0x5B2 JUMP JUMPDEST SWAP3 SWAP2 POP POP JUMP JUMPDEST PUSH0 DUP2 SWAP1 POP SWAP2 SWAP1 POP JUMP JUMPDEST PUSH2 0x5EE DUP2 PUSH2 0x5DC JUMP JUMPDEST DUP2 EQ PUSH2 0x5F8 JUMPI PUSH0 PUSH0 REVERT JUMPDEST POP JUMP JUMPDEST PUSH0 DUP2 MLOAD SWAP1 POP PUSH2 0x609 DUP2 PUSH2 0x5E5 JUMP JUMPDEST SWAP3 SWAP2 POP POP JUMP JUMPDEST PUSH0 DUP2 MLOAD SWAP1 POP PUSH2 0x61D DUP2 PUSH2 0x3AA JUMP JUMPDEST SWAP3 SWAP2 POP POP JUMP JUMPDEST PUSH0 PUSH0 PUSH0 PUSH0 PUSH0 PUSH1 0xA0 DUP7 DUP9 SUB SLT ISZERO PUSH2 0x63C JUMPI PUSH2 0x63B PUSH2 0x2F0 JUMP JUMPDEST JUMPDEST PUSH0 PUSH2 0x649 DUP9 DUP3 DUP10 ADD PUSH2 0x5C8 JUMP JUMPDEST SWAP6 POP POP PUSH1 0x20 PUSH2 0x65A DUP9 DUP3 DUP10 ADD PUSH2 0x5FB JUMP JUMPDEST SWAP5 POP POP PUSH1 0x40 PUSH2 0x66B DUP9 DUP3 DUP10 ADD PUSH2 0x60F JUMP JUMPDEST SWAP4 POP POP PUSH1 0x60 PUSH2 0x67C DUP9 DUP3 DUP10 ADD PUSH2 0x60F JUMP JUMPDEST SWAP3 POP POP PUSH1 0x80 PUSH2 0x68D DUP9 DUP3 DUP10 ADD PUSH2 0x5C8 JUMP JUMPDEST SWAP2 POP POP SWAP3 SWAP6 POP SWAP3 SWAP6 SWAP1 SWAP4 POP JUMP JUMPDEST PUSH0 PUSH2 0x6A4 DUP3 PUSH2 0x5DC JUMP JUMPDEST SWAP2 POP PUSH2 0x6AF DUP4 PUSH2 0x5DC JUMP JUMPDEST SWAP3 POP DUP3 DUP3 MUL PUSH2 0x6BD DUP2 PUSH2 0x5DC JUMP JUMPDEST SWAP2 POP PUSH32 0x8000000000000000000000000000000000000000000000000000000000000000 DUP5 EQ PUSH0 DUP5 SLT AND ISZERO PUSH2 0x6F4 JUMPI PUSH2 0x6F3 PUSH2 0x49F JUMP JUMPDEST JUMPDEST DUP3 DUP3 SDIV DUP5 EQ DUP4 ISZERO OR PUSH2 0x709 JUMPI PUSH2 0x708 PUSH2 0x49F JUMP JUMPDEST JUMPDEST POP SWAP3 SWAP2 POP POP JUMP INVALID LOG2 PUSH5 0x6970667358 0x22 SLT KECCAK256 NUMBER CALLF 0x67B4 PUSH8 0x526DA0335F8A0B4 0x4C 0xCC JUMPF 0xC4F0 0xDC 0xBE 0xC5 0xD9 0xD0 0xDE 0xBF JUMPDEST BLOCKHASH 0x4D 0x28 EXTSTATICCALL 0xB3 SWAP1 PUSH5 0x736F6C6343 STOP ADDMOD 0x1E STOP CALLER "
				},
				"gasEstimates": {
					"creation": {
						"codeDepositCost": "372400",
						"executionCost": "409",
						"totalCost": "372809"
					},
					"external": {
						"addressToAmountFunded(address)": "2780",
						"funders(uint256)": "4965",
						"fundme()": "infinite"
					}
				},
				"methodIdentifiers": {
					"addressToAmountFunded(address)": "3e47d6f3",
					"funders(uint256)": "dc0d3dff",
					"fundme()": "d1d9165d"
				}
			},
			"storageLayout": {
				"storage": [
					{
						"astId": 55,
						"contract": "fundme/fundme.sol:Fundme",
						"label": "funders",
						"offset": 0,
						"slot": "0",
						"type": "t_array(t_address)dyn_storage"
					},
					{
						"astId": 59,
						"contract": "fundme/fundme.sol:Fundme",
						"label": "addressToAmountFunded",
						"offset": 0,
						"slot": "1",
						"type": "t_mapping(t_address,t_uint256)"
					}
				],
				"types": {
					"t_address": {
						"encoding": "inplace",
						"label": "address",
						"numberOfBytes": "20"
					},
					"t_array(t_address)dyn_storage": {
						"base": "t_address",
						"encoding": "dynamic_array",
						"label": "address[]",
						"numberOfBytes": "32"
					},
					"t_mapping(t_address,t_uint256)": {
						"encoding": "mapping",
						"key": "t_address",
						"label": "mapping(address => uint256)",
						"numberOfBytes": "32",
						"value": "t_uint256"
					},
					"t_uint256": {
						"encoding": "inplace",
						"label": "uint256",
						"numberOfBytes": "32"
					}
				}
			},
			"userdoc": {
				"kind": "user",
				"methods": {},
				"version": 1
			}
		}
	}
}