{
	"crowndfound/raisefund.sol": {
		"RaiseFunds": {
			"abi": [
				{
					"inputs": [],
					"stateMutability": "nonpayable",
					"type": "constructor"
				},
				{
					"inputs": [
						{
							"internalType": "string",
							"name": "_message",
							"type": "string"
						}
					],
					"name": "IncreaseAmount",
					"type": "error"
				},
				{
					"inputs": [],
					"name": "MINIMUM_USD",
					"outputs": [
						{
							"internalType": "uint256",
							"name": "",
							"type": "uint256"
						}
					],
					"stateMutability": "view",
					"type": "function"
				},
				{
					"inputs": [
						{
							"internalType": "string",
							"name": "_name",
							"type": "string"
						},
						{
							"internalType": "uint256",
							"name": "_goal",
							"type": "uint256"
						}
					],
					"name": "createproject",
					"outputs": [],
					"stateMutability": "nonpayable",
					"type": "function"
				},
				{
					"inputs": [
						{
							"internalType": "string",
							"name": "_name",
							"type": "string"
						}
					],
					"name": "fundProject",
					"outputs": [],
					"stateMutability": "payable",
					"type": "function"
				},
				{
					"inputs": [
						{
							"internalType": "string",
							"name": "projectname",
							"type": "string"
						}
					],
					"name": "fundRaisingProjects",
					"outputs": [
						{
							"internalType": "string",
							"name": "name",
							"type": "string"
						},
						{
							"internalType": "address payable",
							"name": "owner",
							"type": "address"
						},
						{
							"internalType": "uint256",
							"name": "goal",
							"type": "uint256"
						},
						{
							"internalType": "uint256",
							"name": "totalRaised",
							"type": "uint256"
						},
						{
							"internalType": "bool",
							"name": "isActive",
							"type": "bool"
						},
						{
							"internalType": "bool",
							"name": "isCompleted",
							"type": "bool"
						},
						{
							"internalType": "bool",
							"name": "isRefunded",
							"type": "bool"
						}
					],
					"stateMutability": "view",
					"type": "function"
				},
				{
					"inputs": [
						{
							"internalType": "uint256",
							"name": "",
							"type": "uint256"
						}
					],
					"name": "funderinfo",
					"outputs": [
						{
							"internalType": "address",
							"name": "funder",
							"type": "address"
						},
						{
							"internalType": "uint256",
							"name": "amount",
							"type": "uint256"
						}
					],
					"stateMutability": "view",
					"type": "function"
				},
				{
					"inputs": [
						{
							"internalType": "string",
							"name": "_name",
							"type": "string"
						}
					],
					"name": "withdraw_fundRaised",
					"outputs": [],
					"stateMutability": "nonpayable",
					"type": "function"
				}
			],
			"devdoc": {
				"kind": "dev",
				"methods": {},
				"version": 1
			},
			"evm": {
				"assembly": "    /* \"crowndfound/raisefund.sol\":359:3985  contract RaiseFunds {... */\n  mstore(0x40, 0xa0)\n    /* \"crowndfound/raisefund.sol\":418:479  constructor(){... */\n  callvalue\n  dup1\n  iszero\n  tag_1\n  jumpi\n  revert(0x00, 0x00)\ntag_1:\n  pop\n    /* \"crowndfound/raisefund.sol\":461:471  msg.sender */\n  caller\n    /* \"crowndfound/raisefund.sol\":441:472  i_owner = payable ( msg.sender) */\n  0xffffffffffffffffffffffffffffffffffffffff\n  and\n  0x80\n  dup2\n  0xffffffffffffffffffffffffffffffffffffffff\n  and\n  dup2\n  mstore\n  pop\n  pop\n    /* \"crowndfound/raisefund.sol\":359:3985  contract RaiseFunds {... */\n  mload(0x80)\n  codecopy(0x00, dataOffset(sub_0), dataSize(sub_0))\n  0x00\n  assignImmutable(\"0xd905fec1a56b00009651ce5a01a34d2244da02f516f67ee88b03219738dbf226\")\n  return(0x00, dataSize(sub_0))\nstop\n\nsub_0: assembly {\n        /* \"crowndfound/raisefund.sol\":359:3985  contract RaiseFunds {... */\n      mstore(0x40, 0x80)\n      jumpi(tag_1, lt(calldatasize, 0x04))\n      shr(0xe0, calldataload(0x00))\n      dup1\n      0x10d7aa7d\n      eq\n      tag_2\n      jumpi\n      dup1\n      0x5854dd21\n      eq\n      tag_3\n      jumpi\n      dup1\n      0x5fe26c73\n      eq\n      tag_4\n      jumpi\n      dup1\n      0x6b69a592\n      eq\n      tag_5\n      jumpi\n      dup1\n      0x9f047f3c\n      eq\n      tag_6\n      jumpi\n      dup1\n      0xcc1017e7\n      eq\n      tag_7\n      jumpi\n    tag_1:\n      revert(0x00, 0x00)\n        /* \"crowndfound/raisefund.sol\":1626:2229  function createproject(string calldata _name, uint256 _goal) external {... */\n    tag_2:\n      callvalue\n      dup1\n      iszero\n      tag_8\n      jumpi\n      revert(0x00, 0x00)\n    tag_8:\n      pop\n      tag_9\n      0x04\n      dup1\n      calldatasize\n      sub\n      dup2\n      add\n      swap1\n      tag_10\n      swap2\n      swap1\n      tag_11\n      jump\t// in\n    tag_10:\n      tag_12\n      jump\t// in\n    tag_9:\n      stop\n        /* \"crowndfound/raisefund.sol\":739:813  mapping (string projectname => Fund_Raise_Info) public fundRaisingProjects */\n    tag_3:\n      callvalue\n      dup1\n      iszero\n      tag_13\n      jumpi\n      revert(0x00, 0x00)\n    tag_13:\n      pop\n      tag_14\n      0x04\n      dup1\n      calldatasize\n      sub\n      dup2\n      add\n      swap1\n      tag_15\n      swap2\n      swap1\n      tag_16\n      jump\t// in\n    tag_15:\n      tag_17\n      jump\t// in\n    tag_14:\n      mload(0x40)\n      tag_18\n      swap8\n      swap7\n      swap6\n      swap5\n      swap4\n      swap3\n      swap2\n      swap1\n      tag_19\n      jump\t// in\n    tag_18:\n      mload(0x40)\n      dup1\n      swap2\n      sub\n      swap1\n      return\n        /* \"crowndfound/raisefund.sol\":3289:3975  function withdraw_fundRaised(string calldata _name) external {... */\n    tag_4:\n      callvalue\n      dup1\n      iszero\n      tag_20\n      jumpi\n      revert(0x00, 0x00)\n    tag_20:\n      pop\n      tag_21\n      0x04\n      dup1\n      calldatasize\n      sub\n      dup2\n      add\n      swap1\n      tag_22\n      swap2\n      swap1\n      tag_23\n      jump\t// in\n    tag_22:\n      tag_24\n      jump\t// in\n    tag_21:\n      stop\n        /* \"crowndfound/raisefund.sol\":632:674  uint256 public constant MINIMUM_USD = 2e18 */\n    tag_5:\n      callvalue\n      dup1\n      iszero\n      tag_25\n      jumpi\n      revert(0x00, 0x00)\n    tag_25:\n      pop\n      tag_26\n      tag_27\n      jump\t// in\n    tag_26:\n      mload(0x40)\n      tag_28\n      swap2\n      swap1\n      tag_29\n      jump\t// in\n    tag_28:\n      mload(0x40)\n      dup1\n      swap2\n      sub\n      swap1\n      return\n        /* \"crowndfound/raisefund.sol\":2269:3284  function fundProject(string  calldata _name) public payable {... */\n    tag_6:\n      tag_30\n      0x04\n      dup1\n      calldatasize\n      sub\n      dup2\n      add\n      swap1\n      tag_31\n      swap2\n      swap1\n      tag_23\n      jump\t// in\n    tag_31:\n      tag_32\n      jump\t// in\n    tag_30:\n      stop\n        /* \"crowndfound/raisefund.sol\":980:1007  funders[] public funderinfo */\n    tag_7:\n      callvalue\n      dup1\n      iszero\n      tag_33\n      jumpi\n      revert(0x00, 0x00)\n    tag_33:\n      pop\n      tag_34\n      0x04\n      dup1\n      calldatasize\n      sub\n      dup2\n      add\n      swap1\n      tag_35\n      swap2\n      swap1\n      tag_36\n      jump\t// in\n    tag_35:\n      tag_37\n      jump\t// in\n    tag_34:\n      mload(0x40)\n      tag_38\n      swap3\n      swap2\n      swap1\n      tag_39\n      jump\t// in\n    tag_38:\n      mload(0x40)\n      dup1\n      swap2\n      sub\n      swap1\n      return\n        /* \"crowndfound/raisefund.sol\":1626:2229  function createproject(string calldata _name, uint256 _goal) external {... */\n    tag_12:\n        /* \"crowndfound/raisefund.sol\":1755:1786  Fund_Raise_Info storage project */\n      0x00\n        /* \"crowndfound/raisefund.sol\":1789:1808  fundRaisingProjects */\n      0x00\n        /* \"crowndfound/raisefund.sol\":1809:1814  _name */\n      dup5\n      dup5\n        /* \"crowndfound/raisefund.sol\":1789:1815  fundRaisingProjects[_name] */\n      mload(0x40)\n      tag_41\n      swap3\n      swap2\n      swap1\n      tag_42\n      jump\t// in\n    tag_41:\n      swap1\n      dup2\n      mstore\n      0x20\n      add\n      mload(0x40)\n      dup1\n      swap2\n      sub\n      swap1\n      keccak256\n        /* \"crowndfound/raisefund.sol\":1755:1815  Fund_Raise_Info storage project = fundRaisingProjects[_name] */\n      swap1\n      pop\n        /* \"crowndfound/raisefund.sol\":1879:1884  _name */\n      dup4\n      dup4\n        /* \"crowndfound/raisefund.sol\":1864:1871  project */\n      dup3\n        /* \"crowndfound/raisefund.sol\":1864:1876  project.name */\n      0x00\n      add\n        /* \"crowndfound/raisefund.sol\":1864:1884  project.name = _name */\n      swap2\n      dup3\n      tag_43\n      swap3\n      swap2\n      swap1\n      tag_44\n      jump\t// in\n    tag_43:\n      pop\n        /* \"crowndfound/raisefund.sol\":1918:1928  msg.sender */\n      caller\n        /* \"crowndfound/raisefund.sol\":1894:1901  project */\n      dup2\n        /* \"crowndfound/raisefund.sol\":1894:1907  project.owner */\n      0x01\n      add\n      0x00\n        /* \"crowndfound/raisefund.sol\":1894:1929  project.owner = payable(msg.sender) */\n      0x0100\n      exp\n      dup2\n      sload\n      dup2\n      0xffffffffffffffffffffffffffffffffffffffff\n      mul\n      not\n      and\n      swap1\n      dup4\n      0xffffffffffffffffffffffffffffffffffffffff\n      and\n      mul\n      or\n      swap1\n      sstore\n      pop\n        /* \"crowndfound/raisefund.sol\":1954:1959  _goal */\n      dup2\n        /* \"crowndfound/raisefund.sol\":1939:1946  project */\n      dup2\n        /* \"crowndfound/raisefund.sol\":1939:1951  project.goal */\n      0x02\n      add\n        /* \"crowndfound/raisefund.sol\":1939:1959  project.goal = _goal */\n      dup2\n      swap1\n      sstore\n      pop\n        /* \"crowndfound/raisefund.sol\":1988:1992  true */\n      0x01\n        /* \"crowndfound/raisefund.sol\":1969:1976  project */\n      dup2\n        /* \"crowndfound/raisefund.sol\":1969:1985  project.isActive */\n      0x04\n      add\n      0x00\n        /* \"crowndfound/raisefund.sol\":1969:1992  project.isActive = true */\n      0x0100\n      exp\n      dup2\n      sload\n      dup2\n      0xff\n      mul\n      not\n      and\n      swap1\n      dup4\n      iszero\n      iszero\n      mul\n      or\n      swap1\n      sstore\n      pop\n        /* \"crowndfound/raisefund.sol\":2024:2029  false */\n      0x00\n        /* \"crowndfound/raisefund.sol\":2002:2009  project */\n      dup2\n        /* \"crowndfound/raisefund.sol\":2002:2021  project.isCompleted */\n      0x04\n      add\n      0x01\n        /* \"crowndfound/raisefund.sol\":2002:2029  project.isCompleted = false */\n      0x0100\n      exp\n      dup2\n      sload\n      dup2\n      0xff\n      mul\n      not\n      and\n      swap1\n      dup4\n      iszero\n      iszero\n      mul\n      or\n      swap1\n      sstore\n      pop\n        /* \"crowndfound/raisefund.sol\":2060:2065  false */\n      0x00\n        /* \"crowndfound/raisefund.sol\":2039:2046  project */\n      dup2\n        /* \"crowndfound/raisefund.sol\":2039:2057  project.isRefunded */\n      0x04\n      add\n      0x02\n        /* \"crowndfound/raisefund.sol\":2039:2065  project.isRefunded = false */\n      0x0100\n      exp\n      dup2\n      sload\n      dup2\n      0xff\n      mul\n      not\n      and\n      swap1\n      dup4\n      iszero\n      iszero\n      mul\n      or\n      swap1\n      sstore\n      pop\n        /* \"crowndfound/raisefund.sol\":2221:2222  0 */\n      0x00\n        /* \"crowndfound/raisefund.sol\":2199:2206  project */\n      dup2\n        /* \"crowndfound/raisefund.sol\":2199:2218  project.totalRaised */\n      0x03\n      add\n        /* \"crowndfound/raisefund.sol\":2199:2222  project.totalRaised = 0 */\n      dup2\n      swap1\n      sstore\n      pop\n        /* \"crowndfound/raisefund.sol\":1696:2229  {... */\n      pop\n        /* \"crowndfound/raisefund.sol\":1626:2229  function createproject(string calldata _name, uint256 _goal) external {... */\n      pop\n      pop\n      pop\n      jump\t// out\n        /* \"crowndfound/raisefund.sol\":739:813  mapping (string projectname => Fund_Raise_Info) public fundRaisingProjects */\n    tag_17:\n      0x00\n      dup2\n      dup1\n      mload\n      0x20\n      dup2\n      add\n      dup3\n      add\n      dup1\n      mload\n      dup5\n      dup3\n      mstore\n      0x20\n      dup4\n      add\n      0x20\n      dup6\n      add\n      keccak256\n      dup2\n      dup4\n      mstore\n      dup1\n      swap6\n      pop\n      pop\n      pop\n      pop\n      pop\n      pop\n      0x00\n      swap2\n      pop\n      swap1\n      pop\n      dup1\n      0x00\n      add\n      dup1\n      sload\n      tag_45\n      swap1\n      tag_46\n      jump\t// in\n    tag_45:\n      dup1\n      0x1f\n      add\n      0x20\n      dup1\n      swap2\n      div\n      mul\n      0x20\n      add\n      mload(0x40)\n      swap1\n      dup2\n      add\n      0x40\n      mstore\n      dup1\n      swap3\n      swap2\n      swap1\n      dup2\n      dup2\n      mstore\n      0x20\n      add\n      dup3\n      dup1\n      sload\n      tag_47\n      swap1\n      tag_46\n      jump\t// in\n    tag_47:\n      dup1\n      iszero\n      tag_48\n      jumpi\n      dup1\n      0x1f\n      lt\n      tag_49\n      jumpi\n      0x0100\n      dup1\n      dup4\n      sload\n      div\n      mul\n      dup4\n      mstore\n      swap2\n      0x20\n      add\n      swap2\n      jump(tag_48)\n    tag_49:\n      dup3\n      add\n      swap2\n      swap1\n      0x00\n      mstore\n      keccak256(0x00, 0x20)\n      swap1\n    tag_50:\n      dup2\n      sload\n      dup2\n      mstore\n      swap1\n      0x01\n      add\n      swap1\n      0x20\n      add\n      dup1\n      dup4\n      gt\n      tag_50\n      jumpi\n      dup3\n      swap1\n      sub\n      0x1f\n      and\n      dup3\n      add\n      swap2\n    tag_48:\n      pop\n      pop\n      pop\n      pop\n      pop\n      swap1\n      dup1\n      0x01\n      add\n      0x00\n      swap1\n      sload\n      swap1\n      0x0100\n      exp\n      swap1\n      div\n      0xffffffffffffffffffffffffffffffffffffffff\n      and\n      swap1\n      dup1\n      0x02\n      add\n      sload\n      swap1\n      dup1\n      0x03\n      add\n      sload\n      swap1\n      dup1\n      0x04\n      add\n      0x00\n      swap1\n      sload\n      swap1\n      0x0100\n      exp\n      swap1\n      div\n      0xff\n      and\n      swap1\n      dup1\n      0x04\n      add\n      0x01\n      swap1\n      sload\n      swap1\n      0x0100\n      exp\n      swap1\n      div\n      0xff\n      and\n      swap1\n      dup1\n      0x04\n      add\n      0x02\n      swap1\n      sload\n      swap1\n      0x0100\n      exp\n      swap1\n      div\n      0xff\n      and\n      swap1\n      pop\n      dup8\n      jump\t// out\n        /* \"crowndfound/raisefund.sol\":3289:3975  function withdraw_fundRaised(string calldata _name) external {... */\n    tag_24:\n        /* \"crowndfound/raisefund.sol\":3356:3391  Fund_Raise_Info storage projectInfo */\n      0x00\n        /* \"crowndfound/raisefund.sol\":3394:3413  fundRaisingProjects */\n      0x00\n        /* \"crowndfound/raisefund.sol\":3414:3419  _name */\n      dup4\n      dup4\n        /* \"crowndfound/raisefund.sol\":3394:3420  fundRaisingProjects[_name] */\n      mload(0x40)\n      tag_52\n      swap3\n      swap2\n      swap1\n      tag_42\n      jump\t// in\n    tag_52:\n      swap1\n      dup2\n      mstore\n      0x20\n      add\n      mload(0x40)\n      dup1\n      swap2\n      sub\n      swap1\n      keccak256\n        /* \"crowndfound/raisefund.sol\":3356:3420  Fund_Raise_Info storage projectInfo = fundRaisingProjects[_name] */\n      swap1\n      pop\n        /* \"crowndfound/raisefund.sol\":3435:3446  projectInfo */\n      dup1\n        /* \"crowndfound/raisefund.sol\":3435:3458  projectInfo.isCompleted */\n      0x04\n      add\n      0x01\n      swap1\n      sload\n      swap1\n      0x0100\n      exp\n      swap1\n      div\n      0xff\n      and\n        /* \"crowndfound/raisefund.sol\":3427:3487  require(projectInfo.isCompleted, \"Project is not completed\") */\n      tag_53\n      jumpi\n      mload(0x40)\n      0x08c379a000000000000000000000000000000000000000000000000000000000\n      dup2\n      mstore\n      0x04\n      add\n      tag_54\n      swap1\n      tag_55\n      jump\t// in\n    tag_54:\n      mload(0x40)\n      dup1\n      swap2\n      sub\n      swap1\n      revert\n    tag_53:\n        /* \"crowndfound/raisefund.sol\":3524:3534  msg.sender */\n      caller\n        /* \"crowndfound/raisefund.sol\":3503:3534  projectInfo.owner == msg.sender */\n      0xffffffffffffffffffffffffffffffffffffffff\n      and\n        /* \"crowndfound/raisefund.sol\":3503:3514  projectInfo */\n      dup2\n        /* \"crowndfound/raisefund.sol\":3503:3520  projectInfo.owner */\n      0x01\n      add\n      0x00\n      swap1\n      sload\n      swap1\n      0x0100\n      exp\n      swap1\n      div\n      0xffffffffffffffffffffffffffffffffffffffff\n      and\n        /* \"crowndfound/raisefund.sol\":3503:3534  projectInfo.owner == msg.sender */\n      0xffffffffffffffffffffffffffffffffffffffff\n      and\n      eq\n        /* \"crowndfound/raisefund.sol\":3495:3582  require(projectInfo.owner == msg.sender, \"Only the project creator can withdraw funds\") */\n      tag_56\n      jumpi\n      mload(0x40)\n      0x08c379a000000000000000000000000000000000000000000000000000000000\n      dup2\n      mstore\n      0x04\n      add\n      tag_57\n      swap1\n      tag_58\n      jump\t// in\n    tag_57:\n      mload(0x40)\n      dup1\n      swap2\n      sub\n      swap1\n      revert\n    tag_56:\n        /* \"crowndfound/raisefund.sol\":3588:3602  uint256 amount */\n      0x00\n        /* \"crowndfound/raisefund.sol\":3605:3616  projectInfo */\n      dup2\n        /* \"crowndfound/raisefund.sol\":3605:3621  projectInfo.goal */\n      0x02\n      add\n      sload\n        /* \"crowndfound/raisefund.sol\":3588:3621  uint256 amount = projectInfo.goal */\n      swap1\n      pop\n        /* \"crowndfound/raisefund.sol\":3627:3640  address owner */\n      0x00\n        /* \"crowndfound/raisefund.sol\":3643:3654  projectInfo */\n      dup3\n        /* \"crowndfound/raisefund.sol\":3643:3660  projectInfo.owner */\n      0x01\n      add\n      0x00\n      swap1\n      sload\n      swap1\n      0x0100\n      exp\n      swap1\n      div\n      0xffffffffffffffffffffffffffffffffffffffff\n      and\n        /* \"crowndfound/raisefund.sol\":3627:3660  address owner = projectInfo.owner */\n      swap1\n      pop\n        /* \"crowndfound/raisefund.sol\":3666:3680  uint256 payout */\n      0x00\n        /* \"crowndfound/raisefund.sol\":3697:3700  100 */\n      0x64\n        /* \"crowndfound/raisefund.sol\":3693:3695  98 */\n      0x62\n        /* \"crowndfound/raisefund.sol\":3684:3690  amount */\n      dup5\n        /* \"crowndfound/raisefund.sol\":3684:3695  amount * 98 */\n      tag_59\n      swap2\n      swap1\n      tag_60\n      jump\t// in\n    tag_59:\n        /* \"crowndfound/raisefund.sol\":3683:3700  (amount * 98)/100 */\n      tag_61\n      swap2\n      swap1\n      tag_62\n      jump\t// in\n    tag_61:\n        /* \"crowndfound/raisefund.sol\":3666:3700  uint256 payout = (amount * 98)/100 */\n      swap1\n      pop\n        /* \"crowndfound/raisefund.sol\":3706:3717  uint256 fee */\n      0x00\n        /* \"crowndfound/raisefund.sol\":3728:3734  payout */\n      dup2\n        /* \"crowndfound/raisefund.sol\":3720:3726  amount */\n      dup5\n        /* \"crowndfound/raisefund.sol\":3720:3734  amount -payout */\n      tag_63\n      swap2\n      swap1\n      tag_64\n      jump\t// in\n    tag_63:\n        /* \"crowndfound/raisefund.sol\":3706:3734  uint256 fee = amount -payout */\n      swap1\n      pop\n        /* \"crowndfound/raisefund.sol\":3741:3753  bool success */\n      0x00\n        /* \"crowndfound/raisefund.sol\":3756:3761  owner */\n      dup4\n        /* \"crowndfound/raisefund.sol\":3756:3766  owner.call */\n      0xffffffffffffffffffffffffffffffffffffffff\n      and\n        /* \"crowndfound/raisefund.sol\":3774:3780  payout */\n      dup4\n        /* \"crowndfound/raisefund.sol\":3756:3785  owner.call{value: payout}('') */\n      mload(0x40)\n      tag_65\n      swap1\n      tag_66\n      jump\t// in\n    tag_65:\n      0x00\n      mload(0x40)\n      dup1\n      dup4\n      sub\n      dup2\n      dup6\n      dup8\n      gas\n      call\n      swap3\n      pop\n      pop\n      pop\n      returndatasize\n      dup1\n      0x00\n      dup2\n      eq\n      tag_69\n      jumpi\n      mload(0x40)\n      swap2\n      pop\n      and(add(returndatasize, 0x3f), not(0x1f))\n      dup3\n      add\n      0x40\n      mstore\n      returndatasize\n      dup3\n      mstore\n      returndatasize\n      0x00\n      0x20\n      dup5\n      add\n      returndatacopy\n      jump(tag_68)\n    tag_69:\n      0x60\n      swap2\n      pop\n    tag_68:\n      pop\n        /* \"crowndfound/raisefund.sol\":3740:3785  (bool success,)=owner.call{value: payout}('') */\n      pop\n      swap1\n      pop\n        /* \"crowndfound/raisefund.sol\":3802:3809  success */\n      dup1\n        /* \"crowndfound/raisefund.sol\":3793:3831  require( success, 'widthdrawal faild') */\n      tag_70\n      jumpi\n      mload(0x40)\n      0x08c379a000000000000000000000000000000000000000000000000000000000\n      dup2\n      mstore\n      0x04\n      add\n      tag_71\n      swap1\n      tag_72\n      jump\t// in\n    tag_71:\n      mload(0x40)\n      dup1\n      swap2\n      sub\n      swap1\n      revert\n    tag_70:\n        /* \"crowndfound/raisefund.sol\":3839:3852  bool success1 */\n      0x00\n        /* \"crowndfound/raisefund.sol\":3855:3862  i_owner */\n      immutable(\"0xd905fec1a56b00009651ce5a01a34d2244da02f516f67ee88b03219738dbf226\")\n        /* \"crowndfound/raisefund.sol\":3855:3867  i_owner.call */\n      0xffffffffffffffffffffffffffffffffffffffff\n      and\n        /* \"crowndfound/raisefund.sol\":3874:3877  fee */\n      dup4\n        /* \"crowndfound/raisefund.sol\":3855:3882  i_owner.call{value:fee}('') */\n      mload(0x40)\n      tag_73\n      swap1\n      tag_66\n      jump\t// in\n    tag_73:\n      0x00\n      mload(0x40)\n      dup1\n      dup4\n      sub\n      dup2\n      dup6\n      dup8\n      gas\n      call\n      swap3\n      pop\n      pop\n      pop\n      returndatasize\n      dup1\n      0x00\n      dup2\n      eq\n      tag_76\n      jumpi\n      mload(0x40)\n      swap2\n      pop\n      and(add(returndatasize, 0x3f), not(0x1f))\n      dup3\n      add\n      0x40\n      mstore\n      returndatasize\n      dup3\n      mstore\n      returndatasize\n      0x00\n      0x20\n      dup5\n      add\n      returndatacopy\n      jump(tag_75)\n    tag_76:\n      0x60\n      swap2\n      pop\n    tag_75:\n      pop\n        /* \"crowndfound/raisefund.sol\":3838:3882  (bool success1,)=i_owner.call{value:fee}('') */\n      pop\n      swap1\n      pop\n        /* \"crowndfound/raisefund.sol\":3898:3906  success1 */\n      dup1\n        /* \"crowndfound/raisefund.sol\":3889:3938  require( success1, 'failde to send fee to owner') */\n      tag_77\n      jumpi\n      mload(0x40)\n      0x08c379a000000000000000000000000000000000000000000000000000000000\n      dup2\n      mstore\n      0x04\n      add\n      tag_78\n      swap1\n      tag_79\n      jump\t// in\n    tag_78:\n      mload(0x40)\n      dup1\n      swap2\n      sub\n      swap1\n      revert\n    tag_77:\n        /* \"crowndfound/raisefund.sol\":3971:3972  0 */\n      0x00\n        /* \"crowndfound/raisefund.sol\":3945:3956  projectInfo */\n      dup8\n        /* \"crowndfound/raisefund.sol\":3945:3968  projectInfo.totalRaised */\n      0x03\n      add\n        /* \"crowndfound/raisefund.sol\":3945:3972  projectInfo.totalRaised = 0 */\n      dup2\n      swap1\n      sstore\n      pop\n        /* \"crowndfound/raisefund.sol\":3350:3975  {... */\n      pop\n      pop\n      pop\n      pop\n      pop\n      pop\n      pop\n        /* \"crowndfound/raisefund.sol\":3289:3975  function withdraw_fundRaised(string calldata _name) external {... */\n      pop\n      pop\n      jump\t// out\n        /* \"crowndfound/raisefund.sol\":632:674  uint256 public constant MINIMUM_USD = 2e18 */\n    tag_27:\n        /* \"crowndfound/raisefund.sol\":670:674  2e18 */\n      0x1bc16d674ec80000\n        /* \"crowndfound/raisefund.sol\":632:674  uint256 public constant MINIMUM_USD = 2e18 */\n      dup2\n      jump\t// out\n        /* \"crowndfound/raisefund.sol\":2269:3284  function fundProject(string  calldata _name) public payable {... */\n    tag_32:\n        /* \"crowndfound/raisefund.sol\":670:674  2e18 */\n      0x1bc16d674ec80000\n        /* \"crowndfound/raisefund.sol\":2402:2426  msg.value.converterUSD() */\n      tag_81\n        /* \"crowndfound/raisefund.sol\":2402:2411  msg.value */\n      callvalue\n        /* \"crowndfound/raisefund.sol\":2402:2424  msg.value.converterUSD */\n      tag_82\n        /* \"crowndfound/raisefund.sol\":2402:2426  msg.value.converterUSD() */\n      jump\t// in\n    tag_81:\n        /* \"crowndfound/raisefund.sol\":2402:2440  msg.value.converterUSD() < MINIMUM_USD */\n      lt\n        /* \"crowndfound/raisefund.sol\":2398:2529  if (msg.value.converterUSD() < MINIMUM_USD) {... */\n      iszero\n      tag_83\n      jumpi\n        /* \"crowndfound/raisefund.sol\":2463:2518  IncreaseAmount('Sent ETH is below minimum requirement') */\n      mload(0x40)\n      0x35dcd67800000000000000000000000000000000000000000000000000000000\n      dup2\n      mstore\n      0x04\n      add\n      tag_84\n      swap1\n      tag_85\n      jump\t// in\n    tag_84:\n      mload(0x40)\n      dup1\n      swap2\n      sub\n      swap1\n      revert\n        /* \"crowndfound/raisefund.sol\":2398:2529  if (msg.value.converterUSD() < MINIMUM_USD) {... */\n    tag_83:\n        /* \"crowndfound/raisefund.sol\":2748:2783  Fund_Raise_Info storage projectInfo */\n      0x00\n        /* \"crowndfound/raisefund.sol\":2786:2805  fundRaisingProjects */\n      0x00\n        /* \"crowndfound/raisefund.sol\":2806:2811  _name */\n      dup4\n      dup4\n        /* \"crowndfound/raisefund.sol\":2786:2812  fundRaisingProjects[_name] */\n      mload(0x40)\n      tag_86\n      swap3\n      swap2\n      swap1\n      tag_42\n      jump\t// in\n    tag_86:\n      swap1\n      dup2\n      mstore\n      0x20\n      add\n      mload(0x40)\n      dup1\n      swap2\n      sub\n      swap1\n      keccak256\n        /* \"crowndfound/raisefund.sol\":2748:2812  Fund_Raise_Info storage projectInfo = fundRaisingProjects[_name] */\n      swap1\n      pop\n        /* \"crowndfound/raisefund.sol\":2829:2840  projectInfo */\n      dup1\n        /* \"crowndfound/raisefund.sol\":2829:2849  projectInfo.isActive */\n      0x04\n      add\n      0x00\n      swap1\n      sload\n      swap1\n      0x0100\n      exp\n      swap1\n      div\n      0xff\n      and\n        /* \"crowndfound/raisefund.sol\":2821:2875  require(projectInfo.isActive, \"Project is not active\") */\n      tag_87\n      jumpi\n      mload(0x40)\n      0x08c379a000000000000000000000000000000000000000000000000000000000\n      dup2\n      mstore\n      0x04\n      add\n      tag_88\n      swap1\n      tag_89\n      jump\t// in\n    tag_88:\n      mload(0x40)\n      dup1\n      swap2\n      sub\n      swap1\n      revert\n    tag_87:\n        /* \"crowndfound/raisefund.sol\":2882:2896  uint256 amount */\n      0x00\n        /* \"crowndfound/raisefund.sol\":2899:2908  msg.value */\n      callvalue\n        /* \"crowndfound/raisefund.sol\":2882:2908  uint256 amount = msg.value */\n      swap1\n      pop\n        /* \"crowndfound/raisefund.sol\":3002:3008  amount */\n      dup1\n        /* \"crowndfound/raisefund.sol\":2975:2986  projectInfo */\n      dup3\n        /* \"crowndfound/raisefund.sol\":2975:2998  projectInfo.totalRaised */\n      0x03\n      add\n      0x00\n        /* \"crowndfound/raisefund.sol\":2975:3008  projectInfo.totalRaised += amount */\n      dup3\n      dup3\n      sload\n      tag_90\n      swap2\n      swap1\n      tag_91\n      jump\t// in\n    tag_90:\n      swap3\n      pop\n      pop\n      dup2\n      swap1\n      sstore\n      pop\n        /* \"crowndfound/raisefund.sol\":3014:3035  funders memory funder */\n      0x00\n        /* \"crowndfound/raisefund.sol\":3038:3083  funders({funder: msg.sender, amount: amount}) */\n      mload(0x40)\n      dup1\n      0x40\n      add\n      0x40\n      mstore\n      dup1\n        /* \"crowndfound/raisefund.sol\":3055:3065  msg.sender */\n      caller\n        /* \"crowndfound/raisefund.sol\":3038:3083  funders({funder: msg.sender, amount: amount}) */\n      0xffffffffffffffffffffffffffffffffffffffff\n      and\n      dup2\n      mstore\n      0x20\n      add\n        /* \"crowndfound/raisefund.sol\":3075:3081  amount */\n      dup4\n        /* \"crowndfound/raisefund.sol\":3038:3083  funders({funder: msg.sender, amount: amount}) */\n      dup2\n      mstore\n      pop\n        /* \"crowndfound/raisefund.sol\":3014:3083  funders memory funder = funders({funder: msg.sender, amount: amount}) */\n      swap1\n      pop\n        /* \"crowndfound/raisefund.sol\":3091:3101  funderinfo */\n      0x01\n        /* \"crowndfound/raisefund.sol\":3107:3113  funder */\n      dup2\n        /* \"crowndfound/raisefund.sol\":3091:3114  funderinfo.push(funder) */\n      swap1\n      dup1\n      0x01\n      dup2\n      sload\n      add\n      dup1\n      dup3\n      sstore\n      dup1\n      swap2\n      pop\n      pop\n      0x01\n      swap1\n      sub\n      swap1\n      0x00\n      mstore\n      keccak256(0x00, 0x20)\n      swap1\n      0x02\n      mul\n      add\n      0x00\n      swap1\n      swap2\n      swap1\n      swap2\n      swap1\n      swap2\n      pop\n      0x00\n      dup3\n      add\n      mload\n      dup2\n      0x00\n      add\n      exp(0x0100, 0x00)\n      dup2\n      sload\n      dup2\n      0xffffffffffffffffffffffffffffffffffffffff\n      mul\n      not\n      and\n      swap1\n      dup4\n      0xffffffffffffffffffffffffffffffffffffffff\n      and\n      mul\n      or\n      swap1\n      sstore\n      pop\n      0x20\n      dup3\n      add\n      mload\n      dup2\n      0x01\n      add\n      sstore\n      pop\n      pop\n        /* \"crowndfound/raisefund.sol\":3180:3191  projectInfo */\n      dup3\n        /* \"crowndfound/raisefund.sol\":3180:3196  projectInfo.goal */\n      0x02\n      add\n      sload\n        /* \"crowndfound/raisefund.sol\":3153:3164  projectInfo */\n      dup4\n        /* \"crowndfound/raisefund.sol\":3153:3176  projectInfo.totalRaised */\n      0x03\n      add\n      sload\n        /* \"crowndfound/raisefund.sol\":3153:3196  projectInfo.totalRaised >= projectInfo.goal */\n      lt\n        /* \"crowndfound/raisefund.sol\":3150:3282  if(projectInfo.totalRaised >= projectInfo.goal){... */\n      tag_93\n      jumpi\n        /* \"crowndfound/raisefund.sol\":3233:3237  true */\n      0x01\n        /* \"crowndfound/raisefund.sol\":3207:3218  projectInfo */\n      dup4\n        /* \"crowndfound/raisefund.sol\":3207:3230  projectInfo.isCompleted */\n      0x04\n      add\n      0x01\n        /* \"crowndfound/raisefund.sol\":3207:3237  projectInfo.isCompleted = true */\n      0x0100\n      exp\n      dup2\n      sload\n      dup2\n      0xff\n      mul\n      not\n      and\n      swap1\n      dup4\n      iszero\n      iszero\n      mul\n      or\n      swap1\n      sstore\n      pop\n        /* \"crowndfound/raisefund.sol\":3270:3275  false */\n      0x00\n        /* \"crowndfound/raisefund.sol\":3247:3258  projectInfo */\n      dup4\n        /* \"crowndfound/raisefund.sol\":3247:3267  projectInfo.isActive */\n      0x04\n      add\n      0x00\n        /* \"crowndfound/raisefund.sol\":3247:3275  projectInfo.isActive = false */\n      0x0100\n      exp\n      dup2\n      sload\n      dup2\n      0xff\n      mul\n      not\n      and\n      swap1\n      dup4\n      iszero\n      iszero\n      mul\n      or\n      swap1\n      sstore\n      pop\n        /* \"crowndfound/raisefund.sol\":3150:3282  if(projectInfo.totalRaised >= projectInfo.goal){... */\n    tag_93:\n        /* \"crowndfound/raisefund.sol\":2329:3284  {... */\n      pop\n      pop\n      pop\n        /* \"crowndfound/raisefund.sol\":2269:3284  function fundProject(string  calldata _name) public payable {... */\n      pop\n      pop\n      jump\t// out\n        /* \"crowndfound/raisefund.sol\":980:1007  funders[] public funderinfo */\n    tag_37:\n      0x01\n      dup2\n      dup2\n      sload\n      dup2\n      lt\n      tag_94\n      jumpi\n      0x00\n      dup1\n      revert\n    tag_94:\n      swap1\n      0x00\n      mstore\n      keccak256(0x00, 0x20)\n      swap1\n      0x02\n      mul\n      add\n      0x00\n      swap2\n      pop\n      swap1\n      pop\n      dup1\n      0x00\n      add\n      0x00\n      swap1\n      sload\n      swap1\n      0x0100\n      exp\n      swap1\n      div\n      0xffffffffffffffffffffffffffffffffffffffff\n      and\n      swap1\n      dup1\n      0x01\n      add\n      sload\n      swap1\n      pop\n      dup3\n      jump\t// out\n        /* \"crowndfound/lib.sol\":449:624  function converterUSD( uint256 _ethamount)internal view returns(uint256){... */\n    tag_82:\n        /* \"crowndfound/lib.sol\":513:520  uint256 */\n      0x00\n        /* \"crowndfound/lib.sol\":524:537  uint256 price */\n      0x00\n        /* \"crowndfound/lib.sol\":540:556  getEthPriceUSD() */\n      tag_97\n        /* \"crowndfound/lib.sol\":540:554  getEthPriceUSD */\n      tag_98\n        /* \"crowndfound/lib.sol\":540:556  getEthPriceUSD() */\n      jump\t// in\n    tag_97:\n        /* \"crowndfound/lib.sol\":524:556  uint256 price = getEthPriceUSD() */\n      swap1\n      pop\n        /* \"crowndfound/lib.sol\":560:575  uint256 convert */\n      0x00\n        /* \"crowndfound/lib.sol\":599:603  1e18 */\n      0x0de0b6b3a7640000\n        /* \"crowndfound/lib.sol\":587:597  _ethamount */\n      dup5\n        /* \"crowndfound/lib.sol\":579:584  price */\n      dup4\n        /* \"crowndfound/lib.sol\":579:597  price * _ethamount */\n      tag_99\n      swap2\n      swap1\n      tag_60\n      jump\t// in\n    tag_99:\n        /* \"crowndfound/lib.sol\":578:603  (price * _ethamount)/1e18 */\n      tag_100\n      swap2\n      swap1\n      tag_62\n      jump\t// in\n    tag_100:\n        /* \"crowndfound/lib.sol\":560:603  uint256 convert = (price * _ethamount)/1e18 */\n      swap1\n      pop\n        /* \"crowndfound/lib.sol\":614:621  convert */\n      dup1\n        /* \"crowndfound/lib.sol\":607:621  return convert */\n      swap3\n      pop\n      pop\n      pop\n        /* \"crowndfound/lib.sol\":449:624  function converterUSD( uint256 _ethamount)internal view returns(uint256){... */\n      swap2\n      swap1\n      pop\n      jump\t// out\n        /* \"crowndfound/lib.sol\":200:446  function getEthPriceUSD() internal view returns(uint256){... */\n    tag_98:\n        /* \"crowndfound/lib.sol\":248:255  uint256 */\n      0x00\n        /* \"crowndfound/lib.sol\":259:291  AggregatorV3Interface price_data */\n      0x00\n        /* \"crowndfound/lib.sol\":316:358  0x694AA1769357215DE4FAC081bf1f309aDC325306 */\n      0x694aa1769357215de4fac081bf1f309adc325306\n        /* \"crowndfound/lib.sol\":259:359  AggregatorV3Interface price_data = AggregatorV3Interface(0x694AA1769357215DE4FAC081bf1f309aDC325306) */\n      swap1\n      pop\n        /* \"crowndfound/lib.sol\":364:376  int256 price */\n      0x00\n        /* \"crowndfound/lib.sol\":383:393  price_data */\n      dup2\n        /* \"crowndfound/lib.sol\":383:409  price_data.latestRoundData */\n      0xffffffffffffffffffffffffffffffffffffffff\n      and\n      0xfeaf968c\n        /* \"crowndfound/lib.sol\":383:411  price_data.latestRoundData() */\n      mload(0x40)\n      dup2\n      0xffffffff\n      and\n      0xe0\n      shl\n      dup2\n      mstore\n      0x04\n      add\n      0xa0\n      mload(0x40)\n      dup1\n      dup4\n      sub\n      dup2\n      dup7\n      gas\n      staticcall\n      iszero\n      dup1\n      iszero\n      tag_103\n      jumpi\n      returndatacopy(0x00, 0x00, returndatasize)\n      revert(0x00, returndatasize)\n    tag_103:\n      pop\n      pop\n      pop\n      pop\n      mload(0x40)\n      returndatasize\n      not(0x1f)\n      0x1f\n      dup3\n      add\n      and\n      dup3\n      add\n      dup1\n      0x40\n      mstore\n      pop\n      dup2\n      add\n      swap1\n      tag_104\n      swap2\n      swap1\n      tag_105\n      jump\t// in\n    tag_104:\n        /* \"crowndfound/lib.sol\":362:411  (,int256 price,,,) = price_data.latestRoundData() */\n      pop\n      pop\n      pop\n      swap2\n      pop\n      pop\n        /* \"crowndfound/lib.sol\":438:442  1e10 */\n      0x02540be400\n        /* \"crowndfound/lib.sol\":429:434  price */\n      dup2\n        /* \"crowndfound/lib.sol\":421:442  uint256(price )* 1e10 */\n      tag_106\n      swap2\n      swap1\n      tag_60\n      jump\t// in\n    tag_106:\n        /* \"crowndfound/lib.sol\":414:442  return uint256(price )* 1e10 */\n      swap3\n      pop\n      pop\n      pop\n        /* \"crowndfound/lib.sol\":200:446  function getEthPriceUSD() internal view returns(uint256){... */\n      swap1\n      jump\t// out\n        /* \"#utility.yul\":7:82   */\n    tag_107:\n        /* \"#utility.yul\":40:46   */\n      0x00\n        /* \"#utility.yul\":73:75   */\n      0x40\n        /* \"#utility.yul\":67:76   */\n      mload\n        /* \"#utility.yul\":57:76   */\n      swap1\n      pop\n        /* \"#utility.yul\":7:82   */\n      swap1\n      jump\t// out\n        /* \"#utility.yul\":88:205   */\n    tag_108:\n        /* \"#utility.yul\":197:198   */\n      0x00\n        /* \"#utility.yul\":194:195   */\n      0x00\n        /* \"#utility.yul\":187:199   */\n      revert\n        /* \"#utility.yul\":211:328   */\n    tag_109:\n        /* \"#utility.yul\":320:321   */\n      0x00\n        /* \"#utility.yul\":317:318   */\n      0x00\n        /* \"#utility.yul\":310:322   */\n      revert\n        /* \"#utility.yul\":334:451   */\n    tag_110:\n        /* \"#utility.yul\":443:444   */\n      0x00\n        /* \"#utility.yul\":440:441   */\n      0x00\n        /* \"#utility.yul\":433:445   */\n      revert\n        /* \"#utility.yul\":457:574   */\n    tag_111:\n        /* \"#utility.yul\":566:567   */\n      0x00\n        /* \"#utility.yul\":563:564   */\n      0x00\n        /* \"#utility.yul\":556:568   */\n      revert\n        /* \"#utility.yul\":580:697   */\n    tag_112:\n        /* \"#utility.yul\":689:690   */\n      0x00\n        /* \"#utility.yul\":686:687   */\n      0x00\n        /* \"#utility.yul\":679:691   */\n      revert\n        /* \"#utility.yul\":717:1270   */\n    tag_113:\n        /* \"#utility.yul\":775:783   */\n      0x00\n        /* \"#utility.yul\":785:791   */\n      0x00\n        /* \"#utility.yul\":835:838   */\n      dup4\n        /* \"#utility.yul\":828:832   */\n      0x1f\n        /* \"#utility.yul\":820:826   */\n      dup5\n        /* \"#utility.yul\":816:833   */\n      add\n        /* \"#utility.yul\":812:839   */\n      slt\n        /* \"#utility.yul\":802:924   */\n      tag_189\n      jumpi\n        /* \"#utility.yul\":843:922   */\n      tag_190\n      tag_110\n      jump\t// in\n    tag_190:\n        /* \"#utility.yul\":802:924   */\n    tag_189:\n        /* \"#utility.yul\":956:962   */\n      dup3\n        /* \"#utility.yul\":943:963   */\n      calldataload\n        /* \"#utility.yul\":933:963   */\n      swap1\n      pop\n        /* \"#utility.yul\":986:1004   */\n      0xffffffffffffffff\n        /* \"#utility.yul\":978:984   */\n      dup2\n        /* \"#utility.yul\":975:1005   */\n      gt\n        /* \"#utility.yul\":972:1089   */\n      iszero\n      tag_191\n      jumpi\n        /* \"#utility.yul\":1008:1087   */\n      tag_192\n      tag_111\n      jump\t// in\n    tag_192:\n        /* \"#utility.yul\":972:1089   */\n    tag_191:\n        /* \"#utility.yul\":1122:1126   */\n      0x20\n        /* \"#utility.yul\":1114:1120   */\n      dup4\n        /* \"#utility.yul\":1110:1127   */\n      add\n        /* \"#utility.yul\":1098:1127   */\n      swap2\n      pop\n        /* \"#utility.yul\":1176:1179   */\n      dup4\n        /* \"#utility.yul\":1168:1172   */\n      0x01\n        /* \"#utility.yul\":1160:1166   */\n      dup3\n        /* \"#utility.yul\":1156:1173   */\n      mul\n        /* \"#utility.yul\":1146:1154   */\n      dup4\n        /* \"#utility.yul\":1142:1174   */\n      add\n        /* \"#utility.yul\":1139:1180   */\n      gt\n        /* \"#utility.yul\":1136:1264   */\n      iszero\n      tag_193\n      jumpi\n        /* \"#utility.yul\":1183:1262   */\n      tag_194\n      tag_112\n      jump\t// in\n    tag_194:\n        /* \"#utility.yul\":1136:1264   */\n    tag_193:\n        /* \"#utility.yul\":717:1270   */\n      swap3\n      pop\n      swap3\n      swap1\n      pop\n      jump\t// out\n        /* \"#utility.yul\":1276:1353   */\n    tag_114:\n        /* \"#utility.yul\":1313:1320   */\n      0x00\n        /* \"#utility.yul\":1342:1347   */\n      dup2\n        /* \"#utility.yul\":1331:1347   */\n      swap1\n      pop\n        /* \"#utility.yul\":1276:1353   */\n      swap2\n      swap1\n      pop\n      jump\t// out\n        /* \"#utility.yul\":1359:1481   */\n    tag_115:\n        /* \"#utility.yul\":1432:1456   */\n      tag_197\n        /* \"#utility.yul\":1450:1455   */\n      dup2\n        /* \"#utility.yul\":1432:1456   */\n      tag_114\n      jump\t// in\n    tag_197:\n        /* \"#utility.yul\":1425:1430   */\n      dup2\n        /* \"#utility.yul\":1422:1457   */\n      eq\n        /* \"#utility.yul\":1412:1475   */\n      tag_198\n      jumpi\n        /* \"#utility.yul\":1471:1472   */\n      0x00\n        /* \"#utility.yul\":1468:1469   */\n      0x00\n        /* \"#utility.yul\":1461:1473   */\n      revert\n        /* \"#utility.yul\":1412:1475   */\n    tag_198:\n        /* \"#utility.yul\":1359:1481   */\n      pop\n      jump\t// out\n        /* \"#utility.yul\":1487:1626   */\n    tag_116:\n        /* \"#utility.yul\":1533:1538   */\n      0x00\n        /* \"#utility.yul\":1571:1577   */\n      dup2\n        /* \"#utility.yul\":1558:1578   */\n      calldataload\n        /* \"#utility.yul\":1549:1578   */\n      swap1\n      pop\n        /* \"#utility.yul\":1587:1620   */\n      tag_200\n        /* \"#utility.yul\":1614:1619   */\n      dup2\n        /* \"#utility.yul\":1587:1620   */\n      tag_115\n      jump\t// in\n    tag_200:\n        /* \"#utility.yul\":1487:1626   */\n      swap3\n      swap2\n      pop\n      pop\n      jump\t// out\n        /* \"#utility.yul\":1632:2306   */\n    tag_11:\n        /* \"#utility.yul\":1712:1718   */\n      0x00\n        /* \"#utility.yul\":1720:1726   */\n      0x00\n        /* \"#utility.yul\":1728:1734   */\n      0x00\n        /* \"#utility.yul\":1777:1779   */\n      0x40\n        /* \"#utility.yul\":1765:1774   */\n      dup5\n        /* \"#utility.yul\":1756:1763   */\n      dup7\n        /* \"#utility.yul\":1752:1775   */\n      sub\n        /* \"#utility.yul\":1748:1780   */\n      slt\n        /* \"#utility.yul\":1745:1864   */\n      iszero\n      tag_202\n      jumpi\n        /* \"#utility.yul\":1783:1862   */\n      tag_203\n      tag_108\n      jump\t// in\n    tag_203:\n        /* \"#utility.yul\":1745:1864   */\n    tag_202:\n        /* \"#utility.yul\":1931:1932   */\n      0x00\n        /* \"#utility.yul\":1920:1929   */\n      dup5\n        /* \"#utility.yul\":1916:1933   */\n      add\n        /* \"#utility.yul\":1903:1934   */\n      calldataload\n        /* \"#utility.yul\":1961:1979   */\n      0xffffffffffffffff\n        /* \"#utility.yul\":1953:1959   */\n      dup2\n        /* \"#utility.yul\":1950:1980   */\n      gt\n        /* \"#utility.yul\":1947:2064   */\n      iszero\n      tag_204\n      jumpi\n        /* \"#utility.yul\":1983:2062   */\n      tag_205\n      tag_109\n      jump\t// in\n    tag_205:\n        /* \"#utility.yul\":1947:2064   */\n    tag_204:\n        /* \"#utility.yul\":2096:2161   */\n      tag_206\n        /* \"#utility.yul\":2153:2160   */\n      dup7\n        /* \"#utility.yul\":2144:2150   */\n      dup3\n        /* \"#utility.yul\":2133:2142   */\n      dup8\n        /* \"#utility.yul\":2129:2151   */\n      add\n        /* \"#utility.yul\":2096:2161   */\n      tag_113\n      jump\t// in\n    tag_206:\n        /* \"#utility.yul\":2078:2161   */\n      swap4\n      pop\n      swap4\n      pop\n        /* \"#utility.yul\":1874:2171   */\n      pop\n        /* \"#utility.yul\":2210:2212   */\n      0x20\n        /* \"#utility.yul\":2236:2289   */\n      tag_207\n        /* \"#utility.yul\":2281:2288   */\n      dup7\n        /* \"#utility.yul\":2272:2278   */\n      dup3\n        /* \"#utility.yul\":2261:2270   */\n      dup8\n        /* \"#utility.yul\":2257:2279   */\n      add\n        /* \"#utility.yul\":2236:2289   */\n      tag_116\n      jump\t// in\n    tag_207:\n        /* \"#utility.yul\":2226:2289   */\n      swap2\n      pop\n        /* \"#utility.yul\":2181:2299   */\n      pop\n        /* \"#utility.yul\":1632:2306   */\n      swap3\n      pop\n      swap3\n      pop\n      swap3\n      jump\t// out\n        /* \"#utility.yul\":2312:2429   */\n    tag_117:\n        /* \"#utility.yul\":2421:2422   */\n      0x00\n        /* \"#utility.yul\":2418:2419   */\n      0x00\n        /* \"#utility.yul\":2411:2423   */\n      revert\n        /* \"#utility.yul\":2435:2537   */\n    tag_118:\n        /* \"#utility.yul\":2476:2482   */\n      0x00\n        /* \"#utility.yul\":2527:2529   */\n      0x1f\n        /* \"#utility.yul\":2523:2530   */\n      not\n        /* \"#utility.yul\":2518:2520   */\n      0x1f\n        /* \"#utility.yul\":2511:2516   */\n      dup4\n        /* \"#utility.yul\":2507:2521   */\n      add\n        /* \"#utility.yul\":2503:2531   */\n      and\n        /* \"#utility.yul\":2493:2531   */\n      swap1\n      pop\n        /* \"#utility.yul\":2435:2537   */\n      swap2\n      swap1\n      pop\n      jump\t// out\n        /* \"#utility.yul\":2543:2723   */\n    tag_119:\n        /* \"#utility.yul\":2591:2668   */\n      0x4e487b7100000000000000000000000000000000000000000000000000000000\n        /* \"#utility.yul\":2588:2589   */\n      0x00\n        /* \"#utility.yul\":2581:2669   */\n      mstore\n        /* \"#utility.yul\":2688:2692   */\n      0x41\n        /* \"#utility.yul\":2685:2686   */\n      0x04\n        /* \"#utility.yul\":2678:2693   */\n      mstore\n        /* \"#utility.yul\":2712:2716   */\n      0x24\n        /* \"#utility.yul\":2709:2710   */\n      0x00\n        /* \"#utility.yul\":2702:2717   */\n      revert\n        /* \"#utility.yul\":2729:3010   */\n    tag_120:\n        /* \"#utility.yul\":2812:2839   */\n      tag_212\n        /* \"#utility.yul\":2834:2838   */\n      dup3\n        /* \"#utility.yul\":2812:2839   */\n      tag_118\n      jump\t// in\n    tag_212:\n        /* \"#utility.yul\":2804:2810   */\n      dup2\n        /* \"#utility.yul\":2800:2840   */\n      add\n        /* \"#utility.yul\":2942:2948   */\n      dup2\n        /* \"#utility.yul\":2930:2940   */\n      dup2\n        /* \"#utility.yul\":2927:2949   */\n      lt\n        /* \"#utility.yul\":2906:2924   */\n      0xffffffffffffffff\n        /* \"#utility.yul\":2894:2904   */\n      dup3\n        /* \"#utility.yul\":2891:2925   */\n      gt\n        /* \"#utility.yul\":2888:2950   */\n      or\n        /* \"#utility.yul\":2885:2973   */\n      iszero\n      tag_213\n      jumpi\n        /* \"#utility.yul\":2953:2971   */\n      tag_214\n      tag_119\n      jump\t// in\n    tag_214:\n        /* \"#utility.yul\":2885:2973   */\n    tag_213:\n        /* \"#utility.yul\":2993:3003   */\n      dup1\n        /* \"#utility.yul\":2989:2991   */\n      0x40\n        /* \"#utility.yul\":2982:3004   */\n      mstore\n        /* \"#utility.yul\":2772:3010   */\n      pop\n        /* \"#utility.yul\":2729:3010   */\n      pop\n      pop\n      jump\t// out\n        /* \"#utility.yul\":3016:3145   */\n    tag_121:\n        /* \"#utility.yul\":3050:3056   */\n      0x00\n        /* \"#utility.yul\":3077:3097   */\n      tag_216\n      tag_107\n      jump\t// in\n    tag_216:\n        /* \"#utility.yul\":3067:3097   */\n      swap1\n      pop\n        /* \"#utility.yul\":3106:3139   */\n      tag_217\n        /* \"#utility.yul\":3134:3138   */\n      dup3\n        /* \"#utility.yul\":3126:3132   */\n      dup3\n        /* \"#utility.yul\":3106:3139   */\n      tag_120\n      jump\t// in\n    tag_217:\n        /* \"#utility.yul\":3016:3145   */\n      swap2\n      swap1\n      pop\n      jump\t// out\n        /* \"#utility.yul\":3151:3459   */\n    tag_122:\n        /* \"#utility.yul\":3213:3217   */\n      0x00\n        /* \"#utility.yul\":3303:3321   */\n      0xffffffffffffffff\n        /* \"#utility.yul\":3295:3301   */\n      dup3\n        /* \"#utility.yul\":3292:3322   */\n      gt\n        /* \"#utility.yul\":3289:3345   */\n      iszero\n      tag_219\n      jumpi\n        /* \"#utility.yul\":3325:3343   */\n      tag_220\n      tag_119\n      jump\t// in\n    tag_220:\n        /* \"#utility.yul\":3289:3345   */\n    tag_219:\n        /* \"#utility.yul\":3363:3392   */\n      tag_221\n        /* \"#utility.yul\":3385:3391   */\n      dup3\n        /* \"#utility.yul\":3363:3392   */\n      tag_118\n      jump\t// in\n    tag_221:\n        /* \"#utility.yul\":3355:3392   */\n      swap1\n      pop\n        /* \"#utility.yul\":3447:3451   */\n      0x20\n        /* \"#utility.yul\":3441:3445   */\n      dup2\n        /* \"#utility.yul\":3437:3452   */\n      add\n        /* \"#utility.yul\":3429:3452   */\n      swap1\n      pop\n        /* \"#utility.yul\":3151:3459   */\n      swap2\n      swap1\n      pop\n      jump\t// out\n        /* \"#utility.yul\":3465:3613   */\n    tag_123:\n        /* \"#utility.yul\":3563:3569   */\n      dup3\n        /* \"#utility.yul\":3558:3561   */\n      dup2\n        /* \"#utility.yul\":3553:3556   */\n      dup4\n        /* \"#utility.yul\":3540:3570   */\n      calldatacopy\n        /* \"#utility.yul\":3604:3605   */\n      0x00\n        /* \"#utility.yul\":3595:3601   */\n      dup4\n        /* \"#utility.yul\":3590:3593   */\n      dup4\n        /* \"#utility.yul\":3586:3602   */\n      add\n        /* \"#utility.yul\":3579:3606   */\n      mstore\n        /* \"#utility.yul\":3465:3613   */\n      pop\n      pop\n      pop\n      jump\t// out\n        /* \"#utility.yul\":3619:4044   */\n    tag_124:\n        /* \"#utility.yul\":3697:3702   */\n      0x00\n        /* \"#utility.yul\":3722:3788   */\n      tag_224\n        /* \"#utility.yul\":3738:3787   */\n      tag_225\n        /* \"#utility.yul\":3780:3786   */\n      dup5\n        /* \"#utility.yul\":3738:3787   */\n      tag_122\n      jump\t// in\n    tag_225:\n        /* \"#utility.yul\":3722:3788   */\n      tag_121\n      jump\t// in\n    tag_224:\n        /* \"#utility.yul\":3713:3788   */\n      swap1\n      pop\n        /* \"#utility.yul\":3811:3817   */\n      dup3\n        /* \"#utility.yul\":3804:3809   */\n      dup2\n        /* \"#utility.yul\":3797:3818   */\n      mstore\n        /* \"#utility.yul\":3849:3853   */\n      0x20\n        /* \"#utility.yul\":3842:3847   */\n      dup2\n        /* \"#utility.yul\":3838:3854   */\n      add\n        /* \"#utility.yul\":3887:3890   */\n      dup5\n        /* \"#utility.yul\":3878:3884   */\n      dup5\n        /* \"#utility.yul\":3873:3876   */\n      dup5\n        /* \"#utility.yul\":3869:3885   */\n      add\n        /* \"#utility.yul\":3866:3891   */\n      gt\n        /* \"#utility.yul\":3863:3975   */\n      iszero\n      tag_226\n      jumpi\n        /* \"#utility.yul\":3894:3973   */\n      tag_227\n      tag_117\n      jump\t// in\n    tag_227:\n        /* \"#utility.yul\":3863:3975   */\n    tag_226:\n        /* \"#utility.yul\":3984:4038   */\n      tag_228\n        /* \"#utility.yul\":4031:4037   */\n      dup5\n        /* \"#utility.yul\":4026:4029   */\n      dup3\n        /* \"#utility.yul\":4021:4024   */\n      dup6\n        /* \"#utility.yul\":3984:4038   */\n      tag_123\n      jump\t// in\n    tag_228:\n        /* \"#utility.yul\":3703:4044   */\n      pop\n        /* \"#utility.yul\":3619:4044   */\n      swap4\n      swap3\n      pop\n      pop\n      pop\n      jump\t// out\n        /* \"#utility.yul\":4064:4404   */\n    tag_125:\n        /* \"#utility.yul\":4120:4125   */\n      0x00\n        /* \"#utility.yul\":4169:4172   */\n      dup3\n        /* \"#utility.yul\":4162:4166   */\n      0x1f\n        /* \"#utility.yul\":4154:4160   */\n      dup4\n        /* \"#utility.yul\":4150:4167   */\n      add\n        /* \"#utility.yul\":4146:4173   */\n      slt\n        /* \"#utility.yul\":4136:4258   */\n      tag_230\n      jumpi\n        /* \"#utility.yul\":4177:4256   */\n      tag_231\n      tag_110\n      jump\t// in\n    tag_231:\n        /* \"#utility.yul\":4136:4258   */\n    tag_230:\n        /* \"#utility.yul\":4294:4300   */\n      dup2\n        /* \"#utility.yul\":4281:4301   */\n      calldataload\n        /* \"#utility.yul\":4319:4398   */\n      tag_232\n        /* \"#utility.yul\":4394:4397   */\n      dup5\n        /* \"#utility.yul\":4386:4392   */\n      dup3\n        /* \"#utility.yul\":4379:4383   */\n      0x20\n        /* \"#utility.yul\":4371:4377   */\n      dup7\n        /* \"#utility.yul\":4367:4384   */\n      add\n        /* \"#utility.yul\":4319:4398   */\n      tag_124\n      jump\t// in\n    tag_232:\n        /* \"#utility.yul\":4310:4398   */\n      swap2\n      pop\n        /* \"#utility.yul\":4126:4404   */\n      pop\n        /* \"#utility.yul\":4064:4404   */\n      swap3\n      swap2\n      pop\n      pop\n      jump\t// out\n        /* \"#utility.yul\":4410:4919   */\n    tag_16:\n        /* \"#utility.yul\":4479:4485   */\n      0x00\n        /* \"#utility.yul\":4528:4530   */\n      0x20\n        /* \"#utility.yul\":4516:4525   */\n      dup3\n        /* \"#utility.yul\":4507:4514   */\n      dup5\n        /* \"#utility.yul\":4503:4526   */\n      sub\n        /* \"#utility.yul\":4499:4531   */\n      slt\n        /* \"#utility.yul\":4496:4615   */\n      iszero\n      tag_234\n      jumpi\n        /* \"#utility.yul\":4534:4613   */\n      tag_235\n      tag_108\n      jump\t// in\n    tag_235:\n        /* \"#utility.yul\":4496:4615   */\n    tag_234:\n        /* \"#utility.yul\":4682:4683   */\n      0x00\n        /* \"#utility.yul\":4671:4680   */\n      dup3\n        /* \"#utility.yul\":4667:4684   */\n      add\n        /* \"#utility.yul\":4654:4685   */\n      calldataload\n        /* \"#utility.yul\":4712:4730   */\n      0xffffffffffffffff\n        /* \"#utility.yul\":4704:4710   */\n      dup2\n        /* \"#utility.yul\":4701:4731   */\n      gt\n        /* \"#utility.yul\":4698:4815   */\n      iszero\n      tag_236\n      jumpi\n        /* \"#utility.yul\":4734:4813   */\n      tag_237\n      tag_109\n      jump\t// in\n    tag_237:\n        /* \"#utility.yul\":4698:4815   */\n    tag_236:\n        /* \"#utility.yul\":4839:4902   */\n      tag_238\n        /* \"#utility.yul\":4894:4901   */\n      dup5\n        /* \"#utility.yul\":4885:4891   */\n      dup3\n        /* \"#utility.yul\":4874:4883   */\n      dup6\n        /* \"#utility.yul\":4870:4892   */\n      add\n        /* \"#utility.yul\":4839:4902   */\n      tag_125\n      jump\t// in\n    tag_238:\n        /* \"#utility.yul\":4829:4902   */\n      swap2\n      pop\n        /* \"#utility.yul\":4625:4912   */\n      pop\n        /* \"#utility.yul\":4410:4919   */\n      swap3\n      swap2\n      pop\n      pop\n      jump\t// out\n        /* \"#utility.yul\":4925:5024   */\n    tag_126:\n        /* \"#utility.yul\":4977:4983   */\n      0x00\n        /* \"#utility.yul\":5011:5016   */\n      dup2\n        /* \"#utility.yul\":5005:5017   */\n      mload\n        /* \"#utility.yul\":4995:5017   */\n      swap1\n      pop\n        /* \"#utility.yul\":4925:5024   */\n      swap2\n      swap1\n      pop\n      jump\t// out\n        /* \"#utility.yul\":5030:5199   */\n    tag_127:\n        /* \"#utility.yul\":5114:5125   */\n      0x00\n        /* \"#utility.yul\":5148:5154   */\n      dup3\n        /* \"#utility.yul\":5143:5146   */\n      dup3\n        /* \"#utility.yul\":5136:5155   */\n      mstore\n        /* \"#utility.yul\":5188:5192   */\n      0x20\n        /* \"#utility.yul\":5183:5186   */\n      dup3\n        /* \"#utility.yul\":5179:5193   */\n      add\n        /* \"#utility.yul\":5164:5193   */\n      swap1\n      pop\n        /* \"#utility.yul\":5030:5199   */\n      swap3\n      swap2\n      pop\n      pop\n      jump\t// out\n        /* \"#utility.yul\":5205:5344   */\n    tag_128:\n        /* \"#utility.yul\":5294:5300   */\n      dup3\n        /* \"#utility.yul\":5289:5292   */\n      dup2\n        /* \"#utility.yul\":5284:5287   */\n      dup4\n        /* \"#utility.yul\":5278:5301   */\n      mcopy\n        /* \"#utility.yul\":5335:5336   */\n      0x00\n        /* \"#utility.yul\":5326:5332   */\n      dup4\n        /* \"#utility.yul\":5321:5324   */\n      dup4\n        /* \"#utility.yul\":5317:5333   */\n      add\n        /* \"#utility.yul\":5310:5337   */\n      mstore\n        /* \"#utility.yul\":5205:5344   */\n      pop\n      pop\n      pop\n      jump\t// out\n        /* \"#utility.yul\":5350:5727   */\n    tag_129:\n        /* \"#utility.yul\":5438:5441   */\n      0x00\n        /* \"#utility.yul\":5466:5505   */\n      tag_243\n        /* \"#utility.yul\":5499:5504   */\n      dup3\n        /* \"#utility.yul\":5466:5505   */\n      tag_126\n      jump\t// in\n    tag_243:\n        /* \"#utility.yul\":5521:5592   */\n      tag_244\n        /* \"#utility.yul\":5585:5591   */\n      dup2\n        /* \"#utility.yul\":5580:5583   */\n      dup6\n        /* \"#utility.yul\":5521:5592   */\n      tag_127\n      jump\t// in\n    tag_244:\n        /* \"#utility.yul\":5514:5592   */\n      swap4\n      pop\n        /* \"#utility.yul\":5601:5666   */\n      tag_245\n        /* \"#utility.yul\":5659:5665   */\n      dup2\n        /* \"#utility.yul\":5654:5657   */\n      dup6\n        /* \"#utility.yul\":5647:5651   */\n      0x20\n        /* \"#utility.yul\":5640:5645   */\n      dup7\n        /* \"#utility.yul\":5636:5652   */\n      add\n        /* \"#utility.yul\":5601:5666   */\n      tag_128\n      jump\t// in\n    tag_245:\n        /* \"#utility.yul\":5691:5720   */\n      tag_246\n        /* \"#utility.yul\":5713:5719   */\n      dup2\n        /* \"#utility.yul\":5691:5720   */\n      tag_118\n      jump\t// in\n    tag_246:\n        /* \"#utility.yul\":5686:5689   */\n      dup5\n        /* \"#utility.yul\":5682:5721   */\n      add\n        /* \"#utility.yul\":5675:5721   */\n      swap2\n      pop\n        /* \"#utility.yul\":5442:5727   */\n      pop\n        /* \"#utility.yul\":5350:5727   */\n      swap3\n      swap2\n      pop\n      pop\n      jump\t// out\n        /* \"#utility.yul\":5733:5859   */\n    tag_130:\n        /* \"#utility.yul\":5770:5777   */\n      0x00\n        /* \"#utility.yul\":5810:5852   */\n      0xffffffffffffffffffffffffffffffffffffffff\n        /* \"#utility.yul\":5803:5808   */\n      dup3\n        /* \"#utility.yul\":5799:5853   */\n      and\n        /* \"#utility.yul\":5788:5853   */\n      swap1\n      pop\n        /* \"#utility.yul\":5733:5859   */\n      swap2\n      swap1\n      pop\n      jump\t// out\n        /* \"#utility.yul\":5865:5969   */\n    tag_131:\n        /* \"#utility.yul\":5910:5917   */\n      0x00\n        /* \"#utility.yul\":5939:5963   */\n      tag_249\n        /* \"#utility.yul\":5957:5962   */\n      dup3\n        /* \"#utility.yul\":5939:5963   */\n      tag_130\n      jump\t// in\n    tag_249:\n        /* \"#utility.yul\":5928:5963   */\n      swap1\n      pop\n        /* \"#utility.yul\":5865:5969   */\n      swap2\n      swap1\n      pop\n      jump\t// out\n        /* \"#utility.yul\":5975:6117   */\n    tag_132:\n        /* \"#utility.yul\":6078:6110   */\n      tag_251\n        /* \"#utility.yul\":6104:6109   */\n      dup2\n        /* \"#utility.yul\":6078:6110   */\n      tag_131\n      jump\t// in\n    tag_251:\n        /* \"#utility.yul\":6073:6076   */\n      dup3\n        /* \"#utility.yul\":6066:6111   */\n      mstore\n        /* \"#utility.yul\":5975:6117   */\n      pop\n      pop\n      jump\t// out\n        /* \"#utility.yul\":6123:6241   */\n    tag_133:\n        /* \"#utility.yul\":6210:6234   */\n      tag_253\n        /* \"#utility.yul\":6228:6233   */\n      dup2\n        /* \"#utility.yul\":6210:6234   */\n      tag_114\n      jump\t// in\n    tag_253:\n        /* \"#utility.yul\":6205:6208   */\n      dup3\n        /* \"#utility.yul\":6198:6235   */\n      mstore\n        /* \"#utility.yul\":6123:6241   */\n      pop\n      pop\n      jump\t// out\n        /* \"#utility.yul\":6247:6337   */\n    tag_134:\n        /* \"#utility.yul\":6281:6288   */\n      0x00\n        /* \"#utility.yul\":6324:6329   */\n      dup2\n        /* \"#utility.yul\":6317:6330   */\n      iszero\n        /* \"#utility.yul\":6310:6331   */\n      iszero\n        /* \"#utility.yul\":6299:6331   */\n      swap1\n      pop\n        /* \"#utility.yul\":6247:6337   */\n      swap2\n      swap1\n      pop\n      jump\t// out\n        /* \"#utility.yul\":6343:6452   */\n    tag_135:\n        /* \"#utility.yul\":6424:6445   */\n      tag_256\n        /* \"#utility.yul\":6439:6444   */\n      dup2\n        /* \"#utility.yul\":6424:6445   */\n      tag_134\n      jump\t// in\n    tag_256:\n        /* \"#utility.yul\":6419:6422   */\n      dup3\n        /* \"#utility.yul\":6412:6446   */\n      mstore\n        /* \"#utility.yul\":6343:6452   */\n      pop\n      pop\n      jump\t// out\n        /* \"#utility.yul\":6458:7431   */\n    tag_19:\n        /* \"#utility.yul\":6737:6741   */\n      0x00\n        /* \"#utility.yul\":6775:6778   */\n      0xe0\n        /* \"#utility.yul\":6764:6773   */\n      dup3\n        /* \"#utility.yul\":6760:6779   */\n      add\n        /* \"#utility.yul\":6752:6779   */\n      swap1\n      pop\n        /* \"#utility.yul\":6825:6834   */\n      dup2\n        /* \"#utility.yul\":6819:6823   */\n      dup2\n        /* \"#utility.yul\":6815:6835   */\n      sub\n        /* \"#utility.yul\":6811:6812   */\n      0x00\n        /* \"#utility.yul\":6800:6809   */\n      dup4\n        /* \"#utility.yul\":6796:6813   */\n      add\n        /* \"#utility.yul\":6789:6836   */\n      mstore\n        /* \"#utility.yul\":6853:6931   */\n      tag_258\n        /* \"#utility.yul\":6926:6930   */\n      dup2\n        /* \"#utility.yul\":6917:6923   */\n      dup11\n        /* \"#utility.yul\":6853:6931   */\n      tag_129\n      jump\t// in\n    tag_258:\n        /* \"#utility.yul\":6845:6931   */\n      swap1\n      pop\n        /* \"#utility.yul\":6941:7029   */\n      tag_259\n        /* \"#utility.yul\":7025:7027   */\n      0x20\n        /* \"#utility.yul\":7014:7023   */\n      dup4\n        /* \"#utility.yul\":7010:7028   */\n      add\n        /* \"#utility.yul\":7001:7007   */\n      dup10\n        /* \"#utility.yul\":6941:7029   */\n      tag_132\n      jump\t// in\n    tag_259:\n        /* \"#utility.yul\":7039:7111   */\n      tag_260\n        /* \"#utility.yul\":7107:7109   */\n      0x40\n        /* \"#utility.yul\":7096:7105   */\n      dup4\n        /* \"#utility.yul\":7092:7110   */\n      add\n        /* \"#utility.yul\":7083:7089   */\n      dup9\n        /* \"#utility.yul\":7039:7111   */\n      tag_133\n      jump\t// in\n    tag_260:\n        /* \"#utility.yul\":7121:7193   */\n      tag_261\n        /* \"#utility.yul\":7189:7191   */\n      0x60\n        /* \"#utility.yul\":7178:7187   */\n      dup4\n        /* \"#utility.yul\":7174:7192   */\n      add\n        /* \"#utility.yul\":7165:7171   */\n      dup8\n        /* \"#utility.yul\":7121:7193   */\n      tag_133\n      jump\t// in\n    tag_261:\n        /* \"#utility.yul\":7203:7270   */\n      tag_262\n        /* \"#utility.yul\":7265:7268   */\n      0x80\n        /* \"#utility.yul\":7254:7263   */\n      dup4\n        /* \"#utility.yul\":7250:7269   */\n      add\n        /* \"#utility.yul\":7241:7247   */\n      dup7\n        /* \"#utility.yul\":7203:7270   */\n      tag_135\n      jump\t// in\n    tag_262:\n        /* \"#utility.yul\":7280:7347   */\n      tag_263\n        /* \"#utility.yul\":7342:7345   */\n      0xa0\n        /* \"#utility.yul\":7331:7340   */\n      dup4\n        /* \"#utility.yul\":7327:7346   */\n      add\n        /* \"#utility.yul\":7318:7324   */\n      dup6\n        /* \"#utility.yul\":7280:7347   */\n      tag_135\n      jump\t// in\n    tag_263:\n        /* \"#utility.yul\":7357:7424   */\n      tag_264\n        /* \"#utility.yul\":7419:7422   */\n      0xc0\n        /* \"#utility.yul\":7408:7417   */\n      dup4\n        /* \"#utility.yul\":7404:7423   */\n      add\n        /* \"#utility.yul\":7395:7401   */\n      dup5\n        /* \"#utility.yul\":7357:7424   */\n      tag_135\n      jump\t// in\n    tag_264:\n        /* \"#utility.yul\":6458:7431   */\n      swap9\n      swap8\n      pop\n      pop\n      pop\n      pop\n      pop\n      pop\n      pop\n      pop\n      jump\t// out\n        /* \"#utility.yul\":7437:7966   */\n    tag_23:\n        /* \"#utility.yul\":7508:7514   */\n      0x00\n        /* \"#utility.yul\":7516:7522   */\n      0x00\n        /* \"#utility.yul\":7565:7567   */\n      0x20\n        /* \"#utility.yul\":7553:7562   */\n      dup4\n        /* \"#utility.yul\":7544:7551   */\n      dup6\n        /* \"#utility.yul\":7540:7563   */\n      sub\n        /* \"#utility.yul\":7536:7568   */\n      slt\n        /* \"#utility.yul\":7533:7652   */\n      iszero\n      tag_266\n      jumpi\n        /* \"#utility.yul\":7571:7650   */\n      tag_267\n      tag_108\n      jump\t// in\n    tag_267:\n        /* \"#utility.yul\":7533:7652   */\n    tag_266:\n        /* \"#utility.yul\":7719:7720   */\n      0x00\n        /* \"#utility.yul\":7708:7717   */\n      dup4\n        /* \"#utility.yul\":7704:7721   */\n      add\n        /* \"#utility.yul\":7691:7722   */\n      calldataload\n        /* \"#utility.yul\":7749:7767   */\n      0xffffffffffffffff\n        /* \"#utility.yul\":7741:7747   */\n      dup2\n        /* \"#utility.yul\":7738:7768   */\n      gt\n        /* \"#utility.yul\":7735:7852   */\n      iszero\n      tag_268\n      jumpi\n        /* \"#utility.yul\":7771:7850   */\n      tag_269\n      tag_109\n      jump\t// in\n    tag_269:\n        /* \"#utility.yul\":7735:7852   */\n    tag_268:\n        /* \"#utility.yul\":7884:7949   */\n      tag_270\n        /* \"#utility.yul\":7941:7948   */\n      dup6\n        /* \"#utility.yul\":7932:7938   */\n      dup3\n        /* \"#utility.yul\":7921:7930   */\n      dup7\n        /* \"#utility.yul\":7917:7939   */\n      add\n        /* \"#utility.yul\":7884:7949   */\n      tag_113\n      jump\t// in\n    tag_270:\n        /* \"#utility.yul\":7866:7949   */\n      swap3\n      pop\n      swap3\n      pop\n        /* \"#utility.yul\":7662:7959   */\n      pop\n        /* \"#utility.yul\":7437:7966   */\n      swap3\n      pop\n      swap3\n      swap1\n      pop\n      jump\t// out\n        /* \"#utility.yul\":7972:8194   */\n    tag_29:\n        /* \"#utility.yul\":8065:8069   */\n      0x00\n        /* \"#utility.yul\":8103:8105   */\n      0x20\n        /* \"#utility.yul\":8092:8101   */\n      dup3\n        /* \"#utility.yul\":8088:8106   */\n      add\n        /* \"#utility.yul\":8080:8106   */\n      swap1\n      pop\n        /* \"#utility.yul\":8116:8187   */\n      tag_272\n        /* \"#utility.yul\":8184:8185   */\n      0x00\n        /* \"#utility.yul\":8173:8182   */\n      dup4\n        /* \"#utility.yul\":8169:8186   */\n      add\n        /* \"#utility.yul\":8160:8166   */\n      dup5\n        /* \"#utility.yul\":8116:8187   */\n      tag_133\n      jump\t// in\n    tag_272:\n        /* \"#utility.yul\":7972:8194   */\n      swap3\n      swap2\n      pop\n      pop\n      jump\t// out\n        /* \"#utility.yul\":8200:8529   */\n    tag_36:\n        /* \"#utility.yul\":8259:8265   */\n      0x00\n        /* \"#utility.yul\":8308:8310   */\n      0x20\n        /* \"#utility.yul\":8296:8305   */\n      dup3\n        /* \"#utility.yul\":8287:8294   */\n      dup5\n        /* \"#utility.yul\":8283:8306   */\n      sub\n        /* \"#utility.yul\":8279:8311   */\n      slt\n        /* \"#utility.yul\":8276:8395   */\n      iszero\n      tag_274\n      jumpi\n        /* \"#utility.yul\":8314:8393   */\n      tag_275\n      tag_108\n      jump\t// in\n    tag_275:\n        /* \"#utility.yul\":8276:8395   */\n    tag_274:\n        /* \"#utility.yul\":8434:8435   */\n      0x00\n        /* \"#utility.yul\":8459:8512   */\n      tag_276\n        /* \"#utility.yul\":8504:8511   */\n      dup5\n        /* \"#utility.yul\":8495:8501   */\n      dup3\n        /* \"#utility.yul\":8484:8493   */\n      dup6\n        /* \"#utility.yul\":8480:8502   */\n      add\n        /* \"#utility.yul\":8459:8512   */\n      tag_116\n      jump\t// in\n    tag_276:\n        /* \"#utility.yul\":8449:8512   */\n      swap2\n      pop\n        /* \"#utility.yul\":8405:8522   */\n      pop\n        /* \"#utility.yul\":8200:8529   */\n      swap3\n      swap2\n      pop\n      pop\n      jump\t// out\n        /* \"#utility.yul\":8535:8631   */\n    tag_136:\n        /* \"#utility.yul\":8572:8579   */\n      0x00\n        /* \"#utility.yul\":8601:8625   */\n      tag_278\n        /* \"#utility.yul\":8619:8624   */\n      dup3\n        /* \"#utility.yul\":8601:8625   */\n      tag_130\n      jump\t// in\n    tag_278:\n        /* \"#utility.yul\":8590:8625   */\n      swap1\n      pop\n        /* \"#utility.yul\":8535:8631   */\n      swap2\n      swap1\n      pop\n      jump\t// out\n        /* \"#utility.yul\":8637:8755   */\n    tag_137:\n        /* \"#utility.yul\":8724:8748   */\n      tag_280\n        /* \"#utility.yul\":8742:8747   */\n      dup2\n        /* \"#utility.yul\":8724:8748   */\n      tag_136\n      jump\t// in\n    tag_280:\n        /* \"#utility.yul\":8719:8722   */\n      dup3\n        /* \"#utility.yul\":8712:8749   */\n      mstore\n        /* \"#utility.yul\":8637:8755   */\n      pop\n      pop\n      jump\t// out\n        /* \"#utility.yul\":8761:9093   */\n    tag_39:\n        /* \"#utility.yul\":8882:8886   */\n      0x00\n        /* \"#utility.yul\":8920:8922   */\n      0x40\n        /* \"#utility.yul\":8909:8918   */\n      dup3\n        /* \"#utility.yul\":8905:8923   */\n      add\n        /* \"#utility.yul\":8897:8923   */\n      swap1\n      pop\n        /* \"#utility.yul\":8933:9004   */\n      tag_282\n        /* \"#utility.yul\":9001:9002   */\n      0x00\n        /* \"#utility.yul\":8990:8999   */\n      dup4\n        /* \"#utility.yul\":8986:9003   */\n      add\n        /* \"#utility.yul\":8977:8983   */\n      dup6\n        /* \"#utility.yul\":8933:9004   */\n      tag_137\n      jump\t// in\n    tag_282:\n        /* \"#utility.yul\":9014:9086   */\n      tag_283\n        /* \"#utility.yul\":9082:9084   */\n      0x20\n        /* \"#utility.yul\":9071:9080   */\n      dup4\n        /* \"#utility.yul\":9067:9085   */\n      add\n        /* \"#utility.yul\":9058:9064   */\n      dup5\n        /* \"#utility.yul\":9014:9086   */\n      tag_133\n      jump\t// in\n    tag_283:\n        /* \"#utility.yul\":8761:9093   */\n      swap4\n      swap3\n      pop\n      pop\n      pop\n      jump\t// out\n        /* \"#utility.yul\":9099:9247   */\n    tag_138:\n        /* \"#utility.yul\":9201:9212   */\n      0x00\n        /* \"#utility.yul\":9238:9241   */\n      dup2\n        /* \"#utility.yul\":9223:9241   */\n      swap1\n      pop\n        /* \"#utility.yul\":9099:9247   */\n      swap3\n      swap2\n      pop\n      pop\n      jump\t// out\n        /* \"#utility.yul\":9277:9607   */\n    tag_139:\n        /* \"#utility.yul\":9393:9396   */\n      0x00\n        /* \"#utility.yul\":9414:9503   */\n      tag_286\n        /* \"#utility.yul\":9496:9502   */\n      dup4\n        /* \"#utility.yul\":9491:9494   */\n      dup6\n        /* \"#utility.yul\":9414:9503   */\n      tag_138\n      jump\t// in\n    tag_286:\n        /* \"#utility.yul\":9407:9503   */\n      swap4\n      pop\n        /* \"#utility.yul\":9513:9569   */\n      tag_287\n        /* \"#utility.yul\":9562:9568   */\n      dup4\n        /* \"#utility.yul\":9557:9560   */\n      dup6\n        /* \"#utility.yul\":9550:9555   */\n      dup5\n        /* \"#utility.yul\":9513:9569   */\n      tag_123\n      jump\t// in\n    tag_287:\n        /* \"#utility.yul\":9594:9600   */\n      dup3\n        /* \"#utility.yul\":9589:9592   */\n      dup5\n        /* \"#utility.yul\":9585:9601   */\n      add\n        /* \"#utility.yul\":9578:9601   */\n      swap1\n      pop\n        /* \"#utility.yul\":9277:9607   */\n      swap4\n      swap3\n      pop\n      pop\n      pop\n      jump\t// out\n        /* \"#utility.yul\":9613:9908   */\n    tag_42:\n        /* \"#utility.yul\":9755:9758   */\n      0x00\n        /* \"#utility.yul\":9777:9882   */\n      tag_289\n        /* \"#utility.yul\":9878:9881   */\n      dup3\n        /* \"#utility.yul\":9869:9875   */\n      dup5\n        /* \"#utility.yul\":9861:9867   */\n      dup7\n        /* \"#utility.yul\":9777:9882   */\n      tag_139\n      jump\t// in\n    tag_289:\n        /* \"#utility.yul\":9770:9882   */\n      swap2\n      pop\n        /* \"#utility.yul\":9899:9902   */\n      dup2\n        /* \"#utility.yul\":9892:9902   */\n      swap1\n      pop\n        /* \"#utility.yul\":9613:9908   */\n      swap4\n      swap3\n      pop\n      pop\n      pop\n      jump\t// out\n        /* \"#utility.yul\":9914:10011   */\n    tag_140:\n        /* \"#utility.yul\":9973:9979   */\n      0x00\n        /* \"#utility.yul\":10001:10004   */\n      dup3\n        /* \"#utility.yul\":9991:10004   */\n      swap1\n      pop\n        /* \"#utility.yul\":9914:10011   */\n      swap3\n      swap2\n      pop\n      pop\n      jump\t// out\n        /* \"#utility.yul\":10017:10197   */\n    tag_141:\n        /* \"#utility.yul\":10065:10142   */\n      0x4e487b7100000000000000000000000000000000000000000000000000000000\n        /* \"#utility.yul\":10062:10063   */\n      0x00\n        /* \"#utility.yul\":10055:10143   */\n      mstore\n        /* \"#utility.yul\":10162:10166   */\n      0x22\n        /* \"#utility.yul\":10159:10160   */\n      0x04\n        /* \"#utility.yul\":10152:10167   */\n      mstore\n        /* \"#utility.yul\":10186:10190   */\n      0x24\n        /* \"#utility.yul\":10183:10184   */\n      0x00\n        /* \"#utility.yul\":10176:10191   */\n      revert\n        /* \"#utility.yul\":10203:10523   */\n    tag_46:\n        /* \"#utility.yul\":10247:10253   */\n      0x00\n        /* \"#utility.yul\":10284:10285   */\n      0x02\n        /* \"#utility.yul\":10278:10282   */\n      dup3\n        /* \"#utility.yul\":10274:10286   */\n      div\n        /* \"#utility.yul\":10264:10286   */\n      swap1\n      pop\n        /* \"#utility.yul\":10331:10332   */\n      0x01\n        /* \"#utility.yul\":10325:10329   */\n      dup3\n        /* \"#utility.yul\":10321:10333   */\n      and\n        /* \"#utility.yul\":10352:10370   */\n      dup1\n        /* \"#utility.yul\":10342:10423   */\n      tag_293\n      jumpi\n        /* \"#utility.yul\":10408:10412   */\n      0x7f\n        /* \"#utility.yul\":10400:10406   */\n      dup3\n        /* \"#utility.yul\":10396:10413   */\n      and\n        /* \"#utility.yul\":10386:10413   */\n      swap2\n      pop\n        /* \"#utility.yul\":10342:10423   */\n    tag_293:\n        /* \"#utility.yul\":10470:10472   */\n      0x20\n        /* \"#utility.yul\":10462:10468   */\n      dup3\n        /* \"#utility.yul\":10459:10473   */\n      lt\n        /* \"#utility.yul\":10439:10457   */\n      dup2\n        /* \"#utility.yul\":10436:10474   */\n      sub\n        /* \"#utility.yul\":10433:10517   */\n      tag_294\n      jumpi\n        /* \"#utility.yul\":10489:10507   */\n      tag_295\n      tag_141\n      jump\t// in\n    tag_295:\n        /* \"#utility.yul\":10433:10517   */\n    tag_294:\n        /* \"#utility.yul\":10254:10523   */\n      pop\n        /* \"#utility.yul\":10203:10523   */\n      swap2\n      swap1\n      pop\n      jump\t// out\n        /* \"#utility.yul\":10529:10670   */\n    tag_142:\n        /* \"#utility.yul\":10578:10582   */\n      0x00\n        /* \"#utility.yul\":10601:10604   */\n      dup2\n        /* \"#utility.yul\":10593:10604   */\n      swap1\n      pop\n        /* \"#utility.yul\":10624:10627   */\n      dup2\n        /* \"#utility.yul\":10621:10622   */\n      0x00\n        /* \"#utility.yul\":10614:10628   */\n      mstore\n        /* \"#utility.yul\":10658:10662   */\n      0x20\n        /* \"#utility.yul\":10655:10656   */\n      0x00\n        /* \"#utility.yul\":10645:10663   */\n      keccak256\n        /* \"#utility.yul\":10637:10663   */\n      swap1\n      pop\n        /* \"#utility.yul\":10529:10670   */\n      swap2\n      swap1\n      pop\n      jump\t// out\n        /* \"#utility.yul\":10676:10769   */\n    tag_143:\n        /* \"#utility.yul\":10713:10719   */\n      0x00\n        /* \"#utility.yul\":10760:10762   */\n      0x20\n        /* \"#utility.yul\":10755:10757   */\n      0x1f\n        /* \"#utility.yul\":10748:10753   */\n      dup4\n        /* \"#utility.yul\":10744:10758   */\n      add\n        /* \"#utility.yul\":10740:10763   */\n      div\n        /* \"#utility.yul\":10730:10763   */\n      swap1\n      pop\n        /* \"#utility.yul\":10676:10769   */\n      swap2\n      swap1\n      pop\n      jump\t// out\n        /* \"#utility.yul\":10775:10882   */\n    tag_144:\n        /* \"#utility.yul\":10819:10827   */\n      0x00\n        /* \"#utility.yul\":10869:10874   */\n      dup3\n        /* \"#utility.yul\":10863:10867   */\n      dup3\n        /* \"#utility.yul\":10859:10875   */\n      shl\n        /* \"#utility.yul\":10838:10875   */\n      swap1\n      pop\n        /* \"#utility.yul\":10775:10882   */\n      swap3\n      swap2\n      pop\n      pop\n      jump\t// out\n        /* \"#utility.yul\":10888:11281   */\n    tag_145:\n        /* \"#utility.yul\":10957:10963   */\n      0x00\n        /* \"#utility.yul\":11007:11008   */\n      0x08\n        /* \"#utility.yul\":10995:11005   */\n      dup4\n        /* \"#utility.yul\":10991:11009   */\n      mul\n        /* \"#utility.yul\":11030:11127   */\n      tag_300\n        /* \"#utility.yul\":11060:11126   */\n      0xffffffffffffffffffffffffffffffffffffffffffffffffffffffffffffffff\n        /* \"#utility.yul\":11049:11058   */\n      dup3\n        /* \"#utility.yul\":11030:11127   */\n      tag_144\n      jump\t// in\n    tag_300:\n        /* \"#utility.yul\":11148:11187   */\n      tag_301\n        /* \"#utility.yul\":11178:11186   */\n      dup7\n        /* \"#utility.yul\":11167:11176   */\n      dup4\n        /* \"#utility.yul\":11148:11187   */\n      tag_144\n      jump\t// in\n    tag_301:\n        /* \"#utility.yul\":11136:11187   */\n      swap6\n      pop\n        /* \"#utility.yul\":11220:11224   */\n      dup1\n        /* \"#utility.yul\":11216:11225   */\n      not\n        /* \"#utility.yul\":11209:11214   */\n      dup5\n        /* \"#utility.yul\":11205:11226   */\n      and\n        /* \"#utility.yul\":11196:11226   */\n      swap4\n      pop\n        /* \"#utility.yul\":11269:11273   */\n      dup1\n        /* \"#utility.yul\":11259:11267   */\n      dup7\n        /* \"#utility.yul\":11255:11274   */\n      and\n        /* \"#utility.yul\":11248:11253   */\n      dup5\n        /* \"#utility.yul\":11245:11275   */\n      or\n        /* \"#utility.yul\":11235:11275   */\n      swap3\n      pop\n        /* \"#utility.yul\":10964:11281   */\n      pop\n      pop\n        /* \"#utility.yul\":10888:11281   */\n      swap4\n      swap3\n      pop\n      pop\n      pop\n      jump\t// out\n        /* \"#utility.yul\":11287:11347   */\n    tag_146:\n        /* \"#utility.yul\":11315:11318   */\n      0x00\n        /* \"#utility.yul\":11336:11341   */\n      dup2\n        /* \"#utility.yul\":11329:11341   */\n      swap1\n      pop\n        /* \"#utility.yul\":11287:11347   */\n      swap2\n      swap1\n      pop\n      jump\t// out\n        /* \"#utility.yul\":11353:11495   */\n    tag_147:\n        /* \"#utility.yul\":11403:11412   */\n      0x00\n        /* \"#utility.yul\":11436:11489   */\n      tag_304\n        /* \"#utility.yul\":11454:11488   */\n      tag_305\n        /* \"#utility.yul\":11463:11487   */\n      tag_306\n        /* \"#utility.yul\":11481:11486   */\n      dup5\n        /* \"#utility.yul\":11463:11487   */\n      tag_114\n      jump\t// in\n    tag_306:\n        /* \"#utility.yul\":11454:11488   */\n      tag_146\n      jump\t// in\n    tag_305:\n        /* \"#utility.yul\":11436:11489   */\n      tag_114\n      jump\t// in\n    tag_304:\n        /* \"#utility.yul\":11423:11489   */\n      swap1\n      pop\n        /* \"#utility.yul\":11353:11495   */\n      swap2\n      swap1\n      pop\n      jump\t// out\n        /* \"#utility.yul\":11501:11576   */\n    tag_148:\n        /* \"#utility.yul\":11544:11547   */\n      0x00\n        /* \"#utility.yul\":11565:11570   */\n      dup2\n        /* \"#utility.yul\":11558:11570   */\n      swap1\n      pop\n        /* \"#utility.yul\":11501:11576   */\n      swap2\n      swap1\n      pop\n      jump\t// out\n        /* \"#utility.yul\":11582:11851   */\n    tag_149:\n        /* \"#utility.yul\":11692:11731   */\n      tag_309\n        /* \"#utility.yul\":11723:11730   */\n      dup4\n        /* \"#utility.yul\":11692:11731   */\n      tag_147\n      jump\t// in\n    tag_309:\n        /* \"#utility.yul\":11753:11844   */\n      tag_310\n        /* \"#utility.yul\":11802:11843   */\n      tag_311\n        /* \"#utility.yul\":11826:11842   */\n      dup3\n        /* \"#utility.yul\":11802:11843   */\n      tag_148\n      jump\t// in\n    tag_311:\n        /* \"#utility.yul\":11794:11800   */\n      dup5\n        /* \"#utility.yul\":11787:11791   */\n      dup5\n        /* \"#utility.yul\":11781:11792   */\n      sload\n        /* \"#utility.yul\":11753:11844   */\n      tag_145\n      jump\t// in\n    tag_310:\n        /* \"#utility.yul\":11747:11751   */\n      dup3\n        /* \"#utility.yul\":11740:11845   */\n      sstore\n        /* \"#utility.yul\":11658:11851   */\n      pop\n        /* \"#utility.yul\":11582:11851   */\n      pop\n      pop\n      pop\n      jump\t// out\n        /* \"#utility.yul\":11857:11930   */\n    tag_150:\n        /* \"#utility.yul\":11902:11905   */\n      0x00\n        /* \"#utility.yul\":11923:11924   */\n      0x00\n        /* \"#utility.yul\":11916:11924   */\n      swap1\n      pop\n        /* \"#utility.yul\":11857:11930   */\n      swap1\n      jump\t// out\n        /* \"#utility.yul\":11936:12125   */\n    tag_151:\n        /* \"#utility.yul\":12013:12045   */\n      tag_314\n      tag_150\n      jump\t// in\n    tag_314:\n        /* \"#utility.yul\":12054:12119   */\n      tag_315\n        /* \"#utility.yul\":12112:12118   */\n      dup2\n        /* \"#utility.yul\":12104:12110   */\n      dup5\n        /* \"#utility.yul\":12098:12102   */\n      dup5\n        /* \"#utility.yul\":12054:12119   */\n      tag_149\n      jump\t// in\n    tag_315:\n        /* \"#utility.yul\":11989:12125   */\n      pop\n        /* \"#utility.yul\":11936:12125   */\n      pop\n      pop\n      jump\t// out\n        /* \"#utility.yul\":12131:12317   */\n    tag_152:\n        /* \"#utility.yul\":12191:12311   */\n    tag_317:\n        /* \"#utility.yul\":12208:12211   */\n      dup2\n        /* \"#utility.yul\":12201:12206   */\n      dup2\n        /* \"#utility.yul\":12198:12212   */\n      lt\n        /* \"#utility.yul\":12191:12311   */\n      iszero\n      tag_319\n      jumpi\n        /* \"#utility.yul\":12262:12301   */\n      tag_320\n        /* \"#utility.yul\":12299:12300   */\n      0x00\n        /* \"#utility.yul\":12292:12297   */\n      dup3\n        /* \"#utility.yul\":12262:12301   */\n      tag_151\n      jump\t// in\n    tag_320:\n        /* \"#utility.yul\":12235:12236   */\n      0x01\n        /* \"#utility.yul\":12228:12233   */\n      dup2\n        /* \"#utility.yul\":12224:12237   */\n      add\n        /* \"#utility.yul\":12215:12237   */\n      swap1\n      pop\n        /* \"#utility.yul\":12191:12311   */\n      jump(tag_317)\n    tag_319:\n        /* \"#utility.yul\":12131:12317   */\n      pop\n      pop\n      jump\t// out\n        /* \"#utility.yul\":12323:12866   */\n    tag_153:\n        /* \"#utility.yul\":12424:12426   */\n      0x1f\n        /* \"#utility.yul\":12419:12422   */\n      dup3\n        /* \"#utility.yul\":12416:12427   */\n      gt\n        /* \"#utility.yul\":12413:12859   */\n      iszero\n      tag_322\n      jumpi\n        /* \"#utility.yul\":12458:12496   */\n      tag_323\n        /* \"#utility.yul\":12490:12495   */\n      dup2\n        /* \"#utility.yul\":12458:12496   */\n      tag_142\n      jump\t// in\n    tag_323:\n        /* \"#utility.yul\":12542:12571   */\n      tag_324\n        /* \"#utility.yul\":12560:12570   */\n      dup5\n        /* \"#utility.yul\":12542:12571   */\n      tag_143\n      jump\t// in\n    tag_324:\n        /* \"#utility.yul\":12532:12540   */\n      dup2\n        /* \"#utility.yul\":12528:12572   */\n      add\n        /* \"#utility.yul\":12725:12727   */\n      0x20\n        /* \"#utility.yul\":12713:12723   */\n      dup6\n        /* \"#utility.yul\":12710:12728   */\n      lt\n        /* \"#utility.yul\":12707:12756   */\n      iszero\n      tag_325\n      jumpi\n        /* \"#utility.yul\":12746:12754   */\n      dup2\n        /* \"#utility.yul\":12731:12754   */\n      swap1\n      pop\n        /* \"#utility.yul\":12707:12756   */\n    tag_325:\n        /* \"#utility.yul\":12769:12849   */\n      tag_326\n        /* \"#utility.yul\":12825:12847   */\n      tag_327\n        /* \"#utility.yul\":12843:12846   */\n      dup6\n        /* \"#utility.yul\":12825:12847   */\n      tag_143\n      jump\t// in\n    tag_327:\n        /* \"#utility.yul\":12815:12823   */\n      dup4\n        /* \"#utility.yul\":12811:12848   */\n      add\n        /* \"#utility.yul\":12798:12809   */\n      dup3\n        /* \"#utility.yul\":12769:12849   */\n      tag_152\n      jump\t// in\n    tag_326:\n        /* \"#utility.yul\":12428:12859   */\n      pop\n      pop\n        /* \"#utility.yul\":12413:12859   */\n    tag_322:\n        /* \"#utility.yul\":12323:12866   */\n      pop\n      pop\n      pop\n      jump\t// out\n        /* \"#utility.yul\":12872:12989   */\n    tag_154:\n        /* \"#utility.yul\":12926:12934   */\n      0x00\n        /* \"#utility.yul\":12976:12981   */\n      dup3\n        /* \"#utility.yul\":12970:12974   */\n      dup3\n        /* \"#utility.yul\":12966:12982   */\n      shr\n        /* \"#utility.yul\":12945:12982   */\n      swap1\n      pop\n        /* \"#utility.yul\":12872:12989   */\n      swap3\n      swap2\n      pop\n      pop\n      jump\t// out\n        /* \"#utility.yul\":12995:13164   */\n    tag_155:\n        /* \"#utility.yul\":13039:13045   */\n      0x00\n        /* \"#utility.yul\":13072:13123   */\n      tag_330\n        /* \"#utility.yul\":13120:13121   */\n      0x00\n        /* \"#utility.yul\":13116:13122   */\n      not\n        /* \"#utility.yul\":13108:13113   */\n      dup5\n        /* \"#utility.yul\":13105:13106   */\n      0x08\n        /* \"#utility.yul\":13101:13114   */\n      mul\n        /* \"#utility.yul\":13072:13123   */\n      tag_154\n      jump\t// in\n    tag_330:\n        /* \"#utility.yul\":13068:13124   */\n      not\n        /* \"#utility.yul\":13153:13157   */\n      dup1\n        /* \"#utility.yul\":13147:13151   */\n      dup4\n        /* \"#utility.yul\":13143:13158   */\n      and\n        /* \"#utility.yul\":13133:13158   */\n      swap2\n      pop\n        /* \"#utility.yul\":13046:13164   */\n      pop\n        /* \"#utility.yul\":12995:13164   */\n      swap3\n      swap2\n      pop\n      pop\n      jump\t// out\n        /* \"#utility.yul\":13169:13464   */\n    tag_156:\n        /* \"#utility.yul\":13245:13249   */\n      0x00\n        /* \"#utility.yul\":13391:13420   */\n      tag_332\n        /* \"#utility.yul\":13416:13419   */\n      dup4\n        /* \"#utility.yul\":13410:13414   */\n      dup4\n        /* \"#utility.yul\":13391:13420   */\n      tag_155\n      jump\t// in\n    tag_332:\n        /* \"#utility.yul\":13383:13420   */\n      swap2\n      pop\n        /* \"#utility.yul\":13453:13456   */\n      dup3\n        /* \"#utility.yul\":13450:13451   */\n      0x02\n        /* \"#utility.yul\":13446:13457   */\n      mul\n        /* \"#utility.yul\":13440:13444   */\n      dup3\n        /* \"#utility.yul\":13437:13458   */\n      or\n        /* \"#utility.yul\":13429:13458   */\n      swap1\n      pop\n        /* \"#utility.yul\":13169:13464   */\n      swap3\n      swap2\n      pop\n      pop\n      jump\t// out\n        /* \"#utility.yul\":13469:14872   */\n    tag_44:\n        /* \"#utility.yul\":13593:13637   */\n      tag_334\n        /* \"#utility.yul\":13633:13636   */\n      dup4\n        /* \"#utility.yul\":13628:13631   */\n      dup4\n        /* \"#utility.yul\":13593:13637   */\n      tag_140\n      jump\t// in\n    tag_334:\n        /* \"#utility.yul\":13702:13720   */\n      0xffffffffffffffff\n        /* \"#utility.yul\":13694:13700   */\n      dup2\n        /* \"#utility.yul\":13691:13721   */\n      gt\n        /* \"#utility.yul\":13688:13744   */\n      iszero\n      tag_335\n      jumpi\n        /* \"#utility.yul\":13724:13742   */\n      tag_336\n      tag_119\n      jump\t// in\n    tag_336:\n        /* \"#utility.yul\":13688:13744   */\n    tag_335:\n        /* \"#utility.yul\":13768:13806   */\n      tag_337\n        /* \"#utility.yul\":13800:13804   */\n      dup3\n        /* \"#utility.yul\":13794:13805   */\n      sload\n        /* \"#utility.yul\":13768:13806   */\n      tag_46\n      jump\t// in\n    tag_337:\n        /* \"#utility.yul\":13853:13920   */\n      tag_338\n        /* \"#utility.yul\":13913:13919   */\n      dup3\n        /* \"#utility.yul\":13905:13911   */\n      dup3\n        /* \"#utility.yul\":13899:13903   */\n      dup6\n        /* \"#utility.yul\":13853:13920   */\n      tag_153\n      jump\t// in\n    tag_338:\n        /* \"#utility.yul\":13947:13948   */\n      0x00\n        /* \"#utility.yul\":13976:13978   */\n      0x1f\n        /* \"#utility.yul\":13968:13974   */\n      dup4\n        /* \"#utility.yul\":13965:13979   */\n      gt\n        /* \"#utility.yul\":13993:13994   */\n      0x01\n        /* \"#utility.yul\":13988:14620   */\n      dup2\n      eq\n      tag_340\n      jumpi\n        /* \"#utility.yul\":14664:14665   */\n      0x00\n        /* \"#utility.yul\":14681:14687   */\n      dup5\n        /* \"#utility.yul\":14678:14762   */\n      iszero\n      tag_341\n      jumpi\n        /* \"#utility.yul\":14737:14746   */\n      dup3\n        /* \"#utility.yul\":14732:14735   */\n      dup8\n        /* \"#utility.yul\":14728:14747   */\n      add\n        /* \"#utility.yul\":14715:14748   */\n      calldataload\n        /* \"#utility.yul\":14706:14748   */\n      swap1\n      pop\n        /* \"#utility.yul\":14678:14762   */\n    tag_341:\n        /* \"#utility.yul\":14788:14855   */\n      tag_342\n        /* \"#utility.yul\":14848:14854   */\n      dup6\n        /* \"#utility.yul\":14841:14846   */\n      dup3\n        /* \"#utility.yul\":14788:14855   */\n      tag_156\n      jump\t// in\n    tag_342:\n        /* \"#utility.yul\":14782:14786   */\n      dup7\n        /* \"#utility.yul\":14775:14856   */\n      sstore\n        /* \"#utility.yul\":14637:14866   */\n      pop\n        /* \"#utility.yul\":13958:14866   */\n      jump(tag_339)\n        /* \"#utility.yul\":13988:14620   */\n    tag_340:\n        /* \"#utility.yul\":14040:14044   */\n      0x1f\n        /* \"#utility.yul\":14036:14045   */\n      not\n        /* \"#utility.yul\":14028:14034   */\n      dup5\n        /* \"#utility.yul\":14024:14046   */\n      and\n        /* \"#utility.yul\":14074:14111   */\n      tag_343\n        /* \"#utility.yul\":14106:14110   */\n      dup7\n        /* \"#utility.yul\":14074:14111   */\n      tag_142\n      jump\t// in\n    tag_343:\n        /* \"#utility.yul\":14133:14134   */\n      0x00\n        /* \"#utility.yul\":14147:14362   */\n    tag_344:\n        /* \"#utility.yul\":14161:14168   */\n      dup3\n        /* \"#utility.yul\":14158:14159   */\n      dup2\n        /* \"#utility.yul\":14155:14169   */\n      lt\n        /* \"#utility.yul\":14147:14362   */\n      iszero\n      tag_346\n      jumpi\n        /* \"#utility.yul\":14247:14256   */\n      dup5\n        /* \"#utility.yul\":14242:14245   */\n      dup10\n        /* \"#utility.yul\":14238:14257   */\n      add\n        /* \"#utility.yul\":14225:14258   */\n      calldataload\n        /* \"#utility.yul\":14217:14223   */\n      dup3\n        /* \"#utility.yul\":14210:14259   */\n      sstore\n        /* \"#utility.yul\":14298:14299   */\n      0x01\n        /* \"#utility.yul\":14290:14296   */\n      dup3\n        /* \"#utility.yul\":14286:14300   */\n      add\n        /* \"#utility.yul\":14276:14300   */\n      swap2\n      pop\n        /* \"#utility.yul\":14345:14347   */\n      0x20\n        /* \"#utility.yul\":14334:14343   */\n      dup6\n        /* \"#utility.yul\":14330:14348   */\n      add\n        /* \"#utility.yul\":14317:14348   */\n      swap5\n      pop\n        /* \"#utility.yul\":14184:14188   */\n      0x20\n        /* \"#utility.yul\":14181:14182   */\n      dup2\n        /* \"#utility.yul\":14177:14189   */\n      add\n        /* \"#utility.yul\":14172:14189   */\n      swap1\n      pop\n        /* \"#utility.yul\":14147:14362   */\n      jump(tag_344)\n    tag_346:\n        /* \"#utility.yul\":14390:14396   */\n      dup7\n        /* \"#utility.yul\":14381:14388   */\n      dup4\n        /* \"#utility.yul\":14378:14397   */\n      lt\n        /* \"#utility.yul\":14375:14561   */\n      iszero\n      tag_347\n      jumpi\n        /* \"#utility.yul\":14455:14464   */\n      dup5\n        /* \"#utility.yul\":14450:14453   */\n      dup10\n        /* \"#utility.yul\":14446:14465   */\n      add\n        /* \"#utility.yul\":14433:14466   */\n      calldataload\n        /* \"#utility.yul\":14498:14546   */\n      tag_348\n        /* \"#utility.yul\":14540:14544   */\n      0x1f\n        /* \"#utility.yul\":14532:14538   */\n      dup10\n        /* \"#utility.yul\":14528:14545   */\n      and\n        /* \"#utility.yul\":14517:14526   */\n      dup3\n        /* \"#utility.yul\":14498:14546   */\n      tag_155\n      jump\t// in\n    tag_348:\n        /* \"#utility.yul\":14490:14496   */\n      dup4\n        /* \"#utility.yul\":14483:14547   */\n      sstore\n        /* \"#utility.yul\":14398:14561   */\n      pop\n        /* \"#utility.yul\":14375:14561   */\n    tag_347:\n        /* \"#utility.yul\":14607:14608   */\n      0x01\n        /* \"#utility.yul\":14603:14604   */\n      0x02\n        /* \"#utility.yul\":14595:14601   */\n      dup9\n        /* \"#utility.yul\":14591:14605   */\n      mul\n        /* \"#utility.yul\":14587:14609   */\n      add\n        /* \"#utility.yul\":14581:14585   */\n      dup9\n        /* \"#utility.yul\":14574:14610   */\n      sstore\n        /* \"#utility.yul\":13995:14620   */\n      pop\n      pop\n      pop\n        /* \"#utility.yul\":13958:14866   */\n    tag_339:\n      pop\n        /* \"#utility.yul\":13568:14872   */\n      pop\n      pop\n      pop\n        /* \"#utility.yul\":13469:14872   */\n      pop\n      pop\n      pop\n      jump\t// out\n        /* \"#utility.yul\":14878:15052   */\n    tag_157:\n        /* \"#utility.yul\":15018:15044   */\n      0x50726f6a656374206973206e6f7420636f6d706c657465640000000000000000\n        /* \"#utility.yul\":15014:15015   */\n      0x00\n        /* \"#utility.yul\":15006:15012   */\n      dup3\n        /* \"#utility.yul\":15002:15016   */\n      add\n        /* \"#utility.yul\":14995:15045   */\n      mstore\n        /* \"#utility.yul\":14878:15052   */\n      pop\n      jump\t// out\n        /* \"#utility.yul\":15058:15424   */\n    tag_158:\n        /* \"#utility.yul\":15200:15203   */\n      0x00\n        /* \"#utility.yul\":15221:15288   */\n      tag_351\n        /* \"#utility.yul\":15285:15287   */\n      0x18\n        /* \"#utility.yul\":15280:15283   */\n      dup4\n        /* \"#utility.yul\":15221:15288   */\n      tag_127\n      jump\t// in\n    tag_351:\n        /* \"#utility.yul\":15214:15288   */\n      swap2\n      pop\n        /* \"#utility.yul\":15297:15390   */\n      tag_352\n        /* \"#utility.yul\":15386:15389   */\n      dup3\n        /* \"#utility.yul\":15297:15390   */\n      tag_157\n      jump\t// in\n    tag_352:\n        /* \"#utility.yul\":15415:15417   */\n      0x20\n        /* \"#utility.yul\":15410:15413   */\n      dup3\n        /* \"#utility.yul\":15406:15418   */\n      add\n        /* \"#utility.yul\":15399:15418   */\n      swap1\n      pop\n        /* \"#utility.yul\":15058:15424   */\n      swap2\n      swap1\n      pop\n      jump\t// out\n        /* \"#utility.yul\":15430:15849   */\n    tag_55:\n        /* \"#utility.yul\":15596:15600   */\n      0x00\n        /* \"#utility.yul\":15634:15636   */\n      0x20\n        /* \"#utility.yul\":15623:15632   */\n      dup3\n        /* \"#utility.yul\":15619:15637   */\n      add\n        /* \"#utility.yul\":15611:15637   */\n      swap1\n      pop\n        /* \"#utility.yul\":15683:15692   */\n      dup2\n        /* \"#utility.yul\":15677:15681   */\n      dup2\n        /* \"#utility.yul\":15673:15693   */\n      sub\n        /* \"#utility.yul\":15669:15670   */\n      0x00\n        /* \"#utility.yul\":15658:15667   */\n      dup4\n        /* \"#utility.yul\":15654:15671   */\n      add\n        /* \"#utility.yul\":15647:15694   */\n      mstore\n        /* \"#utility.yul\":15711:15842   */\n      tag_354\n        /* \"#utility.yul\":15837:15841   */\n      dup2\n        /* \"#utility.yul\":15711:15842   */\n      tag_158\n      jump\t// in\n    tag_354:\n        /* \"#utility.yul\":15703:15842   */\n      swap1\n      pop\n        /* \"#utility.yul\":15430:15849   */\n      swap2\n      swap1\n      pop\n      jump\t// out\n        /* \"#utility.yul\":15855:16085   */\n    tag_159:\n        /* \"#utility.yul\":15995:16029   */\n      0x4f6e6c79207468652070726f6a6563742063726561746f722063616e20776974\n        /* \"#utility.yul\":15991:15992   */\n      0x00\n        /* \"#utility.yul\":15983:15989   */\n      dup3\n        /* \"#utility.yul\":15979:15993   */\n      add\n        /* \"#utility.yul\":15972:16030   */\n      mstore\n        /* \"#utility.yul\":16064:16077   */\n      0x68647261772066756e6473000000000000000000000000000000000000000000\n        /* \"#utility.yul\":16059:16061   */\n      0x20\n        /* \"#utility.yul\":16051:16057   */\n      dup3\n        /* \"#utility.yul\":16047:16062   */\n      add\n        /* \"#utility.yul\":16040:16078   */\n      mstore\n        /* \"#utility.yul\":15855:16085   */\n      pop\n      jump\t// out\n        /* \"#utility.yul\":16091:16457   */\n    tag_160:\n        /* \"#utility.yul\":16233:16236   */\n      0x00\n        /* \"#utility.yul\":16254:16321   */\n      tag_357\n        /* \"#utility.yul\":16318:16320   */\n      0x2b\n        /* \"#utility.yul\":16313:16316   */\n      dup4\n        /* \"#utility.yul\":16254:16321   */\n      tag_127\n      jump\t// in\n    tag_357:\n        /* \"#utility.yul\":16247:16321   */\n      swap2\n      pop\n        /* \"#utility.yul\":16330:16423   */\n      tag_358\n        /* \"#utility.yul\":16419:16422   */\n      dup3\n        /* \"#utility.yul\":16330:16423   */\n      tag_159\n      jump\t// in\n    tag_358:\n        /* \"#utility.yul\":16448:16450   */\n      0x40\n        /* \"#utility.yul\":16443:16446   */\n      dup3\n        /* \"#utility.yul\":16439:16451   */\n      add\n        /* \"#utility.yul\":16432:16451   */\n      swap1\n      pop\n        /* \"#utility.yul\":16091:16457   */\n      swap2\n      swap1\n      pop\n      jump\t// out\n        /* \"#utility.yul\":16463:16882   */\n    tag_58:\n        /* \"#utility.yul\":16629:16633   */\n      0x00\n        /* \"#utility.yul\":16667:16669   */\n      0x20\n        /* \"#utility.yul\":16656:16665   */\n      dup3\n        /* \"#utility.yul\":16652:16670   */\n      add\n        /* \"#utility.yul\":16644:16670   */\n      swap1\n      pop\n        /* \"#utility.yul\":16716:16725   */\n      dup2\n        /* \"#utility.yul\":16710:16714   */\n      dup2\n        /* \"#utility.yul\":16706:16726   */\n      sub\n        /* \"#utility.yul\":16702:16703   */\n      0x00\n        /* \"#utility.yul\":16691:16700   */\n      dup4\n        /* \"#utility.yul\":16687:16704   */\n      add\n        /* \"#utility.yul\":16680:16727   */\n      mstore\n        /* \"#utility.yul\":16744:16875   */\n      tag_360\n        /* \"#utility.yul\":16870:16874   */\n      dup2\n        /* \"#utility.yul\":16744:16875   */\n      tag_160\n      jump\t// in\n    tag_360:\n        /* \"#utility.yul\":16736:16875   */\n      swap1\n      pop\n        /* \"#utility.yul\":16463:16882   */\n      swap2\n      swap1\n      pop\n      jump\t// out\n        /* \"#utility.yul\":16888:17068   */\n    tag_161:\n        /* \"#utility.yul\":16936:17013   */\n      0x4e487b7100000000000000000000000000000000000000000000000000000000\n        /* \"#utility.yul\":16933:16934   */\n      0x00\n        /* \"#utility.yul\":16926:17014   */\n      mstore\n        /* \"#utility.yul\":17033:17037   */\n      0x11\n        /* \"#utility.yul\":17030:17031   */\n      0x04\n        /* \"#utility.yul\":17023:17038   */\n      mstore\n        /* \"#utility.yul\":17057:17061   */\n      0x24\n        /* \"#utility.yul\":17054:17055   */\n      0x00\n        /* \"#utility.yul\":17047:17062   */\n      revert\n        /* \"#utility.yul\":17074:17484   */\n    tag_60:\n        /* \"#utility.yul\":17114:17121   */\n      0x00\n        /* \"#utility.yul\":17137:17157   */\n      tag_363\n        /* \"#utility.yul\":17155:17156   */\n      dup3\n        /* \"#utility.yul\":17137:17157   */\n      tag_114\n      jump\t// in\n    tag_363:\n        /* \"#utility.yul\":17132:17157   */\n      swap2\n      pop\n        /* \"#utility.yul\":17171:17191   */\n      tag_364\n        /* \"#utility.yul\":17189:17190   */\n      dup4\n        /* \"#utility.yul\":17171:17191   */\n      tag_114\n      jump\t// in\n    tag_364:\n        /* \"#utility.yul\":17166:17191   */\n      swap3\n      pop\n        /* \"#utility.yul\":17226:17227   */\n      dup3\n        /* \"#utility.yul\":17223:17224   */\n      dup3\n        /* \"#utility.yul\":17219:17228   */\n      mul\n        /* \"#utility.yul\":17248:17278   */\n      tag_365\n        /* \"#utility.yul\":17266:17277   */\n      dup2\n        /* \"#utility.yul\":17248:17278   */\n      tag_114\n      jump\t// in\n    tag_365:\n        /* \"#utility.yul\":17237:17278   */\n      swap2\n      pop\n        /* \"#utility.yul\":17427:17428   */\n      dup3\n        /* \"#utility.yul\":17418:17425   */\n      dup3\n        /* \"#utility.yul\":17414:17429   */\n      div\n        /* \"#utility.yul\":17411:17412   */\n      dup5\n        /* \"#utility.yul\":17408:17430   */\n      eq\n        /* \"#utility.yul\":17388:17389   */\n      dup4\n        /* \"#utility.yul\":17381:17390   */\n      iszero\n        /* \"#utility.yul\":17361:17444   */\n      or\n        /* \"#utility.yul\":17338:17477   */\n      tag_366\n      jumpi\n        /* \"#utility.yul\":17457:17475   */\n      tag_367\n      tag_161\n      jump\t// in\n    tag_367:\n        /* \"#utility.yul\":17338:17477   */\n    tag_366:\n        /* \"#utility.yul\":17122:17484   */\n      pop\n        /* \"#utility.yul\":17074:17484   */\n      swap3\n      swap2\n      pop\n      pop\n      jump\t// out\n        /* \"#utility.yul\":17490:17670   */\n    tag_162:\n        /* \"#utility.yul\":17538:17615   */\n      0x4e487b7100000000000000000000000000000000000000000000000000000000\n        /* \"#utility.yul\":17535:17536   */\n      0x00\n        /* \"#utility.yul\":17528:17616   */\n      mstore\n        /* \"#utility.yul\":17635:17639   */\n      0x12\n        /* \"#utility.yul\":17632:17633   */\n      0x04\n        /* \"#utility.yul\":17625:17640   */\n      mstore\n        /* \"#utility.yul\":17659:17663   */\n      0x24\n        /* \"#utility.yul\":17656:17657   */\n      0x00\n        /* \"#utility.yul\":17649:17664   */\n      revert\n        /* \"#utility.yul\":17676:17861   */\n    tag_62:\n        /* \"#utility.yul\":17716:17717   */\n      0x00\n        /* \"#utility.yul\":17733:17753   */\n      tag_370\n        /* \"#utility.yul\":17751:17752   */\n      dup3\n        /* \"#utility.yul\":17733:17753   */\n      tag_114\n      jump\t// in\n    tag_370:\n        /* \"#utility.yul\":17728:17753   */\n      swap2\n      pop\n        /* \"#utility.yul\":17767:17787   */\n      tag_371\n        /* \"#utility.yul\":17785:17786   */\n      dup4\n        /* \"#utility.yul\":17767:17787   */\n      tag_114\n      jump\t// in\n    tag_371:\n        /* \"#utility.yul\":17762:17787   */\n      swap3\n      pop\n        /* \"#utility.yul\":17806:17807   */\n      dup3\n        /* \"#utility.yul\":17796:17831   */\n      tag_372\n      jumpi\n        /* \"#utility.yul\":17811:17829   */\n      tag_373\n      tag_162\n      jump\t// in\n    tag_373:\n        /* \"#utility.yul\":17796:17831   */\n    tag_372:\n        /* \"#utility.yul\":17853:17854   */\n      dup3\n        /* \"#utility.yul\":17850:17851   */\n      dup3\n        /* \"#utility.yul\":17846:17855   */\n      div\n        /* \"#utility.yul\":17841:17855   */\n      swap1\n      pop\n        /* \"#utility.yul\":17676:17861   */\n      swap3\n      swap2\n      pop\n      pop\n      jump\t// out\n        /* \"#utility.yul\":17867:18061   */\n    tag_64:\n        /* \"#utility.yul\":17907:17911   */\n      0x00\n        /* \"#utility.yul\":17927:17947   */\n      tag_375\n        /* \"#utility.yul\":17945:17946   */\n      dup3\n        /* \"#utility.yul\":17927:17947   */\n      tag_114\n      jump\t// in\n    tag_375:\n        /* \"#utility.yul\":17922:17947   */\n      swap2\n      pop\n        /* \"#utility.yul\":17961:17981   */\n      tag_376\n        /* \"#utility.yul\":17979:17980   */\n      dup4\n        /* \"#utility.yul\":17961:17981   */\n      tag_114\n      jump\t// in\n    tag_376:\n        /* \"#utility.yul\":17956:17981   */\n      swap3\n      pop\n        /* \"#utility.yul\":18005:18006   */\n      dup3\n        /* \"#utility.yul\":18002:18003   */\n      dup3\n        /* \"#utility.yul\":17998:18007   */\n      sub\n        /* \"#utility.yul\":17990:18007   */\n      swap1\n      pop\n        /* \"#utility.yul\":18029:18030   */\n      dup2\n        /* \"#utility.yul\":18023:18027   */\n      dup2\n        /* \"#utility.yul\":18020:18031   */\n      gt\n        /* \"#utility.yul\":18017:18054   */\n      iszero\n      tag_377\n      jumpi\n        /* \"#utility.yul\":18034:18052   */\n      tag_378\n      tag_161\n      jump\t// in\n    tag_378:\n        /* \"#utility.yul\":18017:18054   */\n    tag_377:\n        /* \"#utility.yul\":17867:18061   */\n      swap3\n      swap2\n      pop\n      pop\n      jump\t// out\n        /* \"#utility.yul\":18067:18214   */\n    tag_163:\n        /* \"#utility.yul\":18168:18179   */\n      0x00\n        /* \"#utility.yul\":18205:18208   */\n      dup2\n        /* \"#utility.yul\":18190:18208   */\n      swap1\n      pop\n        /* \"#utility.yul\":18067:18214   */\n      swap3\n      swap2\n      pop\n      pop\n      jump\t// out\n        /* \"#utility.yul\":18220:18334   */\n    tag_164:\n      pop\n      jump\t// out\n        /* \"#utility.yul\":18340:18738   */\n    tag_165:\n        /* \"#utility.yul\":18499:18502   */\n      0x00\n        /* \"#utility.yul\":18520:18603   */\n      tag_382\n        /* \"#utility.yul\":18601:18602   */\n      0x00\n        /* \"#utility.yul\":18596:18599   */\n      dup4\n        /* \"#utility.yul\":18520:18603   */\n      tag_163\n      jump\t// in\n    tag_382:\n        /* \"#utility.yul\":18513:18603   */\n      swap2\n      pop\n        /* \"#utility.yul\":18612:18705   */\n      tag_383\n        /* \"#utility.yul\":18701:18704   */\n      dup3\n        /* \"#utility.yul\":18612:18705   */\n      tag_164\n      jump\t// in\n    tag_383:\n        /* \"#utility.yul\":18730:18731   */\n      0x00\n        /* \"#utility.yul\":18725:18728   */\n      dup3\n        /* \"#utility.yul\":18721:18732   */\n      add\n        /* \"#utility.yul\":18714:18732   */\n      swap1\n      pop\n        /* \"#utility.yul\":18340:18738   */\n      swap2\n      swap1\n      pop\n      jump\t// out\n        /* \"#utility.yul\":18744:19123   */\n    tag_66:\n        /* \"#utility.yul\":18928:18931   */\n      0x00\n        /* \"#utility.yul\":18950:19097   */\n      tag_385\n        /* \"#utility.yul\":19093:19096   */\n      dup3\n        /* \"#utility.yul\":18950:19097   */\n      tag_165\n      jump\t// in\n    tag_385:\n        /* \"#utility.yul\":18943:19097   */\n      swap2\n      pop\n        /* \"#utility.yul\":19114:19117   */\n      dup2\n        /* \"#utility.yul\":19107:19117   */\n      swap1\n      pop\n        /* \"#utility.yul\":18744:19123   */\n      swap2\n      swap1\n      pop\n      jump\t// out\n        /* \"#utility.yul\":19129:19296   */\n    tag_166:\n        /* \"#utility.yul\":19269:19288   */\n      0x776964746864726177616c206661696c64000000000000000000000000000000\n        /* \"#utility.yul\":19265:19266   */\n      0x00\n        /* \"#utility.yul\":19257:19263   */\n      dup3\n        /* \"#utility.yul\":19253:19267   */\n      add\n        /* \"#utility.yul\":19246:19289   */\n      mstore\n        /* \"#utility.yul\":19129:19296   */\n      pop\n      jump\t// out\n        /* \"#utility.yul\":19302:19668   */\n    tag_167:\n        /* \"#utility.yul\":19444:19447   */\n      0x00\n        /* \"#utility.yul\":19465:19532   */\n      tag_388\n        /* \"#utility.yul\":19529:19531   */\n      0x11\n        /* \"#utility.yul\":19524:19527   */\n      dup4\n        /* \"#utility.yul\":19465:19532   */\n      tag_127\n      jump\t// in\n    tag_388:\n        /* \"#utility.yul\":19458:19532   */\n      swap2\n      pop\n        /* \"#utility.yul\":19541:19634   */\n      tag_389\n        /* \"#utility.yul\":19630:19633   */\n      dup3\n        /* \"#utility.yul\":19541:19634   */\n      tag_166\n      jump\t// in\n    tag_389:\n        /* \"#utility.yul\":19659:19661   */\n      0x20\n        /* \"#utility.yul\":19654:19657   */\n      dup3\n        /* \"#utility.yul\":19650:19662   */\n      add\n        /* \"#utility.yul\":19643:19662   */\n      swap1\n      pop\n        /* \"#utility.yul\":19302:19668   */\n      swap2\n      swap1\n      pop\n      jump\t// out\n        /* \"#utility.yul\":19674:20093   */\n    tag_72:\n        /* \"#utility.yul\":19840:19844   */\n      0x00\n        /* \"#utility.yul\":19878:19880   */\n      0x20\n        /* \"#utility.yul\":19867:19876   */\n      dup3\n        /* \"#utility.yul\":19863:19881   */\n      add\n        /* \"#utility.yul\":19855:19881   */\n      swap1\n      pop\n        /* \"#utility.yul\":19927:19936   */\n      dup2\n        /* \"#utility.yul\":19921:19925   */\n      dup2\n        /* \"#utility.yul\":19917:19937   */\n      sub\n        /* \"#utility.yul\":19913:19914   */\n      0x00\n        /* \"#utility.yul\":19902:19911   */\n      dup4\n        /* \"#utility.yul\":19898:19915   */\n      add\n        /* \"#utility.yul\":19891:19938   */\n      mstore\n        /* \"#utility.yul\":19955:20086   */\n      tag_391\n        /* \"#utility.yul\":20081:20085   */\n      dup2\n        /* \"#utility.yul\":19955:20086   */\n      tag_167\n      jump\t// in\n    tag_391:\n        /* \"#utility.yul\":19947:20086   */\n      swap1\n      pop\n        /* \"#utility.yul\":19674:20093   */\n      swap2\n      swap1\n      pop\n      jump\t// out\n        /* \"#utility.yul\":20099:20276   */\n    tag_168:\n        /* \"#utility.yul\":20239:20268   */\n      0x6661696c646520746f2073656e642066656520746f206f776e65720000000000\n        /* \"#utility.yul\":20235:20236   */\n      0x00\n        /* \"#utility.yul\":20227:20233   */\n      dup3\n        /* \"#utility.yul\":20223:20237   */\n      add\n        /* \"#utility.yul\":20216:20269   */\n      mstore\n        /* \"#utility.yul\":20099:20276   */\n      pop\n      jump\t// out\n        /* \"#utility.yul\":20282:20648   */\n    tag_169:\n        /* \"#utility.yul\":20424:20427   */\n      0x00\n        /* \"#utility.yul\":20445:20512   */\n      tag_394\n        /* \"#utility.yul\":20509:20511   */\n      0x1b\n        /* \"#utility.yul\":20504:20507   */\n      dup4\n        /* \"#utility.yul\":20445:20512   */\n      tag_127\n      jump\t// in\n    tag_394:\n        /* \"#utility.yul\":20438:20512   */\n      swap2\n      pop\n        /* \"#utility.yul\":20521:20614   */\n      tag_395\n        /* \"#utility.yul\":20610:20613   */\n      dup3\n        /* \"#utility.yul\":20521:20614   */\n      tag_168\n      jump\t// in\n    tag_395:\n        /* \"#utility.yul\":20639:20641   */\n      0x20\n        /* \"#utility.yul\":20634:20637   */\n      dup3\n        /* \"#utility.yul\":20630:20642   */\n      add\n        /* \"#utility.yul\":20623:20642   */\n      swap1\n      pop\n        /* \"#utility.yul\":20282:20648   */\n      swap2\n      swap1\n      pop\n      jump\t// out\n        /* \"#utility.yul\":20654:21073   */\n    tag_79:\n        /* \"#utility.yul\":20820:20824   */\n      0x00\n        /* \"#utility.yul\":20858:20860   */\n      0x20\n        /* \"#utility.yul\":20847:20856   */\n      dup3\n        /* \"#utility.yul\":20843:20861   */\n      add\n        /* \"#utility.yul\":20835:20861   */\n      swap1\n      pop\n        /* \"#utility.yul\":20907:20916   */\n      dup2\n        /* \"#utility.yul\":20901:20905   */\n      dup2\n        /* \"#utility.yul\":20897:20917   */\n      sub\n        /* \"#utility.yul\":20893:20894   */\n      0x00\n        /* \"#utility.yul\":20882:20891   */\n      dup4\n        /* \"#utility.yul\":20878:20895   */\n      add\n        /* \"#utility.yul\":20871:20918   */\n      mstore\n        /* \"#utility.yul\":20935:21066   */\n      tag_397\n        /* \"#utility.yul\":21061:21065   */\n      dup2\n        /* \"#utility.yul\":20935:21066   */\n      tag_169\n      jump\t// in\n    tag_397:\n        /* \"#utility.yul\":20927:21066   */\n      swap1\n      pop\n        /* \"#utility.yul\":20654:21073   */\n      swap2\n      swap1\n      pop\n      jump\t// out\n        /* \"#utility.yul\":21079:21303   */\n    tag_170:\n        /* \"#utility.yul\":21219:21253   */\n      0x53656e74204554482069732062656c6f77206d696e696d756d20726571756972\n        /* \"#utility.yul\":21215:21216   */\n      0x00\n        /* \"#utility.yul\":21207:21213   */\n      dup3\n        /* \"#utility.yul\":21203:21217   */\n      add\n        /* \"#utility.yul\":21196:21254   */\n      mstore\n        /* \"#utility.yul\":21288:21295   */\n      0x656d656e74000000000000000000000000000000000000000000000000000000\n        /* \"#utility.yul\":21283:21285   */\n      0x20\n        /* \"#utility.yul\":21275:21281   */\n      dup3\n        /* \"#utility.yul\":21271:21286   */\n      add\n        /* \"#utility.yul\":21264:21296   */\n      mstore\n        /* \"#utility.yul\":21079:21303   */\n      pop\n      jump\t// out\n        /* \"#utility.yul\":21309:21675   */\n    tag_171:\n        /* \"#utility.yul\":21451:21454   */\n      0x00\n        /* \"#utility.yul\":21472:21539   */\n      tag_400\n        /* \"#utility.yul\":21536:21538   */\n      0x25\n        /* \"#utility.yul\":21531:21534   */\n      dup4\n        /* \"#utility.yul\":21472:21539   */\n      tag_127\n      jump\t// in\n    tag_400:\n        /* \"#utility.yul\":21465:21539   */\n      swap2\n      pop\n        /* \"#utility.yul\":21548:21641   */\n      tag_401\n        /* \"#utility.yul\":21637:21640   */\n      dup3\n        /* \"#utility.yul\":21548:21641   */\n      tag_170\n      jump\t// in\n    tag_401:\n        /* \"#utility.yul\":21666:21668   */\n      0x40\n        /* \"#utility.yul\":21661:21664   */\n      dup3\n        /* \"#utility.yul\":21657:21669   */\n      add\n        /* \"#utility.yul\":21650:21669   */\n      swap1\n      pop\n        /* \"#utility.yul\":21309:21675   */\n      swap2\n      swap1\n      pop\n      jump\t// out\n        /* \"#utility.yul\":21681:22100   */\n    tag_85:\n        /* \"#utility.yul\":21847:21851   */\n      0x00\n        /* \"#utility.yul\":21885:21887   */\n      0x20\n        /* \"#utility.yul\":21874:21883   */\n      dup3\n        /* \"#utility.yul\":21870:21888   */\n      add\n        /* \"#utility.yul\":21862:21888   */\n      swap1\n      pop\n        /* \"#utility.yul\":21934:21943   */\n      dup2\n        /* \"#utility.yul\":21928:21932   */\n      dup2\n        /* \"#utility.yul\":21924:21944   */\n      sub\n        /* \"#utility.yul\":21920:21921   */\n      0x00\n        /* \"#utility.yul\":21909:21918   */\n      dup4\n        /* \"#utility.yul\":21905:21922   */\n      add\n        /* \"#utility.yul\":21898:21945   */\n      mstore\n        /* \"#utility.yul\":21962:22093   */\n      tag_403\n        /* \"#utility.yul\":22088:22092   */\n      dup2\n        /* \"#utility.yul\":21962:22093   */\n      tag_171\n      jump\t// in\n    tag_403:\n        /* \"#utility.yul\":21954:22093   */\n      swap1\n      pop\n        /* \"#utility.yul\":21681:22100   */\n      swap2\n      swap1\n      pop\n      jump\t// out\n        /* \"#utility.yul\":22106:22277   */\n    tag_172:\n        /* \"#utility.yul\":22246:22269   */\n      0x50726f6a656374206973206e6f74206163746976650000000000000000000000\n        /* \"#utility.yul\":22242:22243   */\n      0x00\n        /* \"#utility.yul\":22234:22240   */\n      dup3\n        /* \"#utility.yul\":22230:22244   */\n      add\n        /* \"#utility.yul\":22223:22270   */\n      mstore\n        /* \"#utility.yul\":22106:22277   */\n      pop\n      jump\t// out\n        /* \"#utility.yul\":22283:22649   */\n    tag_173:\n        /* \"#utility.yul\":22425:22428   */\n      0x00\n        /* \"#utility.yul\":22446:22513   */\n      tag_406\n        /* \"#utility.yul\":22510:22512   */\n      0x15\n        /* \"#utility.yul\":22505:22508   */\n      dup4\n        /* \"#utility.yul\":22446:22513   */\n      tag_127\n      jump\t// in\n    tag_406:\n        /* \"#utility.yul\":22439:22513   */\n      swap2\n      pop\n        /* \"#utility.yul\":22522:22615   */\n      tag_407\n        /* \"#utility.yul\":22611:22614   */\n      dup3\n        /* \"#utility.yul\":22522:22615   */\n      tag_172\n      jump\t// in\n    tag_407:\n        /* \"#utility.yul\":22640:22642   */\n      0x20\n        /* \"#utility.yul\":22635:22638   */\n      dup3\n        /* \"#utility.yul\":22631:22643   */\n      add\n        /* \"#utility.yul\":22624:22643   */\n      swap1\n      pop\n        /* \"#utility.yul\":22283:22649   */\n      swap2\n      swap1\n      pop\n      jump\t// out\n        /* \"#utility.yul\":22655:23074   */\n    tag_89:\n        /* \"#utility.yul\":22821:22825   */\n      0x00\n        /* \"#utility.yul\":22859:22861   */\n      0x20\n        /* \"#utility.yul\":22848:22857   */\n      dup3\n        /* \"#utility.yul\":22844:22862   */\n      add\n        /* \"#utility.yul\":22836:22862   */\n      swap1\n      pop\n        /* \"#utility.yul\":22908:22917   */\n      dup2\n        /* \"#utility.yul\":22902:22906   */\n      dup2\n        /* \"#utility.yul\":22898:22918   */\n      sub\n        /* \"#utility.yul\":22894:22895   */\n      0x00\n        /* \"#utility.yul\":22883:22892   */\n      dup4\n        /* \"#utility.yul\":22879:22896   */\n      add\n        /* \"#utility.yul\":22872:22919   */\n      mstore\n        /* \"#utility.yul\":22936:23067   */\n      tag_409\n        /* \"#utility.yul\":23062:23066   */\n      dup2\n        /* \"#utility.yul\":22936:23067   */\n      tag_173\n      jump\t// in\n    tag_409:\n        /* \"#utility.yul\":22928:23067   */\n      swap1\n      pop\n        /* \"#utility.yul\":22655:23074   */\n      swap2\n      swap1\n      pop\n      jump\t// out\n        /* \"#utility.yul\":23080:23271   */\n    tag_91:\n        /* \"#utility.yul\":23120:23123   */\n      0x00\n        /* \"#utility.yul\":23139:23159   */\n      tag_411\n        /* \"#utility.yul\":23157:23158   */\n      dup3\n        /* \"#utility.yul\":23139:23159   */\n      tag_114\n      jump\t// in\n    tag_411:\n        /* \"#utility.yul\":23134:23159   */\n      swap2\n      pop\n        /* \"#utility.yul\":23173:23193   */\n      tag_412\n        /* \"#utility.yul\":23191:23192   */\n      dup4\n        /* \"#utility.yul\":23173:23193   */\n      tag_114\n      jump\t// in\n    tag_412:\n        /* \"#utility.yul\":23168:23193   */\n      swap3\n      pop\n        /* \"#utility.yul\":23216:23217   */\n      dup3\n        /* \"#utility.yul\":23213:23214   */\n      dup3\n        /* \"#utility.yul\":23209:23218   */\n      add\n        /* \"#utility.yul\":23202:23218   */\n      swap1\n      pop\n        /* \"#utility.yul\":23237:23240   */\n      dup1\n        /* \"#utility.yul\":23234:23235   */\n      dup3\n        /* \"#utility.yul\":23231:23241   */\n      gt\n        /* \"#utility.yul\":23228:23264   */\n      iszero\n      tag_413\n      jumpi\n        /* \"#utility.yul\":23244:23262   */\n      tag_414\n      tag_161\n      jump\t// in\n    tag_414:\n        /* \"#utility.yul\":23228:23264   */\n    tag_413:\n        /* \"#utility.yul\":23080:23271   */\n      swap3\n      swap2\n      pop\n      pop\n      jump\t// out\n        /* \"#utility.yul\":23277:23382   */\n    tag_174:\n        /* \"#utility.yul\":23313:23320   */\n      0x00\n        /* \"#utility.yul\":23353:23375   */\n      0xffffffffffffffffffff\n        /* \"#utility.yul\":23346:23351   */\n      dup3\n        /* \"#utility.yul\":23342:23376   */\n      and\n        /* \"#utility.yul\":23331:23376   */\n      swap1\n      pop\n        /* \"#utility.yul\":23277:23382   */\n      swap2\n      swap1\n      pop\n      jump\t// out\n        /* \"#utility.yul\":23388:23508   */\n    tag_175:\n        /* \"#utility.yul\":23460:23483   */\n      tag_417\n        /* \"#utility.yul\":23477:23482   */\n      dup2\n        /* \"#utility.yul\":23460:23483   */\n      tag_174\n      jump\t// in\n    tag_417:\n        /* \"#utility.yul\":23453:23458   */\n      dup2\n        /* \"#utility.yul\":23450:23484   */\n      eq\n        /* \"#utility.yul\":23440:23502   */\n      tag_418\n      jumpi\n        /* \"#utility.yul\":23498:23499   */\n      0x00\n        /* \"#utility.yul\":23495:23496   */\n      0x00\n        /* \"#utility.yul\":23488:23500   */\n      revert\n        /* \"#utility.yul\":23440:23502   */\n    tag_418:\n        /* \"#utility.yul\":23388:23508   */\n      pop\n      jump\t// out\n        /* \"#utility.yul\":23514:23655   */\n    tag_176:\n        /* \"#utility.yul\":23570:23575   */\n      0x00\n        /* \"#utility.yul\":23601:23607   */\n      dup2\n        /* \"#utility.yul\":23595:23608   */\n      mload\n        /* \"#utility.yul\":23586:23608   */\n      swap1\n      pop\n        /* \"#utility.yul\":23617:23649   */\n      tag_420\n        /* \"#utility.yul\":23643:23648   */\n      dup2\n        /* \"#utility.yul\":23617:23649   */\n      tag_175\n      jump\t// in\n    tag_420:\n        /* \"#utility.yul\":23514:23655   */\n      swap3\n      swap2\n      pop\n      pop\n      jump\t// out\n        /* \"#utility.yul\":23661:23737   */\n    tag_177:\n        /* \"#utility.yul\":23697:23704   */\n      0x00\n        /* \"#utility.yul\":23726:23731   */\n      dup2\n        /* \"#utility.yul\":23715:23731   */\n      swap1\n      pop\n        /* \"#utility.yul\":23661:23737   */\n      swap2\n      swap1\n      pop\n      jump\t// out\n        /* \"#utility.yul\":23743:23863   */\n    tag_178:\n        /* \"#utility.yul\":23815:23838   */\n      tag_423\n        /* \"#utility.yul\":23832:23837   */\n      dup2\n        /* \"#utility.yul\":23815:23838   */\n      tag_177\n      jump\t// in\n    tag_423:\n        /* \"#utility.yul\":23808:23813   */\n      dup2\n        /* \"#utility.yul\":23805:23839   */\n      eq\n        /* \"#utility.yul\":23795:23857   */\n      tag_424\n      jumpi\n        /* \"#utility.yul\":23853:23854   */\n      0x00\n        /* \"#utility.yul\":23850:23851   */\n      0x00\n        /* \"#utility.yul\":23843:23855   */\n      revert\n        /* \"#utility.yul\":23795:23857   */\n    tag_424:\n        /* \"#utility.yul\":23743:23863   */\n      pop\n      jump\t// out\n        /* \"#utility.yul\":23869:24010   */\n    tag_179:\n        /* \"#utility.yul\":23925:23930   */\n      0x00\n        /* \"#utility.yul\":23956:23962   */\n      dup2\n        /* \"#utility.yul\":23950:23963   */\n      mload\n        /* \"#utility.yul\":23941:23963   */\n      swap1\n      pop\n        /* \"#utility.yul\":23972:24004   */\n      tag_426\n        /* \"#utility.yul\":23998:24003   */\n      dup2\n        /* \"#utility.yul\":23972:24004   */\n      tag_178\n      jump\t// in\n    tag_426:\n        /* \"#utility.yul\":23869:24010   */\n      swap3\n      swap2\n      pop\n      pop\n      jump\t// out\n        /* \"#utility.yul\":24016:24159   */\n    tag_180:\n        /* \"#utility.yul\":24073:24078   */\n      0x00\n        /* \"#utility.yul\":24104:24110   */\n      dup2\n        /* \"#utility.yul\":24098:24111   */\n      mload\n        /* \"#utility.yul\":24089:24111   */\n      swap1\n      pop\n        /* \"#utility.yul\":24120:24153   */\n      tag_428\n        /* \"#utility.yul\":24147:24152   */\n      dup2\n        /* \"#utility.yul\":24120:24153   */\n      tag_115\n      jump\t// in\n    tag_428:\n        /* \"#utility.yul\":24016:24159   */\n      swap3\n      swap2\n      pop\n      pop\n      jump\t// out\n        /* \"#utility.yul\":24165:25136   */\n    tag_105:\n        /* \"#utility.yul\":24268:24274   */\n      0x00\n        /* \"#utility.yul\":24276:24282   */\n      0x00\n        /* \"#utility.yul\":24284:24290   */\n      0x00\n        /* \"#utility.yul\":24292:24298   */\n      0x00\n        /* \"#utility.yul\":24300:24306   */\n      0x00\n        /* \"#utility.yul\":24349:24352   */\n      0xa0\n        /* \"#utility.yul\":24337:24346   */\n      dup7\n        /* \"#utility.yul\":24328:24335   */\n      dup9\n        /* \"#utility.yul\":24324:24347   */\n      sub\n        /* \"#utility.yul\":24320:24353   */\n      slt\n        /* \"#utility.yul\":24317:24437   */\n      iszero\n      tag_430\n      jumpi\n        /* \"#utility.yul\":24356:24435   */\n      tag_431\n      tag_108\n      jump\t// in\n    tag_431:\n        /* \"#utility.yul\":24317:24437   */\n    tag_430:\n        /* \"#utility.yul\":24476:24477   */\n      0x00\n        /* \"#utility.yul\":24501:24564   */\n      tag_432\n        /* \"#utility.yul\":24556:24563   */\n      dup9\n        /* \"#utility.yul\":24547:24553   */\n      dup3\n        /* \"#utility.yul\":24536:24545   */\n      dup10\n        /* \"#utility.yul\":24532:24554   */\n      add\n        /* \"#utility.yul\":24501:24564   */\n      tag_176\n      jump\t// in\n    tag_432:\n        /* \"#utility.yul\":24491:24564   */\n      swap6\n      pop\n        /* \"#utility.yul\":24447:24574   */\n      pop\n        /* \"#utility.yul\":24613:24615   */\n      0x20\n        /* \"#utility.yul\":24639:24702   */\n      tag_433\n        /* \"#utility.yul\":24694:24701   */\n      dup9\n        /* \"#utility.yul\":24685:24691   */\n      dup3\n        /* \"#utility.yul\":24674:24683   */\n      dup10\n        /* \"#utility.yul\":24670:24692   */\n      add\n        /* \"#utility.yul\":24639:24702   */\n      tag_179\n      jump\t// in\n    tag_433:\n        /* \"#utility.yul\":24629:24702   */\n      swap5\n      pop\n        /* \"#utility.yul\":24584:24712   */\n      pop\n        /* \"#utility.yul\":24751:24753   */\n      0x40\n        /* \"#utility.yul\":24777:24841   */\n      tag_434\n        /* \"#utility.yul\":24833:24840   */\n      dup9\n        /* \"#utility.yul\":24824:24830   */\n      dup3\n        /* \"#utility.yul\":24813:24822   */\n      dup10\n        /* \"#utility.yul\":24809:24831   */\n      add\n        /* \"#utility.yul\":24777:24841   */\n      tag_180\n      jump\t// in\n    tag_434:\n        /* \"#utility.yul\":24767:24841   */\n      swap4\n      pop\n        /* \"#utility.yul\":24722:24851   */\n      pop\n        /* \"#utility.yul\":24890:24892   */\n      0x60\n        /* \"#utility.yul\":24916:24980   */\n      tag_435\n        /* \"#utility.yul\":24972:24979   */\n      dup9\n        /* \"#utility.yul\":24963:24969   */\n      dup3\n        /* \"#utility.yul\":24952:24961   */\n      dup10\n        /* \"#utility.yul\":24948:24970   */\n      add\n        /* \"#utility.yul\":24916:24980   */\n      tag_180\n      jump\t// in\n    tag_435:\n        /* \"#utility.yul\":24906:24980   */\n      swap3\n      pop\n        /* \"#utility.yul\":24861:24990   */\n      pop\n        /* \"#utility.yul\":25029:25032   */\n      0x80\n        /* \"#utility.yul\":25056:25119   */\n      tag_436\n        /* \"#utility.yul\":25111:25118   */\n      dup9\n        /* \"#utility.yul\":25102:25108   */\n      dup3\n        /* \"#utility.yul\":25091:25100   */\n      dup10\n        /* \"#utility.yul\":25087:25109   */\n      add\n        /* \"#utility.yul\":25056:25119   */\n      tag_176\n      jump\t// in\n    tag_436:\n        /* \"#utility.yul\":25046:25119   */\n      swap2\n      pop\n        /* \"#utility.yul\":25000:25129   */\n      pop\n        /* \"#utility.yul\":24165:25136   */\n      swap3\n      swap6\n      pop\n      swap3\n      swap6\n      swap1\n      swap4\n      pop\n      jump\t// out\n\n    auxdata: 0xa26469706673582212205baba0a11b40069fbeda8857c2044e7af2db2782e995ba750c0fe6f02411307a64736f6c634300081e0033\n}\n",
				"bytecode": {
					"linkReferences": {},
					"object": "60a0604052348015600e575f5ffd5b503373ffffffffffffffffffffffffffffffffffffffff1660808173ffffffffffffffffffffffffffffffffffffffff168152505060805161167061005b5f395f61057901526116705ff3fe608060405260043610610054575f3560e01c806310d7aa7d146100585780635854dd21146100805780635fe26c73146100c25780636b69a592146100ea5780639f047f3c14610114578063cc1017e714610130575b5f5ffd5b348015610063575f5ffd5b5061007e60048036038101906100799190610a07565b61016d565b005b34801561008b575f5ffd5b506100a660048036038101906100a19190610b9c565b610250565b6040516100b99796959493929190610cab565b60405180910390f35b3480156100cd575f5ffd5b506100e860048036038101906100e39190610d1f565b610370565b005b3480156100f5575f5ffd5b506100fe610652565b60405161010b9190610d6a565b60405180910390f35b61012e60048036038101906101299190610d1f565b61065e565b005b34801561013b575f5ffd5b5061015660048036038101906101519190610d83565b610837565b604051610164929190610dce565b60405180910390f35b5f5f848460405161017f929190610e23565b908152602001604051809103902090508383825f0191826101a1929190611042565b5033816001015f6101000a81548173ffffffffffffffffffffffffffffffffffffffff021916908373ffffffffffffffffffffffffffffffffffffffff1602179055508181600201819055506001816004015f6101000a81548160ff0219169083151502179055505f8160040160016101000a81548160ff0219169083151502179055505f8160040160026101000a81548160ff0219169083151502179055505f816003018190555050505050565b5f818051602081018201805184825260208301602085012081835280955050505050505f91509050805f01805461028690610e72565b80601f01602080910402602001604051908101604052809291908181526020018280546102b290610e72565b80156102fd5780601f106102d4576101008083540402835291602001916102fd565b820191905f5260205f20905b8154815290600101906020018083116102e057829003601f168201915b505050505090806001015f9054906101000a900473ffffffffffffffffffffffffffffffffffffffff1690806002015490806003015490806004015f9054906101000a900460ff16908060040160019054906101000a900460ff16908060040160029054906101000a900460ff16905087565b5f5f8383604051610382929190610e23565b908152602001604051809103902090508060040160019054906101000a900460ff166103e3576040517f08c379a00000000000000000000000000000000000000000000000000000000081526004016103da90611159565b60405180910390fd5b3373ffffffffffffffffffffffffffffffffffffffff16816001015f9054906101000a900473ffffffffffffffffffffffffffffffffffffffff1673ffffffffffffffffffffffffffffffffffffffff1614610474576040517f08c379a000000000000000000000000000000000000000000000000000000000815260040161046b906111e7565b60405180910390fd5b5f816002015490505f826001015f9054906101000a900473ffffffffffffffffffffffffffffffffffffffff1690505f60646062846104b39190611232565b6104bd91906112a0565b90505f81846104cc91906112d0565b90505f8373ffffffffffffffffffffffffffffffffffffffff16836040516104f390611330565b5f6040518083038185875af1925050503d805f811461052d576040519150601f19603f3d011682016040523d82523d5f602084013e610532565b606091505b5050905080610576576040517f08c379a000000000000000000000000000000000000000000000000000000000815260040161056d9061138e565b60405180910390fd5b5f7f000000000000000000000000000000000000000000000000000000000000000073ffffffffffffffffffffffffffffffffffffffff16836040516105bb90611330565b5f6040518083038185875af1925050503d805f81146105f5576040519150601f19603f3d011682016040523d82523d5f602084013e6105fa565b606091505b505090508061063e576040517f08c379a0000000000000000000000000000000000000000000000000000000008152600401610635906113f6565b60405180910390fd5b5f8760030181905550505050505050505050565b671bc16d674ec8000081565b671bc16d674ec8000061067034610885565b10156106b1576040517f35dcd6780000000000000000000000000000000000000000000000000000000081526004016106a890611484565b60405180910390fd5b5f5f83836040516106c3929190610e23565b90815260200160405180910390209050806004015f9054906101000a900460ff16610723576040517f08c379a000000000000000000000000000000000000000000000000000000000815260040161071a906114ec565b60405180910390fd5b5f34905080826003015f82825461073a919061150a565b925050819055505f60405180604001604052803373ffffffffffffffffffffffffffffffffffffffff168152602001838152509050600181908060018154018082558091505060019003905f5260205f2090600202015f909190919091505f820151815f015f6101000a81548173ffffffffffffffffffffffffffffffffffffffff021916908373ffffffffffffffffffffffffffffffffffffffff16021790555060208201518160010155505082600201548360030154106108305760018360040160016101000a81548160ff0219169083151502179055505f836004015f6101000a81548160ff0219169083151502179055505b5050505050565b60018181548110610846575f80fd5b905f5260205f2090600202015f91509050805f015f9054906101000a900473ffffffffffffffffffffffffffffffffffffffff16908060010154905082565b5f5f61088f6108bd565b90505f670de0b6b3a764000084836108a79190611232565b6108b191906112a0565b90508092505050919050565b5f5f73694aa1769357215de4fac081bf1f309adc32530690505f8173ffffffffffffffffffffffffffffffffffffffff1663feaf968c6040518163ffffffff1660e01b815260040160a060405180830381865afa158015610920573d5f5f3e3d5ffd5b505050506040513d601f19601f8201168201806040525081019061094491906115c3565b5050509150506402540be4008161095b9190611232565b9250505090565b5f604051905090565b5f5ffd5b5f5ffd5b5f5ffd5b5f5ffd5b5f5ffd5b5f5f83601f84011261099457610993610973565b5b8235905067ffffffffffffffff8111156109b1576109b0610977565b5b6020830191508360018202830111156109cd576109cc61097b565b5b9250929050565b5f819050919050565b6109e6816109d4565b81146109f0575f5ffd5b50565b5f81359050610a01816109dd565b92915050565b5f5f5f60408486031215610a1e57610a1d61096b565b5b5f84013567ffffffffffffffff811115610a3b57610a3a61096f565b5b610a478682870161097f565b93509350506020610a5a868287016109f3565b9150509250925092565b5f5ffd5b5f601f19601f8301169050919050565b7f4e487b71000000000000000000000000000000000000000000000000000000005f52604160045260245ffd5b610aae82610a68565b810181811067ffffffffffffffff82111715610acd57610acc610a78565b5b80604052505050565b5f610adf610962565b9050610aeb8282610aa5565b919050565b5f67ffffffffffffffff821115610b0a57610b09610a78565b5b610b1382610a68565b9050602081019050919050565b828183375f83830152505050565b5f610b40610b3b84610af0565b610ad6565b905082815260208101848484011115610b5c57610b5b610a64565b5b610b67848285610b20565b509392505050565b5f82601f830112610b8357610b82610973565b5b8135610b93848260208601610b2e565b91505092915050565b5f60208284031215610bb157610bb061096b565b5b5f82013567ffffffffffffffff811115610bce57610bcd61096f565b5b610bda84828501610b6f565b91505092915050565b5f81519050919050565b5f82825260208201905092915050565b8281835e5f83830152505050565b5f610c1582610be3565b610c1f8185610bed565b9350610c2f818560208601610bfd565b610c3881610a68565b840191505092915050565b5f73ffffffffffffffffffffffffffffffffffffffff82169050919050565b5f610c6c82610c43565b9050919050565b610c7c81610c62565b82525050565b610c8b816109d4565b82525050565b5f8115159050919050565b610ca581610c91565b82525050565b5f60e0820190508181035f830152610cc3818a610c0b565b9050610cd26020830189610c73565b610cdf6040830188610c82565b610cec6060830187610c82565b610cf96080830186610c9c565b610d0660a0830185610c9c565b610d1360c0830184610c9c565b98975050505050505050565b5f5f60208385031215610d3557610d3461096b565b5b5f83013567ffffffffffffffff811115610d5257610d5161096f565b5b610d5e8582860161097f565b92509250509250929050565b5f602082019050610d7d5f830184610c82565b92915050565b5f60208284031215610d9857610d9761096b565b5b5f610da5848285016109f3565b91505092915050565b5f610db882610c43565b9050919050565b610dc881610dae565b82525050565b5f604082019050610de15f830185610dbf565b610dee6020830184610c82565b9392505050565b5f81905092915050565b5f610e0a8385610df5565b9350610e17838584610b20565b82840190509392505050565b5f610e2f828486610dff565b91508190509392505050565b5f82905092915050565b7f4e487b71000000000000000000000000000000000000000000000000000000005f52602260045260245ffd5b5f6002820490506001821680610e8957607f821691505b602082108103610e9c57610e9b610e45565b5b50919050565b5f819050815f5260205f209050919050565b5f6020601f8301049050919050565b5f82821b905092915050565b5f60088302610efe7fffffffffffffffffffffffffffffffffffffffffffffffffffffffffffffffff82610ec3565b610f088683610ec3565b95508019841693508086168417925050509392505050565b5f819050919050565b5f610f43610f3e610f39846109d4565b610f20565b6109d4565b9050919050565b5f819050919050565b610f5c83610f29565b610f70610f6882610f4a565b848454610ecf565b825550505050565b5f5f905090565b610f87610f78565b610f92818484610f53565b505050565b5b81811015610fb557610faa5f82610f7f565b600181019050610f98565b5050565b601f821115610ffa57610fcb81610ea2565b610fd484610eb4565b81016020851015610fe3578190505b610ff7610fef85610eb4565b830182610f97565b50505b505050565b5f82821c905092915050565b5f61101a5f1984600802610fff565b1980831691505092915050565b5f611032838361100b565b9150826002028217905092915050565b61104c8383610e3b565b67ffffffffffffffff81111561106557611064610a78565b5b61106f8254610e72565b61107a828285610fb9565b5f601f8311600181146110a7575f8415611095578287013590505b61109f8582611027565b865550611106565b601f1984166110b586610ea2565b5f5b828110156110dc578489013582556001820191506020850194506020810190506110b7565b868310156110f957848901356110f5601f89168261100b565b8355505b6001600288020188555050505b50505050505050565b7f50726f6a656374206973206e6f7420636f6d706c6574656400000000000000005f82015250565b5f611143601883610bed565b915061114e8261110f565b602082019050919050565b5f6020820190508181035f83015261117081611137565b9050919050565b7f4f6e6c79207468652070726f6a6563742063726561746f722063616e207769745f8201527f68647261772066756e6473000000000000000000000000000000000000000000602082015250565b5f6111d1602b83610bed565b91506111dc82611177565b604082019050919050565b5f6020820190508181035f8301526111fe816111c5565b9050919050565b7f4e487b71000000000000000000000000000000000000000000000000000000005f52601160045260245ffd5b5f61123c826109d4565b9150611247836109d4565b9250828202611255816109d4565b9150828204841483151761126c5761126b611205565b5b5092915050565b7f4e487b71000000000000000000000000000000000000000000000000000000005f52601260045260245ffd5b5f6112aa826109d4565b91506112b5836109d4565b9250826112c5576112c4611273565b5b828204905092915050565b5f6112da826109d4565b91506112e5836109d4565b92508282039050818111156112fd576112fc611205565b5b92915050565b5f81905092915050565b50565b5f61131b5f83611303565b91506113268261130d565b5f82019050919050565b5f61133a82611310565b9150819050919050565b7f776964746864726177616c206661696c640000000000000000000000000000005f82015250565b5f611378601183610bed565b915061138382611344565b602082019050919050565b5f6020820190508181035f8301526113a58161136c565b9050919050565b7f6661696c646520746f2073656e642066656520746f206f776e657200000000005f82015250565b5f6113e0601b83610bed565b91506113eb826113ac565b602082019050919050565b5f6020820190508181035f83015261140d816113d4565b9050919050565b7f53656e74204554482069732062656c6f77206d696e696d756d207265717569725f8201527f656d656e74000000000000000000000000000000000000000000000000000000602082015250565b5f61146e602583610bed565b915061147982611414565b604082019050919050565b5f6020820190508181035f83015261149b81611462565b9050919050565b7f50726f6a656374206973206e6f742061637469766500000000000000000000005f82015250565b5f6114d6601583610bed565b91506114e1826114a2565b602082019050919050565b5f6020820190508181035f830152611503816114ca565b9050919050565b5f611514826109d4565b915061151f836109d4565b925082820190508082111561153757611536611205565b5b92915050565b5f69ffffffffffffffffffff82169050919050565b61155b8161153d565b8114611565575f5ffd5b50565b5f8151905061157681611552565b92915050565b5f819050919050565b61158e8161157c565b8114611598575f5ffd5b50565b5f815190506115a981611585565b92915050565b5f815190506115bd816109dd565b92915050565b5f5f5f5f5f60a086880312156115dc576115db61096b565b5b5f6115e988828901611568565b95505060206115fa8882890161159b565b945050604061160b888289016115af565b935050606061161c888289016115af565b925050608061162d88828901611568565b915050929550929590935056fea26469706673582212205baba0a11b40069fbeda8857c2044e7af2db2782e995ba750c0fe6f02411307a64736f6c634300081e0033",
					"opcodes": "PUSH1 0xA0 PUSH1 0x40 MSTORE CALLVALUE DUP1 ISZERO PUSH1 0xE JUMPI PUSH0 PUSH0 REVERT JUMPDEST POP CALLER PUSH20 0xFFFFFFFFFFFFFFFFFFFFFFFFFFFFFFFFFFFFFFFF AND PUSH1 0x80 DUP2 PUSH20 0xFFFFFFFFFFFFFFFFFFFFFFFFFFFFFFFFFFFFFFFF AND DUP2 MSTORE POP POP PUSH1 0x80 MLOAD PUSH2 0x1670 PUSH2 0x5B PUSH0 CODECOPY PUSH0 PUSH2 0x579 ADD MSTORE PUSH2 0x1670 PUSH0 RETURN INVALID PUSH1 0x80 PUSH1 0x40 MSTORE PUSH1 0x4 CALLDATASIZE LT PUSH2 0x54 JUMPI PUSH0 CALLDATALOAD PUSH1 0xE0 SHR DUP1 PUSH4 0x10D7AA7D EQ PUSH2 0x58 JUMPI DUP1 PUSH4 0x5854DD21 EQ PUSH2 0x80 JUMPI DUP1 PUSH4 0x5FE26C73 EQ PUSH2 0xC2 JUMPI DUP1 PUSH4 0x6B69A592 EQ PUSH2 0xEA JUMPI DUP1 PUSH4 0x9F047F3C EQ PUSH2 0x114 JUMPI DUP1 PUSH4 0xCC1017E7 EQ PUSH2 0x130 JUMPI JUMPDEST PUSH0 PUSH0 REVERT JUMPDEST CALLVALUE DUP1 ISZERO PUSH2 0x63 JUMPI PUSH0 PUSH0 REVERT JUMPDEST POP PUSH2 0x7E PUSH1 0x4 DUP1 CALLDATASIZE SUB DUP2 ADD SWAP1 PUSH2 0x79 SWAP2 SWAP1 PUSH2 0xA07 JUMP JUMPDEST PUSH2 0x16D JUMP JUMPDEST STOP JUMPDEST CALLVALUE DUP1 ISZERO PUSH2 0x8B JUMPI PUSH0 PUSH0 REVERT JUMPDEST POP PUSH2 0xA6 PUSH1 0x4 DUP1 CALLDATASIZE SUB DUP2 ADD SWAP1 PUSH2 0xA1 SWAP2 SWAP1 PUSH2 0xB9C JUMP JUMPDEST PUSH2 0x250 JUMP JUMPDEST PUSH1 0x40 MLOAD PUSH2 0xB9 SWAP8 SWAP7 SWAP6 SWAP5 SWAP4 SWAP3 SWAP2 SWAP1 PUSH2 0xCAB JUMP JUMPDEST PUSH1 0x40 MLOAD DUP1 SWAP2 SUB SWAP1 RETURN JUMPDEST CALLVALUE DUP1 ISZERO PUSH2 0xCD JUMPI PUSH0 PUSH0 REVERT JUMPDEST POP PUSH2 0xE8 PUSH1 0x4 DUP1 CALLDATASIZE SUB DUP2 ADD SWAP1 PUSH2 0xE3 SWAP2 SWAP1 PUSH2 0xD1F JUMP JUMPDEST PUSH2 0x370 JUMP JUMPDEST STOP JUMPDEST CALLVALUE DUP1 ISZERO PUSH2 0xF5 JUMPI PUSH0 PUSH0 REVERT JUMPDEST POP PUSH2 0xFE PUSH2 0x652 JUMP JUMPDEST PUSH1 0x40 MLOAD PUSH2 0x10B SWAP2 SWAP1 PUSH2 0xD6A JUMP JUMPDEST PUSH1 0x40 MLOAD DUP1 SWAP2 SUB SWAP1 RETURN JUMPDEST PUSH2 0x12E PUSH1 0x4 DUP1 CALLDATASIZE SUB DUP2 ADD SWAP1 PUSH2 0x129 SWAP2 SWAP1 PUSH2 0xD1F JUMP JUMPDEST PUSH2 0x65E JUMP JUMPDEST STOP JUMPDEST CALLVALUE DUP1 ISZERO PUSH2 0x13B JUMPI PUSH0 PUSH0 REVERT JUMPDEST POP PUSH2 0x156 PUSH1 0x4 DUP1 CALLDATASIZE SUB DUP2 ADD SWAP1 PUSH2 0x151 SWAP2 SWAP1 PUSH2 0xD83 JUMP JUMPDEST PUSH2 0x837 JUMP JUMPDEST PUSH1 0x40 MLOAD PUSH2 0x164 SWAP3 SWAP2 SWAP1 PUSH2 0xDCE JUMP JUMPDEST PUSH1 0x40 MLOAD DUP1 SWAP2 SUB SWAP1 RETURN JUMPDEST PUSH0 PUSH0 DUP5 DUP5 PUSH1 0x40 MLOAD PUSH2 0x17F SWAP3 SWAP2 SWAP1 PUSH2 0xE23 JUMP JUMPDEST SWAP1 DUP2 MSTORE PUSH1 0x20 ADD PUSH1 0x40 MLOAD DUP1 SWAP2 SUB SWAP1 KECCAK256 SWAP1 POP DUP4 DUP4 DUP3 PUSH0 ADD SWAP2 DUP3 PUSH2 0x1A1 SWAP3 SWAP2 SWAP1 PUSH2 0x1042 JUMP JUMPDEST POP CALLER DUP2 PUSH1 0x1 ADD PUSH0 PUSH2 0x100 EXP DUP2 SLOAD DUP2 PUSH20 0xFFFFFFFFFFFFFFFFFFFFFFFFFFFFFFFFFFFFFFFF MUL NOT AND SWAP1 DUP4 PUSH20 0xFFFFFFFFFFFFFFFFFFFFFFFFFFFFFFFFFFFFFFFF AND MUL OR SWAP1 SSTORE POP DUP2 DUP2 PUSH1 0x2 ADD DUP2 SWAP1 SSTORE POP PUSH1 0x1 DUP2 PUSH1 0x4 ADD PUSH0 PUSH2 0x100 EXP DUP2 SLOAD DUP2 PUSH1 0xFF MUL NOT AND SWAP1 DUP4 ISZERO ISZERO MUL OR SWAP1 SSTORE POP PUSH0 DUP2 PUSH1 0x4 ADD PUSH1 0x1 PUSH2 0x100 EXP DUP2 SLOAD DUP2 PUSH1 0xFF MUL NOT AND SWAP1 DUP4 ISZERO ISZERO MUL OR SWAP1 SSTORE POP PUSH0 DUP2 PUSH1 0x4 ADD PUSH1 0x2 PUSH2 0x100 EXP DUP2 SLOAD DUP2 PUSH1 0xFF MUL NOT AND SWAP1 DUP4 ISZERO ISZERO MUL OR SWAP1 SSTORE POP PUSH0 DUP2 PUSH1 0x3 ADD DUP2 SWAP1 SSTORE POP POP POP POP POP JUMP JUMPDEST PUSH0 DUP2 DUP1 MLOAD PUSH1 0x20 DUP2 ADD DUP3 ADD DUP1 MLOAD DUP5 DUP3 MSTORE PUSH1 0x20 DUP4 ADD PUSH1 0x20 DUP6 ADD KECCAK256 DUP2 DUP4 MSTORE DUP1 SWAP6 POP POP POP POP POP POP PUSH0 SWAP2 POP SWAP1 POP DUP1 PUSH0 ADD DUP1 SLOAD PUSH2 0x286 SWAP1 PUSH2 0xE72 JUMP JUMPDEST DUP1 PUSH1 0x1F ADD PUSH1 0x20 DUP1 SWAP2 DIV MUL PUSH1 0x20 ADD PUSH1 0x40 MLOAD SWAP1 DUP2 ADD PUSH1 0x40 MSTORE DUP1 SWAP3 SWAP2 SWAP1 DUP2 DUP2 MSTORE PUSH1 0x20 ADD DUP3 DUP1 SLOAD PUSH2 0x2B2 SWAP1 PUSH2 0xE72 JUMP JUMPDEST DUP1 ISZERO PUSH2 0x2FD JUMPI DUP1 PUSH1 0x1F LT PUSH2 0x2D4 JUMPI PUSH2 0x100 DUP1 DUP4 SLOAD DIV MUL DUP4 MSTORE SWAP2 PUSH1 0x20 ADD SWAP2 PUSH2 0x2FD JUMP JUMPDEST DUP3 ADD SWAP2 SWAP1 PUSH0 MSTORE PUSH1 0x20 PUSH0 KECCAK256 SWAP1 JUMPDEST DUP2 SLOAD DUP2 MSTORE SWAP1 PUSH1 0x1 ADD SWAP1 PUSH1 0x20 ADD DUP1 DUP4 GT PUSH2 0x2E0 JUMPI DUP3 SWAP1 SUB PUSH1 0x1F AND DUP3 ADD SWAP2 JUMPDEST POP POP POP POP POP SWAP1 DUP1 PUSH1 0x1 ADD PUSH0 SWAP1 SLOAD SWAP1 PUSH2 0x100 EXP SWAP1 DIV PUSH20 0xFFFFFFFFFFFFFFFFFFFFFFFFFFFFFFFFFFFFFFFF AND SWAP1 DUP1 PUSH1 0x2 ADD SLOAD SWAP1 DUP1 PUSH1 0x3 ADD SLOAD SWAP1 DUP1 PUSH1 0x4 ADD PUSH0 SWAP1 SLOAD SWAP1 PUSH2 0x100 EXP SWAP1 DIV PUSH1 0xFF AND SWAP1 DUP1 PUSH1 0x4 ADD PUSH1 0x1 SWAP1 SLOAD SWAP1 PUSH2 0x100 EXP SWAP1 DIV PUSH1 0xFF AND SWAP1 DUP1 PUSH1 0x4 ADD PUSH1 0x2 SWAP1 SLOAD SWAP1 PUSH2 0x100 EXP SWAP1 DIV PUSH1 0xFF AND SWAP1 POP DUP8 JUMP JUMPDEST PUSH0 PUSH0 DUP4 DUP4 PUSH1 0x40 MLOAD PUSH2 0x382 SWAP3 SWAP2 SWAP1 PUSH2 0xE23 JUMP JUMPDEST SWAP1 DUP2 MSTORE PUSH1 0x20 ADD PUSH1 0x40 MLOAD DUP1 SWAP2 SUB SWAP1 KECCAK256 SWAP1 POP DUP1 PUSH1 0x4 ADD PUSH1 0x1 SWAP1 SLOAD SWAP1 PUSH2 0x100 EXP SWAP1 DIV PUSH1 0xFF AND PUSH2 0x3E3 JUMPI PUSH1 0x40 MLOAD PUSH32 0x8C379A000000000000000000000000000000000000000000000000000000000 DUP2 MSTORE PUSH1 0x4 ADD PUSH2 0x3DA SWAP1 PUSH2 0x1159 JUMP JUMPDEST PUSH1 0x40 MLOAD DUP1 SWAP2 SUB SWAP1 REVERT JUMPDEST CALLER PUSH20 0xFFFFFFFFFFFFFFFFFFFFFFFFFFFFFFFFFFFFFFFF AND DUP2 PUSH1 0x1 ADD PUSH0 SWAP1 SLOAD SWAP1 PUSH2 0x100 EXP SWAP1 DIV PUSH20 0xFFFFFFFFFFFFFFFFFFFFFFFFFFFFFFFFFFFFFFFF AND PUSH20 0xFFFFFFFFFFFFFFFFFFFFFFFFFFFFFFFFFFFFFFFF AND EQ PUSH2 0x474 JUMPI PUSH1 0x40 MLOAD PUSH32 0x8C379A000000000000000000000000000000000000000000000000000000000 DUP2 MSTORE PUSH1 0x4 ADD PUSH2 0x46B SWAP1 PUSH2 0x11E7 JUMP JUMPDEST PUSH1 0x40 MLOAD DUP1 SWAP2 SUB SWAP1 REVERT JUMPDEST PUSH0 DUP2 PUSH1 0x2 ADD SLOAD SWAP1 POP PUSH0 DUP3 PUSH1 0x1 ADD PUSH0 SWAP1 SLOAD SWAP1 PUSH2 0x100 EXP SWAP1 DIV PUSH20 0xFFFFFFFFFFFFFFFFFFFFFFFFFFFFFFFFFFFFFFFF AND SWAP1 POP PUSH0 PUSH1 0x64 PUSH1 0x62 DUP5 PUSH2 0x4B3 SWAP2 SWAP1 PUSH2 0x1232 JUMP JUMPDEST PUSH2 0x4BD SWAP2 SWAP1 PUSH2 0x12A0 JUMP JUMPDEST SWAP1 POP PUSH0 DUP2 DUP5 PUSH2 0x4CC SWAP2 SWAP1 PUSH2 0x12D0 JUMP JUMPDEST SWAP1 POP PUSH0 DUP4 PUSH20 0xFFFFFFFFFFFFFFFFFFFFFFFFFFFFFFFFFFFFFFFF AND DUP4 PUSH1 0x40 MLOAD PUSH2 0x4F3 SWAP1 PUSH2 0x1330 JUMP JUMPDEST PUSH0 PUSH1 0x40 MLOAD DUP1 DUP4 SUB DUP2 DUP6 DUP8 GAS CALL SWAP3 POP POP POP RETURNDATASIZE DUP1 PUSH0 DUP2 EQ PUSH2 0x52D JUMPI PUSH1 0x40 MLOAD SWAP2 POP PUSH1 0x1F NOT PUSH1 0x3F RETURNDATASIZE ADD AND DUP3 ADD PUSH1 0x40 MSTORE RETURNDATASIZE DUP3 MSTORE RETURNDATASIZE PUSH0 PUSH1 0x20 DUP5 ADD RETURNDATACOPY PUSH2 0x532 JUMP JUMPDEST PUSH1 0x60 SWAP2 POP JUMPDEST POP POP SWAP1 POP DUP1 PUSH2 0x576 JUMPI PUSH1 0x40 MLOAD PUSH32 0x8C379A000000000000000000000000000000000000000000000000000000000 DUP2 MSTORE PUSH1 0x4 ADD PUSH2 0x56D SWAP1 PUSH2 0x138E JUMP JUMPDEST PUSH1 0x40 MLOAD DUP1 SWAP2 SUB SWAP1 REVERT JUMPDEST PUSH0 PUSH32 0x0 PUSH20 0xFFFFFFFFFFFFFFFFFFFFFFFFFFFFFFFFFFFFFFFF AND DUP4 PUSH1 0x40 MLOAD PUSH2 0x5BB SWAP1 PUSH2 0x1330 JUMP JUMPDEST PUSH0 PUSH1 0x40 MLOAD DUP1 DUP4 SUB DUP2 DUP6 DUP8 GAS CALL SWAP3 POP POP POP RETURNDATASIZE DUP1 PUSH0 DUP2 EQ PUSH2 0x5F5 JUMPI PUSH1 0x40 MLOAD SWAP2 POP PUSH1 0x1F NOT PUSH1 0x3F RETURNDATASIZE ADD AND DUP3 ADD PUSH1 0x40 MSTORE RETURNDATASIZE DUP3 MSTORE RETURNDATASIZE PUSH0 PUSH1 0x20 DUP5 ADD RETURNDATACOPY PUSH2 0x5FA JUMP JUMPDEST PUSH1 0x60 SWAP2 POP JUMPDEST POP POP SWAP1 POP DUP1 PUSH2 0x63E JUMPI PUSH1 0x40 MLOAD PUSH32 0x8C379A000000000000000000000000000000000000000000000000000000000 DUP2 MSTORE PUSH1 0x4 ADD PUSH2 0x635 SWAP1 PUSH2 0x13F6 JUMP JUMPDEST PUSH1 0x40 MLOAD DUP1 SWAP2 SUB SWAP1 REVERT JUMPDEST PUSH0 DUP8 PUSH1 0x3 ADD DUP2 SWAP1 SSTORE POP POP POP POP POP POP POP POP POP POP JUMP JUMPDEST PUSH8 0x1BC16D674EC80000 DUP2 JUMP JUMPDEST PUSH8 0x1BC16D674EC80000 PUSH2 0x670 CALLVALUE PUSH2 0x885 JUMP JUMPDEST LT ISZERO PUSH2 0x6B1 JUMPI PUSH1 0x40 MLOAD PUSH32 0x35DCD67800000000000000000000000000000000000000000000000000000000 DUP2 MSTORE PUSH1 0x4 ADD PUSH2 0x6A8 SWAP1 PUSH2 0x1484 JUMP JUMPDEST PUSH1 0x40 MLOAD DUP1 SWAP2 SUB SWAP1 REVERT JUMPDEST PUSH0 PUSH0 DUP4 DUP4 PUSH1 0x40 MLOAD PUSH2 0x6C3 SWAP3 SWAP2 SWAP1 PUSH2 0xE23 JUMP JUMPDEST SWAP1 DUP2 MSTORE PUSH1 0x20 ADD PUSH1 0x40 MLOAD DUP1 SWAP2 SUB SWAP1 KECCAK256 SWAP1 POP DUP1 PUSH1 0x4 ADD PUSH0 SWAP1 SLOAD SWAP1 PUSH2 0x100 EXP SWAP1 DIV PUSH1 0xFF AND PUSH2 0x723 JUMPI PUSH1 0x40 MLOAD PUSH32 0x8C379A000000000000000000000000000000000000000000000000000000000 DUP2 MSTORE PUSH1 0x4 ADD PUSH2 0x71A SWAP1 PUSH2 0x14EC JUMP JUMPDEST PUSH1 0x40 MLOAD DUP1 SWAP2 SUB SWAP1 REVERT JUMPDEST PUSH0 CALLVALUE SWAP1 POP DUP1 DUP3 PUSH1 0x3 ADD PUSH0 DUP3 DUP3 SLOAD PUSH2 0x73A SWAP2 SWAP1 PUSH2 0x150A JUMP JUMPDEST SWAP3 POP POP DUP2 SWAP1 SSTORE POP PUSH0 PUSH1 0x40 MLOAD DUP1 PUSH1 0x40 ADD PUSH1 0x40 MSTORE DUP1 CALLER PUSH20 0xFFFFFFFFFFFFFFFFFFFFFFFFFFFFFFFFFFFFFFFF AND DUP2 MSTORE PUSH1 0x20 ADD DUP4 DUP2 MSTORE POP SWAP1 POP PUSH1 0x1 DUP2 SWAP1 DUP1 PUSH1 0x1 DUP2 SLOAD ADD DUP1 DUP3 SSTORE DUP1 SWAP2 POP POP PUSH1 0x1 SWAP1 SUB SWAP1 PUSH0 MSTORE PUSH1 0x20 PUSH0 KECCAK256 SWAP1 PUSH1 0x2 MUL ADD PUSH0 SWAP1 SWAP2 SWAP1 SWAP2 SWAP1 SWAP2 POP PUSH0 DUP3 ADD MLOAD DUP2 PUSH0 ADD PUSH0 PUSH2 0x100 EXP DUP2 SLOAD DUP2 PUSH20 0xFFFFFFFFFFFFFFFFFFFFFFFFFFFFFFFFFFFFFFFF MUL NOT AND SWAP1 DUP4 PUSH20 0xFFFFFFFFFFFFFFFFFFFFFFFFFFFFFFFFFFFFFFFF AND MUL OR SWAP1 SSTORE POP PUSH1 0x20 DUP3 ADD MLOAD DUP2 PUSH1 0x1 ADD SSTORE POP POP DUP3 PUSH1 0x2 ADD SLOAD DUP4 PUSH1 0x3 ADD SLOAD LT PUSH2 0x830 JUMPI PUSH1 0x1 DUP4 PUSH1 0x4 ADD PUSH1 0x1 PUSH2 0x100 EXP DUP2 SLOAD DUP2 PUSH1 0xFF MUL NOT AND SWAP1 DUP4 ISZERO ISZERO MUL OR SWAP1 SSTORE POP PUSH0 DUP4 PUSH1 0x4 ADD PUSH0 PUSH2 0x100 EXP DUP2 SLOAD DUP2 PUSH1 0xFF MUL NOT AND SWAP1 DUP4 ISZERO ISZERO MUL OR SWAP1 SSTORE POP JUMPDEST POP POP POP POP POP JUMP JUMPDEST PUSH1 0x1 DUP2 DUP2 SLOAD DUP2 LT PUSH2 0x846 JUMPI PUSH0 DUP1 REVERT JUMPDEST SWAP1 PUSH0 MSTORE PUSH1 0x20 PUSH0 KECCAK256 SWAP1 PUSH1 0x2 MUL ADD PUSH0 SWAP2 POP SWAP1 POP DUP1 PUSH0 ADD PUSH0 SWAP1 SLOAD SWAP1 PUSH2 0x100 EXP SWAP1 DIV PUSH20 0xFFFFFFFFFFFFFFFFFFFFFFFFFFFFFFFFFFFFFFFF AND SWAP1 DUP1 PUSH1 0x1 ADD SLOAD SWAP1 POP DUP3 JUMP JUMPDEST PUSH0 PUSH0 PUSH2 0x88F PUSH2 0x8BD JUMP JUMPDEST SWAP1 POP PUSH0 PUSH8 0xDE0B6B3A7640000 DUP5 DUP4 PUSH2 0x8A7 SWAP2 SWAP1 PUSH2 0x1232 JUMP JUMPDEST PUSH2 0x8B1 SWAP2 SWAP1 PUSH2 0x12A0 JUMP JUMPDEST SWAP1 POP DUP1 SWAP3 POP POP POP SWAP2 SWAP1 POP JUMP JUMPDEST PUSH0 PUSH0 PUSH20 0x694AA1769357215DE4FAC081BF1F309ADC325306 SWAP1 POP PUSH0 DUP2 PUSH20 0xFFFFFFFFFFFFFFFFFFFFFFFFFFFFFFFFFFFFFFFF AND PUSH4 0xFEAF968C PUSH1 0x40 MLOAD DUP2 PUSH4 0xFFFFFFFF AND PUSH1 0xE0 SHL DUP2 MSTORE PUSH1 0x4 ADD PUSH1 0xA0 PUSH1 0x40 MLOAD DUP1 DUP4 SUB DUP2 DUP7 GAS STATICCALL ISZERO DUP1 ISZERO PUSH2 0x920 JUMPI RETURNDATASIZE PUSH0 PUSH0 RETURNDATACOPY RETURNDATASIZE PUSH0 REVERT JUMPDEST POP POP POP POP PUSH1 0x40 MLOAD RETURNDATASIZE PUSH1 0x1F NOT PUSH1 0x1F DUP3 ADD AND DUP3 ADD DUP1 PUSH1 0x40 MSTORE POP DUP2 ADD SWAP1 PUSH2 0x944 SWAP2 SWAP1 PUSH2 0x15C3 JUMP JUMPDEST POP POP POP SWAP2 POP POP PUSH5 0x2540BE400 DUP2 PUSH2 0x95B SWAP2 SWAP1 PUSH2 0x1232 JUMP JUMPDEST SWAP3 POP POP POP SWAP1 JUMP JUMPDEST PUSH0 PUSH1 0x40 MLOAD SWAP1 POP SWAP1 JUMP JUMPDEST PUSH0 PUSH0 REVERT JUMPDEST PUSH0 PUSH0 REVERT JUMPDEST PUSH0 PUSH0 REVERT JUMPDEST PUSH0 PUSH0 REVERT JUMPDEST PUSH0 PUSH0 REVERT JUMPDEST PUSH0 PUSH0 DUP4 PUSH1 0x1F DUP5 ADD SLT PUSH2 0x994 JUMPI PUSH2 0x993 PUSH2 0x973 JUMP JUMPDEST JUMPDEST DUP3 CALLDATALOAD SWAP1 POP PUSH8 0xFFFFFFFFFFFFFFFF DUP2 GT ISZERO PUSH2 0x9B1 JUMPI PUSH2 0x9B0 PUSH2 0x977 JUMP JUMPDEST JUMPDEST PUSH1 0x20 DUP4 ADD SWAP2 POP DUP4 PUSH1 0x1 DUP3 MUL DUP4 ADD GT ISZERO PUSH2 0x9CD JUMPI PUSH2 0x9CC PUSH2 0x97B JUMP JUMPDEST JUMPDEST SWAP3 POP SWAP3 SWAP1 POP JUMP JUMPDEST PUSH0 DUP2 SWAP1 POP SWAP2 SWAP1 POP JUMP JUMPDEST PUSH2 0x9E6 DUP2 PUSH2 0x9D4 JUMP JUMPDEST DUP2 EQ PUSH2 0x9F0 JUMPI PUSH0 PUSH0 REVERT JUMPDEST POP JUMP JUMPDEST PUSH0 DUP2 CALLDATALOAD SWAP1 POP PUSH2 0xA01 DUP2 PUSH2 0x9DD JUMP JUMPDEST SWAP3 SWAP2 POP POP JUMP JUMPDEST PUSH0 PUSH0 PUSH0 PUSH1 0x40 DUP5 DUP7 SUB SLT ISZERO PUSH2 0xA1E JUMPI PUSH2 0xA1D PUSH2 0x96B JUMP JUMPDEST JUMPDEST PUSH0 DUP5 ADD CALLDATALOAD PUSH8 0xFFFFFFFFFFFFFFFF DUP2 GT ISZERO PUSH2 0xA3B JUMPI PUSH2 0xA3A PUSH2 0x96F JUMP JUMPDEST JUMPDEST PUSH2 0xA47 DUP7 DUP3 DUP8 ADD PUSH2 0x97F JUMP JUMPDEST SWAP4 POP SWAP4 POP POP PUSH1 0x20 PUSH2 0xA5A DUP7 DUP3 DUP8 ADD PUSH2 0x9F3 JUMP JUMPDEST SWAP2 POP POP SWAP3 POP SWAP3 POP SWAP3 JUMP JUMPDEST PUSH0 PUSH0 REVERT JUMPDEST PUSH0 PUSH1 0x1F NOT PUSH1 0x1F DUP4 ADD AND SWAP1 POP SWAP2 SWAP1 POP JUMP JUMPDEST PUSH32 0x4E487B7100000000000000000000000000000000000000000000000000000000 PUSH0 MSTORE PUSH1 0x41 PUSH1 0x4 MSTORE PUSH1 0x24 PUSH0 REVERT JUMPDEST PUSH2 0xAAE DUP3 PUSH2 0xA68 JUMP JUMPDEST DUP2 ADD DUP2 DUP2 LT PUSH8 0xFFFFFFFFFFFFFFFF DUP3 GT OR ISZERO PUSH2 0xACD JUMPI PUSH2 0xACC PUSH2 0xA78 JUMP JUMPDEST JUMPDEST DUP1 PUSH1 0x40 MSTORE POP POP POP JUMP JUMPDEST PUSH0 PUSH2 0xADF PUSH2 0x962 JUMP JUMPDEST SWAP1 POP PUSH2 0xAEB DUP3 DUP3 PUSH2 0xAA5 JUMP JUMPDEST SWAP2 SWAP1 POP JUMP JUMPDEST PUSH0 PUSH8 0xFFFFFFFFFFFFFFFF DUP3 GT ISZERO PUSH2 0xB0A JUMPI PUSH2 0xB09 PUSH2 0xA78 JUMP JUMPDEST JUMPDEST PUSH2 0xB13 DUP3 PUSH2 0xA68 JUMP JUMPDEST SWAP1 POP PUSH1 0x20 DUP2 ADD SWAP1 POP SWAP2 SWAP1 POP JUMP JUMPDEST DUP3 DUP2 DUP4 CALLDATACOPY PUSH0 DUP4 DUP4 ADD MSTORE POP POP POP JUMP JUMPDEST PUSH0 PUSH2 0xB40 PUSH2 0xB3B DUP5 PUSH2 0xAF0 JUMP JUMPDEST PUSH2 0xAD6 JUMP JUMPDEST SWAP1 POP DUP3 DUP2 MSTORE PUSH1 0x20 DUP2 ADD DUP5 DUP5 DUP5 ADD GT ISZERO PUSH2 0xB5C JUMPI PUSH2 0xB5B PUSH2 0xA64 JUMP JUMPDEST JUMPDEST PUSH2 0xB67 DUP5 DUP3 DUP6 PUSH2 0xB20 JUMP JUMPDEST POP SWAP4 SWAP3 POP POP POP JUMP JUMPDEST PUSH0 DUP3 PUSH1 0x1F DUP4 ADD SLT PUSH2 0xB83 JUMPI PUSH2 0xB82 PUSH2 0x973 JUMP JUMPDEST JUMPDEST DUP2 CALLDATALOAD PUSH2 0xB93 DUP5 DUP3 PUSH1 0x20 DUP7 ADD PUSH2 0xB2E JUMP JUMPDEST SWAP2 POP POP SWAP3 SWAP2 POP POP JUMP JUMPDEST PUSH0 PUSH1 0x20 DUP3 DUP5 SUB SLT ISZERO PUSH2 0xBB1 JUMPI PUSH2 0xBB0 PUSH2 0x96B JUMP JUMPDEST JUMPDEST PUSH0 DUP3 ADD CALLDATALOAD PUSH8 0xFFFFFFFFFFFFFFFF DUP2 GT ISZERO PUSH2 0xBCE JUMPI PUSH2 0xBCD PUSH2 0x96F JUMP JUMPDEST JUMPDEST PUSH2 0xBDA DUP5 DUP3 DUP6 ADD PUSH2 0xB6F JUMP JUMPDEST SWAP2 POP POP SWAP3 SWAP2 POP POP JUMP JUMPDEST PUSH0 DUP2 MLOAD SWAP1 POP SWAP2 SWAP1 POP JUMP JUMPDEST PUSH0 DUP3 DUP3 MSTORE PUSH1 0x20 DUP3 ADD SWAP1 POP SWAP3 SWAP2 POP POP JUMP JUMPDEST DUP3 DUP2 DUP4 MCOPY PUSH0 DUP4 DUP4 ADD MSTORE POP POP POP JUMP JUMPDEST PUSH0 PUSH2 0xC15 DUP3 PUSH2 0xBE3 JUMP JUMPDEST PUSH2 0xC1F DUP2 DUP6 PUSH2 0xBED JUMP JUMPDEST SWAP4 POP PUSH2 0xC2F DUP2 DUP6 PUSH1 0x20 DUP7 ADD PUSH2 0xBFD JUMP JUMPDEST PUSH2 0xC38 DUP2 PUSH2 0xA68 JUMP JUMPDEST DUP5 ADD SWAP2 POP POP SWAP3 SWAP2 POP POP JUMP JUMPDEST PUSH0 PUSH20 0xFFFFFFFFFFFFFFFFFFFFFFFFFFFFFFFFFFFFFFFF DUP3 AND SWAP1 POP SWAP2 SWAP1 POP JUMP JUMPDEST PUSH0 PUSH2 0xC6C DUP3 PUSH2 0xC43 JUMP JUMPDEST SWAP1 POP SWAP2 SWAP1 POP JUMP JUMPDEST PUSH2 0xC7C DUP2 PUSH2 0xC62 JUMP JUMPDEST DUP3 MSTORE POP POP JUMP JUMPDEST PUSH2 0xC8B DUP2 PUSH2 0x9D4 JUMP JUMPDEST DUP3 MSTORE POP POP JUMP JUMPDEST PUSH0 DUP2 ISZERO ISZERO SWAP1 POP SWAP2 SWAP1 POP JUMP JUMPDEST PUSH2 0xCA5 DUP2 PUSH2 0xC91 JUMP JUMPDEST DUP3 MSTORE POP POP JUMP JUMPDEST PUSH0 PUSH1 0xE0 DUP3 ADD SWAP1 POP DUP2 DUP2 SUB PUSH0 DUP4 ADD MSTORE PUSH2 0xCC3 DUP2 DUP11 PUSH2 0xC0B JUMP JUMPDEST SWAP1 POP PUSH2 0xCD2 PUSH1 0x20 DUP4 ADD DUP10 PUSH2 0xC73 JUMP JUMPDEST PUSH2 0xCDF PUSH1 0x40 DUP4 ADD DUP9 PUSH2 0xC82 JUMP JUMPDEST PUSH2 0xCEC PUSH1 0x60 DUP4 ADD DUP8 PUSH2 0xC82 JUMP JUMPDEST PUSH2 0xCF9 PUSH1 0x80 DUP4 ADD DUP7 PUSH2 0xC9C JUMP JUMPDEST PUSH2 0xD06 PUSH1 0xA0 DUP4 ADD DUP6 PUSH2 0xC9C JUMP JUMPDEST PUSH2 0xD13 PUSH1 0xC0 DUP4 ADD DUP5 PUSH2 0xC9C JUMP JUMPDEST SWAP9 SWAP8 POP POP POP POP POP POP POP POP JUMP JUMPDEST PUSH0 PUSH0 PUSH1 0x20 DUP4 DUP6 SUB SLT ISZERO PUSH2 0xD35 JUMPI PUSH2 0xD34 PUSH2 0x96B JUMP JUMPDEST JUMPDEST PUSH0 DUP4 ADD CALLDATALOAD PUSH8 0xFFFFFFFFFFFFFFFF DUP2 GT ISZERO PUSH2 0xD52 JUMPI PUSH2 0xD51 PUSH2 0x96F JUMP JUMPDEST JUMPDEST PUSH2 0xD5E DUP6 DUP3 DUP7 ADD PUSH2 0x97F JUMP JUMPDEST SWAP3 POP SWAP3 POP POP SWAP3 POP SWAP3 SWAP1 POP JUMP JUMPDEST PUSH0 PUSH1 0x20 DUP3 ADD SWAP1 POP PUSH2 0xD7D PUSH0 DUP4 ADD DUP5 PUSH2 0xC82 JUMP JUMPDEST SWAP3 SWAP2 POP POP JUMP JUMPDEST PUSH0 PUSH1 0x20 DUP3 DUP5 SUB SLT ISZERO PUSH2 0xD98 JUMPI PUSH2 0xD97 PUSH2 0x96B JUMP JUMPDEST JUMPDEST PUSH0 PUSH2 0xDA5 DUP5 DUP3 DUP6 ADD PUSH2 0x9F3 JUMP JUMPDEST SWAP2 POP POP SWAP3 SWAP2 POP POP JUMP JUMPDEST PUSH0 PUSH2 0xDB8 DUP3 PUSH2 0xC43 JUMP JUMPDEST SWAP1 POP SWAP2 SWAP1 POP JUMP JUMPDEST PUSH2 0xDC8 DUP2 PUSH2 0xDAE JUMP JUMPDEST DUP3 MSTORE POP POP JUMP JUMPDEST PUSH0 PUSH1 0x40 DUP3 ADD SWAP1 POP PUSH2 0xDE1 PUSH0 DUP4 ADD DUP6 PUSH2 0xDBF JUMP JUMPDEST PUSH2 0xDEE PUSH1 0x20 DUP4 ADD DUP5 PUSH2 0xC82 JUMP JUMPDEST SWAP4 SWAP3 POP POP POP JUMP JUMPDEST PUSH0 DUP2 SWAP1 POP SWAP3 SWAP2 POP POP JUMP JUMPDEST PUSH0 PUSH2 0xE0A DUP4 DUP6 PUSH2 0xDF5 JUMP JUMPDEST SWAP4 POP PUSH2 0xE17 DUP4 DUP6 DUP5 PUSH2 0xB20 JUMP JUMPDEST DUP3 DUP5 ADD SWAP1 POP SWAP4 SWAP3 POP POP POP JUMP JUMPDEST PUSH0 PUSH2 0xE2F DUP3 DUP5 DUP7 PUSH2 0xDFF JUMP JUMPDEST SWAP2 POP DUP2 SWAP1 POP SWAP4 SWAP3 POP POP POP JUMP JUMPDEST PUSH0 DUP3 SWAP1 POP SWAP3 SWAP2 POP POP JUMP JUMPDEST PUSH32 0x4E487B7100000000000000000000000000000000000000000000000000000000 PUSH0 MSTORE PUSH1 0x22 PUSH1 0x4 MSTORE PUSH1 0x24 PUSH0 REVERT JUMPDEST PUSH0 PUSH1 0x2 DUP3 DIV SWAP1 POP PUSH1 0x1 DUP3 AND DUP1 PUSH2 0xE89 JUMPI PUSH1 0x7F DUP3 AND SWAP2 POP JUMPDEST PUSH1 0x20 DUP3 LT DUP2 SUB PUSH2 0xE9C JUMPI PUSH2 0xE9B PUSH2 0xE45 JUMP JUMPDEST JUMPDEST POP SWAP2 SWAP1 POP JUMP JUMPDEST PUSH0 DUP2 SWAP1 POP DUP2 PUSH0 MSTORE PUSH1 0x20 PUSH0 KECCAK256 SWAP1 POP SWAP2 SWAP1 POP JUMP JUMPDEST PUSH0 PUSH1 0x20 PUSH1 0x1F DUP4 ADD DIV SWAP1 POP SWAP2 SWAP1 POP JUMP JUMPDEST PUSH0 DUP3 DUP3 SHL SWAP1 POP SWAP3 SWAP2 POP POP JUMP JUMPDEST PUSH0 PUSH1 0x8 DUP4 MUL PUSH2 0xEFE PUSH32 0xFFFFFFFFFFFFFFFFFFFFFFFFFFFFFFFFFFFFFFFFFFFFFFFFFFFFFFFFFFFFFFFF DUP3 PUSH2 0xEC3 JUMP JUMPDEST PUSH2 0xF08 DUP7 DUP4 PUSH2 0xEC3 JUMP JUMPDEST SWAP6 POP DUP1 NOT DUP5 AND SWAP4 POP DUP1 DUP7 AND DUP5 OR SWAP3 POP POP POP SWAP4 SWAP3 POP POP POP JUMP JUMPDEST PUSH0 DUP2 SWAP1 POP SWAP2 SWAP1 POP JUMP JUMPDEST PUSH0 PUSH2 0xF43 PUSH2 0xF3E PUSH2 0xF39 DUP5 PUSH2 0x9D4 JUMP JUMPDEST PUSH2 0xF20 JUMP JUMPDEST PUSH2 0x9D4 JUMP JUMPDEST SWAP1 POP SWAP2 SWAP1 POP JUMP JUMPDEST PUSH0 DUP2 SWAP1 POP SWAP2 SWAP1 POP JUMP JUMPDEST PUSH2 0xF5C DUP4 PUSH2 0xF29 JUMP JUMPDEST PUSH2 0xF70 PUSH2 0xF68 DUP3 PUSH2 0xF4A JUMP JUMPDEST DUP5 DUP5 SLOAD PUSH2 0xECF JUMP JUMPDEST DUP3 SSTORE POP POP POP POP JUMP JUMPDEST PUSH0 PUSH0 SWAP1 POP SWAP1 JUMP JUMPDEST PUSH2 0xF87 PUSH2 0xF78 JUMP JUMPDEST PUSH2 0xF92 DUP2 DUP5 DUP5 PUSH2 0xF53 JUMP JUMPDEST POP POP POP JUMP JUMPDEST JUMPDEST DUP2 DUP2 LT ISZERO PUSH2 0xFB5 JUMPI PUSH2 0xFAA PUSH0 DUP3 PUSH2 0xF7F JUMP JUMPDEST PUSH1 0x1 DUP2 ADD SWAP1 POP PUSH2 0xF98 JUMP JUMPDEST POP POP JUMP JUMPDEST PUSH1 0x1F DUP3 GT ISZERO PUSH2 0xFFA JUMPI PUSH2 0xFCB DUP2 PUSH2 0xEA2 JUMP JUMPDEST PUSH2 0xFD4 DUP5 PUSH2 0xEB4 JUMP JUMPDEST DUP2 ADD PUSH1 0x20 DUP6 LT ISZERO PUSH2 0xFE3 JUMPI DUP2 SWAP1 POP JUMPDEST PUSH2 0xFF7 PUSH2 0xFEF DUP6 PUSH2 0xEB4 JUMP JUMPDEST DUP4 ADD DUP3 PUSH2 0xF97 JUMP JUMPDEST POP POP JUMPDEST POP POP POP JUMP JUMPDEST PUSH0 DUP3 DUP3 SHR SWAP1 POP SWAP3 SWAP2 POP POP JUMP JUMPDEST PUSH0 PUSH2 0x101A PUSH0 NOT DUP5 PUSH1 0x8 MUL PUSH2 0xFFF JUMP JUMPDEST NOT DUP1 DUP4 AND SWAP2 POP POP SWAP3 SWAP2 POP POP JUMP JUMPDEST PUSH0 PUSH2 0x1032 DUP4 DUP4 PUSH2 0x100B JUMP JUMPDEST SWAP2 POP DUP3 PUSH1 0x2 MUL DUP3 OR SWAP1 POP SWAP3 SWAP2 POP POP JUMP JUMPDEST PUSH2 0x104C DUP4 DUP4 PUSH2 0xE3B JUMP JUMPDEST PUSH8 0xFFFFFFFFFFFFFFFF DUP2 GT ISZERO PUSH2 0x1065 JUMPI PUSH2 0x1064 PUSH2 0xA78 JUMP JUMPDEST JUMPDEST PUSH2 0x106F DUP3 SLOAD PUSH2 0xE72 JUMP JUMPDEST PUSH2 0x107A DUP3 DUP3 DUP6 PUSH2 0xFB9 JUMP JUMPDEST PUSH0 PUSH1 0x1F DUP4 GT PUSH1 0x1 DUP2 EQ PUSH2 0x10A7 JUMPI PUSH0 DUP5 ISZERO PUSH2 0x1095 JUMPI DUP3 DUP8 ADD CALLDATALOAD SWAP1 POP JUMPDEST PUSH2 0x109F DUP6 DUP3 PUSH2 0x1027 JUMP JUMPDEST DUP7 SSTORE POP PUSH2 0x1106 JUMP JUMPDEST PUSH1 0x1F NOT DUP5 AND PUSH2 0x10B5 DUP7 PUSH2 0xEA2 JUMP JUMPDEST PUSH0 JUMPDEST DUP3 DUP2 LT ISZERO PUSH2 0x10DC JUMPI DUP5 DUP10 ADD CALLDATALOAD DUP3 SSTORE PUSH1 0x1 DUP3 ADD SWAP2 POP PUSH1 0x20 DUP6 ADD SWAP5 POP PUSH1 0x20 DUP2 ADD SWAP1 POP PUSH2 0x10B7 JUMP JUMPDEST DUP7 DUP4 LT ISZERO PUSH2 0x10F9 JUMPI DUP5 DUP10 ADD CALLDATALOAD PUSH2 0x10F5 PUSH1 0x1F DUP10 AND DUP3 PUSH2 0x100B JUMP JUMPDEST DUP4 SSTORE POP JUMPDEST PUSH1 0x1 PUSH1 0x2 DUP9 MUL ADD DUP9 SSTORE POP POP POP JUMPDEST POP POP POP POP POP POP POP JUMP JUMPDEST PUSH32 0x50726F6A656374206973206E6F7420636F6D706C657465640000000000000000 PUSH0 DUP3 ADD MSTORE POP JUMP JUMPDEST PUSH0 PUSH2 0x1143 PUSH1 0x18 DUP4 PUSH2 0xBED JUMP JUMPDEST SWAP2 POP PUSH2 0x114E DUP3 PUSH2 0x110F JUMP JUMPDEST PUSH1 0x20 DUP3 ADD SWAP1 POP SWAP2 SWAP1 POP JUMP JUMPDEST PUSH0 PUSH1 0x20 DUP3 ADD SWAP1 POP DUP2 DUP2 SUB PUSH0 DUP4 ADD MSTORE PUSH2 0x1170 DUP2 PUSH2 0x1137 JUMP JUMPDEST SWAP1 POP SWAP2 SWAP1 POP JUMP JUMPDEST PUSH32 0x4F6E6C79207468652070726F6A6563742063726561746F722063616E20776974 PUSH0 DUP3 ADD MSTORE PUSH32 0x68647261772066756E6473000000000000000000000000000000000000000000 PUSH1 0x20 DUP3 ADD MSTORE POP JUMP JUMPDEST PUSH0 PUSH2 0x11D1 PUSH1 0x2B DUP4 PUSH2 0xBED JUMP JUMPDEST SWAP2 POP PUSH2 0x11DC DUP3 PUSH2 0x1177 JUMP JUMPDEST PUSH1 0x40 DUP3 ADD SWAP1 POP SWAP2 SWAP1 POP JUMP JUMPDEST PUSH0 PUSH1 0x20 DUP3 ADD SWAP1 POP DUP2 DUP2 SUB PUSH0 DUP4 ADD MSTORE PUSH2 0x11FE DUP2 PUSH2 0x11C5 JUMP JUMPDEST SWAP1 POP SWAP2 SWAP1 POP JUMP JUMPDEST PUSH32 0x4E487B7100000000000000000000000000000000000000000000000000000000 PUSH0 MSTORE PUSH1 0x11 PUSH1 0x4 MSTORE PUSH1 0x24 PUSH0 REVERT JUMPDEST PUSH0 PUSH2 0x123C DUP3 PUSH2 0x9D4 JUMP JUMPDEST SWAP2 POP PUSH2 0x1247 DUP4 PUSH2 0x9D4 JUMP JUMPDEST SWAP3 POP DUP3 DUP3 MUL PUSH2 0x1255 DUP2 PUSH2 0x9D4 JUMP JUMPDEST SWAP2 POP DUP3 DUP3 DIV DUP5 EQ DUP4 ISZERO OR PUSH2 0x126C JUMPI PUSH2 0x126B PUSH2 0x1205 JUMP JUMPDEST JUMPDEST POP SWAP3 SWAP2 POP POP JUMP JUMPDEST PUSH32 0x4E487B7100000000000000000000000000000000000000000000000000000000 PUSH0 MSTORE PUSH1 0x12 PUSH1 0x4 MSTORE PUSH1 0x24 PUSH0 REVERT JUMPDEST PUSH0 PUSH2 0x12AA DUP3 PUSH2 0x9D4 JUMP JUMPDEST SWAP2 POP PUSH2 0x12B5 DUP4 PUSH2 0x9D4 JUMP JUMPDEST SWAP3 POP DUP3 PUSH2 0x12C5 JUMPI PUSH2 0x12C4 PUSH2 0x1273 JUMP JUMPDEST JUMPDEST DUP3 DUP3 DIV SWAP1 POP SWAP3 SWAP2 POP POP JUMP JUMPDEST PUSH0 PUSH2 0x12DA DUP3 PUSH2 0x9D4 JUMP JUMPDEST SWAP2 POP PUSH2 0x12E5 DUP4 PUSH2 0x9D4 JUMP JUMPDEST SWAP3 POP DUP3 DUP3 SUB SWAP1 POP DUP2 DUP2 GT ISZERO PUSH2 0x12FD JUMPI PUSH2 0x12FC PUSH2 0x1205 JUMP JUMPDEST JUMPDEST SWAP3 SWAP2 POP POP JUMP JUMPDEST PUSH0 DUP2 SWAP1 POP SWAP3 SWAP2 POP POP JUMP JUMPDEST POP JUMP JUMPDEST PUSH0 PUSH2 0x131B PUSH0 DUP4 PUSH2 0x1303 JUMP JUMPDEST SWAP2 POP PUSH2 0x1326 DUP3 PUSH2 0x130D JUMP JUMPDEST PUSH0 DUP3 ADD SWAP1 POP SWAP2 SWAP1 POP JUMP JUMPDEST PUSH0 PUSH2 0x133A DUP3 PUSH2 0x1310 JUMP JUMPDEST SWAP2 POP DUP2 SWAP1 POP SWAP2 SWAP1 POP JUMP JUMPDEST PUSH32 0x776964746864726177616C206661696C64000000000000000000000000000000 PUSH0 DUP3 ADD MSTORE POP JUMP JUMPDEST PUSH0 PUSH2 0x1378 PUSH1 0x11 DUP4 PUSH2 0xBED JUMP JUMPDEST SWAP2 POP PUSH2 0x1383 DUP3 PUSH2 0x1344 JUMP JUMPDEST PUSH1 0x20 DUP3 ADD SWAP1 POP SWAP2 SWAP1 POP JUMP JUMPDEST PUSH0 PUSH1 0x20 DUP3 ADD SWAP1 POP DUP2 DUP2 SUB PUSH0 DUP4 ADD MSTORE PUSH2 0x13A5 DUP2 PUSH2 0x136C JUMP JUMPDEST SWAP1 POP SWAP2 SWAP1 POP JUMP JUMPDEST PUSH32 0x6661696C646520746F2073656E642066656520746F206F776E65720000000000 PUSH0 DUP3 ADD MSTORE POP JUMP JUMPDEST PUSH0 PUSH2 0x13E0 PUSH1 0x1B DUP4 PUSH2 0xBED JUMP JUMPDEST SWAP2 POP PUSH2 0x13EB DUP3 PUSH2 0x13AC JUMP JUMPDEST PUSH1 0x20 DUP3 ADD SWAP1 POP SWAP2 SWAP1 POP JUMP JUMPDEST PUSH0 PUSH1 0x20 DUP3 ADD SWAP1 POP DUP2 DUP2 SUB PUSH0 DUP4 ADD MSTORE PUSH2 0x140D DUP2 PUSH2 0x13D4 JUMP JUMPDEST SWAP1 POP SWAP2 SWAP1 POP JUMP JUMPDEST PUSH32 0x53656E74204554482069732062656C6F77206D696E696D756D20726571756972 PUSH0 DUP3 ADD MSTORE PUSH32 0x656D656E74000000000000000000000000000000000000000000000000000000 PUSH1 0x20 DUP3 ADD MSTORE POP JUMP JUMPDEST PUSH0 PUSH2 0x146E PUSH1 0x25 DUP4 PUSH2 0xBED JUMP JUMPDEST SWAP2 POP PUSH2 0x1479 DUP3 PUSH2 0x1414 JUMP JUMPDEST PUSH1 0x40 DUP3 ADD SWAP1 POP SWAP2 SWAP1 POP JUMP JUMPDEST PUSH0 PUSH1 0x20 DUP3 ADD SWAP1 POP DUP2 DUP2 SUB PUSH0 DUP4 ADD MSTORE PUSH2 0x149B DUP2 PUSH2 0x1462 JUMP JUMPDEST SWAP1 POP SWAP2 SWAP1 POP JUMP JUMPDEST PUSH32 0x50726F6A656374206973206E6F74206163746976650000000000000000000000 PUSH0 DUP3 ADD MSTORE POP JUMP JUMPDEST PUSH0 PUSH2 0x14D6 PUSH1 0x15 DUP4 PUSH2 0xBED JUMP JUMPDEST SWAP2 POP PUSH2 0x14E1 DUP3 PUSH2 0x14A2 JUMP JUMPDEST PUSH1 0x20 DUP3 ADD SWAP1 POP SWAP2 SWAP1 POP JUMP JUMPDEST PUSH0 PUSH1 0x20 DUP3 ADD SWAP1 POP DUP2 DUP2 SUB PUSH0 DUP4 ADD MSTORE PUSH2 0x1503 DUP2 PUSH2 0x14CA JUMP JUMPDEST SWAP1 POP SWAP2 SWAP1 POP JUMP JUMPDEST PUSH0 PUSH2 0x1514 DUP3 PUSH2 0x9D4 JUMP JUMPDEST SWAP2 POP PUSH2 0x151F DUP4 PUSH2 0x9D4 JUMP JUMPDEST SWAP3 POP DUP3 DUP3 ADD SWAP1 POP DUP1 DUP3 GT ISZERO PUSH2 0x1537 JUMPI PUSH2 0x1536 PUSH2 0x1205 JUMP JUMPDEST JUMPDEST SWAP3 SWAP2 POP POP JUMP JUMPDEST PUSH0 PUSH10 0xFFFFFFFFFFFFFFFFFFFF DUP3 AND SWAP1 POP SWAP2 SWAP1 POP JUMP JUMPDEST PUSH2 0x155B DUP2 PUSH2 0x153D JUMP JUMPDEST DUP2 EQ PUSH2 0x1565 JUMPI PUSH0 PUSH0 REVERT JUMPDEST POP JUMP JUMPDEST PUSH0 DUP2 MLOAD SWAP1 POP PUSH2 0x1576 DUP2 PUSH2 0x1552 JUMP JUMPDEST SWAP3 SWAP2 POP POP JUMP JUMPDEST PUSH0 DUP2 SWAP1 POP SWAP2 SWAP1 POP JUMP JUMPDEST PUSH2 0x158E DUP2 PUSH2 0x157C JUMP JUMPDEST DUP2 EQ PUSH2 0x1598 JUMPI PUSH0 PUSH0 REVERT JUMPDEST POP JUMP JUMPDEST PUSH0 DUP2 MLOAD SWAP1 POP PUSH2 0x15A9 DUP2 PUSH2 0x1585 JUMP JUMPDEST SWAP3 SWAP2 POP POP JUMP JUMPDEST PUSH0 DUP2 MLOAD SWAP1 POP PUSH2 0x15BD DUP2 PUSH2 0x9DD JUMP JUMPDEST SWAP3 SWAP2 POP POP JUMP JUMPDEST PUSH0 PUSH0 PUSH0 PUSH0 PUSH0 PUSH1 0xA0 DUP7 DUP9 SUB SLT ISZERO PUSH2 0x15DC JUMPI PUSH2 0x15DB PUSH2 0x96B JUMP JUMPDEST JUMPDEST PUSH0 PUSH2 0x15E9 DUP9 DUP3 DUP10 ADD PUSH2 0x1568 JUMP JUMPDEST SWAP6 POP POP PUSH1 0x20 PUSH2 0x15FA DUP9 DUP3 DUP10 ADD PUSH2 0x159B JUMP JUMPDEST SWAP5 POP POP PUSH1 0x40 PUSH2 0x160B DUP9 DUP3 DUP10 ADD PUSH2 0x15AF JUMP JUMPDEST SWAP4 POP POP PUSH1 0x60 PUSH2 0x161C DUP9 DUP3 DUP10 ADD PUSH2 0x15AF JUMP JUMPDEST SWAP3 POP POP PUSH1 0x80 PUSH2 0x162D DUP9 DUP3 DUP10 ADD PUSH2 0x1568 JUMP JUMPDEST SWAP2 POP POP SWAP3 SWAP6 POP SWAP3 SWAP6 SWAP1 SWAP4 POP JUMP INVALID LOG2 PUSH5 0x6970667358 0x22 SLT KECCAK256 JUMPDEST 0xAB LOG0 LOG1 SHL BLOCKHASH MOD SWAP16 0xBE 0xDA DUP9 JUMPI 0xC2 DIV 0x4E PUSH27 0xF2DB2782E995BA750C0FE6F02411307A64736F6C634300081E0033 "
				},
				"gasEstimates": {
					"creation": {
						"codeDepositCost": "1148800",
						"executionCost": "infinite",
						"totalCost": "infinite"
					},
					"external": {
						"MINIMUM_USD()": "369",
						"createproject(string,uint256)": "infinite",
						"fundProject(string)": "infinite",
						"fundRaisingProjects(string)": "infinite",
						"funderinfo(uint256)": "infinite",
						"withdraw_fundRaised(string)": "infinite"
					}
				},
				"methodIdentifiers": {
					"MINIMUM_USD()": "6b69a592",
					"createproject(string,uint256)": "10d7aa7d",
					"fundProject(string)": "9f047f3c",
					"fundRaisingProjects(string)": "5854dd21",
					"funderinfo(uint256)": "cc1017e7",
					"withdraw_fundRaised(string)": "5fe26c73"
				}
			},
			"storageLayout": {
				"storage": [
					{
						"astId": 133,
						"contract": "crowndfound/raisefund.sol:RaiseFunds",
						"label": "fundRaisingProjects",
						"offset": 0,
						"slot": "0",
						"type": "t_mapping(t_string_memory_ptr,t_struct(Fund_Raise_Info)157_storage)"
					},
					{
						"astId": 142,
						"contract": "crowndfound/raisefund.sol:RaiseFunds",
						"label": "funderinfo",
						"offset": 0,
						"slot": "1",
						"type": "t_array(t_struct(funders)138_storage)dyn_storage"
					}
				],
				"types": {
					"t_address": {
						"encoding": "inplace",
						"label": "address",
						"numberOfBytes": "20"
					},
					"t_address_payable": {
						"encoding": "inplace",
						"label": "address payable",
						"numberOfBytes": "20"
					},
					"t_array(t_struct(funders)138_storage)dyn_storage": {
						"base": "t_struct(funders)138_storage",
						"encoding": "dynamic_array",
						"label": "struct RaiseFunds.funders[]",
						"numberOfBytes": "32"
					},
					"t_bool": {
						"encoding": "inplace",
						"label": "bool",
						"numberOfBytes": "1"
					},
					"t_mapping(t_string_memory_ptr,t_struct(Fund_Raise_Info)157_storage)": {
						"encoding": "mapping",
						"key": "t_string_memory_ptr",
						"label": "mapping(string => struct RaiseFunds.Fund_Raise_Info)",
						"numberOfBytes": "32",
						"value": "t_struct(Fund_Raise_Info)157_storage"
					},
					"t_string_memory_ptr": {
						"encoding": "bytes",
						"label": "string",
						"numberOfBytes": "32"
					},
					"t_string_storage": {
						"encoding": "bytes",
						"label": "string",
						"numberOfBytes": "32"
					},
					"t_struct(Fund_Raise_Info)157_storage": {
						"encoding": "inplace",
						"label": "struct RaiseFunds.Fund_Raise_Info",
						"members": [
							{
								"astId": 144,
								"contract": "crowndfound/raisefund.sol:RaiseFunds",
								"label": "name",
								"offset": 0,
								"slot": "0",
								"type": "t_string_storage"
							},
							{
								"astId": 146,
								"contract": "crowndfound/raisefund.sol:RaiseFunds",
								"label": "owner",
								"offset": 0,
								"slot": "1",
								"type": "t_address_payable"
							},
							{
								"astId": 148,
								"contract": "crowndfound/raisefund.sol:RaiseFunds",
								"label": "goal",
								"offset": 0,
								"slot": "2",
								"type": "t_uint256"
							},
							{
								"astId": 150,
								"contract": "crowndfound/raisefund.sol:RaiseFunds",
								"label": "totalRaised",
								"offset": 0,
								"slot": "3",
								"type": "t_uint256"
							},
							{
								"astId": 152,
								"contract": "crowndfound/raisefund.sol:RaiseFunds",
								"label": "isActive",
								"offset": 0,
								"slot": "4",
								"type": "t_bool"
							},
							{
								"astId": 154,
								"contract": "crowndfound/raisefund.sol:RaiseFunds",
								"label": "isCompleted",
								"offset": 1,
								"slot": "4",
								"type": "t_bool"
							},
							{
								"astId": 156,
								"contract": "crowndfound/raisefund.sol:RaiseFunds",
								"label": "isRefunded",
								"offset": 2,
								"slot": "4",
								"type": "t_bool"
							}
						],
						"numberOfBytes": "160"
					},
					"t_struct(funders)138_storage": {
						"encoding": "inplace",
						"label": "struct RaiseFunds.funders",
						"members": [
							{
								"astId": 135,
								"contract": "crowndfound/raisefund.sol:RaiseFunds",
								"label": "funder",
								"offset": 0,
								"slot": "0",
								"type": "t_address"
							},
							{
								"astId": 137,
								"contract": "crowndfound/raisefund.sol:RaiseFunds",
								"label": "amount",
								"offset": 0,
								"slot": "1",
								"type": "t_uint256"
							}
						],
						"numberOfBytes": "64"
					},
					"t_uint256": {
						"encoding": "inplace",
						"label": "uint256",
						"numberOfBytes": "32"
					}
				}
			},
			"userdoc": {
				"kind": "user",
				"methods": {},
				"version": 1
			}
		}
	}
}