{
	"Locked-vault/lock.sol": {
		"Lock_Vault": {
			"abi": [
				{
					"inputs": [],
					"name": "lock_time",
					"outputs": [
						{
							"internalType": "uint256",
							"name": "",
							"type": "uint256"
						}
					],
					"stateMutability": "view",
					"type": "function"
				},
				{
					"inputs": [
						{
							"internalType": "uint256",
							"name": "_unlock",
							"type": "uint256"
						}
					],
					"name": "lock_token",
					"outputs": [],
					"stateMutability": "payable",
					"type": "function"
				},
				{
					"inputs": [],
					"name": "minimum_lock_USD",
					"outputs": [
						{
							"internalType": "uint256",
							"name": "",
							"type": "uint256"
						}
					],
					"stateMutability": "view",
					"type": "function"
				},
				{
					"inputs": [],
					"name": "unLock_Token",
					"outputs": [],
					"stateMutability": "nonpayable",
					"type": "function"
				},
				{
					"inputs": [
						{
							"internalType": "address",
							"name": "",
							"type": "address"
						},
						{
							"internalType": "uint256",
							"name": "",
							"type": "uint256"
						}
					],
					"name": "vault",
					"outputs": [
						{
							"internalType": "uint256",
							"name": "amount",
							"type": "uint256"
						},
						{
							"internalType": "uint256",
							"name": "unlock",
							"type": "uint256"
						},
						{
							"internalType": "address payable",
							"name": "owner",
							"type": "address"
						}
					],
					"stateMutability": "view",
					"type": "function"
				}
			],
			"devdoc": {
				"kind": "dev",
				"methods": {},
				"version": 1
			},
			"evm": {
				"assembly": "    /* \"Locked-vault/lock.sol\":102:1283  contract Lock_Vault{... */\n  mstore(0x40, 0x80)\n  callvalue\n  dup1\n  iszero\n  tag_1\n  jumpi\n  revert(0x00, 0x00)\ntag_1:\n  pop\n  dataSize(sub_0)\n  dup1\n  dataOffset(sub_0)\n  0x00\n  codecopy\n  0x00\n  return\nstop\n\nsub_0: assembly {\n        /* \"Locked-vault/lock.sol\":102:1283  contract Lock_Vault{... */\n      mstore(0x40, 0x80)\n      jumpi(tag_1, lt(calldatasize, 0x04))\n      shr(0xe0, calldataload(0x00))\n      dup1\n      0x23044749\n      eq\n      tag_2\n      jumpi\n      dup1\n      0x3fa16d99\n      eq\n      tag_3\n      jumpi\n      dup1\n      0x480bb7c4\n      eq\n      tag_4\n      jumpi\n      dup1\n      0x7cd4f979\n      eq\n      tag_5\n      jumpi\n      dup1\n      0xdb657388\n      eq\n      tag_6\n      jumpi\n    tag_1:\n      revert(0x00, 0x00)\n        /* \"Locked-vault/lock.sol\":387:699  function lock_token( uint256 _unlock)external payable{... */\n    tag_2:\n      tag_7\n      0x04\n      dup1\n      calldatasize\n      sub\n      dup2\n      add\n      swap1\n      tag_8\n      swap2\n      swap1\n      tag_9\n      jump\t// in\n    tag_8:\n      tag_10\n      jump\t// in\n    tag_7:\n      stop\n        /* \"Locked-vault/lock.sol\":341:383  mapping ( address => Vault[]) public vault */\n    tag_3:\n      callvalue\n      dup1\n      iszero\n      tag_11\n      jumpi\n      revert(0x00, 0x00)\n    tag_11:\n      pop\n      tag_12\n      0x04\n      dup1\n      calldatasize\n      sub\n      dup2\n      add\n      swap1\n      tag_13\n      swap2\n      swap1\n      tag_14\n      jump\t// in\n    tag_13:\n      tag_15\n      jump\t// in\n    tag_12:\n      mload(0x40)\n      tag_16\n      swap4\n      swap3\n      swap2\n      swap1\n      tag_17\n      jump\t// in\n    tag_16:\n      mload(0x40)\n      dup1\n      swap2\n      sub\n      swap1\n      return\n        /* \"Locked-vault/lock.sol\":157:203  uint256 public constant  lock_time = 1 minutes */\n    tag_4:\n      callvalue\n      dup1\n      iszero\n      tag_18\n      jumpi\n      revert(0x00, 0x00)\n    tag_18:\n      pop\n      tag_19\n      tag_20\n      jump\t// in\n    tag_19:\n      mload(0x40)\n      tag_21\n      swap2\n      swap1\n      tag_22\n      jump\t// in\n    tag_21:\n      mload(0x40)\n      dup1\n      swap2\n      sub\n      swap1\n      return\n        /* \"Locked-vault/lock.sol\":206:253  uint256 public constant minimum_lock_USD = 1e18 */\n    tag_5:\n      callvalue\n      dup1\n      iszero\n      tag_23\n      jumpi\n      revert(0x00, 0x00)\n    tag_23:\n      pop\n      tag_24\n      tag_25\n      jump\t// in\n    tag_24:\n      mload(0x40)\n      tag_26\n      swap2\n      swap1\n      tag_22\n      jump\t// in\n    tag_26:\n      mload(0x40)\n      dup1\n      swap2\n      sub\n      swap1\n      return\n        /* \"Locked-vault/lock.sol\":701:1277  function unLock_Token() external{... */\n    tag_6:\n      callvalue\n      dup1\n      iszero\n      tag_27\n      jumpi\n      revert(0x00, 0x00)\n    tag_27:\n      pop\n      tag_28\n      tag_29\n      jump\t// in\n    tag_28:\n      stop\n        /* \"Locked-vault/lock.sol\":387:699  function lock_token( uint256 _unlock)external payable{... */\n    tag_10:\n        /* \"Locked-vault/lock.sol\":249:253  1e18 */\n      0x0de0b6b3a7640000\n        /* \"Locked-vault/lock.sol\":451:478  msg.value.convert_eth_USD() */\n      tag_31\n        /* \"Locked-vault/lock.sol\":451:460  msg.value */\n      callvalue\n        /* \"Locked-vault/lock.sol\":451:476  msg.value.convert_eth_USD */\n      tag_32\n        /* \"Locked-vault/lock.sol\":451:478  msg.value.convert_eth_USD() */\n      jump\t// in\n    tag_31:\n        /* \"Locked-vault/lock.sol\":451:498  msg.value.convert_eth_USD() >  minimum_lock_USD */\n      gt\n        /* \"Locked-vault/lock.sol\":443:531  require(msg.value.convert_eth_USD() >  minimum_lock_USD, \"Minimum lock amount is 1 USD\") */\n      tag_33\n      jumpi\n      mload(0x40)\n      0x08c379a000000000000000000000000000000000000000000000000000000000\n      dup2\n      mstore\n      0x04\n      add\n      tag_34\n      swap1\n      tag_35\n      jump\t// in\n    tag_34:\n      mload(0x40)\n      dup1\n      swap2\n      sub\n      swap1\n      revert\n    tag_33:\n        /* \"Locked-vault/lock.sol\":550:551  0 */\n      0x00\n        /* \"Locked-vault/lock.sol\":539:546  _unlock */\n      dup2\n        /* \"Locked-vault/lock.sol\":539:551  _unlock == 0 */\n      sub\n        /* \"Locked-vault/lock.sol\":536:581  if(_unlock == 0){... */\n      tag_36\n      jumpi\n        /* \"Locked-vault/lock.sol\":194:203  1 minutes */\n      0x3c\n        /* \"Locked-vault/lock.sol\":558:577  _unlock = lock_time */\n      swap1\n      pop\n        /* \"Locked-vault/lock.sol\":536:581  if(_unlock == 0){... */\n    tag_36:\n        /* \"Locked-vault/lock.sol\":583:588  vault */\n      0x00\n        /* \"Locked-vault/lock.sol\":583:600  vault[msg.sender] */\n      0x00\n        /* \"Locked-vault/lock.sol\":589:599  msg.sender */\n      caller\n        /* \"Locked-vault/lock.sol\":583:600  vault[msg.sender] */\n      0xffffffffffffffffffffffffffffffffffffffff\n      and\n      0xffffffffffffffffffffffffffffffffffffffff\n      and\n      dup2\n      mstore\n      0x20\n      add\n      swap1\n      dup2\n      mstore\n      0x20\n      add\n      0x00\n      keccak256\n        /* \"Locked-vault/lock.sol\":606:691  Vault({... */\n      mload(0x40)\n      dup1\n      0x60\n      add\n      0x40\n      mstore\n      dup1\n        /* \"Locked-vault/lock.sol\":626:635  msg.value */\n      callvalue\n        /* \"Locked-vault/lock.sol\":606:691  Vault({... */\n      dup2\n      mstore\n      0x20\n      add\n        /* \"Locked-vault/lock.sol\":649:656  _unlock */\n      dup4\n        /* \"Locked-vault/lock.sol\":606:691  Vault({... */\n      dup2\n      mstore\n      0x20\n      add\n        /* \"Locked-vault/lock.sol\":677:687  msg.sender */\n      caller\n        /* \"Locked-vault/lock.sol\":606:691  Vault({... */\n      0xffffffffffffffffffffffffffffffffffffffff\n      and\n      dup2\n      mstore\n      pop\n        /* \"Locked-vault/lock.sol\":583:692  vault[msg.sender].push(Vault({... */\n      swap1\n      dup1\n      0x01\n      dup2\n      sload\n      add\n      dup1\n      dup3\n      sstore\n      dup1\n      swap2\n      pop\n      pop\n      0x01\n      swap1\n      sub\n      swap1\n      0x00\n      mstore\n      keccak256(0x00, 0x20)\n      swap1\n      0x03\n      mul\n      add\n      0x00\n      swap1\n      swap2\n      swap1\n      swap2\n      swap1\n      swap2\n      pop\n      0x00\n      dup3\n      add\n      mload\n      dup2\n      0x00\n      add\n      sstore\n      0x20\n      dup3\n      add\n      mload\n      dup2\n      0x01\n      add\n      sstore\n      0x40\n      dup3\n      add\n      mload\n      dup2\n      0x02\n      add\n      exp(0x0100, 0x00)\n      dup2\n      sload\n      dup2\n      0xffffffffffffffffffffffffffffffffffffffff\n      mul\n      not\n      and\n      swap1\n      dup4\n      0xffffffffffffffffffffffffffffffffffffffff\n      and\n      mul\n      or\n      swap1\n      sstore\n      pop\n      pop\n      pop\n        /* \"Locked-vault/lock.sol\":387:699  function lock_token( uint256 _unlock)external payable{... */\n      pop\n      jump\t// out\n        /* \"Locked-vault/lock.sol\":341:383  mapping ( address => Vault[]) public vault */\n    tag_15:\n      mstore(0x20, 0x00)\n      dup2\n      0x00\n      mstore\n      keccak256(0x00, 0x40)\n      dup2\n      dup2\n      sload\n      dup2\n      lt\n      tag_38\n      jumpi\n      0x00\n      dup1\n      revert\n    tag_38:\n      swap1\n      0x00\n      mstore\n      keccak256(0x00, 0x20)\n      swap1\n      0x03\n      mul\n      add\n      0x00\n      swap2\n      pop\n      swap2\n      pop\n      pop\n      dup1\n      0x00\n      add\n      sload\n      swap1\n      dup1\n      0x01\n      add\n      sload\n      swap1\n      dup1\n      0x02\n      add\n      0x00\n      swap1\n      sload\n      swap1\n      0x0100\n      exp\n      swap1\n      div\n      0xffffffffffffffffffffffffffffffffffffffff\n      and\n      swap1\n      pop\n      dup4\n      jump\t// out\n        /* \"Locked-vault/lock.sol\":157:203  uint256 public constant  lock_time = 1 minutes */\n    tag_20:\n        /* \"Locked-vault/lock.sol\":194:203  1 minutes */\n      0x3c\n        /* \"Locked-vault/lock.sol\":157:203  uint256 public constant  lock_time = 1 minutes */\n      dup2\n      jump\t// out\n        /* \"Locked-vault/lock.sol\":206:253  uint256 public constant minimum_lock_USD = 1e18 */\n    tag_25:\n        /* \"Locked-vault/lock.sol\":249:253  1e18 */\n      0x0de0b6b3a7640000\n        /* \"Locked-vault/lock.sol\":206:253  uint256 public constant minimum_lock_USD = 1e18 */\n      dup2\n      jump\t// out\n        /* \"Locked-vault/lock.sol\":701:1277  function unLock_Token() external{... */\n    tag_29:\n        /* \"Locked-vault/lock.sol\":771:772  0 */\n      0x00\n        /* \"Locked-vault/lock.sol\":744:749  vault */\n      0x00\n        /* \"Locked-vault/lock.sol\":744:761  vault[msg.sender] */\n      0x00\n        /* \"Locked-vault/lock.sol\":750:760  msg.sender */\n      caller\n        /* \"Locked-vault/lock.sol\":744:761  vault[msg.sender] */\n      0xffffffffffffffffffffffffffffffffffffffff\n      and\n      0xffffffffffffffffffffffffffffffffffffffff\n      and\n      dup2\n      mstore\n      0x20\n      add\n      swap1\n      dup2\n      mstore\n      0x20\n      add\n      0x00\n      keccak256\n        /* \"Locked-vault/lock.sol\":744:768  vault[msg.sender].length */\n      dup1\n      sload\n      swap1\n      pop\n        /* \"Locked-vault/lock.sol\":744:772  vault[msg.sender].length > 0 */\n      gt\n        /* \"Locked-vault/lock.sol\":736:806  require(vault[msg.sender].length > 0, 'you dont have anytoken looked') */\n      tag_41\n      jumpi\n      mload(0x40)\n      0x08c379a000000000000000000000000000000000000000000000000000000000\n      dup2\n      mstore\n      0x04\n      add\n      tag_42\n      swap1\n      tag_43\n      jump\t// in\n    tag_42:\n      mload(0x40)\n      dup1\n      swap2\n      sub\n      swap1\n      revert\n    tag_41:\n        /* \"Locked-vault/lock.sol\":814:823  uint256 i */\n      0x00\n        /* \"Locked-vault/lock.sol\":826:831  vault */\n      0x00\n        /* \"Locked-vault/lock.sol\":826:843  vault[msg.sender] */\n      0x00\n        /* \"Locked-vault/lock.sol\":832:842  msg.sender */\n      caller\n        /* \"Locked-vault/lock.sol\":826:843  vault[msg.sender] */\n      0xffffffffffffffffffffffffffffffffffffffff\n      and\n      0xffffffffffffffffffffffffffffffffffffffff\n      and\n      dup2\n      mstore\n      0x20\n      add\n      swap1\n      dup2\n      mstore\n      0x20\n      add\n      0x00\n      keccak256\n        /* \"Locked-vault/lock.sol\":826:850  vault[msg.sender].length */\n      dup1\n      sload\n      swap1\n      pop\n        /* \"Locked-vault/lock.sol\":814:850  uint256 i = vault[msg.sender].length */\n      swap1\n      pop\n        /* \"Locked-vault/lock.sol\":810:1273  for(uint256 i = vault[msg.sender].length; i > 0 ; i--){... */\n    tag_44:\n        /* \"Locked-vault/lock.sol\":856:857  0 */\n      0x00\n        /* \"Locked-vault/lock.sol\":852:853  i */\n      dup2\n        /* \"Locked-vault/lock.sol\":852:857  i > 0 */\n      gt\n        /* \"Locked-vault/lock.sol\":810:1273  for(uint256 i = vault[msg.sender].length; i > 0 ; i--){... */\n      iszero\n      tag_45\n      jumpi\n        /* \"Locked-vault/lock.sol\":866:879  uint256 index */\n      0x00\n        /* \"Locked-vault/lock.sol\":886:887  1 */\n      0x01\n        /* \"Locked-vault/lock.sol\":882:883  i */\n      dup3\n        /* \"Locked-vault/lock.sol\":882:887  i - 1 */\n      tag_47\n      swap2\n      swap1\n      tag_48\n      jump\t// in\n    tag_47:\n        /* \"Locked-vault/lock.sol\":866:887  uint256 index = i - 1 */\n      swap1\n      pop\n        /* \"Locked-vault/lock.sol\":890:913  Vault[]  storage amount */\n      0x00\n        /* \"Locked-vault/lock.sol\":916:921  vault */\n      0x00\n        /* \"Locked-vault/lock.sol\":916:933  vault[msg.sender] */\n      0x00\n        /* \"Locked-vault/lock.sol\":922:932  msg.sender */\n      caller\n        /* \"Locked-vault/lock.sol\":916:933  vault[msg.sender] */\n      0xffffffffffffffffffffffffffffffffffffffff\n      and\n      0xffffffffffffffffffffffffffffffffffffffff\n      and\n      dup2\n      mstore\n      0x20\n      add\n      swap1\n      dup2\n      mstore\n      0x20\n      add\n      0x00\n      keccak256\n        /* \"Locked-vault/lock.sol\":890:933  Vault[]  storage amount = vault[msg.sender] */\n      swap1\n      pop\n        /* \"Locked-vault/lock.sol\":963:978  block.timestamp */\n      timestamp\n        /* \"Locked-vault/lock.sol\":939:945  amount */\n      dup2\n        /* \"Locked-vault/lock.sol\":946:951  index */\n      dup4\n        /* \"Locked-vault/lock.sol\":939:952  amount[index] */\n      dup2\n      sload\n      dup2\n      lt\n      tag_49\n      jumpi\n      tag_50\n      tag_51\n      jump\t// in\n    tag_50:\n    tag_49:\n      swap1\n      0x00\n      mstore\n      keccak256(0x00, 0x20)\n      swap1\n      0x03\n      mul\n      add\n        /* \"Locked-vault/lock.sol\":939:959  amount[index].unlock */\n      0x01\n      add\n      sload\n        /* \"Locked-vault/lock.sol\":939:978  amount[index].unlock <= block.timestamp */\n      gt\n        /* \"Locked-vault/lock.sol\":936:1270  if(amount[index].unlock <= block.timestamp){... */\n      tag_53\n      jumpi\n        /* \"Locked-vault/lock.sol\":985:997  bool success */\n      0x00\n        /* \"Locked-vault/lock.sol\":1010:1020  msg.sender */\n      caller\n        /* \"Locked-vault/lock.sol\":1002:1026  payable(msg.sender).call */\n      0xffffffffffffffffffffffffffffffffffffffff\n      and\n        /* \"Locked-vault/lock.sol\":1033:1039  amount */\n      dup3\n        /* \"Locked-vault/lock.sol\":1040:1045  index */\n      dup5\n        /* \"Locked-vault/lock.sol\":1033:1046  amount[index] */\n      dup2\n      sload\n      dup2\n      lt\n      tag_54\n      jumpi\n      tag_55\n      tag_51\n      jump\t// in\n    tag_55:\n    tag_54:\n      swap1\n      0x00\n      mstore\n      keccak256(0x00, 0x20)\n      swap1\n      0x03\n      mul\n      add\n        /* \"Locked-vault/lock.sol\":1033:1053  amount[index].amount */\n      0x00\n      add\n      sload\n        /* \"Locked-vault/lock.sol\":1002:1058  payable(msg.sender).call{value:amount[index].amount}('') */\n      mload(0x40)\n      tag_57\n      swap1\n      tag_58\n      jump\t// in\n    tag_57:\n      0x00\n      mload(0x40)\n      dup1\n      dup4\n      sub\n      dup2\n      dup6\n      dup8\n      gas\n      call\n      swap3\n      pop\n      pop\n      pop\n      returndatasize\n      dup1\n      0x00\n      dup2\n      eq\n      tag_61\n      jumpi\n      mload(0x40)\n      swap2\n      pop\n      and(add(returndatasize, 0x3f), not(0x1f))\n      dup3\n      add\n      0x40\n      mstore\n      returndatasize\n      dup3\n      mstore\n      returndatasize\n      0x00\n      0x20\n      dup5\n      add\n      returndatacopy\n      jump(tag_60)\n    tag_61:\n      0x60\n      swap2\n      pop\n    tag_60:\n      pop\n        /* \"Locked-vault/lock.sol\":984:1058  (bool success,) = payable(msg.sender).call{value:amount[index].amount}('') */\n      pop\n      swap1\n      pop\n        /* \"Locked-vault/lock.sol\":1072:1079  success */\n      dup1\n        /* \"Locked-vault/lock.sol\":1064:1102  require(success, \"transaction failed\") */\n      tag_62\n      jumpi\n      mload(0x40)\n      0x08c379a000000000000000000000000000000000000000000000000000000000\n      dup2\n      mstore\n      0x04\n      add\n      tag_63\n      swap1\n      tag_64\n      jump\t// in\n    tag_63:\n      mload(0x40)\n      dup1\n      swap2\n      sub\n      swap1\n      revert\n    tag_62:\n        /* \"Locked-vault/lock.sol\":1107:1131  uint256 lastElementIndex */\n      0x00\n        /* \"Locked-vault/lock.sol\":1161:1162  1 */\n      0x01\n        /* \"Locked-vault/lock.sol\":1134:1139  vault */\n      0x00\n        /* \"Locked-vault/lock.sol\":1134:1151  vault[msg.sender] */\n      0x00\n        /* \"Locked-vault/lock.sol\":1140:1150  msg.sender */\n      caller\n        /* \"Locked-vault/lock.sol\":1134:1151  vault[msg.sender] */\n      0xffffffffffffffffffffffffffffffffffffffff\n      and\n      0xffffffffffffffffffffffffffffffffffffffff\n      and\n      dup2\n      mstore\n      0x20\n      add\n      swap1\n      dup2\n      mstore\n      0x20\n      add\n      0x00\n      keccak256\n        /* \"Locked-vault/lock.sol\":1134:1158  vault[msg.sender].length */\n      dup1\n      sload\n      swap1\n      pop\n        /* \"Locked-vault/lock.sol\":1134:1162  vault[msg.sender].length - 1 */\n      tag_65\n      swap2\n      swap1\n      tag_48\n      jump\t// in\n    tag_65:\n        /* \"Locked-vault/lock.sol\":1107:1162  uint256 lastElementIndex = vault[msg.sender].length - 1 */\n      swap1\n      pop\n        /* \"Locked-vault/lock.sol\":1180:1196  lastElementIndex */\n      dup1\n        /* \"Locked-vault/lock.sol\":1171:1176  index */\n      dup5\n        /* \"Locked-vault/lock.sol\":1171:1196  index != lastElementIndex */\n      eq\n        /* \"Locked-vault/lock.sol\":1168:1250  if(index != lastElementIndex){... */\n      tag_66\n      jumpi\n        /* \"Locked-vault/lock.sol\":1220:1226  amount */\n      dup3\n        /* \"Locked-vault/lock.sol\":1227:1243  lastElementIndex */\n      dup2\n        /* \"Locked-vault/lock.sol\":1220:1244  amount[lastElementIndex] */\n      dup2\n      sload\n      dup2\n      lt\n      tag_67\n      jumpi\n      tag_68\n      tag_51\n      jump\t// in\n    tag_68:\n    tag_67:\n      swap1\n      0x00\n      mstore\n      keccak256(0x00, 0x20)\n      swap1\n      0x03\n      mul\n      add\n        /* \"Locked-vault/lock.sol\":1204:1210  amount */\n      dup4\n        /* \"Locked-vault/lock.sol\":1211:1216  index */\n      dup6\n        /* \"Locked-vault/lock.sol\":1204:1217  amount[index] */\n      dup2\n      sload\n      dup2\n      lt\n      tag_70\n      jumpi\n      tag_71\n      tag_51\n      jump\t// in\n    tag_71:\n    tag_70:\n      swap1\n      0x00\n      mstore\n      keccak256(0x00, 0x20)\n      swap1\n      0x03\n      mul\n      add\n        /* \"Locked-vault/lock.sol\":1204:1244  amount[index] = amount[lastElementIndex] */\n      0x00\n      dup3\n      add\n      sload\n      dup2\n      0x00\n      add\n      sstore\n      0x01\n      dup3\n      add\n      sload\n      dup2\n      0x01\n      add\n      sstore\n      0x02\n      dup3\n      add\n      0x00\n      swap1\n      sload\n      swap1\n      0x0100\n      exp\n      swap1\n      div\n      0xffffffffffffffffffffffffffffffffffffffff\n      and\n      dup2\n      0x02\n      add\n      exp(0x0100, 0x00)\n      dup2\n      sload\n      dup2\n      0xffffffffffffffffffffffffffffffffffffffff\n      mul\n      not\n      and\n      swap1\n      dup4\n      0xffffffffffffffffffffffffffffffffffffffff\n      and\n      mul\n      or\n      swap1\n      sstore\n      pop\n      swap1\n      pop\n      pop\n        /* \"Locked-vault/lock.sol\":1168:1250  if(index != lastElementIndex){... */\n    tag_66:\n        /* \"Locked-vault/lock.sol\":1254:1260  amount */\n      dup3\n        /* \"Locked-vault/lock.sol\":1254:1266  amount.pop() */\n      dup1\n      sload\n      dup1\n      tag_73\n      jumpi\n      tag_74\n      tag_75\n      jump\t// in\n    tag_74:\n    tag_73:\n      0x01\n      swap1\n      sub\n      dup2\n      dup2\n      swap1\n      0x00\n      mstore\n      keccak256(0x00, 0x20)\n      swap1\n      0x03\n      mul\n      add\n      0x00\n      0x00\n      dup3\n      add\n      0x00\n      swap1\n      sstore\n      0x01\n      dup3\n      add\n      0x00\n      swap1\n      sstore\n      0x02\n      dup3\n      add\n      exp(0x0100, 0x00)\n      dup2\n      sload\n      swap1\n      0xffffffffffffffffffffffffffffffffffffffff\n      mul\n      not\n      and\n      swap1\n      sstore\n      pop\n      pop\n      swap1\n      sstore\n        /* \"Locked-vault/lock.sol\":979:1270  {... */\n      pop\n      pop\n        /* \"Locked-vault/lock.sol\":936:1270  if(amount[index].unlock <= block.timestamp){... */\n    tag_53:\n        /* \"Locked-vault/lock.sol\":864:1273  {... */\n      pop\n      pop\n        /* \"Locked-vault/lock.sol\":860:863  i-- */\n      dup1\n      dup1\n      tag_77\n      swap1\n      tag_78\n      jump\t// in\n    tag_77:\n      swap2\n      pop\n      pop\n        /* \"Locked-vault/lock.sol\":810:1273  for(uint256 i = vault[msg.sender].length; i > 0 ; i--){... */\n      jump(tag_44)\n    tag_45:\n      pop\n        /* \"Locked-vault/lock.sol\":701:1277  function unLock_Token() external{... */\n      jump\t// out\n        /* \"Locked-vault/getprice.sol\":447:588  function convert_eth_USD(uint256 _amount) internal view returns (uint256){... */\n    tag_32:\n        /* \"Locked-vault/getprice.sol\":512:519  uint256 */\n      0x00\n        /* \"Locked-vault/getprice.sol\":523:536  uint256 price */\n      0x00\n        /* \"Locked-vault/getprice.sol\":539:552  getEthprice() */\n      tag_80\n        /* \"Locked-vault/getprice.sol\":539:550  getEthprice */\n      tag_81\n        /* \"Locked-vault/getprice.sol\":539:552  getEthprice() */\n      jump\t// in\n    tag_80:\n        /* \"Locked-vault/getprice.sol\":523:552  uint256 price = getEthprice() */\n      swap1\n      pop\n        /* \"Locked-vault/getprice.sol\":580:584  1e18 */\n      0x0de0b6b3a7640000\n        /* \"Locked-vault/getprice.sol\":571:578  _amount */\n      dup4\n        /* \"Locked-vault/getprice.sol\":563:568  price */\n      dup3\n        /* \"Locked-vault/getprice.sol\":563:578  price * _amount */\n      tag_82\n      swap2\n      swap1\n      tag_83\n      jump\t// in\n    tag_82:\n        /* \"Locked-vault/getprice.sol\":562:584  (price * _amount)/1e18 */\n      tag_84\n      swap2\n      swap1\n      tag_85\n      jump\t// in\n    tag_84:\n        /* \"Locked-vault/getprice.sol\":555:584  return (price * _amount)/1e18 */\n      swap2\n      pop\n      pop\n        /* \"Locked-vault/getprice.sol\":447:588  function convert_eth_USD(uint256 _amount) internal view returns (uint256){... */\n      swap2\n      swap1\n      pop\n      jump\t// out\n        /* \"Locked-vault/getprice.sol\":192:444  function getEthprice() internal view returns(uint256){... */\n    tag_81:\n        /* \"Locked-vault/getprice.sol\":237:244  uint256 */\n      0x00\n        /* \"Locked-vault/getprice.sol\":248:285  AggregatorV3Interface returned_priced */\n      0x00\n        /* \"Locked-vault/getprice.sol\":310:352  0x694AA1769357215DE4FAC081bf1f309aDC325306 */\n      0x694aa1769357215de4fac081bf1f309adc325306\n        /* \"Locked-vault/getprice.sol\":248:353  AggregatorV3Interface returned_priced = AggregatorV3Interface(0x694AA1769357215DE4FAC081bf1f309aDC325306) */\n      swap1\n      pop\n        /* \"Locked-vault/getprice.sol\":359:368  int price */\n      0x00\n        /* \"Locked-vault/getprice.sol\":375:390  returned_priced */\n      dup2\n        /* \"Locked-vault/getprice.sol\":375:406  returned_priced.latestRoundData */\n      0xffffffffffffffffffffffffffffffffffffffff\n      and\n      0xfeaf968c\n        /* \"Locked-vault/getprice.sol\":375:408  returned_priced.latestRoundData() */\n      mload(0x40)\n      dup2\n      0xffffffff\n      and\n      0xe0\n      shl\n      dup2\n      mstore\n      0x04\n      add\n      0xa0\n      mload(0x40)\n      dup1\n      dup4\n      sub\n      dup2\n      dup7\n      gas\n      staticcall\n      iszero\n      dup1\n      iszero\n      tag_88\n      jumpi\n      returndatacopy(0x00, 0x00, returndatasize)\n      revert(0x00, returndatasize)\n    tag_88:\n      pop\n      pop\n      pop\n      pop\n      mload(0x40)\n      returndatasize\n      not(0x1f)\n      0x1f\n      dup3\n      add\n      and\n      dup3\n      add\n      dup1\n      0x40\n      mstore\n      pop\n      dup2\n      add\n      swap1\n      tag_89\n      swap2\n      swap1\n      tag_90\n      jump\t// in\n    tag_89:\n        /* \"Locked-vault/getprice.sol\":356:408  (, int price,,,) = returned_priced.latestRoundData() */\n      pop\n      pop\n      pop\n      swap2\n      pop\n      pop\n        /* \"Locked-vault/getprice.sol\":436:440  1e10 */\n      0x02540be400\n        /* \"Locked-vault/getprice.sol\":428:433  price */\n      dup2\n        /* \"Locked-vault/getprice.sol\":420:440  uint256(price)* 1e10 */\n      tag_91\n      swap2\n      swap1\n      tag_83\n      jump\t// in\n    tag_91:\n        /* \"Locked-vault/getprice.sol\":412:440  return  uint256(price)* 1e10 */\n      swap3\n      pop\n      pop\n      pop\n        /* \"Locked-vault/getprice.sol\":192:444  function getEthprice() internal view returns(uint256){... */\n      swap1\n      jump\t// out\n        /* \"#utility.yul\":88:205   */\n    tag_93:\n        /* \"#utility.yul\":197:198   */\n      0x00\n        /* \"#utility.yul\":194:195   */\n      0x00\n        /* \"#utility.yul\":187:199   */\n      revert\n        /* \"#utility.yul\":334:411   */\n    tag_95:\n        /* \"#utility.yul\":371:378   */\n      0x00\n        /* \"#utility.yul\":400:405   */\n      dup2\n        /* \"#utility.yul\":389:405   */\n      swap1\n      pop\n        /* \"#utility.yul\":334:411   */\n      swap2\n      swap1\n      pop\n      jump\t// out\n        /* \"#utility.yul\":417:539   */\n    tag_96:\n        /* \"#utility.yul\":490:514   */\n      tag_130\n        /* \"#utility.yul\":508:513   */\n      dup2\n        /* \"#utility.yul\":490:514   */\n      tag_95\n      jump\t// in\n    tag_130:\n        /* \"#utility.yul\":483:488   */\n      dup2\n        /* \"#utility.yul\":480:515   */\n      eq\n        /* \"#utility.yul\":470:533   */\n      tag_131\n      jumpi\n        /* \"#utility.yul\":529:530   */\n      0x00\n        /* \"#utility.yul\":526:527   */\n      0x00\n        /* \"#utility.yul\":519:531   */\n      revert\n        /* \"#utility.yul\":470:533   */\n    tag_131:\n        /* \"#utility.yul\":417:539   */\n      pop\n      jump\t// out\n        /* \"#utility.yul\":545:684   */\n    tag_97:\n        /* \"#utility.yul\":591:596   */\n      0x00\n        /* \"#utility.yul\":629:635   */\n      dup2\n        /* \"#utility.yul\":616:636   */\n      calldataload\n        /* \"#utility.yul\":607:636   */\n      swap1\n      pop\n        /* \"#utility.yul\":645:678   */\n      tag_133\n        /* \"#utility.yul\":672:677   */\n      dup2\n        /* \"#utility.yul\":645:678   */\n      tag_96\n      jump\t// in\n    tag_133:\n        /* \"#utility.yul\":545:684   */\n      swap3\n      swap2\n      pop\n      pop\n      jump\t// out\n        /* \"#utility.yul\":690:1019   */\n    tag_9:\n        /* \"#utility.yul\":749:755   */\n      0x00\n        /* \"#utility.yul\":798:800   */\n      0x20\n        /* \"#utility.yul\":786:795   */\n      dup3\n        /* \"#utility.yul\":777:784   */\n      dup5\n        /* \"#utility.yul\":773:796   */\n      sub\n        /* \"#utility.yul\":769:801   */\n      slt\n        /* \"#utility.yul\":766:885   */\n      iszero\n      tag_135\n      jumpi\n        /* \"#utility.yul\":804:883   */\n      tag_136\n      tag_93\n      jump\t// in\n    tag_136:\n        /* \"#utility.yul\":766:885   */\n    tag_135:\n        /* \"#utility.yul\":924:925   */\n      0x00\n        /* \"#utility.yul\":949:1002   */\n      tag_137\n        /* \"#utility.yul\":994:1001   */\n      dup5\n        /* \"#utility.yul\":985:991   */\n      dup3\n        /* \"#utility.yul\":974:983   */\n      dup6\n        /* \"#utility.yul\":970:992   */\n      add\n        /* \"#utility.yul\":949:1002   */\n      tag_97\n      jump\t// in\n    tag_137:\n        /* \"#utility.yul\":939:1002   */\n      swap2\n      pop\n        /* \"#utility.yul\":895:1012   */\n      pop\n        /* \"#utility.yul\":690:1019   */\n      swap3\n      swap2\n      pop\n      pop\n      jump\t// out\n        /* \"#utility.yul\":1025:1151   */\n    tag_98:\n        /* \"#utility.yul\":1062:1069   */\n      0x00\n        /* \"#utility.yul\":1102:1144   */\n      0xffffffffffffffffffffffffffffffffffffffff\n        /* \"#utility.yul\":1095:1100   */\n      dup3\n        /* \"#utility.yul\":1091:1145   */\n      and\n        /* \"#utility.yul\":1080:1145   */\n      swap1\n      pop\n        /* \"#utility.yul\":1025:1151   */\n      swap2\n      swap1\n      pop\n      jump\t// out\n        /* \"#utility.yul\":1157:1253   */\n    tag_99:\n        /* \"#utility.yul\":1194:1201   */\n      0x00\n        /* \"#utility.yul\":1223:1247   */\n      tag_140\n        /* \"#utility.yul\":1241:1246   */\n      dup3\n        /* \"#utility.yul\":1223:1247   */\n      tag_98\n      jump\t// in\n    tag_140:\n        /* \"#utility.yul\":1212:1247   */\n      swap1\n      pop\n        /* \"#utility.yul\":1157:1253   */\n      swap2\n      swap1\n      pop\n      jump\t// out\n        /* \"#utility.yul\":1259:1381   */\n    tag_100:\n        /* \"#utility.yul\":1332:1356   */\n      tag_142\n        /* \"#utility.yul\":1350:1355   */\n      dup2\n        /* \"#utility.yul\":1332:1356   */\n      tag_99\n      jump\t// in\n    tag_142:\n        /* \"#utility.yul\":1325:1330   */\n      dup2\n        /* \"#utility.yul\":1322:1357   */\n      eq\n        /* \"#utility.yul\":1312:1375   */\n      tag_143\n      jumpi\n        /* \"#utility.yul\":1371:1372   */\n      0x00\n        /* \"#utility.yul\":1368:1369   */\n      0x00\n        /* \"#utility.yul\":1361:1373   */\n      revert\n        /* \"#utility.yul\":1312:1375   */\n    tag_143:\n        /* \"#utility.yul\":1259:1381   */\n      pop\n      jump\t// out\n        /* \"#utility.yul\":1387:1526   */\n    tag_101:\n        /* \"#utility.yul\":1433:1438   */\n      0x00\n        /* \"#utility.yul\":1471:1477   */\n      dup2\n        /* \"#utility.yul\":1458:1478   */\n      calldataload\n        /* \"#utility.yul\":1449:1478   */\n      swap1\n      pop\n        /* \"#utility.yul\":1487:1520   */\n      tag_145\n        /* \"#utility.yul\":1514:1519   */\n      dup2\n        /* \"#utility.yul\":1487:1520   */\n      tag_100\n      jump\t// in\n    tag_145:\n        /* \"#utility.yul\":1387:1526   */\n      swap3\n      swap2\n      pop\n      pop\n      jump\t// out\n        /* \"#utility.yul\":1532:2006   */\n    tag_14:\n        /* \"#utility.yul\":1600:1606   */\n      0x00\n        /* \"#utility.yul\":1608:1614   */\n      0x00\n        /* \"#utility.yul\":1657:1659   */\n      0x40\n        /* \"#utility.yul\":1645:1654   */\n      dup4\n        /* \"#utility.yul\":1636:1643   */\n      dup6\n        /* \"#utility.yul\":1632:1655   */\n      sub\n        /* \"#utility.yul\":1628:1660   */\n      slt\n        /* \"#utility.yul\":1625:1744   */\n      iszero\n      tag_147\n      jumpi\n        /* \"#utility.yul\":1663:1742   */\n      tag_148\n      tag_93\n      jump\t// in\n    tag_148:\n        /* \"#utility.yul\":1625:1744   */\n    tag_147:\n        /* \"#utility.yul\":1783:1784   */\n      0x00\n        /* \"#utility.yul\":1808:1861   */\n      tag_149\n        /* \"#utility.yul\":1853:1860   */\n      dup6\n        /* \"#utility.yul\":1844:1850   */\n      dup3\n        /* \"#utility.yul\":1833:1842   */\n      dup7\n        /* \"#utility.yul\":1829:1851   */\n      add\n        /* \"#utility.yul\":1808:1861   */\n      tag_101\n      jump\t// in\n    tag_149:\n        /* \"#utility.yul\":1798:1861   */\n      swap3\n      pop\n        /* \"#utility.yul\":1754:1871   */\n      pop\n        /* \"#utility.yul\":1910:1912   */\n      0x20\n        /* \"#utility.yul\":1936:1989   */\n      tag_150\n        /* \"#utility.yul\":1981:1988   */\n      dup6\n        /* \"#utility.yul\":1972:1978   */\n      dup3\n        /* \"#utility.yul\":1961:1970   */\n      dup7\n        /* \"#utility.yul\":1957:1979   */\n      add\n        /* \"#utility.yul\":1936:1989   */\n      tag_97\n      jump\t// in\n    tag_150:\n        /* \"#utility.yul\":1926:1989   */\n      swap2\n      pop\n        /* \"#utility.yul\":1881:1999   */\n      pop\n        /* \"#utility.yul\":1532:2006   */\n      swap3\n      pop\n      swap3\n      swap1\n      pop\n      jump\t// out\n        /* \"#utility.yul\":2012:2130   */\n    tag_102:\n        /* \"#utility.yul\":2099:2123   */\n      tag_152\n        /* \"#utility.yul\":2117:2122   */\n      dup2\n        /* \"#utility.yul\":2099:2123   */\n      tag_95\n      jump\t// in\n    tag_152:\n        /* \"#utility.yul\":2094:2097   */\n      dup3\n        /* \"#utility.yul\":2087:2124   */\n      mstore\n        /* \"#utility.yul\":2012:2130   */\n      pop\n      pop\n      jump\t// out\n        /* \"#utility.yul\":2136:2240   */\n    tag_103:\n        /* \"#utility.yul\":2181:2188   */\n      0x00\n        /* \"#utility.yul\":2210:2234   */\n      tag_154\n        /* \"#utility.yul\":2228:2233   */\n      dup3\n        /* \"#utility.yul\":2210:2234   */\n      tag_98\n      jump\t// in\n    tag_154:\n        /* \"#utility.yul\":2199:2234   */\n      swap1\n      pop\n        /* \"#utility.yul\":2136:2240   */\n      swap2\n      swap1\n      pop\n      jump\t// out\n        /* \"#utility.yul\":2246:2388   */\n    tag_104:\n        /* \"#utility.yul\":2349:2381   */\n      tag_156\n        /* \"#utility.yul\":2375:2380   */\n      dup2\n        /* \"#utility.yul\":2349:2381   */\n      tag_103\n      jump\t// in\n    tag_156:\n        /* \"#utility.yul\":2344:2347   */\n      dup3\n        /* \"#utility.yul\":2337:2382   */\n      mstore\n        /* \"#utility.yul\":2246:2388   */\n      pop\n      pop\n      jump\t// out\n        /* \"#utility.yul\":2394:2868   */\n    tag_17:\n        /* \"#utility.yul\":2559:2563   */\n      0x00\n        /* \"#utility.yul\":2597:2599   */\n      0x60\n        /* \"#utility.yul\":2586:2595   */\n      dup3\n        /* \"#utility.yul\":2582:2600   */\n      add\n        /* \"#utility.yul\":2574:2600   */\n      swap1\n      pop\n        /* \"#utility.yul\":2610:2681   */\n      tag_158\n        /* \"#utility.yul\":2678:2679   */\n      0x00\n        /* \"#utility.yul\":2667:2676   */\n      dup4\n        /* \"#utility.yul\":2663:2680   */\n      add\n        /* \"#utility.yul\":2654:2660   */\n      dup7\n        /* \"#utility.yul\":2610:2681   */\n      tag_102\n      jump\t// in\n    tag_158:\n        /* \"#utility.yul\":2691:2763   */\n      tag_159\n        /* \"#utility.yul\":2759:2761   */\n      0x20\n        /* \"#utility.yul\":2748:2757   */\n      dup4\n        /* \"#utility.yul\":2744:2762   */\n      add\n        /* \"#utility.yul\":2735:2741   */\n      dup6\n        /* \"#utility.yul\":2691:2763   */\n      tag_102\n      jump\t// in\n    tag_159:\n        /* \"#utility.yul\":2773:2861   */\n      tag_160\n        /* \"#utility.yul\":2857:2859   */\n      0x40\n        /* \"#utility.yul\":2846:2855   */\n      dup4\n        /* \"#utility.yul\":2842:2860   */\n      add\n        /* \"#utility.yul\":2833:2839   */\n      dup5\n        /* \"#utility.yul\":2773:2861   */\n      tag_104\n      jump\t// in\n    tag_160:\n        /* \"#utility.yul\":2394:2868   */\n      swap5\n      swap4\n      pop\n      pop\n      pop\n      pop\n      jump\t// out\n        /* \"#utility.yul\":2874:3096   */\n    tag_22:\n        /* \"#utility.yul\":2967:2971   */\n      0x00\n        /* \"#utility.yul\":3005:3007   */\n      0x20\n        /* \"#utility.yul\":2994:3003   */\n      dup3\n        /* \"#utility.yul\":2990:3008   */\n      add\n        /* \"#utility.yul\":2982:3008   */\n      swap1\n      pop\n        /* \"#utility.yul\":3018:3089   */\n      tag_162\n        /* \"#utility.yul\":3086:3087   */\n      0x00\n        /* \"#utility.yul\":3075:3084   */\n      dup4\n        /* \"#utility.yul\":3071:3088   */\n      add\n        /* \"#utility.yul\":3062:3068   */\n      dup5\n        /* \"#utility.yul\":3018:3089   */\n      tag_102\n      jump\t// in\n    tag_162:\n        /* \"#utility.yul\":2874:3096   */\n      swap3\n      swap2\n      pop\n      pop\n      jump\t// out\n        /* \"#utility.yul\":3102:3271   */\n    tag_105:\n        /* \"#utility.yul\":3186:3197   */\n      0x00\n        /* \"#utility.yul\":3220:3226   */\n      dup3\n        /* \"#utility.yul\":3215:3218   */\n      dup3\n        /* \"#utility.yul\":3208:3227   */\n      mstore\n        /* \"#utility.yul\":3260:3264   */\n      0x20\n        /* \"#utility.yul\":3255:3258   */\n      dup3\n        /* \"#utility.yul\":3251:3265   */\n      add\n        /* \"#utility.yul\":3236:3265   */\n      swap1\n      pop\n        /* \"#utility.yul\":3102:3271   */\n      swap3\n      swap2\n      pop\n      pop\n      jump\t// out\n        /* \"#utility.yul\":3277:3455   */\n    tag_106:\n        /* \"#utility.yul\":3417:3447   */\n      0x4d696e696d756d206c6f636b20616d6f756e7420697320312055534400000000\n        /* \"#utility.yul\":3413:3414   */\n      0x00\n        /* \"#utility.yul\":3405:3411   */\n      dup3\n        /* \"#utility.yul\":3401:3415   */\n      add\n        /* \"#utility.yul\":3394:3448   */\n      mstore\n        /* \"#utility.yul\":3277:3455   */\n      pop\n      jump\t// out\n        /* \"#utility.yul\":3461:3827   */\n    tag_107:\n        /* \"#utility.yul\":3603:3606   */\n      0x00\n        /* \"#utility.yul\":3624:3691   */\n      tag_166\n        /* \"#utility.yul\":3688:3690   */\n      0x1c\n        /* \"#utility.yul\":3683:3686   */\n      dup4\n        /* \"#utility.yul\":3624:3691   */\n      tag_105\n      jump\t// in\n    tag_166:\n        /* \"#utility.yul\":3617:3691   */\n      swap2\n      pop\n        /* \"#utility.yul\":3700:3793   */\n      tag_167\n        /* \"#utility.yul\":3789:3792   */\n      dup3\n        /* \"#utility.yul\":3700:3793   */\n      tag_106\n      jump\t// in\n    tag_167:\n        /* \"#utility.yul\":3818:3820   */\n      0x20\n        /* \"#utility.yul\":3813:3816   */\n      dup3\n        /* \"#utility.yul\":3809:3821   */\n      add\n        /* \"#utility.yul\":3802:3821   */\n      swap1\n      pop\n        /* \"#utility.yul\":3461:3827   */\n      swap2\n      swap1\n      pop\n      jump\t// out\n        /* \"#utility.yul\":3833:4252   */\n    tag_35:\n        /* \"#utility.yul\":3999:4003   */\n      0x00\n        /* \"#utility.yul\":4037:4039   */\n      0x20\n        /* \"#utility.yul\":4026:4035   */\n      dup3\n        /* \"#utility.yul\":4022:4040   */\n      add\n        /* \"#utility.yul\":4014:4040   */\n      swap1\n      pop\n        /* \"#utility.yul\":4086:4095   */\n      dup2\n        /* \"#utility.yul\":4080:4084   */\n      dup2\n        /* \"#utility.yul\":4076:4096   */\n      sub\n        /* \"#utility.yul\":4072:4073   */\n      0x00\n        /* \"#utility.yul\":4061:4070   */\n      dup4\n        /* \"#utility.yul\":4057:4074   */\n      add\n        /* \"#utility.yul\":4050:4097   */\n      mstore\n        /* \"#utility.yul\":4114:4245   */\n      tag_169\n        /* \"#utility.yul\":4240:4244   */\n      dup2\n        /* \"#utility.yul\":4114:4245   */\n      tag_107\n      jump\t// in\n    tag_169:\n        /* \"#utility.yul\":4106:4245   */\n      swap1\n      pop\n        /* \"#utility.yul\":3833:4252   */\n      swap2\n      swap1\n      pop\n      jump\t// out\n        /* \"#utility.yul\":4258:4437   */\n    tag_108:\n        /* \"#utility.yul\":4398:4429   */\n      0x796f7520646f6e74206861766520616e79746f6b656e206c6f6f6b6564000000\n        /* \"#utility.yul\":4394:4395   */\n      0x00\n        /* \"#utility.yul\":4386:4392   */\n      dup3\n        /* \"#utility.yul\":4382:4396   */\n      add\n        /* \"#utility.yul\":4375:4430   */\n      mstore\n        /* \"#utility.yul\":4258:4437   */\n      pop\n      jump\t// out\n        /* \"#utility.yul\":4443:4809   */\n    tag_109:\n        /* \"#utility.yul\":4585:4588   */\n      0x00\n        /* \"#utility.yul\":4606:4673   */\n      tag_172\n        /* \"#utility.yul\":4670:4672   */\n      0x1d\n        /* \"#utility.yul\":4665:4668   */\n      dup4\n        /* \"#utility.yul\":4606:4673   */\n      tag_105\n      jump\t// in\n    tag_172:\n        /* \"#utility.yul\":4599:4673   */\n      swap2\n      pop\n        /* \"#utility.yul\":4682:4775   */\n      tag_173\n        /* \"#utility.yul\":4771:4774   */\n      dup3\n        /* \"#utility.yul\":4682:4775   */\n      tag_108\n      jump\t// in\n    tag_173:\n        /* \"#utility.yul\":4800:4802   */\n      0x20\n        /* \"#utility.yul\":4795:4798   */\n      dup3\n        /* \"#utility.yul\":4791:4803   */\n      add\n        /* \"#utility.yul\":4784:4803   */\n      swap1\n      pop\n        /* \"#utility.yul\":4443:4809   */\n      swap2\n      swap1\n      pop\n      jump\t// out\n        /* \"#utility.yul\":4815:5234   */\n    tag_43:\n        /* \"#utility.yul\":4981:4985   */\n      0x00\n        /* \"#utility.yul\":5019:5021   */\n      0x20\n        /* \"#utility.yul\":5008:5017   */\n      dup3\n        /* \"#utility.yul\":5004:5022   */\n      add\n        /* \"#utility.yul\":4996:5022   */\n      swap1\n      pop\n        /* \"#utility.yul\":5068:5077   */\n      dup2\n        /* \"#utility.yul\":5062:5066   */\n      dup2\n        /* \"#utility.yul\":5058:5078   */\n      sub\n        /* \"#utility.yul\":5054:5055   */\n      0x00\n        /* \"#utility.yul\":5043:5052   */\n      dup4\n        /* \"#utility.yul\":5039:5056   */\n      add\n        /* \"#utility.yul\":5032:5079   */\n      mstore\n        /* \"#utility.yul\":5096:5227   */\n      tag_175\n        /* \"#utility.yul\":5222:5226   */\n      dup2\n        /* \"#utility.yul\":5096:5227   */\n      tag_109\n      jump\t// in\n    tag_175:\n        /* \"#utility.yul\":5088:5227   */\n      swap1\n      pop\n        /* \"#utility.yul\":4815:5234   */\n      swap2\n      swap1\n      pop\n      jump\t// out\n        /* \"#utility.yul\":5240:5420   */\n    tag_110:\n        /* \"#utility.yul\":5288:5365   */\n      0x4e487b7100000000000000000000000000000000000000000000000000000000\n        /* \"#utility.yul\":5285:5286   */\n      0x00\n        /* \"#utility.yul\":5278:5366   */\n      mstore\n        /* \"#utility.yul\":5385:5389   */\n      0x11\n        /* \"#utility.yul\":5382:5383   */\n      0x04\n        /* \"#utility.yul\":5375:5390   */\n      mstore\n        /* \"#utility.yul\":5409:5413   */\n      0x24\n        /* \"#utility.yul\":5406:5407   */\n      0x00\n        /* \"#utility.yul\":5399:5414   */\n      revert\n        /* \"#utility.yul\":5426:5620   */\n    tag_48:\n        /* \"#utility.yul\":5466:5470   */\n      0x00\n        /* \"#utility.yul\":5486:5506   */\n      tag_178\n        /* \"#utility.yul\":5504:5505   */\n      dup3\n        /* \"#utility.yul\":5486:5506   */\n      tag_95\n      jump\t// in\n    tag_178:\n        /* \"#utility.yul\":5481:5506   */\n      swap2\n      pop\n        /* \"#utility.yul\":5520:5540   */\n      tag_179\n        /* \"#utility.yul\":5538:5539   */\n      dup4\n        /* \"#utility.yul\":5520:5540   */\n      tag_95\n      jump\t// in\n    tag_179:\n        /* \"#utility.yul\":5515:5540   */\n      swap3\n      pop\n        /* \"#utility.yul\":5564:5565   */\n      dup3\n        /* \"#utility.yul\":5561:5562   */\n      dup3\n        /* \"#utility.yul\":5557:5566   */\n      sub\n        /* \"#utility.yul\":5549:5566   */\n      swap1\n      pop\n        /* \"#utility.yul\":5588:5589   */\n      dup2\n        /* \"#utility.yul\":5582:5586   */\n      dup2\n        /* \"#utility.yul\":5579:5590   */\n      gt\n        /* \"#utility.yul\":5576:5613   */\n      iszero\n      tag_180\n      jumpi\n        /* \"#utility.yul\":5593:5611   */\n      tag_181\n      tag_110\n      jump\t// in\n    tag_181:\n        /* \"#utility.yul\":5576:5613   */\n    tag_180:\n        /* \"#utility.yul\":5426:5620   */\n      swap3\n      swap2\n      pop\n      pop\n      jump\t// out\n        /* \"#utility.yul\":5626:5806   */\n    tag_51:\n        /* \"#utility.yul\":5674:5751   */\n      0x4e487b7100000000000000000000000000000000000000000000000000000000\n        /* \"#utility.yul\":5671:5672   */\n      0x00\n        /* \"#utility.yul\":5664:5752   */\n      mstore\n        /* \"#utility.yul\":5771:5775   */\n      0x32\n        /* \"#utility.yul\":5768:5769   */\n      0x04\n        /* \"#utility.yul\":5761:5776   */\n      mstore\n        /* \"#utility.yul\":5795:5799   */\n      0x24\n        /* \"#utility.yul\":5792:5793   */\n      0x00\n        /* \"#utility.yul\":5785:5800   */\n      revert\n        /* \"#utility.yul\":5812:5959   */\n    tag_111:\n        /* \"#utility.yul\":5913:5924   */\n      0x00\n        /* \"#utility.yul\":5950:5953   */\n      dup2\n        /* \"#utility.yul\":5935:5953   */\n      swap1\n      pop\n        /* \"#utility.yul\":5812:5959   */\n      swap3\n      swap2\n      pop\n      pop\n      jump\t// out\n        /* \"#utility.yul\":5965:6079   */\n    tag_112:\n      pop\n      jump\t// out\n        /* \"#utility.yul\":6085:6483   */\n    tag_113:\n        /* \"#utility.yul\":6244:6247   */\n      0x00\n        /* \"#utility.yul\":6265:6348   */\n      tag_186\n        /* \"#utility.yul\":6346:6347   */\n      0x00\n        /* \"#utility.yul\":6341:6344   */\n      dup4\n        /* \"#utility.yul\":6265:6348   */\n      tag_111\n      jump\t// in\n    tag_186:\n        /* \"#utility.yul\":6258:6348   */\n      swap2\n      pop\n        /* \"#utility.yul\":6357:6450   */\n      tag_187\n        /* \"#utility.yul\":6446:6449   */\n      dup3\n        /* \"#utility.yul\":6357:6450   */\n      tag_112\n      jump\t// in\n    tag_187:\n        /* \"#utility.yul\":6475:6476   */\n      0x00\n        /* \"#utility.yul\":6470:6473   */\n      dup3\n        /* \"#utility.yul\":6466:6477   */\n      add\n        /* \"#utility.yul\":6459:6477   */\n      swap1\n      pop\n        /* \"#utility.yul\":6085:6483   */\n      swap2\n      swap1\n      pop\n      jump\t// out\n        /* \"#utility.yul\":6489:6868   */\n    tag_58:\n        /* \"#utility.yul\":6673:6676   */\n      0x00\n        /* \"#utility.yul\":6695:6842   */\n      tag_189\n        /* \"#utility.yul\":6838:6841   */\n      dup3\n        /* \"#utility.yul\":6695:6842   */\n      tag_113\n      jump\t// in\n    tag_189:\n        /* \"#utility.yul\":6688:6842   */\n      swap2\n      pop\n        /* \"#utility.yul\":6859:6862   */\n      dup2\n        /* \"#utility.yul\":6852:6862   */\n      swap1\n      pop\n        /* \"#utility.yul\":6489:6868   */\n      swap2\n      swap1\n      pop\n      jump\t// out\n        /* \"#utility.yul\":6874:7042   */\n    tag_114:\n        /* \"#utility.yul\":7014:7034   */\n      0x7472616e73616374696f6e206661696c65640000000000000000000000000000\n        /* \"#utility.yul\":7010:7011   */\n      0x00\n        /* \"#utility.yul\":7002:7008   */\n      dup3\n        /* \"#utility.yul\":6998:7012   */\n      add\n        /* \"#utility.yul\":6991:7035   */\n      mstore\n        /* \"#utility.yul\":6874:7042   */\n      pop\n      jump\t// out\n        /* \"#utility.yul\":7048:7414   */\n    tag_115:\n        /* \"#utility.yul\":7190:7193   */\n      0x00\n        /* \"#utility.yul\":7211:7278   */\n      tag_192\n        /* \"#utility.yul\":7275:7277   */\n      0x12\n        /* \"#utility.yul\":7270:7273   */\n      dup4\n        /* \"#utility.yul\":7211:7278   */\n      tag_105\n      jump\t// in\n    tag_192:\n        /* \"#utility.yul\":7204:7278   */\n      swap2\n      pop\n        /* \"#utility.yul\":7287:7380   */\n      tag_193\n        /* \"#utility.yul\":7376:7379   */\n      dup3\n        /* \"#utility.yul\":7287:7380   */\n      tag_114\n      jump\t// in\n    tag_193:\n        /* \"#utility.yul\":7405:7407   */\n      0x20\n        /* \"#utility.yul\":7400:7403   */\n      dup3\n        /* \"#utility.yul\":7396:7408   */\n      add\n        /* \"#utility.yul\":7389:7408   */\n      swap1\n      pop\n        /* \"#utility.yul\":7048:7414   */\n      swap2\n      swap1\n      pop\n      jump\t// out\n        /* \"#utility.yul\":7420:7839   */\n    tag_64:\n        /* \"#utility.yul\":7586:7590   */\n      0x00\n        /* \"#utility.yul\":7624:7626   */\n      0x20\n        /* \"#utility.yul\":7613:7622   */\n      dup3\n        /* \"#utility.yul\":7609:7627   */\n      add\n        /* \"#utility.yul\":7601:7627   */\n      swap1\n      pop\n        /* \"#utility.yul\":7673:7682   */\n      dup2\n        /* \"#utility.yul\":7667:7671   */\n      dup2\n        /* \"#utility.yul\":7663:7683   */\n      sub\n        /* \"#utility.yul\":7659:7660   */\n      0x00\n        /* \"#utility.yul\":7648:7657   */\n      dup4\n        /* \"#utility.yul\":7644:7661   */\n      add\n        /* \"#utility.yul\":7637:7684   */\n      mstore\n        /* \"#utility.yul\":7701:7832   */\n      tag_195\n        /* \"#utility.yul\":7827:7831   */\n      dup2\n        /* \"#utility.yul\":7701:7832   */\n      tag_115\n      jump\t// in\n    tag_195:\n        /* \"#utility.yul\":7693:7832   */\n      swap1\n      pop\n        /* \"#utility.yul\":7420:7839   */\n      swap2\n      swap1\n      pop\n      jump\t// out\n        /* \"#utility.yul\":7845:8025   */\n    tag_75:\n        /* \"#utility.yul\":7893:7970   */\n      0x4e487b7100000000000000000000000000000000000000000000000000000000\n        /* \"#utility.yul\":7890:7891   */\n      0x00\n        /* \"#utility.yul\":7883:7971   */\n      mstore\n        /* \"#utility.yul\":7990:7994   */\n      0x31\n        /* \"#utility.yul\":7987:7988   */\n      0x04\n        /* \"#utility.yul\":7980:7995   */\n      mstore\n        /* \"#utility.yul\":8014:8018   */\n      0x24\n        /* \"#utility.yul\":8011:8012   */\n      0x00\n        /* \"#utility.yul\":8004:8019   */\n      revert\n        /* \"#utility.yul\":8031:8202   */\n    tag_78:\n        /* \"#utility.yul\":8070:8073   */\n      0x00\n        /* \"#utility.yul\":8093:8117   */\n      tag_198\n        /* \"#utility.yul\":8111:8116   */\n      dup3\n        /* \"#utility.yul\":8093:8117   */\n      tag_95\n      jump\t// in\n    tag_198:\n        /* \"#utility.yul\":8084:8117   */\n      swap2\n      pop\n        /* \"#utility.yul\":8139:8143   */\n      0x00\n        /* \"#utility.yul\":8132:8137   */\n      dup3\n        /* \"#utility.yul\":8129:8144   */\n      sub\n        /* \"#utility.yul\":8126:8167   */\n      tag_199\n      jumpi\n        /* \"#utility.yul\":8147:8165   */\n      tag_200\n      tag_110\n      jump\t// in\n    tag_200:\n        /* \"#utility.yul\":8126:8167   */\n    tag_199:\n        /* \"#utility.yul\":8194:8195   */\n      0x01\n        /* \"#utility.yul\":8187:8192   */\n      dup3\n        /* \"#utility.yul\":8183:8196   */\n      sub\n        /* \"#utility.yul\":8176:8196   */\n      swap1\n      pop\n        /* \"#utility.yul\":8031:8202   */\n      swap2\n      swap1\n      pop\n      jump\t// out\n        /* \"#utility.yul\":8208:8618   */\n    tag_83:\n        /* \"#utility.yul\":8248:8255   */\n      0x00\n        /* \"#utility.yul\":8271:8291   */\n      tag_202\n        /* \"#utility.yul\":8289:8290   */\n      dup3\n        /* \"#utility.yul\":8271:8291   */\n      tag_95\n      jump\t// in\n    tag_202:\n        /* \"#utility.yul\":8266:8291   */\n      swap2\n      pop\n        /* \"#utility.yul\":8305:8325   */\n      tag_203\n        /* \"#utility.yul\":8323:8324   */\n      dup4\n        /* \"#utility.yul\":8305:8325   */\n      tag_95\n      jump\t// in\n    tag_203:\n        /* \"#utility.yul\":8300:8325   */\n      swap3\n      pop\n        /* \"#utility.yul\":8360:8361   */\n      dup3\n        /* \"#utility.yul\":8357:8358   */\n      dup3\n        /* \"#utility.yul\":8353:8362   */\n      mul\n        /* \"#utility.yul\":8382:8412   */\n      tag_204\n        /* \"#utility.yul\":8400:8411   */\n      dup2\n        /* \"#utility.yul\":8382:8412   */\n      tag_95\n      jump\t// in\n    tag_204:\n        /* \"#utility.yul\":8371:8412   */\n      swap2\n      pop\n        /* \"#utility.yul\":8561:8562   */\n      dup3\n        /* \"#utility.yul\":8552:8559   */\n      dup3\n        /* \"#utility.yul\":8548:8563   */\n      div\n        /* \"#utility.yul\":8545:8546   */\n      dup5\n        /* \"#utility.yul\":8542:8564   */\n      eq\n        /* \"#utility.yul\":8522:8523   */\n      dup4\n        /* \"#utility.yul\":8515:8524   */\n      iszero\n        /* \"#utility.yul\":8495:8578   */\n      or\n        /* \"#utility.yul\":8472:8611   */\n      tag_205\n      jumpi\n        /* \"#utility.yul\":8591:8609   */\n      tag_206\n      tag_110\n      jump\t// in\n    tag_206:\n        /* \"#utility.yul\":8472:8611   */\n    tag_205:\n        /* \"#utility.yul\":8256:8618   */\n      pop\n        /* \"#utility.yul\":8208:8618   */\n      swap3\n      swap2\n      pop\n      pop\n      jump\t// out\n        /* \"#utility.yul\":8624:8804   */\n    tag_116:\n        /* \"#utility.yul\":8672:8749   */\n      0x4e487b7100000000000000000000000000000000000000000000000000000000\n        /* \"#utility.yul\":8669:8670   */\n      0x00\n        /* \"#utility.yul\":8662:8750   */\n      mstore\n        /* \"#utility.yul\":8769:8773   */\n      0x12\n        /* \"#utility.yul\":8766:8767   */\n      0x04\n        /* \"#utility.yul\":8759:8774   */\n      mstore\n        /* \"#utility.yul\":8793:8797   */\n      0x24\n        /* \"#utility.yul\":8790:8791   */\n      0x00\n        /* \"#utility.yul\":8783:8798   */\n      revert\n        /* \"#utility.yul\":8810:8995   */\n    tag_85:\n        /* \"#utility.yul\":8850:8851   */\n      0x00\n        /* \"#utility.yul\":8867:8887   */\n      tag_209\n        /* \"#utility.yul\":8885:8886   */\n      dup3\n        /* \"#utility.yul\":8867:8887   */\n      tag_95\n      jump\t// in\n    tag_209:\n        /* \"#utility.yul\":8862:8887   */\n      swap2\n      pop\n        /* \"#utility.yul\":8901:8921   */\n      tag_210\n        /* \"#utility.yul\":8919:8920   */\n      dup4\n        /* \"#utility.yul\":8901:8921   */\n      tag_95\n      jump\t// in\n    tag_210:\n        /* \"#utility.yul\":8896:8921   */\n      swap3\n      pop\n        /* \"#utility.yul\":8940:8941   */\n      dup3\n        /* \"#utility.yul\":8930:8965   */\n      tag_211\n      jumpi\n        /* \"#utility.yul\":8945:8963   */\n      tag_212\n      tag_116\n      jump\t// in\n    tag_212:\n        /* \"#utility.yul\":8930:8965   */\n    tag_211:\n        /* \"#utility.yul\":8987:8988   */\n      dup3\n        /* \"#utility.yul\":8984:8985   */\n      dup3\n        /* \"#utility.yul\":8980:8989   */\n      div\n        /* \"#utility.yul\":8975:8989   */\n      swap1\n      pop\n        /* \"#utility.yul\":8810:8995   */\n      swap3\n      swap2\n      pop\n      pop\n      jump\t// out\n        /* \"#utility.yul\":9001:9106   */\n    tag_117:\n        /* \"#utility.yul\":9037:9044   */\n      0x00\n        /* \"#utility.yul\":9077:9099   */\n      0xffffffffffffffffffff\n        /* \"#utility.yul\":9070:9075   */\n      dup3\n        /* \"#utility.yul\":9066:9100   */\n      and\n        /* \"#utility.yul\":9055:9100   */\n      swap1\n      pop\n        /* \"#utility.yul\":9001:9106   */\n      swap2\n      swap1\n      pop\n      jump\t// out\n        /* \"#utility.yul\":9112:9232   */\n    tag_118:\n        /* \"#utility.yul\":9184:9207   */\n      tag_215\n        /* \"#utility.yul\":9201:9206   */\n      dup2\n        /* \"#utility.yul\":9184:9207   */\n      tag_117\n      jump\t// in\n    tag_215:\n        /* \"#utility.yul\":9177:9182   */\n      dup2\n        /* \"#utility.yul\":9174:9208   */\n      eq\n        /* \"#utility.yul\":9164:9226   */\n      tag_216\n      jumpi\n        /* \"#utility.yul\":9222:9223   */\n      0x00\n        /* \"#utility.yul\":9219:9220   */\n      0x00\n        /* \"#utility.yul\":9212:9224   */\n      revert\n        /* \"#utility.yul\":9164:9226   */\n    tag_216:\n        /* \"#utility.yul\":9112:9232   */\n      pop\n      jump\t// out\n        /* \"#utility.yul\":9238:9379   */\n    tag_119:\n        /* \"#utility.yul\":9294:9299   */\n      0x00\n        /* \"#utility.yul\":9325:9331   */\n      dup2\n        /* \"#utility.yul\":9319:9332   */\n      mload\n        /* \"#utility.yul\":9310:9332   */\n      swap1\n      pop\n        /* \"#utility.yul\":9341:9373   */\n      tag_218\n        /* \"#utility.yul\":9367:9372   */\n      dup2\n        /* \"#utility.yul\":9341:9373   */\n      tag_118\n      jump\t// in\n    tag_218:\n        /* \"#utility.yul\":9238:9379   */\n      swap3\n      swap2\n      pop\n      pop\n      jump\t// out\n        /* \"#utility.yul\":9385:9461   */\n    tag_120:\n        /* \"#utility.yul\":9421:9428   */\n      0x00\n        /* \"#utility.yul\":9450:9455   */\n      dup2\n        /* \"#utility.yul\":9439:9455   */\n      swap1\n      pop\n        /* \"#utility.yul\":9385:9461   */\n      swap2\n      swap1\n      pop\n      jump\t// out\n        /* \"#utility.yul\":9467:9587   */\n    tag_121:\n        /* \"#utility.yul\":9539:9562   */\n      tag_221\n        /* \"#utility.yul\":9556:9561   */\n      dup2\n        /* \"#utility.yul\":9539:9562   */\n      tag_120\n      jump\t// in\n    tag_221:\n        /* \"#utility.yul\":9532:9537   */\n      dup2\n        /* \"#utility.yul\":9529:9563   */\n      eq\n        /* \"#utility.yul\":9519:9581   */\n      tag_222\n      jumpi\n        /* \"#utility.yul\":9577:9578   */\n      0x00\n        /* \"#utility.yul\":9574:9575   */\n      0x00\n        /* \"#utility.yul\":9567:9579   */\n      revert\n        /* \"#utility.yul\":9519:9581   */\n    tag_222:\n        /* \"#utility.yul\":9467:9587   */\n      pop\n      jump\t// out\n        /* \"#utility.yul\":9593:9734   */\n    tag_122:\n        /* \"#utility.yul\":9649:9654   */\n      0x00\n        /* \"#utility.yul\":9680:9686   */\n      dup2\n        /* \"#utility.yul\":9674:9687   */\n      mload\n        /* \"#utility.yul\":9665:9687   */\n      swap1\n      pop\n        /* \"#utility.yul\":9696:9728   */\n      tag_224\n        /* \"#utility.yul\":9722:9727   */\n      dup2\n        /* \"#utility.yul\":9696:9728   */\n      tag_121\n      jump\t// in\n    tag_224:\n        /* \"#utility.yul\":9593:9734   */\n      swap3\n      swap2\n      pop\n      pop\n      jump\t// out\n        /* \"#utility.yul\":9740:9883   */\n    tag_123:\n        /* \"#utility.yul\":9797:9802   */\n      0x00\n        /* \"#utility.yul\":9828:9834   */\n      dup2\n        /* \"#utility.yul\":9822:9835   */\n      mload\n        /* \"#utility.yul\":9813:9835   */\n      swap1\n      pop\n        /* \"#utility.yul\":9844:9877   */\n      tag_226\n        /* \"#utility.yul\":9871:9876   */\n      dup2\n        /* \"#utility.yul\":9844:9877   */\n      tag_96\n      jump\t// in\n    tag_226:\n        /* \"#utility.yul\":9740:9883   */\n      swap3\n      swap2\n      pop\n      pop\n      jump\t// out\n        /* \"#utility.yul\":9889:10860   */\n    tag_90:\n        /* \"#utility.yul\":9992:9998   */\n      0x00\n        /* \"#utility.yul\":10000:10006   */\n      0x00\n        /* \"#utility.yul\":10008:10014   */\n      0x00\n        /* \"#utility.yul\":10016:10022   */\n      0x00\n        /* \"#utility.yul\":10024:10030   */\n      0x00\n        /* \"#utility.yul\":10073:10076   */\n      0xa0\n        /* \"#utility.yul\":10061:10070   */\n      dup7\n        /* \"#utility.yul\":10052:10059   */\n      dup9\n        /* \"#utility.yul\":10048:10071   */\n      sub\n        /* \"#utility.yul\":10044:10077   */\n      slt\n        /* \"#utility.yul\":10041:10161   */\n      iszero\n      tag_228\n      jumpi\n        /* \"#utility.yul\":10080:10159   */\n      tag_229\n      tag_93\n      jump\t// in\n    tag_229:\n        /* \"#utility.yul\":10041:10161   */\n    tag_228:\n        /* \"#utility.yul\":10200:10201   */\n      0x00\n        /* \"#utility.yul\":10225:10288   */\n      tag_230\n        /* \"#utility.yul\":10280:10287   */\n      dup9\n        /* \"#utility.yul\":10271:10277   */\n      dup3\n        /* \"#utility.yul\":10260:10269   */\n      dup10\n        /* \"#utility.yul\":10256:10278   */\n      add\n        /* \"#utility.yul\":10225:10288   */\n      tag_119\n      jump\t// in\n    tag_230:\n        /* \"#utility.yul\":10215:10288   */\n      swap6\n      pop\n        /* \"#utility.yul\":10171:10298   */\n      pop\n        /* \"#utility.yul\":10337:10339   */\n      0x20\n        /* \"#utility.yul\":10363:10426   */\n      tag_231\n        /* \"#utility.yul\":10418:10425   */\n      dup9\n        /* \"#utility.yul\":10409:10415   */\n      dup3\n        /* \"#utility.yul\":10398:10407   */\n      dup10\n        /* \"#utility.yul\":10394:10416   */\n      add\n        /* \"#utility.yul\":10363:10426   */\n      tag_122\n      jump\t// in\n    tag_231:\n        /* \"#utility.yul\":10353:10426   */\n      swap5\n      pop\n        /* \"#utility.yul\":10308:10436   */\n      pop\n        /* \"#utility.yul\":10475:10477   */\n      0x40\n        /* \"#utility.yul\":10501:10565   */\n      tag_232\n        /* \"#utility.yul\":10557:10564   */\n      dup9\n        /* \"#utility.yul\":10548:10554   */\n      dup3\n        /* \"#utility.yul\":10537:10546   */\n      dup10\n        /* \"#utility.yul\":10533:10555   */\n      add\n        /* \"#utility.yul\":10501:10565   */\n      tag_123\n      jump\t// in\n    tag_232:\n        /* \"#utility.yul\":10491:10565   */\n      swap4\n      pop\n        /* \"#utility.yul\":10446:10575   */\n      pop\n        /* \"#utility.yul\":10614:10616   */\n      0x60\n        /* \"#utility.yul\":10640:10704   */\n      tag_233\n        /* \"#utility.yul\":10696:10703   */\n      dup9\n        /* \"#utility.yul\":10687:10693   */\n      dup3\n        /* \"#utility.yul\":10676:10685   */\n      dup10\n        /* \"#utility.yul\":10672:10694   */\n      add\n        /* \"#utility.yul\":10640:10704   */\n      tag_123\n      jump\t// in\n    tag_233:\n        /* \"#utility.yul\":10630:10704   */\n      swap3\n      pop\n        /* \"#utility.yul\":10585:10714   */\n      pop\n        /* \"#utility.yul\":10753:10756   */\n      0x80\n        /* \"#utility.yul\":10780:10843   */\n      tag_234\n        /* \"#utility.yul\":10835:10842   */\n      dup9\n        /* \"#utility.yul\":10826:10832   */\n      dup3\n        /* \"#utility.yul\":10815:10824   */\n      dup10\n        /* \"#utility.yul\":10811:10833   */\n      add\n        /* \"#utility.yul\":10780:10843   */\n      tag_119\n      jump\t// in\n    tag_234:\n        /* \"#utility.yul\":10770:10843   */\n      swap2\n      pop\n        /* \"#utility.yul\":10724:10853   */\n      pop\n        /* \"#utility.yul\":9889:10860   */\n      swap3\n      swap6\n      pop\n      swap3\n      swap6\n      swap1\n      swap4\n      pop\n      jump\t// out\n\n    auxdata: 0xa2646970667358221220c0c07a5f4426f7ac4cdb5745fa9eef5870a9b94a8e8bb5c54ac2bc57085273e664736f6c634300081e0033\n}\n",
				"bytecode": {
					"linkReferences": {},
					"object": "6080604052348015600e575f5ffd5b50610ceb8061001c5f395ff3fe608060405260043610610049575f3560e01c8063230447491461004d5780633fa16d9914610069578063480bb7c4146100a75780637cd4f979146100d1578063db657388146100fb575b5f5ffd5b61006760048036038101906100629190610770565b610111565b005b348015610074575f5ffd5b5061008f600480360381019061008a91906107f5565b61025f565b60405161009e93929190610862565b60405180910390f35b3480156100b2575f5ffd5b506100bb6102bd565b6040516100c89190610897565b60405180910390f35b3480156100dc575f5ffd5b506100e56102c2565b6040516100f29190610897565b60405180910390f35b348015610106575f5ffd5b5061010f6102ce565b005b670de0b6b3a764000061012334610661565b11610163576040517f08c379a000000000000000000000000000000000000000000000000000000000815260040161015a9061090a565b60405180910390fd5b5f810361016f57603c90505b5f5f3373ffffffffffffffffffffffffffffffffffffffff1673ffffffffffffffffffffffffffffffffffffffff1681526020019081526020015f2060405180606001604052803481526020018381526020013373ffffffffffffffffffffffffffffffffffffffff16815250908060018154018082558091505060019003905f5260205f2090600302015f909190919091505f820151815f0155602082015181600101556040820151816002015f6101000a81548173ffffffffffffffffffffffffffffffffffffffff021916908373ffffffffffffffffffffffffffffffffffffffff160217905550505050565b5f602052815f5260405f208181548110610277575f80fd5b905f5260205f2090600302015f9150915050805f015490806001015490806002015f9054906101000a900473ffffffffffffffffffffffffffffffffffffffff16905083565b603c81565b670de0b6b3a764000081565b5f5f5f3373ffffffffffffffffffffffffffffffffffffffff1673ffffffffffffffffffffffffffffffffffffffff1681526020019081526020015f20805490501161034f576040517f08c379a000000000000000000000000000000000000000000000000000000000815260040161034690610972565b60405180910390fd5b5f5f5f3373ffffffffffffffffffffffffffffffffffffffff1673ffffffffffffffffffffffffffffffffffffffff1681526020019081526020015f208054905090505b5f81111561065e575f6001826103a991906109bd565b90505f5f5f3373ffffffffffffffffffffffffffffffffffffffff1673ffffffffffffffffffffffffffffffffffffffff1681526020019081526020015f209050428183815481106103fe576103fd6109f0565b5b905f5260205f2090600302016001015411610649575f3373ffffffffffffffffffffffffffffffffffffffff1682848154811061043e5761043d6109f0565b5b905f5260205f2090600302015f015460405161045990610a4a565b5f6040518083038185875af1925050503d805f8114610493576040519150601f19603f3d011682016040523d82523d5f602084013e610498565b606091505b50509050806104dc576040517f08c379a00000000000000000000000000000000000000000000000000000000081526004016104d390610aa8565b60405180910390fd5b5f60015f5f3373ffffffffffffffffffffffffffffffffffffffff1673ffffffffffffffffffffffffffffffffffffffff1681526020019081526020015f208054905061052991906109bd565b90508084146105eb57828181548110610545576105446109f0565b5b905f5260205f209060030201838581548110610564576105636109f0565b5b905f5260205f2090600302015f820154815f015560018201548160010155600282015f9054906101000a900473ffffffffffffffffffffffffffffffffffffffff16816002015f6101000a81548173ffffffffffffffffffffffffffffffffffffffff021916908373ffffffffffffffffffffffffffffffffffffffff1602179055509050505b828054806105fc576105fb610ac6565b5b600190038181905f5260205f2090600302015f5f82015f9055600182015f9055600282015f6101000a81549073ffffffffffffffffffffffffffffffffffffffff02191690555050905550505b5050808061065690610af3565b915050610393565b50565b5f5f61066b610694565b9050670de0b6b3a764000083826106829190610b1a565b61068c9190610b88565b915050919050565b5f5f73694aa1769357215de4fac081bf1f309adc32530690505f8173ffffffffffffffffffffffffffffffffffffffff1663feaf968c6040518163ffffffff1660e01b815260040160a060405180830381865afa1580156106f7573d5f5f3e3d5ffd5b505050506040513d601f19601f8201168201806040525081019061071b9190610c3e565b5050509150506402540be400816107329190610b1a565b9250505090565b5f5ffd5b5f819050919050565b61074f8161073d565b8114610759575f5ffd5b50565b5f8135905061076a81610746565b92915050565b5f6020828403121561078557610784610739565b5b5f6107928482850161075c565b91505092915050565b5f73ffffffffffffffffffffffffffffffffffffffff82169050919050565b5f6107c48261079b565b9050919050565b6107d4816107ba565b81146107de575f5ffd5b50565b5f813590506107ef816107cb565b92915050565b5f5f6040838503121561080b5761080a610739565b5b5f610818858286016107e1565b92505060206108298582860161075c565b9150509250929050565b61083c8161073d565b82525050565b5f61084c8261079b565b9050919050565b61085c81610842565b82525050565b5f6060820190506108755f830186610833565b6108826020830185610833565b61088f6040830184610853565b949350505050565b5f6020820190506108aa5f830184610833565b92915050565b5f82825260208201905092915050565b7f4d696e696d756d206c6f636b20616d6f756e74206973203120555344000000005f82015250565b5f6108f4601c836108b0565b91506108ff826108c0565b602082019050919050565b5f6020820190508181035f830152610921816108e8565b9050919050565b7f796f7520646f6e74206861766520616e79746f6b656e206c6f6f6b65640000005f82015250565b5f61095c601d836108b0565b915061096782610928565b602082019050919050565b5f6020820190508181035f83015261098981610950565b9050919050565b7f4e487b71000000000000000000000000000000000000000000000000000000005f52601160045260245ffd5b5f6109c78261073d565b91506109d28361073d565b92508282039050818111156109ea576109e9610990565b5b92915050565b7f4e487b71000000000000000000000000000000000000000000000000000000005f52603260045260245ffd5b5f81905092915050565b50565b5f610a355f83610a1d565b9150610a4082610a27565b5f82019050919050565b5f610a5482610a2a565b9150819050919050565b7f7472616e73616374696f6e206661696c656400000000000000000000000000005f82015250565b5f610a926012836108b0565b9150610a9d82610a5e565b602082019050919050565b5f6020820190508181035f830152610abf81610a86565b9050919050565b7f4e487b71000000000000000000000000000000000000000000000000000000005f52603160045260245ffd5b5f610afd8261073d565b91505f8203610b0f57610b0e610990565b5b600182039050919050565b5f610b248261073d565b9150610b2f8361073d565b9250828202610b3d8161073d565b91508282048414831517610b5457610b53610990565b5b5092915050565b7f4e487b71000000000000000000000000000000000000000000000000000000005f52601260045260245ffd5b5f610b928261073d565b9150610b9d8361073d565b925082610bad57610bac610b5b565b5b828204905092915050565b5f69ffffffffffffffffffff82169050919050565b610bd681610bb8565b8114610be0575f5ffd5b50565b5f81519050610bf181610bcd565b92915050565b5f819050919050565b610c0981610bf7565b8114610c13575f5ffd5b50565b5f81519050610c2481610c00565b92915050565b5f81519050610c3881610746565b92915050565b5f5f5f5f5f60a08688031215610c5757610c56610739565b5b5f610c6488828901610be3565b9550506020610c7588828901610c16565b9450506040610c8688828901610c2a565b9350506060610c9788828901610c2a565b9250506080610ca888828901610be3565b915050929550929590935056fea2646970667358221220c0c07a5f4426f7ac4cdb5745fa9eef5870a9b94a8e8bb5c54ac2bc57085273e664736f6c634300081e0033",
					"opcodes": "PUSH1 0x80 PUSH1 0x40 MSTORE CALLVALUE DUP1 ISZERO PUSH1 0xE JUMPI PUSH0 PUSH0 REVERT JUMPDEST POP PUSH2 0xCEB DUP1 PUSH2 0x1C PUSH0 CODECOPY PUSH0 RETURN INVALID PUSH1 0x80 PUSH1 0x40 MSTORE PUSH1 0x4 CALLDATASIZE LT PUSH2 0x49 JUMPI PUSH0 CALLDATALOAD PUSH1 0xE0 SHR DUP1 PUSH4 0x23044749 EQ PUSH2 0x4D JUMPI DUP1 PUSH4 0x3FA16D99 EQ PUSH2 0x69 JUMPI DUP1 PUSH4 0x480BB7C4 EQ PUSH2 0xA7 JUMPI DUP1 PUSH4 0x7CD4F979 EQ PUSH2 0xD1 JUMPI DUP1 PUSH4 0xDB657388 EQ PUSH2 0xFB JUMPI JUMPDEST PUSH0 PUSH0 REVERT JUMPDEST PUSH2 0x67 PUSH1 0x4 DUP1 CALLDATASIZE SUB DUP2 ADD SWAP1 PUSH2 0x62 SWAP2 SWAP1 PUSH2 0x770 JUMP JUMPDEST PUSH2 0x111 JUMP JUMPDEST STOP JUMPDEST CALLVALUE DUP1 ISZERO PUSH2 0x74 JUMPI PUSH0 PUSH0 REVERT JUMPDEST POP PUSH2 0x8F PUSH1 0x4 DUP1 CALLDATASIZE SUB DUP2 ADD SWAP1 PUSH2 0x8A SWAP2 SWAP1 PUSH2 0x7F5 JUMP JUMPDEST PUSH2 0x25F JUMP JUMPDEST PUSH1 0x40 MLOAD PUSH2 0x9E SWAP4 SWAP3 SWAP2 SWAP1 PUSH2 0x862 JUMP JUMPDEST PUSH1 0x40 MLOAD DUP1 SWAP2 SUB SWAP1 RETURN JUMPDEST CALLVALUE DUP1 ISZERO PUSH2 0xB2 JUMPI PUSH0 PUSH0 REVERT JUMPDEST POP PUSH2 0xBB PUSH2 0x2BD JUMP JUMPDEST PUSH1 0x40 MLOAD PUSH2 0xC8 SWAP2 SWAP1 PUSH2 0x897 JUMP JUMPDEST PUSH1 0x40 MLOAD DUP1 SWAP2 SUB SWAP1 RETURN JUMPDEST CALLVALUE DUP1 ISZERO PUSH2 0xDC JUMPI PUSH0 PUSH0 REVERT JUMPDEST POP PUSH2 0xE5 PUSH2 0x2C2 JUMP JUMPDEST PUSH1 0x40 MLOAD PUSH2 0xF2 SWAP2 SWAP1 PUSH2 0x897 JUMP JUMPDEST PUSH1 0x40 MLOAD DUP1 SWAP2 SUB SWAP1 RETURN JUMPDEST CALLVALUE DUP1 ISZERO PUSH2 0x106 JUMPI PUSH0 PUSH0 REVERT JUMPDEST POP PUSH2 0x10F PUSH2 0x2CE JUMP JUMPDEST STOP JUMPDEST PUSH8 0xDE0B6B3A7640000 PUSH2 0x123 CALLVALUE PUSH2 0x661 JUMP JUMPDEST GT PUSH2 0x163 JUMPI PUSH1 0x40 MLOAD PUSH32 0x8C379A000000000000000000000000000000000000000000000000000000000 DUP2 MSTORE PUSH1 0x4 ADD PUSH2 0x15A SWAP1 PUSH2 0x90A JUMP JUMPDEST PUSH1 0x40 MLOAD DUP1 SWAP2 SUB SWAP1 REVERT JUMPDEST PUSH0 DUP2 SUB PUSH2 0x16F JUMPI PUSH1 0x3C SWAP1 POP JUMPDEST PUSH0 PUSH0 CALLER PUSH20 0xFFFFFFFFFFFFFFFFFFFFFFFFFFFFFFFFFFFFFFFF AND PUSH20 0xFFFFFFFFFFFFFFFFFFFFFFFFFFFFFFFFFFFFFFFF AND DUP2 MSTORE PUSH1 0x20 ADD SWAP1 DUP2 MSTORE PUSH1 0x20 ADD PUSH0 KECCAK256 PUSH1 0x40 MLOAD DUP1 PUSH1 0x60 ADD PUSH1 0x40 MSTORE DUP1 CALLVALUE DUP2 MSTORE PUSH1 0x20 ADD DUP4 DUP2 MSTORE PUSH1 0x20 ADD CALLER PUSH20 0xFFFFFFFFFFFFFFFFFFFFFFFFFFFFFFFFFFFFFFFF AND DUP2 MSTORE POP SWAP1 DUP1 PUSH1 0x1 DUP2 SLOAD ADD DUP1 DUP3 SSTORE DUP1 SWAP2 POP POP PUSH1 0x1 SWAP1 SUB SWAP1 PUSH0 MSTORE PUSH1 0x20 PUSH0 KECCAK256 SWAP1 PUSH1 0x3 MUL ADD PUSH0 SWAP1 SWAP2 SWAP1 SWAP2 SWAP1 SWAP2 POP PUSH0 DUP3 ADD MLOAD DUP2 PUSH0 ADD SSTORE PUSH1 0x20 DUP3 ADD MLOAD DUP2 PUSH1 0x1 ADD SSTORE PUSH1 0x40 DUP3 ADD MLOAD DUP2 PUSH1 0x2 ADD PUSH0 PUSH2 0x100 EXP DUP2 SLOAD DUP2 PUSH20 0xFFFFFFFFFFFFFFFFFFFFFFFFFFFFFFFFFFFFFFFF MUL NOT AND SWAP1 DUP4 PUSH20 0xFFFFFFFFFFFFFFFFFFFFFFFFFFFFFFFFFFFFFFFF AND MUL OR SWAP1 SSTORE POP POP POP POP JUMP JUMPDEST PUSH0 PUSH1 0x20 MSTORE DUP2 PUSH0 MSTORE PUSH1 0x40 PUSH0 KECCAK256 DUP2 DUP2 SLOAD DUP2 LT PUSH2 0x277 JUMPI PUSH0 DUP1 REVERT JUMPDEST SWAP1 PUSH0 MSTORE PUSH1 0x20 PUSH0 KECCAK256 SWAP1 PUSH1 0x3 MUL ADD PUSH0 SWAP2 POP SWAP2 POP POP DUP1 PUSH0 ADD SLOAD SWAP1 DUP1 PUSH1 0x1 ADD SLOAD SWAP1 DUP1 PUSH1 0x2 ADD PUSH0 SWAP1 SLOAD SWAP1 PUSH2 0x100 EXP SWAP1 DIV PUSH20 0xFFFFFFFFFFFFFFFFFFFFFFFFFFFFFFFFFFFFFFFF AND SWAP1 POP DUP4 JUMP JUMPDEST PUSH1 0x3C DUP2 JUMP JUMPDEST PUSH8 0xDE0B6B3A7640000 DUP2 JUMP JUMPDEST PUSH0 PUSH0 PUSH0 CALLER PUSH20 0xFFFFFFFFFFFFFFFFFFFFFFFFFFFFFFFFFFFFFFFF AND PUSH20 0xFFFFFFFFFFFFFFFFFFFFFFFFFFFFFFFFFFFFFFFF AND DUP2 MSTORE PUSH1 0x20 ADD SWAP1 DUP2 MSTORE PUSH1 0x20 ADD PUSH0 KECCAK256 DUP1 SLOAD SWAP1 POP GT PUSH2 0x34F JUMPI PUSH1 0x40 MLOAD PUSH32 0x8C379A000000000000000000000000000000000000000000000000000000000 DUP2 MSTORE PUSH1 0x4 ADD PUSH2 0x346 SWAP1 PUSH2 0x972 JUMP JUMPDEST PUSH1 0x40 MLOAD DUP1 SWAP2 SUB SWAP1 REVERT JUMPDEST PUSH0 PUSH0 PUSH0 CALLER PUSH20 0xFFFFFFFFFFFFFFFFFFFFFFFFFFFFFFFFFFFFFFFF AND PUSH20 0xFFFFFFFFFFFFFFFFFFFFFFFFFFFFFFFFFFFFFFFF AND DUP2 MSTORE PUSH1 0x20 ADD SWAP1 DUP2 MSTORE PUSH1 0x20 ADD PUSH0 KECCAK256 DUP1 SLOAD SWAP1 POP SWAP1 POP JUMPDEST PUSH0 DUP2 GT ISZERO PUSH2 0x65E JUMPI PUSH0 PUSH1 0x1 DUP3 PUSH2 0x3A9 SWAP2 SWAP1 PUSH2 0x9BD JUMP JUMPDEST SWAP1 POP PUSH0 PUSH0 PUSH0 CALLER PUSH20 0xFFFFFFFFFFFFFFFFFFFFFFFFFFFFFFFFFFFFFFFF AND PUSH20 0xFFFFFFFFFFFFFFFFFFFFFFFFFFFFFFFFFFFFFFFF AND DUP2 MSTORE PUSH1 0x20 ADD SWAP1 DUP2 MSTORE PUSH1 0x20 ADD PUSH0 KECCAK256 SWAP1 POP TIMESTAMP DUP2 DUP4 DUP2 SLOAD DUP2 LT PUSH2 0x3FE JUMPI PUSH2 0x3FD PUSH2 0x9F0 JUMP JUMPDEST JUMPDEST SWAP1 PUSH0 MSTORE PUSH1 0x20 PUSH0 KECCAK256 SWAP1 PUSH1 0x3 MUL ADD PUSH1 0x1 ADD SLOAD GT PUSH2 0x649 JUMPI PUSH0 CALLER PUSH20 0xFFFFFFFFFFFFFFFFFFFFFFFFFFFFFFFFFFFFFFFF AND DUP3 DUP5 DUP2 SLOAD DUP2 LT PUSH2 0x43E JUMPI PUSH2 0x43D PUSH2 0x9F0 JUMP JUMPDEST JUMPDEST SWAP1 PUSH0 MSTORE PUSH1 0x20 PUSH0 KECCAK256 SWAP1 PUSH1 0x3 MUL ADD PUSH0 ADD SLOAD PUSH1 0x40 MLOAD PUSH2 0x459 SWAP1 PUSH2 0xA4A JUMP JUMPDEST PUSH0 PUSH1 0x40 MLOAD DUP1 DUP4 SUB DUP2 DUP6 DUP8 GAS CALL SWAP3 POP POP POP RETURNDATASIZE DUP1 PUSH0 DUP2 EQ PUSH2 0x493 JUMPI PUSH1 0x40 MLOAD SWAP2 POP PUSH1 0x1F NOT PUSH1 0x3F RETURNDATASIZE ADD AND DUP3 ADD PUSH1 0x40 MSTORE RETURNDATASIZE DUP3 MSTORE RETURNDATASIZE PUSH0 PUSH1 0x20 DUP5 ADD RETURNDATACOPY PUSH2 0x498 JUMP JUMPDEST PUSH1 0x60 SWAP2 POP JUMPDEST POP POP SWAP1 POP DUP1 PUSH2 0x4DC JUMPI PUSH1 0x40 MLOAD PUSH32 0x8C379A000000000000000000000000000000000000000000000000000000000 DUP2 MSTORE PUSH1 0x4 ADD PUSH2 0x4D3 SWAP1 PUSH2 0xAA8 JUMP JUMPDEST PUSH1 0x40 MLOAD DUP1 SWAP2 SUB SWAP1 REVERT JUMPDEST PUSH0 PUSH1 0x1 PUSH0 PUSH0 CALLER PUSH20 0xFFFFFFFFFFFFFFFFFFFFFFFFFFFFFFFFFFFFFFFF AND PUSH20 0xFFFFFFFFFFFFFFFFFFFFFFFFFFFFFFFFFFFFFFFF AND DUP2 MSTORE PUSH1 0x20 ADD SWAP1 DUP2 MSTORE PUSH1 0x20 ADD PUSH0 KECCAK256 DUP1 SLOAD SWAP1 POP PUSH2 0x529 SWAP2 SWAP1 PUSH2 0x9BD JUMP JUMPDEST SWAP1 POP DUP1 DUP5 EQ PUSH2 0x5EB JUMPI DUP3 DUP2 DUP2 SLOAD DUP2 LT PUSH2 0x545 JUMPI PUSH2 0x544 PUSH2 0x9F0 JUMP JUMPDEST JUMPDEST SWAP1 PUSH0 MSTORE PUSH1 0x20 PUSH0 KECCAK256 SWAP1 PUSH1 0x3 MUL ADD DUP4 DUP6 DUP2 SLOAD DUP2 LT PUSH2 0x564 JUMPI PUSH2 0x563 PUSH2 0x9F0 JUMP JUMPDEST JUMPDEST SWAP1 PUSH0 MSTORE PUSH1 0x20 PUSH0 KECCAK256 SWAP1 PUSH1 0x3 MUL ADD PUSH0 DUP3 ADD SLOAD DUP2 PUSH0 ADD SSTORE PUSH1 0x1 DUP3 ADD SLOAD DUP2 PUSH1 0x1 ADD SSTORE PUSH1 0x2 DUP3 ADD PUSH0 SWAP1 SLOAD SWAP1 PUSH2 0x100 EXP SWAP1 DIV PUSH20 0xFFFFFFFFFFFFFFFFFFFFFFFFFFFFFFFFFFFFFFFF AND DUP2 PUSH1 0x2 ADD PUSH0 PUSH2 0x100 EXP DUP2 SLOAD DUP2 PUSH20 0xFFFFFFFFFFFFFFFFFFFFFFFFFFFFFFFFFFFFFFFF MUL NOT AND SWAP1 DUP4 PUSH20 0xFFFFFFFFFFFFFFFFFFFFFFFFFFFFFFFFFFFFFFFF AND MUL OR SWAP1 SSTORE POP SWAP1 POP POP JUMPDEST DUP3 DUP1 SLOAD DUP1 PUSH2 0x5FC JUMPI PUSH2 0x5FB PUSH2 0xAC6 JUMP JUMPDEST JUMPDEST PUSH1 0x1 SWAP1 SUB DUP2 DUP2 SWAP1 PUSH0 MSTORE PUSH1 0x20 PUSH0 KECCAK256 SWAP1 PUSH1 0x3 MUL ADD PUSH0 PUSH0 DUP3 ADD PUSH0 SWAP1 SSTORE PUSH1 0x1 DUP3 ADD PUSH0 SWAP1 SSTORE PUSH1 0x2 DUP3 ADD PUSH0 PUSH2 0x100 EXP DUP2 SLOAD SWAP1 PUSH20 0xFFFFFFFFFFFFFFFFFFFFFFFFFFFFFFFFFFFFFFFF MUL NOT AND SWAP1 SSTORE POP POP SWAP1 SSTORE POP POP JUMPDEST POP POP DUP1 DUP1 PUSH2 0x656 SWAP1 PUSH2 0xAF3 JUMP JUMPDEST SWAP2 POP POP PUSH2 0x393 JUMP JUMPDEST POP JUMP JUMPDEST PUSH0 PUSH0 PUSH2 0x66B PUSH2 0x694 JUMP JUMPDEST SWAP1 POP PUSH8 0xDE0B6B3A7640000 DUP4 DUP3 PUSH2 0x682 SWAP2 SWAP1 PUSH2 0xB1A JUMP JUMPDEST PUSH2 0x68C SWAP2 SWAP1 PUSH2 0xB88 JUMP JUMPDEST SWAP2 POP POP SWAP2 SWAP1 POP JUMP JUMPDEST PUSH0 PUSH0 PUSH20 0x694AA1769357215DE4FAC081BF1F309ADC325306 SWAP1 POP PUSH0 DUP2 PUSH20 0xFFFFFFFFFFFFFFFFFFFFFFFFFFFFFFFFFFFFFFFF AND PUSH4 0xFEAF968C PUSH1 0x40 MLOAD DUP2 PUSH4 0xFFFFFFFF AND PUSH1 0xE0 SHL DUP2 MSTORE PUSH1 0x4 ADD PUSH1 0xA0 PUSH1 0x40 MLOAD DUP1 DUP4 SUB DUP2 DUP7 GAS STATICCALL ISZERO DUP1 ISZERO PUSH2 0x6F7 JUMPI RETURNDATASIZE PUSH0 PUSH0 RETURNDATACOPY RETURNDATASIZE PUSH0 REVERT JUMPDEST POP POP POP POP PUSH1 0x40 MLOAD RETURNDATASIZE PUSH1 0x1F NOT PUSH1 0x1F DUP3 ADD AND DUP3 ADD DUP1 PUSH1 0x40 MSTORE POP DUP2 ADD SWAP1 PUSH2 0x71B SWAP2 SWAP1 PUSH2 0xC3E JUMP JUMPDEST POP POP POP SWAP2 POP POP PUSH5 0x2540BE400 DUP2 PUSH2 0x732 SWAP2 SWAP1 PUSH2 0xB1A JUMP JUMPDEST SWAP3 POP POP POP SWAP1 JUMP JUMPDEST PUSH0 PUSH0 REVERT JUMPDEST PUSH0 DUP2 SWAP1 POP SWAP2 SWAP1 POP JUMP JUMPDEST PUSH2 0x74F DUP2 PUSH2 0x73D JUMP JUMPDEST DUP2 EQ PUSH2 0x759 JUMPI PUSH0 PUSH0 REVERT JUMPDEST POP JUMP JUMPDEST PUSH0 DUP2 CALLDATALOAD SWAP1 POP PUSH2 0x76A DUP2 PUSH2 0x746 JUMP JUMPDEST SWAP3 SWAP2 POP POP JUMP JUMPDEST PUSH0 PUSH1 0x20 DUP3 DUP5 SUB SLT ISZERO PUSH2 0x785 JUMPI PUSH2 0x784 PUSH2 0x739 JUMP JUMPDEST JUMPDEST PUSH0 PUSH2 0x792 DUP5 DUP3 DUP6 ADD PUSH2 0x75C JUMP JUMPDEST SWAP2 POP POP SWAP3 SWAP2 POP POP JUMP JUMPDEST PUSH0 PUSH20 0xFFFFFFFFFFFFFFFFFFFFFFFFFFFFFFFFFFFFFFFF DUP3 AND SWAP1 POP SWAP2 SWAP1 POP JUMP JUMPDEST PUSH0 PUSH2 0x7C4 DUP3 PUSH2 0x79B JUMP JUMPDEST SWAP1 POP SWAP2 SWAP1 POP JUMP JUMPDEST PUSH2 0x7D4 DUP2 PUSH2 0x7BA JUMP JUMPDEST DUP2 EQ PUSH2 0x7DE JUMPI PUSH0 PUSH0 REVERT JUMPDEST POP JUMP JUMPDEST PUSH0 DUP2 CALLDATALOAD SWAP1 POP PUSH2 0x7EF DUP2 PUSH2 0x7CB JUMP JUMPDEST SWAP3 SWAP2 POP POP JUMP JUMPDEST PUSH0 PUSH0 PUSH1 0x40 DUP4 DUP6 SUB SLT ISZERO PUSH2 0x80B JUMPI PUSH2 0x80A PUSH2 0x739 JUMP JUMPDEST JUMPDEST PUSH0 PUSH2 0x818 DUP6 DUP3 DUP7 ADD PUSH2 0x7E1 JUMP JUMPDEST SWAP3 POP POP PUSH1 0x20 PUSH2 0x829 DUP6 DUP3 DUP7 ADD PUSH2 0x75C JUMP JUMPDEST SWAP2 POP POP SWAP3 POP SWAP3 SWAP1 POP JUMP JUMPDEST PUSH2 0x83C DUP2 PUSH2 0x73D JUMP JUMPDEST DUP3 MSTORE POP POP JUMP JUMPDEST PUSH0 PUSH2 0x84C DUP3 PUSH2 0x79B JUMP JUMPDEST SWAP1 POP SWAP2 SWAP1 POP JUMP JUMPDEST PUSH2 0x85C DUP2 PUSH2 0x842 JUMP JUMPDEST DUP3 MSTORE POP POP JUMP JUMPDEST PUSH0 PUSH1 0x60 DUP3 ADD SWAP1 POP PUSH2 0x875 PUSH0 DUP4 ADD DUP7 PUSH2 0x833 JUMP JUMPDEST PUSH2 0x882 PUSH1 0x20 DUP4 ADD DUP6 PUSH2 0x833 JUMP JUMPDEST PUSH2 0x88F PUSH1 0x40 DUP4 ADD DUP5 PUSH2 0x853 JUMP JUMPDEST SWAP5 SWAP4 POP POP POP POP JUMP JUMPDEST PUSH0 PUSH1 0x20 DUP3 ADD SWAP1 POP PUSH2 0x8AA PUSH0 DUP4 ADD DUP5 PUSH2 0x833 JUMP JUMPDEST SWAP3 SWAP2 POP POP JUMP JUMPDEST PUSH0 DUP3 DUP3 MSTORE PUSH1 0x20 DUP3 ADD SWAP1 POP SWAP3 SWAP2 POP POP JUMP JUMPDEST PUSH32 0x4D696E696D756D206C6F636B20616D6F756E7420697320312055534400000000 PUSH0 DUP3 ADD MSTORE POP JUMP JUMPDEST PUSH0 PUSH2 0x8F4 PUSH1 0x1C DUP4 PUSH2 0x8B0 JUMP JUMPDEST SWAP2 POP PUSH2 0x8FF DUP3 PUSH2 0x8C0 JUMP JUMPDEST PUSH1 0x20 DUP3 ADD SWAP1 POP SWAP2 SWAP1 POP JUMP JUMPDEST PUSH0 PUSH1 0x20 DUP3 ADD SWAP1 POP DUP2 DUP2 SUB PUSH0 DUP4 ADD MSTORE PUSH2 0x921 DUP2 PUSH2 0x8E8 JUMP JUMPDEST SWAP1 POP SWAP2 SWAP1 POP JUMP JUMPDEST PUSH32 0x796F7520646F6E74206861766520616E79746F6B656E206C6F6F6B6564000000 PUSH0 DUP3 ADD MSTORE POP JUMP JUMPDEST PUSH0 PUSH2 0x95C PUSH1 0x1D DUP4 PUSH2 0x8B0 JUMP JUMPDEST SWAP2 POP PUSH2 0x967 DUP3 PUSH2 0x928 JUMP JUMPDEST PUSH1 0x20 DUP3 ADD SWAP1 POP SWAP2 SWAP1 POP JUMP JUMPDEST PUSH0 PUSH1 0x20 DUP3 ADD SWAP1 POP DUP2 DUP2 SUB PUSH0 DUP4 ADD MSTORE PUSH2 0x989 DUP2 PUSH2 0x950 JUMP JUMPDEST SWAP1 POP SWAP2 SWAP1 POP JUMP JUMPDEST PUSH32 0x4E487B7100000000000000000000000000000000000000000000000000000000 PUSH0 MSTORE PUSH1 0x11 PUSH1 0x4 MSTORE PUSH1 0x24 PUSH0 REVERT JUMPDEST PUSH0 PUSH2 0x9C7 DUP3 PUSH2 0x73D JUMP JUMPDEST SWAP2 POP PUSH2 0x9D2 DUP4 PUSH2 0x73D JUMP JUMPDEST SWAP3 POP DUP3 DUP3 SUB SWAP1 POP DUP2 DUP2 GT ISZERO PUSH2 0x9EA JUMPI PUSH2 0x9E9 PUSH2 0x990 JUMP JUMPDEST JUMPDEST SWAP3 SWAP2 POP POP JUMP JUMPDEST PUSH32 0x4E487B7100000000000000000000000000000000000000000000000000000000 PUSH0 MSTORE PUSH1 0x32 PUSH1 0x4 MSTORE PUSH1 0x24 PUSH0 REVERT JUMPDEST PUSH0 DUP2 SWAP1 POP SWAP3 SWAP2 POP POP JUMP JUMPDEST POP JUMP JUMPDEST PUSH0 PUSH2 0xA35 PUSH0 DUP4 PUSH2 0xA1D JUMP JUMPDEST SWAP2 POP PUSH2 0xA40 DUP3 PUSH2 0xA27 JUMP JUMPDEST PUSH0 DUP3 ADD SWAP1 POP SWAP2 SWAP1 POP JUMP JUMPDEST PUSH0 PUSH2 0xA54 DUP3 PUSH2 0xA2A JUMP JUMPDEST SWAP2 POP DUP2 SWAP1 POP SWAP2 SWAP1 POP JUMP JUMPDEST PUSH32 0x7472616E73616374696F6E206661696C65640000000000000000000000000000 PUSH0 DUP3 ADD MSTORE POP JUMP JUMPDEST PUSH0 PUSH2 0xA92 PUSH1 0x12 DUP4 PUSH2 0x8B0 JUMP JUMPDEST SWAP2 POP PUSH2 0xA9D DUP3 PUSH2 0xA5E JUMP JUMPDEST PUSH1 0x20 DUP3 ADD SWAP1 POP SWAP2 SWAP1 POP JUMP JUMPDEST PUSH0 PUSH1 0x20 DUP3 ADD SWAP1 POP DUP2 DUP2 SUB PUSH0 DUP4 ADD MSTORE PUSH2 0xABF DUP2 PUSH2 0xA86 JUMP JUMPDEST SWAP1 POP SWAP2 SWAP1 POP JUMP JUMPDEST PUSH32 0x4E487B7100000000000000000000000000000000000000000000000000000000 PUSH0 MSTORE PUSH1 0x31 PUSH1 0x4 MSTORE PUSH1 0x24 PUSH0 REVERT JUMPDEST PUSH0 PUSH2 0xAFD DUP3 PUSH2 0x73D JUMP JUMPDEST SWAP2 POP PUSH0 DUP3 SUB PUSH2 0xB0F JUMPI PUSH2 0xB0E PUSH2 0x990 JUMP JUMPDEST JUMPDEST PUSH1 0x1 DUP3 SUB SWAP1 POP SWAP2 SWAP1 POP JUMP JUMPDEST PUSH0 PUSH2 0xB24 DUP3 PUSH2 0x73D JUMP JUMPDEST SWAP2 POP PUSH2 0xB2F DUP4 PUSH2 0x73D JUMP JUMPDEST SWAP3 POP DUP3 DUP3 MUL PUSH2 0xB3D DUP2 PUSH2 0x73D JUMP JUMPDEST SWAP2 POP DUP3 DUP3 DIV DUP5 EQ DUP4 ISZERO OR PUSH2 0xB54 JUMPI PUSH2 0xB53 PUSH2 0x990 JUMP JUMPDEST JUMPDEST POP SWAP3 SWAP2 POP POP JUMP JUMPDEST PUSH32 0x4E487B7100000000000000000000000000000000000000000000000000000000 PUSH0 MSTORE PUSH1 0x12 PUSH1 0x4 MSTORE PUSH1 0x24 PUSH0 REVERT JUMPDEST PUSH0 PUSH2 0xB92 DUP3 PUSH2 0x73D JUMP JUMPDEST SWAP2 POP PUSH2 0xB9D DUP4 PUSH2 0x73D JUMP JUMPDEST SWAP3 POP DUP3 PUSH2 0xBAD JUMPI PUSH2 0xBAC PUSH2 0xB5B JUMP JUMPDEST JUMPDEST DUP3 DUP3 DIV SWAP1 POP SWAP3 SWAP2 POP POP JUMP JUMPDEST PUSH0 PUSH10 0xFFFFFFFFFFFFFFFFFFFF DUP3 AND SWAP1 POP SWAP2 SWAP1 POP JUMP JUMPDEST PUSH2 0xBD6 DUP2 PUSH2 0xBB8 JUMP JUMPDEST DUP2 EQ PUSH2 0xBE0 JUMPI PUSH0 PUSH0 REVERT JUMPDEST POP JUMP JUMPDEST PUSH0 DUP2 MLOAD SWAP1 POP PUSH2 0xBF1 DUP2 PUSH2 0xBCD JUMP JUMPDEST SWAP3 SWAP2 POP POP JUMP JUMPDEST PUSH0 DUP2 SWAP1 POP SWAP2 SWAP1 POP JUMP JUMPDEST PUSH2 0xC09 DUP2 PUSH2 0xBF7 JUMP JUMPDEST DUP2 EQ PUSH2 0xC13 JUMPI PUSH0 PUSH0 REVERT JUMPDEST POP JUMP JUMPDEST PUSH0 DUP2 MLOAD SWAP1 POP PUSH2 0xC24 DUP2 PUSH2 0xC00 JUMP JUMPDEST SWAP3 SWAP2 POP POP JUMP JUMPDEST PUSH0 DUP2 MLOAD SWAP1 POP PUSH2 0xC38 DUP2 PUSH2 0x746 JUMP JUMPDEST SWAP3 SWAP2 POP POP JUMP JUMPDEST PUSH0 PUSH0 PUSH0 PUSH0 PUSH0 PUSH1 0xA0 DUP7 DUP9 SUB SLT ISZERO PUSH2 0xC57 JUMPI PUSH2 0xC56 PUSH2 0x739 JUMP JUMPDEST JUMPDEST PUSH0 PUSH2 0xC64 DUP9 DUP3 DUP10 ADD PUSH2 0xBE3 JUMP JUMPDEST SWAP6 POP POP PUSH1 0x20 PUSH2 0xC75 DUP9 DUP3 DUP10 ADD PUSH2 0xC16 JUMP JUMPDEST SWAP5 POP POP PUSH1 0x40 PUSH2 0xC86 DUP9 DUP3 DUP10 ADD PUSH2 0xC2A JUMP JUMPDEST SWAP4 POP POP PUSH1 0x60 PUSH2 0xC97 DUP9 DUP3 DUP10 ADD PUSH2 0xC2A JUMP JUMPDEST SWAP3 POP POP PUSH1 0x80 PUSH2 0xCA8 DUP9 DUP3 DUP10 ADD PUSH2 0xBE3 JUMP JUMPDEST SWAP2 POP POP SWAP3 SWAP6 POP SWAP3 SWAP6 SWAP1 SWAP4 POP JUMP INVALID LOG2 PUSH5 0x6970667358 0x22 SLT KECCAK256 0xC0 0xC0 PUSH27 0x5F4426F7AC4CDB5745FA9EEF5870A9B94A8E8BB5C54AC2BC570852 PUSH20 0xE664736F6C634300081E00330000000000000000 "
				},
				"gasEstimates": {
					"creation": {
						"codeDepositCost": "661400",
						"executionCost": "694",
						"totalCost": "662094"
					},
					"external": {
						"lock_time()": "347",
						"lock_token(uint256)": "infinite",
						"minimum_lock_USD()": "369",
						"unLock_Token()": "infinite",
						"vault(address,uint256)": "infinite"
					}
				},
				"methodIdentifiers": {
					"lock_time()": "480bb7c4",
					"lock_token(uint256)": "23044749",
					"minimum_lock_USD()": "7cd4f979",
					"unLock_Token()": "db657388",
					"vault(address,uint256)": "3fa16d99"
				}
			},
			"storageLayout": {
				"storage": [
					{
						"astId": 122,
						"contract": "Locked-vault/lock.sol:Lock_Vault",
						"label": "vault",
						"offset": 0,
						"slot": "0",
						"type": "t_mapping(t_address,t_array(t_struct(Vault)116_storage)dyn_storage)"
					}
				],
				"types": {
					"t_address": {
						"encoding": "inplace",
						"label": "address",
						"numberOfBytes": "20"
					},
					"t_address_payable": {
						"encoding": "inplace",
						"label": "address payable",
						"numberOfBytes": "20"
					},
					"t_array(t_struct(Vault)116_storage)dyn_storage": {
						"base": "t_struct(Vault)116_storage",
						"encoding": "dynamic_array",
						"label": "struct Lock_Vault.Vault[]",
						"numberOfBytes": "32"
					},
					"t_mapping(t_address,t_array(t_struct(Vault)116_storage)dyn_storage)": {
						"encoding": "mapping",
						"key": "t_address",
						"label": "mapping(address => struct Lock_Vault.Vault[])",
						"numberOfBytes": "32",
						"value": "t_array(t_struct(Vault)116_storage)dyn_storage"
					},
					"t_struct(Vault)116_storage": {
						"encoding": "inplace",
						"label": "struct Lock_Vault.Vault",
						"members": [
							{
								"astId": 111,
								"contract": "Locked-vault/lock.sol:Lock_Vault",
								"label": "amount",
								"offset": 0,
								"slot": "0",
								"type": "t_uint256"
							},
							{
								"astId": 113,
								"contract": "Locked-vault/lock.sol:Lock_Vault",
								"label": "unlock",
								"offset": 0,
								"slot": "1",
								"type": "t_uint256"
							},
							{
								"astId": 115,
								"contract": "Locked-vault/lock.sol:Lock_Vault",
								"label": "owner",
								"offset": 0,
								"slot": "2",
								"type": "t_address_payable"
							}
						],
						"numberOfBytes": "96"
					},
					"t_uint256": {
						"encoding": "inplace",
						"label": "uint256",
						"numberOfBytes": "32"
					}
				}
			},
			"userdoc": {
				"kind": "user",
				"methods": {},
				"version": 1
			}
		}
	}
}