{
	"pStorage/contract.sol": {
		"StorageLab": {
			"abi": [
				{
					"inputs": [],
					"stateMutability": "nonpayable",
					"type": "constructor"
				},
				{
					"inputs": [],
					"name": "a",
					"outputs": [
						{
							"internalType": "uint128",
							"name": "",
							"type": "uint128"
						}
					],
					"stateMutability": "view",
					"type": "function"
				},
				{
					"inputs": [],
					"name": "b",
					"outputs": [
						{
							"internalType": "uint64",
							"name": "",
							"type": "uint64"
						}
					],
					"stateMutability": "view",
					"type": "function"
				},
				{
					"inputs": [],
					"name": "c",
					"outputs": [
						{
							"internalType": "uint32",
							"name": "",
							"type": "uint32"
						}
					],
					"stateMutability": "view",
					"type": "function"
				},
				{
					"inputs": [],
					"name": "description",
					"outputs": [
						{
							"internalType": "string",
							"name": "",
							"type": "string"
						}
					],
					"stateMutability": "view",
					"type": "function"
				},
				{
					"inputs": [
						{
							"internalType": "uint256",
							"name": "",
							"type": "uint256"
						}
					],
					"name": "scores",
					"outputs": [
						{
							"internalType": "uint256",
							"name": "",
							"type": "uint256"
						}
					],
					"stateMutability": "view",
					"type": "function"
				},
				{
					"inputs": [],
					"name": "setLongString",
					"outputs": [],
					"stateMutability": "nonpayable",
					"type": "function"
				},
				{
					"inputs": [
						{
							"internalType": "address",
							"name": "addr",
							"type": "address"
						},
						{
							"internalType": "uint128",
							"name": "bal",
							"type": "uint128"
						},
						{
							"internalType": "uint128",
							"name": "pts",
							"type": "uint128"
						},
						{
							"internalType": "uint256",
							"name": "_id",
							"type": "uint256"
						}
					],
					"name": "setUser",
					"outputs": [],
					"stateMutability": "nonpayable",
					"type": "function"
				},
				{
					"inputs": [
						{
							"internalType": "uint256",
							"name": "amount",
							"type": "uint256"
						}
					],
					"name": "setbalnce",
					"outputs": [],
					"stateMutability": "nonpayable",
					"type": "function"
				},
				{
					"inputs": [
						{
							"internalType": "address",
							"name": "",
							"type": "address"
						}
					],
					"name": "users",
					"outputs": [
						{
							"internalType": "uint128",
							"name": "balance",
							"type": "uint128"
						},
						{
							"internalType": "uint128",
							"name": "points",
							"type": "uint128"
						},
						{
							"internalType": "uint256",
							"name": "id",
							"type": "uint256"
						}
					],
					"stateMutability": "view",
					"type": "function"
				}
			],
			"devdoc": {
				"kind": "dev",
				"methods": {},
				"version": 1
			},
			"evm": {
				"assembly": "    /* \"pStorage/contract.sol\":58:1594  contract StorageLab {... */\n  mstore(0x40, 0x80)\n    /* \"pStorage/contract.sol\":242:276  0xAAAAAAAAAAAAAAAAAAAAAAAAAAAAAAAA */\n  0xaaaaaaaaaaaaaaaaaaaaaaaaaaaaaaaa\n    /* \"pStorage/contract.sol\":223:276  uint128 public a = 0xAAAAAAAAAAAAAAAAAAAAAAAAAAAAAAAA */\n  0x00\n  exp(0x0100, 0x00)\n  dup2\n  sload\n  dup2\n  0xffffffffffffffffffffffffffffffff\n  mul\n  not\n  and\n  swap1\n  dup4\n  0xffffffffffffffffffffffffffffffff\n  and\n  mul\n  or\n  swap1\n  sstore\n  pop\n    /* \"pStorage/contract.sol\":302:320  0xBBBBBBBBBBBBBBBB */\n  0xbbbbbbbbbbbbbbbb\n    /* \"pStorage/contract.sol\":283:320  uint64  public b = 0xBBBBBBBBBBBBBBBB */\n  0x00\n  exp(0x0100, 0x10)\n  dup2\n  sload\n  dup2\n  0xffffffffffffffff\n  mul\n  not\n  and\n  swap1\n  dup4\n  0xffffffffffffffff\n  and\n  mul\n  or\n  swap1\n  sstore\n  pop\n    /* \"pStorage/contract.sol\":345:355  0xCCCCCCCC */\n  0xcccccccc\n    /* \"pStorage/contract.sol\":326:355  uint32  public c = 0xCCCCCCCC */\n  0x00\n  exp(0x0100, 0x18)\n  dup2\n  sload\n  dup2\n  0xffffffff\n  mul\n  not\n  and\n  swap1\n  dup4\n  0xffffffff\n  and\n  mul\n  or\n  swap1\n  sstore\n  pop\n    /* \"pStorage/contract.sol\":461:496  string public description = \"Short\" */\n  mload(0x40)\n  dup1\n  0x40\n  add\n  0x40\n  mstore\n  dup1\n  0x05\n  dup2\n  mstore\n  0x20\n  add\n  0x53686f7274000000000000000000000000000000000000000000000000000000\n  dup2\n  mstore\n  pop\n  0x01\n  swap1\n  dup2\n  tag_1\n  swap2\n  swap1\n  tag_2\n  jump\t// in\ntag_1:\n  pop\n    /* \"pStorage/contract.sol\":1093:1166  constructor() {... */\n  callvalue\n  dup1\n  iszero\n  tag_3\n  jumpi\n  revert(0x00, 0x00)\ntag_3:\n  pop\n    /* \"pStorage/contract.sol\":1117:1123  scores */\n  0x02\n    /* \"pStorage/contract.sol\":1129:1132  100 */\n  0x64\n    /* \"pStorage/contract.sol\":1117:1133  scores.push(100) */\n  swap1\n  dup1\n  0x01\n  dup2\n  sload\n  add\n  dup1\n  dup3\n  sstore\n  dup1\n  swap2\n  pop\n  pop\n  0x01\n  swap1\n  sub\n  swap1\n  0x00\n  mstore\n  keccak256(0x00, 0x20)\n  add\n  0x00\n  swap1\n  swap2\n  swap1\n  swap2\n  swap1\n  swap2\n  pop\n  sstore\n    /* \"pStorage/contract.sol\":1143:1149  scores */\n  0x02\n    /* \"pStorage/contract.sol\":1155:1158  200 */\n  0xc8\n    /* \"pStorage/contract.sol\":1143:1159  scores.push(200) */\n  swap1\n  dup1\n  0x01\n  dup2\n  sload\n  add\n  dup1\n  dup3\n  sstore\n  dup1\n  swap2\n  pop\n  pop\n  0x01\n  swap1\n  sub\n  swap1\n  0x00\n  mstore\n  keccak256(0x00, 0x20)\n  add\n  0x00\n  swap1\n  swap2\n  swap1\n  swap2\n  swap1\n  swap2\n  pop\n  sstore\n    /* \"pStorage/contract.sol\":58:1594  contract StorageLab {... */\n  jump(tag_8)\n    /* \"#utility.yul\":7:106   */\ntag_9:\n    /* \"#utility.yul\":59:65   */\n  0x00\n    /* \"#utility.yul\":93:98   */\n  dup2\n    /* \"#utility.yul\":87:99   */\n  mload\n    /* \"#utility.yul\":77:99   */\n  swap1\n  pop\n    /* \"#utility.yul\":7:106   */\n  swap2\n  swap1\n  pop\n  jump\t// out\n    /* \"#utility.yul\":112:292   */\ntag_10:\n    /* \"#utility.yul\":160:237   */\n  0x4e487b7100000000000000000000000000000000000000000000000000000000\n    /* \"#utility.yul\":157:158   */\n  0x00\n    /* \"#utility.yul\":150:238   */\n  mstore\n    /* \"#utility.yul\":257:261   */\n  0x41\n    /* \"#utility.yul\":254:255   */\n  0x04\n    /* \"#utility.yul\":247:262   */\n  mstore\n    /* \"#utility.yul\":281:285   */\n  0x24\n    /* \"#utility.yul\":278:279   */\n  0x00\n    /* \"#utility.yul\":271:286   */\n  revert\n    /* \"#utility.yul\":298:478   */\ntag_11:\n    /* \"#utility.yul\":346:423   */\n  0x4e487b7100000000000000000000000000000000000000000000000000000000\n    /* \"#utility.yul\":343:344   */\n  0x00\n    /* \"#utility.yul\":336:424   */\n  mstore\n    /* \"#utility.yul\":443:447   */\n  0x22\n    /* \"#utility.yul\":440:441   */\n  0x04\n    /* \"#utility.yul\":433:448   */\n  mstore\n    /* \"#utility.yul\":467:471   */\n  0x24\n    /* \"#utility.yul\":464:465   */\n  0x00\n    /* \"#utility.yul\":457:472   */\n  revert\n    /* \"#utility.yul\":484:804   */\ntag_12:\n    /* \"#utility.yul\":528:534   */\n  0x00\n    /* \"#utility.yul\":565:566   */\n  0x02\n    /* \"#utility.yul\":559:563   */\n  dup3\n    /* \"#utility.yul\":555:567   */\n  div\n    /* \"#utility.yul\":545:567   */\n  swap1\n  pop\n    /* \"#utility.yul\":612:613   */\n  0x01\n    /* \"#utility.yul\":606:610   */\n  dup3\n    /* \"#utility.yul\":602:614   */\n  and\n    /* \"#utility.yul\":633:651   */\n  dup1\n    /* \"#utility.yul\":623:704   */\n  tag_34\n  jumpi\n    /* \"#utility.yul\":689:693   */\n  0x7f\n    /* \"#utility.yul\":681:687   */\n  dup3\n    /* \"#utility.yul\":677:694   */\n  and\n    /* \"#utility.yul\":667:694   */\n  swap2\n  pop\n    /* \"#utility.yul\":623:704   */\ntag_34:\n    /* \"#utility.yul\":751:753   */\n  0x20\n    /* \"#utility.yul\":743:749   */\n  dup3\n    /* \"#utility.yul\":740:754   */\n  lt\n    /* \"#utility.yul\":720:738   */\n  dup2\n    /* \"#utility.yul\":717:755   */\n  sub\n    /* \"#utility.yul\":714:798   */\n  tag_35\n  jumpi\n    /* \"#utility.yul\":770:788   */\n  tag_36\n  tag_11\n  jump\t// in\ntag_36:\n    /* \"#utility.yul\":714:798   */\ntag_35:\n    /* \"#utility.yul\":535:804   */\n  pop\n    /* \"#utility.yul\":484:804   */\n  swap2\n  swap1\n  pop\n  jump\t// out\n    /* \"#utility.yul\":810:951   */\ntag_13:\n    /* \"#utility.yul\":859:863   */\n  0x00\n    /* \"#utility.yul\":882:885   */\n  dup2\n    /* \"#utility.yul\":874:885   */\n  swap1\n  pop\n    /* \"#utility.yul\":905:908   */\n  dup2\n    /* \"#utility.yul\":902:903   */\n  0x00\n    /* \"#utility.yul\":895:909   */\n  mstore\n    /* \"#utility.yul\":939:943   */\n  0x20\n    /* \"#utility.yul\":936:937   */\n  0x00\n    /* \"#utility.yul\":926:944   */\n  keccak256\n    /* \"#utility.yul\":918:944   */\n  swap1\n  pop\n    /* \"#utility.yul\":810:951   */\n  swap2\n  swap1\n  pop\n  jump\t// out\n    /* \"#utility.yul\":957:1050   */\ntag_14:\n    /* \"#utility.yul\":994:1000   */\n  0x00\n    /* \"#utility.yul\":1041:1043   */\n  0x20\n    /* \"#utility.yul\":1036:1038   */\n  0x1f\n    /* \"#utility.yul\":1029:1034   */\n  dup4\n    /* \"#utility.yul\":1025:1039   */\n  add\n    /* \"#utility.yul\":1021:1044   */\n  div\n    /* \"#utility.yul\":1011:1044   */\n  swap1\n  pop\n    /* \"#utility.yul\":957:1050   */\n  swap2\n  swap1\n  pop\n  jump\t// out\n    /* \"#utility.yul\":1056:1163   */\ntag_15:\n    /* \"#utility.yul\":1100:1108   */\n  0x00\n    /* \"#utility.yul\":1150:1155   */\n  dup3\n    /* \"#utility.yul\":1144:1148   */\n  dup3\n    /* \"#utility.yul\":1140:1156   */\n  shl\n    /* \"#utility.yul\":1119:1156   */\n  swap1\n  pop\n    /* \"#utility.yul\":1056:1163   */\n  swap3\n  swap2\n  pop\n  pop\n  jump\t// out\n    /* \"#utility.yul\":1169:1562   */\ntag_16:\n    /* \"#utility.yul\":1238:1244   */\n  0x00\n    /* \"#utility.yul\":1288:1289   */\n  0x08\n    /* \"#utility.yul\":1276:1286   */\n  dup4\n    /* \"#utility.yul\":1272:1290   */\n  mul\n    /* \"#utility.yul\":1311:1408   */\n  tag_41\n    /* \"#utility.yul\":1341:1407   */\n  0xffffffffffffffffffffffffffffffffffffffffffffffffffffffffffffffff\n    /* \"#utility.yul\":1330:1339   */\n  dup3\n    /* \"#utility.yul\":1311:1408   */\n  tag_15\n  jump\t// in\ntag_41:\n    /* \"#utility.yul\":1429:1468   */\n  tag_42\n    /* \"#utility.yul\":1459:1467   */\n  dup7\n    /* \"#utility.yul\":1448:1457   */\n  dup4\n    /* \"#utility.yul\":1429:1468   */\n  tag_15\n  jump\t// in\ntag_42:\n    /* \"#utility.yul\":1417:1468   */\n  swap6\n  pop\n    /* \"#utility.yul\":1501:1505   */\n  dup1\n    /* \"#utility.yul\":1497:1506   */\n  not\n    /* \"#utility.yul\":1490:1495   */\n  dup5\n    /* \"#utility.yul\":1486:1507   */\n  and\n    /* \"#utility.yul\":1477:1507   */\n  swap4\n  pop\n    /* \"#utility.yul\":1550:1554   */\n  dup1\n    /* \"#utility.yul\":1540:1548   */\n  dup7\n    /* \"#utility.yul\":1536:1555   */\n  and\n    /* \"#utility.yul\":1529:1534   */\n  dup5\n    /* \"#utility.yul\":1526:1556   */\n  or\n    /* \"#utility.yul\":1516:1556   */\n  swap3\n  pop\n    /* \"#utility.yul\":1245:1562   */\n  pop\n  pop\n    /* \"#utility.yul\":1169:1562   */\n  swap4\n  swap3\n  pop\n  pop\n  pop\n  jump\t// out\n    /* \"#utility.yul\":1568:1645   */\ntag_17:\n    /* \"#utility.yul\":1605:1612   */\n  0x00\n    /* \"#utility.yul\":1634:1639   */\n  dup2\n    /* \"#utility.yul\":1623:1639   */\n  swap1\n  pop\n    /* \"#utility.yul\":1568:1645   */\n  swap2\n  swap1\n  pop\n  jump\t// out\n    /* \"#utility.yul\":1651:1711   */\ntag_18:\n    /* \"#utility.yul\":1679:1682   */\n  0x00\n    /* \"#utility.yul\":1700:1705   */\n  dup2\n    /* \"#utility.yul\":1693:1705   */\n  swap1\n  pop\n    /* \"#utility.yul\":1651:1711   */\n  swap2\n  swap1\n  pop\n  jump\t// out\n    /* \"#utility.yul\":1717:1859   */\ntag_19:\n    /* \"#utility.yul\":1767:1776   */\n  0x00\n    /* \"#utility.yul\":1800:1853   */\n  tag_46\n    /* \"#utility.yul\":1818:1852   */\n  tag_47\n    /* \"#utility.yul\":1827:1851   */\n  tag_48\n    /* \"#utility.yul\":1845:1850   */\n  dup5\n    /* \"#utility.yul\":1827:1851   */\n  tag_17\n  jump\t// in\ntag_48:\n    /* \"#utility.yul\":1818:1852   */\n  tag_18\n  jump\t// in\ntag_47:\n    /* \"#utility.yul\":1800:1853   */\n  tag_17\n  jump\t// in\ntag_46:\n    /* \"#utility.yul\":1787:1853   */\n  swap1\n  pop\n    /* \"#utility.yul\":1717:1859   */\n  swap2\n  swap1\n  pop\n  jump\t// out\n    /* \"#utility.yul\":1865:1940   */\ntag_20:\n    /* \"#utility.yul\":1908:1911   */\n  0x00\n    /* \"#utility.yul\":1929:1934   */\n  dup2\n    /* \"#utility.yul\":1922:1934   */\n  swap1\n  pop\n    /* \"#utility.yul\":1865:1940   */\n  swap2\n  swap1\n  pop\n  jump\t// out\n    /* \"#utility.yul\":1946:2215   */\ntag_21:\n    /* \"#utility.yul\":2056:2095   */\n  tag_51\n    /* \"#utility.yul\":2087:2094   */\n  dup4\n    /* \"#utility.yul\":2056:2095   */\n  tag_19\n  jump\t// in\ntag_51:\n    /* \"#utility.yul\":2117:2208   */\n  tag_52\n    /* \"#utility.yul\":2166:2207   */\n  tag_53\n    /* \"#utility.yul\":2190:2206   */\n  dup3\n    /* \"#utility.yul\":2166:2207   */\n  tag_20\n  jump\t// in\ntag_53:\n    /* \"#utility.yul\":2158:2164   */\n  dup5\n    /* \"#utility.yul\":2151:2155   */\n  dup5\n    /* \"#utility.yul\":2145:2156   */\n  sload\n    /* \"#utility.yul\":2117:2208   */\n  tag_16\n  jump\t// in\ntag_52:\n    /* \"#utility.yul\":2111:2115   */\n  dup3\n    /* \"#utility.yul\":2104:2209   */\n  sstore\n    /* \"#utility.yul\":2022:2215   */\n  pop\n    /* \"#utility.yul\":1946:2215   */\n  pop\n  pop\n  pop\n  jump\t// out\n    /* \"#utility.yul\":2221:2294   */\ntag_22:\n    /* \"#utility.yul\":2266:2269   */\n  0x00\n    /* \"#utility.yul\":2287:2288   */\n  0x00\n    /* \"#utility.yul\":2280:2288   */\n  swap1\n  pop\n    /* \"#utility.yul\":2221:2294   */\n  swap1\n  jump\t// out\n    /* \"#utility.yul\":2300:2489   */\ntag_23:\n    /* \"#utility.yul\":2377:2409   */\n  tag_56\n  tag_22\n  jump\t// in\ntag_56:\n    /* \"#utility.yul\":2418:2483   */\n  tag_57\n    /* \"#utility.yul\":2476:2482   */\n  dup2\n    /* \"#utility.yul\":2468:2474   */\n  dup5\n    /* \"#utility.yul\":2462:2466   */\n  dup5\n    /* \"#utility.yul\":2418:2483   */\n  tag_21\n  jump\t// in\ntag_57:\n    /* \"#utility.yul\":2353:2489   */\n  pop\n    /* \"#utility.yul\":2300:2489   */\n  pop\n  pop\n  jump\t// out\n    /* \"#utility.yul\":2495:2709   */\ntag_24:\n    /* \"#utility.yul\":2580:2581   */\n  0x00\n    /* \"#utility.yul\":2565:2703   */\ntag_59:\n    /* \"#utility.yul\":2590:2599   */\n  dup3\n    /* \"#utility.yul\":2587:2588   */\n  dup2\n    /* \"#utility.yul\":2584:2600   */\n  lt\n    /* \"#utility.yul\":2565:2703   */\n  iszero\n  tag_61\n  jumpi\n    /* \"#utility.yul\":2642:2693   */\n  tag_62\n    /* \"#utility.yul\":2691:2692   */\n  0x00\n    /* \"#utility.yul\":2687:2688   */\n  dup3\n    /* \"#utility.yul\":2676:2685   */\n  dup5\n    /* \"#utility.yul\":2672:2689   */\n  add\n    /* \"#utility.yul\":2642:2693   */\n  tag_23\n  jump\t// in\ntag_62:\n    /* \"#utility.yul\":2615:2616   */\n  0x01\n    /* \"#utility.yul\":2612:2613   */\n  dup2\n    /* \"#utility.yul\":2608:2617   */\n  add\n    /* \"#utility.yul\":2603:2617   */\n  swap1\n  pop\n    /* \"#utility.yul\":2565:2703   */\n  jump(tag_59)\ntag_61:\n    /* \"#utility.yul\":2569:2583   */\n  pop\n    /* \"#utility.yul\":2495:2709   */\n  pop\n  pop\n  jump\t// out\n    /* \"#utility.yul\":2715:3461   */\ntag_25:\n    /* \"#utility.yul\":2816:2818   */\n  0x1f\n    /* \"#utility.yul\":2811:2814   */\n  dup3\n    /* \"#utility.yul\":2808:2819   */\n  gt\n    /* \"#utility.yul\":2805:3454   */\n  iszero\n  tag_64\n  jumpi\n    /* \"#utility.yul\":2845:2855   */\n  dup3\n    /* \"#utility.yul\":2840:2843   */\n  dup3\n    /* \"#utility.yul\":2837:2856   */\n  gt\n    /* \"#utility.yul\":2834:3444   */\n  iszero\n  tag_65\n  jumpi\n    /* \"#utility.yul\":2891:2929   */\n  tag_66\n    /* \"#utility.yul\":2923:2928   */\n  dup2\n    /* \"#utility.yul\":2891:2929   */\n  tag_13\n  jump\t// in\ntag_66:\n    /* \"#utility.yul\":2966:2988   */\n  tag_67\n    /* \"#utility.yul\":2984:2987   */\n  dup4\n    /* \"#utility.yul\":2966:2988   */\n  tag_14\n  jump\t// in\ntag_67:\n    /* \"#utility.yul\":3025:3054   */\n  tag_68\n    /* \"#utility.yul\":3043:3053   */\n  dup6\n    /* \"#utility.yul\":3025:3054   */\n  tag_14\n  jump\t// in\ntag_68:\n    /* \"#utility.yul\":3215:3217   */\n  0x20\n    /* \"#utility.yul\":3203:3213   */\n  dup7\n    /* \"#utility.yul\":3200:3218   */\n  lt\n    /* \"#utility.yul\":3197:3276   */\n  iszero\n  tag_69\n  jumpi\n    /* \"#utility.yul\":3257:3258   */\n  0x00\n    /* \"#utility.yul\":3241:3258   */\n  swap1\n  pop\n    /* \"#utility.yul\":3197:3276   */\ntag_69:\n    /* \"#utility.yul\":3326:3338   */\n  dup1\n    /* \"#utility.yul\":3316:3324   */\n  dup4\n    /* \"#utility.yul\":3312:3339   */\n  add\n    /* \"#utility.yul\":3356:3430   */\n  tag_70\n    /* \"#utility.yul\":3416:3428   */\n  dup3\n    /* \"#utility.yul\":3402:3414   */\n  dup5\n    /* \"#utility.yul\":3398:3429   */\n  sub\n    /* \"#utility.yul\":3385:3396   */\n  dup3\n    /* \"#utility.yul\":3356:3430   */\n  tag_24\n  jump\t// in\ntag_70:\n    /* \"#utility.yul\":2857:3444   */\n  pop\n  pop\n  pop\n  pop\n    /* \"#utility.yul\":2834:3444   */\ntag_65:\n    /* \"#utility.yul\":2805:3454   */\ntag_64:\n    /* \"#utility.yul\":2715:3461   */\n  pop\n  pop\n  pop\n  jump\t// out\n    /* \"#utility.yul\":3467:3584   */\ntag_26:\n    /* \"#utility.yul\":3521:3529   */\n  0x00\n    /* \"#utility.yul\":3571:3576   */\n  dup3\n    /* \"#utility.yul\":3565:3569   */\n  dup3\n    /* \"#utility.yul\":3561:3577   */\n  shr\n    /* \"#utility.yul\":3540:3577   */\n  swap1\n  pop\n    /* \"#utility.yul\":3467:3584   */\n  swap3\n  swap2\n  pop\n  pop\n  jump\t// out\n    /* \"#utility.yul\":3590:3759   */\ntag_27:\n    /* \"#utility.yul\":3634:3640   */\n  0x00\n    /* \"#utility.yul\":3667:3718   */\n  tag_73\n    /* \"#utility.yul\":3715:3716   */\n  0x00\n    /* \"#utility.yul\":3711:3717   */\n  not\n    /* \"#utility.yul\":3703:3708   */\n  dup5\n    /* \"#utility.yul\":3700:3701   */\n  0x08\n    /* \"#utility.yul\":3696:3709   */\n  mul\n    /* \"#utility.yul\":3667:3718   */\n  tag_26\n  jump\t// in\ntag_73:\n    /* \"#utility.yul\":3663:3719   */\n  not\n    /* \"#utility.yul\":3748:3752   */\n  dup1\n    /* \"#utility.yul\":3742:3746   */\n  dup4\n    /* \"#utility.yul\":3738:3753   */\n  and\n    /* \"#utility.yul\":3728:3753   */\n  swap2\n  pop\n    /* \"#utility.yul\":3641:3759   */\n  pop\n    /* \"#utility.yul\":3590:3759   */\n  swap3\n  swap2\n  pop\n  pop\n  jump\t// out\n    /* \"#utility.yul\":3764:4059   */\ntag_28:\n    /* \"#utility.yul\":3840:3844   */\n  0x00\n    /* \"#utility.yul\":3986:4015   */\n  tag_75\n    /* \"#utility.yul\":4011:4014   */\n  dup4\n    /* \"#utility.yul\":4005:4009   */\n  dup4\n    /* \"#utility.yul\":3986:4015   */\n  tag_27\n  jump\t// in\ntag_75:\n    /* \"#utility.yul\":3978:4015   */\n  swap2\n  pop\n    /* \"#utility.yul\":4048:4051   */\n  dup3\n    /* \"#utility.yul\":4045:4046   */\n  0x02\n    /* \"#utility.yul\":4041:4052   */\n  mul\n    /* \"#utility.yul\":4035:4039   */\n  dup3\n    /* \"#utility.yul\":4032:4053   */\n  or\n    /* \"#utility.yul\":4024:4053   */\n  swap1\n  pop\n    /* \"#utility.yul\":3764:4059   */\n  swap3\n  swap2\n  pop\n  pop\n  jump\t// out\n    /* \"#utility.yul\":4064:5459   */\ntag_2:\n    /* \"#utility.yul\":4181:4218   */\n  tag_77\n    /* \"#utility.yul\":4214:4217   */\n  dup3\n    /* \"#utility.yul\":4181:4218   */\n  tag_9\n  jump\t// in\ntag_77:\n    /* \"#utility.yul\":4283:4301   */\n  0xffffffffffffffff\n    /* \"#utility.yul\":4275:4281   */\n  dup2\n    /* \"#utility.yul\":4272:4302   */\n  gt\n    /* \"#utility.yul\":4269:4325   */\n  iszero\n  tag_78\n  jumpi\n    /* \"#utility.yul\":4305:4323   */\n  tag_79\n  tag_10\n  jump\t// in\ntag_79:\n    /* \"#utility.yul\":4269:4325   */\ntag_78:\n    /* \"#utility.yul\":4349:4387   */\n  tag_80\n    /* \"#utility.yul\":4381:4385   */\n  dup3\n    /* \"#utility.yul\":4375:4386   */\n  sload\n    /* \"#utility.yul\":4349:4387   */\n  tag_12\n  jump\t// in\ntag_80:\n    /* \"#utility.yul\":4434:4501   */\n  tag_81\n    /* \"#utility.yul\":4494:4500   */\n  dup3\n    /* \"#utility.yul\":4486:4492   */\n  dup3\n    /* \"#utility.yul\":4480:4484   */\n  dup6\n    /* \"#utility.yul\":4434:4501   */\n  tag_25\n  jump\t// in\ntag_81:\n    /* \"#utility.yul\":4528:4529   */\n  0x00\n    /* \"#utility.yul\":4552:4556   */\n  0x20\n    /* \"#utility.yul\":4539:4556   */\n  swap1\n  pop\n    /* \"#utility.yul\":4584:4586   */\n  0x1f\n    /* \"#utility.yul\":4576:4582   */\n  dup4\n    /* \"#utility.yul\":4573:4587   */\n  gt\n    /* \"#utility.yul\":4601:4602   */\n  0x01\n    /* \"#utility.yul\":4596:5214   */\n  dup2\n  eq\n  tag_83\n  jumpi\n    /* \"#utility.yul\":5258:5259   */\n  0x00\n    /* \"#utility.yul\":5275:5281   */\n  dup5\n    /* \"#utility.yul\":5272:5349   */\n  iszero\n  tag_84\n  jumpi\n    /* \"#utility.yul\":5324:5333   */\n  dup3\n    /* \"#utility.yul\":5319:5322   */\n  dup8\n    /* \"#utility.yul\":5315:5334   */\n  add\n    /* \"#utility.yul\":5309:5335   */\n  mload\n    /* \"#utility.yul\":5300:5335   */\n  swap1\n  pop\n    /* \"#utility.yul\":5272:5349   */\ntag_84:\n    /* \"#utility.yul\":5375:5442   */\n  tag_85\n    /* \"#utility.yul\":5435:5441   */\n  dup6\n    /* \"#utility.yul\":5428:5433   */\n  dup3\n    /* \"#utility.yul\":5375:5442   */\n  tag_28\n  jump\t// in\ntag_85:\n    /* \"#utility.yul\":5369:5373   */\n  dup7\n    /* \"#utility.yul\":5362:5443   */\n  sstore\n    /* \"#utility.yul\":5231:5453   */\n  pop\n    /* \"#utility.yul\":4566:5453   */\n  jump(tag_82)\n    /* \"#utility.yul\":4596:5214   */\ntag_83:\n    /* \"#utility.yul\":4648:4652   */\n  0x1f\n    /* \"#utility.yul\":4644:4653   */\n  not\n    /* \"#utility.yul\":4636:4642   */\n  dup5\n    /* \"#utility.yul\":4632:4654   */\n  and\n    /* \"#utility.yul\":4682:4719   */\n  tag_86\n    /* \"#utility.yul\":4714:4718   */\n  dup7\n    /* \"#utility.yul\":4682:4719   */\n  tag_13\n  jump\t// in\ntag_86:\n    /* \"#utility.yul\":4741:4742   */\n  0x00\n    /* \"#utility.yul\":4755:4963   */\ntag_87:\n    /* \"#utility.yul\":4769:4776   */\n  dup3\n    /* \"#utility.yul\":4766:4767   */\n  dup2\n    /* \"#utility.yul\":4763:4777   */\n  lt\n    /* \"#utility.yul\":4755:4963   */\n  iszero\n  tag_89\n  jumpi\n    /* \"#utility.yul\":4848:4857   */\n  dup5\n    /* \"#utility.yul\":4843:4846   */\n  dup10\n    /* \"#utility.yul\":4839:4858   */\n  add\n    /* \"#utility.yul\":4833:4859   */\n  mload\n    /* \"#utility.yul\":4825:4831   */\n  dup3\n    /* \"#utility.yul\":4818:4860   */\n  sstore\n    /* \"#utility.yul\":4899:4900   */\n  0x01\n    /* \"#utility.yul\":4891:4897   */\n  dup3\n    /* \"#utility.yul\":4887:4901   */\n  add\n    /* \"#utility.yul\":4877:4901   */\n  swap2\n  pop\n    /* \"#utility.yul\":4946:4948   */\n  0x20\n    /* \"#utility.yul\":4935:4944   */\n  dup6\n    /* \"#utility.yul\":4931:4949   */\n  add\n    /* \"#utility.yul\":4918:4949   */\n  swap5\n  pop\n    /* \"#utility.yul\":4792:4796   */\n  0x20\n    /* \"#utility.yul\":4789:4790   */\n  dup2\n    /* \"#utility.yul\":4785:4797   */\n  add\n    /* \"#utility.yul\":4780:4797   */\n  swap1\n  pop\n    /* \"#utility.yul\":4755:4963   */\n  jump(tag_87)\ntag_89:\n    /* \"#utility.yul\":4991:4997   */\n  dup7\n    /* \"#utility.yul\":4982:4989   */\n  dup4\n    /* \"#utility.yul\":4979:4998   */\n  lt\n    /* \"#utility.yul\":4976:5155   */\n  iszero\n  tag_90\n  jumpi\n    /* \"#utility.yul\":5049:5058   */\n  dup5\n    /* \"#utility.yul\":5044:5047   */\n  dup10\n    /* \"#utility.yul\":5040:5059   */\n  add\n    /* \"#utility.yul\":5034:5060   */\n  mload\n    /* \"#utility.yul\":5092:5140   */\n  tag_91\n    /* \"#utility.yul\":5134:5138   */\n  0x1f\n    /* \"#utility.yul\":5126:5132   */\n  dup10\n    /* \"#utility.yul\":5122:5139   */\n  and\n    /* \"#utility.yul\":5111:5120   */\n  dup3\n    /* \"#utility.yul\":5092:5140   */\n  tag_27\n  jump\t// in\ntag_91:\n    /* \"#utility.yul\":5084:5090   */\n  dup4\n    /* \"#utility.yul\":5077:5141   */\n  sstore\n    /* \"#utility.yul\":4999:5155   */\n  pop\n    /* \"#utility.yul\":4976:5155   */\ntag_90:\n    /* \"#utility.yul\":5201:5202   */\n  0x01\n    /* \"#utility.yul\":5197:5198   */\n  0x02\n    /* \"#utility.yul\":5189:5195   */\n  dup9\n    /* \"#utility.yul\":5185:5199   */\n  mul\n    /* \"#utility.yul\":5181:5203   */\n  add\n    /* \"#utility.yul\":5175:5179   */\n  dup9\n    /* \"#utility.yul\":5168:5204   */\n  sstore\n    /* \"#utility.yul\":4603:5214   */\n  pop\n  pop\n  pop\n    /* \"#utility.yul\":4566:5453   */\ntag_82:\n  pop\n    /* \"#utility.yul\":4156:5459   */\n  pop\n  pop\n  pop\n    /* \"#utility.yul\":4064:5459   */\n  pop\n  pop\n  jump\t// out\n    /* \"pStorage/contract.sol\":58:1594  contract StorageLab {... */\ntag_8:\n  dataSize(sub_0)\n  dup1\n  dataOffset(sub_0)\n  0x00\n  codecopy\n  0x00\n  return\nstop\n\nsub_0: assembly {\n        /* \"pStorage/contract.sol\":58:1594  contract StorageLab {... */\n      mstore(0x40, 0x80)\n      callvalue\n      dup1\n      iszero\n      tag_1\n      jumpi\n      revert(0x00, 0x00)\n    tag_1:\n      pop\n      jumpi(tag_2, lt(calldatasize, 0x04))\n      shr(0xe0, calldataload(0x00))\n      dup1\n      0x4df7e3d0\n      gt\n      tag_12\n      jumpi\n      dup1\n      0x4df7e3d0\n      eq\n      tag_7\n      jumpi\n      dup1\n      0x4f628d84\n      eq\n      tag_8\n      jumpi\n      dup1\n      0x7284e416\n      eq\n      tag_9\n      jumpi\n      dup1\n      0xa87430ba\n      eq\n      tag_10\n      jumpi\n      dup1\n      0xc3da42b8\n      eq\n      tag_11\n      jumpi\n      jump(tag_2)\n    tag_12:\n      dup1\n      0x0a79fa20\n      eq\n      tag_3\n      jumpi\n      dup1\n      0x0dbe671f\n      eq\n      tag_4\n      jumpi\n      dup1\n      0x2ee691a3\n      eq\n      tag_5\n      jumpi\n      dup1\n      0x44638a4c\n      eq\n      tag_6\n      jumpi\n    tag_2:\n      revert(0x00, 0x00)\n        /* \"pStorage/contract.sol\":1373:1459  function setbalnce(uint256 amount) public {... */\n    tag_3:\n      tag_13\n      0x04\n      dup1\n      calldatasize\n      sub\n      dup2\n      add\n      swap1\n      tag_14\n      swap2\n      swap1\n      tag_15\n      jump\t// in\n    tag_14:\n      tag_16\n      jump\t// in\n    tag_13:\n      stop\n        /* \"pStorage/contract.sol\":223:276  uint128 public a = 0xAAAAAAAAAAAAAAAAAAAAAAAAAAAAAAAA */\n    tag_4:\n      tag_17\n      tag_18\n      jump\t// in\n    tag_17:\n      mload(0x40)\n      tag_19\n      swap2\n      swap1\n      tag_20\n      jump\t// in\n    tag_19:\n      mload(0x40)\n      dup1\n      swap2\n      sub\n      swap1\n      return\n        /* \"pStorage/contract.sol\":600:623  uint256[] public scores */\n    tag_5:\n      tag_21\n      0x04\n      dup1\n      calldatasize\n      sub\n      dup2\n      add\n      swap1\n      tag_22\n      swap2\n      swap1\n      tag_15\n      jump\t// in\n    tag_22:\n      tag_23\n      jump\t// in\n    tag_21:\n      mload(0x40)\n      tag_24\n      swap2\n      swap1\n      tag_25\n      jump\t// in\n    tag_24:\n      mload(0x40)\n      dup1\n      swap2\n      sub\n      swap1\n      return\n        /* \"pStorage/contract.sol\":1465:1592  function setUser(address addr, uint128 bal, uint128 pts, uint256 _id) public {... */\n    tag_6:\n      tag_26\n      0x04\n      dup1\n      calldatasize\n      sub\n      dup2\n      add\n      swap1\n      tag_27\n      swap2\n      swap1\n      tag_28\n      jump\t// in\n    tag_27:\n      tag_29\n      jump\t// in\n    tag_26:\n      stop\n        /* \"pStorage/contract.sol\":283:320  uint64  public b = 0xBBBBBBBBBBBBBBBB */\n    tag_7:\n      tag_30\n      tag_31\n      jump\t// in\n    tag_30:\n      mload(0x40)\n      tag_32\n      swap2\n      swap1\n      tag_33\n      jump\t// in\n    tag_32:\n      mload(0x40)\n      dup1\n      swap2\n      sub\n      swap1\n      return\n        /* \"pStorage/contract.sol\":1220:1367  function setLongString() public {... */\n    tag_8:\n      tag_34\n      tag_35\n      jump\t// in\n    tag_34:\n      stop\n        /* \"pStorage/contract.sol\":461:496  string public description = \"Short\" */\n    tag_9:\n      tag_36\n      tag_37\n      jump\t// in\n    tag_36:\n      mload(0x40)\n      tag_38\n      swap2\n      swap1\n      tag_39\n      jump\t// in\n    tag_38:\n      mload(0x40)\n      dup1\n      swap2\n      sub\n      swap1\n      return\n        /* \"pStorage/contract.sol\":1012:1049  mapping(address => User) public users */\n    tag_10:\n      tag_40\n      0x04\n      dup1\n      calldatasize\n      sub\n      dup2\n      add\n      swap1\n      tag_41\n      swap2\n      swap1\n      tag_42\n      jump\t// in\n    tag_41:\n      tag_43\n      jump\t// in\n    tag_40:\n      mload(0x40)\n      tag_44\n      swap4\n      swap3\n      swap2\n      swap1\n      tag_45\n      jump\t// in\n    tag_44:\n      mload(0x40)\n      dup1\n      swap2\n      sub\n      swap1\n      return\n        /* \"pStorage/contract.sol\":326:355  uint32  public c = 0xCCCCCCCC */\n    tag_11:\n      tag_46\n      tag_47\n      jump\t// in\n    tag_46:\n      mload(0x40)\n      tag_48\n      swap2\n      swap1\n      tag_49\n      jump\t// in\n    tag_48:\n      mload(0x40)\n      dup1\n      swap2\n      sub\n      swap1\n      return\n        /* \"pStorage/contract.sol\":1373:1459  function setbalnce(uint256 amount) public {... */\n    tag_16:\n        /* \"pStorage/contract.sol\":1446:1452  amount */\n      dup1\n        /* \"pStorage/contract.sol\":1424:1431  balance */\n      0x04\n        /* \"pStorage/contract.sol\":1424:1443  balance[msg.sender] */\n      0x00\n        /* \"pStorage/contract.sol\":1432:1442  msg.sender */\n      caller\n        /* \"pStorage/contract.sol\":1424:1443  balance[msg.sender] */\n      0xffffffffffffffffffffffffffffffffffffffff\n      and\n      0xffffffffffffffffffffffffffffffffffffffff\n      and\n      dup2\n      mstore\n      0x20\n      add\n      swap1\n      dup2\n      mstore\n      0x20\n      add\n      0x00\n      keccak256\n        /* \"pStorage/contract.sol\":1424:1452  balance[msg.sender] = amount */\n      dup2\n      swap1\n      sstore\n      pop\n        /* \"pStorage/contract.sol\":1373:1459  function setbalnce(uint256 amount) public {... */\n      pop\n      jump\t// out\n        /* \"pStorage/contract.sol\":223:276  uint128 public a = 0xAAAAAAAAAAAAAAAAAAAAAAAAAAAAAAAA */\n    tag_18:\n      0x00\n      0x00\n      swap1\n      sload\n      swap1\n      0x0100\n      exp\n      swap1\n      div\n      0xffffffffffffffffffffffffffffffff\n      and\n      dup2\n      jump\t// out\n        /* \"pStorage/contract.sol\":600:623  uint256[] public scores */\n    tag_23:\n      0x02\n      dup2\n      dup2\n      sload\n      dup2\n      lt\n      tag_51\n      jumpi\n      0x00\n      dup1\n      revert\n    tag_51:\n      swap1\n      0x00\n      mstore\n      keccak256(0x00, 0x20)\n      add\n      0x00\n      swap2\n      pop\n      swap1\n      pop\n      sload\n      dup2\n      jump\t// out\n        /* \"pStorage/contract.sol\":1465:1592  function setUser(address addr, uint128 bal, uint128 pts, uint256 _id) public {... */\n    tag_29:\n        /* \"pStorage/contract.sol\":1566:1585  User(bal, pts, _id) */\n      mload(0x40)\n      dup1\n      0x60\n      add\n      0x40\n      mstore\n      dup1\n        /* \"pStorage/contract.sol\":1571:1574  bal */\n      dup5\n        /* \"pStorage/contract.sol\":1566:1585  User(bal, pts, _id) */\n      0xffffffffffffffffffffffffffffffff\n      and\n      dup2\n      mstore\n      0x20\n      add\n        /* \"pStorage/contract.sol\":1576:1579  pts */\n      dup4\n        /* \"pStorage/contract.sol\":1566:1585  User(bal, pts, _id) */\n      0xffffffffffffffffffffffffffffffff\n      and\n      dup2\n      mstore\n      0x20\n      add\n        /* \"pStorage/contract.sol\":1581:1584  _id */\n      dup3\n        /* \"pStorage/contract.sol\":1566:1585  User(bal, pts, _id) */\n      dup2\n      mstore\n      pop\n        /* \"pStorage/contract.sol\":1552:1557  users */\n      0x03\n        /* \"pStorage/contract.sol\":1552:1563  users[addr] */\n      0x00\n        /* \"pStorage/contract.sol\":1558:1562  addr */\n      dup7\n        /* \"pStorage/contract.sol\":1552:1563  users[addr] */\n      0xffffffffffffffffffffffffffffffffffffffff\n      and\n      0xffffffffffffffffffffffffffffffffffffffff\n      and\n      dup2\n      mstore\n      0x20\n      add\n      swap1\n      dup2\n      mstore\n      0x20\n      add\n      0x00\n      keccak256\n        /* \"pStorage/contract.sol\":1552:1585  users[addr] = User(bal, pts, _id) */\n      0x00\n      dup3\n      add\n      mload\n      dup2\n      0x00\n      add\n      exp(0x0100, 0x00)\n      dup2\n      sload\n      dup2\n      0xffffffffffffffffffffffffffffffff\n      mul\n      not\n      and\n      swap1\n      dup4\n      0xffffffffffffffffffffffffffffffff\n      and\n      mul\n      or\n      swap1\n      sstore\n      pop\n      0x20\n      dup3\n      add\n      mload\n      dup2\n      0x00\n      add\n      exp(0x0100, 0x10)\n      dup2\n      sload\n      dup2\n      0xffffffffffffffffffffffffffffffff\n      mul\n      not\n      and\n      swap1\n      dup4\n      0xffffffffffffffffffffffffffffffff\n      and\n      mul\n      or\n      swap1\n      sstore\n      pop\n      0x40\n      dup3\n      add\n      mload\n      dup2\n      0x01\n      add\n      sstore\n      swap1\n      pop\n      pop\n        /* \"pStorage/contract.sol\":1465:1592  function setUser(address addr, uint128 bal, uint128 pts, uint256 _id) public {... */\n      pop\n      pop\n      pop\n      pop\n      jump\t// out\n        /* \"pStorage/contract.sol\":283:320  uint64  public b = 0xBBBBBBBBBBBBBBBB */\n    tag_31:\n      0x00\n      0x10\n      swap1\n      sload\n      swap1\n      0x0100\n      exp\n      swap1\n      div\n      0xffffffffffffffff\n      and\n      dup2\n      jump\t// out\n        /* \"pStorage/contract.sol\":1220:1367  function setLongString() public {... */\n    tag_35:\n        /* \"pStorage/contract.sol\":1262:1360  description = \"This is a very long string that will definitely trigger the long storage strategy!\" */\n      mload(0x40)\n      dup1\n      0x80\n      add\n      0x40\n      mstore\n      dup1\n      0x52\n      dup2\n      mstore\n      0x20\n      add\n      data_f27a38662b0aa596971a009b08ee6bd2223c11726b566d02cdf2825b00e39e84\n      0x52\n      swap2\n      codecopy\n        /* \"pStorage/contract.sol\":1262:1273  description */\n      0x01\n        /* \"pStorage/contract.sol\":1262:1360  description = \"This is a very long string that will definitely trigger the long storage strategy!\" */\n      swap1\n      dup2\n      tag_55\n      swap2\n      swap1\n      tag_56\n      jump\t// in\n    tag_55:\n      pop\n        /* \"pStorage/contract.sol\":1220:1367  function setLongString() public {... */\n      jump\t// out\n        /* \"pStorage/contract.sol\":461:496  string public description = \"Short\" */\n    tag_37:\n      0x01\n      dup1\n      sload\n      tag_57\n      swap1\n      tag_58\n      jump\t// in\n    tag_57:\n      dup1\n      0x1f\n      add\n      0x20\n      dup1\n      swap2\n      div\n      mul\n      0x20\n      add\n      mload(0x40)\n      swap1\n      dup2\n      add\n      0x40\n      mstore\n      dup1\n      swap3\n      swap2\n      swap1\n      dup2\n      dup2\n      mstore\n      0x20\n      add\n      dup3\n      dup1\n      sload\n      tag_59\n      swap1\n      tag_58\n      jump\t// in\n    tag_59:\n      dup1\n      iszero\n      tag_60\n      jumpi\n      dup1\n      0x1f\n      lt\n      tag_61\n      jumpi\n      0x0100\n      dup1\n      dup4\n      sload\n      div\n      mul\n      dup4\n      mstore\n      swap2\n      0x20\n      add\n      swap2\n      jump(tag_60)\n    tag_61:\n      dup3\n      add\n      swap2\n      swap1\n      0x00\n      mstore\n      keccak256(0x00, 0x20)\n      swap1\n    tag_62:\n      dup2\n      sload\n      dup2\n      mstore\n      swap1\n      0x01\n      add\n      swap1\n      0x20\n      add\n      dup1\n      dup4\n      gt\n      tag_62\n      jumpi\n      dup3\n      swap1\n      sub\n      0x1f\n      and\n      dup3\n      add\n      swap2\n    tag_60:\n      pop\n      pop\n      pop\n      pop\n      pop\n      dup2\n      jump\t// out\n        /* \"pStorage/contract.sol\":1012:1049  mapping(address => User) public users */\n    tag_43:\n      mstore(0x20, 0x03)\n      dup1\n      0x00\n      mstore\n      keccak256(0x00, 0x40)\n      0x00\n      swap2\n      pop\n      swap1\n      pop\n      dup1\n      0x00\n      add\n      0x00\n      swap1\n      sload\n      swap1\n      0x0100\n      exp\n      swap1\n      div\n      0xffffffffffffffffffffffffffffffff\n      and\n      swap1\n      dup1\n      0x00\n      add\n      0x10\n      swap1\n      sload\n      swap1\n      0x0100\n      exp\n      swap1\n      div\n      0xffffffffffffffffffffffffffffffff\n      and\n      swap1\n      dup1\n      0x01\n      add\n      sload\n      swap1\n      pop\n      dup4\n      jump\t// out\n        /* \"pStorage/contract.sol\":326:355  uint32  public c = 0xCCCCCCCC */\n    tag_47:\n      0x00\n      0x18\n      swap1\n      sload\n      swap1\n      0x0100\n      exp\n      swap1\n      div\n      0xffffffff\n      and\n      dup2\n      jump\t// out\n        /* \"#utility.yul\":88:205   */\n    tag_64:\n        /* \"#utility.yul\":197:198   */\n      0x00\n        /* \"#utility.yul\":194:195   */\n      0x00\n        /* \"#utility.yul\":187:199   */\n      revert\n        /* \"#utility.yul\":334:411   */\n    tag_66:\n        /* \"#utility.yul\":371:378   */\n      0x00\n        /* \"#utility.yul\":400:405   */\n      dup2\n        /* \"#utility.yul\":389:405   */\n      swap1\n      pop\n        /* \"#utility.yul\":334:411   */\n      swap2\n      swap1\n      pop\n      jump\t// out\n        /* \"#utility.yul\":417:539   */\n    tag_67:\n        /* \"#utility.yul\":490:514   */\n      tag_110\n        /* \"#utility.yul\":508:513   */\n      dup2\n        /* \"#utility.yul\":490:514   */\n      tag_66\n      jump\t// in\n    tag_110:\n        /* \"#utility.yul\":483:488   */\n      dup2\n        /* \"#utility.yul\":480:515   */\n      eq\n        /* \"#utility.yul\":470:533   */\n      tag_111\n      jumpi\n        /* \"#utility.yul\":529:530   */\n      0x00\n        /* \"#utility.yul\":526:527   */\n      0x00\n        /* \"#utility.yul\":519:531   */\n      revert\n        /* \"#utility.yul\":470:533   */\n    tag_111:\n        /* \"#utility.yul\":417:539   */\n      pop\n      jump\t// out\n        /* \"#utility.yul\":545:684   */\n    tag_68:\n        /* \"#utility.yul\":591:596   */\n      0x00\n        /* \"#utility.yul\":629:635   */\n      dup2\n        /* \"#utility.yul\":616:636   */\n      calldataload\n        /* \"#utility.yul\":607:636   */\n      swap1\n      pop\n        /* \"#utility.yul\":645:678   */\n      tag_113\n        /* \"#utility.yul\":672:677   */\n      dup2\n        /* \"#utility.yul\":645:678   */\n      tag_67\n      jump\t// in\n    tag_113:\n        /* \"#utility.yul\":545:684   */\n      swap3\n      swap2\n      pop\n      pop\n      jump\t// out\n        /* \"#utility.yul\":690:1019   */\n    tag_15:\n        /* \"#utility.yul\":749:755   */\n      0x00\n        /* \"#utility.yul\":798:800   */\n      0x20\n        /* \"#utility.yul\":786:795   */\n      dup3\n        /* \"#utility.yul\":777:784   */\n      dup5\n        /* \"#utility.yul\":773:796   */\n      sub\n        /* \"#utility.yul\":769:801   */\n      slt\n        /* \"#utility.yul\":766:885   */\n      iszero\n      tag_115\n      jumpi\n        /* \"#utility.yul\":804:883   */\n      tag_116\n      tag_64\n      jump\t// in\n    tag_116:\n        /* \"#utility.yul\":766:885   */\n    tag_115:\n        /* \"#utility.yul\":924:925   */\n      0x00\n        /* \"#utility.yul\":949:1002   */\n      tag_117\n        /* \"#utility.yul\":994:1001   */\n      dup5\n        /* \"#utility.yul\":985:991   */\n      dup3\n        /* \"#utility.yul\":974:983   */\n      dup6\n        /* \"#utility.yul\":970:992   */\n      add\n        /* \"#utility.yul\":949:1002   */\n      tag_68\n      jump\t// in\n    tag_117:\n        /* \"#utility.yul\":939:1002   */\n      swap2\n      pop\n        /* \"#utility.yul\":895:1012   */\n      pop\n        /* \"#utility.yul\":690:1019   */\n      swap3\n      swap2\n      pop\n      pop\n      jump\t// out\n        /* \"#utility.yul\":1025:1143   */\n    tag_69:\n        /* \"#utility.yul\":1062:1069   */\n      0x00\n        /* \"#utility.yul\":1102:1136   */\n      0xffffffffffffffffffffffffffffffff\n        /* \"#utility.yul\":1095:1100   */\n      dup3\n        /* \"#utility.yul\":1091:1137   */\n      and\n        /* \"#utility.yul\":1080:1137   */\n      swap1\n      pop\n        /* \"#utility.yul\":1025:1143   */\n      swap2\n      swap1\n      pop\n      jump\t// out\n        /* \"#utility.yul\":1149:1267   */\n    tag_70:\n        /* \"#utility.yul\":1236:1260   */\n      tag_120\n        /* \"#utility.yul\":1254:1259   */\n      dup2\n        /* \"#utility.yul\":1236:1260   */\n      tag_69\n      jump\t// in\n    tag_120:\n        /* \"#utility.yul\":1231:1234   */\n      dup3\n        /* \"#utility.yul\":1224:1261   */\n      mstore\n        /* \"#utility.yul\":1149:1267   */\n      pop\n      pop\n      jump\t// out\n        /* \"#utility.yul\":1273:1495   */\n    tag_20:\n        /* \"#utility.yul\":1366:1370   */\n      0x00\n        /* \"#utility.yul\":1404:1406   */\n      0x20\n        /* \"#utility.yul\":1393:1402   */\n      dup3\n        /* \"#utility.yul\":1389:1407   */\n      add\n        /* \"#utility.yul\":1381:1407   */\n      swap1\n      pop\n        /* \"#utility.yul\":1417:1488   */\n      tag_122\n        /* \"#utility.yul\":1485:1486   */\n      0x00\n        /* \"#utility.yul\":1474:1483   */\n      dup4\n        /* \"#utility.yul\":1470:1487   */\n      add\n        /* \"#utility.yul\":1461:1467   */\n      dup5\n        /* \"#utility.yul\":1417:1488   */\n      tag_70\n      jump\t// in\n    tag_122:\n        /* \"#utility.yul\":1273:1495   */\n      swap3\n      swap2\n      pop\n      pop\n      jump\t// out\n        /* \"#utility.yul\":1501:1619   */\n    tag_71:\n        /* \"#utility.yul\":1588:1612   */\n      tag_124\n        /* \"#utility.yul\":1606:1611   */\n      dup2\n        /* \"#utility.yul\":1588:1612   */\n      tag_66\n      jump\t// in\n    tag_124:\n        /* \"#utility.yul\":1583:1586   */\n      dup3\n        /* \"#utility.yul\":1576:1613   */\n      mstore\n        /* \"#utility.yul\":1501:1619   */\n      pop\n      pop\n      jump\t// out\n        /* \"#utility.yul\":1625:1847   */\n    tag_25:\n        /* \"#utility.yul\":1718:1722   */\n      0x00\n        /* \"#utility.yul\":1756:1758   */\n      0x20\n        /* \"#utility.yul\":1745:1754   */\n      dup3\n        /* \"#utility.yul\":1741:1759   */\n      add\n        /* \"#utility.yul\":1733:1759   */\n      swap1\n      pop\n        /* \"#utility.yul\":1769:1840   */\n      tag_126\n        /* \"#utility.yul\":1837:1838   */\n      0x00\n        /* \"#utility.yul\":1826:1835   */\n      dup4\n        /* \"#utility.yul\":1822:1839   */\n      add\n        /* \"#utility.yul\":1813:1819   */\n      dup5\n        /* \"#utility.yul\":1769:1840   */\n      tag_71\n      jump\t// in\n    tag_126:\n        /* \"#utility.yul\":1625:1847   */\n      swap3\n      swap2\n      pop\n      pop\n      jump\t// out\n        /* \"#utility.yul\":1853:1979   */\n    tag_72:\n        /* \"#utility.yul\":1890:1897   */\n      0x00\n        /* \"#utility.yul\":1930:1972   */\n      0xffffffffffffffffffffffffffffffffffffffff\n        /* \"#utility.yul\":1923:1928   */\n      dup3\n        /* \"#utility.yul\":1919:1973   */\n      and\n        /* \"#utility.yul\":1908:1973   */\n      swap1\n      pop\n        /* \"#utility.yul\":1853:1979   */\n      swap2\n      swap1\n      pop\n      jump\t// out\n        /* \"#utility.yul\":1985:2081   */\n    tag_73:\n        /* \"#utility.yul\":2022:2029   */\n      0x00\n        /* \"#utility.yul\":2051:2075   */\n      tag_129\n        /* \"#utility.yul\":2069:2074   */\n      dup3\n        /* \"#utility.yul\":2051:2075   */\n      tag_72\n      jump\t// in\n    tag_129:\n        /* \"#utility.yul\":2040:2075   */\n      swap1\n      pop\n        /* \"#utility.yul\":1985:2081   */\n      swap2\n      swap1\n      pop\n      jump\t// out\n        /* \"#utility.yul\":2087:2209   */\n    tag_74:\n        /* \"#utility.yul\":2160:2184   */\n      tag_131\n        /* \"#utility.yul\":2178:2183   */\n      dup2\n        /* \"#utility.yul\":2160:2184   */\n      tag_73\n      jump\t// in\n    tag_131:\n        /* \"#utility.yul\":2153:2158   */\n      dup2\n        /* \"#utility.yul\":2150:2185   */\n      eq\n        /* \"#utility.yul\":2140:2203   */\n      tag_132\n      jumpi\n        /* \"#utility.yul\":2199:2200   */\n      0x00\n        /* \"#utility.yul\":2196:2197   */\n      0x00\n        /* \"#utility.yul\":2189:2201   */\n      revert\n        /* \"#utility.yul\":2140:2203   */\n    tag_132:\n        /* \"#utility.yul\":2087:2209   */\n      pop\n      jump\t// out\n        /* \"#utility.yul\":2215:2354   */\n    tag_75:\n        /* \"#utility.yul\":2261:2266   */\n      0x00\n        /* \"#utility.yul\":2299:2305   */\n      dup2\n        /* \"#utility.yul\":2286:2306   */\n      calldataload\n        /* \"#utility.yul\":2277:2306   */\n      swap1\n      pop\n        /* \"#utility.yul\":2315:2348   */\n      tag_134\n        /* \"#utility.yul\":2342:2347   */\n      dup2\n        /* \"#utility.yul\":2315:2348   */\n      tag_74\n      jump\t// in\n    tag_134:\n        /* \"#utility.yul\":2215:2354   */\n      swap3\n      swap2\n      pop\n      pop\n      jump\t// out\n        /* \"#utility.yul\":2360:2482   */\n    tag_76:\n        /* \"#utility.yul\":2433:2457   */\n      tag_136\n        /* \"#utility.yul\":2451:2456   */\n      dup2\n        /* \"#utility.yul\":2433:2457   */\n      tag_69\n      jump\t// in\n    tag_136:\n        /* \"#utility.yul\":2426:2431   */\n      dup2\n        /* \"#utility.yul\":2423:2458   */\n      eq\n        /* \"#utility.yul\":2413:2476   */\n      tag_137\n      jumpi\n        /* \"#utility.yul\":2472:2473   */\n      0x00\n        /* \"#utility.yul\":2469:2470   */\n      0x00\n        /* \"#utility.yul\":2462:2474   */\n      revert\n        /* \"#utility.yul\":2413:2476   */\n    tag_137:\n        /* \"#utility.yul\":2360:2482   */\n      pop\n      jump\t// out\n        /* \"#utility.yul\":2488:2627   */\n    tag_77:\n        /* \"#utility.yul\":2534:2539   */\n      0x00\n        /* \"#utility.yul\":2572:2578   */\n      dup2\n        /* \"#utility.yul\":2559:2579   */\n      calldataload\n        /* \"#utility.yul\":2550:2579   */\n      swap1\n      pop\n        /* \"#utility.yul\":2588:2621   */\n      tag_139\n        /* \"#utility.yul\":2615:2620   */\n      dup2\n        /* \"#utility.yul\":2588:2621   */\n      tag_76\n      jump\t// in\n    tag_139:\n        /* \"#utility.yul\":2488:2627   */\n      swap3\n      swap2\n      pop\n      pop\n      jump\t// out\n        /* \"#utility.yul\":2633:3398   */\n    tag_28:\n        /* \"#utility.yul\":2719:2725   */\n      0x00\n        /* \"#utility.yul\":2727:2733   */\n      0x00\n        /* \"#utility.yul\":2735:2741   */\n      0x00\n        /* \"#utility.yul\":2743:2749   */\n      0x00\n        /* \"#utility.yul\":2792:2795   */\n      0x80\n        /* \"#utility.yul\":2780:2789   */\n      dup6\n        /* \"#utility.yul\":2771:2778   */\n      dup8\n        /* \"#utility.yul\":2767:2790   */\n      sub\n        /* \"#utility.yul\":2763:2796   */\n      slt\n        /* \"#utility.yul\":2760:2880   */\n      iszero\n      tag_141\n      jumpi\n        /* \"#utility.yul\":2799:2878   */\n      tag_142\n      tag_64\n      jump\t// in\n    tag_142:\n        /* \"#utility.yul\":2760:2880   */\n    tag_141:\n        /* \"#utility.yul\":2919:2920   */\n      0x00\n        /* \"#utility.yul\":2944:2997   */\n      tag_143\n        /* \"#utility.yul\":2989:2996   */\n      dup8\n        /* \"#utility.yul\":2980:2986   */\n      dup3\n        /* \"#utility.yul\":2969:2978   */\n      dup9\n        /* \"#utility.yul\":2965:2987   */\n      add\n        /* \"#utility.yul\":2944:2997   */\n      tag_75\n      jump\t// in\n    tag_143:\n        /* \"#utility.yul\":2934:2997   */\n      swap5\n      pop\n        /* \"#utility.yul\":2890:3007   */\n      pop\n        /* \"#utility.yul\":3046:3048   */\n      0x20\n        /* \"#utility.yul\":3072:3125   */\n      tag_144\n        /* \"#utility.yul\":3117:3124   */\n      dup8\n        /* \"#utility.yul\":3108:3114   */\n      dup3\n        /* \"#utility.yul\":3097:3106   */\n      dup9\n        /* \"#utility.yul\":3093:3115   */\n      add\n        /* \"#utility.yul\":3072:3125   */\n      tag_77\n      jump\t// in\n    tag_144:\n        /* \"#utility.yul\":3062:3125   */\n      swap4\n      pop\n        /* \"#utility.yul\":3017:3135   */\n      pop\n        /* \"#utility.yul\":3174:3176   */\n      0x40\n        /* \"#utility.yul\":3200:3253   */\n      tag_145\n        /* \"#utility.yul\":3245:3252   */\n      dup8\n        /* \"#utility.yul\":3236:3242   */\n      dup3\n        /* \"#utility.yul\":3225:3234   */\n      dup9\n        /* \"#utility.yul\":3221:3243   */\n      add\n        /* \"#utility.yul\":3200:3253   */\n      tag_77\n      jump\t// in\n    tag_145:\n        /* \"#utility.yul\":3190:3253   */\n      swap3\n      pop\n        /* \"#utility.yul\":3145:3263   */\n      pop\n        /* \"#utility.yul\":3302:3304   */\n      0x60\n        /* \"#utility.yul\":3328:3381   */\n      tag_146\n        /* \"#utility.yul\":3373:3380   */\n      dup8\n        /* \"#utility.yul\":3364:3370   */\n      dup3\n        /* \"#utility.yul\":3353:3362   */\n      dup9\n        /* \"#utility.yul\":3349:3371   */\n      add\n        /* \"#utility.yul\":3328:3381   */\n      tag_68\n      jump\t// in\n    tag_146:\n        /* \"#utility.yul\":3318:3381   */\n      swap2\n      pop\n        /* \"#utility.yul\":3273:3391   */\n      pop\n        /* \"#utility.yul\":2633:3398   */\n      swap3\n      swap6\n      swap2\n      swap5\n      pop\n      swap3\n      pop\n      jump\t// out\n        /* \"#utility.yul\":3404:3505   */\n    tag_78:\n        /* \"#utility.yul\":3440:3447   */\n      0x00\n        /* \"#utility.yul\":3480:3498   */\n      0xffffffffffffffff\n        /* \"#utility.yul\":3473:3478   */\n      dup3\n        /* \"#utility.yul\":3469:3499   */\n      and\n        /* \"#utility.yul\":3458:3499   */\n      swap1\n      pop\n        /* \"#utility.yul\":3404:3505   */\n      swap2\n      swap1\n      pop\n      jump\t// out\n        /* \"#utility.yul\":3511:3626   */\n    tag_79:\n        /* \"#utility.yul\":3596:3619   */\n      tag_149\n        /* \"#utility.yul\":3613:3618   */\n      dup2\n        /* \"#utility.yul\":3596:3619   */\n      tag_78\n      jump\t// in\n    tag_149:\n        /* \"#utility.yul\":3591:3594   */\n      dup3\n        /* \"#utility.yul\":3584:3620   */\n      mstore\n        /* \"#utility.yul\":3511:3626   */\n      pop\n      pop\n      jump\t// out\n        /* \"#utility.yul\":3632:3850   */\n    tag_33:\n        /* \"#utility.yul\":3723:3727   */\n      0x00\n        /* \"#utility.yul\":3761:3763   */\n      0x20\n        /* \"#utility.yul\":3750:3759   */\n      dup3\n        /* \"#utility.yul\":3746:3764   */\n      add\n        /* \"#utility.yul\":3738:3764   */\n      swap1\n      pop\n        /* \"#utility.yul\":3774:3843   */\n      tag_151\n        /* \"#utility.yul\":3840:3841   */\n      0x00\n        /* \"#utility.yul\":3829:3838   */\n      dup4\n        /* \"#utility.yul\":3825:3842   */\n      add\n        /* \"#utility.yul\":3816:3822   */\n      dup5\n        /* \"#utility.yul\":3774:3843   */\n      tag_79\n      jump\t// in\n    tag_151:\n        /* \"#utility.yul\":3632:3850   */\n      swap3\n      swap2\n      pop\n      pop\n      jump\t// out\n        /* \"#utility.yul\":3856:3955   */\n    tag_80:\n        /* \"#utility.yul\":3908:3914   */\n      0x00\n        /* \"#utility.yul\":3942:3947   */\n      dup2\n        /* \"#utility.yul\":3936:3948   */\n      mload\n        /* \"#utility.yul\":3926:3948   */\n      swap1\n      pop\n        /* \"#utility.yul\":3856:3955   */\n      swap2\n      swap1\n      pop\n      jump\t// out\n        /* \"#utility.yul\":3961:4130   */\n    tag_81:\n        /* \"#utility.yul\":4045:4056   */\n      0x00\n        /* \"#utility.yul\":4079:4085   */\n      dup3\n        /* \"#utility.yul\":4074:4077   */\n      dup3\n        /* \"#utility.yul\":4067:4086   */\n      mstore\n        /* \"#utility.yul\":4119:4123   */\n      0x20\n        /* \"#utility.yul\":4114:4117   */\n      dup3\n        /* \"#utility.yul\":4110:4124   */\n      add\n        /* \"#utility.yul\":4095:4124   */\n      swap1\n      pop\n        /* \"#utility.yul\":3961:4130   */\n      swap3\n      swap2\n      pop\n      pop\n      jump\t// out\n        /* \"#utility.yul\":4136:4275   */\n    tag_82:\n        /* \"#utility.yul\":4225:4231   */\n      dup3\n        /* \"#utility.yul\":4220:4223   */\n      dup2\n        /* \"#utility.yul\":4215:4218   */\n      dup4\n        /* \"#utility.yul\":4209:4232   */\n      mcopy\n        /* \"#utility.yul\":4266:4267   */\n      0x00\n        /* \"#utility.yul\":4257:4263   */\n      dup4\n        /* \"#utility.yul\":4252:4255   */\n      dup4\n        /* \"#utility.yul\":4248:4264   */\n      add\n        /* \"#utility.yul\":4241:4268   */\n      mstore\n        /* \"#utility.yul\":4136:4275   */\n      pop\n      pop\n      pop\n      jump\t// out\n        /* \"#utility.yul\":4281:4383   */\n    tag_83:\n        /* \"#utility.yul\":4322:4328   */\n      0x00\n        /* \"#utility.yul\":4373:4375   */\n      0x1f\n        /* \"#utility.yul\":4369:4376   */\n      not\n        /* \"#utility.yul\":4364:4366   */\n      0x1f\n        /* \"#utility.yul\":4357:4362   */\n      dup4\n        /* \"#utility.yul\":4353:4367   */\n      add\n        /* \"#utility.yul\":4349:4377   */\n      and\n        /* \"#utility.yul\":4339:4377   */\n      swap1\n      pop\n        /* \"#utility.yul\":4281:4383   */\n      swap2\n      swap1\n      pop\n      jump\t// out\n        /* \"#utility.yul\":4389:4766   */\n    tag_84:\n        /* \"#utility.yul\":4477:4480   */\n      0x00\n        /* \"#utility.yul\":4505:4544   */\n      tag_157\n        /* \"#utility.yul\":4538:4543   */\n      dup3\n        /* \"#utility.yul\":4505:4544   */\n      tag_80\n      jump\t// in\n    tag_157:\n        /* \"#utility.yul\":4560:4631   */\n      tag_158\n        /* \"#utility.yul\":4624:4630   */\n      dup2\n        /* \"#utility.yul\":4619:4622   */\n      dup6\n        /* \"#utility.yul\":4560:4631   */\n      tag_81\n      jump\t// in\n    tag_158:\n        /* \"#utility.yul\":4553:4631   */\n      swap4\n      pop\n        /* \"#utility.yul\":4640:4705   */\n      tag_159\n        /* \"#utility.yul\":4698:4704   */\n      dup2\n        /* \"#utility.yul\":4693:4696   */\n      dup6\n        /* \"#utility.yul\":4686:4690   */\n      0x20\n        /* \"#utility.yul\":4679:4684   */\n      dup7\n        /* \"#utility.yul\":4675:4691   */\n      add\n        /* \"#utility.yul\":4640:4705   */\n      tag_82\n      jump\t// in\n    tag_159:\n        /* \"#utility.yul\":4730:4759   */\n      tag_160\n        /* \"#utility.yul\":4752:4758   */\n      dup2\n        /* \"#utility.yul\":4730:4759   */\n      tag_83\n      jump\t// in\n    tag_160:\n        /* \"#utility.yul\":4725:4728   */\n      dup5\n        /* \"#utility.yul\":4721:4760   */\n      add\n        /* \"#utility.yul\":4714:4760   */\n      swap2\n      pop\n        /* \"#utility.yul\":4481:4766   */\n      pop\n        /* \"#utility.yul\":4389:4766   */\n      swap3\n      swap2\n      pop\n      pop\n      jump\t// out\n        /* \"#utility.yul\":4772:5085   */\n    tag_39:\n        /* \"#utility.yul\":4885:4889   */\n      0x00\n        /* \"#utility.yul\":4923:4925   */\n      0x20\n        /* \"#utility.yul\":4912:4921   */\n      dup3\n        /* \"#utility.yul\":4908:4926   */\n      add\n        /* \"#utility.yul\":4900:4926   */\n      swap1\n      pop\n        /* \"#utility.yul\":4972:4981   */\n      dup2\n        /* \"#utility.yul\":4966:4970   */\n      dup2\n        /* \"#utility.yul\":4962:4982   */\n      sub\n        /* \"#utility.yul\":4958:4959   */\n      0x00\n        /* \"#utility.yul\":4947:4956   */\n      dup4\n        /* \"#utility.yul\":4943:4960   */\n      add\n        /* \"#utility.yul\":4936:4983   */\n      mstore\n        /* \"#utility.yul\":5000:5078   */\n      tag_162\n        /* \"#utility.yul\":5073:5077   */\n      dup2\n        /* \"#utility.yul\":5064:5070   */\n      dup5\n        /* \"#utility.yul\":5000:5078   */\n      tag_84\n      jump\t// in\n    tag_162:\n        /* \"#utility.yul\":4992:5078   */\n      swap1\n      pop\n        /* \"#utility.yul\":4772:5085   */\n      swap3\n      swap2\n      pop\n      pop\n      jump\t// out\n        /* \"#utility.yul\":5091:5420   */\n    tag_42:\n        /* \"#utility.yul\":5150:5156   */\n      0x00\n        /* \"#utility.yul\":5199:5201   */\n      0x20\n        /* \"#utility.yul\":5187:5196   */\n      dup3\n        /* \"#utility.yul\":5178:5185   */\n      dup5\n        /* \"#utility.yul\":5174:5197   */\n      sub\n        /* \"#utility.yul\":5170:5202   */\n      slt\n        /* \"#utility.yul\":5167:5286   */\n      iszero\n      tag_164\n      jumpi\n        /* \"#utility.yul\":5205:5284   */\n      tag_165\n      tag_64\n      jump\t// in\n    tag_165:\n        /* \"#utility.yul\":5167:5286   */\n    tag_164:\n        /* \"#utility.yul\":5325:5326   */\n      0x00\n        /* \"#utility.yul\":5350:5403   */\n      tag_166\n        /* \"#utility.yul\":5395:5402   */\n      dup5\n        /* \"#utility.yul\":5386:5392   */\n      dup3\n        /* \"#utility.yul\":5375:5384   */\n      dup6\n        /* \"#utility.yul\":5371:5393   */\n      add\n        /* \"#utility.yul\":5350:5403   */\n      tag_75\n      jump\t// in\n    tag_166:\n        /* \"#utility.yul\":5340:5403   */\n      swap2\n      pop\n        /* \"#utility.yul\":5296:5413   */\n      pop\n        /* \"#utility.yul\":5091:5420   */\n      swap3\n      swap2\n      pop\n      pop\n      jump\t// out\n        /* \"#utility.yul\":5426:5868   */\n    tag_45:\n        /* \"#utility.yul\":5575:5579   */\n      0x00\n        /* \"#utility.yul\":5613:5615   */\n      0x60\n        /* \"#utility.yul\":5602:5611   */\n      dup3\n        /* \"#utility.yul\":5598:5616   */\n      add\n        /* \"#utility.yul\":5590:5616   */\n      swap1\n      pop\n        /* \"#utility.yul\":5626:5697   */\n      tag_168\n        /* \"#utility.yul\":5694:5695   */\n      0x00\n        /* \"#utility.yul\":5683:5692   */\n      dup4\n        /* \"#utility.yul\":5679:5696   */\n      add\n        /* \"#utility.yul\":5670:5676   */\n      dup7\n        /* \"#utility.yul\":5626:5697   */\n      tag_70\n      jump\t// in\n    tag_168:\n        /* \"#utility.yul\":5707:5779   */\n      tag_169\n        /* \"#utility.yul\":5775:5777   */\n      0x20\n        /* \"#utility.yul\":5764:5773   */\n      dup4\n        /* \"#utility.yul\":5760:5778   */\n      add\n        /* \"#utility.yul\":5751:5757   */\n      dup6\n        /* \"#utility.yul\":5707:5779   */\n      tag_70\n      jump\t// in\n    tag_169:\n        /* \"#utility.yul\":5789:5861   */\n      tag_170\n        /* \"#utility.yul\":5857:5859   */\n      0x40\n        /* \"#utility.yul\":5846:5855   */\n      dup4\n        /* \"#utility.yul\":5842:5860   */\n      add\n        /* \"#utility.yul\":5833:5839   */\n      dup5\n        /* \"#utility.yul\":5789:5861   */\n      tag_71\n      jump\t// in\n    tag_170:\n        /* \"#utility.yul\":5426:5868   */\n      swap5\n      swap4\n      pop\n      pop\n      pop\n      pop\n      jump\t// out\n        /* \"#utility.yul\":5874:5967   */\n    tag_85:\n        /* \"#utility.yul\":5910:5917   */\n      0x00\n        /* \"#utility.yul\":5950:5960   */\n      0xffffffff\n        /* \"#utility.yul\":5943:5948   */\n      dup3\n        /* \"#utility.yul\":5939:5961   */\n      and\n        /* \"#utility.yul\":5928:5961   */\n      swap1\n      pop\n        /* \"#utility.yul\":5874:5967   */\n      swap2\n      swap1\n      pop\n      jump\t// out\n        /* \"#utility.yul\":5973:6088   */\n    tag_86:\n        /* \"#utility.yul\":6058:6081   */\n      tag_173\n        /* \"#utility.yul\":6075:6080   */\n      dup2\n        /* \"#utility.yul\":6058:6081   */\n      tag_85\n      jump\t// in\n    tag_173:\n        /* \"#utility.yul\":6053:6056   */\n      dup3\n        /* \"#utility.yul\":6046:6082   */\n      mstore\n        /* \"#utility.yul\":5973:6088   */\n      pop\n      pop\n      jump\t// out\n        /* \"#utility.yul\":6094:6312   */\n    tag_49:\n        /* \"#utility.yul\":6185:6189   */\n      0x00\n        /* \"#utility.yul\":6223:6225   */\n      0x20\n        /* \"#utility.yul\":6212:6221   */\n      dup3\n        /* \"#utility.yul\":6208:6226   */\n      add\n        /* \"#utility.yul\":6200:6226   */\n      swap1\n      pop\n        /* \"#utility.yul\":6236:6305   */\n      tag_175\n        /* \"#utility.yul\":6302:6303   */\n      0x00\n        /* \"#utility.yul\":6291:6300   */\n      dup4\n        /* \"#utility.yul\":6287:6304   */\n      add\n        /* \"#utility.yul\":6278:6284   */\n      dup5\n        /* \"#utility.yul\":6236:6305   */\n      tag_86\n      jump\t// in\n    tag_175:\n        /* \"#utility.yul\":6094:6312   */\n      swap3\n      swap2\n      pop\n      pop\n      jump\t// out\n        /* \"#utility.yul\":6318:6498   */\n    tag_87:\n        /* \"#utility.yul\":6366:6443   */\n      0x4e487b7100000000000000000000000000000000000000000000000000000000\n        /* \"#utility.yul\":6363:6364   */\n      0x00\n        /* \"#utility.yul\":6356:6444   */\n      mstore\n        /* \"#utility.yul\":6463:6467   */\n      0x41\n        /* \"#utility.yul\":6460:6461   */\n      0x04\n        /* \"#utility.yul\":6453:6468   */\n      mstore\n        /* \"#utility.yul\":6487:6491   */\n      0x24\n        /* \"#utility.yul\":6484:6485   */\n      0x00\n        /* \"#utility.yul\":6477:6492   */\n      revert\n        /* \"#utility.yul\":6504:6684   */\n    tag_88:\n        /* \"#utility.yul\":6552:6629   */\n      0x4e487b7100000000000000000000000000000000000000000000000000000000\n        /* \"#utility.yul\":6549:6550   */\n      0x00\n        /* \"#utility.yul\":6542:6630   */\n      mstore\n        /* \"#utility.yul\":6649:6653   */\n      0x22\n        /* \"#utility.yul\":6646:6647   */\n      0x04\n        /* \"#utility.yul\":6639:6654   */\n      mstore\n        /* \"#utility.yul\":6673:6677   */\n      0x24\n        /* \"#utility.yul\":6670:6671   */\n      0x00\n        /* \"#utility.yul\":6663:6678   */\n      revert\n        /* \"#utility.yul\":6690:7010   */\n    tag_58:\n        /* \"#utility.yul\":6734:6740   */\n      0x00\n        /* \"#utility.yul\":6771:6772   */\n      0x02\n        /* \"#utility.yul\":6765:6769   */\n      dup3\n        /* \"#utility.yul\":6761:6773   */\n      div\n        /* \"#utility.yul\":6751:6773   */\n      swap1\n      pop\n        /* \"#utility.yul\":6818:6819   */\n      0x01\n        /* \"#utility.yul\":6812:6816   */\n      dup3\n        /* \"#utility.yul\":6808:6820   */\n      and\n        /* \"#utility.yul\":6839:6857   */\n      dup1\n        /* \"#utility.yul\":6829:6910   */\n      tag_179\n      jumpi\n        /* \"#utility.yul\":6895:6899   */\n      0x7f\n        /* \"#utility.yul\":6887:6893   */\n      dup3\n        /* \"#utility.yul\":6883:6900   */\n      and\n        /* \"#utility.yul\":6873:6900   */\n      swap2\n      pop\n        /* \"#utility.yul\":6829:6910   */\n    tag_179:\n        /* \"#utility.yul\":6957:6959   */\n      0x20\n        /* \"#utility.yul\":6949:6955   */\n      dup3\n        /* \"#utility.yul\":6946:6960   */\n      lt\n        /* \"#utility.yul\":6926:6944   */\n      dup2\n        /* \"#utility.yul\":6923:6961   */\n      sub\n        /* \"#utility.yul\":6920:7004   */\n      tag_180\n      jumpi\n        /* \"#utility.yul\":6976:6994   */\n      tag_181\n      tag_88\n      jump\t// in\n    tag_181:\n        /* \"#utility.yul\":6920:7004   */\n    tag_180:\n        /* \"#utility.yul\":6741:7010   */\n      pop\n        /* \"#utility.yul\":6690:7010   */\n      swap2\n      swap1\n      pop\n      jump\t// out\n        /* \"#utility.yul\":7016:7157   */\n    tag_89:\n        /* \"#utility.yul\":7065:7069   */\n      0x00\n        /* \"#utility.yul\":7088:7091   */\n      dup2\n        /* \"#utility.yul\":7080:7091   */\n      swap1\n      pop\n        /* \"#utility.yul\":7111:7114   */\n      dup2\n        /* \"#utility.yul\":7108:7109   */\n      0x00\n        /* \"#utility.yul\":7101:7115   */\n      mstore\n        /* \"#utility.yul\":7145:7149   */\n      0x20\n        /* \"#utility.yul\":7142:7143   */\n      0x00\n        /* \"#utility.yul\":7132:7150   */\n      keccak256\n        /* \"#utility.yul\":7124:7150   */\n      swap1\n      pop\n        /* \"#utility.yul\":7016:7157   */\n      swap2\n      swap1\n      pop\n      jump\t// out\n        /* \"#utility.yul\":7163:7256   */\n    tag_90:\n        /* \"#utility.yul\":7200:7206   */\n      0x00\n        /* \"#utility.yul\":7247:7249   */\n      0x20\n        /* \"#utility.yul\":7242:7244   */\n      0x1f\n        /* \"#utility.yul\":7235:7240   */\n      dup4\n        /* \"#utility.yul\":7231:7245   */\n      add\n        /* \"#utility.yul\":7227:7250   */\n      div\n        /* \"#utility.yul\":7217:7250   */\n      swap1\n      pop\n        /* \"#utility.yul\":7163:7256   */\n      swap2\n      swap1\n      pop\n      jump\t// out\n        /* \"#utility.yul\":7262:7369   */\n    tag_91:\n        /* \"#utility.yul\":7306:7314   */\n      0x00\n        /* \"#utility.yul\":7356:7361   */\n      dup3\n        /* \"#utility.yul\":7350:7354   */\n      dup3\n        /* \"#utility.yul\":7346:7362   */\n      shl\n        /* \"#utility.yul\":7325:7362   */\n      swap1\n      pop\n        /* \"#utility.yul\":7262:7369   */\n      swap3\n      swap2\n      pop\n      pop\n      jump\t// out\n        /* \"#utility.yul\":7375:7768   */\n    tag_92:\n        /* \"#utility.yul\":7444:7450   */\n      0x00\n        /* \"#utility.yul\":7494:7495   */\n      0x08\n        /* \"#utility.yul\":7482:7492   */\n      dup4\n        /* \"#utility.yul\":7478:7496   */\n      mul\n        /* \"#utility.yul\":7517:7614   */\n      tag_186\n        /* \"#utility.yul\":7547:7613   */\n      0xffffffffffffffffffffffffffffffffffffffffffffffffffffffffffffffff\n        /* \"#utility.yul\":7536:7545   */\n      dup3\n        /* \"#utility.yul\":7517:7614   */\n      tag_91\n      jump\t// in\n    tag_186:\n        /* \"#utility.yul\":7635:7674   */\n      tag_187\n        /* \"#utility.yul\":7665:7673   */\n      dup7\n        /* \"#utility.yul\":7654:7663   */\n      dup4\n        /* \"#utility.yul\":7635:7674   */\n      tag_91\n      jump\t// in\n    tag_187:\n        /* \"#utility.yul\":7623:7674   */\n      swap6\n      pop\n        /* \"#utility.yul\":7707:7711   */\n      dup1\n        /* \"#utility.yul\":7703:7712   */\n      not\n        /* \"#utility.yul\":7696:7701   */\n      dup5\n        /* \"#utility.yul\":7692:7713   */\n      and\n        /* \"#utility.yul\":7683:7713   */\n      swap4\n      pop\n        /* \"#utility.yul\":7756:7760   */\n      dup1\n        /* \"#utility.yul\":7746:7754   */\n      dup7\n        /* \"#utility.yul\":7742:7761   */\n      and\n        /* \"#utility.yul\":7735:7740   */\n      dup5\n        /* \"#utility.yul\":7732:7762   */\n      or\n        /* \"#utility.yul\":7722:7762   */\n      swap3\n      pop\n        /* \"#utility.yul\":7451:7768   */\n      pop\n      pop\n        /* \"#utility.yul\":7375:7768   */\n      swap4\n      swap3\n      pop\n      pop\n      pop\n      jump\t// out\n        /* \"#utility.yul\":7774:7834   */\n    tag_93:\n        /* \"#utility.yul\":7802:7805   */\n      0x00\n        /* \"#utility.yul\":7823:7828   */\n      dup2\n        /* \"#utility.yul\":7816:7828   */\n      swap1\n      pop\n        /* \"#utility.yul\":7774:7834   */\n      swap2\n      swap1\n      pop\n      jump\t// out\n        /* \"#utility.yul\":7840:7982   */\n    tag_94:\n        /* \"#utility.yul\":7890:7899   */\n      0x00\n        /* \"#utility.yul\":7923:7976   */\n      tag_190\n        /* \"#utility.yul\":7941:7975   */\n      tag_191\n        /* \"#utility.yul\":7950:7974   */\n      tag_192\n        /* \"#utility.yul\":7968:7973   */\n      dup5\n        /* \"#utility.yul\":7950:7974   */\n      tag_66\n      jump\t// in\n    tag_192:\n        /* \"#utility.yul\":7941:7975   */\n      tag_93\n      jump\t// in\n    tag_191:\n        /* \"#utility.yul\":7923:7976   */\n      tag_66\n      jump\t// in\n    tag_190:\n        /* \"#utility.yul\":7910:7976   */\n      swap1\n      pop\n        /* \"#utility.yul\":7840:7982   */\n      swap2\n      swap1\n      pop\n      jump\t// out\n        /* \"#utility.yul\":7988:8063   */\n    tag_95:\n        /* \"#utility.yul\":8031:8034   */\n      0x00\n        /* \"#utility.yul\":8052:8057   */\n      dup2\n        /* \"#utility.yul\":8045:8057   */\n      swap1\n      pop\n        /* \"#utility.yul\":7988:8063   */\n      swap2\n      swap1\n      pop\n      jump\t// out\n        /* \"#utility.yul\":8069:8338   */\n    tag_96:\n        /* \"#utility.yul\":8179:8218   */\n      tag_195\n        /* \"#utility.yul\":8210:8217   */\n      dup4\n        /* \"#utility.yul\":8179:8218   */\n      tag_94\n      jump\t// in\n    tag_195:\n        /* \"#utility.yul\":8240:8331   */\n      tag_196\n        /* \"#utility.yul\":8289:8330   */\n      tag_197\n        /* \"#utility.yul\":8313:8329   */\n      dup3\n        /* \"#utility.yul\":8289:8330   */\n      tag_95\n      jump\t// in\n    tag_197:\n        /* \"#utility.yul\":8281:8287   */\n      dup5\n        /* \"#utility.yul\":8274:8278   */\n      dup5\n        /* \"#utility.yul\":8268:8279   */\n      sload\n        /* \"#utility.yul\":8240:8331   */\n      tag_92\n      jump\t// in\n    tag_196:\n        /* \"#utility.yul\":8234:8238   */\n      dup3\n        /* \"#utility.yul\":8227:8332   */\n      sstore\n        /* \"#utility.yul\":8145:8338   */\n      pop\n        /* \"#utility.yul\":8069:8338   */\n      pop\n      pop\n      pop\n      jump\t// out\n        /* \"#utility.yul\":8344:8417   */\n    tag_97:\n        /* \"#utility.yul\":8389:8392   */\n      0x00\n        /* \"#utility.yul\":8410:8411   */\n      0x00\n        /* \"#utility.yul\":8403:8411   */\n      swap1\n      pop\n        /* \"#utility.yul\":8344:8417   */\n      swap1\n      jump\t// out\n        /* \"#utility.yul\":8423:8612   */\n    tag_98:\n        /* \"#utility.yul\":8500:8532   */\n      tag_200\n      tag_97\n      jump\t// in\n    tag_200:\n        /* \"#utility.yul\":8541:8606   */\n      tag_201\n        /* \"#utility.yul\":8599:8605   */\n      dup2\n        /* \"#utility.yul\":8591:8597   */\n      dup5\n        /* \"#utility.yul\":8585:8589   */\n      dup5\n        /* \"#utility.yul\":8541:8606   */\n      tag_96\n      jump\t// in\n    tag_201:\n        /* \"#utility.yul\":8476:8612   */\n      pop\n        /* \"#utility.yul\":8423:8612   */\n      pop\n      pop\n      jump\t// out\n        /* \"#utility.yul\":8618:8832   */\n    tag_99:\n        /* \"#utility.yul\":8703:8704   */\n      0x00\n        /* \"#utility.yul\":8688:8826   */\n    tag_203:\n        /* \"#utility.yul\":8713:8722   */\n      dup3\n        /* \"#utility.yul\":8710:8711   */\n      dup2\n        /* \"#utility.yul\":8707:8723   */\n      lt\n        /* \"#utility.yul\":8688:8826   */\n      iszero\n      tag_205\n      jumpi\n        /* \"#utility.yul\":8765:8816   */\n      tag_206\n        /* \"#utility.yul\":8814:8815   */\n      0x00\n        /* \"#utility.yul\":8810:8811   */\n      dup3\n        /* \"#utility.yul\":8799:8808   */\n      dup5\n        /* \"#utility.yul\":8795:8812   */\n      add\n        /* \"#utility.yul\":8765:8816   */\n      tag_98\n      jump\t// in\n    tag_206:\n        /* \"#utility.yul\":8738:8739   */\n      0x01\n        /* \"#utility.yul\":8735:8736   */\n      dup2\n        /* \"#utility.yul\":8731:8740   */\n      add\n        /* \"#utility.yul\":8726:8740   */\n      swap1\n      pop\n        /* \"#utility.yul\":8688:8826   */\n      jump(tag_203)\n    tag_205:\n        /* \"#utility.yul\":8692:8706   */\n      pop\n        /* \"#utility.yul\":8618:8832   */\n      pop\n      pop\n      jump\t// out\n        /* \"#utility.yul\":8838:9584   */\n    tag_100:\n        /* \"#utility.yul\":8939:8941   */\n      0x1f\n        /* \"#utility.yul\":8934:8937   */\n      dup3\n        /* \"#utility.yul\":8931:8942   */\n      gt\n        /* \"#utility.yul\":8928:9577   */\n      iszero\n      tag_208\n      jumpi\n        /* \"#utility.yul\":8968:8978   */\n      dup3\n        /* \"#utility.yul\":8963:8966   */\n      dup3\n        /* \"#utility.yul\":8960:8979   */\n      gt\n        /* \"#utility.yul\":8957:9567   */\n      iszero\n      tag_209\n      jumpi\n        /* \"#utility.yul\":9014:9052   */\n      tag_210\n        /* \"#utility.yul\":9046:9051   */\n      dup2\n        /* \"#utility.yul\":9014:9052   */\n      tag_89\n      jump\t// in\n    tag_210:\n        /* \"#utility.yul\":9089:9111   */\n      tag_211\n        /* \"#utility.yul\":9107:9110   */\n      dup4\n        /* \"#utility.yul\":9089:9111   */\n      tag_90\n      jump\t// in\n    tag_211:\n        /* \"#utility.yul\":9148:9177   */\n      tag_212\n        /* \"#utility.yul\":9166:9176   */\n      dup6\n        /* \"#utility.yul\":9148:9177   */\n      tag_90\n      jump\t// in\n    tag_212:\n        /* \"#utility.yul\":9338:9340   */\n      0x20\n        /* \"#utility.yul\":9326:9336   */\n      dup7\n        /* \"#utility.yul\":9323:9341   */\n      lt\n        /* \"#utility.yul\":9320:9399   */\n      iszero\n      tag_213\n      jumpi\n        /* \"#utility.yul\":9380:9381   */\n      0x00\n        /* \"#utility.yul\":9364:9381   */\n      swap1\n      pop\n        /* \"#utility.yul\":9320:9399   */\n    tag_213:\n        /* \"#utility.yul\":9449:9461   */\n      dup1\n        /* \"#utility.yul\":9439:9447   */\n      dup4\n        /* \"#utility.yul\":9435:9462   */\n      add\n        /* \"#utility.yul\":9479:9553   */\n      tag_214\n        /* \"#utility.yul\":9539:9551   */\n      dup3\n        /* \"#utility.yul\":9525:9537   */\n      dup5\n        /* \"#utility.yul\":9521:9552   */\n      sub\n        /* \"#utility.yul\":9508:9519   */\n      dup3\n        /* \"#utility.yul\":9479:9553   */\n      tag_99\n      jump\t// in\n    tag_214:\n        /* \"#utility.yul\":8980:9567   */\n      pop\n      pop\n      pop\n      pop\n        /* \"#utility.yul\":8957:9567   */\n    tag_209:\n        /* \"#utility.yul\":8928:9577   */\n    tag_208:\n        /* \"#utility.yul\":8838:9584   */\n      pop\n      pop\n      pop\n      jump\t// out\n        /* \"#utility.yul\":9590:9707   */\n    tag_101:\n        /* \"#utility.yul\":9644:9652   */\n      0x00\n        /* \"#utility.yul\":9694:9699   */\n      dup3\n        /* \"#utility.yul\":9688:9692   */\n      dup3\n        /* \"#utility.yul\":9684:9700   */\n      shr\n        /* \"#utility.yul\":9663:9700   */\n      swap1\n      pop\n        /* \"#utility.yul\":9590:9707   */\n      swap3\n      swap2\n      pop\n      pop\n      jump\t// out\n        /* \"#utility.yul\":9713:9882   */\n    tag_102:\n        /* \"#utility.yul\":9757:9763   */\n      0x00\n        /* \"#utility.yul\":9790:9841   */\n      tag_217\n        /* \"#utility.yul\":9838:9839   */\n      0x00\n        /* \"#utility.yul\":9834:9840   */\n      not\n        /* \"#utility.yul\":9826:9831   */\n      dup5\n        /* \"#utility.yul\":9823:9824   */\n      0x08\n        /* \"#utility.yul\":9819:9832   */\n      mul\n        /* \"#utility.yul\":9790:9841   */\n      tag_101\n      jump\t// in\n    tag_217:\n        /* \"#utility.yul\":9786:9842   */\n      not\n        /* \"#utility.yul\":9871:9875   */\n      dup1\n        /* \"#utility.yul\":9865:9869   */\n      dup4\n        /* \"#utility.yul\":9861:9876   */\n      and\n        /* \"#utility.yul\":9851:9876   */\n      swap2\n      pop\n        /* \"#utility.yul\":9764:9882   */\n      pop\n        /* \"#utility.yul\":9713:9882   */\n      swap3\n      swap2\n      pop\n      pop\n      jump\t// out\n        /* \"#utility.yul\":9887:10182   */\n    tag_103:\n        /* \"#utility.yul\":9963:9967   */\n      0x00\n        /* \"#utility.yul\":10109:10138   */\n      tag_219\n        /* \"#utility.yul\":10134:10137   */\n      dup4\n        /* \"#utility.yul\":10128:10132   */\n      dup4\n        /* \"#utility.yul\":10109:10138   */\n      tag_102\n      jump\t// in\n    tag_219:\n        /* \"#utility.yul\":10101:10138   */\n      swap2\n      pop\n        /* \"#utility.yul\":10171:10174   */\n      dup3\n        /* \"#utility.yul\":10168:10169   */\n      0x02\n        /* \"#utility.yul\":10164:10175   */\n      mul\n        /* \"#utility.yul\":10158:10162   */\n      dup3\n        /* \"#utility.yul\":10155:10176   */\n      or\n        /* \"#utility.yul\":10147:10176   */\n      swap1\n      pop\n        /* \"#utility.yul\":9887:10182   */\n      swap3\n      swap2\n      pop\n      pop\n      jump\t// out\n        /* \"#utility.yul\":10187:11582   */\n    tag_56:\n        /* \"#utility.yul\":10304:10341   */\n      tag_221\n        /* \"#utility.yul\":10337:10340   */\n      dup3\n        /* \"#utility.yul\":10304:10341   */\n      tag_80\n      jump\t// in\n    tag_221:\n        /* \"#utility.yul\":10406:10424   */\n      0xffffffffffffffff\n        /* \"#utility.yul\":10398:10404   */\n      dup2\n        /* \"#utility.yul\":10395:10425   */\n      gt\n        /* \"#utility.yul\":10392:10448   */\n      iszero\n      tag_222\n      jumpi\n        /* \"#utility.yul\":10428:10446   */\n      tag_223\n      tag_87\n      jump\t// in\n    tag_223:\n        /* \"#utility.yul\":10392:10448   */\n    tag_222:\n        /* \"#utility.yul\":10472:10510   */\n      tag_224\n        /* \"#utility.yul\":10504:10508   */\n      dup3\n        /* \"#utility.yul\":10498:10509   */\n      sload\n        /* \"#utility.yul\":10472:10510   */\n      tag_58\n      jump\t// in\n    tag_224:\n        /* \"#utility.yul\":10557:10624   */\n      tag_225\n        /* \"#utility.yul\":10617:10623   */\n      dup3\n        /* \"#utility.yul\":10609:10615   */\n      dup3\n        /* \"#utility.yul\":10603:10607   */\n      dup6\n        /* \"#utility.yul\":10557:10624   */\n      tag_100\n      jump\t// in\n    tag_225:\n        /* \"#utility.yul\":10651:10652   */\n      0x00\n        /* \"#utility.yul\":10675:10679   */\n      0x20\n        /* \"#utility.yul\":10662:10679   */\n      swap1\n      pop\n        /* \"#utility.yul\":10707:10709   */\n      0x1f\n        /* \"#utility.yul\":10699:10705   */\n      dup4\n        /* \"#utility.yul\":10696:10710   */\n      gt\n        /* \"#utility.yul\":10724:10725   */\n      0x01\n        /* \"#utility.yul\":10719:11337   */\n      dup2\n      eq\n      tag_227\n      jumpi\n        /* \"#utility.yul\":11381:11382   */\n      0x00\n        /* \"#utility.yul\":11398:11404   */\n      dup5\n        /* \"#utility.yul\":11395:11472   */\n      iszero\n      tag_228\n      jumpi\n        /* \"#utility.yul\":11447:11456   */\n      dup3\n        /* \"#utility.yul\":11442:11445   */\n      dup8\n        /* \"#utility.yul\":11438:11457   */\n      add\n        /* \"#utility.yul\":11432:11458   */\n      mload\n        /* \"#utility.yul\":11423:11458   */\n      swap1\n      pop\n        /* \"#utility.yul\":11395:11472   */\n    tag_228:\n        /* \"#utility.yul\":11498:11565   */\n      tag_229\n        /* \"#utility.yul\":11558:11564   */\n      dup6\n        /* \"#utility.yul\":11551:11556   */\n      dup3\n        /* \"#utility.yul\":11498:11565   */\n      tag_103\n      jump\t// in\n    tag_229:\n        /* \"#utility.yul\":11492:11496   */\n      dup7\n        /* \"#utility.yul\":11485:11566   */\n      sstore\n        /* \"#utility.yul\":11354:11576   */\n      pop\n        /* \"#utility.yul\":10689:11576   */\n      jump(tag_226)\n        /* \"#utility.yul\":10719:11337   */\n    tag_227:\n        /* \"#utility.yul\":10771:10775   */\n      0x1f\n        /* \"#utility.yul\":10767:10776   */\n      not\n        /* \"#utility.yul\":10759:10765   */\n      dup5\n        /* \"#utility.yul\":10755:10777   */\n      and\n        /* \"#utility.yul\":10805:10842   */\n      tag_230\n        /* \"#utility.yul\":10837:10841   */\n      dup7\n        /* \"#utility.yul\":10805:10842   */\n      tag_89\n      jump\t// in\n    tag_230:\n        /* \"#utility.yul\":10864:10865   */\n      0x00\n        /* \"#utility.yul\":10878:11086   */\n    tag_231:\n        /* \"#utility.yul\":10892:10899   */\n      dup3\n        /* \"#utility.yul\":10889:10890   */\n      dup2\n        /* \"#utility.yul\":10886:10900   */\n      lt\n        /* \"#utility.yul\":10878:11086   */\n      iszero\n      tag_233\n      jumpi\n        /* \"#utility.yul\":10971:10980   */\n      dup5\n        /* \"#utility.yul\":10966:10969   */\n      dup10\n        /* \"#utility.yul\":10962:10981   */\n      add\n        /* \"#utility.yul\":10956:10982   */\n      mload\n        /* \"#utility.yul\":10948:10954   */\n      dup3\n        /* \"#utility.yul\":10941:10983   */\n      sstore\n        /* \"#utility.yul\":11022:11023   */\n      0x01\n        /* \"#utility.yul\":11014:11020   */\n      dup3\n        /* \"#utility.yul\":11010:11024   */\n      add\n        /* \"#utility.yul\":11000:11024   */\n      swap2\n      pop\n        /* \"#utility.yul\":11069:11071   */\n      0x20\n        /* \"#utility.yul\":11058:11067   */\n      dup6\n        /* \"#utility.yul\":11054:11072   */\n      add\n        /* \"#utility.yul\":11041:11072   */\n      swap5\n      pop\n        /* \"#utility.yul\":10915:10919   */\n      0x20\n        /* \"#utility.yul\":10912:10913   */\n      dup2\n        /* \"#utility.yul\":10908:10920   */\n      add\n        /* \"#utility.yul\":10903:10920   */\n      swap1\n      pop\n        /* \"#utility.yul\":10878:11086   */\n      jump(tag_231)\n    tag_233:\n        /* \"#utility.yul\":11114:11120   */\n      dup7\n        /* \"#utility.yul\":11105:11112   */\n      dup4\n        /* \"#utility.yul\":11102:11121   */\n      lt\n        /* \"#utility.yul\":11099:11278   */\n      iszero\n      tag_234\n      jumpi\n        /* \"#utility.yul\":11172:11181   */\n      dup5\n        /* \"#utility.yul\":11167:11170   */\n      dup10\n        /* \"#utility.yul\":11163:11182   */\n      add\n        /* \"#utility.yul\":11157:11183   */\n      mload\n        /* \"#utility.yul\":11215:11263   */\n      tag_235\n        /* \"#utility.yul\":11257:11261   */\n      0x1f\n        /* \"#utility.yul\":11249:11255   */\n      dup10\n        /* \"#utility.yul\":11245:11262   */\n      and\n        /* \"#utility.yul\":11234:11243   */\n      dup3\n        /* \"#utility.yul\":11215:11263   */\n      tag_102\n      jump\t// in\n    tag_235:\n        /* \"#utility.yul\":11207:11213   */\n      dup4\n        /* \"#utility.yul\":11200:11264   */\n      sstore\n        /* \"#utility.yul\":11122:11278   */\n      pop\n        /* \"#utility.yul\":11099:11278   */\n    tag_234:\n        /* \"#utility.yul\":11324:11325   */\n      0x01\n        /* \"#utility.yul\":11320:11321   */\n      0x02\n        /* \"#utility.yul\":11312:11318   */\n      dup9\n        /* \"#utility.yul\":11308:11322   */\n      mul\n        /* \"#utility.yul\":11304:11326   */\n      add\n        /* \"#utility.yul\":11298:11302   */\n      dup9\n        /* \"#utility.yul\":11291:11327   */\n      sstore\n        /* \"#utility.yul\":10726:11337   */\n      pop\n      pop\n      pop\n        /* \"#utility.yul\":10689:11576   */\n    tag_226:\n      pop\n        /* \"#utility.yul\":10279:11582   */\n      pop\n      pop\n      pop\n        /* \"#utility.yul\":10187:11582   */\n      pop\n      pop\n      jump\t// out\n    stop\n    data_f27a38662b0aa596971a009b08ee6bd2223c11726b566d02cdf2825b00e39e84 5468697320697320612076657279206c6f6e6720737472696e6720746861742077696c6c20646566696e6974656c79207472696767657220746865206c6f6e672073746f7261676520737472617465677921\n\n    auxdata: 0xa26469706673582212207e3bd41da0dbb6c9cae892146c6b70b9d993e3e4d6368bd59b041effe522748f64736f6c63430008220033\n}\n",
				"bytecode": {
					"linkReferences": {},
					"object": "60806040526faaaaaaaaaaaaaaaaaaaaaaaaaaaaaaaa5f5f6101000a8154816fffffffffffffffffffffffffffffffff02191690836fffffffffffffffffffffffffffffffff16021790555067bbbbbbbbbbbbbbbb5f60106101000a81548167ffffffffffffffff021916908367ffffffffffffffff16021790555063cccccccc5f60186101000a81548163ffffffff021916908363ffffffff1602179055506040518060400160405280600581526020017f53686f7274000000000000000000000000000000000000000000000000000000815250600190816100e39190610391565b503480156100ef575f5ffd5b5060026064908060018154018082558091505060019003905f5260205f20015f9091909190915055600260c8908060018154018082558091505060019003905f5260205f20015f9091909190915055610460565b5f81519050919050565b7f4e487b71000000000000000000000000000000000000000000000000000000005f52604160045260245ffd5b7f4e487b71000000000000000000000000000000000000000000000000000000005f52602260045260245ffd5b5f60028204905060018216806101be57607f821691505b6020821081036101d1576101d061017a565b5b50919050565b5f819050815f5260205f209050919050565b5f6020601f8301049050919050565b5f82821b905092915050565b5f600883026102337fffffffffffffffffffffffffffffffffffffffffffffffffffffffffffffffff826101f8565b61023d86836101f8565b95508019841693508086168417925050509392505050565b5f819050919050565b5f819050919050565b5f61028161027c61027784610255565b61025e565b610255565b9050919050565b5f819050919050565b61029a83610267565b6102ae6102a682610288565b848454610204565b825550505050565b5f5f905090565b6102c56102b6565b6102d0818484610291565b505050565b5f5b828110156102f6576102eb5f8284016102bd565b6001810190506102d7565b505050565b601f821115610349578282111561034857610315816101d7565b61031e836101e9565b610327856101e9565b6020861015610334575f90505b808301610343828403826102d5565b505050505b5b505050565b5f82821c905092915050565b5f6103695f198460080261034e565b1980831691505092915050565b5f610381838361035a565b9150826002028217905092915050565b61039a82610143565b67ffffffffffffffff8111156103b3576103b261014d565b5b6103bd82546101a7565b6103c88282856102fb565b5f60209050601f8311600181146103f9575f84156103e7578287015190505b6103f18582610376565b865550610458565b601f198416610407866101d7565b5f5b8281101561042e57848901518255600182019150602085019450602081019050610409565b8683101561044b5784890151610447601f89168261035a565b8355505b6001600288020188555050505b505050505050565b610b288061046d5f395ff3fe608060405234801561000f575f5ffd5b5060043610610091575f3560e01c80634df7e3d0116100645780634df7e3d01461011b5780634f628d84146101395780637284e41614610143578063a87430ba14610161578063c3da42b81461019357610091565b80630a79fa20146100955780630dbe671f146100b15780632ee691a3146100cf57806344638a4c146100ff575b5f5ffd5b6100af60048036038101906100aa91906104b6565b6101b1565b005b6100b96101f6565b6040516100c6919061050b565b60405180910390f35b6100e960048036038101906100e491906104b6565b610216565b6040516100f69190610533565b60405180910390f35b610119600480360381019061011491906105d0565b610236565b005b61012361033f565b6040516101309190610656565b60405180910390f35b610141610358565b005b61014b610382565b60405161015891906106df565b60405180910390f35b61017b600480360381019061017691906106ff565b61040e565b60405161018a9392919061072a565b60405180910390f35b61019b61046a565b6040516101a8919061077d565b60405180910390f35b8060045f3373ffffffffffffffffffffffffffffffffffffffff1673ffffffffffffffffffffffffffffffffffffffff1681526020019081526020015f208190555050565b5f5f9054906101000a90046fffffffffffffffffffffffffffffffff1681565b60028181548110610225575f80fd5b905f5260205f20015f915090505481565b6040518060600160405280846fffffffffffffffffffffffffffffffff168152602001836fffffffffffffffffffffffffffffffff1681526020018281525060035f8673ffffffffffffffffffffffffffffffffffffffff1673ffffffffffffffffffffffffffffffffffffffff1681526020019081526020015f205f820151815f015f6101000a8154816fffffffffffffffffffffffffffffffff02191690836fffffffffffffffffffffffffffffffff1602179055506020820151815f0160106101000a8154816fffffffffffffffffffffffffffffffff02191690836fffffffffffffffffffffffffffffffff1602179055506040820151816001015590505050505050565b5f60109054906101000a900467ffffffffffffffff1681565b604051806080016040528060528152602001610aa1605291396001908161037f91906109d1565b50565b6001805461038f906107f0565b80601f01602080910402602001604051908101604052809291908181526020018280546103bb906107f0565b80156104065780601f106103dd57610100808354040283529160200191610406565b820191905f5260205f20905b8154815290600101906020018083116103e957829003601f168201915b505050505081565b6003602052805f5260405f205f91509050805f015f9054906101000a90046fffffffffffffffffffffffffffffffff1690805f0160109054906101000a90046fffffffffffffffffffffffffffffffff16908060010154905083565b5f60189054906101000a900463ffffffff1681565b5f5ffd5b5f819050919050565b61049581610483565b811461049f575f5ffd5b50565b5f813590506104b08161048c565b92915050565b5f602082840312156104cb576104ca61047f565b5b5f6104d8848285016104a2565b91505092915050565b5f6fffffffffffffffffffffffffffffffff82169050919050565b610505816104e1565b82525050565b5f60208201905061051e5f8301846104fc565b92915050565b61052d81610483565b82525050565b5f6020820190506105465f830184610524565b92915050565b5f73ffffffffffffffffffffffffffffffffffffffff82169050919050565b5f6105758261054c565b9050919050565b6105858161056b565b811461058f575f5ffd5b50565b5f813590506105a08161057c565b92915050565b6105af816104e1565b81146105b9575f5ffd5b50565b5f813590506105ca816105a6565b92915050565b5f5f5f5f608085870312156105e8576105e761047f565b5b5f6105f587828801610592565b9450506020610606878288016105bc565b9350506040610617878288016105bc565b9250506060610628878288016104a2565b91505092959194509250565b5f67ffffffffffffffff82169050919050565b61065081610634565b82525050565b5f6020820190506106695f830184610647565b92915050565b5f81519050919050565b5f82825260208201905092915050565b8281835e5f83830152505050565b5f601f19601f8301169050919050565b5f6106b18261066f565b6106bb8185610679565b93506106cb818560208601610689565b6106d481610697565b840191505092915050565b5f6020820190508181035f8301526106f781846106a7565b905092915050565b5f602082840312156107145761071361047f565b5b5f61072184828501610592565b91505092915050565b5f60608201905061073d5f8301866104fc565b61074a60208301856104fc565b6107576040830184610524565b949350505050565b5f63ffffffff82169050919050565b6107778161075f565b82525050565b5f6020820190506107905f83018461076e565b92915050565b7f4e487b71000000000000000000000000000000000000000000000000000000005f52604160045260245ffd5b7f4e487b71000000000000000000000000000000000000000000000000000000005f52602260045260245ffd5b5f600282049050600182168061080757607f821691505b60208210810361081a576108196107c3565b5b50919050565b5f819050815f5260205f209050919050565b5f6020601f8301049050919050565b5f82821b905092915050565b5f6008830261087c7fffffffffffffffffffffffffffffffffffffffffffffffffffffffffffffffff82610841565b6108868683610841565b95508019841693508086168417925050509392505050565b5f819050919050565b5f6108c16108bc6108b784610483565b61089e565b610483565b9050919050565b5f819050919050565b6108da836108a7565b6108ee6108e6826108c8565b84845461084d565b825550505050565b5f5f905090565b6109056108f6565b6109108184846108d1565b505050565b5f5b828110156109365761092b5f8284016108fd565b600181019050610917565b505050565b601f82111561098957828211156109885761095581610820565b61095e83610832565b61096785610832565b6020861015610974575f90505b80830161098382840382610915565b505050505b5b505050565b5f82821c905092915050565b5f6109a95f198460080261098e565b1980831691505092915050565b5f6109c1838361099a565b9150826002028217905092915050565b6109da8261066f565b67ffffffffffffffff8111156109f3576109f2610796565b5b6109fd82546107f0565b610a0882828561093b565b5f60209050601f831160018114610a39575f8415610a27578287015190505b610a3185826109b6565b865550610a98565b601f198416610a4786610820565b5f5b82811015610a6e57848901518255600182019150602085019450602081019050610a49565b86831015610a8b5784890151610a87601f89168261099a565b8355505b6001600288020188555050505b50505050505056fe5468697320697320612076657279206c6f6e6720737472696e6720746861742077696c6c20646566696e6974656c79207472696767657220746865206c6f6e672073746f7261676520737472617465677921a26469706673582212207e3bd41da0dbb6c9cae892146c6b70b9d993e3e4d6368bd59b041effe522748f64736f6c63430008220033",
					"opcodes": "PUSH1 0x80 PUSH1 0x40 MSTORE PUSH16 0xAAAAAAAAAAAAAAAAAAAAAAAAAAAAAAAA PUSH0 PUSH0 PUSH2 0x100 EXP DUP2 SLOAD DUP2 PUSH16 0xFFFFFFFFFFFFFFFFFFFFFFFFFFFFFFFF MUL NOT AND SWAP1 DUP4 PUSH16 0xFFFFFFFFFFFFFFFFFFFFFFFFFFFFFFFF AND MUL OR SWAP1 SSTORE POP PUSH8 0xBBBBBBBBBBBBBBBB PUSH0 PUSH1 0x10 PUSH2 0x100 EXP DUP2 SLOAD DUP2 PUSH8 0xFFFFFFFFFFFFFFFF MUL NOT AND SWAP1 DUP4 PUSH8 0xFFFFFFFFFFFFFFFF AND MUL OR SWAP1 SSTORE POP PUSH4 0xCCCCCCCC PUSH0 PUSH1 0x18 PUSH2 0x100 EXP DUP2 SLOAD DUP2 PUSH4 0xFFFFFFFF MUL NOT AND SWAP1 DUP4 PUSH4 0xFFFFFFFF AND MUL OR SWAP1 SSTORE POP PUSH1 0x40 MLOAD DUP1 PUSH1 0x40 ADD PUSH1 0x40 MSTORE DUP1 PUSH1 0x5 DUP2 MSTORE PUSH1 0x20 ADD PUSH32 0x53686F7274000000000000000000000000000000000000000000000000000000 DUP2 MSTORE POP PUSH1 0x1 SWAP1 DUP2 PUSH2 0xE3 SWAP2 SWAP1 PUSH2 0x391 JUMP JUMPDEST POP CALLVALUE DUP1 ISZERO PUSH2 0xEF JUMPI PUSH0 PUSH0 REVERT JUMPDEST POP PUSH1 0x2 PUSH1 0x64 SWAP1 DUP1 PUSH1 0x1 DUP2 SLOAD ADD DUP1 DUP3 SSTORE DUP1 SWAP2 POP POP PUSH1 0x1 SWAP1 SUB SWAP1 PUSH0 MSTORE PUSH1 0x20 PUSH0 KECCAK256 ADD PUSH0 SWAP1 SWAP2 SWAP1 SWAP2 SWAP1 SWAP2 POP SSTORE PUSH1 0x2 PUSH1 0xC8 SWAP1 DUP1 PUSH1 0x1 DUP2 SLOAD ADD DUP1 DUP3 SSTORE DUP1 SWAP2 POP POP PUSH1 0x1 SWAP1 SUB SWAP1 PUSH0 MSTORE PUSH1 0x20 PUSH0 KECCAK256 ADD PUSH0 SWAP1 SWAP2 SWAP1 SWAP2 SWAP1 SWAP2 POP SSTORE PUSH2 0x460 JUMP JUMPDEST PUSH0 DUP2 MLOAD SWAP1 POP SWAP2 SWAP1 POP JUMP JUMPDEST PUSH32 0x4E487B7100000000000000000000000000000000000000000000000000000000 PUSH0 MSTORE PUSH1 0x41 PUSH1 0x4 MSTORE PUSH1 0x24 PUSH0 REVERT JUMPDEST PUSH32 0x4E487B7100000000000000000000000000000000000000000000000000000000 PUSH0 MSTORE PUSH1 0x22 PUSH1 0x4 MSTORE PUSH1 0x24 PUSH0 REVERT JUMPDEST PUSH0 PUSH1 0x2 DUP3 DIV SWAP1 POP PUSH1 0x1 DUP3 AND DUP1 PUSH2 0x1BE JUMPI PUSH1 0x7F DUP3 AND SWAP2 POP JUMPDEST PUSH1 0x20 DUP3 LT DUP2 SUB PUSH2 0x1D1 JUMPI PUSH2 0x1D0 PUSH2 0x17A JUMP JUMPDEST JUMPDEST POP SWAP2 SWAP1 POP JUMP JUMPDEST PUSH0 DUP2 SWAP1 POP DUP2 PUSH0 MSTORE PUSH1 0x20 PUSH0 KECCAK256 SWAP1 POP SWAP2 SWAP1 POP JUMP JUMPDEST PUSH0 PUSH1 0x20 PUSH1 0x1F DUP4 ADD DIV SWAP1 POP SWAP2 SWAP1 POP JUMP JUMPDEST PUSH0 DUP3 DUP3 SHL SWAP1 POP SWAP3 SWAP2 POP POP JUMP JUMPDEST PUSH0 PUSH1 0x8 DUP4 MUL PUSH2 0x233 PUSH32 0xFFFFFFFFFFFFFFFFFFFFFFFFFFFFFFFFFFFFFFFFFFFFFFFFFFFFFFFFFFFFFFFF DUP3 PUSH2 0x1F8 JUMP JUMPDEST PUSH2 0x23D DUP7 DUP4 PUSH2 0x1F8 JUMP JUMPDEST SWAP6 POP DUP1 NOT DUP5 AND SWAP4 POP DUP1 DUP7 AND DUP5 OR SWAP3 POP POP POP SWAP4 SWAP3 POP POP POP JUMP JUMPDEST PUSH0 DUP2 SWAP1 POP SWAP2 SWAP1 POP JUMP JUMPDEST PUSH0 DUP2 SWAP1 POP SWAP2 SWAP1 POP JUMP JUMPDEST PUSH0 PUSH2 0x281 PUSH2 0x27C PUSH2 0x277 DUP5 PUSH2 0x255 JUMP JUMPDEST PUSH2 0x25E JUMP JUMPDEST PUSH2 0x255 JUMP JUMPDEST SWAP1 POP SWAP2 SWAP1 POP JUMP JUMPDEST PUSH0 DUP2 SWAP1 POP SWAP2 SWAP1 POP JUMP JUMPDEST PUSH2 0x29A DUP4 PUSH2 0x267 JUMP JUMPDEST PUSH2 0x2AE PUSH2 0x2A6 DUP3 PUSH2 0x288 JUMP JUMPDEST DUP5 DUP5 SLOAD PUSH2 0x204 JUMP JUMPDEST DUP3 SSTORE POP POP POP POP JUMP JUMPDEST PUSH0 PUSH0 SWAP1 POP SWAP1 JUMP JUMPDEST PUSH2 0x2C5 PUSH2 0x2B6 JUMP JUMPDEST PUSH2 0x2D0 DUP2 DUP5 DUP5 PUSH2 0x291 JUMP JUMPDEST POP POP POP JUMP JUMPDEST PUSH0 JUMPDEST DUP3 DUP2 LT ISZERO PUSH2 0x2F6 JUMPI PUSH2 0x2EB PUSH0 DUP3 DUP5 ADD PUSH2 0x2BD JUMP JUMPDEST PUSH1 0x1 DUP2 ADD SWAP1 POP PUSH2 0x2D7 JUMP JUMPDEST POP POP POP JUMP JUMPDEST PUSH1 0x1F DUP3 GT ISZERO PUSH2 0x349 JUMPI DUP3 DUP3 GT ISZERO PUSH2 0x348 JUMPI PUSH2 0x315 DUP2 PUSH2 0x1D7 JUMP JUMPDEST PUSH2 0x31E DUP4 PUSH2 0x1E9 JUMP JUMPDEST PUSH2 0x327 DUP6 PUSH2 0x1E9 JUMP JUMPDEST PUSH1 0x20 DUP7 LT ISZERO PUSH2 0x334 JUMPI PUSH0 SWAP1 POP JUMPDEST DUP1 DUP4 ADD PUSH2 0x343 DUP3 DUP5 SUB DUP3 PUSH2 0x2D5 JUMP JUMPDEST POP POP POP POP JUMPDEST JUMPDEST POP POP POP JUMP JUMPDEST PUSH0 DUP3 DUP3 SHR SWAP1 POP SWAP3 SWAP2 POP POP JUMP JUMPDEST PUSH0 PUSH2 0x369 PUSH0 NOT DUP5 PUSH1 0x8 MUL PUSH2 0x34E JUMP JUMPDEST NOT DUP1 DUP4 AND SWAP2 POP POP SWAP3 SWAP2 POP POP JUMP JUMPDEST PUSH0 PUSH2 0x381 DUP4 DUP4 PUSH2 0x35A JUMP JUMPDEST SWAP2 POP DUP3 PUSH1 0x2 MUL DUP3 OR SWAP1 POP SWAP3 SWAP2 POP POP JUMP JUMPDEST PUSH2 0x39A DUP3 PUSH2 0x143 JUMP JUMPDEST PUSH8 0xFFFFFFFFFFFFFFFF DUP2 GT ISZERO PUSH2 0x3B3 JUMPI PUSH2 0x3B2 PUSH2 0x14D JUMP JUMPDEST JUMPDEST PUSH2 0x3BD DUP3 SLOAD PUSH2 0x1A7 JUMP JUMPDEST PUSH2 0x3C8 DUP3 DUP3 DUP6 PUSH2 0x2FB JUMP JUMPDEST PUSH0 PUSH1 0x20 SWAP1 POP PUSH1 0x1F DUP4 GT PUSH1 0x1 DUP2 EQ PUSH2 0x3F9 JUMPI PUSH0 DUP5 ISZERO PUSH2 0x3E7 JUMPI DUP3 DUP8 ADD MLOAD SWAP1 POP JUMPDEST PUSH2 0x3F1 DUP6 DUP3 PUSH2 0x376 JUMP JUMPDEST DUP7 SSTORE POP PUSH2 0x458 JUMP JUMPDEST PUSH1 0x1F NOT DUP5 AND PUSH2 0x407 DUP7 PUSH2 0x1D7 JUMP JUMPDEST PUSH0 JUMPDEST DUP3 DUP2 LT ISZERO PUSH2 0x42E JUMPI DUP5 DUP10 ADD MLOAD DUP3 SSTORE PUSH1 0x1 DUP3 ADD SWAP2 POP PUSH1 0x20 DUP6 ADD SWAP5 POP PUSH1 0x20 DUP2 ADD SWAP1 POP PUSH2 0x409 JUMP JUMPDEST DUP7 DUP4 LT ISZERO PUSH2 0x44B JUMPI DUP5 DUP10 ADD MLOAD PUSH2 0x447 PUSH1 0x1F DUP10 AND DUP3 PUSH2 0x35A JUMP JUMPDEST DUP4 SSTORE POP JUMPDEST PUSH1 0x1 PUSH1 0x2 DUP9 MUL ADD DUP9 SSTORE POP POP POP JUMPDEST POP POP POP POP POP POP JUMP JUMPDEST PUSH2 0xB28 DUP1 PUSH2 0x46D PUSH0 CODECOPY PUSH0 RETURN INVALID PUSH1 0x80 PUSH1 0x40 MSTORE CALLVALUE DUP1 ISZERO PUSH2 0xF JUMPI PUSH0 PUSH0 REVERT JUMPDEST POP PUSH1 0x4 CALLDATASIZE LT PUSH2 0x91 JUMPI PUSH0 CALLDATALOAD PUSH1 0xE0 SHR DUP1 PUSH4 0x4DF7E3D0 GT PUSH2 0x64 JUMPI DUP1 PUSH4 0x4DF7E3D0 EQ PUSH2 0x11B JUMPI DUP1 PUSH4 0x4F628D84 EQ PUSH2 0x139 JUMPI DUP1 PUSH4 0x7284E416 EQ PUSH2 0x143 JUMPI DUP1 PUSH4 0xA87430BA EQ PUSH2 0x161 JUMPI DUP1 PUSH4 0xC3DA42B8 EQ PUSH2 0x193 JUMPI PUSH2 0x91 JUMP JUMPDEST DUP1 PUSH4 0xA79FA20 EQ PUSH2 0x95 JUMPI DUP1 PUSH4 0xDBE671F EQ PUSH2 0xB1 JUMPI DUP1 PUSH4 0x2EE691A3 EQ PUSH2 0xCF JUMPI DUP1 PUSH4 0x44638A4C EQ PUSH2 0xFF JUMPI JUMPDEST PUSH0 PUSH0 REVERT JUMPDEST PUSH2 0xAF PUSH1 0x4 DUP1 CALLDATASIZE SUB DUP2 ADD SWAP1 PUSH2 0xAA SWAP2 SWAP1 PUSH2 0x4B6 JUMP JUMPDEST PUSH2 0x1B1 JUMP JUMPDEST STOP JUMPDEST PUSH2 0xB9 PUSH2 0x1F6 JUMP JUMPDEST PUSH1 0x40 MLOAD PUSH2 0xC6 SWAP2 SWAP1 PUSH2 0x50B JUMP JUMPDEST PUSH1 0x40 MLOAD DUP1 SWAP2 SUB SWAP1 RETURN JUMPDEST PUSH2 0xE9 PUSH1 0x4 DUP1 CALLDATASIZE SUB DUP2 ADD SWAP1 PUSH2 0xE4 SWAP2 SWAP1 PUSH2 0x4B6 JUMP JUMPDEST PUSH2 0x216 JUMP JUMPDEST PUSH1 0x40 MLOAD PUSH2 0xF6 SWAP2 SWAP1 PUSH2 0x533 JUMP JUMPDEST PUSH1 0x40 MLOAD DUP1 SWAP2 SUB SWAP1 RETURN JUMPDEST PUSH2 0x119 PUSH1 0x4 DUP1 CALLDATASIZE SUB DUP2 ADD SWAP1 PUSH2 0x114 SWAP2 SWAP1 PUSH2 0x5D0 JUMP JUMPDEST PUSH2 0x236 JUMP JUMPDEST STOP JUMPDEST PUSH2 0x123 PUSH2 0x33F JUMP JUMPDEST PUSH1 0x40 MLOAD PUSH2 0x130 SWAP2 SWAP1 PUSH2 0x656 JUMP JUMPDEST PUSH1 0x40 MLOAD DUP1 SWAP2 SUB SWAP1 RETURN JUMPDEST PUSH2 0x141 PUSH2 0x358 JUMP JUMPDEST STOP JUMPDEST PUSH2 0x14B PUSH2 0x382 JUMP JUMPDEST PUSH1 0x40 MLOAD PUSH2 0x158 SWAP2 SWAP1 PUSH2 0x6DF JUMP JUMPDEST PUSH1 0x40 MLOAD DUP1 SWAP2 SUB SWAP1 RETURN JUMPDEST PUSH2 0x17B PUSH1 0x4 DUP1 CALLDATASIZE SUB DUP2 ADD SWAP1 PUSH2 0x176 SWAP2 SWAP1 PUSH2 0x6FF JUMP JUMPDEST PUSH2 0x40E JUMP JUMPDEST PUSH1 0x40 MLOAD PUSH2 0x18A SWAP4 SWAP3 SWAP2 SWAP1 PUSH2 0x72A JUMP JUMPDEST PUSH1 0x40 MLOAD DUP1 SWAP2 SUB SWAP1 RETURN JUMPDEST PUSH2 0x19B PUSH2 0x46A JUMP JUMPDEST PUSH1 0x40 MLOAD PUSH2 0x1A8 SWAP2 SWAP1 PUSH2 0x77D JUMP JUMPDEST PUSH1 0x40 MLOAD DUP1 SWAP2 SUB SWAP1 RETURN JUMPDEST DUP1 PUSH1 0x4 PUSH0 CALLER PUSH20 0xFFFFFFFFFFFFFFFFFFFFFFFFFFFFFFFFFFFFFFFF AND PUSH20 0xFFFFFFFFFFFFFFFFFFFFFFFFFFFFFFFFFFFFFFFF AND DUP2 MSTORE PUSH1 0x20 ADD SWAP1 DUP2 MSTORE PUSH1 0x20 ADD PUSH0 KECCAK256 DUP2 SWAP1 SSTORE POP POP JUMP JUMPDEST PUSH0 PUSH0 SWAP1 SLOAD SWAP1 PUSH2 0x100 EXP SWAP1 DIV PUSH16 0xFFFFFFFFFFFFFFFFFFFFFFFFFFFFFFFF AND DUP2 JUMP JUMPDEST PUSH1 0x2 DUP2 DUP2 SLOAD DUP2 LT PUSH2 0x225 JUMPI PUSH0 DUP1 REVERT JUMPDEST SWAP1 PUSH0 MSTORE PUSH1 0x20 PUSH0 KECCAK256 ADD PUSH0 SWAP2 POP SWAP1 POP SLOAD DUP2 JUMP JUMPDEST PUSH1 0x40 MLOAD DUP1 PUSH1 0x60 ADD PUSH1 0x40 MSTORE DUP1 DUP5 PUSH16 0xFFFFFFFFFFFFFFFFFFFFFFFFFFFFFFFF AND DUP2 MSTORE PUSH1 0x20 ADD DUP4 PUSH16 0xFFFFFFFFFFFFFFFFFFFFFFFFFFFFFFFF AND DUP2 MSTORE PUSH1 0x20 ADD DUP3 DUP2 MSTORE POP PUSH1 0x3 PUSH0 DUP7 PUSH20 0xFFFFFFFFFFFFFFFFFFFFFFFFFFFFFFFFFFFFFFFF AND PUSH20 0xFFFFFFFFFFFFFFFFFFFFFFFFFFFFFFFFFFFFFFFF AND DUP2 MSTORE PUSH1 0x20 ADD SWAP1 DUP2 MSTORE PUSH1 0x20 ADD PUSH0 KECCAK256 PUSH0 DUP3 ADD MLOAD DUP2 PUSH0 ADD PUSH0 PUSH2 0x100 EXP DUP2 SLOAD DUP2 PUSH16 0xFFFFFFFFFFFFFFFFFFFFFFFFFFFFFFFF MUL NOT AND SWAP1 DUP4 PUSH16 0xFFFFFFFFFFFFFFFFFFFFFFFFFFFFFFFF AND MUL OR SWAP1 SSTORE POP PUSH1 0x20 DUP3 ADD MLOAD DUP2 PUSH0 ADD PUSH1 0x10 PUSH2 0x100 EXP DUP2 SLOAD DUP2 PUSH16 0xFFFFFFFFFFFFFFFFFFFFFFFFFFFFFFFF MUL NOT AND SWAP1 DUP4 PUSH16 0xFFFFFFFFFFFFFFFFFFFFFFFFFFFFFFFF AND MUL OR SWAP1 SSTORE POP PUSH1 0x40 DUP3 ADD MLOAD DUP2 PUSH1 0x1 ADD SSTORE SWAP1 POP POP POP POP POP POP JUMP JUMPDEST PUSH0 PUSH1 0x10 SWAP1 SLOAD SWAP1 PUSH2 0x100 EXP SWAP1 DIV PUSH8 0xFFFFFFFFFFFFFFFF AND DUP2 JUMP JUMPDEST PUSH1 0x40 MLOAD DUP1 PUSH1 0x80 ADD PUSH1 0x40 MSTORE DUP1 PUSH1 0x52 DUP2 MSTORE PUSH1 0x20 ADD PUSH2 0xAA1 PUSH1 0x52 SWAP2 CODECOPY PUSH1 0x1 SWAP1 DUP2 PUSH2 0x37F SWAP2 SWAP1 PUSH2 0x9D1 JUMP JUMPDEST POP JUMP JUMPDEST PUSH1 0x1 DUP1 SLOAD PUSH2 0x38F SWAP1 PUSH2 0x7F0 JUMP JUMPDEST DUP1 PUSH1 0x1F ADD PUSH1 0x20 DUP1 SWAP2 DIV MUL PUSH1 0x20 ADD PUSH1 0x40 MLOAD SWAP1 DUP2 ADD PUSH1 0x40 MSTORE DUP1 SWAP3 SWAP2 SWAP1 DUP2 DUP2 MSTORE PUSH1 0x20 ADD DUP3 DUP1 SLOAD PUSH2 0x3BB SWAP1 PUSH2 0x7F0 JUMP JUMPDEST DUP1 ISZERO PUSH2 0x406 JUMPI DUP1 PUSH1 0x1F LT PUSH2 0x3DD JUMPI PUSH2 0x100 DUP1 DUP4 SLOAD DIV MUL DUP4 MSTORE SWAP2 PUSH1 0x20 ADD SWAP2 PUSH2 0x406 JUMP JUMPDEST DUP3 ADD SWAP2 SWAP1 PUSH0 MSTORE PUSH1 0x20 PUSH0 KECCAK256 SWAP1 JUMPDEST DUP2 SLOAD DUP2 MSTORE SWAP1 PUSH1 0x1 ADD SWAP1 PUSH1 0x20 ADD DUP1 DUP4 GT PUSH2 0x3E9 JUMPI DUP3 SWAP1 SUB PUSH1 0x1F AND DUP3 ADD SWAP2 JUMPDEST POP POP POP POP POP DUP2 JUMP JUMPDEST PUSH1 0x3 PUSH1 0x20 MSTORE DUP1 PUSH0 MSTORE PUSH1 0x40 PUSH0 KECCAK256 PUSH0 SWAP2 POP SWAP1 POP DUP1 PUSH0 ADD PUSH0 SWAP1 SLOAD SWAP1 PUSH2 0x100 EXP SWAP1 DIV PUSH16 0xFFFFFFFFFFFFFFFFFFFFFFFFFFFFFFFF AND SWAP1 DUP1 PUSH0 ADD PUSH1 0x10 SWAP1 SLOAD SWAP1 PUSH2 0x100 EXP SWAP1 DIV PUSH16 0xFFFFFFFFFFFFFFFFFFFFFFFFFFFFFFFF AND SWAP1 DUP1 PUSH1 0x1 ADD SLOAD SWAP1 POP DUP4 JUMP JUMPDEST PUSH0 PUSH1 0x18 SWAP1 SLOAD SWAP1 PUSH2 0x100 EXP SWAP1 DIV PUSH4 0xFFFFFFFF AND DUP2 JUMP JUMPDEST PUSH0 PUSH0 REVERT JUMPDEST PUSH0 DUP2 SWAP1 POP SWAP2 SWAP1 POP JUMP JUMPDEST PUSH2 0x495 DUP2 PUSH2 0x483 JUMP JUMPDEST DUP2 EQ PUSH2 0x49F JUMPI PUSH0 PUSH0 REVERT JUMPDEST POP JUMP JUMPDEST PUSH0 DUP2 CALLDATALOAD SWAP1 POP PUSH2 0x4B0 DUP2 PUSH2 0x48C JUMP JUMPDEST SWAP3 SWAP2 POP POP JUMP JUMPDEST PUSH0 PUSH1 0x20 DUP3 DUP5 SUB SLT ISZERO PUSH2 0x4CB JUMPI PUSH2 0x4CA PUSH2 0x47F JUMP JUMPDEST JUMPDEST PUSH0 PUSH2 0x4D8 DUP5 DUP3 DUP6 ADD PUSH2 0x4A2 JUMP JUMPDEST SWAP2 POP POP SWAP3 SWAP2 POP POP JUMP JUMPDEST PUSH0 PUSH16 0xFFFFFFFFFFFFFFFFFFFFFFFFFFFFFFFF DUP3 AND SWAP1 POP SWAP2 SWAP1 POP JUMP JUMPDEST PUSH2 0x505 DUP2 PUSH2 0x4E1 JUMP JUMPDEST DUP3 MSTORE POP POP JUMP JUMPDEST PUSH0 PUSH1 0x20 DUP3 ADD SWAP1 POP PUSH2 0x51E PUSH0 DUP4 ADD DUP5 PUSH2 0x4FC JUMP JUMPDEST SWAP3 SWAP2 POP POP JUMP JUMPDEST PUSH2 0x52D DUP2 PUSH2 0x483 JUMP JUMPDEST DUP3 MSTORE POP POP JUMP JUMPDEST PUSH0 PUSH1 0x20 DUP3 ADD SWAP1 POP PUSH2 0x546 PUSH0 DUP4 ADD DUP5 PUSH2 0x524 JUMP JUMPDEST SWAP3 SWAP2 POP POP JUMP JUMPDEST PUSH0 PUSH20 0xFFFFFFFFFFFFFFFFFFFFFFFFFFFFFFFFFFFFFFFF DUP3 AND SWAP1 POP SWAP2 SWAP1 POP JUMP JUMPDEST PUSH0 PUSH2 0x575 DUP3 PUSH2 0x54C JUMP JUMPDEST SWAP1 POP SWAP2 SWAP1 POP JUMP JUMPDEST PUSH2 0x585 DUP2 PUSH2 0x56B JUMP JUMPDEST DUP2 EQ PUSH2 0x58F JUMPI PUSH0 PUSH0 REVERT JUMPDEST POP JUMP JUMPDEST PUSH0 DUP2 CALLDATALOAD SWAP1 POP PUSH2 0x5A0 DUP2 PUSH2 0x57C JUMP JUMPDEST SWAP3 SWAP2 POP POP JUMP JUMPDEST PUSH2 0x5AF DUP2 PUSH2 0x4E1 JUMP JUMPDEST DUP2 EQ PUSH2 0x5B9 JUMPI PUSH0 PUSH0 REVERT JUMPDEST POP JUMP JUMPDEST PUSH0 DUP2 CALLDATALOAD SWAP1 POP PUSH2 0x5CA DUP2 PUSH2 0x5A6 JUMP JUMPDEST SWAP3 SWAP2 POP POP JUMP JUMPDEST PUSH0 PUSH0 PUSH0 PUSH0 PUSH1 0x80 DUP6 DUP8 SUB SLT ISZERO PUSH2 0x5E8 JUMPI PUSH2 0x5E7 PUSH2 0x47F JUMP JUMPDEST JUMPDEST PUSH0 PUSH2 0x5F5 DUP8 DUP3 DUP9 ADD PUSH2 0x592 JUMP JUMPDEST SWAP5 POP POP PUSH1 0x20 PUSH2 0x606 DUP8 DUP3 DUP9 ADD PUSH2 0x5BC JUMP JUMPDEST SWAP4 POP POP PUSH1 0x40 PUSH2 0x617 DUP8 DUP3 DUP9 ADD PUSH2 0x5BC JUMP JUMPDEST SWAP3 POP POP PUSH1 0x60 PUSH2 0x628 DUP8 DUP3 DUP9 ADD PUSH2 0x4A2 JUMP JUMPDEST SWAP2 POP POP SWAP3 SWAP6 SWAP2 SWAP5 POP SWAP3 POP JUMP JUMPDEST PUSH0 PUSH8 0xFFFFFFFFFFFFFFFF DUP3 AND SWAP1 POP SWAP2 SWAP1 POP JUMP JUMPDEST PUSH2 0x650 DUP2 PUSH2 0x634 JUMP JUMPDEST DUP3 MSTORE POP POP JUMP JUMPDEST PUSH0 PUSH1 0x20 DUP3 ADD SWAP1 POP PUSH2 0x669 PUSH0 DUP4 ADD DUP5 PUSH2 0x647 JUMP JUMPDEST SWAP3 SWAP2 POP POP JUMP JUMPDEST PUSH0 DUP2 MLOAD SWAP1 POP SWAP2 SWAP1 POP JUMP JUMPDEST PUSH0 DUP3 DUP3 MSTORE PUSH1 0x20 DUP3 ADD SWAP1 POP SWAP3 SWAP2 POP POP JUMP JUMPDEST DUP3 DUP2 DUP4 MCOPY PUSH0 DUP4 DUP4 ADD MSTORE POP POP POP JUMP JUMPDEST PUSH0 PUSH1 0x1F NOT PUSH1 0x1F DUP4 ADD AND SWAP1 POP SWAP2 SWAP1 POP JUMP JUMPDEST PUSH0 PUSH2 0x6B1 DUP3 PUSH2 0x66F JUMP JUMPDEST PUSH2 0x6BB DUP2 DUP6 PUSH2 0x679 JUMP JUMPDEST SWAP4 POP PUSH2 0x6CB DUP2 DUP6 PUSH1 0x20 DUP7 ADD PUSH2 0x689 JUMP JUMPDEST PUSH2 0x6D4 DUP2 PUSH2 0x697 JUMP JUMPDEST DUP5 ADD SWAP2 POP POP SWAP3 SWAP2 POP POP JUMP JUMPDEST PUSH0 PUSH1 0x20 DUP3 ADD SWAP1 POP DUP2 DUP2 SUB PUSH0 DUP4 ADD MSTORE PUSH2 0x6F7 DUP2 DUP5 PUSH2 0x6A7 JUMP JUMPDEST SWAP1 POP SWAP3 SWAP2 POP POP JUMP JUMPDEST PUSH0 PUSH1 0x20 DUP3 DUP5 SUB SLT ISZERO PUSH2 0x714 JUMPI PUSH2 0x713 PUSH2 0x47F JUMP JUMPDEST JUMPDEST PUSH0 PUSH2 0x721 DUP5 DUP3 DUP6 ADD PUSH2 0x592 JUMP JUMPDEST SWAP2 POP POP SWAP3 SWAP2 POP POP JUMP JUMPDEST PUSH0 PUSH1 0x60 DUP3 ADD SWAP1 POP PUSH2 0x73D PUSH0 DUP4 ADD DUP7 PUSH2 0x4FC JUMP JUMPDEST PUSH2 0x74A PUSH1 0x20 DUP4 ADD DUP6 PUSH2 0x4FC JUMP JUMPDEST PUSH2 0x757 PUSH1 0x40 DUP4 ADD DUP5 PUSH2 0x524 JUMP JUMPDEST SWAP5 SWAP4 POP POP POP POP JUMP JUMPDEST PUSH0 PUSH4 0xFFFFFFFF DUP3 AND SWAP1 POP SWAP2 SWAP1 POP JUMP JUMPDEST PUSH2 0x777 DUP2 PUSH2 0x75F JUMP JUMPDEST DUP3 MSTORE POP POP JUMP JUMPDEST PUSH0 PUSH1 0x20 DUP3 ADD SWAP1 POP PUSH2 0x790 PUSH0 DUP4 ADD DUP5 PUSH2 0x76E JUMP JUMPDEST SWAP3 SWAP2 POP POP JUMP JUMPDEST PUSH32 0x4E487B7100000000000000000000000000000000000000000000000000000000 PUSH0 MSTORE PUSH1 0x41 PUSH1 0x4 MSTORE PUSH1 0x24 PUSH0 REVERT JUMPDEST PUSH32 0x4E487B7100000000000000000000000000000000000000000000000000000000 PUSH0 MSTORE PUSH1 0x22 PUSH1 0x4 MSTORE PUSH1 0x24 PUSH0 REVERT JUMPDEST PUSH0 PUSH1 0x2 DUP3 DIV SWAP1 POP PUSH1 0x1 DUP3 AND DUP1 PUSH2 0x807 JUMPI PUSH1 0x7F DUP3 AND SWAP2 POP JUMPDEST PUSH1 0x20 DUP3 LT DUP2 SUB PUSH2 0x81A JUMPI PUSH2 0x819 PUSH2 0x7C3 JUMP JUMPDEST JUMPDEST POP SWAP2 SWAP1 POP JUMP JUMPDEST PUSH0 DUP2 SWAP1 POP DUP2 PUSH0 MSTORE PUSH1 0x20 PUSH0 KECCAK256 SWAP1 POP SWAP2 SWAP1 POP JUMP JUMPDEST PUSH0 PUSH1 0x20 PUSH1 0x1F DUP4 ADD DIV SWAP1 POP SWAP2 SWAP1 POP JUMP JUMPDEST PUSH0 DUP3 DUP3 SHL SWAP1 POP SWAP3 SWAP2 POP POP JUMP JUMPDEST PUSH0 PUSH1 0x8 DUP4 MUL PUSH2 0x87C PUSH32 0xFFFFFFFFFFFFFFFFFFFFFFFFFFFFFFFFFFFFFFFFFFFFFFFFFFFFFFFFFFFFFFFF DUP3 PUSH2 0x841 JUMP JUMPDEST PUSH2 0x886 DUP7 DUP4 PUSH2 0x841 JUMP JUMPDEST SWAP6 POP DUP1 NOT DUP5 AND SWAP4 POP DUP1 DUP7 AND DUP5 OR SWAP3 POP POP POP SWAP4 SWAP3 POP POP POP JUMP JUMPDEST PUSH0 DUP2 SWAP1 POP SWAP2 SWAP1 POP JUMP JUMPDEST PUSH0 PUSH2 0x8C1 PUSH2 0x8BC PUSH2 0x8B7 DUP5 PUSH2 0x483 JUMP JUMPDEST PUSH2 0x89E JUMP JUMPDEST PUSH2 0x483 JUMP JUMPDEST SWAP1 POP SWAP2 SWAP1 POP JUMP JUMPDEST PUSH0 DUP2 SWAP1 POP SWAP2 SWAP1 POP JUMP JUMPDEST PUSH2 0x8DA DUP4 PUSH2 0x8A7 JUMP JUMPDEST PUSH2 0x8EE PUSH2 0x8E6 DUP3 PUSH2 0x8C8 JUMP JUMPDEST DUP5 DUP5 SLOAD PUSH2 0x84D JUMP JUMPDEST DUP3 SSTORE POP POP POP POP JUMP JUMPDEST PUSH0 PUSH0 SWAP1 POP SWAP1 JUMP JUMPDEST PUSH2 0x905 PUSH2 0x8F6 JUMP JUMPDEST PUSH2 0x910 DUP2 DUP5 DUP5 PUSH2 0x8D1 JUMP JUMPDEST POP POP POP JUMP JUMPDEST PUSH0 JUMPDEST DUP3 DUP2 LT ISZERO PUSH2 0x936 JUMPI PUSH2 0x92B PUSH0 DUP3 DUP5 ADD PUSH2 0x8FD JUMP JUMPDEST PUSH1 0x1 DUP2 ADD SWAP1 POP PUSH2 0x917 JUMP JUMPDEST POP POP POP JUMP JUMPDEST PUSH1 0x1F DUP3 GT ISZERO PUSH2 0x989 JUMPI DUP3 DUP3 GT ISZERO PUSH2 0x988 JUMPI PUSH2 0x955 DUP2 PUSH2 0x820 JUMP JUMPDEST PUSH2 0x95E DUP4 PUSH2 0x832 JUMP JUMPDEST PUSH2 0x967 DUP6 PUSH2 0x832 JUMP JUMPDEST PUSH1 0x20 DUP7 LT ISZERO PUSH2 0x974 JUMPI PUSH0 SWAP1 POP JUMPDEST DUP1 DUP4 ADD PUSH2 0x983 DUP3 DUP5 SUB DUP3 PUSH2 0x915 JUMP JUMPDEST POP POP POP POP JUMPDEST JUMPDEST POP POP POP JUMP JUMPDEST PUSH0 DUP3 DUP3 SHR SWAP1 POP SWAP3 SWAP2 POP POP JUMP JUMPDEST PUSH0 PUSH2 0x9A9 PUSH0 NOT DUP5 PUSH1 0x8 MUL PUSH2 0x98E JUMP JUMPDEST NOT DUP1 DUP4 AND SWAP2 POP POP SWAP3 SWAP2 POP POP JUMP JUMPDEST PUSH0 PUSH2 0x9C1 DUP4 DUP4 PUSH2 0x99A JUMP JUMPDEST SWAP2 POP DUP3 PUSH1 0x2 MUL DUP3 OR SWAP1 POP SWAP3 SWAP2 POP POP JUMP JUMPDEST PUSH2 0x9DA DUP3 PUSH2 0x66F JUMP JUMPDEST PUSH8 0xFFFFFFFFFFFFFFFF DUP2 GT ISZERO PUSH2 0x9F3 JUMPI PUSH2 0x9F2 PUSH2 0x796 JUMP JUMPDEST JUMPDEST PUSH2 0x9FD DUP3 SLOAD PUSH2 0x7F0 JUMP JUMPDEST PUSH2 0xA08 DUP3 DUP3 DUP6 PUSH2 0x93B JUMP JUMPDEST PUSH0 PUSH1 0x20 SWAP1 POP PUSH1 0x1F DUP4 GT PUSH1 0x1 DUP2 EQ PUSH2 0xA39 JUMPI PUSH0 DUP5 ISZERO PUSH2 0xA27 JUMPI DUP3 DUP8 ADD MLOAD SWAP1 POP JUMPDEST PUSH2 0xA31 DUP6 DUP3 PUSH2 0x9B6 JUMP JUMPDEST DUP7 SSTORE POP PUSH2 0xA98 JUMP JUMPDEST PUSH1 0x1F NOT DUP5 AND PUSH2 0xA47 DUP7 PUSH2 0x820 JUMP JUMPDEST PUSH0 JUMPDEST DUP3 DUP2 LT ISZERO PUSH2 0xA6E JUMPI DUP5 DUP10 ADD MLOAD DUP3 SSTORE PUSH1 0x1 DUP3 ADD SWAP2 POP PUSH1 0x20 DUP6 ADD SWAP5 POP PUSH1 0x20 DUP2 ADD SWAP1 POP PUSH2 0xA49 JUMP JUMPDEST DUP7 DUP4 LT ISZERO PUSH2 0xA8B JUMPI DUP5 DUP10 ADD MLOAD PUSH2 0xA87 PUSH1 0x1F DUP10 AND DUP3 PUSH2 0x99A JUMP JUMPDEST DUP4 SSTORE POP JUMPDEST PUSH1 0x1 PUSH1 0x2 DUP9 MUL ADD DUP9 SSTORE POP POP POP JUMPDEST POP POP POP POP POP POP JUMP INVALID SLOAD PUSH9 0x697320697320612076 PUSH6 0x7279206C6F6E PUSH8 0x20737472696E6720 PUSH21 0x6861742077696C6C20646566696E6974656C792074 PUSH19 0x696767657220746865206C6F6E672073746F72 PUSH2 0x6765 KECCAK256 PUSH20 0x7472617465677921A26469706673582212207E3B 0xD4 SAR LOG0 0xDB 0xB6 0xC9 0xCA 0xE8 SWAP3 EQ PUSH13 0x6B70B9D993E3E4D6368BD59B04 CLZ SELFDESTRUCT JUMPF 0x2274 DUP16 PUSH5 0x736F6C6343 STOP ADDMOD 0x22 STOP CALLER "
				},
				"gasEstimates": {
					"creation": {
						"codeDepositCost": "571200",
						"executionCost": "infinite",
						"totalCost": "infinite"
					},
					"external": {
						"a()": "2488",
						"b()": "2516",
						"c()": "2604",
						"description()": "infinite",
						"scores(uint256)": "infinite",
						"setLongString()": "infinite",
						"setUser(address,uint128,uint128,uint256)": "infinite",
						"setbalnce(uint256)": "22603",
						"users(address)": "infinite"
					}
				},
				"methodIdentifiers": {
					"a()": "0dbe671f",
					"b()": "4df7e3d0",
					"c()": "c3da42b8",
					"description()": "7284e416",
					"scores(uint256)": "2ee691a3",
					"setLongString()": "4f628d84",
					"setUser(address,uint128,uint128,uint256)": "44638a4c",
					"setbalnce(uint256)": "0a79fa20",
					"users(address)": "a87430ba"
				}
			},
			"storageLayout": {
				"storage": [
					{
						"astId": 4,
						"contract": "pStorage/contract.sol:StorageLab",
						"label": "a",
						"offset": 0,
						"slot": "0",
						"type": "t_uint128"
					},
					{
						"astId": 7,
						"contract": "pStorage/contract.sol:StorageLab",
						"label": "b",
						"offset": 16,
						"slot": "0",
						"type": "t_uint64"
					},
					{
						"astId": 10,
						"contract": "pStorage/contract.sol:StorageLab",
						"label": "c",
						"offset": 24,
						"slot": "0",
						"type": "t_uint32"
					},
					{
						"astId": 13,
						"contract": "pStorage/contract.sol:StorageLab",
						"label": "description",
						"offset": 0,
						"slot": "1",
						"type": "t_string_storage"
					},
					{
						"astId": 16,
						"contract": "pStorage/contract.sol:StorageLab",
						"label": "scores",
						"offset": 0,
						"slot": "2",
						"type": "t_array(t_uint256)dyn_storage"
					},
					{
						"astId": 28,
						"contract": "pStorage/contract.sol:StorageLab",
						"label": "users",
						"offset": 0,
						"slot": "3",
						"type": "t_mapping(t_address,t_struct(User)23_storage)"
					},
					{
						"astId": 32,
						"contract": "pStorage/contract.sol:StorageLab",
						"label": "balance",
						"offset": 0,
						"slot": "4",
						"type": "t_mapping(t_address,t_uint256)"
					}
				],
				"types": {
					"t_address": {
						"encoding": "inplace",
						"label": "address",
						"numberOfBytes": "20"
					},
					"t_array(t_uint256)dyn_storage": {
						"base": "t_uint256",
						"encoding": "dynamic_array",
						"label": "uint256[]",
						"numberOfBytes": "32"
					},
					"t_mapping(t_address,t_struct(User)23_storage)": {
						"encoding": "mapping",
						"key": "t_address",
						"label": "mapping(address => struct StorageLab.User)",
						"numberOfBytes": "32",
						"value": "t_struct(User)23_storage"
					},
					"t_mapping(t_address,t_uint256)": {
						"encoding": "mapping",
						"key": "t_address",
						"label": "mapping(address => uint256)",
						"numberOfBytes": "32",
						"value": "t_uint256"
					},
					"t_string_storage": {
						"encoding": "bytes",
						"label": "string",
						"numberOfBytes": "32"
					},
					"t_struct(User)23_storage": {
						"encoding": "inplace",
						"label": "struct StorageLab.User",
						"members": [
							{
								"astId": 18,
								"contract": "pStorage/contract.sol:StorageLab",
								"label": "balance",
								"offset": 0,
								"slot": "0",
								"type": "t_uint128"
							},
							{
								"astId": 20,
								"contract": "pStorage/contract.sol:StorageLab",
								"label": "points",
								"offset": 16,
								"slot": "0",
								"type": "t_uint128"
							},
							{
								"astId": 22,
								"contract": "pStorage/contract.sol:StorageLab",
								"label": "id",
								"offset": 0,
								"slot": "1",
								"type": "t_uint256"
							}
						],
						"numberOfBytes": "64"
					},
					"t_uint128": {
						"encoding": "inplace",
						"label": "uint128",
						"numberOfBytes": "16"
					},
					"t_uint256": {
						"encoding": "inplace",
						"label": "uint256",
						"numberOfBytes": "32"
					},
					"t_uint32": {
						"encoding": "inplace",
						"label": "uint32",
						"numberOfBytes": "4"
					},
					"t_uint64": {
						"encoding": "inplace",
						"label": "uint64",
						"numberOfBytes": "8"
					}
				}
			},
			"userdoc": {
				"kind": "user",
				"methods": {},
				"version": 1
			}
		}
	}
}