{
	"low/call.sol": {
		"CallAnything": {
			"abi": [
				{
					"inputs": [
						{
							"internalType": "address",
							"name": "_to",
							"type": "address"
						},
						{
							"internalType": "uint256",
							"name": "_amount",
							"type": "uint256"
						}
					],
					"name": "callTransferFunctionDirectly",
					"outputs": [
						{
							"internalType": "bytes4",
							"name": "",
							"type": "bytes4"
						},
						{
							"internalType": "bool",
							"name": "",
							"type": "bool"
						}
					],
					"stateMutability": "nonpayable",
					"type": "function"
				},
				{
					"inputs": [
						{
							"internalType": "address",
							"name": "_to",
							"type": "address"
						},
						{
							"internalType": "uint256",
							"name": "_amount",
							"type": "uint256"
						}
					],
					"name": "callTransferFunctionDirectlySig",
					"outputs": [
						{
							"internalType": "bytes4",
							"name": "",
							"type": "bytes4"
						},
						{
							"internalType": "bool",
							"name": "",
							"type": "bool"
						}
					],
					"stateMutability": "nonpayable",
					"type": "function"
				},
				{
					"inputs": [
						{
							"internalType": "address",
							"name": "_to",
							"type": "address"
						},
						{
							"internalType": "uint256",
							"name": "_amount",
							"type": "uint256"
						}
					],
					"name": "getDataToCallTransfer",
					"outputs": [
						{
							"internalType": "bytes",
							"name": "data",
							"type": "bytes"
						}
					],
					"stateMutability": "pure",
					"type": "function"
				},
				{
					"inputs": [],
					"name": "getSelector",
					"outputs": [
						{
							"internalType": "bytes4",
							"name": "selector",
							"type": "bytes4"
						}
					],
					"stateMutability": "pure",
					"type": "function"
				},
				{
					"inputs": [],
					"name": "s_addre",
					"outputs": [
						{
							"internalType": "address",
							"name": "",
							"type": "address"
						}
					],
					"stateMutability": "view",
					"type": "function"
				},
				{
					"inputs": [],
					"name": "s_val",
					"outputs": [
						{
							"internalType": "uint256",
							"name": "",
							"type": "uint256"
						}
					],
					"stateMutability": "view",
					"type": "function"
				},
				{
					"inputs": [
						{
							"internalType": "address",
							"name": "addre",
							"type": "address"
						},
						{
							"internalType": "uint256",
							"name": "val",
							"type": "uint256"
						}
					],
					"name": "transfer",
					"outputs": [],
					"stateMutability": "nonpayable",
					"type": "function"
				}
			],
			"devdoc": {
				"kind": "dev",
				"methods": {},
				"version": 1
			},
			"evm": {
				"assembly": "    /* \"low/call.sol\":58:1753  contract CallAnything{... */\n  mstore(0x40, 0x80)\n  callvalue\n  dup1\n  iszero\n  tag_1\n  jumpi\n  revert(0x00, 0x00)\ntag_1:\n  pop\n  dataSize(sub_0)\n  dup1\n  dataOffset(sub_0)\n  0x00\n  codecopy\n  0x00\n  return\nstop\n\nsub_0: assembly {\n        /* \"low/call.sol\":58:1753  contract CallAnything{... */\n      mstore(0x40, 0x80)\n      callvalue\n      dup1\n      iszero\n      tag_1\n      jumpi\n      revert(0x00, 0x00)\n    tag_1:\n      pop\n      jumpi(tag_2, lt(calldatasize, 0x04))\n      shr(0xe0, calldataload(0x00))\n      dup1\n      0x88af190b\n      gt\n      tag_10\n      jumpi\n      dup1\n      0x88af190b\n      eq\n      tag_6\n      jumpi\n      dup1\n      0xa5694e4a\n      eq\n      tag_7\n      jumpi\n      dup1\n      0xa9059cbb\n      eq\n      tag_8\n      jumpi\n      dup1\n      0xd1870d74\n      eq\n      tag_9\n      jumpi\n      jump(tag_2)\n    tag_10:\n      dup1\n      0x034899bc\n      eq\n      tag_3\n      jumpi\n      dup1\n      0x59c3ed9e\n      eq\n      tag_4\n      jumpi\n      dup1\n      0x7c0c5f23\n      eq\n      tag_5\n      jumpi\n    tag_2:\n      revert(0x00, 0x00)\n        /* \"low/call.sol\":230:550  function getSelector() public pure returns(bytes4  selector){... */\n    tag_3:\n      tag_11\n      tag_12\n      jump\t// in\n    tag_11:\n      mload(0x40)\n      tag_13\n      swap2\n      swap1\n      tag_14\n      jump\t// in\n    tag_13:\n      mload(0x40)\n      dup1\n      swap2\n      sub\n      swap1\n      return\n        /* \"low/call.sol\":106:126  uint256 public s_val */\n    tag_4:\n      tag_15\n      tag_16\n      jump\t// in\n    tag_15:\n      mload(0x40)\n      tag_17\n      swap2\n      swap1\n      tag_18\n      jump\t// in\n    tag_17:\n      mload(0x40)\n      dup1\n      swap2\n      sub\n      swap1\n      return\n        /* \"low/call.sol\":553:775  function getDataToCallTransfer(address _to,uint256 _amount) public pure returns(bytes memory data){... */\n    tag_5:\n      tag_19\n      0x04\n      dup1\n      calldatasize\n      sub\n      dup2\n      add\n      swap1\n      tag_20\n      swap2\n      swap1\n      tag_21\n      jump\t// in\n    tag_20:\n      tag_22\n      jump\t// in\n    tag_19:\n      mload(0x40)\n      tag_23\n      swap2\n      swap1\n      tag_24\n      jump\t// in\n    tag_23:\n      mload(0x40)\n      dup1\n      swap2\n      sub\n      swap1\n      return\n        /* \"low/call.sol\":1289:1749  function callTransferFunctionDirectlySig(address _to, uint256 _amount) public returns(bytes4,bool){... */\n    tag_6:\n      tag_25\n      0x04\n      dup1\n      calldatasize\n      sub\n      dup2\n      add\n      swap1\n      tag_26\n      swap2\n      swap1\n      tag_21\n      jump\t// in\n    tag_26:\n      tag_27\n      jump\t// in\n    tag_25:\n      mload(0x40)\n      tag_28\n      swap3\n      swap2\n      swap1\n      tag_29\n      jump\t// in\n    tag_28:\n      mload(0x40)\n      dup1\n      swap2\n      sub\n      swap1\n      return\n        /* \"low/call.sol\":778:1220  function callTransferFunctionDirectly(address _to, uint256 _amount) public returns(bytes4,bool){... */\n    tag_7:\n      tag_30\n      0x04\n      dup1\n      calldatasize\n      sub\n      dup2\n      add\n      swap1\n      tag_31\n      swap2\n      swap1\n      tag_21\n      jump\t// in\n    tag_31:\n      tag_32\n      jump\t// in\n    tag_30:\n      mload(0x40)\n      tag_33\n      swap3\n      swap2\n      swap1\n      tag_29\n      jump\t// in\n    tag_33:\n      mload(0x40)\n      dup1\n      swap2\n      sub\n      swap1\n      return\n        /* \"low/call.sol\":130:227  function transfer(address addre,uint256 val) public {... */\n    tag_8:\n      tag_34\n      0x04\n      dup1\n      calldatasize\n      sub\n      dup2\n      add\n      swap1\n      tag_35\n      swap2\n      swap1\n      tag_21\n      jump\t// in\n    tag_35:\n      tag_36\n      jump\t// in\n    tag_34:\n      stop\n        /* \"low/call.sol\":82:104  address public s_addre */\n    tag_9:\n      tag_37\n      tag_38\n      jump\t// in\n    tag_37:\n      mload(0x40)\n      tag_39\n      swap2\n      swap1\n      tag_40\n      jump\t// in\n    tag_39:\n      mload(0x40)\n      dup1\n      swap2\n      sub\n      swap1\n      return\n        /* \"low/call.sol\":230:550  function getSelector() public pure returns(bytes4  selector){... */\n    tag_12:\n        /* \"low/call.sol\":273:289  bytes4  selector */\n      0x00\n        /* \"low/call.sol\":492:526  bytes(\"transfer(address,uint256)\") */\n      mload(0x40)\n      dup1\n      0x40\n      add\n      0x40\n      mstore\n      dup1\n      0x19\n      dup2\n      mstore\n      0x20\n      add\n      0x7472616e7366657228616464726573732c75696e743235362900000000000000\n      dup2\n      mstore\n      pop\n        /* \"low/call.sol\":482:527  keccak256(bytes(\"transfer(address,uint256)\")) */\n      dup1\n      mload\n      swap1\n      0x20\n      add\n      keccak256\n        /* \"low/call.sol\":464:528  selector = bytes4(keccak256(bytes(\"transfer(address,uint256)\"))) */\n      swap1\n      pop\n        /* \"low/call.sol\":230:550  function getSelector() public pure returns(bytes4  selector){... */\n      swap1\n      jump\t// out\n        /* \"low/call.sol\":106:126  uint256 public s_val */\n    tag_16:\n      sload(0x01)\n      dup2\n      jump\t// out\n        /* \"low/call.sol\":553:775  function getDataToCallTransfer(address _to,uint256 _amount) public pure returns(bytes memory data){... */\n    tag_22:\n        /* \"low/call.sol\":633:650  bytes memory data */\n      0x60\n        /* \"low/call.sol\":744:757  getSelector() */\n      tag_43\n        /* \"low/call.sol\":744:755  getSelector */\n      tag_12\n        /* \"low/call.sol\":744:757  getSelector() */\n      jump\t// in\n    tag_43:\n        /* \"low/call.sol\":759:762  _to */\n      dup4\n        /* \"low/call.sol\":763:770  _amount */\n      dup4\n        /* \"low/call.sol\":721:771  abi.encodeWithSelector(getSelector(), _to,_amount) */\n      add(0x24, mload(0x40))\n      tag_44\n      swap3\n      swap2\n      swap1\n      tag_45\n      jump\t// in\n    tag_44:\n      mload(0x40)\n      0x20\n      dup2\n      dup4\n      sub\n      sub\n      dup2\n      mstore\n      swap1\n      0x40\n      mstore\n      swap1\n      not(0xffffffffffffffffffffffffffffffffffffffffffffffffffffffff)\n      and\n      0x20\n      dup3\n      add\n      dup1\n      mload\n      0xffffffffffffffffffffffffffffffffffffffffffffffffffffffff\n      dup4\n      dup2\n      dup4\n      and\n      or\n      dup4\n      mstore\n      pop\n      pop\n      pop\n      pop\n        /* \"low/call.sol\":714:771  return abi.encodeWithSelector(getSelector(), _to,_amount) */\n      swap1\n      pop\n        /* \"low/call.sol\":553:775  function getDataToCallTransfer(address _to,uint256 _amount) public pure returns(bytes memory data){... */\n      swap3\n      swap2\n      pop\n      pop\n      jump\t// out\n        /* \"low/call.sol\":1289:1749  function callTransferFunctionDirectlySig(address _to, uint256 _amount) public returns(bytes4,bool){... */\n    tag_27:\n        /* \"low/call.sol\":1375:1381  bytes4 */\n      0x00\n        /* \"low/call.sol\":1382:1386  bool */\n      0x00\n        /* \"low/call.sol\":1395:1407  bool success */\n      0x00\n        /* \"low/call.sol\":1408:1431  bytes memory returnData */\n      0x00\n        /* \"low/call.sol\":1443:1447  this */\n      address\n        /* \"low/call.sol\":1435:1453  address(this).call */\n      0xffffffffffffffffffffffffffffffffffffffff\n      and\n        /* \"low/call.sol\":1605:1608  _to */\n      dup7\n        /* \"low/call.sol\":1609:1616  _amount */\n      dup7\n        /* \"low/call.sol\":1552:1617  abi.encodeWithSignature(\"transfer(address,uint256)\", _to,_amount) */\n      add(0x24, mload(0x40))\n      tag_47\n      swap3\n      swap2\n      swap1\n      tag_45\n      jump\t// in\n    tag_47:\n      mload(0x40)\n      0x20\n      dup2\n      dup4\n      sub\n      sub\n      dup2\n      mstore\n      swap1\n      0x40\n      mstore\n      and(not(0xffffffffffffffffffffffffffffffffffffffffffffffffffffffff), 0xa9059cbb00000000000000000000000000000000000000000000000000000000)\n      0x20\n      dup3\n      add\n      dup1\n      mload\n      0xffffffffffffffffffffffffffffffffffffffffffffffffffffffff\n      dup4\n      dup2\n      dup4\n      and\n      or\n      dup4\n      mstore\n      pop\n      pop\n      pop\n      pop\n        /* \"low/call.sol\":1435:1624  address(this).call(... */\n      mload(0x40)\n      tag_48\n      swap2\n      swap1\n      tag_49\n      jump\t// in\n    tag_48:\n      0x00\n      mload(0x40)\n      dup1\n      dup4\n      sub\n      dup2\n      0x00\n      dup7\n      gas\n      call\n      swap2\n      pop\n      pop\n      returndatasize\n      dup1\n      0x00\n      dup2\n      eq\n      tag_52\n      jumpi\n      mload(0x40)\n      swap2\n      pop\n      and(add(returndatasize, 0x3f), not(0x1f))\n      dup3\n      add\n      0x40\n      mstore\n      returndatasize\n      dup3\n      mstore\n      returndatasize\n      0x00\n      0x20\n      dup5\n      add\n      returndatacopy\n      jump(tag_51)\n    tag_52:\n      0x60\n      swap2\n      pop\n    tag_51:\n      pop\n        /* \"low/call.sol\":1394:1624  (bool success,bytes memory returnData) = address(this).call(... */\n      swap2\n      pop\n      swap2\n      pop\n        /* \"low/call.sol\":1725:1735  returnData */\n      dup1\n        /* \"low/call.sol\":1718:1736  bytes4(returnData) */\n      tag_53\n      swap1\n      tag_54\n      jump\t// in\n    tag_53:\n        /* \"low/call.sol\":1738:1745  success */\n      dup3\n        /* \"low/call.sol\":1711:1746  return(bytes4(returnData), success) */\n      swap4\n      pop\n      swap4\n      pop\n      pop\n      pop\n        /* \"low/call.sol\":1289:1749  function callTransferFunctionDirectlySig(address _to, uint256 _amount) public returns(bytes4,bool){... */\n      swap3\n      pop\n      swap3\n      swap1\n      pop\n      jump\t// out\n        /* \"low/call.sol\":778:1220  function callTransferFunctionDirectly(address _to, uint256 _amount) public returns(bytes4,bool){... */\n    tag_32:\n        /* \"low/call.sol\":861:867  bytes4 */\n      0x00\n        /* \"low/call.sol\":868:872  bool */\n      0x00\n        /* \"low/call.sol\":881:893  bool success */\n      0x00\n        /* \"low/call.sol\":894:917  bytes memory returnData */\n      0x00\n        /* \"low/call.sol\":929:933  this */\n      address\n        /* \"low/call.sol\":921:939  address(this).call */\n      0xffffffffffffffffffffffffffffffffffffffff\n      and\n        /* \"low/call.sol\":1061:1074  getSelector() */\n      tag_56\n        /* \"low/call.sol\":1061:1072  getSelector */\n      tag_12\n        /* \"low/call.sol\":1061:1074  getSelector() */\n      jump\t// in\n    tag_56:\n        /* \"low/call.sol\":1076:1079  _to */\n      dup8\n        /* \"low/call.sol\":1080:1087  _amount */\n      dup8\n        /* \"low/call.sol\":1038:1088  abi.encodeWithSelector(getSelector(), _to,_amount) */\n      add(0x24, mload(0x40))\n      tag_57\n      swap3\n      swap2\n      swap1\n      tag_45\n      jump\t// in\n    tag_57:\n      mload(0x40)\n      0x20\n      dup2\n      dup4\n      sub\n      sub\n      dup2\n      mstore\n      swap1\n      0x40\n      mstore\n      swap1\n      not(0xffffffffffffffffffffffffffffffffffffffffffffffffffffffff)\n      and\n      0x20\n      dup3\n      add\n      dup1\n      mload\n      0xffffffffffffffffffffffffffffffffffffffffffffffffffffffff\n      dup4\n      dup2\n      dup4\n      and\n      or\n      dup4\n      mstore\n      pop\n      pop\n      pop\n      pop\n        /* \"low/call.sol\":921:1095  address(this).call(... */\n      mload(0x40)\n      tag_58\n      swap2\n      swap1\n      tag_49\n      jump\t// in\n    tag_58:\n      0x00\n      mload(0x40)\n      dup1\n      dup4\n      sub\n      dup2\n      0x00\n      dup7\n      gas\n      call\n      swap2\n      pop\n      pop\n      returndatasize\n      dup1\n      0x00\n      dup2\n      eq\n      tag_61\n      jumpi\n      mload(0x40)\n      swap2\n      pop\n      and(add(returndatasize, 0x3f), not(0x1f))\n      dup3\n      add\n      0x40\n      mstore\n      returndatasize\n      dup3\n      mstore\n      returndatasize\n      0x00\n      0x20\n      dup5\n      add\n      returndatacopy\n      jump(tag_60)\n    tag_61:\n      0x60\n      swap2\n      pop\n    tag_60:\n      pop\n        /* \"low/call.sol\":880:1095  (bool success,bytes memory returnData) = address(this).call(... */\n      swap2\n      pop\n      swap2\n      pop\n        /* \"low/call.sol\":1196:1206  returnData */\n      dup1\n        /* \"low/call.sol\":1189:1207  bytes4(returnData) */\n      tag_62\n      swap1\n      tag_54\n      jump\t// in\n    tag_62:\n        /* \"low/call.sol\":1209:1216  success */\n      dup3\n        /* \"low/call.sol\":1182:1217  return(bytes4(returnData), success) */\n      swap4\n      pop\n      swap4\n      pop\n      pop\n      pop\n        /* \"low/call.sol\":778:1220  function callTransferFunctionDirectly(address _to, uint256 _amount) public returns(bytes4,bool){... */\n      swap3\n      pop\n      swap3\n      swap1\n      pop\n      jump\t// out\n        /* \"low/call.sol\":130:227  function transfer(address addre,uint256 val) public {... */\n    tag_36:\n        /* \"low/call.sol\":198:203  addre */\n      dup2\n        /* \"low/call.sol\":188:195  s_addre */\n      0x00\n      0x00\n        /* \"low/call.sol\":188:203  s_addre = addre */\n      0x0100\n      exp\n      dup2\n      sload\n      dup2\n      0xffffffffffffffffffffffffffffffffffffffff\n      mul\n      not\n      and\n      swap1\n      dup4\n      0xffffffffffffffffffffffffffffffffffffffff\n      and\n      mul\n      or\n      swap1\n      sstore\n      pop\n        /* \"low/call.sol\":215:218  val */\n      dup1\n        /* \"low/call.sol\":208:213  s_val */\n      0x01\n        /* \"low/call.sol\":208:218  s_val =val */\n      dup2\n      swap1\n      sstore\n      pop\n        /* \"low/call.sol\":130:227  function transfer(address addre,uint256 val) public {... */\n      pop\n      pop\n      jump\t// out\n        /* \"low/call.sol\":82:104  address public s_addre */\n    tag_38:\n      0x00\n      0x00\n      swap1\n      sload\n      swap1\n      0x0100\n      exp\n      swap1\n      div\n      0xffffffffffffffffffffffffffffffffffffffff\n      and\n      dup2\n      jump\t// out\n        /* \"#utility.yul\":7:156   */\n    tag_64:\n        /* \"#utility.yul\":43:50   */\n      0x00\n        /* \"#utility.yul\":83:149   */\n      0xffffffff00000000000000000000000000000000000000000000000000000000\n        /* \"#utility.yul\":76:81   */\n      dup3\n        /* \"#utility.yul\":72:150   */\n      and\n        /* \"#utility.yul\":61:150   */\n      swap1\n      pop\n        /* \"#utility.yul\":7:156   */\n      swap2\n      swap1\n      pop\n      jump\t// out\n        /* \"#utility.yul\":162:277   */\n    tag_65:\n        /* \"#utility.yul\":247:270   */\n      tag_93\n        /* \"#utility.yul\":264:269   */\n      dup2\n        /* \"#utility.yul\":247:270   */\n      tag_64\n      jump\t// in\n    tag_93:\n        /* \"#utility.yul\":242:245   */\n      dup3\n        /* \"#utility.yul\":235:271   */\n      mstore\n        /* \"#utility.yul\":162:277   */\n      pop\n      pop\n      jump\t// out\n        /* \"#utility.yul\":283:501   */\n    tag_14:\n        /* \"#utility.yul\":374:378   */\n      0x00\n        /* \"#utility.yul\":412:414   */\n      0x20\n        /* \"#utility.yul\":401:410   */\n      dup3\n        /* \"#utility.yul\":397:415   */\n      add\n        /* \"#utility.yul\":389:415   */\n      swap1\n      pop\n        /* \"#utility.yul\":425:494   */\n      tag_95\n        /* \"#utility.yul\":491:492   */\n      0x00\n        /* \"#utility.yul\":480:489   */\n      dup4\n        /* \"#utility.yul\":476:493   */\n      add\n        /* \"#utility.yul\":467:473   */\n      dup5\n        /* \"#utility.yul\":425:494   */\n      tag_65\n      jump\t// in\n    tag_95:\n        /* \"#utility.yul\":283:501   */\n      swap3\n      swap2\n      pop\n      pop\n      jump\t// out\n        /* \"#utility.yul\":507:584   */\n    tag_66:\n        /* \"#utility.yul\":544:551   */\n      0x00\n        /* \"#utility.yul\":573:578   */\n      dup2\n        /* \"#utility.yul\":562:578   */\n      swap1\n      pop\n        /* \"#utility.yul\":507:584   */\n      swap2\n      swap1\n      pop\n      jump\t// out\n        /* \"#utility.yul\":590:708   */\n    tag_67:\n        /* \"#utility.yul\":677:701   */\n      tag_98\n        /* \"#utility.yul\":695:700   */\n      dup2\n        /* \"#utility.yul\":677:701   */\n      tag_66\n      jump\t// in\n    tag_98:\n        /* \"#utility.yul\":672:675   */\n      dup3\n        /* \"#utility.yul\":665:702   */\n      mstore\n        /* \"#utility.yul\":590:708   */\n      pop\n      pop\n      jump\t// out\n        /* \"#utility.yul\":714:936   */\n    tag_18:\n        /* \"#utility.yul\":807:811   */\n      0x00\n        /* \"#utility.yul\":845:847   */\n      0x20\n        /* \"#utility.yul\":834:843   */\n      dup3\n        /* \"#utility.yul\":830:848   */\n      add\n        /* \"#utility.yul\":822:848   */\n      swap1\n      pop\n        /* \"#utility.yul\":858:929   */\n      tag_100\n        /* \"#utility.yul\":926:927   */\n      0x00\n        /* \"#utility.yul\":915:924   */\n      dup4\n        /* \"#utility.yul\":911:928   */\n      add\n        /* \"#utility.yul\":902:908   */\n      dup5\n        /* \"#utility.yul\":858:929   */\n      tag_67\n      jump\t// in\n    tag_100:\n        /* \"#utility.yul\":714:936   */\n      swap3\n      swap2\n      pop\n      pop\n      jump\t// out\n        /* \"#utility.yul\":1023:1140   */\n    tag_69:\n        /* \"#utility.yul\":1132:1133   */\n      0x00\n        /* \"#utility.yul\":1129:1130   */\n      0x00\n        /* \"#utility.yul\":1122:1134   */\n      revert\n        /* \"#utility.yul\":1269:1395   */\n    tag_71:\n        /* \"#utility.yul\":1306:1313   */\n      0x00\n        /* \"#utility.yul\":1346:1388   */\n      0xffffffffffffffffffffffffffffffffffffffff\n        /* \"#utility.yul\":1339:1344   */\n      dup3\n        /* \"#utility.yul\":1335:1389   */\n      and\n        /* \"#utility.yul\":1324:1389   */\n      swap1\n      pop\n        /* \"#utility.yul\":1269:1395   */\n      swap2\n      swap1\n      pop\n      jump\t// out\n        /* \"#utility.yul\":1401:1497   */\n    tag_72:\n        /* \"#utility.yul\":1438:1445   */\n      0x00\n        /* \"#utility.yul\":1467:1491   */\n      tag_106\n        /* \"#utility.yul\":1485:1490   */\n      dup3\n        /* \"#utility.yul\":1467:1491   */\n      tag_71\n      jump\t// in\n    tag_106:\n        /* \"#utility.yul\":1456:1491   */\n      swap1\n      pop\n        /* \"#utility.yul\":1401:1497   */\n      swap2\n      swap1\n      pop\n      jump\t// out\n        /* \"#utility.yul\":1503:1625   */\n    tag_73:\n        /* \"#utility.yul\":1576:1600   */\n      tag_108\n        /* \"#utility.yul\":1594:1599   */\n      dup2\n        /* \"#utility.yul\":1576:1600   */\n      tag_72\n      jump\t// in\n    tag_108:\n        /* \"#utility.yul\":1569:1574   */\n      dup2\n        /* \"#utility.yul\":1566:1601   */\n      eq\n        /* \"#utility.yul\":1556:1619   */\n      tag_109\n      jumpi\n        /* \"#utility.yul\":1615:1616   */\n      0x00\n        /* \"#utility.yul\":1612:1613   */\n      0x00\n        /* \"#utility.yul\":1605:1617   */\n      revert\n        /* \"#utility.yul\":1556:1619   */\n    tag_109:\n        /* \"#utility.yul\":1503:1625   */\n      pop\n      jump\t// out\n        /* \"#utility.yul\":1631:1770   */\n    tag_74:\n        /* \"#utility.yul\":1677:1682   */\n      0x00\n        /* \"#utility.yul\":1715:1721   */\n      dup2\n        /* \"#utility.yul\":1702:1722   */\n      calldataload\n        /* \"#utility.yul\":1693:1722   */\n      swap1\n      pop\n        /* \"#utility.yul\":1731:1764   */\n      tag_111\n        /* \"#utility.yul\":1758:1763   */\n      dup2\n        /* \"#utility.yul\":1731:1764   */\n      tag_73\n      jump\t// in\n    tag_111:\n        /* \"#utility.yul\":1631:1770   */\n      swap3\n      swap2\n      pop\n      pop\n      jump\t// out\n        /* \"#utility.yul\":1776:1898   */\n    tag_75:\n        /* \"#utility.yul\":1849:1873   */\n      tag_113\n        /* \"#utility.yul\":1867:1872   */\n      dup2\n        /* \"#utility.yul\":1849:1873   */\n      tag_66\n      jump\t// in\n    tag_113:\n        /* \"#utility.yul\":1842:1847   */\n      dup2\n        /* \"#utility.yul\":1839:1874   */\n      eq\n        /* \"#utility.yul\":1829:1892   */\n      tag_114\n      jumpi\n        /* \"#utility.yul\":1888:1889   */\n      0x00\n        /* \"#utility.yul\":1885:1886   */\n      0x00\n        /* \"#utility.yul\":1878:1890   */\n      revert\n        /* \"#utility.yul\":1829:1892   */\n    tag_114:\n        /* \"#utility.yul\":1776:1898   */\n      pop\n      jump\t// out\n        /* \"#utility.yul\":1904:2043   */\n    tag_76:\n        /* \"#utility.yul\":1950:1955   */\n      0x00\n        /* \"#utility.yul\":1988:1994   */\n      dup2\n        /* \"#utility.yul\":1975:1995   */\n      calldataload\n        /* \"#utility.yul\":1966:1995   */\n      swap1\n      pop\n        /* \"#utility.yul\":2004:2037   */\n      tag_116\n        /* \"#utility.yul\":2031:2036   */\n      dup2\n        /* \"#utility.yul\":2004:2037   */\n      tag_75\n      jump\t// in\n    tag_116:\n        /* \"#utility.yul\":1904:2043   */\n      swap3\n      swap2\n      pop\n      pop\n      jump\t// out\n        /* \"#utility.yul\":2049:2523   */\n    tag_21:\n        /* \"#utility.yul\":2117:2123   */\n      0x00\n        /* \"#utility.yul\":2125:2131   */\n      0x00\n        /* \"#utility.yul\":2174:2176   */\n      0x40\n        /* \"#utility.yul\":2162:2171   */\n      dup4\n        /* \"#utility.yul\":2153:2160   */\n      dup6\n        /* \"#utility.yul\":2149:2172   */\n      sub\n        /* \"#utility.yul\":2145:2177   */\n      slt\n        /* \"#utility.yul\":2142:2261   */\n      iszero\n      tag_118\n      jumpi\n        /* \"#utility.yul\":2180:2259   */\n      tag_119\n      tag_69\n      jump\t// in\n    tag_119:\n        /* \"#utility.yul\":2142:2261   */\n    tag_118:\n        /* \"#utility.yul\":2300:2301   */\n      0x00\n        /* \"#utility.yul\":2325:2378   */\n      tag_120\n        /* \"#utility.yul\":2370:2377   */\n      dup6\n        /* \"#utility.yul\":2361:2367   */\n      dup3\n        /* \"#utility.yul\":2350:2359   */\n      dup7\n        /* \"#utility.yul\":2346:2368   */\n      add\n        /* \"#utility.yul\":2325:2378   */\n      tag_74\n      jump\t// in\n    tag_120:\n        /* \"#utility.yul\":2315:2378   */\n      swap3\n      pop\n        /* \"#utility.yul\":2271:2388   */\n      pop\n        /* \"#utility.yul\":2427:2429   */\n      0x20\n        /* \"#utility.yul\":2453:2506   */\n      tag_121\n        /* \"#utility.yul\":2498:2505   */\n      dup6\n        /* \"#utility.yul\":2489:2495   */\n      dup3\n        /* \"#utility.yul\":2478:2487   */\n      dup7\n        /* \"#utility.yul\":2474:2496   */\n      add\n        /* \"#utility.yul\":2453:2506   */\n      tag_76\n      jump\t// in\n    tag_121:\n        /* \"#utility.yul\":2443:2506   */\n      swap2\n      pop\n        /* \"#utility.yul\":2398:2516   */\n      pop\n        /* \"#utility.yul\":2049:2523   */\n      swap3\n      pop\n      swap3\n      swap1\n      pop\n      jump\t// out\n        /* \"#utility.yul\":2529:2627   */\n    tag_77:\n        /* \"#utility.yul\":2580:2586   */\n      0x00\n        /* \"#utility.yul\":2614:2619   */\n      dup2\n        /* \"#utility.yul\":2608:2620   */\n      mload\n        /* \"#utility.yul\":2598:2620   */\n      swap1\n      pop\n        /* \"#utility.yul\":2529:2627   */\n      swap2\n      swap1\n      pop\n      jump\t// out\n        /* \"#utility.yul\":2633:2801   */\n    tag_78:\n        /* \"#utility.yul\":2716:2727   */\n      0x00\n        /* \"#utility.yul\":2750:2756   */\n      dup3\n        /* \"#utility.yul\":2745:2748   */\n      dup3\n        /* \"#utility.yul\":2738:2757   */\n      mstore\n        /* \"#utility.yul\":2790:2794   */\n      0x20\n        /* \"#utility.yul\":2785:2788   */\n      dup3\n        /* \"#utility.yul\":2781:2795   */\n      add\n        /* \"#utility.yul\":2766:2795   */\n      swap1\n      pop\n        /* \"#utility.yul\":2633:2801   */\n      swap3\n      swap2\n      pop\n      pop\n      jump\t// out\n        /* \"#utility.yul\":2807:2946   */\n    tag_79:\n        /* \"#utility.yul\":2896:2902   */\n      dup3\n        /* \"#utility.yul\":2891:2894   */\n      dup2\n        /* \"#utility.yul\":2886:2889   */\n      dup4\n        /* \"#utility.yul\":2880:2903   */\n      mcopy\n        /* \"#utility.yul\":2937:2938   */\n      0x00\n        /* \"#utility.yul\":2928:2934   */\n      dup4\n        /* \"#utility.yul\":2923:2926   */\n      dup4\n        /* \"#utility.yul\":2919:2935   */\n      add\n        /* \"#utility.yul\":2912:2939   */\n      mstore\n        /* \"#utility.yul\":2807:2946   */\n      pop\n      pop\n      pop\n      jump\t// out\n        /* \"#utility.yul\":2952:3054   */\n    tag_80:\n        /* \"#utility.yul\":2993:2999   */\n      0x00\n        /* \"#utility.yul\":3044:3046   */\n      0x1f\n        /* \"#utility.yul\":3040:3047   */\n      not\n        /* \"#utility.yul\":3035:3037   */\n      0x1f\n        /* \"#utility.yul\":3028:3033   */\n      dup4\n        /* \"#utility.yul\":3024:3038   */\n      add\n        /* \"#utility.yul\":3020:3048   */\n      and\n        /* \"#utility.yul\":3010:3048   */\n      swap1\n      pop\n        /* \"#utility.yul\":2952:3054   */\n      swap2\n      swap1\n      pop\n      jump\t// out\n        /* \"#utility.yul\":3060:3433   */\n    tag_81:\n        /* \"#utility.yul\":3146:3149   */\n      0x00\n        /* \"#utility.yul\":3174:3212   */\n      tag_127\n        /* \"#utility.yul\":3206:3211   */\n      dup3\n        /* \"#utility.yul\":3174:3212   */\n      tag_77\n      jump\t// in\n    tag_127:\n        /* \"#utility.yul\":3228:3298   */\n      tag_128\n        /* \"#utility.yul\":3291:3297   */\n      dup2\n        /* \"#utility.yul\":3286:3289   */\n      dup6\n        /* \"#utility.yul\":3228:3298   */\n      tag_78\n      jump\t// in\n    tag_128:\n        /* \"#utility.yul\":3221:3298   */\n      swap4\n      pop\n        /* \"#utility.yul\":3307:3372   */\n      tag_129\n        /* \"#utility.yul\":3365:3371   */\n      dup2\n        /* \"#utility.yul\":3360:3363   */\n      dup6\n        /* \"#utility.yul\":3353:3357   */\n      0x20\n        /* \"#utility.yul\":3346:3351   */\n      dup7\n        /* \"#utility.yul\":3342:3358   */\n      add\n        /* \"#utility.yul\":3307:3372   */\n      tag_79\n      jump\t// in\n    tag_129:\n        /* \"#utility.yul\":3397:3426   */\n      tag_130\n        /* \"#utility.yul\":3419:3425   */\n      dup2\n        /* \"#utility.yul\":3397:3426   */\n      tag_80\n      jump\t// in\n    tag_130:\n        /* \"#utility.yul\":3392:3395   */\n      dup5\n        /* \"#utility.yul\":3388:3427   */\n      add\n        /* \"#utility.yul\":3381:3427   */\n      swap2\n      pop\n        /* \"#utility.yul\":3150:3433   */\n      pop\n        /* \"#utility.yul\":3060:3433   */\n      swap3\n      swap2\n      pop\n      pop\n      jump\t// out\n        /* \"#utility.yul\":3439:3748   */\n    tag_24:\n        /* \"#utility.yul\":3550:3554   */\n      0x00\n        /* \"#utility.yul\":3588:3590   */\n      0x20\n        /* \"#utility.yul\":3577:3586   */\n      dup3\n        /* \"#utility.yul\":3573:3591   */\n      add\n        /* \"#utility.yul\":3565:3591   */\n      swap1\n      pop\n        /* \"#utility.yul\":3637:3646   */\n      dup2\n        /* \"#utility.yul\":3631:3635   */\n      dup2\n        /* \"#utility.yul\":3627:3647   */\n      sub\n        /* \"#utility.yul\":3623:3624   */\n      0x00\n        /* \"#utility.yul\":3612:3621   */\n      dup4\n        /* \"#utility.yul\":3608:3625   */\n      add\n        /* \"#utility.yul\":3601:3648   */\n      mstore\n        /* \"#utility.yul\":3665:3741   */\n      tag_132\n        /* \"#utility.yul\":3736:3740   */\n      dup2\n        /* \"#utility.yul\":3727:3733   */\n      dup5\n        /* \"#utility.yul\":3665:3741   */\n      tag_81\n      jump\t// in\n    tag_132:\n        /* \"#utility.yul\":3657:3741   */\n      swap1\n      pop\n        /* \"#utility.yul\":3439:3748   */\n      swap3\n      swap2\n      pop\n      pop\n      jump\t// out\n        /* \"#utility.yul\":3754:3844   */\n    tag_82:\n        /* \"#utility.yul\":3788:3795   */\n      0x00\n        /* \"#utility.yul\":3831:3836   */\n      dup2\n        /* \"#utility.yul\":3824:3837   */\n      iszero\n        /* \"#utility.yul\":3817:3838   */\n      iszero\n        /* \"#utility.yul\":3806:3838   */\n      swap1\n      pop\n        /* \"#utility.yul\":3754:3844   */\n      swap2\n      swap1\n      pop\n      jump\t// out\n        /* \"#utility.yul\":3850:3959   */\n    tag_83:\n        /* \"#utility.yul\":3931:3952   */\n      tag_135\n        /* \"#utility.yul\":3946:3951   */\n      dup2\n        /* \"#utility.yul\":3931:3952   */\n      tag_82\n      jump\t// in\n    tag_135:\n        /* \"#utility.yul\":3926:3929   */\n      dup3\n        /* \"#utility.yul\":3919:3953   */\n      mstore\n        /* \"#utility.yul\":3850:3959   */\n      pop\n      pop\n      jump\t// out\n        /* \"#utility.yul\":3965:4281   */\n    tag_29:\n        /* \"#utility.yul\":4078:4082   */\n      0x00\n        /* \"#utility.yul\":4116:4118   */\n      0x40\n        /* \"#utility.yul\":4105:4114   */\n      dup3\n        /* \"#utility.yul\":4101:4119   */\n      add\n        /* \"#utility.yul\":4093:4119   */\n      swap1\n      pop\n        /* \"#utility.yul\":4129:4198   */\n      tag_137\n        /* \"#utility.yul\":4195:4196   */\n      0x00\n        /* \"#utility.yul\":4184:4193   */\n      dup4\n        /* \"#utility.yul\":4180:4197   */\n      add\n        /* \"#utility.yul\":4171:4177   */\n      dup6\n        /* \"#utility.yul\":4129:4198   */\n      tag_65\n      jump\t// in\n    tag_137:\n        /* \"#utility.yul\":4208:4274   */\n      tag_138\n        /* \"#utility.yul\":4270:4272   */\n      0x20\n        /* \"#utility.yul\":4259:4268   */\n      dup4\n        /* \"#utility.yul\":4255:4273   */\n      add\n        /* \"#utility.yul\":4246:4252   */\n      dup5\n        /* \"#utility.yul\":4208:4274   */\n      tag_83\n      jump\t// in\n    tag_138:\n        /* \"#utility.yul\":3965:4281   */\n      swap4\n      swap3\n      pop\n      pop\n      pop\n      jump\t// out\n        /* \"#utility.yul\":4287:4405   */\n    tag_84:\n        /* \"#utility.yul\":4374:4398   */\n      tag_140\n        /* \"#utility.yul\":4392:4397   */\n      dup2\n        /* \"#utility.yul\":4374:4398   */\n      tag_72\n      jump\t// in\n    tag_140:\n        /* \"#utility.yul\":4369:4372   */\n      dup3\n        /* \"#utility.yul\":4362:4399   */\n      mstore\n        /* \"#utility.yul\":4287:4405   */\n      pop\n      pop\n      jump\t// out\n        /* \"#utility.yul\":4411:4633   */\n    tag_40:\n        /* \"#utility.yul\":4504:4508   */\n      0x00\n        /* \"#utility.yul\":4542:4544   */\n      0x20\n        /* \"#utility.yul\":4531:4540   */\n      dup3\n        /* \"#utility.yul\":4527:4545   */\n      add\n        /* \"#utility.yul\":4519:4545   */\n      swap1\n      pop\n        /* \"#utility.yul\":4555:4626   */\n      tag_142\n        /* \"#utility.yul\":4623:4624   */\n      0x00\n        /* \"#utility.yul\":4612:4621   */\n      dup4\n        /* \"#utility.yul\":4608:4625   */\n      add\n        /* \"#utility.yul\":4599:4605   */\n      dup5\n        /* \"#utility.yul\":4555:4626   */\n      tag_84\n      jump\t// in\n    tag_142:\n        /* \"#utility.yul\":4411:4633   */\n      swap3\n      swap2\n      pop\n      pop\n      jump\t// out\n        /* \"#utility.yul\":4639:4971   */\n    tag_45:\n        /* \"#utility.yul\":4760:4764   */\n      0x00\n        /* \"#utility.yul\":4798:4800   */\n      0x40\n        /* \"#utility.yul\":4787:4796   */\n      dup3\n        /* \"#utility.yul\":4783:4801   */\n      add\n        /* \"#utility.yul\":4775:4801   */\n      swap1\n      pop\n        /* \"#utility.yul\":4811:4882   */\n      tag_144\n        /* \"#utility.yul\":4879:4880   */\n      0x00\n        /* \"#utility.yul\":4868:4877   */\n      dup4\n        /* \"#utility.yul\":4864:4881   */\n      add\n        /* \"#utility.yul\":4855:4861   */\n      dup6\n        /* \"#utility.yul\":4811:4882   */\n      tag_84\n      jump\t// in\n    tag_144:\n        /* \"#utility.yul\":4892:4964   */\n      tag_145\n        /* \"#utility.yul\":4960:4962   */\n      0x20\n        /* \"#utility.yul\":4949:4958   */\n      dup4\n        /* \"#utility.yul\":4945:4963   */\n      add\n        /* \"#utility.yul\":4936:4942   */\n      dup5\n        /* \"#utility.yul\":4892:4964   */\n      tag_67\n      jump\t// in\n    tag_145:\n        /* \"#utility.yul\":4639:4971   */\n      swap4\n      swap3\n      pop\n      pop\n      pop\n      jump\t// out\n        /* \"#utility.yul\":4977:5124   */\n    tag_85:\n        /* \"#utility.yul\":5078:5089   */\n      0x00\n        /* \"#utility.yul\":5115:5118   */\n      dup2\n        /* \"#utility.yul\":5100:5118   */\n      swap1\n      pop\n        /* \"#utility.yul\":4977:5124   */\n      swap3\n      swap2\n      pop\n      pop\n      jump\t// out\n        /* \"#utility.yul\":5130:5516   */\n    tag_86:\n        /* \"#utility.yul\":5234:5237   */\n      0x00\n        /* \"#utility.yul\":5262:5300   */\n      tag_148\n        /* \"#utility.yul\":5294:5299   */\n      dup3\n        /* \"#utility.yul\":5262:5300   */\n      tag_77\n      jump\t// in\n    tag_148:\n        /* \"#utility.yul\":5316:5404   */\n      tag_149\n        /* \"#utility.yul\":5397:5403   */\n      dup2\n        /* \"#utility.yul\":5392:5395   */\n      dup6\n        /* \"#utility.yul\":5316:5404   */\n      tag_85\n      jump\t// in\n    tag_149:\n        /* \"#utility.yul\":5309:5404   */\n      swap4\n      pop\n        /* \"#utility.yul\":5413:5478   */\n      tag_150\n        /* \"#utility.yul\":5471:5477   */\n      dup2\n        /* \"#utility.yul\":5466:5469   */\n      dup6\n        /* \"#utility.yul\":5459:5463   */\n      0x20\n        /* \"#utility.yul\":5452:5457   */\n      dup7\n        /* \"#utility.yul\":5448:5464   */\n      add\n        /* \"#utility.yul\":5413:5478   */\n      tag_79\n      jump\t// in\n    tag_150:\n        /* \"#utility.yul\":5503:5509   */\n      dup1\n        /* \"#utility.yul\":5498:5501   */\n      dup5\n        /* \"#utility.yul\":5494:5510   */\n      add\n        /* \"#utility.yul\":5487:5510   */\n      swap2\n      pop\n        /* \"#utility.yul\":5238:5516   */\n      pop\n        /* \"#utility.yul\":5130:5516   */\n      swap3\n      swap2\n      pop\n      pop\n      jump\t// out\n        /* \"#utility.yul\":5522:5793   */\n    tag_49:\n        /* \"#utility.yul\":5652:5655   */\n      0x00\n        /* \"#utility.yul\":5674:5767   */\n      tag_152\n        /* \"#utility.yul\":5763:5766   */\n      dup3\n        /* \"#utility.yul\":5754:5760   */\n      dup5\n        /* \"#utility.yul\":5674:5767   */\n      tag_86\n      jump\t// in\n    tag_152:\n        /* \"#utility.yul\":5667:5767   */\n      swap2\n      pop\n        /* \"#utility.yul\":5784:5787   */\n      dup2\n        /* \"#utility.yul\":5777:5787   */\n      swap1\n      pop\n        /* \"#utility.yul\":5522:5793   */\n      swap3\n      swap2\n      pop\n      pop\n      jump\t// out\n        /* \"#utility.yul\":5799:5915   */\n    tag_87:\n        /* \"#utility.yul\":5850:5854   */\n      0x00\n        /* \"#utility.yul\":5873:5876   */\n      dup2\n        /* \"#utility.yul\":5865:5876   */\n      swap1\n      pop\n        /* \"#utility.yul\":5903:5907   */\n      0x20\n        /* \"#utility.yul\":5898:5901   */\n      dup3\n        /* \"#utility.yul\":5894:5908   */\n      add\n        /* \"#utility.yul\":5886:5908   */\n      swap1\n      pop\n        /* \"#utility.yul\":5799:5915   */\n      swap2\n      swap1\n      pop\n      jump\t// out\n        /* \"#utility.yul\":5921:6073   */\n    tag_88:\n        /* \"#utility.yul\":5963:5974   */\n      0x00\n        /* \"#utility.yul\":5999:6027   */\n      tag_155\n        /* \"#utility.yul\":6022:6025   */\n      dup3\n        /* \"#utility.yul\":6016:6026   */\n      mload\n        /* \"#utility.yul\":5999:6027   */\n      tag_64\n      jump\t// in\n    tag_155:\n        /* \"#utility.yul\":6061:6066   */\n      dup1\n        /* \"#utility.yul\":6037:6066   */\n      swap2\n      pop\n        /* \"#utility.yul\":5975:6073   */\n      pop\n        /* \"#utility.yul\":5921:6073   */\n      swap2\n      swap1\n      pop\n      jump\t// out\n        /* \"#utility.yul\":6079:6186   */\n    tag_89:\n        /* \"#utility.yul\":6123:6131   */\n      0x00\n        /* \"#utility.yul\":6173:6178   */\n      dup3\n        /* \"#utility.yul\":6167:6171   */\n      dup3\n        /* \"#utility.yul\":6163:6179   */\n      shl\n        /* \"#utility.yul\":6142:6179   */\n      swap1\n      pop\n        /* \"#utility.yul\":6079:6186   */\n      swap3\n      swap2\n      pop\n      pop\n      jump\t// out\n        /* \"#utility.yul\":6192:6782   */\n    tag_54:\n        /* \"#utility.yul\":6275:6280   */\n      0x00\n        /* \"#utility.yul\":6306:6344   */\n      tag_158\n        /* \"#utility.yul\":6338:6343   */\n      dup3\n        /* \"#utility.yul\":6306:6344   */\n      tag_77\n      jump\t// in\n    tag_158:\n        /* \"#utility.yul\":6369:6374   */\n      dup3\n        /* \"#utility.yul\":6396:6436   */\n      tag_159\n        /* \"#utility.yul\":6430:6435   */\n      dup5\n        /* \"#utility.yul\":6396:6436   */\n      tag_87\n      jump\t// in\n    tag_159:\n        /* \"#utility.yul\":6384:6436   */\n      swap1\n      pop\n        /* \"#utility.yul\":6455:6489   */\n      tag_160\n        /* \"#utility.yul\":6480:6488   */\n      dup2\n        /* \"#utility.yul\":6455:6489   */\n      tag_88\n      jump\t// in\n    tag_160:\n        /* \"#utility.yul\":6446:6489   */\n      swap3\n      pop\n        /* \"#utility.yul\":6513:6514   */\n      0x04\n        /* \"#utility.yul\":6505:6511   */\n      dup3\n        /* \"#utility.yul\":6502:6515   */\n      lt\n        /* \"#utility.yul\":6499:6775   */\n      iszero\n      tag_161\n      jumpi\n        /* \"#utility.yul\":6583:6751   */\n      tag_162\n        /* \"#utility.yul\":6667:6733   */\n      0xffffffff00000000000000000000000000000000000000000000000000000000\n        /* \"#utility.yul\":6637:6643   */\n      dup4\n        /* \"#utility.yul\":6634:6635   */\n      0x04\n        /* \"#utility.yul\":6630:6644   */\n      sub\n        /* \"#utility.yul\":6627:6628   */\n      0x08\n        /* \"#utility.yul\":6623:6645   */\n      mul\n        /* \"#utility.yul\":6583:6751   */\n      tag_89\n      jump\t// in\n    tag_162:\n        /* \"#utility.yul\":6560:6565   */\n      dup4\n        /* \"#utility.yul\":6539:6765   */\n      and\n        /* \"#utility.yul\":6530:6765   */\n      swap3\n      pop\n        /* \"#utility.yul\":6499:6775   */\n    tag_161:\n        /* \"#utility.yul\":6281:6782   */\n      pop\n      pop\n        /* \"#utility.yul\":6192:6782   */\n      swap2\n      swap1\n      pop\n      jump\t// out\n\n    auxdata: 0xa26469706673582212208b02ecea86a499edb428a99b28d5ebd8da63a69a6936e844acf97d5bb342f25764736f6c634300081e0033\n}\n",
				"bytecode": {
					"linkReferences": {},
					"object": "6080604052348015600e575f5ffd5b506108538061001c5f395ff3fe608060405234801561000f575f5ffd5b506004361061007b575f3560e01c806388af190b1161005957806388af190b146100eb578063a5694e4a1461011c578063a9059cbb1461014d578063d1870d74146101695761007b565b8063034899bc1461007f57806359c3ed9e1461009d5780637c0c5f23146100bb575b5f5ffd5b610087610187565b6040516100949190610508565b60405180910390f35b6100a56101ca565b6040516100b29190610539565b60405180910390f35b6100d560048036038101906100d091906105da565b6101d0565b6040516100e29190610688565b60405180910390f35b610105600480360381019061010091906105da565b610252565b6040516101139291906106c2565b60405180910390f35b610136600480360381019061013191906105da565b610365565b6040516101449291906106c2565b60405180910390f35b610167600480360381019061016291906105da565b610460565b005b6101716104aa565b60405161017e91906106f8565b60405180910390f35b5f6040518060400160405280601981526020017f7472616e7366657228616464726573732c75696e74323536290000000000000081525080519060200120905090565b60015481565b60606101da610187565b83836040516024016101ed929190610711565b604051602081830303815290604052907bffffffffffffffffffffffffffffffffffffffffffffffffffffffff19166020820180517bffffffffffffffffffffffffffffffffffffffffffffffffffffffff8381831617835250505050905092915050565b5f5f5f5f3073ffffffffffffffffffffffffffffffffffffffff168686604051602401610280929190610711565b6040516020818303038152906040527fa9059cbb000000000000000000000000000000000000000000000000000000007bffffffffffffffffffffffffffffffffffffffffffffffffffffffff19166020820180517bffffffffffffffffffffffffffffffffffffffffffffffffffffffff838183161783525050505060405161030a9190610772565b5f604051808303815f865af19150503d805f8114610343576040519150601f19603f3d011682016040523d82523d5f602084013e610348565b606091505b509150915080610357906107b7565b829350935050509250929050565b5f5f5f5f3073ffffffffffffffffffffffffffffffffffffffff16610388610187565b878760405160240161039b929190610711565b604051602081830303815290604052907bffffffffffffffffffffffffffffffffffffffffffffffffffffffff19166020820180517bffffffffffffffffffffffffffffffffffffffffffffffffffffffff83818316178352505050506040516104059190610772565b5f604051808303815f865af19150503d805f811461043e576040519150601f19603f3d011682016040523d82523d5f602084013e610443565b606091505b509150915080610452906107b7565b829350935050509250929050565b815f5f6101000a81548173ffffffffffffffffffffffffffffffffffffffff021916908373ffffffffffffffffffffffffffffffffffffffff160217905550806001819055505050565b5f5f9054906101000a900473ffffffffffffffffffffffffffffffffffffffff1681565b5f7fffffffff0000000000000000000000000000000000000000000000000000000082169050919050565b610502816104ce565b82525050565b5f60208201905061051b5f8301846104f9565b92915050565b5f819050919050565b61053381610521565b82525050565b5f60208201905061054c5f83018461052a565b92915050565b5f5ffd5b5f73ffffffffffffffffffffffffffffffffffffffff82169050919050565b5f61057f82610556565b9050919050565b61058f81610575565b8114610599575f5ffd5b50565b5f813590506105aa81610586565b92915050565b6105b981610521565b81146105c3575f5ffd5b50565b5f813590506105d4816105b0565b92915050565b5f5f604083850312156105f0576105ef610552565b5b5f6105fd8582860161059c565b925050602061060e858286016105c6565b9150509250929050565b5f81519050919050565b5f82825260208201905092915050565b8281835e5f83830152505050565b5f601f19601f8301169050919050565b5f61065a82610618565b6106648185610622565b9350610674818560208601610632565b61067d81610640565b840191505092915050565b5f6020820190508181035f8301526106a08184610650565b905092915050565b5f8115159050919050565b6106bc816106a8565b82525050565b5f6040820190506106d55f8301856104f9565b6106e260208301846106b3565b9392505050565b6106f281610575565b82525050565b5f60208201905061070b5f8301846106e9565b92915050565b5f6040820190506107245f8301856106e9565b610731602083018461052a565b9392505050565b5f81905092915050565b5f61074c82610618565b6107568185610738565b9350610766818560208601610632565b80840191505092915050565b5f61077d8284610742565b915081905092915050565b5f819050602082019050919050565b5f6107a282516104ce565b80915050919050565b5f82821b905092915050565b5f6107c182610618565b826107cb84610788565b90506107d681610797565b92506004821015610816576108117fffffffff00000000000000000000000000000000000000000000000000000000836004036008026107ab565b831692505b505091905056fea26469706673582212208b02ecea86a499edb428a99b28d5ebd8da63a69a6936e844acf97d5bb342f25764736f6c634300081e0033",
					"opcodes": "PUSH1 0x80 PUSH1 0x40 MSTORE CALLVALUE DUP1 ISZERO PUSH1 0xE JUMPI PUSH0 PUSH0 REVERT JUMPDEST POP PUSH2 0x853 DUP1 PUSH2 0x1C PUSH0 CODECOPY PUSH0 RETURN INVALID PUSH1 0x80 PUSH1 0x40 MSTORE CALLVALUE DUP1 ISZERO PUSH2 0xF JUMPI PUSH0 PUSH0 REVERT JUMPDEST POP PUSH1 0x4 CALLDATASIZE LT PUSH2 0x7B JUMPI PUSH0 CALLDATALOAD PUSH1 0xE0 SHR DUP1 PUSH4 0x88AF190B GT PUSH2 0x59 JUMPI DUP1 PUSH4 0x88AF190B EQ PUSH2 0xEB JUMPI DUP1 PUSH4 0xA5694E4A EQ PUSH2 0x11C JUMPI DUP1 PUSH4 0xA9059CBB EQ PUSH2 0x14D JUMPI DUP1 PUSH4 0xD1870D74 EQ PUSH2 0x169 JUMPI PUSH2 0x7B JUMP JUMPDEST DUP1 PUSH4 0x34899BC EQ PUSH2 0x7F JUMPI DUP1 PUSH4 0x59C3ED9E EQ PUSH2 0x9D JUMPI DUP1 PUSH4 0x7C0C5F23 EQ PUSH2 0xBB JUMPI JUMPDEST PUSH0 PUSH0 REVERT JUMPDEST PUSH2 0x87 PUSH2 0x187 JUMP JUMPDEST PUSH1 0x40 MLOAD PUSH2 0x94 SWAP2 SWAP1 PUSH2 0x508 JUMP JUMPDEST PUSH1 0x40 MLOAD DUP1 SWAP2 SUB SWAP1 RETURN JUMPDEST PUSH2 0xA5 PUSH2 0x1CA JUMP JUMPDEST PUSH1 0x40 MLOAD PUSH2 0xB2 SWAP2 SWAP1 PUSH2 0x539 JUMP JUMPDEST PUSH1 0x40 MLOAD DUP1 SWAP2 SUB SWAP1 RETURN JUMPDEST PUSH2 0xD5 PUSH1 0x4 DUP1 CALLDATASIZE SUB DUP2 ADD SWAP1 PUSH2 0xD0 SWAP2 SWAP1 PUSH2 0x5DA JUMP JUMPDEST PUSH2 0x1D0 JUMP JUMPDEST PUSH1 0x40 MLOAD PUSH2 0xE2 SWAP2 SWAP1 PUSH2 0x688 JUMP JUMPDEST PUSH1 0x40 MLOAD DUP1 SWAP2 SUB SWAP1 RETURN JUMPDEST PUSH2 0x105 PUSH1 0x4 DUP1 CALLDATASIZE SUB DUP2 ADD SWAP1 PUSH2 0x100 SWAP2 SWAP1 PUSH2 0x5DA JUMP JUMPDEST PUSH2 0x252 JUMP JUMPDEST PUSH1 0x40 MLOAD PUSH2 0x113 SWAP3 SWAP2 SWAP1 PUSH2 0x6C2 JUMP JUMPDEST PUSH1 0x40 MLOAD DUP1 SWAP2 SUB SWAP1 RETURN JUMPDEST PUSH2 0x136 PUSH1 0x4 DUP1 CALLDATASIZE SUB DUP2 ADD SWAP1 PUSH2 0x131 SWAP2 SWAP1 PUSH2 0x5DA JUMP JUMPDEST PUSH2 0x365 JUMP JUMPDEST PUSH1 0x40 MLOAD PUSH2 0x144 SWAP3 SWAP2 SWAP1 PUSH2 0x6C2 JUMP JUMPDEST PUSH1 0x40 MLOAD DUP1 SWAP2 SUB SWAP1 RETURN JUMPDEST PUSH2 0x167 PUSH1 0x4 DUP1 CALLDATASIZE SUB DUP2 ADD SWAP1 PUSH2 0x162 SWAP2 SWAP1 PUSH2 0x5DA JUMP JUMPDEST PUSH2 0x460 JUMP JUMPDEST STOP JUMPDEST PUSH2 0x171 PUSH2 0x4AA JUMP JUMPDEST PUSH1 0x40 MLOAD PUSH2 0x17E SWAP2 SWAP1 PUSH2 0x6F8 JUMP JUMPDEST PUSH1 0x40 MLOAD DUP1 SWAP2 SUB SWAP1 RETURN JUMPDEST PUSH0 PUSH1 0x40 MLOAD DUP1 PUSH1 0x40 ADD PUSH1 0x40 MSTORE DUP1 PUSH1 0x19 DUP2 MSTORE PUSH1 0x20 ADD PUSH32 0x7472616E7366657228616464726573732C75696E743235362900000000000000 DUP2 MSTORE POP DUP1 MLOAD SWAP1 PUSH1 0x20 ADD KECCAK256 SWAP1 POP SWAP1 JUMP JUMPDEST PUSH1 0x1 SLOAD DUP2 JUMP JUMPDEST PUSH1 0x60 PUSH2 0x1DA PUSH2 0x187 JUMP JUMPDEST DUP4 DUP4 PUSH1 0x40 MLOAD PUSH1 0x24 ADD PUSH2 0x1ED SWAP3 SWAP2 SWAP1 PUSH2 0x711 JUMP JUMPDEST PUSH1 0x40 MLOAD PUSH1 0x20 DUP2 DUP4 SUB SUB DUP2 MSTORE SWAP1 PUSH1 0x40 MSTORE SWAP1 PUSH28 0xFFFFFFFFFFFFFFFFFFFFFFFFFFFFFFFFFFFFFFFFFFFFFFFFFFFFFFFF NOT AND PUSH1 0x20 DUP3 ADD DUP1 MLOAD PUSH28 0xFFFFFFFFFFFFFFFFFFFFFFFFFFFFFFFFFFFFFFFFFFFFFFFFFFFFFFFF DUP4 DUP2 DUP4 AND OR DUP4 MSTORE POP POP POP POP SWAP1 POP SWAP3 SWAP2 POP POP JUMP JUMPDEST PUSH0 PUSH0 PUSH0 PUSH0 ADDRESS PUSH20 0xFFFFFFFFFFFFFFFFFFFFFFFFFFFFFFFFFFFFFFFF AND DUP7 DUP7 PUSH1 0x40 MLOAD PUSH1 0x24 ADD PUSH2 0x280 SWAP3 SWAP2 SWAP1 PUSH2 0x711 JUMP JUMPDEST PUSH1 0x40 MLOAD PUSH1 0x20 DUP2 DUP4 SUB SUB DUP2 MSTORE SWAP1 PUSH1 0x40 MSTORE PUSH32 0xA9059CBB00000000000000000000000000000000000000000000000000000000 PUSH28 0xFFFFFFFFFFFFFFFFFFFFFFFFFFFFFFFFFFFFFFFFFFFFFFFFFFFFFFFF NOT AND PUSH1 0x20 DUP3 ADD DUP1 MLOAD PUSH28 0xFFFFFFFFFFFFFFFFFFFFFFFFFFFFFFFFFFFFFFFFFFFFFFFFFFFFFFFF DUP4 DUP2 DUP4 AND OR DUP4 MSTORE POP POP POP POP PUSH1 0x40 MLOAD PUSH2 0x30A SWAP2 SWAP1 PUSH2 0x772 JUMP JUMPDEST PUSH0 PUSH1 0x40 MLOAD DUP1 DUP4 SUB DUP2 PUSH0 DUP7 GAS CALL SWAP2 POP POP RETURNDATASIZE DUP1 PUSH0 DUP2 EQ PUSH2 0x343 JUMPI PUSH1 0x40 MLOAD SWAP2 POP PUSH1 0x1F NOT PUSH1 0x3F RETURNDATASIZE ADD AND DUP3 ADD PUSH1 0x40 MSTORE RETURNDATASIZE DUP3 MSTORE RETURNDATASIZE PUSH0 PUSH1 0x20 DUP5 ADD RETURNDATACOPY PUSH2 0x348 JUMP JUMPDEST PUSH1 0x60 SWAP2 POP JUMPDEST POP SWAP2 POP SWAP2 POP DUP1 PUSH2 0x357 SWAP1 PUSH2 0x7B7 JUMP JUMPDEST DUP3 SWAP4 POP SWAP4 POP POP POP SWAP3 POP SWAP3 SWAP1 POP JUMP JUMPDEST PUSH0 PUSH0 PUSH0 PUSH0 ADDRESS PUSH20 0xFFFFFFFFFFFFFFFFFFFFFFFFFFFFFFFFFFFFFFFF AND PUSH2 0x388 PUSH2 0x187 JUMP JUMPDEST DUP8 DUP8 PUSH1 0x40 MLOAD PUSH1 0x24 ADD PUSH2 0x39B SWAP3 SWAP2 SWAP1 PUSH2 0x711 JUMP JUMPDEST PUSH1 0x40 MLOAD PUSH1 0x20 DUP2 DUP4 SUB SUB DUP2 MSTORE SWAP1 PUSH1 0x40 MSTORE SWAP1 PUSH28 0xFFFFFFFFFFFFFFFFFFFFFFFFFFFFFFFFFFFFFFFFFFFFFFFFFFFFFFFF NOT AND PUSH1 0x20 DUP3 ADD DUP1 MLOAD PUSH28 0xFFFFFFFFFFFFFFFFFFFFFFFFFFFFFFFFFFFFFFFFFFFFFFFFFFFFFFFF DUP4 DUP2 DUP4 AND OR DUP4 MSTORE POP POP POP POP PUSH1 0x40 MLOAD PUSH2 0x405 SWAP2 SWAP1 PUSH2 0x772 JUMP JUMPDEST PUSH0 PUSH1 0x40 MLOAD DUP1 DUP4 SUB DUP2 PUSH0 DUP7 GAS CALL SWAP2 POP POP RETURNDATASIZE DUP1 PUSH0 DUP2 EQ PUSH2 0x43E JUMPI PUSH1 0x40 MLOAD SWAP2 POP PUSH1 0x1F NOT PUSH1 0x3F RETURNDATASIZE ADD AND DUP3 ADD PUSH1 0x40 MSTORE RETURNDATASIZE DUP3 MSTORE RETURNDATASIZE PUSH0 PUSH1 0x20 DUP5 ADD RETURNDATACOPY PUSH2 0x443 JUMP JUMPDEST PUSH1 0x60 SWAP2 POP JUMPDEST POP SWAP2 POP SWAP2 POP DUP1 PUSH2 0x452 SWAP1 PUSH2 0x7B7 JUMP JUMPDEST DUP3 SWAP4 POP SWAP4 POP POP POP SWAP3 POP SWAP3 SWAP1 POP JUMP JUMPDEST DUP2 PUSH0 PUSH0 PUSH2 0x100 EXP DUP2 SLOAD DUP2 PUSH20 0xFFFFFFFFFFFFFFFFFFFFFFFFFFFFFFFFFFFFFFFF MUL NOT AND SWAP1 DUP4 PUSH20 0xFFFFFFFFFFFFFFFFFFFFFFFFFFFFFFFFFFFFFFFF AND MUL OR SWAP1 SSTORE POP DUP1 PUSH1 0x1 DUP2 SWAP1 SSTORE POP POP POP JUMP JUMPDEST PUSH0 PUSH0 SWAP1 SLOAD SWAP1 PUSH2 0x100 EXP SWAP1 DIV PUSH20 0xFFFFFFFFFFFFFFFFFFFFFFFFFFFFFFFFFFFFFFFF AND DUP2 JUMP JUMPDEST PUSH0 PUSH32 0xFFFFFFFF00000000000000000000000000000000000000000000000000000000 DUP3 AND SWAP1 POP SWAP2 SWAP1 POP JUMP JUMPDEST PUSH2 0x502 DUP2 PUSH2 0x4CE JUMP JUMPDEST DUP3 MSTORE POP POP JUMP JUMPDEST PUSH0 PUSH1 0x20 DUP3 ADD SWAP1 POP PUSH2 0x51B PUSH0 DUP4 ADD DUP5 PUSH2 0x4F9 JUMP JUMPDEST SWAP3 SWAP2 POP POP JUMP JUMPDEST PUSH0 DUP2 SWAP1 POP SWAP2 SWAP1 POP JUMP JUMPDEST PUSH2 0x533 DUP2 PUSH2 0x521 JUMP JUMPDEST DUP3 MSTORE POP POP JUMP JUMPDEST PUSH0 PUSH1 0x20 DUP3 ADD SWAP1 POP PUSH2 0x54C PUSH0 DUP4 ADD DUP5 PUSH2 0x52A JUMP JUMPDEST SWAP3 SWAP2 POP POP JUMP JUMPDEST PUSH0 PUSH0 REVERT JUMPDEST PUSH0 PUSH20 0xFFFFFFFFFFFFFFFFFFFFFFFFFFFFFFFFFFFFFFFF DUP3 AND SWAP1 POP SWAP2 SWAP1 POP JUMP JUMPDEST PUSH0 PUSH2 0x57F DUP3 PUSH2 0x556 JUMP JUMPDEST SWAP1 POP SWAP2 SWAP1 POP JUMP JUMPDEST PUSH2 0x58F DUP2 PUSH2 0x575 JUMP JUMPDEST DUP2 EQ PUSH2 0x599 JUMPI PUSH0 PUSH0 REVERT JUMPDEST POP JUMP JUMPDEST PUSH0 DUP2 CALLDATALOAD SWAP1 POP PUSH2 0x5AA DUP2 PUSH2 0x586 JUMP JUMPDEST SWAP3 SWAP2 POP POP JUMP JUMPDEST PUSH2 0x5B9 DUP2 PUSH2 0x521 JUMP JUMPDEST DUP2 EQ PUSH2 0x5C3 JUMPI PUSH0 PUSH0 REVERT JUMPDEST POP JUMP JUMPDEST PUSH0 DUP2 CALLDATALOAD SWAP1 POP PUSH2 0x5D4 DUP2 PUSH2 0x5B0 JUMP JUMPDEST SWAP3 SWAP2 POP POP JUMP JUMPDEST PUSH0 PUSH0 PUSH1 0x40 DUP4 DUP6 SUB SLT ISZERO PUSH2 0x5F0 JUMPI PUSH2 0x5EF PUSH2 0x552 JUMP JUMPDEST JUMPDEST PUSH0 PUSH2 0x5FD DUP6 DUP3 DUP7 ADD PUSH2 0x59C JUMP JUMPDEST SWAP3 POP POP PUSH1 0x20 PUSH2 0x60E DUP6 DUP3 DUP7 ADD PUSH2 0x5C6 JUMP JUMPDEST SWAP2 POP POP SWAP3 POP SWAP3 SWAP1 POP JUMP JUMPDEST PUSH0 DUP2 MLOAD SWAP1 POP SWAP2 SWAP1 POP JUMP JUMPDEST PUSH0 DUP3 DUP3 MSTORE PUSH1 0x20 DUP3 ADD SWAP1 POP SWAP3 SWAP2 POP POP JUMP JUMPDEST DUP3 DUP2 DUP4 MCOPY PUSH0 DUP4 DUP4 ADD MSTORE POP POP POP JUMP JUMPDEST PUSH0 PUSH1 0x1F NOT PUSH1 0x1F DUP4 ADD AND SWAP1 POP SWAP2 SWAP1 POP JUMP JUMPDEST PUSH0 PUSH2 0x65A DUP3 PUSH2 0x618 JUMP JUMPDEST PUSH2 0x664 DUP2 DUP6 PUSH2 0x622 JUMP JUMPDEST SWAP4 POP PUSH2 0x674 DUP2 DUP6 PUSH1 0x20 DUP7 ADD PUSH2 0x632 JUMP JUMPDEST PUSH2 0x67D DUP2 PUSH2 0x640 JUMP JUMPDEST DUP5 ADD SWAP2 POP POP SWAP3 SWAP2 POP POP JUMP JUMPDEST PUSH0 PUSH1 0x20 DUP3 ADD SWAP1 POP DUP2 DUP2 SUB PUSH0 DUP4 ADD MSTORE PUSH2 0x6A0 DUP2 DUP5 PUSH2 0x650 JUMP JUMPDEST SWAP1 POP SWAP3 SWAP2 POP POP JUMP JUMPDEST PUSH0 DUP2 ISZERO ISZERO SWAP1 POP SWAP2 SWAP1 POP JUMP JUMPDEST PUSH2 0x6BC DUP2 PUSH2 0x6A8 JUMP JUMPDEST DUP3 MSTORE POP POP JUMP JUMPDEST PUSH0 PUSH1 0x40 DUP3 ADD SWAP1 POP PUSH2 0x6D5 PUSH0 DUP4 ADD DUP6 PUSH2 0x4F9 JUMP JUMPDEST PUSH2 0x6E2 PUSH1 0x20 DUP4 ADD DUP5 PUSH2 0x6B3 JUMP JUMPDEST SWAP4 SWAP3 POP POP POP JUMP JUMPDEST PUSH2 0x6F2 DUP2 PUSH2 0x575 JUMP JUMPDEST DUP3 MSTORE POP POP JUMP JUMPDEST PUSH0 PUSH1 0x20 DUP3 ADD SWAP1 POP PUSH2 0x70B PUSH0 DUP4 ADD DUP5 PUSH2 0x6E9 JUMP JUMPDEST SWAP3 SWAP2 POP POP JUMP JUMPDEST PUSH0 PUSH1 0x40 DUP3 ADD SWAP1 POP PUSH2 0x724 PUSH0 DUP4 ADD DUP6 PUSH2 0x6E9 JUMP JUMPDEST PUSH2 0x731 PUSH1 0x20 DUP4 ADD DUP5 PUSH2 0x52A JUMP JUMPDEST SWAP4 SWAP3 POP POP POP JUMP JUMPDEST PUSH0 DUP2 SWAP1 POP SWAP3 SWAP2 POP POP JUMP JUMPDEST PUSH0 PUSH2 0x74C DUP3 PUSH2 0x618 JUMP JUMPDEST PUSH2 0x756 DUP2 DUP6 PUSH2 0x738 JUMP JUMPDEST SWAP4 POP PUSH2 0x766 DUP2 DUP6 PUSH1 0x20 DUP7 ADD PUSH2 0x632 JUMP JUMPDEST DUP1 DUP5 ADD SWAP2 POP POP SWAP3 SWAP2 POP POP JUMP JUMPDEST PUSH0 PUSH2 0x77D DUP3 DUP5 PUSH2 0x742 JUMP JUMPDEST SWAP2 POP DUP2 SWAP1 POP SWAP3 SWAP2 POP POP JUMP JUMPDEST PUSH0 DUP2 SWAP1 POP PUSH1 0x20 DUP3 ADD SWAP1 POP SWAP2 SWAP1 POP JUMP JUMPDEST PUSH0 PUSH2 0x7A2 DUP3 MLOAD PUSH2 0x4CE JUMP JUMPDEST DUP1 SWAP2 POP POP SWAP2 SWAP1 POP JUMP JUMPDEST PUSH0 DUP3 DUP3 SHL SWAP1 POP SWAP3 SWAP2 POP POP JUMP JUMPDEST PUSH0 PUSH2 0x7C1 DUP3 PUSH2 0x618 JUMP JUMPDEST DUP3 PUSH2 0x7CB DUP5 PUSH2 0x788 JUMP JUMPDEST SWAP1 POP PUSH2 0x7D6 DUP2 PUSH2 0x797 JUMP JUMPDEST SWAP3 POP PUSH1 0x4 DUP3 LT ISZERO PUSH2 0x816 JUMPI PUSH2 0x811 PUSH32 0xFFFFFFFF00000000000000000000000000000000000000000000000000000000 DUP4 PUSH1 0x4 SUB PUSH1 0x8 MUL PUSH2 0x7AB JUMP JUMPDEST DUP4 AND SWAP3 POP JUMPDEST POP POP SWAP2 SWAP1 POP JUMP INVALID LOG2 PUSH5 0x6970667358 0x22 SLT KECCAK256 DUP12 MUL EOFCREATE 0xEA DUP7 LOG4 SWAP10 0xED 0xB4 0x28 0xA9 SWAP12 0x28 0xD5 0xEB 0xD8 0xDA PUSH4 0xA69A6936 0xE8 PREVRANDAO 0xAC EXTDELEGATECALL PUSH30 0x5BB342F25764736F6C634300081E00330000000000000000000000000000 "
				},
				"gasEstimates": {
					"creation": {
						"codeDepositCost": "426200",
						"executionCost": "459",
						"totalCost": "426659"
					},
					"external": {
						"callTransferFunctionDirectly(address,uint256)": "infinite",
						"callTransferFunctionDirectlySig(address,uint256)": "infinite",
						"getDataToCallTransfer(address,uint256)": "infinite",
						"getSelector()": "443",
						"s_addre()": "2573",
						"s_val()": "2448",
						"transfer(address,uint256)": "47042"
					}
				},
				"methodIdentifiers": {
					"callTransferFunctionDirectly(address,uint256)": "a5694e4a",
					"callTransferFunctionDirectlySig(address,uint256)": "88af190b",
					"getDataToCallTransfer(address,uint256)": "7c0c5f23",
					"getSelector()": "034899bc",
					"s_addre()": "d1870d74",
					"s_val()": "59c3ed9e",
					"transfer(address,uint256)": "a9059cbb"
				}
			},
			"storageLayout": {
				"storage": [
					{
						"astId": 3,
						"contract": "low/call.sol:CallAnything",
						"label": "s_addre",
						"offset": 0,
						"slot": "0",
						"type": "t_address"
					},
					{
						"astId": 5,
						"contract": "low/call.sol:CallAnything",
						"label": "s_val",
						"offset": 0,
						"slot": "1",
						"type": "t_uint256"
					}
				],
				"types": {
					"t_address": {
						"encoding": "inplace",
						"label": "address",
						"numberOfBytes": "20"
					},
					"t_uint256": {
						"encoding": "inplace",
						"label": "uint256",
						"numberOfBytes": "32"
					}
				}
			},
			"userdoc": {
				"kind": "user",
				"methods": {},
				"version": 1
			}
		}
	}
}