{
	"fundme/fundme.sol": {
		"Fundme": {
			"abi": [
				{
					"inputs": [],
					"stateMutability": "nonpayable",
					"type": "constructor"
				},
				{
					"inputs": [],
					"name": "NotOwner",
					"type": "error"
				},
				{
					"stateMutability": "payable",
					"type": "fallback"
				},
				{
					"inputs": [],
					"name": "MINIMUM_USD",
					"outputs": [
						{
							"internalType": "uint256",
							"name": "",
							"type": "uint256"
						}
					],
					"stateMutability": "view",
					"type": "function"
				},
				{
					"inputs": [
						{
							"internalType": "address",
							"name": "",
							"type": "address"
						}
					],
					"name": "addressToAmountFunded",
					"outputs": [
						{
							"internalType": "uint256",
							"name": "",
							"type": "uint256"
						}
					],
					"stateMutability": "view",
					"type": "function"
				},
				{
					"inputs": [
						{
							"internalType": "uint256",
							"name": "",
							"type": "uint256"
						}
					],
					"name": "funders",
					"outputs": [
						{
							"internalType": "address",
							"name": "",
							"type": "address"
						}
					],
					"stateMutability": "view",
					"type": "function"
				},
				{
					"inputs": [],
					"name": "fundme",
					"outputs": [],
					"stateMutability": "payable",
					"type": "function"
				},
				{
					"inputs": [],
					"name": "i_owner",
					"outputs": [
						{
							"internalType": "address",
							"name": "",
							"type": "address"
						}
					],
					"stateMutability": "view",
					"type": "function"
				},
				{
					"inputs": [],
					"name": "withdraw",
					"outputs": [],
					"stateMutability": "nonpayable",
					"type": "function"
				},
				{
					"stateMutability": "payable",
					"type": "receive"
				}
			],
			"devdoc": {
				"kind": "dev",
				"methods": {},
				"version": 1
			},
			"evm": {
				"assembly": "    /* \"fundme/fundme.sol\":184:3532  contract Fundme{... */\n  mstore(0x40, 0xa0)\n    /* \"fundme/fundme.sol\":776:815  constructor(){... */\n  callvalue\n  dup1\n  iszero\n  tag_1\n  jumpi\n  revert(0x00, 0x00)\ntag_1:\n  pop\n    /* \"fundme/fundme.sol\":802:812  msg.sender */\n  caller\n    /* \"fundme/fundme.sol\":792:812  i_owner = msg.sender */\n  0xffffffffffffffffffffffffffffffffffffffff\n  and\n  0x80\n  dup2\n  0xffffffffffffffffffffffffffffffffffffffff\n  and\n  dup2\n  mstore\n  pop\n  pop\n    /* \"fundme/fundme.sol\":184:3532  contract Fundme{... */\n  mload(0x80)\n  codecopy(0x00, dataOffset(sub_0), dataSize(sub_0))\n  0x00\n  assignImmutable(\"0xdec29173c70f4e70086d64e09cb72b415f3d6a1843817cff62483903f0e12f62\")\n  return(0x00, dataSize(sub_0))\nstop\n\nsub_0: assembly {\n        /* \"fundme/fundme.sol\":184:3532  contract Fundme{... */\n      mstore(0x40, 0x80)\n      jumpi(tag_1, lt(calldatasize, 0x04))\n      shr(0xe0, calldataload(0x00))\n      dup1\n      0x3ccfd60b\n      eq\n      tag_3\n      jumpi\n      dup1\n      0x3e47d6f3\n      eq\n      tag_4\n      jumpi\n      dup1\n      0x6b69a592\n      eq\n      tag_5\n      jumpi\n      dup1\n      0xd1d9165d\n      eq\n      tag_6\n      jumpi\n      dup1\n      0xdba6335f\n      eq\n      tag_7\n      jumpi\n      dup1\n      0xdc0d3dff\n      eq\n      tag_8\n      jumpi\n      jump(tag_2)\n    tag_1:\n      jumpi(tag_2, calldatasize)\n        /* \"fundme/fundme.sol\":3372:3380  fundme() */\n      tag_11\n        /* \"fundme/fundme.sol\":3372:3378  fundme */\n      tag_12\n        /* \"fundme/fundme.sol\":3372:3380  fundme() */\n      jump\t// in\n    tag_11:\n        /* \"fundme/fundme.sol\":184:3532  contract Fundme{... */\n      stop\n    tag_2:\n        /* \"fundme/fundme.sol\":3511:3519  fundme() */\n      tag_15\n        /* \"fundme/fundme.sol\":3511:3517  fundme */\n      tag_12\n        /* \"fundme/fundme.sol\":3511:3519  fundme() */\n      jump\t// in\n    tag_15:\n        /* \"fundme/fundme.sol\":184:3532  contract Fundme{... */\n      stop\n        /* \"fundme/fundme.sol\":1610:2535  function withdraw()public onlyOwner{... */\n    tag_3:\n      callvalue\n      dup1\n      iszero\n      tag_16\n      jumpi\n      revert(0x00, 0x00)\n    tag_16:\n      pop\n      tag_17\n      tag_18\n      jump\t// in\n    tag_17:\n      stop\n        /* \"fundme/fundme.sol\":875:933  mapping ( address => uint256) public addressToAmountFunded */\n    tag_4:\n      callvalue\n      dup1\n      iszero\n      tag_19\n      jumpi\n      revert(0x00, 0x00)\n    tag_19:\n      pop\n      tag_20\n      0x04\n      dup1\n      calldatasize\n      sub\n      dup2\n      add\n      swap1\n      tag_21\n      swap2\n      swap1\n      tag_22\n      jump\t// in\n    tag_21:\n      tag_23\n      jump\t// in\n    tag_20:\n      mload(0x40)\n      tag_24\n      swap2\n      swap1\n      tag_25\n      jump\t// in\n    tag_24:\n      mload(0x40)\n      dup1\n      swap2\n      sub\n      swap1\n      return\n        /* \"fundme/fundme.sol\":615:658  uint256  public constant MINIMUM_USD = 5e18 */\n    tag_5:\n      callvalue\n      dup1\n      iszero\n      tag_26\n      jumpi\n      revert(0x00, 0x00)\n    tag_26:\n      pop\n      tag_27\n      tag_28\n      jump\t// in\n    tag_27:\n      mload(0x40)\n      tag_29\n      swap2\n      swap1\n      tag_25\n      jump\t// in\n    tag_29:\n      mload(0x40)\n      dup1\n      swap2\n      sub\n      swap1\n      return\n        /* \"fundme/fundme.sol\":1006:1607  function fundme() public payable {... */\n    tag_6:\n      tag_30\n      tag_12\n      jump\t// in\n    tag_30:\n      stop\n        /* \"fundme/fundme.sol\":663:695  address public immutable i_owner */\n    tag_7:\n      callvalue\n      dup1\n      iszero\n      tag_31\n      jumpi\n      revert(0x00, 0x00)\n    tag_31:\n      pop\n      tag_32\n      tag_33\n      jump\t// in\n    tag_32:\n      mload(0x40)\n      tag_34\n      swap2\n      swap1\n      tag_35\n      jump\t// in\n    tag_34:\n      mload(0x40)\n      dup1\n      swap2\n      sub\n      swap1\n      return\n        /* \"fundme/fundme.sol\":848:872  address[] public funders */\n    tag_8:\n      callvalue\n      dup1\n      iszero\n      tag_36\n      jumpi\n      revert(0x00, 0x00)\n    tag_36:\n      pop\n      tag_37\n      0x04\n      dup1\n      calldatasize\n      sub\n      dup2\n      add\n      swap1\n      tag_38\n      swap2\n      swap1\n      tag_39\n      jump\t// in\n    tag_38:\n      tag_40\n      jump\t// in\n    tag_37:\n      mload(0x40)\n      tag_41\n      swap2\n      swap1\n      tag_35\n      jump\t// in\n    tag_41:\n      mload(0x40)\n      dup1\n      swap2\n      sub\n      swap1\n      return\n        /* \"fundme/fundme.sol\":1006:1607  function fundme() public payable {... */\n    tag_12:\n        /* \"fundme/fundme.sol\":654:658  5e18 */\n      0x4563918244f40000\n        /* \"fundme/fundme.sol\":1343:1372  msg.value.getConvertionRate() */\n      tag_43\n        /* \"fundme/fundme.sol\":1343:1352  msg.value */\n      callvalue\n        /* \"fundme/fundme.sol\":1343:1370  msg.value.getConvertionRate */\n      tag_44\n        /* \"fundme/fundme.sol\":1343:1372  msg.value.getConvertionRate() */\n      jump\t// in\n    tag_43:\n        /* \"fundme/fundme.sol\":1343:1386  msg.value.getConvertionRate() > MINIMUM_USD */\n      gt\n        /* \"fundme/fundme.sol\":1335:1415  require(msg.value.getConvertionRate() > MINIMUM_USD,'please increase the value') */\n      tag_45\n      jumpi\n      mload(0x40)\n      0x08c379a000000000000000000000000000000000000000000000000000000000\n      dup2\n      mstore\n      0x04\n      add\n      tag_46\n      swap1\n      tag_47\n      jump\t// in\n    tag_46:\n      mload(0x40)\n      dup1\n      swap2\n      sub\n      swap1\n      revert\n    tag_45:\n        /* \"fundme/fundme.sol\":1457:1466  msg.value */\n      callvalue\n        /* \"fundme/fundme.sol\":1420:1441  addressToAmountFunded */\n      0x01\n        /* \"fundme/fundme.sol\":1420:1453  addressToAmountFunded[msg.sender] */\n      0x00\n        /* \"fundme/fundme.sol\":1442:1452  msg.sender */\n      caller\n        /* \"fundme/fundme.sol\":1420:1453  addressToAmountFunded[msg.sender] */\n      0xffffffffffffffffffffffffffffffffffffffff\n      and\n      0xffffffffffffffffffffffffffffffffffffffff\n      and\n      dup2\n      mstore\n      0x20\n      add\n      swap1\n      dup2\n      mstore\n      0x20\n      add\n      0x00\n      keccak256\n      0x00\n        /* \"fundme/fundme.sol\":1420:1466  addressToAmountFunded[msg.sender] += msg.value */\n      dup3\n      dup3\n      sload\n      tag_48\n      swap2\n      swap1\n      tag_49\n      jump\t// in\n    tag_48:\n      swap3\n      pop\n      pop\n      dup2\n      swap1\n      sstore\n      pop\n        /* \"fundme/fundme.sol\":1470:1477  funders */\n      0x00\n        /* \"fundme/fundme.sol\":1483:1493  msg.sender */\n      caller\n        /* \"fundme/fundme.sol\":1470:1494  funders.push(msg.sender) */\n      swap1\n      dup1\n      0x01\n      dup2\n      sload\n      add\n      dup1\n      dup3\n      sstore\n      dup1\n      swap2\n      pop\n      pop\n      0x01\n      swap1\n      sub\n      swap1\n      0x00\n      mstore\n      keccak256(0x00, 0x20)\n      add\n      0x00\n      swap1\n      swap2\n      swap1\n      swap2\n      swap1\n      swap2\n      0x0100\n      exp\n      dup2\n      sload\n      dup2\n      0xffffffffffffffffffffffffffffffffffffffff\n      mul\n      not\n      and\n      swap1\n      dup4\n      0xffffffffffffffffffffffffffffffffffffffff\n      and\n      mul\n      or\n      swap1\n      sstore\n      pop\n        /* \"fundme/fundme.sol\":1006:1607  function fundme() public payable {... */\n      jump\t// out\n        /* \"fundme/fundme.sol\":1610:2535  function withdraw()public onlyOwner{... */\n    tag_18:\n        /* \"fundme/fundme.sol\":2880:2887  i_owner */\n      immutable(\"0xdec29173c70f4e70086d64e09cb72b415f3d6a1843817cff62483903f0e12f62\")\n        /* \"fundme/fundme.sol\":2866:2887  msg.sender == i_owner */\n      0xffffffffffffffffffffffffffffffffffffffff\n      and\n        /* \"fundme/fundme.sol\":2866:2876  msg.sender */\n      caller\n        /* \"fundme/fundme.sol\":2866:2887  msg.sender == i_owner */\n      0xffffffffffffffffffffffffffffffffffffffff\n      and\n      eq\n        /* \"fundme/fundme.sol\":2858:2915  require(msg.sender == i_owner,'only owner can call this') */\n      tag_52\n      jumpi\n      mload(0x40)\n      0x08c379a000000000000000000000000000000000000000000000000000000000\n      dup2\n      mstore\n      0x04\n      add\n      tag_53\n      swap1\n      tag_54\n      jump\t// in\n    tag_53:\n      mload(0x40)\n      dup1\n      swap2\n      sub\n      swap1\n      revert\n    tag_52:\n        /* \"fundme/fundme.sol\":2959:2966  i_owner */\n      immutable(\"0xdec29173c70f4e70086d64e09cb72b415f3d6a1843817cff62483903f0e12f62\")\n        /* \"fundme/fundme.sol\":2945:2966  msg.sender == i_owner */\n      0xffffffffffffffffffffffffffffffffffffffff\n      and\n        /* \"fundme/fundme.sol\":2945:2955  msg.sender */\n      caller\n        /* \"fundme/fundme.sol\":2945:2966  msg.sender == i_owner */\n      0xffffffffffffffffffffffffffffffffffffffff\n      and\n      eq\n        /* \"fundme/fundme.sol\":2937:2978  require(msg.sender == i_owner,NotOwner()) */\n      tag_55\n      jumpi\n      mload(0x40)\n      0x30cd747100000000000000000000000000000000000000000000000000000000\n      dup2\n      mstore\n      0x04\n      add\n      mload(0x40)\n      dup1\n      swap2\n      sub\n      swap1\n      revert\n    tag_55:\n        /* \"fundme/fundme.sol\":3010:3017  i_owner */\n      immutable(\"0xdec29173c70f4e70086d64e09cb72b415f3d6a1843817cff62483903f0e12f62\")\n        /* \"fundme/fundme.sol\":2996:3017  msg.sender != i_owner */\n      0xffffffffffffffffffffffffffffffffffffffff\n      and\n        /* \"fundme/fundme.sol\":2996:3006  msg.sender */\n      caller\n        /* \"fundme/fundme.sol\":2996:3017  msg.sender != i_owner */\n      0xffffffffffffffffffffffffffffffffffffffff\n      and\n      eq\n        /* \"fundme/fundme.sol\":2993:3093  if(msg.sender != i_owner){... */\n      tag_56\n      jumpi\n        /* \"fundme/fundme.sol\":3080:3090  NotOwner() */\n      mload(0x40)\n      0x30cd747100000000000000000000000000000000000000000000000000000000\n      dup2\n      mstore\n      0x04\n      add\n      mload(0x40)\n      dup1\n      swap2\n      sub\n      swap1\n      revert\n        /* \"fundme/fundme.sol\":2993:3093  if(msg.sender != i_owner){... */\n    tag_56:\n        /* \"fundme/fundme.sol\":1803:1816  uint256 index */\n      0x00\n        /* \"fundme/fundme.sol\":1819:1820  0 */\n      0x00\n        /* \"fundme/fundme.sol\":1803:1820  uint256 index = 0 */\n      swap1\n      pop\n        /* \"fundme/fundme.sol\":1799:1932  for(uint256 index = 0;index < funders.length; index++){... */\n    tag_58:\n        /* \"fundme/fundme.sol\":1829:1836  funders */\n      0x00\n        /* \"fundme/fundme.sol\":1829:1843  funders.length */\n      dup1\n      sload\n      swap1\n      pop\n        /* \"fundme/fundme.sol\":1821:1826  index */\n      dup2\n        /* \"fundme/fundme.sol\":1821:1843  index < funders.length */\n      lt\n        /* \"fundme/fundme.sol\":1799:1932  for(uint256 index = 0;index < funders.length; index++){... */\n      iszero\n      tag_59\n      jumpi\n        /* \"fundme/fundme.sol\":1858:1873  address founder */\n      0x00\n        /* \"fundme/fundme.sol\":1876:1883  funders */\n      0x00\n        /* \"fundme/fundme.sol\":1884:1889  index */\n      dup3\n        /* \"fundme/fundme.sol\":1876:1890  funders[index] */\n      dup2\n      sload\n      dup2\n      lt\n      tag_61\n      jumpi\n      tag_62\n      tag_63\n      jump\t// in\n    tag_62:\n    tag_61:\n      swap1\n      0x00\n      mstore\n      keccak256(0x00, 0x20)\n      add\n      0x00\n      swap1\n      sload\n      swap1\n      0x0100\n      exp\n      swap1\n      div\n      0xffffffffffffffffffffffffffffffffffffffff\n      and\n        /* \"fundme/fundme.sol\":1858:1890  address founder = funders[index] */\n      swap1\n      pop\n        /* \"fundme/fundme.sol\":1928:1929  0 */\n      0x00\n        /* \"fundme/fundme.sol\":1895:1916  addressToAmountFunded */\n      0x01\n        /* \"fundme/fundme.sol\":1895:1925  addressToAmountFunded[founder] */\n      0x00\n        /* \"fundme/fundme.sol\":1917:1924  founder */\n      dup4\n        /* \"fundme/fundme.sol\":1895:1925  addressToAmountFunded[founder] */\n      0xffffffffffffffffffffffffffffffffffffffff\n      and\n      0xffffffffffffffffffffffffffffffffffffffff\n      and\n      dup2\n      mstore\n      0x20\n      add\n      swap1\n      dup2\n      mstore\n      0x20\n      add\n      0x00\n      keccak256\n        /* \"fundme/fundme.sol\":1895:1929  addressToAmountFunded[founder] = 0 */\n      dup2\n      swap1\n      sstore\n      pop\n        /* \"fundme/fundme.sol\":1853:1932  {... */\n      pop\n        /* \"fundme/fundme.sol\":1845:1852  index++ */\n      dup1\n      dup1\n      0x01\n      add\n      swap2\n      pop\n      pop\n        /* \"fundme/fundme.sol\":1799:1932  for(uint256 index = 0;index < funders.length; index++){... */\n      jump(tag_58)\n    tag_59:\n      pop\n        /* \"fundme/fundme.sol\":1958:1959  0 */\n      0x00\n        /* \"fundme/fundme.sol\":1944:1960  new address[](0) */\n      0xffffffffffffffff\n      dup2\n      gt\n      iszero\n      tag_65\n      jumpi\n      tag_66\n      tag_67\n      jump\t// in\n    tag_66:\n    tag_65:\n      mload(0x40)\n      swap1\n      dup1\n      dup3\n      mstore\n      dup1\n      0x20\n      mul\n      0x20\n      add\n      dup3\n      add\n      0x40\n      mstore\n      dup1\n      iszero\n      tag_68\n      jumpi\n      dup2\n      0x20\n      add\n      0x20\n      dup3\n      mul\n      dup1\n      calldatasize\n      dup4\n      calldatacopy\n      dup1\n      dup3\n      add\n      swap2\n      pop\n      pop\n      swap1\n      pop\n    tag_68:\n      pop\n        /* \"fundme/fundme.sol\":1934:1941  funders */\n      0x00\n        /* \"fundme/fundme.sol\":1934:1960  funders = new address[](0) */\n      swap1\n      dup1\n      mload\n      swap1\n      0x20\n      add\n      swap1\n      tag_69\n      swap3\n      swap2\n      swap1\n      tag_70\n      jump\t// in\n    tag_69:\n      pop\n        /* \"fundme/fundme.sol\":2055:2065  msg.sender */\n      caller\n        /* \"fundme/fundme.sol\":2047:2075  payable(msg.sender).transfer */\n      0xffffffffffffffffffffffffffffffffffffffff\n      and\n        /* \"fundme/fundme.sol\":2047:2098  payable(msg.sender).transfer(address(this).balance) */\n      0x08fc\n        /* \"fundme/fundme.sol\":2076:2097  address(this).balance */\n      selfbalance\n        /* \"fundme/fundme.sol\":2047:2098  payable(msg.sender).transfer(address(this).balance) */\n      swap1\n      dup2\n      iszero\n      mul\n      swap1\n      mload(0x40)\n      0x00\n      mload(0x40)\n      dup1\n      dup4\n      sub\n      dup2\n      dup6\n      dup9\n      dup9\n      call\n      swap4\n      pop\n      pop\n      pop\n      pop\n      iszero\n      dup1\n      iszero\n      tag_72\n      jumpi\n      returndatacopy(0x00, 0x00, returndatasize)\n      revert(0x00, returndatasize)\n    tag_72:\n      pop\n        /* \"fundme/fundme.sol\":2188:2200  bool success */\n      0x00\n        /* \"fundme/fundme.sol\":2211:2221  msg.sender */\n      caller\n        /* \"fundme/fundme.sol\":2203:2227  payable(msg.sender).send */\n      0xffffffffffffffffffffffffffffffffffffffff\n      and\n        /* \"fundme/fundme.sol\":2203:2250  payable(msg.sender).send(address(this).balance) */\n      0x08fc\n        /* \"fundme/fundme.sol\":2228:2249  address(this).balance */\n      selfbalance\n        /* \"fundme/fundme.sol\":2203:2250  payable(msg.sender).send(address(this).balance) */\n      swap1\n      dup2\n      iszero\n      mul\n      swap1\n      mload(0x40)\n      0x00\n      mload(0x40)\n      dup1\n      dup4\n      sub\n      dup2\n      dup6\n      dup9\n      dup9\n      call\n      swap4\n      pop\n      pop\n      pop\n      pop\n        /* \"fundme/fundme.sol\":2188:2250  bool success = payable(msg.sender).send(address(this).balance) */\n      swap1\n      pop\n        /* \"fundme/fundme.sol\":2301:2308  success */\n      dup1\n        /* \"fundme/fundme.sol\":2293:2327  require(success,'transfer failed') */\n      tag_74\n      jumpi\n      mload(0x40)\n      0x08c379a000000000000000000000000000000000000000000000000000000000\n      dup2\n      mstore\n      0x04\n      add\n      tag_75\n      swap1\n      tag_76\n      jump\t// in\n    tag_75:\n      mload(0x40)\n      dup1\n      swap2\n      sub\n      swap1\n      revert\n    tag_74:\n        /* \"fundme/fundme.sol\":2404:2420  bool callsuccess */\n      0x00\n        /* \"fundme/fundme.sol\":2432:2442  msg.sender */\n      caller\n        /* \"fundme/fundme.sol\":2424:2448  payable(msg.sender).call */\n      0xffffffffffffffffffffffffffffffffffffffff\n      and\n        /* \"fundme/fundme.sol\":2455:2476  address(this).balance */\n      selfbalance\n        /* \"fundme/fundme.sol\":2424:2481  payable(msg.sender).call{value:address(this).balance}('') */\n      mload(0x40)\n      tag_77\n      swap1\n      tag_78\n      jump\t// in\n    tag_77:\n      0x00\n      mload(0x40)\n      dup1\n      dup4\n      sub\n      dup2\n      dup6\n      dup8\n      gas\n      call\n      swap3\n      pop\n      pop\n      pop\n      returndatasize\n      dup1\n      0x00\n      dup2\n      eq\n      tag_81\n      jumpi\n      mload(0x40)\n      swap2\n      pop\n      and(add(returndatasize, 0x3f), not(0x1f))\n      dup3\n      add\n      0x40\n      mstore\n      returndatasize\n      dup3\n      mstore\n      returndatasize\n      0x00\n      0x20\n      dup5\n      add\n      returndatacopy\n      jump(tag_80)\n    tag_81:\n      0x60\n      swap2\n      pop\n    tag_80:\n      pop\n        /* \"fundme/fundme.sol\":2403:2481  (bool callsuccess,)= payable(msg.sender).call{value:address(this).balance}('') */\n      pop\n      swap1\n      pop\n        /* \"fundme/fundme.sol\":2492:2503  callsuccess */\n      dup1\n        /* \"fundme/fundme.sol\":2484:2522  require(callsuccess,'transfer failed') */\n      tag_82\n      jumpi\n      mload(0x40)\n      0x08c379a000000000000000000000000000000000000000000000000000000000\n      dup2\n      mstore\n      0x04\n      add\n      tag_83\n      swap1\n      tag_76\n      jump\t// in\n    tag_83:\n      mload(0x40)\n      dup1\n      swap2\n      sub\n      swap1\n      revert\n    tag_82:\n        /* \"fundme/fundme.sol\":1645:2535  {... */\n      pop\n      pop\n        /* \"fundme/fundme.sol\":1610:2535  function withdraw()public onlyOwner{... */\n      jump\t// out\n        /* \"fundme/fundme.sol\":875:933  mapping ( address => uint256) public addressToAmountFunded */\n    tag_23:\n      mstore(0x20, 0x01)\n      dup1\n      0x00\n      mstore\n      keccak256(0x00, 0x40)\n      0x00\n      swap2\n      pop\n      swap1\n      pop\n      sload\n      dup2\n      jump\t// out\n        /* \"fundme/fundme.sol\":615:658  uint256  public constant MINIMUM_USD = 5e18 */\n    tag_28:\n        /* \"fundme/fundme.sol\":654:658  5e18 */\n      0x4563918244f40000\n        /* \"fundme/fundme.sol\":615:658  uint256  public constant MINIMUM_USD = 5e18 */\n      dup2\n      jump\t// out\n        /* \"fundme/fundme.sol\":663:695  address public immutable i_owner */\n    tag_33:\n      immutable(\"0xdec29173c70f4e70086d64e09cb72b415f3d6a1843817cff62483903f0e12f62\")\n      dup2\n      jump\t// out\n        /* \"fundme/fundme.sol\":848:872  address[] public funders */\n    tag_40:\n      0x00\n      dup2\n      dup2\n      sload\n      dup2\n      lt\n      tag_84\n      jumpi\n      0x00\n      dup1\n      revert\n    tag_84:\n      swap1\n      0x00\n      mstore\n      keccak256(0x00, 0x20)\n      add\n      0x00\n      swap2\n      pop\n      sload\n      swap1\n      0x0100\n      exp\n      swap1\n      div\n      0xffffffffffffffffffffffffffffffffffffffff\n      and\n      dup2\n      jump\t// out\n        /* \"fundme/lib.sol\":965:1190  function getConvertionRate(... */\n    tag_44:\n        /* \"fundme/lib.sol\":1048:1055  uint256 */\n      0x00\n        /* \"fundme/lib.sol\":1067:1080  uint256 price */\n      0x00\n        /* \"fundme/lib.sol\":1083:1093  getPrice() */\n      tag_87\n        /* \"fundme/lib.sol\":1083:1091  getPrice */\n      tag_88\n        /* \"fundme/lib.sol\":1083:1093  getPrice() */\n      jump\t// in\n    tag_87:\n        /* \"fundme/lib.sol\":1067:1093  uint256 price = getPrice() */\n      swap1\n      pop\n        /* \"fundme/lib.sol\":1104:1124  uint256 ethamountUsd */\n      0x00\n        /* \"fundme/lib.sol\":1149:1153  1e18 */\n      0x0de0b6b3a7640000\n        /* \"fundme/lib.sol\":1136:1145  ethAmount */\n      dup5\n        /* \"fundme/lib.sol\":1128:1133  price */\n      dup4\n        /* \"fundme/lib.sol\":1128:1145  price * ethAmount */\n      tag_89\n      swap2\n      swap1\n      tag_90\n      jump\t// in\n    tag_89:\n        /* \"fundme/lib.sol\":1127:1153  (price * ethAmount) / 1e18 */\n      tag_91\n      swap2\n      swap1\n      tag_92\n      jump\t// in\n    tag_91:\n        /* \"fundme/lib.sol\":1104:1153  uint256 ethamountUsd = (price * ethAmount) / 1e18 */\n      swap1\n      pop\n        /* \"fundme/lib.sol\":1171:1183  ethamountUsd */\n      dup1\n        /* \"fundme/lib.sol\":1164:1183  return ethamountUsd */\n      swap3\n      pop\n      pop\n      pop\n        /* \"fundme/lib.sol\":965:1190  function getConvertionRate(... */\n      swap2\n      swap1\n      pop\n      jump\t// out\n        /* \"fundme/lib.sol\":353:959  function getPrice() internal view returns (uint256) {... */\n    tag_88:\n        /* \"fundme/lib.sol\":396:403  uint256 */\n      0x00\n        /* \"fundme/lib.sol\":583:614  AggregatorV3Interface pricefeed */\n      0x00\n        /* \"fundme/lib.sol\":652:694  0x694AA1769357215DE4FAC081bf1f309aDC325306 */\n      0x694aa1769357215de4fac081bf1f309adc325306\n        /* \"fundme/lib.sol\":583:704  AggregatorV3Interface pricefeed = AggregatorV3Interface(... */\n      swap1\n      pop\n        /* \"fundme/lib.sol\":864:876  int256 price */\n      0x00\n        /* \"fundme/lib.sol\":886:895  pricefeed */\n      dup2\n        /* \"fundme/lib.sol\":886:911  pricefeed.latestRoundData */\n      0xffffffffffffffffffffffffffffffffffffffff\n      and\n      0xfeaf968c\n        /* \"fundme/lib.sol\":886:913  pricefeed.latestRoundData() */\n      mload(0x40)\n      dup2\n      0xffffffff\n      and\n      0xe0\n      shl\n      dup2\n      mstore\n      0x04\n      add\n      0xa0\n      mload(0x40)\n      dup1\n      dup4\n      sub\n      dup2\n      dup7\n      gas\n      staticcall\n      iszero\n      dup1\n      iszero\n      tag_95\n      jumpi\n      returndatacopy(0x00, 0x00, returndatasize)\n      revert(0x00, returndatasize)\n    tag_95:\n      pop\n      pop\n      pop\n      pop\n      mload(0x40)\n      returndatasize\n      not(0x1f)\n      0x1f\n      dup3\n      add\n      and\n      dup3\n      add\n      dup1\n      0x40\n      mstore\n      pop\n      dup2\n      add\n      swap1\n      tag_96\n      swap2\n      swap1\n      tag_97\n      jump\t// in\n    tag_96:\n        /* \"fundme/lib.sol\":861:913  (, int256 price, , , ) = pricefeed.latestRoundData() */\n      pop\n      pop\n      pop\n      swap2\n      pop\n      pop\n        /* \"fundme/lib.sol\":947:951  1e10 */\n      0x02540be400\n        /* \"fundme/lib.sol\":939:944  price */\n      dup2\n        /* \"fundme/lib.sol\":939:951  price * 1e10 */\n      tag_98\n      swap2\n      swap1\n      tag_99\n      jump\t// in\n    tag_98:\n        /* \"fundme/lib.sol\":924:952  return uint256(price * 1e10) */\n      swap3\n      pop\n      pop\n      pop\n        /* \"fundme/lib.sol\":353:959  function getPrice() internal view returns (uint256) {... */\n      swap1\n      jump\t// out\n    tag_70:\n      dup3\n      dup1\n      sload\n      dup3\n      dup3\n      sstore\n      swap1\n      0x00\n      mstore\n      keccak256(0x00, 0x20)\n      swap1\n      dup2\n      add\n      swap3\n      dup3\n      iszero\n      tag_100\n      jumpi\n      swap2\n      0x20\n      mul\n      dup3\n      add\n    tag_101:\n      dup3\n      dup2\n      gt\n      iszero\n      tag_102\n      jumpi\n      dup3\n      mload\n      dup3\n      exp(0x0100, 0x00)\n      dup2\n      sload\n      dup2\n      0xffffffffffffffffffffffffffffffffffffffff\n      mul\n      not\n      and\n      swap1\n      dup4\n      0xffffffffffffffffffffffffffffffffffffffff\n      and\n      mul\n      or\n      swap1\n      sstore\n      pop\n      swap2\n      0x20\n      add\n      swap2\n      swap1\n      0x01\n      add\n      swap1\n      jump(tag_101)\n    tag_102:\n    tag_100:\n      pop\n      swap1\n      pop\n      tag_103\n      swap2\n      swap1\n      tag_104\n      jump\t// in\n    tag_103:\n      pop\n      swap1\n      jump\t// out\n    tag_104:\n    tag_105:\n      dup1\n      dup3\n      gt\n      iszero\n      tag_106\n      jumpi\n      0x00\n      dup2\n      0x00\n      swap1\n      sstore\n      pop\n      0x01\n      add\n      jump(tag_105)\n    tag_106:\n      pop\n      swap1\n      jump\t// out\n        /* \"#utility.yul\":88:205   */\n    tag_108:\n        /* \"#utility.yul\":197:198   */\n      0x00\n        /* \"#utility.yul\":194:195   */\n      0x00\n        /* \"#utility.yul\":187:199   */\n      revert\n        /* \"#utility.yul\":334:460   */\n    tag_110:\n        /* \"#utility.yul\":371:378   */\n      0x00\n        /* \"#utility.yul\":411:453   */\n      0xffffffffffffffffffffffffffffffffffffffff\n        /* \"#utility.yul\":404:409   */\n      dup3\n        /* \"#utility.yul\":400:454   */\n      and\n        /* \"#utility.yul\":389:454   */\n      swap1\n      pop\n        /* \"#utility.yul\":334:460   */\n      swap2\n      swap1\n      pop\n      jump\t// out\n        /* \"#utility.yul\":466:562   */\n    tag_111:\n        /* \"#utility.yul\":503:510   */\n      0x00\n        /* \"#utility.yul\":532:556   */\n      tag_144\n        /* \"#utility.yul\":550:555   */\n      dup3\n        /* \"#utility.yul\":532:556   */\n      tag_110\n      jump\t// in\n    tag_144:\n        /* \"#utility.yul\":521:556   */\n      swap1\n      pop\n        /* \"#utility.yul\":466:562   */\n      swap2\n      swap1\n      pop\n      jump\t// out\n        /* \"#utility.yul\":568:690   */\n    tag_112:\n        /* \"#utility.yul\":641:665   */\n      tag_146\n        /* \"#utility.yul\":659:664   */\n      dup2\n        /* \"#utility.yul\":641:665   */\n      tag_111\n      jump\t// in\n    tag_146:\n        /* \"#utility.yul\":634:639   */\n      dup2\n        /* \"#utility.yul\":631:666   */\n      eq\n        /* \"#utility.yul\":621:684   */\n      tag_147\n      jumpi\n        /* \"#utility.yul\":680:681   */\n      0x00\n        /* \"#utility.yul\":677:678   */\n      0x00\n        /* \"#utility.yul\":670:682   */\n      revert\n        /* \"#utility.yul\":621:684   */\n    tag_147:\n        /* \"#utility.yul\":568:690   */\n      pop\n      jump\t// out\n        /* \"#utility.yul\":696:835   */\n    tag_113:\n        /* \"#utility.yul\":742:747   */\n      0x00\n        /* \"#utility.yul\":780:786   */\n      dup2\n        /* \"#utility.yul\":767:787   */\n      calldataload\n        /* \"#utility.yul\":758:787   */\n      swap1\n      pop\n        /* \"#utility.yul\":796:829   */\n      tag_149\n        /* \"#utility.yul\":823:828   */\n      dup2\n        /* \"#utility.yul\":796:829   */\n      tag_112\n      jump\t// in\n    tag_149:\n        /* \"#utility.yul\":696:835   */\n      swap3\n      swap2\n      pop\n      pop\n      jump\t// out\n        /* \"#utility.yul\":841:1170   */\n    tag_22:\n        /* \"#utility.yul\":900:906   */\n      0x00\n        /* \"#utility.yul\":949:951   */\n      0x20\n        /* \"#utility.yul\":937:946   */\n      dup3\n        /* \"#utility.yul\":928:935   */\n      dup5\n        /* \"#utility.yul\":924:947   */\n      sub\n        /* \"#utility.yul\":920:952   */\n      slt\n        /* \"#utility.yul\":917:1036   */\n      iszero\n      tag_151\n      jumpi\n        /* \"#utility.yul\":955:1034   */\n      tag_152\n      tag_108\n      jump\t// in\n    tag_152:\n        /* \"#utility.yul\":917:1036   */\n    tag_151:\n        /* \"#utility.yul\":1075:1076   */\n      0x00\n        /* \"#utility.yul\":1100:1153   */\n      tag_153\n        /* \"#utility.yul\":1145:1152   */\n      dup5\n        /* \"#utility.yul\":1136:1142   */\n      dup3\n        /* \"#utility.yul\":1125:1134   */\n      dup6\n        /* \"#utility.yul\":1121:1143   */\n      add\n        /* \"#utility.yul\":1100:1153   */\n      tag_113\n      jump\t// in\n    tag_153:\n        /* \"#utility.yul\":1090:1153   */\n      swap2\n      pop\n        /* \"#utility.yul\":1046:1163   */\n      pop\n        /* \"#utility.yul\":841:1170   */\n      swap3\n      swap2\n      pop\n      pop\n      jump\t// out\n        /* \"#utility.yul\":1176:1253   */\n    tag_114:\n        /* \"#utility.yul\":1213:1220   */\n      0x00\n        /* \"#utility.yul\":1242:1247   */\n      dup2\n        /* \"#utility.yul\":1231:1247   */\n      swap1\n      pop\n        /* \"#utility.yul\":1176:1253   */\n      swap2\n      swap1\n      pop\n      jump\t// out\n        /* \"#utility.yul\":1259:1377   */\n    tag_115:\n        /* \"#utility.yul\":1346:1370   */\n      tag_156\n        /* \"#utility.yul\":1364:1369   */\n      dup2\n        /* \"#utility.yul\":1346:1370   */\n      tag_114\n      jump\t// in\n    tag_156:\n        /* \"#utility.yul\":1341:1344   */\n      dup3\n        /* \"#utility.yul\":1334:1371   */\n      mstore\n        /* \"#utility.yul\":1259:1377   */\n      pop\n      pop\n      jump\t// out\n        /* \"#utility.yul\":1383:1605   */\n    tag_25:\n        /* \"#utility.yul\":1476:1480   */\n      0x00\n        /* \"#utility.yul\":1514:1516   */\n      0x20\n        /* \"#utility.yul\":1503:1512   */\n      dup3\n        /* \"#utility.yul\":1499:1517   */\n      add\n        /* \"#utility.yul\":1491:1517   */\n      swap1\n      pop\n        /* \"#utility.yul\":1527:1598   */\n      tag_158\n        /* \"#utility.yul\":1595:1596   */\n      0x00\n        /* \"#utility.yul\":1584:1593   */\n      dup4\n        /* \"#utility.yul\":1580:1597   */\n      add\n        /* \"#utility.yul\":1571:1577   */\n      dup5\n        /* \"#utility.yul\":1527:1598   */\n      tag_115\n      jump\t// in\n    tag_158:\n        /* \"#utility.yul\":1383:1605   */\n      swap3\n      swap2\n      pop\n      pop\n      jump\t// out\n        /* \"#utility.yul\":1611:1729   */\n    tag_116:\n        /* \"#utility.yul\":1698:1722   */\n      tag_160\n        /* \"#utility.yul\":1716:1721   */\n      dup2\n        /* \"#utility.yul\":1698:1722   */\n      tag_111\n      jump\t// in\n    tag_160:\n        /* \"#utility.yul\":1693:1696   */\n      dup3\n        /* \"#utility.yul\":1686:1723   */\n      mstore\n        /* \"#utility.yul\":1611:1729   */\n      pop\n      pop\n      jump\t// out\n        /* \"#utility.yul\":1735:1957   */\n    tag_35:\n        /* \"#utility.yul\":1828:1832   */\n      0x00\n        /* \"#utility.yul\":1866:1868   */\n      0x20\n        /* \"#utility.yul\":1855:1864   */\n      dup3\n        /* \"#utility.yul\":1851:1869   */\n      add\n        /* \"#utility.yul\":1843:1869   */\n      swap1\n      pop\n        /* \"#utility.yul\":1879:1950   */\n      tag_162\n        /* \"#utility.yul\":1947:1948   */\n      0x00\n        /* \"#utility.yul\":1936:1945   */\n      dup4\n        /* \"#utility.yul\":1932:1949   */\n      add\n        /* \"#utility.yul\":1923:1929   */\n      dup5\n        /* \"#utility.yul\":1879:1950   */\n      tag_116\n      jump\t// in\n    tag_162:\n        /* \"#utility.yul\":1735:1957   */\n      swap3\n      swap2\n      pop\n      pop\n      jump\t// out\n        /* \"#utility.yul\":1963:2085   */\n    tag_117:\n        /* \"#utility.yul\":2036:2060   */\n      tag_164\n        /* \"#utility.yul\":2054:2059   */\n      dup2\n        /* \"#utility.yul\":2036:2060   */\n      tag_114\n      jump\t// in\n    tag_164:\n        /* \"#utility.yul\":2029:2034   */\n      dup2\n        /* \"#utility.yul\":2026:2061   */\n      eq\n        /* \"#utility.yul\":2016:2079   */\n      tag_165\n      jumpi\n        /* \"#utility.yul\":2075:2076   */\n      0x00\n        /* \"#utility.yul\":2072:2073   */\n      0x00\n        /* \"#utility.yul\":2065:2077   */\n      revert\n        /* \"#utility.yul\":2016:2079   */\n    tag_165:\n        /* \"#utility.yul\":1963:2085   */\n      pop\n      jump\t// out\n        /* \"#utility.yul\":2091:2230   */\n    tag_118:\n        /* \"#utility.yul\":2137:2142   */\n      0x00\n        /* \"#utility.yul\":2175:2181   */\n      dup2\n        /* \"#utility.yul\":2162:2182   */\n      calldataload\n        /* \"#utility.yul\":2153:2182   */\n      swap1\n      pop\n        /* \"#utility.yul\":2191:2224   */\n      tag_167\n        /* \"#utility.yul\":2218:2223   */\n      dup2\n        /* \"#utility.yul\":2191:2224   */\n      tag_117\n      jump\t// in\n    tag_167:\n        /* \"#utility.yul\":2091:2230   */\n      swap3\n      swap2\n      pop\n      pop\n      jump\t// out\n        /* \"#utility.yul\":2236:2565   */\n    tag_39:\n        /* \"#utility.yul\":2295:2301   */\n      0x00\n        /* \"#utility.yul\":2344:2346   */\n      0x20\n        /* \"#utility.yul\":2332:2341   */\n      dup3\n        /* \"#utility.yul\":2323:2330   */\n      dup5\n        /* \"#utility.yul\":2319:2342   */\n      sub\n        /* \"#utility.yul\":2315:2347   */\n      slt\n        /* \"#utility.yul\":2312:2431   */\n      iszero\n      tag_169\n      jumpi\n        /* \"#utility.yul\":2350:2429   */\n      tag_170\n      tag_108\n      jump\t// in\n    tag_170:\n        /* \"#utility.yul\":2312:2431   */\n    tag_169:\n        /* \"#utility.yul\":2470:2471   */\n      0x00\n        /* \"#utility.yul\":2495:2548   */\n      tag_171\n        /* \"#utility.yul\":2540:2547   */\n      dup5\n        /* \"#utility.yul\":2531:2537   */\n      dup3\n        /* \"#utility.yul\":2520:2529   */\n      dup6\n        /* \"#utility.yul\":2516:2538   */\n      add\n        /* \"#utility.yul\":2495:2548   */\n      tag_118\n      jump\t// in\n    tag_171:\n        /* \"#utility.yul\":2485:2548   */\n      swap2\n      pop\n        /* \"#utility.yul\":2441:2558   */\n      pop\n        /* \"#utility.yul\":2236:2565   */\n      swap3\n      swap2\n      pop\n      pop\n      jump\t// out\n        /* \"#utility.yul\":2571:2740   */\n    tag_119:\n        /* \"#utility.yul\":2655:2666   */\n      0x00\n        /* \"#utility.yul\":2689:2695   */\n      dup3\n        /* \"#utility.yul\":2684:2687   */\n      dup3\n        /* \"#utility.yul\":2677:2696   */\n      mstore\n        /* \"#utility.yul\":2729:2733   */\n      0x20\n        /* \"#utility.yul\":2724:2727   */\n      dup3\n        /* \"#utility.yul\":2720:2734   */\n      add\n        /* \"#utility.yul\":2705:2734   */\n      swap1\n      pop\n        /* \"#utility.yul\":2571:2740   */\n      swap3\n      swap2\n      pop\n      pop\n      jump\t// out\n        /* \"#utility.yul\":2746:2921   */\n    tag_120:\n        /* \"#utility.yul\":2886:2913   */\n      0x706c6561736520696e637265617365207468652076616c756500000000000000\n        /* \"#utility.yul\":2882:2883   */\n      0x00\n        /* \"#utility.yul\":2874:2880   */\n      dup3\n        /* \"#utility.yul\":2870:2884   */\n      add\n        /* \"#utility.yul\":2863:2914   */\n      mstore\n        /* \"#utility.yul\":2746:2921   */\n      pop\n      jump\t// out\n        /* \"#utility.yul\":2927:3293   */\n    tag_121:\n        /* \"#utility.yul\":3069:3072   */\n      0x00\n        /* \"#utility.yul\":3090:3157   */\n      tag_175\n        /* \"#utility.yul\":3154:3156   */\n      0x19\n        /* \"#utility.yul\":3149:3152   */\n      dup4\n        /* \"#utility.yul\":3090:3157   */\n      tag_119\n      jump\t// in\n    tag_175:\n        /* \"#utility.yul\":3083:3157   */\n      swap2\n      pop\n        /* \"#utility.yul\":3166:3259   */\n      tag_176\n        /* \"#utility.yul\":3255:3258   */\n      dup3\n        /* \"#utility.yul\":3166:3259   */\n      tag_120\n      jump\t// in\n    tag_176:\n        /* \"#utility.yul\":3284:3286   */\n      0x20\n        /* \"#utility.yul\":3279:3282   */\n      dup3\n        /* \"#utility.yul\":3275:3287   */\n      add\n        /* \"#utility.yul\":3268:3287   */\n      swap1\n      pop\n        /* \"#utility.yul\":2927:3293   */\n      swap2\n      swap1\n      pop\n      jump\t// out\n        /* \"#utility.yul\":3299:3718   */\n    tag_47:\n        /* \"#utility.yul\":3465:3469   */\n      0x00\n        /* \"#utility.yul\":3503:3505   */\n      0x20\n        /* \"#utility.yul\":3492:3501   */\n      dup3\n        /* \"#utility.yul\":3488:3506   */\n      add\n        /* \"#utility.yul\":3480:3506   */\n      swap1\n      pop\n        /* \"#utility.yul\":3552:3561   */\n      dup2\n        /* \"#utility.yul\":3546:3550   */\n      dup2\n        /* \"#utility.yul\":3542:3562   */\n      sub\n        /* \"#utility.yul\":3538:3539   */\n      0x00\n        /* \"#utility.yul\":3527:3536   */\n      dup4\n        /* \"#utility.yul\":3523:3540   */\n      add\n        /* \"#utility.yul\":3516:3563   */\n      mstore\n        /* \"#utility.yul\":3580:3711   */\n      tag_178\n        /* \"#utility.yul\":3706:3710   */\n      dup2\n        /* \"#utility.yul\":3580:3711   */\n      tag_121\n      jump\t// in\n    tag_178:\n        /* \"#utility.yul\":3572:3711   */\n      swap1\n      pop\n        /* \"#utility.yul\":3299:3718   */\n      swap2\n      swap1\n      pop\n      jump\t// out\n        /* \"#utility.yul\":3724:3904   */\n    tag_122:\n        /* \"#utility.yul\":3772:3849   */\n      0x4e487b7100000000000000000000000000000000000000000000000000000000\n        /* \"#utility.yul\":3769:3770   */\n      0x00\n        /* \"#utility.yul\":3762:3850   */\n      mstore\n        /* \"#utility.yul\":3869:3873   */\n      0x11\n        /* \"#utility.yul\":3866:3867   */\n      0x04\n        /* \"#utility.yul\":3859:3874   */\n      mstore\n        /* \"#utility.yul\":3893:3897   */\n      0x24\n        /* \"#utility.yul\":3890:3891   */\n      0x00\n        /* \"#utility.yul\":3883:3898   */\n      revert\n        /* \"#utility.yul\":3910:4101   */\n    tag_49:\n        /* \"#utility.yul\":3950:3953   */\n      0x00\n        /* \"#utility.yul\":3969:3989   */\n      tag_181\n        /* \"#utility.yul\":3987:3988   */\n      dup3\n        /* \"#utility.yul\":3969:3989   */\n      tag_114\n      jump\t// in\n    tag_181:\n        /* \"#utility.yul\":3964:3989   */\n      swap2\n      pop\n        /* \"#utility.yul\":4003:4023   */\n      tag_182\n        /* \"#utility.yul\":4021:4022   */\n      dup4\n        /* \"#utility.yul\":4003:4023   */\n      tag_114\n      jump\t// in\n    tag_182:\n        /* \"#utility.yul\":3998:4023   */\n      swap3\n      pop\n        /* \"#utility.yul\":4046:4047   */\n      dup3\n        /* \"#utility.yul\":4043:4044   */\n      dup3\n        /* \"#utility.yul\":4039:4048   */\n      add\n        /* \"#utility.yul\":4032:4048   */\n      swap1\n      pop\n        /* \"#utility.yul\":4067:4070   */\n      dup1\n        /* \"#utility.yul\":4064:4065   */\n      dup3\n        /* \"#utility.yul\":4061:4071   */\n      gt\n        /* \"#utility.yul\":4058:4094   */\n      iszero\n      tag_183\n      jumpi\n        /* \"#utility.yul\":4074:4092   */\n      tag_184\n      tag_122\n      jump\t// in\n    tag_184:\n        /* \"#utility.yul\":4058:4094   */\n    tag_183:\n        /* \"#utility.yul\":3910:4101   */\n      swap3\n      swap2\n      pop\n      pop\n      jump\t// out\n        /* \"#utility.yul\":4107:4281   */\n    tag_123:\n        /* \"#utility.yul\":4247:4273   */\n      0x6f6e6c79206f776e65722063616e2063616c6c20746869730000000000000000\n        /* \"#utility.yul\":4243:4244   */\n      0x00\n        /* \"#utility.yul\":4235:4241   */\n      dup3\n        /* \"#utility.yul\":4231:4245   */\n      add\n        /* \"#utility.yul\":4224:4274   */\n      mstore\n        /* \"#utility.yul\":4107:4281   */\n      pop\n      jump\t// out\n        /* \"#utility.yul\":4287:4653   */\n    tag_124:\n        /* \"#utility.yul\":4429:4432   */\n      0x00\n        /* \"#utility.yul\":4450:4517   */\n      tag_187\n        /* \"#utility.yul\":4514:4516   */\n      0x18\n        /* \"#utility.yul\":4509:4512   */\n      dup4\n        /* \"#utility.yul\":4450:4517   */\n      tag_119\n      jump\t// in\n    tag_187:\n        /* \"#utility.yul\":4443:4517   */\n      swap2\n      pop\n        /* \"#utility.yul\":4526:4619   */\n      tag_188\n        /* \"#utility.yul\":4615:4618   */\n      dup3\n        /* \"#utility.yul\":4526:4619   */\n      tag_123\n      jump\t// in\n    tag_188:\n        /* \"#utility.yul\":4644:4646   */\n      0x20\n        /* \"#utility.yul\":4639:4642   */\n      dup3\n        /* \"#utility.yul\":4635:4647   */\n      add\n        /* \"#utility.yul\":4628:4647   */\n      swap1\n      pop\n        /* \"#utility.yul\":4287:4653   */\n      swap2\n      swap1\n      pop\n      jump\t// out\n        /* \"#utility.yul\":4659:5078   */\n    tag_54:\n        /* \"#utility.yul\":4825:4829   */\n      0x00\n        /* \"#utility.yul\":4863:4865   */\n      0x20\n        /* \"#utility.yul\":4852:4861   */\n      dup3\n        /* \"#utility.yul\":4848:4866   */\n      add\n        /* \"#utility.yul\":4840:4866   */\n      swap1\n      pop\n        /* \"#utility.yul\":4912:4921   */\n      dup2\n        /* \"#utility.yul\":4906:4910   */\n      dup2\n        /* \"#utility.yul\":4902:4922   */\n      sub\n        /* \"#utility.yul\":4898:4899   */\n      0x00\n        /* \"#utility.yul\":4887:4896   */\n      dup4\n        /* \"#utility.yul\":4883:4900   */\n      add\n        /* \"#utility.yul\":4876:4923   */\n      mstore\n        /* \"#utility.yul\":4940:5071   */\n      tag_190\n        /* \"#utility.yul\":5066:5070   */\n      dup2\n        /* \"#utility.yul\":4940:5071   */\n      tag_124\n      jump\t// in\n    tag_190:\n        /* \"#utility.yul\":4932:5071   */\n      swap1\n      pop\n        /* \"#utility.yul\":4659:5078   */\n      swap2\n      swap1\n      pop\n      jump\t// out\n        /* \"#utility.yul\":5084:5264   */\n    tag_63:\n        /* \"#utility.yul\":5132:5209   */\n      0x4e487b7100000000000000000000000000000000000000000000000000000000\n        /* \"#utility.yul\":5129:5130   */\n      0x00\n        /* \"#utility.yul\":5122:5210   */\n      mstore\n        /* \"#utility.yul\":5229:5233   */\n      0x32\n        /* \"#utility.yul\":5226:5227   */\n      0x04\n        /* \"#utility.yul\":5219:5234   */\n      mstore\n        /* \"#utility.yul\":5253:5257   */\n      0x24\n        /* \"#utility.yul\":5250:5251   */\n      0x00\n        /* \"#utility.yul\":5243:5258   */\n      revert\n        /* \"#utility.yul\":5270:5450   */\n    tag_67:\n        /* \"#utility.yul\":5318:5395   */\n      0x4e487b7100000000000000000000000000000000000000000000000000000000\n        /* \"#utility.yul\":5315:5316   */\n      0x00\n        /* \"#utility.yul\":5308:5396   */\n      mstore\n        /* \"#utility.yul\":5415:5419   */\n      0x41\n        /* \"#utility.yul\":5412:5413   */\n      0x04\n        /* \"#utility.yul\":5405:5420   */\n      mstore\n        /* \"#utility.yul\":5439:5443   */\n      0x24\n        /* \"#utility.yul\":5436:5437   */\n      0x00\n        /* \"#utility.yul\":5429:5444   */\n      revert\n        /* \"#utility.yul\":5456:5621   */\n    tag_125:\n        /* \"#utility.yul\":5596:5613   */\n      0x7472616e73666572206661696c65640000000000000000000000000000000000\n        /* \"#utility.yul\":5592:5593   */\n      0x00\n        /* \"#utility.yul\":5584:5590   */\n      dup3\n        /* \"#utility.yul\":5580:5594   */\n      add\n        /* \"#utility.yul\":5573:5614   */\n      mstore\n        /* \"#utility.yul\":5456:5621   */\n      pop\n      jump\t// out\n        /* \"#utility.yul\":5627:5993   */\n    tag_126:\n        /* \"#utility.yul\":5769:5772   */\n      0x00\n        /* \"#utility.yul\":5790:5857   */\n      tag_195\n        /* \"#utility.yul\":5854:5856   */\n      0x0f\n        /* \"#utility.yul\":5849:5852   */\n      dup4\n        /* \"#utility.yul\":5790:5857   */\n      tag_119\n      jump\t// in\n    tag_195:\n        /* \"#utility.yul\":5783:5857   */\n      swap2\n      pop\n        /* \"#utility.yul\":5866:5959   */\n      tag_196\n        /* \"#utility.yul\":5955:5958   */\n      dup3\n        /* \"#utility.yul\":5866:5959   */\n      tag_125\n      jump\t// in\n    tag_196:\n        /* \"#utility.yul\":5984:5986   */\n      0x20\n        /* \"#utility.yul\":5979:5982   */\n      dup3\n        /* \"#utility.yul\":5975:5987   */\n      add\n        /* \"#utility.yul\":5968:5987   */\n      swap1\n      pop\n        /* \"#utility.yul\":5627:5993   */\n      swap2\n      swap1\n      pop\n      jump\t// out\n        /* \"#utility.yul\":5999:6418   */\n    tag_76:\n        /* \"#utility.yul\":6165:6169   */\n      0x00\n        /* \"#utility.yul\":6203:6205   */\n      0x20\n        /* \"#utility.yul\":6192:6201   */\n      dup3\n        /* \"#utility.yul\":6188:6206   */\n      add\n        /* \"#utility.yul\":6180:6206   */\n      swap1\n      pop\n        /* \"#utility.yul\":6252:6261   */\n      dup2\n        /* \"#utility.yul\":6246:6250   */\n      dup2\n        /* \"#utility.yul\":6242:6262   */\n      sub\n        /* \"#utility.yul\":6238:6239   */\n      0x00\n        /* \"#utility.yul\":6227:6236   */\n      dup4\n        /* \"#utility.yul\":6223:6240   */\n      add\n        /* \"#utility.yul\":6216:6263   */\n      mstore\n        /* \"#utility.yul\":6280:6411   */\n      tag_198\n        /* \"#utility.yul\":6406:6410   */\n      dup2\n        /* \"#utility.yul\":6280:6411   */\n      tag_126\n      jump\t// in\n    tag_198:\n        /* \"#utility.yul\":6272:6411   */\n      swap1\n      pop\n        /* \"#utility.yul\":5999:6418   */\n      swap2\n      swap1\n      pop\n      jump\t// out\n        /* \"#utility.yul\":6424:6571   */\n    tag_127:\n        /* \"#utility.yul\":6525:6536   */\n      0x00\n        /* \"#utility.yul\":6562:6565   */\n      dup2\n        /* \"#utility.yul\":6547:6565   */\n      swap1\n      pop\n        /* \"#utility.yul\":6424:6571   */\n      swap3\n      swap2\n      pop\n      pop\n      jump\t// out\n        /* \"#utility.yul\":6577:6691   */\n    tag_128:\n      pop\n      jump\t// out\n        /* \"#utility.yul\":6697:7095   */\n    tag_129:\n        /* \"#utility.yul\":6856:6859   */\n      0x00\n        /* \"#utility.yul\":6877:6960   */\n      tag_202\n        /* \"#utility.yul\":6958:6959   */\n      0x00\n        /* \"#utility.yul\":6953:6956   */\n      dup4\n        /* \"#utility.yul\":6877:6960   */\n      tag_127\n      jump\t// in\n    tag_202:\n        /* \"#utility.yul\":6870:6960   */\n      swap2\n      pop\n        /* \"#utility.yul\":6969:7062   */\n      tag_203\n        /* \"#utility.yul\":7058:7061   */\n      dup3\n        /* \"#utility.yul\":6969:7062   */\n      tag_128\n      jump\t// in\n    tag_203:\n        /* \"#utility.yul\":7087:7088   */\n      0x00\n        /* \"#utility.yul\":7082:7085   */\n      dup3\n        /* \"#utility.yul\":7078:7089   */\n      add\n        /* \"#utility.yul\":7071:7089   */\n      swap1\n      pop\n        /* \"#utility.yul\":6697:7095   */\n      swap2\n      swap1\n      pop\n      jump\t// out\n        /* \"#utility.yul\":7101:7480   */\n    tag_78:\n        /* \"#utility.yul\":7285:7288   */\n      0x00\n        /* \"#utility.yul\":7307:7454   */\n      tag_205\n        /* \"#utility.yul\":7450:7453   */\n      dup3\n        /* \"#utility.yul\":7307:7454   */\n      tag_129\n      jump\t// in\n    tag_205:\n        /* \"#utility.yul\":7300:7454   */\n      swap2\n      pop\n        /* \"#utility.yul\":7471:7474   */\n      dup2\n        /* \"#utility.yul\":7464:7474   */\n      swap1\n      pop\n        /* \"#utility.yul\":7101:7480   */\n      swap2\n      swap1\n      pop\n      jump\t// out\n        /* \"#utility.yul\":7486:7896   */\n    tag_90:\n        /* \"#utility.yul\":7526:7533   */\n      0x00\n        /* \"#utility.yul\":7549:7569   */\n      tag_207\n        /* \"#utility.yul\":7567:7568   */\n      dup3\n        /* \"#utility.yul\":7549:7569   */\n      tag_114\n      jump\t// in\n    tag_207:\n        /* \"#utility.yul\":7544:7569   */\n      swap2\n      pop\n        /* \"#utility.yul\":7583:7603   */\n      tag_208\n        /* \"#utility.yul\":7601:7602   */\n      dup4\n        /* \"#utility.yul\":7583:7603   */\n      tag_114\n      jump\t// in\n    tag_208:\n        /* \"#utility.yul\":7578:7603   */\n      swap3\n      pop\n        /* \"#utility.yul\":7638:7639   */\n      dup3\n        /* \"#utility.yul\":7635:7636   */\n      dup3\n        /* \"#utility.yul\":7631:7640   */\n      mul\n        /* \"#utility.yul\":7660:7690   */\n      tag_209\n        /* \"#utility.yul\":7678:7689   */\n      dup2\n        /* \"#utility.yul\":7660:7690   */\n      tag_114\n      jump\t// in\n    tag_209:\n        /* \"#utility.yul\":7649:7690   */\n      swap2\n      pop\n        /* \"#utility.yul\":7839:7840   */\n      dup3\n        /* \"#utility.yul\":7830:7837   */\n      dup3\n        /* \"#utility.yul\":7826:7841   */\n      div\n        /* \"#utility.yul\":7823:7824   */\n      dup5\n        /* \"#utility.yul\":7820:7842   */\n      eq\n        /* \"#utility.yul\":7800:7801   */\n      dup4\n        /* \"#utility.yul\":7793:7802   */\n      iszero\n        /* \"#utility.yul\":7773:7856   */\n      or\n        /* \"#utility.yul\":7750:7889   */\n      tag_210\n      jumpi\n        /* \"#utility.yul\":7869:7887   */\n      tag_211\n      tag_122\n      jump\t// in\n    tag_211:\n        /* \"#utility.yul\":7750:7889   */\n    tag_210:\n        /* \"#utility.yul\":7534:7896   */\n      pop\n        /* \"#utility.yul\":7486:7896   */\n      swap3\n      swap2\n      pop\n      pop\n      jump\t// out\n        /* \"#utility.yul\":7902:8082   */\n    tag_130:\n        /* \"#utility.yul\":7950:8027   */\n      0x4e487b7100000000000000000000000000000000000000000000000000000000\n        /* \"#utility.yul\":7947:7948   */\n      0x00\n        /* \"#utility.yul\":7940:8028   */\n      mstore\n        /* \"#utility.yul\":8047:8051   */\n      0x12\n        /* \"#utility.yul\":8044:8045   */\n      0x04\n        /* \"#utility.yul\":8037:8052   */\n      mstore\n        /* \"#utility.yul\":8071:8075   */\n      0x24\n        /* \"#utility.yul\":8068:8069   */\n      0x00\n        /* \"#utility.yul\":8061:8076   */\n      revert\n        /* \"#utility.yul\":8088:8273   */\n    tag_92:\n        /* \"#utility.yul\":8128:8129   */\n      0x00\n        /* \"#utility.yul\":8145:8165   */\n      tag_214\n        /* \"#utility.yul\":8163:8164   */\n      dup3\n        /* \"#utility.yul\":8145:8165   */\n      tag_114\n      jump\t// in\n    tag_214:\n        /* \"#utility.yul\":8140:8165   */\n      swap2\n      pop\n        /* \"#utility.yul\":8179:8199   */\n      tag_215\n        /* \"#utility.yul\":8197:8198   */\n      dup4\n        /* \"#utility.yul\":8179:8199   */\n      tag_114\n      jump\t// in\n    tag_215:\n        /* \"#utility.yul\":8174:8199   */\n      swap3\n      pop\n        /* \"#utility.yul\":8218:8219   */\n      dup3\n        /* \"#utility.yul\":8208:8243   */\n      tag_216\n      jumpi\n        /* \"#utility.yul\":8223:8241   */\n      tag_217\n      tag_130\n      jump\t// in\n    tag_217:\n        /* \"#utility.yul\":8208:8243   */\n    tag_216:\n        /* \"#utility.yul\":8265:8266   */\n      dup3\n        /* \"#utility.yul\":8262:8263   */\n      dup3\n        /* \"#utility.yul\":8258:8267   */\n      div\n        /* \"#utility.yul\":8253:8267   */\n      swap1\n      pop\n        /* \"#utility.yul\":8088:8273   */\n      swap3\n      swap2\n      pop\n      pop\n      jump\t// out\n        /* \"#utility.yul\":8279:8384   */\n    tag_131:\n        /* \"#utility.yul\":8315:8322   */\n      0x00\n        /* \"#utility.yul\":8355:8377   */\n      0xffffffffffffffffffff\n        /* \"#utility.yul\":8348:8353   */\n      dup3\n        /* \"#utility.yul\":8344:8378   */\n      and\n        /* \"#utility.yul\":8333:8378   */\n      swap1\n      pop\n        /* \"#utility.yul\":8279:8384   */\n      swap2\n      swap1\n      pop\n      jump\t// out\n        /* \"#utility.yul\":8390:8510   */\n    tag_132:\n        /* \"#utility.yul\":8462:8485   */\n      tag_220\n        /* \"#utility.yul\":8479:8484   */\n      dup2\n        /* \"#utility.yul\":8462:8485   */\n      tag_131\n      jump\t// in\n    tag_220:\n        /* \"#utility.yul\":8455:8460   */\n      dup2\n        /* \"#utility.yul\":8452:8486   */\n      eq\n        /* \"#utility.yul\":8442:8504   */\n      tag_221\n      jumpi\n        /* \"#utility.yul\":8500:8501   */\n      0x00\n        /* \"#utility.yul\":8497:8498   */\n      0x00\n        /* \"#utility.yul\":8490:8502   */\n      revert\n        /* \"#utility.yul\":8442:8504   */\n    tag_221:\n        /* \"#utility.yul\":8390:8510   */\n      pop\n      jump\t// out\n        /* \"#utility.yul\":8516:8657   */\n    tag_133:\n        /* \"#utility.yul\":8572:8577   */\n      0x00\n        /* \"#utility.yul\":8603:8609   */\n      dup2\n        /* \"#utility.yul\":8597:8610   */\n      mload\n        /* \"#utility.yul\":8588:8610   */\n      swap1\n      pop\n        /* \"#utility.yul\":8619:8651   */\n      tag_223\n        /* \"#utility.yul\":8645:8650   */\n      dup2\n        /* \"#utility.yul\":8619:8651   */\n      tag_132\n      jump\t// in\n    tag_223:\n        /* \"#utility.yul\":8516:8657   */\n      swap3\n      swap2\n      pop\n      pop\n      jump\t// out\n        /* \"#utility.yul\":8663:8739   */\n    tag_134:\n        /* \"#utility.yul\":8699:8706   */\n      0x00\n        /* \"#utility.yul\":8728:8733   */\n      dup2\n        /* \"#utility.yul\":8717:8733   */\n      swap1\n      pop\n        /* \"#utility.yul\":8663:8739   */\n      swap2\n      swap1\n      pop\n      jump\t// out\n        /* \"#utility.yul\":8745:8865   */\n    tag_135:\n        /* \"#utility.yul\":8817:8840   */\n      tag_226\n        /* \"#utility.yul\":8834:8839   */\n      dup2\n        /* \"#utility.yul\":8817:8840   */\n      tag_134\n      jump\t// in\n    tag_226:\n        /* \"#utility.yul\":8810:8815   */\n      dup2\n        /* \"#utility.yul\":8807:8841   */\n      eq\n        /* \"#utility.yul\":8797:8859   */\n      tag_227\n      jumpi\n        /* \"#utility.yul\":8855:8856   */\n      0x00\n        /* \"#utility.yul\":8852:8853   */\n      0x00\n        /* \"#utility.yul\":8845:8857   */\n      revert\n        /* \"#utility.yul\":8797:8859   */\n    tag_227:\n        /* \"#utility.yul\":8745:8865   */\n      pop\n      jump\t// out\n        /* \"#utility.yul\":8871:9012   */\n    tag_136:\n        /* \"#utility.yul\":8927:8932   */\n      0x00\n        /* \"#utility.yul\":8958:8964   */\n      dup2\n        /* \"#utility.yul\":8952:8965   */\n      mload\n        /* \"#utility.yul\":8943:8965   */\n      swap1\n      pop\n        /* \"#utility.yul\":8974:9006   */\n      tag_229\n        /* \"#utility.yul\":9000:9005   */\n      dup2\n        /* \"#utility.yul\":8974:9006   */\n      tag_135\n      jump\t// in\n    tag_229:\n        /* \"#utility.yul\":8871:9012   */\n      swap3\n      swap2\n      pop\n      pop\n      jump\t// out\n        /* \"#utility.yul\":9018:9161   */\n    tag_137:\n        /* \"#utility.yul\":9075:9080   */\n      0x00\n        /* \"#utility.yul\":9106:9112   */\n      dup2\n        /* \"#utility.yul\":9100:9113   */\n      mload\n        /* \"#utility.yul\":9091:9113   */\n      swap1\n      pop\n        /* \"#utility.yul\":9122:9155   */\n      tag_231\n        /* \"#utility.yul\":9149:9154   */\n      dup2\n        /* \"#utility.yul\":9122:9155   */\n      tag_117\n      jump\t// in\n    tag_231:\n        /* \"#utility.yul\":9018:9161   */\n      swap3\n      swap2\n      pop\n      pop\n      jump\t// out\n        /* \"#utility.yul\":9167:10138   */\n    tag_97:\n        /* \"#utility.yul\":9270:9276   */\n      0x00\n        /* \"#utility.yul\":9278:9284   */\n      0x00\n        /* \"#utility.yul\":9286:9292   */\n      0x00\n        /* \"#utility.yul\":9294:9300   */\n      0x00\n        /* \"#utility.yul\":9302:9308   */\n      0x00\n        /* \"#utility.yul\":9351:9354   */\n      0xa0\n        /* \"#utility.yul\":9339:9348   */\n      dup7\n        /* \"#utility.yul\":9330:9337   */\n      dup9\n        /* \"#utility.yul\":9326:9349   */\n      sub\n        /* \"#utility.yul\":9322:9355   */\n      slt\n        /* \"#utility.yul\":9319:9439   */\n      iszero\n      tag_233\n      jumpi\n        /* \"#utility.yul\":9358:9437   */\n      tag_234\n      tag_108\n      jump\t// in\n    tag_234:\n        /* \"#utility.yul\":9319:9439   */\n    tag_233:\n        /* \"#utility.yul\":9478:9479   */\n      0x00\n        /* \"#utility.yul\":9503:9566   */\n      tag_235\n        /* \"#utility.yul\":9558:9565   */\n      dup9\n        /* \"#utility.yul\":9549:9555   */\n      dup3\n        /* \"#utility.yul\":9538:9547   */\n      dup10\n        /* \"#utility.yul\":9534:9556   */\n      add\n        /* \"#utility.yul\":9503:9566   */\n      tag_133\n      jump\t// in\n    tag_235:\n        /* \"#utility.yul\":9493:9566   */\n      swap6\n      pop\n        /* \"#utility.yul\":9449:9576   */\n      pop\n        /* \"#utility.yul\":9615:9617   */\n      0x20\n        /* \"#utility.yul\":9641:9704   */\n      tag_236\n        /* \"#utility.yul\":9696:9703   */\n      dup9\n        /* \"#utility.yul\":9687:9693   */\n      dup3\n        /* \"#utility.yul\":9676:9685   */\n      dup10\n        /* \"#utility.yul\":9672:9694   */\n      add\n        /* \"#utility.yul\":9641:9704   */\n      tag_136\n      jump\t// in\n    tag_236:\n        /* \"#utility.yul\":9631:9704   */\n      swap5\n      pop\n        /* \"#utility.yul\":9586:9714   */\n      pop\n        /* \"#utility.yul\":9753:9755   */\n      0x40\n        /* \"#utility.yul\":9779:9843   */\n      tag_237\n        /* \"#utility.yul\":9835:9842   */\n      dup9\n        /* \"#utility.yul\":9826:9832   */\n      dup3\n        /* \"#utility.yul\":9815:9824   */\n      dup10\n        /* \"#utility.yul\":9811:9833   */\n      add\n        /* \"#utility.yul\":9779:9843   */\n      tag_137\n      jump\t// in\n    tag_237:\n        /* \"#utility.yul\":9769:9843   */\n      swap4\n      pop\n        /* \"#utility.yul\":9724:9853   */\n      pop\n        /* \"#utility.yul\":9892:9894   */\n      0x60\n        /* \"#utility.yul\":9918:9982   */\n      tag_238\n        /* \"#utility.yul\":9974:9981   */\n      dup9\n        /* \"#utility.yul\":9965:9971   */\n      dup3\n        /* \"#utility.yul\":9954:9963   */\n      dup10\n        /* \"#utility.yul\":9950:9972   */\n      add\n        /* \"#utility.yul\":9918:9982   */\n      tag_137\n      jump\t// in\n    tag_238:\n        /* \"#utility.yul\":9908:9982   */\n      swap3\n      pop\n        /* \"#utility.yul\":9863:9992   */\n      pop\n        /* \"#utility.yul\":10031:10034   */\n      0x80\n        /* \"#utility.yul\":10058:10121   */\n      tag_239\n        /* \"#utility.yul\":10113:10120   */\n      dup9\n        /* \"#utility.yul\":10104:10110   */\n      dup3\n        /* \"#utility.yul\":10093:10102   */\n      dup10\n        /* \"#utility.yul\":10089:10111   */\n      add\n        /* \"#utility.yul\":10058:10121   */\n      tag_133\n      jump\t// in\n    tag_239:\n        /* \"#utility.yul\":10048:10121   */\n      swap2\n      pop\n        /* \"#utility.yul\":10002:10131   */\n      pop\n        /* \"#utility.yul\":9167:10138   */\n      swap3\n      swap6\n      pop\n      swap3\n      swap6\n      swap1\n      swap4\n      pop\n      jump\t// out\n        /* \"#utility.yul\":10144:10700   */\n    tag_99:\n        /* \"#utility.yul\":10183:10190   */\n      0x00\n        /* \"#utility.yul\":10206:10225   */\n      tag_241\n        /* \"#utility.yul\":10223:10224   */\n      dup3\n        /* \"#utility.yul\":10206:10225   */\n      tag_134\n      jump\t// in\n    tag_241:\n        /* \"#utility.yul\":10201:10225   */\n      swap2\n      pop\n        /* \"#utility.yul\":10239:10258   */\n      tag_242\n        /* \"#utility.yul\":10256:10257   */\n      dup4\n        /* \"#utility.yul\":10239:10258   */\n      tag_134\n      jump\t// in\n    tag_242:\n        /* \"#utility.yul\":10234:10258   */\n      swap3\n      pop\n        /* \"#utility.yul\":10293:10294   */\n      dup3\n        /* \"#utility.yul\":10290:10291   */\n      dup3\n        /* \"#utility.yul\":10286:10295   */\n      mul\n        /* \"#utility.yul\":10315:10344   */\n      tag_243\n        /* \"#utility.yul\":10332:10343   */\n      dup2\n        /* \"#utility.yul\":10315:10344   */\n      tag_134\n      jump\t// in\n    tag_243:\n        /* \"#utility.yul\":10304:10344   */\n      swap2\n      pop\n        /* \"#utility.yul\":10402:10468   */\n      0x8000000000000000000000000000000000000000000000000000000000000000\n        /* \"#utility.yul\":10399:10400   */\n      dup5\n        /* \"#utility.yul\":10396:10469   */\n      eq\n        /* \"#utility.yul\":10392:10393   */\n      0x00\n        /* \"#utility.yul\":10389:10390   */\n      dup5\n        /* \"#utility.yul\":10385:10394   */\n      slt\n        /* \"#utility.yul\":10381:10470   */\n      and\n        /* \"#utility.yul\":10378:10493   */\n      iszero\n      tag_244\n      jumpi\n        /* \"#utility.yul\":10473:10491   */\n      tag_245\n      tag_122\n      jump\t// in\n    tag_245:\n        /* \"#utility.yul\":10378:10493   */\n    tag_244:\n        /* \"#utility.yul\":10643:10644   */\n      dup3\n        /* \"#utility.yul\":10634:10641   */\n      dup3\n        /* \"#utility.yul\":10629:10645   */\n      sdiv\n        /* \"#utility.yul\":10626:10627   */\n      dup5\n        /* \"#utility.yul\":10623:10646   */\n      eq\n        /* \"#utility.yul\":10603:10604   */\n      dup4\n        /* \"#utility.yul\":10596:10605   */\n      iszero\n        /* \"#utility.yul\":10576:10660   */\n      or\n        /* \"#utility.yul\":10553:10693   */\n      tag_246\n      jumpi\n        /* \"#utility.yul\":10673:10691   */\n      tag_247\n      tag_122\n      jump\t// in\n    tag_247:\n        /* \"#utility.yul\":10553:10693   */\n    tag_246:\n        /* \"#utility.yul\":10191:10700   */\n      pop\n        /* \"#utility.yul\":10144:10700   */\n      swap3\n      swap2\n      pop\n      pop\n      jump\t// out\n\n    auxdata: 0xa26469706673582212205d8f301e0478dfcfabe8db5fad5ffb55190cf0f0f0b973073a0705a6aea800ba64736f6c634300081e0033\n}\n",
				"bytecode": {
					"linkReferences": {},
					"object": "60a0604052348015600e575f5ffd5b503373ffffffffffffffffffffffffffffffffffffffff1660808173ffffffffffffffffffffffffffffffffffffffff1681525050608051610e1f6100705f395f8181610265015281816102f30152818161037801526106830152610e1f5ff3fe608060405260043610610058575f3560e01c80633ccfd60b146100715780633e47d6f3146100875780636b69a592146100c3578063d1d9165d146100ed578063dba6335f146100f7578063dc0d3dff1461012157610067565b366100675761006561015d565b005b61006f61015d565b005b34801561007c575f5ffd5b50610085610263565b005b348015610092575f5ffd5b506100ad60048036038101906100a891906108bc565b610660565b6040516100ba91906108ff565b60405180910390f35b3480156100ce575f5ffd5b506100d7610675565b6040516100e491906108ff565b60405180910390f35b6100f561015d565b005b348015610102575f5ffd5b5061010b610681565b6040516101189190610927565b60405180910390f35b34801561012c575f5ffd5b506101476004803603810190610142919061096a565b6106a5565b6040516101549190610927565b60405180910390f35b674563918244f4000061016f346106df565b116101af576040517f08c379a00000000000000000000000000000000000000000000000000000000081526004016101a6906109ef565b60405180910390fd5b3460015f3373ffffffffffffffffffffffffffffffffffffffff1673ffffffffffffffffffffffffffffffffffffffff1681526020019081526020015f205f8282546101fb9190610a3a565b925050819055505f33908060018154018082558091505060019003905f5260205f20015f9091909190916101000a81548173ffffffffffffffffffffffffffffffffffffffff021916908373ffffffffffffffffffffffffffffffffffffffff160217905550565b7f000000000000000000000000000000000000000000000000000000000000000073ffffffffffffffffffffffffffffffffffffffff163373ffffffffffffffffffffffffffffffffffffffff16146102f1576040517f08c379a00000000000000000000000000000000000000000000000000000000081526004016102e890610ab7565b60405180910390fd5b7f000000000000000000000000000000000000000000000000000000000000000073ffffffffffffffffffffffffffffffffffffffff163373ffffffffffffffffffffffffffffffffffffffff1614610376576040517f30cd747100000000000000000000000000000000000000000000000000000000815260040160405180910390fd5b7f000000000000000000000000000000000000000000000000000000000000000073ffffffffffffffffffffffffffffffffffffffff163373ffffffffffffffffffffffffffffffffffffffff16146103fb576040517f30cd747100000000000000000000000000000000000000000000000000000000815260040160405180910390fd5b5f5f90505b5f8054905081101561049a575f5f82815481106104205761041f610ad5565b5b905f5260205f20015f9054906101000a900473ffffffffffffffffffffffffffffffffffffffff1690505f60015f8373ffffffffffffffffffffffffffffffffffffffff1673ffffffffffffffffffffffffffffffffffffffff1681526020019081526020015f2081905550508080600101915050610400565b505f67ffffffffffffffff8111156104b5576104b4610b02565b5b6040519080825280602002602001820160405280156104e35781602001602082028036833780820191505090505b505f90805190602001906104f89291906107bc565b503373ffffffffffffffffffffffffffffffffffffffff166108fc4790811502906040515f60405180830381858888f1935050505015801561053c573d5f5f3e3d5ffd5b505f3373ffffffffffffffffffffffffffffffffffffffff166108fc4790811502906040515f60405180830381858888f193505050509050806105b4576040517f08c379a00000000000000000000000000000000000000000000000000000000081526004016105ab90610b79565b60405180910390fd5b5f3373ffffffffffffffffffffffffffffffffffffffff16476040516105d990610bc4565b5f6040518083038185875af1925050503d805f8114610613576040519150601f19603f3d011682016040523d82523d5f602084013e610618565b606091505b505090508061065c576040517f08c379a000000000000000000000000000000000000000000000000000000000815260040161065390610b79565b60405180910390fd5b5050565b6001602052805f5260405f205f915090505481565b674563918244f4000081565b7f000000000000000000000000000000000000000000000000000000000000000081565b5f81815481106106b3575f80fd5b905f5260205f20015f915054906101000a900473ffffffffffffffffffffffffffffffffffffffff1681565b5f5f6106e9610717565b90505f670de0b6b3a764000084836107019190610bd8565b61070b9190610c46565b90508092505050919050565b5f5f73694aa1769357215de4fac081bf1f309adc32530690505f8173ffffffffffffffffffffffffffffffffffffffff1663feaf968c6040518163ffffffff1660e01b815260040160a060405180830381865afa15801561077a573d5f5f3e3d5ffd5b505050506040513d601f19601f8201168201806040525081019061079e9190610cfc565b5050509150506402540be400816107b59190610d73565b9250505090565b828054828255905f5260205f20908101928215610832579160200282015b82811115610831578251825f6101000a81548173ffffffffffffffffffffffffffffffffffffffff021916908373ffffffffffffffffffffffffffffffffffffffff160217905550916020019190600101906107da565b5b50905061083f9190610843565b5090565b5b8082111561085a575f815f905550600101610844565b5090565b5f5ffd5b5f73ffffffffffffffffffffffffffffffffffffffff82169050919050565b5f61088b82610862565b9050919050565b61089b81610881565b81146108a5575f5ffd5b50565b5f813590506108b681610892565b92915050565b5f602082840312156108d1576108d061085e565b5b5f6108de848285016108a8565b91505092915050565b5f819050919050565b6108f9816108e7565b82525050565b5f6020820190506109125f8301846108f0565b92915050565b61092181610881565b82525050565b5f60208201905061093a5f830184610918565b92915050565b610949816108e7565b8114610953575f5ffd5b50565b5f8135905061096481610940565b92915050565b5f6020828403121561097f5761097e61085e565b5b5f61098c84828501610956565b91505092915050565b5f82825260208201905092915050565b7f706c6561736520696e637265617365207468652076616c7565000000000000005f82015250565b5f6109d9601983610995565b91506109e4826109a5565b602082019050919050565b5f6020820190508181035f830152610a06816109cd565b9050919050565b7f4e487b71000000000000000000000000000000000000000000000000000000005f52601160045260245ffd5b5f610a44826108e7565b9150610a4f836108e7565b9250828201905080821115610a6757610a66610a0d565b5b92915050565b7f6f6e6c79206f776e65722063616e2063616c6c207468697300000000000000005f82015250565b5f610aa1601883610995565b9150610aac82610a6d565b602082019050919050565b5f6020820190508181035f830152610ace81610a95565b9050919050565b7f4e487b71000000000000000000000000000000000000000000000000000000005f52603260045260245ffd5b7f4e487b71000000000000000000000000000000000000000000000000000000005f52604160045260245ffd5b7f7472616e73666572206661696c656400000000000000000000000000000000005f82015250565b5f610b63600f83610995565b9150610b6e82610b2f565b602082019050919050565b5f6020820190508181035f830152610b9081610b57565b9050919050565b5f81905092915050565b50565b5f610baf5f83610b97565b9150610bba82610ba1565b5f82019050919050565b5f610bce82610ba4565b9150819050919050565b5f610be2826108e7565b9150610bed836108e7565b9250828202610bfb816108e7565b91508282048414831517610c1257610c11610a0d565b5b5092915050565b7f4e487b71000000000000000000000000000000000000000000000000000000005f52601260045260245ffd5b5f610c50826108e7565b9150610c5b836108e7565b925082610c6b57610c6a610c19565b5b828204905092915050565b5f69ffffffffffffffffffff82169050919050565b610c9481610c76565b8114610c9e575f5ffd5b50565b5f81519050610caf81610c8b565b92915050565b5f819050919050565b610cc781610cb5565b8114610cd1575f5ffd5b50565b5f81519050610ce281610cbe565b92915050565b5f81519050610cf681610940565b92915050565b5f5f5f5f5f60a08688031215610d1557610d1461085e565b5b5f610d2288828901610ca1565b9550506020610d3388828901610cd4565b9450506040610d4488828901610ce8565b9350506060610d5588828901610ce8565b9250506080610d6688828901610ca1565b9150509295509295909350565b5f610d7d82610cb5565b9150610d8883610cb5565b9250828202610d9681610cb5565b91507f800000000000000000000000000000000000000000000000000000000000000084145f84121615610dcd57610dcc610a0d565b5b8282058414831517610de257610de1610a0d565b5b509291505056fea26469706673582212205d8f301e0478dfcfabe8db5fad5ffb55190cf0f0f0b973073a0705a6aea800ba64736f6c634300081e0033",
					"opcodes": "PUSH1 0xA0 PUSH1 0x40 MSTORE CALLVALUE DUP1 ISZERO PUSH1 0xE JUMPI PUSH0 PUSH0 REVERT JUMPDEST POP CALLER PUSH20 0xFFFFFFFFFFFFFFFFFFFFFFFFFFFFFFFFFFFFFFFF AND PUSH1 0x80 DUP2 PUSH20 0xFFFFFFFFFFFFFFFFFFFFFFFFFFFFFFFFFFFFFFFF AND DUP2 MSTORE POP POP PUSH1 0x80 MLOAD PUSH2 0xE1F PUSH2 0x70 PUSH0 CODECOPY PUSH0 DUP2 DUP2 PUSH2 0x265 ADD MSTORE DUP2 DUP2 PUSH2 0x2F3 ADD MSTORE DUP2 DUP2 PUSH2 0x378 ADD MSTORE PUSH2 0x683 ADD MSTORE PUSH2 0xE1F PUSH0 RETURN INVALID PUSH1 0x80 PUSH1 0x40 MSTORE PUSH1 0x4 CALLDATASIZE LT PUSH2 0x58 JUMPI PUSH0 CALLDATALOAD PUSH1 0xE0 SHR DUP1 PUSH4 0x3CCFD60B EQ PUSH2 0x71 JUMPI DUP1 PUSH4 0x3E47D6F3 EQ PUSH2 0x87 JUMPI DUP1 PUSH4 0x6B69A592 EQ PUSH2 0xC3 JUMPI DUP1 PUSH4 0xD1D9165D EQ PUSH2 0xED JUMPI DUP1 PUSH4 0xDBA6335F EQ PUSH2 0xF7 JUMPI DUP1 PUSH4 0xDC0D3DFF EQ PUSH2 0x121 JUMPI PUSH2 0x67 JUMP JUMPDEST CALLDATASIZE PUSH2 0x67 JUMPI PUSH2 0x65 PUSH2 0x15D JUMP JUMPDEST STOP JUMPDEST PUSH2 0x6F PUSH2 0x15D JUMP JUMPDEST STOP JUMPDEST CALLVALUE DUP1 ISZERO PUSH2 0x7C JUMPI PUSH0 PUSH0 REVERT JUMPDEST POP PUSH2 0x85 PUSH2 0x263 JUMP JUMPDEST STOP JUMPDEST CALLVALUE DUP1 ISZERO PUSH2 0x92 JUMPI PUSH0 PUSH0 REVERT JUMPDEST POP PUSH2 0xAD PUSH1 0x4 DUP1 CALLDATASIZE SUB DUP2 ADD SWAP1 PUSH2 0xA8 SWAP2 SWAP1 PUSH2 0x8BC JUMP JUMPDEST PUSH2 0x660 JUMP JUMPDEST PUSH1 0x40 MLOAD PUSH2 0xBA SWAP2 SWAP1 PUSH2 0x8FF JUMP JUMPDEST PUSH1 0x40 MLOAD DUP1 SWAP2 SUB SWAP1 RETURN JUMPDEST CALLVALUE DUP1 ISZERO PUSH2 0xCE JUMPI PUSH0 PUSH0 REVERT JUMPDEST POP PUSH2 0xD7 PUSH2 0x675 JUMP JUMPDEST PUSH1 0x40 MLOAD PUSH2 0xE4 SWAP2 SWAP1 PUSH2 0x8FF JUMP JUMPDEST PUSH1 0x40 MLOAD DUP1 SWAP2 SUB SWAP1 RETURN JUMPDEST PUSH2 0xF5 PUSH2 0x15D JUMP JUMPDEST STOP JUMPDEST CALLVALUE DUP1 ISZERO PUSH2 0x102 JUMPI PUSH0 PUSH0 REVERT JUMPDEST POP PUSH2 0x10B PUSH2 0x681 JUMP JUMPDEST PUSH1 0x40 MLOAD PUSH2 0x118 SWAP2 SWAP1 PUSH2 0x927 JUMP JUMPDEST PUSH1 0x40 MLOAD DUP1 SWAP2 SUB SWAP1 RETURN JUMPDEST CALLVALUE DUP1 ISZERO PUSH2 0x12C JUMPI PUSH0 PUSH0 REVERT JUMPDEST POP PUSH2 0x147 PUSH1 0x4 DUP1 CALLDATASIZE SUB DUP2 ADD SWAP1 PUSH2 0x142 SWAP2 SWAP1 PUSH2 0x96A JUMP JUMPDEST PUSH2 0x6A5 JUMP JUMPDEST PUSH1 0x40 MLOAD PUSH2 0x154 SWAP2 SWAP1 PUSH2 0x927 JUMP JUMPDEST PUSH1 0x40 MLOAD DUP1 SWAP2 SUB SWAP1 RETURN JUMPDEST PUSH8 0x4563918244F40000 PUSH2 0x16F CALLVALUE PUSH2 0x6DF JUMP JUMPDEST GT PUSH2 0x1AF JUMPI PUSH1 0x40 MLOAD PUSH32 0x8C379A000000000000000000000000000000000000000000000000000000000 DUP2 MSTORE PUSH1 0x4 ADD PUSH2 0x1A6 SWAP1 PUSH2 0x9EF JUMP JUMPDEST PUSH1 0x40 MLOAD DUP1 SWAP2 SUB SWAP1 REVERT JUMPDEST CALLVALUE PUSH1 0x1 PUSH0 CALLER PUSH20 0xFFFFFFFFFFFFFFFFFFFFFFFFFFFFFFFFFFFFFFFF AND PUSH20 0xFFFFFFFFFFFFFFFFFFFFFFFFFFFFFFFFFFFFFFFF AND DUP2 MSTORE PUSH1 0x20 ADD SWAP1 DUP2 MSTORE PUSH1 0x20 ADD PUSH0 KECCAK256 PUSH0 DUP3 DUP3 SLOAD PUSH2 0x1FB SWAP2 SWAP1 PUSH2 0xA3A JUMP JUMPDEST SWAP3 POP POP DUP2 SWAP1 SSTORE POP PUSH0 CALLER SWAP1 DUP1 PUSH1 0x1 DUP2 SLOAD ADD DUP1 DUP3 SSTORE DUP1 SWAP2 POP POP PUSH1 0x1 SWAP1 SUB SWAP1 PUSH0 MSTORE PUSH1 0x20 PUSH0 KECCAK256 ADD PUSH0 SWAP1 SWAP2 SWAP1 SWAP2 SWAP1 SWAP2 PUSH2 0x100 EXP DUP2 SLOAD DUP2 PUSH20 0xFFFFFFFFFFFFFFFFFFFFFFFFFFFFFFFFFFFFFFFF MUL NOT AND SWAP1 DUP4 PUSH20 0xFFFFFFFFFFFFFFFFFFFFFFFFFFFFFFFFFFFFFFFF AND MUL OR SWAP1 SSTORE POP JUMP JUMPDEST PUSH32 0x0 PUSH20 0xFFFFFFFFFFFFFFFFFFFFFFFFFFFFFFFFFFFFFFFF AND CALLER PUSH20 0xFFFFFFFFFFFFFFFFFFFFFFFFFFFFFFFFFFFFFFFF AND EQ PUSH2 0x2F1 JUMPI PUSH1 0x40 MLOAD PUSH32 0x8C379A000000000000000000000000000000000000000000000000000000000 DUP2 MSTORE PUSH1 0x4 ADD PUSH2 0x2E8 SWAP1 PUSH2 0xAB7 JUMP JUMPDEST PUSH1 0x40 MLOAD DUP1 SWAP2 SUB SWAP1 REVERT JUMPDEST PUSH32 0x0 PUSH20 0xFFFFFFFFFFFFFFFFFFFFFFFFFFFFFFFFFFFFFFFF AND CALLER PUSH20 0xFFFFFFFFFFFFFFFFFFFFFFFFFFFFFFFFFFFFFFFF AND EQ PUSH2 0x376 JUMPI PUSH1 0x40 MLOAD PUSH32 0x30CD747100000000000000000000000000000000000000000000000000000000 DUP2 MSTORE PUSH1 0x4 ADD PUSH1 0x40 MLOAD DUP1 SWAP2 SUB SWAP1 REVERT JUMPDEST PUSH32 0x0 PUSH20 0xFFFFFFFFFFFFFFFFFFFFFFFFFFFFFFFFFFFFFFFF AND CALLER PUSH20 0xFFFFFFFFFFFFFFFFFFFFFFFFFFFFFFFFFFFFFFFF AND EQ PUSH2 0x3FB JUMPI PUSH1 0x40 MLOAD PUSH32 0x30CD747100000000000000000000000000000000000000000000000000000000 DUP2 MSTORE PUSH1 0x4 ADD PUSH1 0x40 MLOAD DUP1 SWAP2 SUB SWAP1 REVERT JUMPDEST PUSH0 PUSH0 SWAP1 POP JUMPDEST PUSH0 DUP1 SLOAD SWAP1 POP DUP2 LT ISZERO PUSH2 0x49A JUMPI PUSH0 PUSH0 DUP3 DUP2 SLOAD DUP2 LT PUSH2 0x420 JUMPI PUSH2 0x41F PUSH2 0xAD5 JUMP JUMPDEST JUMPDEST SWAP1 PUSH0 MSTORE PUSH1 0x20 PUSH0 KECCAK256 ADD PUSH0 SWAP1 SLOAD SWAP1 PUSH2 0x100 EXP SWAP1 DIV PUSH20 0xFFFFFFFFFFFFFFFFFFFFFFFFFFFFFFFFFFFFFFFF AND SWAP1 POP PUSH0 PUSH1 0x1 PUSH0 DUP4 PUSH20 0xFFFFFFFFFFFFFFFFFFFFFFFFFFFFFFFFFFFFFFFF AND PUSH20 0xFFFFFFFFFFFFFFFFFFFFFFFFFFFFFFFFFFFFFFFF AND DUP2 MSTORE PUSH1 0x20 ADD SWAP1 DUP2 MSTORE PUSH1 0x20 ADD PUSH0 KECCAK256 DUP2 SWAP1 SSTORE POP POP DUP1 DUP1 PUSH1 0x1 ADD SWAP2 POP POP PUSH2 0x400 JUMP JUMPDEST POP PUSH0 PUSH8 0xFFFFFFFFFFFFFFFF DUP2 GT ISZERO PUSH2 0x4B5 JUMPI PUSH2 0x4B4 PUSH2 0xB02 JUMP JUMPDEST JUMPDEST PUSH1 0x40 MLOAD SWAP1 DUP1 DUP3 MSTORE DUP1 PUSH1 0x20 MUL PUSH1 0x20 ADD DUP3 ADD PUSH1 0x40 MSTORE DUP1 ISZERO PUSH2 0x4E3 JUMPI DUP2 PUSH1 0x20 ADD PUSH1 0x20 DUP3 MUL DUP1 CALLDATASIZE DUP4 CALLDATACOPY DUP1 DUP3 ADD SWAP2 POP POP SWAP1 POP JUMPDEST POP PUSH0 SWAP1 DUP1 MLOAD SWAP1 PUSH1 0x20 ADD SWAP1 PUSH2 0x4F8 SWAP3 SWAP2 SWAP1 PUSH2 0x7BC JUMP JUMPDEST POP CALLER PUSH20 0xFFFFFFFFFFFFFFFFFFFFFFFFFFFFFFFFFFFFFFFF AND PUSH2 0x8FC SELFBALANCE SWAP1 DUP2 ISZERO MUL SWAP1 PUSH1 0x40 MLOAD PUSH0 PUSH1 0x40 MLOAD DUP1 DUP4 SUB DUP2 DUP6 DUP9 DUP9 CALL SWAP4 POP POP POP POP ISZERO DUP1 ISZERO PUSH2 0x53C JUMPI RETURNDATASIZE PUSH0 PUSH0 RETURNDATACOPY RETURNDATASIZE PUSH0 REVERT JUMPDEST POP PUSH0 CALLER PUSH20 0xFFFFFFFFFFFFFFFFFFFFFFFFFFFFFFFFFFFFFFFF AND PUSH2 0x8FC SELFBALANCE SWAP1 DUP2 ISZERO MUL SWAP1 PUSH1 0x40 MLOAD PUSH0 PUSH1 0x40 MLOAD DUP1 DUP4 SUB DUP2 DUP6 DUP9 DUP9 CALL SWAP4 POP POP POP POP SWAP1 POP DUP1 PUSH2 0x5B4 JUMPI PUSH1 0x40 MLOAD PUSH32 0x8C379A000000000000000000000000000000000000000000000000000000000 DUP2 MSTORE PUSH1 0x4 ADD PUSH2 0x5AB SWAP1 PUSH2 0xB79 JUMP JUMPDEST PUSH1 0x40 MLOAD DUP1 SWAP2 SUB SWAP1 REVERT JUMPDEST PUSH0 CALLER PUSH20 0xFFFFFFFFFFFFFFFFFFFFFFFFFFFFFFFFFFFFFFFF AND SELFBALANCE PUSH1 0x40 MLOAD PUSH2 0x5D9 SWAP1 PUSH2 0xBC4 JUMP JUMPDEST PUSH0 PUSH1 0x40 MLOAD DUP1 DUP4 SUB DUP2 DUP6 DUP8 GAS CALL SWAP3 POP POP POP RETURNDATASIZE DUP1 PUSH0 DUP2 EQ PUSH2 0x613 JUMPI PUSH1 0x40 MLOAD SWAP2 POP PUSH1 0x1F NOT PUSH1 0x3F RETURNDATASIZE ADD AND DUP3 ADD PUSH1 0x40 MSTORE RETURNDATASIZE DUP3 MSTORE RETURNDATASIZE PUSH0 PUSH1 0x20 DUP5 ADD RETURNDATACOPY PUSH2 0x618 JUMP JUMPDEST PUSH1 0x60 SWAP2 POP JUMPDEST POP POP SWAP1 POP DUP1 PUSH2 0x65C JUMPI PUSH1 0x40 MLOAD PUSH32 0x8C379A000000000000000000000000000000000000000000000000000000000 DUP2 MSTORE PUSH1 0x4 ADD PUSH2 0x653 SWAP1 PUSH2 0xB79 JUMP JUMPDEST PUSH1 0x40 MLOAD DUP1 SWAP2 SUB SWAP1 REVERT JUMPDEST POP POP JUMP JUMPDEST PUSH1 0x1 PUSH1 0x20 MSTORE DUP1 PUSH0 MSTORE PUSH1 0x40 PUSH0 KECCAK256 PUSH0 SWAP2 POP SWAP1 POP SLOAD DUP2 JUMP JUMPDEST PUSH8 0x4563918244F40000 DUP2 JUMP JUMPDEST PUSH32 0x0 DUP2 JUMP JUMPDEST PUSH0 DUP2 DUP2 SLOAD DUP2 LT PUSH2 0x6B3 JUMPI PUSH0 DUP1 REVERT JUMPDEST SWAP1 PUSH0 MSTORE PUSH1 0x20 PUSH0 KECCAK256 ADD PUSH0 SWAP2 POP SLOAD SWAP1 PUSH2 0x100 EXP SWAP1 DIV PUSH20 0xFFFFFFFFFFFFFFFFFFFFFFFFFFFFFFFFFFFFFFFF AND DUP2 JUMP JUMPDEST PUSH0 PUSH0 PUSH2 0x6E9 PUSH2 0x717 JUMP JUMPDEST SWAP1 POP PUSH0 PUSH8 0xDE0B6B3A7640000 DUP5 DUP4 PUSH2 0x701 SWAP2 SWAP1 PUSH2 0xBD8 JUMP JUMPDEST PUSH2 0x70B SWAP2 SWAP1 PUSH2 0xC46 JUMP JUMPDEST SWAP1 POP DUP1 SWAP3 POP POP POP SWAP2 SWAP1 POP JUMP JUMPDEST PUSH0 PUSH0 PUSH20 0x694AA1769357215DE4FAC081BF1F309ADC325306 SWAP1 POP PUSH0 DUP2 PUSH20 0xFFFFFFFFFFFFFFFFFFFFFFFFFFFFFFFFFFFFFFFF AND PUSH4 0xFEAF968C PUSH1 0x40 MLOAD DUP2 PUSH4 0xFFFFFFFF AND PUSH1 0xE0 SHL DUP2 MSTORE PUSH1 0x4 ADD PUSH1 0xA0 PUSH1 0x40 MLOAD DUP1 DUP4 SUB DUP2 DUP7 GAS STATICCALL ISZERO DUP1 ISZERO PUSH2 0x77A JUMPI RETURNDATASIZE PUSH0 PUSH0 RETURNDATACOPY RETURNDATASIZE PUSH0 REVERT JUMPDEST POP POP POP POP PUSH1 0x40 MLOAD RETURNDATASIZE PUSH1 0x1F NOT PUSH1 0x1F DUP3 ADD AND DUP3 ADD DUP1 PUSH1 0x40 MSTORE POP DUP2 ADD SWAP1 PUSH2 0x79E SWAP2 SWAP1 PUSH2 0xCFC JUMP JUMPDEST POP POP POP SWAP2 POP POP PUSH5 0x2540BE400 DUP2 PUSH2 0x7B5 SWAP2 SWAP1 PUSH2 0xD73 JUMP JUMPDEST SWAP3 POP POP POP SWAP1 JUMP JUMPDEST DUP3 DUP1 SLOAD DUP3 DUP3 SSTORE SWAP1 PUSH0 MSTORE PUSH1 0x20 PUSH0 KECCAK256 SWAP1 DUP2 ADD SWAP3 DUP3 ISZERO PUSH2 0x832 JUMPI SWAP2 PUSH1 0x20 MUL DUP3 ADD JUMPDEST DUP3 DUP2 GT ISZERO PUSH2 0x831 JUMPI DUP3 MLOAD DUP3 PUSH0 PUSH2 0x100 EXP DUP2 SLOAD DUP2 PUSH20 0xFFFFFFFFFFFFFFFFFFFFFFFFFFFFFFFFFFFFFFFF MUL NOT AND SWAP1 DUP4 PUSH20 0xFFFFFFFFFFFFFFFFFFFFFFFFFFFFFFFFFFFFFFFF AND MUL OR SWAP1 SSTORE POP SWAP2 PUSH1 0x20 ADD SWAP2 SWAP1 PUSH1 0x1 ADD SWAP1 PUSH2 0x7DA JUMP JUMPDEST JUMPDEST POP SWAP1 POP PUSH2 0x83F SWAP2 SWAP1 PUSH2 0x843 JUMP JUMPDEST POP SWAP1 JUMP JUMPDEST JUMPDEST DUP1 DUP3 GT ISZERO PUSH2 0x85A JUMPI PUSH0 DUP2 PUSH0 SWAP1 SSTORE POP PUSH1 0x1 ADD PUSH2 0x844 JUMP JUMPDEST POP SWAP1 JUMP JUMPDEST PUSH0 PUSH0 REVERT JUMPDEST PUSH0 PUSH20 0xFFFFFFFFFFFFFFFFFFFFFFFFFFFFFFFFFFFFFFFF DUP3 AND SWAP1 POP SWAP2 SWAP1 POP JUMP JUMPDEST PUSH0 PUSH2 0x88B DUP3 PUSH2 0x862 JUMP JUMPDEST SWAP1 POP SWAP2 SWAP1 POP JUMP JUMPDEST PUSH2 0x89B DUP2 PUSH2 0x881 JUMP JUMPDEST DUP2 EQ PUSH2 0x8A5 JUMPI PUSH0 PUSH0 REVERT JUMPDEST POP JUMP JUMPDEST PUSH0 DUP2 CALLDATALOAD SWAP1 POP PUSH2 0x8B6 DUP2 PUSH2 0x892 JUMP JUMPDEST SWAP3 SWAP2 POP POP JUMP JUMPDEST PUSH0 PUSH1 0x20 DUP3 DUP5 SUB SLT ISZERO PUSH2 0x8D1 JUMPI PUSH2 0x8D0 PUSH2 0x85E JUMP JUMPDEST JUMPDEST PUSH0 PUSH2 0x8DE DUP5 DUP3 DUP6 ADD PUSH2 0x8A8 JUMP JUMPDEST SWAP2 POP POP SWAP3 SWAP2 POP POP JUMP JUMPDEST PUSH0 DUP2 SWAP1 POP SWAP2 SWAP1 POP JUMP JUMPDEST PUSH2 0x8F9 DUP2 PUSH2 0x8E7 JUMP JUMPDEST DUP3 MSTORE POP POP JUMP JUMPDEST PUSH0 PUSH1 0x20 DUP3 ADD SWAP1 POP PUSH2 0x912 PUSH0 DUP4 ADD DUP5 PUSH2 0x8F0 JUMP JUMPDEST SWAP3 SWAP2 POP POP JUMP JUMPDEST PUSH2 0x921 DUP2 PUSH2 0x881 JUMP JUMPDEST DUP3 MSTORE POP POP JUMP JUMPDEST PUSH0 PUSH1 0x20 DUP3 ADD SWAP1 POP PUSH2 0x93A PUSH0 DUP4 ADD DUP5 PUSH2 0x918 JUMP JUMPDEST SWAP3 SWAP2 POP POP JUMP JUMPDEST PUSH2 0x949 DUP2 PUSH2 0x8E7 JUMP JUMPDEST DUP2 EQ PUSH2 0x953 JUMPI PUSH0 PUSH0 REVERT JUMPDEST POP JUMP JUMPDEST PUSH0 DUP2 CALLDATALOAD SWAP1 POP PUSH2 0x964 DUP2 PUSH2 0x940 JUMP JUMPDEST SWAP3 SWAP2 POP POP JUMP JUMPDEST PUSH0 PUSH1 0x20 DUP3 DUP5 SUB SLT ISZERO PUSH2 0x97F JUMPI PUSH2 0x97E PUSH2 0x85E JUMP JUMPDEST JUMPDEST PUSH0 PUSH2 0x98C DUP5 DUP3 DUP6 ADD PUSH2 0x956 JUMP JUMPDEST SWAP2 POP POP SWAP3 SWAP2 POP POP JUMP JUMPDEST PUSH0 DUP3 DUP3 MSTORE PUSH1 0x20 DUP3 ADD SWAP1 POP SWAP3 SWAP2 POP POP JUMP JUMPDEST PUSH32 0x706C6561736520696E637265617365207468652076616C756500000000000000 PUSH0 DUP3 ADD MSTORE POP JUMP JUMPDEST PUSH0 PUSH2 0x9D9 PUSH1 0x19 DUP4 PUSH2 0x995 JUMP JUMPDEST SWAP2 POP PUSH2 0x9E4 DUP3 PUSH2 0x9A5 JUMP JUMPDEST PUSH1 0x20 DUP3 ADD SWAP1 POP SWAP2 SWAP1 POP JUMP JUMPDEST PUSH0 PUSH1 0x20 DUP3 ADD SWAP1 POP DUP2 DUP2 SUB PUSH0 DUP4 ADD MSTORE PUSH2 0xA06 DUP2 PUSH2 0x9CD JUMP JUMPDEST SWAP1 POP SWAP2 SWAP1 POP JUMP JUMPDEST PUSH32 0x4E487B7100000000000000000000000000000000000000000000000000000000 PUSH0 MSTORE PUSH1 0x11 PUSH1 0x4 MSTORE PUSH1 0x24 PUSH0 REVERT JUMPDEST PUSH0 PUSH2 0xA44 DUP3 PUSH2 0x8E7 JUMP JUMPDEST SWAP2 POP PUSH2 0xA4F DUP4 PUSH2 0x8E7 JUMP JUMPDEST SWAP3 POP DUP3 DUP3 ADD SWAP1 POP DUP1 DUP3 GT ISZERO PUSH2 0xA67 JUMPI PUSH2 0xA66 PUSH2 0xA0D JUMP JUMPDEST JUMPDEST SWAP3 SWAP2 POP POP JUMP JUMPDEST PUSH32 0x6F6E6C79206F776E65722063616E2063616C6C20746869730000000000000000 PUSH0 DUP3 ADD MSTORE POP JUMP JUMPDEST PUSH0 PUSH2 0xAA1 PUSH1 0x18 DUP4 PUSH2 0x995 JUMP JUMPDEST SWAP2 POP PUSH2 0xAAC DUP3 PUSH2 0xA6D JUMP JUMPDEST PUSH1 0x20 DUP3 ADD SWAP1 POP SWAP2 SWAP1 POP JUMP JUMPDEST PUSH0 PUSH1 0x20 DUP3 ADD SWAP1 POP DUP2 DUP2 SUB PUSH0 DUP4 ADD MSTORE PUSH2 0xACE DUP2 PUSH2 0xA95 JUMP JUMPDEST SWAP1 POP SWAP2 SWAP1 POP JUMP JUMPDEST PUSH32 0x4E487B7100000000000000000000000000000000000000000000000000000000 PUSH0 MSTORE PUSH1 0x32 PUSH1 0x4 MSTORE PUSH1 0x24 PUSH0 REVERT JUMPDEST PUSH32 0x4E487B7100000000000000000000000000000000000000000000000000000000 PUSH0 MSTORE PUSH1 0x41 PUSH1 0x4 MSTORE PUSH1 0x24 PUSH0 REVERT JUMPDEST PUSH32 0x7472616E73666572206661696C65640000000000000000000000000000000000 PUSH0 DUP3 ADD MSTORE POP JUMP JUMPDEST PUSH0 PUSH2 0xB63 PUSH1 0xF DUP4 PUSH2 0x995 JUMP JUMPDEST SWAP2 POP PUSH2 0xB6E DUP3 PUSH2 0xB2F JUMP JUMPDEST PUSH1 0x20 DUP3 ADD SWAP1 POP SWAP2 SWAP1 POP JUMP JUMPDEST PUSH0 PUSH1 0x20 DUP3 ADD SWAP1 POP DUP2 DUP2 SUB PUSH0 DUP4 ADD MSTORE PUSH2 0xB90 DUP2 PUSH2 0xB57 JUMP JUMPDEST SWAP1 POP SWAP2 SWAP1 POP JUMP JUMPDEST PUSH0 DUP2 SWAP1 POP SWAP3 SWAP2 POP POP JUMP JUMPDEST POP JUMP JUMPDEST PUSH0 PUSH2 0xBAF PUSH0 DUP4 PUSH2 0xB97 JUMP JUMPDEST SWAP2 POP PUSH2 0xBBA DUP3 PUSH2 0xBA1 JUMP JUMPDEST PUSH0 DUP3 ADD SWAP1 POP SWAP2 SWAP1 POP JUMP JUMPDEST PUSH0 PUSH2 0xBCE DUP3 PUSH2 0xBA4 JUMP JUMPDEST SWAP2 POP DUP2 SWAP1 POP SWAP2 SWAP1 POP JUMP JUMPDEST PUSH0 PUSH2 0xBE2 DUP3 PUSH2 0x8E7 JUMP JUMPDEST SWAP2 POP PUSH2 0xBED DUP4 PUSH2 0x8E7 JUMP JUMPDEST SWAP3 POP DUP3 DUP3 MUL PUSH2 0xBFB DUP2 PUSH2 0x8E7 JUMP JUMPDEST SWAP2 POP DUP3 DUP3 DIV DUP5 EQ DUP4 ISZERO OR PUSH2 0xC12 JUMPI PUSH2 0xC11 PUSH2 0xA0D JUMP JUMPDEST JUMPDEST POP SWAP3 SWAP2 POP POP JUMP JUMPDEST PUSH32 0x4E487B7100000000000000000000000000000000000000000000000000000000 PUSH0 MSTORE PUSH1 0x12 PUSH1 0x4 MSTORE PUSH1 0x24 PUSH0 REVERT JUMPDEST PUSH0 PUSH2 0xC50 DUP3 PUSH2 0x8E7 JUMP JUMPDEST SWAP2 POP PUSH2 0xC5B DUP4 PUSH2 0x8E7 JUMP JUMPDEST SWAP3 POP DUP3 PUSH2 0xC6B JUMPI PUSH2 0xC6A PUSH2 0xC19 JUMP JUMPDEST JUMPDEST DUP3 DUP3 DIV SWAP1 POP SWAP3 SWAP2 POP POP JUMP JUMPDEST PUSH0 PUSH10 0xFFFFFFFFFFFFFFFFFFFF DUP3 AND SWAP1 POP SWAP2 SWAP1 POP JUMP JUMPDEST PUSH2 0xC94 DUP2 PUSH2 0xC76 JUMP JUMPDEST DUP2 EQ PUSH2 0xC9E JUMPI PUSH0 PUSH0 REVERT JUMPDEST POP JUMP JUMPDEST PUSH0 DUP2 MLOAD SWAP1 POP PUSH2 0xCAF DUP2 PUSH2 0xC8B JUMP JUMPDEST SWAP3 SWAP2 POP POP JUMP JUMPDEST PUSH0 DUP2 SWAP1 POP SWAP2 SWAP1 POP JUMP JUMPDEST PUSH2 0xCC7 DUP2 PUSH2 0xCB5 JUMP JUMPDEST DUP2 EQ PUSH2 0xCD1 JUMPI PUSH0 PUSH0 REVERT JUMPDEST POP JUMP JUMPDEST PUSH0 DUP2 MLOAD SWAP1 POP PUSH2 0xCE2 DUP2 PUSH2 0xCBE JUMP JUMPDEST SWAP3 SWAP2 POP POP JUMP JUMPDEST PUSH0 DUP2 MLOAD SWAP1 POP PUSH2 0xCF6 DUP2 PUSH2 0x940 JUMP JUMPDEST SWAP3 SWAP2 POP POP JUMP JUMPDEST PUSH0 PUSH0 PUSH0 PUSH0 PUSH0 PUSH1 0xA0 DUP7 DUP9 SUB SLT ISZERO PUSH2 0xD15 JUMPI PUSH2 0xD14 PUSH2 0x85E JUMP JUMPDEST JUMPDEST PUSH0 PUSH2 0xD22 DUP9 DUP3 DUP10 ADD PUSH2 0xCA1 JUMP JUMPDEST SWAP6 POP POP PUSH1 0x20 PUSH2 0xD33 DUP9 DUP3 DUP10 ADD PUSH2 0xCD4 JUMP JUMPDEST SWAP5 POP POP PUSH1 0x40 PUSH2 0xD44 DUP9 DUP3 DUP10 ADD PUSH2 0xCE8 JUMP JUMPDEST SWAP4 POP POP PUSH1 0x60 PUSH2 0xD55 DUP9 DUP3 DUP10 ADD PUSH2 0xCE8 JUMP JUMPDEST SWAP3 POP POP PUSH1 0x80 PUSH2 0xD66 DUP9 DUP3 DUP10 ADD PUSH2 0xCA1 JUMP JUMPDEST SWAP2 POP POP SWAP3 SWAP6 POP SWAP3 SWAP6 SWAP1 SWAP4 POP JUMP JUMPDEST PUSH0 PUSH2 0xD7D DUP3 PUSH2 0xCB5 JUMP JUMPDEST SWAP2 POP PUSH2 0xD88 DUP4 PUSH2 0xCB5 JUMP JUMPDEST SWAP3 POP DUP3 DUP3 MUL PUSH2 0xD96 DUP2 PUSH2 0xCB5 JUMP JUMPDEST SWAP2 POP PUSH32 0x8000000000000000000000000000000000000000000000000000000000000000 DUP5 EQ PUSH0 DUP5 SLT AND ISZERO PUSH2 0xDCD JUMPI PUSH2 0xDCC PUSH2 0xA0D JUMP JUMPDEST JUMPDEST DUP3 DUP3 SDIV DUP5 EQ DUP4 ISZERO OR PUSH2 0xDE2 JUMPI PUSH2 0xDE1 PUSH2 0xA0D JUMP JUMPDEST JUMPDEST POP SWAP3 SWAP2 POP POP JUMP INVALID LOG2 PUSH5 0x6970667358 0x22 SLT KECCAK256 TSTORE DUP16 ADDRESS 0x1E DIV PUSH25 0xDFCFABE8DB5FAD5FFB55190CF0F0F0B973073A0705A6AEA800 0xBA PUSH5 0x736F6C6343 STOP ADDMOD 0x1E STOP CALLER "
				},
				"gasEstimates": {
					"creation": {
						"codeDepositCost": "723000",
						"executionCost": "infinite",
						"totalCost": "infinite"
					},
					"external": {
						"": "infinite",
						"MINIMUM_USD()": "347",
						"addressToAmountFunded(address)": "2802",
						"funders(uint256)": "5031",
						"fundme()": "infinite",
						"i_owner()": "infinite",
						"withdraw()": "infinite"
					}
				},
				"methodIdentifiers": {
					"MINIMUM_USD()": "6b69a592",
					"addressToAmountFunded(address)": "3e47d6f3",
					"funders(uint256)": "dc0d3dff",
					"fundme()": "d1d9165d",
					"i_owner()": "dba6335f",
					"withdraw()": "3ccfd60b"
				}
			},
			"storageLayout": {
				"storage": [
					{
						"astId": 71,
						"contract": "fundme/fundme.sol:Fundme",
						"label": "funders",
						"offset": 0,
						"slot": "0",
						"type": "t_array(t_address)dyn_storage"
					},
					{
						"astId": 75,
						"contract": "fundme/fundme.sol:Fundme",
						"label": "addressToAmountFunded",
						"offset": 0,
						"slot": "1",
						"type": "t_mapping(t_address,t_uint256)"
					}
				],
				"types": {
					"t_address": {
						"encoding": "inplace",
						"label": "address",
						"numberOfBytes": "20"
					},
					"t_array(t_address)dyn_storage": {
						"base": "t_address",
						"encoding": "dynamic_array",
						"label": "address[]",
						"numberOfBytes": "32"
					},
					"t_mapping(t_address,t_uint256)": {
						"encoding": "mapping",
						"key": "t_address",
						"label": "mapping(address => uint256)",
						"numberOfBytes": "32",
						"value": "t_uint256"
					},
					"t_uint256": {
						"encoding": "inplace",
						"label": "uint256",
						"numberOfBytes": "32"
					}
				}
			},
			"userdoc": {
				"kind": "user",
				"methods": {},
				"version": 1
			}
		}
	}
}