{
	"crowndfound/raisefund.sol": {
		"RaiseFunds": {
			"abi": [
				{
					"inputs": [
						{
							"internalType": "string",
							"name": "_message",
							"type": "string"
						}
					],
					"name": "IncreaseAmount",
					"type": "error"
				},
				{
					"inputs": [],
					"name": "MINIMUM_USD",
					"outputs": [
						{
							"internalType": "uint256",
							"name": "",
							"type": "uint256"
						}
					],
					"stateMutability": "view",
					"type": "function"
				},
				{
					"inputs": [
						{
							"internalType": "string",
							"name": "_name",
							"type": "string"
						},
						{
							"internalType": "uint256",
							"name": "_goal",
							"type": "uint256"
						},
						{
							"internalType": "uint256",
							"name": "_deadline",
							"type": "uint256"
						}
					],
					"name": "createproject",
					"outputs": [],
					"stateMutability": "nonpayable",
					"type": "function"
				},
				{
					"inputs": [],
					"name": "fundProject",
					"outputs": [],
					"stateMutability": "payable",
					"type": "function"
				},
				{
					"inputs": [
						{
							"internalType": "string",
							"name": "projectname",
							"type": "string"
						}
					],
					"name": "fundRaisingProjects",
					"outputs": [
						{
							"internalType": "string",
							"name": "name",
							"type": "string"
						},
						{
							"internalType": "address payable",
							"name": "owner",
							"type": "address"
						},
						{
							"internalType": "uint256",
							"name": "goal",
							"type": "uint256"
						},
						{
							"internalType": "uint256",
							"name": "deadline",
							"type": "uint256"
						},
						{
							"internalType": "uint256",
							"name": "totalRaised",
							"type": "uint256"
						},
						{
							"internalType": "bool",
							"name": "isActive",
							"type": "bool"
						},
						{
							"internalType": "bool",
							"name": "isCompleted",
							"type": "bool"
						},
						{
							"internalType": "bool",
							"name": "isRefunded",
							"type": "bool"
						}
					],
					"stateMutability": "view",
					"type": "function"
				}
			],
			"devdoc": {
				"kind": "dev",
				"methods": {},
				"version": 1
			},
			"evm": {
				"assembly": "    /* \"crowndfound/raisefund.sol\":359:2864  contract RaiseFunds {... */\n  mstore(0x40, 0x80)\n  callvalue\n  dup1\n  iszero\n  tag_1\n  jumpi\n  revert(0x00, 0x00)\ntag_1:\n  pop\n  dataSize(sub_0)\n  dup1\n  dataOffset(sub_0)\n  0x00\n  codecopy\n  0x00\n  return\nstop\n\nsub_0: assembly {\n        /* \"crowndfound/raisefund.sol\":359:2864  contract RaiseFunds {... */\n      mstore(0x40, 0x80)\n      jumpi(tag_1, lt(calldatasize, 0x04))\n      shr(0xe0, calldataload(0x00))\n      dup1\n      0x5854dd21\n      eq\n      tag_2\n      jumpi\n      dup1\n      0x6598c03e\n      eq\n      tag_3\n      jumpi\n      dup1\n      0x6b69a592\n      eq\n      tag_4\n      jumpi\n      dup1\n      0xd63dc661\n      eq\n      tag_5\n      jumpi\n    tag_1:\n      revert(0x00, 0x00)\n        /* \"crowndfound/raisefund.sol\":639:713  mapping (string projectname => Fund_Raise_Info) public fundRaisingProjects */\n    tag_2:\n      callvalue\n      dup1\n      iszero\n      tag_6\n      jumpi\n      revert(0x00, 0x00)\n    tag_6:\n      pop\n      tag_7\n      0x04\n      dup1\n      calldatasize\n      sub\n      dup2\n      add\n      swap1\n      tag_8\n      swap2\n      swap1\n      tag_9\n      jump\t// in\n    tag_8:\n      tag_10\n      jump\t// in\n    tag_7:\n      mload(0x40)\n      tag_11\n      swap9\n      swap8\n      swap7\n      swap6\n      swap5\n      swap4\n      swap3\n      swap2\n      swap1\n      tag_12\n      jump\t// in\n    tag_11:\n      mload(0x40)\n      dup1\n      swap2\n      sub\n      swap1\n      return\n        /* \"crowndfound/raisefund.sol\":1592:2364  function createproject(string calldata _name, uint256 _goal, uint256 _deadline) public {... */\n    tag_3:\n      callvalue\n      dup1\n      iszero\n      tag_13\n      jumpi\n      revert(0x00, 0x00)\n    tag_13:\n      pop\n      tag_14\n      0x04\n      dup1\n      calldatasize\n      sub\n      dup2\n      add\n      swap1\n      tag_15\n      swap2\n      swap1\n      tag_16\n      jump\t// in\n    tag_15:\n      tag_17\n      jump\t// in\n    tag_14:\n      stop\n        /* \"crowndfound/raisefund.sol\":532:574  uint256 public constant MINIMUM_USD = 5e18 */\n    tag_4:\n      callvalue\n      dup1\n      iszero\n      tag_18\n      jumpi\n      revert(0x00, 0x00)\n    tag_18:\n      pop\n      tag_19\n      tag_20\n      jump\t// in\n    tag_19:\n      mload(0x40)\n      tag_21\n      swap2\n      swap1\n      tag_22\n      jump\t// in\n    tag_21:\n      mload(0x40)\n      dup1\n      swap2\n      sub\n      swap1\n      return\n        /* \"crowndfound/raisefund.sol\":2404:2862  function fundProject() public payable {... */\n    tag_5:\n      tag_23\n      tag_24\n      jump\t// in\n    tag_23:\n      stop\n        /* \"crowndfound/raisefund.sol\":639:713  mapping (string projectname => Fund_Raise_Info) public fundRaisingProjects */\n    tag_10:\n      0x00\n      dup2\n      dup1\n      mload\n      0x20\n      dup2\n      add\n      dup3\n      add\n      dup1\n      mload\n      dup5\n      dup3\n      mstore\n      0x20\n      dup4\n      add\n      0x20\n      dup6\n      add\n      keccak256\n      dup2\n      dup4\n      mstore\n      dup1\n      swap6\n      pop\n      pop\n      pop\n      pop\n      pop\n      pop\n      0x00\n      swap2\n      pop\n      swap1\n      pop\n      dup1\n      0x00\n      add\n      dup1\n      sload\n      tag_25\n      swap1\n      tag_26\n      jump\t// in\n    tag_25:\n      dup1\n      0x1f\n      add\n      0x20\n      dup1\n      swap2\n      div\n      mul\n      0x20\n      add\n      mload(0x40)\n      swap1\n      dup2\n      add\n      0x40\n      mstore\n      dup1\n      swap3\n      swap2\n      swap1\n      dup2\n      dup2\n      mstore\n      0x20\n      add\n      dup3\n      dup1\n      sload\n      tag_27\n      swap1\n      tag_26\n      jump\t// in\n    tag_27:\n      dup1\n      iszero\n      tag_28\n      jumpi\n      dup1\n      0x1f\n      lt\n      tag_29\n      jumpi\n      0x0100\n      dup1\n      dup4\n      sload\n      div\n      mul\n      dup4\n      mstore\n      swap2\n      0x20\n      add\n      swap2\n      jump(tag_28)\n    tag_29:\n      dup3\n      add\n      swap2\n      swap1\n      0x00\n      mstore\n      keccak256(0x00, 0x20)\n      swap1\n    tag_30:\n      dup2\n      sload\n      dup2\n      mstore\n      swap1\n      0x01\n      add\n      swap1\n      0x20\n      add\n      dup1\n      dup4\n      gt\n      tag_30\n      jumpi\n      dup3\n      swap1\n      sub\n      0x1f\n      and\n      dup3\n      add\n      swap2\n    tag_28:\n      pop\n      pop\n      pop\n      pop\n      pop\n      swap1\n      dup1\n      0x01\n      add\n      0x00\n      swap1\n      sload\n      swap1\n      0x0100\n      exp\n      swap1\n      div\n      0xffffffffffffffffffffffffffffffffffffffff\n      and\n      swap1\n      dup1\n      0x02\n      add\n      sload\n      swap1\n      dup1\n      0x03\n      add\n      sload\n      swap1\n      dup1\n      0x04\n      add\n      sload\n      swap1\n      dup1\n      0x06\n      add\n      0x00\n      swap1\n      sload\n      swap1\n      0x0100\n      exp\n      swap1\n      div\n      0xff\n      and\n      swap1\n      dup1\n      0x06\n      add\n      0x01\n      swap1\n      sload\n      swap1\n      0x0100\n      exp\n      swap1\n      div\n      0xff\n      and\n      swap1\n      dup1\n      0x06\n      add\n      0x02\n      swap1\n      sload\n      swap1\n      0x0100\n      exp\n      swap1\n      div\n      0xff\n      and\n      swap1\n      pop\n      dup9\n      jump\t// out\n        /* \"crowndfound/raisefund.sol\":1592:2364  function createproject(string calldata _name, uint256 _goal, uint256 _deadline) public {... */\n    tag_17:\n        /* \"crowndfound/raisefund.sol\":1738:1769  Fund_Raise_Info storage project */\n      0x00\n        /* \"crowndfound/raisefund.sol\":1772:1791  fundRaisingProjects */\n      0x00\n        /* \"crowndfound/raisefund.sol\":1792:1797  _name */\n      dup6\n      dup6\n        /* \"crowndfound/raisefund.sol\":1772:1798  fundRaisingProjects[_name] */\n      mload(0x40)\n      tag_32\n      swap3\n      swap2\n      swap1\n      tag_33\n      jump\t// in\n    tag_32:\n      swap1\n      dup2\n      mstore\n      0x20\n      add\n      mload(0x40)\n      dup1\n      swap2\n      sub\n      swap1\n      keccak256\n        /* \"crowndfound/raisefund.sol\":1738:1798  Fund_Raise_Info storage project = fundRaisingProjects[_name] */\n      swap1\n      pop\n        /* \"crowndfound/raisefund.sol\":1862:1867  _name */\n      dup5\n      dup5\n        /* \"crowndfound/raisefund.sol\":1847:1854  project */\n      dup3\n        /* \"crowndfound/raisefund.sol\":1847:1859  project.name */\n      0x00\n      add\n        /* \"crowndfound/raisefund.sol\":1847:1867  project.name = _name */\n      swap2\n      dup3\n      tag_34\n      swap3\n      swap2\n      swap1\n      tag_35\n      jump\t// in\n    tag_34:\n      pop\n        /* \"crowndfound/raisefund.sol\":1901:1911  msg.sender */\n      caller\n        /* \"crowndfound/raisefund.sol\":1877:1884  project */\n      dup2\n        /* \"crowndfound/raisefund.sol\":1877:1890  project.owner */\n      0x01\n      add\n      0x00\n        /* \"crowndfound/raisefund.sol\":1877:1912  project.owner = payable(msg.sender) */\n      0x0100\n      exp\n      dup2\n      sload\n      dup2\n      0xffffffffffffffffffffffffffffffffffffffff\n      mul\n      not\n      and\n      swap1\n      dup4\n      0xffffffffffffffffffffffffffffffffffffffff\n      and\n      mul\n      or\n      swap1\n      sstore\n      pop\n        /* \"crowndfound/raisefund.sol\":1937:1942  _goal */\n      dup3\n        /* \"crowndfound/raisefund.sol\":1922:1929  project */\n      dup2\n        /* \"crowndfound/raisefund.sol\":1922:1934  project.goal */\n      0x02\n      add\n        /* \"crowndfound/raisefund.sol\":1922:1942  project.goal = _goal */\n      dup2\n      swap1\n      sstore\n      pop\n        /* \"crowndfound/raisefund.sol\":1989:1998  _deadline */\n      dup2\n        /* \"crowndfound/raisefund.sol\":1971:1986  block.timestamp */\n      timestamp\n        /* \"crowndfound/raisefund.sol\":1971:1998  block.timestamp + _deadline */\n      tag_36\n      swap2\n      swap1\n      tag_37\n      jump\t// in\n    tag_36:\n        /* \"crowndfound/raisefund.sol\":1952:1959  project */\n      dup2\n        /* \"crowndfound/raisefund.sol\":1952:1968  project.deadline */\n      0x03\n      add\n        /* \"crowndfound/raisefund.sol\":1952:1998  project.deadline = block.timestamp + _deadline */\n      dup2\n      swap1\n      sstore\n      pop\n        /* \"crowndfound/raisefund.sol\":2027:2031  true */\n      0x01\n        /* \"crowndfound/raisefund.sol\":2008:2015  project */\n      dup2\n        /* \"crowndfound/raisefund.sol\":2008:2024  project.isActive */\n      0x06\n      add\n      0x00\n        /* \"crowndfound/raisefund.sol\":2008:2031  project.isActive = true */\n      0x0100\n      exp\n      dup2\n      sload\n      dup2\n      0xff\n      mul\n      not\n      and\n      swap1\n      dup4\n      iszero\n      iszero\n      mul\n      or\n      swap1\n      sstore\n      pop\n        /* \"crowndfound/raisefund.sol\":2063:2068  false */\n      0x00\n        /* \"crowndfound/raisefund.sol\":2041:2048  project */\n      dup2\n        /* \"crowndfound/raisefund.sol\":2041:2060  project.isCompleted */\n      0x06\n      add\n      0x01\n        /* \"crowndfound/raisefund.sol\":2041:2068  project.isCompleted = false */\n      0x0100\n      exp\n      dup2\n      sload\n      dup2\n      0xff\n      mul\n      not\n      and\n      swap1\n      dup4\n      iszero\n      iszero\n      mul\n      or\n      swap1\n      sstore\n      pop\n        /* \"crowndfound/raisefund.sol\":2099:2104  false */\n      0x00\n        /* \"crowndfound/raisefund.sol\":2078:2085  project */\n      dup2\n        /* \"crowndfound/raisefund.sol\":2078:2096  project.isRefunded */\n      0x06\n      add\n      0x02\n        /* \"crowndfound/raisefund.sol\":2078:2104  project.isRefunded = false */\n      0x0100\n      exp\n      dup2\n      sload\n      dup2\n      0xff\n      mul\n      not\n      and\n      swap1\n      dup4\n      iszero\n      iszero\n      mul\n      or\n      swap1\n      sstore\n      pop\n        /* \"crowndfound/raisefund.sol\":2182:2203  funders memory funder */\n      0x00\n        /* \"crowndfound/raisefund.sol\":2206:2246  funders({funder: msg.sender, amount: 0}) */\n      mload(0x40)\n      dup1\n      0x40\n      add\n      0x40\n      mstore\n      dup1\n        /* \"crowndfound/raisefund.sol\":2223:2233  msg.sender */\n      caller\n        /* \"crowndfound/raisefund.sol\":2206:2246  funders({funder: msg.sender, amount: 0}) */\n      0xffffffffffffffffffffffffffffffffffffffff\n      and\n      dup2\n      mstore\n      0x20\n      add\n        /* \"crowndfound/raisefund.sol\":2243:2244  0 */\n      0x00\n        /* \"crowndfound/raisefund.sol\":2206:2246  funders({funder: msg.sender, amount: 0}) */\n      dup2\n      mstore\n      pop\n        /* \"crowndfound/raisefund.sol\":2182:2246  funders memory funder = funders({funder: msg.sender, amount: 0}) */\n      swap1\n      pop\n        /* \"crowndfound/raisefund.sol\":2256:2263  project */\n      dup2\n        /* \"crowndfound/raisefund.sol\":2256:2270  project.funder */\n      0x05\n      add\n        /* \"crowndfound/raisefund.sol\":2276:2282  funder */\n      dup2\n        /* \"crowndfound/raisefund.sol\":2256:2283  project.funder.push(funder) */\n      swap1\n      dup1\n      0x01\n      dup2\n      sload\n      add\n      dup1\n      dup3\n      sstore\n      dup1\n      swap2\n      pop\n      pop\n      0x01\n      swap1\n      sub\n      swap1\n      0x00\n      mstore\n      keccak256(0x00, 0x20)\n      swap1\n      0x02\n      mul\n      add\n      0x00\n      swap1\n      swap2\n      swap1\n      swap2\n      swap1\n      swap2\n      pop\n      0x00\n      dup3\n      add\n      mload\n      dup2\n      0x00\n      add\n      exp(0x0100, 0x00)\n      dup2\n      sload\n      dup2\n      0xffffffffffffffffffffffffffffffffffffffff\n      mul\n      not\n      and\n      swap1\n      dup4\n      0xffffffffffffffffffffffffffffffffffffffff\n      and\n      mul\n      or\n      swap1\n      sstore\n      pop\n      0x20\n      dup3\n      add\n      mload\n      dup2\n      0x01\n      add\n      sstore\n      pop\n      pop\n        /* \"crowndfound/raisefund.sol\":2356:2357  0 */\n      0x00\n        /* \"crowndfound/raisefund.sol\":2334:2341  project */\n      dup3\n        /* \"crowndfound/raisefund.sol\":2334:2353  project.totalRaised */\n      0x04\n      add\n        /* \"crowndfound/raisefund.sol\":2334:2357  project.totalRaised = 0 */\n      dup2\n      swap1\n      sstore\n      pop\n        /* \"crowndfound/raisefund.sol\":1679:2364  {... */\n      pop\n      pop\n        /* \"crowndfound/raisefund.sol\":1592:2364  function createproject(string calldata _name, uint256 _goal, uint256 _deadline) public {... */\n      pop\n      pop\n      pop\n      pop\n      jump\t// out\n        /* \"crowndfound/raisefund.sol\":532:574  uint256 public constant MINIMUM_USD = 5e18 */\n    tag_20:\n        /* \"crowndfound/raisefund.sol\":570:574  5e18 */\n      0x4563918244f40000\n        /* \"crowndfound/raisefund.sol\":532:574  uint256 public constant MINIMUM_USD = 5e18 */\n      dup2\n      jump\t// out\n        /* \"crowndfound/raisefund.sol\":2404:2862  function fundProject() public payable {... */\n    tag_24:\n        /* \"crowndfound/raisefund.sol\":570:574  5e18 */\n      0x4563918244f40000\n        /* \"crowndfound/raisefund.sol\":2515:2539  msg.value.converterUSD() */\n      tag_40\n        /* \"crowndfound/raisefund.sol\":2515:2524  msg.value */\n      callvalue\n        /* \"crowndfound/raisefund.sol\":2515:2537  msg.value.converterUSD */\n      tag_41\n        /* \"crowndfound/raisefund.sol\":2515:2539  msg.value.converterUSD() */\n      jump\t// in\n    tag_40:\n        /* \"crowndfound/raisefund.sol\":2515:2553  msg.value.converterUSD() < MINIMUM_USD */\n      lt\n        /* \"crowndfound/raisefund.sol\":2511:2642  if (msg.value.converterUSD() < MINIMUM_USD) {... */\n      iszero\n      tag_42\n      jumpi\n        /* \"crowndfound/raisefund.sol\":2576:2631  IncreaseAmount('Sent ETH is below minimum requirement') */\n      mload(0x40)\n      0x35dcd67800000000000000000000000000000000000000000000000000000000\n      dup2\n      mstore\n      0x04\n      add\n      tag_43\n      swap1\n      tag_44\n      jump\t// in\n    tag_43:\n      mload(0x40)\n      dup1\n      swap2\n      sub\n      swap1\n      revert\n        /* \"crowndfound/raisefund.sol\":2511:2642  if (msg.value.converterUSD() < MINIMUM_USD) {... */\n    tag_42:\n        /* \"crowndfound/raisefund.sol\":2404:2862  function fundProject() public payable {... */\n      jump\t// out\n        /* \"crowndfound/lib.sol\":449:624  function converterUSD( uint256 _ethamount)internal view returns(uint256){... */\n    tag_41:\n        /* \"crowndfound/lib.sol\":513:520  uint256 */\n      0x00\n        /* \"crowndfound/lib.sol\":524:537  uint256 price */\n      0x00\n        /* \"crowndfound/lib.sol\":540:556  getEthPriceUSD() */\n      tag_46\n        /* \"crowndfound/lib.sol\":540:554  getEthPriceUSD */\n      tag_47\n        /* \"crowndfound/lib.sol\":540:556  getEthPriceUSD() */\n      jump\t// in\n    tag_46:\n        /* \"crowndfound/lib.sol\":524:556  uint256 price = getEthPriceUSD() */\n      swap1\n      pop\n        /* \"crowndfound/lib.sol\":560:575  uint256 convert */\n      0x00\n        /* \"crowndfound/lib.sol\":599:603  1e18 */\n      0x0de0b6b3a7640000\n        /* \"crowndfound/lib.sol\":587:597  _ethamount */\n      dup5\n        /* \"crowndfound/lib.sol\":579:584  price */\n      dup4\n        /* \"crowndfound/lib.sol\":579:597  price * _ethamount */\n      tag_48\n      swap2\n      swap1\n      tag_49\n      jump\t// in\n    tag_48:\n        /* \"crowndfound/lib.sol\":578:603  (price * _ethamount)/1e18 */\n      tag_50\n      swap2\n      swap1\n      tag_51\n      jump\t// in\n    tag_50:\n        /* \"crowndfound/lib.sol\":560:603  uint256 convert = (price * _ethamount)/1e18 */\n      swap1\n      pop\n        /* \"crowndfound/lib.sol\":614:621  convert */\n      dup1\n        /* \"crowndfound/lib.sol\":607:621  return convert */\n      swap3\n      pop\n      pop\n      pop\n        /* \"crowndfound/lib.sol\":449:624  function converterUSD( uint256 _ethamount)internal view returns(uint256){... */\n      swap2\n      swap1\n      pop\n      jump\t// out\n        /* \"crowndfound/lib.sol\":200:446  function getEthPriceUSD() internal view returns(uint256){... */\n    tag_47:\n        /* \"crowndfound/lib.sol\":248:255  uint256 */\n      0x00\n        /* \"crowndfound/lib.sol\":259:291  AggregatorV3Interface price_data */\n      0x00\n        /* \"crowndfound/lib.sol\":316:358  0x694AA1769357215DE4FAC081bf1f309aDC325306 */\n      0x694aa1769357215de4fac081bf1f309adc325306\n        /* \"crowndfound/lib.sol\":259:359  AggregatorV3Interface price_data = AggregatorV3Interface(0x694AA1769357215DE4FAC081bf1f309aDC325306) */\n      swap1\n      pop\n        /* \"crowndfound/lib.sol\":364:376  int256 price */\n      0x00\n        /* \"crowndfound/lib.sol\":383:393  price_data */\n      dup2\n        /* \"crowndfound/lib.sol\":383:409  price_data.latestRoundData */\n      0xffffffffffffffffffffffffffffffffffffffff\n      and\n      0xfeaf968c\n        /* \"crowndfound/lib.sol\":383:411  price_data.latestRoundData() */\n      mload(0x40)\n      dup2\n      0xffffffff\n      and\n      0xe0\n      shl\n      dup2\n      mstore\n      0x04\n      add\n      0xa0\n      mload(0x40)\n      dup1\n      dup4\n      sub\n      dup2\n      dup7\n      gas\n      staticcall\n      iszero\n      dup1\n      iszero\n      tag_54\n      jumpi\n      returndatacopy(0x00, 0x00, returndatasize)\n      revert(0x00, returndatasize)\n    tag_54:\n      pop\n      pop\n      pop\n      pop\n      mload(0x40)\n      returndatasize\n      not(0x1f)\n      0x1f\n      dup3\n      add\n      and\n      dup3\n      add\n      dup1\n      0x40\n      mstore\n      pop\n      dup2\n      add\n      swap1\n      tag_55\n      swap2\n      swap1\n      tag_56\n      jump\t// in\n    tag_55:\n        /* \"crowndfound/lib.sol\":362:411  (,int256 price,,,) = price_data.latestRoundData() */\n      pop\n      pop\n      pop\n      swap2\n      pop\n      pop\n        /* \"crowndfound/lib.sol\":438:442  1e10 */\n      0x02540be400\n        /* \"crowndfound/lib.sol\":429:434  price */\n      dup2\n        /* \"crowndfound/lib.sol\":421:442  uint256(price )* 1e10 */\n      tag_57\n      swap2\n      swap1\n      tag_49\n      jump\t// in\n    tag_57:\n        /* \"crowndfound/lib.sol\":414:442  return uint256(price )* 1e10 */\n      swap3\n      pop\n      pop\n      pop\n        /* \"crowndfound/lib.sol\":200:446  function getEthPriceUSD() internal view returns(uint256){... */\n      swap1\n      jump\t// out\n        /* \"#utility.yul\":7:82   */\n    tag_58:\n        /* \"#utility.yul\":40:46   */\n      0x00\n        /* \"#utility.yul\":73:75   */\n      0x40\n        /* \"#utility.yul\":67:76   */\n      mload\n        /* \"#utility.yul\":57:76   */\n      swap1\n      pop\n        /* \"#utility.yul\":7:82   */\n      swap1\n      jump\t// out\n        /* \"#utility.yul\":88:205   */\n    tag_59:\n        /* \"#utility.yul\":197:198   */\n      0x00\n        /* \"#utility.yul\":194:195   */\n      0x00\n        /* \"#utility.yul\":187:199   */\n      revert\n        /* \"#utility.yul\":211:328   */\n    tag_60:\n        /* \"#utility.yul\":320:321   */\n      0x00\n        /* \"#utility.yul\":317:318   */\n      0x00\n        /* \"#utility.yul\":310:322   */\n      revert\n        /* \"#utility.yul\":334:451   */\n    tag_61:\n        /* \"#utility.yul\":443:444   */\n      0x00\n        /* \"#utility.yul\":440:441   */\n      0x00\n        /* \"#utility.yul\":433:445   */\n      revert\n        /* \"#utility.yul\":457:574   */\n    tag_62:\n        /* \"#utility.yul\":566:567   */\n      0x00\n        /* \"#utility.yul\":563:564   */\n      0x00\n        /* \"#utility.yul\":556:568   */\n      revert\n        /* \"#utility.yul\":580:682   */\n    tag_63:\n        /* \"#utility.yul\":621:627   */\n      0x00\n        /* \"#utility.yul\":672:674   */\n      0x1f\n        /* \"#utility.yul\":668:675   */\n      not\n        /* \"#utility.yul\":663:665   */\n      0x1f\n        /* \"#utility.yul\":656:661   */\n      dup4\n        /* \"#utility.yul\":652:666   */\n      add\n        /* \"#utility.yul\":648:676   */\n      and\n        /* \"#utility.yul\":638:676   */\n      swap1\n      pop\n        /* \"#utility.yul\":580:682   */\n      swap2\n      swap1\n      pop\n      jump\t// out\n        /* \"#utility.yul\":688:868   */\n    tag_64:\n        /* \"#utility.yul\":736:813   */\n      0x4e487b7100000000000000000000000000000000000000000000000000000000\n        /* \"#utility.yul\":733:734   */\n      0x00\n        /* \"#utility.yul\":726:814   */\n      mstore\n        /* \"#utility.yul\":833:837   */\n      0x41\n        /* \"#utility.yul\":830:831   */\n      0x04\n        /* \"#utility.yul\":823:838   */\n      mstore\n        /* \"#utility.yul\":857:861   */\n      0x24\n        /* \"#utility.yul\":854:855   */\n      0x00\n        /* \"#utility.yul\":847:862   */\n      revert\n        /* \"#utility.yul\":874:1155   */\n    tag_65:\n        /* \"#utility.yul\":957:984   */\n      tag_126\n        /* \"#utility.yul\":979:983   */\n      dup3\n        /* \"#utility.yul\":957:984   */\n      tag_63\n      jump\t// in\n    tag_126:\n        /* \"#utility.yul\":949:955   */\n      dup2\n        /* \"#utility.yul\":945:985   */\n      add\n        /* \"#utility.yul\":1087:1093   */\n      dup2\n        /* \"#utility.yul\":1075:1085   */\n      dup2\n        /* \"#utility.yul\":1072:1094   */\n      lt\n        /* \"#utility.yul\":1051:1069   */\n      0xffffffffffffffff\n        /* \"#utility.yul\":1039:1049   */\n      dup3\n        /* \"#utility.yul\":1036:1070   */\n      gt\n        /* \"#utility.yul\":1033:1095   */\n      or\n        /* \"#utility.yul\":1030:1118   */\n      iszero\n      tag_127\n      jumpi\n        /* \"#utility.yul\":1098:1116   */\n      tag_128\n      tag_64\n      jump\t// in\n    tag_128:\n        /* \"#utility.yul\":1030:1118   */\n    tag_127:\n        /* \"#utility.yul\":1138:1148   */\n      dup1\n        /* \"#utility.yul\":1134:1136   */\n      0x40\n        /* \"#utility.yul\":1127:1149   */\n      mstore\n        /* \"#utility.yul\":917:1155   */\n      pop\n        /* \"#utility.yul\":874:1155   */\n      pop\n      pop\n      jump\t// out\n        /* \"#utility.yul\":1161:1290   */\n    tag_66:\n        /* \"#utility.yul\":1195:1201   */\n      0x00\n        /* \"#utility.yul\":1222:1242   */\n      tag_130\n      tag_58\n      jump\t// in\n    tag_130:\n        /* \"#utility.yul\":1212:1242   */\n      swap1\n      pop\n        /* \"#utility.yul\":1251:1284   */\n      tag_131\n        /* \"#utility.yul\":1279:1283   */\n      dup3\n        /* \"#utility.yul\":1271:1277   */\n      dup3\n        /* \"#utility.yul\":1251:1284   */\n      tag_65\n      jump\t// in\n    tag_131:\n        /* \"#utility.yul\":1161:1290   */\n      swap2\n      swap1\n      pop\n      jump\t// out\n        /* \"#utility.yul\":1296:1604   */\n    tag_67:\n        /* \"#utility.yul\":1358:1362   */\n      0x00\n        /* \"#utility.yul\":1448:1466   */\n      0xffffffffffffffff\n        /* \"#utility.yul\":1440:1446   */\n      dup3\n        /* \"#utility.yul\":1437:1467   */\n      gt\n        /* \"#utility.yul\":1434:1490   */\n      iszero\n      tag_133\n      jumpi\n        /* \"#utility.yul\":1470:1488   */\n      tag_134\n      tag_64\n      jump\t// in\n    tag_134:\n        /* \"#utility.yul\":1434:1490   */\n    tag_133:\n        /* \"#utility.yul\":1508:1537   */\n      tag_135\n        /* \"#utility.yul\":1530:1536   */\n      dup3\n        /* \"#utility.yul\":1508:1537   */\n      tag_63\n      jump\t// in\n    tag_135:\n        /* \"#utility.yul\":1500:1537   */\n      swap1\n      pop\n        /* \"#utility.yul\":1592:1596   */\n      0x20\n        /* \"#utility.yul\":1586:1590   */\n      dup2\n        /* \"#utility.yul\":1582:1597   */\n      add\n        /* \"#utility.yul\":1574:1597   */\n      swap1\n      pop\n        /* \"#utility.yul\":1296:1604   */\n      swap2\n      swap1\n      pop\n      jump\t// out\n        /* \"#utility.yul\":1610:1758   */\n    tag_68:\n        /* \"#utility.yul\":1708:1714   */\n      dup3\n        /* \"#utility.yul\":1703:1706   */\n      dup2\n        /* \"#utility.yul\":1698:1701   */\n      dup4\n        /* \"#utility.yul\":1685:1715   */\n      calldatacopy\n        /* \"#utility.yul\":1749:1750   */\n      0x00\n        /* \"#utility.yul\":1740:1746   */\n      dup4\n        /* \"#utility.yul\":1735:1738   */\n      dup4\n        /* \"#utility.yul\":1731:1747   */\n      add\n        /* \"#utility.yul\":1724:1751   */\n      mstore\n        /* \"#utility.yul\":1610:1758   */\n      pop\n      pop\n      pop\n      jump\t// out\n        /* \"#utility.yul\":1764:2189   */\n    tag_69:\n        /* \"#utility.yul\":1842:1847   */\n      0x00\n        /* \"#utility.yul\":1867:1933   */\n      tag_138\n        /* \"#utility.yul\":1883:1932   */\n      tag_139\n        /* \"#utility.yul\":1925:1931   */\n      dup5\n        /* \"#utility.yul\":1883:1932   */\n      tag_67\n      jump\t// in\n    tag_139:\n        /* \"#utility.yul\":1867:1933   */\n      tag_66\n      jump\t// in\n    tag_138:\n        /* \"#utility.yul\":1858:1933   */\n      swap1\n      pop\n        /* \"#utility.yul\":1956:1962   */\n      dup3\n        /* \"#utility.yul\":1949:1954   */\n      dup2\n        /* \"#utility.yul\":1942:1963   */\n      mstore\n        /* \"#utility.yul\":1994:1998   */\n      0x20\n        /* \"#utility.yul\":1987:1992   */\n      dup2\n        /* \"#utility.yul\":1983:1999   */\n      add\n        /* \"#utility.yul\":2032:2035   */\n      dup5\n        /* \"#utility.yul\":2023:2029   */\n      dup5\n        /* \"#utility.yul\":2018:2021   */\n      dup5\n        /* \"#utility.yul\":2014:2030   */\n      add\n        /* \"#utility.yul\":2011:2036   */\n      gt\n        /* \"#utility.yul\":2008:2120   */\n      iszero\n      tag_140\n      jumpi\n        /* \"#utility.yul\":2039:2118   */\n      tag_141\n      tag_62\n      jump\t// in\n    tag_141:\n        /* \"#utility.yul\":2008:2120   */\n    tag_140:\n        /* \"#utility.yul\":2129:2183   */\n      tag_142\n        /* \"#utility.yul\":2176:2182   */\n      dup5\n        /* \"#utility.yul\":2171:2174   */\n      dup3\n        /* \"#utility.yul\":2166:2169   */\n      dup6\n        /* \"#utility.yul\":2129:2183   */\n      tag_68\n      jump\t// in\n    tag_142:\n        /* \"#utility.yul\":1848:2189   */\n      pop\n        /* \"#utility.yul\":1764:2189   */\n      swap4\n      swap3\n      pop\n      pop\n      pop\n      jump\t// out\n        /* \"#utility.yul\":2209:2549   */\n    tag_70:\n        /* \"#utility.yul\":2265:2270   */\n      0x00\n        /* \"#utility.yul\":2314:2317   */\n      dup3\n        /* \"#utility.yul\":2307:2311   */\n      0x1f\n        /* \"#utility.yul\":2299:2305   */\n      dup4\n        /* \"#utility.yul\":2295:2312   */\n      add\n        /* \"#utility.yul\":2291:2318   */\n      slt\n        /* \"#utility.yul\":2281:2403   */\n      tag_144\n      jumpi\n        /* \"#utility.yul\":2322:2401   */\n      tag_145\n      tag_61\n      jump\t// in\n    tag_145:\n        /* \"#utility.yul\":2281:2403   */\n    tag_144:\n        /* \"#utility.yul\":2439:2445   */\n      dup2\n        /* \"#utility.yul\":2426:2446   */\n      calldataload\n        /* \"#utility.yul\":2464:2543   */\n      tag_146\n        /* \"#utility.yul\":2539:2542   */\n      dup5\n        /* \"#utility.yul\":2531:2537   */\n      dup3\n        /* \"#utility.yul\":2524:2528   */\n      0x20\n        /* \"#utility.yul\":2516:2522   */\n      dup7\n        /* \"#utility.yul\":2512:2529   */\n      add\n        /* \"#utility.yul\":2464:2543   */\n      tag_69\n      jump\t// in\n    tag_146:\n        /* \"#utility.yul\":2455:2543   */\n      swap2\n      pop\n        /* \"#utility.yul\":2271:2549   */\n      pop\n        /* \"#utility.yul\":2209:2549   */\n      swap3\n      swap2\n      pop\n      pop\n      jump\t// out\n        /* \"#utility.yul\":2555:3064   */\n    tag_9:\n        /* \"#utility.yul\":2624:2630   */\n      0x00\n        /* \"#utility.yul\":2673:2675   */\n      0x20\n        /* \"#utility.yul\":2661:2670   */\n      dup3\n        /* \"#utility.yul\":2652:2659   */\n      dup5\n        /* \"#utility.yul\":2648:2671   */\n      sub\n        /* \"#utility.yul\":2644:2676   */\n      slt\n        /* \"#utility.yul\":2641:2760   */\n      iszero\n      tag_148\n      jumpi\n        /* \"#utility.yul\":2679:2758   */\n      tag_149\n      tag_59\n      jump\t// in\n    tag_149:\n        /* \"#utility.yul\":2641:2760   */\n    tag_148:\n        /* \"#utility.yul\":2827:2828   */\n      0x00\n        /* \"#utility.yul\":2816:2825   */\n      dup3\n        /* \"#utility.yul\":2812:2829   */\n      add\n        /* \"#utility.yul\":2799:2830   */\n      calldataload\n        /* \"#utility.yul\":2857:2875   */\n      0xffffffffffffffff\n        /* \"#utility.yul\":2849:2855   */\n      dup2\n        /* \"#utility.yul\":2846:2876   */\n      gt\n        /* \"#utility.yul\":2843:2960   */\n      iszero\n      tag_150\n      jumpi\n        /* \"#utility.yul\":2879:2958   */\n      tag_151\n      tag_60\n      jump\t// in\n    tag_151:\n        /* \"#utility.yul\":2843:2960   */\n    tag_150:\n        /* \"#utility.yul\":2984:3047   */\n      tag_152\n        /* \"#utility.yul\":3039:3046   */\n      dup5\n        /* \"#utility.yul\":3030:3036   */\n      dup3\n        /* \"#utility.yul\":3019:3028   */\n      dup6\n        /* \"#utility.yul\":3015:3037   */\n      add\n        /* \"#utility.yul\":2984:3047   */\n      tag_70\n      jump\t// in\n    tag_152:\n        /* \"#utility.yul\":2974:3047   */\n      swap2\n      pop\n        /* \"#utility.yul\":2770:3057   */\n      pop\n        /* \"#utility.yul\":2555:3064   */\n      swap3\n      swap2\n      pop\n      pop\n      jump\t// out\n        /* \"#utility.yul\":3070:3169   */\n    tag_71:\n        /* \"#utility.yul\":3122:3128   */\n      0x00\n        /* \"#utility.yul\":3156:3161   */\n      dup2\n        /* \"#utility.yul\":3150:3162   */\n      mload\n        /* \"#utility.yul\":3140:3162   */\n      swap1\n      pop\n        /* \"#utility.yul\":3070:3169   */\n      swap2\n      swap1\n      pop\n      jump\t// out\n        /* \"#utility.yul\":3175:3344   */\n    tag_72:\n        /* \"#utility.yul\":3259:3270   */\n      0x00\n        /* \"#utility.yul\":3293:3299   */\n      dup3\n        /* \"#utility.yul\":3288:3291   */\n      dup3\n        /* \"#utility.yul\":3281:3300   */\n      mstore\n        /* \"#utility.yul\":3333:3337   */\n      0x20\n        /* \"#utility.yul\":3328:3331   */\n      dup3\n        /* \"#utility.yul\":3324:3338   */\n      add\n        /* \"#utility.yul\":3309:3338   */\n      swap1\n      pop\n        /* \"#utility.yul\":3175:3344   */\n      swap3\n      swap2\n      pop\n      pop\n      jump\t// out\n        /* \"#utility.yul\":3350:3489   */\n    tag_73:\n        /* \"#utility.yul\":3439:3445   */\n      dup3\n        /* \"#utility.yul\":3434:3437   */\n      dup2\n        /* \"#utility.yul\":3429:3432   */\n      dup4\n        /* \"#utility.yul\":3423:3446   */\n      mcopy\n        /* \"#utility.yul\":3480:3481   */\n      0x00\n        /* \"#utility.yul\":3471:3477   */\n      dup4\n        /* \"#utility.yul\":3466:3469   */\n      dup4\n        /* \"#utility.yul\":3462:3478   */\n      add\n        /* \"#utility.yul\":3455:3482   */\n      mstore\n        /* \"#utility.yul\":3350:3489   */\n      pop\n      pop\n      pop\n      jump\t// out\n        /* \"#utility.yul\":3495:3872   */\n    tag_74:\n        /* \"#utility.yul\":3583:3586   */\n      0x00\n        /* \"#utility.yul\":3611:3650   */\n      tag_157\n        /* \"#utility.yul\":3644:3649   */\n      dup3\n        /* \"#utility.yul\":3611:3650   */\n      tag_71\n      jump\t// in\n    tag_157:\n        /* \"#utility.yul\":3666:3737   */\n      tag_158\n        /* \"#utility.yul\":3730:3736   */\n      dup2\n        /* \"#utility.yul\":3725:3728   */\n      dup6\n        /* \"#utility.yul\":3666:3737   */\n      tag_72\n      jump\t// in\n    tag_158:\n        /* \"#utility.yul\":3659:3737   */\n      swap4\n      pop\n        /* \"#utility.yul\":3746:3811   */\n      tag_159\n        /* \"#utility.yul\":3804:3810   */\n      dup2\n        /* \"#utility.yul\":3799:3802   */\n      dup6\n        /* \"#utility.yul\":3792:3796   */\n      0x20\n        /* \"#utility.yul\":3785:3790   */\n      dup7\n        /* \"#utility.yul\":3781:3797   */\n      add\n        /* \"#utility.yul\":3746:3811   */\n      tag_73\n      jump\t// in\n    tag_159:\n        /* \"#utility.yul\":3836:3865   */\n      tag_160\n        /* \"#utility.yul\":3858:3864   */\n      dup2\n        /* \"#utility.yul\":3836:3865   */\n      tag_63\n      jump\t// in\n    tag_160:\n        /* \"#utility.yul\":3831:3834   */\n      dup5\n        /* \"#utility.yul\":3827:3866   */\n      add\n        /* \"#utility.yul\":3820:3866   */\n      swap2\n      pop\n        /* \"#utility.yul\":3587:3872   */\n      pop\n        /* \"#utility.yul\":3495:3872   */\n      swap3\n      swap2\n      pop\n      pop\n      jump\t// out\n        /* \"#utility.yul\":3878:4004   */\n    tag_75:\n        /* \"#utility.yul\":3915:3922   */\n      0x00\n        /* \"#utility.yul\":3955:3997   */\n      0xffffffffffffffffffffffffffffffffffffffff\n        /* \"#utility.yul\":3948:3953   */\n      dup3\n        /* \"#utility.yul\":3944:3998   */\n      and\n        /* \"#utility.yul\":3933:3998   */\n      swap1\n      pop\n        /* \"#utility.yul\":3878:4004   */\n      swap2\n      swap1\n      pop\n      jump\t// out\n        /* \"#utility.yul\":4010:4114   */\n    tag_76:\n        /* \"#utility.yul\":4055:4062   */\n      0x00\n        /* \"#utility.yul\":4084:4108   */\n      tag_163\n        /* \"#utility.yul\":4102:4107   */\n      dup3\n        /* \"#utility.yul\":4084:4108   */\n      tag_75\n      jump\t// in\n    tag_163:\n        /* \"#utility.yul\":4073:4108   */\n      swap1\n      pop\n        /* \"#utility.yul\":4010:4114   */\n      swap2\n      swap1\n      pop\n      jump\t// out\n        /* \"#utility.yul\":4120:4262   */\n    tag_77:\n        /* \"#utility.yul\":4223:4255   */\n      tag_165\n        /* \"#utility.yul\":4249:4254   */\n      dup2\n        /* \"#utility.yul\":4223:4255   */\n      tag_76\n      jump\t// in\n    tag_165:\n        /* \"#utility.yul\":4218:4221   */\n      dup3\n        /* \"#utility.yul\":4211:4256   */\n      mstore\n        /* \"#utility.yul\":4120:4262   */\n      pop\n      pop\n      jump\t// out\n        /* \"#utility.yul\":4268:4345   */\n    tag_78:\n        /* \"#utility.yul\":4305:4312   */\n      0x00\n        /* \"#utility.yul\":4334:4339   */\n      dup2\n        /* \"#utility.yul\":4323:4339   */\n      swap1\n      pop\n        /* \"#utility.yul\":4268:4345   */\n      swap2\n      swap1\n      pop\n      jump\t// out\n        /* \"#utility.yul\":4351:4469   */\n    tag_79:\n        /* \"#utility.yul\":4438:4462   */\n      tag_168\n        /* \"#utility.yul\":4456:4461   */\n      dup2\n        /* \"#utility.yul\":4438:4462   */\n      tag_78\n      jump\t// in\n    tag_168:\n        /* \"#utility.yul\":4433:4436   */\n      dup3\n        /* \"#utility.yul\":4426:4463   */\n      mstore\n        /* \"#utility.yul\":4351:4469   */\n      pop\n      pop\n      jump\t// out\n        /* \"#utility.yul\":4475:4565   */\n    tag_80:\n        /* \"#utility.yul\":4509:4516   */\n      0x00\n        /* \"#utility.yul\":4552:4557   */\n      dup2\n        /* \"#utility.yul\":4545:4558   */\n      iszero\n        /* \"#utility.yul\":4538:4559   */\n      iszero\n        /* \"#utility.yul\":4527:4559   */\n      swap1\n      pop\n        /* \"#utility.yul\":4475:4565   */\n      swap2\n      swap1\n      pop\n      jump\t// out\n        /* \"#utility.yul\":4571:4680   */\n    tag_81:\n        /* \"#utility.yul\":4652:4673   */\n      tag_171\n        /* \"#utility.yul\":4667:4672   */\n      dup2\n        /* \"#utility.yul\":4652:4673   */\n      tag_80\n      jump\t// in\n    tag_171:\n        /* \"#utility.yul\":4647:4650   */\n      dup3\n        /* \"#utility.yul\":4640:4674   */\n      mstore\n        /* \"#utility.yul\":4571:4680   */\n      pop\n      pop\n      jump\t// out\n        /* \"#utility.yul\":4686:5770   */\n    tag_12:\n        /* \"#utility.yul\":4993:4997   */\n      0x00\n        /* \"#utility.yul\":5031:5034   */\n      0x0100\n        /* \"#utility.yul\":5020:5029   */\n      dup3\n        /* \"#utility.yul\":5016:5035   */\n      add\n        /* \"#utility.yul\":5008:5035   */\n      swap1\n      pop\n        /* \"#utility.yul\":5081:5090   */\n      dup2\n        /* \"#utility.yul\":5075:5079   */\n      dup2\n        /* \"#utility.yul\":5071:5091   */\n      sub\n        /* \"#utility.yul\":5067:5068   */\n      0x00\n        /* \"#utility.yul\":5056:5065   */\n      dup4\n        /* \"#utility.yul\":5052:5069   */\n      add\n        /* \"#utility.yul\":5045:5092   */\n      mstore\n        /* \"#utility.yul\":5109:5187   */\n      tag_173\n        /* \"#utility.yul\":5182:5186   */\n      dup2\n        /* \"#utility.yul\":5173:5179   */\n      dup12\n        /* \"#utility.yul\":5109:5187   */\n      tag_74\n      jump\t// in\n    tag_173:\n        /* \"#utility.yul\":5101:5187   */\n      swap1\n      pop\n        /* \"#utility.yul\":5197:5285   */\n      tag_174\n        /* \"#utility.yul\":5281:5283   */\n      0x20\n        /* \"#utility.yul\":5270:5279   */\n      dup4\n        /* \"#utility.yul\":5266:5284   */\n      add\n        /* \"#utility.yul\":5257:5263   */\n      dup11\n        /* \"#utility.yul\":5197:5285   */\n      tag_77\n      jump\t// in\n    tag_174:\n        /* \"#utility.yul\":5295:5367   */\n      tag_175\n        /* \"#utility.yul\":5363:5365   */\n      0x40\n        /* \"#utility.yul\":5352:5361   */\n      dup4\n        /* \"#utility.yul\":5348:5366   */\n      add\n        /* \"#utility.yul\":5339:5345   */\n      dup10\n        /* \"#utility.yul\":5295:5367   */\n      tag_79\n      jump\t// in\n    tag_175:\n        /* \"#utility.yul\":5377:5449   */\n      tag_176\n        /* \"#utility.yul\":5445:5447   */\n      0x60\n        /* \"#utility.yul\":5434:5443   */\n      dup4\n        /* \"#utility.yul\":5430:5448   */\n      add\n        /* \"#utility.yul\":5421:5427   */\n      dup9\n        /* \"#utility.yul\":5377:5449   */\n      tag_79\n      jump\t// in\n    tag_176:\n        /* \"#utility.yul\":5459:5532   */\n      tag_177\n        /* \"#utility.yul\":5527:5530   */\n      0x80\n        /* \"#utility.yul\":5516:5525   */\n      dup4\n        /* \"#utility.yul\":5512:5531   */\n      add\n        /* \"#utility.yul\":5503:5509   */\n      dup8\n        /* \"#utility.yul\":5459:5532   */\n      tag_79\n      jump\t// in\n    tag_177:\n        /* \"#utility.yul\":5542:5609   */\n      tag_178\n        /* \"#utility.yul\":5604:5607   */\n      0xa0\n        /* \"#utility.yul\":5593:5602   */\n      dup4\n        /* \"#utility.yul\":5589:5608   */\n      add\n        /* \"#utility.yul\":5580:5586   */\n      dup7\n        /* \"#utility.yul\":5542:5609   */\n      tag_81\n      jump\t// in\n    tag_178:\n        /* \"#utility.yul\":5619:5686   */\n      tag_179\n        /* \"#utility.yul\":5681:5684   */\n      0xc0\n        /* \"#utility.yul\":5670:5679   */\n      dup4\n        /* \"#utility.yul\":5666:5685   */\n      add\n        /* \"#utility.yul\":5657:5663   */\n      dup6\n        /* \"#utility.yul\":5619:5686   */\n      tag_81\n      jump\t// in\n    tag_179:\n        /* \"#utility.yul\":5696:5763   */\n      tag_180\n        /* \"#utility.yul\":5758:5761   */\n      0xe0\n        /* \"#utility.yul\":5747:5756   */\n      dup4\n        /* \"#utility.yul\":5743:5762   */\n      add\n        /* \"#utility.yul\":5734:5740   */\n      dup5\n        /* \"#utility.yul\":5696:5763   */\n      tag_81\n      jump\t// in\n    tag_180:\n        /* \"#utility.yul\":4686:5770   */\n      swap10\n      swap9\n      pop\n      pop\n      pop\n      pop\n      pop\n      pop\n      pop\n      pop\n      pop\n      jump\t// out\n        /* \"#utility.yul\":5776:5893   */\n    tag_82:\n        /* \"#utility.yul\":5885:5886   */\n      0x00\n        /* \"#utility.yul\":5882:5883   */\n      0x00\n        /* \"#utility.yul\":5875:5887   */\n      revert\n        /* \"#utility.yul\":5899:6016   */\n    tag_83:\n        /* \"#utility.yul\":6008:6009   */\n      0x00\n        /* \"#utility.yul\":6005:6006   */\n      0x00\n        /* \"#utility.yul\":5998:6010   */\n      revert\n        /* \"#utility.yul\":6036:6589   */\n    tag_84:\n        /* \"#utility.yul\":6094:6102   */\n      0x00\n        /* \"#utility.yul\":6104:6110   */\n      0x00\n        /* \"#utility.yul\":6154:6157   */\n      dup4\n        /* \"#utility.yul\":6147:6151   */\n      0x1f\n        /* \"#utility.yul\":6139:6145   */\n      dup5\n        /* \"#utility.yul\":6135:6152   */\n      add\n        /* \"#utility.yul\":6131:6158   */\n      slt\n        /* \"#utility.yul\":6121:6243   */\n      tag_184\n      jumpi\n        /* \"#utility.yul\":6162:6241   */\n      tag_185\n      tag_61\n      jump\t// in\n    tag_185:\n        /* \"#utility.yul\":6121:6243   */\n    tag_184:\n        /* \"#utility.yul\":6275:6281   */\n      dup3\n        /* \"#utility.yul\":6262:6282   */\n      calldataload\n        /* \"#utility.yul\":6252:6282   */\n      swap1\n      pop\n        /* \"#utility.yul\":6305:6323   */\n      0xffffffffffffffff\n        /* \"#utility.yul\":6297:6303   */\n      dup2\n        /* \"#utility.yul\":6294:6324   */\n      gt\n        /* \"#utility.yul\":6291:6408   */\n      iszero\n      tag_186\n      jumpi\n        /* \"#utility.yul\":6327:6406   */\n      tag_187\n      tag_82\n      jump\t// in\n    tag_187:\n        /* \"#utility.yul\":6291:6408   */\n    tag_186:\n        /* \"#utility.yul\":6441:6445   */\n      0x20\n        /* \"#utility.yul\":6433:6439   */\n      dup4\n        /* \"#utility.yul\":6429:6446   */\n      add\n        /* \"#utility.yul\":6417:6446   */\n      swap2\n      pop\n        /* \"#utility.yul\":6495:6498   */\n      dup4\n        /* \"#utility.yul\":6487:6491   */\n      0x01\n        /* \"#utility.yul\":6479:6485   */\n      dup3\n        /* \"#utility.yul\":6475:6492   */\n      mul\n        /* \"#utility.yul\":6465:6473   */\n      dup4\n        /* \"#utility.yul\":6461:6493   */\n      add\n        /* \"#utility.yul\":6458:6499   */\n      gt\n        /* \"#utility.yul\":6455:6583   */\n      iszero\n      tag_188\n      jumpi\n        /* \"#utility.yul\":6502:6581   */\n      tag_189\n      tag_83\n      jump\t// in\n    tag_189:\n        /* \"#utility.yul\":6455:6583   */\n    tag_188:\n        /* \"#utility.yul\":6036:6589   */\n      swap3\n      pop\n      swap3\n      swap1\n      pop\n      jump\t// out\n        /* \"#utility.yul\":6595:6717   */\n    tag_85:\n        /* \"#utility.yul\":6668:6692   */\n      tag_191\n        /* \"#utility.yul\":6686:6691   */\n      dup2\n        /* \"#utility.yul\":6668:6692   */\n      tag_78\n      jump\t// in\n    tag_191:\n        /* \"#utility.yul\":6661:6666   */\n      dup2\n        /* \"#utility.yul\":6658:6693   */\n      eq\n        /* \"#utility.yul\":6648:6711   */\n      tag_192\n      jumpi\n        /* \"#utility.yul\":6707:6708   */\n      0x00\n        /* \"#utility.yul\":6704:6705   */\n      0x00\n        /* \"#utility.yul\":6697:6709   */\n      revert\n        /* \"#utility.yul\":6648:6711   */\n    tag_192:\n        /* \"#utility.yul\":6595:6717   */\n      pop\n      jump\t// out\n        /* \"#utility.yul\":6723:6862   */\n    tag_86:\n        /* \"#utility.yul\":6769:6774   */\n      0x00\n        /* \"#utility.yul\":6807:6813   */\n      dup2\n        /* \"#utility.yul\":6794:6814   */\n      calldataload\n        /* \"#utility.yul\":6785:6814   */\n      swap1\n      pop\n        /* \"#utility.yul\":6823:6856   */\n      tag_194\n        /* \"#utility.yul\":6850:6855   */\n      dup2\n        /* \"#utility.yul\":6823:6856   */\n      tag_85\n      jump\t// in\n    tag_194:\n        /* \"#utility.yul\":6723:6862   */\n      swap3\n      swap2\n      pop\n      pop\n      jump\t// out\n        /* \"#utility.yul\":6868:7687   */\n    tag_16:\n        /* \"#utility.yul\":6957:6963   */\n      0x00\n        /* \"#utility.yul\":6965:6971   */\n      0x00\n        /* \"#utility.yul\":6973:6979   */\n      0x00\n        /* \"#utility.yul\":6981:6987   */\n      0x00\n        /* \"#utility.yul\":7030:7032   */\n      0x60\n        /* \"#utility.yul\":7018:7027   */\n      dup6\n        /* \"#utility.yul\":7009:7016   */\n      dup8\n        /* \"#utility.yul\":7005:7028   */\n      sub\n        /* \"#utility.yul\":7001:7033   */\n      slt\n        /* \"#utility.yul\":6998:7117   */\n      iszero\n      tag_196\n      jumpi\n        /* \"#utility.yul\":7036:7115   */\n      tag_197\n      tag_59\n      jump\t// in\n    tag_197:\n        /* \"#utility.yul\":6998:7117   */\n    tag_196:\n        /* \"#utility.yul\":7184:7185   */\n      0x00\n        /* \"#utility.yul\":7173:7182   */\n      dup6\n        /* \"#utility.yul\":7169:7186   */\n      add\n        /* \"#utility.yul\":7156:7187   */\n      calldataload\n        /* \"#utility.yul\":7214:7232   */\n      0xffffffffffffffff\n        /* \"#utility.yul\":7206:7212   */\n      dup2\n        /* \"#utility.yul\":7203:7233   */\n      gt\n        /* \"#utility.yul\":7200:7317   */\n      iszero\n      tag_198\n      jumpi\n        /* \"#utility.yul\":7236:7315   */\n      tag_199\n      tag_60\n      jump\t// in\n    tag_199:\n        /* \"#utility.yul\":7200:7317   */\n    tag_198:\n        /* \"#utility.yul\":7349:7414   */\n      tag_200\n        /* \"#utility.yul\":7406:7413   */\n      dup8\n        /* \"#utility.yul\":7397:7403   */\n      dup3\n        /* \"#utility.yul\":7386:7395   */\n      dup9\n        /* \"#utility.yul\":7382:7404   */\n      add\n        /* \"#utility.yul\":7349:7414   */\n      tag_84\n      jump\t// in\n    tag_200:\n        /* \"#utility.yul\":7331:7414   */\n      swap5\n      pop\n      swap5\n      pop\n        /* \"#utility.yul\":7127:7424   */\n      pop\n        /* \"#utility.yul\":7463:7465   */\n      0x20\n        /* \"#utility.yul\":7489:7542   */\n      tag_201\n        /* \"#utility.yul\":7534:7541   */\n      dup8\n        /* \"#utility.yul\":7525:7531   */\n      dup3\n        /* \"#utility.yul\":7514:7523   */\n      dup9\n        /* \"#utility.yul\":7510:7532   */\n      add\n        /* \"#utility.yul\":7489:7542   */\n      tag_86\n      jump\t// in\n    tag_201:\n        /* \"#utility.yul\":7479:7542   */\n      swap3\n      pop\n        /* \"#utility.yul\":7434:7552   */\n      pop\n        /* \"#utility.yul\":7591:7593   */\n      0x40\n        /* \"#utility.yul\":7617:7670   */\n      tag_202\n        /* \"#utility.yul\":7662:7669   */\n      dup8\n        /* \"#utility.yul\":7653:7659   */\n      dup3\n        /* \"#utility.yul\":7642:7651   */\n      dup9\n        /* \"#utility.yul\":7638:7660   */\n      add\n        /* \"#utility.yul\":7617:7670   */\n      tag_86\n      jump\t// in\n    tag_202:\n        /* \"#utility.yul\":7607:7670   */\n      swap2\n      pop\n        /* \"#utility.yul\":7562:7680   */\n      pop\n        /* \"#utility.yul\":6868:7687   */\n      swap3\n      swap6\n      swap2\n      swap5\n      pop\n      swap3\n      pop\n      jump\t// out\n        /* \"#utility.yul\":7693:7915   */\n    tag_22:\n        /* \"#utility.yul\":7786:7790   */\n      0x00\n        /* \"#utility.yul\":7824:7826   */\n      0x20\n        /* \"#utility.yul\":7813:7822   */\n      dup3\n        /* \"#utility.yul\":7809:7827   */\n      add\n        /* \"#utility.yul\":7801:7827   */\n      swap1\n      pop\n        /* \"#utility.yul\":7837:7908   */\n      tag_204\n        /* \"#utility.yul\":7905:7906   */\n      0x00\n        /* \"#utility.yul\":7894:7903   */\n      dup4\n        /* \"#utility.yul\":7890:7907   */\n      add\n        /* \"#utility.yul\":7881:7887   */\n      dup5\n        /* \"#utility.yul\":7837:7908   */\n      tag_79\n      jump\t// in\n    tag_204:\n        /* \"#utility.yul\":7693:7915   */\n      swap3\n      swap2\n      pop\n      pop\n      jump\t// out\n        /* \"#utility.yul\":7921:8101   */\n    tag_87:\n        /* \"#utility.yul\":7969:8046   */\n      0x4e487b7100000000000000000000000000000000000000000000000000000000\n        /* \"#utility.yul\":7966:7967   */\n      0x00\n        /* \"#utility.yul\":7959:8047   */\n      mstore\n        /* \"#utility.yul\":8066:8070   */\n      0x22\n        /* \"#utility.yul\":8063:8064   */\n      0x04\n        /* \"#utility.yul\":8056:8071   */\n      mstore\n        /* \"#utility.yul\":8090:8094   */\n      0x24\n        /* \"#utility.yul\":8087:8088   */\n      0x00\n        /* \"#utility.yul\":8080:8095   */\n      revert\n        /* \"#utility.yul\":8107:8427   */\n    tag_26:\n        /* \"#utility.yul\":8151:8157   */\n      0x00\n        /* \"#utility.yul\":8188:8189   */\n      0x02\n        /* \"#utility.yul\":8182:8186   */\n      dup3\n        /* \"#utility.yul\":8178:8190   */\n      div\n        /* \"#utility.yul\":8168:8190   */\n      swap1\n      pop\n        /* \"#utility.yul\":8235:8236   */\n      0x01\n        /* \"#utility.yul\":8229:8233   */\n      dup3\n        /* \"#utility.yul\":8225:8237   */\n      and\n        /* \"#utility.yul\":8256:8274   */\n      dup1\n        /* \"#utility.yul\":8246:8327   */\n      tag_207\n      jumpi\n        /* \"#utility.yul\":8312:8316   */\n      0x7f\n        /* \"#utility.yul\":8304:8310   */\n      dup3\n        /* \"#utility.yul\":8300:8317   */\n      and\n        /* \"#utility.yul\":8290:8317   */\n      swap2\n      pop\n        /* \"#utility.yul\":8246:8327   */\n    tag_207:\n        /* \"#utility.yul\":8374:8376   */\n      0x20\n        /* \"#utility.yul\":8366:8372   */\n      dup3\n        /* \"#utility.yul\":8363:8377   */\n      lt\n        /* \"#utility.yul\":8343:8361   */\n      dup2\n        /* \"#utility.yul\":8340:8378   */\n      sub\n        /* \"#utility.yul\":8337:8421   */\n      tag_208\n      jumpi\n        /* \"#utility.yul\":8393:8411   */\n      tag_209\n      tag_87\n      jump\t// in\n    tag_209:\n        /* \"#utility.yul\":8337:8421   */\n    tag_208:\n        /* \"#utility.yul\":8158:8427   */\n      pop\n        /* \"#utility.yul\":8107:8427   */\n      swap2\n      swap1\n      pop\n      jump\t// out\n        /* \"#utility.yul\":8433:8581   */\n    tag_88:\n        /* \"#utility.yul\":8535:8546   */\n      0x00\n        /* \"#utility.yul\":8572:8575   */\n      dup2\n        /* \"#utility.yul\":8557:8575   */\n      swap1\n      pop\n        /* \"#utility.yul\":8433:8581   */\n      swap3\n      swap2\n      pop\n      pop\n      jump\t// out\n        /* \"#utility.yul\":8611:8941   */\n    tag_89:\n        /* \"#utility.yul\":8727:8730   */\n      0x00\n        /* \"#utility.yul\":8748:8837   */\n      tag_212\n        /* \"#utility.yul\":8830:8836   */\n      dup4\n        /* \"#utility.yul\":8825:8828   */\n      dup6\n        /* \"#utility.yul\":8748:8837   */\n      tag_88\n      jump\t// in\n    tag_212:\n        /* \"#utility.yul\":8741:8837   */\n      swap4\n      pop\n        /* \"#utility.yul\":8847:8903   */\n      tag_213\n        /* \"#utility.yul\":8896:8902   */\n      dup4\n        /* \"#utility.yul\":8891:8894   */\n      dup6\n        /* \"#utility.yul\":8884:8889   */\n      dup5\n        /* \"#utility.yul\":8847:8903   */\n      tag_68\n      jump\t// in\n    tag_213:\n        /* \"#utility.yul\":8928:8934   */\n      dup3\n        /* \"#utility.yul\":8923:8926   */\n      dup5\n        /* \"#utility.yul\":8919:8935   */\n      add\n        /* \"#utility.yul\":8912:8935   */\n      swap1\n      pop\n        /* \"#utility.yul\":8611:8941   */\n      swap4\n      swap3\n      pop\n      pop\n      pop\n      jump\t// out\n        /* \"#utility.yul\":8947:9242   */\n    tag_33:\n        /* \"#utility.yul\":9089:9092   */\n      0x00\n        /* \"#utility.yul\":9111:9216   */\n      tag_215\n        /* \"#utility.yul\":9212:9215   */\n      dup3\n        /* \"#utility.yul\":9203:9209   */\n      dup5\n        /* \"#utility.yul\":9195:9201   */\n      dup7\n        /* \"#utility.yul\":9111:9216   */\n      tag_89\n      jump\t// in\n    tag_215:\n        /* \"#utility.yul\":9104:9216   */\n      swap2\n      pop\n        /* \"#utility.yul\":9233:9236   */\n      dup2\n        /* \"#utility.yul\":9226:9236   */\n      swap1\n      pop\n        /* \"#utility.yul\":8947:9242   */\n      swap4\n      swap3\n      pop\n      pop\n      pop\n      jump\t// out\n        /* \"#utility.yul\":9248:9345   */\n    tag_90:\n        /* \"#utility.yul\":9307:9313   */\n      0x00\n        /* \"#utility.yul\":9335:9338   */\n      dup3\n        /* \"#utility.yul\":9325:9338   */\n      swap1\n      pop\n        /* \"#utility.yul\":9248:9345   */\n      swap3\n      swap2\n      pop\n      pop\n      jump\t// out\n        /* \"#utility.yul\":9351:9492   */\n    tag_91:\n        /* \"#utility.yul\":9400:9404   */\n      0x00\n        /* \"#utility.yul\":9423:9426   */\n      dup2\n        /* \"#utility.yul\":9415:9426   */\n      swap1\n      pop\n        /* \"#utility.yul\":9446:9449   */\n      dup2\n        /* \"#utility.yul\":9443:9444   */\n      0x00\n        /* \"#utility.yul\":9436:9450   */\n      mstore\n        /* \"#utility.yul\":9480:9484   */\n      0x20\n        /* \"#utility.yul\":9477:9478   */\n      0x00\n        /* \"#utility.yul\":9467:9485   */\n      keccak256\n        /* \"#utility.yul\":9459:9485   */\n      swap1\n      pop\n        /* \"#utility.yul\":9351:9492   */\n      swap2\n      swap1\n      pop\n      jump\t// out\n        /* \"#utility.yul\":9498:9591   */\n    tag_92:\n        /* \"#utility.yul\":9535:9541   */\n      0x00\n        /* \"#utility.yul\":9582:9584   */\n      0x20\n        /* \"#utility.yul\":9577:9579   */\n      0x1f\n        /* \"#utility.yul\":9570:9575   */\n      dup4\n        /* \"#utility.yul\":9566:9580   */\n      add\n        /* \"#utility.yul\":9562:9585   */\n      div\n        /* \"#utility.yul\":9552:9585   */\n      swap1\n      pop\n        /* \"#utility.yul\":9498:9591   */\n      swap2\n      swap1\n      pop\n      jump\t// out\n        /* \"#utility.yul\":9597:9704   */\n    tag_93:\n        /* \"#utility.yul\":9641:9649   */\n      0x00\n        /* \"#utility.yul\":9691:9696   */\n      dup3\n        /* \"#utility.yul\":9685:9689   */\n      dup3\n        /* \"#utility.yul\":9681:9697   */\n      shl\n        /* \"#utility.yul\":9660:9697   */\n      swap1\n      pop\n        /* \"#utility.yul\":9597:9704   */\n      swap3\n      swap2\n      pop\n      pop\n      jump\t// out\n        /* \"#utility.yul\":9710:10103   */\n    tag_94:\n        /* \"#utility.yul\":9779:9785   */\n      0x00\n        /* \"#utility.yul\":9829:9830   */\n      0x08\n        /* \"#utility.yul\":9817:9827   */\n      dup4\n        /* \"#utility.yul\":9813:9831   */\n      mul\n        /* \"#utility.yul\":9852:9949   */\n      tag_221\n        /* \"#utility.yul\":9882:9948   */\n      0xffffffffffffffffffffffffffffffffffffffffffffffffffffffffffffffff\n        /* \"#utility.yul\":9871:9880   */\n      dup3\n        /* \"#utility.yul\":9852:9949   */\n      tag_93\n      jump\t// in\n    tag_221:\n        /* \"#utility.yul\":9970:10009   */\n      tag_222\n        /* \"#utility.yul\":10000:10008   */\n      dup7\n        /* \"#utility.yul\":9989:9998   */\n      dup4\n        /* \"#utility.yul\":9970:10009   */\n      tag_93\n      jump\t// in\n    tag_222:\n        /* \"#utility.yul\":9958:10009   */\n      swap6\n      pop\n        /* \"#utility.yul\":10042:10046   */\n      dup1\n        /* \"#utility.yul\":10038:10047   */\n      not\n        /* \"#utility.yul\":10031:10036   */\n      dup5\n        /* \"#utility.yul\":10027:10048   */\n      and\n        /* \"#utility.yul\":10018:10048   */\n      swap4\n      pop\n        /* \"#utility.yul\":10091:10095   */\n      dup1\n        /* \"#utility.yul\":10081:10089   */\n      dup7\n        /* \"#utility.yul\":10077:10096   */\n      and\n        /* \"#utility.yul\":10070:10075   */\n      dup5\n        /* \"#utility.yul\":10067:10097   */\n      or\n        /* \"#utility.yul\":10057:10097   */\n      swap3\n      pop\n        /* \"#utility.yul\":9786:10103   */\n      pop\n      pop\n        /* \"#utility.yul\":9710:10103   */\n      swap4\n      swap3\n      pop\n      pop\n      pop\n      jump\t// out\n        /* \"#utility.yul\":10109:10169   */\n    tag_95:\n        /* \"#utility.yul\":10137:10140   */\n      0x00\n        /* \"#utility.yul\":10158:10163   */\n      dup2\n        /* \"#utility.yul\":10151:10163   */\n      swap1\n      pop\n        /* \"#utility.yul\":10109:10169   */\n      swap2\n      swap1\n      pop\n      jump\t// out\n        /* \"#utility.yul\":10175:10317   */\n    tag_96:\n        /* \"#utility.yul\":10225:10234   */\n      0x00\n        /* \"#utility.yul\":10258:10311   */\n      tag_225\n        /* \"#utility.yul\":10276:10310   */\n      tag_226\n        /* \"#utility.yul\":10285:10309   */\n      tag_227\n        /* \"#utility.yul\":10303:10308   */\n      dup5\n        /* \"#utility.yul\":10285:10309   */\n      tag_78\n      jump\t// in\n    tag_227:\n        /* \"#utility.yul\":10276:10310   */\n      tag_95\n      jump\t// in\n    tag_226:\n        /* \"#utility.yul\":10258:10311   */\n      tag_78\n      jump\t// in\n    tag_225:\n        /* \"#utility.yul\":10245:10311   */\n      swap1\n      pop\n        /* \"#utility.yul\":10175:10317   */\n      swap2\n      swap1\n      pop\n      jump\t// out\n        /* \"#utility.yul\":10323:10398   */\n    tag_97:\n        /* \"#utility.yul\":10366:10369   */\n      0x00\n        /* \"#utility.yul\":10387:10392   */\n      dup2\n        /* \"#utility.yul\":10380:10392   */\n      swap1\n      pop\n        /* \"#utility.yul\":10323:10398   */\n      swap2\n      swap1\n      pop\n      jump\t// out\n        /* \"#utility.yul\":10404:10673   */\n    tag_98:\n        /* \"#utility.yul\":10514:10553   */\n      tag_230\n        /* \"#utility.yul\":10545:10552   */\n      dup4\n        /* \"#utility.yul\":10514:10553   */\n      tag_96\n      jump\t// in\n    tag_230:\n        /* \"#utility.yul\":10575:10666   */\n      tag_231\n        /* \"#utility.yul\":10624:10665   */\n      tag_232\n        /* \"#utility.yul\":10648:10664   */\n      dup3\n        /* \"#utility.yul\":10624:10665   */\n      tag_97\n      jump\t// in\n    tag_232:\n        /* \"#utility.yul\":10616:10622   */\n      dup5\n        /* \"#utility.yul\":10609:10613   */\n      dup5\n        /* \"#utility.yul\":10603:10614   */\n      sload\n        /* \"#utility.yul\":10575:10666   */\n      tag_94\n      jump\t// in\n    tag_231:\n        /* \"#utility.yul\":10569:10573   */\n      dup3\n        /* \"#utility.yul\":10562:10667   */\n      sstore\n        /* \"#utility.yul\":10480:10673   */\n      pop\n        /* \"#utility.yul\":10404:10673   */\n      pop\n      pop\n      pop\n      jump\t// out\n        /* \"#utility.yul\":10679:10752   */\n    tag_99:\n        /* \"#utility.yul\":10724:10727   */\n      0x00\n        /* \"#utility.yul\":10745:10746   */\n      0x00\n        /* \"#utility.yul\":10738:10746   */\n      swap1\n      pop\n        /* \"#utility.yul\":10679:10752   */\n      swap1\n      jump\t// out\n        /* \"#utility.yul\":10758:10947   */\n    tag_100:\n        /* \"#utility.yul\":10835:10867   */\n      tag_235\n      tag_99\n      jump\t// in\n    tag_235:\n        /* \"#utility.yul\":10876:10941   */\n      tag_236\n        /* \"#utility.yul\":10934:10940   */\n      dup2\n        /* \"#utility.yul\":10926:10932   */\n      dup5\n        /* \"#utility.yul\":10920:10924   */\n      dup5\n        /* \"#utility.yul\":10876:10941   */\n      tag_98\n      jump\t// in\n    tag_236:\n        /* \"#utility.yul\":10811:10947   */\n      pop\n        /* \"#utility.yul\":10758:10947   */\n      pop\n      pop\n      jump\t// out\n        /* \"#utility.yul\":10953:11139   */\n    tag_101:\n        /* \"#utility.yul\":11013:11133   */\n    tag_238:\n        /* \"#utility.yul\":11030:11033   */\n      dup2\n        /* \"#utility.yul\":11023:11028   */\n      dup2\n        /* \"#utility.yul\":11020:11034   */\n      lt\n        /* \"#utility.yul\":11013:11133   */\n      iszero\n      tag_240\n      jumpi\n        /* \"#utility.yul\":11084:11123   */\n      tag_241\n        /* \"#utility.yul\":11121:11122   */\n      0x00\n        /* \"#utility.yul\":11114:11119   */\n      dup3\n        /* \"#utility.yul\":11084:11123   */\n      tag_100\n      jump\t// in\n    tag_241:\n        /* \"#utility.yul\":11057:11058   */\n      0x01\n        /* \"#utility.yul\":11050:11055   */\n      dup2\n        /* \"#utility.yul\":11046:11059   */\n      add\n        /* \"#utility.yul\":11037:11059   */\n      swap1\n      pop\n        /* \"#utility.yul\":11013:11133   */\n      jump(tag_238)\n    tag_240:\n        /* \"#utility.yul\":10953:11139   */\n      pop\n      pop\n      jump\t// out\n        /* \"#utility.yul\":11145:11688   */\n    tag_102:\n        /* \"#utility.yul\":11246:11248   */\n      0x1f\n        /* \"#utility.yul\":11241:11244   */\n      dup3\n        /* \"#utility.yul\":11238:11249   */\n      gt\n        /* \"#utility.yul\":11235:11681   */\n      iszero\n      tag_243\n      jumpi\n        /* \"#utility.yul\":11280:11318   */\n      tag_244\n        /* \"#utility.yul\":11312:11317   */\n      dup2\n        /* \"#utility.yul\":11280:11318   */\n      tag_91\n      jump\t// in\n    tag_244:\n        /* \"#utility.yul\":11364:11393   */\n      tag_245\n        /* \"#utility.yul\":11382:11392   */\n      dup5\n        /* \"#utility.yul\":11364:11393   */\n      tag_92\n      jump\t// in\n    tag_245:\n        /* \"#utility.yul\":11354:11362   */\n      dup2\n        /* \"#utility.yul\":11350:11394   */\n      add\n        /* \"#utility.yul\":11547:11549   */\n      0x20\n        /* \"#utility.yul\":11535:11545   */\n      dup6\n        /* \"#utility.yul\":11532:11550   */\n      lt\n        /* \"#utility.yul\":11529:11578   */\n      iszero\n      tag_246\n      jumpi\n        /* \"#utility.yul\":11568:11576   */\n      dup2\n        /* \"#utility.yul\":11553:11576   */\n      swap1\n      pop\n        /* \"#utility.yul\":11529:11578   */\n    tag_246:\n        /* \"#utility.yul\":11591:11671   */\n      tag_247\n        /* \"#utility.yul\":11647:11669   */\n      tag_248\n        /* \"#utility.yul\":11665:11668   */\n      dup6\n        /* \"#utility.yul\":11647:11669   */\n      tag_92\n      jump\t// in\n    tag_248:\n        /* \"#utility.yul\":11637:11645   */\n      dup4\n        /* \"#utility.yul\":11633:11670   */\n      add\n        /* \"#utility.yul\":11620:11631   */\n      dup3\n        /* \"#utility.yul\":11591:11671   */\n      tag_101\n      jump\t// in\n    tag_247:\n        /* \"#utility.yul\":11250:11681   */\n      pop\n      pop\n        /* \"#utility.yul\":11235:11681   */\n    tag_243:\n        /* \"#utility.yul\":11145:11688   */\n      pop\n      pop\n      pop\n      jump\t// out\n        /* \"#utility.yul\":11694:11811   */\n    tag_103:\n        /* \"#utility.yul\":11748:11756   */\n      0x00\n        /* \"#utility.yul\":11798:11803   */\n      dup3\n        /* \"#utility.yul\":11792:11796   */\n      dup3\n        /* \"#utility.yul\":11788:11804   */\n      shr\n        /* \"#utility.yul\":11767:11804   */\n      swap1\n      pop\n        /* \"#utility.yul\":11694:11811   */\n      swap3\n      swap2\n      pop\n      pop\n      jump\t// out\n        /* \"#utility.yul\":11817:11986   */\n    tag_104:\n        /* \"#utility.yul\":11861:11867   */\n      0x00\n        /* \"#utility.yul\":11894:11945   */\n      tag_251\n        /* \"#utility.yul\":11942:11943   */\n      0x00\n        /* \"#utility.yul\":11938:11944   */\n      not\n        /* \"#utility.yul\":11930:11935   */\n      dup5\n        /* \"#utility.yul\":11927:11928   */\n      0x08\n        /* \"#utility.yul\":11923:11936   */\n      mul\n        /* \"#utility.yul\":11894:11945   */\n      tag_103\n      jump\t// in\n    tag_251:\n        /* \"#utility.yul\":11890:11946   */\n      not\n        /* \"#utility.yul\":11975:11979   */\n      dup1\n        /* \"#utility.yul\":11969:11973   */\n      dup4\n        /* \"#utility.yul\":11965:11980   */\n      and\n        /* \"#utility.yul\":11955:11980   */\n      swap2\n      pop\n        /* \"#utility.yul\":11868:11986   */\n      pop\n        /* \"#utility.yul\":11817:11986   */\n      swap3\n      swap2\n      pop\n      pop\n      jump\t// out\n        /* \"#utility.yul\":11991:12286   */\n    tag_105:\n        /* \"#utility.yul\":12067:12071   */\n      0x00\n        /* \"#utility.yul\":12213:12242   */\n      tag_253\n        /* \"#utility.yul\":12238:12241   */\n      dup4\n        /* \"#utility.yul\":12232:12236   */\n      dup4\n        /* \"#utility.yul\":12213:12242   */\n      tag_104\n      jump\t// in\n    tag_253:\n        /* \"#utility.yul\":12205:12242   */\n      swap2\n      pop\n        /* \"#utility.yul\":12275:12278   */\n      dup3\n        /* \"#utility.yul\":12272:12273   */\n      0x02\n        /* \"#utility.yul\":12268:12279   */\n      mul\n        /* \"#utility.yul\":12262:12266   */\n      dup3\n        /* \"#utility.yul\":12259:12280   */\n      or\n        /* \"#utility.yul\":12251:12280   */\n      swap1\n      pop\n        /* \"#utility.yul\":11991:12286   */\n      swap3\n      swap2\n      pop\n      pop\n      jump\t// out\n        /* \"#utility.yul\":12291:13694   */\n    tag_35:\n        /* \"#utility.yul\":12415:12459   */\n      tag_255\n        /* \"#utility.yul\":12455:12458   */\n      dup4\n        /* \"#utility.yul\":12450:12453   */\n      dup4\n        /* \"#utility.yul\":12415:12459   */\n      tag_90\n      jump\t// in\n    tag_255:\n        /* \"#utility.yul\":12524:12542   */\n      0xffffffffffffffff\n        /* \"#utility.yul\":12516:12522   */\n      dup2\n        /* \"#utility.yul\":12513:12543   */\n      gt\n        /* \"#utility.yul\":12510:12566   */\n      iszero\n      tag_256\n      jumpi\n        /* \"#utility.yul\":12546:12564   */\n      tag_257\n      tag_64\n      jump\t// in\n    tag_257:\n        /* \"#utility.yul\":12510:12566   */\n    tag_256:\n        /* \"#utility.yul\":12590:12628   */\n      tag_258\n        /* \"#utility.yul\":12622:12626   */\n      dup3\n        /* \"#utility.yul\":12616:12627   */\n      sload\n        /* \"#utility.yul\":12590:12628   */\n      tag_26\n      jump\t// in\n    tag_258:\n        /* \"#utility.yul\":12675:12742   */\n      tag_259\n        /* \"#utility.yul\":12735:12741   */\n      dup3\n        /* \"#utility.yul\":12727:12733   */\n      dup3\n        /* \"#utility.yul\":12721:12725   */\n      dup6\n        /* \"#utility.yul\":12675:12742   */\n      tag_102\n      jump\t// in\n    tag_259:\n        /* \"#utility.yul\":12769:12770   */\n      0x00\n        /* \"#utility.yul\":12798:12800   */\n      0x1f\n        /* \"#utility.yul\":12790:12796   */\n      dup4\n        /* \"#utility.yul\":12787:12801   */\n      gt\n        /* \"#utility.yul\":12815:12816   */\n      0x01\n        /* \"#utility.yul\":12810:13442   */\n      dup2\n      eq\n      tag_261\n      jumpi\n        /* \"#utility.yul\":13486:13487   */\n      0x00\n        /* \"#utility.yul\":13503:13509   */\n      dup5\n        /* \"#utility.yul\":13500:13584   */\n      iszero\n      tag_262\n      jumpi\n        /* \"#utility.yul\":13559:13568   */\n      dup3\n        /* \"#utility.yul\":13554:13557   */\n      dup8\n        /* \"#utility.yul\":13550:13569   */\n      add\n        /* \"#utility.yul\":13537:13570   */\n      calldataload\n        /* \"#utility.yul\":13528:13570   */\n      swap1\n      pop\n        /* \"#utility.yul\":13500:13584   */\n    tag_262:\n        /* \"#utility.yul\":13610:13677   */\n      tag_263\n        /* \"#utility.yul\":13670:13676   */\n      dup6\n        /* \"#utility.yul\":13663:13668   */\n      dup3\n        /* \"#utility.yul\":13610:13677   */\n      tag_105\n      jump\t// in\n    tag_263:\n        /* \"#utility.yul\":13604:13608   */\n      dup7\n        /* \"#utility.yul\":13597:13678   */\n      sstore\n        /* \"#utility.yul\":13459:13688   */\n      pop\n        /* \"#utility.yul\":12780:13688   */\n      jump(tag_260)\n        /* \"#utility.yul\":12810:13442   */\n    tag_261:\n        /* \"#utility.yul\":12862:12866   */\n      0x1f\n        /* \"#utility.yul\":12858:12867   */\n      not\n        /* \"#utility.yul\":12850:12856   */\n      dup5\n        /* \"#utility.yul\":12846:12868   */\n      and\n        /* \"#utility.yul\":12896:12933   */\n      tag_264\n        /* \"#utility.yul\":12928:12932   */\n      dup7\n        /* \"#utility.yul\":12896:12933   */\n      tag_91\n      jump\t// in\n    tag_264:\n        /* \"#utility.yul\":12955:12956   */\n      0x00\n        /* \"#utility.yul\":12969:13184   */\n    tag_265:\n        /* \"#utility.yul\":12983:12990   */\n      dup3\n        /* \"#utility.yul\":12980:12981   */\n      dup2\n        /* \"#utility.yul\":12977:12991   */\n      lt\n        /* \"#utility.yul\":12969:13184   */\n      iszero\n      tag_267\n      jumpi\n        /* \"#utility.yul\":13069:13078   */\n      dup5\n        /* \"#utility.yul\":13064:13067   */\n      dup10\n        /* \"#utility.yul\":13060:13079   */\n      add\n        /* \"#utility.yul\":13047:13080   */\n      calldataload\n        /* \"#utility.yul\":13039:13045   */\n      dup3\n        /* \"#utility.yul\":13032:13081   */\n      sstore\n        /* \"#utility.yul\":13120:13121   */\n      0x01\n        /* \"#utility.yul\":13112:13118   */\n      dup3\n        /* \"#utility.yul\":13108:13122   */\n      add\n        /* \"#utility.yul\":13098:13122   */\n      swap2\n      pop\n        /* \"#utility.yul\":13167:13169   */\n      0x20\n        /* \"#utility.yul\":13156:13165   */\n      dup6\n        /* \"#utility.yul\":13152:13170   */\n      add\n        /* \"#utility.yul\":13139:13170   */\n      swap5\n      pop\n        /* \"#utility.yul\":13006:13010   */\n      0x20\n        /* \"#utility.yul\":13003:13004   */\n      dup2\n        /* \"#utility.yul\":12999:13011   */\n      add\n        /* \"#utility.yul\":12994:13011   */\n      swap1\n      pop\n        /* \"#utility.yul\":12969:13184   */\n      jump(tag_265)\n    tag_267:\n        /* \"#utility.yul\":13212:13218   */\n      dup7\n        /* \"#utility.yul\":13203:13210   */\n      dup4\n        /* \"#utility.yul\":13200:13219   */\n      lt\n        /* \"#utility.yul\":13197:13383   */\n      iszero\n      tag_268\n      jumpi\n        /* \"#utility.yul\":13277:13286   */\n      dup5\n        /* \"#utility.yul\":13272:13275   */\n      dup10\n        /* \"#utility.yul\":13268:13287   */\n      add\n        /* \"#utility.yul\":13255:13288   */\n      calldataload\n        /* \"#utility.yul\":13320:13368   */\n      tag_269\n        /* \"#utility.yul\":13362:13366   */\n      0x1f\n        /* \"#utility.yul\":13354:13360   */\n      dup10\n        /* \"#utility.yul\":13350:13367   */\n      and\n        /* \"#utility.yul\":13339:13348   */\n      dup3\n        /* \"#utility.yul\":13320:13368   */\n      tag_104\n      jump\t// in\n    tag_269:\n        /* \"#utility.yul\":13312:13318   */\n      dup4\n        /* \"#utility.yul\":13305:13369   */\n      sstore\n        /* \"#utility.yul\":13220:13383   */\n      pop\n        /* \"#utility.yul\":13197:13383   */\n    tag_268:\n        /* \"#utility.yul\":13429:13430   */\n      0x01\n        /* \"#utility.yul\":13425:13426   */\n      0x02\n        /* \"#utility.yul\":13417:13423   */\n      dup9\n        /* \"#utility.yul\":13413:13427   */\n      mul\n        /* \"#utility.yul\":13409:13431   */\n      add\n        /* \"#utility.yul\":13403:13407   */\n      dup9\n        /* \"#utility.yul\":13396:13432   */\n      sstore\n        /* \"#utility.yul\":12817:13442   */\n      pop\n      pop\n      pop\n        /* \"#utility.yul\":12780:13688   */\n    tag_260:\n      pop\n        /* \"#utility.yul\":12390:13694   */\n      pop\n      pop\n      pop\n        /* \"#utility.yul\":12291:13694   */\n      pop\n      pop\n      pop\n      jump\t// out\n        /* \"#utility.yul\":13700:13880   */\n    tag_106:\n        /* \"#utility.yul\":13748:13825   */\n      0x4e487b7100000000000000000000000000000000000000000000000000000000\n        /* \"#utility.yul\":13745:13746   */\n      0x00\n        /* \"#utility.yul\":13738:13826   */\n      mstore\n        /* \"#utility.yul\":13845:13849   */\n      0x11\n        /* \"#utility.yul\":13842:13843   */\n      0x04\n        /* \"#utility.yul\":13835:13850   */\n      mstore\n        /* \"#utility.yul\":13869:13873   */\n      0x24\n        /* \"#utility.yul\":13866:13867   */\n      0x00\n        /* \"#utility.yul\":13859:13874   */\n      revert\n        /* \"#utility.yul\":13886:14077   */\n    tag_37:\n        /* \"#utility.yul\":13926:13929   */\n      0x00\n        /* \"#utility.yul\":13945:13965   */\n      tag_272\n        /* \"#utility.yul\":13963:13964   */\n      dup3\n        /* \"#utility.yul\":13945:13965   */\n      tag_78\n      jump\t// in\n    tag_272:\n        /* \"#utility.yul\":13940:13965   */\n      swap2\n      pop\n        /* \"#utility.yul\":13979:13999   */\n      tag_273\n        /* \"#utility.yul\":13997:13998   */\n      dup4\n        /* \"#utility.yul\":13979:13999   */\n      tag_78\n      jump\t// in\n    tag_273:\n        /* \"#utility.yul\":13974:13999   */\n      swap3\n      pop\n        /* \"#utility.yul\":14022:14023   */\n      dup3\n        /* \"#utility.yul\":14019:14020   */\n      dup3\n        /* \"#utility.yul\":14015:14024   */\n      add\n        /* \"#utility.yul\":14008:14024   */\n      swap1\n      pop\n        /* \"#utility.yul\":14043:14046   */\n      dup1\n        /* \"#utility.yul\":14040:14041   */\n      dup3\n        /* \"#utility.yul\":14037:14047   */\n      gt\n        /* \"#utility.yul\":14034:14070   */\n      iszero\n      tag_274\n      jumpi\n        /* \"#utility.yul\":14050:14068   */\n      tag_275\n      tag_106\n      jump\t// in\n    tag_275:\n        /* \"#utility.yul\":14034:14070   */\n    tag_274:\n        /* \"#utility.yul\":13886:14077   */\n      swap3\n      swap2\n      pop\n      pop\n      jump\t// out\n        /* \"#utility.yul\":14083:14307   */\n    tag_107:\n        /* \"#utility.yul\":14223:14257   */\n      0x53656e74204554482069732062656c6f77206d696e696d756d20726571756972\n        /* \"#utility.yul\":14219:14220   */\n      0x00\n        /* \"#utility.yul\":14211:14217   */\n      dup3\n        /* \"#utility.yul\":14207:14221   */\n      add\n        /* \"#utility.yul\":14200:14258   */\n      mstore\n        /* \"#utility.yul\":14292:14299   */\n      0x656d656e74000000000000000000000000000000000000000000000000000000\n        /* \"#utility.yul\":14287:14289   */\n      0x20\n        /* \"#utility.yul\":14279:14285   */\n      dup3\n        /* \"#utility.yul\":14275:14290   */\n      add\n        /* \"#utility.yul\":14268:14300   */\n      mstore\n        /* \"#utility.yul\":14083:14307   */\n      pop\n      jump\t// out\n        /* \"#utility.yul\":14313:14679   */\n    tag_108:\n        /* \"#utility.yul\":14455:14458   */\n      0x00\n        /* \"#utility.yul\":14476:14543   */\n      tag_278\n        /* \"#utility.yul\":14540:14542   */\n      0x25\n        /* \"#utility.yul\":14535:14538   */\n      dup4\n        /* \"#utility.yul\":14476:14543   */\n      tag_72\n      jump\t// in\n    tag_278:\n        /* \"#utility.yul\":14469:14543   */\n      swap2\n      pop\n        /* \"#utility.yul\":14552:14645   */\n      tag_279\n        /* \"#utility.yul\":14641:14644   */\n      dup3\n        /* \"#utility.yul\":14552:14645   */\n      tag_107\n      jump\t// in\n    tag_279:\n        /* \"#utility.yul\":14670:14672   */\n      0x40\n        /* \"#utility.yul\":14665:14668   */\n      dup3\n        /* \"#utility.yul\":14661:14673   */\n      add\n        /* \"#utility.yul\":14654:14673   */\n      swap1\n      pop\n        /* \"#utility.yul\":14313:14679   */\n      swap2\n      swap1\n      pop\n      jump\t// out\n        /* \"#utility.yul\":14685:15104   */\n    tag_44:\n        /* \"#utility.yul\":14851:14855   */\n      0x00\n        /* \"#utility.yul\":14889:14891   */\n      0x20\n        /* \"#utility.yul\":14878:14887   */\n      dup3\n        /* \"#utility.yul\":14874:14892   */\n      add\n        /* \"#utility.yul\":14866:14892   */\n      swap1\n      pop\n        /* \"#utility.yul\":14938:14947   */\n      dup2\n        /* \"#utility.yul\":14932:14936   */\n      dup2\n        /* \"#utility.yul\":14928:14948   */\n      sub\n        /* \"#utility.yul\":14924:14925   */\n      0x00\n        /* \"#utility.yul\":14913:14922   */\n      dup4\n        /* \"#utility.yul\":14909:14926   */\n      add\n        /* \"#utility.yul\":14902:14949   */\n      mstore\n        /* \"#utility.yul\":14966:15097   */\n      tag_281\n        /* \"#utility.yul\":15092:15096   */\n      dup2\n        /* \"#utility.yul\":14966:15097   */\n      tag_108\n      jump\t// in\n    tag_281:\n        /* \"#utility.yul\":14958:15097   */\n      swap1\n      pop\n        /* \"#utility.yul\":14685:15104   */\n      swap2\n      swap1\n      pop\n      jump\t// out\n        /* \"#utility.yul\":15110:15520   */\n    tag_49:\n        /* \"#utility.yul\":15150:15157   */\n      0x00\n        /* \"#utility.yul\":15173:15193   */\n      tag_283\n        /* \"#utility.yul\":15191:15192   */\n      dup3\n        /* \"#utility.yul\":15173:15193   */\n      tag_78\n      jump\t// in\n    tag_283:\n        /* \"#utility.yul\":15168:15193   */\n      swap2\n      pop\n        /* \"#utility.yul\":15207:15227   */\n      tag_284\n        /* \"#utility.yul\":15225:15226   */\n      dup4\n        /* \"#utility.yul\":15207:15227   */\n      tag_78\n      jump\t// in\n    tag_284:\n        /* \"#utility.yul\":15202:15227   */\n      swap3\n      pop\n        /* \"#utility.yul\":15262:15263   */\n      dup3\n        /* \"#utility.yul\":15259:15260   */\n      dup3\n        /* \"#utility.yul\":15255:15264   */\n      mul\n        /* \"#utility.yul\":15284:15314   */\n      tag_285\n        /* \"#utility.yul\":15302:15313   */\n      dup2\n        /* \"#utility.yul\":15284:15314   */\n      tag_78\n      jump\t// in\n    tag_285:\n        /* \"#utility.yul\":15273:15314   */\n      swap2\n      pop\n        /* \"#utility.yul\":15463:15464   */\n      dup3\n        /* \"#utility.yul\":15454:15461   */\n      dup3\n        /* \"#utility.yul\":15450:15465   */\n      div\n        /* \"#utility.yul\":15447:15448   */\n      dup5\n        /* \"#utility.yul\":15444:15466   */\n      eq\n        /* \"#utility.yul\":15424:15425   */\n      dup4\n        /* \"#utility.yul\":15417:15426   */\n      iszero\n        /* \"#utility.yul\":15397:15480   */\n      or\n        /* \"#utility.yul\":15374:15513   */\n      tag_286\n      jumpi\n        /* \"#utility.yul\":15493:15511   */\n      tag_287\n      tag_106\n      jump\t// in\n    tag_287:\n        /* \"#utility.yul\":15374:15513   */\n    tag_286:\n        /* \"#utility.yul\":15158:15520   */\n      pop\n        /* \"#utility.yul\":15110:15520   */\n      swap3\n      swap2\n      pop\n      pop\n      jump\t// out\n        /* \"#utility.yul\":15526:15706   */\n    tag_109:\n        /* \"#utility.yul\":15574:15651   */\n      0x4e487b7100000000000000000000000000000000000000000000000000000000\n        /* \"#utility.yul\":15571:15572   */\n      0x00\n        /* \"#utility.yul\":15564:15652   */\n      mstore\n        /* \"#utility.yul\":15671:15675   */\n      0x12\n        /* \"#utility.yul\":15668:15669   */\n      0x04\n        /* \"#utility.yul\":15661:15676   */\n      mstore\n        /* \"#utility.yul\":15695:15699   */\n      0x24\n        /* \"#utility.yul\":15692:15693   */\n      0x00\n        /* \"#utility.yul\":15685:15700   */\n      revert\n        /* \"#utility.yul\":15712:15897   */\n    tag_51:\n        /* \"#utility.yul\":15752:15753   */\n      0x00\n        /* \"#utility.yul\":15769:15789   */\n      tag_290\n        /* \"#utility.yul\":15787:15788   */\n      dup3\n        /* \"#utility.yul\":15769:15789   */\n      tag_78\n      jump\t// in\n    tag_290:\n        /* \"#utility.yul\":15764:15789   */\n      swap2\n      pop\n        /* \"#utility.yul\":15803:15823   */\n      tag_291\n        /* \"#utility.yul\":15821:15822   */\n      dup4\n        /* \"#utility.yul\":15803:15823   */\n      tag_78\n      jump\t// in\n    tag_291:\n        /* \"#utility.yul\":15798:15823   */\n      swap3\n      pop\n        /* \"#utility.yul\":15842:15843   */\n      dup3\n        /* \"#utility.yul\":15832:15867   */\n      tag_292\n      jumpi\n        /* \"#utility.yul\":15847:15865   */\n      tag_293\n      tag_109\n      jump\t// in\n    tag_293:\n        /* \"#utility.yul\":15832:15867   */\n    tag_292:\n        /* \"#utility.yul\":15889:15890   */\n      dup3\n        /* \"#utility.yul\":15886:15887   */\n      dup3\n        /* \"#utility.yul\":15882:15891   */\n      div\n        /* \"#utility.yul\":15877:15891   */\n      swap1\n      pop\n        /* \"#utility.yul\":15712:15897   */\n      swap3\n      swap2\n      pop\n      pop\n      jump\t// out\n        /* \"#utility.yul\":15903:16008   */\n    tag_110:\n        /* \"#utility.yul\":15939:15946   */\n      0x00\n        /* \"#utility.yul\":15979:16001   */\n      0xffffffffffffffffffff\n        /* \"#utility.yul\":15972:15977   */\n      dup3\n        /* \"#utility.yul\":15968:16002   */\n      and\n        /* \"#utility.yul\":15957:16002   */\n      swap1\n      pop\n        /* \"#utility.yul\":15903:16008   */\n      swap2\n      swap1\n      pop\n      jump\t// out\n        /* \"#utility.yul\":16014:16134   */\n    tag_111:\n        /* \"#utility.yul\":16086:16109   */\n      tag_296\n        /* \"#utility.yul\":16103:16108   */\n      dup2\n        /* \"#utility.yul\":16086:16109   */\n      tag_110\n      jump\t// in\n    tag_296:\n        /* \"#utility.yul\":16079:16084   */\n      dup2\n        /* \"#utility.yul\":16076:16110   */\n      eq\n        /* \"#utility.yul\":16066:16128   */\n      tag_297\n      jumpi\n        /* \"#utility.yul\":16124:16125   */\n      0x00\n        /* \"#utility.yul\":16121:16122   */\n      0x00\n        /* \"#utility.yul\":16114:16126   */\n      revert\n        /* \"#utility.yul\":16066:16128   */\n    tag_297:\n        /* \"#utility.yul\":16014:16134   */\n      pop\n      jump\t// out\n        /* \"#utility.yul\":16140:16281   */\n    tag_112:\n        /* \"#utility.yul\":16196:16201   */\n      0x00\n        /* \"#utility.yul\":16227:16233   */\n      dup2\n        /* \"#utility.yul\":16221:16234   */\n      mload\n        /* \"#utility.yul\":16212:16234   */\n      swap1\n      pop\n        /* \"#utility.yul\":16243:16275   */\n      tag_299\n        /* \"#utility.yul\":16269:16274   */\n      dup2\n        /* \"#utility.yul\":16243:16275   */\n      tag_111\n      jump\t// in\n    tag_299:\n        /* \"#utility.yul\":16140:16281   */\n      swap3\n      swap2\n      pop\n      pop\n      jump\t// out\n        /* \"#utility.yul\":16287:16363   */\n    tag_113:\n        /* \"#utility.yul\":16323:16330   */\n      0x00\n        /* \"#utility.yul\":16352:16357   */\n      dup2\n        /* \"#utility.yul\":16341:16357   */\n      swap1\n      pop\n        /* \"#utility.yul\":16287:16363   */\n      swap2\n      swap1\n      pop\n      jump\t// out\n        /* \"#utility.yul\":16369:16489   */\n    tag_114:\n        /* \"#utility.yul\":16441:16464   */\n      tag_302\n        /* \"#utility.yul\":16458:16463   */\n      dup2\n        /* \"#utility.yul\":16441:16464   */\n      tag_113\n      jump\t// in\n    tag_302:\n        /* \"#utility.yul\":16434:16439   */\n      dup2\n        /* \"#utility.yul\":16431:16465   */\n      eq\n        /* \"#utility.yul\":16421:16483   */\n      tag_303\n      jumpi\n        /* \"#utility.yul\":16479:16480   */\n      0x00\n        /* \"#utility.yul\":16476:16477   */\n      0x00\n        /* \"#utility.yul\":16469:16481   */\n      revert\n        /* \"#utility.yul\":16421:16483   */\n    tag_303:\n        /* \"#utility.yul\":16369:16489   */\n      pop\n      jump\t// out\n        /* \"#utility.yul\":16495:16636   */\n    tag_115:\n        /* \"#utility.yul\":16551:16556   */\n      0x00\n        /* \"#utility.yul\":16582:16588   */\n      dup2\n        /* \"#utility.yul\":16576:16589   */\n      mload\n        /* \"#utility.yul\":16567:16589   */\n      swap1\n      pop\n        /* \"#utility.yul\":16598:16630   */\n      tag_305\n        /* \"#utility.yul\":16624:16629   */\n      dup2\n        /* \"#utility.yul\":16598:16630   */\n      tag_114\n      jump\t// in\n    tag_305:\n        /* \"#utility.yul\":16495:16636   */\n      swap3\n      swap2\n      pop\n      pop\n      jump\t// out\n        /* \"#utility.yul\":16642:16785   */\n    tag_116:\n        /* \"#utility.yul\":16699:16704   */\n      0x00\n        /* \"#utility.yul\":16730:16736   */\n      dup2\n        /* \"#utility.yul\":16724:16737   */\n      mload\n        /* \"#utility.yul\":16715:16737   */\n      swap1\n      pop\n        /* \"#utility.yul\":16746:16779   */\n      tag_307\n        /* \"#utility.yul\":16773:16778   */\n      dup2\n        /* \"#utility.yul\":16746:16779   */\n      tag_85\n      jump\t// in\n    tag_307:\n        /* \"#utility.yul\":16642:16785   */\n      swap3\n      swap2\n      pop\n      pop\n      jump\t// out\n        /* \"#utility.yul\":16791:17762   */\n    tag_56:\n        /* \"#utility.yul\":16894:16900   */\n      0x00\n        /* \"#utility.yul\":16902:16908   */\n      0x00\n        /* \"#utility.yul\":16910:16916   */\n      0x00\n        /* \"#utility.yul\":16918:16924   */\n      0x00\n        /* \"#utility.yul\":16926:16932   */\n      0x00\n        /* \"#utility.yul\":16975:16978   */\n      0xa0\n        /* \"#utility.yul\":16963:16972   */\n      dup7\n        /* \"#utility.yul\":16954:16961   */\n      dup9\n        /* \"#utility.yul\":16950:16973   */\n      sub\n        /* \"#utility.yul\":16946:16979   */\n      slt\n        /* \"#utility.yul\":16943:17063   */\n      iszero\n      tag_309\n      jumpi\n        /* \"#utility.yul\":16982:17061   */\n      tag_310\n      tag_59\n      jump\t// in\n    tag_310:\n        /* \"#utility.yul\":16943:17063   */\n    tag_309:\n        /* \"#utility.yul\":17102:17103   */\n      0x00\n        /* \"#utility.yul\":17127:17190   */\n      tag_311\n        /* \"#utility.yul\":17182:17189   */\n      dup9\n        /* \"#utility.yul\":17173:17179   */\n      dup3\n        /* \"#utility.yul\":17162:17171   */\n      dup10\n        /* \"#utility.yul\":17158:17180   */\n      add\n        /* \"#utility.yul\":17127:17190   */\n      tag_112\n      jump\t// in\n    tag_311:\n        /* \"#utility.yul\":17117:17190   */\n      swap6\n      pop\n        /* \"#utility.yul\":17073:17200   */\n      pop\n        /* \"#utility.yul\":17239:17241   */\n      0x20\n        /* \"#utility.yul\":17265:17328   */\n      tag_312\n        /* \"#utility.yul\":17320:17327   */\n      dup9\n        /* \"#utility.yul\":17311:17317   */\n      dup3\n        /* \"#utility.yul\":17300:17309   */\n      dup10\n        /* \"#utility.yul\":17296:17318   */\n      add\n        /* \"#utility.yul\":17265:17328   */\n      tag_115\n      jump\t// in\n    tag_312:\n        /* \"#utility.yul\":17255:17328   */\n      swap5\n      pop\n        /* \"#utility.yul\":17210:17338   */\n      pop\n        /* \"#utility.yul\":17377:17379   */\n      0x40\n        /* \"#utility.yul\":17403:17467   */\n      tag_313\n        /* \"#utility.yul\":17459:17466   */\n      dup9\n        /* \"#utility.yul\":17450:17456   */\n      dup3\n        /* \"#utility.yul\":17439:17448   */\n      dup10\n        /* \"#utility.yul\":17435:17457   */\n      add\n        /* \"#utility.yul\":17403:17467   */\n      tag_116\n      jump\t// in\n    tag_313:\n        /* \"#utility.yul\":17393:17467   */\n      swap4\n      pop\n        /* \"#utility.yul\":17348:17477   */\n      pop\n        /* \"#utility.yul\":17516:17518   */\n      0x60\n        /* \"#utility.yul\":17542:17606   */\n      tag_314\n        /* \"#utility.yul\":17598:17605   */\n      dup9\n        /* \"#utility.yul\":17589:17595   */\n      dup3\n        /* \"#utility.yul\":17578:17587   */\n      dup10\n        /* \"#utility.yul\":17574:17596   */\n      add\n        /* \"#utility.yul\":17542:17606   */\n      tag_116\n      jump\t// in\n    tag_314:\n        /* \"#utility.yul\":17532:17606   */\n      swap3\n      pop\n        /* \"#utility.yul\":17487:17616   */\n      pop\n        /* \"#utility.yul\":17655:17658   */\n      0x80\n        /* \"#utility.yul\":17682:17745   */\n      tag_315\n        /* \"#utility.yul\":17737:17744   */\n      dup9\n        /* \"#utility.yul\":17728:17734   */\n      dup3\n        /* \"#utility.yul\":17717:17726   */\n      dup10\n        /* \"#utility.yul\":17713:17735   */\n      add\n        /* \"#utility.yul\":17682:17745   */\n      tag_112\n      jump\t// in\n    tag_315:\n        /* \"#utility.yul\":17672:17745   */\n      swap2\n      pop\n        /* \"#utility.yul\":17626:17755   */\n      pop\n        /* \"#utility.yul\":16791:17762   */\n      swap3\n      swap6\n      pop\n      swap3\n      swap6\n      swap1\n      swap4\n      pop\n      jump\t// out\n\n    auxdata: 0xa26469706673582212202b440b9a86c4dd9f1349c4fb12214fd037ba54ac894537440464481c990c3ec064736f6c634300081e0033\n}\n",
				"bytecode": {
					"linkReferences": {},
					"object": "6080604052348015600e575f5ffd5b50610eb98061001c5f395ff3fe60806040526004361061003e575f3560e01c80635854dd21146100425780636598c03e146100855780636b69a592146100ad578063d63dc661146100d7575b5f5ffd5b34801561004d575f5ffd5b5061006860048036038101906100639190610634565b6100e1565b60405161007c98979695949392919061074c565b60405180910390f35b348015610090575f5ffd5b506100ab60048036038101906100a69190610856565b610207565b005b3480156100b8575f5ffd5b506100c16103a9565b6040516100ce91906108c7565b60405180910390f35b6100df6103b5565b005b5f818051602081018201805184825260208301602085012081835280955050505050505f91509050805f0180546101179061090d565b80601f01602080910402602001604051908101604052809291908181526020018280546101439061090d565b801561018e5780601f106101655761010080835404028352916020019161018e565b820191905f5260205f20905b81548152906001019060200180831161017157829003601f168201915b505050505090806001015f9054906101000a900473ffffffffffffffffffffffffffffffffffffffff1690806002015490806003015490806004015490806006015f9054906101000a900460ff16908060060160019054906101000a900460ff16908060060160029054906101000a900460ff16905088565b5f5f858560405161021992919061096b565b908152602001604051809103902090508484825f01918261023b929190610b2d565b5033816001015f6101000a81548173ffffffffffffffffffffffffffffffffffffffff021916908373ffffffffffffffffffffffffffffffffffffffff16021790555082816002018190555081426102939190610c27565b81600301819055506001816006015f6101000a81548160ff0219169083151502179055505f8160060160016101000a81548160ff0219169083151502179055505f8160060160026101000a81548160ff0219169083151502179055505f60405180604001604052803373ffffffffffffffffffffffffffffffffffffffff1681526020015f81525090508160050181908060018154018082558091505060019003905f5260205f2090600202015f909190919091505f820151815f015f6101000a81548173ffffffffffffffffffffffffffffffffffffffff021916908373ffffffffffffffffffffffffffffffffffffffff1602179055506020820151816001015550505f8260040181905550505050505050565b674563918244f4000081565b674563918244f400006103c73461040a565b1015610408576040517f35dcd6780000000000000000000000000000000000000000000000000000000081526004016103ff90610cca565b60405180910390fd5b565b5f5f610414610442565b90505f670de0b6b3a7640000848361042c9190610ce8565b6104369190610d56565b90508092505050919050565b5f5f73694aa1769357215de4fac081bf1f309adc32530690505f8173ffffffffffffffffffffffffffffffffffffffff1663feaf968c6040518163ffffffff1660e01b815260040160a060405180830381865afa1580156104a5573d5f5f3e3d5ffd5b505050506040513d601f19601f820116820180604052508101906104c99190610e0c565b5050509150506402540be400816104e09190610ce8565b9250505090565b5f604051905090565b5f5ffd5b5f5ffd5b5f5ffd5b5f5ffd5b5f601f19601f8301169050919050565b7f4e487b71000000000000000000000000000000000000000000000000000000005f52604160045260245ffd5b61054682610500565b810181811067ffffffffffffffff8211171561056557610564610510565b5b80604052505050565b5f6105776104e7565b9050610583828261053d565b919050565b5f67ffffffffffffffff8211156105a2576105a1610510565b5b6105ab82610500565b9050602081019050919050565b828183375f83830152505050565b5f6105d86105d384610588565b61056e565b9050828152602081018484840111156105f4576105f36104fc565b5b6105ff8482856105b8565b509392505050565b5f82601f83011261061b5761061a6104f8565b5b813561062b8482602086016105c6565b91505092915050565b5f60208284031215610649576106486104f0565b5b5f82013567ffffffffffffffff811115610666576106656104f4565b5b61067284828501610607565b91505092915050565b5f81519050919050565b5f82825260208201905092915050565b8281835e5f83830152505050565b5f6106ad8261067b565b6106b78185610685565b93506106c7818560208601610695565b6106d081610500565b840191505092915050565b5f73ffffffffffffffffffffffffffffffffffffffff82169050919050565b5f610704826106db565b9050919050565b610714816106fa565b82525050565b5f819050919050565b61072c8161071a565b82525050565b5f8115159050919050565b61074681610732565b82525050565b5f610100820190508181035f830152610765818b6106a3565b9050610774602083018a61070b565b6107816040830189610723565b61078e6060830188610723565b61079b6080830187610723565b6107a860a083018661073d565b6107b560c083018561073d565b6107c260e083018461073d565b9998505050505050505050565b5f5ffd5b5f5ffd5b5f5f83601f8401126107ec576107eb6104f8565b5b8235905067ffffffffffffffff811115610809576108086107cf565b5b602083019150836001820283011115610825576108246107d3565b5b9250929050565b6108358161071a565b811461083f575f5ffd5b50565b5f813590506108508161082c565b92915050565b5f5f5f5f6060858703121561086e5761086d6104f0565b5b5f85013567ffffffffffffffff81111561088b5761088a6104f4565b5b610897878288016107d7565b945094505060206108aa87828801610842565b92505060406108bb87828801610842565b91505092959194509250565b5f6020820190506108da5f830184610723565b92915050565b7f4e487b71000000000000000000000000000000000000000000000000000000005f52602260045260245ffd5b5f600282049050600182168061092457607f821691505b602082108103610937576109366108e0565b5b50919050565b5f81905092915050565b5f610952838561093d565b935061095f8385846105b8565b82840190509392505050565b5f610977828486610947565b91508190509392505050565b5f82905092915050565b5f819050815f5260205f209050919050565b5f6020601f8301049050919050565b5f82821b905092915050565b5f600883026109e97fffffffffffffffffffffffffffffffffffffffffffffffffffffffffffffffff826109ae565b6109f386836109ae565b95508019841693508086168417925050509392505050565b5f819050919050565b5f610a2e610a29610a248461071a565b610a0b565b61071a565b9050919050565b5f819050919050565b610a4783610a14565b610a5b610a5382610a35565b8484546109ba565b825550505050565b5f5f905090565b610a72610a63565b610a7d818484610a3e565b505050565b5b81811015610aa057610a955f82610a6a565b600181019050610a83565b5050565b601f821115610ae557610ab68161098d565b610abf8461099f565b81016020851015610ace578190505b610ae2610ada8561099f565b830182610a82565b50505b505050565b5f82821c905092915050565b5f610b055f1984600802610aea565b1980831691505092915050565b5f610b1d8383610af6565b9150826002028217905092915050565b610b378383610983565b67ffffffffffffffff811115610b5057610b4f610510565b5b610b5a825461090d565b610b65828285610aa4565b5f601f831160018114610b92575f8415610b80578287013590505b610b8a8582610b12565b865550610bf1565b601f198416610ba08661098d565b5f5b82811015610bc757848901358255600182019150602085019450602081019050610ba2565b86831015610be45784890135610be0601f891682610af6565b8355505b6001600288020188555050505b50505050505050565b7f4e487b71000000000000000000000000000000000000000000000000000000005f52601160045260245ffd5b5f610c318261071a565b9150610c3c8361071a565b9250828201905080821115610c5457610c53610bfa565b5b92915050565b7f53656e74204554482069732062656c6f77206d696e696d756d207265717569725f8201527f656d656e74000000000000000000000000000000000000000000000000000000602082015250565b5f610cb4602583610685565b9150610cbf82610c5a565b604082019050919050565b5f6020820190508181035f830152610ce181610ca8565b9050919050565b5f610cf28261071a565b9150610cfd8361071a565b9250828202610d0b8161071a565b91508282048414831517610d2257610d21610bfa565b5b5092915050565b7f4e487b71000000000000000000000000000000000000000000000000000000005f52601260045260245ffd5b5f610d608261071a565b9150610d6b8361071a565b925082610d7b57610d7a610d29565b5b828204905092915050565b5f69ffffffffffffffffffff82169050919050565b610da481610d86565b8114610dae575f5ffd5b50565b5f81519050610dbf81610d9b565b92915050565b5f819050919050565b610dd781610dc5565b8114610de1575f5ffd5b50565b5f81519050610df281610dce565b92915050565b5f81519050610e068161082c565b92915050565b5f5f5f5f5f60a08688031215610e2557610e246104f0565b5b5f610e3288828901610db1565b9550506020610e4388828901610de4565b9450506040610e5488828901610df8565b9350506060610e6588828901610df8565b9250506080610e7688828901610db1565b915050929550929590935056fea26469706673582212202b440b9a86c4dd9f1349c4fb12214fd037ba54ac894537440464481c990c3ec064736f6c634300081e0033",
					"opcodes": "PUSH1 0x80 PUSH1 0x40 MSTORE CALLVALUE DUP1 ISZERO PUSH1 0xE JUMPI PUSH0 PUSH0 REVERT JUMPDEST POP PUSH2 0xEB9 DUP1 PUSH2 0x1C PUSH0 CODECOPY PUSH0 RETURN INVALID PUSH1 0x80 PUSH1 0x40 MSTORE PUSH1 0x4 CALLDATASIZE LT PUSH2 0x3E JUMPI PUSH0 CALLDATALOAD PUSH1 0xE0 SHR DUP1 PUSH4 0x5854DD21 EQ PUSH2 0x42 JUMPI DUP1 PUSH4 0x6598C03E EQ PUSH2 0x85 JUMPI DUP1 PUSH4 0x6B69A592 EQ PUSH2 0xAD JUMPI DUP1 PUSH4 0xD63DC661 EQ PUSH2 0xD7 JUMPI JUMPDEST PUSH0 PUSH0 REVERT JUMPDEST CALLVALUE DUP1 ISZERO PUSH2 0x4D JUMPI PUSH0 PUSH0 REVERT JUMPDEST POP PUSH2 0x68 PUSH1 0x4 DUP1 CALLDATASIZE SUB DUP2 ADD SWAP1 PUSH2 0x63 SWAP2 SWAP1 PUSH2 0x634 JUMP JUMPDEST PUSH2 0xE1 JUMP JUMPDEST PUSH1 0x40 MLOAD PUSH2 0x7C SWAP9 SWAP8 SWAP7 SWAP6 SWAP5 SWAP4 SWAP3 SWAP2 SWAP1 PUSH2 0x74C JUMP JUMPDEST PUSH1 0x40 MLOAD DUP1 SWAP2 SUB SWAP1 RETURN JUMPDEST CALLVALUE DUP1 ISZERO PUSH2 0x90 JUMPI PUSH0 PUSH0 REVERT JUMPDEST POP PUSH2 0xAB PUSH1 0x4 DUP1 CALLDATASIZE SUB DUP2 ADD SWAP1 PUSH2 0xA6 SWAP2 SWAP1 PUSH2 0x856 JUMP JUMPDEST PUSH2 0x207 JUMP JUMPDEST STOP JUMPDEST CALLVALUE DUP1 ISZERO PUSH2 0xB8 JUMPI PUSH0 PUSH0 REVERT JUMPDEST POP PUSH2 0xC1 PUSH2 0x3A9 JUMP JUMPDEST PUSH1 0x40 MLOAD PUSH2 0xCE SWAP2 SWAP1 PUSH2 0x8C7 JUMP JUMPDEST PUSH1 0x40 MLOAD DUP1 SWAP2 SUB SWAP1 RETURN JUMPDEST PUSH2 0xDF PUSH2 0x3B5 JUMP JUMPDEST STOP JUMPDEST PUSH0 DUP2 DUP1 MLOAD PUSH1 0x20 DUP2 ADD DUP3 ADD DUP1 MLOAD DUP5 DUP3 MSTORE PUSH1 0x20 DUP4 ADD PUSH1 0x20 DUP6 ADD KECCAK256 DUP2 DUP4 MSTORE DUP1 SWAP6 POP POP POP POP POP POP PUSH0 SWAP2 POP SWAP1 POP DUP1 PUSH0 ADD DUP1 SLOAD PUSH2 0x117 SWAP1 PUSH2 0x90D JUMP JUMPDEST DUP1 PUSH1 0x1F ADD PUSH1 0x20 DUP1 SWAP2 DIV MUL PUSH1 0x20 ADD PUSH1 0x40 MLOAD SWAP1 DUP2 ADD PUSH1 0x40 MSTORE DUP1 SWAP3 SWAP2 SWAP1 DUP2 DUP2 MSTORE PUSH1 0x20 ADD DUP3 DUP1 SLOAD PUSH2 0x143 SWAP1 PUSH2 0x90D JUMP JUMPDEST DUP1 ISZERO PUSH2 0x18E JUMPI DUP1 PUSH1 0x1F LT PUSH2 0x165 JUMPI PUSH2 0x100 DUP1 DUP4 SLOAD DIV MUL DUP4 MSTORE SWAP2 PUSH1 0x20 ADD SWAP2 PUSH2 0x18E JUMP JUMPDEST DUP3 ADD SWAP2 SWAP1 PUSH0 MSTORE PUSH1 0x20 PUSH0 KECCAK256 SWAP1 JUMPDEST DUP2 SLOAD DUP2 MSTORE SWAP1 PUSH1 0x1 ADD SWAP1 PUSH1 0x20 ADD DUP1 DUP4 GT PUSH2 0x171 JUMPI DUP3 SWAP1 SUB PUSH1 0x1F AND DUP3 ADD SWAP2 JUMPDEST POP POP POP POP POP SWAP1 DUP1 PUSH1 0x1 ADD PUSH0 SWAP1 SLOAD SWAP1 PUSH2 0x100 EXP SWAP1 DIV PUSH20 0xFFFFFFFFFFFFFFFFFFFFFFFFFFFFFFFFFFFFFFFF AND SWAP1 DUP1 PUSH1 0x2 ADD SLOAD SWAP1 DUP1 PUSH1 0x3 ADD SLOAD SWAP1 DUP1 PUSH1 0x4 ADD SLOAD SWAP1 DUP1 PUSH1 0x6 ADD PUSH0 SWAP1 SLOAD SWAP1 PUSH2 0x100 EXP SWAP1 DIV PUSH1 0xFF AND SWAP1 DUP1 PUSH1 0x6 ADD PUSH1 0x1 SWAP1 SLOAD SWAP1 PUSH2 0x100 EXP SWAP1 DIV PUSH1 0xFF AND SWAP1 DUP1 PUSH1 0x6 ADD PUSH1 0x2 SWAP1 SLOAD SWAP1 PUSH2 0x100 EXP SWAP1 DIV PUSH1 0xFF AND SWAP1 POP DUP9 JUMP JUMPDEST PUSH0 PUSH0 DUP6 DUP6 PUSH1 0x40 MLOAD PUSH2 0x219 SWAP3 SWAP2 SWAP1 PUSH2 0x96B JUMP JUMPDEST SWAP1 DUP2 MSTORE PUSH1 0x20 ADD PUSH1 0x40 MLOAD DUP1 SWAP2 SUB SWAP1 KECCAK256 SWAP1 POP DUP5 DUP5 DUP3 PUSH0 ADD SWAP2 DUP3 PUSH2 0x23B SWAP3 SWAP2 SWAP1 PUSH2 0xB2D JUMP JUMPDEST POP CALLER DUP2 PUSH1 0x1 ADD PUSH0 PUSH2 0x100 EXP DUP2 SLOAD DUP2 PUSH20 0xFFFFFFFFFFFFFFFFFFFFFFFFFFFFFFFFFFFFFFFF MUL NOT AND SWAP1 DUP4 PUSH20 0xFFFFFFFFFFFFFFFFFFFFFFFFFFFFFFFFFFFFFFFF AND MUL OR SWAP1 SSTORE POP DUP3 DUP2 PUSH1 0x2 ADD DUP2 SWAP1 SSTORE POP DUP2 TIMESTAMP PUSH2 0x293 SWAP2 SWAP1 PUSH2 0xC27 JUMP JUMPDEST DUP2 PUSH1 0x3 ADD DUP2 SWAP1 SSTORE POP PUSH1 0x1 DUP2 PUSH1 0x6 ADD PUSH0 PUSH2 0x100 EXP DUP2 SLOAD DUP2 PUSH1 0xFF MUL NOT AND SWAP1 DUP4 ISZERO ISZERO MUL OR SWAP1 SSTORE POP PUSH0 DUP2 PUSH1 0x6 ADD PUSH1 0x1 PUSH2 0x100 EXP DUP2 SLOAD DUP2 PUSH1 0xFF MUL NOT AND SWAP1 DUP4 ISZERO ISZERO MUL OR SWAP1 SSTORE POP PUSH0 DUP2 PUSH1 0x6 ADD PUSH1 0x2 PUSH2 0x100 EXP DUP2 SLOAD DUP2 PUSH1 0xFF MUL NOT AND SWAP1 DUP4 ISZERO ISZERO MUL OR SWAP1 SSTORE POP PUSH0 PUSH1 0x40 MLOAD DUP1 PUSH1 0x40 ADD PUSH1 0x40 MSTORE DUP1 CALLER PUSH20 0xFFFFFFFFFFFFFFFFFFFFFFFFFFFFFFFFFFFFFFFF AND DUP2 MSTORE PUSH1 0x20 ADD PUSH0 DUP2 MSTORE POP SWAP1 POP DUP2 PUSH1 0x5 ADD DUP2 SWAP1 DUP1 PUSH1 0x1 DUP2 SLOAD ADD DUP1 DUP3 SSTORE DUP1 SWAP2 POP POP PUSH1 0x1 SWAP1 SUB SWAP1 PUSH0 MSTORE PUSH1 0x20 PUSH0 KECCAK256 SWAP1 PUSH1 0x2 MUL ADD PUSH0 SWAP1 SWAP2 SWAP1 SWAP2 SWAP1 SWAP2 POP PUSH0 DUP3 ADD MLOAD DUP2 PUSH0 ADD PUSH0 PUSH2 0x100 EXP DUP2 SLOAD DUP2 PUSH20 0xFFFFFFFFFFFFFFFFFFFFFFFFFFFFFFFFFFFFFFFF MUL NOT AND SWAP1 DUP4 PUSH20 0xFFFFFFFFFFFFFFFFFFFFFFFFFFFFFFFFFFFFFFFF AND MUL OR SWAP1 SSTORE POP PUSH1 0x20 DUP3 ADD MLOAD DUP2 PUSH1 0x1 ADD SSTORE POP POP PUSH0 DUP3 PUSH1 0x4 ADD DUP2 SWAP1 SSTORE POP POP POP POP POP POP POP JUMP JUMPDEST PUSH8 0x4563918244F40000 DUP2 JUMP JUMPDEST PUSH8 0x4563918244F40000 PUSH2 0x3C7 CALLVALUE PUSH2 0x40A JUMP JUMPDEST LT ISZERO PUSH2 0x408 JUMPI PUSH1 0x40 MLOAD PUSH32 0x35DCD67800000000000000000000000000000000000000000000000000000000 DUP2 MSTORE PUSH1 0x4 ADD PUSH2 0x3FF SWAP1 PUSH2 0xCCA JUMP JUMPDEST PUSH1 0x40 MLOAD DUP1 SWAP2 SUB SWAP1 REVERT JUMPDEST JUMP JUMPDEST PUSH0 PUSH0 PUSH2 0x414 PUSH2 0x442 JUMP JUMPDEST SWAP1 POP PUSH0 PUSH8 0xDE0B6B3A7640000 DUP5 DUP4 PUSH2 0x42C SWAP2 SWAP1 PUSH2 0xCE8 JUMP JUMPDEST PUSH2 0x436 SWAP2 SWAP1 PUSH2 0xD56 JUMP JUMPDEST SWAP1 POP DUP1 SWAP3 POP POP POP SWAP2 SWAP1 POP JUMP JUMPDEST PUSH0 PUSH0 PUSH20 0x694AA1769357215DE4FAC081BF1F309ADC325306 SWAP1 POP PUSH0 DUP2 PUSH20 0xFFFFFFFFFFFFFFFFFFFFFFFFFFFFFFFFFFFFFFFF AND PUSH4 0xFEAF968C PUSH1 0x40 MLOAD DUP2 PUSH4 0xFFFFFFFF AND PUSH1 0xE0 SHL DUP2 MSTORE PUSH1 0x4 ADD PUSH1 0xA0 PUSH1 0x40 MLOAD DUP1 DUP4 SUB DUP2 DUP7 GAS STATICCALL ISZERO DUP1 ISZERO PUSH2 0x4A5 JUMPI RETURNDATASIZE PUSH0 PUSH0 RETURNDATACOPY RETURNDATASIZE PUSH0 REVERT JUMPDEST POP POP POP POP PUSH1 0x40 MLOAD RETURNDATASIZE PUSH1 0x1F NOT PUSH1 0x1F DUP3 ADD AND DUP3 ADD DUP1 PUSH1 0x40 MSTORE POP DUP2 ADD SWAP1 PUSH2 0x4C9 SWAP2 SWAP1 PUSH2 0xE0C JUMP JUMPDEST POP POP POP SWAP2 POP POP PUSH5 0x2540BE400 DUP2 PUSH2 0x4E0 SWAP2 SWAP1 PUSH2 0xCE8 JUMP JUMPDEST SWAP3 POP POP POP SWAP1 JUMP JUMPDEST PUSH0 PUSH1 0x40 MLOAD SWAP1 POP SWAP1 JUMP JUMPDEST PUSH0 PUSH0 REVERT JUMPDEST PUSH0 PUSH0 REVERT JUMPDEST PUSH0 PUSH0 REVERT JUMPDEST PUSH0 PUSH0 REVERT JUMPDEST PUSH0 PUSH1 0x1F NOT PUSH1 0x1F DUP4 ADD AND SWAP1 POP SWAP2 SWAP1 POP JUMP JUMPDEST PUSH32 0x4E487B7100000000000000000000000000000000000000000000000000000000 PUSH0 MSTORE PUSH1 0x41 PUSH1 0x4 MSTORE PUSH1 0x24 PUSH0 REVERT JUMPDEST PUSH2 0x546 DUP3 PUSH2 0x500 JUMP JUMPDEST DUP2 ADD DUP2 DUP2 LT PUSH8 0xFFFFFFFFFFFFFFFF DUP3 GT OR ISZERO PUSH2 0x565 JUMPI PUSH2 0x564 PUSH2 0x510 JUMP JUMPDEST JUMPDEST DUP1 PUSH1 0x40 MSTORE POP POP POP JUMP JUMPDEST PUSH0 PUSH2 0x577 PUSH2 0x4E7 JUMP JUMPDEST SWAP1 POP PUSH2 0x583 DUP3 DUP3 PUSH2 0x53D JUMP JUMPDEST SWAP2 SWAP1 POP JUMP JUMPDEST PUSH0 PUSH8 0xFFFFFFFFFFFFFFFF DUP3 GT ISZERO PUSH2 0x5A2 JUMPI PUSH2 0x5A1 PUSH2 0x510 JUMP JUMPDEST JUMPDEST PUSH2 0x5AB DUP3 PUSH2 0x500 JUMP JUMPDEST SWAP1 POP PUSH1 0x20 DUP2 ADD SWAP1 POP SWAP2 SWAP1 POP JUMP JUMPDEST DUP3 DUP2 DUP4 CALLDATACOPY PUSH0 DUP4 DUP4 ADD MSTORE POP POP POP JUMP JUMPDEST PUSH0 PUSH2 0x5D8 PUSH2 0x5D3 DUP5 PUSH2 0x588 JUMP JUMPDEST PUSH2 0x56E JUMP JUMPDEST SWAP1 POP DUP3 DUP2 MSTORE PUSH1 0x20 DUP2 ADD DUP5 DUP5 DUP5 ADD GT ISZERO PUSH2 0x5F4 JUMPI PUSH2 0x5F3 PUSH2 0x4FC JUMP JUMPDEST JUMPDEST PUSH2 0x5FF DUP5 DUP3 DUP6 PUSH2 0x5B8 JUMP JUMPDEST POP SWAP4 SWAP3 POP POP POP JUMP JUMPDEST PUSH0 DUP3 PUSH1 0x1F DUP4 ADD SLT PUSH2 0x61B JUMPI PUSH2 0x61A PUSH2 0x4F8 JUMP JUMPDEST JUMPDEST DUP2 CALLDATALOAD PUSH2 0x62B DUP5 DUP3 PUSH1 0x20 DUP7 ADD PUSH2 0x5C6 JUMP JUMPDEST SWAP2 POP POP SWAP3 SWAP2 POP POP JUMP JUMPDEST PUSH0 PUSH1 0x20 DUP3 DUP5 SUB SLT ISZERO PUSH2 0x649 JUMPI PUSH2 0x648 PUSH2 0x4F0 JUMP JUMPDEST JUMPDEST PUSH0 DUP3 ADD CALLDATALOAD PUSH8 0xFFFFFFFFFFFFFFFF DUP2 GT ISZERO PUSH2 0x666 JUMPI PUSH2 0x665 PUSH2 0x4F4 JUMP JUMPDEST JUMPDEST PUSH2 0x672 DUP5 DUP3 DUP6 ADD PUSH2 0x607 JUMP JUMPDEST SWAP2 POP POP SWAP3 SWAP2 POP POP JUMP JUMPDEST PUSH0 DUP2 MLOAD SWAP1 POP SWAP2 SWAP1 POP JUMP JUMPDEST PUSH0 DUP3 DUP3 MSTORE PUSH1 0x20 DUP3 ADD SWAP1 POP SWAP3 SWAP2 POP POP JUMP JUMPDEST DUP3 DUP2 DUP4 MCOPY PUSH0 DUP4 DUP4 ADD MSTORE POP POP POP JUMP JUMPDEST PUSH0 PUSH2 0x6AD DUP3 PUSH2 0x67B JUMP JUMPDEST PUSH2 0x6B7 DUP2 DUP6 PUSH2 0x685 JUMP JUMPDEST SWAP4 POP PUSH2 0x6C7 DUP2 DUP6 PUSH1 0x20 DUP7 ADD PUSH2 0x695 JUMP JUMPDEST PUSH2 0x6D0 DUP2 PUSH2 0x500 JUMP JUMPDEST DUP5 ADD SWAP2 POP POP SWAP3 SWAP2 POP POP JUMP JUMPDEST PUSH0 PUSH20 0xFFFFFFFFFFFFFFFFFFFFFFFFFFFFFFFFFFFFFFFF DUP3 AND SWAP1 POP SWAP2 SWAP1 POP JUMP JUMPDEST PUSH0 PUSH2 0x704 DUP3 PUSH2 0x6DB JUMP JUMPDEST SWAP1 POP SWAP2 SWAP1 POP JUMP JUMPDEST PUSH2 0x714 DUP2 PUSH2 0x6FA JUMP JUMPDEST DUP3 MSTORE POP POP JUMP JUMPDEST PUSH0 DUP2 SWAP1 POP SWAP2 SWAP1 POP JUMP JUMPDEST PUSH2 0x72C DUP2 PUSH2 0x71A JUMP JUMPDEST DUP3 MSTORE POP POP JUMP JUMPDEST PUSH0 DUP2 ISZERO ISZERO SWAP1 POP SWAP2 SWAP1 POP JUMP JUMPDEST PUSH2 0x746 DUP2 PUSH2 0x732 JUMP JUMPDEST DUP3 MSTORE POP POP JUMP JUMPDEST PUSH0 PUSH2 0x100 DUP3 ADD SWAP1 POP DUP2 DUP2 SUB PUSH0 DUP4 ADD MSTORE PUSH2 0x765 DUP2 DUP12 PUSH2 0x6A3 JUMP JUMPDEST SWAP1 POP PUSH2 0x774 PUSH1 0x20 DUP4 ADD DUP11 PUSH2 0x70B JUMP JUMPDEST PUSH2 0x781 PUSH1 0x40 DUP4 ADD DUP10 PUSH2 0x723 JUMP JUMPDEST PUSH2 0x78E PUSH1 0x60 DUP4 ADD DUP9 PUSH2 0x723 JUMP JUMPDEST PUSH2 0x79B PUSH1 0x80 DUP4 ADD DUP8 PUSH2 0x723 JUMP JUMPDEST PUSH2 0x7A8 PUSH1 0xA0 DUP4 ADD DUP7 PUSH2 0x73D JUMP JUMPDEST PUSH2 0x7B5 PUSH1 0xC0 DUP4 ADD DUP6 PUSH2 0x73D JUMP JUMPDEST PUSH2 0x7C2 PUSH1 0xE0 DUP4 ADD DUP5 PUSH2 0x73D JUMP JUMPDEST SWAP10 SWAP9 POP POP POP POP POP POP POP POP POP JUMP JUMPDEST PUSH0 PUSH0 REVERT JUMPDEST PUSH0 PUSH0 REVERT JUMPDEST PUSH0 PUSH0 DUP4 PUSH1 0x1F DUP5 ADD SLT PUSH2 0x7EC JUMPI PUSH2 0x7EB PUSH2 0x4F8 JUMP JUMPDEST JUMPDEST DUP3 CALLDATALOAD SWAP1 POP PUSH8 0xFFFFFFFFFFFFFFFF DUP2 GT ISZERO PUSH2 0x809 JUMPI PUSH2 0x808 PUSH2 0x7CF JUMP JUMPDEST JUMPDEST PUSH1 0x20 DUP4 ADD SWAP2 POP DUP4 PUSH1 0x1 DUP3 MUL DUP4 ADD GT ISZERO PUSH2 0x825 JUMPI PUSH2 0x824 PUSH2 0x7D3 JUMP JUMPDEST JUMPDEST SWAP3 POP SWAP3 SWAP1 POP JUMP JUMPDEST PUSH2 0x835 DUP2 PUSH2 0x71A JUMP JUMPDEST DUP2 EQ PUSH2 0x83F JUMPI PUSH0 PUSH0 REVERT JUMPDEST POP JUMP JUMPDEST PUSH0 DUP2 CALLDATALOAD SWAP1 POP PUSH2 0x850 DUP2 PUSH2 0x82C JUMP JUMPDEST SWAP3 SWAP2 POP POP JUMP JUMPDEST PUSH0 PUSH0 PUSH0 PUSH0 PUSH1 0x60 DUP6 DUP8 SUB SLT ISZERO PUSH2 0x86E JUMPI PUSH2 0x86D PUSH2 0x4F0 JUMP JUMPDEST JUMPDEST PUSH0 DUP6 ADD CALLDATALOAD PUSH8 0xFFFFFFFFFFFFFFFF DUP2 GT ISZERO PUSH2 0x88B JUMPI PUSH2 0x88A PUSH2 0x4F4 JUMP JUMPDEST JUMPDEST PUSH2 0x897 DUP8 DUP3 DUP9 ADD PUSH2 0x7D7 JUMP JUMPDEST SWAP5 POP SWAP5 POP POP PUSH1 0x20 PUSH2 0x8AA DUP8 DUP3 DUP9 ADD PUSH2 0x842 JUMP JUMPDEST SWAP3 POP POP PUSH1 0x40 PUSH2 0x8BB DUP8 DUP3 DUP9 ADD PUSH2 0x842 JUMP JUMPDEST SWAP2 POP POP SWAP3 SWAP6 SWAP2 SWAP5 POP SWAP3 POP JUMP JUMPDEST PUSH0 PUSH1 0x20 DUP3 ADD SWAP1 POP PUSH2 0x8DA PUSH0 DUP4 ADD DUP5 PUSH2 0x723 JUMP JUMPDEST SWAP3 SWAP2 POP POP JUMP JUMPDEST PUSH32 0x4E487B7100000000000000000000000000000000000000000000000000000000 PUSH0 MSTORE PUSH1 0x22 PUSH1 0x4 MSTORE PUSH1 0x24 PUSH0 REVERT JUMPDEST PUSH0 PUSH1 0x2 DUP3 DIV SWAP1 POP PUSH1 0x1 DUP3 AND DUP1 PUSH2 0x924 JUMPI PUSH1 0x7F DUP3 AND SWAP2 POP JUMPDEST PUSH1 0x20 DUP3 LT DUP2 SUB PUSH2 0x937 JUMPI PUSH2 0x936 PUSH2 0x8E0 JUMP JUMPDEST JUMPDEST POP SWAP2 SWAP1 POP JUMP JUMPDEST PUSH0 DUP2 SWAP1 POP SWAP3 SWAP2 POP POP JUMP JUMPDEST PUSH0 PUSH2 0x952 DUP4 DUP6 PUSH2 0x93D JUMP JUMPDEST SWAP4 POP PUSH2 0x95F DUP4 DUP6 DUP5 PUSH2 0x5B8 JUMP JUMPDEST DUP3 DUP5 ADD SWAP1 POP SWAP4 SWAP3 POP POP POP JUMP JUMPDEST PUSH0 PUSH2 0x977 DUP3 DUP5 DUP7 PUSH2 0x947 JUMP JUMPDEST SWAP2 POP DUP2 SWAP1 POP SWAP4 SWAP3 POP POP POP JUMP JUMPDEST PUSH0 DUP3 SWAP1 POP SWAP3 SWAP2 POP POP JUMP JUMPDEST PUSH0 DUP2 SWAP1 POP DUP2 PUSH0 MSTORE PUSH1 0x20 PUSH0 KECCAK256 SWAP1 POP SWAP2 SWAP1 POP JUMP JUMPDEST PUSH0 PUSH1 0x20 PUSH1 0x1F DUP4 ADD DIV SWAP1 POP SWAP2 SWAP1 POP JUMP JUMPDEST PUSH0 DUP3 DUP3 SHL SWAP1 POP SWAP3 SWAP2 POP POP JUMP JUMPDEST PUSH0 PUSH1 0x8 DUP4 MUL PUSH2 0x9E9 PUSH32 0xFFFFFFFFFFFFFFFFFFFFFFFFFFFFFFFFFFFFFFFFFFFFFFFFFFFFFFFFFFFFFFFF DUP3 PUSH2 0x9AE JUMP JUMPDEST PUSH2 0x9F3 DUP7 DUP4 PUSH2 0x9AE JUMP JUMPDEST SWAP6 POP DUP1 NOT DUP5 AND SWAP4 POP DUP1 DUP7 AND DUP5 OR SWAP3 POP POP POP SWAP4 SWAP3 POP POP POP JUMP JUMPDEST PUSH0 DUP2 SWAP1 POP SWAP2 SWAP1 POP JUMP JUMPDEST PUSH0 PUSH2 0xA2E PUSH2 0xA29 PUSH2 0xA24 DUP5 PUSH2 0x71A JUMP JUMPDEST PUSH2 0xA0B JUMP JUMPDEST PUSH2 0x71A JUMP JUMPDEST SWAP1 POP SWAP2 SWAP1 POP JUMP JUMPDEST PUSH0 DUP2 SWAP1 POP SWAP2 SWAP1 POP JUMP JUMPDEST PUSH2 0xA47 DUP4 PUSH2 0xA14 JUMP JUMPDEST PUSH2 0xA5B PUSH2 0xA53 DUP3 PUSH2 0xA35 JUMP JUMPDEST DUP5 DUP5 SLOAD PUSH2 0x9BA JUMP JUMPDEST DUP3 SSTORE POP POP POP POP JUMP JUMPDEST PUSH0 PUSH0 SWAP1 POP SWAP1 JUMP JUMPDEST PUSH2 0xA72 PUSH2 0xA63 JUMP JUMPDEST PUSH2 0xA7D DUP2 DUP5 DUP5 PUSH2 0xA3E JUMP JUMPDEST POP POP POP JUMP JUMPDEST JUMPDEST DUP2 DUP2 LT ISZERO PUSH2 0xAA0 JUMPI PUSH2 0xA95 PUSH0 DUP3 PUSH2 0xA6A JUMP JUMPDEST PUSH1 0x1 DUP2 ADD SWAP1 POP PUSH2 0xA83 JUMP JUMPDEST POP POP JUMP JUMPDEST PUSH1 0x1F DUP3 GT ISZERO PUSH2 0xAE5 JUMPI PUSH2 0xAB6 DUP2 PUSH2 0x98D JUMP JUMPDEST PUSH2 0xABF DUP5 PUSH2 0x99F JUMP JUMPDEST DUP2 ADD PUSH1 0x20 DUP6 LT ISZERO PUSH2 0xACE JUMPI DUP2 SWAP1 POP JUMPDEST PUSH2 0xAE2 PUSH2 0xADA DUP6 PUSH2 0x99F JUMP JUMPDEST DUP4 ADD DUP3 PUSH2 0xA82 JUMP JUMPDEST POP POP JUMPDEST POP POP POP JUMP JUMPDEST PUSH0 DUP3 DUP3 SHR SWAP1 POP SWAP3 SWAP2 POP POP JUMP JUMPDEST PUSH0 PUSH2 0xB05 PUSH0 NOT DUP5 PUSH1 0x8 MUL PUSH2 0xAEA JUMP JUMPDEST NOT DUP1 DUP4 AND SWAP2 POP POP SWAP3 SWAP2 POP POP JUMP JUMPDEST PUSH0 PUSH2 0xB1D DUP4 DUP4 PUSH2 0xAF6 JUMP JUMPDEST SWAP2 POP DUP3 PUSH1 0x2 MUL DUP3 OR SWAP1 POP SWAP3 SWAP2 POP POP JUMP JUMPDEST PUSH2 0xB37 DUP4 DUP4 PUSH2 0x983 JUMP JUMPDEST PUSH8 0xFFFFFFFFFFFFFFFF DUP2 GT ISZERO PUSH2 0xB50 JUMPI PUSH2 0xB4F PUSH2 0x510 JUMP JUMPDEST JUMPDEST PUSH2 0xB5A DUP3 SLOAD PUSH2 0x90D JUMP JUMPDEST PUSH2 0xB65 DUP3 DUP3 DUP6 PUSH2 0xAA4 JUMP JUMPDEST PUSH0 PUSH1 0x1F DUP4 GT PUSH1 0x1 DUP2 EQ PUSH2 0xB92 JUMPI PUSH0 DUP5 ISZERO PUSH2 0xB80 JUMPI DUP3 DUP8 ADD CALLDATALOAD SWAP1 POP JUMPDEST PUSH2 0xB8A DUP6 DUP3 PUSH2 0xB12 JUMP JUMPDEST DUP7 SSTORE POP PUSH2 0xBF1 JUMP JUMPDEST PUSH1 0x1F NOT DUP5 AND PUSH2 0xBA0 DUP7 PUSH2 0x98D JUMP JUMPDEST PUSH0 JUMPDEST DUP3 DUP2 LT ISZERO PUSH2 0xBC7 JUMPI DUP5 DUP10 ADD CALLDATALOAD DUP3 SSTORE PUSH1 0x1 DUP3 ADD SWAP2 POP PUSH1 0x20 DUP6 ADD SWAP5 POP PUSH1 0x20 DUP2 ADD SWAP1 POP PUSH2 0xBA2 JUMP JUMPDEST DUP7 DUP4 LT ISZERO PUSH2 0xBE4 JUMPI DUP5 DUP10 ADD CALLDATALOAD PUSH2 0xBE0 PUSH1 0x1F DUP10 AND DUP3 PUSH2 0xAF6 JUMP JUMPDEST DUP4 SSTORE POP JUMPDEST PUSH1 0x1 PUSH1 0x2 DUP9 MUL ADD DUP9 SSTORE POP POP POP JUMPDEST POP POP POP POP POP POP POP JUMP JUMPDEST PUSH32 0x4E487B7100000000000000000000000000000000000000000000000000000000 PUSH0 MSTORE PUSH1 0x11 PUSH1 0x4 MSTORE PUSH1 0x24 PUSH0 REVERT JUMPDEST PUSH0 PUSH2 0xC31 DUP3 PUSH2 0x71A JUMP JUMPDEST SWAP2 POP PUSH2 0xC3C DUP4 PUSH2 0x71A JUMP JUMPDEST SWAP3 POP DUP3 DUP3 ADD SWAP1 POP DUP1 DUP3 GT ISZERO PUSH2 0xC54 JUMPI PUSH2 0xC53 PUSH2 0xBFA JUMP JUMPDEST JUMPDEST SWAP3 SWAP2 POP POP JUMP JUMPDEST PUSH32 0x53656E74204554482069732062656C6F77206D696E696D756D20726571756972 PUSH0 DUP3 ADD MSTORE PUSH32 0x656D656E74000000000000000000000000000000000000000000000000000000 PUSH1 0x20 DUP3 ADD MSTORE POP JUMP JUMPDEST PUSH0 PUSH2 0xCB4 PUSH1 0x25 DUP4 PUSH2 0x685 JUMP JUMPDEST SWAP2 POP PUSH2 0xCBF DUP3 PUSH2 0xC5A JUMP JUMPDEST PUSH1 0x40 DUP3 ADD SWAP1 POP SWAP2 SWAP1 POP JUMP JUMPDEST PUSH0 PUSH1 0x20 DUP3 ADD SWAP1 POP DUP2 DUP2 SUB PUSH0 DUP4 ADD MSTORE PUSH2 0xCE1 DUP2 PUSH2 0xCA8 JUMP JUMPDEST SWAP1 POP SWAP2 SWAP1 POP JUMP JUMPDEST PUSH0 PUSH2 0xCF2 DUP3 PUSH2 0x71A JUMP JUMPDEST SWAP2 POP PUSH2 0xCFD DUP4 PUSH2 0x71A JUMP JUMPDEST SWAP3 POP DUP3 DUP3 MUL PUSH2 0xD0B DUP2 PUSH2 0x71A JUMP JUMPDEST SWAP2 POP DUP3 DUP3 DIV DUP5 EQ DUP4 ISZERO OR PUSH2 0xD22 JUMPI PUSH2 0xD21 PUSH2 0xBFA JUMP JUMPDEST JUMPDEST POP SWAP3 SWAP2 POP POP JUMP JUMPDEST PUSH32 0x4E487B7100000000000000000000000000000000000000000000000000000000 PUSH0 MSTORE PUSH1 0x12 PUSH1 0x4 MSTORE PUSH1 0x24 PUSH0 REVERT JUMPDEST PUSH0 PUSH2 0xD60 DUP3 PUSH2 0x71A JUMP JUMPDEST SWAP2 POP PUSH2 0xD6B DUP4 PUSH2 0x71A JUMP JUMPDEST SWAP3 POP DUP3 PUSH2 0xD7B JUMPI PUSH2 0xD7A PUSH2 0xD29 JUMP JUMPDEST JUMPDEST DUP3 DUP3 DIV SWAP1 POP SWAP3 SWAP2 POP POP JUMP JUMPDEST PUSH0 PUSH10 0xFFFFFFFFFFFFFFFFFFFF DUP3 AND SWAP1 POP SWAP2 SWAP1 POP JUMP JUMPDEST PUSH2 0xDA4 DUP2 PUSH2 0xD86 JUMP JUMPDEST DUP2 EQ PUSH2 0xDAE JUMPI PUSH0 PUSH0 REVERT JUMPDEST POP JUMP JUMPDEST PUSH0 DUP2 MLOAD SWAP1 POP PUSH2 0xDBF DUP2 PUSH2 0xD9B JUMP JUMPDEST SWAP3 SWAP2 POP POP JUMP JUMPDEST PUSH0 DUP2 SWAP1 POP SWAP2 SWAP1 POP JUMP JUMPDEST PUSH2 0xDD7 DUP2 PUSH2 0xDC5 JUMP JUMPDEST DUP2 EQ PUSH2 0xDE1 JUMPI PUSH0 PUSH0 REVERT JUMPDEST POP JUMP JUMPDEST PUSH0 DUP2 MLOAD SWAP1 POP PUSH2 0xDF2 DUP2 PUSH2 0xDCE JUMP JUMPDEST SWAP3 SWAP2 POP POP JUMP JUMPDEST PUSH0 DUP2 MLOAD SWAP1 POP PUSH2 0xE06 DUP2 PUSH2 0x82C JUMP JUMPDEST SWAP3 SWAP2 POP POP JUMP JUMPDEST PUSH0 PUSH0 PUSH0 PUSH0 PUSH0 PUSH1 0xA0 DUP7 DUP9 SUB SLT ISZERO PUSH2 0xE25 JUMPI PUSH2 0xE24 PUSH2 0x4F0 JUMP JUMPDEST JUMPDEST PUSH0 PUSH2 0xE32 DUP9 DUP3 DUP10 ADD PUSH2 0xDB1 JUMP JUMPDEST SWAP6 POP POP PUSH1 0x20 PUSH2 0xE43 DUP9 DUP3 DUP10 ADD PUSH2 0xDE4 JUMP JUMPDEST SWAP5 POP POP PUSH1 0x40 PUSH2 0xE54 DUP9 DUP3 DUP10 ADD PUSH2 0xDF8 JUMP JUMPDEST SWAP4 POP POP PUSH1 0x60 PUSH2 0xE65 DUP9 DUP3 DUP10 ADD PUSH2 0xDF8 JUMP JUMPDEST SWAP3 POP POP PUSH1 0x80 PUSH2 0xE76 DUP9 DUP3 DUP10 ADD PUSH2 0xDB1 JUMP JUMPDEST SWAP2 POP POP SWAP3 SWAP6 POP SWAP3 SWAP6 SWAP1 SWAP4 POP JUMP INVALID LOG2 PUSH5 0x6970667358 0x22 SLT KECCAK256 0x2B PREVRANDAO SIGNEXTEND SWAP11 DUP7 0xC4 0xDD SWAP16 SGT BLOBHASH 0xC4 EXTSTATICCALL SLT 0x21 0x4F 0xD0 CALLDATACOPY 0xBA SLOAD 0xAC DUP10 GASLIMIT CALLDATACOPY PREVRANDAO DIV PUSH5 0x481C990C3E 0xC0 PUSH5 0x736F6C6343 STOP ADDMOD 0x1E STOP CALLER "
				},
				"gasEstimates": {
					"creation": {
						"codeDepositCost": "753800",
						"executionCost": "784",
						"totalCost": "754584"
					},
					"external": {
						"MINIMUM_USD()": "347",
						"createproject(string,uint256,uint256)": "infinite",
						"fundProject()": "infinite",
						"fundRaisingProjects(string)": "infinite"
					}
				},
				"methodIdentifiers": {
					"MINIMUM_USD()": "6b69a592",
					"createproject(string,uint256,uint256)": "6598c03e",
					"fundProject()": "d63dc661",
					"fundRaisingProjects(string)": "5854dd21"
				}
			},
			"storageLayout": {
				"storage": [
					{
						"astId": 119,
						"contract": "crowndfound/raisefund.sol:RaiseFunds",
						"label": "fundRaisingProjects",
						"offset": 0,
						"slot": "0",
						"type": "t_mapping(t_string_memory_ptr,t_struct(Fund_Raise_Info)145_storage)"
					}
				],
				"types": {
					"t_address": {
						"encoding": "inplace",
						"label": "address",
						"numberOfBytes": "20"
					},
					"t_address_payable": {
						"encoding": "inplace",
						"label": "address payable",
						"numberOfBytes": "20"
					},
					"t_array(t_struct(funders)124_storage)dyn_storage": {
						"base": "t_struct(funders)124_storage",
						"encoding": "dynamic_array",
						"label": "struct RaiseFunds.funders[]",
						"numberOfBytes": "32"
					},
					"t_bool": {
						"encoding": "inplace",
						"label": "bool",
						"numberOfBytes": "1"
					},
					"t_mapping(t_string_memory_ptr,t_struct(Fund_Raise_Info)145_storage)": {
						"encoding": "mapping",
						"key": "t_string_memory_ptr",
						"label": "mapping(string => struct RaiseFunds.Fund_Raise_Info)",
						"numberOfBytes": "32",
						"value": "t_struct(Fund_Raise_Info)145_storage"
					},
					"t_string_memory_ptr": {
						"encoding": "bytes",
						"label": "string",
						"numberOfBytes": "32"
					},
					"t_string_storage": {
						"encoding": "bytes",
						"label": "string",
						"numberOfBytes": "32"
					},
					"t_struct(Fund_Raise_Info)145_storage": {
						"encoding": "inplace",
						"label": "struct RaiseFunds.Fund_Raise_Info",
						"members": [
							{
								"astId": 126,
								"contract": "crowndfound/raisefund.sol:RaiseFunds",
								"label": "name",
								"offset": 0,
								"slot": "0",
								"type": "t_string_storage"
							},
							{
								"astId": 128,
								"contract": "crowndfound/raisefund.sol:RaiseFunds",
								"label": "owner",
								"offset": 0,
								"slot": "1",
								"type": "t_address_payable"
							},
							{
								"astId": 130,
								"contract": "crowndfound/raisefund.sol:RaiseFunds",
								"label": "goal",
								"offset": 0,
								"slot": "2",
								"type": "t_uint256"
							},
							{
								"astId": 132,
								"contract": "crowndfound/raisefund.sol:RaiseFunds",
								"label": "deadline",
								"offset": 0,
								"slot": "3",
								"type": "t_uint256"
							},
							{
								"astId": 134,
								"contract": "crowndfound/raisefund.sol:RaiseFunds",
								"label": "totalRaised",
								"offset": 0,
								"slot": "4",
								"type": "t_uint256"
							},
							{
								"astId": 138,
								"contract": "crowndfound/raisefund.sol:RaiseFunds",
								"label": "funder",
								"offset": 0,
								"slot": "5",
								"type": "t_array(t_struct(funders)124_storage)dyn_storage"
							},
							{
								"astId": 140,
								"contract": "crowndfound/raisefund.sol:RaiseFunds",
								"label": "isActive",
								"offset": 0,
								"slot": "6",
								"type": "t_bool"
							},
							{
								"astId": 142,
								"contract": "crowndfound/raisefund.sol:RaiseFunds",
								"label": "isCompleted",
								"offset": 1,
								"slot": "6",
								"type": "t_bool"
							},
							{
								"astId": 144,
								"contract": "crowndfound/raisefund.sol:RaiseFunds",
								"label": "isRefunded",
								"offset": 2,
								"slot": "6",
								"type": "t_bool"
							}
						],
						"numberOfBytes": "224"
					},
					"t_struct(funders)124_storage": {
						"encoding": "inplace",
						"label": "struct RaiseFunds.funders",
						"members": [
							{
								"astId": 121,
								"contract": "crowndfound/raisefund.sol:RaiseFunds",
								"label": "funder",
								"offset": 0,
								"slot": "0",
								"type": "t_address"
							},
							{
								"astId": 123,
								"contract": "crowndfound/raisefund.sol:RaiseFunds",
								"label": "amount",
								"offset": 0,
								"slot": "1",
								"type": "t_uint256"
							}
						],
						"numberOfBytes": "64"
					},
					"t_uint256": {
						"encoding": "inplace",
						"label": "uint256",
						"numberOfBytes": "32"
					}
				}
			},
			"userdoc": {
				"kind": "user",
				"methods": {},
				"version": 1
			}
		}
	}
}