{
	"crowndfound/raisefund.sol": {
		"RaiseFunds": {
			"abi": [
				{
					"inputs": [],
					"stateMutability": "nonpayable",
					"type": "constructor"
				},
				{
					"inputs": [
						{
							"internalType": "string",
							"name": "_message",
							"type": "string"
						}
					],
					"name": "IncreaseAmount",
					"type": "error"
				},
				{
					"inputs": [],
					"name": "MINIMUM_USD",
					"outputs": [
						{
							"internalType": "uint256",
							"name": "",
							"type": "uint256"
						}
					],
					"stateMutability": "view",
					"type": "function"
				},
				{
					"inputs": [
						{
							"internalType": "string",
							"name": "_name",
							"type": "string"
						},
						{
							"internalType": "uint256",
							"name": "_goal",
							"type": "uint256"
						}
					],
					"name": "createproject",
					"outputs": [],
					"stateMutability": "nonpayable",
					"type": "function"
				},
				{
					"inputs": [
						{
							"internalType": "string",
							"name": "_name",
							"type": "string"
						}
					],
					"name": "fundProject",
					"outputs": [],
					"stateMutability": "payable",
					"type": "function"
				},
				{
					"inputs": [
						{
							"internalType": "string",
							"name": "projectname",
							"type": "string"
						}
					],
					"name": "fundRaisingProjects",
					"outputs": [
						{
							"internalType": "string",
							"name": "name",
							"type": "string"
						},
						{
							"internalType": "address payable",
							"name": "owner",
							"type": "address"
						},
						{
							"internalType": "uint256",
							"name": "goal",
							"type": "uint256"
						},
						{
							"internalType": "uint256",
							"name": "totalRaised",
							"type": "uint256"
						},
						{
							"internalType": "bool",
							"name": "isActive",
							"type": "bool"
						},
						{
							"internalType": "bool",
							"name": "isCompleted",
							"type": "bool"
						},
						{
							"internalType": "bool",
							"name": "isRefunded",
							"type": "bool"
						},
						{
							"internalType": "bool",
							"name": "exits",
							"type": "bool"
						}
					],
					"stateMutability": "view",
					"type": "function"
				},
				{
					"inputs": [
						{
							"internalType": "uint256",
							"name": "",
							"type": "uint256"
						}
					],
					"name": "funderinfo",
					"outputs": [
						{
							"internalType": "address",
							"name": "funder",
							"type": "address"
						},
						{
							"internalType": "uint256",
							"name": "amount",
							"type": "uint256"
						}
					],
					"stateMutability": "view",
					"type": "function"
				},
				{
					"inputs": [
						{
							"internalType": "string",
							"name": "_name",
							"type": "string"
						}
					],
					"name": "withdraw_fundRaised",
					"outputs": [],
					"stateMutability": "nonpayable",
					"type": "function"
				}
			],
			"devdoc": {
				"kind": "dev",
				"methods": {},
				"version": 1
			},
			"evm": {
				"assembly": "    /* \"crowndfound/raisefund.sol\":359:4128  contract RaiseFunds {... */\n  mstore(0x40, 0xa0)\n    /* \"crowndfound/raisefund.sol\":418:479  constructor(){... */\n  callvalue\n  dup1\n  iszero\n  tag_1\n  jumpi\n  revert(0x00, 0x00)\ntag_1:\n  pop\n    /* \"crowndfound/raisefund.sol\":461:471  msg.sender */\n  caller\n    /* \"crowndfound/raisefund.sol\":441:472  i_owner = payable ( msg.sender) */\n  0xffffffffffffffffffffffffffffffffffffffff\n  and\n  0x80\n  dup2\n  0xffffffffffffffffffffffffffffffffffffffff\n  and\n  dup2\n  mstore\n  pop\n  pop\n    /* \"crowndfound/raisefund.sol\":359:4128  contract RaiseFunds {... */\n  mload(0x80)\n  codecopy(0x00, dataOffset(sub_0), dataSize(sub_0))\n  0x00\n  assignImmutable(\"0xd905fec1a56b00009651ce5a01a34d2244da02f516f67ee88b03219738dbf226\")\n  return(0x00, dataSize(sub_0))\nstop\n\nsub_0: assembly {\n        /* \"crowndfound/raisefund.sol\":359:4128  contract RaiseFunds {... */\n      mstore(0x40, 0x80)\n      jumpi(tag_1, lt(calldatasize, 0x04))\n      shr(0xe0, calldataload(0x00))\n      dup1\n      0x10d7aa7d\n      eq\n      tag_2\n      jumpi\n      dup1\n      0x5854dd21\n      eq\n      tag_3\n      jumpi\n      dup1\n      0x5fe26c73\n      eq\n      tag_4\n      jumpi\n      dup1\n      0x6b69a592\n      eq\n      tag_5\n      jumpi\n      dup1\n      0x9f047f3c\n      eq\n      tag_6\n      jumpi\n      dup1\n      0xcc1017e7\n      eq\n      tag_7\n      jumpi\n    tag_1:\n      revert(0x00, 0x00)\n        /* \"crowndfound/raisefund.sol\":1643:2276  function createproject(string calldata _name, uint256 _goal) external {... */\n    tag_2:\n      callvalue\n      dup1\n      iszero\n      tag_8\n      jumpi\n      revert(0x00, 0x00)\n    tag_8:\n      pop\n      tag_9\n      0x04\n      dup1\n      calldatasize\n      sub\n      dup2\n      add\n      swap1\n      tag_10\n      swap2\n      swap1\n      tag_11\n      jump\t// in\n    tag_10:\n      tag_12\n      jump\t// in\n    tag_9:\n      stop\n        /* \"crowndfound/raisefund.sol\":739:813  mapping (string projectname => Fund_Raise_Info) public fundRaisingProjects */\n    tag_3:\n      callvalue\n      dup1\n      iszero\n      tag_13\n      jumpi\n      revert(0x00, 0x00)\n    tag_13:\n      pop\n      tag_14\n      0x04\n      dup1\n      calldatasize\n      sub\n      dup2\n      add\n      swap1\n      tag_15\n      swap2\n      swap1\n      tag_16\n      jump\t// in\n    tag_15:\n      tag_17\n      jump\t// in\n    tag_14:\n      mload(0x40)\n      tag_18\n      swap9\n      swap8\n      swap7\n      swap6\n      swap5\n      swap4\n      swap3\n      swap2\n      swap1\n      tag_19\n      jump\t// in\n    tag_18:\n      mload(0x40)\n      dup1\n      swap2\n      sub\n      swap1\n      return\n        /* \"crowndfound/raisefund.sol\":3432:4118  function withdraw_fundRaised(string calldata _name) external {... */\n    tag_4:\n      callvalue\n      dup1\n      iszero\n      tag_20\n      jumpi\n      revert(0x00, 0x00)\n    tag_20:\n      pop\n      tag_21\n      0x04\n      dup1\n      calldatasize\n      sub\n      dup2\n      add\n      swap1\n      tag_22\n      swap2\n      swap1\n      tag_23\n      jump\t// in\n    tag_22:\n      tag_24\n      jump\t// in\n    tag_21:\n      stop\n        /* \"crowndfound/raisefund.sol\":632:674  uint256 public constant MINIMUM_USD = 2e18 */\n    tag_5:\n      callvalue\n      dup1\n      iszero\n      tag_25\n      jumpi\n      revert(0x00, 0x00)\n    tag_25:\n      pop\n      tag_26\n      tag_27\n      jump\t// in\n    tag_26:\n      mload(0x40)\n      tag_28\n      swap2\n      swap1\n      tag_29\n      jump\t// in\n    tag_28:\n      mload(0x40)\n      dup1\n      swap2\n      sub\n      swap1\n      return\n        /* \"crowndfound/raisefund.sol\":2316:3427  function fundProject(string  calldata _name) public payable {... */\n    tag_6:\n      tag_30\n      0x04\n      dup1\n      calldatasize\n      sub\n      dup2\n      add\n      swap1\n      tag_31\n      swap2\n      swap1\n      tag_23\n      jump\t// in\n    tag_31:\n      tag_32\n      jump\t// in\n    tag_30:\n      stop\n        /* \"crowndfound/raisefund.sol\":980:1007  funders[] public funderinfo */\n    tag_7:\n      callvalue\n      dup1\n      iszero\n      tag_33\n      jumpi\n      revert(0x00, 0x00)\n    tag_33:\n      pop\n      tag_34\n      0x04\n      dup1\n      calldatasize\n      sub\n      dup2\n      add\n      swap1\n      tag_35\n      swap2\n      swap1\n      tag_36\n      jump\t// in\n    tag_35:\n      tag_37\n      jump\t// in\n    tag_34:\n      mload(0x40)\n      tag_38\n      swap3\n      swap2\n      swap1\n      tag_39\n      jump\t// in\n    tag_38:\n      mload(0x40)\n      dup1\n      swap2\n      sub\n      swap1\n      return\n        /* \"crowndfound/raisefund.sol\":1643:2276  function createproject(string calldata _name, uint256 _goal) external {... */\n    tag_12:\n        /* \"crowndfound/raisefund.sol\":1772:1803  Fund_Raise_Info storage project */\n      0x00\n        /* \"crowndfound/raisefund.sol\":1806:1825  fundRaisingProjects */\n      0x00\n        /* \"crowndfound/raisefund.sol\":1826:1831  _name */\n      dup5\n      dup5\n        /* \"crowndfound/raisefund.sol\":1806:1832  fundRaisingProjects[_name] */\n      mload(0x40)\n      tag_41\n      swap3\n      swap2\n      swap1\n      tag_42\n      jump\t// in\n    tag_41:\n      swap1\n      dup2\n      mstore\n      0x20\n      add\n      mload(0x40)\n      dup1\n      swap2\n      sub\n      swap1\n      keccak256\n        /* \"crowndfound/raisefund.sol\":1772:1832  Fund_Raise_Info storage project = fundRaisingProjects[_name] */\n      swap1\n      pop\n        /* \"crowndfound/raisefund.sol\":1896:1901  _name */\n      dup4\n      dup4\n        /* \"crowndfound/raisefund.sol\":1881:1888  project */\n      dup3\n        /* \"crowndfound/raisefund.sol\":1881:1893  project.name */\n      0x00\n      add\n        /* \"crowndfound/raisefund.sol\":1881:1901  project.name = _name */\n      swap2\n      dup3\n      tag_43\n      swap3\n      swap2\n      swap1\n      tag_44\n      jump\t// in\n    tag_43:\n      pop\n        /* \"crowndfound/raisefund.sol\":1935:1945  msg.sender */\n      caller\n        /* \"crowndfound/raisefund.sol\":1911:1918  project */\n      dup2\n        /* \"crowndfound/raisefund.sol\":1911:1924  project.owner */\n      0x01\n      add\n      0x00\n        /* \"crowndfound/raisefund.sol\":1911:1946  project.owner = payable(msg.sender) */\n      0x0100\n      exp\n      dup2\n      sload\n      dup2\n      0xffffffffffffffffffffffffffffffffffffffff\n      mul\n      not\n      and\n      swap1\n      dup4\n      0xffffffffffffffffffffffffffffffffffffffff\n      and\n      mul\n      or\n      swap1\n      sstore\n      pop\n        /* \"crowndfound/raisefund.sol\":1971:1976  _goal */\n      dup2\n        /* \"crowndfound/raisefund.sol\":1956:1963  project */\n      dup2\n        /* \"crowndfound/raisefund.sol\":1956:1968  project.goal */\n      0x02\n      add\n        /* \"crowndfound/raisefund.sol\":1956:1976  project.goal = _goal */\n      dup2\n      swap1\n      sstore\n      pop\n        /* \"crowndfound/raisefund.sol\":2005:2009  true */\n      0x01\n        /* \"crowndfound/raisefund.sol\":1986:1993  project */\n      dup2\n        /* \"crowndfound/raisefund.sol\":1986:2002  project.isActive */\n      0x04\n      add\n      0x00\n        /* \"crowndfound/raisefund.sol\":1986:2009  project.isActive = true */\n      0x0100\n      exp\n      dup2\n      sload\n      dup2\n      0xff\n      mul\n      not\n      and\n      swap1\n      dup4\n      iszero\n      iszero\n      mul\n      or\n      swap1\n      sstore\n      pop\n        /* \"crowndfound/raisefund.sol\":2041:2046  false */\n      0x00\n        /* \"crowndfound/raisefund.sol\":2019:2026  project */\n      dup2\n        /* \"crowndfound/raisefund.sol\":2019:2038  project.isCompleted */\n      0x04\n      add\n      0x01\n        /* \"crowndfound/raisefund.sol\":2019:2046  project.isCompleted = false */\n      0x0100\n      exp\n      dup2\n      sload\n      dup2\n      0xff\n      mul\n      not\n      and\n      swap1\n      dup4\n      iszero\n      iszero\n      mul\n      or\n      swap1\n      sstore\n      pop\n        /* \"crowndfound/raisefund.sol\":2077:2082  false */\n      0x00\n        /* \"crowndfound/raisefund.sol\":2056:2063  project */\n      dup2\n        /* \"crowndfound/raisefund.sol\":2056:2074  project.isRefunded */\n      0x04\n      add\n      0x02\n        /* \"crowndfound/raisefund.sol\":2056:2082  project.isRefunded = false */\n      0x0100\n      exp\n      dup2\n      sload\n      dup2\n      0xff\n      mul\n      not\n      and\n      swap1\n      dup4\n      iszero\n      iszero\n      mul\n      or\n      swap1\n      sstore\n      pop\n        /* \"crowndfound/raisefund.sol\":2109:2113  true */\n      0x01\n        /* \"crowndfound/raisefund.sol\":2093:2100  project */\n      dup2\n        /* \"crowndfound/raisefund.sol\":2093:2106  project.exits */\n      0x04\n      add\n      0x03\n        /* \"crowndfound/raisefund.sol\":2093:2113  project.exits = true */\n      0x0100\n      exp\n      dup2\n      sload\n      dup2\n      0xff\n      mul\n      not\n      and\n      swap1\n      dup4\n      iszero\n      iszero\n      mul\n      or\n      swap1\n      sstore\n      pop\n        /* \"crowndfound/raisefund.sol\":2268:2269  0 */\n      0x00\n        /* \"crowndfound/raisefund.sol\":2246:2253  project */\n      dup2\n        /* \"crowndfound/raisefund.sol\":2246:2265  project.totalRaised */\n      0x03\n      add\n        /* \"crowndfound/raisefund.sol\":2246:2269  project.totalRaised = 0 */\n      dup2\n      swap1\n      sstore\n      pop\n        /* \"crowndfound/raisefund.sol\":1713:2276  {... */\n      pop\n        /* \"crowndfound/raisefund.sol\":1643:2276  function createproject(string calldata _name, uint256 _goal) external {... */\n      pop\n      pop\n      pop\n      jump\t// out\n        /* \"crowndfound/raisefund.sol\":739:813  mapping (string projectname => Fund_Raise_Info) public fundRaisingProjects */\n    tag_17:\n      0x00\n      dup2\n      dup1\n      mload\n      0x20\n      dup2\n      add\n      dup3\n      add\n      dup1\n      mload\n      dup5\n      dup3\n      mstore\n      0x20\n      dup4\n      add\n      0x20\n      dup6\n      add\n      keccak256\n      dup2\n      dup4\n      mstore\n      dup1\n      swap6\n      pop\n      pop\n      pop\n      pop\n      pop\n      pop\n      0x00\n      swap2\n      pop\n      swap1\n      pop\n      dup1\n      0x00\n      add\n      dup1\n      sload\n      tag_45\n      swap1\n      tag_46\n      jump\t// in\n    tag_45:\n      dup1\n      0x1f\n      add\n      0x20\n      dup1\n      swap2\n      div\n      mul\n      0x20\n      add\n      mload(0x40)\n      swap1\n      dup2\n      add\n      0x40\n      mstore\n      dup1\n      swap3\n      swap2\n      swap1\n      dup2\n      dup2\n      mstore\n      0x20\n      add\n      dup3\n      dup1\n      sload\n      tag_47\n      swap1\n      tag_46\n      jump\t// in\n    tag_47:\n      dup1\n      iszero\n      tag_48\n      jumpi\n      dup1\n      0x1f\n      lt\n      tag_49\n      jumpi\n      0x0100\n      dup1\n      dup4\n      sload\n      div\n      mul\n      dup4\n      mstore\n      swap2\n      0x20\n      add\n      swap2\n      jump(tag_48)\n    tag_49:\n      dup3\n      add\n      swap2\n      swap1\n      0x00\n      mstore\n      keccak256(0x00, 0x20)\n      swap1\n    tag_50:\n      dup2\n      sload\n      dup2\n      mstore\n      swap1\n      0x01\n      add\n      swap1\n      0x20\n      add\n      dup1\n      dup4\n      gt\n      tag_50\n      jumpi\n      dup3\n      swap1\n      sub\n      0x1f\n      and\n      dup3\n      add\n      swap2\n    tag_48:\n      pop\n      pop\n      pop\n      pop\n      pop\n      swap1\n      dup1\n      0x01\n      add\n      0x00\n      swap1\n      sload\n      swap1\n      0x0100\n      exp\n      swap1\n      div\n      0xffffffffffffffffffffffffffffffffffffffff\n      and\n      swap1\n      dup1\n      0x02\n      add\n      sload\n      swap1\n      dup1\n      0x03\n      add\n      sload\n      swap1\n      dup1\n      0x04\n      add\n      0x00\n      swap1\n      sload\n      swap1\n      0x0100\n      exp\n      swap1\n      div\n      0xff\n      and\n      swap1\n      dup1\n      0x04\n      add\n      0x01\n      swap1\n      sload\n      swap1\n      0x0100\n      exp\n      swap1\n      div\n      0xff\n      and\n      swap1\n      dup1\n      0x04\n      add\n      0x02\n      swap1\n      sload\n      swap1\n      0x0100\n      exp\n      swap1\n      div\n      0xff\n      and\n      swap1\n      dup1\n      0x04\n      add\n      0x03\n      swap1\n      sload\n      swap1\n      0x0100\n      exp\n      swap1\n      div\n      0xff\n      and\n      swap1\n      pop\n      dup9\n      jump\t// out\n        /* \"crowndfound/raisefund.sol\":3432:4118  function withdraw_fundRaised(string calldata _name) external {... */\n    tag_24:\n        /* \"crowndfound/raisefund.sol\":3499:3534  Fund_Raise_Info storage projectInfo */\n      0x00\n        /* \"crowndfound/raisefund.sol\":3537:3556  fundRaisingProjects */\n      0x00\n        /* \"crowndfound/raisefund.sol\":3557:3562  _name */\n      dup4\n      dup4\n        /* \"crowndfound/raisefund.sol\":3537:3563  fundRaisingProjects[_name] */\n      mload(0x40)\n      tag_52\n      swap3\n      swap2\n      swap1\n      tag_42\n      jump\t// in\n    tag_52:\n      swap1\n      dup2\n      mstore\n      0x20\n      add\n      mload(0x40)\n      dup1\n      swap2\n      sub\n      swap1\n      keccak256\n        /* \"crowndfound/raisefund.sol\":3499:3563  Fund_Raise_Info storage projectInfo = fundRaisingProjects[_name] */\n      swap1\n      pop\n        /* \"crowndfound/raisefund.sol\":3578:3589  projectInfo */\n      dup1\n        /* \"crowndfound/raisefund.sol\":3578:3601  projectInfo.isCompleted */\n      0x04\n      add\n      0x01\n      swap1\n      sload\n      swap1\n      0x0100\n      exp\n      swap1\n      div\n      0xff\n      and\n        /* \"crowndfound/raisefund.sol\":3570:3630  require(projectInfo.isCompleted, \"Project is not completed\") */\n      tag_53\n      jumpi\n      mload(0x40)\n      0x08c379a000000000000000000000000000000000000000000000000000000000\n      dup2\n      mstore\n      0x04\n      add\n      tag_54\n      swap1\n      tag_55\n      jump\t// in\n    tag_54:\n      mload(0x40)\n      dup1\n      swap2\n      sub\n      swap1\n      revert\n    tag_53:\n        /* \"crowndfound/raisefund.sol\":3667:3677  msg.sender */\n      caller\n        /* \"crowndfound/raisefund.sol\":3646:3677  projectInfo.owner == msg.sender */\n      0xffffffffffffffffffffffffffffffffffffffff\n      and\n        /* \"crowndfound/raisefund.sol\":3646:3657  projectInfo */\n      dup2\n        /* \"crowndfound/raisefund.sol\":3646:3663  projectInfo.owner */\n      0x01\n      add\n      0x00\n      swap1\n      sload\n      swap1\n      0x0100\n      exp\n      swap1\n      div\n      0xffffffffffffffffffffffffffffffffffffffff\n      and\n        /* \"crowndfound/raisefund.sol\":3646:3677  projectInfo.owner == msg.sender */\n      0xffffffffffffffffffffffffffffffffffffffff\n      and\n      eq\n        /* \"crowndfound/raisefund.sol\":3638:3725  require(projectInfo.owner == msg.sender, \"Only the project creator can withdraw funds\") */\n      tag_56\n      jumpi\n      mload(0x40)\n      0x08c379a000000000000000000000000000000000000000000000000000000000\n      dup2\n      mstore\n      0x04\n      add\n      tag_57\n      swap1\n      tag_58\n      jump\t// in\n    tag_57:\n      mload(0x40)\n      dup1\n      swap2\n      sub\n      swap1\n      revert\n    tag_56:\n        /* \"crowndfound/raisefund.sol\":3731:3745  uint256 amount */\n      0x00\n        /* \"crowndfound/raisefund.sol\":3748:3759  projectInfo */\n      dup2\n        /* \"crowndfound/raisefund.sol\":3748:3764  projectInfo.goal */\n      0x02\n      add\n      sload\n        /* \"crowndfound/raisefund.sol\":3731:3764  uint256 amount = projectInfo.goal */\n      swap1\n      pop\n        /* \"crowndfound/raisefund.sol\":3770:3783  address owner */\n      0x00\n        /* \"crowndfound/raisefund.sol\":3786:3797  projectInfo */\n      dup3\n        /* \"crowndfound/raisefund.sol\":3786:3803  projectInfo.owner */\n      0x01\n      add\n      0x00\n      swap1\n      sload\n      swap1\n      0x0100\n      exp\n      swap1\n      div\n      0xffffffffffffffffffffffffffffffffffffffff\n      and\n        /* \"crowndfound/raisefund.sol\":3770:3803  address owner = projectInfo.owner */\n      swap1\n      pop\n        /* \"crowndfound/raisefund.sol\":3809:3823  uint256 payout */\n      0x00\n        /* \"crowndfound/raisefund.sol\":3840:3843  100 */\n      0x64\n        /* \"crowndfound/raisefund.sol\":3836:3838  98 */\n      0x62\n        /* \"crowndfound/raisefund.sol\":3827:3833  amount */\n      dup5\n        /* \"crowndfound/raisefund.sol\":3827:3838  amount * 98 */\n      tag_59\n      swap2\n      swap1\n      tag_60\n      jump\t// in\n    tag_59:\n        /* \"crowndfound/raisefund.sol\":3826:3843  (amount * 98)/100 */\n      tag_61\n      swap2\n      swap1\n      tag_62\n      jump\t// in\n    tag_61:\n        /* \"crowndfound/raisefund.sol\":3809:3843  uint256 payout = (amount * 98)/100 */\n      swap1\n      pop\n        /* \"crowndfound/raisefund.sol\":3849:3860  uint256 fee */\n      0x00\n        /* \"crowndfound/raisefund.sol\":3871:3877  payout */\n      dup2\n        /* \"crowndfound/raisefund.sol\":3863:3869  amount */\n      dup5\n        /* \"crowndfound/raisefund.sol\":3863:3877  amount -payout */\n      tag_63\n      swap2\n      swap1\n      tag_64\n      jump\t// in\n    tag_63:\n        /* \"crowndfound/raisefund.sol\":3849:3877  uint256 fee = amount -payout */\n      swap1\n      pop\n        /* \"crowndfound/raisefund.sol\":3884:3896  bool success */\n      0x00\n        /* \"crowndfound/raisefund.sol\":3899:3904  owner */\n      dup4\n        /* \"crowndfound/raisefund.sol\":3899:3909  owner.call */\n      0xffffffffffffffffffffffffffffffffffffffff\n      and\n        /* \"crowndfound/raisefund.sol\":3917:3923  payout */\n      dup4\n        /* \"crowndfound/raisefund.sol\":3899:3928  owner.call{value: payout}('') */\n      mload(0x40)\n      tag_65\n      swap1\n      tag_66\n      jump\t// in\n    tag_65:\n      0x00\n      mload(0x40)\n      dup1\n      dup4\n      sub\n      dup2\n      dup6\n      dup8\n      gas\n      call\n      swap3\n      pop\n      pop\n      pop\n      returndatasize\n      dup1\n      0x00\n      dup2\n      eq\n      tag_69\n      jumpi\n      mload(0x40)\n      swap2\n      pop\n      and(add(returndatasize, 0x3f), not(0x1f))\n      dup3\n      add\n      0x40\n      mstore\n      returndatasize\n      dup3\n      mstore\n      returndatasize\n      0x00\n      0x20\n      dup5\n      add\n      returndatacopy\n      jump(tag_68)\n    tag_69:\n      0x60\n      swap2\n      pop\n    tag_68:\n      pop\n        /* \"crowndfound/raisefund.sol\":3883:3928  (bool success,)=owner.call{value: payout}('') */\n      pop\n      swap1\n      pop\n        /* \"crowndfound/raisefund.sol\":3945:3952  success */\n      dup1\n        /* \"crowndfound/raisefund.sol\":3936:3974  require( success, 'widthdrawal faild') */\n      tag_70\n      jumpi\n      mload(0x40)\n      0x08c379a000000000000000000000000000000000000000000000000000000000\n      dup2\n      mstore\n      0x04\n      add\n      tag_71\n      swap1\n      tag_72\n      jump\t// in\n    tag_71:\n      mload(0x40)\n      dup1\n      swap2\n      sub\n      swap1\n      revert\n    tag_70:\n        /* \"crowndfound/raisefund.sol\":3982:3995  bool success1 */\n      0x00\n        /* \"crowndfound/raisefund.sol\":3998:4005  i_owner */\n      immutable(\"0xd905fec1a56b00009651ce5a01a34d2244da02f516f67ee88b03219738dbf226\")\n        /* \"crowndfound/raisefund.sol\":3998:4010  i_owner.call */\n      0xffffffffffffffffffffffffffffffffffffffff\n      and\n        /* \"crowndfound/raisefund.sol\":4017:4020  fee */\n      dup4\n        /* \"crowndfound/raisefund.sol\":3998:4025  i_owner.call{value:fee}('') */\n      mload(0x40)\n      tag_73\n      swap1\n      tag_66\n      jump\t// in\n    tag_73:\n      0x00\n      mload(0x40)\n      dup1\n      dup4\n      sub\n      dup2\n      dup6\n      dup8\n      gas\n      call\n      swap3\n      pop\n      pop\n      pop\n      returndatasize\n      dup1\n      0x00\n      dup2\n      eq\n      tag_76\n      jumpi\n      mload(0x40)\n      swap2\n      pop\n      and(add(returndatasize, 0x3f), not(0x1f))\n      dup3\n      add\n      0x40\n      mstore\n      returndatasize\n      dup3\n      mstore\n      returndatasize\n      0x00\n      0x20\n      dup5\n      add\n      returndatacopy\n      jump(tag_75)\n    tag_76:\n      0x60\n      swap2\n      pop\n    tag_75:\n      pop\n        /* \"crowndfound/raisefund.sol\":3981:4025  (bool success1,)=i_owner.call{value:fee}('') */\n      pop\n      swap1\n      pop\n        /* \"crowndfound/raisefund.sol\":4041:4049  success1 */\n      dup1\n        /* \"crowndfound/raisefund.sol\":4032:4081  require( success1, 'failde to send fee to owner') */\n      tag_77\n      jumpi\n      mload(0x40)\n      0x08c379a000000000000000000000000000000000000000000000000000000000\n      dup2\n      mstore\n      0x04\n      add\n      tag_78\n      swap1\n      tag_79\n      jump\t// in\n    tag_78:\n      mload(0x40)\n      dup1\n      swap2\n      sub\n      swap1\n      revert\n    tag_77:\n        /* \"crowndfound/raisefund.sol\":4114:4115  0 */\n      0x00\n        /* \"crowndfound/raisefund.sol\":4088:4099  projectInfo */\n      dup8\n        /* \"crowndfound/raisefund.sol\":4088:4111  projectInfo.totalRaised */\n      0x03\n      add\n        /* \"crowndfound/raisefund.sol\":4088:4115  projectInfo.totalRaised = 0 */\n      dup2\n      swap1\n      sstore\n      pop\n        /* \"crowndfound/raisefund.sol\":3493:4118  {... */\n      pop\n      pop\n      pop\n      pop\n      pop\n      pop\n      pop\n        /* \"crowndfound/raisefund.sol\":3432:4118  function withdraw_fundRaised(string calldata _name) external {... */\n      pop\n      pop\n      jump\t// out\n        /* \"crowndfound/raisefund.sol\":632:674  uint256 public constant MINIMUM_USD = 2e18 */\n    tag_27:\n        /* \"crowndfound/raisefund.sol\":670:674  2e18 */\n      0x1bc16d674ec80000\n        /* \"crowndfound/raisefund.sol\":632:674  uint256 public constant MINIMUM_USD = 2e18 */\n      dup2\n      jump\t// out\n        /* \"crowndfound/raisefund.sol\":2316:3427  function fundProject(string  calldata _name) public payable {... */\n    tag_32:\n        /* \"crowndfound/raisefund.sol\":670:674  2e18 */\n      0x1bc16d674ec80000\n        /* \"crowndfound/raisefund.sol\":2449:2473  msg.value.converterUSD() */\n      tag_81\n        /* \"crowndfound/raisefund.sol\":2449:2458  msg.value */\n      callvalue\n        /* \"crowndfound/raisefund.sol\":2449:2471  msg.value.converterUSD */\n      tag_82\n        /* \"crowndfound/raisefund.sol\":2449:2473  msg.value.converterUSD() */\n      jump\t// in\n    tag_81:\n        /* \"crowndfound/raisefund.sol\":2449:2487  msg.value.converterUSD() < MINIMUM_USD */\n      lt\n        /* \"crowndfound/raisefund.sol\":2445:2576  if (msg.value.converterUSD() < MINIMUM_USD) {... */\n      iszero\n      tag_83\n      jumpi\n        /* \"crowndfound/raisefund.sol\":2510:2565  IncreaseAmount('Sent ETH is below minimum requirement') */\n      mload(0x40)\n      0x35dcd67800000000000000000000000000000000000000000000000000000000\n      dup2\n      mstore\n      0x04\n      add\n      tag_84\n      swap1\n      tag_85\n      jump\t// in\n    tag_84:\n      mload(0x40)\n      dup1\n      swap2\n      sub\n      swap1\n      revert\n        /* \"crowndfound/raisefund.sol\":2445:2576  if (msg.value.converterUSD() < MINIMUM_USD) {... */\n    tag_83:\n        /* \"crowndfound/raisefund.sol\":2795:2830  Fund_Raise_Info storage projectInfo */\n      0x00\n        /* \"crowndfound/raisefund.sol\":2833:2852  fundRaisingProjects */\n      0x00\n        /* \"crowndfound/raisefund.sol\":2853:2858  _name */\n      dup4\n      dup4\n        /* \"crowndfound/raisefund.sol\":2833:2859  fundRaisingProjects[_name] */\n      mload(0x40)\n      tag_86\n      swap3\n      swap2\n      swap1\n      tag_42\n      jump\t// in\n    tag_86:\n      swap1\n      dup2\n      mstore\n      0x20\n      add\n      mload(0x40)\n      dup1\n      swap2\n      sub\n      swap1\n      keccak256\n        /* \"crowndfound/raisefund.sol\":2795:2859  Fund_Raise_Info storage projectInfo = fundRaisingProjects[_name] */\n      swap1\n      pop\n        /* \"crowndfound/raisefund.sol\":2913:2924  projectInfo */\n      dup1\n        /* \"crowndfound/raisefund.sol\":2913:2930  projectInfo.exits */\n      0x04\n      add\n      0x03\n      swap1\n      sload\n      swap1\n      0x0100\n      exp\n      swap1\n      div\n      0xff\n      and\n        /* \"crowndfound/raisefund.sol\":2905:2957  require(projectInfo.exits, \"Project does not exist\") */\n      tag_87\n      jumpi\n      mload(0x40)\n      0x08c379a000000000000000000000000000000000000000000000000000000000\n      dup2\n      mstore\n      0x04\n      add\n      tag_88\n      swap1\n      tag_89\n      jump\t// in\n    tag_88:\n      mload(0x40)\n      dup1\n      swap2\n      sub\n      swap1\n      revert\n    tag_87:\n        /* \"crowndfound/raisefund.sol\":2972:2983  projectInfo */\n      dup1\n        /* \"crowndfound/raisefund.sol\":2972:2992  projectInfo.isActive */\n      0x04\n      add\n      0x00\n      swap1\n      sload\n      swap1\n      0x0100\n      exp\n      swap1\n      div\n      0xff\n      and\n        /* \"crowndfound/raisefund.sol\":2964:3018  require(projectInfo.isActive, \"Project is not active\") */\n      tag_90\n      jumpi\n      mload(0x40)\n      0x08c379a000000000000000000000000000000000000000000000000000000000\n      dup2\n      mstore\n      0x04\n      add\n      tag_91\n      swap1\n      tag_92\n      jump\t// in\n    tag_91:\n      mload(0x40)\n      dup1\n      swap2\n      sub\n      swap1\n      revert\n    tag_90:\n        /* \"crowndfound/raisefund.sol\":3025:3039  uint256 amount */\n      0x00\n        /* \"crowndfound/raisefund.sol\":3042:3051  msg.value */\n      callvalue\n        /* \"crowndfound/raisefund.sol\":3025:3051  uint256 amount = msg.value */\n      swap1\n      pop\n        /* \"crowndfound/raisefund.sol\":3145:3151  amount */\n      dup1\n        /* \"crowndfound/raisefund.sol\":3118:3129  projectInfo */\n      dup3\n        /* \"crowndfound/raisefund.sol\":3118:3141  projectInfo.totalRaised */\n      0x03\n      add\n      0x00\n        /* \"crowndfound/raisefund.sol\":3118:3151  projectInfo.totalRaised += amount */\n      dup3\n      dup3\n      sload\n      tag_93\n      swap2\n      swap1\n      tag_94\n      jump\t// in\n    tag_93:\n      swap3\n      pop\n      pop\n      dup2\n      swap1\n      sstore\n      pop\n        /* \"crowndfound/raisefund.sol\":3157:3178  funders memory funder */\n      0x00\n        /* \"crowndfound/raisefund.sol\":3181:3226  funders({funder: msg.sender, amount: amount}) */\n      mload(0x40)\n      dup1\n      0x40\n      add\n      0x40\n      mstore\n      dup1\n        /* \"crowndfound/raisefund.sol\":3198:3208  msg.sender */\n      caller\n        /* \"crowndfound/raisefund.sol\":3181:3226  funders({funder: msg.sender, amount: amount}) */\n      0xffffffffffffffffffffffffffffffffffffffff\n      and\n      dup2\n      mstore\n      0x20\n      add\n        /* \"crowndfound/raisefund.sol\":3218:3224  amount */\n      dup4\n        /* \"crowndfound/raisefund.sol\":3181:3226  funders({funder: msg.sender, amount: amount}) */\n      dup2\n      mstore\n      pop\n        /* \"crowndfound/raisefund.sol\":3157:3226  funders memory funder = funders({funder: msg.sender, amount: amount}) */\n      swap1\n      pop\n        /* \"crowndfound/raisefund.sol\":3234:3244  funderinfo */\n      0x01\n        /* \"crowndfound/raisefund.sol\":3250:3256  funder */\n      dup2\n        /* \"crowndfound/raisefund.sol\":3234:3257  funderinfo.push(funder) */\n      swap1\n      dup1\n      0x01\n      dup2\n      sload\n      add\n      dup1\n      dup3\n      sstore\n      dup1\n      swap2\n      pop\n      pop\n      0x01\n      swap1\n      sub\n      swap1\n      0x00\n      mstore\n      keccak256(0x00, 0x20)\n      swap1\n      0x02\n      mul\n      add\n      0x00\n      swap1\n      swap2\n      swap1\n      swap2\n      swap1\n      swap2\n      pop\n      0x00\n      dup3\n      add\n      mload\n      dup2\n      0x00\n      add\n      exp(0x0100, 0x00)\n      dup2\n      sload\n      dup2\n      0xffffffffffffffffffffffffffffffffffffffff\n      mul\n      not\n      and\n      swap1\n      dup4\n      0xffffffffffffffffffffffffffffffffffffffff\n      and\n      mul\n      or\n      swap1\n      sstore\n      pop\n      0x20\n      dup3\n      add\n      mload\n      dup2\n      0x01\n      add\n      sstore\n      pop\n      pop\n        /* \"crowndfound/raisefund.sol\":3323:3334  projectInfo */\n      dup3\n        /* \"crowndfound/raisefund.sol\":3323:3339  projectInfo.goal */\n      0x02\n      add\n      sload\n        /* \"crowndfound/raisefund.sol\":3296:3307  projectInfo */\n      dup4\n        /* \"crowndfound/raisefund.sol\":3296:3319  projectInfo.totalRaised */\n      0x03\n      add\n      sload\n        /* \"crowndfound/raisefund.sol\":3296:3339  projectInfo.totalRaised >= projectInfo.goal */\n      lt\n        /* \"crowndfound/raisefund.sol\":3293:3425  if(projectInfo.totalRaised >= projectInfo.goal){... */\n      tag_96\n      jumpi\n        /* \"crowndfound/raisefund.sol\":3376:3380  true */\n      0x01\n        /* \"crowndfound/raisefund.sol\":3350:3361  projectInfo */\n      dup4\n        /* \"crowndfound/raisefund.sol\":3350:3373  projectInfo.isCompleted */\n      0x04\n      add\n      0x01\n        /* \"crowndfound/raisefund.sol\":3350:3380  projectInfo.isCompleted = true */\n      0x0100\n      exp\n      dup2\n      sload\n      dup2\n      0xff\n      mul\n      not\n      and\n      swap1\n      dup4\n      iszero\n      iszero\n      mul\n      or\n      swap1\n      sstore\n      pop\n        /* \"crowndfound/raisefund.sol\":3413:3418  false */\n      0x00\n        /* \"crowndfound/raisefund.sol\":3390:3401  projectInfo */\n      dup4\n        /* \"crowndfound/raisefund.sol\":3390:3410  projectInfo.isActive */\n      0x04\n      add\n      0x00\n        /* \"crowndfound/raisefund.sol\":3390:3418  projectInfo.isActive = false */\n      0x0100\n      exp\n      dup2\n      sload\n      dup2\n      0xff\n      mul\n      not\n      and\n      swap1\n      dup4\n      iszero\n      iszero\n      mul\n      or\n      swap1\n      sstore\n      pop\n        /* \"crowndfound/raisefund.sol\":3293:3425  if(projectInfo.totalRaised >= projectInfo.goal){... */\n    tag_96:\n        /* \"crowndfound/raisefund.sol\":2376:3427  {... */\n      pop\n      pop\n      pop\n        /* \"crowndfound/raisefund.sol\":2316:3427  function fundProject(string  calldata _name) public payable {... */\n      pop\n      pop\n      jump\t// out\n        /* \"crowndfound/raisefund.sol\":980:1007  funders[] public funderinfo */\n    tag_37:\n      0x01\n      dup2\n      dup2\n      sload\n      dup2\n      lt\n      tag_97\n      jumpi\n      0x00\n      dup1\n      revert\n    tag_97:\n      swap1\n      0x00\n      mstore\n      keccak256(0x00, 0x20)\n      swap1\n      0x02\n      mul\n      add\n      0x00\n      swap2\n      pop\n      swap1\n      pop\n      dup1\n      0x00\n      add\n      0x00\n      swap1\n      sload\n      swap1\n      0x0100\n      exp\n      swap1\n      div\n      0xffffffffffffffffffffffffffffffffffffffff\n      and\n      swap1\n      dup1\n      0x01\n      add\n      sload\n      swap1\n      pop\n      dup3\n      jump\t// out\n        /* \"crowndfound/lib.sol\":449:624  function converterUSD( uint256 _ethamount)internal view returns(uint256){... */\n    tag_82:\n        /* \"crowndfound/lib.sol\":513:520  uint256 */\n      0x00\n        /* \"crowndfound/lib.sol\":524:537  uint256 price */\n      0x00\n        /* \"crowndfound/lib.sol\":540:556  getEthPriceUSD() */\n      tag_100\n        /* \"crowndfound/lib.sol\":540:554  getEthPriceUSD */\n      tag_101\n        /* \"crowndfound/lib.sol\":540:556  getEthPriceUSD() */\n      jump\t// in\n    tag_100:\n        /* \"crowndfound/lib.sol\":524:556  uint256 price = getEthPriceUSD() */\n      swap1\n      pop\n        /* \"crowndfound/lib.sol\":560:575  uint256 convert */\n      0x00\n        /* \"crowndfound/lib.sol\":599:603  1e18 */\n      0x0de0b6b3a7640000\n        /* \"crowndfound/lib.sol\":587:597  _ethamount */\n      dup5\n        /* \"crowndfound/lib.sol\":579:584  price */\n      dup4\n        /* \"crowndfound/lib.sol\":579:597  price * _ethamount */\n      tag_102\n      swap2\n      swap1\n      tag_60\n      jump\t// in\n    tag_102:\n        /* \"crowndfound/lib.sol\":578:603  (price * _ethamount)/1e18 */\n      tag_103\n      swap2\n      swap1\n      tag_62\n      jump\t// in\n    tag_103:\n        /* \"crowndfound/lib.sol\":560:603  uint256 convert = (price * _ethamount)/1e18 */\n      swap1\n      pop\n        /* \"crowndfound/lib.sol\":614:621  convert */\n      dup1\n        /* \"crowndfound/lib.sol\":607:621  return convert */\n      swap3\n      pop\n      pop\n      pop\n        /* \"crowndfound/lib.sol\":449:624  function converterUSD( uint256 _ethamount)internal view returns(uint256){... */\n      swap2\n      swap1\n      pop\n      jump\t// out\n        /* \"crowndfound/lib.sol\":200:446  function getEthPriceUSD() internal view returns(uint256){... */\n    tag_101:\n        /* \"crowndfound/lib.sol\":248:255  uint256 */\n      0x00\n        /* \"crowndfound/lib.sol\":259:291  AggregatorV3Interface price_data */\n      0x00\n        /* \"crowndfound/lib.sol\":316:358  0x694AA1769357215DE4FAC081bf1f309aDC325306 */\n      0x694aa1769357215de4fac081bf1f309adc325306\n        /* \"crowndfound/lib.sol\":259:359  AggregatorV3Interface price_data = AggregatorV3Interface(0x694AA1769357215DE4FAC081bf1f309aDC325306) */\n      swap1\n      pop\n        /* \"crowndfound/lib.sol\":364:376  int256 price */\n      0x00\n        /* \"crowndfound/lib.sol\":383:393  price_data */\n      dup2\n        /* \"crowndfound/lib.sol\":383:409  price_data.latestRoundData */\n      0xffffffffffffffffffffffffffffffffffffffff\n      and\n      0xfeaf968c\n        /* \"crowndfound/lib.sol\":383:411  price_data.latestRoundData() */\n      mload(0x40)\n      dup2\n      0xffffffff\n      and\n      0xe0\n      shl\n      dup2\n      mstore\n      0x04\n      add\n      0xa0\n      mload(0x40)\n      dup1\n      dup4\n      sub\n      dup2\n      dup7\n      gas\n      staticcall\n      iszero\n      dup1\n      iszero\n      tag_106\n      jumpi\n      returndatacopy(0x00, 0x00, returndatasize)\n      revert(0x00, returndatasize)\n    tag_106:\n      pop\n      pop\n      pop\n      pop\n      mload(0x40)\n      returndatasize\n      not(0x1f)\n      0x1f\n      dup3\n      add\n      and\n      dup3\n      add\n      dup1\n      0x40\n      mstore\n      pop\n      dup2\n      add\n      swap1\n      tag_107\n      swap2\n      swap1\n      tag_108\n      jump\t// in\n    tag_107:\n        /* \"crowndfound/lib.sol\":362:411  (,int256 price,,,) = price_data.latestRoundData() */\n      pop\n      pop\n      pop\n      swap2\n      pop\n      pop\n        /* \"crowndfound/lib.sol\":438:442  1e10 */\n      0x02540be400\n        /* \"crowndfound/lib.sol\":429:434  price */\n      dup2\n        /* \"crowndfound/lib.sol\":421:442  uint256(price )* 1e10 */\n      tag_109\n      swap2\n      swap1\n      tag_60\n      jump\t// in\n    tag_109:\n        /* \"crowndfound/lib.sol\":414:442  return uint256(price )* 1e10 */\n      swap3\n      pop\n      pop\n      pop\n        /* \"crowndfound/lib.sol\":200:446  function getEthPriceUSD() internal view returns(uint256){... */\n      swap1\n      jump\t// out\n        /* \"#utility.yul\":7:82   */\n    tag_110:\n        /* \"#utility.yul\":40:46   */\n      0x00\n        /* \"#utility.yul\":73:75   */\n      0x40\n        /* \"#utility.yul\":67:76   */\n      mload\n        /* \"#utility.yul\":57:76   */\n      swap1\n      pop\n        /* \"#utility.yul\":7:82   */\n      swap1\n      jump\t// out\n        /* \"#utility.yul\":88:205   */\n    tag_111:\n        /* \"#utility.yul\":197:198   */\n      0x00\n        /* \"#utility.yul\":194:195   */\n      0x00\n        /* \"#utility.yul\":187:199   */\n      revert\n        /* \"#utility.yul\":211:328   */\n    tag_112:\n        /* \"#utility.yul\":320:321   */\n      0x00\n        /* \"#utility.yul\":317:318   */\n      0x00\n        /* \"#utility.yul\":310:322   */\n      revert\n        /* \"#utility.yul\":334:451   */\n    tag_113:\n        /* \"#utility.yul\":443:444   */\n      0x00\n        /* \"#utility.yul\":440:441   */\n      0x00\n        /* \"#utility.yul\":433:445   */\n      revert\n        /* \"#utility.yul\":457:574   */\n    tag_114:\n        /* \"#utility.yul\":566:567   */\n      0x00\n        /* \"#utility.yul\":563:564   */\n      0x00\n        /* \"#utility.yul\":556:568   */\n      revert\n        /* \"#utility.yul\":580:697   */\n    tag_115:\n        /* \"#utility.yul\":689:690   */\n      0x00\n        /* \"#utility.yul\":686:687   */\n      0x00\n        /* \"#utility.yul\":679:691   */\n      revert\n        /* \"#utility.yul\":717:1270   */\n    tag_116:\n        /* \"#utility.yul\":775:783   */\n      0x00\n        /* \"#utility.yul\":785:791   */\n      0x00\n        /* \"#utility.yul\":835:838   */\n      dup4\n        /* \"#utility.yul\":828:832   */\n      0x1f\n        /* \"#utility.yul\":820:826   */\n      dup5\n        /* \"#utility.yul\":816:833   */\n      add\n        /* \"#utility.yul\":812:839   */\n      slt\n        /* \"#utility.yul\":802:924   */\n      tag_194\n      jumpi\n        /* \"#utility.yul\":843:922   */\n      tag_195\n      tag_113\n      jump\t// in\n    tag_195:\n        /* \"#utility.yul\":802:924   */\n    tag_194:\n        /* \"#utility.yul\":956:962   */\n      dup3\n        /* \"#utility.yul\":943:963   */\n      calldataload\n        /* \"#utility.yul\":933:963   */\n      swap1\n      pop\n        /* \"#utility.yul\":986:1004   */\n      0xffffffffffffffff\n        /* \"#utility.yul\":978:984   */\n      dup2\n        /* \"#utility.yul\":975:1005   */\n      gt\n        /* \"#utility.yul\":972:1089   */\n      iszero\n      tag_196\n      jumpi\n        /* \"#utility.yul\":1008:1087   */\n      tag_197\n      tag_114\n      jump\t// in\n    tag_197:\n        /* \"#utility.yul\":972:1089   */\n    tag_196:\n        /* \"#utility.yul\":1122:1126   */\n      0x20\n        /* \"#utility.yul\":1114:1120   */\n      dup4\n        /* \"#utility.yul\":1110:1127   */\n      add\n        /* \"#utility.yul\":1098:1127   */\n      swap2\n      pop\n        /* \"#utility.yul\":1176:1179   */\n      dup4\n        /* \"#utility.yul\":1168:1172   */\n      0x01\n        /* \"#utility.yul\":1160:1166   */\n      dup3\n        /* \"#utility.yul\":1156:1173   */\n      mul\n        /* \"#utility.yul\":1146:1154   */\n      dup4\n        /* \"#utility.yul\":1142:1174   */\n      add\n        /* \"#utility.yul\":1139:1180   */\n      gt\n        /* \"#utility.yul\":1136:1264   */\n      iszero\n      tag_198\n      jumpi\n        /* \"#utility.yul\":1183:1262   */\n      tag_199\n      tag_115\n      jump\t// in\n    tag_199:\n        /* \"#utility.yul\":1136:1264   */\n    tag_198:\n        /* \"#utility.yul\":717:1270   */\n      swap3\n      pop\n      swap3\n      swap1\n      pop\n      jump\t// out\n        /* \"#utility.yul\":1276:1353   */\n    tag_117:\n        /* \"#utility.yul\":1313:1320   */\n      0x00\n        /* \"#utility.yul\":1342:1347   */\n      dup2\n        /* \"#utility.yul\":1331:1347   */\n      swap1\n      pop\n        /* \"#utility.yul\":1276:1353   */\n      swap2\n      swap1\n      pop\n      jump\t// out\n        /* \"#utility.yul\":1359:1481   */\n    tag_118:\n        /* \"#utility.yul\":1432:1456   */\n      tag_202\n        /* \"#utility.yul\":1450:1455   */\n      dup2\n        /* \"#utility.yul\":1432:1456   */\n      tag_117\n      jump\t// in\n    tag_202:\n        /* \"#utility.yul\":1425:1430   */\n      dup2\n        /* \"#utility.yul\":1422:1457   */\n      eq\n        /* \"#utility.yul\":1412:1475   */\n      tag_203\n      jumpi\n        /* \"#utility.yul\":1471:1472   */\n      0x00\n        /* \"#utility.yul\":1468:1469   */\n      0x00\n        /* \"#utility.yul\":1461:1473   */\n      revert\n        /* \"#utility.yul\":1412:1475   */\n    tag_203:\n        /* \"#utility.yul\":1359:1481   */\n      pop\n      jump\t// out\n        /* \"#utility.yul\":1487:1626   */\n    tag_119:\n        /* \"#utility.yul\":1533:1538   */\n      0x00\n        /* \"#utility.yul\":1571:1577   */\n      dup2\n        /* \"#utility.yul\":1558:1578   */\n      calldataload\n        /* \"#utility.yul\":1549:1578   */\n      swap1\n      pop\n        /* \"#utility.yul\":1587:1620   */\n      tag_205\n        /* \"#utility.yul\":1614:1619   */\n      dup2\n        /* \"#utility.yul\":1587:1620   */\n      tag_118\n      jump\t// in\n    tag_205:\n        /* \"#utility.yul\":1487:1626   */\n      swap3\n      swap2\n      pop\n      pop\n      jump\t// out\n        /* \"#utility.yul\":1632:2306   */\n    tag_11:\n        /* \"#utility.yul\":1712:1718   */\n      0x00\n        /* \"#utility.yul\":1720:1726   */\n      0x00\n        /* \"#utility.yul\":1728:1734   */\n      0x00\n        /* \"#utility.yul\":1777:1779   */\n      0x40\n        /* \"#utility.yul\":1765:1774   */\n      dup5\n        /* \"#utility.yul\":1756:1763   */\n      dup7\n        /* \"#utility.yul\":1752:1775   */\n      sub\n        /* \"#utility.yul\":1748:1780   */\n      slt\n        /* \"#utility.yul\":1745:1864   */\n      iszero\n      tag_207\n      jumpi\n        /* \"#utility.yul\":1783:1862   */\n      tag_208\n      tag_111\n      jump\t// in\n    tag_208:\n        /* \"#utility.yul\":1745:1864   */\n    tag_207:\n        /* \"#utility.yul\":1931:1932   */\n      0x00\n        /* \"#utility.yul\":1920:1929   */\n      dup5\n        /* \"#utility.yul\":1916:1933   */\n      add\n        /* \"#utility.yul\":1903:1934   */\n      calldataload\n        /* \"#utility.yul\":1961:1979   */\n      0xffffffffffffffff\n        /* \"#utility.yul\":1953:1959   */\n      dup2\n        /* \"#utility.yul\":1950:1980   */\n      gt\n        /* \"#utility.yul\":1947:2064   */\n      iszero\n      tag_209\n      jumpi\n        /* \"#utility.yul\":1983:2062   */\n      tag_210\n      tag_112\n      jump\t// in\n    tag_210:\n        /* \"#utility.yul\":1947:2064   */\n    tag_209:\n        /* \"#utility.yul\":2096:2161   */\n      tag_211\n        /* \"#utility.yul\":2153:2160   */\n      dup7\n        /* \"#utility.yul\":2144:2150   */\n      dup3\n        /* \"#utility.yul\":2133:2142   */\n      dup8\n        /* \"#utility.yul\":2129:2151   */\n      add\n        /* \"#utility.yul\":2096:2161   */\n      tag_116\n      jump\t// in\n    tag_211:\n        /* \"#utility.yul\":2078:2161   */\n      swap4\n      pop\n      swap4\n      pop\n        /* \"#utility.yul\":1874:2171   */\n      pop\n        /* \"#utility.yul\":2210:2212   */\n      0x20\n        /* \"#utility.yul\":2236:2289   */\n      tag_212\n        /* \"#utility.yul\":2281:2288   */\n      dup7\n        /* \"#utility.yul\":2272:2278   */\n      dup3\n        /* \"#utility.yul\":2261:2270   */\n      dup8\n        /* \"#utility.yul\":2257:2279   */\n      add\n        /* \"#utility.yul\":2236:2289   */\n      tag_119\n      jump\t// in\n    tag_212:\n        /* \"#utility.yul\":2226:2289   */\n      swap2\n      pop\n        /* \"#utility.yul\":2181:2299   */\n      pop\n        /* \"#utility.yul\":1632:2306   */\n      swap3\n      pop\n      swap3\n      pop\n      swap3\n      jump\t// out\n        /* \"#utility.yul\":2312:2429   */\n    tag_120:\n        /* \"#utility.yul\":2421:2422   */\n      0x00\n        /* \"#utility.yul\":2418:2419   */\n      0x00\n        /* \"#utility.yul\":2411:2423   */\n      revert\n        /* \"#utility.yul\":2435:2537   */\n    tag_121:\n        /* \"#utility.yul\":2476:2482   */\n      0x00\n        /* \"#utility.yul\":2527:2529   */\n      0x1f\n        /* \"#utility.yul\":2523:2530   */\n      not\n        /* \"#utility.yul\":2518:2520   */\n      0x1f\n        /* \"#utility.yul\":2511:2516   */\n      dup4\n        /* \"#utility.yul\":2507:2521   */\n      add\n        /* \"#utility.yul\":2503:2531   */\n      and\n        /* \"#utility.yul\":2493:2531   */\n      swap1\n      pop\n        /* \"#utility.yul\":2435:2537   */\n      swap2\n      swap1\n      pop\n      jump\t// out\n        /* \"#utility.yul\":2543:2723   */\n    tag_122:\n        /* \"#utility.yul\":2591:2668   */\n      0x4e487b7100000000000000000000000000000000000000000000000000000000\n        /* \"#utility.yul\":2588:2589   */\n      0x00\n        /* \"#utility.yul\":2581:2669   */\n      mstore\n        /* \"#utility.yul\":2688:2692   */\n      0x41\n        /* \"#utility.yul\":2685:2686   */\n      0x04\n        /* \"#utility.yul\":2678:2693   */\n      mstore\n        /* \"#utility.yul\":2712:2716   */\n      0x24\n        /* \"#utility.yul\":2709:2710   */\n      0x00\n        /* \"#utility.yul\":2702:2717   */\n      revert\n        /* \"#utility.yul\":2729:3010   */\n    tag_123:\n        /* \"#utility.yul\":2812:2839   */\n      tag_217\n        /* \"#utility.yul\":2834:2838   */\n      dup3\n        /* \"#utility.yul\":2812:2839   */\n      tag_121\n      jump\t// in\n    tag_217:\n        /* \"#utility.yul\":2804:2810   */\n      dup2\n        /* \"#utility.yul\":2800:2840   */\n      add\n        /* \"#utility.yul\":2942:2948   */\n      dup2\n        /* \"#utility.yul\":2930:2940   */\n      dup2\n        /* \"#utility.yul\":2927:2949   */\n      lt\n        /* \"#utility.yul\":2906:2924   */\n      0xffffffffffffffff\n        /* \"#utility.yul\":2894:2904   */\n      dup3\n        /* \"#utility.yul\":2891:2925   */\n      gt\n        /* \"#utility.yul\":2888:2950   */\n      or\n        /* \"#utility.yul\":2885:2973   */\n      iszero\n      tag_218\n      jumpi\n        /* \"#utility.yul\":2953:2971   */\n      tag_219\n      tag_122\n      jump\t// in\n    tag_219:\n        /* \"#utility.yul\":2885:2973   */\n    tag_218:\n        /* \"#utility.yul\":2993:3003   */\n      dup1\n        /* \"#utility.yul\":2989:2991   */\n      0x40\n        /* \"#utility.yul\":2982:3004   */\n      mstore\n        /* \"#utility.yul\":2772:3010   */\n      pop\n        /* \"#utility.yul\":2729:3010   */\n      pop\n      pop\n      jump\t// out\n        /* \"#utility.yul\":3016:3145   */\n    tag_124:\n        /* \"#utility.yul\":3050:3056   */\n      0x00\n        /* \"#utility.yul\":3077:3097   */\n      tag_221\n      tag_110\n      jump\t// in\n    tag_221:\n        /* \"#utility.yul\":3067:3097   */\n      swap1\n      pop\n        /* \"#utility.yul\":3106:3139   */\n      tag_222\n        /* \"#utility.yul\":3134:3138   */\n      dup3\n        /* \"#utility.yul\":3126:3132   */\n      dup3\n        /* \"#utility.yul\":3106:3139   */\n      tag_123\n      jump\t// in\n    tag_222:\n        /* \"#utility.yul\":3016:3145   */\n      swap2\n      swap1\n      pop\n      jump\t// out\n        /* \"#utility.yul\":3151:3459   */\n    tag_125:\n        /* \"#utility.yul\":3213:3217   */\n      0x00\n        /* \"#utility.yul\":3303:3321   */\n      0xffffffffffffffff\n        /* \"#utility.yul\":3295:3301   */\n      dup3\n        /* \"#utility.yul\":3292:3322   */\n      gt\n        /* \"#utility.yul\":3289:3345   */\n      iszero\n      tag_224\n      jumpi\n        /* \"#utility.yul\":3325:3343   */\n      tag_225\n      tag_122\n      jump\t// in\n    tag_225:\n        /* \"#utility.yul\":3289:3345   */\n    tag_224:\n        /* \"#utility.yul\":3363:3392   */\n      tag_226\n        /* \"#utility.yul\":3385:3391   */\n      dup3\n        /* \"#utility.yul\":3363:3392   */\n      tag_121\n      jump\t// in\n    tag_226:\n        /* \"#utility.yul\":3355:3392   */\n      swap1\n      pop\n        /* \"#utility.yul\":3447:3451   */\n      0x20\n        /* \"#utility.yul\":3441:3445   */\n      dup2\n        /* \"#utility.yul\":3437:3452   */\n      add\n        /* \"#utility.yul\":3429:3452   */\n      swap1\n      pop\n        /* \"#utility.yul\":3151:3459   */\n      swap2\n      swap1\n      pop\n      jump\t// out\n        /* \"#utility.yul\":3465:3613   */\n    tag_126:\n        /* \"#utility.yul\":3563:3569   */\n      dup3\n        /* \"#utility.yul\":3558:3561   */\n      dup2\n        /* \"#utility.yul\":3553:3556   */\n      dup4\n        /* \"#utility.yul\":3540:3570   */\n      calldatacopy\n        /* \"#utility.yul\":3604:3605   */\n      0x00\n        /* \"#utility.yul\":3595:3601   */\n      dup4\n        /* \"#utility.yul\":3590:3593   */\n      dup4\n        /* \"#utility.yul\":3586:3602   */\n      add\n        /* \"#utility.yul\":3579:3606   */\n      mstore\n        /* \"#utility.yul\":3465:3613   */\n      pop\n      pop\n      pop\n      jump\t// out\n        /* \"#utility.yul\":3619:4044   */\n    tag_127:\n        /* \"#utility.yul\":3697:3702   */\n      0x00\n        /* \"#utility.yul\":3722:3788   */\n      tag_229\n        /* \"#utility.yul\":3738:3787   */\n      tag_230\n        /* \"#utility.yul\":3780:3786   */\n      dup5\n        /* \"#utility.yul\":3738:3787   */\n      tag_125\n      jump\t// in\n    tag_230:\n        /* \"#utility.yul\":3722:3788   */\n      tag_124\n      jump\t// in\n    tag_229:\n        /* \"#utility.yul\":3713:3788   */\n      swap1\n      pop\n        /* \"#utility.yul\":3811:3817   */\n      dup3\n        /* \"#utility.yul\":3804:3809   */\n      dup2\n        /* \"#utility.yul\":3797:3818   */\n      mstore\n        /* \"#utility.yul\":3849:3853   */\n      0x20\n        /* \"#utility.yul\":3842:3847   */\n      dup2\n        /* \"#utility.yul\":3838:3854   */\n      add\n        /* \"#utility.yul\":3887:3890   */\n      dup5\n        /* \"#utility.yul\":3878:3884   */\n      dup5\n        /* \"#utility.yul\":3873:3876   */\n      dup5\n        /* \"#utility.yul\":3869:3885   */\n      add\n        /* \"#utility.yul\":3866:3891   */\n      gt\n        /* \"#utility.yul\":3863:3975   */\n      iszero\n      tag_231\n      jumpi\n        /* \"#utility.yul\":3894:3973   */\n      tag_232\n      tag_120\n      jump\t// in\n    tag_232:\n        /* \"#utility.yul\":3863:3975   */\n    tag_231:\n        /* \"#utility.yul\":3984:4038   */\n      tag_233\n        /* \"#utility.yul\":4031:4037   */\n      dup5\n        /* \"#utility.yul\":4026:4029   */\n      dup3\n        /* \"#utility.yul\":4021:4024   */\n      dup6\n        /* \"#utility.yul\":3984:4038   */\n      tag_126\n      jump\t// in\n    tag_233:\n        /* \"#utility.yul\":3703:4044   */\n      pop\n        /* \"#utility.yul\":3619:4044   */\n      swap4\n      swap3\n      pop\n      pop\n      pop\n      jump\t// out\n        /* \"#utility.yul\":4064:4404   */\n    tag_128:\n        /* \"#utility.yul\":4120:4125   */\n      0x00\n        /* \"#utility.yul\":4169:4172   */\n      dup3\n        /* \"#utility.yul\":4162:4166   */\n      0x1f\n        /* \"#utility.yul\":4154:4160   */\n      dup4\n        /* \"#utility.yul\":4150:4167   */\n      add\n        /* \"#utility.yul\":4146:4173   */\n      slt\n        /* \"#utility.yul\":4136:4258   */\n      tag_235\n      jumpi\n        /* \"#utility.yul\":4177:4256   */\n      tag_236\n      tag_113\n      jump\t// in\n    tag_236:\n        /* \"#utility.yul\":4136:4258   */\n    tag_235:\n        /* \"#utility.yul\":4294:4300   */\n      dup2\n        /* \"#utility.yul\":4281:4301   */\n      calldataload\n        /* \"#utility.yul\":4319:4398   */\n      tag_237\n        /* \"#utility.yul\":4394:4397   */\n      dup5\n        /* \"#utility.yul\":4386:4392   */\n      dup3\n        /* \"#utility.yul\":4379:4383   */\n      0x20\n        /* \"#utility.yul\":4371:4377   */\n      dup7\n        /* \"#utility.yul\":4367:4384   */\n      add\n        /* \"#utility.yul\":4319:4398   */\n      tag_127\n      jump\t// in\n    tag_237:\n        /* \"#utility.yul\":4310:4398   */\n      swap2\n      pop\n        /* \"#utility.yul\":4126:4404   */\n      pop\n        /* \"#utility.yul\":4064:4404   */\n      swap3\n      swap2\n      pop\n      pop\n      jump\t// out\n        /* \"#utility.yul\":4410:4919   */\n    tag_16:\n        /* \"#utility.yul\":4479:4485   */\n      0x00\n        /* \"#utility.yul\":4528:4530   */\n      0x20\n        /* \"#utility.yul\":4516:4525   */\n      dup3\n        /* \"#utility.yul\":4507:4514   */\n      dup5\n        /* \"#utility.yul\":4503:4526   */\n      sub\n        /* \"#utility.yul\":4499:4531   */\n      slt\n        /* \"#utility.yul\":4496:4615   */\n      iszero\n      tag_239\n      jumpi\n        /* \"#utility.yul\":4534:4613   */\n      tag_240\n      tag_111\n      jump\t// in\n    tag_240:\n        /* \"#utility.yul\":4496:4615   */\n    tag_239:\n        /* \"#utility.yul\":4682:4683   */\n      0x00\n        /* \"#utility.yul\":4671:4680   */\n      dup3\n        /* \"#utility.yul\":4667:4684   */\n      add\n        /* \"#utility.yul\":4654:4685   */\n      calldataload\n        /* \"#utility.yul\":4712:4730   */\n      0xffffffffffffffff\n        /* \"#utility.yul\":4704:4710   */\n      dup2\n        /* \"#utility.yul\":4701:4731   */\n      gt\n        /* \"#utility.yul\":4698:4815   */\n      iszero\n      tag_241\n      jumpi\n        /* \"#utility.yul\":4734:4813   */\n      tag_242\n      tag_112\n      jump\t// in\n    tag_242:\n        /* \"#utility.yul\":4698:4815   */\n    tag_241:\n        /* \"#utility.yul\":4839:4902   */\n      tag_243\n        /* \"#utility.yul\":4894:4901   */\n      dup5\n        /* \"#utility.yul\":4885:4891   */\n      dup3\n        /* \"#utility.yul\":4874:4883   */\n      dup6\n        /* \"#utility.yul\":4870:4892   */\n      add\n        /* \"#utility.yul\":4839:4902   */\n      tag_128\n      jump\t// in\n    tag_243:\n        /* \"#utility.yul\":4829:4902   */\n      swap2\n      pop\n        /* \"#utility.yul\":4625:4912   */\n      pop\n        /* \"#utility.yul\":4410:4919   */\n      swap3\n      swap2\n      pop\n      pop\n      jump\t// out\n        /* \"#utility.yul\":4925:5024   */\n    tag_129:\n        /* \"#utility.yul\":4977:4983   */\n      0x00\n        /* \"#utility.yul\":5011:5016   */\n      dup2\n        /* \"#utility.yul\":5005:5017   */\n      mload\n        /* \"#utility.yul\":4995:5017   */\n      swap1\n      pop\n        /* \"#utility.yul\":4925:5024   */\n      swap2\n      swap1\n      pop\n      jump\t// out\n        /* \"#utility.yul\":5030:5199   */\n    tag_130:\n        /* \"#utility.yul\":5114:5125   */\n      0x00\n        /* \"#utility.yul\":5148:5154   */\n      dup3\n        /* \"#utility.yul\":5143:5146   */\n      dup3\n        /* \"#utility.yul\":5136:5155   */\n      mstore\n        /* \"#utility.yul\":5188:5192   */\n      0x20\n        /* \"#utility.yul\":5183:5186   */\n      dup3\n        /* \"#utility.yul\":5179:5193   */\n      add\n        /* \"#utility.yul\":5164:5193   */\n      swap1\n      pop\n        /* \"#utility.yul\":5030:5199   */\n      swap3\n      swap2\n      pop\n      pop\n      jump\t// out\n        /* \"#utility.yul\":5205:5344   */\n    tag_131:\n        /* \"#utility.yul\":5294:5300   */\n      dup3\n        /* \"#utility.yul\":5289:5292   */\n      dup2\n        /* \"#utility.yul\":5284:5287   */\n      dup4\n        /* \"#utility.yul\":5278:5301   */\n      mcopy\n        /* \"#utility.yul\":5335:5336   */\n      0x00\n        /* \"#utility.yul\":5326:5332   */\n      dup4\n        /* \"#utility.yul\":5321:5324   */\n      dup4\n        /* \"#utility.yul\":5317:5333   */\n      add\n        /* \"#utility.yul\":5310:5337   */\n      mstore\n        /* \"#utility.yul\":5205:5344   */\n      pop\n      pop\n      pop\n      jump\t// out\n        /* \"#utility.yul\":5350:5727   */\n    tag_132:\n        /* \"#utility.yul\":5438:5441   */\n      0x00\n        /* \"#utility.yul\":5466:5505   */\n      tag_248\n        /* \"#utility.yul\":5499:5504   */\n      dup3\n        /* \"#utility.yul\":5466:5505   */\n      tag_129\n      jump\t// in\n    tag_248:\n        /* \"#utility.yul\":5521:5592   */\n      tag_249\n        /* \"#utility.yul\":5585:5591   */\n      dup2\n        /* \"#utility.yul\":5580:5583   */\n      dup6\n        /* \"#utility.yul\":5521:5592   */\n      tag_130\n      jump\t// in\n    tag_249:\n        /* \"#utility.yul\":5514:5592   */\n      swap4\n      pop\n        /* \"#utility.yul\":5601:5666   */\n      tag_250\n        /* \"#utility.yul\":5659:5665   */\n      dup2\n        /* \"#utility.yul\":5654:5657   */\n      dup6\n        /* \"#utility.yul\":5647:5651   */\n      0x20\n        /* \"#utility.yul\":5640:5645   */\n      dup7\n        /* \"#utility.yul\":5636:5652   */\n      add\n        /* \"#utility.yul\":5601:5666   */\n      tag_131\n      jump\t// in\n    tag_250:\n        /* \"#utility.yul\":5691:5720   */\n      tag_251\n        /* \"#utility.yul\":5713:5719   */\n      dup2\n        /* \"#utility.yul\":5691:5720   */\n      tag_121\n      jump\t// in\n    tag_251:\n        /* \"#utility.yul\":5686:5689   */\n      dup5\n        /* \"#utility.yul\":5682:5721   */\n      add\n        /* \"#utility.yul\":5675:5721   */\n      swap2\n      pop\n        /* \"#utility.yul\":5442:5727   */\n      pop\n        /* \"#utility.yul\":5350:5727   */\n      swap3\n      swap2\n      pop\n      pop\n      jump\t// out\n        /* \"#utility.yul\":5733:5859   */\n    tag_133:\n        /* \"#utility.yul\":5770:5777   */\n      0x00\n        /* \"#utility.yul\":5810:5852   */\n      0xffffffffffffffffffffffffffffffffffffffff\n        /* \"#utility.yul\":5803:5808   */\n      dup3\n        /* \"#utility.yul\":5799:5853   */\n      and\n        /* \"#utility.yul\":5788:5853   */\n      swap1\n      pop\n        /* \"#utility.yul\":5733:5859   */\n      swap2\n      swap1\n      pop\n      jump\t// out\n        /* \"#utility.yul\":5865:5969   */\n    tag_134:\n        /* \"#utility.yul\":5910:5917   */\n      0x00\n        /* \"#utility.yul\":5939:5963   */\n      tag_254\n        /* \"#utility.yul\":5957:5962   */\n      dup3\n        /* \"#utility.yul\":5939:5963   */\n      tag_133\n      jump\t// in\n    tag_254:\n        /* \"#utility.yul\":5928:5963   */\n      swap1\n      pop\n        /* \"#utility.yul\":5865:5969   */\n      swap2\n      swap1\n      pop\n      jump\t// out\n        /* \"#utility.yul\":5975:6117   */\n    tag_135:\n        /* \"#utility.yul\":6078:6110   */\n      tag_256\n        /* \"#utility.yul\":6104:6109   */\n      dup2\n        /* \"#utility.yul\":6078:6110   */\n      tag_134\n      jump\t// in\n    tag_256:\n        /* \"#utility.yul\":6073:6076   */\n      dup3\n        /* \"#utility.yul\":6066:6111   */\n      mstore\n        /* \"#utility.yul\":5975:6117   */\n      pop\n      pop\n      jump\t// out\n        /* \"#utility.yul\":6123:6241   */\n    tag_136:\n        /* \"#utility.yul\":6210:6234   */\n      tag_258\n        /* \"#utility.yul\":6228:6233   */\n      dup2\n        /* \"#utility.yul\":6210:6234   */\n      tag_117\n      jump\t// in\n    tag_258:\n        /* \"#utility.yul\":6205:6208   */\n      dup3\n        /* \"#utility.yul\":6198:6235   */\n      mstore\n        /* \"#utility.yul\":6123:6241   */\n      pop\n      pop\n      jump\t// out\n        /* \"#utility.yul\":6247:6337   */\n    tag_137:\n        /* \"#utility.yul\":6281:6288   */\n      0x00\n        /* \"#utility.yul\":6324:6329   */\n      dup2\n        /* \"#utility.yul\":6317:6330   */\n      iszero\n        /* \"#utility.yul\":6310:6331   */\n      iszero\n        /* \"#utility.yul\":6299:6331   */\n      swap1\n      pop\n        /* \"#utility.yul\":6247:6337   */\n      swap2\n      swap1\n      pop\n      jump\t// out\n        /* \"#utility.yul\":6343:6452   */\n    tag_138:\n        /* \"#utility.yul\":6424:6445   */\n      tag_261\n        /* \"#utility.yul\":6439:6444   */\n      dup2\n        /* \"#utility.yul\":6424:6445   */\n      tag_137\n      jump\t// in\n    tag_261:\n        /* \"#utility.yul\":6419:6422   */\n      dup3\n        /* \"#utility.yul\":6412:6446   */\n      mstore\n        /* \"#utility.yul\":6343:6452   */\n      pop\n      pop\n      jump\t// out\n        /* \"#utility.yul\":6458:7530   */\n    tag_19:\n        /* \"#utility.yul\":6759:6763   */\n      0x00\n        /* \"#utility.yul\":6797:6800   */\n      0x0100\n        /* \"#utility.yul\":6786:6795   */\n      dup3\n        /* \"#utility.yul\":6782:6801   */\n      add\n        /* \"#utility.yul\":6774:6801   */\n      swap1\n      pop\n        /* \"#utility.yul\":6847:6856   */\n      dup2\n        /* \"#utility.yul\":6841:6845   */\n      dup2\n        /* \"#utility.yul\":6837:6857   */\n      sub\n        /* \"#utility.yul\":6833:6834   */\n      0x00\n        /* \"#utility.yul\":6822:6831   */\n      dup4\n        /* \"#utility.yul\":6818:6835   */\n      add\n        /* \"#utility.yul\":6811:6858   */\n      mstore\n        /* \"#utility.yul\":6875:6953   */\n      tag_263\n        /* \"#utility.yul\":6948:6952   */\n      dup2\n        /* \"#utility.yul\":6939:6945   */\n      dup12\n        /* \"#utility.yul\":6875:6953   */\n      tag_132\n      jump\t// in\n    tag_263:\n        /* \"#utility.yul\":6867:6953   */\n      swap1\n      pop\n        /* \"#utility.yul\":6963:7051   */\n      tag_264\n        /* \"#utility.yul\":7047:7049   */\n      0x20\n        /* \"#utility.yul\":7036:7045   */\n      dup4\n        /* \"#utility.yul\":7032:7050   */\n      add\n        /* \"#utility.yul\":7023:7029   */\n      dup11\n        /* \"#utility.yul\":6963:7051   */\n      tag_135\n      jump\t// in\n    tag_264:\n        /* \"#utility.yul\":7061:7133   */\n      tag_265\n        /* \"#utility.yul\":7129:7131   */\n      0x40\n        /* \"#utility.yul\":7118:7127   */\n      dup4\n        /* \"#utility.yul\":7114:7132   */\n      add\n        /* \"#utility.yul\":7105:7111   */\n      dup10\n        /* \"#utility.yul\":7061:7133   */\n      tag_136\n      jump\t// in\n    tag_265:\n        /* \"#utility.yul\":7143:7215   */\n      tag_266\n        /* \"#utility.yul\":7211:7213   */\n      0x60\n        /* \"#utility.yul\":7200:7209   */\n      dup4\n        /* \"#utility.yul\":7196:7214   */\n      add\n        /* \"#utility.yul\":7187:7193   */\n      dup9\n        /* \"#utility.yul\":7143:7215   */\n      tag_136\n      jump\t// in\n    tag_266:\n        /* \"#utility.yul\":7225:7292   */\n      tag_267\n        /* \"#utility.yul\":7287:7290   */\n      0x80\n        /* \"#utility.yul\":7276:7285   */\n      dup4\n        /* \"#utility.yul\":7272:7291   */\n      add\n        /* \"#utility.yul\":7263:7269   */\n      dup8\n        /* \"#utility.yul\":7225:7292   */\n      tag_138\n      jump\t// in\n    tag_267:\n        /* \"#utility.yul\":7302:7369   */\n      tag_268\n        /* \"#utility.yul\":7364:7367   */\n      0xa0\n        /* \"#utility.yul\":7353:7362   */\n      dup4\n        /* \"#utility.yul\":7349:7368   */\n      add\n        /* \"#utility.yul\":7340:7346   */\n      dup7\n        /* \"#utility.yul\":7302:7369   */\n      tag_138\n      jump\t// in\n    tag_268:\n        /* \"#utility.yul\":7379:7446   */\n      tag_269\n        /* \"#utility.yul\":7441:7444   */\n      0xc0\n        /* \"#utility.yul\":7430:7439   */\n      dup4\n        /* \"#utility.yul\":7426:7445   */\n      add\n        /* \"#utility.yul\":7417:7423   */\n      dup6\n        /* \"#utility.yul\":7379:7446   */\n      tag_138\n      jump\t// in\n    tag_269:\n        /* \"#utility.yul\":7456:7523   */\n      tag_270\n        /* \"#utility.yul\":7518:7521   */\n      0xe0\n        /* \"#utility.yul\":7507:7516   */\n      dup4\n        /* \"#utility.yul\":7503:7522   */\n      add\n        /* \"#utility.yul\":7494:7500   */\n      dup5\n        /* \"#utility.yul\":7456:7523   */\n      tag_138\n      jump\t// in\n    tag_270:\n        /* \"#utility.yul\":6458:7530   */\n      swap10\n      swap9\n      pop\n      pop\n      pop\n      pop\n      pop\n      pop\n      pop\n      pop\n      pop\n      jump\t// out\n        /* \"#utility.yul\":7536:8065   */\n    tag_23:\n        /* \"#utility.yul\":7607:7613   */\n      0x00\n        /* \"#utility.yul\":7615:7621   */\n      0x00\n        /* \"#utility.yul\":7664:7666   */\n      0x20\n        /* \"#utility.yul\":7652:7661   */\n      dup4\n        /* \"#utility.yul\":7643:7650   */\n      dup6\n        /* \"#utility.yul\":7639:7662   */\n      sub\n        /* \"#utility.yul\":7635:7667   */\n      slt\n        /* \"#utility.yul\":7632:7751   */\n      iszero\n      tag_272\n      jumpi\n        /* \"#utility.yul\":7670:7749   */\n      tag_273\n      tag_111\n      jump\t// in\n    tag_273:\n        /* \"#utility.yul\":7632:7751   */\n    tag_272:\n        /* \"#utility.yul\":7818:7819   */\n      0x00\n        /* \"#utility.yul\":7807:7816   */\n      dup4\n        /* \"#utility.yul\":7803:7820   */\n      add\n        /* \"#utility.yul\":7790:7821   */\n      calldataload\n        /* \"#utility.yul\":7848:7866   */\n      0xffffffffffffffff\n        /* \"#utility.yul\":7840:7846   */\n      dup2\n        /* \"#utility.yul\":7837:7867   */\n      gt\n        /* \"#utility.yul\":7834:7951   */\n      iszero\n      tag_274\n      jumpi\n        /* \"#utility.yul\":7870:7949   */\n      tag_275\n      tag_112\n      jump\t// in\n    tag_275:\n        /* \"#utility.yul\":7834:7951   */\n    tag_274:\n        /* \"#utility.yul\":7983:8048   */\n      tag_276\n        /* \"#utility.yul\":8040:8047   */\n      dup6\n        /* \"#utility.yul\":8031:8037   */\n      dup3\n        /* \"#utility.yul\":8020:8029   */\n      dup7\n        /* \"#utility.yul\":8016:8038   */\n      add\n        /* \"#utility.yul\":7983:8048   */\n      tag_116\n      jump\t// in\n    tag_276:\n        /* \"#utility.yul\":7965:8048   */\n      swap3\n      pop\n      swap3\n      pop\n        /* \"#utility.yul\":7761:8058   */\n      pop\n        /* \"#utility.yul\":7536:8065   */\n      swap3\n      pop\n      swap3\n      swap1\n      pop\n      jump\t// out\n        /* \"#utility.yul\":8071:8293   */\n    tag_29:\n        /* \"#utility.yul\":8164:8168   */\n      0x00\n        /* \"#utility.yul\":8202:8204   */\n      0x20\n        /* \"#utility.yul\":8191:8200   */\n      dup3\n        /* \"#utility.yul\":8187:8205   */\n      add\n        /* \"#utility.yul\":8179:8205   */\n      swap1\n      pop\n        /* \"#utility.yul\":8215:8286   */\n      tag_278\n        /* \"#utility.yul\":8283:8284   */\n      0x00\n        /* \"#utility.yul\":8272:8281   */\n      dup4\n        /* \"#utility.yul\":8268:8285   */\n      add\n        /* \"#utility.yul\":8259:8265   */\n      dup5\n        /* \"#utility.yul\":8215:8286   */\n      tag_136\n      jump\t// in\n    tag_278:\n        /* \"#utility.yul\":8071:8293   */\n      swap3\n      swap2\n      pop\n      pop\n      jump\t// out\n        /* \"#utility.yul\":8299:8628   */\n    tag_36:\n        /* \"#utility.yul\":8358:8364   */\n      0x00\n        /* \"#utility.yul\":8407:8409   */\n      0x20\n        /* \"#utility.yul\":8395:8404   */\n      dup3\n        /* \"#utility.yul\":8386:8393   */\n      dup5\n        /* \"#utility.yul\":8382:8405   */\n      sub\n        /* \"#utility.yul\":8378:8410   */\n      slt\n        /* \"#utility.yul\":8375:8494   */\n      iszero\n      tag_280\n      jumpi\n        /* \"#utility.yul\":8413:8492   */\n      tag_281\n      tag_111\n      jump\t// in\n    tag_281:\n        /* \"#utility.yul\":8375:8494   */\n    tag_280:\n        /* \"#utility.yul\":8533:8534   */\n      0x00\n        /* \"#utility.yul\":8558:8611   */\n      tag_282\n        /* \"#utility.yul\":8603:8610   */\n      dup5\n        /* \"#utility.yul\":8594:8600   */\n      dup3\n        /* \"#utility.yul\":8583:8592   */\n      dup6\n        /* \"#utility.yul\":8579:8601   */\n      add\n        /* \"#utility.yul\":8558:8611   */\n      tag_119\n      jump\t// in\n    tag_282:\n        /* \"#utility.yul\":8548:8611   */\n      swap2\n      pop\n        /* \"#utility.yul\":8504:8621   */\n      pop\n        /* \"#utility.yul\":8299:8628   */\n      swap3\n      swap2\n      pop\n      pop\n      jump\t// out\n        /* \"#utility.yul\":8634:8730   */\n    tag_139:\n        /* \"#utility.yul\":8671:8678   */\n      0x00\n        /* \"#utility.yul\":8700:8724   */\n      tag_284\n        /* \"#utility.yul\":8718:8723   */\n      dup3\n        /* \"#utility.yul\":8700:8724   */\n      tag_133\n      jump\t// in\n    tag_284:\n        /* \"#utility.yul\":8689:8724   */\n      swap1\n      pop\n        /* \"#utility.yul\":8634:8730   */\n      swap2\n      swap1\n      pop\n      jump\t// out\n        /* \"#utility.yul\":8736:8854   */\n    tag_140:\n        /* \"#utility.yul\":8823:8847   */\n      tag_286\n        /* \"#utility.yul\":8841:8846   */\n      dup2\n        /* \"#utility.yul\":8823:8847   */\n      tag_139\n      jump\t// in\n    tag_286:\n        /* \"#utility.yul\":8818:8821   */\n      dup3\n        /* \"#utility.yul\":8811:8848   */\n      mstore\n        /* \"#utility.yul\":8736:8854   */\n      pop\n      pop\n      jump\t// out\n        /* \"#utility.yul\":8860:9192   */\n    tag_39:\n        /* \"#utility.yul\":8981:8985   */\n      0x00\n        /* \"#utility.yul\":9019:9021   */\n      0x40\n        /* \"#utility.yul\":9008:9017   */\n      dup3\n        /* \"#utility.yul\":9004:9022   */\n      add\n        /* \"#utility.yul\":8996:9022   */\n      swap1\n      pop\n        /* \"#utility.yul\":9032:9103   */\n      tag_288\n        /* \"#utility.yul\":9100:9101   */\n      0x00\n        /* \"#utility.yul\":9089:9098   */\n      dup4\n        /* \"#utility.yul\":9085:9102   */\n      add\n        /* \"#utility.yul\":9076:9082   */\n      dup6\n        /* \"#utility.yul\":9032:9103   */\n      tag_140\n      jump\t// in\n    tag_288:\n        /* \"#utility.yul\":9113:9185   */\n      tag_289\n        /* \"#utility.yul\":9181:9183   */\n      0x20\n        /* \"#utility.yul\":9170:9179   */\n      dup4\n        /* \"#utility.yul\":9166:9184   */\n      add\n        /* \"#utility.yul\":9157:9163   */\n      dup5\n        /* \"#utility.yul\":9113:9185   */\n      tag_136\n      jump\t// in\n    tag_289:\n        /* \"#utility.yul\":8860:9192   */\n      swap4\n      swap3\n      pop\n      pop\n      pop\n      jump\t// out\n        /* \"#utility.yul\":9198:9346   */\n    tag_141:\n        /* \"#utility.yul\":9300:9311   */\n      0x00\n        /* \"#utility.yul\":9337:9340   */\n      dup2\n        /* \"#utility.yul\":9322:9340   */\n      swap1\n      pop\n        /* \"#utility.yul\":9198:9346   */\n      swap3\n      swap2\n      pop\n      pop\n      jump\t// out\n        /* \"#utility.yul\":9376:9706   */\n    tag_142:\n        /* \"#utility.yul\":9492:9495   */\n      0x00\n        /* \"#utility.yul\":9513:9602   */\n      tag_292\n        /* \"#utility.yul\":9595:9601   */\n      dup4\n        /* \"#utility.yul\":9590:9593   */\n      dup6\n        /* \"#utility.yul\":9513:9602   */\n      tag_141\n      jump\t// in\n    tag_292:\n        /* \"#utility.yul\":9506:9602   */\n      swap4\n      pop\n        /* \"#utility.yul\":9612:9668   */\n      tag_293\n        /* \"#utility.yul\":9661:9667   */\n      dup4\n        /* \"#utility.yul\":9656:9659   */\n      dup6\n        /* \"#utility.yul\":9649:9654   */\n      dup5\n        /* \"#utility.yul\":9612:9668   */\n      tag_126\n      jump\t// in\n    tag_293:\n        /* \"#utility.yul\":9693:9699   */\n      dup3\n        /* \"#utility.yul\":9688:9691   */\n      dup5\n        /* \"#utility.yul\":9684:9700   */\n      add\n        /* \"#utility.yul\":9677:9700   */\n      swap1\n      pop\n        /* \"#utility.yul\":9376:9706   */\n      swap4\n      swap3\n      pop\n      pop\n      pop\n      jump\t// out\n        /* \"#utility.yul\":9712:10007   */\n    tag_42:\n        /* \"#utility.yul\":9854:9857   */\n      0x00\n        /* \"#utility.yul\":9876:9981   */\n      tag_295\n        /* \"#utility.yul\":9977:9980   */\n      dup3\n        /* \"#utility.yul\":9968:9974   */\n      dup5\n        /* \"#utility.yul\":9960:9966   */\n      dup7\n        /* \"#utility.yul\":9876:9981   */\n      tag_142\n      jump\t// in\n    tag_295:\n        /* \"#utility.yul\":9869:9981   */\n      swap2\n      pop\n        /* \"#utility.yul\":9998:10001   */\n      dup2\n        /* \"#utility.yul\":9991:10001   */\n      swap1\n      pop\n        /* \"#utility.yul\":9712:10007   */\n      swap4\n      swap3\n      pop\n      pop\n      pop\n      jump\t// out\n        /* \"#utility.yul\":10013:10110   */\n    tag_143:\n        /* \"#utility.yul\":10072:10078   */\n      0x00\n        /* \"#utility.yul\":10100:10103   */\n      dup3\n        /* \"#utility.yul\":10090:10103   */\n      swap1\n      pop\n        /* \"#utility.yul\":10013:10110   */\n      swap3\n      swap2\n      pop\n      pop\n      jump\t// out\n        /* \"#utility.yul\":10116:10296   */\n    tag_144:\n        /* \"#utility.yul\":10164:10241   */\n      0x4e487b7100000000000000000000000000000000000000000000000000000000\n        /* \"#utility.yul\":10161:10162   */\n      0x00\n        /* \"#utility.yul\":10154:10242   */\n      mstore\n        /* \"#utility.yul\":10261:10265   */\n      0x22\n        /* \"#utility.yul\":10258:10259   */\n      0x04\n        /* \"#utility.yul\":10251:10266   */\n      mstore\n        /* \"#utility.yul\":10285:10289   */\n      0x24\n        /* \"#utility.yul\":10282:10283   */\n      0x00\n        /* \"#utility.yul\":10275:10290   */\n      revert\n        /* \"#utility.yul\":10302:10622   */\n    tag_46:\n        /* \"#utility.yul\":10346:10352   */\n      0x00\n        /* \"#utility.yul\":10383:10384   */\n      0x02\n        /* \"#utility.yul\":10377:10381   */\n      dup3\n        /* \"#utility.yul\":10373:10385   */\n      div\n        /* \"#utility.yul\":10363:10385   */\n      swap1\n      pop\n        /* \"#utility.yul\":10430:10431   */\n      0x01\n        /* \"#utility.yul\":10424:10428   */\n      dup3\n        /* \"#utility.yul\":10420:10432   */\n      and\n        /* \"#utility.yul\":10451:10469   */\n      dup1\n        /* \"#utility.yul\":10441:10522   */\n      tag_299\n      jumpi\n        /* \"#utility.yul\":10507:10511   */\n      0x7f\n        /* \"#utility.yul\":10499:10505   */\n      dup3\n        /* \"#utility.yul\":10495:10512   */\n      and\n        /* \"#utility.yul\":10485:10512   */\n      swap2\n      pop\n        /* \"#utility.yul\":10441:10522   */\n    tag_299:\n        /* \"#utility.yul\":10569:10571   */\n      0x20\n        /* \"#utility.yul\":10561:10567   */\n      dup3\n        /* \"#utility.yul\":10558:10572   */\n      lt\n        /* \"#utility.yul\":10538:10556   */\n      dup2\n        /* \"#utility.yul\":10535:10573   */\n      sub\n        /* \"#utility.yul\":10532:10616   */\n      tag_300\n      jumpi\n        /* \"#utility.yul\":10588:10606   */\n      tag_301\n      tag_144\n      jump\t// in\n    tag_301:\n        /* \"#utility.yul\":10532:10616   */\n    tag_300:\n        /* \"#utility.yul\":10353:10622   */\n      pop\n        /* \"#utility.yul\":10302:10622   */\n      swap2\n      swap1\n      pop\n      jump\t// out\n        /* \"#utility.yul\":10628:10769   */\n    tag_145:\n        /* \"#utility.yul\":10677:10681   */\n      0x00\n        /* \"#utility.yul\":10700:10703   */\n      dup2\n        /* \"#utility.yul\":10692:10703   */\n      swap1\n      pop\n        /* \"#utility.yul\":10723:10726   */\n      dup2\n        /* \"#utility.yul\":10720:10721   */\n      0x00\n        /* \"#utility.yul\":10713:10727   */\n      mstore\n        /* \"#utility.yul\":10757:10761   */\n      0x20\n        /* \"#utility.yul\":10754:10755   */\n      0x00\n        /* \"#utility.yul\":10744:10762   */\n      keccak256\n        /* \"#utility.yul\":10736:10762   */\n      swap1\n      pop\n        /* \"#utility.yul\":10628:10769   */\n      swap2\n      swap1\n      pop\n      jump\t// out\n        /* \"#utility.yul\":10775:10868   */\n    tag_146:\n        /* \"#utility.yul\":10812:10818   */\n      0x00\n        /* \"#utility.yul\":10859:10861   */\n      0x20\n        /* \"#utility.yul\":10854:10856   */\n      0x1f\n        /* \"#utility.yul\":10847:10852   */\n      dup4\n        /* \"#utility.yul\":10843:10857   */\n      add\n        /* \"#utility.yul\":10839:10862   */\n      div\n        /* \"#utility.yul\":10829:10862   */\n      swap1\n      pop\n        /* \"#utility.yul\":10775:10868   */\n      swap2\n      swap1\n      pop\n      jump\t// out\n        /* \"#utility.yul\":10874:10981   */\n    tag_147:\n        /* \"#utility.yul\":10918:10926   */\n      0x00\n        /* \"#utility.yul\":10968:10973   */\n      dup3\n        /* \"#utility.yul\":10962:10966   */\n      dup3\n        /* \"#utility.yul\":10958:10974   */\n      shl\n        /* \"#utility.yul\":10937:10974   */\n      swap1\n      pop\n        /* \"#utility.yul\":10874:10981   */\n      swap3\n      swap2\n      pop\n      pop\n      jump\t// out\n        /* \"#utility.yul\":10987:11380   */\n    tag_148:\n        /* \"#utility.yul\":11056:11062   */\n      0x00\n        /* \"#utility.yul\":11106:11107   */\n      0x08\n        /* \"#utility.yul\":11094:11104   */\n      dup4\n        /* \"#utility.yul\":11090:11108   */\n      mul\n        /* \"#utility.yul\":11129:11226   */\n      tag_306\n        /* \"#utility.yul\":11159:11225   */\n      0xffffffffffffffffffffffffffffffffffffffffffffffffffffffffffffffff\n        /* \"#utility.yul\":11148:11157   */\n      dup3\n        /* \"#utility.yul\":11129:11226   */\n      tag_147\n      jump\t// in\n    tag_306:\n        /* \"#utility.yul\":11247:11286   */\n      tag_307\n        /* \"#utility.yul\":11277:11285   */\n      dup7\n        /* \"#utility.yul\":11266:11275   */\n      dup4\n        /* \"#utility.yul\":11247:11286   */\n      tag_147\n      jump\t// in\n    tag_307:\n        /* \"#utility.yul\":11235:11286   */\n      swap6\n      pop\n        /* \"#utility.yul\":11319:11323   */\n      dup1\n        /* \"#utility.yul\":11315:11324   */\n      not\n        /* \"#utility.yul\":11308:11313   */\n      dup5\n        /* \"#utility.yul\":11304:11325   */\n      and\n        /* \"#utility.yul\":11295:11325   */\n      swap4\n      pop\n        /* \"#utility.yul\":11368:11372   */\n      dup1\n        /* \"#utility.yul\":11358:11366   */\n      dup7\n        /* \"#utility.yul\":11354:11373   */\n      and\n        /* \"#utility.yul\":11347:11352   */\n      dup5\n        /* \"#utility.yul\":11344:11374   */\n      or\n        /* \"#utility.yul\":11334:11374   */\n      swap3\n      pop\n        /* \"#utility.yul\":11063:11380   */\n      pop\n      pop\n        /* \"#utility.yul\":10987:11380   */\n      swap4\n      swap3\n      pop\n      pop\n      pop\n      jump\t// out\n        /* \"#utility.yul\":11386:11446   */\n    tag_149:\n        /* \"#utility.yul\":11414:11417   */\n      0x00\n        /* \"#utility.yul\":11435:11440   */\n      dup2\n        /* \"#utility.yul\":11428:11440   */\n      swap1\n      pop\n        /* \"#utility.yul\":11386:11446   */\n      swap2\n      swap1\n      pop\n      jump\t// out\n        /* \"#utility.yul\":11452:11594   */\n    tag_150:\n        /* \"#utility.yul\":11502:11511   */\n      0x00\n        /* \"#utility.yul\":11535:11588   */\n      tag_310\n        /* \"#utility.yul\":11553:11587   */\n      tag_311\n        /* \"#utility.yul\":11562:11586   */\n      tag_312\n        /* \"#utility.yul\":11580:11585   */\n      dup5\n        /* \"#utility.yul\":11562:11586   */\n      tag_117\n      jump\t// in\n    tag_312:\n        /* \"#utility.yul\":11553:11587   */\n      tag_149\n      jump\t// in\n    tag_311:\n        /* \"#utility.yul\":11535:11588   */\n      tag_117\n      jump\t// in\n    tag_310:\n        /* \"#utility.yul\":11522:11588   */\n      swap1\n      pop\n        /* \"#utility.yul\":11452:11594   */\n      swap2\n      swap1\n      pop\n      jump\t// out\n        /* \"#utility.yul\":11600:11675   */\n    tag_151:\n        /* \"#utility.yul\":11643:11646   */\n      0x00\n        /* \"#utility.yul\":11664:11669   */\n      dup2\n        /* \"#utility.yul\":11657:11669   */\n      swap1\n      pop\n        /* \"#utility.yul\":11600:11675   */\n      swap2\n      swap1\n      pop\n      jump\t// out\n        /* \"#utility.yul\":11681:11950   */\n    tag_152:\n        /* \"#utility.yul\":11791:11830   */\n      tag_315\n        /* \"#utility.yul\":11822:11829   */\n      dup4\n        /* \"#utility.yul\":11791:11830   */\n      tag_150\n      jump\t// in\n    tag_315:\n        /* \"#utility.yul\":11852:11943   */\n      tag_316\n        /* \"#utility.yul\":11901:11942   */\n      tag_317\n        /* \"#utility.yul\":11925:11941   */\n      dup3\n        /* \"#utility.yul\":11901:11942   */\n      tag_151\n      jump\t// in\n    tag_317:\n        /* \"#utility.yul\":11893:11899   */\n      dup5\n        /* \"#utility.yul\":11886:11890   */\n      dup5\n        /* \"#utility.yul\":11880:11891   */\n      sload\n        /* \"#utility.yul\":11852:11943   */\n      tag_148\n      jump\t// in\n    tag_316:\n        /* \"#utility.yul\":11846:11850   */\n      dup3\n        /* \"#utility.yul\":11839:11944   */\n      sstore\n        /* \"#utility.yul\":11757:11950   */\n      pop\n        /* \"#utility.yul\":11681:11950   */\n      pop\n      pop\n      pop\n      jump\t// out\n        /* \"#utility.yul\":11956:12029   */\n    tag_153:\n        /* \"#utility.yul\":12001:12004   */\n      0x00\n        /* \"#utility.yul\":12022:12023   */\n      0x00\n        /* \"#utility.yul\":12015:12023   */\n      swap1\n      pop\n        /* \"#utility.yul\":11956:12029   */\n      swap1\n      jump\t// out\n        /* \"#utility.yul\":12035:12224   */\n    tag_154:\n        /* \"#utility.yul\":12112:12144   */\n      tag_320\n      tag_153\n      jump\t// in\n    tag_320:\n        /* \"#utility.yul\":12153:12218   */\n      tag_321\n        /* \"#utility.yul\":12211:12217   */\n      dup2\n        /* \"#utility.yul\":12203:12209   */\n      dup5\n        /* \"#utility.yul\":12197:12201   */\n      dup5\n        /* \"#utility.yul\":12153:12218   */\n      tag_152\n      jump\t// in\n    tag_321:\n        /* \"#utility.yul\":12088:12224   */\n      pop\n        /* \"#utility.yul\":12035:12224   */\n      pop\n      pop\n      jump\t// out\n        /* \"#utility.yul\":12230:12416   */\n    tag_155:\n        /* \"#utility.yul\":12290:12410   */\n    tag_323:\n        /* \"#utility.yul\":12307:12310   */\n      dup2\n        /* \"#utility.yul\":12300:12305   */\n      dup2\n        /* \"#utility.yul\":12297:12311   */\n      lt\n        /* \"#utility.yul\":12290:12410   */\n      iszero\n      tag_325\n      jumpi\n        /* \"#utility.yul\":12361:12400   */\n      tag_326\n        /* \"#utility.yul\":12398:12399   */\n      0x00\n        /* \"#utility.yul\":12391:12396   */\n      dup3\n        /* \"#utility.yul\":12361:12400   */\n      tag_154\n      jump\t// in\n    tag_326:\n        /* \"#utility.yul\":12334:12335   */\n      0x01\n        /* \"#utility.yul\":12327:12332   */\n      dup2\n        /* \"#utility.yul\":12323:12336   */\n      add\n        /* \"#utility.yul\":12314:12336   */\n      swap1\n      pop\n        /* \"#utility.yul\":12290:12410   */\n      jump(tag_323)\n    tag_325:\n        /* \"#utility.yul\":12230:12416   */\n      pop\n      pop\n      jump\t// out\n        /* \"#utility.yul\":12422:12965   */\n    tag_156:\n        /* \"#utility.yul\":12523:12525   */\n      0x1f\n        /* \"#utility.yul\":12518:12521   */\n      dup3\n        /* \"#utility.yul\":12515:12526   */\n      gt\n        /* \"#utility.yul\":12512:12958   */\n      iszero\n      tag_328\n      jumpi\n        /* \"#utility.yul\":12557:12595   */\n      tag_329\n        /* \"#utility.yul\":12589:12594   */\n      dup2\n        /* \"#utility.yul\":12557:12595   */\n      tag_145\n      jump\t// in\n    tag_329:\n        /* \"#utility.yul\":12641:12670   */\n      tag_330\n        /* \"#utility.yul\":12659:12669   */\n      dup5\n        /* \"#utility.yul\":12641:12670   */\n      tag_146\n      jump\t// in\n    tag_330:\n        /* \"#utility.yul\":12631:12639   */\n      dup2\n        /* \"#utility.yul\":12627:12671   */\n      add\n        /* \"#utility.yul\":12824:12826   */\n      0x20\n        /* \"#utility.yul\":12812:12822   */\n      dup6\n        /* \"#utility.yul\":12809:12827   */\n      lt\n        /* \"#utility.yul\":12806:12855   */\n      iszero\n      tag_331\n      jumpi\n        /* \"#utility.yul\":12845:12853   */\n      dup2\n        /* \"#utility.yul\":12830:12853   */\n      swap1\n      pop\n        /* \"#utility.yul\":12806:12855   */\n    tag_331:\n        /* \"#utility.yul\":12868:12948   */\n      tag_332\n        /* \"#utility.yul\":12924:12946   */\n      tag_333\n        /* \"#utility.yul\":12942:12945   */\n      dup6\n        /* \"#utility.yul\":12924:12946   */\n      tag_146\n      jump\t// in\n    tag_333:\n        /* \"#utility.yul\":12914:12922   */\n      dup4\n        /* \"#utility.yul\":12910:12947   */\n      add\n        /* \"#utility.yul\":12897:12908   */\n      dup3\n        /* \"#utility.yul\":12868:12948   */\n      tag_155\n      jump\t// in\n    tag_332:\n        /* \"#utility.yul\":12527:12958   */\n      pop\n      pop\n        /* \"#utility.yul\":12512:12958   */\n    tag_328:\n        /* \"#utility.yul\":12422:12965   */\n      pop\n      pop\n      pop\n      jump\t// out\n        /* \"#utility.yul\":12971:13088   */\n    tag_157:\n        /* \"#utility.yul\":13025:13033   */\n      0x00\n        /* \"#utility.yul\":13075:13080   */\n      dup3\n        /* \"#utility.yul\":13069:13073   */\n      dup3\n        /* \"#utility.yul\":13065:13081   */\n      shr\n        /* \"#utility.yul\":13044:13081   */\n      swap1\n      pop\n        /* \"#utility.yul\":12971:13088   */\n      swap3\n      swap2\n      pop\n      pop\n      jump\t// out\n        /* \"#utility.yul\":13094:13263   */\n    tag_158:\n        /* \"#utility.yul\":13138:13144   */\n      0x00\n        /* \"#utility.yul\":13171:13222   */\n      tag_336\n        /* \"#utility.yul\":13219:13220   */\n      0x00\n        /* \"#utility.yul\":13215:13221   */\n      not\n        /* \"#utility.yul\":13207:13212   */\n      dup5\n        /* \"#utility.yul\":13204:13205   */\n      0x08\n        /* \"#utility.yul\":13200:13213   */\n      mul\n        /* \"#utility.yul\":13171:13222   */\n      tag_157\n      jump\t// in\n    tag_336:\n        /* \"#utility.yul\":13167:13223   */\n      not\n        /* \"#utility.yul\":13252:13256   */\n      dup1\n        /* \"#utility.yul\":13246:13250   */\n      dup4\n        /* \"#utility.yul\":13242:13257   */\n      and\n        /* \"#utility.yul\":13232:13257   */\n      swap2\n      pop\n        /* \"#utility.yul\":13145:13263   */\n      pop\n        /* \"#utility.yul\":13094:13263   */\n      swap3\n      swap2\n      pop\n      pop\n      jump\t// out\n        /* \"#utility.yul\":13268:13563   */\n    tag_159:\n        /* \"#utility.yul\":13344:13348   */\n      0x00\n        /* \"#utility.yul\":13490:13519   */\n      tag_338\n        /* \"#utility.yul\":13515:13518   */\n      dup4\n        /* \"#utility.yul\":13509:13513   */\n      dup4\n        /* \"#utility.yul\":13490:13519   */\n      tag_158\n      jump\t// in\n    tag_338:\n        /* \"#utility.yul\":13482:13519   */\n      swap2\n      pop\n        /* \"#utility.yul\":13552:13555   */\n      dup3\n        /* \"#utility.yul\":13549:13550   */\n      0x02\n        /* \"#utility.yul\":13545:13556   */\n      mul\n        /* \"#utility.yul\":13539:13543   */\n      dup3\n        /* \"#utility.yul\":13536:13557   */\n      or\n        /* \"#utility.yul\":13528:13557   */\n      swap1\n      pop\n        /* \"#utility.yul\":13268:13563   */\n      swap3\n      swap2\n      pop\n      pop\n      jump\t// out\n        /* \"#utility.yul\":13568:14971   */\n    tag_44:\n        /* \"#utility.yul\":13692:13736   */\n      tag_340\n        /* \"#utility.yul\":13732:13735   */\n      dup4\n        /* \"#utility.yul\":13727:13730   */\n      dup4\n        /* \"#utility.yul\":13692:13736   */\n      tag_143\n      jump\t// in\n    tag_340:\n        /* \"#utility.yul\":13801:13819   */\n      0xffffffffffffffff\n        /* \"#utility.yul\":13793:13799   */\n      dup2\n        /* \"#utility.yul\":13790:13820   */\n      gt\n        /* \"#utility.yul\":13787:13843   */\n      iszero\n      tag_341\n      jumpi\n        /* \"#utility.yul\":13823:13841   */\n      tag_342\n      tag_122\n      jump\t// in\n    tag_342:\n        /* \"#utility.yul\":13787:13843   */\n    tag_341:\n        /* \"#utility.yul\":13867:13905   */\n      tag_343\n        /* \"#utility.yul\":13899:13903   */\n      dup3\n        /* \"#utility.yul\":13893:13904   */\n      sload\n        /* \"#utility.yul\":13867:13905   */\n      tag_46\n      jump\t// in\n    tag_343:\n        /* \"#utility.yul\":13952:14019   */\n      tag_344\n        /* \"#utility.yul\":14012:14018   */\n      dup3\n        /* \"#utility.yul\":14004:14010   */\n      dup3\n        /* \"#utility.yul\":13998:14002   */\n      dup6\n        /* \"#utility.yul\":13952:14019   */\n      tag_156\n      jump\t// in\n    tag_344:\n        /* \"#utility.yul\":14046:14047   */\n      0x00\n        /* \"#utility.yul\":14075:14077   */\n      0x1f\n        /* \"#utility.yul\":14067:14073   */\n      dup4\n        /* \"#utility.yul\":14064:14078   */\n      gt\n        /* \"#utility.yul\":14092:14093   */\n      0x01\n        /* \"#utility.yul\":14087:14719   */\n      dup2\n      eq\n      tag_346\n      jumpi\n        /* \"#utility.yul\":14763:14764   */\n      0x00\n        /* \"#utility.yul\":14780:14786   */\n      dup5\n        /* \"#utility.yul\":14777:14861   */\n      iszero\n      tag_347\n      jumpi\n        /* \"#utility.yul\":14836:14845   */\n      dup3\n        /* \"#utility.yul\":14831:14834   */\n      dup8\n        /* \"#utility.yul\":14827:14846   */\n      add\n        /* \"#utility.yul\":14814:14847   */\n      calldataload\n        /* \"#utility.yul\":14805:14847   */\n      swap1\n      pop\n        /* \"#utility.yul\":14777:14861   */\n    tag_347:\n        /* \"#utility.yul\":14887:14954   */\n      tag_348\n        /* \"#utility.yul\":14947:14953   */\n      dup6\n        /* \"#utility.yul\":14940:14945   */\n      dup3\n        /* \"#utility.yul\":14887:14954   */\n      tag_159\n      jump\t// in\n    tag_348:\n        /* \"#utility.yul\":14881:14885   */\n      dup7\n        /* \"#utility.yul\":14874:14955   */\n      sstore\n        /* \"#utility.yul\":14736:14965   */\n      pop\n        /* \"#utility.yul\":14057:14965   */\n      jump(tag_345)\n        /* \"#utility.yul\":14087:14719   */\n    tag_346:\n        /* \"#utility.yul\":14139:14143   */\n      0x1f\n        /* \"#utility.yul\":14135:14144   */\n      not\n        /* \"#utility.yul\":14127:14133   */\n      dup5\n        /* \"#utility.yul\":14123:14145   */\n      and\n        /* \"#utility.yul\":14173:14210   */\n      tag_349\n        /* \"#utility.yul\":14205:14209   */\n      dup7\n        /* \"#utility.yul\":14173:14210   */\n      tag_145\n      jump\t// in\n    tag_349:\n        /* \"#utility.yul\":14232:14233   */\n      0x00\n        /* \"#utility.yul\":14246:14461   */\n    tag_350:\n        /* \"#utility.yul\":14260:14267   */\n      dup3\n        /* \"#utility.yul\":14257:14258   */\n      dup2\n        /* \"#utility.yul\":14254:14268   */\n      lt\n        /* \"#utility.yul\":14246:14461   */\n      iszero\n      tag_352\n      jumpi\n        /* \"#utility.yul\":14346:14355   */\n      dup5\n        /* \"#utility.yul\":14341:14344   */\n      dup10\n        /* \"#utility.yul\":14337:14356   */\n      add\n        /* \"#utility.yul\":14324:14357   */\n      calldataload\n        /* \"#utility.yul\":14316:14322   */\n      dup3\n        /* \"#utility.yul\":14309:14358   */\n      sstore\n        /* \"#utility.yul\":14397:14398   */\n      0x01\n        /* \"#utility.yul\":14389:14395   */\n      dup3\n        /* \"#utility.yul\":14385:14399   */\n      add\n        /* \"#utility.yul\":14375:14399   */\n      swap2\n      pop\n        /* \"#utility.yul\":14444:14446   */\n      0x20\n        /* \"#utility.yul\":14433:14442   */\n      dup6\n        /* \"#utility.yul\":14429:14447   */\n      add\n        /* \"#utility.yul\":14416:14447   */\n      swap5\n      pop\n        /* \"#utility.yul\":14283:14287   */\n      0x20\n        /* \"#utility.yul\":14280:14281   */\n      dup2\n        /* \"#utility.yul\":14276:14288   */\n      add\n        /* \"#utility.yul\":14271:14288   */\n      swap1\n      pop\n        /* \"#utility.yul\":14246:14461   */\n      jump(tag_350)\n    tag_352:\n        /* \"#utility.yul\":14489:14495   */\n      dup7\n        /* \"#utility.yul\":14480:14487   */\n      dup4\n        /* \"#utility.yul\":14477:14496   */\n      lt\n        /* \"#utility.yul\":14474:14660   */\n      iszero\n      tag_353\n      jumpi\n        /* \"#utility.yul\":14554:14563   */\n      dup5\n        /* \"#utility.yul\":14549:14552   */\n      dup10\n        /* \"#utility.yul\":14545:14564   */\n      add\n        /* \"#utility.yul\":14532:14565   */\n      calldataload\n        /* \"#utility.yul\":14597:14645   */\n      tag_354\n        /* \"#utility.yul\":14639:14643   */\n      0x1f\n        /* \"#utility.yul\":14631:14637   */\n      dup10\n        /* \"#utility.yul\":14627:14644   */\n      and\n        /* \"#utility.yul\":14616:14625   */\n      dup3\n        /* \"#utility.yul\":14597:14645   */\n      tag_158\n      jump\t// in\n    tag_354:\n        /* \"#utility.yul\":14589:14595   */\n      dup4\n        /* \"#utility.yul\":14582:14646   */\n      sstore\n        /* \"#utility.yul\":14497:14660   */\n      pop\n        /* \"#utility.yul\":14474:14660   */\n    tag_353:\n        /* \"#utility.yul\":14706:14707   */\n      0x01\n        /* \"#utility.yul\":14702:14703   */\n      0x02\n        /* \"#utility.yul\":14694:14700   */\n      dup9\n        /* \"#utility.yul\":14690:14704   */\n      mul\n        /* \"#utility.yul\":14686:14708   */\n      add\n        /* \"#utility.yul\":14680:14684   */\n      dup9\n        /* \"#utility.yul\":14673:14709   */\n      sstore\n        /* \"#utility.yul\":14094:14719   */\n      pop\n      pop\n      pop\n        /* \"#utility.yul\":14057:14965   */\n    tag_345:\n      pop\n        /* \"#utility.yul\":13667:14971   */\n      pop\n      pop\n      pop\n        /* \"#utility.yul\":13568:14971   */\n      pop\n      pop\n      pop\n      jump\t// out\n        /* \"#utility.yul\":14977:15151   */\n    tag_160:\n        /* \"#utility.yul\":15117:15143   */\n      0x50726f6a656374206973206e6f7420636f6d706c657465640000000000000000\n        /* \"#utility.yul\":15113:15114   */\n      0x00\n        /* \"#utility.yul\":15105:15111   */\n      dup3\n        /* \"#utility.yul\":15101:15115   */\n      add\n        /* \"#utility.yul\":15094:15144   */\n      mstore\n        /* \"#utility.yul\":14977:15151   */\n      pop\n      jump\t// out\n        /* \"#utility.yul\":15157:15523   */\n    tag_161:\n        /* \"#utility.yul\":15299:15302   */\n      0x00\n        /* \"#utility.yul\":15320:15387   */\n      tag_357\n        /* \"#utility.yul\":15384:15386   */\n      0x18\n        /* \"#utility.yul\":15379:15382   */\n      dup4\n        /* \"#utility.yul\":15320:15387   */\n      tag_130\n      jump\t// in\n    tag_357:\n        /* \"#utility.yul\":15313:15387   */\n      swap2\n      pop\n        /* \"#utility.yul\":15396:15489   */\n      tag_358\n        /* \"#utility.yul\":15485:15488   */\n      dup3\n        /* \"#utility.yul\":15396:15489   */\n      tag_160\n      jump\t// in\n    tag_358:\n        /* \"#utility.yul\":15514:15516   */\n      0x20\n        /* \"#utility.yul\":15509:15512   */\n      dup3\n        /* \"#utility.yul\":15505:15517   */\n      add\n        /* \"#utility.yul\":15498:15517   */\n      swap1\n      pop\n        /* \"#utility.yul\":15157:15523   */\n      swap2\n      swap1\n      pop\n      jump\t// out\n        /* \"#utility.yul\":15529:15948   */\n    tag_55:\n        /* \"#utility.yul\":15695:15699   */\n      0x00\n        /* \"#utility.yul\":15733:15735   */\n      0x20\n        /* \"#utility.yul\":15722:15731   */\n      dup3\n        /* \"#utility.yul\":15718:15736   */\n      add\n        /* \"#utility.yul\":15710:15736   */\n      swap1\n      pop\n        /* \"#utility.yul\":15782:15791   */\n      dup2\n        /* \"#utility.yul\":15776:15780   */\n      dup2\n        /* \"#utility.yul\":15772:15792   */\n      sub\n        /* \"#utility.yul\":15768:15769   */\n      0x00\n        /* \"#utility.yul\":15757:15766   */\n      dup4\n        /* \"#utility.yul\":15753:15770   */\n      add\n        /* \"#utility.yul\":15746:15793   */\n      mstore\n        /* \"#utility.yul\":15810:15941   */\n      tag_360\n        /* \"#utility.yul\":15936:15940   */\n      dup2\n        /* \"#utility.yul\":15810:15941   */\n      tag_161\n      jump\t// in\n    tag_360:\n        /* \"#utility.yul\":15802:15941   */\n      swap1\n      pop\n        /* \"#utility.yul\":15529:15948   */\n      swap2\n      swap1\n      pop\n      jump\t// out\n        /* \"#utility.yul\":15954:16184   */\n    tag_162:\n        /* \"#utility.yul\":16094:16128   */\n      0x4f6e6c79207468652070726f6a6563742063726561746f722063616e20776974\n        /* \"#utility.yul\":16090:16091   */\n      0x00\n        /* \"#utility.yul\":16082:16088   */\n      dup3\n        /* \"#utility.yul\":16078:16092   */\n      add\n        /* \"#utility.yul\":16071:16129   */\n      mstore\n        /* \"#utility.yul\":16163:16176   */\n      0x68647261772066756e6473000000000000000000000000000000000000000000\n        /* \"#utility.yul\":16158:16160   */\n      0x20\n        /* \"#utility.yul\":16150:16156   */\n      dup3\n        /* \"#utility.yul\":16146:16161   */\n      add\n        /* \"#utility.yul\":16139:16177   */\n      mstore\n        /* \"#utility.yul\":15954:16184   */\n      pop\n      jump\t// out\n        /* \"#utility.yul\":16190:16556   */\n    tag_163:\n        /* \"#utility.yul\":16332:16335   */\n      0x00\n        /* \"#utility.yul\":16353:16420   */\n      tag_363\n        /* \"#utility.yul\":16417:16419   */\n      0x2b\n        /* \"#utility.yul\":16412:16415   */\n      dup4\n        /* \"#utility.yul\":16353:16420   */\n      tag_130\n      jump\t// in\n    tag_363:\n        /* \"#utility.yul\":16346:16420   */\n      swap2\n      pop\n        /* \"#utility.yul\":16429:16522   */\n      tag_364\n        /* \"#utility.yul\":16518:16521   */\n      dup3\n        /* \"#utility.yul\":16429:16522   */\n      tag_162\n      jump\t// in\n    tag_364:\n        /* \"#utility.yul\":16547:16549   */\n      0x40\n        /* \"#utility.yul\":16542:16545   */\n      dup3\n        /* \"#utility.yul\":16538:16550   */\n      add\n        /* \"#utility.yul\":16531:16550   */\n      swap1\n      pop\n        /* \"#utility.yul\":16190:16556   */\n      swap2\n      swap1\n      pop\n      jump\t// out\n        /* \"#utility.yul\":16562:16981   */\n    tag_58:\n        /* \"#utility.yul\":16728:16732   */\n      0x00\n        /* \"#utility.yul\":16766:16768   */\n      0x20\n        /* \"#utility.yul\":16755:16764   */\n      dup3\n        /* \"#utility.yul\":16751:16769   */\n      add\n        /* \"#utility.yul\":16743:16769   */\n      swap1\n      pop\n        /* \"#utility.yul\":16815:16824   */\n      dup2\n        /* \"#utility.yul\":16809:16813   */\n      dup2\n        /* \"#utility.yul\":16805:16825   */\n      sub\n        /* \"#utility.yul\":16801:16802   */\n      0x00\n        /* \"#utility.yul\":16790:16799   */\n      dup4\n        /* \"#utility.yul\":16786:16803   */\n      add\n        /* \"#utility.yul\":16779:16826   */\n      mstore\n        /* \"#utility.yul\":16843:16974   */\n      tag_366\n        /* \"#utility.yul\":16969:16973   */\n      dup2\n        /* \"#utility.yul\":16843:16974   */\n      tag_163\n      jump\t// in\n    tag_366:\n        /* \"#utility.yul\":16835:16974   */\n      swap1\n      pop\n        /* \"#utility.yul\":16562:16981   */\n      swap2\n      swap1\n      pop\n      jump\t// out\n        /* \"#utility.yul\":16987:17167   */\n    tag_164:\n        /* \"#utility.yul\":17035:17112   */\n      0x4e487b7100000000000000000000000000000000000000000000000000000000\n        /* \"#utility.yul\":17032:17033   */\n      0x00\n        /* \"#utility.yul\":17025:17113   */\n      mstore\n        /* \"#utility.yul\":17132:17136   */\n      0x11\n        /* \"#utility.yul\":17129:17130   */\n      0x04\n        /* \"#utility.yul\":17122:17137   */\n      mstore\n        /* \"#utility.yul\":17156:17160   */\n      0x24\n        /* \"#utility.yul\":17153:17154   */\n      0x00\n        /* \"#utility.yul\":17146:17161   */\n      revert\n        /* \"#utility.yul\":17173:17583   */\n    tag_60:\n        /* \"#utility.yul\":17213:17220   */\n      0x00\n        /* \"#utility.yul\":17236:17256   */\n      tag_369\n        /* \"#utility.yul\":17254:17255   */\n      dup3\n        /* \"#utility.yul\":17236:17256   */\n      tag_117\n      jump\t// in\n    tag_369:\n        /* \"#utility.yul\":17231:17256   */\n      swap2\n      pop\n        /* \"#utility.yul\":17270:17290   */\n      tag_370\n        /* \"#utility.yul\":17288:17289   */\n      dup4\n        /* \"#utility.yul\":17270:17290   */\n      tag_117\n      jump\t// in\n    tag_370:\n        /* \"#utility.yul\":17265:17290   */\n      swap3\n      pop\n        /* \"#utility.yul\":17325:17326   */\n      dup3\n        /* \"#utility.yul\":17322:17323   */\n      dup3\n        /* \"#utility.yul\":17318:17327   */\n      mul\n        /* \"#utility.yul\":17347:17377   */\n      tag_371\n        /* \"#utility.yul\":17365:17376   */\n      dup2\n        /* \"#utility.yul\":17347:17377   */\n      tag_117\n      jump\t// in\n    tag_371:\n        /* \"#utility.yul\":17336:17377   */\n      swap2\n      pop\n        /* \"#utility.yul\":17526:17527   */\n      dup3\n        /* \"#utility.yul\":17517:17524   */\n      dup3\n        /* \"#utility.yul\":17513:17528   */\n      div\n        /* \"#utility.yul\":17510:17511   */\n      dup5\n        /* \"#utility.yul\":17507:17529   */\n      eq\n        /* \"#utility.yul\":17487:17488   */\n      dup4\n        /* \"#utility.yul\":17480:17489   */\n      iszero\n        /* \"#utility.yul\":17460:17543   */\n      or\n        /* \"#utility.yul\":17437:17576   */\n      tag_372\n      jumpi\n        /* \"#utility.yul\":17556:17574   */\n      tag_373\n      tag_164\n      jump\t// in\n    tag_373:\n        /* \"#utility.yul\":17437:17576   */\n    tag_372:\n        /* \"#utility.yul\":17221:17583   */\n      pop\n        /* \"#utility.yul\":17173:17583   */\n      swap3\n      swap2\n      pop\n      pop\n      jump\t// out\n        /* \"#utility.yul\":17589:17769   */\n    tag_165:\n        /* \"#utility.yul\":17637:17714   */\n      0x4e487b7100000000000000000000000000000000000000000000000000000000\n        /* \"#utility.yul\":17634:17635   */\n      0x00\n        /* \"#utility.yul\":17627:17715   */\n      mstore\n        /* \"#utility.yul\":17734:17738   */\n      0x12\n        /* \"#utility.yul\":17731:17732   */\n      0x04\n        /* \"#utility.yul\":17724:17739   */\n      mstore\n        /* \"#utility.yul\":17758:17762   */\n      0x24\n        /* \"#utility.yul\":17755:17756   */\n      0x00\n        /* \"#utility.yul\":17748:17763   */\n      revert\n        /* \"#utility.yul\":17775:17960   */\n    tag_62:\n        /* \"#utility.yul\":17815:17816   */\n      0x00\n        /* \"#utility.yul\":17832:17852   */\n      tag_376\n        /* \"#utility.yul\":17850:17851   */\n      dup3\n        /* \"#utility.yul\":17832:17852   */\n      tag_117\n      jump\t// in\n    tag_376:\n        /* \"#utility.yul\":17827:17852   */\n      swap2\n      pop\n        /* \"#utility.yul\":17866:17886   */\n      tag_377\n        /* \"#utility.yul\":17884:17885   */\n      dup4\n        /* \"#utility.yul\":17866:17886   */\n      tag_117\n      jump\t// in\n    tag_377:\n        /* \"#utility.yul\":17861:17886   */\n      swap3\n      pop\n        /* \"#utility.yul\":17905:17906   */\n      dup3\n        /* \"#utility.yul\":17895:17930   */\n      tag_378\n      jumpi\n        /* \"#utility.yul\":17910:17928   */\n      tag_379\n      tag_165\n      jump\t// in\n    tag_379:\n        /* \"#utility.yul\":17895:17930   */\n    tag_378:\n        /* \"#utility.yul\":17952:17953   */\n      dup3\n        /* \"#utility.yul\":17949:17950   */\n      dup3\n        /* \"#utility.yul\":17945:17954   */\n      div\n        /* \"#utility.yul\":17940:17954   */\n      swap1\n      pop\n        /* \"#utility.yul\":17775:17960   */\n      swap3\n      swap2\n      pop\n      pop\n      jump\t// out\n        /* \"#utility.yul\":17966:18160   */\n    tag_64:\n        /* \"#utility.yul\":18006:18010   */\n      0x00\n        /* \"#utility.yul\":18026:18046   */\n      tag_381\n        /* \"#utility.yul\":18044:18045   */\n      dup3\n        /* \"#utility.yul\":18026:18046   */\n      tag_117\n      jump\t// in\n    tag_381:\n        /* \"#utility.yul\":18021:18046   */\n      swap2\n      pop\n        /* \"#utility.yul\":18060:18080   */\n      tag_382\n        /* \"#utility.yul\":18078:18079   */\n      dup4\n        /* \"#utility.yul\":18060:18080   */\n      tag_117\n      jump\t// in\n    tag_382:\n        /* \"#utility.yul\":18055:18080   */\n      swap3\n      pop\n        /* \"#utility.yul\":18104:18105   */\n      dup3\n        /* \"#utility.yul\":18101:18102   */\n      dup3\n        /* \"#utility.yul\":18097:18106   */\n      sub\n        /* \"#utility.yul\":18089:18106   */\n      swap1\n      pop\n        /* \"#utility.yul\":18128:18129   */\n      dup2\n        /* \"#utility.yul\":18122:18126   */\n      dup2\n        /* \"#utility.yul\":18119:18130   */\n      gt\n        /* \"#utility.yul\":18116:18153   */\n      iszero\n      tag_383\n      jumpi\n        /* \"#utility.yul\":18133:18151   */\n      tag_384\n      tag_164\n      jump\t// in\n    tag_384:\n        /* \"#utility.yul\":18116:18153   */\n    tag_383:\n        /* \"#utility.yul\":17966:18160   */\n      swap3\n      swap2\n      pop\n      pop\n      jump\t// out\n        /* \"#utility.yul\":18166:18313   */\n    tag_166:\n        /* \"#utility.yul\":18267:18278   */\n      0x00\n        /* \"#utility.yul\":18304:18307   */\n      dup2\n        /* \"#utility.yul\":18289:18307   */\n      swap1\n      pop\n        /* \"#utility.yul\":18166:18313   */\n      swap3\n      swap2\n      pop\n      pop\n      jump\t// out\n        /* \"#utility.yul\":18319:18433   */\n    tag_167:\n      pop\n      jump\t// out\n        /* \"#utility.yul\":18439:18837   */\n    tag_168:\n        /* \"#utility.yul\":18598:18601   */\n      0x00\n        /* \"#utility.yul\":18619:18702   */\n      tag_388\n        /* \"#utility.yul\":18700:18701   */\n      0x00\n        /* \"#utility.yul\":18695:18698   */\n      dup4\n        /* \"#utility.yul\":18619:18702   */\n      tag_166\n      jump\t// in\n    tag_388:\n        /* \"#utility.yul\":18612:18702   */\n      swap2\n      pop\n        /* \"#utility.yul\":18711:18804   */\n      tag_389\n        /* \"#utility.yul\":18800:18803   */\n      dup3\n        /* \"#utility.yul\":18711:18804   */\n      tag_167\n      jump\t// in\n    tag_389:\n        /* \"#utility.yul\":18829:18830   */\n      0x00\n        /* \"#utility.yul\":18824:18827   */\n      dup3\n        /* \"#utility.yul\":18820:18831   */\n      add\n        /* \"#utility.yul\":18813:18831   */\n      swap1\n      pop\n        /* \"#utility.yul\":18439:18837   */\n      swap2\n      swap1\n      pop\n      jump\t// out\n        /* \"#utility.yul\":18843:19222   */\n    tag_66:\n        /* \"#utility.yul\":19027:19030   */\n      0x00\n        /* \"#utility.yul\":19049:19196   */\n      tag_391\n        /* \"#utility.yul\":19192:19195   */\n      dup3\n        /* \"#utility.yul\":19049:19196   */\n      tag_168\n      jump\t// in\n    tag_391:\n        /* \"#utility.yul\":19042:19196   */\n      swap2\n      pop\n        /* \"#utility.yul\":19213:19216   */\n      dup2\n        /* \"#utility.yul\":19206:19216   */\n      swap1\n      pop\n        /* \"#utility.yul\":18843:19222   */\n      swap2\n      swap1\n      pop\n      jump\t// out\n        /* \"#utility.yul\":19228:19395   */\n    tag_169:\n        /* \"#utility.yul\":19368:19387   */\n      0x776964746864726177616c206661696c64000000000000000000000000000000\n        /* \"#utility.yul\":19364:19365   */\n      0x00\n        /* \"#utility.yul\":19356:19362   */\n      dup3\n        /* \"#utility.yul\":19352:19366   */\n      add\n        /* \"#utility.yul\":19345:19388   */\n      mstore\n        /* \"#utility.yul\":19228:19395   */\n      pop\n      jump\t// out\n        /* \"#utility.yul\":19401:19767   */\n    tag_170:\n        /* \"#utility.yul\":19543:19546   */\n      0x00\n        /* \"#utility.yul\":19564:19631   */\n      tag_394\n        /* \"#utility.yul\":19628:19630   */\n      0x11\n        /* \"#utility.yul\":19623:19626   */\n      dup4\n        /* \"#utility.yul\":19564:19631   */\n      tag_130\n      jump\t// in\n    tag_394:\n        /* \"#utility.yul\":19557:19631   */\n      swap2\n      pop\n        /* \"#utility.yul\":19640:19733   */\n      tag_395\n        /* \"#utility.yul\":19729:19732   */\n      dup3\n        /* \"#utility.yul\":19640:19733   */\n      tag_169\n      jump\t// in\n    tag_395:\n        /* \"#utility.yul\":19758:19760   */\n      0x20\n        /* \"#utility.yul\":19753:19756   */\n      dup3\n        /* \"#utility.yul\":19749:19761   */\n      add\n        /* \"#utility.yul\":19742:19761   */\n      swap1\n      pop\n        /* \"#utility.yul\":19401:19767   */\n      swap2\n      swap1\n      pop\n      jump\t// out\n        /* \"#utility.yul\":19773:20192   */\n    tag_72:\n        /* \"#utility.yul\":19939:19943   */\n      0x00\n        /* \"#utility.yul\":19977:19979   */\n      0x20\n        /* \"#utility.yul\":19966:19975   */\n      dup3\n        /* \"#utility.yul\":19962:19980   */\n      add\n        /* \"#utility.yul\":19954:19980   */\n      swap1\n      pop\n        /* \"#utility.yul\":20026:20035   */\n      dup2\n        /* \"#utility.yul\":20020:20024   */\n      dup2\n        /* \"#utility.yul\":20016:20036   */\n      sub\n        /* \"#utility.yul\":20012:20013   */\n      0x00\n        /* \"#utility.yul\":20001:20010   */\n      dup4\n        /* \"#utility.yul\":19997:20014   */\n      add\n        /* \"#utility.yul\":19990:20037   */\n      mstore\n        /* \"#utility.yul\":20054:20185   */\n      tag_397\n        /* \"#utility.yul\":20180:20184   */\n      dup2\n        /* \"#utility.yul\":20054:20185   */\n      tag_170\n      jump\t// in\n    tag_397:\n        /* \"#utility.yul\":20046:20185   */\n      swap1\n      pop\n        /* \"#utility.yul\":19773:20192   */\n      swap2\n      swap1\n      pop\n      jump\t// out\n        /* \"#utility.yul\":20198:20375   */\n    tag_171:\n        /* \"#utility.yul\":20338:20367   */\n      0x6661696c646520746f2073656e642066656520746f206f776e65720000000000\n        /* \"#utility.yul\":20334:20335   */\n      0x00\n        /* \"#utility.yul\":20326:20332   */\n      dup3\n        /* \"#utility.yul\":20322:20336   */\n      add\n        /* \"#utility.yul\":20315:20368   */\n      mstore\n        /* \"#utility.yul\":20198:20375   */\n      pop\n      jump\t// out\n        /* \"#utility.yul\":20381:20747   */\n    tag_172:\n        /* \"#utility.yul\":20523:20526   */\n      0x00\n        /* \"#utility.yul\":20544:20611   */\n      tag_400\n        /* \"#utility.yul\":20608:20610   */\n      0x1b\n        /* \"#utility.yul\":20603:20606   */\n      dup4\n        /* \"#utility.yul\":20544:20611   */\n      tag_130\n      jump\t// in\n    tag_400:\n        /* \"#utility.yul\":20537:20611   */\n      swap2\n      pop\n        /* \"#utility.yul\":20620:20713   */\n      tag_401\n        /* \"#utility.yul\":20709:20712   */\n      dup3\n        /* \"#utility.yul\":20620:20713   */\n      tag_171\n      jump\t// in\n    tag_401:\n        /* \"#utility.yul\":20738:20740   */\n      0x20\n        /* \"#utility.yul\":20733:20736   */\n      dup3\n        /* \"#utility.yul\":20729:20741   */\n      add\n        /* \"#utility.yul\":20722:20741   */\n      swap1\n      pop\n        /* \"#utility.yul\":20381:20747   */\n      swap2\n      swap1\n      pop\n      jump\t// out\n        /* \"#utility.yul\":20753:21172   */\n    tag_79:\n        /* \"#utility.yul\":20919:20923   */\n      0x00\n        /* \"#utility.yul\":20957:20959   */\n      0x20\n        /* \"#utility.yul\":20946:20955   */\n      dup3\n        /* \"#utility.yul\":20942:20960   */\n      add\n        /* \"#utility.yul\":20934:20960   */\n      swap1\n      pop\n        /* \"#utility.yul\":21006:21015   */\n      dup2\n        /* \"#utility.yul\":21000:21004   */\n      dup2\n        /* \"#utility.yul\":20996:21016   */\n      sub\n        /* \"#utility.yul\":20992:20993   */\n      0x00\n        /* \"#utility.yul\":20981:20990   */\n      dup4\n        /* \"#utility.yul\":20977:20994   */\n      add\n        /* \"#utility.yul\":20970:21017   */\n      mstore\n        /* \"#utility.yul\":21034:21165   */\n      tag_403\n        /* \"#utility.yul\":21160:21164   */\n      dup2\n        /* \"#utility.yul\":21034:21165   */\n      tag_172\n      jump\t// in\n    tag_403:\n        /* \"#utility.yul\":21026:21165   */\n      swap1\n      pop\n        /* \"#utility.yul\":20753:21172   */\n      swap2\n      swap1\n      pop\n      jump\t// out\n        /* \"#utility.yul\":21178:21402   */\n    tag_173:\n        /* \"#utility.yul\":21318:21352   */\n      0x53656e74204554482069732062656c6f77206d696e696d756d20726571756972\n        /* \"#utility.yul\":21314:21315   */\n      0x00\n        /* \"#utility.yul\":21306:21312   */\n      dup3\n        /* \"#utility.yul\":21302:21316   */\n      add\n        /* \"#utility.yul\":21295:21353   */\n      mstore\n        /* \"#utility.yul\":21387:21394   */\n      0x656d656e74000000000000000000000000000000000000000000000000000000\n        /* \"#utility.yul\":21382:21384   */\n      0x20\n        /* \"#utility.yul\":21374:21380   */\n      dup3\n        /* \"#utility.yul\":21370:21385   */\n      add\n        /* \"#utility.yul\":21363:21395   */\n      mstore\n        /* \"#utility.yul\":21178:21402   */\n      pop\n      jump\t// out\n        /* \"#utility.yul\":21408:21774   */\n    tag_174:\n        /* \"#utility.yul\":21550:21553   */\n      0x00\n        /* \"#utility.yul\":21571:21638   */\n      tag_406\n        /* \"#utility.yul\":21635:21637   */\n      0x25\n        /* \"#utility.yul\":21630:21633   */\n      dup4\n        /* \"#utility.yul\":21571:21638   */\n      tag_130\n      jump\t// in\n    tag_406:\n        /* \"#utility.yul\":21564:21638   */\n      swap2\n      pop\n        /* \"#utility.yul\":21647:21740   */\n      tag_407\n        /* \"#utility.yul\":21736:21739   */\n      dup3\n        /* \"#utility.yul\":21647:21740   */\n      tag_173\n      jump\t// in\n    tag_407:\n        /* \"#utility.yul\":21765:21767   */\n      0x40\n        /* \"#utility.yul\":21760:21763   */\n      dup3\n        /* \"#utility.yul\":21756:21768   */\n      add\n        /* \"#utility.yul\":21749:21768   */\n      swap1\n      pop\n        /* \"#utility.yul\":21408:21774   */\n      swap2\n      swap1\n      pop\n      jump\t// out\n        /* \"#utility.yul\":21780:22199   */\n    tag_85:\n        /* \"#utility.yul\":21946:21950   */\n      0x00\n        /* \"#utility.yul\":21984:21986   */\n      0x20\n        /* \"#utility.yul\":21973:21982   */\n      dup3\n        /* \"#utility.yul\":21969:21987   */\n      add\n        /* \"#utility.yul\":21961:21987   */\n      swap1\n      pop\n        /* \"#utility.yul\":22033:22042   */\n      dup2\n        /* \"#utility.yul\":22027:22031   */\n      dup2\n        /* \"#utility.yul\":22023:22043   */\n      sub\n        /* \"#utility.yul\":22019:22020   */\n      0x00\n        /* \"#utility.yul\":22008:22017   */\n      dup4\n        /* \"#utility.yul\":22004:22021   */\n      add\n        /* \"#utility.yul\":21997:22044   */\n      mstore\n        /* \"#utility.yul\":22061:22192   */\n      tag_409\n        /* \"#utility.yul\":22187:22191   */\n      dup2\n        /* \"#utility.yul\":22061:22192   */\n      tag_174\n      jump\t// in\n    tag_409:\n        /* \"#utility.yul\":22053:22192   */\n      swap1\n      pop\n        /* \"#utility.yul\":21780:22199   */\n      swap2\n      swap1\n      pop\n      jump\t// out\n        /* \"#utility.yul\":22205:22377   */\n    tag_175:\n        /* \"#utility.yul\":22345:22369   */\n      0x50726f6a65637420646f6573206e6f7420657869737400000000000000000000\n        /* \"#utility.yul\":22341:22342   */\n      0x00\n        /* \"#utility.yul\":22333:22339   */\n      dup3\n        /* \"#utility.yul\":22329:22343   */\n      add\n        /* \"#utility.yul\":22322:22370   */\n      mstore\n        /* \"#utility.yul\":22205:22377   */\n      pop\n      jump\t// out\n        /* \"#utility.yul\":22383:22749   */\n    tag_176:\n        /* \"#utility.yul\":22525:22528   */\n      0x00\n        /* \"#utility.yul\":22546:22613   */\n      tag_412\n        /* \"#utility.yul\":22610:22612   */\n      0x16\n        /* \"#utility.yul\":22605:22608   */\n      dup4\n        /* \"#utility.yul\":22546:22613   */\n      tag_130\n      jump\t// in\n    tag_412:\n        /* \"#utility.yul\":22539:22613   */\n      swap2\n      pop\n        /* \"#utility.yul\":22622:22715   */\n      tag_413\n        /* \"#utility.yul\":22711:22714   */\n      dup3\n        /* \"#utility.yul\":22622:22715   */\n      tag_175\n      jump\t// in\n    tag_413:\n        /* \"#utility.yul\":22740:22742   */\n      0x20\n        /* \"#utility.yul\":22735:22738   */\n      dup3\n        /* \"#utility.yul\":22731:22743   */\n      add\n        /* \"#utility.yul\":22724:22743   */\n      swap1\n      pop\n        /* \"#utility.yul\":22383:22749   */\n      swap2\n      swap1\n      pop\n      jump\t// out\n        /* \"#utility.yul\":22755:23174   */\n    tag_89:\n        /* \"#utility.yul\":22921:22925   */\n      0x00\n        /* \"#utility.yul\":22959:22961   */\n      0x20\n        /* \"#utility.yul\":22948:22957   */\n      dup3\n        /* \"#utility.yul\":22944:22962   */\n      add\n        /* \"#utility.yul\":22936:22962   */\n      swap1\n      pop\n        /* \"#utility.yul\":23008:23017   */\n      dup2\n        /* \"#utility.yul\":23002:23006   */\n      dup2\n        /* \"#utility.yul\":22998:23018   */\n      sub\n        /* \"#utility.yul\":22994:22995   */\n      0x00\n        /* \"#utility.yul\":22983:22992   */\n      dup4\n        /* \"#utility.yul\":22979:22996   */\n      add\n        /* \"#utility.yul\":22972:23019   */\n      mstore\n        /* \"#utility.yul\":23036:23167   */\n      tag_415\n        /* \"#utility.yul\":23162:23166   */\n      dup2\n        /* \"#utility.yul\":23036:23167   */\n      tag_176\n      jump\t// in\n    tag_415:\n        /* \"#utility.yul\":23028:23167   */\n      swap1\n      pop\n        /* \"#utility.yul\":22755:23174   */\n      swap2\n      swap1\n      pop\n      jump\t// out\n        /* \"#utility.yul\":23180:23351   */\n    tag_177:\n        /* \"#utility.yul\":23320:23343   */\n      0x50726f6a656374206973206e6f74206163746976650000000000000000000000\n        /* \"#utility.yul\":23316:23317   */\n      0x00\n        /* \"#utility.yul\":23308:23314   */\n      dup3\n        /* \"#utility.yul\":23304:23318   */\n      add\n        /* \"#utility.yul\":23297:23344   */\n      mstore\n        /* \"#utility.yul\":23180:23351   */\n      pop\n      jump\t// out\n        /* \"#utility.yul\":23357:23723   */\n    tag_178:\n        /* \"#utility.yul\":23499:23502   */\n      0x00\n        /* \"#utility.yul\":23520:23587   */\n      tag_418\n        /* \"#utility.yul\":23584:23586   */\n      0x15\n        /* \"#utility.yul\":23579:23582   */\n      dup4\n        /* \"#utility.yul\":23520:23587   */\n      tag_130\n      jump\t// in\n    tag_418:\n        /* \"#utility.yul\":23513:23587   */\n      swap2\n      pop\n        /* \"#utility.yul\":23596:23689   */\n      tag_419\n        /* \"#utility.yul\":23685:23688   */\n      dup3\n        /* \"#utility.yul\":23596:23689   */\n      tag_177\n      jump\t// in\n    tag_419:\n        /* \"#utility.yul\":23714:23716   */\n      0x20\n        /* \"#utility.yul\":23709:23712   */\n      dup3\n        /* \"#utility.yul\":23705:23717   */\n      add\n        /* \"#utility.yul\":23698:23717   */\n      swap1\n      pop\n        /* \"#utility.yul\":23357:23723   */\n      swap2\n      swap1\n      pop\n      jump\t// out\n        /* \"#utility.yul\":23729:24148   */\n    tag_92:\n        /* \"#utility.yul\":23895:23899   */\n      0x00\n        /* \"#utility.yul\":23933:23935   */\n      0x20\n        /* \"#utility.yul\":23922:23931   */\n      dup3\n        /* \"#utility.yul\":23918:23936   */\n      add\n        /* \"#utility.yul\":23910:23936   */\n      swap1\n      pop\n        /* \"#utility.yul\":23982:23991   */\n      dup2\n        /* \"#utility.yul\":23976:23980   */\n      dup2\n        /* \"#utility.yul\":23972:23992   */\n      sub\n        /* \"#utility.yul\":23968:23969   */\n      0x00\n        /* \"#utility.yul\":23957:23966   */\n      dup4\n        /* \"#utility.yul\":23953:23970   */\n      add\n        /* \"#utility.yul\":23946:23993   */\n      mstore\n        /* \"#utility.yul\":24010:24141   */\n      tag_421\n        /* \"#utility.yul\":24136:24140   */\n      dup2\n        /* \"#utility.yul\":24010:24141   */\n      tag_178\n      jump\t// in\n    tag_421:\n        /* \"#utility.yul\":24002:24141   */\n      swap1\n      pop\n        /* \"#utility.yul\":23729:24148   */\n      swap2\n      swap1\n      pop\n      jump\t// out\n        /* \"#utility.yul\":24154:24345   */\n    tag_94:\n        /* \"#utility.yul\":24194:24197   */\n      0x00\n        /* \"#utility.yul\":24213:24233   */\n      tag_423\n        /* \"#utility.yul\":24231:24232   */\n      dup3\n        /* \"#utility.yul\":24213:24233   */\n      tag_117\n      jump\t// in\n    tag_423:\n        /* \"#utility.yul\":24208:24233   */\n      swap2\n      pop\n        /* \"#utility.yul\":24247:24267   */\n      tag_424\n        /* \"#utility.yul\":24265:24266   */\n      dup4\n        /* \"#utility.yul\":24247:24267   */\n      tag_117\n      jump\t// in\n    tag_424:\n        /* \"#utility.yul\":24242:24267   */\n      swap3\n      pop\n        /* \"#utility.yul\":24290:24291   */\n      dup3\n        /* \"#utility.yul\":24287:24288   */\n      dup3\n        /* \"#utility.yul\":24283:24292   */\n      add\n        /* \"#utility.yul\":24276:24292   */\n      swap1\n      pop\n        /* \"#utility.yul\":24311:24314   */\n      dup1\n        /* \"#utility.yul\":24308:24309   */\n      dup3\n        /* \"#utility.yul\":24305:24315   */\n      gt\n        /* \"#utility.yul\":24302:24338   */\n      iszero\n      tag_425\n      jumpi\n        /* \"#utility.yul\":24318:24336   */\n      tag_426\n      tag_164\n      jump\t// in\n    tag_426:\n        /* \"#utility.yul\":24302:24338   */\n    tag_425:\n        /* \"#utility.yul\":24154:24345   */\n      swap3\n      swap2\n      pop\n      pop\n      jump\t// out\n        /* \"#utility.yul\":24351:24456   */\n    tag_179:\n        /* \"#utility.yul\":24387:24394   */\n      0x00\n        /* \"#utility.yul\":24427:24449   */\n      0xffffffffffffffffffff\n        /* \"#utility.yul\":24420:24425   */\n      dup3\n        /* \"#utility.yul\":24416:24450   */\n      and\n        /* \"#utility.yul\":24405:24450   */\n      swap1\n      pop\n        /* \"#utility.yul\":24351:24456   */\n      swap2\n      swap1\n      pop\n      jump\t// out\n        /* \"#utility.yul\":24462:24582   */\n    tag_180:\n        /* \"#utility.yul\":24534:24557   */\n      tag_429\n        /* \"#utility.yul\":24551:24556   */\n      dup2\n        /* \"#utility.yul\":24534:24557   */\n      tag_179\n      jump\t// in\n    tag_429:\n        /* \"#utility.yul\":24527:24532   */\n      dup2\n        /* \"#utility.yul\":24524:24558   */\n      eq\n        /* \"#utility.yul\":24514:24576   */\n      tag_430\n      jumpi\n        /* \"#utility.yul\":24572:24573   */\n      0x00\n        /* \"#utility.yul\":24569:24570   */\n      0x00\n        /* \"#utility.yul\":24562:24574   */\n      revert\n        /* \"#utility.yul\":24514:24576   */\n    tag_430:\n        /* \"#utility.yul\":24462:24582   */\n      pop\n      jump\t// out\n        /* \"#utility.yul\":24588:24729   */\n    tag_181:\n        /* \"#utility.yul\":24644:24649   */\n      0x00\n        /* \"#utility.yul\":24675:24681   */\n      dup2\n        /* \"#utility.yul\":24669:24682   */\n      mload\n        /* \"#utility.yul\":24660:24682   */\n      swap1\n      pop\n        /* \"#utility.yul\":24691:24723   */\n      tag_432\n        /* \"#utility.yul\":24717:24722   */\n      dup2\n        /* \"#utility.yul\":24691:24723   */\n      tag_180\n      jump\t// in\n    tag_432:\n        /* \"#utility.yul\":24588:24729   */\n      swap3\n      swap2\n      pop\n      pop\n      jump\t// out\n        /* \"#utility.yul\":24735:24811   */\n    tag_182:\n        /* \"#utility.yul\":24771:24778   */\n      0x00\n        /* \"#utility.yul\":24800:24805   */\n      dup2\n        /* \"#utility.yul\":24789:24805   */\n      swap1\n      pop\n        /* \"#utility.yul\":24735:24811   */\n      swap2\n      swap1\n      pop\n      jump\t// out\n        /* \"#utility.yul\":24817:24937   */\n    tag_183:\n        /* \"#utility.yul\":24889:24912   */\n      tag_435\n        /* \"#utility.yul\":24906:24911   */\n      dup2\n        /* \"#utility.yul\":24889:24912   */\n      tag_182\n      jump\t// in\n    tag_435:\n        /* \"#utility.yul\":24882:24887   */\n      dup2\n        /* \"#utility.yul\":24879:24913   */\n      eq\n        /* \"#utility.yul\":24869:24931   */\n      tag_436\n      jumpi\n        /* \"#utility.yul\":24927:24928   */\n      0x00\n        /* \"#utility.yul\":24924:24925   */\n      0x00\n        /* \"#utility.yul\":24917:24929   */\n      revert\n        /* \"#utility.yul\":24869:24931   */\n    tag_436:\n        /* \"#utility.yul\":24817:24937   */\n      pop\n      jump\t// out\n        /* \"#utility.yul\":24943:25084   */\n    tag_184:\n        /* \"#utility.yul\":24999:25004   */\n      0x00\n        /* \"#utility.yul\":25030:25036   */\n      dup2\n        /* \"#utility.yul\":25024:25037   */\n      mload\n        /* \"#utility.yul\":25015:25037   */\n      swap1\n      pop\n        /* \"#utility.yul\":25046:25078   */\n      tag_438\n        /* \"#utility.yul\":25072:25077   */\n      dup2\n        /* \"#utility.yul\":25046:25078   */\n      tag_183\n      jump\t// in\n    tag_438:\n        /* \"#utility.yul\":24943:25084   */\n      swap3\n      swap2\n      pop\n      pop\n      jump\t// out\n        /* \"#utility.yul\":25090:25233   */\n    tag_185:\n        /* \"#utility.yul\":25147:25152   */\n      0x00\n        /* \"#utility.yul\":25178:25184   */\n      dup2\n        /* \"#utility.yul\":25172:25185   */\n      mload\n        /* \"#utility.yul\":25163:25185   */\n      swap1\n      pop\n        /* \"#utility.yul\":25194:25227   */\n      tag_440\n        /* \"#utility.yul\":25221:25226   */\n      dup2\n        /* \"#utility.yul\":25194:25227   */\n      tag_118\n      jump\t// in\n    tag_440:\n        /* \"#utility.yul\":25090:25233   */\n      swap3\n      swap2\n      pop\n      pop\n      jump\t// out\n        /* \"#utility.yul\":25239:26210   */\n    tag_108:\n        /* \"#utility.yul\":25342:25348   */\n      0x00\n        /* \"#utility.yul\":25350:25356   */\n      0x00\n        /* \"#utility.yul\":25358:25364   */\n      0x00\n        /* \"#utility.yul\":25366:25372   */\n      0x00\n        /* \"#utility.yul\":25374:25380   */\n      0x00\n        /* \"#utility.yul\":25423:25426   */\n      0xa0\n        /* \"#utility.yul\":25411:25420   */\n      dup7\n        /* \"#utility.yul\":25402:25409   */\n      dup9\n        /* \"#utility.yul\":25398:25421   */\n      sub\n        /* \"#utility.yul\":25394:25427   */\n      slt\n        /* \"#utility.yul\":25391:25511   */\n      iszero\n      tag_442\n      jumpi\n        /* \"#utility.yul\":25430:25509   */\n      tag_443\n      tag_111\n      jump\t// in\n    tag_443:\n        /* \"#utility.yul\":25391:25511   */\n    tag_442:\n        /* \"#utility.yul\":25550:25551   */\n      0x00\n        /* \"#utility.yul\":25575:25638   */\n      tag_444\n        /* \"#utility.yul\":25630:25637   */\n      dup9\n        /* \"#utility.yul\":25621:25627   */\n      dup3\n        /* \"#utility.yul\":25610:25619   */\n      dup10\n        /* \"#utility.yul\":25606:25628   */\n      add\n        /* \"#utility.yul\":25575:25638   */\n      tag_181\n      jump\t// in\n    tag_444:\n        /* \"#utility.yul\":25565:25638   */\n      swap6\n      pop\n        /* \"#utility.yul\":25521:25648   */\n      pop\n        /* \"#utility.yul\":25687:25689   */\n      0x20\n        /* \"#utility.yul\":25713:25776   */\n      tag_445\n        /* \"#utility.yul\":25768:25775   */\n      dup9\n        /* \"#utility.yul\":25759:25765   */\n      dup3\n        /* \"#utility.yul\":25748:25757   */\n      dup10\n        /* \"#utility.yul\":25744:25766   */\n      add\n        /* \"#utility.yul\":25713:25776   */\n      tag_184\n      jump\t// in\n    tag_445:\n        /* \"#utility.yul\":25703:25776   */\n      swap5\n      pop\n        /* \"#utility.yul\":25658:25786   */\n      pop\n        /* \"#utility.yul\":25825:25827   */\n      0x40\n        /* \"#utility.yul\":25851:25915   */\n      tag_446\n        /* \"#utility.yul\":25907:25914   */\n      dup9\n        /* \"#utility.yul\":25898:25904   */\n      dup3\n        /* \"#utility.yul\":25887:25896   */\n      dup10\n        /* \"#utility.yul\":25883:25905   */\n      add\n        /* \"#utility.yul\":25851:25915   */\n      tag_185\n      jump\t// in\n    tag_446:\n        /* \"#utility.yul\":25841:25915   */\n      swap4\n      pop\n        /* \"#utility.yul\":25796:25925   */\n      pop\n        /* \"#utility.yul\":25964:25966   */\n      0x60\n        /* \"#utility.yul\":25990:26054   */\n      tag_447\n        /* \"#utility.yul\":26046:26053   */\n      dup9\n        /* \"#utility.yul\":26037:26043   */\n      dup3\n        /* \"#utility.yul\":26026:26035   */\n      dup10\n        /* \"#utility.yul\":26022:26044   */\n      add\n        /* \"#utility.yul\":25990:26054   */\n      tag_185\n      jump\t// in\n    tag_447:\n        /* \"#utility.yul\":25980:26054   */\n      swap3\n      pop\n        /* \"#utility.yul\":25935:26064   */\n      pop\n        /* \"#utility.yul\":26103:26106   */\n      0x80\n        /* \"#utility.yul\":26130:26193   */\n      tag_448\n        /* \"#utility.yul\":26185:26192   */\n      dup9\n        /* \"#utility.yul\":26176:26182   */\n      dup3\n        /* \"#utility.yul\":26165:26174   */\n      dup10\n        /* \"#utility.yul\":26161:26183   */\n      add\n        /* \"#utility.yul\":26130:26193   */\n      tag_181\n      jump\t// in\n    tag_448:\n        /* \"#utility.yul\":26120:26193   */\n      swap2\n      pop\n        /* \"#utility.yul\":26074:26203   */\n      pop\n        /* \"#utility.yul\":25239:26210   */\n      swap3\n      swap6\n      pop\n      swap3\n      swap6\n      swap1\n      swap4\n      pop\n      jump\t// out\n\n    auxdata: 0xa2646970667358221220bdde64556e0cebecabb978920d107aba2127f288df8fce62d1664fae753d64bc64736f6c634300081e0033\n}\n",
				"bytecode": {
					"linkReferences": {},
					"object": "60a0604052348015600e575f5ffd5b503373ffffffffffffffffffffffffffffffffffffffff1660808173ffffffffffffffffffffffffffffffffffffffff168152505060805161176961005b5f395f6105aa01526117695ff3fe608060405260043610610054575f3560e01c806310d7aa7d146100585780635854dd21146100805780635fe26c73146100c35780636b69a592146100eb5780639f047f3c14610115578063cc1017e714610131575b5f5ffd5b348015610063575f5ffd5b5061007e60048036038101906100799190610a89565b61016e565b005b34801561008b575f5ffd5b506100a660048036038101906100a19190610c1e565b61026e565b6040516100ba989796959493929190610d2d565b60405180910390f35b3480156100ce575f5ffd5b506100e960048036038101906100e49190610db0565b6103a1565b005b3480156100f6575f5ffd5b506100ff610683565b60405161010c9190610dfb565b60405180910390f35b61012f600480360381019061012a9190610db0565b61068f565b005b34801561013c575f5ffd5b5061015760048036038101906101529190610e14565b6108b9565b604051610165929190610e5f565b60405180910390f35b5f5f8484604051610180929190610eb4565b908152602001604051809103902090508383825f0191826101a29291906110d3565b5033816001015f6101000a81548173ffffffffffffffffffffffffffffffffffffffff021916908373ffffffffffffffffffffffffffffffffffffffff1602179055508181600201819055506001816004015f6101000a81548160ff0219169083151502179055505f8160040160016101000a81548160ff0219169083151502179055505f8160040160026101000a81548160ff02191690831515021790555060018160040160036101000a81548160ff0219169083151502179055505f816003018190555050505050565b5f818051602081018201805184825260208301602085012081835280955050505050505f91509050805f0180546102a490610f03565b80601f01602080910402602001604051908101604052809291908181526020018280546102d090610f03565b801561031b5780601f106102f25761010080835404028352916020019161031b565b820191905f5260205f20905b8154815290600101906020018083116102fe57829003601f168201915b505050505090806001015f9054906101000a900473ffffffffffffffffffffffffffffffffffffffff1690806002015490806003015490806004015f9054906101000a900460ff16908060040160019054906101000a900460ff16908060040160029054906101000a900460ff16908060040160039054906101000a900460ff16905088565b5f5f83836040516103b3929190610eb4565b908152602001604051809103902090508060040160019054906101000a900460ff16610414576040517f08c379a000000000000000000000000000000000000000000000000000000000815260040161040b906111ea565b60405180910390fd5b3373ffffffffffffffffffffffffffffffffffffffff16816001015f9054906101000a900473ffffffffffffffffffffffffffffffffffffffff1673ffffffffffffffffffffffffffffffffffffffff16146104a5576040517f08c379a000000000000000000000000000000000000000000000000000000000815260040161049c90611278565b60405180910390fd5b5f816002015490505f826001015f9054906101000a900473ffffffffffffffffffffffffffffffffffffffff1690505f60646062846104e491906112c3565b6104ee9190611331565b90505f81846104fd9190611361565b90505f8373ffffffffffffffffffffffffffffffffffffffff1683604051610524906113c1565b5f6040518083038185875af1925050503d805f811461055e576040519150601f19603f3d011682016040523d82523d5f602084013e610563565b606091505b50509050806105a7576040517f08c379a000000000000000000000000000000000000000000000000000000000815260040161059e9061141f565b60405180910390fd5b5f7f000000000000000000000000000000000000000000000000000000000000000073ffffffffffffffffffffffffffffffffffffffff16836040516105ec906113c1565b5f6040518083038185875af1925050503d805f8114610626576040519150601f19603f3d011682016040523d82523d5f602084013e61062b565b606091505b505090508061066f576040517f08c379a000000000000000000000000000000000000000000000000000000000815260040161066690611487565b60405180910390fd5b5f8760030181905550505050505050505050565b671bc16d674ec8000081565b671bc16d674ec800006106a134610907565b10156106e2576040517f35dcd6780000000000000000000000000000000000000000000000000000000081526004016106d990611515565b60405180910390fd5b5f5f83836040516106f4929190610eb4565b908152602001604051809103902090508060040160039054906101000a900460ff16610755576040517f08c379a000000000000000000000000000000000000000000000000000000000815260040161074c9061157d565b60405180910390fd5b806004015f9054906101000a900460ff166107a5576040517f08c379a000000000000000000000000000000000000000000000000000000000815260040161079c906115e5565b60405180910390fd5b5f34905080826003015f8282546107bc9190611603565b925050819055505f60405180604001604052803373ffffffffffffffffffffffffffffffffffffffff168152602001838152509050600181908060018154018082558091505060019003905f5260205f2090600202015f909190919091505f820151815f015f6101000a81548173ffffffffffffffffffffffffffffffffffffffff021916908373ffffffffffffffffffffffffffffffffffffffff16021790555060208201518160010155505082600201548360030154106108b25760018360040160016101000a81548160ff0219169083151502179055505f836004015f6101000a81548160ff0219169083151502179055505b5050505050565b600181815481106108c8575f80fd5b905f5260205f2090600202015f91509050805f015f9054906101000a900473ffffffffffffffffffffffffffffffffffffffff16908060010154905082565b5f5f61091161093f565b90505f670de0b6b3a7640000848361092991906112c3565b6109339190611331565b90508092505050919050565b5f5f73694aa1769357215de4fac081bf1f309adc32530690505f8173ffffffffffffffffffffffffffffffffffffffff1663feaf968c6040518163ffffffff1660e01b815260040160a060405180830381865afa1580156109a2573d5f5f3e3d5ffd5b505050506040513d601f19601f820116820180604052508101906109c691906116bc565b5050509150506402540be400816109dd91906112c3565b9250505090565b5f604051905090565b5f5ffd5b5f5ffd5b5f5ffd5b5f5ffd5b5f5ffd5b5f5f83601f840112610a1657610a156109f5565b5b8235905067ffffffffffffffff811115610a3357610a326109f9565b5b602083019150836001820283011115610a4f57610a4e6109fd565b5b9250929050565b5f819050919050565b610a6881610a56565b8114610a72575f5ffd5b50565b5f81359050610a8381610a5f565b92915050565b5f5f5f60408486031215610aa057610a9f6109ed565b5b5f84013567ffffffffffffffff811115610abd57610abc6109f1565b5b610ac986828701610a01565b93509350506020610adc86828701610a75565b9150509250925092565b5f5ffd5b5f601f19601f8301169050919050565b7f4e487b71000000000000000000000000000000000000000000000000000000005f52604160045260245ffd5b610b3082610aea565b810181811067ffffffffffffffff82111715610b4f57610b4e610afa565b5b80604052505050565b5f610b616109e4565b9050610b6d8282610b27565b919050565b5f67ffffffffffffffff821115610b8c57610b8b610afa565b5b610b9582610aea565b9050602081019050919050565b828183375f83830152505050565b5f610bc2610bbd84610b72565b610b58565b905082815260208101848484011115610bde57610bdd610ae6565b5b610be9848285610ba2565b509392505050565b5f82601f830112610c0557610c046109f5565b5b8135610c15848260208601610bb0565b91505092915050565b5f60208284031215610c3357610c326109ed565b5b5f82013567ffffffffffffffff811115610c5057610c4f6109f1565b5b610c5c84828501610bf1565b91505092915050565b5f81519050919050565b5f82825260208201905092915050565b8281835e5f83830152505050565b5f610c9782610c65565b610ca18185610c6f565b9350610cb1818560208601610c7f565b610cba81610aea565b840191505092915050565b5f73ffffffffffffffffffffffffffffffffffffffff82169050919050565b5f610cee82610cc5565b9050919050565b610cfe81610ce4565b82525050565b610d0d81610a56565b82525050565b5f8115159050919050565b610d2781610d13565b82525050565b5f610100820190508181035f830152610d46818b610c8d565b9050610d55602083018a610cf5565b610d626040830189610d04565b610d6f6060830188610d04565b610d7c6080830187610d1e565b610d8960a0830186610d1e565b610d9660c0830185610d1e565b610da360e0830184610d1e565b9998505050505050505050565b5f5f60208385031215610dc657610dc56109ed565b5b5f83013567ffffffffffffffff811115610de357610de26109f1565b5b610def85828601610a01565b92509250509250929050565b5f602082019050610e0e5f830184610d04565b92915050565b5f60208284031215610e2957610e286109ed565b5b5f610e3684828501610a75565b91505092915050565b5f610e4982610cc5565b9050919050565b610e5981610e3f565b82525050565b5f604082019050610e725f830185610e50565b610e7f6020830184610d04565b9392505050565b5f81905092915050565b5f610e9b8385610e86565b9350610ea8838584610ba2565b82840190509392505050565b5f610ec0828486610e90565b91508190509392505050565b5f82905092915050565b7f4e487b71000000000000000000000000000000000000000000000000000000005f52602260045260245ffd5b5f6002820490506001821680610f1a57607f821691505b602082108103610f2d57610f2c610ed6565b5b50919050565b5f819050815f5260205f209050919050565b5f6020601f8301049050919050565b5f82821b905092915050565b5f60088302610f8f7fffffffffffffffffffffffffffffffffffffffffffffffffffffffffffffffff82610f54565b610f998683610f54565b95508019841693508086168417925050509392505050565b5f819050919050565b5f610fd4610fcf610fca84610a56565b610fb1565b610a56565b9050919050565b5f819050919050565b610fed83610fba565b611001610ff982610fdb565b848454610f60565b825550505050565b5f5f905090565b611018611009565b611023818484610fe4565b505050565b5b818110156110465761103b5f82611010565b600181019050611029565b5050565b601f82111561108b5761105c81610f33565b61106584610f45565b81016020851015611074578190505b61108861108085610f45565b830182611028565b50505b505050565b5f82821c905092915050565b5f6110ab5f1984600802611090565b1980831691505092915050565b5f6110c3838361109c565b9150826002028217905092915050565b6110dd8383610ecc565b67ffffffffffffffff8111156110f6576110f5610afa565b5b6111008254610f03565b61110b82828561104a565b5f601f831160018114611138575f8415611126578287013590505b61113085826110b8565b865550611197565b601f19841661114686610f33565b5f5b8281101561116d57848901358255600182019150602085019450602081019050611148565b8683101561118a5784890135611186601f89168261109c565b8355505b6001600288020188555050505b50505050505050565b7f50726f6a656374206973206e6f7420636f6d706c6574656400000000000000005f82015250565b5f6111d4601883610c6f565b91506111df826111a0565b602082019050919050565b5f6020820190508181035f830152611201816111c8565b9050919050565b7f4f6e6c79207468652070726f6a6563742063726561746f722063616e207769745f8201527f68647261772066756e6473000000000000000000000000000000000000000000602082015250565b5f611262602b83610c6f565b915061126d82611208565b604082019050919050565b5f6020820190508181035f83015261128f81611256565b9050919050565b7f4e487b71000000000000000000000000000000000000000000000000000000005f52601160045260245ffd5b5f6112cd82610a56565b91506112d883610a56565b92508282026112e681610a56565b915082820484148315176112fd576112fc611296565b5b5092915050565b7f4e487b71000000000000000000000000000000000000000000000000000000005f52601260045260245ffd5b5f61133b82610a56565b915061134683610a56565b92508261135657611355611304565b5b828204905092915050565b5f61136b82610a56565b915061137683610a56565b925082820390508181111561138e5761138d611296565b5b92915050565b5f81905092915050565b50565b5f6113ac5f83611394565b91506113b78261139e565b5f82019050919050565b5f6113cb826113a1565b9150819050919050565b7f776964746864726177616c206661696c640000000000000000000000000000005f82015250565b5f611409601183610c6f565b9150611414826113d5565b602082019050919050565b5f6020820190508181035f830152611436816113fd565b9050919050565b7f6661696c646520746f2073656e642066656520746f206f776e657200000000005f82015250565b5f611471601b83610c6f565b915061147c8261143d565b602082019050919050565b5f6020820190508181035f83015261149e81611465565b9050919050565b7f53656e74204554482069732062656c6f77206d696e696d756d207265717569725f8201527f656d656e74000000000000000000000000000000000000000000000000000000602082015250565b5f6114ff602583610c6f565b915061150a826114a5565b604082019050919050565b5f6020820190508181035f83015261152c816114f3565b9050919050565b7f50726f6a65637420646f6573206e6f74206578697374000000000000000000005f82015250565b5f611567601683610c6f565b915061157282611533565b602082019050919050565b5f6020820190508181035f8301526115948161155b565b9050919050565b7f50726f6a656374206973206e6f742061637469766500000000000000000000005f82015250565b5f6115cf601583610c6f565b91506115da8261159b565b602082019050919050565b5f6020820190508181035f8301526115fc816115c3565b9050919050565b5f61160d82610a56565b915061161883610a56565b92508282019050808211156116305761162f611296565b5b92915050565b5f69ffffffffffffffffffff82169050919050565b61165481611636565b811461165e575f5ffd5b50565b5f8151905061166f8161164b565b92915050565b5f819050919050565b61168781611675565b8114611691575f5ffd5b50565b5f815190506116a28161167e565b92915050565b5f815190506116b681610a5f565b92915050565b5f5f5f5f5f60a086880312156116d5576116d46109ed565b5b5f6116e288828901611661565b95505060206116f388828901611694565b9450506040611704888289016116a8565b9350506060611715888289016116a8565b925050608061172688828901611661565b915050929550929590935056fea2646970667358221220bdde64556e0cebecabb978920d107aba2127f288df8fce62d1664fae753d64bc64736f6c634300081e0033",
					"opcodes": "PUSH1 0xA0 PUSH1 0x40 MSTORE CALLVALUE DUP1 ISZERO PUSH1 0xE JUMPI PUSH0 PUSH0 REVERT JUMPDEST POP CALLER PUSH20 0xFFFFFFFFFFFFFFFFFFFFFFFFFFFFFFFFFFFFFFFF AND PUSH1 0x80 DUP2 PUSH20 0xFFFFFFFFFFFFFFFFFFFFFFFFFFFFFFFFFFFFFFFF AND DUP2 MSTORE POP POP PUSH1 0x80 MLOAD PUSH2 0x1769 PUSH2 0x5B PUSH0 CODECOPY PUSH0 PUSH2 0x5AA ADD MSTORE PUSH2 0x1769 PUSH0 RETURN INVALID PUSH1 0x80 PUSH1 0x40 MSTORE PUSH1 0x4 CALLDATASIZE LT PUSH2 0x54 JUMPI PUSH0 CALLDATALOAD PUSH1 0xE0 SHR DUP1 PUSH4 0x10D7AA7D EQ PUSH2 0x58 JUMPI DUP1 PUSH4 0x5854DD21 EQ PUSH2 0x80 JUMPI DUP1 PUSH4 0x5FE26C73 EQ PUSH2 0xC3 JUMPI DUP1 PUSH4 0x6B69A592 EQ PUSH2 0xEB JUMPI DUP1 PUSH4 0x9F047F3C EQ PUSH2 0x115 JUMPI DUP1 PUSH4 0xCC1017E7 EQ PUSH2 0x131 JUMPI JUMPDEST PUSH0 PUSH0 REVERT JUMPDEST CALLVALUE DUP1 ISZERO PUSH2 0x63 JUMPI PUSH0 PUSH0 REVERT JUMPDEST POP PUSH2 0x7E PUSH1 0x4 DUP1 CALLDATASIZE SUB DUP2 ADD SWAP1 PUSH2 0x79 SWAP2 SWAP1 PUSH2 0xA89 JUMP JUMPDEST PUSH2 0x16E JUMP JUMPDEST STOP JUMPDEST CALLVALUE DUP1 ISZERO PUSH2 0x8B JUMPI PUSH0 PUSH0 REVERT JUMPDEST POP PUSH2 0xA6 PUSH1 0x4 DUP1 CALLDATASIZE SUB DUP2 ADD SWAP1 PUSH2 0xA1 SWAP2 SWAP1 PUSH2 0xC1E JUMP JUMPDEST PUSH2 0x26E JUMP JUMPDEST PUSH1 0x40 MLOAD PUSH2 0xBA SWAP9 SWAP8 SWAP7 SWAP6 SWAP5 SWAP4 SWAP3 SWAP2 SWAP1 PUSH2 0xD2D JUMP JUMPDEST PUSH1 0x40 MLOAD DUP1 SWAP2 SUB SWAP1 RETURN JUMPDEST CALLVALUE DUP1 ISZERO PUSH2 0xCE JUMPI PUSH0 PUSH0 REVERT JUMPDEST POP PUSH2 0xE9 PUSH1 0x4 DUP1 CALLDATASIZE SUB DUP2 ADD SWAP1 PUSH2 0xE4 SWAP2 SWAP1 PUSH2 0xDB0 JUMP JUMPDEST PUSH2 0x3A1 JUMP JUMPDEST STOP JUMPDEST CALLVALUE DUP1 ISZERO PUSH2 0xF6 JUMPI PUSH0 PUSH0 REVERT JUMPDEST POP PUSH2 0xFF PUSH2 0x683 JUMP JUMPDEST PUSH1 0x40 MLOAD PUSH2 0x10C SWAP2 SWAP1 PUSH2 0xDFB JUMP JUMPDEST PUSH1 0x40 MLOAD DUP1 SWAP2 SUB SWAP1 RETURN JUMPDEST PUSH2 0x12F PUSH1 0x4 DUP1 CALLDATASIZE SUB DUP2 ADD SWAP1 PUSH2 0x12A SWAP2 SWAP1 PUSH2 0xDB0 JUMP JUMPDEST PUSH2 0x68F JUMP JUMPDEST STOP JUMPDEST CALLVALUE DUP1 ISZERO PUSH2 0x13C JUMPI PUSH0 PUSH0 REVERT JUMPDEST POP PUSH2 0x157 PUSH1 0x4 DUP1 CALLDATASIZE SUB DUP2 ADD SWAP1 PUSH2 0x152 SWAP2 SWAP1 PUSH2 0xE14 JUMP JUMPDEST PUSH2 0x8B9 JUMP JUMPDEST PUSH1 0x40 MLOAD PUSH2 0x165 SWAP3 SWAP2 SWAP1 PUSH2 0xE5F JUMP JUMPDEST PUSH1 0x40 MLOAD DUP1 SWAP2 SUB SWAP1 RETURN JUMPDEST PUSH0 PUSH0 DUP5 DUP5 PUSH1 0x40 MLOAD PUSH2 0x180 SWAP3 SWAP2 SWAP1 PUSH2 0xEB4 JUMP JUMPDEST SWAP1 DUP2 MSTORE PUSH1 0x20 ADD PUSH1 0x40 MLOAD DUP1 SWAP2 SUB SWAP1 KECCAK256 SWAP1 POP DUP4 DUP4 DUP3 PUSH0 ADD SWAP2 DUP3 PUSH2 0x1A2 SWAP3 SWAP2 SWAP1 PUSH2 0x10D3 JUMP JUMPDEST POP CALLER DUP2 PUSH1 0x1 ADD PUSH0 PUSH2 0x100 EXP DUP2 SLOAD DUP2 PUSH20 0xFFFFFFFFFFFFFFFFFFFFFFFFFFFFFFFFFFFFFFFF MUL NOT AND SWAP1 DUP4 PUSH20 0xFFFFFFFFFFFFFFFFFFFFFFFFFFFFFFFFFFFFFFFF AND MUL OR SWAP1 SSTORE POP DUP2 DUP2 PUSH1 0x2 ADD DUP2 SWAP1 SSTORE POP PUSH1 0x1 DUP2 PUSH1 0x4 ADD PUSH0 PUSH2 0x100 EXP DUP2 SLOAD DUP2 PUSH1 0xFF MUL NOT AND SWAP1 DUP4 ISZERO ISZERO MUL OR SWAP1 SSTORE POP PUSH0 DUP2 PUSH1 0x4 ADD PUSH1 0x1 PUSH2 0x100 EXP DUP2 SLOAD DUP2 PUSH1 0xFF MUL NOT AND SWAP1 DUP4 ISZERO ISZERO MUL OR SWAP1 SSTORE POP PUSH0 DUP2 PUSH1 0x4 ADD PUSH1 0x2 PUSH2 0x100 EXP DUP2 SLOAD DUP2 PUSH1 0xFF MUL NOT AND SWAP1 DUP4 ISZERO ISZERO MUL OR SWAP1 SSTORE POP PUSH1 0x1 DUP2 PUSH1 0x4 ADD PUSH1 0x3 PUSH2 0x100 EXP DUP2 SLOAD DUP2 PUSH1 0xFF MUL NOT AND SWAP1 DUP4 ISZERO ISZERO MUL OR SWAP1 SSTORE POP PUSH0 DUP2 PUSH1 0x3 ADD DUP2 SWAP1 SSTORE POP POP POP POP POP JUMP JUMPDEST PUSH0 DUP2 DUP1 MLOAD PUSH1 0x20 DUP2 ADD DUP3 ADD DUP1 MLOAD DUP5 DUP3 MSTORE PUSH1 0x20 DUP4 ADD PUSH1 0x20 DUP6 ADD KECCAK256 DUP2 DUP4 MSTORE DUP1 SWAP6 POP POP POP POP POP POP PUSH0 SWAP2 POP SWAP1 POP DUP1 PUSH0 ADD DUP1 SLOAD PUSH2 0x2A4 SWAP1 PUSH2 0xF03 JUMP JUMPDEST DUP1 PUSH1 0x1F ADD PUSH1 0x20 DUP1 SWAP2 DIV MUL PUSH1 0x20 ADD PUSH1 0x40 MLOAD SWAP1 DUP2 ADD PUSH1 0x40 MSTORE DUP1 SWAP3 SWAP2 SWAP1 DUP2 DUP2 MSTORE PUSH1 0x20 ADD DUP3 DUP1 SLOAD PUSH2 0x2D0 SWAP1 PUSH2 0xF03 JUMP JUMPDEST DUP1 ISZERO PUSH2 0x31B JUMPI DUP1 PUSH1 0x1F LT PUSH2 0x2F2 JUMPI PUSH2 0x100 DUP1 DUP4 SLOAD DIV MUL DUP4 MSTORE SWAP2 PUSH1 0x20 ADD SWAP2 PUSH2 0x31B JUMP JUMPDEST DUP3 ADD SWAP2 SWAP1 PUSH0 MSTORE PUSH1 0x20 PUSH0 KECCAK256 SWAP1 JUMPDEST DUP2 SLOAD DUP2 MSTORE SWAP1 PUSH1 0x1 ADD SWAP1 PUSH1 0x20 ADD DUP1 DUP4 GT PUSH2 0x2FE JUMPI DUP3 SWAP1 SUB PUSH1 0x1F AND DUP3 ADD SWAP2 JUMPDEST POP POP POP POP POP SWAP1 DUP1 PUSH1 0x1 ADD PUSH0 SWAP1 SLOAD SWAP1 PUSH2 0x100 EXP SWAP1 DIV PUSH20 0xFFFFFFFFFFFFFFFFFFFFFFFFFFFFFFFFFFFFFFFF AND SWAP1 DUP1 PUSH1 0x2 ADD SLOAD SWAP1 DUP1 PUSH1 0x3 ADD SLOAD SWAP1 DUP1 PUSH1 0x4 ADD PUSH0 SWAP1 SLOAD SWAP1 PUSH2 0x100 EXP SWAP1 DIV PUSH1 0xFF AND SWAP1 DUP1 PUSH1 0x4 ADD PUSH1 0x1 SWAP1 SLOAD SWAP1 PUSH2 0x100 EXP SWAP1 DIV PUSH1 0xFF AND SWAP1 DUP1 PUSH1 0x4 ADD PUSH1 0x2 SWAP1 SLOAD SWAP1 PUSH2 0x100 EXP SWAP1 DIV PUSH1 0xFF AND SWAP1 DUP1 PUSH1 0x4 ADD PUSH1 0x3 SWAP1 SLOAD SWAP1 PUSH2 0x100 EXP SWAP1 DIV PUSH1 0xFF AND SWAP1 POP DUP9 JUMP JUMPDEST PUSH0 PUSH0 DUP4 DUP4 PUSH1 0x40 MLOAD PUSH2 0x3B3 SWAP3 SWAP2 SWAP1 PUSH2 0xEB4 JUMP JUMPDEST SWAP1 DUP2 MSTORE PUSH1 0x20 ADD PUSH1 0x40 MLOAD DUP1 SWAP2 SUB SWAP1 KECCAK256 SWAP1 POP DUP1 PUSH1 0x4 ADD PUSH1 0x1 SWAP1 SLOAD SWAP1 PUSH2 0x100 EXP SWAP1 DIV PUSH1 0xFF AND PUSH2 0x414 JUMPI PUSH1 0x40 MLOAD PUSH32 0x8C379A000000000000000000000000000000000000000000000000000000000 DUP2 MSTORE PUSH1 0x4 ADD PUSH2 0x40B SWAP1 PUSH2 0x11EA JUMP JUMPDEST PUSH1 0x40 MLOAD DUP1 SWAP2 SUB SWAP1 REVERT JUMPDEST CALLER PUSH20 0xFFFFFFFFFFFFFFFFFFFFFFFFFFFFFFFFFFFFFFFF AND DUP2 PUSH1 0x1 ADD PUSH0 SWAP1 SLOAD SWAP1 PUSH2 0x100 EXP SWAP1 DIV PUSH20 0xFFFFFFFFFFFFFFFFFFFFFFFFFFFFFFFFFFFFFFFF AND PUSH20 0xFFFFFFFFFFFFFFFFFFFFFFFFFFFFFFFFFFFFFFFF AND EQ PUSH2 0x4A5 JUMPI PUSH1 0x40 MLOAD PUSH32 0x8C379A000000000000000000000000000000000000000000000000000000000 DUP2 MSTORE PUSH1 0x4 ADD PUSH2 0x49C SWAP1 PUSH2 0x1278 JUMP JUMPDEST PUSH1 0x40 MLOAD DUP1 SWAP2 SUB SWAP1 REVERT JUMPDEST PUSH0 DUP2 PUSH1 0x2 ADD SLOAD SWAP1 POP PUSH0 DUP3 PUSH1 0x1 ADD PUSH0 SWAP1 SLOAD SWAP1 PUSH2 0x100 EXP SWAP1 DIV PUSH20 0xFFFFFFFFFFFFFFFFFFFFFFFFFFFFFFFFFFFFFFFF AND SWAP1 POP PUSH0 PUSH1 0x64 PUSH1 0x62 DUP5 PUSH2 0x4E4 SWAP2 SWAP1 PUSH2 0x12C3 JUMP JUMPDEST PUSH2 0x4EE SWAP2 SWAP1 PUSH2 0x1331 JUMP JUMPDEST SWAP1 POP PUSH0 DUP2 DUP5 PUSH2 0x4FD SWAP2 SWAP1 PUSH2 0x1361 JUMP JUMPDEST SWAP1 POP PUSH0 DUP4 PUSH20 0xFFFFFFFFFFFFFFFFFFFFFFFFFFFFFFFFFFFFFFFF AND DUP4 PUSH1 0x40 MLOAD PUSH2 0x524 SWAP1 PUSH2 0x13C1 JUMP JUMPDEST PUSH0 PUSH1 0x40 MLOAD DUP1 DUP4 SUB DUP2 DUP6 DUP8 GAS CALL SWAP3 POP POP POP RETURNDATASIZE DUP1 PUSH0 DUP2 EQ PUSH2 0x55E JUMPI PUSH1 0x40 MLOAD SWAP2 POP PUSH1 0x1F NOT PUSH1 0x3F RETURNDATASIZE ADD AND DUP3 ADD PUSH1 0x40 MSTORE RETURNDATASIZE DUP3 MSTORE RETURNDATASIZE PUSH0 PUSH1 0x20 DUP5 ADD RETURNDATACOPY PUSH2 0x563 JUMP JUMPDEST PUSH1 0x60 SWAP2 POP JUMPDEST POP POP SWAP1 POP DUP1 PUSH2 0x5A7 JUMPI PUSH1 0x40 MLOAD PUSH32 0x8C379A000000000000000000000000000000000000000000000000000000000 DUP2 MSTORE PUSH1 0x4 ADD PUSH2 0x59E SWAP1 PUSH2 0x141F JUMP JUMPDEST PUSH1 0x40 MLOAD DUP1 SWAP2 SUB SWAP1 REVERT JUMPDEST PUSH0 PUSH32 0x0 PUSH20 0xFFFFFFFFFFFFFFFFFFFFFFFFFFFFFFFFFFFFFFFF AND DUP4 PUSH1 0x40 MLOAD PUSH2 0x5EC SWAP1 PUSH2 0x13C1 JUMP JUMPDEST PUSH0 PUSH1 0x40 MLOAD DUP1 DUP4 SUB DUP2 DUP6 DUP8 GAS CALL SWAP3 POP POP POP RETURNDATASIZE DUP1 PUSH0 DUP2 EQ PUSH2 0x626 JUMPI PUSH1 0x40 MLOAD SWAP2 POP PUSH1 0x1F NOT PUSH1 0x3F RETURNDATASIZE ADD AND DUP3 ADD PUSH1 0x40 MSTORE RETURNDATASIZE DUP3 MSTORE RETURNDATASIZE PUSH0 PUSH1 0x20 DUP5 ADD RETURNDATACOPY PUSH2 0x62B JUMP JUMPDEST PUSH1 0x60 SWAP2 POP JUMPDEST POP POP SWAP1 POP DUP1 PUSH2 0x66F JUMPI PUSH1 0x40 MLOAD PUSH32 0x8C379A000000000000000000000000000000000000000000000000000000000 DUP2 MSTORE PUSH1 0x4 ADD PUSH2 0x666 SWAP1 PUSH2 0x1487 JUMP JUMPDEST PUSH1 0x40 MLOAD DUP1 SWAP2 SUB SWAP1 REVERT JUMPDEST PUSH0 DUP8 PUSH1 0x3 ADD DUP2 SWAP1 SSTORE POP POP POP POP POP POP POP POP POP POP JUMP JUMPDEST PUSH8 0x1BC16D674EC80000 DUP2 JUMP JUMPDEST PUSH8 0x1BC16D674EC80000 PUSH2 0x6A1 CALLVALUE PUSH2 0x907 JUMP JUMPDEST LT ISZERO PUSH2 0x6E2 JUMPI PUSH1 0x40 MLOAD PUSH32 0x35DCD67800000000000000000000000000000000000000000000000000000000 DUP2 MSTORE PUSH1 0x4 ADD PUSH2 0x6D9 SWAP1 PUSH2 0x1515 JUMP JUMPDEST PUSH1 0x40 MLOAD DUP1 SWAP2 SUB SWAP1 REVERT JUMPDEST PUSH0 PUSH0 DUP4 DUP4 PUSH1 0x40 MLOAD PUSH2 0x6F4 SWAP3 SWAP2 SWAP1 PUSH2 0xEB4 JUMP JUMPDEST SWAP1 DUP2 MSTORE PUSH1 0x20 ADD PUSH1 0x40 MLOAD DUP1 SWAP2 SUB SWAP1 KECCAK256 SWAP1 POP DUP1 PUSH1 0x4 ADD PUSH1 0x3 SWAP1 SLOAD SWAP1 PUSH2 0x100 EXP SWAP1 DIV PUSH1 0xFF AND PUSH2 0x755 JUMPI PUSH1 0x40 MLOAD PUSH32 0x8C379A000000000000000000000000000000000000000000000000000000000 DUP2 MSTORE PUSH1 0x4 ADD PUSH2 0x74C SWAP1 PUSH2 0x157D JUMP JUMPDEST PUSH1 0x40 MLOAD DUP1 SWAP2 SUB SWAP1 REVERT JUMPDEST DUP1 PUSH1 0x4 ADD PUSH0 SWAP1 SLOAD SWAP1 PUSH2 0x100 EXP SWAP1 DIV PUSH1 0xFF AND PUSH2 0x7A5 JUMPI PUSH1 0x40 MLOAD PUSH32 0x8C379A000000000000000000000000000000000000000000000000000000000 DUP2 MSTORE PUSH1 0x4 ADD PUSH2 0x79C SWAP1 PUSH2 0x15E5 JUMP JUMPDEST PUSH1 0x40 MLOAD DUP1 SWAP2 SUB SWAP1 REVERT JUMPDEST PUSH0 CALLVALUE SWAP1 POP DUP1 DUP3 PUSH1 0x3 ADD PUSH0 DUP3 DUP3 SLOAD PUSH2 0x7BC SWAP2 SWAP1 PUSH2 0x1603 JUMP JUMPDEST SWAP3 POP POP DUP2 SWAP1 SSTORE POP PUSH0 PUSH1 0x40 MLOAD DUP1 PUSH1 0x40 ADD PUSH1 0x40 MSTORE DUP1 CALLER PUSH20 0xFFFFFFFFFFFFFFFFFFFFFFFFFFFFFFFFFFFFFFFF AND DUP2 MSTORE PUSH1 0x20 ADD DUP4 DUP2 MSTORE POP SWAP1 POP PUSH1 0x1 DUP2 SWAP1 DUP1 PUSH1 0x1 DUP2 SLOAD ADD DUP1 DUP3 SSTORE DUP1 SWAP2 POP POP PUSH1 0x1 SWAP1 SUB SWAP1 PUSH0 MSTORE PUSH1 0x20 PUSH0 KECCAK256 SWAP1 PUSH1 0x2 MUL ADD PUSH0 SWAP1 SWAP2 SWAP1 SWAP2 SWAP1 SWAP2 POP PUSH0 DUP3 ADD MLOAD DUP2 PUSH0 ADD PUSH0 PUSH2 0x100 EXP DUP2 SLOAD DUP2 PUSH20 0xFFFFFFFFFFFFFFFFFFFFFFFFFFFFFFFFFFFFFFFF MUL NOT AND SWAP1 DUP4 PUSH20 0xFFFFFFFFFFFFFFFFFFFFFFFFFFFFFFFFFFFFFFFF AND MUL OR SWAP1 SSTORE POP PUSH1 0x20 DUP3 ADD MLOAD DUP2 PUSH1 0x1 ADD SSTORE POP POP DUP3 PUSH1 0x2 ADD SLOAD DUP4 PUSH1 0x3 ADD SLOAD LT PUSH2 0x8B2 JUMPI PUSH1 0x1 DUP4 PUSH1 0x4 ADD PUSH1 0x1 PUSH2 0x100 EXP DUP2 SLOAD DUP2 PUSH1 0xFF MUL NOT AND SWAP1 DUP4 ISZERO ISZERO MUL OR SWAP1 SSTORE POP PUSH0 DUP4 PUSH1 0x4 ADD PUSH0 PUSH2 0x100 EXP DUP2 SLOAD DUP2 PUSH1 0xFF MUL NOT AND SWAP1 DUP4 ISZERO ISZERO MUL OR SWAP1 SSTORE POP JUMPDEST POP POP POP POP POP JUMP JUMPDEST PUSH1 0x1 DUP2 DUP2 SLOAD DUP2 LT PUSH2 0x8C8 JUMPI PUSH0 DUP1 REVERT JUMPDEST SWAP1 PUSH0 MSTORE PUSH1 0x20 PUSH0 KECCAK256 SWAP1 PUSH1 0x2 MUL ADD PUSH0 SWAP2 POP SWAP1 POP DUP1 PUSH0 ADD PUSH0 SWAP1 SLOAD SWAP1 PUSH2 0x100 EXP SWAP1 DIV PUSH20 0xFFFFFFFFFFFFFFFFFFFFFFFFFFFFFFFFFFFFFFFF AND SWAP1 DUP1 PUSH1 0x1 ADD SLOAD SWAP1 POP DUP3 JUMP JUMPDEST PUSH0 PUSH0 PUSH2 0x911 PUSH2 0x93F JUMP JUMPDEST SWAP1 POP PUSH0 PUSH8 0xDE0B6B3A7640000 DUP5 DUP4 PUSH2 0x929 SWAP2 SWAP1 PUSH2 0x12C3 JUMP JUMPDEST PUSH2 0x933 SWAP2 SWAP1 PUSH2 0x1331 JUMP JUMPDEST SWAP1 POP DUP1 SWAP3 POP POP POP SWAP2 SWAP1 POP JUMP JUMPDEST PUSH0 PUSH0 PUSH20 0x694AA1769357215DE4FAC081BF1F309ADC325306 SWAP1 POP PUSH0 DUP2 PUSH20 0xFFFFFFFFFFFFFFFFFFFFFFFFFFFFFFFFFFFFFFFF AND PUSH4 0xFEAF968C PUSH1 0x40 MLOAD DUP2 PUSH4 0xFFFFFFFF AND PUSH1 0xE0 SHL DUP2 MSTORE PUSH1 0x4 ADD PUSH1 0xA0 PUSH1 0x40 MLOAD DUP1 DUP4 SUB DUP2 DUP7 GAS STATICCALL ISZERO DUP1 ISZERO PUSH2 0x9A2 JUMPI RETURNDATASIZE PUSH0 PUSH0 RETURNDATACOPY RETURNDATASIZE PUSH0 REVERT JUMPDEST POP POP POP POP PUSH1 0x40 MLOAD RETURNDATASIZE PUSH1 0x1F NOT PUSH1 0x1F DUP3 ADD AND DUP3 ADD DUP1 PUSH1 0x40 MSTORE POP DUP2 ADD SWAP1 PUSH2 0x9C6 SWAP2 SWAP1 PUSH2 0x16BC JUMP JUMPDEST POP POP POP SWAP2 POP POP PUSH5 0x2540BE400 DUP2 PUSH2 0x9DD SWAP2 SWAP1 PUSH2 0x12C3 JUMP JUMPDEST SWAP3 POP POP POP SWAP1 JUMP JUMPDEST PUSH0 PUSH1 0x40 MLOAD SWAP1 POP SWAP1 JUMP JUMPDEST PUSH0 PUSH0 REVERT JUMPDEST PUSH0 PUSH0 REVERT JUMPDEST PUSH0 PUSH0 REVERT JUMPDEST PUSH0 PUSH0 REVERT JUMPDEST PUSH0 PUSH0 REVERT JUMPDEST PUSH0 PUSH0 DUP4 PUSH1 0x1F DUP5 ADD SLT PUSH2 0xA16 JUMPI PUSH2 0xA15 PUSH2 0x9F5 JUMP JUMPDEST JUMPDEST DUP3 CALLDATALOAD SWAP1 POP PUSH8 0xFFFFFFFFFFFFFFFF DUP2 GT ISZERO PUSH2 0xA33 JUMPI PUSH2 0xA32 PUSH2 0x9F9 JUMP JUMPDEST JUMPDEST PUSH1 0x20 DUP4 ADD SWAP2 POP DUP4 PUSH1 0x1 DUP3 MUL DUP4 ADD GT ISZERO PUSH2 0xA4F JUMPI PUSH2 0xA4E PUSH2 0x9FD JUMP JUMPDEST JUMPDEST SWAP3 POP SWAP3 SWAP1 POP JUMP JUMPDEST PUSH0 DUP2 SWAP1 POP SWAP2 SWAP1 POP JUMP JUMPDEST PUSH2 0xA68 DUP2 PUSH2 0xA56 JUMP JUMPDEST DUP2 EQ PUSH2 0xA72 JUMPI PUSH0 PUSH0 REVERT JUMPDEST POP JUMP JUMPDEST PUSH0 DUP2 CALLDATALOAD SWAP1 POP PUSH2 0xA83 DUP2 PUSH2 0xA5F JUMP JUMPDEST SWAP3 SWAP2 POP POP JUMP JUMPDEST PUSH0 PUSH0 PUSH0 PUSH1 0x40 DUP5 DUP7 SUB SLT ISZERO PUSH2 0xAA0 JUMPI PUSH2 0xA9F PUSH2 0x9ED JUMP JUMPDEST JUMPDEST PUSH0 DUP5 ADD CALLDATALOAD PUSH8 0xFFFFFFFFFFFFFFFF DUP2 GT ISZERO PUSH2 0xABD JUMPI PUSH2 0xABC PUSH2 0x9F1 JUMP JUMPDEST JUMPDEST PUSH2 0xAC9 DUP7 DUP3 DUP8 ADD PUSH2 0xA01 JUMP JUMPDEST SWAP4 POP SWAP4 POP POP PUSH1 0x20 PUSH2 0xADC DUP7 DUP3 DUP8 ADD PUSH2 0xA75 JUMP JUMPDEST SWAP2 POP POP SWAP3 POP SWAP3 POP SWAP3 JUMP JUMPDEST PUSH0 PUSH0 REVERT JUMPDEST PUSH0 PUSH1 0x1F NOT PUSH1 0x1F DUP4 ADD AND SWAP1 POP SWAP2 SWAP1 POP JUMP JUMPDEST PUSH32 0x4E487B7100000000000000000000000000000000000000000000000000000000 PUSH0 MSTORE PUSH1 0x41 PUSH1 0x4 MSTORE PUSH1 0x24 PUSH0 REVERT JUMPDEST PUSH2 0xB30 DUP3 PUSH2 0xAEA JUMP JUMPDEST DUP2 ADD DUP2 DUP2 LT PUSH8 0xFFFFFFFFFFFFFFFF DUP3 GT OR ISZERO PUSH2 0xB4F JUMPI PUSH2 0xB4E PUSH2 0xAFA JUMP JUMPDEST JUMPDEST DUP1 PUSH1 0x40 MSTORE POP POP POP JUMP JUMPDEST PUSH0 PUSH2 0xB61 PUSH2 0x9E4 JUMP JUMPDEST SWAP1 POP PUSH2 0xB6D DUP3 DUP3 PUSH2 0xB27 JUMP JUMPDEST SWAP2 SWAP1 POP JUMP JUMPDEST PUSH0 PUSH8 0xFFFFFFFFFFFFFFFF DUP3 GT ISZERO PUSH2 0xB8C JUMPI PUSH2 0xB8B PUSH2 0xAFA JUMP JUMPDEST JUMPDEST PUSH2 0xB95 DUP3 PUSH2 0xAEA JUMP JUMPDEST SWAP1 POP PUSH1 0x20 DUP2 ADD SWAP1 POP SWAP2 SWAP1 POP JUMP JUMPDEST DUP3 DUP2 DUP4 CALLDATACOPY PUSH0 DUP4 DUP4 ADD MSTORE POP POP POP JUMP JUMPDEST PUSH0 PUSH2 0xBC2 PUSH2 0xBBD DUP5 PUSH2 0xB72 JUMP JUMPDEST PUSH2 0xB58 JUMP JUMPDEST SWAP1 POP DUP3 DUP2 MSTORE PUSH1 0x20 DUP2 ADD DUP5 DUP5 DUP5 ADD GT ISZERO PUSH2 0xBDE JUMPI PUSH2 0xBDD PUSH2 0xAE6 JUMP JUMPDEST JUMPDEST PUSH2 0xBE9 DUP5 DUP3 DUP6 PUSH2 0xBA2 JUMP JUMPDEST POP SWAP4 SWAP3 POP POP POP JUMP JUMPDEST PUSH0 DUP3 PUSH1 0x1F DUP4 ADD SLT PUSH2 0xC05 JUMPI PUSH2 0xC04 PUSH2 0x9F5 JUMP JUMPDEST JUMPDEST DUP2 CALLDATALOAD PUSH2 0xC15 DUP5 DUP3 PUSH1 0x20 DUP7 ADD PUSH2 0xBB0 JUMP JUMPDEST SWAP2 POP POP SWAP3 SWAP2 POP POP JUMP JUMPDEST PUSH0 PUSH1 0x20 DUP3 DUP5 SUB SLT ISZERO PUSH2 0xC33 JUMPI PUSH2 0xC32 PUSH2 0x9ED JUMP JUMPDEST JUMPDEST PUSH0 DUP3 ADD CALLDATALOAD PUSH8 0xFFFFFFFFFFFFFFFF DUP2 GT ISZERO PUSH2 0xC50 JUMPI PUSH2 0xC4F PUSH2 0x9F1 JUMP JUMPDEST JUMPDEST PUSH2 0xC5C DUP5 DUP3 DUP6 ADD PUSH2 0xBF1 JUMP JUMPDEST SWAP2 POP POP SWAP3 SWAP2 POP POP JUMP JUMPDEST PUSH0 DUP2 MLOAD SWAP1 POP SWAP2 SWAP1 POP JUMP JUMPDEST PUSH0 DUP3 DUP3 MSTORE PUSH1 0x20 DUP3 ADD SWAP1 POP SWAP3 SWAP2 POP POP JUMP JUMPDEST DUP3 DUP2 DUP4 MCOPY PUSH0 DUP4 DUP4 ADD MSTORE POP POP POP JUMP JUMPDEST PUSH0 PUSH2 0xC97 DUP3 PUSH2 0xC65 JUMP JUMPDEST PUSH2 0xCA1 DUP2 DUP6 PUSH2 0xC6F JUMP JUMPDEST SWAP4 POP PUSH2 0xCB1 DUP2 DUP6 PUSH1 0x20 DUP7 ADD PUSH2 0xC7F JUMP JUMPDEST PUSH2 0xCBA DUP2 PUSH2 0xAEA JUMP JUMPDEST DUP5 ADD SWAP2 POP POP SWAP3 SWAP2 POP POP JUMP JUMPDEST PUSH0 PUSH20 0xFFFFFFFFFFFFFFFFFFFFFFFFFFFFFFFFFFFFFFFF DUP3 AND SWAP1 POP SWAP2 SWAP1 POP JUMP JUMPDEST PUSH0 PUSH2 0xCEE DUP3 PUSH2 0xCC5 JUMP JUMPDEST SWAP1 POP SWAP2 SWAP1 POP JUMP JUMPDEST PUSH2 0xCFE DUP2 PUSH2 0xCE4 JUMP JUMPDEST DUP3 MSTORE POP POP JUMP JUMPDEST PUSH2 0xD0D DUP2 PUSH2 0xA56 JUMP JUMPDEST DUP3 MSTORE POP POP JUMP JUMPDEST PUSH0 DUP2 ISZERO ISZERO SWAP1 POP SWAP2 SWAP1 POP JUMP JUMPDEST PUSH2 0xD27 DUP2 PUSH2 0xD13 JUMP JUMPDEST DUP3 MSTORE POP POP JUMP JUMPDEST PUSH0 PUSH2 0x100 DUP3 ADD SWAP1 POP DUP2 DUP2 SUB PUSH0 DUP4 ADD MSTORE PUSH2 0xD46 DUP2 DUP12 PUSH2 0xC8D JUMP JUMPDEST SWAP1 POP PUSH2 0xD55 PUSH1 0x20 DUP4 ADD DUP11 PUSH2 0xCF5 JUMP JUMPDEST PUSH2 0xD62 PUSH1 0x40 DUP4 ADD DUP10 PUSH2 0xD04 JUMP JUMPDEST PUSH2 0xD6F PUSH1 0x60 DUP4 ADD DUP9 PUSH2 0xD04 JUMP JUMPDEST PUSH2 0xD7C PUSH1 0x80 DUP4 ADD DUP8 PUSH2 0xD1E JUMP JUMPDEST PUSH2 0xD89 PUSH1 0xA0 DUP4 ADD DUP7 PUSH2 0xD1E JUMP JUMPDEST PUSH2 0xD96 PUSH1 0xC0 DUP4 ADD DUP6 PUSH2 0xD1E JUMP JUMPDEST PUSH2 0xDA3 PUSH1 0xE0 DUP4 ADD DUP5 PUSH2 0xD1E JUMP JUMPDEST SWAP10 SWAP9 POP POP POP POP POP POP POP POP POP JUMP JUMPDEST PUSH0 PUSH0 PUSH1 0x20 DUP4 DUP6 SUB SLT ISZERO PUSH2 0xDC6 JUMPI PUSH2 0xDC5 PUSH2 0x9ED JUMP JUMPDEST JUMPDEST PUSH0 DUP4 ADD CALLDATALOAD PUSH8 0xFFFFFFFFFFFFFFFF DUP2 GT ISZERO PUSH2 0xDE3 JUMPI PUSH2 0xDE2 PUSH2 0x9F1 JUMP JUMPDEST JUMPDEST PUSH2 0xDEF DUP6 DUP3 DUP7 ADD PUSH2 0xA01 JUMP JUMPDEST SWAP3 POP SWAP3 POP POP SWAP3 POP SWAP3 SWAP1 POP JUMP JUMPDEST PUSH0 PUSH1 0x20 DUP3 ADD SWAP1 POP PUSH2 0xE0E PUSH0 DUP4 ADD DUP5 PUSH2 0xD04 JUMP JUMPDEST SWAP3 SWAP2 POP POP JUMP JUMPDEST PUSH0 PUSH1 0x20 DUP3 DUP5 SUB SLT ISZERO PUSH2 0xE29 JUMPI PUSH2 0xE28 PUSH2 0x9ED JUMP JUMPDEST JUMPDEST PUSH0 PUSH2 0xE36 DUP5 DUP3 DUP6 ADD PUSH2 0xA75 JUMP JUMPDEST SWAP2 POP POP SWAP3 SWAP2 POP POP JUMP JUMPDEST PUSH0 PUSH2 0xE49 DUP3 PUSH2 0xCC5 JUMP JUMPDEST SWAP1 POP SWAP2 SWAP1 POP JUMP JUMPDEST PUSH2 0xE59 DUP2 PUSH2 0xE3F JUMP JUMPDEST DUP3 MSTORE POP POP JUMP JUMPDEST PUSH0 PUSH1 0x40 DUP3 ADD SWAP1 POP PUSH2 0xE72 PUSH0 DUP4 ADD DUP6 PUSH2 0xE50 JUMP JUMPDEST PUSH2 0xE7F PUSH1 0x20 DUP4 ADD DUP5 PUSH2 0xD04 JUMP JUMPDEST SWAP4 SWAP3 POP POP POP JUMP JUMPDEST PUSH0 DUP2 SWAP1 POP SWAP3 SWAP2 POP POP JUMP JUMPDEST PUSH0 PUSH2 0xE9B DUP4 DUP6 PUSH2 0xE86 JUMP JUMPDEST SWAP4 POP PUSH2 0xEA8 DUP4 DUP6 DUP5 PUSH2 0xBA2 JUMP JUMPDEST DUP3 DUP5 ADD SWAP1 POP SWAP4 SWAP3 POP POP POP JUMP JUMPDEST PUSH0 PUSH2 0xEC0 DUP3 DUP5 DUP7 PUSH2 0xE90 JUMP JUMPDEST SWAP2 POP DUP2 SWAP1 POP SWAP4 SWAP3 POP POP POP JUMP JUMPDEST PUSH0 DUP3 SWAP1 POP SWAP3 SWAP2 POP POP JUMP JUMPDEST PUSH32 0x4E487B7100000000000000000000000000000000000000000000000000000000 PUSH0 MSTORE PUSH1 0x22 PUSH1 0x4 MSTORE PUSH1 0x24 PUSH0 REVERT JUMPDEST PUSH0 PUSH1 0x2 DUP3 DIV SWAP1 POP PUSH1 0x1 DUP3 AND DUP1 PUSH2 0xF1A JUMPI PUSH1 0x7F DUP3 AND SWAP2 POP JUMPDEST PUSH1 0x20 DUP3 LT DUP2 SUB PUSH2 0xF2D JUMPI PUSH2 0xF2C PUSH2 0xED6 JUMP JUMPDEST JUMPDEST POP SWAP2 SWAP1 POP JUMP JUMPDEST PUSH0 DUP2 SWAP1 POP DUP2 PUSH0 MSTORE PUSH1 0x20 PUSH0 KECCAK256 SWAP1 POP SWAP2 SWAP1 POP JUMP JUMPDEST PUSH0 PUSH1 0x20 PUSH1 0x1F DUP4 ADD DIV SWAP1 POP SWAP2 SWAP1 POP JUMP JUMPDEST PUSH0 DUP3 DUP3 SHL SWAP1 POP SWAP3 SWAP2 POP POP JUMP JUMPDEST PUSH0 PUSH1 0x8 DUP4 MUL PUSH2 0xF8F PUSH32 0xFFFFFFFFFFFFFFFFFFFFFFFFFFFFFFFFFFFFFFFFFFFFFFFFFFFFFFFFFFFFFFFF DUP3 PUSH2 0xF54 JUMP JUMPDEST PUSH2 0xF99 DUP7 DUP4 PUSH2 0xF54 JUMP JUMPDEST SWAP6 POP DUP1 NOT DUP5 AND SWAP4 POP DUP1 DUP7 AND DUP5 OR SWAP3 POP POP POP SWAP4 SWAP3 POP POP POP JUMP JUMPDEST PUSH0 DUP2 SWAP1 POP SWAP2 SWAP1 POP JUMP JUMPDEST PUSH0 PUSH2 0xFD4 PUSH2 0xFCF PUSH2 0xFCA DUP5 PUSH2 0xA56 JUMP JUMPDEST PUSH2 0xFB1 JUMP JUMPDEST PUSH2 0xA56 JUMP JUMPDEST SWAP1 POP SWAP2 SWAP1 POP JUMP JUMPDEST PUSH0 DUP2 SWAP1 POP SWAP2 SWAP1 POP JUMP JUMPDEST PUSH2 0xFED DUP4 PUSH2 0xFBA JUMP JUMPDEST PUSH2 0x1001 PUSH2 0xFF9 DUP3 PUSH2 0xFDB JUMP JUMPDEST DUP5 DUP5 SLOAD PUSH2 0xF60 JUMP JUMPDEST DUP3 SSTORE POP POP POP POP JUMP JUMPDEST PUSH0 PUSH0 SWAP1 POP SWAP1 JUMP JUMPDEST PUSH2 0x1018 PUSH2 0x1009 JUMP JUMPDEST PUSH2 0x1023 DUP2 DUP5 DUP5 PUSH2 0xFE4 JUMP JUMPDEST POP POP POP JUMP JUMPDEST JUMPDEST DUP2 DUP2 LT ISZERO PUSH2 0x1046 JUMPI PUSH2 0x103B PUSH0 DUP3 PUSH2 0x1010 JUMP JUMPDEST PUSH1 0x1 DUP2 ADD SWAP1 POP PUSH2 0x1029 JUMP JUMPDEST POP POP JUMP JUMPDEST PUSH1 0x1F DUP3 GT ISZERO PUSH2 0x108B JUMPI PUSH2 0x105C DUP2 PUSH2 0xF33 JUMP JUMPDEST PUSH2 0x1065 DUP5 PUSH2 0xF45 JUMP JUMPDEST DUP2 ADD PUSH1 0x20 DUP6 LT ISZERO PUSH2 0x1074 JUMPI DUP2 SWAP1 POP JUMPDEST PUSH2 0x1088 PUSH2 0x1080 DUP6 PUSH2 0xF45 JUMP JUMPDEST DUP4 ADD DUP3 PUSH2 0x1028 JUMP JUMPDEST POP POP JUMPDEST POP POP POP JUMP JUMPDEST PUSH0 DUP3 DUP3 SHR SWAP1 POP SWAP3 SWAP2 POP POP JUMP JUMPDEST PUSH0 PUSH2 0x10AB PUSH0 NOT DUP5 PUSH1 0x8 MUL PUSH2 0x1090 JUMP JUMPDEST NOT DUP1 DUP4 AND SWAP2 POP POP SWAP3 SWAP2 POP POP JUMP JUMPDEST PUSH0 PUSH2 0x10C3 DUP4 DUP4 PUSH2 0x109C JUMP JUMPDEST SWAP2 POP DUP3 PUSH1 0x2 MUL DUP3 OR SWAP1 POP SWAP3 SWAP2 POP POP JUMP JUMPDEST PUSH2 0x10DD DUP4 DUP4 PUSH2 0xECC JUMP JUMPDEST PUSH8 0xFFFFFFFFFFFFFFFF DUP2 GT ISZERO PUSH2 0x10F6 JUMPI PUSH2 0x10F5 PUSH2 0xAFA JUMP JUMPDEST JUMPDEST PUSH2 0x1100 DUP3 SLOAD PUSH2 0xF03 JUMP JUMPDEST PUSH2 0x110B DUP3 DUP3 DUP6 PUSH2 0x104A JUMP JUMPDEST PUSH0 PUSH1 0x1F DUP4 GT PUSH1 0x1 DUP2 EQ PUSH2 0x1138 JUMPI PUSH0 DUP5 ISZERO PUSH2 0x1126 JUMPI DUP3 DUP8 ADD CALLDATALOAD SWAP1 POP JUMPDEST PUSH2 0x1130 DUP6 DUP3 PUSH2 0x10B8 JUMP JUMPDEST DUP7 SSTORE POP PUSH2 0x1197 JUMP JUMPDEST PUSH1 0x1F NOT DUP5 AND PUSH2 0x1146 DUP7 PUSH2 0xF33 JUMP JUMPDEST PUSH0 JUMPDEST DUP3 DUP2 LT ISZERO PUSH2 0x116D JUMPI DUP5 DUP10 ADD CALLDATALOAD DUP3 SSTORE PUSH1 0x1 DUP3 ADD SWAP2 POP PUSH1 0x20 DUP6 ADD SWAP5 POP PUSH1 0x20 DUP2 ADD SWAP1 POP PUSH2 0x1148 JUMP JUMPDEST DUP7 DUP4 LT ISZERO PUSH2 0x118A JUMPI DUP5 DUP10 ADD CALLDATALOAD PUSH2 0x1186 PUSH1 0x1F DUP10 AND DUP3 PUSH2 0x109C JUMP JUMPDEST DUP4 SSTORE POP JUMPDEST PUSH1 0x1 PUSH1 0x2 DUP9 MUL ADD DUP9 SSTORE POP POP POP JUMPDEST POP POP POP POP POP POP POP JUMP JUMPDEST PUSH32 0x50726F6A656374206973206E6F7420636F6D706C657465640000000000000000 PUSH0 DUP3 ADD MSTORE POP JUMP JUMPDEST PUSH0 PUSH2 0x11D4 PUSH1 0x18 DUP4 PUSH2 0xC6F JUMP JUMPDEST SWAP2 POP PUSH2 0x11DF DUP3 PUSH2 0x11A0 JUMP JUMPDEST PUSH1 0x20 DUP3 ADD SWAP1 POP SWAP2 SWAP1 POP JUMP JUMPDEST PUSH0 PUSH1 0x20 DUP3 ADD SWAP1 POP DUP2 DUP2 SUB PUSH0 DUP4 ADD MSTORE PUSH2 0x1201 DUP2 PUSH2 0x11C8 JUMP JUMPDEST SWAP1 POP SWAP2 SWAP1 POP JUMP JUMPDEST PUSH32 0x4F6E6C79207468652070726F6A6563742063726561746F722063616E20776974 PUSH0 DUP3 ADD MSTORE PUSH32 0x68647261772066756E6473000000000000000000000000000000000000000000 PUSH1 0x20 DUP3 ADD MSTORE POP JUMP JUMPDEST PUSH0 PUSH2 0x1262 PUSH1 0x2B DUP4 PUSH2 0xC6F JUMP JUMPDEST SWAP2 POP PUSH2 0x126D DUP3 PUSH2 0x1208 JUMP JUMPDEST PUSH1 0x40 DUP3 ADD SWAP1 POP SWAP2 SWAP1 POP JUMP JUMPDEST PUSH0 PUSH1 0x20 DUP3 ADD SWAP1 POP DUP2 DUP2 SUB PUSH0 DUP4 ADD MSTORE PUSH2 0x128F DUP2 PUSH2 0x1256 JUMP JUMPDEST SWAP1 POP SWAP2 SWAP1 POP JUMP JUMPDEST PUSH32 0x4E487B7100000000000000000000000000000000000000000000000000000000 PUSH0 MSTORE PUSH1 0x11 PUSH1 0x4 MSTORE PUSH1 0x24 PUSH0 REVERT JUMPDEST PUSH0 PUSH2 0x12CD DUP3 PUSH2 0xA56 JUMP JUMPDEST SWAP2 POP PUSH2 0x12D8 DUP4 PUSH2 0xA56 JUMP JUMPDEST SWAP3 POP DUP3 DUP3 MUL PUSH2 0x12E6 DUP2 PUSH2 0xA56 JUMP JUMPDEST SWAP2 POP DUP3 DUP3 DIV DUP5 EQ DUP4 ISZERO OR PUSH2 0x12FD JUMPI PUSH2 0x12FC PUSH2 0x1296 JUMP JUMPDEST JUMPDEST POP SWAP3 SWAP2 POP POP JUMP JUMPDEST PUSH32 0x4E487B7100000000000000000000000000000000000000000000000000000000 PUSH0 MSTORE PUSH1 0x12 PUSH1 0x4 MSTORE PUSH1 0x24 PUSH0 REVERT JUMPDEST PUSH0 PUSH2 0x133B DUP3 PUSH2 0xA56 JUMP JUMPDEST SWAP2 POP PUSH2 0x1346 DUP4 PUSH2 0xA56 JUMP JUMPDEST SWAP3 POP DUP3 PUSH2 0x1356 JUMPI PUSH2 0x1355 PUSH2 0x1304 JUMP JUMPDEST JUMPDEST DUP3 DUP3 DIV SWAP1 POP SWAP3 SWAP2 POP POP JUMP JUMPDEST PUSH0 PUSH2 0x136B DUP3 PUSH2 0xA56 JUMP JUMPDEST SWAP2 POP PUSH2 0x1376 DUP4 PUSH2 0xA56 JUMP JUMPDEST SWAP3 POP DUP3 DUP3 SUB SWAP1 POP DUP2 DUP2 GT ISZERO PUSH2 0x138E JUMPI PUSH2 0x138D PUSH2 0x1296 JUMP JUMPDEST JUMPDEST SWAP3 SWAP2 POP POP JUMP JUMPDEST PUSH0 DUP2 SWAP1 POP SWAP3 SWAP2 POP POP JUMP JUMPDEST POP JUMP JUMPDEST PUSH0 PUSH2 0x13AC PUSH0 DUP4 PUSH2 0x1394 JUMP JUMPDEST SWAP2 POP PUSH2 0x13B7 DUP3 PUSH2 0x139E JUMP JUMPDEST PUSH0 DUP3 ADD SWAP1 POP SWAP2 SWAP1 POP JUMP JUMPDEST PUSH0 PUSH2 0x13CB DUP3 PUSH2 0x13A1 JUMP JUMPDEST SWAP2 POP DUP2 SWAP1 POP SWAP2 SWAP1 POP JUMP JUMPDEST PUSH32 0x776964746864726177616C206661696C64000000000000000000000000000000 PUSH0 DUP3 ADD MSTORE POP JUMP JUMPDEST PUSH0 PUSH2 0x1409 PUSH1 0x11 DUP4 PUSH2 0xC6F JUMP JUMPDEST SWAP2 POP PUSH2 0x1414 DUP3 PUSH2 0x13D5 JUMP JUMPDEST PUSH1 0x20 DUP3 ADD SWAP1 POP SWAP2 SWAP1 POP JUMP JUMPDEST PUSH0 PUSH1 0x20 DUP3 ADD SWAP1 POP DUP2 DUP2 SUB PUSH0 DUP4 ADD MSTORE PUSH2 0x1436 DUP2 PUSH2 0x13FD JUMP JUMPDEST SWAP1 POP SWAP2 SWAP1 POP JUMP JUMPDEST PUSH32 0x6661696C646520746F2073656E642066656520746F206F776E65720000000000 PUSH0 DUP3 ADD MSTORE POP JUMP JUMPDEST PUSH0 PUSH2 0x1471 PUSH1 0x1B DUP4 PUSH2 0xC6F JUMP JUMPDEST SWAP2 POP PUSH2 0x147C DUP3 PUSH2 0x143D JUMP JUMPDEST PUSH1 0x20 DUP3 ADD SWAP1 POP SWAP2 SWAP1 POP JUMP JUMPDEST PUSH0 PUSH1 0x20 DUP3 ADD SWAP1 POP DUP2 DUP2 SUB PUSH0 DUP4 ADD MSTORE PUSH2 0x149E DUP2 PUSH2 0x1465 JUMP JUMPDEST SWAP1 POP SWAP2 SWAP1 POP JUMP JUMPDEST PUSH32 0x53656E74204554482069732062656C6F77206D696E696D756D20726571756972 PUSH0 DUP3 ADD MSTORE PUSH32 0x656D656E74000000000000000000000000000000000000000000000000000000 PUSH1 0x20 DUP3 ADD MSTORE POP JUMP JUMPDEST PUSH0 PUSH2 0x14FF PUSH1 0x25 DUP4 PUSH2 0xC6F JUMP JUMPDEST SWAP2 POP PUSH2 0x150A DUP3 PUSH2 0x14A5 JUMP JUMPDEST PUSH1 0x40 DUP3 ADD SWAP1 POP SWAP2 SWAP1 POP JUMP JUMPDEST PUSH0 PUSH1 0x20 DUP3 ADD SWAP1 POP DUP2 DUP2 SUB PUSH0 DUP4 ADD MSTORE PUSH2 0x152C DUP2 PUSH2 0x14F3 JUMP JUMPDEST SWAP1 POP SWAP2 SWAP1 POP JUMP JUMPDEST PUSH32 0x50726F6A65637420646F6573206E6F7420657869737400000000000000000000 PUSH0 DUP3 ADD MSTORE POP JUMP JUMPDEST PUSH0 PUSH2 0x1567 PUSH1 0x16 DUP4 PUSH2 0xC6F JUMP JUMPDEST SWAP2 POP PUSH2 0x1572 DUP3 PUSH2 0x1533 JUMP JUMPDEST PUSH1 0x20 DUP3 ADD SWAP1 POP SWAP2 SWAP1 POP JUMP JUMPDEST PUSH0 PUSH1 0x20 DUP3 ADD SWAP1 POP DUP2 DUP2 SUB PUSH0 DUP4 ADD MSTORE PUSH2 0x1594 DUP2 PUSH2 0x155B JUMP JUMPDEST SWAP1 POP SWAP2 SWAP1 POP JUMP JUMPDEST PUSH32 0x50726F6A656374206973206E6F74206163746976650000000000000000000000 PUSH0 DUP3 ADD MSTORE POP JUMP JUMPDEST PUSH0 PUSH2 0x15CF PUSH1 0x15 DUP4 PUSH2 0xC6F JUMP JUMPDEST SWAP2 POP PUSH2 0x15DA DUP3 PUSH2 0x159B JUMP JUMPDEST PUSH1 0x20 DUP3 ADD SWAP1 POP SWAP2 SWAP1 POP JUMP JUMPDEST PUSH0 PUSH1 0x20 DUP3 ADD SWAP1 POP DUP2 DUP2 SUB PUSH0 DUP4 ADD MSTORE PUSH2 0x15FC DUP2 PUSH2 0x15C3 JUMP JUMPDEST SWAP1 POP SWAP2 SWAP1 POP JUMP JUMPDEST PUSH0 PUSH2 0x160D DUP3 PUSH2 0xA56 JUMP JUMPDEST SWAP2 POP PUSH2 0x1618 DUP4 PUSH2 0xA56 JUMP JUMPDEST SWAP3 POP DUP3 DUP3 ADD SWAP1 POP DUP1 DUP3 GT ISZERO PUSH2 0x1630 JUMPI PUSH2 0x162F PUSH2 0x1296 JUMP JUMPDEST JUMPDEST SWAP3 SWAP2 POP POP JUMP JUMPDEST PUSH0 PUSH10 0xFFFFFFFFFFFFFFFFFFFF DUP3 AND SWAP1 POP SWAP2 SWAP1 POP JUMP JUMPDEST PUSH2 0x1654 DUP2 PUSH2 0x1636 JUMP JUMPDEST DUP2 EQ PUSH2 0x165E JUMPI PUSH0 PUSH0 REVERT JUMPDEST POP JUMP JUMPDEST PUSH0 DUP2 MLOAD SWAP1 POP PUSH2 0x166F DUP2 PUSH2 0x164B JUMP JUMPDEST SWAP3 SWAP2 POP POP JUMP JUMPDEST PUSH0 DUP2 SWAP1 POP SWAP2 SWAP1 POP JUMP JUMPDEST PUSH2 0x1687 DUP2 PUSH2 0x1675 JUMP JUMPDEST DUP2 EQ PUSH2 0x1691 JUMPI PUSH0 PUSH0 REVERT JUMPDEST POP JUMP JUMPDEST PUSH0 DUP2 MLOAD SWAP1 POP PUSH2 0x16A2 DUP2 PUSH2 0x167E JUMP JUMPDEST SWAP3 SWAP2 POP POP JUMP JUMPDEST PUSH0 DUP2 MLOAD SWAP1 POP PUSH2 0x16B6 DUP2 PUSH2 0xA5F JUMP JUMPDEST SWAP3 SWAP2 POP POP JUMP JUMPDEST PUSH0 PUSH0 PUSH0 PUSH0 PUSH0 PUSH1 0xA0 DUP7 DUP9 SUB SLT ISZERO PUSH2 0x16D5 JUMPI PUSH2 0x16D4 PUSH2 0x9ED JUMP JUMPDEST JUMPDEST PUSH0 PUSH2 0x16E2 DUP9 DUP3 DUP10 ADD PUSH2 0x1661 JUMP JUMPDEST SWAP6 POP POP PUSH1 0x20 PUSH2 0x16F3 DUP9 DUP3 DUP10 ADD PUSH2 0x1694 JUMP JUMPDEST SWAP5 POP POP PUSH1 0x40 PUSH2 0x1704 DUP9 DUP3 DUP10 ADD PUSH2 0x16A8 JUMP JUMPDEST SWAP4 POP POP PUSH1 0x60 PUSH2 0x1715 DUP9 DUP3 DUP10 ADD PUSH2 0x16A8 JUMP JUMPDEST SWAP3 POP POP PUSH1 0x80 PUSH2 0x1726 DUP9 DUP3 DUP10 ADD PUSH2 0x1661 JUMP JUMPDEST SWAP2 POP POP SWAP3 SWAP6 POP SWAP3 SWAP6 SWAP1 SWAP4 POP JUMP INVALID LOG2 PUSH5 0x6970667358 0x22 SLT KECCAK256 0xBD 0xDE PUSH5 0x556E0CEBEC 0xAB 0xB9 PUSH25 0x920D107ABA2127F288DF8FCE62D1664FAE753D64BC64736F6C PUSH4 0x4300081E STOP CALLER "
				},
				"gasEstimates": {
					"creation": {
						"codeDepositCost": "1198600",
						"executionCost": "infinite",
						"totalCost": "infinite"
					},
					"external": {
						"MINIMUM_USD()": "369",
						"createproject(string,uint256)": "infinite",
						"fundProject(string)": "infinite",
						"fundRaisingProjects(string)": "infinite",
						"funderinfo(uint256)": "infinite",
						"withdraw_fundRaised(string)": "infinite"
					}
				},
				"methodIdentifiers": {
					"MINIMUM_USD()": "6b69a592",
					"createproject(string,uint256)": "10d7aa7d",
					"fundProject(string)": "9f047f3c",
					"fundRaisingProjects(string)": "5854dd21",
					"funderinfo(uint256)": "cc1017e7",
					"withdraw_fundRaised(string)": "5fe26c73"
				}
			},
			"storageLayout": {
				"storage": [
					{
						"astId": 133,
						"contract": "crowndfound/raisefund.sol:RaiseFunds",
						"label": "fundRaisingProjects",
						"offset": 0,
						"slot": "0",
						"type": "t_mapping(t_string_memory_ptr,t_struct(Fund_Raise_Info)159_storage)"
					},
					{
						"astId": 142,
						"contract": "crowndfound/raisefund.sol:RaiseFunds",
						"label": "funderinfo",
						"offset": 0,
						"slot": "1",
						"type": "t_array(t_struct(funders)138_storage)dyn_storage"
					}
				],
				"types": {
					"t_address": {
						"encoding": "inplace",
						"label": "address",
						"numberOfBytes": "20"
					},
					"t_address_payable": {
						"encoding": "inplace",
						"label": "address payable",
						"numberOfBytes": "20"
					},
					"t_array(t_struct(funders)138_storage)dyn_storage": {
						"base": "t_struct(funders)138_storage",
						"encoding": "dynamic_array",
						"label": "struct RaiseFunds.funders[]",
						"numberOfBytes": "32"
					},
					"t_bool": {
						"encoding": "inplace",
						"label": "bool",
						"numberOfBytes": "1"
					},
					"t_mapping(t_string_memory_ptr,t_struct(Fund_Raise_Info)159_storage)": {
						"encoding": "mapping",
						"key": "t_string_memory_ptr",
						"label": "mapping(string => struct RaiseFunds.Fund_Raise_Info)",
						"numberOfBytes": "32",
						"value": "t_struct(Fund_Raise_Info)159_storage"
					},
					"t_string_memory_ptr": {
						"encoding": "bytes",
						"label": "string",
						"numberOfBytes": "32"
					},
					"t_string_storage": {
						"encoding": "bytes",
						"label": "string",
						"numberOfBytes": "32"
					},
					"t_struct(Fund_Raise_Info)159_storage": {
						"encoding": "inplace",
						"label": "struct RaiseFunds.Fund_Raise_Info",
						"members": [
							{
								"astId": 144,
								"contract": "crowndfound/raisefund.sol:RaiseFunds",
								"label": "name",
								"offset": 0,
								"slot": "0",
								"type": "t_string_storage"
							},
							{
								"astId": 146,
								"contract": "crowndfound/raisefund.sol:RaiseFunds",
								"label": "owner",
								"offset": 0,
								"slot": "1",
								"type": "t_address_payable"
							},
							{
								"astId": 148,
								"contract": "crowndfound/raisefund.sol:RaiseFunds",
								"label": "goal",
								"offset": 0,
								"slot": "2",
								"type": "t_uint256"
							},
							{
								"astId": 150,
								"contract": "crowndfound/raisefund.sol:RaiseFunds",
								"label": "totalRaised",
								"offset": 0,
								"slot": "3",
								"type": "t_uint256"
							},
							{
								"astId": 152,
								"contract": "crowndfound/raisefund.sol:RaiseFunds",
								"label": "isActive",
								"offset": 0,
								"slot": "4",
								"type": "t_bool"
							},
							{
								"astId": 154,
								"contract": "crowndfound/raisefund.sol:RaiseFunds",
								"label": "isCompleted",
								"offset": 1,
								"slot": "4",
								"type": "t_bool"
							},
							{
								"astId": 156,
								"contract": "crowndfound/raisefund.sol:RaiseFunds",
								"label": "isRefunded",
								"offset": 2,
								"slot": "4",
								"type": "t_bool"
							},
							{
								"astId": 158,
								"contract": "crowndfound/raisefund.sol:RaiseFunds",
								"label": "exits",
								"offset": 3,
								"slot": "4",
								"type": "t_bool"
							}
						],
						"numberOfBytes": "160"
					},
					"t_struct(funders)138_storage": {
						"encoding": "inplace",
						"label": "struct RaiseFunds.funders",
						"members": [
							{
								"astId": 135,
								"contract": "crowndfound/raisefund.sol:RaiseFunds",
								"label": "funder",
								"offset": 0,
								"slot": "0",
								"type": "t_address"
							},
							{
								"astId": 137,
								"contract": "crowndfound/raisefund.sol:RaiseFunds",
								"label": "amount",
								"offset": 0,
								"slot": "1",
								"type": "t_uint256"
							}
						],
						"numberOfBytes": "64"
					},
					"t_uint256": {
						"encoding": "inplace",
						"label": "uint256",
						"numberOfBytes": "32"
					}
				}
			},
			"userdoc": {
				"kind": "user",
				"methods": {},
				"version": 1
			}
		}
	}
}