{
	"crowndfound/error.sol": {
		"practiceError": {
			"abi": [
				{
					"inputs": [
						{
							"internalType": "string",
							"name": "",
							"type": "string"
						}
					],
					"name": "Cantdabyzero",
					"type": "error"
				},
				{
					"inputs": [
						{
							"internalType": "uint256",
							"name": "_num",
							"type": "uint256"
						}
					],
					"name": "addnum",
					"outputs": [],
					"stateMutability": "nonpayable",
					"type": "function"
				}
			],
			"devdoc": {
				"kind": "dev",
				"methods": {},
				"version": 1
			},
			"evm": {
				"assembly": "    /* \"crowndfound/error.sol\":83:264  contract practiceError{... */\n  mstore(0x40, 0x80)\n  callvalue\n  dup1\n  iszero\n  tag_1\n  jumpi\n  revert(0x00, 0x00)\ntag_1:\n  pop\n  dataSize(sub_0)\n  dup1\n  dataOffset(sub_0)\n  0x00\n  codecopy\n  0x00\n  return\nstop\n\nsub_0: assembly {\n        /* \"crowndfound/error.sol\":83:264  contract practiceError{... */\n      mstore(0x40, 0x80)\n      callvalue\n      dup1\n      iszero\n      tag_1\n      jumpi\n      revert(0x00, 0x00)\n    tag_1:\n      pop\n      jumpi(tag_2, lt(calldatasize, 0x04))\n      shr(0xe0, calldataload(0x00))\n      dup1\n      0xb80c1750\n      eq\n      tag_3\n      jumpi\n    tag_2:\n      revert(0x00, 0x00)\n        /* \"crowndfound/error.sol\":126:260  function addnum(uint256 _num) external{... */\n    tag_3:\n      tag_4\n      0x04\n      dup1\n      calldatasize\n      sub\n      dup2\n      add\n      swap1\n      tag_5\n      swap2\n      swap1\n      tag_6\n      jump\t// in\n    tag_5:\n      tag_7\n      jump\t// in\n    tag_4:\n      stop\n    tag_7:\n        /* \"crowndfound/error.sol\":179:180  0 */\n      0x00\n        /* \"crowndfound/error.sol\":171:175  _num */\n      dup2\n        /* \"crowndfound/error.sol\":171:180  _num == 0 */\n      sub\n        /* \"crowndfound/error.sol\":168:238  if(_num == 0) {... */\n      tag_9\n      jumpi\n        /* \"crowndfound/error.sol\":195:233  Cantdabyzero(\"cant  increse by zerro\") */\n      mload(0x40)\n      0xa9db926000000000000000000000000000000000000000000000000000000000\n      dup2\n      mstore\n      0x04\n      add\n      tag_10\n      swap1\n      tag_11\n      jump\t// in\n    tag_10:\n      mload(0x40)\n      dup1\n      swap2\n      sub\n      swap1\n      revert\n        /* \"crowndfound/error.sol\":168:238  if(_num == 0) {... */\n    tag_9:\n        /* \"crowndfound/error.sol\":253:257  _num */\n      dup1\n        /* \"crowndfound/error.sol\":243:249  number */\n      0x00\n      0x00\n        /* \"crowndfound/error.sol\":243:257  number += _num */\n      dup3\n      dup3\n      sload\n      tag_12\n      swap2\n      swap1\n      tag_13\n      jump\t// in\n    tag_12:\n      swap3\n      pop\n      pop\n      dup2\n      swap1\n      sstore\n      pop\n        /* \"crowndfound/error.sol\":126:260  function addnum(uint256 _num) external{... */\n      pop\n      jump\t// out\n        /* \"#utility.yul\":88:205   */\n    tag_15:\n        /* \"#utility.yul\":197:198   */\n      0x00\n        /* \"#utility.yul\":194:195   */\n      0x00\n        /* \"#utility.yul\":187:199   */\n      revert\n        /* \"#utility.yul\":334:411   */\n    tag_17:\n        /* \"#utility.yul\":371:378   */\n      0x00\n        /* \"#utility.yul\":400:405   */\n      dup2\n        /* \"#utility.yul\":389:405   */\n      swap1\n      pop\n        /* \"#utility.yul\":334:411   */\n      swap2\n      swap1\n      pop\n      jump\t// out\n        /* \"#utility.yul\":417:539   */\n    tag_18:\n        /* \"#utility.yul\":490:514   */\n      tag_30\n        /* \"#utility.yul\":508:513   */\n      dup2\n        /* \"#utility.yul\":490:514   */\n      tag_17\n      jump\t// in\n    tag_30:\n        /* \"#utility.yul\":483:488   */\n      dup2\n        /* \"#utility.yul\":480:515   */\n      eq\n        /* \"#utility.yul\":470:533   */\n      tag_31\n      jumpi\n        /* \"#utility.yul\":529:530   */\n      0x00\n        /* \"#utility.yul\":526:527   */\n      0x00\n        /* \"#utility.yul\":519:531   */\n      revert\n        /* \"#utility.yul\":470:533   */\n    tag_31:\n        /* \"#utility.yul\":417:539   */\n      pop\n      jump\t// out\n        /* \"#utility.yul\":545:684   */\n    tag_19:\n        /* \"#utility.yul\":591:596   */\n      0x00\n        /* \"#utility.yul\":629:635   */\n      dup2\n        /* \"#utility.yul\":616:636   */\n      calldataload\n        /* \"#utility.yul\":607:636   */\n      swap1\n      pop\n        /* \"#utility.yul\":645:678   */\n      tag_33\n        /* \"#utility.yul\":672:677   */\n      dup2\n        /* \"#utility.yul\":645:678   */\n      tag_18\n      jump\t// in\n    tag_33:\n        /* \"#utility.yul\":545:684   */\n      swap3\n      swap2\n      pop\n      pop\n      jump\t// out\n        /* \"#utility.yul\":690:1019   */\n    tag_6:\n        /* \"#utility.yul\":749:755   */\n      0x00\n        /* \"#utility.yul\":798:800   */\n      0x20\n        /* \"#utility.yul\":786:795   */\n      dup3\n        /* \"#utility.yul\":777:784   */\n      dup5\n        /* \"#utility.yul\":773:796   */\n      sub\n        /* \"#utility.yul\":769:801   */\n      slt\n        /* \"#utility.yul\":766:885   */\n      iszero\n      tag_35\n      jumpi\n        /* \"#utility.yul\":804:883   */\n      tag_36\n      tag_15\n      jump\t// in\n    tag_36:\n        /* \"#utility.yul\":766:885   */\n    tag_35:\n        /* \"#utility.yul\":924:925   */\n      0x00\n        /* \"#utility.yul\":949:1002   */\n      tag_37\n        /* \"#utility.yul\":994:1001   */\n      dup5\n        /* \"#utility.yul\":985:991   */\n      dup3\n        /* \"#utility.yul\":974:983   */\n      dup6\n        /* \"#utility.yul\":970:992   */\n      add\n        /* \"#utility.yul\":949:1002   */\n      tag_19\n      jump\t// in\n    tag_37:\n        /* \"#utility.yul\":939:1002   */\n      swap2\n      pop\n        /* \"#utility.yul\":895:1012   */\n      pop\n        /* \"#utility.yul\":690:1019   */\n      swap3\n      swap2\n      pop\n      pop\n      jump\t// out\n        /* \"#utility.yul\":1025:1194   */\n    tag_20:\n        /* \"#utility.yul\":1109:1120   */\n      0x00\n        /* \"#utility.yul\":1143:1149   */\n      dup3\n        /* \"#utility.yul\":1138:1141   */\n      dup3\n        /* \"#utility.yul\":1131:1150   */\n      mstore\n        /* \"#utility.yul\":1183:1187   */\n      0x20\n        /* \"#utility.yul\":1178:1181   */\n      dup3\n        /* \"#utility.yul\":1174:1188   */\n      add\n        /* \"#utility.yul\":1159:1188   */\n      swap1\n      pop\n        /* \"#utility.yul\":1025:1194   */\n      swap3\n      swap2\n      pop\n      pop\n      jump\t// out\n        /* \"#utility.yul\":1200:1372   */\n    tag_21:\n        /* \"#utility.yul\":1340:1364   */\n      0x63616e742020696e6372657365206279207a6572726f00000000000000000000\n        /* \"#utility.yul\":1336:1337   */\n      0x00\n        /* \"#utility.yul\":1328:1334   */\n      dup3\n        /* \"#utility.yul\":1324:1338   */\n      add\n        /* \"#utility.yul\":1317:1365   */\n      mstore\n        /* \"#utility.yul\":1200:1372   */\n      pop\n      jump\t// out\n        /* \"#utility.yul\":1378:1744   */\n    tag_22:\n        /* \"#utility.yul\":1520:1523   */\n      0x00\n        /* \"#utility.yul\":1541:1608   */\n      tag_41\n        /* \"#utility.yul\":1605:1607   */\n      0x16\n        /* \"#utility.yul\":1600:1603   */\n      dup4\n        /* \"#utility.yul\":1541:1608   */\n      tag_20\n      jump\t// in\n    tag_41:\n        /* \"#utility.yul\":1534:1608   */\n      swap2\n      pop\n        /* \"#utility.yul\":1617:1710   */\n      tag_42\n        /* \"#utility.yul\":1706:1709   */\n      dup3\n        /* \"#utility.yul\":1617:1710   */\n      tag_21\n      jump\t// in\n    tag_42:\n        /* \"#utility.yul\":1735:1737   */\n      0x20\n        /* \"#utility.yul\":1730:1733   */\n      dup3\n        /* \"#utility.yul\":1726:1738   */\n      add\n        /* \"#utility.yul\":1719:1738   */\n      swap1\n      pop\n        /* \"#utility.yul\":1378:1744   */\n      swap2\n      swap1\n      pop\n      jump\t// out\n        /* \"#utility.yul\":1750:2169   */\n    tag_11:\n        /* \"#utility.yul\":1916:1920   */\n      0x00\n        /* \"#utility.yul\":1954:1956   */\n      0x20\n        /* \"#utility.yul\":1943:1952   */\n      dup3\n        /* \"#utility.yul\":1939:1957   */\n      add\n        /* \"#utility.yul\":1931:1957   */\n      swap1\n      pop\n        /* \"#utility.yul\":2003:2012   */\n      dup2\n        /* \"#utility.yul\":1997:2001   */\n      dup2\n        /* \"#utility.yul\":1993:2013   */\n      sub\n        /* \"#utility.yul\":1989:1990   */\n      0x00\n        /* \"#utility.yul\":1978:1987   */\n      dup4\n        /* \"#utility.yul\":1974:1991   */\n      add\n        /* \"#utility.yul\":1967:2014   */\n      mstore\n        /* \"#utility.yul\":2031:2162   */\n      tag_44\n        /* \"#utility.yul\":2157:2161   */\n      dup2\n        /* \"#utility.yul\":2031:2162   */\n      tag_22\n      jump\t// in\n    tag_44:\n        /* \"#utility.yul\":2023:2162   */\n      swap1\n      pop\n        /* \"#utility.yul\":1750:2169   */\n      swap2\n      swap1\n      pop\n      jump\t// out\n        /* \"#utility.yul\":2175:2355   */\n    tag_23:\n        /* \"#utility.yul\":2223:2300   */\n      0x4e487b7100000000000000000000000000000000000000000000000000000000\n        /* \"#utility.yul\":2220:2221   */\n      0x00\n        /* \"#utility.yul\":2213:2301   */\n      mstore\n        /* \"#utility.yul\":2320:2324   */\n      0x11\n        /* \"#utility.yul\":2317:2318   */\n      0x04\n        /* \"#utility.yul\":2310:2325   */\n      mstore\n        /* \"#utility.yul\":2344:2348   */\n      0x24\n        /* \"#utility.yul\":2341:2342   */\n      0x00\n        /* \"#utility.yul\":2334:2349   */\n      revert\n        /* \"#utility.yul\":2361:2552   */\n    tag_13:\n        /* \"#utility.yul\":2401:2404   */\n      0x00\n        /* \"#utility.yul\":2420:2440   */\n      tag_47\n        /* \"#utility.yul\":2438:2439   */\n      dup3\n        /* \"#utility.yul\":2420:2440   */\n      tag_17\n      jump\t// in\n    tag_47:\n        /* \"#utility.yul\":2415:2440   */\n      swap2\n      pop\n        /* \"#utility.yul\":2454:2474   */\n      tag_48\n        /* \"#utility.yul\":2472:2473   */\n      dup4\n        /* \"#utility.yul\":2454:2474   */\n      tag_17\n      jump\t// in\n    tag_48:\n        /* \"#utility.yul\":2449:2474   */\n      swap3\n      pop\n        /* \"#utility.yul\":2497:2498   */\n      dup3\n        /* \"#utility.yul\":2494:2495   */\n      dup3\n        /* \"#utility.yul\":2490:2499   */\n      add\n        /* \"#utility.yul\":2483:2499   */\n      swap1\n      pop\n        /* \"#utility.yul\":2518:2521   */\n      dup1\n        /* \"#utility.yul\":2515:2516   */\n      dup3\n        /* \"#utility.yul\":2512:2522   */\n      gt\n        /* \"#utility.yul\":2509:2545   */\n      iszero\n      tag_49\n      jumpi\n        /* \"#utility.yul\":2525:2543   */\n      tag_50\n      tag_23\n      jump\t// in\n    tag_50:\n        /* \"#utility.yul\":2509:2545   */\n    tag_49:\n        /* \"#utility.yul\":2361:2552   */\n      swap3\n      swap2\n      pop\n      pop\n      jump\t// out\n\n    auxdata: 0xa2646970667358221220867f6e01ba134eaecf064e60c0cb8582b025acda8e7bf861e56ec1c3549ea56564736f6c634300081e0033\n}\n",
				"bytecode": {
					"linkReferences": {},
					"object": "6080604052348015600e575f5ffd5b506102158061001c5f395ff3fe608060405234801561000f575f5ffd5b5060043610610029575f3560e01c8063b80c17501461002d575b5f5ffd5b610047600480360381019061004291906100dc565b610049565b005b5f810361008b576040517fa9db926000000000000000000000000000000000000000000000000000000000815260040161008290610161565b60405180910390fd5b805f5f82825461009b91906101ac565b9250508190555050565b5f5ffd5b5f819050919050565b6100bb816100a9565b81146100c5575f5ffd5b50565b5f813590506100d6816100b2565b92915050565b5f602082840312156100f1576100f06100a5565b5b5f6100fe848285016100c8565b91505092915050565b5f82825260208201905092915050565b7f63616e742020696e6372657365206279207a6572726f000000000000000000005f82015250565b5f61014b601683610107565b915061015682610117565b602082019050919050565b5f6020820190508181035f8301526101788161013f565b9050919050565b7f4e487b71000000000000000000000000000000000000000000000000000000005f52601160045260245ffd5b5f6101b6826100a9565b91506101c1836100a9565b92508282019050808211156101d9576101d861017f565b5b9291505056fea2646970667358221220867f6e01ba134eaecf064e60c0cb8582b025acda8e7bf861e56ec1c3549ea56564736f6c634300081e0033",
					"opcodes": "PUSH1 0x80 PUSH1 0x40 MSTORE CALLVALUE DUP1 ISZERO PUSH1 0xE JUMPI PUSH0 PUSH0 REVERT JUMPDEST POP PUSH2 0x215 DUP1 PUSH2 0x1C PUSH0 CODECOPY PUSH0 RETURN INVALID PUSH1 0x80 PUSH1 0x40 MSTORE CALLVALUE DUP1 ISZERO PUSH2 0xF JUMPI PUSH0 PUSH0 REVERT JUMPDEST POP PUSH1 0x4 CALLDATASIZE LT PUSH2 0x29 JUMPI PUSH0 CALLDATALOAD PUSH1 0xE0 SHR DUP1 PUSH4 0xB80C1750 EQ PUSH2 0x2D JUMPI JUMPDEST PUSH0 PUSH0 REVERT JUMPDEST PUSH2 0x47 PUSH1 0x4 DUP1 CALLDATASIZE SUB DUP2 ADD SWAP1 PUSH2 0x42 SWAP2 SWAP1 PUSH2 0xDC JUMP JUMPDEST PUSH2 0x49 JUMP JUMPDEST STOP JUMPDEST PUSH0 DUP2 SUB PUSH2 0x8B JUMPI PUSH1 0x40 MLOAD PUSH32 0xA9DB926000000000000000000000000000000000000000000000000000000000 DUP2 MSTORE PUSH1 0x4 ADD PUSH2 0x82 SWAP1 PUSH2 0x161 JUMP JUMPDEST PUSH1 0x40 MLOAD DUP1 SWAP2 SUB SWAP1 REVERT JUMPDEST DUP1 PUSH0 PUSH0 DUP3 DUP3 SLOAD PUSH2 0x9B SWAP2 SWAP1 PUSH2 0x1AC JUMP JUMPDEST SWAP3 POP POP DUP2 SWAP1 SSTORE POP POP JUMP JUMPDEST PUSH0 PUSH0 REVERT JUMPDEST PUSH0 DUP2 SWAP1 POP SWAP2 SWAP1 POP JUMP JUMPDEST PUSH2 0xBB DUP2 PUSH2 0xA9 JUMP JUMPDEST DUP2 EQ PUSH2 0xC5 JUMPI PUSH0 PUSH0 REVERT JUMPDEST POP JUMP JUMPDEST PUSH0 DUP2 CALLDATALOAD SWAP1 POP PUSH2 0xD6 DUP2 PUSH2 0xB2 JUMP JUMPDEST SWAP3 SWAP2 POP POP JUMP JUMPDEST PUSH0 PUSH1 0x20 DUP3 DUP5 SUB SLT ISZERO PUSH2 0xF1 JUMPI PUSH2 0xF0 PUSH2 0xA5 JUMP JUMPDEST JUMPDEST PUSH0 PUSH2 0xFE DUP5 DUP3 DUP6 ADD PUSH2 0xC8 JUMP JUMPDEST SWAP2 POP POP SWAP3 SWAP2 POP POP JUMP JUMPDEST PUSH0 DUP3 DUP3 MSTORE PUSH1 0x20 DUP3 ADD SWAP1 POP SWAP3 SWAP2 POP POP JUMP JUMPDEST PUSH32 0x63616E742020696E6372657365206279207A6572726F00000000000000000000 PUSH0 DUP3 ADD MSTORE POP JUMP JUMPDEST PUSH0 PUSH2 0x14B PUSH1 0x16 DUP4 PUSH2 0x107 JUMP JUMPDEST SWAP2 POP PUSH2 0x156 DUP3 PUSH2 0x117 JUMP JUMPDEST PUSH1 0x20 DUP3 ADD SWAP1 POP SWAP2 SWAP1 POP JUMP JUMPDEST PUSH0 PUSH1 0x20 DUP3 ADD SWAP1 POP DUP2 DUP2 SUB PUSH0 DUP4 ADD MSTORE PUSH2 0x178 DUP2 PUSH2 0x13F JUMP JUMPDEST SWAP1 POP SWAP2 SWAP1 POP JUMP JUMPDEST PUSH32 0x4E487B7100000000000000000000000000000000000000000000000000000000 PUSH0 MSTORE PUSH1 0x11 PUSH1 0x4 MSTORE PUSH1 0x24 PUSH0 REVERT JUMPDEST PUSH0 PUSH2 0x1B6 DUP3 PUSH2 0xA9 JUMP JUMPDEST SWAP2 POP PUSH2 0x1C1 DUP4 PUSH2 0xA9 JUMP JUMPDEST SWAP3 POP DUP3 DUP3 ADD SWAP1 POP DUP1 DUP3 GT ISZERO PUSH2 0x1D9 JUMPI PUSH2 0x1D8 PUSH2 0x17F JUMP JUMPDEST JUMPDEST SWAP3 SWAP2 POP POP JUMP INVALID LOG2 PUSH5 0x6970667358 0x22 SLT KECCAK256 DUP7 PUSH32 0x6E01BA134EAECF064E60C0CB8582B025ACDA8E7BF861E56EC1C3549EA5656473 PUSH16 0x6C634300081E00330000000000000000 "
				},
				"gasEstimates": {
					"creation": {
						"codeDepositCost": "106600",
						"executionCost": "151",
						"totalCost": "106751"
					},
					"external": {
						"addnum(uint256)": "infinite"
					}
				},
				"methodIdentifiers": {
					"addnum(uint256)": "b80c1750"
				}
			},
			"storageLayout": {
				"storage": [
					{
						"astId": 7,
						"contract": "crowndfound/error.sol:practiceError",
						"label": "number",
						"offset": 0,
						"slot": "0",
						"type": "t_uint256"
					}
				],
				"types": {
					"t_uint256": {
						"encoding": "inplace",
						"label": "uint256",
						"numberOfBytes": "32"
					}
				}
			},
			"userdoc": {
				"kind": "user",
				"methods": {},
				"version": 1
			}
		}
	}
}