{
	"pStorage/contract.sol": {
		"StorageLab": {
			"abi": [
				{
					"inputs": [],
					"stateMutability": "nonpayable",
					"type": "constructor"
				},
				{
					"inputs": [],
					"name": "a",
					"outputs": [
						{
							"internalType": "uint128",
							"name": "",
							"type": "uint128"
						}
					],
					"stateMutability": "view",
					"type": "function"
				},
				{
					"inputs": [
						{
							"internalType": "address",
							"name": "",
							"type": "address"
						},
						{
							"internalType": "address",
							"name": "",
							"type": "address"
						}
					],
					"name": "allowance",
					"outputs": [
						{
							"internalType": "uint256",
							"name": "",
							"type": "uint256"
						}
					],
					"stateMutability": "view",
					"type": "function"
				},
				{
					"inputs": [],
					"name": "b",
					"outputs": [
						{
							"internalType": "uint64",
							"name": "",
							"type": "uint64"
						}
					],
					"stateMutability": "view",
					"type": "function"
				},
				{
					"inputs": [],
					"name": "c",
					"outputs": [
						{
							"internalType": "uint32",
							"name": "",
							"type": "uint32"
						}
					],
					"stateMutability": "view",
					"type": "function"
				},
				{
					"inputs": [],
					"name": "description",
					"outputs": [
						{
							"internalType": "string",
							"name": "",
							"type": "string"
						}
					],
					"stateMutability": "view",
					"type": "function"
				},
				{
					"inputs": [
						{
							"internalType": "uint256",
							"name": "",
							"type": "uint256"
						}
					],
					"name": "scores",
					"outputs": [
						{
							"internalType": "uint256",
							"name": "",
							"type": "uint256"
						}
					],
					"stateMutability": "view",
					"type": "function"
				},
				{
					"inputs": [
						{
							"internalType": "address",
							"name": "spender",
							"type": "address"
						},
						{
							"internalType": "uint256",
							"name": "amount",
							"type": "uint256"
						}
					],
					"name": "setAllowance",
					"outputs": [],
					"stateMutability": "nonpayable",
					"type": "function"
				},
				{
					"inputs": [],
					"name": "setLongString",
					"outputs": [],
					"stateMutability": "nonpayable",
					"type": "function"
				},
				{
					"inputs": [
						{
							"internalType": "address",
							"name": "addr",
							"type": "address"
						},
						{
							"internalType": "uint128",
							"name": "bal",
							"type": "uint128"
						},
						{
							"internalType": "uint128",
							"name": "pts",
							"type": "uint128"
						},
						{
							"internalType": "uint256",
							"name": "_id",
							"type": "uint256"
						}
					],
					"name": "setUser",
					"outputs": [],
					"stateMutability": "nonpayable",
					"type": "function"
				},
				{
					"inputs": [
						{
							"internalType": "address",
							"name": "",
							"type": "address"
						}
					],
					"name": "users",
					"outputs": [
						{
							"internalType": "uint128",
							"name": "balance",
							"type": "uint128"
						},
						{
							"internalType": "uint128",
							"name": "points",
							"type": "uint128"
						},
						{
							"internalType": "uint256",
							"name": "id",
							"type": "uint256"
						}
					],
					"stateMutability": "view",
					"type": "function"
				}
			],
			"devdoc": {
				"kind": "dev",
				"methods": {},
				"version": 1
			},
			"evm": {
				"assembly": "    /* \"pStorage/contract.sol\":58:1580  contract StorageLab {... */\n  mstore(0x40, 0x80)\n    /* \"pStorage/contract.sol\":242:276  0xAAAAAAAAAAAAAAAAAAAAAAAAAAAAAAAA */\n  0xaaaaaaaaaaaaaaaaaaaaaaaaaaaaaaaa\n    /* \"pStorage/contract.sol\":223:276  uint128 public a = 0xAAAAAAAAAAAAAAAAAAAAAAAAAAAAAAAA */\n  0x00\n  exp(0x0100, 0x00)\n  dup2\n  sload\n  dup2\n  0xffffffffffffffffffffffffffffffff\n  mul\n  not\n  and\n  swap1\n  dup4\n  0xffffffffffffffffffffffffffffffff\n  and\n  mul\n  or\n  swap1\n  sstore\n  pop\n    /* \"pStorage/contract.sol\":302:320  0xBBBBBBBBBBBBBBBB */\n  0xbbbbbbbbbbbbbbbb\n    /* \"pStorage/contract.sol\":283:320  uint64  public b = 0xBBBBBBBBBBBBBBBB */\n  0x00\n  exp(0x0100, 0x10)\n  dup2\n  sload\n  dup2\n  0xffffffffffffffff\n  mul\n  not\n  and\n  swap1\n  dup4\n  0xffffffffffffffff\n  and\n  mul\n  or\n  swap1\n  sstore\n  pop\n    /* \"pStorage/contract.sol\":345:355  0xCCCCCCCC */\n  0xcccccccc\n    /* \"pStorage/contract.sol\":326:355  uint32  public c = 0xCCCCCCCC */\n  0x00\n  exp(0x0100, 0x18)\n  dup2\n  sload\n  dup2\n  0xffffffff\n  mul\n  not\n  and\n  swap1\n  dup4\n  0xffffffff\n  and\n  mul\n  or\n  swap1\n  sstore\n  pop\n    /* \"pStorage/contract.sol\":461:496  string public description = \"Short\" */\n  mload(0x40)\n  dup1\n  0x40\n  add\n  0x40\n  mstore\n  dup1\n  0x05\n  dup2\n  mstore\n  0x20\n  add\n  0x53686f7274000000000000000000000000000000000000000000000000000000\n  dup2\n  mstore\n  pop\n  0x01\n  swap1\n  dup2\n  tag_1\n  swap2\n  swap1\n  tag_2\n  jump\t// in\ntag_1:\n  pop\n    /* \"pStorage/contract.sol\":1047:1120  constructor() {... */\n  callvalue\n  dup1\n  iszero\n  tag_3\n  jumpi\n  revert(0x00, 0x00)\ntag_3:\n  pop\n    /* \"pStorage/contract.sol\":1071:1077  scores */\n  0x02\n    /* \"pStorage/contract.sol\":1083:1086  100 */\n  0x64\n    /* \"pStorage/contract.sol\":1071:1087  scores.push(100) */\n  swap1\n  dup1\n  0x01\n  dup2\n  sload\n  add\n  dup1\n  dup3\n  sstore\n  dup1\n  swap2\n  pop\n  pop\n  0x01\n  swap1\n  sub\n  swap1\n  0x00\n  mstore\n  keccak256(0x00, 0x20)\n  add\n  0x00\n  swap1\n  swap2\n  swap1\n  swap2\n  swap1\n  swap2\n  pop\n  sstore\n    /* \"pStorage/contract.sol\":1097:1103  scores */\n  0x02\n    /* \"pStorage/contract.sol\":1109:1112  200 */\n  0xc8\n    /* \"pStorage/contract.sol\":1097:1113  scores.push(200) */\n  swap1\n  dup1\n  0x01\n  dup2\n  sload\n  add\n  dup1\n  dup3\n  sstore\n  dup1\n  swap2\n  pop\n  pop\n  0x01\n  swap1\n  sub\n  swap1\n  0x00\n  mstore\n  keccak256(0x00, 0x20)\n  add\n  0x00\n  swap1\n  swap2\n  swap1\n  swap2\n  swap1\n  swap2\n  pop\n  sstore\n    /* \"pStorage/contract.sol\":58:1580  contract StorageLab {... */\n  jump(tag_8)\n    /* \"#utility.yul\":7:106   */\ntag_9:\n    /* \"#utility.yul\":59:65   */\n  0x00\n    /* \"#utility.yul\":93:98   */\n  dup2\n    /* \"#utility.yul\":87:99   */\n  mload\n    /* \"#utility.yul\":77:99   */\n  swap1\n  pop\n    /* \"#utility.yul\":7:106   */\n  swap2\n  swap1\n  pop\n  jump\t// out\n    /* \"#utility.yul\":112:292   */\ntag_10:\n    /* \"#utility.yul\":160:237   */\n  0x4e487b7100000000000000000000000000000000000000000000000000000000\n    /* \"#utility.yul\":157:158   */\n  0x00\n    /* \"#utility.yul\":150:238   */\n  mstore\n    /* \"#utility.yul\":257:261   */\n  0x41\n    /* \"#utility.yul\":254:255   */\n  0x04\n    /* \"#utility.yul\":247:262   */\n  mstore\n    /* \"#utility.yul\":281:285   */\n  0x24\n    /* \"#utility.yul\":278:279   */\n  0x00\n    /* \"#utility.yul\":271:286   */\n  revert\n    /* \"#utility.yul\":298:478   */\ntag_11:\n    /* \"#utility.yul\":346:423   */\n  0x4e487b7100000000000000000000000000000000000000000000000000000000\n    /* \"#utility.yul\":343:344   */\n  0x00\n    /* \"#utility.yul\":336:424   */\n  mstore\n    /* \"#utility.yul\":443:447   */\n  0x22\n    /* \"#utility.yul\":440:441   */\n  0x04\n    /* \"#utility.yul\":433:448   */\n  mstore\n    /* \"#utility.yul\":467:471   */\n  0x24\n    /* \"#utility.yul\":464:465   */\n  0x00\n    /* \"#utility.yul\":457:472   */\n  revert\n    /* \"#utility.yul\":484:804   */\ntag_12:\n    /* \"#utility.yul\":528:534   */\n  0x00\n    /* \"#utility.yul\":565:566   */\n  0x02\n    /* \"#utility.yul\":559:563   */\n  dup3\n    /* \"#utility.yul\":555:567   */\n  div\n    /* \"#utility.yul\":545:567   */\n  swap1\n  pop\n    /* \"#utility.yul\":612:613   */\n  0x01\n    /* \"#utility.yul\":606:610   */\n  dup3\n    /* \"#utility.yul\":602:614   */\n  and\n    /* \"#utility.yul\":633:651   */\n  dup1\n    /* \"#utility.yul\":623:704   */\n  tag_34\n  jumpi\n    /* \"#utility.yul\":689:693   */\n  0x7f\n    /* \"#utility.yul\":681:687   */\n  dup3\n    /* \"#utility.yul\":677:694   */\n  and\n    /* \"#utility.yul\":667:694   */\n  swap2\n  pop\n    /* \"#utility.yul\":623:704   */\ntag_34:\n    /* \"#utility.yul\":751:753   */\n  0x20\n    /* \"#utility.yul\":743:749   */\n  dup3\n    /* \"#utility.yul\":740:754   */\n  lt\n    /* \"#utility.yul\":720:738   */\n  dup2\n    /* \"#utility.yul\":717:755   */\n  sub\n    /* \"#utility.yul\":714:798   */\n  tag_35\n  jumpi\n    /* \"#utility.yul\":770:788   */\n  tag_36\n  tag_11\n  jump\t// in\ntag_36:\n    /* \"#utility.yul\":714:798   */\ntag_35:\n    /* \"#utility.yul\":535:804   */\n  pop\n    /* \"#utility.yul\":484:804   */\n  swap2\n  swap1\n  pop\n  jump\t// out\n    /* \"#utility.yul\":810:951   */\ntag_13:\n    /* \"#utility.yul\":859:863   */\n  0x00\n    /* \"#utility.yul\":882:885   */\n  dup2\n    /* \"#utility.yul\":874:885   */\n  swap1\n  pop\n    /* \"#utility.yul\":905:908   */\n  dup2\n    /* \"#utility.yul\":902:903   */\n  0x00\n    /* \"#utility.yul\":895:909   */\n  mstore\n    /* \"#utility.yul\":939:943   */\n  0x20\n    /* \"#utility.yul\":936:937   */\n  0x00\n    /* \"#utility.yul\":926:944   */\n  keccak256\n    /* \"#utility.yul\":918:944   */\n  swap1\n  pop\n    /* \"#utility.yul\":810:951   */\n  swap2\n  swap1\n  pop\n  jump\t// out\n    /* \"#utility.yul\":957:1050   */\ntag_14:\n    /* \"#utility.yul\":994:1000   */\n  0x00\n    /* \"#utility.yul\":1041:1043   */\n  0x20\n    /* \"#utility.yul\":1036:1038   */\n  0x1f\n    /* \"#utility.yul\":1029:1034   */\n  dup4\n    /* \"#utility.yul\":1025:1039   */\n  add\n    /* \"#utility.yul\":1021:1044   */\n  div\n    /* \"#utility.yul\":1011:1044   */\n  swap1\n  pop\n    /* \"#utility.yul\":957:1050   */\n  swap2\n  swap1\n  pop\n  jump\t// out\n    /* \"#utility.yul\":1056:1163   */\ntag_15:\n    /* \"#utility.yul\":1100:1108   */\n  0x00\n    /* \"#utility.yul\":1150:1155   */\n  dup3\n    /* \"#utility.yul\":1144:1148   */\n  dup3\n    /* \"#utility.yul\":1140:1156   */\n  shl\n    /* \"#utility.yul\":1119:1156   */\n  swap1\n  pop\n    /* \"#utility.yul\":1056:1163   */\n  swap3\n  swap2\n  pop\n  pop\n  jump\t// out\n    /* \"#utility.yul\":1169:1562   */\ntag_16:\n    /* \"#utility.yul\":1238:1244   */\n  0x00\n    /* \"#utility.yul\":1288:1289   */\n  0x08\n    /* \"#utility.yul\":1276:1286   */\n  dup4\n    /* \"#utility.yul\":1272:1290   */\n  mul\n    /* \"#utility.yul\":1311:1408   */\n  tag_41\n    /* \"#utility.yul\":1341:1407   */\n  0xffffffffffffffffffffffffffffffffffffffffffffffffffffffffffffffff\n    /* \"#utility.yul\":1330:1339   */\n  dup3\n    /* \"#utility.yul\":1311:1408   */\n  tag_15\n  jump\t// in\ntag_41:\n    /* \"#utility.yul\":1429:1468   */\n  tag_42\n    /* \"#utility.yul\":1459:1467   */\n  dup7\n    /* \"#utility.yul\":1448:1457   */\n  dup4\n    /* \"#utility.yul\":1429:1468   */\n  tag_15\n  jump\t// in\ntag_42:\n    /* \"#utility.yul\":1417:1468   */\n  swap6\n  pop\n    /* \"#utility.yul\":1501:1505   */\n  dup1\n    /* \"#utility.yul\":1497:1506   */\n  not\n    /* \"#utility.yul\":1490:1495   */\n  dup5\n    /* \"#utility.yul\":1486:1507   */\n  and\n    /* \"#utility.yul\":1477:1507   */\n  swap4\n  pop\n    /* \"#utility.yul\":1550:1554   */\n  dup1\n    /* \"#utility.yul\":1540:1548   */\n  dup7\n    /* \"#utility.yul\":1536:1555   */\n  and\n    /* \"#utility.yul\":1529:1534   */\n  dup5\n    /* \"#utility.yul\":1526:1556   */\n  or\n    /* \"#utility.yul\":1516:1556   */\n  swap3\n  pop\n    /* \"#utility.yul\":1245:1562   */\n  pop\n  pop\n    /* \"#utility.yul\":1169:1562   */\n  swap4\n  swap3\n  pop\n  pop\n  pop\n  jump\t// out\n    /* \"#utility.yul\":1568:1645   */\ntag_17:\n    /* \"#utility.yul\":1605:1612   */\n  0x00\n    /* \"#utility.yul\":1634:1639   */\n  dup2\n    /* \"#utility.yul\":1623:1639   */\n  swap1\n  pop\n    /* \"#utility.yul\":1568:1645   */\n  swap2\n  swap1\n  pop\n  jump\t// out\n    /* \"#utility.yul\":1651:1711   */\ntag_18:\n    /* \"#utility.yul\":1679:1682   */\n  0x00\n    /* \"#utility.yul\":1700:1705   */\n  dup2\n    /* \"#utility.yul\":1693:1705   */\n  swap1\n  pop\n    /* \"#utility.yul\":1651:1711   */\n  swap2\n  swap1\n  pop\n  jump\t// out\n    /* \"#utility.yul\":1717:1859   */\ntag_19:\n    /* \"#utility.yul\":1767:1776   */\n  0x00\n    /* \"#utility.yul\":1800:1853   */\n  tag_46\n    /* \"#utility.yul\":1818:1852   */\n  tag_47\n    /* \"#utility.yul\":1827:1851   */\n  tag_48\n    /* \"#utility.yul\":1845:1850   */\n  dup5\n    /* \"#utility.yul\":1827:1851   */\n  tag_17\n  jump\t// in\ntag_48:\n    /* \"#utility.yul\":1818:1852   */\n  tag_18\n  jump\t// in\ntag_47:\n    /* \"#utility.yul\":1800:1853   */\n  tag_17\n  jump\t// in\ntag_46:\n    /* \"#utility.yul\":1787:1853   */\n  swap1\n  pop\n    /* \"#utility.yul\":1717:1859   */\n  swap2\n  swap1\n  pop\n  jump\t// out\n    /* \"#utility.yul\":1865:1940   */\ntag_20:\n    /* \"#utility.yul\":1908:1911   */\n  0x00\n    /* \"#utility.yul\":1929:1934   */\n  dup2\n    /* \"#utility.yul\":1922:1934   */\n  swap1\n  pop\n    /* \"#utility.yul\":1865:1940   */\n  swap2\n  swap1\n  pop\n  jump\t// out\n    /* \"#utility.yul\":1946:2215   */\ntag_21:\n    /* \"#utility.yul\":2056:2095   */\n  tag_51\n    /* \"#utility.yul\":2087:2094   */\n  dup4\n    /* \"#utility.yul\":2056:2095   */\n  tag_19\n  jump\t// in\ntag_51:\n    /* \"#utility.yul\":2117:2208   */\n  tag_52\n    /* \"#utility.yul\":2166:2207   */\n  tag_53\n    /* \"#utility.yul\":2190:2206   */\n  dup3\n    /* \"#utility.yul\":2166:2207   */\n  tag_20\n  jump\t// in\ntag_53:\n    /* \"#utility.yul\":2158:2164   */\n  dup5\n    /* \"#utility.yul\":2151:2155   */\n  dup5\n    /* \"#utility.yul\":2145:2156   */\n  sload\n    /* \"#utility.yul\":2117:2208   */\n  tag_16\n  jump\t// in\ntag_52:\n    /* \"#utility.yul\":2111:2115   */\n  dup3\n    /* \"#utility.yul\":2104:2209   */\n  sstore\n    /* \"#utility.yul\":2022:2215   */\n  pop\n    /* \"#utility.yul\":1946:2215   */\n  pop\n  pop\n  pop\n  jump\t// out\n    /* \"#utility.yul\":2221:2294   */\ntag_22:\n    /* \"#utility.yul\":2266:2269   */\n  0x00\n    /* \"#utility.yul\":2287:2288   */\n  0x00\n    /* \"#utility.yul\":2280:2288   */\n  swap1\n  pop\n    /* \"#utility.yul\":2221:2294   */\n  swap1\n  jump\t// out\n    /* \"#utility.yul\":2300:2489   */\ntag_23:\n    /* \"#utility.yul\":2377:2409   */\n  tag_56\n  tag_22\n  jump\t// in\ntag_56:\n    /* \"#utility.yul\":2418:2483   */\n  tag_57\n    /* \"#utility.yul\":2476:2482   */\n  dup2\n    /* \"#utility.yul\":2468:2474   */\n  dup5\n    /* \"#utility.yul\":2462:2466   */\n  dup5\n    /* \"#utility.yul\":2418:2483   */\n  tag_21\n  jump\t// in\ntag_57:\n    /* \"#utility.yul\":2353:2489   */\n  pop\n    /* \"#utility.yul\":2300:2489   */\n  pop\n  pop\n  jump\t// out\n    /* \"#utility.yul\":2495:2709   */\ntag_24:\n    /* \"#utility.yul\":2580:2581   */\n  0x00\n    /* \"#utility.yul\":2565:2703   */\ntag_59:\n    /* \"#utility.yul\":2590:2599   */\n  dup3\n    /* \"#utility.yul\":2587:2588   */\n  dup2\n    /* \"#utility.yul\":2584:2600   */\n  lt\n    /* \"#utility.yul\":2565:2703   */\n  iszero\n  tag_61\n  jumpi\n    /* \"#utility.yul\":2642:2693   */\n  tag_62\n    /* \"#utility.yul\":2691:2692   */\n  0x00\n    /* \"#utility.yul\":2687:2688   */\n  dup3\n    /* \"#utility.yul\":2676:2685   */\n  dup5\n    /* \"#utility.yul\":2672:2689   */\n  add\n    /* \"#utility.yul\":2642:2693   */\n  tag_23\n  jump\t// in\ntag_62:\n    /* \"#utility.yul\":2615:2616   */\n  0x01\n    /* \"#utility.yul\":2612:2613   */\n  dup2\n    /* \"#utility.yul\":2608:2617   */\n  add\n    /* \"#utility.yul\":2603:2617   */\n  swap1\n  pop\n    /* \"#utility.yul\":2565:2703   */\n  jump(tag_59)\ntag_61:\n    /* \"#utility.yul\":2569:2583   */\n  pop\n    /* \"#utility.yul\":2495:2709   */\n  pop\n  pop\n  jump\t// out\n    /* \"#utility.yul\":2715:3461   */\ntag_25:\n    /* \"#utility.yul\":2816:2818   */\n  0x1f\n    /* \"#utility.yul\":2811:2814   */\n  dup3\n    /* \"#utility.yul\":2808:2819   */\n  gt\n    /* \"#utility.yul\":2805:3454   */\n  iszero\n  tag_64\n  jumpi\n    /* \"#utility.yul\":2845:2855   */\n  dup3\n    /* \"#utility.yul\":2840:2843   */\n  dup3\n    /* \"#utility.yul\":2837:2856   */\n  gt\n    /* \"#utility.yul\":2834:3444   */\n  iszero\n  tag_65\n  jumpi\n    /* \"#utility.yul\":2891:2929   */\n  tag_66\n    /* \"#utility.yul\":2923:2928   */\n  dup2\n    /* \"#utility.yul\":2891:2929   */\n  tag_13\n  jump\t// in\ntag_66:\n    /* \"#utility.yul\":2966:2988   */\n  tag_67\n    /* \"#utility.yul\":2984:2987   */\n  dup4\n    /* \"#utility.yul\":2966:2988   */\n  tag_14\n  jump\t// in\ntag_67:\n    /* \"#utility.yul\":3025:3054   */\n  tag_68\n    /* \"#utility.yul\":3043:3053   */\n  dup6\n    /* \"#utility.yul\":3025:3054   */\n  tag_14\n  jump\t// in\ntag_68:\n    /* \"#utility.yul\":3215:3217   */\n  0x20\n    /* \"#utility.yul\":3203:3213   */\n  dup7\n    /* \"#utility.yul\":3200:3218   */\n  lt\n    /* \"#utility.yul\":3197:3276   */\n  iszero\n  tag_69\n  jumpi\n    /* \"#utility.yul\":3257:3258   */\n  0x00\n    /* \"#utility.yul\":3241:3258   */\n  swap1\n  pop\n    /* \"#utility.yul\":3197:3276   */\ntag_69:\n    /* \"#utility.yul\":3326:3338   */\n  dup1\n    /* \"#utility.yul\":3316:3324   */\n  dup4\n    /* \"#utility.yul\":3312:3339   */\n  add\n    /* \"#utility.yul\":3356:3430   */\n  tag_70\n    /* \"#utility.yul\":3416:3428   */\n  dup3\n    /* \"#utility.yul\":3402:3414   */\n  dup5\n    /* \"#utility.yul\":3398:3429   */\n  sub\n    /* \"#utility.yul\":3385:3396   */\n  dup3\n    /* \"#utility.yul\":3356:3430   */\n  tag_24\n  jump\t// in\ntag_70:\n    /* \"#utility.yul\":2857:3444   */\n  pop\n  pop\n  pop\n  pop\n    /* \"#utility.yul\":2834:3444   */\ntag_65:\n    /* \"#utility.yul\":2805:3454   */\ntag_64:\n    /* \"#utility.yul\":2715:3461   */\n  pop\n  pop\n  pop\n  jump\t// out\n    /* \"#utility.yul\":3467:3584   */\ntag_26:\n    /* \"#utility.yul\":3521:3529   */\n  0x00\n    /* \"#utility.yul\":3571:3576   */\n  dup3\n    /* \"#utility.yul\":3565:3569   */\n  dup3\n    /* \"#utility.yul\":3561:3577   */\n  shr\n    /* \"#utility.yul\":3540:3577   */\n  swap1\n  pop\n    /* \"#utility.yul\":3467:3584   */\n  swap3\n  swap2\n  pop\n  pop\n  jump\t// out\n    /* \"#utility.yul\":3590:3759   */\ntag_27:\n    /* \"#utility.yul\":3634:3640   */\n  0x00\n    /* \"#utility.yul\":3667:3718   */\n  tag_73\n    /* \"#utility.yul\":3715:3716   */\n  0x00\n    /* \"#utility.yul\":3711:3717   */\n  not\n    /* \"#utility.yul\":3703:3708   */\n  dup5\n    /* \"#utility.yul\":3700:3701   */\n  0x08\n    /* \"#utility.yul\":3696:3709   */\n  mul\n    /* \"#utility.yul\":3667:3718   */\n  tag_26\n  jump\t// in\ntag_73:\n    /* \"#utility.yul\":3663:3719   */\n  not\n    /* \"#utility.yul\":3748:3752   */\n  dup1\n    /* \"#utility.yul\":3742:3746   */\n  dup4\n    /* \"#utility.yul\":3738:3753   */\n  and\n    /* \"#utility.yul\":3728:3753   */\n  swap2\n  pop\n    /* \"#utility.yul\":3641:3759   */\n  pop\n    /* \"#utility.yul\":3590:3759   */\n  swap3\n  swap2\n  pop\n  pop\n  jump\t// out\n    /* \"#utility.yul\":3764:4059   */\ntag_28:\n    /* \"#utility.yul\":3840:3844   */\n  0x00\n    /* \"#utility.yul\":3986:4015   */\n  tag_75\n    /* \"#utility.yul\":4011:4014   */\n  dup4\n    /* \"#utility.yul\":4005:4009   */\n  dup4\n    /* \"#utility.yul\":3986:4015   */\n  tag_27\n  jump\t// in\ntag_75:\n    /* \"#utility.yul\":3978:4015   */\n  swap2\n  pop\n    /* \"#utility.yul\":4048:4051   */\n  dup3\n    /* \"#utility.yul\":4045:4046   */\n  0x02\n    /* \"#utility.yul\":4041:4052   */\n  mul\n    /* \"#utility.yul\":4035:4039   */\n  dup3\n    /* \"#utility.yul\":4032:4053   */\n  or\n    /* \"#utility.yul\":4024:4053   */\n  swap1\n  pop\n    /* \"#utility.yul\":3764:4059   */\n  swap3\n  swap2\n  pop\n  pop\n  jump\t// out\n    /* \"#utility.yul\":4064:5459   */\ntag_2:\n    /* \"#utility.yul\":4181:4218   */\n  tag_77\n    /* \"#utility.yul\":4214:4217   */\n  dup3\n    /* \"#utility.yul\":4181:4218   */\n  tag_9\n  jump\t// in\ntag_77:\n    /* \"#utility.yul\":4283:4301   */\n  0xffffffffffffffff\n    /* \"#utility.yul\":4275:4281   */\n  dup2\n    /* \"#utility.yul\":4272:4302   */\n  gt\n    /* \"#utility.yul\":4269:4325   */\n  iszero\n  tag_78\n  jumpi\n    /* \"#utility.yul\":4305:4323   */\n  tag_79\n  tag_10\n  jump\t// in\ntag_79:\n    /* \"#utility.yul\":4269:4325   */\ntag_78:\n    /* \"#utility.yul\":4349:4387   */\n  tag_80\n    /* \"#utility.yul\":4381:4385   */\n  dup3\n    /* \"#utility.yul\":4375:4386   */\n  sload\n    /* \"#utility.yul\":4349:4387   */\n  tag_12\n  jump\t// in\ntag_80:\n    /* \"#utility.yul\":4434:4501   */\n  tag_81\n    /* \"#utility.yul\":4494:4500   */\n  dup3\n    /* \"#utility.yul\":4486:4492   */\n  dup3\n    /* \"#utility.yul\":4480:4484   */\n  dup6\n    /* \"#utility.yul\":4434:4501   */\n  tag_25\n  jump\t// in\ntag_81:\n    /* \"#utility.yul\":4528:4529   */\n  0x00\n    /* \"#utility.yul\":4552:4556   */\n  0x20\n    /* \"#utility.yul\":4539:4556   */\n  swap1\n  pop\n    /* \"#utility.yul\":4584:4586   */\n  0x1f\n    /* \"#utility.yul\":4576:4582   */\n  dup4\n    /* \"#utility.yul\":4573:4587   */\n  gt\n    /* \"#utility.yul\":4601:4602   */\n  0x01\n    /* \"#utility.yul\":4596:5214   */\n  dup2\n  eq\n  tag_83\n  jumpi\n    /* \"#utility.yul\":5258:5259   */\n  0x00\n    /* \"#utility.yul\":5275:5281   */\n  dup5\n    /* \"#utility.yul\":5272:5349   */\n  iszero\n  tag_84\n  jumpi\n    /* \"#utility.yul\":5324:5333   */\n  dup3\n    /* \"#utility.yul\":5319:5322   */\n  dup8\n    /* \"#utility.yul\":5315:5334   */\n  add\n    /* \"#utility.yul\":5309:5335   */\n  mload\n    /* \"#utility.yul\":5300:5335   */\n  swap1\n  pop\n    /* \"#utility.yul\":5272:5349   */\ntag_84:\n    /* \"#utility.yul\":5375:5442   */\n  tag_85\n    /* \"#utility.yul\":5435:5441   */\n  dup6\n    /* \"#utility.yul\":5428:5433   */\n  dup3\n    /* \"#utility.yul\":5375:5442   */\n  tag_28\n  jump\t// in\ntag_85:\n    /* \"#utility.yul\":5369:5373   */\n  dup7\n    /* \"#utility.yul\":5362:5443   */\n  sstore\n    /* \"#utility.yul\":5231:5453   */\n  pop\n    /* \"#utility.yul\":4566:5453   */\n  jump(tag_82)\n    /* \"#utility.yul\":4596:5214   */\ntag_83:\n    /* \"#utility.yul\":4648:4652   */\n  0x1f\n    /* \"#utility.yul\":4644:4653   */\n  not\n    /* \"#utility.yul\":4636:4642   */\n  dup5\n    /* \"#utility.yul\":4632:4654   */\n  and\n    /* \"#utility.yul\":4682:4719   */\n  tag_86\n    /* \"#utility.yul\":4714:4718   */\n  dup7\n    /* \"#utility.yul\":4682:4719   */\n  tag_13\n  jump\t// in\ntag_86:\n    /* \"#utility.yul\":4741:4742   */\n  0x00\n    /* \"#utility.yul\":4755:4963   */\ntag_87:\n    /* \"#utility.yul\":4769:4776   */\n  dup3\n    /* \"#utility.yul\":4766:4767   */\n  dup2\n    /* \"#utility.yul\":4763:4777   */\n  lt\n    /* \"#utility.yul\":4755:4963   */\n  iszero\n  tag_89\n  jumpi\n    /* \"#utility.yul\":4848:4857   */\n  dup5\n    /* \"#utility.yul\":4843:4846   */\n  dup10\n    /* \"#utility.yul\":4839:4858   */\n  add\n    /* \"#utility.yul\":4833:4859   */\n  mload\n    /* \"#utility.yul\":4825:4831   */\n  dup3\n    /* \"#utility.yul\":4818:4860   */\n  sstore\n    /* \"#utility.yul\":4899:4900   */\n  0x01\n    /* \"#utility.yul\":4891:4897   */\n  dup3\n    /* \"#utility.yul\":4887:4901   */\n  add\n    /* \"#utility.yul\":4877:4901   */\n  swap2\n  pop\n    /* \"#utility.yul\":4946:4948   */\n  0x20\n    /* \"#utility.yul\":4935:4944   */\n  dup6\n    /* \"#utility.yul\":4931:4949   */\n  add\n    /* \"#utility.yul\":4918:4949   */\n  swap5\n  pop\n    /* \"#utility.yul\":4792:4796   */\n  0x20\n    /* \"#utility.yul\":4789:4790   */\n  dup2\n    /* \"#utility.yul\":4785:4797   */\n  add\n    /* \"#utility.yul\":4780:4797   */\n  swap1\n  pop\n    /* \"#utility.yul\":4755:4963   */\n  jump(tag_87)\ntag_89:\n    /* \"#utility.yul\":4991:4997   */\n  dup7\n    /* \"#utility.yul\":4982:4989   */\n  dup4\n    /* \"#utility.yul\":4979:4998   */\n  lt\n    /* \"#utility.yul\":4976:5155   */\n  iszero\n  tag_90\n  jumpi\n    /* \"#utility.yul\":5049:5058   */\n  dup5\n    /* \"#utility.yul\":5044:5047   */\n  dup10\n    /* \"#utility.yul\":5040:5059   */\n  add\n    /* \"#utility.yul\":5034:5060   */\n  mload\n    /* \"#utility.yul\":5092:5140   */\n  tag_91\n    /* \"#utility.yul\":5134:5138   */\n  0x1f\n    /* \"#utility.yul\":5126:5132   */\n  dup10\n    /* \"#utility.yul\":5122:5139   */\n  and\n    /* \"#utility.yul\":5111:5120   */\n  dup3\n    /* \"#utility.yul\":5092:5140   */\n  tag_27\n  jump\t// in\ntag_91:\n    /* \"#utility.yul\":5084:5090   */\n  dup4\n    /* \"#utility.yul\":5077:5141   */\n  sstore\n    /* \"#utility.yul\":4999:5155   */\n  pop\n    /* \"#utility.yul\":4976:5155   */\ntag_90:\n    /* \"#utility.yul\":5201:5202   */\n  0x01\n    /* \"#utility.yul\":5197:5198   */\n  0x02\n    /* \"#utility.yul\":5189:5195   */\n  dup9\n    /* \"#utility.yul\":5185:5199   */\n  mul\n    /* \"#utility.yul\":5181:5203   */\n  add\n    /* \"#utility.yul\":5175:5179   */\n  dup9\n    /* \"#utility.yul\":5168:5204   */\n  sstore\n    /* \"#utility.yul\":4603:5214   */\n  pop\n  pop\n  pop\n    /* \"#utility.yul\":4566:5453   */\ntag_82:\n  pop\n    /* \"#utility.yul\":4156:5459   */\n  pop\n  pop\n  pop\n    /* \"#utility.yul\":4064:5459   */\n  pop\n  pop\n  jump\t// out\n    /* \"pStorage/contract.sol\":58:1580  contract StorageLab {... */\ntag_8:\n  dataSize(sub_0)\n  dup1\n  dataOffset(sub_0)\n  0x00\n  codecopy\n  0x00\n  return\nstop\n\nsub_0: assembly {\n        /* \"pStorage/contract.sol\":58:1580  contract StorageLab {... */\n      mstore(0x40, 0x80)\n      callvalue\n      dup1\n      iszero\n      tag_1\n      jumpi\n      revert(0x00, 0x00)\n    tag_1:\n      pop\n      jumpi(tag_2, lt(calldatasize, 0x04))\n      shr(0xe0, calldataload(0x00))\n      dup1\n      0x4f628d84\n      gt\n      tag_13\n      jumpi\n      dup1\n      0x4f628d84\n      eq\n      tag_8\n      jumpi\n      dup1\n      0x7284e416\n      eq\n      tag_9\n      jumpi\n      dup1\n      0xa87430ba\n      eq\n      tag_10\n      jumpi\n      dup1\n      0xc3da42b8\n      eq\n      tag_11\n      jumpi\n      dup1\n      0xdd62ed3e\n      eq\n      tag_12\n      jumpi\n      jump(tag_2)\n    tag_13:\n      dup1\n      0x0dbe671f\n      eq\n      tag_3\n      jumpi\n      dup1\n      0x2ee691a3\n      eq\n      tag_4\n      jumpi\n      dup1\n      0x310ec4a7\n      eq\n      tag_5\n      jumpi\n      dup1\n      0x44638a4c\n      eq\n      tag_6\n      jumpi\n      dup1\n      0x4df7e3d0\n      eq\n      tag_7\n      jumpi\n    tag_2:\n      revert(0x00, 0x00)\n        /* \"pStorage/contract.sol\":223:276  uint128 public a = 0xAAAAAAAAAAAAAAAAAAAAAAAAAAAAAAAA */\n    tag_3:\n      tag_14\n      tag_15\n      jump\t// in\n    tag_14:\n      mload(0x40)\n      tag_16\n      swap2\n      swap1\n      tag_17\n      jump\t// in\n    tag_16:\n      mload(0x40)\n      dup1\n      swap2\n      sub\n      swap1\n      return\n        /* \"pStorage/contract.sol\":600:623  uint256[] public scores */\n    tag_4:\n      tag_18\n      0x04\n      dup1\n      calldatasize\n      sub\n      dup2\n      add\n      swap1\n      tag_19\n      swap2\n      swap1\n      tag_20\n      jump\t// in\n    tag_19:\n      tag_21\n      jump\t// in\n    tag_18:\n      mload(0x40)\n      tag_22\n      swap2\n      swap1\n      tag_23\n      jump\t// in\n    tag_22:\n      mload(0x40)\n      dup1\n      swap2\n      sub\n      swap1\n      return\n        /* \"pStorage/contract.sol\":1327:1445  function setAllowance(address spender, uint256 amount) public {... */\n    tag_5:\n      tag_24\n      0x04\n      dup1\n      calldatasize\n      sub\n      dup2\n      add\n      swap1\n      tag_25\n      swap2\n      swap1\n      tag_26\n      jump\t// in\n    tag_25:\n      tag_27\n      jump\t// in\n    tag_24:\n      stop\n        /* \"pStorage/contract.sol\":1451:1578  function setUser(address addr, uint128 bal, uint128 pts, uint256 _id) public {... */\n    tag_6:\n      tag_28\n      0x04\n      dup1\n      calldatasize\n      sub\n      dup2\n      add\n      swap1\n      tag_29\n      swap2\n      swap1\n      tag_30\n      jump\t// in\n    tag_29:\n      tag_31\n      jump\t// in\n    tag_28:\n      stop\n        /* \"pStorage/contract.sol\":283:320  uint64  public b = 0xBBBBBBBBBBBBBBBB */\n    tag_7:\n      tag_32\n      tag_33\n      jump\t// in\n    tag_32:\n      mload(0x40)\n      tag_34\n      swap2\n      swap1\n      tag_35\n      jump\t// in\n    tag_34:\n      mload(0x40)\n      dup1\n      swap2\n      sub\n      swap1\n      return\n        /* \"pStorage/contract.sol\":1174:1321  function setLongString() public {... */\n    tag_8:\n      tag_36\n      tag_37\n      jump\t// in\n    tag_36:\n      stop\n        /* \"pStorage/contract.sol\":461:496  string public description = \"Short\" */\n    tag_9:\n      tag_38\n      tag_39\n      jump\t// in\n    tag_38:\n      mload(0x40)\n      tag_40\n      swap2\n      swap1\n      tag_41\n      jump\t// in\n    tag_40:\n      mload(0x40)\n      dup1\n      swap2\n      sub\n      swap1\n      return\n        /* \"pStorage/contract.sol\":1003:1040  mapping(address => User) public users */\n    tag_10:\n      tag_42\n      0x04\n      dup1\n      calldatasize\n      sub\n      dup2\n      add\n      swap1\n      tag_43\n      swap2\n      swap1\n      tag_44\n      jump\t// in\n    tag_43:\n      tag_45\n      jump\t// in\n    tag_42:\n      mload(0x40)\n      tag_46\n      swap4\n      swap3\n      swap2\n      swap1\n      tag_47\n      jump\t// in\n    tag_46:\n      mload(0x40)\n      dup1\n      swap2\n      sub\n      swap1\n      return\n        /* \"pStorage/contract.sol\":326:355  uint32  public c = 0xCCCCCCCC */\n    tag_11:\n      tag_48\n      tag_49\n      jump\t// in\n    tag_48:\n      mload(0x40)\n      tag_50\n      swap2\n      swap1\n      tag_51\n      jump\t// in\n    tag_50:\n      mload(0x40)\n      dup1\n      swap2\n      sub\n      swap1\n      return\n        /* \"pStorage/contract.sol\":707:771  mapping(address => mapping(address => uint256)) public allowance */\n    tag_12:\n      tag_52\n      0x04\n      dup1\n      calldatasize\n      sub\n      dup2\n      add\n      swap1\n      tag_53\n      swap2\n      swap1\n      tag_54\n      jump\t// in\n    tag_53:\n      tag_55\n      jump\t// in\n    tag_52:\n      mload(0x40)\n      tag_56\n      swap2\n      swap1\n      tag_23\n      jump\t// in\n    tag_56:\n      mload(0x40)\n      dup1\n      swap2\n      sub\n      swap1\n      return\n        /* \"pStorage/contract.sol\":223:276  uint128 public a = 0xAAAAAAAAAAAAAAAAAAAAAAAAAAAAAAAA */\n    tag_15:\n      0x00\n      0x00\n      swap1\n      sload\n      swap1\n      0x0100\n      exp\n      swap1\n      div\n      0xffffffffffffffffffffffffffffffff\n      and\n      dup2\n      jump\t// out\n        /* \"pStorage/contract.sol\":600:623  uint256[] public scores */\n    tag_21:\n      0x02\n      dup2\n      dup2\n      sload\n      dup2\n      lt\n      tag_57\n      jumpi\n      0x00\n      dup1\n      revert\n    tag_57:\n      swap1\n      0x00\n      mstore\n      keccak256(0x00, 0x20)\n      add\n      0x00\n      swap2\n      pop\n      swap1\n      pop\n      sload\n      dup2\n      jump\t// out\n        /* \"pStorage/contract.sol\":1327:1445  function setAllowance(address spender, uint256 amount) public {... */\n    tag_27:\n        /* \"pStorage/contract.sol\":1432:1438  amount */\n      dup1\n        /* \"pStorage/contract.sol\":1399:1408  allowance */\n      0x03\n        /* \"pStorage/contract.sol\":1399:1420  allowance[msg.sender] */\n      0x00\n        /* \"pStorage/contract.sol\":1409:1419  msg.sender */\n      caller\n        /* \"pStorage/contract.sol\":1399:1420  allowance[msg.sender] */\n      0xffffffffffffffffffffffffffffffffffffffff\n      and\n      0xffffffffffffffffffffffffffffffffffffffff\n      and\n      dup2\n      mstore\n      0x20\n      add\n      swap1\n      dup2\n      mstore\n      0x20\n      add\n      0x00\n      keccak256\n        /* \"pStorage/contract.sol\":1399:1429  allowance[msg.sender][spender] */\n      0x00\n        /* \"pStorage/contract.sol\":1421:1428  spender */\n      dup5\n        /* \"pStorage/contract.sol\":1399:1429  allowance[msg.sender][spender] */\n      0xffffffffffffffffffffffffffffffffffffffff\n      and\n      0xffffffffffffffffffffffffffffffffffffffff\n      and\n      dup2\n      mstore\n      0x20\n      add\n      swap1\n      dup2\n      mstore\n      0x20\n      add\n      0x00\n      keccak256\n        /* \"pStorage/contract.sol\":1399:1438  allowance[msg.sender][spender] = amount */\n      dup2\n      swap1\n      sstore\n      pop\n        /* \"pStorage/contract.sol\":1327:1445  function setAllowance(address spender, uint256 amount) public {... */\n      pop\n      pop\n      jump\t// out\n        /* \"pStorage/contract.sol\":1451:1578  function setUser(address addr, uint128 bal, uint128 pts, uint256 _id) public {... */\n    tag_31:\n        /* \"pStorage/contract.sol\":1552:1571  User(bal, pts, _id) */\n      mload(0x40)\n      dup1\n      0x60\n      add\n      0x40\n      mstore\n      dup1\n        /* \"pStorage/contract.sol\":1557:1560  bal */\n      dup5\n        /* \"pStorage/contract.sol\":1552:1571  User(bal, pts, _id) */\n      0xffffffffffffffffffffffffffffffff\n      and\n      dup2\n      mstore\n      0x20\n      add\n        /* \"pStorage/contract.sol\":1562:1565  pts */\n      dup4\n        /* \"pStorage/contract.sol\":1552:1571  User(bal, pts, _id) */\n      0xffffffffffffffffffffffffffffffff\n      and\n      dup2\n      mstore\n      0x20\n      add\n        /* \"pStorage/contract.sol\":1567:1570  _id */\n      dup3\n        /* \"pStorage/contract.sol\":1552:1571  User(bal, pts, _id) */\n      dup2\n      mstore\n      pop\n        /* \"pStorage/contract.sol\":1538:1543  users */\n      0x04\n        /* \"pStorage/contract.sol\":1538:1549  users[addr] */\n      0x00\n        /* \"pStorage/contract.sol\":1544:1548  addr */\n      dup7\n        /* \"pStorage/contract.sol\":1538:1549  users[addr] */\n      0xffffffffffffffffffffffffffffffffffffffff\n      and\n      0xffffffffffffffffffffffffffffffffffffffff\n      and\n      dup2\n      mstore\n      0x20\n      add\n      swap1\n      dup2\n      mstore\n      0x20\n      add\n      0x00\n      keccak256\n        /* \"pStorage/contract.sol\":1538:1571  users[addr] = User(bal, pts, _id) */\n      0x00\n      dup3\n      add\n      mload\n      dup2\n      0x00\n      add\n      exp(0x0100, 0x00)\n      dup2\n      sload\n      dup2\n      0xffffffffffffffffffffffffffffffff\n      mul\n      not\n      and\n      swap1\n      dup4\n      0xffffffffffffffffffffffffffffffff\n      and\n      mul\n      or\n      swap1\n      sstore\n      pop\n      0x20\n      dup3\n      add\n      mload\n      dup2\n      0x00\n      add\n      exp(0x0100, 0x10)\n      dup2\n      sload\n      dup2\n      0xffffffffffffffffffffffffffffffff\n      mul\n      not\n      and\n      swap1\n      dup4\n      0xffffffffffffffffffffffffffffffff\n      and\n      mul\n      or\n      swap1\n      sstore\n      pop\n      0x40\n      dup3\n      add\n      mload\n      dup2\n      0x01\n      add\n      sstore\n      swap1\n      pop\n      pop\n        /* \"pStorage/contract.sol\":1451:1578  function setUser(address addr, uint128 bal, uint128 pts, uint256 _id) public {... */\n      pop\n      pop\n      pop\n      pop\n      jump\t// out\n        /* \"pStorage/contract.sol\":283:320  uint64  public b = 0xBBBBBBBBBBBBBBBB */\n    tag_33:\n      0x00\n      0x10\n      swap1\n      sload\n      swap1\n      0x0100\n      exp\n      swap1\n      div\n      0xffffffffffffffff\n      and\n      dup2\n      jump\t// out\n        /* \"pStorage/contract.sol\":1174:1321  function setLongString() public {... */\n    tag_37:\n        /* \"pStorage/contract.sol\":1216:1314  description = \"This is a very long string that will definitely trigger the long storage strategy!\" */\n      mload(0x40)\n      dup1\n      0x80\n      add\n      0x40\n      mstore\n      dup1\n      0x52\n      dup2\n      mstore\n      0x20\n      add\n      data_f27a38662b0aa596971a009b08ee6bd2223c11726b566d02cdf2825b00e39e84\n      0x52\n      swap2\n      codecopy\n        /* \"pStorage/contract.sol\":1216:1227  description */\n      0x01\n        /* \"pStorage/contract.sol\":1216:1314  description = \"This is a very long string that will definitely trigger the long storage strategy!\" */\n      swap1\n      dup2\n      tag_62\n      swap2\n      swap1\n      tag_63\n      jump\t// in\n    tag_62:\n      pop\n        /* \"pStorage/contract.sol\":1174:1321  function setLongString() public {... */\n      jump\t// out\n        /* \"pStorage/contract.sol\":461:496  string public description = \"Short\" */\n    tag_39:\n      0x01\n      dup1\n      sload\n      tag_64\n      swap1\n      tag_65\n      jump\t// in\n    tag_64:\n      dup1\n      0x1f\n      add\n      0x20\n      dup1\n      swap2\n      div\n      mul\n      0x20\n      add\n      mload(0x40)\n      swap1\n      dup2\n      add\n      0x40\n      mstore\n      dup1\n      swap3\n      swap2\n      swap1\n      dup2\n      dup2\n      mstore\n      0x20\n      add\n      dup3\n      dup1\n      sload\n      tag_66\n      swap1\n      tag_65\n      jump\t// in\n    tag_66:\n      dup1\n      iszero\n      tag_67\n      jumpi\n      dup1\n      0x1f\n      lt\n      tag_68\n      jumpi\n      0x0100\n      dup1\n      dup4\n      sload\n      div\n      mul\n      dup4\n      mstore\n      swap2\n      0x20\n      add\n      swap2\n      jump(tag_67)\n    tag_68:\n      dup3\n      add\n      swap2\n      swap1\n      0x00\n      mstore\n      keccak256(0x00, 0x20)\n      swap1\n    tag_69:\n      dup2\n      sload\n      dup2\n      mstore\n      swap1\n      0x01\n      add\n      swap1\n      0x20\n      add\n      dup1\n      dup4\n      gt\n      tag_69\n      jumpi\n      dup3\n      swap1\n      sub\n      0x1f\n      and\n      dup3\n      add\n      swap2\n    tag_67:\n      pop\n      pop\n      pop\n      pop\n      pop\n      dup2\n      jump\t// out\n        /* \"pStorage/contract.sol\":1003:1040  mapping(address => User) public users */\n    tag_45:\n      mstore(0x20, 0x04)\n      dup1\n      0x00\n      mstore\n      keccak256(0x00, 0x40)\n      0x00\n      swap2\n      pop\n      swap1\n      pop\n      dup1\n      0x00\n      add\n      0x00\n      swap1\n      sload\n      swap1\n      0x0100\n      exp\n      swap1\n      div\n      0xffffffffffffffffffffffffffffffff\n      and\n      swap1\n      dup1\n      0x00\n      add\n      0x10\n      swap1\n      sload\n      swap1\n      0x0100\n      exp\n      swap1\n      div\n      0xffffffffffffffffffffffffffffffff\n      and\n      swap1\n      dup1\n      0x01\n      add\n      sload\n      swap1\n      pop\n      dup4\n      jump\t// out\n        /* \"pStorage/contract.sol\":326:355  uint32  public c = 0xCCCCCCCC */\n    tag_49:\n      0x00\n      0x18\n      swap1\n      sload\n      swap1\n      0x0100\n      exp\n      swap1\n      div\n      0xffffffff\n      and\n      dup2\n      jump\t// out\n        /* \"pStorage/contract.sol\":707:771  mapping(address => mapping(address => uint256)) public allowance */\n    tag_55:\n      mstore(0x20, 0x03)\n      dup2\n      0x00\n      mstore\n      mstore(0x20, keccak256(0x00, 0x40))\n      dup1\n      0x00\n      mstore\n      keccak256(0x00, 0x40)\n      0x00\n      swap2\n      pop\n      swap2\n      pop\n      pop\n      sload\n      dup2\n      jump\t// out\n        /* \"#utility.yul\":7:125   */\n    tag_70:\n        /* \"#utility.yul\":44:51   */\n      0x00\n        /* \"#utility.yul\":84:118   */\n      0xffffffffffffffffffffffffffffffff\n        /* \"#utility.yul\":77:82   */\n      dup3\n        /* \"#utility.yul\":73:119   */\n      and\n        /* \"#utility.yul\":62:119   */\n      swap1\n      pop\n        /* \"#utility.yul\":7:125   */\n      swap2\n      swap1\n      pop\n      jump\t// out\n        /* \"#utility.yul\":131:249   */\n    tag_71:\n        /* \"#utility.yul\":218:242   */\n      tag_114\n        /* \"#utility.yul\":236:241   */\n      dup2\n        /* \"#utility.yul\":218:242   */\n      tag_70\n      jump\t// in\n    tag_114:\n        /* \"#utility.yul\":213:216   */\n      dup3\n        /* \"#utility.yul\":206:243   */\n      mstore\n        /* \"#utility.yul\":131:249   */\n      pop\n      pop\n      jump\t// out\n        /* \"#utility.yul\":255:477   */\n    tag_17:\n        /* \"#utility.yul\":348:352   */\n      0x00\n        /* \"#utility.yul\":386:388   */\n      0x20\n        /* \"#utility.yul\":375:384   */\n      dup3\n        /* \"#utility.yul\":371:389   */\n      add\n        /* \"#utility.yul\":363:389   */\n      swap1\n      pop\n        /* \"#utility.yul\":399:470   */\n      tag_116\n        /* \"#utility.yul\":467:468   */\n      0x00\n        /* \"#utility.yul\":456:465   */\n      dup4\n        /* \"#utility.yul\":452:469   */\n      add\n        /* \"#utility.yul\":443:449   */\n      dup5\n        /* \"#utility.yul\":399:470   */\n      tag_71\n      jump\t// in\n    tag_116:\n        /* \"#utility.yul\":255:477   */\n      swap3\n      swap2\n      pop\n      pop\n      jump\t// out\n        /* \"#utility.yul\":564:681   */\n    tag_73:\n        /* \"#utility.yul\":673:674   */\n      0x00\n        /* \"#utility.yul\":670:671   */\n      0x00\n        /* \"#utility.yul\":663:675   */\n      revert\n        /* \"#utility.yul\":810:887   */\n    tag_75:\n        /* \"#utility.yul\":847:854   */\n      0x00\n        /* \"#utility.yul\":876:881   */\n      dup2\n        /* \"#utility.yul\":865:881   */\n      swap1\n      pop\n        /* \"#utility.yul\":810:887   */\n      swap2\n      swap1\n      pop\n      jump\t// out\n        /* \"#utility.yul\":893:1015   */\n    tag_76:\n        /* \"#utility.yul\":966:990   */\n      tag_122\n        /* \"#utility.yul\":984:989   */\n      dup2\n        /* \"#utility.yul\":966:990   */\n      tag_75\n      jump\t// in\n    tag_122:\n        /* \"#utility.yul\":959:964   */\n      dup2\n        /* \"#utility.yul\":956:991   */\n      eq\n        /* \"#utility.yul\":946:1009   */\n      tag_123\n      jumpi\n        /* \"#utility.yul\":1005:1006   */\n      0x00\n        /* \"#utility.yul\":1002:1003   */\n      0x00\n        /* \"#utility.yul\":995:1007   */\n      revert\n        /* \"#utility.yul\":946:1009   */\n    tag_123:\n        /* \"#utility.yul\":893:1015   */\n      pop\n      jump\t// out\n        /* \"#utility.yul\":1021:1160   */\n    tag_77:\n        /* \"#utility.yul\":1067:1072   */\n      0x00\n        /* \"#utility.yul\":1105:1111   */\n      dup2\n        /* \"#utility.yul\":1092:1112   */\n      calldataload\n        /* \"#utility.yul\":1083:1112   */\n      swap1\n      pop\n        /* \"#utility.yul\":1121:1154   */\n      tag_125\n        /* \"#utility.yul\":1148:1153   */\n      dup2\n        /* \"#utility.yul\":1121:1154   */\n      tag_76\n      jump\t// in\n    tag_125:\n        /* \"#utility.yul\":1021:1160   */\n      swap3\n      swap2\n      pop\n      pop\n      jump\t// out\n        /* \"#utility.yul\":1166:1495   */\n    tag_20:\n        /* \"#utility.yul\":1225:1231   */\n      0x00\n        /* \"#utility.yul\":1274:1276   */\n      0x20\n        /* \"#utility.yul\":1262:1271   */\n      dup3\n        /* \"#utility.yul\":1253:1260   */\n      dup5\n        /* \"#utility.yul\":1249:1272   */\n      sub\n        /* \"#utility.yul\":1245:1277   */\n      slt\n        /* \"#utility.yul\":1242:1361   */\n      iszero\n      tag_127\n      jumpi\n        /* \"#utility.yul\":1280:1359   */\n      tag_128\n      tag_73\n      jump\t// in\n    tag_128:\n        /* \"#utility.yul\":1242:1361   */\n    tag_127:\n        /* \"#utility.yul\":1400:1401   */\n      0x00\n        /* \"#utility.yul\":1425:1478   */\n      tag_129\n        /* \"#utility.yul\":1470:1477   */\n      dup5\n        /* \"#utility.yul\":1461:1467   */\n      dup3\n        /* \"#utility.yul\":1450:1459   */\n      dup6\n        /* \"#utility.yul\":1446:1468   */\n      add\n        /* \"#utility.yul\":1425:1478   */\n      tag_77\n      jump\t// in\n    tag_129:\n        /* \"#utility.yul\":1415:1478   */\n      swap2\n      pop\n        /* \"#utility.yul\":1371:1488   */\n      pop\n        /* \"#utility.yul\":1166:1495   */\n      swap3\n      swap2\n      pop\n      pop\n      jump\t// out\n        /* \"#utility.yul\":1501:1619   */\n    tag_78:\n        /* \"#utility.yul\":1588:1612   */\n      tag_131\n        /* \"#utility.yul\":1606:1611   */\n      dup2\n        /* \"#utility.yul\":1588:1612   */\n      tag_75\n      jump\t// in\n    tag_131:\n        /* \"#utility.yul\":1583:1586   */\n      dup3\n        /* \"#utility.yul\":1576:1613   */\n      mstore\n        /* \"#utility.yul\":1501:1619   */\n      pop\n      pop\n      jump\t// out\n        /* \"#utility.yul\":1625:1847   */\n    tag_23:\n        /* \"#utility.yul\":1718:1722   */\n      0x00\n        /* \"#utility.yul\":1756:1758   */\n      0x20\n        /* \"#utility.yul\":1745:1754   */\n      dup3\n        /* \"#utility.yul\":1741:1759   */\n      add\n        /* \"#utility.yul\":1733:1759   */\n      swap1\n      pop\n        /* \"#utility.yul\":1769:1840   */\n      tag_133\n        /* \"#utility.yul\":1837:1838   */\n      0x00\n        /* \"#utility.yul\":1826:1835   */\n      dup4\n        /* \"#utility.yul\":1822:1839   */\n      add\n        /* \"#utility.yul\":1813:1819   */\n      dup5\n        /* \"#utility.yul\":1769:1840   */\n      tag_78\n      jump\t// in\n    tag_133:\n        /* \"#utility.yul\":1625:1847   */\n      swap3\n      swap2\n      pop\n      pop\n      jump\t// out\n        /* \"#utility.yul\":1853:1979   */\n    tag_79:\n        /* \"#utility.yul\":1890:1897   */\n      0x00\n        /* \"#utility.yul\":1930:1972   */\n      0xffffffffffffffffffffffffffffffffffffffff\n        /* \"#utility.yul\":1923:1928   */\n      dup3\n        /* \"#utility.yul\":1919:1973   */\n      and\n        /* \"#utility.yul\":1908:1973   */\n      swap1\n      pop\n        /* \"#utility.yul\":1853:1979   */\n      swap2\n      swap1\n      pop\n      jump\t// out\n        /* \"#utility.yul\":1985:2081   */\n    tag_80:\n        /* \"#utility.yul\":2022:2029   */\n      0x00\n        /* \"#utility.yul\":2051:2075   */\n      tag_136\n        /* \"#utility.yul\":2069:2074   */\n      dup3\n        /* \"#utility.yul\":2051:2075   */\n      tag_79\n      jump\t// in\n    tag_136:\n        /* \"#utility.yul\":2040:2075   */\n      swap1\n      pop\n        /* \"#utility.yul\":1985:2081   */\n      swap2\n      swap1\n      pop\n      jump\t// out\n        /* \"#utility.yul\":2087:2209   */\n    tag_81:\n        /* \"#utility.yul\":2160:2184   */\n      tag_138\n        /* \"#utility.yul\":2178:2183   */\n      dup2\n        /* \"#utility.yul\":2160:2184   */\n      tag_80\n      jump\t// in\n    tag_138:\n        /* \"#utility.yul\":2153:2158   */\n      dup2\n        /* \"#utility.yul\":2150:2185   */\n      eq\n        /* \"#utility.yul\":2140:2203   */\n      tag_139\n      jumpi\n        /* \"#utility.yul\":2199:2200   */\n      0x00\n        /* \"#utility.yul\":2196:2197   */\n      0x00\n        /* \"#utility.yul\":2189:2201   */\n      revert\n        /* \"#utility.yul\":2140:2203   */\n    tag_139:\n        /* \"#utility.yul\":2087:2209   */\n      pop\n      jump\t// out\n        /* \"#utility.yul\":2215:2354   */\n    tag_82:\n        /* \"#utility.yul\":2261:2266   */\n      0x00\n        /* \"#utility.yul\":2299:2305   */\n      dup2\n        /* \"#utility.yul\":2286:2306   */\n      calldataload\n        /* \"#utility.yul\":2277:2306   */\n      swap1\n      pop\n        /* \"#utility.yul\":2315:2348   */\n      tag_141\n        /* \"#utility.yul\":2342:2347   */\n      dup2\n        /* \"#utility.yul\":2315:2348   */\n      tag_81\n      jump\t// in\n    tag_141:\n        /* \"#utility.yul\":2215:2354   */\n      swap3\n      swap2\n      pop\n      pop\n      jump\t// out\n        /* \"#utility.yul\":2360:2834   */\n    tag_26:\n        /* \"#utility.yul\":2428:2434   */\n      0x00\n        /* \"#utility.yul\":2436:2442   */\n      0x00\n        /* \"#utility.yul\":2485:2487   */\n      0x40\n        /* \"#utility.yul\":2473:2482   */\n      dup4\n        /* \"#utility.yul\":2464:2471   */\n      dup6\n        /* \"#utility.yul\":2460:2483   */\n      sub\n        /* \"#utility.yul\":2456:2488   */\n      slt\n        /* \"#utility.yul\":2453:2572   */\n      iszero\n      tag_143\n      jumpi\n        /* \"#utility.yul\":2491:2570   */\n      tag_144\n      tag_73\n      jump\t// in\n    tag_144:\n        /* \"#utility.yul\":2453:2572   */\n    tag_143:\n        /* \"#utility.yul\":2611:2612   */\n      0x00\n        /* \"#utility.yul\":2636:2689   */\n      tag_145\n        /* \"#utility.yul\":2681:2688   */\n      dup6\n        /* \"#utility.yul\":2672:2678   */\n      dup3\n        /* \"#utility.yul\":2661:2670   */\n      dup7\n        /* \"#utility.yul\":2657:2679   */\n      add\n        /* \"#utility.yul\":2636:2689   */\n      tag_82\n      jump\t// in\n    tag_145:\n        /* \"#utility.yul\":2626:2689   */\n      swap3\n      pop\n        /* \"#utility.yul\":2582:2699   */\n      pop\n        /* \"#utility.yul\":2738:2740   */\n      0x20\n        /* \"#utility.yul\":2764:2817   */\n      tag_146\n        /* \"#utility.yul\":2809:2816   */\n      dup6\n        /* \"#utility.yul\":2800:2806   */\n      dup3\n        /* \"#utility.yul\":2789:2798   */\n      dup7\n        /* \"#utility.yul\":2785:2807   */\n      add\n        /* \"#utility.yul\":2764:2817   */\n      tag_77\n      jump\t// in\n    tag_146:\n        /* \"#utility.yul\":2754:2817   */\n      swap2\n      pop\n        /* \"#utility.yul\":2709:2827   */\n      pop\n        /* \"#utility.yul\":2360:2834   */\n      swap3\n      pop\n      swap3\n      swap1\n      pop\n      jump\t// out\n        /* \"#utility.yul\":2840:2962   */\n    tag_83:\n        /* \"#utility.yul\":2913:2937   */\n      tag_148\n        /* \"#utility.yul\":2931:2936   */\n      dup2\n        /* \"#utility.yul\":2913:2937   */\n      tag_70\n      jump\t// in\n    tag_148:\n        /* \"#utility.yul\":2906:2911   */\n      dup2\n        /* \"#utility.yul\":2903:2938   */\n      eq\n        /* \"#utility.yul\":2893:2956   */\n      tag_149\n      jumpi\n        /* \"#utility.yul\":2952:2953   */\n      0x00\n        /* \"#utility.yul\":2949:2950   */\n      0x00\n        /* \"#utility.yul\":2942:2954   */\n      revert\n        /* \"#utility.yul\":2893:2956   */\n    tag_149:\n        /* \"#utility.yul\":2840:2962   */\n      pop\n      jump\t// out\n        /* \"#utility.yul\":2968:3107   */\n    tag_84:\n        /* \"#utility.yul\":3014:3019   */\n      0x00\n        /* \"#utility.yul\":3052:3058   */\n      dup2\n        /* \"#utility.yul\":3039:3059   */\n      calldataload\n        /* \"#utility.yul\":3030:3059   */\n      swap1\n      pop\n        /* \"#utility.yul\":3068:3101   */\n      tag_151\n        /* \"#utility.yul\":3095:3100   */\n      dup2\n        /* \"#utility.yul\":3068:3101   */\n      tag_83\n      jump\t// in\n    tag_151:\n        /* \"#utility.yul\":2968:3107   */\n      swap3\n      swap2\n      pop\n      pop\n      jump\t// out\n        /* \"#utility.yul\":3113:3878   */\n    tag_30:\n        /* \"#utility.yul\":3199:3205   */\n      0x00\n        /* \"#utility.yul\":3207:3213   */\n      0x00\n        /* \"#utility.yul\":3215:3221   */\n      0x00\n        /* \"#utility.yul\":3223:3229   */\n      0x00\n        /* \"#utility.yul\":3272:3275   */\n      0x80\n        /* \"#utility.yul\":3260:3269   */\n      dup6\n        /* \"#utility.yul\":3251:3258   */\n      dup8\n        /* \"#utility.yul\":3247:3270   */\n      sub\n        /* \"#utility.yul\":3243:3276   */\n      slt\n        /* \"#utility.yul\":3240:3360   */\n      iszero\n      tag_153\n      jumpi\n        /* \"#utility.yul\":3279:3358   */\n      tag_154\n      tag_73\n      jump\t// in\n    tag_154:\n        /* \"#utility.yul\":3240:3360   */\n    tag_153:\n        /* \"#utility.yul\":3399:3400   */\n      0x00\n        /* \"#utility.yul\":3424:3477   */\n      tag_155\n        /* \"#utility.yul\":3469:3476   */\n      dup8\n        /* \"#utility.yul\":3460:3466   */\n      dup3\n        /* \"#utility.yul\":3449:3458   */\n      dup9\n        /* \"#utility.yul\":3445:3467   */\n      add\n        /* \"#utility.yul\":3424:3477   */\n      tag_82\n      jump\t// in\n    tag_155:\n        /* \"#utility.yul\":3414:3477   */\n      swap5\n      pop\n        /* \"#utility.yul\":3370:3487   */\n      pop\n        /* \"#utility.yul\":3526:3528   */\n      0x20\n        /* \"#utility.yul\":3552:3605   */\n      tag_156\n        /* \"#utility.yul\":3597:3604   */\n      dup8\n        /* \"#utility.yul\":3588:3594   */\n      dup3\n        /* \"#utility.yul\":3577:3586   */\n      dup9\n        /* \"#utility.yul\":3573:3595   */\n      add\n        /* \"#utility.yul\":3552:3605   */\n      tag_84\n      jump\t// in\n    tag_156:\n        /* \"#utility.yul\":3542:3605   */\n      swap4\n      pop\n        /* \"#utility.yul\":3497:3615   */\n      pop\n        /* \"#utility.yul\":3654:3656   */\n      0x40\n        /* \"#utility.yul\":3680:3733   */\n      tag_157\n        /* \"#utility.yul\":3725:3732   */\n      dup8\n        /* \"#utility.yul\":3716:3722   */\n      dup3\n        /* \"#utility.yul\":3705:3714   */\n      dup9\n        /* \"#utility.yul\":3701:3723   */\n      add\n        /* \"#utility.yul\":3680:3733   */\n      tag_84\n      jump\t// in\n    tag_157:\n        /* \"#utility.yul\":3670:3733   */\n      swap3\n      pop\n        /* \"#utility.yul\":3625:3743   */\n      pop\n        /* \"#utility.yul\":3782:3784   */\n      0x60\n        /* \"#utility.yul\":3808:3861   */\n      tag_158\n        /* \"#utility.yul\":3853:3860   */\n      dup8\n        /* \"#utility.yul\":3844:3850   */\n      dup3\n        /* \"#utility.yul\":3833:3842   */\n      dup9\n        /* \"#utility.yul\":3829:3851   */\n      add\n        /* \"#utility.yul\":3808:3861   */\n      tag_77\n      jump\t// in\n    tag_158:\n        /* \"#utility.yul\":3798:3861   */\n      swap2\n      pop\n        /* \"#utility.yul\":3753:3871   */\n      pop\n        /* \"#utility.yul\":3113:3878   */\n      swap3\n      swap6\n      swap2\n      swap5\n      pop\n      swap3\n      pop\n      jump\t// out\n        /* \"#utility.yul\":3884:3985   */\n    tag_85:\n        /* \"#utility.yul\":3920:3927   */\n      0x00\n        /* \"#utility.yul\":3960:3978   */\n      0xffffffffffffffff\n        /* \"#utility.yul\":3953:3958   */\n      dup3\n        /* \"#utility.yul\":3949:3979   */\n      and\n        /* \"#utility.yul\":3938:3979   */\n      swap1\n      pop\n        /* \"#utility.yul\":3884:3985   */\n      swap2\n      swap1\n      pop\n      jump\t// out\n        /* \"#utility.yul\":3991:4106   */\n    tag_86:\n        /* \"#utility.yul\":4076:4099   */\n      tag_161\n        /* \"#utility.yul\":4093:4098   */\n      dup2\n        /* \"#utility.yul\":4076:4099   */\n      tag_85\n      jump\t// in\n    tag_161:\n        /* \"#utility.yul\":4071:4074   */\n      dup3\n        /* \"#utility.yul\":4064:4100   */\n      mstore\n        /* \"#utility.yul\":3991:4106   */\n      pop\n      pop\n      jump\t// out\n        /* \"#utility.yul\":4112:4330   */\n    tag_35:\n        /* \"#utility.yul\":4203:4207   */\n      0x00\n        /* \"#utility.yul\":4241:4243   */\n      0x20\n        /* \"#utility.yul\":4230:4239   */\n      dup3\n        /* \"#utility.yul\":4226:4244   */\n      add\n        /* \"#utility.yul\":4218:4244   */\n      swap1\n      pop\n        /* \"#utility.yul\":4254:4323   */\n      tag_163\n        /* \"#utility.yul\":4320:4321   */\n      0x00\n        /* \"#utility.yul\":4309:4318   */\n      dup4\n        /* \"#utility.yul\":4305:4322   */\n      add\n        /* \"#utility.yul\":4296:4302   */\n      dup5\n        /* \"#utility.yul\":4254:4323   */\n      tag_86\n      jump\t// in\n    tag_163:\n        /* \"#utility.yul\":4112:4330   */\n      swap3\n      swap2\n      pop\n      pop\n      jump\t// out\n        /* \"#utility.yul\":4336:4435   */\n    tag_87:\n        /* \"#utility.yul\":4388:4394   */\n      0x00\n        /* \"#utility.yul\":4422:4427   */\n      dup2\n        /* \"#utility.yul\":4416:4428   */\n      mload\n        /* \"#utility.yul\":4406:4428   */\n      swap1\n      pop\n        /* \"#utility.yul\":4336:4435   */\n      swap2\n      swap1\n      pop\n      jump\t// out\n        /* \"#utility.yul\":4441:4610   */\n    tag_88:\n        /* \"#utility.yul\":4525:4536   */\n      0x00\n        /* \"#utility.yul\":4559:4565   */\n      dup3\n        /* \"#utility.yul\":4554:4557   */\n      dup3\n        /* \"#utility.yul\":4547:4566   */\n      mstore\n        /* \"#utility.yul\":4599:4603   */\n      0x20\n        /* \"#utility.yul\":4594:4597   */\n      dup3\n        /* \"#utility.yul\":4590:4604   */\n      add\n        /* \"#utility.yul\":4575:4604   */\n      swap1\n      pop\n        /* \"#utility.yul\":4441:4610   */\n      swap3\n      swap2\n      pop\n      pop\n      jump\t// out\n        /* \"#utility.yul\":4616:4755   */\n    tag_89:\n        /* \"#utility.yul\":4705:4711   */\n      dup3\n        /* \"#utility.yul\":4700:4703   */\n      dup2\n        /* \"#utility.yul\":4695:4698   */\n      dup4\n        /* \"#utility.yul\":4689:4712   */\n      mcopy\n        /* \"#utility.yul\":4746:4747   */\n      0x00\n        /* \"#utility.yul\":4737:4743   */\n      dup4\n        /* \"#utility.yul\":4732:4735   */\n      dup4\n        /* \"#utility.yul\":4728:4744   */\n      add\n        /* \"#utility.yul\":4721:4748   */\n      mstore\n        /* \"#utility.yul\":4616:4755   */\n      pop\n      pop\n      pop\n      jump\t// out\n        /* \"#utility.yul\":4761:4863   */\n    tag_90:\n        /* \"#utility.yul\":4802:4808   */\n      0x00\n        /* \"#utility.yul\":4853:4855   */\n      0x1f\n        /* \"#utility.yul\":4849:4856   */\n      not\n        /* \"#utility.yul\":4844:4846   */\n      0x1f\n        /* \"#utility.yul\":4837:4842   */\n      dup4\n        /* \"#utility.yul\":4833:4847   */\n      add\n        /* \"#utility.yul\":4829:4857   */\n      and\n        /* \"#utility.yul\":4819:4857   */\n      swap1\n      pop\n        /* \"#utility.yul\":4761:4863   */\n      swap2\n      swap1\n      pop\n      jump\t// out\n        /* \"#utility.yul\":4869:5246   */\n    tag_91:\n        /* \"#utility.yul\":4957:4960   */\n      0x00\n        /* \"#utility.yul\":4985:5024   */\n      tag_169\n        /* \"#utility.yul\":5018:5023   */\n      dup3\n        /* \"#utility.yul\":4985:5024   */\n      tag_87\n      jump\t// in\n    tag_169:\n        /* \"#utility.yul\":5040:5111   */\n      tag_170\n        /* \"#utility.yul\":5104:5110   */\n      dup2\n        /* \"#utility.yul\":5099:5102   */\n      dup6\n        /* \"#utility.yul\":5040:5111   */\n      tag_88\n      jump\t// in\n    tag_170:\n        /* \"#utility.yul\":5033:5111   */\n      swap4\n      pop\n        /* \"#utility.yul\":5120:5185   */\n      tag_171\n        /* \"#utility.yul\":5178:5184   */\n      dup2\n        /* \"#utility.yul\":5173:5176   */\n      dup6\n        /* \"#utility.yul\":5166:5170   */\n      0x20\n        /* \"#utility.yul\":5159:5164   */\n      dup7\n        /* \"#utility.yul\":5155:5171   */\n      add\n        /* \"#utility.yul\":5120:5185   */\n      tag_89\n      jump\t// in\n    tag_171:\n        /* \"#utility.yul\":5210:5239   */\n      tag_172\n        /* \"#utility.yul\":5232:5238   */\n      dup2\n        /* \"#utility.yul\":5210:5239   */\n      tag_90\n      jump\t// in\n    tag_172:\n        /* \"#utility.yul\":5205:5208   */\n      dup5\n        /* \"#utility.yul\":5201:5240   */\n      add\n        /* \"#utility.yul\":5194:5240   */\n      swap2\n      pop\n        /* \"#utility.yul\":4961:5246   */\n      pop\n        /* \"#utility.yul\":4869:5246   */\n      swap3\n      swap2\n      pop\n      pop\n      jump\t// out\n        /* \"#utility.yul\":5252:5565   */\n    tag_41:\n        /* \"#utility.yul\":5365:5369   */\n      0x00\n        /* \"#utility.yul\":5403:5405   */\n      0x20\n        /* \"#utility.yul\":5392:5401   */\n      dup3\n        /* \"#utility.yul\":5388:5406   */\n      add\n        /* \"#utility.yul\":5380:5406   */\n      swap1\n      pop\n        /* \"#utility.yul\":5452:5461   */\n      dup2\n        /* \"#utility.yul\":5446:5450   */\n      dup2\n        /* \"#utility.yul\":5442:5462   */\n      sub\n        /* \"#utility.yul\":5438:5439   */\n      0x00\n        /* \"#utility.yul\":5427:5436   */\n      dup4\n        /* \"#utility.yul\":5423:5440   */\n      add\n        /* \"#utility.yul\":5416:5463   */\n      mstore\n        /* \"#utility.yul\":5480:5558   */\n      tag_174\n        /* \"#utility.yul\":5553:5557   */\n      dup2\n        /* \"#utility.yul\":5544:5550   */\n      dup5\n        /* \"#utility.yul\":5480:5558   */\n      tag_91\n      jump\t// in\n    tag_174:\n        /* \"#utility.yul\":5472:5558   */\n      swap1\n      pop\n        /* \"#utility.yul\":5252:5565   */\n      swap3\n      swap2\n      pop\n      pop\n      jump\t// out\n        /* \"#utility.yul\":5571:5900   */\n    tag_44:\n        /* \"#utility.yul\":5630:5636   */\n      0x00\n        /* \"#utility.yul\":5679:5681   */\n      0x20\n        /* \"#utility.yul\":5667:5676   */\n      dup3\n        /* \"#utility.yul\":5658:5665   */\n      dup5\n        /* \"#utility.yul\":5654:5677   */\n      sub\n        /* \"#utility.yul\":5650:5682   */\n      slt\n        /* \"#utility.yul\":5647:5766   */\n      iszero\n      tag_176\n      jumpi\n        /* \"#utility.yul\":5685:5764   */\n      tag_177\n      tag_73\n      jump\t// in\n    tag_177:\n        /* \"#utility.yul\":5647:5766   */\n    tag_176:\n        /* \"#utility.yul\":5805:5806   */\n      0x00\n        /* \"#utility.yul\":5830:5883   */\n      tag_178\n        /* \"#utility.yul\":5875:5882   */\n      dup5\n        /* \"#utility.yul\":5866:5872   */\n      dup3\n        /* \"#utility.yul\":5855:5864   */\n      dup6\n        /* \"#utility.yul\":5851:5873   */\n      add\n        /* \"#utility.yul\":5830:5883   */\n      tag_82\n      jump\t// in\n    tag_178:\n        /* \"#utility.yul\":5820:5883   */\n      swap2\n      pop\n        /* \"#utility.yul\":5776:5893   */\n      pop\n        /* \"#utility.yul\":5571:5900   */\n      swap3\n      swap2\n      pop\n      pop\n      jump\t// out\n        /* \"#utility.yul\":5906:6348   */\n    tag_47:\n        /* \"#utility.yul\":6055:6059   */\n      0x00\n        /* \"#utility.yul\":6093:6095   */\n      0x60\n        /* \"#utility.yul\":6082:6091   */\n      dup3\n        /* \"#utility.yul\":6078:6096   */\n      add\n        /* \"#utility.yul\":6070:6096   */\n      swap1\n      pop\n        /* \"#utility.yul\":6106:6177   */\n      tag_180\n        /* \"#utility.yul\":6174:6175   */\n      0x00\n        /* \"#utility.yul\":6163:6172   */\n      dup4\n        /* \"#utility.yul\":6159:6176   */\n      add\n        /* \"#utility.yul\":6150:6156   */\n      dup7\n        /* \"#utility.yul\":6106:6177   */\n      tag_71\n      jump\t// in\n    tag_180:\n        /* \"#utility.yul\":6187:6259   */\n      tag_181\n        /* \"#utility.yul\":6255:6257   */\n      0x20\n        /* \"#utility.yul\":6244:6253   */\n      dup4\n        /* \"#utility.yul\":6240:6258   */\n      add\n        /* \"#utility.yul\":6231:6237   */\n      dup6\n        /* \"#utility.yul\":6187:6259   */\n      tag_71\n      jump\t// in\n    tag_181:\n        /* \"#utility.yul\":6269:6341   */\n      tag_182\n        /* \"#utility.yul\":6337:6339   */\n      0x40\n        /* \"#utility.yul\":6326:6335   */\n      dup4\n        /* \"#utility.yul\":6322:6340   */\n      add\n        /* \"#utility.yul\":6313:6319   */\n      dup5\n        /* \"#utility.yul\":6269:6341   */\n      tag_78\n      jump\t// in\n    tag_182:\n        /* \"#utility.yul\":5906:6348   */\n      swap5\n      swap4\n      pop\n      pop\n      pop\n      pop\n      jump\t// out\n        /* \"#utility.yul\":6354:6447   */\n    tag_92:\n        /* \"#utility.yul\":6390:6397   */\n      0x00\n        /* \"#utility.yul\":6430:6440   */\n      0xffffffff\n        /* \"#utility.yul\":6423:6428   */\n      dup3\n        /* \"#utility.yul\":6419:6441   */\n      and\n        /* \"#utility.yul\":6408:6441   */\n      swap1\n      pop\n        /* \"#utility.yul\":6354:6447   */\n      swap2\n      swap1\n      pop\n      jump\t// out\n        /* \"#utility.yul\":6453:6568   */\n    tag_93:\n        /* \"#utility.yul\":6538:6561   */\n      tag_185\n        /* \"#utility.yul\":6555:6560   */\n      dup2\n        /* \"#utility.yul\":6538:6561   */\n      tag_92\n      jump\t// in\n    tag_185:\n        /* \"#utility.yul\":6533:6536   */\n      dup3\n        /* \"#utility.yul\":6526:6562   */\n      mstore\n        /* \"#utility.yul\":6453:6568   */\n      pop\n      pop\n      jump\t// out\n        /* \"#utility.yul\":6574:6792   */\n    tag_51:\n        /* \"#utility.yul\":6665:6669   */\n      0x00\n        /* \"#utility.yul\":6703:6705   */\n      0x20\n        /* \"#utility.yul\":6692:6701   */\n      dup3\n        /* \"#utility.yul\":6688:6706   */\n      add\n        /* \"#utility.yul\":6680:6706   */\n      swap1\n      pop\n        /* \"#utility.yul\":6716:6785   */\n      tag_187\n        /* \"#utility.yul\":6782:6783   */\n      0x00\n        /* \"#utility.yul\":6771:6780   */\n      dup4\n        /* \"#utility.yul\":6767:6784   */\n      add\n        /* \"#utility.yul\":6758:6764   */\n      dup5\n        /* \"#utility.yul\":6716:6785   */\n      tag_93\n      jump\t// in\n    tag_187:\n        /* \"#utility.yul\":6574:6792   */\n      swap3\n      swap2\n      pop\n      pop\n      jump\t// out\n        /* \"#utility.yul\":6798:7272   */\n    tag_54:\n        /* \"#utility.yul\":6866:6872   */\n      0x00\n        /* \"#utility.yul\":6874:6880   */\n      0x00\n        /* \"#utility.yul\":6923:6925   */\n      0x40\n        /* \"#utility.yul\":6911:6920   */\n      dup4\n        /* \"#utility.yul\":6902:6909   */\n      dup6\n        /* \"#utility.yul\":6898:6921   */\n      sub\n        /* \"#utility.yul\":6894:6926   */\n      slt\n        /* \"#utility.yul\":6891:7010   */\n      iszero\n      tag_189\n      jumpi\n        /* \"#utility.yul\":6929:7008   */\n      tag_190\n      tag_73\n      jump\t// in\n    tag_190:\n        /* \"#utility.yul\":6891:7010   */\n    tag_189:\n        /* \"#utility.yul\":7049:7050   */\n      0x00\n        /* \"#utility.yul\":7074:7127   */\n      tag_191\n        /* \"#utility.yul\":7119:7126   */\n      dup6\n        /* \"#utility.yul\":7110:7116   */\n      dup3\n        /* \"#utility.yul\":7099:7108   */\n      dup7\n        /* \"#utility.yul\":7095:7117   */\n      add\n        /* \"#utility.yul\":7074:7127   */\n      tag_82\n      jump\t// in\n    tag_191:\n        /* \"#utility.yul\":7064:7127   */\n      swap3\n      pop\n        /* \"#utility.yul\":7020:7137   */\n      pop\n        /* \"#utility.yul\":7176:7178   */\n      0x20\n        /* \"#utility.yul\":7202:7255   */\n      tag_192\n        /* \"#utility.yul\":7247:7254   */\n      dup6\n        /* \"#utility.yul\":7238:7244   */\n      dup3\n        /* \"#utility.yul\":7227:7236   */\n      dup7\n        /* \"#utility.yul\":7223:7245   */\n      add\n        /* \"#utility.yul\":7202:7255   */\n      tag_82\n      jump\t// in\n    tag_192:\n        /* \"#utility.yul\":7192:7255   */\n      swap2\n      pop\n        /* \"#utility.yul\":7147:7265   */\n      pop\n        /* \"#utility.yul\":6798:7272   */\n      swap3\n      pop\n      swap3\n      swap1\n      pop\n      jump\t// out\n        /* \"#utility.yul\":7278:7458   */\n    tag_94:\n        /* \"#utility.yul\":7326:7403   */\n      0x4e487b7100000000000000000000000000000000000000000000000000000000\n        /* \"#utility.yul\":7323:7324   */\n      0x00\n        /* \"#utility.yul\":7316:7404   */\n      mstore\n        /* \"#utility.yul\":7423:7427   */\n      0x41\n        /* \"#utility.yul\":7420:7421   */\n      0x04\n        /* \"#utility.yul\":7413:7428   */\n      mstore\n        /* \"#utility.yul\":7447:7451   */\n      0x24\n        /* \"#utility.yul\":7444:7445   */\n      0x00\n        /* \"#utility.yul\":7437:7452   */\n      revert\n        /* \"#utility.yul\":7464:7644   */\n    tag_95:\n        /* \"#utility.yul\":7512:7589   */\n      0x4e487b7100000000000000000000000000000000000000000000000000000000\n        /* \"#utility.yul\":7509:7510   */\n      0x00\n        /* \"#utility.yul\":7502:7590   */\n      mstore\n        /* \"#utility.yul\":7609:7613   */\n      0x22\n        /* \"#utility.yul\":7606:7607   */\n      0x04\n        /* \"#utility.yul\":7599:7614   */\n      mstore\n        /* \"#utility.yul\":7633:7637   */\n      0x24\n        /* \"#utility.yul\":7630:7631   */\n      0x00\n        /* \"#utility.yul\":7623:7638   */\n      revert\n        /* \"#utility.yul\":7650:7970   */\n    tag_65:\n        /* \"#utility.yul\":7694:7700   */\n      0x00\n        /* \"#utility.yul\":7731:7732   */\n      0x02\n        /* \"#utility.yul\":7725:7729   */\n      dup3\n        /* \"#utility.yul\":7721:7733   */\n      div\n        /* \"#utility.yul\":7711:7733   */\n      swap1\n      pop\n        /* \"#utility.yul\":7778:7779   */\n      0x01\n        /* \"#utility.yul\":7772:7776   */\n      dup3\n        /* \"#utility.yul\":7768:7780   */\n      and\n        /* \"#utility.yul\":7799:7817   */\n      dup1\n        /* \"#utility.yul\":7789:7870   */\n      tag_196\n      jumpi\n        /* \"#utility.yul\":7855:7859   */\n      0x7f\n        /* \"#utility.yul\":7847:7853   */\n      dup3\n        /* \"#utility.yul\":7843:7860   */\n      and\n        /* \"#utility.yul\":7833:7860   */\n      swap2\n      pop\n        /* \"#utility.yul\":7789:7870   */\n    tag_196:\n        /* \"#utility.yul\":7917:7919   */\n      0x20\n        /* \"#utility.yul\":7909:7915   */\n      dup3\n        /* \"#utility.yul\":7906:7920   */\n      lt\n        /* \"#utility.yul\":7886:7904   */\n      dup2\n        /* \"#utility.yul\":7883:7921   */\n      sub\n        /* \"#utility.yul\":7880:7964   */\n      tag_197\n      jumpi\n        /* \"#utility.yul\":7936:7954   */\n      tag_198\n      tag_95\n      jump\t// in\n    tag_198:\n        /* \"#utility.yul\":7880:7964   */\n    tag_197:\n        /* \"#utility.yul\":7701:7970   */\n      pop\n        /* \"#utility.yul\":7650:7970   */\n      swap2\n      swap1\n      pop\n      jump\t// out\n        /* \"#utility.yul\":7976:8117   */\n    tag_96:\n        /* \"#utility.yul\":8025:8029   */\n      0x00\n        /* \"#utility.yul\":8048:8051   */\n      dup2\n        /* \"#utility.yul\":8040:8051   */\n      swap1\n      pop\n        /* \"#utility.yul\":8071:8074   */\n      dup2\n        /* \"#utility.yul\":8068:8069   */\n      0x00\n        /* \"#utility.yul\":8061:8075   */\n      mstore\n        /* \"#utility.yul\":8105:8109   */\n      0x20\n        /* \"#utility.yul\":8102:8103   */\n      0x00\n        /* \"#utility.yul\":8092:8110   */\n      keccak256\n        /* \"#utility.yul\":8084:8110   */\n      swap1\n      pop\n        /* \"#utility.yul\":7976:8117   */\n      swap2\n      swap1\n      pop\n      jump\t// out\n        /* \"#utility.yul\":8123:8216   */\n    tag_97:\n        /* \"#utility.yul\":8160:8166   */\n      0x00\n        /* \"#utility.yul\":8207:8209   */\n      0x20\n        /* \"#utility.yul\":8202:8204   */\n      0x1f\n        /* \"#utility.yul\":8195:8200   */\n      dup4\n        /* \"#utility.yul\":8191:8205   */\n      add\n        /* \"#utility.yul\":8187:8210   */\n      div\n        /* \"#utility.yul\":8177:8210   */\n      swap1\n      pop\n        /* \"#utility.yul\":8123:8216   */\n      swap2\n      swap1\n      pop\n      jump\t// out\n        /* \"#utility.yul\":8222:8329   */\n    tag_98:\n        /* \"#utility.yul\":8266:8274   */\n      0x00\n        /* \"#utility.yul\":8316:8321   */\n      dup3\n        /* \"#utility.yul\":8310:8314   */\n      dup3\n        /* \"#utility.yul\":8306:8322   */\n      shl\n        /* \"#utility.yul\":8285:8322   */\n      swap1\n      pop\n        /* \"#utility.yul\":8222:8329   */\n      swap3\n      swap2\n      pop\n      pop\n      jump\t// out\n        /* \"#utility.yul\":8335:8728   */\n    tag_99:\n        /* \"#utility.yul\":8404:8410   */\n      0x00\n        /* \"#utility.yul\":8454:8455   */\n      0x08\n        /* \"#utility.yul\":8442:8452   */\n      dup4\n        /* \"#utility.yul\":8438:8456   */\n      mul\n        /* \"#utility.yul\":8477:8574   */\n      tag_203\n        /* \"#utility.yul\":8507:8573   */\n      0xffffffffffffffffffffffffffffffffffffffffffffffffffffffffffffffff\n        /* \"#utility.yul\":8496:8505   */\n      dup3\n        /* \"#utility.yul\":8477:8574   */\n      tag_98\n      jump\t// in\n    tag_203:\n        /* \"#utility.yul\":8595:8634   */\n      tag_204\n        /* \"#utility.yul\":8625:8633   */\n      dup7\n        /* \"#utility.yul\":8614:8623   */\n      dup4\n        /* \"#utility.yul\":8595:8634   */\n      tag_98\n      jump\t// in\n    tag_204:\n        /* \"#utility.yul\":8583:8634   */\n      swap6\n      pop\n        /* \"#utility.yul\":8667:8671   */\n      dup1\n        /* \"#utility.yul\":8663:8672   */\n      not\n        /* \"#utility.yul\":8656:8661   */\n      dup5\n        /* \"#utility.yul\":8652:8673   */\n      and\n        /* \"#utility.yul\":8643:8673   */\n      swap4\n      pop\n        /* \"#utility.yul\":8716:8720   */\n      dup1\n        /* \"#utility.yul\":8706:8714   */\n      dup7\n        /* \"#utility.yul\":8702:8721   */\n      and\n        /* \"#utility.yul\":8695:8700   */\n      dup5\n        /* \"#utility.yul\":8692:8722   */\n      or\n        /* \"#utility.yul\":8682:8722   */\n      swap3\n      pop\n        /* \"#utility.yul\":8411:8728   */\n      pop\n      pop\n        /* \"#utility.yul\":8335:8728   */\n      swap4\n      swap3\n      pop\n      pop\n      pop\n      jump\t// out\n        /* \"#utility.yul\":8734:8794   */\n    tag_100:\n        /* \"#utility.yul\":8762:8765   */\n      0x00\n        /* \"#utility.yul\":8783:8788   */\n      dup2\n        /* \"#utility.yul\":8776:8788   */\n      swap1\n      pop\n        /* \"#utility.yul\":8734:8794   */\n      swap2\n      swap1\n      pop\n      jump\t// out\n        /* \"#utility.yul\":8800:8942   */\n    tag_101:\n        /* \"#utility.yul\":8850:8859   */\n      0x00\n        /* \"#utility.yul\":8883:8936   */\n      tag_207\n        /* \"#utility.yul\":8901:8935   */\n      tag_208\n        /* \"#utility.yul\":8910:8934   */\n      tag_209\n        /* \"#utility.yul\":8928:8933   */\n      dup5\n        /* \"#utility.yul\":8910:8934   */\n      tag_75\n      jump\t// in\n    tag_209:\n        /* \"#utility.yul\":8901:8935   */\n      tag_100\n      jump\t// in\n    tag_208:\n        /* \"#utility.yul\":8883:8936   */\n      tag_75\n      jump\t// in\n    tag_207:\n        /* \"#utility.yul\":8870:8936   */\n      swap1\n      pop\n        /* \"#utility.yul\":8800:8942   */\n      swap2\n      swap1\n      pop\n      jump\t// out\n        /* \"#utility.yul\":8948:9023   */\n    tag_102:\n        /* \"#utility.yul\":8991:8994   */\n      0x00\n        /* \"#utility.yul\":9012:9017   */\n      dup2\n        /* \"#utility.yul\":9005:9017   */\n      swap1\n      pop\n        /* \"#utility.yul\":8948:9023   */\n      swap2\n      swap1\n      pop\n      jump\t// out\n        /* \"#utility.yul\":9029:9298   */\n    tag_103:\n        /* \"#utility.yul\":9139:9178   */\n      tag_212\n        /* \"#utility.yul\":9170:9177   */\n      dup4\n        /* \"#utility.yul\":9139:9178   */\n      tag_101\n      jump\t// in\n    tag_212:\n        /* \"#utility.yul\":9200:9291   */\n      tag_213\n        /* \"#utility.yul\":9249:9290   */\n      tag_214\n        /* \"#utility.yul\":9273:9289   */\n      dup3\n        /* \"#utility.yul\":9249:9290   */\n      tag_102\n      jump\t// in\n    tag_214:\n        /* \"#utility.yul\":9241:9247   */\n      dup5\n        /* \"#utility.yul\":9234:9238   */\n      dup5\n        /* \"#utility.yul\":9228:9239   */\n      sload\n        /* \"#utility.yul\":9200:9291   */\n      tag_99\n      jump\t// in\n    tag_213:\n        /* \"#utility.yul\":9194:9198   */\n      dup3\n        /* \"#utility.yul\":9187:9292   */\n      sstore\n        /* \"#utility.yul\":9105:9298   */\n      pop\n        /* \"#utility.yul\":9029:9298   */\n      pop\n      pop\n      pop\n      jump\t// out\n        /* \"#utility.yul\":9304:9377   */\n    tag_104:\n        /* \"#utility.yul\":9349:9352   */\n      0x00\n        /* \"#utility.yul\":9370:9371   */\n      0x00\n        /* \"#utility.yul\":9363:9371   */\n      swap1\n      pop\n        /* \"#utility.yul\":9304:9377   */\n      swap1\n      jump\t// out\n        /* \"#utility.yul\":9383:9572   */\n    tag_105:\n        /* \"#utility.yul\":9460:9492   */\n      tag_217\n      tag_104\n      jump\t// in\n    tag_217:\n        /* \"#utility.yul\":9501:9566   */\n      tag_218\n        /* \"#utility.yul\":9559:9565   */\n      dup2\n        /* \"#utility.yul\":9551:9557   */\n      dup5\n        /* \"#utility.yul\":9545:9549   */\n      dup5\n        /* \"#utility.yul\":9501:9566   */\n      tag_103\n      jump\t// in\n    tag_218:\n        /* \"#utility.yul\":9436:9572   */\n      pop\n        /* \"#utility.yul\":9383:9572   */\n      pop\n      pop\n      jump\t// out\n        /* \"#utility.yul\":9578:9792   */\n    tag_106:\n        /* \"#utility.yul\":9663:9664   */\n      0x00\n        /* \"#utility.yul\":9648:9786   */\n    tag_220:\n        /* \"#utility.yul\":9673:9682   */\n      dup3\n        /* \"#utility.yul\":9670:9671   */\n      dup2\n        /* \"#utility.yul\":9667:9683   */\n      lt\n        /* \"#utility.yul\":9648:9786   */\n      iszero\n      tag_222\n      jumpi\n        /* \"#utility.yul\":9725:9776   */\n      tag_223\n        /* \"#utility.yul\":9774:9775   */\n      0x00\n        /* \"#utility.yul\":9770:9771   */\n      dup3\n        /* \"#utility.yul\":9759:9768   */\n      dup5\n        /* \"#utility.yul\":9755:9772   */\n      add\n        /* \"#utility.yul\":9725:9776   */\n      tag_105\n      jump\t// in\n    tag_223:\n        /* \"#utility.yul\":9698:9699   */\n      0x01\n        /* \"#utility.yul\":9695:9696   */\n      dup2\n        /* \"#utility.yul\":9691:9700   */\n      add\n        /* \"#utility.yul\":9686:9700   */\n      swap1\n      pop\n        /* \"#utility.yul\":9648:9786   */\n      jump(tag_220)\n    tag_222:\n        /* \"#utility.yul\":9652:9666   */\n      pop\n        /* \"#utility.yul\":9578:9792   */\n      pop\n      pop\n      jump\t// out\n        /* \"#utility.yul\":9798:10544   */\n    tag_107:\n        /* \"#utility.yul\":9899:9901   */\n      0x1f\n        /* \"#utility.yul\":9894:9897   */\n      dup3\n        /* \"#utility.yul\":9891:9902   */\n      gt\n        /* \"#utility.yul\":9888:10537   */\n      iszero\n      tag_225\n      jumpi\n        /* \"#utility.yul\":9928:9938   */\n      dup3\n        /* \"#utility.yul\":9923:9926   */\n      dup3\n        /* \"#utility.yul\":9920:9939   */\n      gt\n        /* \"#utility.yul\":9917:10527   */\n      iszero\n      tag_226\n      jumpi\n        /* \"#utility.yul\":9974:10012   */\n      tag_227\n        /* \"#utility.yul\":10006:10011   */\n      dup2\n        /* \"#utility.yul\":9974:10012   */\n      tag_96\n      jump\t// in\n    tag_227:\n        /* \"#utility.yul\":10049:10071   */\n      tag_228\n        /* \"#utility.yul\":10067:10070   */\n      dup4\n        /* \"#utility.yul\":10049:10071   */\n      tag_97\n      jump\t// in\n    tag_228:\n        /* \"#utility.yul\":10108:10137   */\n      tag_229\n        /* \"#utility.yul\":10126:10136   */\n      dup6\n        /* \"#utility.yul\":10108:10137   */\n      tag_97\n      jump\t// in\n    tag_229:\n        /* \"#utility.yul\":10298:10300   */\n      0x20\n        /* \"#utility.yul\":10286:10296   */\n      dup7\n        /* \"#utility.yul\":10283:10301   */\n      lt\n        /* \"#utility.yul\":10280:10359   */\n      iszero\n      tag_230\n      jumpi\n        /* \"#utility.yul\":10340:10341   */\n      0x00\n        /* \"#utility.yul\":10324:10341   */\n      swap1\n      pop\n        /* \"#utility.yul\":10280:10359   */\n    tag_230:\n        /* \"#utility.yul\":10409:10421   */\n      dup1\n        /* \"#utility.yul\":10399:10407   */\n      dup4\n        /* \"#utility.yul\":10395:10422   */\n      add\n        /* \"#utility.yul\":10439:10513   */\n      tag_231\n        /* \"#utility.yul\":10499:10511   */\n      dup3\n        /* \"#utility.yul\":10485:10497   */\n      dup5\n        /* \"#utility.yul\":10481:10512   */\n      sub\n        /* \"#utility.yul\":10468:10479   */\n      dup3\n        /* \"#utility.yul\":10439:10513   */\n      tag_106\n      jump\t// in\n    tag_231:\n        /* \"#utility.yul\":9940:10527   */\n      pop\n      pop\n      pop\n      pop\n        /* \"#utility.yul\":9917:10527   */\n    tag_226:\n        /* \"#utility.yul\":9888:10537   */\n    tag_225:\n        /* \"#utility.yul\":9798:10544   */\n      pop\n      pop\n      pop\n      jump\t// out\n        /* \"#utility.yul\":10550:10667   */\n    tag_108:\n        /* \"#utility.yul\":10604:10612   */\n      0x00\n        /* \"#utility.yul\":10654:10659   */\n      dup3\n        /* \"#utility.yul\":10648:10652   */\n      dup3\n        /* \"#utility.yul\":10644:10660   */\n      shr\n        /* \"#utility.yul\":10623:10660   */\n      swap1\n      pop\n        /* \"#utility.yul\":10550:10667   */\n      swap3\n      swap2\n      pop\n      pop\n      jump\t// out\n        /* \"#utility.yul\":10673:10842   */\n    tag_109:\n        /* \"#utility.yul\":10717:10723   */\n      0x00\n        /* \"#utility.yul\":10750:10801   */\n      tag_234\n        /* \"#utility.yul\":10798:10799   */\n      0x00\n        /* \"#utility.yul\":10794:10800   */\n      not\n        /* \"#utility.yul\":10786:10791   */\n      dup5\n        /* \"#utility.yul\":10783:10784   */\n      0x08\n        /* \"#utility.yul\":10779:10792   */\n      mul\n        /* \"#utility.yul\":10750:10801   */\n      tag_108\n      jump\t// in\n    tag_234:\n        /* \"#utility.yul\":10746:10802   */\n      not\n        /* \"#utility.yul\":10831:10835   */\n      dup1\n        /* \"#utility.yul\":10825:10829   */\n      dup4\n        /* \"#utility.yul\":10821:10836   */\n      and\n        /* \"#utility.yul\":10811:10836   */\n      swap2\n      pop\n        /* \"#utility.yul\":10724:10842   */\n      pop\n        /* \"#utility.yul\":10673:10842   */\n      swap3\n      swap2\n      pop\n      pop\n      jump\t// out\n        /* \"#utility.yul\":10847:11142   */\n    tag_110:\n        /* \"#utility.yul\":10923:10927   */\n      0x00\n        /* \"#utility.yul\":11069:11098   */\n      tag_236\n        /* \"#utility.yul\":11094:11097   */\n      dup4\n        /* \"#utility.yul\":11088:11092   */\n      dup4\n        /* \"#utility.yul\":11069:11098   */\n      tag_109\n      jump\t// in\n    tag_236:\n        /* \"#utility.yul\":11061:11098   */\n      swap2\n      pop\n        /* \"#utility.yul\":11131:11134   */\n      dup3\n        /* \"#utility.yul\":11128:11129   */\n      0x02\n        /* \"#utility.yul\":11124:11135   */\n      mul\n        /* \"#utility.yul\":11118:11122   */\n      dup3\n        /* \"#utility.yul\":11115:11136   */\n      or\n        /* \"#utility.yul\":11107:11136   */\n      swap1\n      pop\n        /* \"#utility.yul\":10847:11142   */\n      swap3\n      swap2\n      pop\n      pop\n      jump\t// out\n        /* \"#utility.yul\":11147:12542   */\n    tag_63:\n        /* \"#utility.yul\":11264:11301   */\n      tag_238\n        /* \"#utility.yul\":11297:11300   */\n      dup3\n        /* \"#utility.yul\":11264:11301   */\n      tag_87\n      jump\t// in\n    tag_238:\n        /* \"#utility.yul\":11366:11384   */\n      0xffffffffffffffff\n        /* \"#utility.yul\":11358:11364   */\n      dup2\n        /* \"#utility.yul\":11355:11385   */\n      gt\n        /* \"#utility.yul\":11352:11408   */\n      iszero\n      tag_239\n      jumpi\n        /* \"#utility.yul\":11388:11406   */\n      tag_240\n      tag_94\n      jump\t// in\n    tag_240:\n        /* \"#utility.yul\":11352:11408   */\n    tag_239:\n        /* \"#utility.yul\":11432:11470   */\n      tag_241\n        /* \"#utility.yul\":11464:11468   */\n      dup3\n        /* \"#utility.yul\":11458:11469   */\n      sload\n        /* \"#utility.yul\":11432:11470   */\n      tag_65\n      jump\t// in\n    tag_241:\n        /* \"#utility.yul\":11517:11584   */\n      tag_242\n        /* \"#utility.yul\":11577:11583   */\n      dup3\n        /* \"#utility.yul\":11569:11575   */\n      dup3\n        /* \"#utility.yul\":11563:11567   */\n      dup6\n        /* \"#utility.yul\":11517:11584   */\n      tag_107\n      jump\t// in\n    tag_242:\n        /* \"#utility.yul\":11611:11612   */\n      0x00\n        /* \"#utility.yul\":11635:11639   */\n      0x20\n        /* \"#utility.yul\":11622:11639   */\n      swap1\n      pop\n        /* \"#utility.yul\":11667:11669   */\n      0x1f\n        /* \"#utility.yul\":11659:11665   */\n      dup4\n        /* \"#utility.yul\":11656:11670   */\n      gt\n        /* \"#utility.yul\":11684:11685   */\n      0x01\n        /* \"#utility.yul\":11679:12297   */\n      dup2\n      eq\n      tag_244\n      jumpi\n        /* \"#utility.yul\":12341:12342   */\n      0x00\n        /* \"#utility.yul\":12358:12364   */\n      dup5\n        /* \"#utility.yul\":12355:12432   */\n      iszero\n      tag_245\n      jumpi\n        /* \"#utility.yul\":12407:12416   */\n      dup3\n        /* \"#utility.yul\":12402:12405   */\n      dup8\n        /* \"#utility.yul\":12398:12417   */\n      add\n        /* \"#utility.yul\":12392:12418   */\n      mload\n        /* \"#utility.yul\":12383:12418   */\n      swap1\n      pop\n        /* \"#utility.yul\":12355:12432   */\n    tag_245:\n        /* \"#utility.yul\":12458:12525   */\n      tag_246\n        /* \"#utility.yul\":12518:12524   */\n      dup6\n        /* \"#utility.yul\":12511:12516   */\n      dup3\n        /* \"#utility.yul\":12458:12525   */\n      tag_110\n      jump\t// in\n    tag_246:\n        /* \"#utility.yul\":12452:12456   */\n      dup7\n        /* \"#utility.yul\":12445:12526   */\n      sstore\n        /* \"#utility.yul\":12314:12536   */\n      pop\n        /* \"#utility.yul\":11649:12536   */\n      jump(tag_243)\n        /* \"#utility.yul\":11679:12297   */\n    tag_244:\n        /* \"#utility.yul\":11731:11735   */\n      0x1f\n        /* \"#utility.yul\":11727:11736   */\n      not\n        /* \"#utility.yul\":11719:11725   */\n      dup5\n        /* \"#utility.yul\":11715:11737   */\n      and\n        /* \"#utility.yul\":11765:11802   */\n      tag_247\n        /* \"#utility.yul\":11797:11801   */\n      dup7\n        /* \"#utility.yul\":11765:11802   */\n      tag_96\n      jump\t// in\n    tag_247:\n        /* \"#utility.yul\":11824:11825   */\n      0x00\n        /* \"#utility.yul\":11838:12046   */\n    tag_248:\n        /* \"#utility.yul\":11852:11859   */\n      dup3\n        /* \"#utility.yul\":11849:11850   */\n      dup2\n        /* \"#utility.yul\":11846:11860   */\n      lt\n        /* \"#utility.yul\":11838:12046   */\n      iszero\n      tag_250\n      jumpi\n        /* \"#utility.yul\":11931:11940   */\n      dup5\n        /* \"#utility.yul\":11926:11929   */\n      dup10\n        /* \"#utility.yul\":11922:11941   */\n      add\n        /* \"#utility.yul\":11916:11942   */\n      mload\n        /* \"#utility.yul\":11908:11914   */\n      dup3\n        /* \"#utility.yul\":11901:11943   */\n      sstore\n        /* \"#utility.yul\":11982:11983   */\n      0x01\n        /* \"#utility.yul\":11974:11980   */\n      dup3\n        /* \"#utility.yul\":11970:11984   */\n      add\n        /* \"#utility.yul\":11960:11984   */\n      swap2\n      pop\n        /* \"#utility.yul\":12029:12031   */\n      0x20\n        /* \"#utility.yul\":12018:12027   */\n      dup6\n        /* \"#utility.yul\":12014:12032   */\n      add\n        /* \"#utility.yul\":12001:12032   */\n      swap5\n      pop\n        /* \"#utility.yul\":11875:11879   */\n      0x20\n        /* \"#utility.yul\":11872:11873   */\n      dup2\n        /* \"#utility.yul\":11868:11880   */\n      add\n        /* \"#utility.yul\":11863:11880   */\n      swap1\n      pop\n        /* \"#utility.yul\":11838:12046   */\n      jump(tag_248)\n    tag_250:\n        /* \"#utility.yul\":12074:12080   */\n      dup7\n        /* \"#utility.yul\":12065:12072   */\n      dup4\n        /* \"#utility.yul\":12062:12081   */\n      lt\n        /* \"#utility.yul\":12059:12238   */\n      iszero\n      tag_251\n      jumpi\n        /* \"#utility.yul\":12132:12141   */\n      dup5\n        /* \"#utility.yul\":12127:12130   */\n      dup10\n        /* \"#utility.yul\":12123:12142   */\n      add\n        /* \"#utility.yul\":12117:12143   */\n      mload\n        /* \"#utility.yul\":12175:12223   */\n      tag_252\n        /* \"#utility.yul\":12217:12221   */\n      0x1f\n        /* \"#utility.yul\":12209:12215   */\n      dup10\n        /* \"#utility.yul\":12205:12222   */\n      and\n        /* \"#utility.yul\":12194:12203   */\n      dup3\n        /* \"#utility.yul\":12175:12223   */\n      tag_109\n      jump\t// in\n    tag_252:\n        /* \"#utility.yul\":12167:12173   */\n      dup4\n        /* \"#utility.yul\":12160:12224   */\n      sstore\n        /* \"#utility.yul\":12082:12238   */\n      pop\n        /* \"#utility.yul\":12059:12238   */\n    tag_251:\n        /* \"#utility.yul\":12284:12285   */\n      0x01\n        /* \"#utility.yul\":12280:12281   */\n      0x02\n        /* \"#utility.yul\":12272:12278   */\n      dup9\n        /* \"#utility.yul\":12268:12282   */\n      mul\n        /* \"#utility.yul\":12264:12286   */\n      add\n        /* \"#utility.yul\":12258:12262   */\n      dup9\n        /* \"#utility.yul\":12251:12287   */\n      sstore\n        /* \"#utility.yul\":11686:12297   */\n      pop\n      pop\n      pop\n        /* \"#utility.yul\":11649:12536   */\n    tag_243:\n      pop\n        /* \"#utility.yul\":11239:12542   */\n      pop\n      pop\n      pop\n        /* \"#utility.yul\":11147:12542   */\n      pop\n      pop\n      jump\t// out\n    stop\n    data_f27a38662b0aa596971a009b08ee6bd2223c11726b566d02cdf2825b00e39e84 5468697320697320612076657279206c6f6e6720737472696e6720746861742077696c6c20646566696e6974656c79207472696767657220746865206c6f6e672073746f7261676520737472617465677921\n\n    auxdata: 0xa2646970667358221220b261589e23a1049f10ab98bad869ef837473fe3af2f91dacea7d9bb0ecdfd44364736f6c63430008220033\n}\n",
				"bytecode": {
					"linkReferences": {},
					"object": "60806040526faaaaaaaaaaaaaaaaaaaaaaaaaaaaaaaa5f5f6101000a8154816fffffffffffffffffffffffffffffffff02191690836fffffffffffffffffffffffffffffffff16021790555067bbbbbbbbbbbbbbbb5f60106101000a81548167ffffffffffffffff021916908367ffffffffffffffff16021790555063cccccccc5f60186101000a81548163ffffffff021916908363ffffffff1602179055506040518060400160405280600581526020017f53686f7274000000000000000000000000000000000000000000000000000000815250600190816100e39190610391565b503480156100ef575f5ffd5b5060026064908060018154018082558091505060019003905f5260205f20015f9091909190915055600260c8908060018154018082558091505060019003905f5260205f20015f9091909190915055610460565b5f81519050919050565b7f4e487b71000000000000000000000000000000000000000000000000000000005f52604160045260245ffd5b7f4e487b71000000000000000000000000000000000000000000000000000000005f52602260045260245ffd5b5f60028204905060018216806101be57607f821691505b6020821081036101d1576101d061017a565b5b50919050565b5f819050815f5260205f209050919050565b5f6020601f8301049050919050565b5f82821b905092915050565b5f600883026102337fffffffffffffffffffffffffffffffffffffffffffffffffffffffffffffffff826101f8565b61023d86836101f8565b95508019841693508086168417925050509392505050565b5f819050919050565b5f819050919050565b5f61028161027c61027784610255565b61025e565b610255565b9050919050565b5f819050919050565b61029a83610267565b6102ae6102a682610288565b848454610204565b825550505050565b5f5f905090565b6102c56102b6565b6102d0818484610291565b505050565b5f5b828110156102f6576102eb5f8284016102bd565b6001810190506102d7565b505050565b601f821115610349578282111561034857610315816101d7565b61031e836101e9565b610327856101e9565b6020861015610334575f90505b808301610343828403826102d5565b505050505b5b505050565b5f82821c905092915050565b5f6103695f198460080261034e565b1980831691505092915050565b5f610381838361035a565b9150826002028217905092915050565b61039a82610143565b67ffffffffffffffff8111156103b3576103b261014d565b5b6103bd82546101a7565b6103c88282856102fb565b5f60209050601f8311600181146103f9575f84156103e7578287015190505b6103f18582610376565b865550610458565b601f198416610407866101d7565b5f5b8281101561042e57848901518255600182019150602085019450602081019050610409565b8683101561044b5784890151610447601f89168261035a565b8355505b6001600288020188555050505b505050505050565b610c3b8061046d5f395ff3fe608060405234801561000f575f5ffd5b506004361061009c575f3560e01c80634f628d84116100645780634f628d84146101445780637284e4161461014e578063a87430ba1461016c578063c3da42b81461019e578063dd62ed3e146101bc5761009c565b80630dbe671f146100a05780632ee691a3146100be578063310ec4a7146100ee57806344638a4c1461010a5780634df7e3d014610126575b5f5ffd5b6100a86101ec565b6040516100b59190610540565b60405180910390f35b6100d860048036038101906100d39190610590565b61020c565b6040516100e591906105ca565b60405180910390f35b6101086004803603810190610103919061063d565b61022c565b005b610124600480360381019061011f91906106a5565b6102ad565b005b61012e6103b6565b60405161013b919061072b565b60405180910390f35b61014c6103cf565b005b6101566103f9565b60405161016391906107b4565b60405180910390f35b610186600480360381019061018191906107d4565b610485565b604051610195939291906107ff565b60405180910390f35b6101a66104e1565b6040516101b39190610852565b60405180910390f35b6101d660048036038101906101d1919061086b565b6104f6565b6040516101e391906105ca565b60405180910390f35b5f5f9054906101000a90046fffffffffffffffffffffffffffffffff1681565b6002818154811061021b575f80fd5b905f5260205f20015f915090505481565b8060035f3373ffffffffffffffffffffffffffffffffffffffff1673ffffffffffffffffffffffffffffffffffffffff1681526020019081526020015f205f8473ffffffffffffffffffffffffffffffffffffffff1673ffffffffffffffffffffffffffffffffffffffff1681526020019081526020015f20819055505050565b6040518060600160405280846fffffffffffffffffffffffffffffffff168152602001836fffffffffffffffffffffffffffffffff1681526020018281525060045f8673ffffffffffffffffffffffffffffffffffffffff1673ffffffffffffffffffffffffffffffffffffffff1681526020019081526020015f205f820151815f015f6101000a8154816fffffffffffffffffffffffffffffffff02191690836fffffffffffffffffffffffffffffffff1602179055506020820151815f0160106101000a8154816fffffffffffffffffffffffffffffffff02191690836fffffffffffffffffffffffffffffffff1602179055506040820151816001015590505050505050565b5f60109054906101000a900467ffffffffffffffff1681565b604051806080016040528060528152602001610bb460529139600190816103f69190610ae4565b50565b6001805461040690610903565b80601f016020809104026020016040519081016040528092919081815260200182805461043290610903565b801561047d5780601f106104545761010080835404028352916020019161047d565b820191905f5260205f20905b81548152906001019060200180831161046057829003601f168201915b505050505081565b6004602052805f5260405f205f91509050805f015f9054906101000a90046fffffffffffffffffffffffffffffffff1690805f0160109054906101000a90046fffffffffffffffffffffffffffffffff16908060010154905083565b5f60189054906101000a900463ffffffff1681565b6003602052815f5260405f20602052805f5260405f205f91509150505481565b5f6fffffffffffffffffffffffffffffffff82169050919050565b61053a81610516565b82525050565b5f6020820190506105535f830184610531565b92915050565b5f5ffd5b5f819050919050565b61056f8161055d565b8114610579575f5ffd5b50565b5f8135905061058a81610566565b92915050565b5f602082840312156105a5576105a4610559565b5b5f6105b28482850161057c565b91505092915050565b6105c48161055d565b82525050565b5f6020820190506105dd5f8301846105bb565b92915050565b5f73ffffffffffffffffffffffffffffffffffffffff82169050919050565b5f61060c826105e3565b9050919050565b61061c81610602565b8114610626575f5ffd5b50565b5f8135905061063781610613565b92915050565b5f5f6040838503121561065357610652610559565b5b5f61066085828601610629565b92505060206106718582860161057c565b9150509250929050565b61068481610516565b811461068e575f5ffd5b50565b5f8135905061069f8161067b565b92915050565b5f5f5f5f608085870312156106bd576106bc610559565b5b5f6106ca87828801610629565b94505060206106db87828801610691565b93505060406106ec87828801610691565b92505060606106fd8782880161057c565b91505092959194509250565b5f67ffffffffffffffff82169050919050565b61072581610709565b82525050565b5f60208201905061073e5f83018461071c565b92915050565b5f81519050919050565b5f82825260208201905092915050565b8281835e5f83830152505050565b5f601f19601f8301169050919050565b5f61078682610744565b610790818561074e565b93506107a081856020860161075e565b6107a98161076c565b840191505092915050565b5f6020820190508181035f8301526107cc818461077c565b905092915050565b5f602082840312156107e9576107e8610559565b5b5f6107f684828501610629565b91505092915050565b5f6060820190506108125f830186610531565b61081f6020830185610531565b61082c60408301846105bb565b949350505050565b5f63ffffffff82169050919050565b61084c81610834565b82525050565b5f6020820190506108655f830184610843565b92915050565b5f5f6040838503121561088157610880610559565b5b5f61088e85828601610629565b925050602061089f85828601610629565b9150509250929050565b7f4e487b71000000000000000000000000000000000000000000000000000000005f52604160045260245ffd5b7f4e487b71000000000000000000000000000000000000000000000000000000005f52602260045260245ffd5b5f600282049050600182168061091a57607f821691505b60208210810361092d5761092c6108d6565b5b50919050565b5f819050815f5260205f209050919050565b5f6020601f8301049050919050565b5f82821b905092915050565b5f6008830261098f7fffffffffffffffffffffffffffffffffffffffffffffffffffffffffffffffff82610954565b6109998683610954565b95508019841693508086168417925050509392505050565b5f819050919050565b5f6109d46109cf6109ca8461055d565b6109b1565b61055d565b9050919050565b5f819050919050565b6109ed836109ba565b610a016109f9826109db565b848454610960565b825550505050565b5f5f905090565b610a18610a09565b610a238184846109e4565b505050565b5f5b82811015610a4957610a3e5f828401610a10565b600181019050610a2a565b505050565b601f821115610a9c5782821115610a9b57610a6881610933565b610a7183610945565b610a7a85610945565b6020861015610a87575f90505b808301610a9682840382610a28565b505050505b5b505050565b5f82821c905092915050565b5f610abc5f1984600802610aa1565b1980831691505092915050565b5f610ad48383610aad565b9150826002028217905092915050565b610aed82610744565b67ffffffffffffffff811115610b0657610b056108a9565b5b610b108254610903565b610b1b828285610a4e565b5f60209050601f831160018114610b4c575f8415610b3a578287015190505b610b448582610ac9565b865550610bab565b601f198416610b5a86610933565b5f5b82811015610b8157848901518255600182019150602085019450602081019050610b5c565b86831015610b9e5784890151610b9a601f891682610aad565b8355505b6001600288020188555050505b50505050505056fe5468697320697320612076657279206c6f6e6720737472696e6720746861742077696c6c20646566696e6974656c79207472696767657220746865206c6f6e672073746f7261676520737472617465677921a2646970667358221220b261589e23a1049f10ab98bad869ef837473fe3af2f91dacea7d9bb0ecdfd44364736f6c63430008220033",
					"opcodes": "PUSH1 0x80 PUSH1 0x40 MSTORE PUSH16 0xAAAAAAAAAAAAAAAAAAAAAAAAAAAAAAAA PUSH0 PUSH0 PUSH2 0x100 EXP DUP2 SLOAD DUP2 PUSH16 0xFFFFFFFFFFFFFFFFFFFFFFFFFFFFFFFF MUL NOT AND SWAP1 DUP4 PUSH16 0xFFFFFFFFFFFFFFFFFFFFFFFFFFFFFFFF AND MUL OR SWAP1 SSTORE POP PUSH8 0xBBBBBBBBBBBBBBBB PUSH0 PUSH1 0x10 PUSH2 0x100 EXP DUP2 SLOAD DUP2 PUSH8 0xFFFFFFFFFFFFFFFF MUL NOT AND SWAP1 DUP4 PUSH8 0xFFFFFFFFFFFFFFFF AND MUL OR SWAP1 SSTORE POP PUSH4 0xCCCCCCCC PUSH0 PUSH1 0x18 PUSH2 0x100 EXP DUP2 SLOAD DUP2 PUSH4 0xFFFFFFFF MUL NOT AND SWAP1 DUP4 PUSH4 0xFFFFFFFF AND MUL OR SWAP1 SSTORE POP PUSH1 0x40 MLOAD DUP1 PUSH1 0x40 ADD PUSH1 0x40 MSTORE DUP1 PUSH1 0x5 DUP2 MSTORE PUSH1 0x20 ADD PUSH32 0x53686F7274000000000000000000000000000000000000000000000000000000 DUP2 MSTORE POP PUSH1 0x1 SWAP1 DUP2 PUSH2 0xE3 SWAP2 SWAP1 PUSH2 0x391 JUMP JUMPDEST POP CALLVALUE DUP1 ISZERO PUSH2 0xEF JUMPI PUSH0 PUSH0 REVERT JUMPDEST POP PUSH1 0x2 PUSH1 0x64 SWAP1 DUP1 PUSH1 0x1 DUP2 SLOAD ADD DUP1 DUP3 SSTORE DUP1 SWAP2 POP POP PUSH1 0x1 SWAP1 SUB SWAP1 PUSH0 MSTORE PUSH1 0x20 PUSH0 KECCAK256 ADD PUSH0 SWAP1 SWAP2 SWAP1 SWAP2 SWAP1 SWAP2 POP SSTORE PUSH1 0x2 PUSH1 0xC8 SWAP1 DUP1 PUSH1 0x1 DUP2 SLOAD ADD DUP1 DUP3 SSTORE DUP1 SWAP2 POP POP PUSH1 0x1 SWAP1 SUB SWAP1 PUSH0 MSTORE PUSH1 0x20 PUSH0 KECCAK256 ADD PUSH0 SWAP1 SWAP2 SWAP1 SWAP2 SWAP1 SWAP2 POP SSTORE PUSH2 0x460 JUMP JUMPDEST PUSH0 DUP2 MLOAD SWAP1 POP SWAP2 SWAP1 POP JUMP JUMPDEST PUSH32 0x4E487B7100000000000000000000000000000000000000000000000000000000 PUSH0 MSTORE PUSH1 0x41 PUSH1 0x4 MSTORE PUSH1 0x24 PUSH0 REVERT JUMPDEST PUSH32 0x4E487B7100000000000000000000000000000000000000000000000000000000 PUSH0 MSTORE PUSH1 0x22 PUSH1 0x4 MSTORE PUSH1 0x24 PUSH0 REVERT JUMPDEST PUSH0 PUSH1 0x2 DUP3 DIV SWAP1 POP PUSH1 0x1 DUP3 AND DUP1 PUSH2 0x1BE JUMPI PUSH1 0x7F DUP3 AND SWAP2 POP JUMPDEST PUSH1 0x20 DUP3 LT DUP2 SUB PUSH2 0x1D1 JUMPI PUSH2 0x1D0 PUSH2 0x17A JUMP JUMPDEST JUMPDEST POP SWAP2 SWAP1 POP JUMP JUMPDEST PUSH0 DUP2 SWAP1 POP DUP2 PUSH0 MSTORE PUSH1 0x20 PUSH0 KECCAK256 SWAP1 POP SWAP2 SWAP1 POP JUMP JUMPDEST PUSH0 PUSH1 0x20 PUSH1 0x1F DUP4 ADD DIV SWAP1 POP SWAP2 SWAP1 POP JUMP JUMPDEST PUSH0 DUP3 DUP3 SHL SWAP1 POP SWAP3 SWAP2 POP POP JUMP JUMPDEST PUSH0 PUSH1 0x8 DUP4 MUL PUSH2 0x233 PUSH32 0xFFFFFFFFFFFFFFFFFFFFFFFFFFFFFFFFFFFFFFFFFFFFFFFFFFFFFFFFFFFFFFFF DUP3 PUSH2 0x1F8 JUMP JUMPDEST PUSH2 0x23D DUP7 DUP4 PUSH2 0x1F8 JUMP JUMPDEST SWAP6 POP DUP1 NOT DUP5 AND SWAP4 POP DUP1 DUP7 AND DUP5 OR SWAP3 POP POP POP SWAP4 SWAP3 POP POP POP JUMP JUMPDEST PUSH0 DUP2 SWAP1 POP SWAP2 SWAP1 POP JUMP JUMPDEST PUSH0 DUP2 SWAP1 POP SWAP2 SWAP1 POP JUMP JUMPDEST PUSH0 PUSH2 0x281 PUSH2 0x27C PUSH2 0x277 DUP5 PUSH2 0x255 JUMP JUMPDEST PUSH2 0x25E JUMP JUMPDEST PUSH2 0x255 JUMP JUMPDEST SWAP1 POP SWAP2 SWAP1 POP JUMP JUMPDEST PUSH0 DUP2 SWAP1 POP SWAP2 SWAP1 POP JUMP JUMPDEST PUSH2 0x29A DUP4 PUSH2 0x267 JUMP JUMPDEST PUSH2 0x2AE PUSH2 0x2A6 DUP3 PUSH2 0x288 JUMP JUMPDEST DUP5 DUP5 SLOAD PUSH2 0x204 JUMP JUMPDEST DUP3 SSTORE POP POP POP POP JUMP JUMPDEST PUSH0 PUSH0 SWAP1 POP SWAP1 JUMP JUMPDEST PUSH2 0x2C5 PUSH2 0x2B6 JUMP JUMPDEST PUSH2 0x2D0 DUP2 DUP5 DUP5 PUSH2 0x291 JUMP JUMPDEST POP POP POP JUMP JUMPDEST PUSH0 JUMPDEST DUP3 DUP2 LT ISZERO PUSH2 0x2F6 JUMPI PUSH2 0x2EB PUSH0 DUP3 DUP5 ADD PUSH2 0x2BD JUMP JUMPDEST PUSH1 0x1 DUP2 ADD SWAP1 POP PUSH2 0x2D7 JUMP JUMPDEST POP POP POP JUMP JUMPDEST PUSH1 0x1F DUP3 GT ISZERO PUSH2 0x349 JUMPI DUP3 DUP3 GT ISZERO PUSH2 0x348 JUMPI PUSH2 0x315 DUP2 PUSH2 0x1D7 JUMP JUMPDEST PUSH2 0x31E DUP4 PUSH2 0x1E9 JUMP JUMPDEST PUSH2 0x327 DUP6 PUSH2 0x1E9 JUMP JUMPDEST PUSH1 0x20 DUP7 LT ISZERO PUSH2 0x334 JUMPI PUSH0 SWAP1 POP JUMPDEST DUP1 DUP4 ADD PUSH2 0x343 DUP3 DUP5 SUB DUP3 PUSH2 0x2D5 JUMP JUMPDEST POP POP POP POP JUMPDEST JUMPDEST POP POP POP JUMP JUMPDEST PUSH0 DUP3 DUP3 SHR SWAP1 POP SWAP3 SWAP2 POP POP JUMP JUMPDEST PUSH0 PUSH2 0x369 PUSH0 NOT DUP5 PUSH1 0x8 MUL PUSH2 0x34E JUMP JUMPDEST NOT DUP1 DUP4 AND SWAP2 POP POP SWAP3 SWAP2 POP POP JUMP JUMPDEST PUSH0 PUSH2 0x381 DUP4 DUP4 PUSH2 0x35A JUMP JUMPDEST SWAP2 POP DUP3 PUSH1 0x2 MUL DUP3 OR SWAP1 POP SWAP3 SWAP2 POP POP JUMP JUMPDEST PUSH2 0x39A DUP3 PUSH2 0x143 JUMP JUMPDEST PUSH8 0xFFFFFFFFFFFFFFFF DUP2 GT ISZERO PUSH2 0x3B3 JUMPI PUSH2 0x3B2 PUSH2 0x14D JUMP JUMPDEST JUMPDEST PUSH2 0x3BD DUP3 SLOAD PUSH2 0x1A7 JUMP JUMPDEST PUSH2 0x3C8 DUP3 DUP3 DUP6 PUSH2 0x2FB JUMP JUMPDEST PUSH0 PUSH1 0x20 SWAP1 POP PUSH1 0x1F DUP4 GT PUSH1 0x1 DUP2 EQ PUSH2 0x3F9 JUMPI PUSH0 DUP5 ISZERO PUSH2 0x3E7 JUMPI DUP3 DUP8 ADD MLOAD SWAP1 POP JUMPDEST PUSH2 0x3F1 DUP6 DUP3 PUSH2 0x376 JUMP JUMPDEST DUP7 SSTORE POP PUSH2 0x458 JUMP JUMPDEST PUSH1 0x1F NOT DUP5 AND PUSH2 0x407 DUP7 PUSH2 0x1D7 JUMP JUMPDEST PUSH0 JUMPDEST DUP3 DUP2 LT ISZERO PUSH2 0x42E JUMPI DUP5 DUP10 ADD MLOAD DUP3 SSTORE PUSH1 0x1 DUP3 ADD SWAP2 POP PUSH1 0x20 DUP6 ADD SWAP5 POP PUSH1 0x20 DUP2 ADD SWAP1 POP PUSH2 0x409 JUMP JUMPDEST DUP7 DUP4 LT ISZERO PUSH2 0x44B JUMPI DUP5 DUP10 ADD MLOAD PUSH2 0x447 PUSH1 0x1F DUP10 AND DUP3 PUSH2 0x35A JUMP JUMPDEST DUP4 SSTORE POP JUMPDEST PUSH1 0x1 PUSH1 0x2 DUP9 MUL ADD DUP9 SSTORE POP POP POP JUMPDEST POP POP POP POP POP POP JUMP JUMPDEST PUSH2 0xC3B DUP1 PUSH2 0x46D PUSH0 CODECOPY PUSH0 RETURN INVALID PUSH1 0x80 PUSH1 0x40 MSTORE CALLVALUE DUP1 ISZERO PUSH2 0xF JUMPI PUSH0 PUSH0 REVERT JUMPDEST POP PUSH1 0x4 CALLDATASIZE LT PUSH2 0x9C JUMPI PUSH0 CALLDATALOAD PUSH1 0xE0 SHR DUP1 PUSH4 0x4F628D84 GT PUSH2 0x64 JUMPI DUP1 PUSH4 0x4F628D84 EQ PUSH2 0x144 JUMPI DUP1 PUSH4 0x7284E416 EQ PUSH2 0x14E JUMPI DUP1 PUSH4 0xA87430BA EQ PUSH2 0x16C JUMPI DUP1 PUSH4 0xC3DA42B8 EQ PUSH2 0x19E JUMPI DUP1 PUSH4 0xDD62ED3E EQ PUSH2 0x1BC JUMPI PUSH2 0x9C JUMP JUMPDEST DUP1 PUSH4 0xDBE671F EQ PUSH2 0xA0 JUMPI DUP1 PUSH4 0x2EE691A3 EQ PUSH2 0xBE JUMPI DUP1 PUSH4 0x310EC4A7 EQ PUSH2 0xEE JUMPI DUP1 PUSH4 0x44638A4C EQ PUSH2 0x10A JUMPI DUP1 PUSH4 0x4DF7E3D0 EQ PUSH2 0x126 JUMPI JUMPDEST PUSH0 PUSH0 REVERT JUMPDEST PUSH2 0xA8 PUSH2 0x1EC JUMP JUMPDEST PUSH1 0x40 MLOAD PUSH2 0xB5 SWAP2 SWAP1 PUSH2 0x540 JUMP JUMPDEST PUSH1 0x40 MLOAD DUP1 SWAP2 SUB SWAP1 RETURN JUMPDEST PUSH2 0xD8 PUSH1 0x4 DUP1 CALLDATASIZE SUB DUP2 ADD SWAP1 PUSH2 0xD3 SWAP2 SWAP1 PUSH2 0x590 JUMP JUMPDEST PUSH2 0x20C JUMP JUMPDEST PUSH1 0x40 MLOAD PUSH2 0xE5 SWAP2 SWAP1 PUSH2 0x5CA JUMP JUMPDEST PUSH1 0x40 MLOAD DUP1 SWAP2 SUB SWAP1 RETURN JUMPDEST PUSH2 0x108 PUSH1 0x4 DUP1 CALLDATASIZE SUB DUP2 ADD SWAP1 PUSH2 0x103 SWAP2 SWAP1 PUSH2 0x63D JUMP JUMPDEST PUSH2 0x22C JUMP JUMPDEST STOP JUMPDEST PUSH2 0x124 PUSH1 0x4 DUP1 CALLDATASIZE SUB DUP2 ADD SWAP1 PUSH2 0x11F SWAP2 SWAP1 PUSH2 0x6A5 JUMP JUMPDEST PUSH2 0x2AD JUMP JUMPDEST STOP JUMPDEST PUSH2 0x12E PUSH2 0x3B6 JUMP JUMPDEST PUSH1 0x40 MLOAD PUSH2 0x13B SWAP2 SWAP1 PUSH2 0x72B JUMP JUMPDEST PUSH1 0x40 MLOAD DUP1 SWAP2 SUB SWAP1 RETURN JUMPDEST PUSH2 0x14C PUSH2 0x3CF JUMP JUMPDEST STOP JUMPDEST PUSH2 0x156 PUSH2 0x3F9 JUMP JUMPDEST PUSH1 0x40 MLOAD PUSH2 0x163 SWAP2 SWAP1 PUSH2 0x7B4 JUMP JUMPDEST PUSH1 0x40 MLOAD DUP1 SWAP2 SUB SWAP1 RETURN JUMPDEST PUSH2 0x186 PUSH1 0x4 DUP1 CALLDATASIZE SUB DUP2 ADD SWAP1 PUSH2 0x181 SWAP2 SWAP1 PUSH2 0x7D4 JUMP JUMPDEST PUSH2 0x485 JUMP JUMPDEST PUSH1 0x40 MLOAD PUSH2 0x195 SWAP4 SWAP3 SWAP2 SWAP1 PUSH2 0x7FF JUMP JUMPDEST PUSH1 0x40 MLOAD DUP1 SWAP2 SUB SWAP1 RETURN JUMPDEST PUSH2 0x1A6 PUSH2 0x4E1 JUMP JUMPDEST PUSH1 0x40 MLOAD PUSH2 0x1B3 SWAP2 SWAP1 PUSH2 0x852 JUMP JUMPDEST PUSH1 0x40 MLOAD DUP1 SWAP2 SUB SWAP1 RETURN JUMPDEST PUSH2 0x1D6 PUSH1 0x4 DUP1 CALLDATASIZE SUB DUP2 ADD SWAP1 PUSH2 0x1D1 SWAP2 SWAP1 PUSH2 0x86B JUMP JUMPDEST PUSH2 0x4F6 JUMP JUMPDEST PUSH1 0x40 MLOAD PUSH2 0x1E3 SWAP2 SWAP1 PUSH2 0x5CA JUMP JUMPDEST PUSH1 0x40 MLOAD DUP1 SWAP2 SUB SWAP1 RETURN JUMPDEST PUSH0 PUSH0 SWAP1 SLOAD SWAP1 PUSH2 0x100 EXP SWAP1 DIV PUSH16 0xFFFFFFFFFFFFFFFFFFFFFFFFFFFFFFFF AND DUP2 JUMP JUMPDEST PUSH1 0x2 DUP2 DUP2 SLOAD DUP2 LT PUSH2 0x21B JUMPI PUSH0 DUP1 REVERT JUMPDEST SWAP1 PUSH0 MSTORE PUSH1 0x20 PUSH0 KECCAK256 ADD PUSH0 SWAP2 POP SWAP1 POP SLOAD DUP2 JUMP JUMPDEST DUP1 PUSH1 0x3 PUSH0 CALLER PUSH20 0xFFFFFFFFFFFFFFFFFFFFFFFFFFFFFFFFFFFFFFFF AND PUSH20 0xFFFFFFFFFFFFFFFFFFFFFFFFFFFFFFFFFFFFFFFF AND DUP2 MSTORE PUSH1 0x20 ADD SWAP1 DUP2 MSTORE PUSH1 0x20 ADD PUSH0 KECCAK256 PUSH0 DUP5 PUSH20 0xFFFFFFFFFFFFFFFFFFFFFFFFFFFFFFFFFFFFFFFF AND PUSH20 0xFFFFFFFFFFFFFFFFFFFFFFFFFFFFFFFFFFFFFFFF AND DUP2 MSTORE PUSH1 0x20 ADD SWAP1 DUP2 MSTORE PUSH1 0x20 ADD PUSH0 KECCAK256 DUP2 SWAP1 SSTORE POP POP POP JUMP JUMPDEST PUSH1 0x40 MLOAD DUP1 PUSH1 0x60 ADD PUSH1 0x40 MSTORE DUP1 DUP5 PUSH16 0xFFFFFFFFFFFFFFFFFFFFFFFFFFFFFFFF AND DUP2 MSTORE PUSH1 0x20 ADD DUP4 PUSH16 0xFFFFFFFFFFFFFFFFFFFFFFFFFFFFFFFF AND DUP2 MSTORE PUSH1 0x20 ADD DUP3 DUP2 MSTORE POP PUSH1 0x4 PUSH0 DUP7 PUSH20 0xFFFFFFFFFFFFFFFFFFFFFFFFFFFFFFFFFFFFFFFF AND PUSH20 0xFFFFFFFFFFFFFFFFFFFFFFFFFFFFFFFFFFFFFFFF AND DUP2 MSTORE PUSH1 0x20 ADD SWAP1 DUP2 MSTORE PUSH1 0x20 ADD PUSH0 KECCAK256 PUSH0 DUP3 ADD MLOAD DUP2 PUSH0 ADD PUSH0 PUSH2 0x100 EXP DUP2 SLOAD DUP2 PUSH16 0xFFFFFFFFFFFFFFFFFFFFFFFFFFFFFFFF MUL NOT AND SWAP1 DUP4 PUSH16 0xFFFFFFFFFFFFFFFFFFFFFFFFFFFFFFFF AND MUL OR SWAP1 SSTORE POP PUSH1 0x20 DUP3 ADD MLOAD DUP2 PUSH0 ADD PUSH1 0x10 PUSH2 0x100 EXP DUP2 SLOAD DUP2 PUSH16 0xFFFFFFFFFFFFFFFFFFFFFFFFFFFFFFFF MUL NOT AND SWAP1 DUP4 PUSH16 0xFFFFFFFFFFFFFFFFFFFFFFFFFFFFFFFF AND MUL OR SWAP1 SSTORE POP PUSH1 0x40 DUP3 ADD MLOAD DUP2 PUSH1 0x1 ADD SSTORE SWAP1 POP POP POP POP POP POP JUMP JUMPDEST PUSH0 PUSH1 0x10 SWAP1 SLOAD SWAP1 PUSH2 0x100 EXP SWAP1 DIV PUSH8 0xFFFFFFFFFFFFFFFF AND DUP2 JUMP JUMPDEST PUSH1 0x40 MLOAD DUP1 PUSH1 0x80 ADD PUSH1 0x40 MSTORE DUP1 PUSH1 0x52 DUP2 MSTORE PUSH1 0x20 ADD PUSH2 0xBB4 PUSH1 0x52 SWAP2 CODECOPY PUSH1 0x1 SWAP1 DUP2 PUSH2 0x3F6 SWAP2 SWAP1 PUSH2 0xAE4 JUMP JUMPDEST POP JUMP JUMPDEST PUSH1 0x1 DUP1 SLOAD PUSH2 0x406 SWAP1 PUSH2 0x903 JUMP JUMPDEST DUP1 PUSH1 0x1F ADD PUSH1 0x20 DUP1 SWAP2 DIV MUL PUSH1 0x20 ADD PUSH1 0x40 MLOAD SWAP1 DUP2 ADD PUSH1 0x40 MSTORE DUP1 SWAP3 SWAP2 SWAP1 DUP2 DUP2 MSTORE PUSH1 0x20 ADD DUP3 DUP1 SLOAD PUSH2 0x432 SWAP1 PUSH2 0x903 JUMP JUMPDEST DUP1 ISZERO PUSH2 0x47D JUMPI DUP1 PUSH1 0x1F LT PUSH2 0x454 JUMPI PUSH2 0x100 DUP1 DUP4 SLOAD DIV MUL DUP4 MSTORE SWAP2 PUSH1 0x20 ADD SWAP2 PUSH2 0x47D JUMP JUMPDEST DUP3 ADD SWAP2 SWAP1 PUSH0 MSTORE PUSH1 0x20 PUSH0 KECCAK256 SWAP1 JUMPDEST DUP2 SLOAD DUP2 MSTORE SWAP1 PUSH1 0x1 ADD SWAP1 PUSH1 0x20 ADD DUP1 DUP4 GT PUSH2 0x460 JUMPI DUP3 SWAP1 SUB PUSH1 0x1F AND DUP3 ADD SWAP2 JUMPDEST POP POP POP POP POP DUP2 JUMP JUMPDEST PUSH1 0x4 PUSH1 0x20 MSTORE DUP1 PUSH0 MSTORE PUSH1 0x40 PUSH0 KECCAK256 PUSH0 SWAP2 POP SWAP1 POP DUP1 PUSH0 ADD PUSH0 SWAP1 SLOAD SWAP1 PUSH2 0x100 EXP SWAP1 DIV PUSH16 0xFFFFFFFFFFFFFFFFFFFFFFFFFFFFFFFF AND SWAP1 DUP1 PUSH0 ADD PUSH1 0x10 SWAP1 SLOAD SWAP1 PUSH2 0x100 EXP SWAP1 DIV PUSH16 0xFFFFFFFFFFFFFFFFFFFFFFFFFFFFFFFF AND SWAP1 DUP1 PUSH1 0x1 ADD SLOAD SWAP1 POP DUP4 JUMP JUMPDEST PUSH0 PUSH1 0x18 SWAP1 SLOAD SWAP1 PUSH2 0x100 EXP SWAP1 DIV PUSH4 0xFFFFFFFF AND DUP2 JUMP JUMPDEST PUSH1 0x3 PUSH1 0x20 MSTORE DUP2 PUSH0 MSTORE PUSH1 0x40 PUSH0 KECCAK256 PUSH1 0x20 MSTORE DUP1 PUSH0 MSTORE PUSH1 0x40 PUSH0 KECCAK256 PUSH0 SWAP2 POP SWAP2 POP POP SLOAD DUP2 JUMP JUMPDEST PUSH0 PUSH16 0xFFFFFFFFFFFFFFFFFFFFFFFFFFFFFFFF DUP3 AND SWAP1 POP SWAP2 SWAP1 POP JUMP JUMPDEST PUSH2 0x53A DUP2 PUSH2 0x516 JUMP JUMPDEST DUP3 MSTORE POP POP JUMP JUMPDEST PUSH0 PUSH1 0x20 DUP3 ADD SWAP1 POP PUSH2 0x553 PUSH0 DUP4 ADD DUP5 PUSH2 0x531 JUMP JUMPDEST SWAP3 SWAP2 POP POP JUMP JUMPDEST PUSH0 PUSH0 REVERT JUMPDEST PUSH0 DUP2 SWAP1 POP SWAP2 SWAP1 POP JUMP JUMPDEST PUSH2 0x56F DUP2 PUSH2 0x55D JUMP JUMPDEST DUP2 EQ PUSH2 0x579 JUMPI PUSH0 PUSH0 REVERT JUMPDEST POP JUMP JUMPDEST PUSH0 DUP2 CALLDATALOAD SWAP1 POP PUSH2 0x58A DUP2 PUSH2 0x566 JUMP JUMPDEST SWAP3 SWAP2 POP POP JUMP JUMPDEST PUSH0 PUSH1 0x20 DUP3 DUP5 SUB SLT ISZERO PUSH2 0x5A5 JUMPI PUSH2 0x5A4 PUSH2 0x559 JUMP JUMPDEST JUMPDEST PUSH0 PUSH2 0x5B2 DUP5 DUP3 DUP6 ADD PUSH2 0x57C JUMP JUMPDEST SWAP2 POP POP SWAP3 SWAP2 POP POP JUMP JUMPDEST PUSH2 0x5C4 DUP2 PUSH2 0x55D JUMP JUMPDEST DUP3 MSTORE POP POP JUMP JUMPDEST PUSH0 PUSH1 0x20 DUP3 ADD SWAP1 POP PUSH2 0x5DD PUSH0 DUP4 ADD DUP5 PUSH2 0x5BB JUMP JUMPDEST SWAP3 SWAP2 POP POP JUMP JUMPDEST PUSH0 PUSH20 0xFFFFFFFFFFFFFFFFFFFFFFFFFFFFFFFFFFFFFFFF DUP3 AND SWAP1 POP SWAP2 SWAP1 POP JUMP JUMPDEST PUSH0 PUSH2 0x60C DUP3 PUSH2 0x5E3 JUMP JUMPDEST SWAP1 POP SWAP2 SWAP1 POP JUMP JUMPDEST PUSH2 0x61C DUP2 PUSH2 0x602 JUMP JUMPDEST DUP2 EQ PUSH2 0x626 JUMPI PUSH0 PUSH0 REVERT JUMPDEST POP JUMP JUMPDEST PUSH0 DUP2 CALLDATALOAD SWAP1 POP PUSH2 0x637 DUP2 PUSH2 0x613 JUMP JUMPDEST SWAP3 SWAP2 POP POP JUMP JUMPDEST PUSH0 PUSH0 PUSH1 0x40 DUP4 DUP6 SUB SLT ISZERO PUSH2 0x653 JUMPI PUSH2 0x652 PUSH2 0x559 JUMP JUMPDEST JUMPDEST PUSH0 PUSH2 0x660 DUP6 DUP3 DUP7 ADD PUSH2 0x629 JUMP JUMPDEST SWAP3 POP POP PUSH1 0x20 PUSH2 0x671 DUP6 DUP3 DUP7 ADD PUSH2 0x57C JUMP JUMPDEST SWAP2 POP POP SWAP3 POP SWAP3 SWAP1 POP JUMP JUMPDEST PUSH2 0x684 DUP2 PUSH2 0x516 JUMP JUMPDEST DUP2 EQ PUSH2 0x68E JUMPI PUSH0 PUSH0 REVERT JUMPDEST POP JUMP JUMPDEST PUSH0 DUP2 CALLDATALOAD SWAP1 POP PUSH2 0x69F DUP2 PUSH2 0x67B JUMP JUMPDEST SWAP3 SWAP2 POP POP JUMP JUMPDEST PUSH0 PUSH0 PUSH0 PUSH0 PUSH1 0x80 DUP6 DUP8 SUB SLT ISZERO PUSH2 0x6BD JUMPI PUSH2 0x6BC PUSH2 0x559 JUMP JUMPDEST JUMPDEST PUSH0 PUSH2 0x6CA DUP8 DUP3 DUP9 ADD PUSH2 0x629 JUMP JUMPDEST SWAP5 POP POP PUSH1 0x20 PUSH2 0x6DB DUP8 DUP3 DUP9 ADD PUSH2 0x691 JUMP JUMPDEST SWAP4 POP POP PUSH1 0x40 PUSH2 0x6EC DUP8 DUP3 DUP9 ADD PUSH2 0x691 JUMP JUMPDEST SWAP3 POP POP PUSH1 0x60 PUSH2 0x6FD DUP8 DUP3 DUP9 ADD PUSH2 0x57C JUMP JUMPDEST SWAP2 POP POP SWAP3 SWAP6 SWAP2 SWAP5 POP SWAP3 POP JUMP JUMPDEST PUSH0 PUSH8 0xFFFFFFFFFFFFFFFF DUP3 AND SWAP1 POP SWAP2 SWAP1 POP JUMP JUMPDEST PUSH2 0x725 DUP2 PUSH2 0x709 JUMP JUMPDEST DUP3 MSTORE POP POP JUMP JUMPDEST PUSH0 PUSH1 0x20 DUP3 ADD SWAP1 POP PUSH2 0x73E PUSH0 DUP4 ADD DUP5 PUSH2 0x71C JUMP JUMPDEST SWAP3 SWAP2 POP POP JUMP JUMPDEST PUSH0 DUP2 MLOAD SWAP1 POP SWAP2 SWAP1 POP JUMP JUMPDEST PUSH0 DUP3 DUP3 MSTORE PUSH1 0x20 DUP3 ADD SWAP1 POP SWAP3 SWAP2 POP POP JUMP JUMPDEST DUP3 DUP2 DUP4 MCOPY PUSH0 DUP4 DUP4 ADD MSTORE POP POP POP JUMP JUMPDEST PUSH0 PUSH1 0x1F NOT PUSH1 0x1F DUP4 ADD AND SWAP1 POP SWAP2 SWAP1 POP JUMP JUMPDEST PUSH0 PUSH2 0x786 DUP3 PUSH2 0x744 JUMP JUMPDEST PUSH2 0x790 DUP2 DUP6 PUSH2 0x74E JUMP JUMPDEST SWAP4 POP PUSH2 0x7A0 DUP2 DUP6 PUSH1 0x20 DUP7 ADD PUSH2 0x75E JUMP JUMPDEST PUSH2 0x7A9 DUP2 PUSH2 0x76C JUMP JUMPDEST DUP5 ADD SWAP2 POP POP SWAP3 SWAP2 POP POP JUMP JUMPDEST PUSH0 PUSH1 0x20 DUP3 ADD SWAP1 POP DUP2 DUP2 SUB PUSH0 DUP4 ADD MSTORE PUSH2 0x7CC DUP2 DUP5 PUSH2 0x77C JUMP JUMPDEST SWAP1 POP SWAP3 SWAP2 POP POP JUMP JUMPDEST PUSH0 PUSH1 0x20 DUP3 DUP5 SUB SLT ISZERO PUSH2 0x7E9 JUMPI PUSH2 0x7E8 PUSH2 0x559 JUMP JUMPDEST JUMPDEST PUSH0 PUSH2 0x7F6 DUP5 DUP3 DUP6 ADD PUSH2 0x629 JUMP JUMPDEST SWAP2 POP POP SWAP3 SWAP2 POP POP JUMP JUMPDEST PUSH0 PUSH1 0x60 DUP3 ADD SWAP1 POP PUSH2 0x812 PUSH0 DUP4 ADD DUP7 PUSH2 0x531 JUMP JUMPDEST PUSH2 0x81F PUSH1 0x20 DUP4 ADD DUP6 PUSH2 0x531 JUMP JUMPDEST PUSH2 0x82C PUSH1 0x40 DUP4 ADD DUP5 PUSH2 0x5BB JUMP JUMPDEST SWAP5 SWAP4 POP POP POP POP JUMP JUMPDEST PUSH0 PUSH4 0xFFFFFFFF DUP3 AND SWAP1 POP SWAP2 SWAP1 POP JUMP JUMPDEST PUSH2 0x84C DUP2 PUSH2 0x834 JUMP JUMPDEST DUP3 MSTORE POP POP JUMP JUMPDEST PUSH0 PUSH1 0x20 DUP3 ADD SWAP1 POP PUSH2 0x865 PUSH0 DUP4 ADD DUP5 PUSH2 0x843 JUMP JUMPDEST SWAP3 SWAP2 POP POP JUMP JUMPDEST PUSH0 PUSH0 PUSH1 0x40 DUP4 DUP6 SUB SLT ISZERO PUSH2 0x881 JUMPI PUSH2 0x880 PUSH2 0x559 JUMP JUMPDEST JUMPDEST PUSH0 PUSH2 0x88E DUP6 DUP3 DUP7 ADD PUSH2 0x629 JUMP JUMPDEST SWAP3 POP POP PUSH1 0x20 PUSH2 0x89F DUP6 DUP3 DUP7 ADD PUSH2 0x629 JUMP JUMPDEST SWAP2 POP POP SWAP3 POP SWAP3 SWAP1 POP JUMP JUMPDEST PUSH32 0x4E487B7100000000000000000000000000000000000000000000000000000000 PUSH0 MSTORE PUSH1 0x41 PUSH1 0x4 MSTORE PUSH1 0x24 PUSH0 REVERT JUMPDEST PUSH32 0x4E487B7100000000000000000000000000000000000000000000000000000000 PUSH0 MSTORE PUSH1 0x22 PUSH1 0x4 MSTORE PUSH1 0x24 PUSH0 REVERT JUMPDEST PUSH0 PUSH1 0x2 DUP3 DIV SWAP1 POP PUSH1 0x1 DUP3 AND DUP1 PUSH2 0x91A JUMPI PUSH1 0x7F DUP3 AND SWAP2 POP JUMPDEST PUSH1 0x20 DUP3 LT DUP2 SUB PUSH2 0x92D JUMPI PUSH2 0x92C PUSH2 0x8D6 JUMP JUMPDEST JUMPDEST POP SWAP2 SWAP1 POP JUMP JUMPDEST PUSH0 DUP2 SWAP1 POP DUP2 PUSH0 MSTORE PUSH1 0x20 PUSH0 KECCAK256 SWAP1 POP SWAP2 SWAP1 POP JUMP JUMPDEST PUSH0 PUSH1 0x20 PUSH1 0x1F DUP4 ADD DIV SWAP1 POP SWAP2 SWAP1 POP JUMP JUMPDEST PUSH0 DUP3 DUP3 SHL SWAP1 POP SWAP3 SWAP2 POP POP JUMP JUMPDEST PUSH0 PUSH1 0x8 DUP4 MUL PUSH2 0x98F PUSH32 0xFFFFFFFFFFFFFFFFFFFFFFFFFFFFFFFFFFFFFFFFFFFFFFFFFFFFFFFFFFFFFFFF DUP3 PUSH2 0x954 JUMP JUMPDEST PUSH2 0x999 DUP7 DUP4 PUSH2 0x954 JUMP JUMPDEST SWAP6 POP DUP1 NOT DUP5 AND SWAP4 POP DUP1 DUP7 AND DUP5 OR SWAP3 POP POP POP SWAP4 SWAP3 POP POP POP JUMP JUMPDEST PUSH0 DUP2 SWAP1 POP SWAP2 SWAP1 POP JUMP JUMPDEST PUSH0 PUSH2 0x9D4 PUSH2 0x9CF PUSH2 0x9CA DUP5 PUSH2 0x55D JUMP JUMPDEST PUSH2 0x9B1 JUMP JUMPDEST PUSH2 0x55D JUMP JUMPDEST SWAP1 POP SWAP2 SWAP1 POP JUMP JUMPDEST PUSH0 DUP2 SWAP1 POP SWAP2 SWAP1 POP JUMP JUMPDEST PUSH2 0x9ED DUP4 PUSH2 0x9BA JUMP JUMPDEST PUSH2 0xA01 PUSH2 0x9F9 DUP3 PUSH2 0x9DB JUMP JUMPDEST DUP5 DUP5 SLOAD PUSH2 0x960 JUMP JUMPDEST DUP3 SSTORE POP POP POP POP JUMP JUMPDEST PUSH0 PUSH0 SWAP1 POP SWAP1 JUMP JUMPDEST PUSH2 0xA18 PUSH2 0xA09 JUMP JUMPDEST PUSH2 0xA23 DUP2 DUP5 DUP5 PUSH2 0x9E4 JUMP JUMPDEST POP POP POP JUMP JUMPDEST PUSH0 JUMPDEST DUP3 DUP2 LT ISZERO PUSH2 0xA49 JUMPI PUSH2 0xA3E PUSH0 DUP3 DUP5 ADD PUSH2 0xA10 JUMP JUMPDEST PUSH1 0x1 DUP2 ADD SWAP1 POP PUSH2 0xA2A JUMP JUMPDEST POP POP POP JUMP JUMPDEST PUSH1 0x1F DUP3 GT ISZERO PUSH2 0xA9C JUMPI DUP3 DUP3 GT ISZERO PUSH2 0xA9B JUMPI PUSH2 0xA68 DUP2 PUSH2 0x933 JUMP JUMPDEST PUSH2 0xA71 DUP4 PUSH2 0x945 JUMP JUMPDEST PUSH2 0xA7A DUP6 PUSH2 0x945 JUMP JUMPDEST PUSH1 0x20 DUP7 LT ISZERO PUSH2 0xA87 JUMPI PUSH0 SWAP1 POP JUMPDEST DUP1 DUP4 ADD PUSH2 0xA96 DUP3 DUP5 SUB DUP3 PUSH2 0xA28 JUMP JUMPDEST POP POP POP POP JUMPDEST JUMPDEST POP POP POP JUMP JUMPDEST PUSH0 DUP3 DUP3 SHR SWAP1 POP SWAP3 SWAP2 POP POP JUMP JUMPDEST PUSH0 PUSH2 0xABC PUSH0 NOT DUP5 PUSH1 0x8 MUL PUSH2 0xAA1 JUMP JUMPDEST NOT DUP1 DUP4 AND SWAP2 POP POP SWAP3 SWAP2 POP POP JUMP JUMPDEST PUSH0 PUSH2 0xAD4 DUP4 DUP4 PUSH2 0xAAD JUMP JUMPDEST SWAP2 POP DUP3 PUSH1 0x2 MUL DUP3 OR SWAP1 POP SWAP3 SWAP2 POP POP JUMP JUMPDEST PUSH2 0xAED DUP3 PUSH2 0x744 JUMP JUMPDEST PUSH8 0xFFFFFFFFFFFFFFFF DUP2 GT ISZERO PUSH2 0xB06 JUMPI PUSH2 0xB05 PUSH2 0x8A9 JUMP JUMPDEST JUMPDEST PUSH2 0xB10 DUP3 SLOAD PUSH2 0x903 JUMP JUMPDEST PUSH2 0xB1B DUP3 DUP3 DUP6 PUSH2 0xA4E JUMP JUMPDEST PUSH0 PUSH1 0x20 SWAP1 POP PUSH1 0x1F DUP4 GT PUSH1 0x1 DUP2 EQ PUSH2 0xB4C JUMPI PUSH0 DUP5 ISZERO PUSH2 0xB3A JUMPI DUP3 DUP8 ADD MLOAD SWAP1 POP JUMPDEST PUSH2 0xB44 DUP6 DUP3 PUSH2 0xAC9 JUMP JUMPDEST DUP7 SSTORE POP PUSH2 0xBAB JUMP JUMPDEST PUSH1 0x1F NOT DUP5 AND PUSH2 0xB5A DUP7 PUSH2 0x933 JUMP JUMPDEST PUSH0 JUMPDEST DUP3 DUP2 LT ISZERO PUSH2 0xB81 JUMPI DUP5 DUP10 ADD MLOAD DUP3 SSTORE PUSH1 0x1 DUP3 ADD SWAP2 POP PUSH1 0x20 DUP6 ADD SWAP5 POP PUSH1 0x20 DUP2 ADD SWAP1 POP PUSH2 0xB5C JUMP JUMPDEST DUP7 DUP4 LT ISZERO PUSH2 0xB9E JUMPI DUP5 DUP10 ADD MLOAD PUSH2 0xB9A PUSH1 0x1F DUP10 AND DUP3 PUSH2 0xAAD JUMP JUMPDEST DUP4 SSTORE POP JUMPDEST PUSH1 0x1 PUSH1 0x2 DUP9 MUL ADD DUP9 SSTORE POP POP POP JUMPDEST POP POP POP POP POP POP JUMP INVALID SLOAD PUSH9 0x697320697320612076 PUSH6 0x7279206C6F6E PUSH8 0x20737472696E6720 PUSH21 0x6861742077696C6C20646566696E6974656C792074 PUSH19 0x696767657220746865206C6F6E672073746F72 PUSH2 0x6765 KECCAK256 PUSH20 0x7472617465677921A2646970667358221220B261 PC SWAP15 0x23 LOG1 DIV SWAP16 LT 0xAB SWAP9 0xBA 0xD8 PUSH10 0xEF837473FE3AF2F91DAC 0xEA PUSH30 0x9BB0ECDFD44364736F6C6343000822003300000000000000000000000000 "
				},
				"gasEstimates": {
					"creation": {
						"codeDepositCost": "626200",
						"executionCost": "infinite",
						"totalCost": "infinite"
					},
					"external": {
						"a()": "2466",
						"allowance(address,address)": "infinite",
						"b()": "2605",
						"c()": "2582",
						"description()": "infinite",
						"scores(uint256)": "infinite",
						"setAllowance(address,uint256)": "22953",
						"setLongString()": "infinite",
						"setUser(address,uint128,uint128,uint256)": "infinite",
						"users(address)": "infinite"
					}
				},
				"methodIdentifiers": {
					"a()": "0dbe671f",
					"allowance(address,address)": "dd62ed3e",
					"b()": "4df7e3d0",
					"c()": "c3da42b8",
					"description()": "7284e416",
					"scores(uint256)": "2ee691a3",
					"setAllowance(address,uint256)": "310ec4a7",
					"setLongString()": "4f628d84",
					"setUser(address,uint128,uint128,uint256)": "44638a4c",
					"users(address)": "a87430ba"
				}
			},
			"storageLayout": {
				"storage": [
					{
						"astId": 4,
						"contract": "pStorage/contract.sol:StorageLab",
						"label": "a",
						"offset": 0,
						"slot": "0",
						"type": "t_uint128"
					},
					{
						"astId": 7,
						"contract": "pStorage/contract.sol:StorageLab",
						"label": "b",
						"offset": 16,
						"slot": "0",
						"type": "t_uint64"
					},
					{
						"astId": 10,
						"contract": "pStorage/contract.sol:StorageLab",
						"label": "c",
						"offset": 24,
						"slot": "0",
						"type": "t_uint32"
					},
					{
						"astId": 13,
						"contract": "pStorage/contract.sol:StorageLab",
						"label": "description",
						"offset": 0,
						"slot": "1",
						"type": "t_string_storage"
					},
					{
						"astId": 16,
						"contract": "pStorage/contract.sol:StorageLab",
						"label": "scores",
						"offset": 0,
						"slot": "2",
						"type": "t_array(t_uint256)dyn_storage"
					},
					{
						"astId": 22,
						"contract": "pStorage/contract.sol:StorageLab",
						"label": "allowance",
						"offset": 0,
						"slot": "3",
						"type": "t_mapping(t_address,t_mapping(t_address,t_uint256))"
					},
					{
						"astId": 34,
						"contract": "pStorage/contract.sol:StorageLab",
						"label": "users",
						"offset": 0,
						"slot": "4",
						"type": "t_mapping(t_address,t_struct(User)29_storage)"
					}
				],
				"types": {
					"t_address": {
						"encoding": "inplace",
						"label": "address",
						"numberOfBytes": "20"
					},
					"t_array(t_uint256)dyn_storage": {
						"base": "t_uint256",
						"encoding": "dynamic_array",
						"label": "uint256[]",
						"numberOfBytes": "32"
					},
					"t_mapping(t_address,t_mapping(t_address,t_uint256))": {
						"encoding": "mapping",
						"key": "t_address",
						"label": "mapping(address => mapping(address => uint256))",
						"numberOfBytes": "32",
						"value": "t_mapping(t_address,t_uint256)"
					},
					"t_mapping(t_address,t_struct(User)29_storage)": {
						"encoding": "mapping",
						"key": "t_address",
						"label": "mapping(address => struct StorageLab.User)",
						"numberOfBytes": "32",
						"value": "t_struct(User)29_storage"
					},
					"t_mapping(t_address,t_uint256)": {
						"encoding": "mapping",
						"key": "t_address",
						"label": "mapping(address => uint256)",
						"numberOfBytes": "32",
						"value": "t_uint256"
					},
					"t_string_storage": {
						"encoding": "bytes",
						"label": "string",
						"numberOfBytes": "32"
					},
					"t_struct(User)29_storage": {
						"encoding": "inplace",
						"label": "struct StorageLab.User",
						"members": [
							{
								"astId": 24,
								"contract": "pStorage/contract.sol:StorageLab",
								"label": "balance",
								"offset": 0,
								"slot": "0",
								"type": "t_uint128"
							},
							{
								"astId": 26,
								"contract": "pStorage/contract.sol:StorageLab",
								"label": "points",
								"offset": 16,
								"slot": "0",
								"type": "t_uint128"
							},
							{
								"astId": 28,
								"contract": "pStorage/contract.sol:StorageLab",
								"label": "id",
								"offset": 0,
								"slot": "1",
								"type": "t_uint256"
							}
						],
						"numberOfBytes": "64"
					},
					"t_uint128": {
						"encoding": "inplace",
						"label": "uint128",
						"numberOfBytes": "16"
					},
					"t_uint256": {
						"encoding": "inplace",
						"label": "uint256",
						"numberOfBytes": "32"
					},
					"t_uint32": {
						"encoding": "inplace",
						"label": "uint32",
						"numberOfBytes": "4"
					},
					"t_uint64": {
						"encoding": "inplace",
						"label": "uint64",
						"numberOfBytes": "8"
					}
				}
			},
			"userdoc": {
				"kind": "user",
				"methods": {},
				"version": 1
			}
		}
	}
}