{
	"help.sol": {
		"AdvancedStorage": {
			"abi": [
				{
					"inputs": [
						{
							"internalType": "address",
							"name": "_factory",
							"type": "address"
						}
					],
					"stateMutability": "nonpayable",
					"type": "constructor"
				},
				{
					"inputs": [],
					"name": "VERSION",
					"outputs": [
						{
							"internalType": "uint256",
							"name": "",
							"type": "uint256"
						}
					],
					"stateMutability": "view",
					"type": "function"
				},
				{
					"inputs": [],
					"name": "constantId",
					"outputs": [
						{
							"internalType": "bytes32",
							"name": "",
							"type": "bytes32"
						}
					],
					"stateMutability": "view",
					"type": "function"
				},
				{
					"inputs": [],
					"name": "countdowns",
					"outputs": [
						{
							"internalType": "uint16",
							"name": "",
							"type": "uint16"
						}
					],
					"stateMutability": "view",
					"type": "function"
				},
				{
					"inputs": [],
					"name": "dynamicData",
					"outputs": [
						{
							"internalType": "bytes",
							"name": "",
							"type": "bytes"
						}
					],
					"stateMutability": "view",
					"type": "function"
				},
				{
					"inputs": [],
					"name": "factory",
					"outputs": [
						{
							"internalType": "address",
							"name": "",
							"type": "address"
						}
					],
					"stateMutability": "view",
					"type": "function"
				},
				{
					"inputs": [
						{
							"internalType": "uint256",
							"name": "bucket",
							"type": "uint256"
						},
						{
							"internalType": "uint8",
							"name": "bit",
							"type": "uint8"
						}
					],
					"name": "getFlag",
					"outputs": [
						{
							"internalType": "bool",
							"name": "",
							"type": "bool"
						}
					],
					"stateMutability": "view",
					"type": "function"
				},
				{
					"inputs": [],
					"name": "level",
					"outputs": [
						{
							"internalType": "uint8",
							"name": "",
							"type": "uint8"
						}
					],
					"stateMutability": "view",
					"type": "function"
				},
				{
					"inputs": [
						{
							"internalType": "uint256",
							"name": "",
							"type": "uint256"
						},
						{
							"internalType": "uint256",
							"name": "",
							"type": "uint256"
						}
					],
					"name": "matrix",
					"outputs": [
						{
							"internalType": "uint256",
							"name": "",
							"type": "uint256"
						}
					],
					"stateMutability": "view",
					"type": "function"
				},
				{
					"inputs": [],
					"name": "names",
					"outputs": [
						{
							"internalType": "string",
							"name": "",
							"type": "string"
						}
					],
					"stateMutability": "view",
					"type": "function"
				},
				{
					"inputs": [
						{
							"internalType": "uint256",
							"name": "",
							"type": "uint256"
						}
					],
					"name": "orders",
					"outputs": [
						{
							"internalType": "uint64",
							"name": "id",
							"type": "uint64"
						},
						{
							"internalType": "uint64",
							"name": "timestamp",
							"type": "uint64"
						},
						{
							"internalType": "address",
							"name": "buyer",
							"type": "address"
						},
						{
							"internalType": "bool",
							"name": "fulfilled",
							"type": "bool"
						}
					],
					"stateMutability": "view",
					"type": "function"
				},
				{
					"inputs": [
						{
							"internalType": "uint256",
							"name": "",
							"type": "uint256"
						}
					],
					"name": "packedFlags",
					"outputs": [
						{
							"internalType": "uint256",
							"name": "",
							"type": "uint256"
						}
					],
					"stateMutability": "view",
					"type": "function"
				},
				{
					"inputs": [
						{
							"internalType": "uint256",
							"name": "bucket",
							"type": "uint256"
						},
						{
							"internalType": "uint8",
							"name": "bit",
							"type": "uint8"
						},
						{
							"internalType": "bool",
							"name": "value",
							"type": "bool"
						}
					],
					"name": "setFlag",
					"outputs": [],
					"stateMutability": "nonpayable",
					"type": "function"
				},
				{
					"inputs": [],
					"name": "status",
					"outputs": [
						{
							"internalType": "enum AdvancedStorage.Status",
							"name": "",
							"type": "uint8"
						}
					],
					"stateMutability": "view",
					"type": "function"
				},
				{
					"inputs": [
						{
							"internalType": "address",
							"name": "",
							"type": "address"
						}
					],
					"name": "users",
					"outputs": [
						{
							"internalType": "uint128",
							"name": "balance",
							"type": "uint128"
						},
						{
							"internalType": "uint128",
							"name": "locked",
							"type": "uint128"
						},
						{
							"internalType": "uint256",
							"name": "lastActive",
							"type": "uint256"
						},
						{
							"internalType": "uint64",
							"name": "referralCount",
							"type": "uint64"
						},
						{
							"internalType": "bool",
							"name": "isVerified",
							"type": "bool"
						}
					],
					"stateMutability": "view",
					"type": "function"
				}
			],
			"devdoc": {
				"kind": "dev",
				"methods": {},
				"version": 1
			},
			"evm": {
				"assembly": "    /* \"help.sol\":58:4597  contract AdvancedStorage {... */\n  mstore(0x40, 0xa0)\n    /* \"help.sol\":2821:4196  constructor(address _factory) {... */\n  callvalue\n  dup1\n  iszero\n  tag_1\n  jumpi\n  revert(0x00, 0x00)\ntag_1:\n  pop\n  mload(0x40)\n  sub(codesize, bytecodeSize)\n  dup1\n  bytecodeSize\n  dup4\n  codecopy\n  dup2\n  dup2\n  add\n  0x40\n  mstore\n  dup2\n  add\n  swap1\n  tag_2\n  swap2\n  swap1\n  tag_3\n  jump\t// in\ntag_2:\n    /* \"help.sol\":2871:2879  _factory */\n  dup1\n    /* \"help.sol\":2861:2879  factory = _factory */\n  0xffffffffffffffffffffffffffffffffffffffff\n  and\n  0x80\n  dup2\n  0xffffffffffffffffffffffffffffffffffffffff\n  and\n  dup2\n  mstore\n  pop\n  pop\n    /* \"help.sol\":2952:2965  Status.Active */\n  0x01\n    /* \"help.sol\":2943:2949  status */\n  0x00\n  0x00\n    /* \"help.sol\":2943:2965  status = Status.Active */\n  0x0100\n  exp\n  dup2\n  sload\n  dup2\n  0xff\n  mul\n  not\n  and\n  swap1\n  dup4\n  0x03\n  dup2\n  gt\n  iszero\n  tag_6\n  jumpi\n  tag_7\n  tag_8\n  jump\t// in\ntag_7:\ntag_6:\n  mul\n  or\n  swap1\n  sstore\n  pop\n    /* \"help.sol\":2983:2984  5 */\n  0x05\n    /* \"help.sol\":2975:2980  level */\n  0x00\n  0x01\n    /* \"help.sol\":2975:2984  level = 5 */\n  0x0100\n  exp\n  dup2\n  sload\n  dup2\n  0xff\n  mul\n  not\n  and\n  swap1\n  dup4\n  0xff\n  and\n  mul\n  or\n  swap1\n  sstore\n  pop\n    /* \"help.sol\":3007:3010  100 */\n  0x64\n    /* \"help.sol\":2994:3004  countdowns */\n  0x00\n  0x02\n    /* \"help.sol\":2994:3010  countdowns = 100 */\n  0x0100\n  exp\n  dup2\n  sload\n  dup2\n  0xffff\n  mul\n  not\n  and\n  swap1\n  dup4\n  0xffff\n  and\n  mul\n  or\n  swap1\n  sstore\n  pop\n    /* \"help.sol\":3067:3133  0x1234567890123456789012345678901234567890123456789012345678901234 */\n  0x1234567890123456789012345678901234567890123456789012345678901234\n    /* \"help.sol\":3054:3133  constantId = 0x1234567890123456789012345678901234567890123456789012345678901234 */\n  0x00\n  shl\n    /* \"help.sol\":3054:3064  constantId */\n  0x01\n    /* \"help.sol\":3054:3133  constantId = 0x1234567890123456789012345678901234567890123456789012345678901234 */\n  dup2\n  swap1\n  sstore\n  pop\n    /* \"help.sol\":3177:3208  dynamicData = hex\"deadbeefcafe\" */\n  mload(0x40)\n  dup1\n  0x40\n  add\n  0x40\n  mstore\n  dup1\n  0x06\n  dup2\n  mstore\n  0x20\n  add\n  0xdeadbeefcafe0000000000000000000000000000000000000000000000000000\n  dup2\n  mstore\n  pop\n    /* \"help.sol\":3177:3188  dynamicData */\n  0x02\n    /* \"help.sol\":3177:3208  dynamicData = hex\"deadbeefcafe\" */\n  swap1\n  dup2\n  tag_9\n  swap2\n  swap1\n  tag_10\n  jump\t// in\ntag_9:\n  pop\n    /* \"help.sol\":3253:3280  names = \"Advanced Contract\" */\n  mload(0x40)\n  dup1\n  0x40\n  add\n  0x40\n  mstore\n  dup1\n  0x11\n  dup2\n  mstore\n  0x20\n  add\n  0x416476616e63656420436f6e7472616374000000000000000000000000000000\n  dup2\n  mstore\n  pop\n    /* \"help.sol\":3253:3258  names */\n  0x03\n    /* \"help.sol\":3253:3280  names = \"Advanced Contract\" */\n  swap1\n  dup2\n  tag_11\n  swap2\n  swap1\n  tag_12\n  jump\t// in\ntag_11:\n  pop\n    /* \"help.sol\":3327:3333  orders */\n  0x04\n    /* \"help.sol\":3339:3471  Order({... */\n  mload(0x40)\n  dup1\n  0x80\n  add\n  0x40\n  mstore\n  dup1\n    /* \"help.sol\":3363:3364  1 */\n  0x01\n    /* \"help.sol\":3339:3471  Order({... */\n  0xffffffffffffffff\n  and\n  dup2\n  mstore\n  0x20\n  add\n    /* \"help.sol\":3389:3399  1234567890 */\n  0x499602d2\n    /* \"help.sol\":3339:3471  Order({... */\n  0xffffffffffffffff\n  and\n  dup2\n  mstore\n  0x20\n  add\n    /* \"help.sol\":3420:3430  msg.sender */\n  caller\n    /* \"help.sol\":3339:3471  Order({... */\n  0xffffffffffffffffffffffffffffffffffffffff\n  and\n  dup2\n  mstore\n  0x20\n  add\n    /* \"help.sol\":3455:3460  false */\n  0x00\n    /* \"help.sol\":3339:3471  Order({... */\n  iszero\n  iszero\n  dup2\n  mstore\n  pop\n    /* \"help.sol\":3327:3472  orders.push(Order({... */\n  swap1\n  dup1\n  0x01\n  dup2\n  sload\n  add\n  dup1\n  dup3\n  sstore\n  dup1\n  swap2\n  pop\n  pop\n  0x01\n  swap1\n  sub\n  swap1\n  0x00\n  mstore\n  keccak256(0x00, 0x20)\n  swap1\n  0x02\n  mul\n  add\n  0x00\n  swap1\n  swap2\n  swap1\n  swap2\n  swap1\n  swap2\n  pop\n  0x00\n  dup3\n  add\n  mload\n  dup2\n  0x00\n  add\n  exp(0x0100, 0x00)\n  dup2\n  sload\n  dup2\n  0xffffffffffffffff\n  mul\n  not\n  and\n  swap1\n  dup4\n  0xffffffffffffffff\n  and\n  mul\n  or\n  swap1\n  sstore\n  pop\n  0x20\n  dup3\n  add\n  mload\n  dup2\n  0x00\n  add\n  exp(0x0100, 0x08)\n  dup2\n  sload\n  dup2\n  0xffffffffffffffff\n  mul\n  not\n  and\n  swap1\n  dup4\n  0xffffffffffffffff\n  and\n  mul\n  or\n  swap1\n  sstore\n  pop\n  0x40\n  dup3\n  add\n  mload\n  dup2\n  0x01\n  add\n  exp(0x0100, 0x00)\n  dup2\n  sload\n  dup2\n  0xffffffffffffffffffffffffffffffffffffffff\n  mul\n  not\n  and\n  swap1\n  dup4\n  0xffffffffffffffffffffffffffffffffffffffff\n  and\n  mul\n  or\n  swap1\n  sstore\n  pop\n  0x60\n  dup3\n  add\n  mload\n  dup2\n  0x01\n  add\n  exp(0x0100, 0x14)\n  dup2\n  sload\n  dup2\n  0xff\n  mul\n  not\n  and\n  swap1\n  dup4\n  iszero\n  iszero\n  mul\n  or\n  swap1\n  sstore\n  pop\n  pop\n  pop\n    /* \"help.sol\":3491:3497  orders */\n  0x04\n    /* \"help.sol\":3503:3665  Order({... */\n  mload(0x40)\n  dup1\n  0x80\n  add\n  0x40\n  mstore\n  dup1\n    /* \"help.sol\":3527:3528  2 */\n  0x02\n    /* \"help.sol\":3503:3665  Order({... */\n  0xffffffffffffffff\n  and\n  dup2\n  mstore\n  0x20\n  add\n    /* \"help.sol\":3553:3563  1234567891 */\n  0x499602d3\n    /* \"help.sol\":3503:3665  Order({... */\n  0xffffffffffffffff\n  and\n  dup2\n  mstore\n  0x20\n  add\n    /* \"help.sol\":3583:3625  0x742D35Cc6634c0532925a3b844bc9E759F3B3b57 */\n  0x742d35cc6634c0532925a3b844bc9e759f3b3b57\n    /* \"help.sol\":3503:3665  Order({... */\n  0xffffffffffffffffffffffffffffffffffffffff\n  and\n  dup2\n  mstore\n  0x20\n  add\n    /* \"help.sol\":3650:3654  true */\n  0x01\n    /* \"help.sol\":3503:3665  Order({... */\n  iszero\n  iszero\n  dup2\n  mstore\n  pop\n    /* \"help.sol\":3491:3666  orders.push(Order({... */\n  swap1\n  dup1\n  0x01\n  dup2\n  sload\n  add\n  dup1\n  dup3\n  sstore\n  dup1\n  swap2\n  pop\n  pop\n  0x01\n  swap1\n  sub\n  swap1\n  0x00\n  mstore\n  keccak256(0x00, 0x20)\n  swap1\n  0x02\n  mul\n  add\n  0x00\n  swap1\n  swap2\n  swap1\n  swap2\n  swap1\n  swap2\n  pop\n  0x00\n  dup3\n  add\n  mload\n  dup2\n  0x00\n  add\n  exp(0x0100, 0x00)\n  dup2\n  sload\n  dup2\n  0xffffffffffffffff\n  mul\n  not\n  and\n  swap1\n  dup4\n  0xffffffffffffffff\n  and\n  mul\n  or\n  swap1\n  sstore\n  pop\n  0x20\n  dup3\n  add\n  mload\n  dup2\n  0x00\n  add\n  exp(0x0100, 0x08)\n  dup2\n  sload\n  dup2\n  0xffffffffffffffff\n  mul\n  not\n  and\n  swap1\n  dup4\n  0xffffffffffffffff\n  and\n  mul\n  or\n  swap1\n  sstore\n  pop\n  0x40\n  dup3\n  add\n  mload\n  dup2\n  0x01\n  add\n  exp(0x0100, 0x00)\n  dup2\n  sload\n  dup2\n  0xffffffffffffffffffffffffffffffffffffffff\n  mul\n  not\n  and\n  swap1\n  dup4\n  0xffffffffffffffffffffffffffffffffffffffff\n  and\n  mul\n  or\n  swap1\n  sstore\n  pop\n  0x60\n  dup3\n  add\n  mload\n  dup2\n  0x01\n  add\n  exp(0x0100, 0x14)\n  dup2\n  sload\n  dup2\n  0xff\n  mul\n  not\n  and\n  swap1\n  dup4\n  iszero\n  iszero\n  mul\n  or\n  swap1\n  sstore\n  pop\n  pop\n  pop\n    /* \"help.sol\":3729:3918  UserProfile({... */\n  mload(0x40)\n  dup1\n  0xa0\n  add\n  0x40\n  mstore\n  dup1\n    /* \"help.sol\":3764:3774  1000 ether */\n  0x3635c9adc5dea00000\n    /* \"help.sol\":3729:3918  UserProfile({... */\n  0xffffffffffffffffffffffffffffffff\n  and\n  dup2\n  mstore\n  0x20\n  add\n    /* \"help.sol\":3796:3805  500 ether */\n  0x1b1ae4d6e2ef500000\n    /* \"help.sol\":3729:3918  UserProfile({... */\n  0xffffffffffffffffffffffffffffffff\n  and\n  dup2\n  mstore\n  0x20\n  add\n    /* \"help.sol\":3831:3846  block.timestamp */\n  timestamp\n    /* \"help.sol\":3729:3918  UserProfile({... */\n  dup2\n  mstore\n  0x20\n  add\n    /* \"help.sol\":3875:3877  10 */\n  0x0a\n    /* \"help.sol\":3729:3918  UserProfile({... */\n  0xffffffffffffffff\n  and\n  dup2\n  mstore\n  0x20\n  add\n    /* \"help.sol\":3903:3907  true */\n  0x01\n    /* \"help.sol\":3729:3918  UserProfile({... */\n  iszero\n  iszero\n  dup2\n  mstore\n  pop\n    /* \"help.sol\":3709:3714  users */\n  0x05\n    /* \"help.sol\":3709:3726  users[msg.sender] */\n  0x00\n    /* \"help.sol\":3715:3725  msg.sender */\n  caller\n    /* \"help.sol\":3709:3726  users[msg.sender] */\n  0xffffffffffffffffffffffffffffffffffffffff\n  and\n  0xffffffffffffffffffffffffffffffffffffffff\n  and\n  dup2\n  mstore\n  0x20\n  add\n  swap1\n  dup2\n  mstore\n  0x20\n  add\n  0x00\n  keccak256\n    /* \"help.sol\":3709:3918  users[msg.sender] = UserProfile({... */\n  0x00\n  dup3\n  add\n  mload\n  dup2\n  0x00\n  add\n  exp(0x0100, 0x00)\n  dup2\n  sload\n  dup2\n  0xffffffffffffffffffffffffffffffff\n  mul\n  not\n  and\n  swap1\n  dup4\n  0xffffffffffffffffffffffffffffffff\n  and\n  mul\n  or\n  swap1\n  sstore\n  pop\n  0x20\n  dup3\n  add\n  mload\n  dup2\n  0x00\n  add\n  exp(0x0100, 0x10)\n  dup2\n  sload\n  dup2\n  0xffffffffffffffffffffffffffffffff\n  mul\n  not\n  and\n  swap1\n  dup4\n  0xffffffffffffffffffffffffffffffff\n  and\n  mul\n  or\n  swap1\n  sstore\n  pop\n  0x40\n  dup3\n  add\n  mload\n  dup2\n  0x01\n  add\n  sstore\n  0x60\n  dup3\n  add\n  mload\n  dup2\n  0x02\n  add\n  exp(0x0100, 0x00)\n  dup2\n  sload\n  dup2\n  0xffffffffffffffff\n  mul\n  not\n  and\n  swap1\n  dup4\n  0xffffffffffffffff\n  and\n  mul\n  or\n  swap1\n  sstore\n  pop\n  0x80\n  dup3\n  add\n  mload\n  dup2\n  0x02\n  add\n  exp(0x0100, 0x08)\n  dup2\n  sload\n  dup2\n  0xff\n  mul\n  not\n  and\n  swap1\n  dup4\n  iszero\n  iszero\n  mul\n  or\n  swap1\n  sstore\n  pop\n  swap1\n  pop\n  pop\n    /* \"help.sol\":3960:3966  matrix */\n  0x06\n    /* \"help.sol\":3960:3982  matrix.push([1, 2, 3]) */\n  mload(0x40)\n  dup1\n  0x60\n  add\n  0x40\n  mstore\n  dup1\n    /* \"help.sol\":3973:3974  1 */\n  0x01\n    /* \"help.sol\":3960:3982  matrix.push([1, 2, 3]) */\n  0xff\n  and\n  dup2\n  mstore\n  0x20\n  add\n    /* \"help.sol\":3976:3977  2 */\n  0x02\n    /* \"help.sol\":3960:3982  matrix.push([1, 2, 3]) */\n  0xff\n  and\n  dup2\n  mstore\n  0x20\n  add\n    /* \"help.sol\":3979:3980  3 */\n  0x03\n    /* \"help.sol\":3960:3982  matrix.push([1, 2, 3]) */\n  0xff\n  and\n  dup2\n  mstore\n  pop\n  swap1\n  dup1\n  0x01\n  dup2\n  sload\n  add\n  dup1\n  dup3\n  sstore\n  dup1\n  swap2\n  pop\n  pop\n  0x01\n  swap1\n  sub\n  swap1\n  0x00\n  mstore\n  keccak256(0x00, 0x20)\n  add\n  0x00\n  swap1\n  swap2\n  swap1\n  swap2\n  swap1\n  swap2\n  pop\n  swap1\n  dup2\n  tag_16\n  swap2\n  swap1\n  tag_17\n  jump\t// in\ntag_16:\n  pop\n    /* \"help.sol\":3992:3998  matrix */\n  0x06\n    /* \"help.sol\":3992:4014  matrix.push([4, 5, 6]) */\n  mload(0x40)\n  dup1\n  0x60\n  add\n  0x40\n  mstore\n  dup1\n    /* \"help.sol\":4005:4006  4 */\n  0x04\n    /* \"help.sol\":3992:4014  matrix.push([4, 5, 6]) */\n  0xff\n  and\n  dup2\n  mstore\n  0x20\n  add\n    /* \"help.sol\":4008:4009  5 */\n  0x05\n    /* \"help.sol\":3992:4014  matrix.push([4, 5, 6]) */\n  0xff\n  and\n  dup2\n  mstore\n  0x20\n  add\n    /* \"help.sol\":4011:4012  6 */\n  0x06\n    /* \"help.sol\":3992:4014  matrix.push([4, 5, 6]) */\n  0xff\n  and\n  dup2\n  mstore\n  pop\n  swap1\n  dup1\n  0x01\n  dup2\n  sload\n  add\n  dup1\n  dup3\n  sstore\n  dup1\n  swap2\n  pop\n  pop\n  0x01\n  swap1\n  sub\n  swap1\n  0x00\n  mstore\n  keccak256(0x00, 0x20)\n  add\n  0x00\n  swap1\n  swap2\n  swap1\n  swap2\n  swap1\n  swap2\n  pop\n  swap1\n  dup2\n  tag_19\n  swap2\n  swap1\n  tag_17\n  jump\t// in\ntag_19:\n  pop\n    /* \"help.sol\":4074:4140  0xFFFFFFFFFFFFFFFFFFFFFFFFFFFFFFFFFFFFFFFFFFFFFFFFFFFFFFFFFFFFFFFF */\n  0xffffffffffffffffffffffffffffffffffffffffffffffffffffffffffffffff\n    /* \"help.sol\":4057:4068  packedFlags */\n  0x07\n    /* \"help.sol\":4057:4071  packedFlags[0] */\n  0x00\n    /* \"help.sol\":4069:4070  0 */\n  0x00\n    /* \"help.sol\":4057:4071  packedFlags[0] */\n  dup2\n  mstore\n  0x20\n  add\n  swap1\n  dup2\n  mstore\n  0x20\n  add\n  0x00\n  keccak256\n    /* \"help.sol\":4057:4140  packedFlags[0] = 0xFFFFFFFFFFFFFFFFFFFFFFFFFFFFFFFFFFFFFFFFFFFFFFFFFFFFFFFFFFFFFFFF */\n  dup2\n  swap1\n  sstore\n  pop\n    /* \"help.sol\":4167:4170  0x1 */\n  0x01\n    /* \"help.sol\":4150:4161  packedFlags */\n  0x07\n    /* \"help.sol\":4150:4164  packedFlags[1] */\n  0x00\n    /* \"help.sol\":4162:4163  1 */\n  0x01\n    /* \"help.sol\":4150:4164  packedFlags[1] */\n  dup2\n  mstore\n  0x20\n  add\n  swap1\n  dup2\n  mstore\n  0x20\n  add\n  0x00\n  keccak256\n    /* \"help.sol\":4150:4170  packedFlags[1] = 0x1 */\n  dup2\n  swap1\n  sstore\n  pop\n    /* \"help.sol\":2821:4196  constructor(address _factory) {... */\n  pop\n    /* \"help.sol\":58:4597  contract AdvancedStorage {... */\n  jump(tag_20)\n    /* \"#utility.yul\":88:205   */\ntag_22:\n    /* \"#utility.yul\":197:198   */\n  0x00\n    /* \"#utility.yul\":194:195   */\n  0x00\n    /* \"#utility.yul\":187:199   */\n  revert\n    /* \"#utility.yul\":334:460   */\ntag_24:\n    /* \"#utility.yul\":371:378   */\n  0x00\n    /* \"#utility.yul\":411:453   */\n  0xffffffffffffffffffffffffffffffffffffffff\n    /* \"#utility.yul\":404:409   */\n  dup3\n    /* \"#utility.yul\":400:454   */\n  and\n    /* \"#utility.yul\":389:454   */\n  swap1\n  pop\n    /* \"#utility.yul\":334:460   */\n  swap2\n  swap1\n  pop\n  jump\t// out\n    /* \"#utility.yul\":466:562   */\ntag_25:\n    /* \"#utility.yul\":503:510   */\n  0x00\n    /* \"#utility.yul\":532:556   */\n  tag_72\n    /* \"#utility.yul\":550:555   */\n  dup3\n    /* \"#utility.yul\":532:556   */\n  tag_24\n  jump\t// in\ntag_72:\n    /* \"#utility.yul\":521:556   */\n  swap1\n  pop\n    /* \"#utility.yul\":466:562   */\n  swap2\n  swap1\n  pop\n  jump\t// out\n    /* \"#utility.yul\":568:690   */\ntag_26:\n    /* \"#utility.yul\":641:665   */\n  tag_74\n    /* \"#utility.yul\":659:664   */\n  dup2\n    /* \"#utility.yul\":641:665   */\n  tag_25\n  jump\t// in\ntag_74:\n    /* \"#utility.yul\":634:639   */\n  dup2\n    /* \"#utility.yul\":631:666   */\n  eq\n    /* \"#utility.yul\":621:684   */\n  tag_75\n  jumpi\n    /* \"#utility.yul\":680:681   */\n  0x00\n    /* \"#utility.yul\":677:678   */\n  0x00\n    /* \"#utility.yul\":670:682   */\n  revert\n    /* \"#utility.yul\":621:684   */\ntag_75:\n    /* \"#utility.yul\":568:690   */\n  pop\n  jump\t// out\n    /* \"#utility.yul\":696:839   */\ntag_27:\n    /* \"#utility.yul\":753:758   */\n  0x00\n    /* \"#utility.yul\":784:790   */\n  dup2\n    /* \"#utility.yul\":778:791   */\n  mload\n    /* \"#utility.yul\":769:791   */\n  swap1\n  pop\n    /* \"#utility.yul\":800:833   */\n  tag_77\n    /* \"#utility.yul\":827:832   */\n  dup2\n    /* \"#utility.yul\":800:833   */\n  tag_26\n  jump\t// in\ntag_77:\n    /* \"#utility.yul\":696:839   */\n  swap3\n  swap2\n  pop\n  pop\n  jump\t// out\n    /* \"#utility.yul\":845:1196   */\ntag_3:\n    /* \"#utility.yul\":915:921   */\n  0x00\n    /* \"#utility.yul\":964:966   */\n  0x20\n    /* \"#utility.yul\":952:961   */\n  dup3\n    /* \"#utility.yul\":943:950   */\n  dup5\n    /* \"#utility.yul\":939:962   */\n  sub\n    /* \"#utility.yul\":935:967   */\n  slt\n    /* \"#utility.yul\":932:1051   */\n  iszero\n  tag_79\n  jumpi\n    /* \"#utility.yul\":970:1049   */\n  tag_80\n  tag_22\n  jump\t// in\ntag_80:\n    /* \"#utility.yul\":932:1051   */\ntag_79:\n    /* \"#utility.yul\":1090:1091   */\n  0x00\n    /* \"#utility.yul\":1115:1179   */\n  tag_81\n    /* \"#utility.yul\":1171:1178   */\n  dup5\n    /* \"#utility.yul\":1162:1168   */\n  dup3\n    /* \"#utility.yul\":1151:1160   */\n  dup6\n    /* \"#utility.yul\":1147:1169   */\n  add\n    /* \"#utility.yul\":1115:1179   */\n  tag_27\n  jump\t// in\ntag_81:\n    /* \"#utility.yul\":1105:1179   */\n  swap2\n  pop\n    /* \"#utility.yul\":1061:1189   */\n  pop\n    /* \"#utility.yul\":845:1196   */\n  swap3\n  swap2\n  pop\n  pop\n  jump\t// out\n    /* \"#utility.yul\":1202:1382   */\ntag_8:\n    /* \"#utility.yul\":1250:1327   */\n  0x4e487b7100000000000000000000000000000000000000000000000000000000\n    /* \"#utility.yul\":1247:1248   */\n  0x00\n    /* \"#utility.yul\":1240:1328   */\n  mstore\n    /* \"#utility.yul\":1347:1351   */\n  0x21\n    /* \"#utility.yul\":1344:1345   */\n  0x04\n    /* \"#utility.yul\":1337:1352   */\n  mstore\n    /* \"#utility.yul\":1371:1375   */\n  0x24\n    /* \"#utility.yul\":1368:1369   */\n  0x00\n    /* \"#utility.yul\":1361:1376   */\n  revert\n    /* \"#utility.yul\":1388:1487   */\ntag_28:\n    /* \"#utility.yul\":1440:1446   */\n  0x00\n    /* \"#utility.yul\":1474:1479   */\n  dup2\n    /* \"#utility.yul\":1468:1480   */\n  mload\n    /* \"#utility.yul\":1458:1480   */\n  swap1\n  pop\n    /* \"#utility.yul\":1388:1487   */\n  swap2\n  swap1\n  pop\n  jump\t// out\n    /* \"#utility.yul\":1493:1673   */\ntag_29:\n    /* \"#utility.yul\":1541:1618   */\n  0x4e487b7100000000000000000000000000000000000000000000000000000000\n    /* \"#utility.yul\":1538:1539   */\n  0x00\n    /* \"#utility.yul\":1531:1619   */\n  mstore\n    /* \"#utility.yul\":1638:1642   */\n  0x41\n    /* \"#utility.yul\":1635:1636   */\n  0x04\n    /* \"#utility.yul\":1628:1643   */\n  mstore\n    /* \"#utility.yul\":1662:1666   */\n  0x24\n    /* \"#utility.yul\":1659:1660   */\n  0x00\n    /* \"#utility.yul\":1652:1667   */\n  revert\n    /* \"#utility.yul\":1679:1859   */\ntag_30:\n    /* \"#utility.yul\":1727:1804   */\n  0x4e487b7100000000000000000000000000000000000000000000000000000000\n    /* \"#utility.yul\":1724:1725   */\n  0x00\n    /* \"#utility.yul\":1717:1805   */\n  mstore\n    /* \"#utility.yul\":1824:1828   */\n  0x22\n    /* \"#utility.yul\":1821:1822   */\n  0x04\n    /* \"#utility.yul\":1814:1829   */\n  mstore\n    /* \"#utility.yul\":1848:1852   */\n  0x24\n    /* \"#utility.yul\":1845:1846   */\n  0x00\n    /* \"#utility.yul\":1838:1853   */\n  revert\n    /* \"#utility.yul\":1865:2185   */\ntag_31:\n    /* \"#utility.yul\":1909:1915   */\n  0x00\n    /* \"#utility.yul\":1946:1947   */\n  0x02\n    /* \"#utility.yul\":1940:1944   */\n  dup3\n    /* \"#utility.yul\":1936:1948   */\n  div\n    /* \"#utility.yul\":1926:1948   */\n  swap1\n  pop\n    /* \"#utility.yul\":1993:1994   */\n  0x01\n    /* \"#utility.yul\":1987:1991   */\n  dup3\n    /* \"#utility.yul\":1983:1995   */\n  and\n    /* \"#utility.yul\":2014:2032   */\n  dup1\n    /* \"#utility.yul\":2004:2085   */\n  tag_87\n  jumpi\n    /* \"#utility.yul\":2070:2074   */\n  0x7f\n    /* \"#utility.yul\":2062:2068   */\n  dup3\n    /* \"#utility.yul\":2058:2075   */\n  and\n    /* \"#utility.yul\":2048:2075   */\n  swap2\n  pop\n    /* \"#utility.yul\":2004:2085   */\ntag_87:\n    /* \"#utility.yul\":2132:2134   */\n  0x20\n    /* \"#utility.yul\":2124:2130   */\n  dup3\n    /* \"#utility.yul\":2121:2135   */\n  lt\n    /* \"#utility.yul\":2101:2119   */\n  dup2\n    /* \"#utility.yul\":2098:2136   */\n  sub\n    /* \"#utility.yul\":2095:2179   */\n  tag_88\n  jumpi\n    /* \"#utility.yul\":2151:2169   */\n  tag_89\n  tag_30\n  jump\t// in\ntag_89:\n    /* \"#utility.yul\":2095:2179   */\ntag_88:\n    /* \"#utility.yul\":1916:2185   */\n  pop\n    /* \"#utility.yul\":1865:2185   */\n  swap2\n  swap1\n  pop\n  jump\t// out\n    /* \"#utility.yul\":2191:2331   */\ntag_32:\n    /* \"#utility.yul\":2239:2243   */\n  0x00\n    /* \"#utility.yul\":2262:2265   */\n  dup2\n    /* \"#utility.yul\":2254:2265   */\n  swap1\n  pop\n    /* \"#utility.yul\":2285:2288   */\n  dup2\n    /* \"#utility.yul\":2282:2283   */\n  0x00\n    /* \"#utility.yul\":2275:2289   */\n  mstore\n    /* \"#utility.yul\":2319:2323   */\n  0x20\n    /* \"#utility.yul\":2316:2317   */\n  0x00\n    /* \"#utility.yul\":2306:2324   */\n  keccak256\n    /* \"#utility.yul\":2298:2324   */\n  swap1\n  pop\n    /* \"#utility.yul\":2191:2331   */\n  swap2\n  swap1\n  pop\n  jump\t// out\n    /* \"#utility.yul\":2337:2430   */\ntag_33:\n    /* \"#utility.yul\":2374:2380   */\n  0x00\n    /* \"#utility.yul\":2421:2423   */\n  0x20\n    /* \"#utility.yul\":2416:2418   */\n  0x1f\n    /* \"#utility.yul\":2409:2414   */\n  dup4\n    /* \"#utility.yul\":2405:2419   */\n  add\n    /* \"#utility.yul\":2401:2424   */\n  div\n    /* \"#utility.yul\":2391:2424   */\n  swap1\n  pop\n    /* \"#utility.yul\":2337:2430   */\n  swap2\n  swap1\n  pop\n  jump\t// out\n    /* \"#utility.yul\":2436:2543   */\ntag_34:\n    /* \"#utility.yul\":2480:2488   */\n  0x00\n    /* \"#utility.yul\":2530:2535   */\n  dup3\n    /* \"#utility.yul\":2524:2528   */\n  dup3\n    /* \"#utility.yul\":2520:2536   */\n  shl\n    /* \"#utility.yul\":2499:2536   */\n  swap1\n  pop\n    /* \"#utility.yul\":2436:2543   */\n  swap3\n  swap2\n  pop\n  pop\n  jump\t// out\n    /* \"#utility.yul\":2549:2942   */\ntag_35:\n    /* \"#utility.yul\":2618:2624   */\n  0x00\n    /* \"#utility.yul\":2668:2669   */\n  0x08\n    /* \"#utility.yul\":2656:2666   */\n  dup4\n    /* \"#utility.yul\":2652:2670   */\n  mul\n    /* \"#utility.yul\":2691:2788   */\n  tag_94\n    /* \"#utility.yul\":2721:2787   */\n  0xffffffffffffffffffffffffffffffffffffffffffffffffffffffffffffffff\n    /* \"#utility.yul\":2710:2719   */\n  dup3\n    /* \"#utility.yul\":2691:2788   */\n  tag_34\n  jump\t// in\ntag_94:\n    /* \"#utility.yul\":2809:2848   */\n  tag_95\n    /* \"#utility.yul\":2839:2847   */\n  dup7\n    /* \"#utility.yul\":2828:2837   */\n  dup4\n    /* \"#utility.yul\":2809:2848   */\n  tag_34\n  jump\t// in\ntag_95:\n    /* \"#utility.yul\":2797:2848   */\n  swap6\n  pop\n    /* \"#utility.yul\":2881:2885   */\n  dup1\n    /* \"#utility.yul\":2877:2886   */\n  not\n    /* \"#utility.yul\":2870:2875   */\n  dup5\n    /* \"#utility.yul\":2866:2887   */\n  and\n    /* \"#utility.yul\":2857:2887   */\n  swap4\n  pop\n    /* \"#utility.yul\":2930:2934   */\n  dup1\n    /* \"#utility.yul\":2920:2928   */\n  dup7\n    /* \"#utility.yul\":2916:2935   */\n  and\n    /* \"#utility.yul\":2909:2914   */\n  dup5\n    /* \"#utility.yul\":2906:2936   */\n  or\n    /* \"#utility.yul\":2896:2936   */\n  swap3\n  pop\n    /* \"#utility.yul\":2625:2942   */\n  pop\n  pop\n    /* \"#utility.yul\":2549:2942   */\n  swap4\n  swap3\n  pop\n  pop\n  pop\n  jump\t// out\n    /* \"#utility.yul\":2948:3025   */\ntag_36:\n    /* \"#utility.yul\":2985:2992   */\n  0x00\n    /* \"#utility.yul\":3014:3019   */\n  dup2\n    /* \"#utility.yul\":3003:3019   */\n  swap1\n  pop\n    /* \"#utility.yul\":2948:3025   */\n  swap2\n  swap1\n  pop\n  jump\t// out\n    /* \"#utility.yul\":3031:3091   */\ntag_37:\n    /* \"#utility.yul\":3059:3062   */\n  0x00\n    /* \"#utility.yul\":3080:3085   */\n  dup2\n    /* \"#utility.yul\":3073:3085   */\n  swap1\n  pop\n    /* \"#utility.yul\":3031:3091   */\n  swap2\n  swap1\n  pop\n  jump\t// out\n    /* \"#utility.yul\":3097:3239   */\ntag_38:\n    /* \"#utility.yul\":3147:3156   */\n  0x00\n    /* \"#utility.yul\":3180:3233   */\n  tag_99\n    /* \"#utility.yul\":3198:3232   */\n  tag_100\n    /* \"#utility.yul\":3207:3231   */\n  tag_101\n    /* \"#utility.yul\":3225:3230   */\n  dup5\n    /* \"#utility.yul\":3207:3231   */\n  tag_36\n  jump\t// in\ntag_101:\n    /* \"#utility.yul\":3198:3232   */\n  tag_37\n  jump\t// in\ntag_100:\n    /* \"#utility.yul\":3180:3233   */\n  tag_36\n  jump\t// in\ntag_99:\n    /* \"#utility.yul\":3167:3233   */\n  swap1\n  pop\n    /* \"#utility.yul\":3097:3239   */\n  swap2\n  swap1\n  pop\n  jump\t// out\n    /* \"#utility.yul\":3245:3320   */\ntag_39:\n    /* \"#utility.yul\":3288:3291   */\n  0x00\n    /* \"#utility.yul\":3309:3314   */\n  dup2\n    /* \"#utility.yul\":3302:3314   */\n  swap1\n  pop\n    /* \"#utility.yul\":3245:3320   */\n  swap2\n  swap1\n  pop\n  jump\t// out\n    /* \"#utility.yul\":3326:3595   */\ntag_40:\n    /* \"#utility.yul\":3436:3475   */\n  tag_104\n    /* \"#utility.yul\":3467:3474   */\n  dup4\n    /* \"#utility.yul\":3436:3475   */\n  tag_38\n  jump\t// in\ntag_104:\n    /* \"#utility.yul\":3497:3588   */\n  tag_105\n    /* \"#utility.yul\":3546:3587   */\n  tag_106\n    /* \"#utility.yul\":3570:3586   */\n  dup3\n    /* \"#utility.yul\":3546:3587   */\n  tag_39\n  jump\t// in\ntag_106:\n    /* \"#utility.yul\":3538:3544   */\n  dup5\n    /* \"#utility.yul\":3531:3535   */\n  dup5\n    /* \"#utility.yul\":3525:3536   */\n  sload\n    /* \"#utility.yul\":3497:3588   */\n  tag_35\n  jump\t// in\ntag_105:\n    /* \"#utility.yul\":3491:3495   */\n  dup3\n    /* \"#utility.yul\":3484:3589   */\n  sstore\n    /* \"#utility.yul\":3402:3595   */\n  pop\n    /* \"#utility.yul\":3326:3595   */\n  pop\n  pop\n  pop\n  jump\t// out\n    /* \"#utility.yul\":3601:3674   */\ntag_41:\n    /* \"#utility.yul\":3646:3649   */\n  0x00\n    /* \"#utility.yul\":3667:3668   */\n  0x00\n    /* \"#utility.yul\":3660:3668   */\n  swap1\n  pop\n    /* \"#utility.yul\":3601:3674   */\n  swap1\n  jump\t// out\n    /* \"#utility.yul\":3680:3869   */\ntag_42:\n    /* \"#utility.yul\":3757:3789   */\n  tag_109\n  tag_41\n  jump\t// in\ntag_109:\n    /* \"#utility.yul\":3798:3863   */\n  tag_110\n    /* \"#utility.yul\":3856:3862   */\n  dup2\n    /* \"#utility.yul\":3848:3854   */\n  dup5\n    /* \"#utility.yul\":3842:3846   */\n  dup5\n    /* \"#utility.yul\":3798:3863   */\n  tag_40\n  jump\t// in\ntag_110:\n    /* \"#utility.yul\":3733:3869   */\n  pop\n    /* \"#utility.yul\":3680:3869   */\n  pop\n  pop\n  jump\t// out\n    /* \"#utility.yul\":3875:4089   */\ntag_43:\n    /* \"#utility.yul\":3960:3961   */\n  0x00\n    /* \"#utility.yul\":3945:4083   */\ntag_112:\n    /* \"#utility.yul\":3970:3979   */\n  dup3\n    /* \"#utility.yul\":3967:3968   */\n  dup2\n    /* \"#utility.yul\":3964:3980   */\n  lt\n    /* \"#utility.yul\":3945:4083   */\n  iszero\n  tag_114\n  jumpi\n    /* \"#utility.yul\":4022:4073   */\n  tag_115\n    /* \"#utility.yul\":4071:4072   */\n  0x00\n    /* \"#utility.yul\":4067:4068   */\n  dup3\n    /* \"#utility.yul\":4056:4065   */\n  dup5\n    /* \"#utility.yul\":4052:4069   */\n  add\n    /* \"#utility.yul\":4022:4073   */\n  tag_42\n  jump\t// in\ntag_115:\n    /* \"#utility.yul\":3995:3996   */\n  0x01\n    /* \"#utility.yul\":3992:3993   */\n  dup2\n    /* \"#utility.yul\":3988:3997   */\n  add\n    /* \"#utility.yul\":3983:3997   */\n  swap1\n  pop\n    /* \"#utility.yul\":3945:4083   */\n  jump(tag_112)\ntag_114:\n    /* \"#utility.yul\":3949:3963   */\n  pop\n    /* \"#utility.yul\":3875:4089   */\n  pop\n  pop\n  jump\t// out\n    /* \"#utility.yul\":4095:4839   */\ntag_44:\n    /* \"#utility.yul\":4195:4197   */\n  0x1f\n    /* \"#utility.yul\":4190:4193   */\n  dup3\n    /* \"#utility.yul\":4187:4198   */\n  gt\n    /* \"#utility.yul\":4184:4832   */\n  iszero\n  tag_117\n  jumpi\n    /* \"#utility.yul\":4224:4234   */\n  dup3\n    /* \"#utility.yul\":4219:4222   */\n  dup3\n    /* \"#utility.yul\":4216:4235   */\n  gt\n    /* \"#utility.yul\":4213:4822   */\n  iszero\n  tag_118\n  jumpi\n    /* \"#utility.yul\":4270:4307   */\n  tag_119\n    /* \"#utility.yul\":4301:4306   */\n  dup2\n    /* \"#utility.yul\":4270:4307   */\n  tag_32\n  jump\t// in\ntag_119:\n    /* \"#utility.yul\":4344:4366   */\n  tag_120\n    /* \"#utility.yul\":4362:4365   */\n  dup4\n    /* \"#utility.yul\":4344:4366   */\n  tag_33\n  jump\t// in\ntag_120:\n    /* \"#utility.yul\":4403:4432   */\n  tag_121\n    /* \"#utility.yul\":4421:4431   */\n  dup6\n    /* \"#utility.yul\":4403:4432   */\n  tag_33\n  jump\t// in\ntag_121:\n    /* \"#utility.yul\":4593:4595   */\n  0x20\n    /* \"#utility.yul\":4581:4591   */\n  dup7\n    /* \"#utility.yul\":4578:4596   */\n  lt\n    /* \"#utility.yul\":4575:4654   */\n  iszero\n  tag_122\n  jumpi\n    /* \"#utility.yul\":4635:4636   */\n  0x00\n    /* \"#utility.yul\":4619:4636   */\n  swap1\n  pop\n    /* \"#utility.yul\":4575:4654   */\ntag_122:\n    /* \"#utility.yul\":4704:4716   */\n  dup1\n    /* \"#utility.yul\":4694:4702   */\n  dup4\n    /* \"#utility.yul\":4690:4717   */\n  add\n    /* \"#utility.yul\":4734:4808   */\n  tag_123\n    /* \"#utility.yul\":4794:4806   */\n  dup3\n    /* \"#utility.yul\":4780:4792   */\n  dup5\n    /* \"#utility.yul\":4776:4807   */\n  sub\n    /* \"#utility.yul\":4763:4774   */\n  dup3\n    /* \"#utility.yul\":4734:4808   */\n  tag_43\n  jump\t// in\ntag_123:\n    /* \"#utility.yul\":4236:4822   */\n  pop\n  pop\n  pop\n  pop\n    /* \"#utility.yul\":4213:4822   */\ntag_118:\n    /* \"#utility.yul\":4184:4832   */\ntag_117:\n    /* \"#utility.yul\":4095:4839   */\n  pop\n  pop\n  pop\n  jump\t// out\n    /* \"#utility.yul\":4845:4962   */\ntag_45:\n    /* \"#utility.yul\":4899:4907   */\n  0x00\n    /* \"#utility.yul\":4949:4954   */\n  dup3\n    /* \"#utility.yul\":4943:4947   */\n  dup3\n    /* \"#utility.yul\":4939:4955   */\n  shr\n    /* \"#utility.yul\":4918:4955   */\n  swap1\n  pop\n    /* \"#utility.yul\":4845:4962   */\n  swap3\n  swap2\n  pop\n  pop\n  jump\t// out\n    /* \"#utility.yul\":4968:5137   */\ntag_46:\n    /* \"#utility.yul\":5012:5018   */\n  0x00\n    /* \"#utility.yul\":5045:5096   */\n  tag_126\n    /* \"#utility.yul\":5093:5094   */\n  0x00\n    /* \"#utility.yul\":5089:5095   */\n  not\n    /* \"#utility.yul\":5081:5086   */\n  dup5\n    /* \"#utility.yul\":5078:5079   */\n  0x08\n    /* \"#utility.yul\":5074:5087   */\n  mul\n    /* \"#utility.yul\":5045:5096   */\n  tag_45\n  jump\t// in\ntag_126:\n    /* \"#utility.yul\":5041:5097   */\n  not\n    /* \"#utility.yul\":5126:5130   */\n  dup1\n    /* \"#utility.yul\":5120:5124   */\n  dup4\n    /* \"#utility.yul\":5116:5131   */\n  and\n    /* \"#utility.yul\":5106:5131   */\n  swap2\n  pop\n    /* \"#utility.yul\":5019:5137   */\n  pop\n    /* \"#utility.yul\":4968:5137   */\n  swap3\n  swap2\n  pop\n  pop\n  jump\t// out\n    /* \"#utility.yul\":5142:5437   */\ntag_47:\n    /* \"#utility.yul\":5218:5222   */\n  0x00\n    /* \"#utility.yul\":5364:5393   */\n  tag_128\n    /* \"#utility.yul\":5389:5392   */\n  dup4\n    /* \"#utility.yul\":5383:5387   */\n  dup4\n    /* \"#utility.yul\":5364:5393   */\n  tag_46\n  jump\t// in\ntag_128:\n    /* \"#utility.yul\":5356:5393   */\n  swap2\n  pop\n    /* \"#utility.yul\":5426:5429   */\n  dup3\n    /* \"#utility.yul\":5423:5424   */\n  0x02\n    /* \"#utility.yul\":5419:5430   */\n  mul\n    /* \"#utility.yul\":5413:5417   */\n  dup3\n    /* \"#utility.yul\":5410:5431   */\n  or\n    /* \"#utility.yul\":5402:5431   */\n  swap1\n  pop\n    /* \"#utility.yul\":5142:5437   */\n  swap3\n  swap2\n  pop\n  pop\n  jump\t// out\n    /* \"#utility.yul\":5442:6834   */\ntag_10:\n    /* \"#utility.yul\":5558:5595   */\n  tag_130\n    /* \"#utility.yul\":5591:5594   */\n  dup3\n    /* \"#utility.yul\":5558:5595   */\n  tag_28\n  jump\t// in\ntag_130:\n    /* \"#utility.yul\":5660:5678   */\n  0xffffffffffffffff\n    /* \"#utility.yul\":5652:5658   */\n  dup2\n    /* \"#utility.yul\":5649:5679   */\n  gt\n    /* \"#utility.yul\":5646:5702   */\n  iszero\n  tag_131\n  jumpi\n    /* \"#utility.yul\":5682:5700   */\n  tag_132\n  tag_29\n  jump\t// in\ntag_132:\n    /* \"#utility.yul\":5646:5702   */\ntag_131:\n    /* \"#utility.yul\":5726:5764   */\n  tag_133\n    /* \"#utility.yul\":5758:5762   */\n  dup3\n    /* \"#utility.yul\":5752:5763   */\n  sload\n    /* \"#utility.yul\":5726:5764   */\n  tag_31\n  jump\t// in\ntag_133:\n    /* \"#utility.yul\":5811:5877   */\n  tag_134\n    /* \"#utility.yul\":5870:5876   */\n  dup3\n    /* \"#utility.yul\":5862:5868   */\n  dup3\n    /* \"#utility.yul\":5856:5860   */\n  dup6\n    /* \"#utility.yul\":5811:5877   */\n  tag_44\n  jump\t// in\ntag_134:\n    /* \"#utility.yul\":5904:5905   */\n  0x00\n    /* \"#utility.yul\":5928:5932   */\n  0x20\n    /* \"#utility.yul\":5915:5932   */\n  swap1\n  pop\n    /* \"#utility.yul\":5960:5962   */\n  0x1f\n    /* \"#utility.yul\":5952:5958   */\n  dup4\n    /* \"#utility.yul\":5949:5963   */\n  gt\n    /* \"#utility.yul\":5977:5978   */\n  0x01\n    /* \"#utility.yul\":5972:6589   */\n  dup2\n  eq\n  tag_136\n  jumpi\n    /* \"#utility.yul\":6633:6634   */\n  0x00\n    /* \"#utility.yul\":6650:6656   */\n  dup5\n    /* \"#utility.yul\":6647:6724   */\n  iszero\n  tag_137\n  jumpi\n    /* \"#utility.yul\":6699:6708   */\n  dup3\n    /* \"#utility.yul\":6694:6697   */\n  dup8\n    /* \"#utility.yul\":6690:6709   */\n  add\n    /* \"#utility.yul\":6684:6710   */\n  mload\n    /* \"#utility.yul\":6675:6710   */\n  swap1\n  pop\n    /* \"#utility.yul\":6647:6724   */\ntag_137:\n    /* \"#utility.yul\":6750:6817   */\n  tag_138\n    /* \"#utility.yul\":6810:6816   */\n  dup6\n    /* \"#utility.yul\":6803:6808   */\n  dup3\n    /* \"#utility.yul\":6750:6817   */\n  tag_47\n  jump\t// in\ntag_138:\n    /* \"#utility.yul\":6744:6748   */\n  dup7\n    /* \"#utility.yul\":6737:6818   */\n  sstore\n    /* \"#utility.yul\":6606:6828   */\n  pop\n    /* \"#utility.yul\":5942:6828   */\n  jump(tag_135)\n    /* \"#utility.yul\":5972:6589   */\ntag_136:\n    /* \"#utility.yul\":6024:6028   */\n  0x1f\n    /* \"#utility.yul\":6020:6029   */\n  not\n    /* \"#utility.yul\":6012:6018   */\n  dup5\n    /* \"#utility.yul\":6008:6030   */\n  and\n    /* \"#utility.yul\":6058:6094   */\n  tag_139\n    /* \"#utility.yul\":6089:6093   */\n  dup7\n    /* \"#utility.yul\":6058:6094   */\n  tag_32\n  jump\t// in\ntag_139:\n    /* \"#utility.yul\":6116:6117   */\n  0x00\n    /* \"#utility.yul\":6130:6338   */\ntag_140:\n    /* \"#utility.yul\":6144:6151   */\n  dup3\n    /* \"#utility.yul\":6141:6142   */\n  dup2\n    /* \"#utility.yul\":6138:6152   */\n  lt\n    /* \"#utility.yul\":6130:6338   */\n  iszero\n  tag_142\n  jumpi\n    /* \"#utility.yul\":6223:6232   */\n  dup5\n    /* \"#utility.yul\":6218:6221   */\n  dup10\n    /* \"#utility.yul\":6214:6233   */\n  add\n    /* \"#utility.yul\":6208:6234   */\n  mload\n    /* \"#utility.yul\":6200:6206   */\n  dup3\n    /* \"#utility.yul\":6193:6235   */\n  sstore\n    /* \"#utility.yul\":6274:6275   */\n  0x01\n    /* \"#utility.yul\":6266:6272   */\n  dup3\n    /* \"#utility.yul\":6262:6276   */\n  add\n    /* \"#utility.yul\":6252:6276   */\n  swap2\n  pop\n    /* \"#utility.yul\":6321:6323   */\n  0x20\n    /* \"#utility.yul\":6310:6319   */\n  dup6\n    /* \"#utility.yul\":6306:6324   */\n  add\n    /* \"#utility.yul\":6293:6324   */\n  swap5\n  pop\n    /* \"#utility.yul\":6167:6171   */\n  0x20\n    /* \"#utility.yul\":6164:6165   */\n  dup2\n    /* \"#utility.yul\":6160:6172   */\n  add\n    /* \"#utility.yul\":6155:6172   */\n  swap1\n  pop\n    /* \"#utility.yul\":6130:6338   */\n  jump(tag_140)\ntag_142:\n    /* \"#utility.yul\":6366:6372   */\n  dup7\n    /* \"#utility.yul\":6357:6364   */\n  dup4\n    /* \"#utility.yul\":6354:6373   */\n  lt\n    /* \"#utility.yul\":6351:6530   */\n  iszero\n  tag_143\n  jumpi\n    /* \"#utility.yul\":6424:6433   */\n  dup5\n    /* \"#utility.yul\":6419:6422   */\n  dup10\n    /* \"#utility.yul\":6415:6434   */\n  add\n    /* \"#utility.yul\":6409:6435   */\n  mload\n    /* \"#utility.yul\":6467:6515   */\n  tag_144\n    /* \"#utility.yul\":6509:6513   */\n  0x1f\n    /* \"#utility.yul\":6501:6507   */\n  dup10\n    /* \"#utility.yul\":6497:6514   */\n  and\n    /* \"#utility.yul\":6486:6495   */\n  dup3\n    /* \"#utility.yul\":6467:6515   */\n  tag_46\n  jump\t// in\ntag_144:\n    /* \"#utility.yul\":6459:6465   */\n  dup4\n    /* \"#utility.yul\":6452:6516   */\n  sstore\n    /* \"#utility.yul\":6374:6530   */\n  pop\n    /* \"#utility.yul\":6351:6530   */\ntag_143:\n    /* \"#utility.yul\":6576:6577   */\n  0x01\n    /* \"#utility.yul\":6572:6573   */\n  0x02\n    /* \"#utility.yul\":6564:6570   */\n  dup9\n    /* \"#utility.yul\":6560:6574   */\n  mul\n    /* \"#utility.yul\":6556:6578   */\n  add\n    /* \"#utility.yul\":6550:6554   */\n  dup9\n    /* \"#utility.yul\":6543:6579   */\n  sstore\n    /* \"#utility.yul\":5979:6589   */\n  pop\n  pop\n  pop\n    /* \"#utility.yul\":5942:6828   */\ntag_135:\n  pop\n    /* \"#utility.yul\":5533:6834   */\n  pop\n  pop\n  pop\n    /* \"#utility.yul\":5442:6834   */\n  pop\n  pop\n  jump\t// out\n    /* \"#utility.yul\":6840:6981   */\ntag_48:\n    /* \"#utility.yul\":6889:6893   */\n  0x00\n    /* \"#utility.yul\":6912:6915   */\n  dup2\n    /* \"#utility.yul\":6904:6915   */\n  swap1\n  pop\n    /* \"#utility.yul\":6935:6938   */\n  dup2\n    /* \"#utility.yul\":6932:6933   */\n  0x00\n    /* \"#utility.yul\":6925:6939   */\n  mstore\n    /* \"#utility.yul\":6969:6973   */\n  0x20\n    /* \"#utility.yul\":6966:6967   */\n  0x00\n    /* \"#utility.yul\":6956:6974   */\n  keccak256\n    /* \"#utility.yul\":6948:6974   */\n  swap1\n  pop\n    /* \"#utility.yul\":6840:6981   */\n  swap2\n  swap1\n  pop\n  jump\t// out\n    /* \"#utility.yul\":6987:7733   */\ntag_49:\n    /* \"#utility.yul\":7088:7090   */\n  0x1f\n    /* \"#utility.yul\":7083:7086   */\n  dup3\n    /* \"#utility.yul\":7080:7091   */\n  gt\n    /* \"#utility.yul\":7077:7726   */\n  iszero\n  tag_147\n  jumpi\n    /* \"#utility.yul\":7117:7127   */\n  dup3\n    /* \"#utility.yul\":7112:7115   */\n  dup3\n    /* \"#utility.yul\":7109:7128   */\n  gt\n    /* \"#utility.yul\":7106:7716   */\n  iszero\n  tag_148\n  jumpi\n    /* \"#utility.yul\":7163:7201   */\n  tag_149\n    /* \"#utility.yul\":7195:7200   */\n  dup2\n    /* \"#utility.yul\":7163:7201   */\n  tag_48\n  jump\t// in\ntag_149:\n    /* \"#utility.yul\":7238:7260   */\n  tag_150\n    /* \"#utility.yul\":7256:7259   */\n  dup4\n    /* \"#utility.yul\":7238:7260   */\n  tag_33\n  jump\t// in\ntag_150:\n    /* \"#utility.yul\":7297:7326   */\n  tag_151\n    /* \"#utility.yul\":7315:7325   */\n  dup6\n    /* \"#utility.yul\":7297:7326   */\n  tag_33\n  jump\t// in\ntag_151:\n    /* \"#utility.yul\":7487:7489   */\n  0x20\n    /* \"#utility.yul\":7475:7485   */\n  dup7\n    /* \"#utility.yul\":7472:7490   */\n  lt\n    /* \"#utility.yul\":7469:7548   */\n  iszero\n  tag_152\n  jumpi\n    /* \"#utility.yul\":7529:7530   */\n  0x00\n    /* \"#utility.yul\":7513:7530   */\n  swap1\n  pop\n    /* \"#utility.yul\":7469:7548   */\ntag_152:\n    /* \"#utility.yul\":7598:7610   */\n  dup1\n    /* \"#utility.yul\":7588:7596   */\n  dup4\n    /* \"#utility.yul\":7584:7611   */\n  add\n    /* \"#utility.yul\":7628:7702   */\n  tag_153\n    /* \"#utility.yul\":7688:7700   */\n  dup3\n    /* \"#utility.yul\":7674:7686   */\n  dup5\n    /* \"#utility.yul\":7670:7701   */\n  sub\n    /* \"#utility.yul\":7657:7668   */\n  dup3\n    /* \"#utility.yul\":7628:7702   */\n  tag_43\n  jump\t// in\ntag_153:\n    /* \"#utility.yul\":7129:7716   */\n  pop\n  pop\n  pop\n  pop\n    /* \"#utility.yul\":7106:7716   */\ntag_148:\n    /* \"#utility.yul\":7077:7726   */\ntag_147:\n    /* \"#utility.yul\":6987:7733   */\n  pop\n  pop\n  pop\n  jump\t// out\n    /* \"#utility.yul\":7739:9134   */\ntag_12:\n    /* \"#utility.yul\":7856:7893   */\n  tag_155\n    /* \"#utility.yul\":7889:7892   */\n  dup3\n    /* \"#utility.yul\":7856:7893   */\n  tag_28\n  jump\t// in\ntag_155:\n    /* \"#utility.yul\":7958:7976   */\n  0xffffffffffffffff\n    /* \"#utility.yul\":7950:7956   */\n  dup2\n    /* \"#utility.yul\":7947:7977   */\n  gt\n    /* \"#utility.yul\":7944:8000   */\n  iszero\n  tag_156\n  jumpi\n    /* \"#utility.yul\":7980:7998   */\n  tag_157\n  tag_29\n  jump\t// in\ntag_157:\n    /* \"#utility.yul\":7944:8000   */\ntag_156:\n    /* \"#utility.yul\":8024:8062   */\n  tag_158\n    /* \"#utility.yul\":8056:8060   */\n  dup3\n    /* \"#utility.yul\":8050:8061   */\n  sload\n    /* \"#utility.yul\":8024:8062   */\n  tag_31\n  jump\t// in\ntag_158:\n    /* \"#utility.yul\":8109:8176   */\n  tag_159\n    /* \"#utility.yul\":8169:8175   */\n  dup3\n    /* \"#utility.yul\":8161:8167   */\n  dup3\n    /* \"#utility.yul\":8155:8159   */\n  dup6\n    /* \"#utility.yul\":8109:8176   */\n  tag_49\n  jump\t// in\ntag_159:\n    /* \"#utility.yul\":8203:8204   */\n  0x00\n    /* \"#utility.yul\":8227:8231   */\n  0x20\n    /* \"#utility.yul\":8214:8231   */\n  swap1\n  pop\n    /* \"#utility.yul\":8259:8261   */\n  0x1f\n    /* \"#utility.yul\":8251:8257   */\n  dup4\n    /* \"#utility.yul\":8248:8262   */\n  gt\n    /* \"#utility.yul\":8276:8277   */\n  0x01\n    /* \"#utility.yul\":8271:8889   */\n  dup2\n  eq\n  tag_161\n  jumpi\n    /* \"#utility.yul\":8933:8934   */\n  0x00\n    /* \"#utility.yul\":8950:8956   */\n  dup5\n    /* \"#utility.yul\":8947:9024   */\n  iszero\n  tag_162\n  jumpi\n    /* \"#utility.yul\":8999:9008   */\n  dup3\n    /* \"#utility.yul\":8994:8997   */\n  dup8\n    /* \"#utility.yul\":8990:9009   */\n  add\n    /* \"#utility.yul\":8984:9010   */\n  mload\n    /* \"#utility.yul\":8975:9010   */\n  swap1\n  pop\n    /* \"#utility.yul\":8947:9024   */\ntag_162:\n    /* \"#utility.yul\":9050:9117   */\n  tag_163\n    /* \"#utility.yul\":9110:9116   */\n  dup6\n    /* \"#utility.yul\":9103:9108   */\n  dup3\n    /* \"#utility.yul\":9050:9117   */\n  tag_47\n  jump\t// in\ntag_163:\n    /* \"#utility.yul\":9044:9048   */\n  dup7\n    /* \"#utility.yul\":9037:9118   */\n  sstore\n    /* \"#utility.yul\":8906:9128   */\n  pop\n    /* \"#utility.yul\":8241:9128   */\n  jump(tag_160)\n    /* \"#utility.yul\":8271:8889   */\ntag_161:\n    /* \"#utility.yul\":8323:8327   */\n  0x1f\n    /* \"#utility.yul\":8319:8328   */\n  not\n    /* \"#utility.yul\":8311:8317   */\n  dup5\n    /* \"#utility.yul\":8307:8329   */\n  and\n    /* \"#utility.yul\":8357:8394   */\n  tag_164\n    /* \"#utility.yul\":8389:8393   */\n  dup7\n    /* \"#utility.yul\":8357:8394   */\n  tag_48\n  jump\t// in\ntag_164:\n    /* \"#utility.yul\":8416:8417   */\n  0x00\n    /* \"#utility.yul\":8430:8638   */\ntag_165:\n    /* \"#utility.yul\":8444:8451   */\n  dup3\n    /* \"#utility.yul\":8441:8442   */\n  dup2\n    /* \"#utility.yul\":8438:8452   */\n  lt\n    /* \"#utility.yul\":8430:8638   */\n  iszero\n  tag_167\n  jumpi\n    /* \"#utility.yul\":8523:8532   */\n  dup5\n    /* \"#utility.yul\":8518:8521   */\n  dup10\n    /* \"#utility.yul\":8514:8533   */\n  add\n    /* \"#utility.yul\":8508:8534   */\n  mload\n    /* \"#utility.yul\":8500:8506   */\n  dup3\n    /* \"#utility.yul\":8493:8535   */\n  sstore\n    /* \"#utility.yul\":8574:8575   */\n  0x01\n    /* \"#utility.yul\":8566:8572   */\n  dup3\n    /* \"#utility.yul\":8562:8576   */\n  add\n    /* \"#utility.yul\":8552:8576   */\n  swap2\n  pop\n    /* \"#utility.yul\":8621:8623   */\n  0x20\n    /* \"#utility.yul\":8610:8619   */\n  dup6\n    /* \"#utility.yul\":8606:8624   */\n  add\n    /* \"#utility.yul\":8593:8624   */\n  swap5\n  pop\n    /* \"#utility.yul\":8467:8471   */\n  0x20\n    /* \"#utility.yul\":8464:8465   */\n  dup2\n    /* \"#utility.yul\":8460:8472   */\n  add\n    /* \"#utility.yul\":8455:8472   */\n  swap1\n  pop\n    /* \"#utility.yul\":8430:8638   */\n  jump(tag_165)\ntag_167:\n    /* \"#utility.yul\":8666:8672   */\n  dup7\n    /* \"#utility.yul\":8657:8664   */\n  dup4\n    /* \"#utility.yul\":8654:8673   */\n  lt\n    /* \"#utility.yul\":8651:8830   */\n  iszero\n  tag_168\n  jumpi\n    /* \"#utility.yul\":8724:8733   */\n  dup5\n    /* \"#utility.yul\":8719:8722   */\n  dup10\n    /* \"#utility.yul\":8715:8734   */\n  add\n    /* \"#utility.yul\":8709:8735   */\n  mload\n    /* \"#utility.yul\":8767:8815   */\n  tag_169\n    /* \"#utility.yul\":8809:8813   */\n  0x1f\n    /* \"#utility.yul\":8801:8807   */\n  dup10\n    /* \"#utility.yul\":8797:8814   */\n  and\n    /* \"#utility.yul\":8786:8795   */\n  dup3\n    /* \"#utility.yul\":8767:8815   */\n  tag_46\n  jump\t// in\ntag_169:\n    /* \"#utility.yul\":8759:8765   */\n  dup4\n    /* \"#utility.yul\":8752:8816   */\n  sstore\n    /* \"#utility.yul\":8674:8830   */\n  pop\n    /* \"#utility.yul\":8651:8830   */\ntag_168:\n    /* \"#utility.yul\":8876:8877   */\n  0x01\n    /* \"#utility.yul\":8872:8873   */\n  0x02\n    /* \"#utility.yul\":8864:8870   */\n  dup9\n    /* \"#utility.yul\":8860:8874   */\n  mul\n    /* \"#utility.yul\":8856:8878   */\n  add\n    /* \"#utility.yul\":8850:8854   */\n  dup9\n    /* \"#utility.yul\":8843:8879   */\n  sstore\n    /* \"#utility.yul\":8278:8889   */\n  pop\n  pop\n  pop\n    /* \"#utility.yul\":8241:9128   */\ntag_160:\n  pop\n    /* \"#utility.yul\":7831:9134   */\n  pop\n  pop\n  pop\n    /* \"#utility.yul\":7739:9134   */\n  pop\n  pop\n  jump\t// out\n    /* \"#utility.yul\":9140:9251   */\ntag_50:\n    /* \"#utility.yul\":9204:9210   */\n  0x00\n    /* \"#utility.yul\":9238:9243   */\n  dup2\n    /* \"#utility.yul\":9232:9244   */\n  sload\n    /* \"#utility.yul\":9222:9244   */\n  swap1\n  pop\n    /* \"#utility.yul\":9140:9251   */\n  swap2\n  swap1\n  pop\n  jump\t// out\n    /* \"#utility.yul\":9859:10062   */\ntag_53:\n    /* \"#utility.yul\":9940:9944   */\n  0x00\n    /* \"#utility.yul\":9963:9969   */\n  dup2\n    /* \"#utility.yul\":9955:9969   */\n  swap1\n  pop\n    /* \"#utility.yul\":10053:10054   */\n  0x01\n    /* \"#utility.yul\":10048:10049   */\n  dup1\n    /* \"#utility.yul\":10045:10046   */\n  0x01\n    /* \"#utility.yul\":10041:10050   */\n  sub\n    /* \"#utility.yul\":10033:10039   */\n  dup4\n    /* \"#utility.yul\":10029:10051   */\n  add\n    /* \"#utility.yul\":10025:10055   */\n  div\n    /* \"#utility.yul\":10017:10055   */\n  swap1\n  pop\n    /* \"#utility.yul\":9859:10062   */\n  swap2\n  swap1\n  pop\n  jump\t// out\n    /* \"#utility.yul\":10067:10223   */\ntag_54:\n    /* \"#utility.yul\":10131:10135   */\n  0x00\n    /* \"#utility.yul\":10154:10157   */\n  dup2\n    /* \"#utility.yul\":10146:10157   */\n  swap1\n  pop\n    /* \"#utility.yul\":10177:10180   */\n  dup2\n    /* \"#utility.yul\":10174:10175   */\n  0x00\n    /* \"#utility.yul\":10167:10181   */\n  mstore\n    /* \"#utility.yul\":10211:10215   */\n  0x20\n    /* \"#utility.yul\":10208:10209   */\n  0x00\n    /* \"#utility.yul\":10198:10216   */\n  keccak256\n    /* \"#utility.yul\":10190:10216   */\n  swap1\n  pop\n    /* \"#utility.yul\":10067:10223   */\n  swap2\n  swap1\n  pop\n  jump\t// out\n    /* \"#utility.yul\":10229:10444   */\ntag_55:\n    /* \"#utility.yul\":10315:10316   */\n  0x00\n    /* \"#utility.yul\":10300:10438   */\ntag_181:\n    /* \"#utility.yul\":10325:10334   */\n  dup3\n    /* \"#utility.yul\":10322:10323   */\n  dup2\n    /* \"#utility.yul\":10319:10335   */\n  lt\n    /* \"#utility.yul\":10300:10438   */\n  iszero\n  tag_183\n  jumpi\n    /* \"#utility.yul\":10377:10428   */\n  tag_184\n    /* \"#utility.yul\":10426:10427   */\n  0x00\n    /* \"#utility.yul\":10422:10423   */\n  dup3\n    /* \"#utility.yul\":10411:10420   */\n  dup5\n    /* \"#utility.yul\":10407:10424   */\n  add\n    /* \"#utility.yul\":10377:10428   */\n  tag_42\n  jump\t// in\ntag_184:\n    /* \"#utility.yul\":10350:10351   */\n  0x01\n    /* \"#utility.yul\":10347:10348   */\n  dup2\n    /* \"#utility.yul\":10343:10352   */\n  add\n    /* \"#utility.yul\":10338:10352   */\n  swap1\n  pop\n    /* \"#utility.yul\":10300:10438   */\n  jump(tag_181)\ntag_183:\n    /* \"#utility.yul\":10304:10318   */\n  pop\n    /* \"#utility.yul\":10229:10444   */\n  pop\n  pop\n  jump\t// out\n    /* \"#utility.yul\":10700:11340   */\ntag_57:\n    /* \"#utility.yul\":10820:10823   */\n  dup2\n    /* \"#utility.yul\":10808:10818   */\n  dup4\n    /* \"#utility.yul\":10805:10824   */\n  lt\n    /* \"#utility.yul\":10802:11333   */\n  iszero\n  tag_188\n  jumpi\n    /* \"#utility.yul\":10911:10976   */\n  tag_189\n    /* \"#utility.yul\":10972:10975   */\n  dup3\n    /* \"#utility.yul\":10911:10976   */\n  tag_53\n  jump\t// in\ntag_189:\n    /* \"#utility.yul\":11009:11081   */\n  tag_190\n    /* \"#utility.yul\":11070:11080   */\n  dup5\n    /* \"#utility.yul\":11009:11081   */\n  tag_53\n  jump\t// in\ntag_190:\n    /* \"#utility.yul\":11116:11169   */\n  tag_191\n    /* \"#utility.yul\":11163:11168   */\n  dup4\n    /* \"#utility.yul\":11116:11169   */\n  tag_54\n  jump\t// in\ntag_191:\n    /* \"#utility.yul\":11221:11233   */\n  dup2\n    /* \"#utility.yul\":11205:11219   */\n  dup2\n    /* \"#utility.yul\":11201:11234   */\n  add\n    /* \"#utility.yul\":11248:11323   */\n  tag_192\n    /* \"#utility.yul\":11309:11321   */\n  dup4\n    /* \"#utility.yul\":11295:11307   */\n  dup6\n    /* \"#utility.yul\":11291:11322   */\n  sub\n    /* \"#utility.yul\":11278:11289   */\n  dup3\n    /* \"#utility.yul\":11248:11323   */\n  tag_55\n  jump\t// in\ntag_192:\n    /* \"#utility.yul\":10825:11333   */\n  pop\n  pop\n  pop\n  pop\n    /* \"#utility.yul\":10802:11333   */\ntag_188:\n    /* \"#utility.yul\":10700:11340   */\n  pop\n  pop\n  pop\n  jump\t// out\n    /* \"#utility.yul\":11346:11734   */\ntag_58:\n    /* \"#utility.yul\":11439:11459   */\n  0x010000000000000000\n    /* \"#utility.yul\":11431:11437   */\n  dup3\n    /* \"#utility.yul\":11428:11460   */\n  gt\n    /* \"#utility.yul\":11425:11503   */\n  iszero\n  tag_194\n  jumpi\n    /* \"#utility.yul\":11475:11493   */\n  tag_195\n  tag_29\n  jump\t// in\ntag_195:\n    /* \"#utility.yul\":11425:11503   */\ntag_194:\n    /* \"#utility.yul\":11527:11578   */\n  tag_196\n    /* \"#utility.yul\":11572:11577   */\n  dup2\n    /* \"#utility.yul\":11527:11578   */\n  tag_50\n  jump\t// in\ntag_196:\n    /* \"#utility.yul\":11630:11636   */\n  dup3\n    /* \"#utility.yul\":11623:11628   */\n  dup3\n    /* \"#utility.yul\":11616:11637   */\n  sstore\n    /* \"#utility.yul\":11647:11727   */\n  tag_197\n    /* \"#utility.yul\":11720:11726   */\n  dup4\n    /* \"#utility.yul\":11712:11718   */\n  dup3\n    /* \"#utility.yul\":11705:11710   */\n  dup5\n    /* \"#utility.yul\":11647:11727   */\n  tag_57\n  jump\t// in\ntag_197:\n    /* \"#utility.yul\":11415:11734   */\n  pop\n    /* \"#utility.yul\":11346:11734   */\n  pop\n  pop\n  jump\t// out\n    /* \"#utility.yul\":11739:11841   */\ntag_59:\n    /* \"#utility.yul\":11802:11808   */\n  0x00\n    /* \"#utility.yul\":11830:11834   */\n  0x03\n    /* \"#utility.yul\":11820:11834   */\n  swap1\n  pop\n    /* \"#utility.yul\":11739:11841   */\n  swap2\n  swap1\n  pop\n  jump\t// out\n    /* \"#utility.yul\":11847:11933   */\ntag_60:\n    /* \"#utility.yul\":11882:11889   */\n  0x00\n    /* \"#utility.yul\":11922:11926   */\n  0xff\n    /* \"#utility.yul\":11915:11920   */\n  dup3\n    /* \"#utility.yul\":11911:11927   */\n  and\n    /* \"#utility.yul\":11900:11927   */\n  swap1\n  pop\n    /* \"#utility.yul\":11847:11933   */\n  swap2\n  swap1\n  pop\n  jump\t// out\n    /* \"#utility.yul\":11939:12089   */\ntag_61:\n    /* \"#utility.yul\":11980:11991   */\n  0x00\n    /* \"#utility.yul\":12016:12043   */\n  tag_201\n    /* \"#utility.yul\":12038:12041   */\n  dup3\n    /* \"#utility.yul\":12032:12042   */\n  mload\n    /* \"#utility.yul\":12016:12043   */\n  tag_60\n  jump\t// in\ntag_201:\n    /* \"#utility.yul\":12077:12082   */\n  dup1\n    /* \"#utility.yul\":12053:12082   */\n  swap2\n  pop\n    /* \"#utility.yul\":11992:12089   */\n  pop\n    /* \"#utility.yul\":11939:12089   */\n  swap2\n  swap1\n  pop\n  jump\t// out\n    /* \"#utility.yul\":12095:12191   */\ntag_62:\n    /* \"#utility.yul\":12158:12162   */\n  0x00\n    /* \"#utility.yul\":12181:12184   */\n  dup2\n    /* \"#utility.yul\":12173:12184   */\n  swap1\n  pop\n    /* \"#utility.yul\":12095:12191   */\n  swap2\n  swap1\n  pop\n  jump\t// out\n    /* \"#utility.yul\":12643:13630   */\ntag_17:\n    /* \"#utility.yul\":12780:12828   */\n  tag_212\n    /* \"#utility.yul\":12824:12827   */\n  dup3\n    /* \"#utility.yul\":12780:12828   */\n  tag_59\n  jump\t// in\ntag_212:\n    /* \"#utility.yul\":12893:12911   */\n  0xffffffffffffffff\n    /* \"#utility.yul\":12885:12891   */\n  dup2\n    /* \"#utility.yul\":12882:12912   */\n  gt\n    /* \"#utility.yul\":12879:12935   */\n  iszero\n  tag_213\n  jumpi\n    /* \"#utility.yul\":12915:12933   */\n  tag_214\n  tag_29\n  jump\t// in\ntag_214:\n    /* \"#utility.yul\":12879:12935   */\ntag_213:\n    /* \"#utility.yul\":12944:13001   */\n  tag_215\n    /* \"#utility.yul\":12994:13000   */\n  dup2\n    /* \"#utility.yul\":12989:12992   */\n  dup4\n    /* \"#utility.yul\":12944:13001   */\n  tag_58\n  jump\t// in\ntag_215:\n    /* \"#utility.yul\":13025:13075   */\n  tag_216\n    /* \"#utility.yul\":13071:13074   */\n  dup4\n    /* \"#utility.yul\":13025:13075   */\n  tag_62\n  jump\t// in\ntag_216:\n    /* \"#utility.yul\":13099:13150   */\n  tag_217\n    /* \"#utility.yul\":13146:13149   */\n  dup4\n    /* \"#utility.yul\":13099:13150   */\n  tag_54\n  jump\t// in\ntag_217:\n    /* \"#utility.yul\":13189:13190   */\n  0x01\n    /* \"#utility.yul\":13181:13187   */\n  dup4\n    /* \"#utility.yul\":13177:13191   */\n  div\n    /* \"#utility.yul\":13216:13217   */\n  0x00\n    /* \"#utility.yul\":13201:13623   */\ntag_218:\n    /* \"#utility.yul\":13226:13235   */\n  dup2\n    /* \"#utility.yul\":13223:13224   */\n  dup2\n    /* \"#utility.yul\":13220:13236   */\n  lt\n    /* \"#utility.yul\":13201:13623   */\n  iszero\n  tag_220\n  jumpi\n    /* \"#utility.yul\":13290:13291   */\n  0x00\n    /* \"#utility.yul\":13343:13374   */\n  tag_221\n    /* \"#utility.yul\":13367:13373   */\n  dup6\n    /* \"#utility.yul\":13343:13374   */\n  tag_61\n  jump\t// in\ntag_221:\n    /* \"#utility.yul\":13409:13445   */\n  tag_222\n    /* \"#utility.yul\":13433:13444   */\n  dup2\n    /* \"#utility.yul\":13409:13445   */\n  tag_39\n  jump\t// in\ntag_222:\n    /* \"#utility.yul\":13495:13504   */\n  dup1\n    /* \"#utility.yul\":13462:13504   */\n  swap3\n  pop\n    /* \"#utility.yul\":13544:13546   */\n  0x20\n    /* \"#utility.yul\":13536:13542   */\n  dup8\n    /* \"#utility.yul\":13532:13547   */\n  add\n    /* \"#utility.yul\":13522:13547   */\n  swap7\n  pop\n    /* \"#utility.yul\":13305:13562   */\n  pop\n  pop\n    /* \"#utility.yul\":13600:13612   */\n  dup1\n    /* \"#utility.yul\":13596:13597   */\n  dup3\n    /* \"#utility.yul\":13587:13594   */\n  dup6\n    /* \"#utility.yul\":13583:13598   */\n  add\n    /* \"#utility.yul\":13576:13613   */\n  sstore\n    /* \"#utility.yul\":13256:13623   */\n  pop\n    /* \"#utility.yul\":13251:13252   */\n  0x01\n    /* \"#utility.yul\":13248:13249   */\n  dup2\n    /* \"#utility.yul\":13244:13253   */\n  add\n    /* \"#utility.yul\":13239:13253   */\n  swap1\n  pop\n    /* \"#utility.yul\":13201:13623   */\n  jump(tag_218)\ntag_220:\n    /* \"#utility.yul\":13205:13219   */\n  pop\n    /* \"#utility.yul\":12755:13630   */\n  pop\n  pop\n  pop\n  pop\n    /* \"#utility.yul\":12643:13630   */\n  pop\n  pop\n  jump\t// out\n    /* \"help.sol\":58:4597  contract AdvancedStorage {... */\ntag_20:\n  mload(0x80)\n  codecopy(0x00, dataOffset(sub_0), dataSize(sub_0))\n  0x00\n  assignImmutable(\"0x64e604787cbf194841e7b68d7cd28786f6c9a0a3ab9f8b0a0e87cb4387ab0107\")\n  return(0x00, dataSize(sub_0))\nstop\n\nsub_0: assembly {\n        /* \"help.sol\":58:4597  contract AdvancedStorage {... */\n      mstore(0x40, 0x80)\n      callvalue\n      dup1\n      iszero\n      tag_1\n      jumpi\n      revert(0x00, 0x00)\n    tag_1:\n      pop\n      jumpi(tag_2, lt(calldatasize, 0x04))\n      shr(0xe0, calldataload(0x00))\n      dup1\n      0xa85c38ef\n      gt\n      tag_17\n      jumpi\n      dup1\n      0xd9a38d64\n      gt\n      tag_18\n      jumpi\n      dup1\n      0xd9a38d64\n      eq\n      tag_13\n      jumpi\n      dup1\n      0xecb2b5cb\n      eq\n      tag_14\n      jumpi\n      dup1\n      0xfa44f589\n      eq\n      tag_15\n      jumpi\n      dup1\n      0xffa1ad74\n      eq\n      tag_16\n      jumpi\n      jump(tag_2)\n    tag_18:\n      dup1\n      0xa85c38ef\n      eq\n      tag_10\n      jumpi\n      dup1\n      0xa87430ba\n      eq\n      tag_11\n      jumpi\n      dup1\n      0xc45a0155\n      eq\n      tag_12\n      jumpi\n      jump(tag_2)\n    tag_17:\n      dup1\n      0x3545b494\n      gt\n      tag_19\n      jumpi\n      dup1\n      0x3545b494\n      eq\n      tag_6\n      jumpi\n      dup1\n      0x5a0a4a64\n      eq\n      tag_7\n      jumpi\n      dup1\n      0x6fd5ae15\n      eq\n      tag_8\n      jumpi\n      dup1\n      0x90daba0a\n      eq\n      tag_9\n      jumpi\n      jump(tag_2)\n    tag_19:\n      dup1\n      0x056da048\n      eq\n      tag_3\n      jumpi\n      dup1\n      0x14336b85\n      eq\n      tag_4\n      jumpi\n      dup1\n      0x200d2ed2\n      eq\n      tag_5\n      jumpi\n    tag_2:\n      revert(0x00, 0x00)\n        /* \"help.sol\":699:718  string public names */\n    tag_3:\n      tag_20\n      tag_21\n      jump\t// in\n    tag_20:\n      mload(0x40)\n      tag_22\n      swap2\n      swap1\n      tag_23\n      jump\t// in\n    tag_22:\n      mload(0x40)\n      dup1\n      swap2\n      sub\n      swap1\n      return\n        /* \"help.sol\":4382:4595  function setFlag(uint256 bucket, uint8 bit, bool value) public {... */\n    tag_4:\n      tag_24\n      0x04\n      dup1\n      calldatasize\n      sub\n      dup2\n      add\n      swap1\n      tag_25\n      swap2\n      swap1\n      tag_26\n      jump\t// in\n    tag_25:\n      tag_27\n      jump\t// in\n    tag_24:\n      stop\n        /* \"help.sol\":198:218  Status public status */\n    tag_5:\n      tag_28\n      tag_29\n      jump\t// in\n    tag_28:\n      mload(0x40)\n      tag_30\n      swap2\n      swap1\n      tag_31\n      jump\t// in\n    tag_30:\n      mload(0x40)\n      dup1\n      swap2\n      sub\n      swap1\n      return\n        /* \"help.sol\":446:471  bytes32 public constantId */\n    tag_6:\n      tag_32\n      tag_33\n      jump\t// in\n    tag_32:\n      mload(0x40)\n      tag_34\n      swap2\n      swap1\n      tag_35\n      jump\t// in\n    tag_34:\n      mload(0x40)\n      dup1\n      swap2\n      sub\n      swap1\n      return\n        /* \"help.sol\":510:534  bytes public dynamicData */\n    tag_7:\n      tag_36\n      tag_37\n      jump\t// in\n    tag_36:\n      mload(0x40)\n      tag_38\n      swap2\n      swap1\n      tag_39\n      jump\t// in\n    tag_38:\n      mload(0x40)\n      dup1\n      swap2\n      sub\n      swap1\n      return\n        /* \"help.sol\":262:280  uint8 public level */\n    tag_8:\n      tag_40\n      tag_41\n      jump\t// in\n    tag_40:\n      mload(0x40)\n      tag_42\n      swap2\n      swap1\n      tag_43\n      jump\t// in\n    tag_42:\n      mload(0x40)\n      dup1\n      swap2\n      sub\n      swap1\n      return\n        /* \"help.sol\":4240:4372  function getFlag(uint256 bucket, uint8 bit) public view returns (bool) {... */\n    tag_9:\n      tag_44\n      0x04\n      dup1\n      calldatasize\n      sub\n      dup2\n      add\n      swap1\n      tag_45\n      swap2\n      swap1\n      tag_46\n      jump\t// in\n    tag_45:\n      tag_47\n      jump\t// in\n    tag_44:\n      mload(0x40)\n      tag_48\n      swap2\n      swap1\n      tag_49\n      jump\t// in\n    tag_48:\n      mload(0x40)\n      dup1\n      swap2\n      sub\n      swap1\n      return\n        /* \"help.sol\":1207:1228  Order[] public orders */\n    tag_10:\n      tag_50\n      0x04\n      dup1\n      calldatasize\n      sub\n      dup2\n      add\n      swap1\n      tag_51\n      swap2\n      swap1\n      tag_52\n      jump\t// in\n    tag_51:\n      tag_53\n      jump\t// in\n    tag_50:\n      mload(0x40)\n      tag_54\n      swap5\n      swap4\n      swap3\n      swap2\n      swap1\n      tag_55\n      jump\t// in\n    tag_54:\n      mload(0x40)\n      dup1\n      swap2\n      sub\n      swap1\n      return\n        /* \"help.sol\":1904:1948  mapping(address => UserProfile) public users */\n    tag_11:\n      tag_56\n      0x04\n      dup1\n      calldatasize\n      sub\n      dup2\n      add\n      swap1\n      tag_57\n      swap2\n      swap1\n      tag_58\n      jump\t// in\n    tag_57:\n      tag_59\n      jump\t// in\n    tag_56:\n      mload(0x40)\n      tag_60\n      swap6\n      swap5\n      swap4\n      swap3\n      swap2\n      swap1\n      tag_61\n      jump\t// in\n    tag_60:\n      mload(0x40)\n      dup1\n      swap2\n      sub\n      swap1\n      return\n        /* \"help.sol\":2735:2767  address public immutable factory */\n    tag_12:\n      tag_62\n      tag_63\n      jump\t// in\n    tag_62:\n      mload(0x40)\n      tag_64\n      swap2\n      swap1\n      tag_65\n      jump\t// in\n    tag_64:\n      mload(0x40)\n      dup1\n      swap2\n      sub\n      swap1\n      return\n        /* \"help.sol\":2090:2115  uint256[][] public matrix */\n    tag_13:\n      tag_66\n      0x04\n      dup1\n      calldatasize\n      sub\n      dup2\n      add\n      swap1\n      tag_67\n      swap2\n      swap1\n      tag_68\n      jump\t// in\n    tag_67:\n      tag_69\n      jump\t// in\n    tag_66:\n      mload(0x40)\n      tag_70\n      swap2\n      swap1\n      tag_71\n      jump\t// in\n    tag_70:\n      mload(0x40)\n      dup1\n      swap2\n      sub\n      swap1\n      return\n        /* \"help.sol\":2391:2437  mapping(uint256 => uint256) public packedFlags */\n    tag_14:\n      tag_72\n      0x04\n      dup1\n      calldatasize\n      sub\n      dup2\n      add\n      swap1\n      tag_73\n      swap2\n      swap1\n      tag_52\n      jump\t// in\n    tag_73:\n      tag_74\n      jump\t// in\n    tag_72:\n      mload(0x40)\n      tag_75\n      swap2\n      swap1\n      tag_71\n      jump\t// in\n    tag_75:\n      mload(0x40)\n      dup1\n      swap2\n      sub\n      swap1\n      return\n        /* \"help.sol\":321:345  uint16 public countdowns */\n    tag_15:\n      tag_76\n      tag_77\n      jump\t// in\n    tag_76:\n      mload(0x40)\n      tag_78\n      swap2\n      swap1\n      tag_79\n      jump\t// in\n    tag_78:\n      mload(0x40)\n      dup1\n      swap2\n      sub\n      swap1\n      return\n        /* \"help.sol\":2594:2629  uint256 public constant VERSION = 1 */\n    tag_16:\n      tag_80\n      tag_81\n      jump\t// in\n    tag_80:\n      mload(0x40)\n      tag_82\n      swap2\n      swap1\n      tag_71\n      jump\t// in\n    tag_82:\n      mload(0x40)\n      dup1\n      swap2\n      sub\n      swap1\n      return\n        /* \"help.sol\":699:718  string public names */\n    tag_21:\n      0x03\n      dup1\n      sload\n      tag_83\n      swap1\n      tag_84\n      jump\t// in\n    tag_83:\n      dup1\n      0x1f\n      add\n      0x20\n      dup1\n      swap2\n      div\n      mul\n      0x20\n      add\n      mload(0x40)\n      swap1\n      dup2\n      add\n      0x40\n      mstore\n      dup1\n      swap3\n      swap2\n      swap1\n      dup2\n      dup2\n      mstore\n      0x20\n      add\n      dup3\n      dup1\n      sload\n      tag_85\n      swap1\n      tag_84\n      jump\t// in\n    tag_85:\n      dup1\n      iszero\n      tag_86\n      jumpi\n      dup1\n      0x1f\n      lt\n      tag_87\n      jumpi\n      0x0100\n      dup1\n      dup4\n      sload\n      div\n      mul\n      dup4\n      mstore\n      swap2\n      0x20\n      add\n      swap2\n      jump(tag_86)\n    tag_87:\n      dup3\n      add\n      swap2\n      swap1\n      0x00\n      mstore\n      keccak256(0x00, 0x20)\n      swap1\n    tag_88:\n      dup2\n      sload\n      dup2\n      mstore\n      swap1\n      0x01\n      add\n      swap1\n      0x20\n      add\n      dup1\n      dup4\n      gt\n      tag_88\n      jumpi\n      dup3\n      swap1\n      sub\n      0x1f\n      and\n      dup3\n      add\n      swap2\n    tag_86:\n      pop\n      pop\n      pop\n      pop\n      pop\n      dup2\n      jump\t// out\n        /* \"help.sol\":4382:4595  function setFlag(uint256 bucket, uint8 bit, bool value) public {... */\n    tag_27:\n        /* \"help.sol\":4459:4464  value */\n      dup1\n        /* \"help.sol\":4455:4589  if (value) {... */\n      iszero\n      tag_90\n      jumpi\n        /* \"help.sol\":4509:4512  bit */\n      dup2\n        /* \"help.sol\":4504:4512  1 << bit */\n      0xff\n      and\n        /* \"help.sol\":4504:4505  1 */\n      0x01\n        /* \"help.sol\":4504:4512  1 << bit */\n      swap1\n      shl\n        /* \"help.sol\":4480:4491  packedFlags */\n      0x07\n        /* \"help.sol\":4480:4499  packedFlags[bucket] */\n      0x00\n        /* \"help.sol\":4492:4498  bucket */\n      dup6\n        /* \"help.sol\":4480:4499  packedFlags[bucket] */\n      dup2\n      mstore\n      0x20\n      add\n      swap1\n      dup2\n      mstore\n      0x20\n      add\n      0x00\n      keccak256\n      0x00\n        /* \"help.sol\":4480:4513  packedFlags[bucket] |= (1 << bit) */\n      dup3\n      dup3\n      sload\n      or\n      swap3\n      pop\n      pop\n      dup2\n      swap1\n      sstore\n      pop\n        /* \"help.sol\":4455:4589  if (value) {... */\n      jump(tag_91)\n    tag_90:\n        /* \"help.sol\":4574:4577  bit */\n      dup2\n        /* \"help.sol\":4569:4577  1 << bit */\n      0xff\n      and\n        /* \"help.sol\":4569:4570  1 */\n      0x01\n        /* \"help.sol\":4569:4577  1 << bit */\n      swap1\n      shl\n        /* \"help.sol\":4567:4578  ~(1 << bit) */\n      not\n        /* \"help.sol\":4544:4555  packedFlags */\n      0x07\n        /* \"help.sol\":4544:4563  packedFlags[bucket] */\n      0x00\n        /* \"help.sol\":4556:4562  bucket */\n      dup6\n        /* \"help.sol\":4544:4563  packedFlags[bucket] */\n      dup2\n      mstore\n      0x20\n      add\n      swap1\n      dup2\n      mstore\n      0x20\n      add\n      0x00\n      keccak256\n      0x00\n        /* \"help.sol\":4544:4578  packedFlags[bucket] &= ~(1 << bit) */\n      dup3\n      dup3\n      sload\n      and\n      swap3\n      pop\n      pop\n      dup2\n      swap1\n      sstore\n      pop\n        /* \"help.sol\":4455:4589  if (value) {... */\n    tag_91:\n        /* \"help.sol\":4382:4595  function setFlag(uint256 bucket, uint8 bit, bool value) public {... */\n      pop\n      pop\n      pop\n      jump\t// out\n        /* \"help.sol\":198:218  Status public status */\n    tag_29:\n      0x00\n      0x00\n      swap1\n      sload\n      swap1\n      0x0100\n      exp\n      swap1\n      div\n      0xff\n      and\n      dup2\n      jump\t// out\n        /* \"help.sol\":446:471  bytes32 public constantId */\n    tag_33:\n      sload(0x01)\n      dup2\n      jump\t// out\n        /* \"help.sol\":510:534  bytes public dynamicData */\n    tag_37:\n      0x02\n      dup1\n      sload\n      tag_92\n      swap1\n      tag_84\n      jump\t// in\n    tag_92:\n      dup1\n      0x1f\n      add\n      0x20\n      dup1\n      swap2\n      div\n      mul\n      0x20\n      add\n      mload(0x40)\n      swap1\n      dup2\n      add\n      0x40\n      mstore\n      dup1\n      swap3\n      swap2\n      swap1\n      dup2\n      dup2\n      mstore\n      0x20\n      add\n      dup3\n      dup1\n      sload\n      tag_93\n      swap1\n      tag_84\n      jump\t// in\n    tag_93:\n      dup1\n      iszero\n      tag_94\n      jumpi\n      dup1\n      0x1f\n      lt\n      tag_95\n      jumpi\n      0x0100\n      dup1\n      dup4\n      sload\n      div\n      mul\n      dup4\n      mstore\n      swap2\n      0x20\n      add\n      swap2\n      jump(tag_94)\n    tag_95:\n      dup3\n      add\n      swap2\n      swap1\n      0x00\n      mstore\n      keccak256(0x00, 0x20)\n      swap1\n    tag_96:\n      dup2\n      sload\n      dup2\n      mstore\n      swap1\n      0x01\n      add\n      swap1\n      0x20\n      add\n      dup1\n      dup4\n      gt\n      tag_96\n      jumpi\n      dup3\n      swap1\n      sub\n      0x1f\n      and\n      dup3\n      add\n      swap2\n    tag_94:\n      pop\n      pop\n      pop\n      pop\n      pop\n      dup2\n      jump\t// out\n        /* \"help.sol\":262:280  uint8 public level */\n    tag_41:\n      0x00\n      0x01\n      swap1\n      sload\n      swap1\n      0x0100\n      exp\n      swap1\n      div\n      0xff\n      and\n      dup2\n      jump\t// out\n        /* \"help.sol\":4240:4372  function getFlag(uint256 bucket, uint8 bit) public view returns (bool) {... */\n    tag_47:\n        /* \"help.sol\":4305:4309  bool */\n      0x00\n        /* \"help.sol\":4364:4365  1 */\n      0x01\n        /* \"help.sol\":4359:4360  1 */\n      dup1\n        /* \"help.sol\":4352:4355  bit */\n      dup4\n        /* \"help.sol\":4329:4355  packedFlags[bucket] >> bit */\n      0xff\n      and\n        /* \"help.sol\":4329:4340  packedFlags */\n      0x07\n        /* \"help.sol\":4329:4348  packedFlags[bucket] */\n      0x00\n        /* \"help.sol\":4341:4347  bucket */\n      dup8\n        /* \"help.sol\":4329:4348  packedFlags[bucket] */\n      dup2\n      mstore\n      0x20\n      add\n      swap1\n      dup2\n      mstore\n      0x20\n      add\n      0x00\n      keccak256\n      sload\n        /* \"help.sol\":4329:4355  packedFlags[bucket] >> bit */\n      swap1\n      shr\n        /* \"help.sol\":4328:4360  (packedFlags[bucket] >> bit) & 1 */\n      and\n        /* \"help.sol\":4328:4365  (packedFlags[bucket] >> bit) & 1 == 1 */\n      eq\n        /* \"help.sol\":4321:4365  return (packedFlags[bucket] >> bit) & 1 == 1 */\n      swap1\n      pop\n        /* \"help.sol\":4240:4372  function getFlag(uint256 bucket, uint8 bit) public view returns (bool) {... */\n      swap3\n      swap2\n      pop\n      pop\n      jump\t// out\n        /* \"help.sol\":1207:1228  Order[] public orders */\n    tag_53:\n      0x04\n      dup2\n      dup2\n      sload\n      dup2\n      lt\n      tag_98\n      jumpi\n      0x00\n      dup1\n      revert\n    tag_98:\n      swap1\n      0x00\n      mstore\n      keccak256(0x00, 0x20)\n      swap1\n      0x02\n      mul\n      add\n      0x00\n      swap2\n      pop\n      swap1\n      pop\n      dup1\n      0x00\n      add\n      0x00\n      swap1\n      sload\n      swap1\n      0x0100\n      exp\n      swap1\n      div\n      0xffffffffffffffff\n      and\n      swap1\n      dup1\n      0x00\n      add\n      0x08\n      swap1\n      sload\n      swap1\n      0x0100\n      exp\n      swap1\n      div\n      0xffffffffffffffff\n      and\n      swap1\n      dup1\n      0x01\n      add\n      0x00\n      swap1\n      sload\n      swap1\n      0x0100\n      exp\n      swap1\n      div\n      0xffffffffffffffffffffffffffffffffffffffff\n      and\n      swap1\n      dup1\n      0x01\n      add\n      0x14\n      swap1\n      sload\n      swap1\n      0x0100\n      exp\n      swap1\n      div\n      0xff\n      and\n      swap1\n      pop\n      dup5\n      jump\t// out\n        /* \"help.sol\":1904:1948  mapping(address => UserProfile) public users */\n    tag_59:\n      mstore(0x20, 0x05)\n      dup1\n      0x00\n      mstore\n      keccak256(0x00, 0x40)\n      0x00\n      swap2\n      pop\n      swap1\n      pop\n      dup1\n      0x00\n      add\n      0x00\n      swap1\n      sload\n      swap1\n      0x0100\n      exp\n      swap1\n      div\n      0xffffffffffffffffffffffffffffffff\n      and\n      swap1\n      dup1\n      0x00\n      add\n      0x10\n      swap1\n      sload\n      swap1\n      0x0100\n      exp\n      swap1\n      div\n      0xffffffffffffffffffffffffffffffff\n      and\n      swap1\n      dup1\n      0x01\n      add\n      sload\n      swap1\n      dup1\n      0x02\n      add\n      0x00\n      swap1\n      sload\n      swap1\n      0x0100\n      exp\n      swap1\n      div\n      0xffffffffffffffff\n      and\n      swap1\n      dup1\n      0x02\n      add\n      0x08\n      swap1\n      sload\n      swap1\n      0x0100\n      exp\n      swap1\n      div\n      0xff\n      and\n      swap1\n      pop\n      dup6\n      jump\t// out\n        /* \"help.sol\":2735:2767  address public immutable factory */\n    tag_63:\n      immutable(\"0x64e604787cbf194841e7b68d7cd28786f6c9a0a3ab9f8b0a0e87cb4387ab0107\")\n      dup2\n      jump\t// out\n        /* \"help.sol\":2090:2115  uint256[][] public matrix */\n    tag_69:\n      0x06\n      dup3\n      dup2\n      sload\n      dup2\n      lt\n      tag_100\n      jumpi\n      0x00\n      dup1\n      revert\n    tag_100:\n      swap1\n      0x00\n      mstore\n      keccak256(0x00, 0x20)\n      add\n      dup2\n      dup2\n      sload\n      dup2\n      lt\n      tag_102\n      jumpi\n      0x00\n      dup1\n      revert\n    tag_102:\n      swap1\n      0x00\n      mstore\n      keccak256(0x00, 0x20)\n      add\n      0x00\n      swap2\n      pop\n      swap2\n      pop\n      pop\n      sload\n      dup2\n      jump\t// out\n        /* \"help.sol\":2391:2437  mapping(uint256 => uint256) public packedFlags */\n    tag_74:\n      mstore(0x20, 0x07)\n      dup1\n      0x00\n      mstore\n      keccak256(0x00, 0x40)\n      0x00\n      swap2\n      pop\n      swap1\n      pop\n      sload\n      dup2\n      jump\t// out\n        /* \"help.sol\":321:345  uint16 public countdowns */\n    tag_77:\n      0x00\n      0x02\n      swap1\n      sload\n      swap1\n      0x0100\n      exp\n      swap1\n      div\n      0xffff\n      and\n      dup2\n      jump\t// out\n        /* \"help.sol\":2594:2629  uint256 public constant VERSION = 1 */\n    tag_81:\n        /* \"help.sol\":2628:2629  1 */\n      0x01\n        /* \"help.sol\":2594:2629  uint256 public constant VERSION = 1 */\n      dup2\n      jump\t// out\n        /* \"#utility.yul\":7:106   */\n    tag_104:\n        /* \"#utility.yul\":59:65   */\n      0x00\n        /* \"#utility.yul\":93:98   */\n      dup2\n        /* \"#utility.yul\":87:99   */\n      mload\n        /* \"#utility.yul\":77:99   */\n      swap1\n      pop\n        /* \"#utility.yul\":7:106   */\n      swap2\n      swap1\n      pop\n      jump\t// out\n        /* \"#utility.yul\":112:281   */\n    tag_105:\n        /* \"#utility.yul\":196:207   */\n      0x00\n        /* \"#utility.yul\":230:236   */\n      dup3\n        /* \"#utility.yul\":225:228   */\n      dup3\n        /* \"#utility.yul\":218:237   */\n      mstore\n        /* \"#utility.yul\":270:274   */\n      0x20\n        /* \"#utility.yul\":265:268   */\n      dup3\n        /* \"#utility.yul\":261:275   */\n      add\n        /* \"#utility.yul\":246:275   */\n      swap1\n      pop\n        /* \"#utility.yul\":112:281   */\n      swap3\n      swap2\n      pop\n      pop\n      jump\t// out\n        /* \"#utility.yul\":287:426   */\n    tag_106:\n        /* \"#utility.yul\":376:382   */\n      dup3\n        /* \"#utility.yul\":371:374   */\n      dup2\n        /* \"#utility.yul\":366:369   */\n      dup4\n        /* \"#utility.yul\":360:383   */\n      mcopy\n        /* \"#utility.yul\":417:418   */\n      0x00\n        /* \"#utility.yul\":408:414   */\n      dup4\n        /* \"#utility.yul\":403:406   */\n      dup4\n        /* \"#utility.yul\":399:415   */\n      add\n        /* \"#utility.yul\":392:419   */\n      mstore\n        /* \"#utility.yul\":287:426   */\n      pop\n      pop\n      pop\n      jump\t// out\n        /* \"#utility.yul\":432:534   */\n    tag_107:\n        /* \"#utility.yul\":473:479   */\n      0x00\n        /* \"#utility.yul\":524:526   */\n      0x1f\n        /* \"#utility.yul\":520:527   */\n      not\n        /* \"#utility.yul\":515:517   */\n      0x1f\n        /* \"#utility.yul\":508:513   */\n      dup4\n        /* \"#utility.yul\":504:518   */\n      add\n        /* \"#utility.yul\":500:528   */\n      and\n        /* \"#utility.yul\":490:528   */\n      swap1\n      pop\n        /* \"#utility.yul\":432:534   */\n      swap2\n      swap1\n      pop\n      jump\t// out\n        /* \"#utility.yul\":540:917   */\n    tag_108:\n        /* \"#utility.yul\":628:631   */\n      0x00\n        /* \"#utility.yul\":656:695   */\n      tag_152\n        /* \"#utility.yul\":689:694   */\n      dup3\n        /* \"#utility.yul\":656:695   */\n      tag_104\n      jump\t// in\n    tag_152:\n        /* \"#utility.yul\":711:782   */\n      tag_153\n        /* \"#utility.yul\":775:781   */\n      dup2\n        /* \"#utility.yul\":770:773   */\n      dup6\n        /* \"#utility.yul\":711:782   */\n      tag_105\n      jump\t// in\n    tag_153:\n        /* \"#utility.yul\":704:782   */\n      swap4\n      pop\n        /* \"#utility.yul\":791:856   */\n      tag_154\n        /* \"#utility.yul\":849:855   */\n      dup2\n        /* \"#utility.yul\":844:847   */\n      dup6\n        /* \"#utility.yul\":837:841   */\n      0x20\n        /* \"#utility.yul\":830:835   */\n      dup7\n        /* \"#utility.yul\":826:842   */\n      add\n        /* \"#utility.yul\":791:856   */\n      tag_106\n      jump\t// in\n    tag_154:\n        /* \"#utility.yul\":881:910   */\n      tag_155\n        /* \"#utility.yul\":903:909   */\n      dup2\n        /* \"#utility.yul\":881:910   */\n      tag_107\n      jump\t// in\n    tag_155:\n        /* \"#utility.yul\":876:879   */\n      dup5\n        /* \"#utility.yul\":872:911   */\n      add\n        /* \"#utility.yul\":865:911   */\n      swap2\n      pop\n        /* \"#utility.yul\":632:917   */\n      pop\n        /* \"#utility.yul\":540:917   */\n      swap3\n      swap2\n      pop\n      pop\n      jump\t// out\n        /* \"#utility.yul\":923:1236   */\n    tag_23:\n        /* \"#utility.yul\":1036:1040   */\n      0x00\n        /* \"#utility.yul\":1074:1076   */\n      0x20\n        /* \"#utility.yul\":1063:1072   */\n      dup3\n        /* \"#utility.yul\":1059:1077   */\n      add\n        /* \"#utility.yul\":1051:1077   */\n      swap1\n      pop\n        /* \"#utility.yul\":1123:1132   */\n      dup2\n        /* \"#utility.yul\":1117:1121   */\n      dup2\n        /* \"#utility.yul\":1113:1133   */\n      sub\n        /* \"#utility.yul\":1109:1110   */\n      0x00\n        /* \"#utility.yul\":1098:1107   */\n      dup4\n        /* \"#utility.yul\":1094:1111   */\n      add\n        /* \"#utility.yul\":1087:1134   */\n      mstore\n        /* \"#utility.yul\":1151:1229   */\n      tag_157\n        /* \"#utility.yul\":1224:1228   */\n      dup2\n        /* \"#utility.yul\":1215:1221   */\n      dup5\n        /* \"#utility.yul\":1151:1229   */\n      tag_108\n      jump\t// in\n    tag_157:\n        /* \"#utility.yul\":1143:1229   */\n      swap1\n      pop\n        /* \"#utility.yul\":923:1236   */\n      swap3\n      swap2\n      pop\n      pop\n      jump\t// out\n        /* \"#utility.yul\":1323:1440   */\n    tag_110:\n        /* \"#utility.yul\":1432:1433   */\n      0x00\n        /* \"#utility.yul\":1429:1430   */\n      0x00\n        /* \"#utility.yul\":1422:1434   */\n      revert\n        /* \"#utility.yul\":1569:1646   */\n    tag_112:\n        /* \"#utility.yul\":1606:1613   */\n      0x00\n        /* \"#utility.yul\":1635:1640   */\n      dup2\n        /* \"#utility.yul\":1624:1640   */\n      swap1\n      pop\n        /* \"#utility.yul\":1569:1646   */\n      swap2\n      swap1\n      pop\n      jump\t// out\n        /* \"#utility.yul\":1652:1774   */\n    tag_113:\n        /* \"#utility.yul\":1725:1749   */\n      tag_163\n        /* \"#utility.yul\":1743:1748   */\n      dup2\n        /* \"#utility.yul\":1725:1749   */\n      tag_112\n      jump\t// in\n    tag_163:\n        /* \"#utility.yul\":1718:1723   */\n      dup2\n        /* \"#utility.yul\":1715:1750   */\n      eq\n        /* \"#utility.yul\":1705:1768   */\n      tag_164\n      jumpi\n        /* \"#utility.yul\":1764:1765   */\n      0x00\n        /* \"#utility.yul\":1761:1762   */\n      0x00\n        /* \"#utility.yul\":1754:1766   */\n      revert\n        /* \"#utility.yul\":1705:1768   */\n    tag_164:\n        /* \"#utility.yul\":1652:1774   */\n      pop\n      jump\t// out\n        /* \"#utility.yul\":1780:1919   */\n    tag_114:\n        /* \"#utility.yul\":1826:1831   */\n      0x00\n        /* \"#utility.yul\":1864:1870   */\n      dup2\n        /* \"#utility.yul\":1851:1871   */\n      calldataload\n        /* \"#utility.yul\":1842:1871   */\n      swap1\n      pop\n        /* \"#utility.yul\":1880:1913   */\n      tag_166\n        /* \"#utility.yul\":1907:1912   */\n      dup2\n        /* \"#utility.yul\":1880:1913   */\n      tag_113\n      jump\t// in\n    tag_166:\n        /* \"#utility.yul\":1780:1919   */\n      swap3\n      swap2\n      pop\n      pop\n      jump\t// out\n        /* \"#utility.yul\":1925:2011   */\n    tag_115:\n        /* \"#utility.yul\":1960:1967   */\n      0x00\n        /* \"#utility.yul\":2000:2004   */\n      0xff\n        /* \"#utility.yul\":1993:1998   */\n      dup3\n        /* \"#utility.yul\":1989:2005   */\n      and\n        /* \"#utility.yul\":1978:2005   */\n      swap1\n      pop\n        /* \"#utility.yul\":1925:2011   */\n      swap2\n      swap1\n      pop\n      jump\t// out\n        /* \"#utility.yul\":2017:2135   */\n    tag_116:\n        /* \"#utility.yul\":2088:2110   */\n      tag_169\n        /* \"#utility.yul\":2104:2109   */\n      dup2\n        /* \"#utility.yul\":2088:2110   */\n      tag_115\n      jump\t// in\n    tag_169:\n        /* \"#utility.yul\":2081:2086   */\n      dup2\n        /* \"#utility.yul\":2078:2111   */\n      eq\n        /* \"#utility.yul\":2068:2129   */\n      tag_170\n      jumpi\n        /* \"#utility.yul\":2125:2126   */\n      0x00\n        /* \"#utility.yul\":2122:2123   */\n      0x00\n        /* \"#utility.yul\":2115:2127   */\n      revert\n        /* \"#utility.yul\":2068:2129   */\n    tag_170:\n        /* \"#utility.yul\":2017:2135   */\n      pop\n      jump\t// out\n        /* \"#utility.yul\":2141:2276   */\n    tag_117:\n        /* \"#utility.yul\":2185:2190   */\n      0x00\n        /* \"#utility.yul\":2223:2229   */\n      dup2\n        /* \"#utility.yul\":2210:2230   */\n      calldataload\n        /* \"#utility.yul\":2201:2230   */\n      swap1\n      pop\n        /* \"#utility.yul\":2239:2270   */\n      tag_172\n        /* \"#utility.yul\":2264:2269   */\n      dup2\n        /* \"#utility.yul\":2239:2270   */\n      tag_116\n      jump\t// in\n    tag_172:\n        /* \"#utility.yul\":2141:2276   */\n      swap3\n      swap2\n      pop\n      pop\n      jump\t// out\n        /* \"#utility.yul\":2282:2372   */\n    tag_118:\n        /* \"#utility.yul\":2316:2323   */\n      0x00\n        /* \"#utility.yul\":2359:2364   */\n      dup2\n        /* \"#utility.yul\":2352:2365   */\n      iszero\n        /* \"#utility.yul\":2345:2366   */\n      iszero\n        /* \"#utility.yul\":2334:2366   */\n      swap1\n      pop\n        /* \"#utility.yul\":2282:2372   */\n      swap2\n      swap1\n      pop\n      jump\t// out\n        /* \"#utility.yul\":2378:2494   */\n    tag_119:\n        /* \"#utility.yul\":2448:2469   */\n      tag_175\n        /* \"#utility.yul\":2463:2468   */\n      dup2\n        /* \"#utility.yul\":2448:2469   */\n      tag_118\n      jump\t// in\n    tag_175:\n        /* \"#utility.yul\":2441:2446   */\n      dup2\n        /* \"#utility.yul\":2438:2470   */\n      eq\n        /* \"#utility.yul\":2428:2488   */\n      tag_176\n      jumpi\n        /* \"#utility.yul\":2484:2485   */\n      0x00\n        /* \"#utility.yul\":2481:2482   */\n      0x00\n        /* \"#utility.yul\":2474:2486   */\n      revert\n        /* \"#utility.yul\":2428:2488   */\n    tag_176:\n        /* \"#utility.yul\":2378:2494   */\n      pop\n      jump\t// out\n        /* \"#utility.yul\":2500:2633   */\n    tag_120:\n        /* \"#utility.yul\":2543:2548   */\n      0x00\n        /* \"#utility.yul\":2581:2587   */\n      dup2\n        /* \"#utility.yul\":2568:2588   */\n      calldataload\n        /* \"#utility.yul\":2559:2588   */\n      swap1\n      pop\n        /* \"#utility.yul\":2597:2627   */\n      tag_178\n        /* \"#utility.yul\":2621:2626   */\n      dup2\n        /* \"#utility.yul\":2597:2627   */\n      tag_119\n      jump\t// in\n    tag_178:\n        /* \"#utility.yul\":2500:2633   */\n      swap3\n      swap2\n      pop\n      pop\n      jump\t// out\n        /* \"#utility.yul\":2639:3248   */\n    tag_26:\n        /* \"#utility.yul\":2711:2717   */\n      0x00\n        /* \"#utility.yul\":2719:2725   */\n      0x00\n        /* \"#utility.yul\":2727:2733   */\n      0x00\n        /* \"#utility.yul\":2776:2778   */\n      0x60\n        /* \"#utility.yul\":2764:2773   */\n      dup5\n        /* \"#utility.yul\":2755:2762   */\n      dup7\n        /* \"#utility.yul\":2751:2774   */\n      sub\n        /* \"#utility.yul\":2747:2779   */\n      slt\n        /* \"#utility.yul\":2744:2863   */\n      iszero\n      tag_180\n      jumpi\n        /* \"#utility.yul\":2782:2861   */\n      tag_181\n      tag_110\n      jump\t// in\n    tag_181:\n        /* \"#utility.yul\":2744:2863   */\n    tag_180:\n        /* \"#utility.yul\":2902:2903   */\n      0x00\n        /* \"#utility.yul\":2927:2980   */\n      tag_182\n        /* \"#utility.yul\":2972:2979   */\n      dup7\n        /* \"#utility.yul\":2963:2969   */\n      dup3\n        /* \"#utility.yul\":2952:2961   */\n      dup8\n        /* \"#utility.yul\":2948:2970   */\n      add\n        /* \"#utility.yul\":2927:2980   */\n      tag_114\n      jump\t// in\n    tag_182:\n        /* \"#utility.yul\":2917:2980   */\n      swap4\n      pop\n        /* \"#utility.yul\":2873:2990   */\n      pop\n        /* \"#utility.yul\":3029:3031   */\n      0x20\n        /* \"#utility.yul\":3055:3106   */\n      tag_183\n        /* \"#utility.yul\":3098:3105   */\n      dup7\n        /* \"#utility.yul\":3089:3095   */\n      dup3\n        /* \"#utility.yul\":3078:3087   */\n      dup8\n        /* \"#utility.yul\":3074:3096   */\n      add\n        /* \"#utility.yul\":3055:3106   */\n      tag_117\n      jump\t// in\n    tag_183:\n        /* \"#utility.yul\":3045:3106   */\n      swap3\n      pop\n        /* \"#utility.yul\":3000:3116   */\n      pop\n        /* \"#utility.yul\":3155:3157   */\n      0x40\n        /* \"#utility.yul\":3181:3231   */\n      tag_184\n        /* \"#utility.yul\":3223:3230   */\n      dup7\n        /* \"#utility.yul\":3214:3220   */\n      dup3\n        /* \"#utility.yul\":3203:3212   */\n      dup8\n        /* \"#utility.yul\":3199:3221   */\n      add\n        /* \"#utility.yul\":3181:3231   */\n      tag_120\n      jump\t// in\n    tag_184:\n        /* \"#utility.yul\":3171:3231   */\n      swap2\n      pop\n        /* \"#utility.yul\":3126:3241   */\n      pop\n        /* \"#utility.yul\":2639:3248   */\n      swap3\n      pop\n      swap3\n      pop\n      swap3\n      jump\t// out\n        /* \"#utility.yul\":3254:3434   */\n    tag_121:\n        /* \"#utility.yul\":3302:3379   */\n      0x4e487b7100000000000000000000000000000000000000000000000000000000\n        /* \"#utility.yul\":3299:3300   */\n      0x00\n        /* \"#utility.yul\":3292:3380   */\n      mstore\n        /* \"#utility.yul\":3399:3403   */\n      0x21\n        /* \"#utility.yul\":3396:3397   */\n      0x04\n        /* \"#utility.yul\":3389:3404   */\n      mstore\n        /* \"#utility.yul\":3423:3427   */\n      0x24\n        /* \"#utility.yul\":3420:3421   */\n      0x00\n        /* \"#utility.yul\":3413:3428   */\n      revert\n        /* \"#utility.yul\":3440:3554   */\n    tag_122:\n        /* \"#utility.yul\":3522:3523   */\n      0x04\n        /* \"#utility.yul\":3515:3520   */\n      dup2\n        /* \"#utility.yul\":3512:3524   */\n      lt\n        /* \"#utility.yul\":3502:3548   */\n      tag_187\n      jumpi\n        /* \"#utility.yul\":3528:3546   */\n      tag_188\n      tag_121\n      jump\t// in\n    tag_188:\n        /* \"#utility.yul\":3502:3548   */\n    tag_187:\n        /* \"#utility.yul\":3440:3554   */\n      pop\n      jump\t// out\n        /* \"#utility.yul\":3560:3689   */\n    tag_123:\n        /* \"#utility.yul\":3606:3613   */\n      0x00\n        /* \"#utility.yul\":3635:3640   */\n      dup2\n        /* \"#utility.yul\":3624:3640   */\n      swap1\n      pop\n        /* \"#utility.yul\":3641:3683   */\n      tag_190\n        /* \"#utility.yul\":3677:3682   */\n      dup3\n        /* \"#utility.yul\":3641:3683   */\n      tag_122\n      jump\t// in\n    tag_190:\n        /* \"#utility.yul\":3560:3689   */\n      swap2\n      swap1\n      pop\n      jump\t// out\n        /* \"#utility.yul\":3695:3824   */\n    tag_124:\n        /* \"#utility.yul\":3752:3761   */\n      0x00\n        /* \"#utility.yul\":3785:3818   */\n      tag_192\n        /* \"#utility.yul\":3812:3817   */\n      dup3\n        /* \"#utility.yul\":3785:3818   */\n      tag_123\n      jump\t// in\n    tag_192:\n        /* \"#utility.yul\":3772:3818   */\n      swap1\n      pop\n        /* \"#utility.yul\":3695:3824   */\n      swap2\n      swap1\n      pop\n      jump\t// out\n        /* \"#utility.yul\":3830:3975   */\n    tag_125:\n        /* \"#utility.yul\":3924:3968   */\n      tag_194\n        /* \"#utility.yul\":3962:3967   */\n      dup2\n        /* \"#utility.yul\":3924:3968   */\n      tag_124\n      jump\t// in\n    tag_194:\n        /* \"#utility.yul\":3919:3922   */\n      dup3\n        /* \"#utility.yul\":3912:3969   */\n      mstore\n        /* \"#utility.yul\":3830:3975   */\n      pop\n      pop\n      jump\t// out\n        /* \"#utility.yul\":3981:4217   */\n    tag_31:\n        /* \"#utility.yul\":4081:4085   */\n      0x00\n        /* \"#utility.yul\":4119:4121   */\n      0x20\n        /* \"#utility.yul\":4108:4117   */\n      dup3\n        /* \"#utility.yul\":4104:4122   */\n      add\n        /* \"#utility.yul\":4096:4122   */\n      swap1\n      pop\n        /* \"#utility.yul\":4132:4210   */\n      tag_196\n        /* \"#utility.yul\":4207:4208   */\n      0x00\n        /* \"#utility.yul\":4196:4205   */\n      dup4\n        /* \"#utility.yul\":4192:4209   */\n      add\n        /* \"#utility.yul\":4183:4189   */\n      dup5\n        /* \"#utility.yul\":4132:4210   */\n      tag_125\n      jump\t// in\n    tag_196:\n        /* \"#utility.yul\":3981:4217   */\n      swap3\n      swap2\n      pop\n      pop\n      jump\t// out\n        /* \"#utility.yul\":4223:4300   */\n    tag_126:\n        /* \"#utility.yul\":4260:4267   */\n      0x00\n        /* \"#utility.yul\":4289:4294   */\n      dup2\n        /* \"#utility.yul\":4278:4294   */\n      swap1\n      pop\n        /* \"#utility.yul\":4223:4300   */\n      swap2\n      swap1\n      pop\n      jump\t// out\n        /* \"#utility.yul\":4306:4424   */\n    tag_127:\n        /* \"#utility.yul\":4393:4417   */\n      tag_199\n        /* \"#utility.yul\":4411:4416   */\n      dup2\n        /* \"#utility.yul\":4393:4417   */\n      tag_126\n      jump\t// in\n    tag_199:\n        /* \"#utility.yul\":4388:4391   */\n      dup3\n        /* \"#utility.yul\":4381:4418   */\n      mstore\n        /* \"#utility.yul\":4306:4424   */\n      pop\n      pop\n      jump\t// out\n        /* \"#utility.yul\":4430:4652   */\n    tag_35:\n        /* \"#utility.yul\":4523:4527   */\n      0x00\n        /* \"#utility.yul\":4561:4563   */\n      0x20\n        /* \"#utility.yul\":4550:4559   */\n      dup3\n        /* \"#utility.yul\":4546:4564   */\n      add\n        /* \"#utility.yul\":4538:4564   */\n      swap1\n      pop\n        /* \"#utility.yul\":4574:4645   */\n      tag_201\n        /* \"#utility.yul\":4642:4643   */\n      0x00\n        /* \"#utility.yul\":4631:4640   */\n      dup4\n        /* \"#utility.yul\":4627:4644   */\n      add\n        /* \"#utility.yul\":4618:4624   */\n      dup5\n        /* \"#utility.yul\":4574:4645   */\n      tag_127\n      jump\t// in\n    tag_201:\n        /* \"#utility.yul\":4430:4652   */\n      swap3\n      swap2\n      pop\n      pop\n      jump\t// out\n        /* \"#utility.yul\":4658:4756   */\n    tag_128:\n        /* \"#utility.yul\":4709:4715   */\n      0x00\n        /* \"#utility.yul\":4743:4748   */\n      dup2\n        /* \"#utility.yul\":4737:4749   */\n      mload\n        /* \"#utility.yul\":4727:4749   */\n      swap1\n      pop\n        /* \"#utility.yul\":4658:4756   */\n      swap2\n      swap1\n      pop\n      jump\t// out\n        /* \"#utility.yul\":4762:4930   */\n    tag_129:\n        /* \"#utility.yul\":4845:4856   */\n      0x00\n        /* \"#utility.yul\":4879:4885   */\n      dup3\n        /* \"#utility.yul\":4874:4877   */\n      dup3\n        /* \"#utility.yul\":4867:4886   */\n      mstore\n        /* \"#utility.yul\":4919:4923   */\n      0x20\n        /* \"#utility.yul\":4914:4917   */\n      dup3\n        /* \"#utility.yul\":4910:4924   */\n      add\n        /* \"#utility.yul\":4895:4924   */\n      swap1\n      pop\n        /* \"#utility.yul\":4762:4930   */\n      swap3\n      swap2\n      pop\n      pop\n      jump\t// out\n        /* \"#utility.yul\":4936:5309   */\n    tag_130:\n        /* \"#utility.yul\":5022:5025   */\n      0x00\n        /* \"#utility.yul\":5050:5088   */\n      tag_205\n        /* \"#utility.yul\":5082:5087   */\n      dup3\n        /* \"#utility.yul\":5050:5088   */\n      tag_128\n      jump\t// in\n    tag_205:\n        /* \"#utility.yul\":5104:5174   */\n      tag_206\n        /* \"#utility.yul\":5167:5173   */\n      dup2\n        /* \"#utility.yul\":5162:5165   */\n      dup6\n        /* \"#utility.yul\":5104:5174   */\n      tag_129\n      jump\t// in\n    tag_206:\n        /* \"#utility.yul\":5097:5174   */\n      swap4\n      pop\n        /* \"#utility.yul\":5183:5248   */\n      tag_207\n        /* \"#utility.yul\":5241:5247   */\n      dup2\n        /* \"#utility.yul\":5236:5239   */\n      dup6\n        /* \"#utility.yul\":5229:5233   */\n      0x20\n        /* \"#utility.yul\":5222:5227   */\n      dup7\n        /* \"#utility.yul\":5218:5234   */\n      add\n        /* \"#utility.yul\":5183:5248   */\n      tag_106\n      jump\t// in\n    tag_207:\n        /* \"#utility.yul\":5273:5302   */\n      tag_208\n        /* \"#utility.yul\":5295:5301   */\n      dup2\n        /* \"#utility.yul\":5273:5302   */\n      tag_107\n      jump\t// in\n    tag_208:\n        /* \"#utility.yul\":5268:5271   */\n      dup5\n        /* \"#utility.yul\":5264:5303   */\n      add\n        /* \"#utility.yul\":5257:5303   */\n      swap2\n      pop\n        /* \"#utility.yul\":5026:5309   */\n      pop\n        /* \"#utility.yul\":4936:5309   */\n      swap3\n      swap2\n      pop\n      pop\n      jump\t// out\n        /* \"#utility.yul\":5315:5624   */\n    tag_39:\n        /* \"#utility.yul\":5426:5430   */\n      0x00\n        /* \"#utility.yul\":5464:5466   */\n      0x20\n        /* \"#utility.yul\":5453:5462   */\n      dup3\n        /* \"#utility.yul\":5449:5467   */\n      add\n        /* \"#utility.yul\":5441:5467   */\n      swap1\n      pop\n        /* \"#utility.yul\":5513:5522   */\n      dup2\n        /* \"#utility.yul\":5507:5511   */\n      dup2\n        /* \"#utility.yul\":5503:5523   */\n      sub\n        /* \"#utility.yul\":5499:5500   */\n      0x00\n        /* \"#utility.yul\":5488:5497   */\n      dup4\n        /* \"#utility.yul\":5484:5501   */\n      add\n        /* \"#utility.yul\":5477:5524   */\n      mstore\n        /* \"#utility.yul\":5541:5617   */\n      tag_210\n        /* \"#utility.yul\":5612:5616   */\n      dup2\n        /* \"#utility.yul\":5603:5609   */\n      dup5\n        /* \"#utility.yul\":5541:5617   */\n      tag_130\n      jump\t// in\n    tag_210:\n        /* \"#utility.yul\":5533:5617   */\n      swap1\n      pop\n        /* \"#utility.yul\":5315:5624   */\n      swap3\n      swap2\n      pop\n      pop\n      jump\t// out\n        /* \"#utility.yul\":5630:5742   */\n    tag_131:\n        /* \"#utility.yul\":5713:5735   */\n      tag_212\n        /* \"#utility.yul\":5729:5734   */\n      dup2\n        /* \"#utility.yul\":5713:5735   */\n      tag_115\n      jump\t// in\n    tag_212:\n        /* \"#utility.yul\":5708:5711   */\n      dup3\n        /* \"#utility.yul\":5701:5736   */\n      mstore\n        /* \"#utility.yul\":5630:5742   */\n      pop\n      pop\n      jump\t// out\n        /* \"#utility.yul\":5748:5962   */\n    tag_43:\n        /* \"#utility.yul\":5837:5841   */\n      0x00\n        /* \"#utility.yul\":5875:5877   */\n      0x20\n        /* \"#utility.yul\":5864:5873   */\n      dup3\n        /* \"#utility.yul\":5860:5878   */\n      add\n        /* \"#utility.yul\":5852:5878   */\n      swap1\n      pop\n        /* \"#utility.yul\":5888:5955   */\n      tag_214\n        /* \"#utility.yul\":5952:5953   */\n      0x00\n        /* \"#utility.yul\":5941:5950   */\n      dup4\n        /* \"#utility.yul\":5937:5954   */\n      add\n        /* \"#utility.yul\":5928:5934   */\n      dup5\n        /* \"#utility.yul\":5888:5955   */\n      tag_131\n      jump\t// in\n    tag_214:\n        /* \"#utility.yul\":5748:5962   */\n      swap3\n      swap2\n      pop\n      pop\n      jump\t// out\n        /* \"#utility.yul\":5968:6438   */\n    tag_46:\n        /* \"#utility.yul\":6034:6040   */\n      0x00\n        /* \"#utility.yul\":6042:6048   */\n      0x00\n        /* \"#utility.yul\":6091:6093   */\n      0x40\n        /* \"#utility.yul\":6079:6088   */\n      dup4\n        /* \"#utility.yul\":6070:6077   */\n      dup6\n        /* \"#utility.yul\":6066:6089   */\n      sub\n        /* \"#utility.yul\":6062:6094   */\n      slt\n        /* \"#utility.yul\":6059:6178   */\n      iszero\n      tag_216\n      jumpi\n        /* \"#utility.yul\":6097:6176   */\n      tag_217\n      tag_110\n      jump\t// in\n    tag_217:\n        /* \"#utility.yul\":6059:6178   */\n    tag_216:\n        /* \"#utility.yul\":6217:6218   */\n      0x00\n        /* \"#utility.yul\":6242:6295   */\n      tag_218\n        /* \"#utility.yul\":6287:6294   */\n      dup6\n        /* \"#utility.yul\":6278:6284   */\n      dup3\n        /* \"#utility.yul\":6267:6276   */\n      dup7\n        /* \"#utility.yul\":6263:6285   */\n      add\n        /* \"#utility.yul\":6242:6295   */\n      tag_114\n      jump\t// in\n    tag_218:\n        /* \"#utility.yul\":6232:6295   */\n      swap3\n      pop\n        /* \"#utility.yul\":6188:6305   */\n      pop\n        /* \"#utility.yul\":6344:6346   */\n      0x20\n        /* \"#utility.yul\":6370:6421   */\n      tag_219\n        /* \"#utility.yul\":6413:6420   */\n      dup6\n        /* \"#utility.yul\":6404:6410   */\n      dup3\n        /* \"#utility.yul\":6393:6402   */\n      dup7\n        /* \"#utility.yul\":6389:6411   */\n      add\n        /* \"#utility.yul\":6370:6421   */\n      tag_117\n      jump\t// in\n    tag_219:\n        /* \"#utility.yul\":6360:6421   */\n      swap2\n      pop\n        /* \"#utility.yul\":6315:6431   */\n      pop\n        /* \"#utility.yul\":5968:6438   */\n      swap3\n      pop\n      swap3\n      swap1\n      pop\n      jump\t// out\n        /* \"#utility.yul\":6444:6553   */\n    tag_132:\n        /* \"#utility.yul\":6525:6546   */\n      tag_221\n        /* \"#utility.yul\":6540:6545   */\n      dup2\n        /* \"#utility.yul\":6525:6546   */\n      tag_118\n      jump\t// in\n    tag_221:\n        /* \"#utility.yul\":6520:6523   */\n      dup3\n        /* \"#utility.yul\":6513:6547   */\n      mstore\n        /* \"#utility.yul\":6444:6553   */\n      pop\n      pop\n      jump\t// out\n        /* \"#utility.yul\":6559:6769   */\n    tag_49:\n        /* \"#utility.yul\":6646:6650   */\n      0x00\n        /* \"#utility.yul\":6684:6686   */\n      0x20\n        /* \"#utility.yul\":6673:6682   */\n      dup3\n        /* \"#utility.yul\":6669:6687   */\n      add\n        /* \"#utility.yul\":6661:6687   */\n      swap1\n      pop\n        /* \"#utility.yul\":6697:6762   */\n      tag_223\n        /* \"#utility.yul\":6759:6760   */\n      0x00\n        /* \"#utility.yul\":6748:6757   */\n      dup4\n        /* \"#utility.yul\":6744:6761   */\n      add\n        /* \"#utility.yul\":6735:6741   */\n      dup5\n        /* \"#utility.yul\":6697:6762   */\n      tag_132\n      jump\t// in\n    tag_223:\n        /* \"#utility.yul\":6559:6769   */\n      swap3\n      swap2\n      pop\n      pop\n      jump\t// out\n        /* \"#utility.yul\":6775:7104   */\n    tag_52:\n        /* \"#utility.yul\":6834:6840   */\n      0x00\n        /* \"#utility.yul\":6883:6885   */\n      0x20\n        /* \"#utility.yul\":6871:6880   */\n      dup3\n        /* \"#utility.yul\":6862:6869   */\n      dup5\n        /* \"#utility.yul\":6858:6881   */\n      sub\n        /* \"#utility.yul\":6854:6886   */\n      slt\n        /* \"#utility.yul\":6851:6970   */\n      iszero\n      tag_225\n      jumpi\n        /* \"#utility.yul\":6889:6968   */\n      tag_226\n      tag_110\n      jump\t// in\n    tag_226:\n        /* \"#utility.yul\":6851:6970   */\n    tag_225:\n        /* \"#utility.yul\":7009:7010   */\n      0x00\n        /* \"#utility.yul\":7034:7087   */\n      tag_227\n        /* \"#utility.yul\":7079:7086   */\n      dup5\n        /* \"#utility.yul\":7070:7076   */\n      dup3\n        /* \"#utility.yul\":7059:7068   */\n      dup6\n        /* \"#utility.yul\":7055:7077   */\n      add\n        /* \"#utility.yul\":7034:7087   */\n      tag_114\n      jump\t// in\n    tag_227:\n        /* \"#utility.yul\":7024:7087   */\n      swap2\n      pop\n        /* \"#utility.yul\":6980:7097   */\n      pop\n        /* \"#utility.yul\":6775:7104   */\n      swap3\n      swap2\n      pop\n      pop\n      jump\t// out\n        /* \"#utility.yul\":7110:7211   */\n    tag_133:\n        /* \"#utility.yul\":7146:7153   */\n      0x00\n        /* \"#utility.yul\":7186:7204   */\n      0xffffffffffffffff\n        /* \"#utility.yul\":7179:7184   */\n      dup3\n        /* \"#utility.yul\":7175:7205   */\n      and\n        /* \"#utility.yul\":7164:7205   */\n      swap1\n      pop\n        /* \"#utility.yul\":7110:7211   */\n      swap2\n      swap1\n      pop\n      jump\t// out\n        /* \"#utility.yul\":7217:7332   */\n    tag_134:\n        /* \"#utility.yul\":7302:7325   */\n      tag_230\n        /* \"#utility.yul\":7319:7324   */\n      dup2\n        /* \"#utility.yul\":7302:7325   */\n      tag_133\n      jump\t// in\n    tag_230:\n        /* \"#utility.yul\":7297:7300   */\n      dup3\n        /* \"#utility.yul\":7290:7326   */\n      mstore\n        /* \"#utility.yul\":7217:7332   */\n      pop\n      pop\n      jump\t// out\n        /* \"#utility.yul\":7338:7464   */\n    tag_135:\n        /* \"#utility.yul\":7375:7382   */\n      0x00\n        /* \"#utility.yul\":7415:7457   */\n      0xffffffffffffffffffffffffffffffffffffffff\n        /* \"#utility.yul\":7408:7413   */\n      dup3\n        /* \"#utility.yul\":7404:7458   */\n      and\n        /* \"#utility.yul\":7393:7458   */\n      swap1\n      pop\n        /* \"#utility.yul\":7338:7464   */\n      swap2\n      swap1\n      pop\n      jump\t// out\n        /* \"#utility.yul\":7470:7566   */\n    tag_136:\n        /* \"#utility.yul\":7507:7514   */\n      0x00\n        /* \"#utility.yul\":7536:7560   */\n      tag_233\n        /* \"#utility.yul\":7554:7559   */\n      dup3\n        /* \"#utility.yul\":7536:7560   */\n      tag_135\n      jump\t// in\n    tag_233:\n        /* \"#utility.yul\":7525:7560   */\n      swap1\n      pop\n        /* \"#utility.yul\":7470:7566   */\n      swap2\n      swap1\n      pop\n      jump\t// out\n        /* \"#utility.yul\":7572:7690   */\n    tag_137:\n        /* \"#utility.yul\":7659:7683   */\n      tag_235\n        /* \"#utility.yul\":7677:7682   */\n      dup2\n        /* \"#utility.yul\":7659:7683   */\n      tag_136\n      jump\t// in\n    tag_235:\n        /* \"#utility.yul\":7654:7657   */\n      dup3\n        /* \"#utility.yul\":7647:7684   */\n      mstore\n        /* \"#utility.yul\":7572:7690   */\n      pop\n      pop\n      jump\t// out\n        /* \"#utility.yul\":7696:8229   */\n    tag_55:\n        /* \"#utility.yul\":7863:7867   */\n      0x00\n        /* \"#utility.yul\":7901:7904   */\n      0x80\n        /* \"#utility.yul\":7890:7899   */\n      dup3\n        /* \"#utility.yul\":7886:7905   */\n      add\n        /* \"#utility.yul\":7878:7905   */\n      swap1\n      pop\n        /* \"#utility.yul\":7915:7984   */\n      tag_237\n        /* \"#utility.yul\":7981:7982   */\n      0x00\n        /* \"#utility.yul\":7970:7979   */\n      dup4\n        /* \"#utility.yul\":7966:7983   */\n      add\n        /* \"#utility.yul\":7957:7963   */\n      dup8\n        /* \"#utility.yul\":7915:7984   */\n      tag_134\n      jump\t// in\n    tag_237:\n        /* \"#utility.yul\":7994:8064   */\n      tag_238\n        /* \"#utility.yul\":8060:8062   */\n      0x20\n        /* \"#utility.yul\":8049:8058   */\n      dup4\n        /* \"#utility.yul\":8045:8063   */\n      add\n        /* \"#utility.yul\":8036:8042   */\n      dup7\n        /* \"#utility.yul\":7994:8064   */\n      tag_134\n      jump\t// in\n    tag_238:\n        /* \"#utility.yul\":8074:8146   */\n      tag_239\n        /* \"#utility.yul\":8142:8144   */\n      0x40\n        /* \"#utility.yul\":8131:8140   */\n      dup4\n        /* \"#utility.yul\":8127:8145   */\n      add\n        /* \"#utility.yul\":8118:8124   */\n      dup6\n        /* \"#utility.yul\":8074:8146   */\n      tag_137\n      jump\t// in\n    tag_239:\n        /* \"#utility.yul\":8156:8222   */\n      tag_240\n        /* \"#utility.yul\":8218:8220   */\n      0x60\n        /* \"#utility.yul\":8207:8216   */\n      dup4\n        /* \"#utility.yul\":8203:8221   */\n      add\n        /* \"#utility.yul\":8194:8200   */\n      dup5\n        /* \"#utility.yul\":8156:8222   */\n      tag_132\n      jump\t// in\n    tag_240:\n        /* \"#utility.yul\":7696:8229   */\n      swap6\n      swap5\n      pop\n      pop\n      pop\n      pop\n      pop\n      jump\t// out\n        /* \"#utility.yul\":8235:8357   */\n    tag_138:\n        /* \"#utility.yul\":8308:8332   */\n      tag_242\n        /* \"#utility.yul\":8326:8331   */\n      dup2\n        /* \"#utility.yul\":8308:8332   */\n      tag_136\n      jump\t// in\n    tag_242:\n        /* \"#utility.yul\":8301:8306   */\n      dup2\n        /* \"#utility.yul\":8298:8333   */\n      eq\n        /* \"#utility.yul\":8288:8351   */\n      tag_243\n      jumpi\n        /* \"#utility.yul\":8347:8348   */\n      0x00\n        /* \"#utility.yul\":8344:8345   */\n      0x00\n        /* \"#utility.yul\":8337:8349   */\n      revert\n        /* \"#utility.yul\":8288:8351   */\n    tag_243:\n        /* \"#utility.yul\":8235:8357   */\n      pop\n      jump\t// out\n        /* \"#utility.yul\":8363:8502   */\n    tag_139:\n        /* \"#utility.yul\":8409:8414   */\n      0x00\n        /* \"#utility.yul\":8447:8453   */\n      dup2\n        /* \"#utility.yul\":8434:8454   */\n      calldataload\n        /* \"#utility.yul\":8425:8454   */\n      swap1\n      pop\n        /* \"#utility.yul\":8463:8496   */\n      tag_245\n        /* \"#utility.yul\":8490:8495   */\n      dup2\n        /* \"#utility.yul\":8463:8496   */\n      tag_138\n      jump\t// in\n    tag_245:\n        /* \"#utility.yul\":8363:8502   */\n      swap3\n      swap2\n      pop\n      pop\n      jump\t// out\n        /* \"#utility.yul\":8508:8837   */\n    tag_58:\n        /* \"#utility.yul\":8567:8573   */\n      0x00\n        /* \"#utility.yul\":8616:8618   */\n      0x20\n        /* \"#utility.yul\":8604:8613   */\n      dup3\n        /* \"#utility.yul\":8595:8602   */\n      dup5\n        /* \"#utility.yul\":8591:8614   */\n      sub\n        /* \"#utility.yul\":8587:8619   */\n      slt\n        /* \"#utility.yul\":8584:8703   */\n      iszero\n      tag_247\n      jumpi\n        /* \"#utility.yul\":8622:8701   */\n      tag_248\n      tag_110\n      jump\t// in\n    tag_248:\n        /* \"#utility.yul\":8584:8703   */\n    tag_247:\n        /* \"#utility.yul\":8742:8743   */\n      0x00\n        /* \"#utility.yul\":8767:8820   */\n      tag_249\n        /* \"#utility.yul\":8812:8819   */\n      dup5\n        /* \"#utility.yul\":8803:8809   */\n      dup3\n        /* \"#utility.yul\":8792:8801   */\n      dup6\n        /* \"#utility.yul\":8788:8810   */\n      add\n        /* \"#utility.yul\":8767:8820   */\n      tag_139\n      jump\t// in\n    tag_249:\n        /* \"#utility.yul\":8757:8820   */\n      swap2\n      pop\n        /* \"#utility.yul\":8713:8830   */\n      pop\n        /* \"#utility.yul\":8508:8837   */\n      swap3\n      swap2\n      pop\n      pop\n      jump\t// out\n        /* \"#utility.yul\":8843:8961   */\n    tag_140:\n        /* \"#utility.yul\":8880:8887   */\n      0x00\n        /* \"#utility.yul\":8920:8954   */\n      0xffffffffffffffffffffffffffffffff\n        /* \"#utility.yul\":8913:8918   */\n      dup3\n        /* \"#utility.yul\":8909:8955   */\n      and\n        /* \"#utility.yul\":8898:8955   */\n      swap1\n      pop\n        /* \"#utility.yul\":8843:8961   */\n      swap2\n      swap1\n      pop\n      jump\t// out\n        /* \"#utility.yul\":8967:9085   */\n    tag_141:\n        /* \"#utility.yul\":9054:9078   */\n      tag_252\n        /* \"#utility.yul\":9072:9077   */\n      dup2\n        /* \"#utility.yul\":9054:9078   */\n      tag_140\n      jump\t// in\n    tag_252:\n        /* \"#utility.yul\":9049:9052   */\n      dup3\n        /* \"#utility.yul\":9042:9079   */\n      mstore\n        /* \"#utility.yul\":8967:9085   */\n      pop\n      pop\n      jump\t// out\n        /* \"#utility.yul\":9091:9209   */\n    tag_142:\n        /* \"#utility.yul\":9178:9202   */\n      tag_254\n        /* \"#utility.yul\":9196:9201   */\n      dup2\n        /* \"#utility.yul\":9178:9202   */\n      tag_112\n      jump\t// in\n    tag_254:\n        /* \"#utility.yul\":9173:9176   */\n      dup3\n        /* \"#utility.yul\":9166:9203   */\n      mstore\n        /* \"#utility.yul\":9091:9209   */\n      pop\n      pop\n      jump\t// out\n        /* \"#utility.yul\":9215:9863   */\n    tag_61:\n        /* \"#utility.yul\":9412:9416   */\n      0x00\n        /* \"#utility.yul\":9450:9453   */\n      0xa0\n        /* \"#utility.yul\":9439:9448   */\n      dup3\n        /* \"#utility.yul\":9435:9454   */\n      add\n        /* \"#utility.yul\":9427:9454   */\n      swap1\n      pop\n        /* \"#utility.yul\":9464:9535   */\n      tag_256\n        /* \"#utility.yul\":9532:9533   */\n      0x00\n        /* \"#utility.yul\":9521:9530   */\n      dup4\n        /* \"#utility.yul\":9517:9534   */\n      add\n        /* \"#utility.yul\":9508:9514   */\n      dup9\n        /* \"#utility.yul\":9464:9535   */\n      tag_141\n      jump\t// in\n    tag_256:\n        /* \"#utility.yul\":9545:9617   */\n      tag_257\n        /* \"#utility.yul\":9613:9615   */\n      0x20\n        /* \"#utility.yul\":9602:9611   */\n      dup4\n        /* \"#utility.yul\":9598:9616   */\n      add\n        /* \"#utility.yul\":9589:9595   */\n      dup8\n        /* \"#utility.yul\":9545:9617   */\n      tag_141\n      jump\t// in\n    tag_257:\n        /* \"#utility.yul\":9627:9699   */\n      tag_258\n        /* \"#utility.yul\":9695:9697   */\n      0x40\n        /* \"#utility.yul\":9684:9693   */\n      dup4\n        /* \"#utility.yul\":9680:9698   */\n      add\n        /* \"#utility.yul\":9671:9677   */\n      dup7\n        /* \"#utility.yul\":9627:9699   */\n      tag_142\n      jump\t// in\n    tag_258:\n        /* \"#utility.yul\":9709:9779   */\n      tag_259\n        /* \"#utility.yul\":9775:9777   */\n      0x60\n        /* \"#utility.yul\":9764:9773   */\n      dup4\n        /* \"#utility.yul\":9760:9778   */\n      add\n        /* \"#utility.yul\":9751:9757   */\n      dup6\n        /* \"#utility.yul\":9709:9779   */\n      tag_134\n      jump\t// in\n    tag_259:\n        /* \"#utility.yul\":9789:9856   */\n      tag_260\n        /* \"#utility.yul\":9851:9854   */\n      0x80\n        /* \"#utility.yul\":9840:9849   */\n      dup4\n        /* \"#utility.yul\":9836:9855   */\n      add\n        /* \"#utility.yul\":9827:9833   */\n      dup5\n        /* \"#utility.yul\":9789:9856   */\n      tag_132\n      jump\t// in\n    tag_260:\n        /* \"#utility.yul\":9215:9863   */\n      swap7\n      swap6\n      pop\n      pop\n      pop\n      pop\n      pop\n      pop\n      jump\t// out\n        /* \"#utility.yul\":9869:10091   */\n    tag_65:\n        /* \"#utility.yul\":9962:9966   */\n      0x00\n        /* \"#utility.yul\":10000:10002   */\n      0x20\n        /* \"#utility.yul\":9989:9998   */\n      dup3\n        /* \"#utility.yul\":9985:10003   */\n      add\n        /* \"#utility.yul\":9977:10003   */\n      swap1\n      pop\n        /* \"#utility.yul\":10013:10084   */\n      tag_262\n        /* \"#utility.yul\":10081:10082   */\n      0x00\n        /* \"#utility.yul\":10070:10079   */\n      dup4\n        /* \"#utility.yul\":10066:10083   */\n      add\n        /* \"#utility.yul\":10057:10063   */\n      dup5\n        /* \"#utility.yul\":10013:10084   */\n      tag_137\n      jump\t// in\n    tag_262:\n        /* \"#utility.yul\":9869:10091   */\n      swap3\n      swap2\n      pop\n      pop\n      jump\t// out\n        /* \"#utility.yul\":10097:10571   */\n    tag_68:\n        /* \"#utility.yul\":10165:10171   */\n      0x00\n        /* \"#utility.yul\":10173:10179   */\n      0x00\n        /* \"#utility.yul\":10222:10224   */\n      0x40\n        /* \"#utility.yul\":10210:10219   */\n      dup4\n        /* \"#utility.yul\":10201:10208   */\n      dup6\n        /* \"#utility.yul\":10197:10220   */\n      sub\n        /* \"#utility.yul\":10193:10225   */\n      slt\n        /* \"#utility.yul\":10190:10309   */\n      iszero\n      tag_264\n      jumpi\n        /* \"#utility.yul\":10228:10307   */\n      tag_265\n      tag_110\n      jump\t// in\n    tag_265:\n        /* \"#utility.yul\":10190:10309   */\n    tag_264:\n        /* \"#utility.yul\":10348:10349   */\n      0x00\n        /* \"#utility.yul\":10373:10426   */\n      tag_266\n        /* \"#utility.yul\":10418:10425   */\n      dup6\n        /* \"#utility.yul\":10409:10415   */\n      dup3\n        /* \"#utility.yul\":10398:10407   */\n      dup7\n        /* \"#utility.yul\":10394:10416   */\n      add\n        /* \"#utility.yul\":10373:10426   */\n      tag_114\n      jump\t// in\n    tag_266:\n        /* \"#utility.yul\":10363:10426   */\n      swap3\n      pop\n        /* \"#utility.yul\":10319:10436   */\n      pop\n        /* \"#utility.yul\":10475:10477   */\n      0x20\n        /* \"#utility.yul\":10501:10554   */\n      tag_267\n        /* \"#utility.yul\":10546:10553   */\n      dup6\n        /* \"#utility.yul\":10537:10543   */\n      dup3\n        /* \"#utility.yul\":10526:10535   */\n      dup7\n        /* \"#utility.yul\":10522:10544   */\n      add\n        /* \"#utility.yul\":10501:10554   */\n      tag_114\n      jump\t// in\n    tag_267:\n        /* \"#utility.yul\":10491:10554   */\n      swap2\n      pop\n        /* \"#utility.yul\":10446:10564   */\n      pop\n        /* \"#utility.yul\":10097:10571   */\n      swap3\n      pop\n      swap3\n      swap1\n      pop\n      jump\t// out\n        /* \"#utility.yul\":10577:10799   */\n    tag_71:\n        /* \"#utility.yul\":10670:10674   */\n      0x00\n        /* \"#utility.yul\":10708:10710   */\n      0x20\n        /* \"#utility.yul\":10697:10706   */\n      dup3\n        /* \"#utility.yul\":10693:10711   */\n      add\n        /* \"#utility.yul\":10685:10711   */\n      swap1\n      pop\n        /* \"#utility.yul\":10721:10792   */\n      tag_269\n        /* \"#utility.yul\":10789:10790   */\n      0x00\n        /* \"#utility.yul\":10778:10787   */\n      dup4\n        /* \"#utility.yul\":10774:10791   */\n      add\n        /* \"#utility.yul\":10765:10771   */\n      dup5\n        /* \"#utility.yul\":10721:10792   */\n      tag_142\n      jump\t// in\n    tag_269:\n        /* \"#utility.yul\":10577:10799   */\n      swap3\n      swap2\n      pop\n      pop\n      jump\t// out\n        /* \"#utility.yul\":10805:10894   */\n    tag_143:\n        /* \"#utility.yul\":10841:10848   */\n      0x00\n        /* \"#utility.yul\":10881:10887   */\n      0xffff\n        /* \"#utility.yul\":10874:10879   */\n      dup3\n        /* \"#utility.yul\":10870:10888   */\n      and\n        /* \"#utility.yul\":10859:10888   */\n      swap1\n      pop\n        /* \"#utility.yul\":10805:10894   */\n      swap2\n      swap1\n      pop\n      jump\t// out\n        /* \"#utility.yul\":10900:11015   */\n    tag_144:\n        /* \"#utility.yul\":10985:11008   */\n      tag_272\n        /* \"#utility.yul\":11002:11007   */\n      dup2\n        /* \"#utility.yul\":10985:11008   */\n      tag_143\n      jump\t// in\n    tag_272:\n        /* \"#utility.yul\":10980:10983   */\n      dup3\n        /* \"#utility.yul\":10973:11009   */\n      mstore\n        /* \"#utility.yul\":10900:11015   */\n      pop\n      pop\n      jump\t// out\n        /* \"#utility.yul\":11021:11239   */\n    tag_79:\n        /* \"#utility.yul\":11112:11116   */\n      0x00\n        /* \"#utility.yul\":11150:11152   */\n      0x20\n        /* \"#utility.yul\":11139:11148   */\n      dup3\n        /* \"#utility.yul\":11135:11153   */\n      add\n        /* \"#utility.yul\":11127:11153   */\n      swap1\n      pop\n        /* \"#utility.yul\":11163:11232   */\n      tag_274\n        /* \"#utility.yul\":11229:11230   */\n      0x00\n        /* \"#utility.yul\":11218:11227   */\n      dup4\n        /* \"#utility.yul\":11214:11231   */\n      add\n        /* \"#utility.yul\":11205:11211   */\n      dup5\n        /* \"#utility.yul\":11163:11232   */\n      tag_144\n      jump\t// in\n    tag_274:\n        /* \"#utility.yul\":11021:11239   */\n      swap3\n      swap2\n      pop\n      pop\n      jump\t// out\n        /* \"#utility.yul\":11245:11425   */\n    tag_145:\n        /* \"#utility.yul\":11293:11370   */\n      0x4e487b7100000000000000000000000000000000000000000000000000000000\n        /* \"#utility.yul\":11290:11291   */\n      0x00\n        /* \"#utility.yul\":11283:11371   */\n      mstore\n        /* \"#utility.yul\":11390:11394   */\n      0x22\n        /* \"#utility.yul\":11387:11388   */\n      0x04\n        /* \"#utility.yul\":11380:11395   */\n      mstore\n        /* \"#utility.yul\":11414:11418   */\n      0x24\n        /* \"#utility.yul\":11411:11412   */\n      0x00\n        /* \"#utility.yul\":11404:11419   */\n      revert\n        /* \"#utility.yul\":11431:11751   */\n    tag_84:\n        /* \"#utility.yul\":11475:11481   */\n      0x00\n        /* \"#utility.yul\":11512:11513   */\n      0x02\n        /* \"#utility.yul\":11506:11510   */\n      dup3\n        /* \"#utility.yul\":11502:11514   */\n      div\n        /* \"#utility.yul\":11492:11514   */\n      swap1\n      pop\n        /* \"#utility.yul\":11559:11560   */\n      0x01\n        /* \"#utility.yul\":11553:11557   */\n      dup3\n        /* \"#utility.yul\":11549:11561   */\n      and\n        /* \"#utility.yul\":11580:11598   */\n      dup1\n        /* \"#utility.yul\":11570:11651   */\n      tag_277\n      jumpi\n        /* \"#utility.yul\":11636:11640   */\n      0x7f\n        /* \"#utility.yul\":11628:11634   */\n      dup3\n        /* \"#utility.yul\":11624:11641   */\n      and\n        /* \"#utility.yul\":11614:11641   */\n      swap2\n      pop\n        /* \"#utility.yul\":11570:11651   */\n    tag_277:\n        /* \"#utility.yul\":11698:11700   */\n      0x20\n        /* \"#utility.yul\":11690:11696   */\n      dup3\n        /* \"#utility.yul\":11687:11701   */\n      lt\n        /* \"#utility.yul\":11667:11685   */\n      dup2\n        /* \"#utility.yul\":11664:11702   */\n      sub\n        /* \"#utility.yul\":11661:11745   */\n      tag_278\n      jumpi\n        /* \"#utility.yul\":11717:11735   */\n      tag_279\n      tag_145\n      jump\t// in\n    tag_279:\n        /* \"#utility.yul\":11661:11745   */\n    tag_278:\n        /* \"#utility.yul\":11482:11751   */\n      pop\n        /* \"#utility.yul\":11431:11751   */\n      swap2\n      swap1\n      pop\n      jump\t// out\n\n    auxdata: 0xa264697066735822122048bff890fc65911f24f768e4100d3e87a925edea7dd4dcd09b22394007d8303b64736f6c63430008220033\n}\n",
				"bytecode": {
					"linkReferences": {},
					"object": "60a060405234801561000f575f5ffd5b50604051611998380380611998833981810160405281019061003191906106e5565b8073ffffffffffffffffffffffffffffffffffffffff1660808173ffffffffffffffffffffffffffffffffffffffff168152505060015f5f6101000a81548160ff0219169083600381111561008957610088610710565b5b021790555060055f60016101000a81548160ff021916908360ff16021790555060645f60026101000a81548161ffff021916908361ffff1602179055507f12345678901234567890123456789012345678901234567890123456789012345f1b6001819055506040518060400160405280600681526020017fdeadbeefcafe000000000000000000000000000000000000000000000000000081525060029081610133919061098b565b506040518060400160405280601181526020017f416476616e63656420436f6e7472616374000000000000000000000000000000815250600390816101789190610abf565b5060046040518060800160405280600167ffffffffffffffff16815260200163499602d267ffffffffffffffff1681526020013373ffffffffffffffffffffffffffffffffffffffff1681526020015f1515815250908060018154018082558091505060019003905f5260205f2090600202015f909190919091505f820151815f015f6101000a81548167ffffffffffffffff021916908367ffffffffffffffff1602179055506020820151815f0160086101000a81548167ffffffffffffffff021916908367ffffffffffffffff1602179055506040820151816001015f6101000a81548173ffffffffffffffffffffffffffffffffffffffff021916908373ffffffffffffffffffffffffffffffffffffffff16021790555060608201518160010160146101000a81548160ff021916908315150217905550505060046040518060800160405280600267ffffffffffffffff16815260200163499602d367ffffffffffffffff16815260200173742d35cc6634c0532925a3b844bc9e759f3b3b5773ffffffffffffffffffffffffffffffffffffffff16815260200160011515815250908060018154018082558091505060019003905f5260205f2090600202015f909190919091505f820151815f015f6101000a81548167ffffffffffffffff021916908367ffffffffffffffff1602179055506020820151815f0160086101000a81548167ffffffffffffffff021916908367ffffffffffffffff1602179055506040820151816001015f6101000a81548173ffffffffffffffffffffffffffffffffffffffff021916908373ffffffffffffffffffffffffffffffffffffffff16021790555060608201518160010160146101000a81548160ff02191690831515021790555050506040518060a00160405280683635c9adc5dea000006fffffffffffffffffffffffffffffffff168152602001681b1ae4d6e2ef5000006fffffffffffffffffffffffffffffffff168152602001428152602001600a67ffffffffffffffff1681526020016001151581525060055f3373ffffffffffffffffffffffffffffffffffffffff1673ffffffffffffffffffffffffffffffffffffffff1681526020019081526020015f205f820151815f015f6101000a8154816fffffffffffffffffffffffffffffffff02191690836fffffffffffffffffffffffffffffffff1602179055506020820151815f0160106101000a8154816fffffffffffffffffffffffffffffffff02191690836fffffffffffffffffffffffffffffffff160217905550604082015181600101556060820151816002015f6101000a81548167ffffffffffffffff021916908367ffffffffffffffff16021790555060808201518160020160086101000a81548160ff02191690831515021790555090505060066040518060600160405280600160ff168152602001600260ff168152602001600360ff16815250908060018154018082558091505060019003905f5260205f20015f9091909190915090816105da9190610c89565b5060066040518060600160405280600460ff168152602001600560ff168152602001600660ff16815250908060018154018082558091505060019003905f5260205f20015f9091909190915090816106329190610c89565b507fffffffffffffffffffffffffffffffffffffffffffffffffffffffffffffffff60075f5f81526020019081526020015f2081905550600160075f600181526020019081526020015f208190555050610d0d565b5f5ffd5b5f73ffffffffffffffffffffffffffffffffffffffff82169050919050565b5f6106b48261068b565b9050919050565b6106c4816106aa565b81146106ce575f5ffd5b50565b5f815190506106df816106bb565b92915050565b5f602082840312156106fa576106f9610687565b5b5f610707848285016106d1565b91505092915050565b7f4e487b71000000000000000000000000000000000000000000000000000000005f52602160045260245ffd5b5f81519050919050565b7f4e487b71000000000000000000000000000000000000000000000000000000005f52604160045260245ffd5b7f4e487b71000000000000000000000000000000000000000000000000000000005f52602260045260245ffd5b5f60028204905060018216806107b857607f821691505b6020821081036107cb576107ca610774565b5b50919050565b5f819050815f5260205f209050919050565b5f6020601f8301049050919050565b5f82821b905092915050565b5f6008830261082d7fffffffffffffffffffffffffffffffffffffffffffffffffffffffffffffffff826107f2565b61083786836107f2565b95508019841693508086168417925050509392505050565b5f819050919050565b5f819050919050565b5f61087b6108766108718461084f565b610858565b61084f565b9050919050565b5f819050919050565b61089483610861565b6108a86108a082610882565b8484546107fe565b825550505050565b5f5f905090565b6108bf6108b0565b6108ca81848461088b565b505050565b5f5b828110156108f0576108e55f8284016108b7565b6001810190506108d1565b505050565b601f82111561094357828211156109425761090f816107d1565b610918836107e3565b610921856107e3565b602086101561092e575f90505b80830161093d828403826108cf565b505050505b5b505050565b5f82821c905092915050565b5f6109635f1984600802610948565b1980831691505092915050565b5f61097b8383610954565b9150826002028217905092915050565b6109948261073d565b67ffffffffffffffff8111156109ad576109ac610747565b5b6109b782546107a1565b6109c28282856108f5565b5f60209050601f8311600181146109f3575f84156109e1578287015190505b6109eb8582610970565b865550610a52565b601f198416610a01866107d1565b5f5b82811015610a2857848901518255600182019150602085019450602081019050610a03565b86831015610a455784890151610a41601f891682610954565b8355505b6001600288020188555050505b505050505050565b5f819050815f5260205f209050919050565b601f821115610aba5782821115610ab957610a8681610a5a565b610a8f836107e3565b610a98856107e3565b6020861015610aa5575f90505b808301610ab4828403826108cf565b505050505b5b505050565b610ac88261073d565b67ffffffffffffffff811115610ae157610ae0610747565b5b610aeb82546107a1565b610af6828285610a6c565b5f60209050601f831160018114610b27575f8415610b15578287015190505b610b1f8582610970565b865550610b86565b601f198416610b3586610a5a565b5f5b82811015610b5c57848901518255600182019150602085019450602081019050610b37565b86831015610b795784890151610b75601f891682610954565b8355505b6001600288020188555050505b505050505050565b5f81549050919050565b5f8190506001806001038301049050919050565b5f819050815f5260205f209050919050565b5f5b82811015610bdf57610bd45f8284016108b7565b600181019050610bc0565b505050565b81831015610c1b57610bf582610b98565b610bfe84610b98565b610c0783610bac565b818101610c1683850382610bbe565b505050505b505050565b68010000000000000000821115610c3a57610c39610747565b5b610c4381610b8e565b828255610c51838284610be4565b505050565b5f60039050919050565b5f60ff82169050919050565b5f610c778251610c60565b80915050919050565b5f819050919050565b610c9282610c56565b67ffffffffffffffff811115610cab57610caa610747565b5b610cb58183610c20565b610cbe83610c80565b610cc783610bac565b600183045f5b81811015610d04575f610cdf85610c6c565b610ce881610882565b8092506020870196505050808285015550600181019050610ccd565b50505050505050565b608051610c73610d255f395f6105c90152610c735ff3fe608060405234801561000f575f5ffd5b50600436106100e8575f3560e01c8063a85c38ef1161008a578063d9a38d6411610064578063d9a38d6414610253578063ecb2b5cb14610283578063fa44f589146102b3578063ffa1ad74146102d1576100e8565b8063a85c38ef146101ce578063a87430ba14610201578063c45a015514610235576100e8565b80633545b494116100c65780633545b494146101445780635a0a4a64146101625780636fd5ae151461018057806390daba0a1461019e576100e8565b8063056da048146100ec57806314336b851461010a578063200d2ed214610126575b5f5ffd5b6100f46102ef565b60405161010191906106be565b60405180910390f35b610124600480360381019061011f9190610780565b61037b565b005b61012e6103d7565b60405161013b9190610843565b60405180910390f35b61014c6103e8565b6040516101599190610874565b60405180910390f35b61016a6103ee565b60405161017791906108df565b60405180910390f35b61018861047a565b604051610195919061090e565b60405180910390f35b6101b860048036038101906101b39190610927565b61048c565b6040516101c59190610974565b60405180910390f35b6101e860048036038101906101e3919061098d565b6104b2565b6040516101f89493929190610a19565b60405180910390f35b61021b60048036038101906102169190610a86565b61053f565b60405161022c959493929190610aea565b60405180910390f35b61023d6105c7565b60405161024a9190610b3b565b60405180910390f35b61026d60048036038101906102689190610b54565b6105eb565b60405161027a9190610b92565b60405180910390f35b61029d6004803603810190610298919061098d565b610621565b6040516102aa9190610b92565b60405180910390f35b6102bb610636565b6040516102c89190610bc7565b60405180910390f35b6102d9610649565b6040516102e69190610b92565b60405180910390f35b600380546102fc90610c0d565b80601f016020809104026020016040519081016040528092919081815260200182805461032890610c0d565b80156103735780601f1061034a57610100808354040283529160200191610373565b820191905f5260205f20905b81548152906001019060200180831161035657829003601f168201915b505050505081565b80156103ab578160ff166001901b60075f8581526020019081526020015f205f82825417925050819055506103d2565b8160ff166001901b1960075f8581526020019081526020015f205f82825416925050819055505b505050565b5f5f9054906101000a900460ff1681565b60015481565b600280546103fb90610c0d565b80601f016020809104026020016040519081016040528092919081815260200182805461042790610c0d565b80156104725780601f1061044957610100808354040283529160200191610472565b820191905f5260205f20905b81548152906001019060200180831161045557829003601f168201915b505050505081565b5f60019054906101000a900460ff1681565b5f6001808360ff1660075f8781526020019081526020015f2054901c1614905092915050565b600481815481106104c1575f80fd5b905f5260205f2090600202015f91509050805f015f9054906101000a900467ffffffffffffffff1690805f0160089054906101000a900467ffffffffffffffff1690806001015f9054906101000a900473ffffffffffffffffffffffffffffffffffffffff16908060010160149054906101000a900460ff16905084565b6005602052805f5260405f205f91509050805f015f9054906101000a90046fffffffffffffffffffffffffffffffff1690805f0160109054906101000a90046fffffffffffffffffffffffffffffffff1690806001015490806002015f9054906101000a900467ffffffffffffffff16908060020160089054906101000a900460ff16905085565b7f000000000000000000000000000000000000000000000000000000000000000081565b600682815481106105fa575f80fd5b905f5260205f2001818154811061060f575f80fd5b905f5260205f20015f91509150505481565b6007602052805f5260405f205f915090505481565b5f60029054906101000a900461ffff1681565b600181565b5f81519050919050565b5f82825260208201905092915050565b8281835e5f83830152505050565b5f601f19601f8301169050919050565b5f6106908261064e565b61069a8185610658565b93506106aa818560208601610668565b6106b381610676565b840191505092915050565b5f6020820190508181035f8301526106d68184610686565b905092915050565b5f5ffd5b5f819050919050565b6106f4816106e2565b81146106fe575f5ffd5b50565b5f8135905061070f816106eb565b92915050565b5f60ff82169050919050565b61072a81610715565b8114610734575f5ffd5b50565b5f8135905061074581610721565b92915050565b5f8115159050919050565b61075f8161074b565b8114610769575f5ffd5b50565b5f8135905061077a81610756565b92915050565b5f5f5f60608486031215610797576107966106de565b5b5f6107a486828701610701565b93505060206107b586828701610737565b92505060406107c68682870161076c565b9150509250925092565b7f4e487b71000000000000000000000000000000000000000000000000000000005f52602160045260245ffd5b6004811061080e5761080d6107d0565b5b50565b5f81905061081e826107fd565b919050565b5f61082d82610811565b9050919050565b61083d81610823565b82525050565b5f6020820190506108565f830184610834565b92915050565b5f819050919050565b61086e8161085c565b82525050565b5f6020820190506108875f830184610865565b92915050565b5f81519050919050565b5f82825260208201905092915050565b5f6108b18261088d565b6108bb8185610897565b93506108cb818560208601610668565b6108d481610676565b840191505092915050565b5f6020820190508181035f8301526108f781846108a7565b905092915050565b61090881610715565b82525050565b5f6020820190506109215f8301846108ff565b92915050565b5f5f6040838503121561093d5761093c6106de565b5b5f61094a85828601610701565b925050602061095b85828601610737565b9150509250929050565b61096e8161074b565b82525050565b5f6020820190506109875f830184610965565b92915050565b5f602082840312156109a2576109a16106de565b5b5f6109af84828501610701565b91505092915050565b5f67ffffffffffffffff82169050919050565b6109d4816109b8565b82525050565b5f73ffffffffffffffffffffffffffffffffffffffff82169050919050565b5f610a03826109da565b9050919050565b610a13816109f9565b82525050565b5f608082019050610a2c5f8301876109cb565b610a3960208301866109cb565b610a466040830185610a0a565b610a536060830184610965565b95945050505050565b610a65816109f9565b8114610a6f575f5ffd5b50565b5f81359050610a8081610a5c565b92915050565b5f60208284031215610a9b57610a9a6106de565b5b5f610aa884828501610a72565b91505092915050565b5f6fffffffffffffffffffffffffffffffff82169050919050565b610ad581610ab1565b82525050565b610ae4816106e2565b82525050565b5f60a082019050610afd5f830188610acc565b610b0a6020830187610acc565b610b176040830186610adb565b610b2460608301856109cb565b610b316080830184610965565b9695505050505050565b5f602082019050610b4e5f830184610a0a565b92915050565b5f5f60408385031215610b6a57610b696106de565b5b5f610b7785828601610701565b9250506020610b8885828601610701565b9150509250929050565b5f602082019050610ba55f830184610adb565b92915050565b5f61ffff82169050919050565b610bc181610bab565b82525050565b5f602082019050610bda5f830184610bb8565b92915050565b7f4e487b71000000000000000000000000000000000000000000000000000000005f52602260045260245ffd5b5f6002820490506001821680610c2457607f821691505b602082108103610c3757610c36610be0565b5b5091905056fea264697066735822122048bff890fc65911f24f768e4100d3e87a925edea7dd4dcd09b22394007d8303b64736f6c63430008220033",
					"opcodes": "PUSH1 0xA0 PUSH1 0x40 MSTORE CALLVALUE DUP1 ISZERO PUSH2 0xF JUMPI PUSH0 PUSH0 REVERT JUMPDEST POP PUSH1 0x40 MLOAD PUSH2 0x1998 CODESIZE SUB DUP1 PUSH2 0x1998 DUP4 CODECOPY DUP2 DUP2 ADD PUSH1 0x40 MSTORE DUP2 ADD SWAP1 PUSH2 0x31 SWAP2 SWAP1 PUSH2 0x6E5 JUMP JUMPDEST DUP1 PUSH20 0xFFFFFFFFFFFFFFFFFFFFFFFFFFFFFFFFFFFFFFFF AND PUSH1 0x80 DUP2 PUSH20 0xFFFFFFFFFFFFFFFFFFFFFFFFFFFFFFFFFFFFFFFF AND DUP2 MSTORE POP POP PUSH1 0x1 PUSH0 PUSH0 PUSH2 0x100 EXP DUP2 SLOAD DUP2 PUSH1 0xFF MUL NOT AND SWAP1 DUP4 PUSH1 0x3 DUP2 GT ISZERO PUSH2 0x89 JUMPI PUSH2 0x88 PUSH2 0x710 JUMP JUMPDEST JUMPDEST MUL OR SWAP1 SSTORE POP PUSH1 0x5 PUSH0 PUSH1 0x1 PUSH2 0x100 EXP DUP2 SLOAD DUP2 PUSH1 0xFF MUL NOT AND SWAP1 DUP4 PUSH1 0xFF AND MUL OR SWAP1 SSTORE POP PUSH1 0x64 PUSH0 PUSH1 0x2 PUSH2 0x100 EXP DUP2 SLOAD DUP2 PUSH2 0xFFFF MUL NOT AND SWAP1 DUP4 PUSH2 0xFFFF AND MUL OR SWAP1 SSTORE POP PUSH32 0x1234567890123456789012345678901234567890123456789012345678901234 PUSH0 SHL PUSH1 0x1 DUP2 SWAP1 SSTORE POP PUSH1 0x40 MLOAD DUP1 PUSH1 0x40 ADD PUSH1 0x40 MSTORE DUP1 PUSH1 0x6 DUP2 MSTORE PUSH1 0x20 ADD PUSH32 0xDEADBEEFCAFE0000000000000000000000000000000000000000000000000000 DUP2 MSTORE POP PUSH1 0x2 SWAP1 DUP2 PUSH2 0x133 SWAP2 SWAP1 PUSH2 0x98B JUMP JUMPDEST POP PUSH1 0x40 MLOAD DUP1 PUSH1 0x40 ADD PUSH1 0x40 MSTORE DUP1 PUSH1 0x11 DUP2 MSTORE PUSH1 0x20 ADD PUSH32 0x416476616E63656420436F6E7472616374000000000000000000000000000000 DUP2 MSTORE POP PUSH1 0x3 SWAP1 DUP2 PUSH2 0x178 SWAP2 SWAP1 PUSH2 0xABF JUMP JUMPDEST POP PUSH1 0x4 PUSH1 0x40 MLOAD DUP1 PUSH1 0x80 ADD PUSH1 0x40 MSTORE DUP1 PUSH1 0x1 PUSH8 0xFFFFFFFFFFFFFFFF AND DUP2 MSTORE PUSH1 0x20 ADD PUSH4 0x499602D2 PUSH8 0xFFFFFFFFFFFFFFFF AND DUP2 MSTORE PUSH1 0x20 ADD CALLER PUSH20 0xFFFFFFFFFFFFFFFFFFFFFFFFFFFFFFFFFFFFFFFF AND DUP2 MSTORE PUSH1 0x20 ADD PUSH0 ISZERO ISZERO DUP2 MSTORE POP SWAP1 DUP1 PUSH1 0x1 DUP2 SLOAD ADD DUP1 DUP3 SSTORE DUP1 SWAP2 POP POP PUSH1 0x1 SWAP1 SUB SWAP1 PUSH0 MSTORE PUSH1 0x20 PUSH0 KECCAK256 SWAP1 PUSH1 0x2 MUL ADD PUSH0 SWAP1 SWAP2 SWAP1 SWAP2 SWAP1 SWAP2 POP PUSH0 DUP3 ADD MLOAD DUP2 PUSH0 ADD PUSH0 PUSH2 0x100 EXP DUP2 SLOAD DUP2 PUSH8 0xFFFFFFFFFFFFFFFF MUL NOT AND SWAP1 DUP4 PUSH8 0xFFFFFFFFFFFFFFFF AND MUL OR SWAP1 SSTORE POP PUSH1 0x20 DUP3 ADD MLOAD DUP2 PUSH0 ADD PUSH1 0x8 PUSH2 0x100 EXP DUP2 SLOAD DUP2 PUSH8 0xFFFFFFFFFFFFFFFF MUL NOT AND SWAP1 DUP4 PUSH8 0xFFFFFFFFFFFFFFFF AND MUL OR SWAP1 SSTORE POP PUSH1 0x40 DUP3 ADD MLOAD DUP2 PUSH1 0x1 ADD PUSH0 PUSH2 0x100 EXP DUP2 SLOAD DUP2 PUSH20 0xFFFFFFFFFFFFFFFFFFFFFFFFFFFFFFFFFFFFFFFF MUL NOT AND SWAP1 DUP4 PUSH20 0xFFFFFFFFFFFFFFFFFFFFFFFFFFFFFFFFFFFFFFFF AND MUL OR SWAP1 SSTORE POP PUSH1 0x60 DUP3 ADD MLOAD DUP2 PUSH1 0x1 ADD PUSH1 0x14 PUSH2 0x100 EXP DUP2 SLOAD DUP2 PUSH1 0xFF MUL NOT AND SWAP1 DUP4 ISZERO ISZERO MUL OR SWAP1 SSTORE POP POP POP PUSH1 0x4 PUSH1 0x40 MLOAD DUP1 PUSH1 0x80 ADD PUSH1 0x40 MSTORE DUP1 PUSH1 0x2 PUSH8 0xFFFFFFFFFFFFFFFF AND DUP2 MSTORE PUSH1 0x20 ADD PUSH4 0x499602D3 PUSH8 0xFFFFFFFFFFFFFFFF AND DUP2 MSTORE PUSH1 0x20 ADD PUSH20 0x742D35CC6634C0532925A3B844BC9E759F3B3B57 PUSH20 0xFFFFFFFFFFFFFFFFFFFFFFFFFFFFFFFFFFFFFFFF AND DUP2 MSTORE PUSH1 0x20 ADD PUSH1 0x1 ISZERO ISZERO DUP2 MSTORE POP SWAP1 DUP1 PUSH1 0x1 DUP2 SLOAD ADD DUP1 DUP3 SSTORE DUP1 SWAP2 POP POP PUSH1 0x1 SWAP1 SUB SWAP1 PUSH0 MSTORE PUSH1 0x20 PUSH0 KECCAK256 SWAP1 PUSH1 0x2 MUL ADD PUSH0 SWAP1 SWAP2 SWAP1 SWAP2 SWAP1 SWAP2 POP PUSH0 DUP3 ADD MLOAD DUP2 PUSH0 ADD PUSH0 PUSH2 0x100 EXP DUP2 SLOAD DUP2 PUSH8 0xFFFFFFFFFFFFFFFF MUL NOT AND SWAP1 DUP4 PUSH8 0xFFFFFFFFFFFFFFFF AND MUL OR SWAP1 SSTORE POP PUSH1 0x20 DUP3 ADD MLOAD DUP2 PUSH0 ADD PUSH1 0x8 PUSH2 0x100 EXP DUP2 SLOAD DUP2 PUSH8 0xFFFFFFFFFFFFFFFF MUL NOT AND SWAP1 DUP4 PUSH8 0xFFFFFFFFFFFFFFFF AND MUL OR SWAP1 SSTORE POP PUSH1 0x40 DUP3 ADD MLOAD DUP2 PUSH1 0x1 ADD PUSH0 PUSH2 0x100 EXP DUP2 SLOAD DUP2 PUSH20 0xFFFFFFFFFFFFFFFFFFFFFFFFFFFFFFFFFFFFFFFF MUL NOT AND SWAP1 DUP4 PUSH20 0xFFFFFFFFFFFFFFFFFFFFFFFFFFFFFFFFFFFFFFFF AND MUL OR SWAP1 SSTORE POP PUSH1 0x60 DUP3 ADD MLOAD DUP2 PUSH1 0x1 ADD PUSH1 0x14 PUSH2 0x100 EXP DUP2 SLOAD DUP2 PUSH1 0xFF MUL NOT AND SWAP1 DUP4 ISZERO ISZERO MUL OR SWAP1 SSTORE POP POP POP PUSH1 0x40 MLOAD DUP1 PUSH1 0xA0 ADD PUSH1 0x40 MSTORE DUP1 PUSH9 0x3635C9ADC5DEA00000 PUSH16 0xFFFFFFFFFFFFFFFFFFFFFFFFFFFFFFFF AND DUP2 MSTORE PUSH1 0x20 ADD PUSH9 0x1B1AE4D6E2EF500000 PUSH16 0xFFFFFFFFFFFFFFFFFFFFFFFFFFFFFFFF AND DUP2 MSTORE PUSH1 0x20 ADD TIMESTAMP DUP2 MSTORE PUSH1 0x20 ADD PUSH1 0xA PUSH8 0xFFFFFFFFFFFFFFFF AND DUP2 MSTORE PUSH1 0x20 ADD PUSH1 0x1 ISZERO ISZERO DUP2 MSTORE POP PUSH1 0x5 PUSH0 CALLER PUSH20 0xFFFFFFFFFFFFFFFFFFFFFFFFFFFFFFFFFFFFFFFF AND PUSH20 0xFFFFFFFFFFFFFFFFFFFFFFFFFFFFFFFFFFFFFFFF AND DUP2 MSTORE PUSH1 0x20 ADD SWAP1 DUP2 MSTORE PUSH1 0x20 ADD PUSH0 KECCAK256 PUSH0 DUP3 ADD MLOAD DUP2 PUSH0 ADD PUSH0 PUSH2 0x100 EXP DUP2 SLOAD DUP2 PUSH16 0xFFFFFFFFFFFFFFFFFFFFFFFFFFFFFFFF MUL NOT AND SWAP1 DUP4 PUSH16 0xFFFFFFFFFFFFFFFFFFFFFFFFFFFFFFFF AND MUL OR SWAP1 SSTORE POP PUSH1 0x20 DUP3 ADD MLOAD DUP2 PUSH0 ADD PUSH1 0x10 PUSH2 0x100 EXP DUP2 SLOAD DUP2 PUSH16 0xFFFFFFFFFFFFFFFFFFFFFFFFFFFFFFFF MUL NOT AND SWAP1 DUP4 PUSH16 0xFFFFFFFFFFFFFFFFFFFFFFFFFFFFFFFF AND MUL OR SWAP1 SSTORE POP PUSH1 0x40 DUP3 ADD MLOAD DUP2 PUSH1 0x1 ADD SSTORE PUSH1 0x60 DUP3 ADD MLOAD DUP2 PUSH1 0x2 ADD PUSH0 PUSH2 0x100 EXP DUP2 SLOAD DUP2 PUSH8 0xFFFFFFFFFFFFFFFF MUL NOT AND SWAP1 DUP4 PUSH8 0xFFFFFFFFFFFFFFFF AND MUL OR SWAP1 SSTORE POP PUSH1 0x80 DUP3 ADD MLOAD DUP2 PUSH1 0x2 ADD PUSH1 0x8 PUSH2 0x100 EXP DUP2 SLOAD DUP2 PUSH1 0xFF MUL NOT AND SWAP1 DUP4 ISZERO ISZERO MUL OR SWAP1 SSTORE POP SWAP1 POP POP PUSH1 0x6 PUSH1 0x40 MLOAD DUP1 PUSH1 0x60 ADD PUSH1 0x40 MSTORE DUP1 PUSH1 0x1 PUSH1 0xFF AND DUP2 MSTORE PUSH1 0x20 ADD PUSH1 0x2 PUSH1 0xFF AND DUP2 MSTORE PUSH1 0x20 ADD PUSH1 0x3 PUSH1 0xFF AND DUP2 MSTORE POP SWAP1 DUP1 PUSH1 0x1 DUP2 SLOAD ADD DUP1 DUP3 SSTORE DUP1 SWAP2 POP POP PUSH1 0x1 SWAP1 SUB SWAP1 PUSH0 MSTORE PUSH1 0x20 PUSH0 KECCAK256 ADD PUSH0 SWAP1 SWAP2 SWAP1 SWAP2 SWAP1 SWAP2 POP SWAP1 DUP2 PUSH2 0x5DA SWAP2 SWAP1 PUSH2 0xC89 JUMP JUMPDEST POP PUSH1 0x6 PUSH1 0x40 MLOAD DUP1 PUSH1 0x60 ADD PUSH1 0x40 MSTORE DUP1 PUSH1 0x4 PUSH1 0xFF AND DUP2 MSTORE PUSH1 0x20 ADD PUSH1 0x5 PUSH1 0xFF AND DUP2 MSTORE PUSH1 0x20 ADD PUSH1 0x6 PUSH1 0xFF AND DUP2 MSTORE POP SWAP1 DUP1 PUSH1 0x1 DUP2 SLOAD ADD DUP1 DUP3 SSTORE DUP1 SWAP2 POP POP PUSH1 0x1 SWAP1 SUB SWAP1 PUSH0 MSTORE PUSH1 0x20 PUSH0 KECCAK256 ADD PUSH0 SWAP1 SWAP2 SWAP1 SWAP2 SWAP1 SWAP2 POP SWAP1 DUP2 PUSH2 0x632 SWAP2 SWAP1 PUSH2 0xC89 JUMP JUMPDEST POP PUSH32 0xFFFFFFFFFFFFFFFFFFFFFFFFFFFFFFFFFFFFFFFFFFFFFFFFFFFFFFFFFFFFFFFF PUSH1 0x7 PUSH0 PUSH0 DUP2 MSTORE PUSH1 0x20 ADD SWAP1 DUP2 MSTORE PUSH1 0x20 ADD PUSH0 KECCAK256 DUP2 SWAP1 SSTORE POP PUSH1 0x1 PUSH1 0x7 PUSH0 PUSH1 0x1 DUP2 MSTORE PUSH1 0x20 ADD SWAP1 DUP2 MSTORE PUSH1 0x20 ADD PUSH0 KECCAK256 DUP2 SWAP1 SSTORE POP POP PUSH2 0xD0D JUMP JUMPDEST PUSH0 PUSH0 REVERT JUMPDEST PUSH0 PUSH20 0xFFFFFFFFFFFFFFFFFFFFFFFFFFFFFFFFFFFFFFFF DUP3 AND SWAP1 POP SWAP2 SWAP1 POP JUMP JUMPDEST PUSH0 PUSH2 0x6B4 DUP3 PUSH2 0x68B JUMP JUMPDEST SWAP1 POP SWAP2 SWAP1 POP JUMP JUMPDEST PUSH2 0x6C4 DUP2 PUSH2 0x6AA JUMP JUMPDEST DUP2 EQ PUSH2 0x6CE JUMPI PUSH0 PUSH0 REVERT JUMPDEST POP JUMP JUMPDEST PUSH0 DUP2 MLOAD SWAP1 POP PUSH2 0x6DF DUP2 PUSH2 0x6BB JUMP JUMPDEST SWAP3 SWAP2 POP POP JUMP JUMPDEST PUSH0 PUSH1 0x20 DUP3 DUP5 SUB SLT ISZERO PUSH2 0x6FA JUMPI PUSH2 0x6F9 PUSH2 0x687 JUMP JUMPDEST JUMPDEST PUSH0 PUSH2 0x707 DUP5 DUP3 DUP6 ADD PUSH2 0x6D1 JUMP JUMPDEST SWAP2 POP POP SWAP3 SWAP2 POP POP JUMP JUMPDEST PUSH32 0x4E487B7100000000000000000000000000000000000000000000000000000000 PUSH0 MSTORE PUSH1 0x21 PUSH1 0x4 MSTORE PUSH1 0x24 PUSH0 REVERT JUMPDEST PUSH0 DUP2 MLOAD SWAP1 POP SWAP2 SWAP1 POP JUMP JUMPDEST PUSH32 0x4E487B7100000000000000000000000000000000000000000000000000000000 PUSH0 MSTORE PUSH1 0x41 PUSH1 0x4 MSTORE PUSH1 0x24 PUSH0 REVERT JUMPDEST PUSH32 0x4E487B7100000000000000000000000000000000000000000000000000000000 PUSH0 MSTORE PUSH1 0x22 PUSH1 0x4 MSTORE PUSH1 0x24 PUSH0 REVERT JUMPDEST PUSH0 PUSH1 0x2 DUP3 DIV SWAP1 POP PUSH1 0x1 DUP3 AND DUP1 PUSH2 0x7B8 JUMPI PUSH1 0x7F DUP3 AND SWAP2 POP JUMPDEST PUSH1 0x20 DUP3 LT DUP2 SUB PUSH2 0x7CB JUMPI PUSH2 0x7CA PUSH2 0x774 JUMP JUMPDEST JUMPDEST POP SWAP2 SWAP1 POP JUMP JUMPDEST PUSH0 DUP2 SWAP1 POP DUP2 PUSH0 MSTORE PUSH1 0x20 PUSH0 KECCAK256 SWAP1 POP SWAP2 SWAP1 POP JUMP JUMPDEST PUSH0 PUSH1 0x20 PUSH1 0x1F DUP4 ADD DIV SWAP1 POP SWAP2 SWAP1 POP JUMP JUMPDEST PUSH0 DUP3 DUP3 SHL SWAP1 POP SWAP3 SWAP2 POP POP JUMP JUMPDEST PUSH0 PUSH1 0x8 DUP4 MUL PUSH2 0x82D PUSH32 0xFFFFFFFFFFFFFFFFFFFFFFFFFFFFFFFFFFFFFFFFFFFFFFFFFFFFFFFFFFFFFFFF DUP3 PUSH2 0x7F2 JUMP JUMPDEST PUSH2 0x837 DUP7 DUP4 PUSH2 0x7F2 JUMP JUMPDEST SWAP6 POP DUP1 NOT DUP5 AND SWAP4 POP DUP1 DUP7 AND DUP5 OR SWAP3 POP POP POP SWAP4 SWAP3 POP POP POP JUMP JUMPDEST PUSH0 DUP2 SWAP1 POP SWAP2 SWAP1 POP JUMP JUMPDEST PUSH0 DUP2 SWAP1 POP SWAP2 SWAP1 POP JUMP JUMPDEST PUSH0 PUSH2 0x87B PUSH2 0x876 PUSH2 0x871 DUP5 PUSH2 0x84F JUMP JUMPDEST PUSH2 0x858 JUMP JUMPDEST PUSH2 0x84F JUMP JUMPDEST SWAP1 POP SWAP2 SWAP1 POP JUMP JUMPDEST PUSH0 DUP2 SWAP1 POP SWAP2 SWAP1 POP JUMP JUMPDEST PUSH2 0x894 DUP4 PUSH2 0x861 JUMP JUMPDEST PUSH2 0x8A8 PUSH2 0x8A0 DUP3 PUSH2 0x882 JUMP JUMPDEST DUP5 DUP5 SLOAD PUSH2 0x7FE JUMP JUMPDEST DUP3 SSTORE POP POP POP POP JUMP JUMPDEST PUSH0 PUSH0 SWAP1 POP SWAP1 JUMP JUMPDEST PUSH2 0x8BF PUSH2 0x8B0 JUMP JUMPDEST PUSH2 0x8CA DUP2 DUP5 DUP5 PUSH2 0x88B JUMP JUMPDEST POP POP POP JUMP JUMPDEST PUSH0 JUMPDEST DUP3 DUP2 LT ISZERO PUSH2 0x8F0 JUMPI PUSH2 0x8E5 PUSH0 DUP3 DUP5 ADD PUSH2 0x8B7 JUMP JUMPDEST PUSH1 0x1 DUP2 ADD SWAP1 POP PUSH2 0x8D1 JUMP JUMPDEST POP POP POP JUMP JUMPDEST PUSH1 0x1F DUP3 GT ISZERO PUSH2 0x943 JUMPI DUP3 DUP3 GT ISZERO PUSH2 0x942 JUMPI PUSH2 0x90F DUP2 PUSH2 0x7D1 JUMP JUMPDEST PUSH2 0x918 DUP4 PUSH2 0x7E3 JUMP JUMPDEST PUSH2 0x921 DUP6 PUSH2 0x7E3 JUMP JUMPDEST PUSH1 0x20 DUP7 LT ISZERO PUSH2 0x92E JUMPI PUSH0 SWAP1 POP JUMPDEST DUP1 DUP4 ADD PUSH2 0x93D DUP3 DUP5 SUB DUP3 PUSH2 0x8CF JUMP JUMPDEST POP POP POP POP JUMPDEST JUMPDEST POP POP POP JUMP JUMPDEST PUSH0 DUP3 DUP3 SHR SWAP1 POP SWAP3 SWAP2 POP POP JUMP JUMPDEST PUSH0 PUSH2 0x963 PUSH0 NOT DUP5 PUSH1 0x8 MUL PUSH2 0x948 JUMP JUMPDEST NOT DUP1 DUP4 AND SWAP2 POP POP SWAP3 SWAP2 POP POP JUMP JUMPDEST PUSH0 PUSH2 0x97B DUP4 DUP4 PUSH2 0x954 JUMP JUMPDEST SWAP2 POP DUP3 PUSH1 0x2 MUL DUP3 OR SWAP1 POP SWAP3 SWAP2 POP POP JUMP JUMPDEST PUSH2 0x994 DUP3 PUSH2 0x73D JUMP JUMPDEST PUSH8 0xFFFFFFFFFFFFFFFF DUP2 GT ISZERO PUSH2 0x9AD JUMPI PUSH2 0x9AC PUSH2 0x747 JUMP JUMPDEST JUMPDEST PUSH2 0x9B7 DUP3 SLOAD PUSH2 0x7A1 JUMP JUMPDEST PUSH2 0x9C2 DUP3 DUP3 DUP6 PUSH2 0x8F5 JUMP JUMPDEST PUSH0 PUSH1 0x20 SWAP1 POP PUSH1 0x1F DUP4 GT PUSH1 0x1 DUP2 EQ PUSH2 0x9F3 JUMPI PUSH0 DUP5 ISZERO PUSH2 0x9E1 JUMPI DUP3 DUP8 ADD MLOAD SWAP1 POP JUMPDEST PUSH2 0x9EB DUP6 DUP3 PUSH2 0x970 JUMP JUMPDEST DUP7 SSTORE POP PUSH2 0xA52 JUMP JUMPDEST PUSH1 0x1F NOT DUP5 AND PUSH2 0xA01 DUP7 PUSH2 0x7D1 JUMP JUMPDEST PUSH0 JUMPDEST DUP3 DUP2 LT ISZERO PUSH2 0xA28 JUMPI DUP5 DUP10 ADD MLOAD DUP3 SSTORE PUSH1 0x1 DUP3 ADD SWAP2 POP PUSH1 0x20 DUP6 ADD SWAP5 POP PUSH1 0x20 DUP2 ADD SWAP1 POP PUSH2 0xA03 JUMP JUMPDEST DUP7 DUP4 LT ISZERO PUSH2 0xA45 JUMPI DUP5 DUP10 ADD MLOAD PUSH2 0xA41 PUSH1 0x1F DUP10 AND DUP3 PUSH2 0x954 JUMP JUMPDEST DUP4 SSTORE POP JUMPDEST PUSH1 0x1 PUSH1 0x2 DUP9 MUL ADD DUP9 SSTORE POP POP POP JUMPDEST POP POP POP POP POP POP JUMP JUMPDEST PUSH0 DUP2 SWAP1 POP DUP2 PUSH0 MSTORE PUSH1 0x20 PUSH0 KECCAK256 SWAP1 POP SWAP2 SWAP1 POP JUMP JUMPDEST PUSH1 0x1F DUP3 GT ISZERO PUSH2 0xABA JUMPI DUP3 DUP3 GT ISZERO PUSH2 0xAB9 JUMPI PUSH2 0xA86 DUP2 PUSH2 0xA5A JUMP JUMPDEST PUSH2 0xA8F DUP4 PUSH2 0x7E3 JUMP JUMPDEST PUSH2 0xA98 DUP6 PUSH2 0x7E3 JUMP JUMPDEST PUSH1 0x20 DUP7 LT ISZERO PUSH2 0xAA5 JUMPI PUSH0 SWAP1 POP JUMPDEST DUP1 DUP4 ADD PUSH2 0xAB4 DUP3 DUP5 SUB DUP3 PUSH2 0x8CF JUMP JUMPDEST POP POP POP POP JUMPDEST JUMPDEST POP POP POP JUMP JUMPDEST PUSH2 0xAC8 DUP3 PUSH2 0x73D JUMP JUMPDEST PUSH8 0xFFFFFFFFFFFFFFFF DUP2 GT ISZERO PUSH2 0xAE1 JUMPI PUSH2 0xAE0 PUSH2 0x747 JUMP JUMPDEST JUMPDEST PUSH2 0xAEB DUP3 SLOAD PUSH2 0x7A1 JUMP JUMPDEST PUSH2 0xAF6 DUP3 DUP3 DUP6 PUSH2 0xA6C JUMP JUMPDEST PUSH0 PUSH1 0x20 SWAP1 POP PUSH1 0x1F DUP4 GT PUSH1 0x1 DUP2 EQ PUSH2 0xB27 JUMPI PUSH0 DUP5 ISZERO PUSH2 0xB15 JUMPI DUP3 DUP8 ADD MLOAD SWAP1 POP JUMPDEST PUSH2 0xB1F DUP6 DUP3 PUSH2 0x970 JUMP JUMPDEST DUP7 SSTORE POP PUSH2 0xB86 JUMP JUMPDEST PUSH1 0x1F NOT DUP5 AND PUSH2 0xB35 DUP7 PUSH2 0xA5A JUMP JUMPDEST PUSH0 JUMPDEST DUP3 DUP2 LT ISZERO PUSH2 0xB5C JUMPI DUP5 DUP10 ADD MLOAD DUP3 SSTORE PUSH1 0x1 DUP3 ADD SWAP2 POP PUSH1 0x20 DUP6 ADD SWAP5 POP PUSH1 0x20 DUP2 ADD SWAP1 POP PUSH2 0xB37 JUMP JUMPDEST DUP7 DUP4 LT ISZERO PUSH2 0xB79 JUMPI DUP5 DUP10 ADD MLOAD PUSH2 0xB75 PUSH1 0x1F DUP10 AND DUP3 PUSH2 0x954 JUMP JUMPDEST DUP4 SSTORE POP JUMPDEST PUSH1 0x1 PUSH1 0x2 DUP9 MUL ADD DUP9 SSTORE POP POP POP JUMPDEST POP POP POP POP POP POP JUMP JUMPDEST PUSH0 DUP2 SLOAD SWAP1 POP SWAP2 SWAP1 POP JUMP JUMPDEST PUSH0 DUP2 SWAP1 POP PUSH1 0x1 DUP1 PUSH1 0x1 SUB DUP4 ADD DIV SWAP1 POP SWAP2 SWAP1 POP JUMP JUMPDEST PUSH0 DUP2 SWAP1 POP DUP2 PUSH0 MSTORE PUSH1 0x20 PUSH0 KECCAK256 SWAP1 POP SWAP2 SWAP1 POP JUMP JUMPDEST PUSH0 JUMPDEST DUP3 DUP2 LT ISZERO PUSH2 0xBDF JUMPI PUSH2 0xBD4 PUSH0 DUP3 DUP5 ADD PUSH2 0x8B7 JUMP JUMPDEST PUSH1 0x1 DUP2 ADD SWAP1 POP PUSH2 0xBC0 JUMP JUMPDEST POP POP POP JUMP JUMPDEST DUP2 DUP4 LT ISZERO PUSH2 0xC1B JUMPI PUSH2 0xBF5 DUP3 PUSH2 0xB98 JUMP JUMPDEST PUSH2 0xBFE DUP5 PUSH2 0xB98 JUMP JUMPDEST PUSH2 0xC07 DUP4 PUSH2 0xBAC JUMP JUMPDEST DUP2 DUP2 ADD PUSH2 0xC16 DUP4 DUP6 SUB DUP3 PUSH2 0xBBE JUMP JUMPDEST POP POP POP POP JUMPDEST POP POP POP JUMP JUMPDEST PUSH9 0x10000000000000000 DUP3 GT ISZERO PUSH2 0xC3A JUMPI PUSH2 0xC39 PUSH2 0x747 JUMP JUMPDEST JUMPDEST PUSH2 0xC43 DUP2 PUSH2 0xB8E JUMP JUMPDEST DUP3 DUP3 SSTORE PUSH2 0xC51 DUP4 DUP3 DUP5 PUSH2 0xBE4 JUMP JUMPDEST POP POP POP JUMP JUMPDEST PUSH0 PUSH1 0x3 SWAP1 POP SWAP2 SWAP1 POP JUMP JUMPDEST PUSH0 PUSH1 0xFF DUP3 AND SWAP1 POP SWAP2 SWAP1 POP JUMP JUMPDEST PUSH0 PUSH2 0xC77 DUP3 MLOAD PUSH2 0xC60 JUMP JUMPDEST DUP1 SWAP2 POP POP SWAP2 SWAP1 POP JUMP JUMPDEST PUSH0 DUP2 SWAP1 POP SWAP2 SWAP1 POP JUMP JUMPDEST PUSH2 0xC92 DUP3 PUSH2 0xC56 JUMP JUMPDEST PUSH8 0xFFFFFFFFFFFFFFFF DUP2 GT ISZERO PUSH2 0xCAB JUMPI PUSH2 0xCAA PUSH2 0x747 JUMP JUMPDEST JUMPDEST PUSH2 0xCB5 DUP2 DUP4 PUSH2 0xC20 JUMP JUMPDEST PUSH2 0xCBE DUP4 PUSH2 0xC80 JUMP JUMPDEST PUSH2 0xCC7 DUP4 PUSH2 0xBAC JUMP JUMPDEST PUSH1 0x1 DUP4 DIV PUSH0 JUMPDEST DUP2 DUP2 LT ISZERO PUSH2 0xD04 JUMPI PUSH0 PUSH2 0xCDF DUP6 PUSH2 0xC6C JUMP JUMPDEST PUSH2 0xCE8 DUP2 PUSH2 0x882 JUMP JUMPDEST DUP1 SWAP3 POP PUSH1 0x20 DUP8 ADD SWAP7 POP POP POP DUP1 DUP3 DUP6 ADD SSTORE POP PUSH1 0x1 DUP2 ADD SWAP1 POP PUSH2 0xCCD JUMP JUMPDEST POP POP POP POP POP POP POP JUMP JUMPDEST PUSH1 0x80 MLOAD PUSH2 0xC73 PUSH2 0xD25 PUSH0 CODECOPY PUSH0 PUSH2 0x5C9 ADD MSTORE PUSH2 0xC73 PUSH0 RETURN INVALID PUSH1 0x80 PUSH1 0x40 MSTORE CALLVALUE DUP1 ISZERO PUSH2 0xF JUMPI PUSH0 PUSH0 REVERT JUMPDEST POP PUSH1 0x4 CALLDATASIZE LT PUSH2 0xE8 JUMPI PUSH0 CALLDATALOAD PUSH1 0xE0 SHR DUP1 PUSH4 0xA85C38EF GT PUSH2 0x8A JUMPI DUP1 PUSH4 0xD9A38D64 GT PUSH2 0x64 JUMPI DUP1 PUSH4 0xD9A38D64 EQ PUSH2 0x253 JUMPI DUP1 PUSH4 0xECB2B5CB EQ PUSH2 0x283 JUMPI DUP1 PUSH4 0xFA44F589 EQ PUSH2 0x2B3 JUMPI DUP1 PUSH4 0xFFA1AD74 EQ PUSH2 0x2D1 JUMPI PUSH2 0xE8 JUMP JUMPDEST DUP1 PUSH4 0xA85C38EF EQ PUSH2 0x1CE JUMPI DUP1 PUSH4 0xA87430BA EQ PUSH2 0x201 JUMPI DUP1 PUSH4 0xC45A0155 EQ PUSH2 0x235 JUMPI PUSH2 0xE8 JUMP JUMPDEST DUP1 PUSH4 0x3545B494 GT PUSH2 0xC6 JUMPI DUP1 PUSH4 0x3545B494 EQ PUSH2 0x144 JUMPI DUP1 PUSH4 0x5A0A4A64 EQ PUSH2 0x162 JUMPI DUP1 PUSH4 0x6FD5AE15 EQ PUSH2 0x180 JUMPI DUP1 PUSH4 0x90DABA0A EQ PUSH2 0x19E JUMPI PUSH2 0xE8 JUMP JUMPDEST DUP1 PUSH4 0x56DA048 EQ PUSH2 0xEC JUMPI DUP1 PUSH4 0x14336B85 EQ PUSH2 0x10A JUMPI DUP1 PUSH4 0x200D2ED2 EQ PUSH2 0x126 JUMPI JUMPDEST PUSH0 PUSH0 REVERT JUMPDEST PUSH2 0xF4 PUSH2 0x2EF JUMP JUMPDEST PUSH1 0x40 MLOAD PUSH2 0x101 SWAP2 SWAP1 PUSH2 0x6BE JUMP JUMPDEST PUSH1 0x40 MLOAD DUP1 SWAP2 SUB SWAP1 RETURN JUMPDEST PUSH2 0x124 PUSH1 0x4 DUP1 CALLDATASIZE SUB DUP2 ADD SWAP1 PUSH2 0x11F SWAP2 SWAP1 PUSH2 0x780 JUMP JUMPDEST PUSH2 0x37B JUMP JUMPDEST STOP JUMPDEST PUSH2 0x12E PUSH2 0x3D7 JUMP JUMPDEST PUSH1 0x40 MLOAD PUSH2 0x13B SWAP2 SWAP1 PUSH2 0x843 JUMP JUMPDEST PUSH1 0x40 MLOAD DUP1 SWAP2 SUB SWAP1 RETURN JUMPDEST PUSH2 0x14C PUSH2 0x3E8 JUMP JUMPDEST PUSH1 0x40 MLOAD PUSH2 0x159 SWAP2 SWAP1 PUSH2 0x874 JUMP JUMPDEST PUSH1 0x40 MLOAD DUP1 SWAP2 SUB SWAP1 RETURN JUMPDEST PUSH2 0x16A PUSH2 0x3EE JUMP JUMPDEST PUSH1 0x40 MLOAD PUSH2 0x177 SWAP2 SWAP1 PUSH2 0x8DF JUMP JUMPDEST PUSH1 0x40 MLOAD DUP1 SWAP2 SUB SWAP1 RETURN JUMPDEST PUSH2 0x188 PUSH2 0x47A JUMP JUMPDEST PUSH1 0x40 MLOAD PUSH2 0x195 SWAP2 SWAP1 PUSH2 0x90E JUMP JUMPDEST PUSH1 0x40 MLOAD DUP1 SWAP2 SUB SWAP1 RETURN JUMPDEST PUSH2 0x1B8 PUSH1 0x4 DUP1 CALLDATASIZE SUB DUP2 ADD SWAP1 PUSH2 0x1B3 SWAP2 SWAP1 PUSH2 0x927 JUMP JUMPDEST PUSH2 0x48C JUMP JUMPDEST PUSH1 0x40 MLOAD PUSH2 0x1C5 SWAP2 SWAP1 PUSH2 0x974 JUMP JUMPDEST PUSH1 0x40 MLOAD DUP1 SWAP2 SUB SWAP1 RETURN JUMPDEST PUSH2 0x1E8 PUSH1 0x4 DUP1 CALLDATASIZE SUB DUP2 ADD SWAP1 PUSH2 0x1E3 SWAP2 SWAP1 PUSH2 0x98D JUMP JUMPDEST PUSH2 0x4B2 JUMP JUMPDEST PUSH1 0x40 MLOAD PUSH2 0x1F8 SWAP5 SWAP4 SWAP3 SWAP2 SWAP1 PUSH2 0xA19 JUMP JUMPDEST PUSH1 0x40 MLOAD DUP1 SWAP2 SUB SWAP1 RETURN JUMPDEST PUSH2 0x21B PUSH1 0x4 DUP1 CALLDATASIZE SUB DUP2 ADD SWAP1 PUSH2 0x216 SWAP2 SWAP1 PUSH2 0xA86 JUMP JUMPDEST PUSH2 0x53F JUMP JUMPDEST PUSH1 0x40 MLOAD PUSH2 0x22C SWAP6 SWAP5 SWAP4 SWAP3 SWAP2 SWAP1 PUSH2 0xAEA JUMP JUMPDEST PUSH1 0x40 MLOAD DUP1 SWAP2 SUB SWAP1 RETURN JUMPDEST PUSH2 0x23D PUSH2 0x5C7 JUMP JUMPDEST PUSH1 0x40 MLOAD PUSH2 0x24A SWAP2 SWAP1 PUSH2 0xB3B JUMP JUMPDEST PUSH1 0x40 MLOAD DUP1 SWAP2 SUB SWAP1 RETURN JUMPDEST PUSH2 0x26D PUSH1 0x4 DUP1 CALLDATASIZE SUB DUP2 ADD SWAP1 PUSH2 0x268 SWAP2 SWAP1 PUSH2 0xB54 JUMP JUMPDEST PUSH2 0x5EB JUMP JUMPDEST PUSH1 0x40 MLOAD PUSH2 0x27A SWAP2 SWAP1 PUSH2 0xB92 JUMP JUMPDEST PUSH1 0x40 MLOAD DUP1 SWAP2 SUB SWAP1 RETURN JUMPDEST PUSH2 0x29D PUSH1 0x4 DUP1 CALLDATASIZE SUB DUP2 ADD SWAP1 PUSH2 0x298 SWAP2 SWAP1 PUSH2 0x98D JUMP JUMPDEST PUSH2 0x621 JUMP JUMPDEST PUSH1 0x40 MLOAD PUSH2 0x2AA SWAP2 SWAP1 PUSH2 0xB92 JUMP JUMPDEST PUSH1 0x40 MLOAD DUP1 SWAP2 SUB SWAP1 RETURN JUMPDEST PUSH2 0x2BB PUSH2 0x636 JUMP JUMPDEST PUSH1 0x40 MLOAD PUSH2 0x2C8 SWAP2 SWAP1 PUSH2 0xBC7 JUMP JUMPDEST PUSH1 0x40 MLOAD DUP1 SWAP2 SUB SWAP1 RETURN JUMPDEST PUSH2 0x2D9 PUSH2 0x649 JUMP JUMPDEST PUSH1 0x40 MLOAD PUSH2 0x2E6 SWAP2 SWAP1 PUSH2 0xB92 JUMP JUMPDEST PUSH1 0x40 MLOAD DUP1 SWAP2 SUB SWAP1 RETURN JUMPDEST PUSH1 0x3 DUP1 SLOAD PUSH2 0x2FC SWAP1 PUSH2 0xC0D JUMP JUMPDEST DUP1 PUSH1 0x1F ADD PUSH1 0x20 DUP1 SWAP2 DIV MUL PUSH1 0x20 ADD PUSH1 0x40 MLOAD SWAP1 DUP2 ADD PUSH1 0x40 MSTORE DUP1 SWAP3 SWAP2 SWAP1 DUP2 DUP2 MSTORE PUSH1 0x20 ADD DUP3 DUP1 SLOAD PUSH2 0x328 SWAP1 PUSH2 0xC0D JUMP JUMPDEST DUP1 ISZERO PUSH2 0x373 JUMPI DUP1 PUSH1 0x1F LT PUSH2 0x34A JUMPI PUSH2 0x100 DUP1 DUP4 SLOAD DIV MUL DUP4 MSTORE SWAP2 PUSH1 0x20 ADD SWAP2 PUSH2 0x373 JUMP JUMPDEST DUP3 ADD SWAP2 SWAP1 PUSH0 MSTORE PUSH1 0x20 PUSH0 KECCAK256 SWAP1 JUMPDEST DUP2 SLOAD DUP2 MSTORE SWAP1 PUSH1 0x1 ADD SWAP1 PUSH1 0x20 ADD DUP1 DUP4 GT PUSH2 0x356 JUMPI DUP3 SWAP1 SUB PUSH1 0x1F AND DUP3 ADD SWAP2 JUMPDEST POP POP POP POP POP DUP2 JUMP JUMPDEST DUP1 ISZERO PUSH2 0x3AB JUMPI DUP2 PUSH1 0xFF AND PUSH1 0x1 SWAP1 SHL PUSH1 0x7 PUSH0 DUP6 DUP2 MSTORE PUSH1 0x20 ADD SWAP1 DUP2 MSTORE PUSH1 0x20 ADD PUSH0 KECCAK256 PUSH0 DUP3 DUP3 SLOAD OR SWAP3 POP POP DUP2 SWAP1 SSTORE POP PUSH2 0x3D2 JUMP JUMPDEST DUP2 PUSH1 0xFF AND PUSH1 0x1 SWAP1 SHL NOT PUSH1 0x7 PUSH0 DUP6 DUP2 MSTORE PUSH1 0x20 ADD SWAP1 DUP2 MSTORE PUSH1 0x20 ADD PUSH0 KECCAK256 PUSH0 DUP3 DUP3 SLOAD AND SWAP3 POP POP DUP2 SWAP1 SSTORE POP JUMPDEST POP POP POP JUMP JUMPDEST PUSH0 PUSH0 SWAP1 SLOAD SWAP1 PUSH2 0x100 EXP SWAP1 DIV PUSH1 0xFF AND DUP2 JUMP JUMPDEST PUSH1 0x1 SLOAD DUP2 JUMP JUMPDEST PUSH1 0x2 DUP1 SLOAD PUSH2 0x3FB SWAP1 PUSH2 0xC0D JUMP JUMPDEST DUP1 PUSH1 0x1F ADD PUSH1 0x20 DUP1 SWAP2 DIV MUL PUSH1 0x20 ADD PUSH1 0x40 MLOAD SWAP1 DUP2 ADD PUSH1 0x40 MSTORE DUP1 SWAP3 SWAP2 SWAP1 DUP2 DUP2 MSTORE PUSH1 0x20 ADD DUP3 DUP1 SLOAD PUSH2 0x427 SWAP1 PUSH2 0xC0D JUMP JUMPDEST DUP1 ISZERO PUSH2 0x472 JUMPI DUP1 PUSH1 0x1F LT PUSH2 0x449 JUMPI PUSH2 0x100 DUP1 DUP4 SLOAD DIV MUL DUP4 MSTORE SWAP2 PUSH1 0x20 ADD SWAP2 PUSH2 0x472 JUMP JUMPDEST DUP3 ADD SWAP2 SWAP1 PUSH0 MSTORE PUSH1 0x20 PUSH0 KECCAK256 SWAP1 JUMPDEST DUP2 SLOAD DUP2 MSTORE SWAP1 PUSH1 0x1 ADD SWAP1 PUSH1 0x20 ADD DUP1 DUP4 GT PUSH2 0x455 JUMPI DUP3 SWAP1 SUB PUSH1 0x1F AND DUP3 ADD SWAP2 JUMPDEST POP POP POP POP POP DUP2 JUMP JUMPDEST PUSH0 PUSH1 0x1 SWAP1 SLOAD SWAP1 PUSH2 0x100 EXP SWAP1 DIV PUSH1 0xFF AND DUP2 JUMP JUMPDEST PUSH0 PUSH1 0x1 DUP1 DUP4 PUSH1 0xFF AND PUSH1 0x7 PUSH0 DUP8 DUP2 MSTORE PUSH1 0x20 ADD SWAP1 DUP2 MSTORE PUSH1 0x20 ADD PUSH0 KECCAK256 SLOAD SWAP1 SHR AND EQ SWAP1 POP SWAP3 SWAP2 POP POP JUMP JUMPDEST PUSH1 0x4 DUP2 DUP2 SLOAD DUP2 LT PUSH2 0x4C1 JUMPI PUSH0 DUP1 REVERT JUMPDEST SWAP1 PUSH0 MSTORE PUSH1 0x20 PUSH0 KECCAK256 SWAP1 PUSH1 0x2 MUL ADD PUSH0 SWAP2 POP SWAP1 POP DUP1 PUSH0 ADD PUSH0 SWAP1 SLOAD SWAP1 PUSH2 0x100 EXP SWAP1 DIV PUSH8 0xFFFFFFFFFFFFFFFF AND SWAP1 DUP1 PUSH0 ADD PUSH1 0x8 SWAP1 SLOAD SWAP1 PUSH2 0x100 EXP SWAP1 DIV PUSH8 0xFFFFFFFFFFFFFFFF AND SWAP1 DUP1 PUSH1 0x1 ADD PUSH0 SWAP1 SLOAD SWAP1 PUSH2 0x100 EXP SWAP1 DIV PUSH20 0xFFFFFFFFFFFFFFFFFFFFFFFFFFFFFFFFFFFFFFFF AND SWAP1 DUP1 PUSH1 0x1 ADD PUSH1 0x14 SWAP1 SLOAD SWAP1 PUSH2 0x100 EXP SWAP1 DIV PUSH1 0xFF AND SWAP1 POP DUP5 JUMP JUMPDEST PUSH1 0x5 PUSH1 0x20 MSTORE DUP1 PUSH0 MSTORE PUSH1 0x40 PUSH0 KECCAK256 PUSH0 SWAP2 POP SWAP1 POP DUP1 PUSH0 ADD PUSH0 SWAP1 SLOAD SWAP1 PUSH2 0x100 EXP SWAP1 DIV PUSH16 0xFFFFFFFFFFFFFFFFFFFFFFFFFFFFFFFF AND SWAP1 DUP1 PUSH0 ADD PUSH1 0x10 SWAP1 SLOAD SWAP1 PUSH2 0x100 EXP SWAP1 DIV PUSH16 0xFFFFFFFFFFFFFFFFFFFFFFFFFFFFFFFF AND SWAP1 DUP1 PUSH1 0x1 ADD SLOAD SWAP1 DUP1 PUSH1 0x2 ADD PUSH0 SWAP1 SLOAD SWAP1 PUSH2 0x100 EXP SWAP1 DIV PUSH8 0xFFFFFFFFFFFFFFFF AND SWAP1 DUP1 PUSH1 0x2 ADD PUSH1 0x8 SWAP1 SLOAD SWAP1 PUSH2 0x100 EXP SWAP1 DIV PUSH1 0xFF AND SWAP1 POP DUP6 JUMP JUMPDEST PUSH32 0x0 DUP2 JUMP JUMPDEST PUSH1 0x6 DUP3 DUP2 SLOAD DUP2 LT PUSH2 0x5FA JUMPI PUSH0 DUP1 REVERT JUMPDEST SWAP1 PUSH0 MSTORE PUSH1 0x20 PUSH0 KECCAK256 ADD DUP2 DUP2 SLOAD DUP2 LT PUSH2 0x60F JUMPI PUSH0 DUP1 REVERT JUMPDEST SWAP1 PUSH0 MSTORE PUSH1 0x20 PUSH0 KECCAK256 ADD PUSH0 SWAP2 POP SWAP2 POP POP SLOAD DUP2 JUMP JUMPDEST PUSH1 0x7 PUSH1 0x20 MSTORE DUP1 PUSH0 MSTORE PUSH1 0x40 PUSH0 KECCAK256 PUSH0 SWAP2 POP SWAP1 POP SLOAD DUP2 JUMP JUMPDEST PUSH0 PUSH1 0x2 SWAP1 SLOAD SWAP1 PUSH2 0x100 EXP SWAP1 DIV PUSH2 0xFFFF AND DUP2 JUMP JUMPDEST PUSH1 0x1 DUP2 JUMP JUMPDEST PUSH0 DUP2 MLOAD SWAP1 POP SWAP2 SWAP1 POP JUMP JUMPDEST PUSH0 DUP3 DUP3 MSTORE PUSH1 0x20 DUP3 ADD SWAP1 POP SWAP3 SWAP2 POP POP JUMP JUMPDEST DUP3 DUP2 DUP4 MCOPY PUSH0 DUP4 DUP4 ADD MSTORE POP POP POP JUMP JUMPDEST PUSH0 PUSH1 0x1F NOT PUSH1 0x1F DUP4 ADD AND SWAP1 POP SWAP2 SWAP1 POP JUMP JUMPDEST PUSH0 PUSH2 0x690 DUP3 PUSH2 0x64E JUMP JUMPDEST PUSH2 0x69A DUP2 DUP6 PUSH2 0x658 JUMP JUMPDEST SWAP4 POP PUSH2 0x6AA DUP2 DUP6 PUSH1 0x20 DUP7 ADD PUSH2 0x668 JUMP JUMPDEST PUSH2 0x6B3 DUP2 PUSH2 0x676 JUMP JUMPDEST DUP5 ADD SWAP2 POP POP SWAP3 SWAP2 POP POP JUMP JUMPDEST PUSH0 PUSH1 0x20 DUP3 ADD SWAP1 POP DUP2 DUP2 SUB PUSH0 DUP4 ADD MSTORE PUSH2 0x6D6 DUP2 DUP5 PUSH2 0x686 JUMP JUMPDEST SWAP1 POP SWAP3 SWAP2 POP POP JUMP JUMPDEST PUSH0 PUSH0 REVERT JUMPDEST PUSH0 DUP2 SWAP1 POP SWAP2 SWAP1 POP JUMP JUMPDEST PUSH2 0x6F4 DUP2 PUSH2 0x6E2 JUMP JUMPDEST DUP2 EQ PUSH2 0x6FE JUMPI PUSH0 PUSH0 REVERT JUMPDEST POP JUMP JUMPDEST PUSH0 DUP2 CALLDATALOAD SWAP1 POP PUSH2 0x70F DUP2 PUSH2 0x6EB JUMP JUMPDEST SWAP3 SWAP2 POP POP JUMP JUMPDEST PUSH0 PUSH1 0xFF DUP3 AND SWAP1 POP SWAP2 SWAP1 POP JUMP JUMPDEST PUSH2 0x72A DUP2 PUSH2 0x715 JUMP JUMPDEST DUP2 EQ PUSH2 0x734 JUMPI PUSH0 PUSH0 REVERT JUMPDEST POP JUMP JUMPDEST PUSH0 DUP2 CALLDATALOAD SWAP1 POP PUSH2 0x745 DUP2 PUSH2 0x721 JUMP JUMPDEST SWAP3 SWAP2 POP POP JUMP JUMPDEST PUSH0 DUP2 ISZERO ISZERO SWAP1 POP SWAP2 SWAP1 POP JUMP JUMPDEST PUSH2 0x75F DUP2 PUSH2 0x74B JUMP JUMPDEST DUP2 EQ PUSH2 0x769 JUMPI PUSH0 PUSH0 REVERT JUMPDEST POP JUMP JUMPDEST PUSH0 DUP2 CALLDATALOAD SWAP1 POP PUSH2 0x77A DUP2 PUSH2 0x756 JUMP JUMPDEST SWAP3 SWAP2 POP POP JUMP JUMPDEST PUSH0 PUSH0 PUSH0 PUSH1 0x60 DUP5 DUP7 SUB SLT ISZERO PUSH2 0x797 JUMPI PUSH2 0x796 PUSH2 0x6DE JUMP JUMPDEST JUMPDEST PUSH0 PUSH2 0x7A4 DUP7 DUP3 DUP8 ADD PUSH2 0x701 JUMP JUMPDEST SWAP4 POP POP PUSH1 0x20 PUSH2 0x7B5 DUP7 DUP3 DUP8 ADD PUSH2 0x737 JUMP JUMPDEST SWAP3 POP POP PUSH1 0x40 PUSH2 0x7C6 DUP7 DUP3 DUP8 ADD PUSH2 0x76C JUMP JUMPDEST SWAP2 POP POP SWAP3 POP SWAP3 POP SWAP3 JUMP JUMPDEST PUSH32 0x4E487B7100000000000000000000000000000000000000000000000000000000 PUSH0 MSTORE PUSH1 0x21 PUSH1 0x4 MSTORE PUSH1 0x24 PUSH0 REVERT JUMPDEST PUSH1 0x4 DUP2 LT PUSH2 0x80E JUMPI PUSH2 0x80D PUSH2 0x7D0 JUMP JUMPDEST JUMPDEST POP JUMP JUMPDEST PUSH0 DUP2 SWAP1 POP PUSH2 0x81E DUP3 PUSH2 0x7FD JUMP JUMPDEST SWAP2 SWAP1 POP JUMP JUMPDEST PUSH0 PUSH2 0x82D DUP3 PUSH2 0x811 JUMP JUMPDEST SWAP1 POP SWAP2 SWAP1 POP JUMP JUMPDEST PUSH2 0x83D DUP2 PUSH2 0x823 JUMP JUMPDEST DUP3 MSTORE POP POP JUMP JUMPDEST PUSH0 PUSH1 0x20 DUP3 ADD SWAP1 POP PUSH2 0x856 PUSH0 DUP4 ADD DUP5 PUSH2 0x834 JUMP JUMPDEST SWAP3 SWAP2 POP POP JUMP JUMPDEST PUSH0 DUP2 SWAP1 POP SWAP2 SWAP1 POP JUMP JUMPDEST PUSH2 0x86E DUP2 PUSH2 0x85C JUMP JUMPDEST DUP3 MSTORE POP POP JUMP JUMPDEST PUSH0 PUSH1 0x20 DUP3 ADD SWAP1 POP PUSH2 0x887 PUSH0 DUP4 ADD DUP5 PUSH2 0x865 JUMP JUMPDEST SWAP3 SWAP2 POP POP JUMP JUMPDEST PUSH0 DUP2 MLOAD SWAP1 POP SWAP2 SWAP1 POP JUMP JUMPDEST PUSH0 DUP3 DUP3 MSTORE PUSH1 0x20 DUP3 ADD SWAP1 POP SWAP3 SWAP2 POP POP JUMP JUMPDEST PUSH0 PUSH2 0x8B1 DUP3 PUSH2 0x88D JUMP JUMPDEST PUSH2 0x8BB DUP2 DUP6 PUSH2 0x897 JUMP JUMPDEST SWAP4 POP PUSH2 0x8CB DUP2 DUP6 PUSH1 0x20 DUP7 ADD PUSH2 0x668 JUMP JUMPDEST PUSH2 0x8D4 DUP2 PUSH2 0x676 JUMP JUMPDEST DUP5 ADD SWAP2 POP POP SWAP3 SWAP2 POP POP JUMP JUMPDEST PUSH0 PUSH1 0x20 DUP3 ADD SWAP1 POP DUP2 DUP2 SUB PUSH0 DUP4 ADD MSTORE PUSH2 0x8F7 DUP2 DUP5 PUSH2 0x8A7 JUMP JUMPDEST SWAP1 POP SWAP3 SWAP2 POP POP JUMP JUMPDEST PUSH2 0x908 DUP2 PUSH2 0x715 JUMP JUMPDEST DUP3 MSTORE POP POP JUMP JUMPDEST PUSH0 PUSH1 0x20 DUP3 ADD SWAP1 POP PUSH2 0x921 PUSH0 DUP4 ADD DUP5 PUSH2 0x8FF JUMP JUMPDEST SWAP3 SWAP2 POP POP JUMP JUMPDEST PUSH0 PUSH0 PUSH1 0x40 DUP4 DUP6 SUB SLT ISZERO PUSH2 0x93D JUMPI PUSH2 0x93C PUSH2 0x6DE JUMP JUMPDEST JUMPDEST PUSH0 PUSH2 0x94A DUP6 DUP3 DUP7 ADD PUSH2 0x701 JUMP JUMPDEST SWAP3 POP POP PUSH1 0x20 PUSH2 0x95B DUP6 DUP3 DUP7 ADD PUSH2 0x737 JUMP JUMPDEST SWAP2 POP POP SWAP3 POP SWAP3 SWAP1 POP JUMP JUMPDEST PUSH2 0x96E DUP2 PUSH2 0x74B JUMP JUMPDEST DUP3 MSTORE POP POP JUMP JUMPDEST PUSH0 PUSH1 0x20 DUP3 ADD SWAP1 POP PUSH2 0x987 PUSH0 DUP4 ADD DUP5 PUSH2 0x965 JUMP JUMPDEST SWAP3 SWAP2 POP POP JUMP JUMPDEST PUSH0 PUSH1 0x20 DUP3 DUP5 SUB SLT ISZERO PUSH2 0x9A2 JUMPI PUSH2 0x9A1 PUSH2 0x6DE JUMP JUMPDEST JUMPDEST PUSH0 PUSH2 0x9AF DUP5 DUP3 DUP6 ADD PUSH2 0x701 JUMP JUMPDEST SWAP2 POP POP SWAP3 SWAP2 POP POP JUMP JUMPDEST PUSH0 PUSH8 0xFFFFFFFFFFFFFFFF DUP3 AND SWAP1 POP SWAP2 SWAP1 POP JUMP JUMPDEST PUSH2 0x9D4 DUP2 PUSH2 0x9B8 JUMP JUMPDEST DUP3 MSTORE POP POP JUMP JUMPDEST PUSH0 PUSH20 0xFFFFFFFFFFFFFFFFFFFFFFFFFFFFFFFFFFFFFFFF DUP3 AND SWAP1 POP SWAP2 SWAP1 POP JUMP JUMPDEST PUSH0 PUSH2 0xA03 DUP3 PUSH2 0x9DA JUMP JUMPDEST SWAP1 POP SWAP2 SWAP1 POP JUMP JUMPDEST PUSH2 0xA13 DUP2 PUSH2 0x9F9 JUMP JUMPDEST DUP3 MSTORE POP POP JUMP JUMPDEST PUSH0 PUSH1 0x80 DUP3 ADD SWAP1 POP PUSH2 0xA2C PUSH0 DUP4 ADD DUP8 PUSH2 0x9CB JUMP JUMPDEST PUSH2 0xA39 PUSH1 0x20 DUP4 ADD DUP7 PUSH2 0x9CB JUMP JUMPDEST PUSH2 0xA46 PUSH1 0x40 DUP4 ADD DUP6 PUSH2 0xA0A JUMP JUMPDEST PUSH2 0xA53 PUSH1 0x60 DUP4 ADD DUP5 PUSH2 0x965 JUMP JUMPDEST SWAP6 SWAP5 POP POP POP POP POP JUMP JUMPDEST PUSH2 0xA65 DUP2 PUSH2 0x9F9 JUMP JUMPDEST DUP2 EQ PUSH2 0xA6F JUMPI PUSH0 PUSH0 REVERT JUMPDEST POP JUMP JUMPDEST PUSH0 DUP2 CALLDATALOAD SWAP1 POP PUSH2 0xA80 DUP2 PUSH2 0xA5C JUMP JUMPDEST SWAP3 SWAP2 POP POP JUMP JUMPDEST PUSH0 PUSH1 0x20 DUP3 DUP5 SUB SLT ISZERO PUSH2 0xA9B JUMPI PUSH2 0xA9A PUSH2 0x6DE JUMP JUMPDEST JUMPDEST PUSH0 PUSH2 0xAA8 DUP5 DUP3 DUP6 ADD PUSH2 0xA72 JUMP JUMPDEST SWAP2 POP POP SWAP3 SWAP2 POP POP JUMP JUMPDEST PUSH0 PUSH16 0xFFFFFFFFFFFFFFFFFFFFFFFFFFFFFFFF DUP3 AND SWAP1 POP SWAP2 SWAP1 POP JUMP JUMPDEST PUSH2 0xAD5 DUP2 PUSH2 0xAB1 JUMP JUMPDEST DUP3 MSTORE POP POP JUMP JUMPDEST PUSH2 0xAE4 DUP2 PUSH2 0x6E2 JUMP JUMPDEST DUP3 MSTORE POP POP JUMP JUMPDEST PUSH0 PUSH1 0xA0 DUP3 ADD SWAP1 POP PUSH2 0xAFD PUSH0 DUP4 ADD DUP9 PUSH2 0xACC JUMP JUMPDEST PUSH2 0xB0A PUSH1 0x20 DUP4 ADD DUP8 PUSH2 0xACC JUMP JUMPDEST PUSH2 0xB17 PUSH1 0x40 DUP4 ADD DUP7 PUSH2 0xADB JUMP JUMPDEST PUSH2 0xB24 PUSH1 0x60 DUP4 ADD DUP6 PUSH2 0x9CB JUMP JUMPDEST PUSH2 0xB31 PUSH1 0x80 DUP4 ADD DUP5 PUSH2 0x965 JUMP JUMPDEST SWAP7 SWAP6 POP POP POP POP POP POP JUMP JUMPDEST PUSH0 PUSH1 0x20 DUP3 ADD SWAP1 POP PUSH2 0xB4E PUSH0 DUP4 ADD DUP5 PUSH2 0xA0A JUMP JUMPDEST SWAP3 SWAP2 POP POP JUMP JUMPDEST PUSH0 PUSH0 PUSH1 0x40 DUP4 DUP6 SUB SLT ISZERO PUSH2 0xB6A JUMPI PUSH2 0xB69 PUSH2 0x6DE JUMP JUMPDEST JUMPDEST PUSH0 PUSH2 0xB77 DUP6 DUP3 DUP7 ADD PUSH2 0x701 JUMP JUMPDEST SWAP3 POP POP PUSH1 0x20 PUSH2 0xB88 DUP6 DUP3 DUP7 ADD PUSH2 0x701 JUMP JUMPDEST SWAP2 POP POP SWAP3 POP SWAP3 SWAP1 POP JUMP JUMPDEST PUSH0 PUSH1 0x20 DUP3 ADD SWAP1 POP PUSH2 0xBA5 PUSH0 DUP4 ADD DUP5 PUSH2 0xADB JUMP JUMPDEST SWAP3 SWAP2 POP POP JUMP JUMPDEST PUSH0 PUSH2 0xFFFF DUP3 AND SWAP1 POP SWAP2 SWAP1 POP JUMP JUMPDEST PUSH2 0xBC1 DUP2 PUSH2 0xBAB JUMP JUMPDEST DUP3 MSTORE POP POP JUMP JUMPDEST PUSH0 PUSH1 0x20 DUP3 ADD SWAP1 POP PUSH2 0xBDA PUSH0 DUP4 ADD DUP5 PUSH2 0xBB8 JUMP JUMPDEST SWAP3 SWAP2 POP POP JUMP JUMPDEST PUSH32 0x4E487B7100000000000000000000000000000000000000000000000000000000 PUSH0 MSTORE PUSH1 0x22 PUSH1 0x4 MSTORE PUSH1 0x24 PUSH0 REVERT JUMPDEST PUSH0 PUSH1 0x2 DUP3 DIV SWAP1 POP PUSH1 0x1 DUP3 AND DUP1 PUSH2 0xC24 JUMPI PUSH1 0x7F DUP3 AND SWAP2 POP JUMPDEST PUSH1 0x20 DUP3 LT DUP2 SUB PUSH2 0xC37 JUMPI PUSH2 0xC36 PUSH2 0xBE0 JUMP JUMPDEST JUMPDEST POP SWAP2 SWAP1 POP JUMP INVALID LOG2 PUSH5 0x6970667358 0x22 SLT KECCAK256 BASEFEE 0xBF EXTCALL SWAP1 0xFC PUSH6 0x911F24F768E4 LT 0xD RETURNDATACOPY DUP8 0xA9 0x25 0xED 0xEA PUSH30 0xD4DCD09B22394007D8303B64736F6C634300082200330000000000000000 "
				},
				"gasEstimates": {
					"creation": {
						"codeDepositCost": "637400",
						"executionCost": "infinite",
						"totalCost": "infinite"
					},
					"external": {
						"VERSION()": "413",
						"constantId()": "2448",
						"countdowns()": "2582",
						"dynamicData()": "infinite",
						"factory()": "infinite",
						"getFlag(uint256,uint8)": "3067",
						"level()": "2583",
						"matrix(uint256,uint256)": "infinite",
						"names()": "infinite",
						"orders(uint256)": "infinite",
						"packedFlags(uint256)": "infinite",
						"setFlag(uint256,uint8,bool)": "25150",
						"status()": "2621",
						"users(address)": "infinite"
					}
				},
				"methodIdentifiers": {
					"VERSION()": "ffa1ad74",
					"constantId()": "3545b494",
					"countdowns()": "fa44f589",
					"dynamicData()": "5a0a4a64",
					"factory()": "c45a0155",
					"getFlag(uint256,uint8)": "90daba0a",
					"level()": "6fd5ae15",
					"matrix(uint256,uint256)": "d9a38d64",
					"names()": "056da048",
					"orders(uint256)": "a85c38ef",
					"packedFlags(uint256)": "ecb2b5cb",
					"setFlag(uint256,uint8,bool)": "14336b85",
					"status()": "200d2ed2",
					"users(address)": "a87430ba"
				}
			},
			"storageLayout": {
				"storage": [
					{
						"astId": 71,
						"contract": "help.sol:AdvancedStorage",
						"label": "status",
						"offset": 0,
						"slot": "0",
						"type": "t_enum(Status)68"
					},
					{
						"astId": 73,
						"contract": "help.sol:AdvancedStorage",
						"label": "level",
						"offset": 1,
						"slot": "0",
						"type": "t_uint8"
					},
					{
						"astId": 75,
						"contract": "help.sol:AdvancedStorage",
						"label": "countdowns",
						"offset": 2,
						"slot": "0",
						"type": "t_uint16"
					},
					{
						"astId": 77,
						"contract": "help.sol:AdvancedStorage",
						"label": "constantId",
						"offset": 0,
						"slot": "1",
						"type": "t_bytes32"
					},
					{
						"astId": 79,
						"contract": "help.sol:AdvancedStorage",
						"label": "dynamicData",
						"offset": 0,
						"slot": "2",
						"type": "t_bytes_storage"
					},
					{
						"astId": 81,
						"contract": "help.sol:AdvancedStorage",
						"label": "names",
						"offset": 0,
						"slot": "3",
						"type": "t_string_storage"
					},
					{
						"astId": 94,
						"contract": "help.sol:AdvancedStorage",
						"label": "orders",
						"offset": 0,
						"slot": "4",
						"type": "t_array(t_struct(Order)90_storage)dyn_storage"
					},
					{
						"astId": 110,
						"contract": "help.sol:AdvancedStorage",
						"label": "users",
						"offset": 0,
						"slot": "5",
						"type": "t_mapping(t_address,t_struct(UserProfile)105_storage)"
					},
					{
						"astId": 114,
						"contract": "help.sol:AdvancedStorage",
						"label": "matrix",
						"offset": 0,
						"slot": "6",
						"type": "t_array(t_array(t_uint256)dyn_storage)dyn_storage"
					},
					{
						"astId": 118,
						"contract": "help.sol:AdvancedStorage",
						"label": "packedFlags",
						"offset": 0,
						"slot": "7",
						"type": "t_mapping(t_uint256,t_uint256)"
					}
				],
				"types": {
					"t_address": {
						"encoding": "inplace",
						"label": "address",
						"numberOfBytes": "20"
					},
					"t_array(t_array(t_uint256)dyn_storage)dyn_storage": {
						"base": "t_array(t_uint256)dyn_storage",
						"encoding": "dynamic_array",
						"label": "uint256[][]",
						"numberOfBytes": "32"
					},
					"t_array(t_struct(Order)90_storage)dyn_storage": {
						"base": "t_struct(Order)90_storage",
						"encoding": "dynamic_array",
						"label": "struct AdvancedStorage.Order[]",
						"numberOfBytes": "32"
					},
					"t_array(t_uint256)dyn_storage": {
						"base": "t_uint256",
						"encoding": "dynamic_array",
						"label": "uint256[]",
						"numberOfBytes": "32"
					},
					"t_bool": {
						"encoding": "inplace",
						"label": "bool",
						"numberOfBytes": "1"
					},
					"t_bytes32": {
						"encoding": "inplace",
						"label": "bytes32",
						"numberOfBytes": "32"
					},
					"t_bytes_storage": {
						"encoding": "bytes",
						"label": "bytes",
						"numberOfBytes": "32"
					},
					"t_enum(Status)68": {
						"encoding": "inplace",
						"label": "enum AdvancedStorage.Status",
						"numberOfBytes": "1"
					},
					"t_mapping(t_address,t_struct(UserProfile)105_storage)": {
						"encoding": "mapping",
						"key": "t_address",
						"label": "mapping(address => struct AdvancedStorage.UserProfile)",
						"numberOfBytes": "32",
						"value": "t_struct(UserProfile)105_storage"
					},
					"t_mapping(t_uint256,t_uint256)": {
						"encoding": "mapping",
						"key": "t_uint256",
						"label": "mapping(uint256 => uint256)",
						"numberOfBytes": "32",
						"value": "t_uint256"
					},
					"t_string_storage": {
						"encoding": "bytes",
						"label": "string",
						"numberOfBytes": "32"
					},
					"t_struct(Order)90_storage": {
						"encoding": "inplace",
						"label": "struct AdvancedStorage.Order",
						"members": [
							{
								"astId": 83,
								"contract": "help.sol:AdvancedStorage",
								"label": "id",
								"offset": 0,
								"slot": "0",
								"type": "t_uint64"
							},
							{
								"astId": 85,
								"contract": "help.sol:AdvancedStorage",
								"label": "timestamp",
								"offset": 8,
								"slot": "0",
								"type": "t_uint64"
							},
							{
								"astId": 87,
								"contract": "help.sol:AdvancedStorage",
								"label": "buyer",
								"offset": 0,
								"slot": "1",
								"type": "t_address"
							},
							{
								"astId": 89,
								"contract": "help.sol:AdvancedStorage",
								"label": "fulfilled",
								"offset": 20,
								"slot": "1",
								"type": "t_bool"
							}
						],
						"numberOfBytes": "64"
					},
					"t_struct(UserProfile)105_storage": {
						"encoding": "inplace",
						"label": "struct AdvancedStorage.UserProfile",
						"members": [
							{
								"astId": 96,
								"contract": "help.sol:AdvancedStorage",
								"label": "balance",
								"offset": 0,
								"slot": "0",
								"type": "t_uint128"
							},
							{
								"astId": 98,
								"contract": "help.sol:AdvancedStorage",
								"label": "locked",
								"offset": 16,
								"slot": "0",
								"type": "t_uint128"
							},
							{
								"astId": 100,
								"contract": "help.sol:AdvancedStorage",
								"label": "lastActive",
								"offset": 0,
								"slot": "1",
								"type": "t_uint256"
							},
							{
								"astId": 102,
								"contract": "help.sol:AdvancedStorage",
								"label": "referralCount",
								"offset": 0,
								"slot": "2",
								"type": "t_uint64"
							},
							{
								"astId": 104,
								"contract": "help.sol:AdvancedStorage",
								"label": "isVerified",
								"offset": 8,
								"slot": "2",
								"type": "t_bool"
							}
						],
						"numberOfBytes": "96"
					},
					"t_uint128": {
						"encoding": "inplace",
						"label": "uint128",
						"numberOfBytes": "16"
					},
					"t_uint16": {
						"encoding": "inplace",
						"label": "uint16",
						"numberOfBytes": "2"
					},
					"t_uint256": {
						"encoding": "inplace",
						"label": "uint256",
						"numberOfBytes": "32"
					},
					"t_uint64": {
						"encoding": "inplace",
						"label": "uint64",
						"numberOfBytes": "8"
					},
					"t_uint8": {
						"encoding": "inplace",
						"label": "uint8",
						"numberOfBytes": "1"
					}
				}
			},
			"userdoc": {
				"kind": "user",
				"methods": {},
				"version": 1
			}
		}
	}
}