{
	"simpleSttorage.sol": {
		"SimpleStroge": {
			"abi": [
				{
					"inputs": [
						{
							"internalType": "address",
							"name": "_forwarder",
							"type": "address"
						}
					],
					"stateMutability": "nonpayable",
					"type": "constructor"
				},
				{
					"inputs": [
						{
							"internalType": "address",
							"name": "received",
							"type": "address"
						},
						{
							"internalType": "address",
							"name": "expected",
							"type": "address"
						}
					],
					"name": "InvalidAuthor",
					"type": "error"
				},
				{
					"inputs": [],
					"name": "InvalidForwarderAddress",
					"type": "error"
				},
				{
					"inputs": [
						{
							"internalType": "address",
							"name": "sender",
							"type": "address"
						},
						{
							"internalType": "address",
							"name": "expected",
							"type": "address"
						}
					],
					"name": "InvalidSender",
					"type": "error"
				},
				{
					"inputs": [
						{
							"internalType": "bytes32",
							"name": "received",
							"type": "bytes32"
						},
						{
							"internalType": "bytes32",
							"name": "expected",
							"type": "bytes32"
						}
					],
					"name": "InvalidWorkflowId",
					"type": "error"
				},
				{
					"inputs": [
						{
							"internalType": "bytes10",
							"name": "received",
							"type": "bytes10"
						},
						{
							"internalType": "bytes10",
							"name": "expected",
							"type": "bytes10"
						}
					],
					"name": "InvalidWorkflowName",
					"type": "error"
				},
				{
					"inputs": [
						{
							"internalType": "address",
							"name": "owner",
							"type": "address"
						}
					],
					"name": "OwnableInvalidOwner",
					"type": "error"
				},
				{
					"inputs": [
						{
							"internalType": "address",
							"name": "account",
							"type": "address"
						}
					],
					"name": "OwnableUnauthorizedAccount",
					"type": "error"
				},
				{
					"inputs": [],
					"name": "WorkflowNameRequiresAuthorValidation",
					"type": "error"
				},
				{
					"anonymous": false,
					"inputs": [
						{
							"indexed": true,
							"internalType": "address",
							"name": "previousAuthor",
							"type": "address"
						},
						{
							"indexed": true,
							"internalType": "address",
							"name": "newAuthor",
							"type": "address"
						}
					],
					"name": "ExpectedAuthorUpdated",
					"type": "event"
				},
				{
					"anonymous": false,
					"inputs": [
						{
							"indexed": true,
							"internalType": "bytes32",
							"name": "previousId",
							"type": "bytes32"
						},
						{
							"indexed": true,
							"internalType": "bytes32",
							"name": "newId",
							"type": "bytes32"
						}
					],
					"name": "ExpectedWorkflowIdUpdated",
					"type": "event"
				},
				{
					"anonymous": false,
					"inputs": [
						{
							"indexed": true,
							"internalType": "bytes10",
							"name": "previousName",
							"type": "bytes10"
						},
						{
							"indexed": true,
							"internalType": "bytes10",
							"name": "newName",
							"type": "bytes10"
						}
					],
					"name": "ExpectedWorkflowNameUpdated",
					"type": "event"
				},
				{
					"anonymous": false,
					"inputs": [
						{
							"indexed": true,
							"internalType": "address",
							"name": "previousForwarder",
							"type": "address"
						},
						{
							"indexed": true,
							"internalType": "address",
							"name": "newForwarder",
							"type": "address"
						}
					],
					"name": "ForwarderAddressUpdated",
					"type": "event"
				},
				{
					"anonymous": false,
					"inputs": [
						{
							"indexed": true,
							"internalType": "address",
							"name": "previousOwner",
							"type": "address"
						},
						{
							"indexed": true,
							"internalType": "address",
							"name": "newOwner",
							"type": "address"
						}
					],
					"name": "OwnershipTransferred",
					"type": "event"
				},
				{
					"anonymous": false,
					"inputs": [
						{
							"indexed": false,
							"internalType": "string",
							"name": "message",
							"type": "string"
						}
					],
					"name": "SecurityWarning",
					"type": "event"
				},
				{
					"inputs": [
						{
							"internalType": "string",
							"name": "_name",
							"type": "string"
						},
						{
							"internalType": "uint256",
							"name": "_favnum",
							"type": "uint256"
						}
					],
					"name": "addPersonNum",
					"outputs": [],
					"stateMutability": "nonpayable",
					"type": "function"
				},
				{
					"inputs": [],
					"name": "getExpectedAuthor",
					"outputs": [
						{
							"internalType": "address",
							"name": "",
							"type": "address"
						}
					],
					"stateMutability": "view",
					"type": "function"
				},
				{
					"inputs": [],
					"name": "getExpectedWorkflowId",
					"outputs": [
						{
							"internalType": "bytes32",
							"name": "",
							"type": "bytes32"
						}
					],
					"stateMutability": "view",
					"type": "function"
				},
				{
					"inputs": [],
					"name": "getExpectedWorkflowName",
					"outputs": [
						{
							"internalType": "bytes10",
							"name": "",
							"type": "bytes10"
						}
					],
					"stateMutability": "view",
					"type": "function"
				},
				{
					"inputs": [],
					"name": "getForwarderAddress",
					"outputs": [
						{
							"internalType": "address",
							"name": "",
							"type": "address"
						}
					],
					"stateMutability": "view",
					"type": "function"
				},
				{
					"inputs": [
						{
							"internalType": "string",
							"name": "",
							"type": "string"
						}
					],
					"name": "nameToFavNum",
					"outputs": [
						{
							"internalType": "uint256",
							"name": "",
							"type": "uint256"
						}
					],
					"stateMutability": "view",
					"type": "function"
				},
				{
					"inputs": [
						{
							"internalType": "bytes",
							"name": "metadata",
							"type": "bytes"
						},
						{
							"internalType": "bytes",
							"name": "report",
							"type": "bytes"
						}
					],
					"name": "onReport",
					"outputs": [],
					"stateMutability": "nonpayable",
					"type": "function"
				},
				{
					"inputs": [],
					"name": "owner",
					"outputs": [
						{
							"internalType": "address",
							"name": "",
							"type": "address"
						}
					],
					"stateMutability": "view",
					"type": "function"
				},
				{
					"inputs": [
						{
							"internalType": "uint256",
							"name": "",
							"type": "uint256"
						}
					],
					"name": "personList",
					"outputs": [
						{
							"internalType": "uint256",
							"name": "favnum",
							"type": "uint256"
						},
						{
							"internalType": "string",
							"name": "name",
							"type": "string"
						}
					],
					"stateMutability": "view",
					"type": "function"
				},
				{
					"inputs": [],
					"name": "renounceOwnership",
					"outputs": [],
					"stateMutability": "nonpayable",
					"type": "function"
				},
				{
					"inputs": [],
					"name": "retrive",
					"outputs": [
						{
							"internalType": "uint256",
							"name": "",
							"type": "uint256"
						}
					],
					"stateMutability": "view",
					"type": "function"
				},
				{
					"inputs": [],
					"name": "retrived",
					"outputs": [
						{
							"internalType": "uint256",
							"name": "",
							"type": "uint256"
						}
					],
					"stateMutability": "view",
					"type": "function"
				},
				{
					"inputs": [
						{
							"internalType": "address",
							"name": "_author",
							"type": "address"
						}
					],
					"name": "setExpectedAuthor",
					"outputs": [],
					"stateMutability": "nonpayable",
					"type": "function"
				},
				{
					"inputs": [
						{
							"internalType": "bytes32",
							"name": "_id",
							"type": "bytes32"
						}
					],
					"name": "setExpectedWorkflowId",
					"outputs": [],
					"stateMutability": "nonpayable",
					"type": "function"
				},
				{
					"inputs": [
						{
							"internalType": "string",
							"name": "_name",
							"type": "string"
						}
					],
					"name": "setExpectedWorkflowName",
					"outputs": [],
					"stateMutability": "nonpayable",
					"type": "function"
				},
				{
					"inputs": [
						{
							"internalType": "address",
							"name": "_forwarder",
							"type": "address"
						}
					],
					"name": "setForwarderAddress",
					"outputs": [],
					"stateMutability": "nonpayable",
					"type": "function"
				},
				{
					"inputs": [
						{
							"internalType": "uint256",
							"name": "_favnum",
							"type": "uint256"
						}
					],
					"name": "store",
					"outputs": [],
					"stateMutability": "nonpayable",
					"type": "function"
				},
				{
					"inputs": [
						{
							"internalType": "bytes4",
							"name": "interfaceId",
							"type": "bytes4"
						}
					],
					"name": "supportsInterface",
					"outputs": [
						{
							"internalType": "bool",
							"name": "",
							"type": "bool"
						}
					],
					"stateMutability": "pure",
					"type": "function"
				},
				{
					"inputs": [
						{
							"internalType": "address",
							"name": "newOwner",
							"type": "address"
						}
					],
					"name": "transferOwnership",
					"outputs": [],
					"stateMutability": "nonpayable",
					"type": "function"
				}
			],
			"devdoc": {
				"errors": {
					"OwnableInvalidOwner(address)": [
						{
							"details": "The owner is not a valid owner account. (eg. `address(0)`)"
						}
					],
					"OwnableUnauthorizedAccount(address)": [
						{
							"details": "The caller account is not authorized to perform an operation."
						}
					]
				},
				"kind": "dev",
				"methods": {
					"getExpectedAuthor()": {
						"returns": {
							"_0": "The expected author address (address(0) if not set)"
						}
					},
					"getExpectedWorkflowId()": {
						"returns": {
							"_0": "The expected workflow ID (bytes32(0) if not set)"
						}
					},
					"getExpectedWorkflowName()": {
						"returns": {
							"_0": "The expected workflow name (bytes10(0) if not set)"
						}
					},
					"getForwarderAddress()": {
						"returns": {
							"_0": "The forwarder address (address(0) if disabled)"
						}
					},
					"onReport(bytes,bytes)": {
						"details": "Performs optional validation checks based on which permission fields are set",
						"params": {
							"metadata": "Report's metadata.",
							"report": "Workflow report."
						}
					},
					"owner()": {
						"details": "Returns the address of the current owner."
					},
					"renounceOwnership()": {
						"details": "Leaves the contract without owner. It will not be possible to call `onlyOwner` functions. Can only be called by the current owner. NOTE: Renouncing ownership will leave the contract without an owner, thereby disabling any functionality that is only available to the owner."
					},
					"setExpectedAuthor(address)": {
						"params": {
							"_author": "The new expected author address (use address(0) to disable this check)"
						}
					},
					"setExpectedWorkflowId(bytes32)": {
						"params": {
							"_id": "The new expected workflow ID (use bytes32(0) to disable this check)"
						}
					},
					"setExpectedWorkflowName(string)": {
						"details": "IMPORTANT: Workflow name validation REQUIRES author validation to be enabled.      The workflow name uses only 40-bit truncation, making collision attacks feasible      when used alone. However, since workflow names are unique per owner, validating      both the name AND the author address provides adequate security.      You must call setExpectedAuthor() before or after calling this function.      The name is hashed using SHA256 and truncated to bytes10.",
						"params": {
							"_name": "The workflow name as a string (use empty string \"\" to disable this check)"
						}
					},
					"setForwarderAddress(address)": {
						"details": "WARNING: Setting to address(0) disables forwarder validation.      This makes your contract INSECURE - anyone can call onReport() with arbitrary data.      Only use address(0) if you fully understand the security implications.",
						"params": {
							"_forwarder": "The new forwarder address"
						}
					},
					"supportsInterface(bytes4)": {
						"details": "Returns true if this contract implements the interface defined by `interfaceId`. See the corresponding https://eips.ethereum.org/EIPS/eip-165#how-interfaces-are-identified[ERC section] to learn more about how these ids are created. This function call must use less than 30 000 gas."
					},
					"transferOwnership(address)": {
						"details": "Transfers ownership of the contract to a new account (`newOwner`). Can only be called by the current owner."
					}
				},
				"version": 1
			},
			"evm": {
				"assembly": "    /* \"simpleSttorage.sol\":110:1931  contract SimpleStroge is  ReceiverTemplate{... */\n  mstore(0x40, 0x80)\n    /* \"simpleSttorage.sol\":160:223  constructor(address _forwarder)ReceiverTemplate(_forwarder){... */\n  callvalue\n  dup1\n  iszero\n  tag_1\n  jumpi\n  revert(0x00, 0x00)\ntag_1:\n  pop\n  mload(0x40)\n  sub(codesize, bytecodeSize)\n  dup1\n  bytecodeSize\n  dup4\n  codecopy\n  dup2\n  dup2\n  add\n  0x40\n  mstore\n  dup2\n  add\n  swap1\n  tag_2\n  swap2\n  swap1\n  tag_3\n  jump\t// in\ntag_2:\n    /* \"simpleSttorage.sol\":208:218  _forwarder */\n  dup1\n    /* \"receiver.sol\":2397:2407  msg.sender */\n  caller\n    /* \"@openzeppelin/contracts/access/Ownable.sol\":1297:1298  0 */\n  0x00\n    /* \"@openzeppelin/contracts/access/Ownable.sol\":1273:1299  initialOwner == address(0) */\n  0xffffffffffffffffffffffffffffffffffffffff\n  and\n    /* \"@openzeppelin/contracts/access/Ownable.sol\":1273:1285  initialOwner */\n  dup2\n    /* \"@openzeppelin/contracts/access/Ownable.sol\":1273:1299  initialOwner == address(0) */\n  0xffffffffffffffffffffffffffffffffffffffff\n  and\n  sub\n    /* \"@openzeppelin/contracts/access/Ownable.sol\":1269:1364  if (initialOwner == address(0)) {... */\n  tag_8\n  jumpi\n    /* \"@openzeppelin/contracts/access/Ownable.sol\":1350:1351  0 */\n  0x00\n    /* \"@openzeppelin/contracts/access/Ownable.sol\":1322:1353  OwnableInvalidOwner(address(0)) */\n  mload(0x40)\n  0x1e4fbdf700000000000000000000000000000000000000000000000000000000\n  dup2\n  mstore\n  0x04\n  add\n  tag_9\n  swap2\n  swap1\n  tag_10\n  jump\t// in\ntag_9:\n  mload(0x40)\n  dup1\n  swap2\n  sub\n  swap1\n  revert\n    /* \"@openzeppelin/contracts/access/Ownable.sol\":1269:1364  if (initialOwner == address(0)) {... */\ntag_8:\n    /* \"@openzeppelin/contracts/access/Ownable.sol\":1373:1405  _transferOwnership(initialOwner) */\n  tag_11\n    /* \"@openzeppelin/contracts/access/Ownable.sol\":1392:1404  initialOwner */\n  dup2\n    /* \"@openzeppelin/contracts/access/Ownable.sol\":1373:1391  _transferOwnership */\n  shl(0x20, tag_12)\n    /* \"@openzeppelin/contracts/access/Ownable.sol\":1373:1405  _transferOwnership(initialOwner) */\n  0x20\n  shr\n  jump\t// in\ntag_11:\n    /* \"@openzeppelin/contracts/access/Ownable.sol\":1225:1412  constructor(address initialOwner) {... */\n  pop\n    /* \"receiver.sol\":2452:2453  0 */\n  0x00\n    /* \"receiver.sol\":2423:2454  _forwarderAddress == address(0) */\n  0xffffffffffffffffffffffffffffffffffffffff\n  and\n    /* \"receiver.sol\":2423:2440  _forwarderAddress */\n  dup2\n    /* \"receiver.sol\":2423:2454  _forwarderAddress == address(0) */\n  0xffffffffffffffffffffffffffffffffffffffff\n  and\n  sub\n    /* \"receiver.sol\":2419:2513  if (_forwarderAddress == address(0)) {... */\n  tag_14\n  jumpi\n    /* \"receiver.sol\":2477:2502  InvalidForwarderAddress() */\n  mload(0x40)\n  0x381dd54000000000000000000000000000000000000000000000000000000000\n  dup2\n  mstore\n  0x04\n  add\n  mload(0x40)\n  dup1\n  swap2\n  sub\n  swap1\n  revert\n    /* \"receiver.sol\":2419:2513  if (_forwarderAddress == address(0)) {... */\ntag_14:\n    /* \"receiver.sol\":2543:2560  _forwarderAddress */\n  dup1\n    /* \"receiver.sol\":2522:2540  s_forwarderAddress */\n  0x01\n  0x00\n    /* \"receiver.sol\":2522:2560  s_forwarderAddress = _forwarderAddress */\n  0x0100\n  exp\n  dup2\n  sload\n  dup2\n  0xffffffffffffffffffffffffffffffffffffffff\n  mul\n  not\n  and\n  swap1\n  dup4\n  0xffffffffffffffffffffffffffffffffffffffff\n  and\n  mul\n  or\n  swap1\n  sstore\n  pop\n    /* \"receiver.sol\":2611:2628  _forwarderAddress */\n  dup1\n    /* \"receiver.sol\":2575:2629  ForwarderAddressUpdated(address(0), _forwarderAddress) */\n  0xffffffffffffffffffffffffffffffffffffffff\n  and\n    /* \"receiver.sol\":2607:2608  0 */\n  0x00\n    /* \"receiver.sol\":2575:2629  ForwarderAddressUpdated(address(0), _forwarderAddress) */\n  0xffffffffffffffffffffffffffffffffffffffff\n  and\n  0x039ad854736757070884dd787ef1a7f58db33546639d1f3efddcf4a33fb8997e\n  mload(0x40)\n  mload(0x40)\n  dup1\n  swap2\n  sub\n  swap1\n  log3\n    /* \"receiver.sol\":2350:2636  constructor(address _forwarderAddress) Ownable(msg.sender) {... */\n  pop\n    /* \"simpleSttorage.sol\":160:223  constructor(address _forwarder)ReceiverTemplate(_forwarder){... */\n  pop\n    /* \"simpleSttorage.sol\":110:1931  contract SimpleStroge is  ReceiverTemplate{... */\n  jump(tag_16)\n    /* \"@openzeppelin/contracts/access/Ownable.sol\":2912:3099  function _transferOwnership(address newOwner) internal virtual {... */\ntag_12:\n    /* \"@openzeppelin/contracts/access/Ownable.sol\":2985:3001  address oldOwner */\n  0x00\n    /* \"@openzeppelin/contracts/access/Ownable.sol\":3004:3010  _owner */\n  0x00\n  0x00\n  swap1\n  sload\n  swap1\n  0x0100\n  exp\n  swap1\n  div\n  0xffffffffffffffffffffffffffffffffffffffff\n  and\n    /* \"@openzeppelin/contracts/access/Ownable.sol\":2985:3010  address oldOwner = _owner */\n  swap1\n  pop\n    /* \"@openzeppelin/contracts/access/Ownable.sol\":3029:3037  newOwner */\n  dup2\n    /* \"@openzeppelin/contracts/access/Ownable.sol\":3020:3026  _owner */\n  0x00\n  0x00\n    /* \"@openzeppelin/contracts/access/Ownable.sol\":3020:3037  _owner = newOwner */\n  0x0100\n  exp\n  dup2\n  sload\n  dup2\n  0xffffffffffffffffffffffffffffffffffffffff\n  mul\n  not\n  and\n  swap1\n  dup4\n  0xffffffffffffffffffffffffffffffffffffffff\n  and\n  mul\n  or\n  swap1\n  sstore\n  pop\n    /* \"@openzeppelin/contracts/access/Ownable.sol\":3083:3091  newOwner */\n  dup2\n    /* \"@openzeppelin/contracts/access/Ownable.sol\":3052:3092  OwnershipTransferred(oldOwner, newOwner) */\n  0xffffffffffffffffffffffffffffffffffffffff\n  and\n    /* \"@openzeppelin/contracts/access/Ownable.sol\":3073:3081  oldOwner */\n  dup2\n    /* \"@openzeppelin/contracts/access/Ownable.sol\":3052:3092  OwnershipTransferred(oldOwner, newOwner) */\n  0xffffffffffffffffffffffffffffffffffffffff\n  and\n  0x8be0079c531659141344cd1fd0a4f28419497f9722a3daafe3b4186f6b6457e0\n  mload(0x40)\n  mload(0x40)\n  dup1\n  swap2\n  sub\n  swap1\n  log3\n    /* \"@openzeppelin/contracts/access/Ownable.sol\":2975:3099  {... */\n  pop\n    /* \"@openzeppelin/contracts/access/Ownable.sol\":2912:3099  function _transferOwnership(address newOwner) internal virtual {... */\n  pop\n  jump\t// out\n    /* \"#utility.yul\":88:205   */\ntag_19:\n    /* \"#utility.yul\":197:198   */\n  0x00\n    /* \"#utility.yul\":194:195   */\n  0x00\n    /* \"#utility.yul\":187:199   */\n  revert\n    /* \"#utility.yul\":334:460   */\ntag_21:\n    /* \"#utility.yul\":371:378   */\n  0x00\n    /* \"#utility.yul\":411:453   */\n  0xffffffffffffffffffffffffffffffffffffffff\n    /* \"#utility.yul\":404:409   */\n  dup3\n    /* \"#utility.yul\":400:454   */\n  and\n    /* \"#utility.yul\":389:454   */\n  swap1\n  pop\n    /* \"#utility.yul\":334:460   */\n  swap2\n  swap1\n  pop\n  jump\t// out\n    /* \"#utility.yul\":466:562   */\ntag_22:\n    /* \"#utility.yul\":503:510   */\n  0x00\n    /* \"#utility.yul\":532:556   */\n  tag_32\n    /* \"#utility.yul\":550:555   */\n  dup3\n    /* \"#utility.yul\":532:556   */\n  tag_21\n  jump\t// in\ntag_32:\n    /* \"#utility.yul\":521:556   */\n  swap1\n  pop\n    /* \"#utility.yul\":466:562   */\n  swap2\n  swap1\n  pop\n  jump\t// out\n    /* \"#utility.yul\":568:690   */\ntag_23:\n    /* \"#utility.yul\":641:665   */\n  tag_34\n    /* \"#utility.yul\":659:664   */\n  dup2\n    /* \"#utility.yul\":641:665   */\n  tag_22\n  jump\t// in\ntag_34:\n    /* \"#utility.yul\":634:639   */\n  dup2\n    /* \"#utility.yul\":631:666   */\n  eq\n    /* \"#utility.yul\":621:684   */\n  tag_35\n  jumpi\n    /* \"#utility.yul\":680:681   */\n  0x00\n    /* \"#utility.yul\":677:678   */\n  0x00\n    /* \"#utility.yul\":670:682   */\n  revert\n    /* \"#utility.yul\":621:684   */\ntag_35:\n    /* \"#utility.yul\":568:690   */\n  pop\n  jump\t// out\n    /* \"#utility.yul\":696:839   */\ntag_24:\n    /* \"#utility.yul\":753:758   */\n  0x00\n    /* \"#utility.yul\":784:790   */\n  dup2\n    /* \"#utility.yul\":778:791   */\n  mload\n    /* \"#utility.yul\":769:791   */\n  swap1\n  pop\n    /* \"#utility.yul\":800:833   */\n  tag_37\n    /* \"#utility.yul\":827:832   */\n  dup2\n    /* \"#utility.yul\":800:833   */\n  tag_23\n  jump\t// in\ntag_37:\n    /* \"#utility.yul\":696:839   */\n  swap3\n  swap2\n  pop\n  pop\n  jump\t// out\n    /* \"#utility.yul\":845:1196   */\ntag_3:\n    /* \"#utility.yul\":915:921   */\n  0x00\n    /* \"#utility.yul\":964:966   */\n  0x20\n    /* \"#utility.yul\":952:961   */\n  dup3\n    /* \"#utility.yul\":943:950   */\n  dup5\n    /* \"#utility.yul\":939:962   */\n  sub\n    /* \"#utility.yul\":935:967   */\n  slt\n    /* \"#utility.yul\":932:1051   */\n  iszero\n  tag_39\n  jumpi\n    /* \"#utility.yul\":970:1049   */\n  tag_40\n  tag_19\n  jump\t// in\ntag_40:\n    /* \"#utility.yul\":932:1051   */\ntag_39:\n    /* \"#utility.yul\":1090:1091   */\n  0x00\n    /* \"#utility.yul\":1115:1179   */\n  tag_41\n    /* \"#utility.yul\":1171:1178   */\n  dup5\n    /* \"#utility.yul\":1162:1168   */\n  dup3\n    /* \"#utility.yul\":1151:1160   */\n  dup6\n    /* \"#utility.yul\":1147:1169   */\n  add\n    /* \"#utility.yul\":1115:1179   */\n  tag_24\n  jump\t// in\ntag_41:\n    /* \"#utility.yul\":1105:1179   */\n  swap2\n  pop\n    /* \"#utility.yul\":1061:1189   */\n  pop\n    /* \"#utility.yul\":845:1196   */\n  swap3\n  swap2\n  pop\n  pop\n  jump\t// out\n    /* \"#utility.yul\":1202:1320   */\ntag_25:\n    /* \"#utility.yul\":1289:1313   */\n  tag_43\n    /* \"#utility.yul\":1307:1312   */\n  dup2\n    /* \"#utility.yul\":1289:1313   */\n  tag_22\n  jump\t// in\ntag_43:\n    /* \"#utility.yul\":1284:1287   */\n  dup3\n    /* \"#utility.yul\":1277:1314   */\n  mstore\n    /* \"#utility.yul\":1202:1320   */\n  pop\n  pop\n  jump\t// out\n    /* \"#utility.yul\":1326:1548   */\ntag_10:\n    /* \"#utility.yul\":1419:1423   */\n  0x00\n    /* \"#utility.yul\":1457:1459   */\n  0x20\n    /* \"#utility.yul\":1446:1455   */\n  dup3\n    /* \"#utility.yul\":1442:1460   */\n  add\n    /* \"#utility.yul\":1434:1460   */\n  swap1\n  pop\n    /* \"#utility.yul\":1470:1541   */\n  tag_45\n    /* \"#utility.yul\":1538:1539   */\n  0x00\n    /* \"#utility.yul\":1527:1536   */\n  dup4\n    /* \"#utility.yul\":1523:1540   */\n  add\n    /* \"#utility.yul\":1514:1520   */\n  dup5\n    /* \"#utility.yul\":1470:1541   */\n  tag_25\n  jump\t// in\ntag_45:\n    /* \"#utility.yul\":1326:1548   */\n  swap3\n  swap2\n  pop\n  pop\n  jump\t// out\n    /* \"simpleSttorage.sol\":110:1931  contract SimpleStroge is  ReceiverTemplate{... */\ntag_16:\n  dataSize(sub_0)\n  dup1\n  dataOffset(sub_0)\n  0x00\n  codecopy\n  0x00\n  return\nstop\n\nsub_0: assembly {\n        /* \"simpleSttorage.sol\":110:1931  contract SimpleStroge is  ReceiverTemplate{... */\n      mstore(0x40, 0x80)\n      callvalue\n      dup1\n      iszero\n      tag_1\n      jumpi\n      revert(0x00, 0x00)\n    tag_1:\n      pop\n      jumpi(tag_2, lt(calldatasize, 0x04))\n      shr(0xe0, calldataload(0x00))\n      dup1\n      0x8da5cb5b\n      gt\n      tag_22\n      jumpi\n      dup1\n      0xd60c884b\n      gt\n      tag_23\n      jumpi\n      dup1\n      0xd60c884b\n      eq\n      tag_17\n      jumpi\n      dup1\n      0xd777cc6d\n      eq\n      tag_18\n      jumpi\n      dup1\n      0xf2093350\n      eq\n      tag_19\n      jumpi\n      dup1\n      0xf2fde38b\n      eq\n      tag_20\n      jumpi\n      dup1\n      0xf5c793ef\n      eq\n      tag_21\n      jumpi\n      jump(tag_2)\n    tag_23:\n      dup1\n      0x8da5cb5b\n      eq\n      tag_12\n      jumpi\n      dup1\n      0xa619d818\n      eq\n      tag_13\n      jumpi\n      dup1\n      0xa6b7fc5b\n      eq\n      tag_14\n      jumpi\n      dup1\n      0xbc1fc27a\n      eq\n      tag_15\n      jumpi\n      dup1\n      0xc3c44ac2\n      eq\n      tag_16\n      jumpi\n      jump(tag_2)\n    tag_22:\n      dup1\n      0x3441856f\n      gt\n      tag_24\n      jumpi\n      dup1\n      0x3441856f\n      eq\n      tag_7\n      jumpi\n      dup1\n      0x6057361d\n      eq\n      tag_8\n      jumpi\n      dup1\n      0x6b44374d\n      eq\n      tag_9\n      jumpi\n      dup1\n      0x715018a6\n      eq\n      tag_10\n      jumpi\n      dup1\n      0x805f2132\n      eq\n      tag_11\n      jumpi\n      jump(tag_2)\n    tag_24:\n      dup1\n      0x01ffc9a7\n      eq\n      tag_3\n      jumpi\n      dup1\n      0x06c62c2c\n      eq\n      tag_4\n      jumpi\n      dup1\n      0x27422150\n      eq\n      tag_5\n      jumpi\n      dup1\n      0x3397cf67\n      eq\n      tag_6\n      jumpi\n    tag_2:\n      revert(0x00, 0x00)\n        /* \"receiver.sol\":11165:11366  function supportsInterface(bytes4 interfaceId) public pure virtual override returns (bool) {... */\n    tag_3:\n      tag_25\n      0x04\n      dup1\n      calldatasize\n      sub\n      dup2\n      add\n      swap1\n      tag_26\n      swap2\n      swap1\n      tag_27\n      jump\t// in\n    tag_26:\n      tag_28\n      jump\t// in\n    tag_25:\n      mload(0x40)\n      tag_29\n      swap2\n      swap1\n      tag_30\n      jump\t// in\n    tag_29:\n      mload(0x40)\n      dup1\n      swap2\n      sub\n      swap1\n      return\n        /* \"simpleSttorage.sol\":606:652  mapping(string => uint256) public nameToFavNum */\n    tag_4:\n      tag_31\n      0x04\n      dup1\n      calldatasize\n      sub\n      dup2\n      add\n      swap1\n      tag_32\n      swap2\n      swap1\n      tag_33\n      jump\t// in\n    tag_32:\n      tag_34\n      jump\t// in\n    tag_31:\n      mload(0x40)\n      tag_35\n      swap2\n      swap1\n      tag_36\n      jump\t// in\n    tag_35:\n      mload(0x40)\n      dup1\n      swap2\n      sub\n      swap1\n      return\n        /* \"simpleSttorage.sol\":859:1166  function addPersonNum(string memory _name, uint256 _favnum) public  {... */\n    tag_5:\n      tag_37\n      0x04\n      dup1\n      calldatasize\n      sub\n      dup2\n      add\n      swap1\n      tag_38\n      swap2\n      swap1\n      tag_39\n      jump\t// in\n    tag_38:\n      tag_40\n      jump\t// in\n    tag_37:\n      stop\n        /* \"receiver.sol\":3002:3103  function getExpectedAuthor() external view returns (address) {... */\n    tag_6:\n      tag_41\n      tag_42\n      jump\t// in\n    tag_41:\n      mload(0x40)\n      tag_43\n      swap2\n      swap1\n      tag_44\n      jump\t// in\n    tag_43:\n      mload(0x40)\n      dup1\n      swap2\n      sub\n      swap1\n      return\n        /* \"receiver.sol\":2762:2867  function getForwarderAddress() external view returns (address) {... */\n    tag_7:\n      tag_45\n      tag_46\n      jump\t// in\n    tag_45:\n      mload(0x40)\n      tag_47\n      swap2\n      swap1\n      tag_44\n      jump\t// in\n    tag_47:\n      mload(0x40)\n      dup1\n      swap2\n      sub\n      swap1\n      return\n        /* \"simpleSttorage.sol\":1531:1609  function store(uint256 _favnum) public virtual {  ... */\n    tag_8:\n      tag_48\n      0x04\n      dup1\n      calldatasize\n      sub\n      dup2\n      add\n      swap1\n      tag_49\n      swap2\n      swap1\n      tag_50\n      jump\t// in\n    tag_49:\n      tag_51\n      jump\t// in\n    tag_48:\n      stop\n        /* \"simpleSttorage.sol\":437:463  Person[] public personList */\n    tag_9:\n      tag_52\n      0x04\n      dup1\n      calldatasize\n      sub\n      dup2\n      add\n      swap1\n      tag_53\n      swap2\n      swap1\n      tag_50\n      jump\t// in\n    tag_53:\n      tag_54\n      jump\t// in\n    tag_52:\n      mload(0x40)\n      tag_55\n      swap3\n      swap2\n      swap1\n      tag_56\n      jump\t// in\n    tag_55:\n      mload(0x40)\n      dup1\n      swap2\n      sub\n      swap1\n      return\n        /* \"@openzeppelin/contracts/access/Ownable.sol\":2293:2394  function renounceOwnership() public virtual onlyOwner {... */\n    tag_10:\n      tag_57\n      tag_58\n      jump\t// in\n    tag_57:\n      stop\n        /* \"receiver.sol\":3695:6034  function onReport(bytes calldata metadata, bytes calldata report) external override {... */\n    tag_11:\n      tag_59\n      0x04\n      dup1\n      calldatasize\n      sub\n      dup2\n      add\n      swap1\n      tag_60\n      swap2\n      swap1\n      tag_61\n      jump\t// in\n    tag_60:\n      tag_62\n      jump\t// in\n    tag_59:\n      stop\n        /* \"@openzeppelin/contracts/access/Ownable.sol\":1638:1723  function owner() public view virtual returns (address) {... */\n    tag_12:\n      tag_63\n      tag_64\n      jump\t// in\n    tag_63:\n      mload(0x40)\n      tag_65\n      swap2\n      swap1\n      tag_44\n      jump\t// in\n    tag_65:\n      mload(0x40)\n      dup1\n      swap2\n      sub\n      swap1\n      return\n        /* \"receiver.sol\":3227:3340  function getExpectedWorkflowName() external view returns (bytes10) {... */\n    tag_13:\n      tag_66\n      tag_67\n      jump\t// in\n    tag_66:\n      mload(0x40)\n      tag_68\n      swap2\n      swap1\n      tag_69\n      jump\t// in\n    tag_68:\n      mload(0x40)\n      dup1\n      swap2\n      sub\n      swap1\n      return\n        /* \"simpleSttorage.sol\":1773:1846  function retrive() public  view returns(uint256){... */\n    tag_14:\n      tag_70\n      tag_71\n      jump\t// in\n    tag_70:\n      mload(0x40)\n      tag_72\n      swap2\n      swap1\n      tag_36\n      jump\t// in\n    tag_72:\n      mload(0x40)\n      dup1\n      swap2\n      sub\n      swap1\n      return\n        /* \"receiver.sol\":7934:8788  function setExpectedWorkflowName(string calldata _name) external onlyOwner {... */\n    tag_15:\n      tag_73\n      0x04\n      dup1\n      calldatasize\n      sub\n      dup2\n      add\n      swap1\n      tag_74\n      swap2\n      swap1\n      tag_75\n      jump\t// in\n    tag_74:\n      tag_76\n      jump\t// in\n    tag_73:\n      stop\n        /* \"receiver.sol\":8930:9144  function setExpectedWorkflowId(bytes32 _id) external onlyOwner {... */\n    tag_16:\n      tag_77\n      0x04\n      dup1\n      calldatasize\n      sub\n      dup2\n      add\n      swap1\n      tag_78\n      swap2\n      swap1\n      tag_79\n      jump\t// in\n    tag_78:\n      tag_80\n      jump\t// in\n    tag_77:\n      stop\n        /* \"receiver.sol\":7027:7245  function setExpectedAuthor(address _author) external onlyOwner {... */\n    tag_17:\n      tag_81\n      0x04\n      dup1\n      calldatasize\n      sub\n      dup2\n      add\n      swap1\n      tag_82\n      swap2\n      swap1\n      tag_83\n      jump\t// in\n    tag_82:\n      tag_84\n      jump\t// in\n    tag_81:\n      stop\n        /* \"receiver.sol\":6427:6867  function setForwarderAddress(address _forwarder) external onlyOwner {... */\n    tag_18:\n      tag_85\n      0x04\n      dup1\n      calldatasize\n      sub\n      dup2\n      add\n      swap1\n      tag_86\n      swap2\n      swap1\n      tag_83\n      jump\t// in\n    tag_86:\n      tag_87\n      jump\t// in\n    tag_85:\n      stop\n        /* \"simpleSttorage.sol\":1850:1925  function retrived() public  view  returns(uint256){... */\n    tag_19:\n      tag_88\n      tag_89\n      jump\t// in\n    tag_88:\n      mload(0x40)\n      tag_90\n      swap2\n      swap1\n      tag_36\n      jump\t// in\n    tag_90:\n      mload(0x40)\n      dup1\n      swap2\n      sub\n      swap1\n      return\n        /* \"@openzeppelin/contracts/access/Ownable.sol\":2543:2758  function transferOwnership(address newOwner) public virtual onlyOwner {... */\n    tag_20:\n      tag_91\n      0x04\n      dup1\n      calldatasize\n      sub\n      dup2\n      add\n      swap1\n      tag_92\n      swap2\n      swap1\n      tag_83\n      jump\t// in\n    tag_92:\n      tag_93\n      jump\t// in\n    tag_91:\n      stop\n        /* \"receiver.sol\":3460:3569  function getExpectedWorkflowId() external view returns (bytes32) {... */\n    tag_21:\n      tag_94\n      tag_95\n      jump\t// in\n    tag_94:\n      mload(0x40)\n      tag_96\n      swap2\n      swap1\n      tag_97\n      jump\t// in\n    tag_96:\n      mload(0x40)\n      dup1\n      swap2\n      sub\n      swap1\n      return\n        /* \"receiver.sol\":11165:11366  function supportsInterface(bytes4 interfaceId) public pure virtual override returns (bool) {... */\n    tag_28:\n        /* \"receiver.sol\":11250:11254  bool */\n      0x00\n        /* \"receiver.sol\":11288:11315  type(IReceiver).interfaceId */\n      0x805f213200000000000000000000000000000000000000000000000000000000\n        /* \"receiver.sol\":11273:11315  interfaceId == type(IReceiver).interfaceId */\n      not(0xffffffffffffffffffffffffffffffffffffffffffffffffffffffff)\n      and\n        /* \"receiver.sol\":11273:11284  interfaceId */\n      dup3\n        /* \"receiver.sol\":11273:11315  interfaceId == type(IReceiver).interfaceId */\n      not(0xffffffffffffffffffffffffffffffffffffffffffffffffffffffff)\n      and\n      eq\n        /* \"receiver.sol\":11273:11359  interfaceId == type(IReceiver).interfaceId || interfaceId == type(IERC165).interfaceId */\n      dup1\n      tag_99\n      jumpi\n      pop\n        /* \"receiver.sol\":11334:11359  type(IERC165).interfaceId */\n      0x01ffc9a700000000000000000000000000000000000000000000000000000000\n        /* \"receiver.sol\":11319:11359  interfaceId == type(IERC165).interfaceId */\n      not(0xffffffffffffffffffffffffffffffffffffffffffffffffffffffff)\n      and\n        /* \"receiver.sol\":11319:11330  interfaceId */\n      dup3\n        /* \"receiver.sol\":11319:11359  interfaceId == type(IERC165).interfaceId */\n      not(0xffffffffffffffffffffffffffffffffffffffffffffffffffffffff)\n      and\n      eq\n        /* \"receiver.sol\":11273:11359  interfaceId == type(IReceiver).interfaceId || interfaceId == type(IERC165).interfaceId */\n    tag_99:\n        /* \"receiver.sol\":11266:11359  return interfaceId == type(IReceiver).interfaceId || interfaceId == type(IERC165).interfaceId */\n      swap1\n      pop\n        /* \"receiver.sol\":11165:11366  function supportsInterface(bytes4 interfaceId) public pure virtual override returns (bool) {... */\n      swap2\n      swap1\n      pop\n      jump\t// out\n        /* \"simpleSttorage.sol\":606:652  mapping(string => uint256) public nameToFavNum */\n    tag_34:\n      0x06\n      dup2\n      dup1\n      mload\n      0x20\n      dup2\n      add\n      dup3\n      add\n      dup1\n      mload\n      dup5\n      dup3\n      mstore\n      0x20\n      dup4\n      add\n      0x20\n      dup6\n      add\n      keccak256\n      dup2\n      dup4\n      mstore\n      dup1\n      swap6\n      pop\n      pop\n      pop\n      pop\n      pop\n      pop\n      0x00\n      swap2\n      pop\n      swap1\n      pop\n      sload\n      dup2\n      jump\t// out\n        /* \"simpleSttorage.sol\":859:1166  function addPersonNum(string memory _name, uint256 _favnum) public  {... */\n    tag_40:\n        /* \"simpleSttorage.sol\":1020:1027  _favnum */\n      dup1\n        /* \"simpleSttorage.sol\":998:1010  nameToFavNum */\n      0x06\n        /* \"simpleSttorage.sol\":1011:1016  _name */\n      dup4\n        /* \"simpleSttorage.sol\":998:1017  nameToFavNum[_name] */\n      mload(0x40)\n      tag_101\n      swap2\n      swap1\n      tag_102\n      jump\t// in\n    tag_101:\n      swap1\n      dup2\n      mstore\n      0x20\n      add\n      mload(0x40)\n      dup1\n      swap2\n      sub\n      swap1\n      keccak256\n        /* \"simpleSttorage.sol\":998:1027  nameToFavNum[_name] = _favnum */\n      dup2\n      swap1\n      sstore\n      pop\n        /* \"simpleSttorage.sol\":1032:1053  Person  memory favnum */\n      0x00\n        /* \"simpleSttorage.sol\":1056:1094  Person({name: _name, favnum: _favnum}) */\n      mload(0x40)\n      dup1\n      0x40\n      add\n      0x40\n      mstore\n      dup1\n        /* \"simpleSttorage.sol\":1085:1092  _favnum */\n      dup4\n        /* \"simpleSttorage.sol\":1056:1094  Person({name: _name, favnum: _favnum}) */\n      dup2\n      mstore\n      0x20\n      add\n        /* \"simpleSttorage.sol\":1070:1075  _name */\n      dup5\n        /* \"simpleSttorage.sol\":1056:1094  Person({name: _name, favnum: _favnum}) */\n      dup2\n      mstore\n      pop\n        /* \"simpleSttorage.sol\":1032:1094  Person  memory favnum = Person({name: _name, favnum: _favnum}) */\n      swap1\n      pop\n        /* \"simpleSttorage.sol\":1139:1149  personList */\n      0x05\n        /* \"simpleSttorage.sol\":1155:1161  favnum */\n      dup2\n        /* \"simpleSttorage.sol\":1139:1162  personList.push(favnum) */\n      swap1\n      dup1\n      0x01\n      dup2\n      sload\n      add\n      dup1\n      dup3\n      sstore\n      dup1\n      swap2\n      pop\n      pop\n      0x01\n      swap1\n      sub\n      swap1\n      0x00\n      mstore\n      keccak256(0x00, 0x20)\n      swap1\n      0x02\n      mul\n      add\n      0x00\n      swap1\n      swap2\n      swap1\n      swap2\n      swap1\n      swap2\n      pop\n      0x00\n      dup3\n      add\n      mload\n      dup2\n      0x00\n      add\n      sstore\n      0x20\n      dup3\n      add\n      mload\n      dup2\n      0x01\n      add\n      swap1\n      dup2\n      tag_104\n      swap2\n      swap1\n      tag_105\n      jump\t// in\n    tag_104:\n      pop\n      pop\n      pop\n        /* \"simpleSttorage.sol\":927:1166  {... */\n      pop\n        /* \"simpleSttorage.sol\":859:1166  function addPersonNum(string memory _name, uint256 _favnum) public  {... */\n      pop\n      pop\n      jump\t// out\n        /* \"receiver.sol\":3002:3103  function getExpectedAuthor() external view returns (address) {... */\n    tag_42:\n        /* \"receiver.sol\":3054:3061  address */\n      0x00\n        /* \"receiver.sol\":3080:3096  s_expectedAuthor */\n      0x02\n      0x00\n      swap1\n      sload\n      swap1\n      0x0100\n      exp\n      swap1\n      div\n      0xffffffffffffffffffffffffffffffffffffffff\n      and\n        /* \"receiver.sol\":3073:3096  return s_expectedAuthor */\n      swap1\n      pop\n        /* \"receiver.sol\":3002:3103  function getExpectedAuthor() external view returns (address) {... */\n      swap1\n      jump\t// out\n        /* \"receiver.sol\":2762:2867  function getForwarderAddress() external view returns (address) {... */\n    tag_46:\n        /* \"receiver.sol\":2816:2823  address */\n      0x00\n        /* \"receiver.sol\":2842:2860  s_forwarderAddress */\n      0x01\n      0x00\n      swap1\n      sload\n      swap1\n      0x0100\n      exp\n      swap1\n      div\n      0xffffffffffffffffffffffffffffffffffffffff\n      and\n        /* \"receiver.sol\":2835:2860  return s_forwarderAddress */\n      swap1\n      pop\n        /* \"receiver.sol\":2762:2867  function getForwarderAddress() external view returns (address) {... */\n      swap1\n      jump\t// out\n        /* \"simpleSttorage.sol\":1531:1609  function store(uint256 _favnum) public virtual {  ... */\n    tag_51:\n        /* \"simpleSttorage.sol\":1599:1606  _favnum */\n      dup1\n        /* \"simpleSttorage.sol\":1587:1595  myfavnum */\n      0x04\n        /* \"simpleSttorage.sol\":1587:1606  myfavnum =  _favnum */\n      dup2\n      swap1\n      sstore\n      pop\n        /* \"simpleSttorage.sol\":1531:1609  function store(uint256 _favnum) public virtual {  ... */\n      pop\n      jump\t// out\n        /* \"simpleSttorage.sol\":437:463  Person[] public personList */\n    tag_54:\n      0x05\n      dup2\n      dup2\n      sload\n      dup2\n      lt\n      tag_109\n      jumpi\n      0x00\n      dup1\n      revert\n    tag_109:\n      swap1\n      0x00\n      mstore\n      keccak256(0x00, 0x20)\n      swap1\n      0x02\n      mul\n      add\n      0x00\n      swap2\n      pop\n      swap1\n      pop\n      dup1\n      0x00\n      add\n      sload\n      swap1\n      dup1\n      0x01\n      add\n      dup1\n      sload\n      tag_111\n      swap1\n      tag_112\n      jump\t// in\n    tag_111:\n      dup1\n      0x1f\n      add\n      0x20\n      dup1\n      swap2\n      div\n      mul\n      0x20\n      add\n      mload(0x40)\n      swap1\n      dup2\n      add\n      0x40\n      mstore\n      dup1\n      swap3\n      swap2\n      swap1\n      dup2\n      dup2\n      mstore\n      0x20\n      add\n      dup3\n      dup1\n      sload\n      tag_113\n      swap1\n      tag_112\n      jump\t// in\n    tag_113:\n      dup1\n      iszero\n      tag_114\n      jumpi\n      dup1\n      0x1f\n      lt\n      tag_115\n      jumpi\n      0x0100\n      dup1\n      dup4\n      sload\n      div\n      mul\n      dup4\n      mstore\n      swap2\n      0x20\n      add\n      swap2\n      jump(tag_114)\n    tag_115:\n      dup3\n      add\n      swap2\n      swap1\n      0x00\n      mstore\n      keccak256(0x00, 0x20)\n      swap1\n    tag_116:\n      dup2\n      sload\n      dup2\n      mstore\n      swap1\n      0x01\n      add\n      swap1\n      0x20\n      add\n      dup1\n      dup4\n      gt\n      tag_116\n      jumpi\n      dup3\n      swap1\n      sub\n      0x1f\n      and\n      dup3\n      add\n      swap2\n    tag_114:\n      pop\n      pop\n      pop\n      pop\n      pop\n      swap1\n      pop\n      dup3\n      jump\t// out\n        /* \"@openzeppelin/contracts/access/Ownable.sol\":2293:2394  function renounceOwnership() public virtual onlyOwner {... */\n    tag_58:\n        /* \"@openzeppelin/contracts/access/Ownable.sol\":1531:1544  _checkOwner() */\n      tag_118\n        /* \"@openzeppelin/contracts/access/Ownable.sol\":1531:1542  _checkOwner */\n      tag_119\n        /* \"@openzeppelin/contracts/access/Ownable.sol\":1531:1544  _checkOwner() */\n      jump\t// in\n    tag_118:\n        /* \"@openzeppelin/contracts/access/Ownable.sol\":2357:2387  _transferOwnership(address(0)) */\n      tag_121\n        /* \"@openzeppelin/contracts/access/Ownable.sol\":2384:2385  0 */\n      0x00\n        /* \"@openzeppelin/contracts/access/Ownable.sol\":2357:2375  _transferOwnership */\n      tag_122\n        /* \"@openzeppelin/contracts/access/Ownable.sol\":2357:2387  _transferOwnership(address(0)) */\n      jump\t// in\n    tag_121:\n        /* \"@openzeppelin/contracts/access/Ownable.sol\":2293:2394  function renounceOwnership() public virtual onlyOwner {... */\n      jump\t// out\n        /* \"receiver.sol\":3695:6034  function onReport(bytes calldata metadata, bytes calldata report) external override {... */\n    tag_62:\n        /* \"receiver.sol\":3917:3918  0 */\n      0x00\n        /* \"receiver.sol\":3887:3919  s_forwarderAddress != address(0) */\n      0xffffffffffffffffffffffffffffffffffffffff\n      and\n        /* \"receiver.sol\":3887:3905  s_forwarderAddress */\n      0x01\n      0x00\n      swap1\n      sload\n      swap1\n      0x0100\n      exp\n      swap1\n      div\n      0xffffffffffffffffffffffffffffffffffffffff\n      and\n        /* \"receiver.sol\":3887:3919  s_forwarderAddress != address(0) */\n      0xffffffffffffffffffffffffffffffffffffffff\n      and\n      eq\n      iszero\n        /* \"receiver.sol\":3887:3955  s_forwarderAddress != address(0) && msg.sender != s_forwarderAddress */\n      dup1\n      iszero\n      tag_124\n      jumpi\n      pop\n        /* \"receiver.sol\":3937:3955  s_forwarderAddress */\n      0x01\n      0x00\n      swap1\n      sload\n      swap1\n      0x0100\n      exp\n      swap1\n      div\n      0xffffffffffffffffffffffffffffffffffffffff\n      and\n        /* \"receiver.sol\":3923:3955  msg.sender != s_forwarderAddress */\n      0xffffffffffffffffffffffffffffffffffffffff\n      and\n        /* \"receiver.sol\":3923:3933  msg.sender */\n      caller\n        /* \"receiver.sol\":3923:3955  msg.sender != s_forwarderAddress */\n      0xffffffffffffffffffffffffffffffffffffffff\n      and\n      eq\n      iszero\n        /* \"receiver.sol\":3887:3955  s_forwarderAddress != address(0) && msg.sender != s_forwarderAddress */\n    tag_124:\n        /* \"receiver.sol\":3883:4034  if (s_forwarderAddress != address(0) && msg.sender != s_forwarderAddress) {... */\n      iszero\n      tag_125\n      jumpi\n        /* \"receiver.sol\":3992:4002  msg.sender */\n      caller\n        /* \"receiver.sol\":4004:4022  s_forwarderAddress */\n      0x01\n      0x00\n      swap1\n      sload\n      swap1\n      0x0100\n      exp\n      swap1\n      div\n      0xffffffffffffffffffffffffffffffffffffffff\n      and\n        /* \"receiver.sol\":3978:4023  InvalidSender(msg.sender, s_forwarderAddress) */\n      mload(0x40)\n      0xe1130dba00000000000000000000000000000000000000000000000000000000\n      dup2\n      mstore\n      0x04\n      add\n      tag_126\n      swap3\n      swap2\n      swap1\n      tag_127\n      jump\t// in\n    tag_126:\n      mload(0x40)\n      dup1\n      swap2\n      sub\n      swap1\n      revert\n        /* \"receiver.sol\":3883:4034  if (s_forwarderAddress != address(0) && msg.sender != s_forwarderAddress) {... */\n    tag_125:\n        /* \"receiver.sol\":4199:4200  0 */\n      0x00\n        /* \"receiver.sol\":4191:4201  bytes32(0) */\n      0x00\n      shl\n        /* \"receiver.sol\":4167:4187  s_expectedWorkflowId */\n      sload(0x03)\n        /* \"receiver.sol\":4167:4201  s_expectedWorkflowId != bytes32(0) */\n      eq\n      iszero\n        /* \"receiver.sol\":4167:4235  s_expectedWorkflowId != bytes32(0) || s_expectedAuthor != address(0) */\n      dup1\n      tag_128\n      jumpi\n      pop\n        /* \"receiver.sol\":4233:4234  0 */\n      0x00\n        /* \"receiver.sol\":4205:4235  s_expectedAuthor != address(0) */\n      0xffffffffffffffffffffffffffffffffffffffff\n      and\n        /* \"receiver.sol\":4205:4221  s_expectedAuthor */\n      0x02\n      0x00\n      swap1\n      sload\n      swap1\n      0x0100\n      exp\n      swap1\n      div\n      0xffffffffffffffffffffffffffffffffffffffff\n      and\n        /* \"receiver.sol\":4205:4235  s_expectedAuthor != address(0) */\n      0xffffffffffffffffffffffffffffffffffffffff\n      and\n      eq\n      iszero\n        /* \"receiver.sol\":4167:4235  s_expectedWorkflowId != bytes32(0) || s_expectedAuthor != address(0) */\n    tag_128:\n        /* \"receiver.sol\":4167:4275  s_expectedWorkflowId != bytes32(0) || s_expectedAuthor != address(0) || s_expectedWorkflowName != bytes10(0) */\n      dup1\n      tag_129\n      jumpi\n      pop\n        /* \"receiver.sol\":4273:4274  0 */\n      0x00\n        /* \"receiver.sol\":4265:4275  bytes10(0) */\n      0xb0\n      shl\n        /* \"receiver.sol\":4239:4275  s_expectedWorkflowName != bytes10(0) */\n      not(0xffffffffffffffffffffffffffffffffffffffffffff)\n      and\n        /* \"receiver.sol\":4239:4261  s_expectedWorkflowName */\n      0x02\n      0x14\n      swap1\n      sload\n      swap1\n      0x0100\n      exp\n      swap1\n      div\n      0xb0\n      shl\n        /* \"receiver.sol\":4239:4275  s_expectedWorkflowName != bytes10(0) */\n      not(0xffffffffffffffffffffffffffffffffffffffffffff)\n      and\n      eq\n      iszero\n        /* \"receiver.sol\":4167:4275  s_expectedWorkflowId != bytes32(0) || s_expectedAuthor != address(0) || s_expectedWorkflowName != bytes10(0) */\n    tag_129:\n        /* \"receiver.sol\":4150:5995  if (... */\n      iszero\n      tag_130\n      jumpi\n        /* \"receiver.sol\":4301:4319  bytes32 workflowId */\n      0x00\n        /* \"receiver.sol\":4321:4341  bytes10 workflowName */\n      0x00\n        /* \"receiver.sol\":4343:4364  address workflowOwner */\n      0x00\n        /* \"receiver.sol\":4368:4393  _decodeMetadata(metadata) */\n      tag_131\n        /* \"receiver.sol\":4384:4392  metadata */\n      dup8\n      dup8\n        /* \"receiver.sol\":4368:4393  _decodeMetadata(metadata) */\n      dup1\n      dup1\n      0x1f\n      add\n      0x20\n      dup1\n      swap2\n      div\n      mul\n      0x20\n      add\n      mload(0x40)\n      swap1\n      dup2\n      add\n      0x40\n      mstore\n      dup1\n      swap4\n      swap3\n      swap2\n      swap1\n      dup2\n      dup2\n      mstore\n      0x20\n      add\n      dup4\n      dup4\n      dup1\n      dup3\n      dup5\n      calldatacopy\n      0x00\n      dup2\n      dup5\n      add\n      mstore\n      not(0x1f)\n      0x1f\n      dup3\n      add\n      and\n      swap1\n      pop\n      dup1\n      dup4\n      add\n      swap3\n      pop\n      pop\n      pop\n      pop\n      pop\n      pop\n      pop\n        /* \"receiver.sol\":4368:4383  _decodeMetadata */\n      tag_132\n        /* \"receiver.sol\":4368:4393  _decodeMetadata(metadata) */\n      jump\t// in\n    tag_131:\n        /* \"receiver.sol\":4300:4393  (bytes32 workflowId, bytes10 workflowName, address workflowOwner) = _decodeMetadata(metadata) */\n      swap3\n      pop\n      swap3\n      pop\n      swap3\n      pop\n        /* \"receiver.sol\":4444:4445  0 */\n      0x00\n        /* \"receiver.sol\":4436:4446  bytes32(0) */\n      0x00\n      shl\n        /* \"receiver.sol\":4412:4432  s_expectedWorkflowId */\n      sload(0x03)\n        /* \"receiver.sol\":4412:4446  s_expectedWorkflowId != bytes32(0) */\n      eq\n      iszero\n        /* \"receiver.sol\":4412:4484  s_expectedWorkflowId != bytes32(0) && workflowId != s_expectedWorkflowId */\n      dup1\n      iszero\n      tag_133\n      jumpi\n      pop\n        /* \"receiver.sol\":4464:4484  s_expectedWorkflowId */\n      sload(0x03)\n        /* \"receiver.sol\":4450:4460  workflowId */\n      dup4\n        /* \"receiver.sol\":4450:4484  workflowId != s_expectedWorkflowId */\n      eq\n      iszero\n        /* \"receiver.sol\":4412:4484  s_expectedWorkflowId != bytes32(0) && workflowId != s_expectedWorkflowId */\n    tag_133:\n        /* \"receiver.sol\":4408:4577  if (s_expectedWorkflowId != bytes32(0) && workflowId != s_expectedWorkflowId) {... */\n      iszero\n      tag_134\n      jumpi\n        /* \"receiver.sol\":4529:4539  workflowId */\n      dup3\n        /* \"receiver.sol\":4541:4561  s_expectedWorkflowId */\n      sload(0x03)\n        /* \"receiver.sol\":4511:4562  InvalidWorkflowId(workflowId, s_expectedWorkflowId) */\n      mload(0x40)\n      0x9bfa39ba00000000000000000000000000000000000000000000000000000000\n      dup2\n      mstore\n      0x04\n      add\n      tag_135\n      swap3\n      swap2\n      swap1\n      tag_136\n      jump\t// in\n    tag_135:\n      mload(0x40)\n      dup1\n      swap2\n      sub\n      swap1\n      revert\n        /* \"receiver.sol\":4408:4577  if (s_expectedWorkflowId != bytes32(0) && workflowId != s_expectedWorkflowId) {... */\n    tag_134:\n        /* \"receiver.sol\":4622:4623  0 */\n      0x00\n        /* \"receiver.sol\":4594:4624  s_expectedAuthor != address(0) */\n      0xffffffffffffffffffffffffffffffffffffffff\n      and\n        /* \"receiver.sol\":4594:4610  s_expectedAuthor */\n      0x02\n      0x00\n      swap1\n      sload\n      swap1\n      0x0100\n      exp\n      swap1\n      div\n      0xffffffffffffffffffffffffffffffffffffffff\n      and\n        /* \"receiver.sol\":4594:4624  s_expectedAuthor != address(0) */\n      0xffffffffffffffffffffffffffffffffffffffff\n      and\n      eq\n      iszero\n        /* \"receiver.sol\":4594:4661  s_expectedAuthor != address(0) && workflowOwner != s_expectedAuthor */\n      dup1\n      iszero\n      tag_137\n      jumpi\n      pop\n        /* \"receiver.sol\":4645:4661  s_expectedAuthor */\n      0x02\n      0x00\n      swap1\n      sload\n      swap1\n      0x0100\n      exp\n      swap1\n      div\n      0xffffffffffffffffffffffffffffffffffffffff\n      and\n        /* \"receiver.sol\":4628:4661  workflowOwner != s_expectedAuthor */\n      0xffffffffffffffffffffffffffffffffffffffff\n      and\n        /* \"receiver.sol\":4628:4641  workflowOwner */\n      dup2\n        /* \"receiver.sol\":4628:4661  workflowOwner != s_expectedAuthor */\n      0xffffffffffffffffffffffffffffffffffffffff\n      and\n      eq\n      iszero\n        /* \"receiver.sol\":4594:4661  s_expectedAuthor != address(0) && workflowOwner != s_expectedAuthor */\n    tag_137:\n        /* \"receiver.sol\":4590:4749  if (s_expectedAuthor != address(0) && workflowOwner != s_expectedAuthor) {... */\n      iszero\n      tag_138\n      jumpi\n        /* \"receiver.sol\":4702:4715  workflowOwner */\n      dup1\n        /* \"receiver.sol\":4717:4733  s_expectedAuthor */\n      0x02\n      0x00\n      swap1\n      sload\n      swap1\n      0x0100\n      exp\n      swap1\n      div\n      0xffffffffffffffffffffffffffffffffffffffff\n      and\n        /* \"receiver.sol\":4688:4734  InvalidAuthor(workflowOwner, s_expectedAuthor) */\n      mload(0x40)\n      0xb8a98af800000000000000000000000000000000000000000000000000000000\n      dup2\n      mstore\n      0x04\n      add\n      tag_139\n      swap3\n      swap2\n      swap1\n      tag_127\n      jump\t// in\n    tag_139:\n      mload(0x40)\n      dup1\n      swap2\n      sub\n      swap1\n      revert\n        /* \"receiver.sol\":4590:4749  if (s_expectedAuthor != address(0) && workflowOwner != s_expectedAuthor) {... */\n    tag_138:\n        /* \"receiver.sol\":5508:5509  0 */\n      0x00\n        /* \"receiver.sol\":5500:5510  bytes10(0) */\n      0xb0\n      shl\n        /* \"receiver.sol\":5474:5510  s_expectedWorkflowName != bytes10(0) */\n      not(0xffffffffffffffffffffffffffffffffffffffffffff)\n      and\n        /* \"receiver.sol\":5474:5496  s_expectedWorkflowName */\n      0x02\n      0x14\n      swap1\n      sload\n      swap1\n      0x0100\n      exp\n      swap1\n      div\n      0xb0\n      shl\n        /* \"receiver.sol\":5474:5510  s_expectedWorkflowName != bytes10(0) */\n      not(0xffffffffffffffffffffffffffffffffffffffffffff)\n      and\n      eq\n        /* \"receiver.sol\":5470:5985  if (s_expectedWorkflowName != bytes10(0)) {... */\n      tag_140\n      jumpi\n        /* \"receiver.sol\":5632:5633  0 */\n      0x00\n        /* \"receiver.sol\":5604:5634  s_expectedAuthor == address(0) */\n      0xffffffffffffffffffffffffffffffffffffffff\n      and\n        /* \"receiver.sol\":5604:5620  s_expectedAuthor */\n      0x02\n      0x00\n      swap1\n      sload\n      swap1\n      0x0100\n      exp\n      swap1\n      div\n      0xffffffffffffffffffffffffffffffffffffffff\n      and\n        /* \"receiver.sol\":5604:5634  s_expectedAuthor == address(0) */\n      0xffffffffffffffffffffffffffffffffffffffff\n      and\n      sub\n        /* \"receiver.sol\":5600:5722  if (s_expectedAuthor == address(0)) {... */\n      tag_141\n      jumpi\n        /* \"receiver.sol\":5665:5703  WorkflowNameRequiresAuthorValidation() */\n      mload(0x40)\n      0x4847901100000000000000000000000000000000000000000000000000000000\n      dup2\n      mstore\n      0x04\n      add\n      mload(0x40)\n      dup1\n      swap2\n      sub\n      swap1\n      revert\n        /* \"receiver.sol\":5600:5722  if (s_expectedAuthor == address(0)) {... */\n    tag_141:\n        /* \"receiver.sol\":5842:5864  s_expectedWorkflowName */\n      0x02\n      0x14\n      swap1\n      sload\n      swap1\n      0x0100\n      exp\n      swap1\n      div\n      0xb0\n      shl\n        /* \"receiver.sol\":5826:5864  workflowName != s_expectedWorkflowName */\n      not(0xffffffffffffffffffffffffffffffffffffffffffff)\n      and\n        /* \"receiver.sol\":5826:5838  workflowName */\n      dup3\n        /* \"receiver.sol\":5826:5864  workflowName != s_expectedWorkflowName */\n      not(0xffffffffffffffffffffffffffffffffffffffffffff)\n      and\n      eq\n        /* \"receiver.sol\":5822:5971  if (workflowName != s_expectedWorkflowName) {... */\n      tag_142\n      jumpi\n        /* \"receiver.sol\":5915:5927  workflowName */\n      dup2\n        /* \"receiver.sol\":5929:5951  s_expectedWorkflowName */\n      0x02\n      0x14\n      swap1\n      sload\n      swap1\n      0x0100\n      exp\n      swap1\n      div\n      0xb0\n      shl\n        /* \"receiver.sol\":5895:5952  InvalidWorkflowName(workflowName, s_expectedWorkflowName) */\n      mload(0x40)\n      0x6c4609a600000000000000000000000000000000000000000000000000000000\n      dup2\n      mstore\n      0x04\n      add\n      tag_143\n      swap3\n      swap2\n      swap1\n      tag_144\n      jump\t// in\n    tag_143:\n      mload(0x40)\n      dup1\n      swap2\n      sub\n      swap1\n      revert\n        /* \"receiver.sol\":5822:5971  if (workflowName != s_expectedWorkflowName) {... */\n    tag_142:\n        /* \"receiver.sol\":5470:5985  if (s_expectedWorkflowName != bytes10(0)) {... */\n    tag_140:\n        /* \"receiver.sol\":4286:5995  {... */\n      pop\n      pop\n      pop\n        /* \"receiver.sol\":4150:5995  if (... */\n    tag_130:\n        /* \"receiver.sol\":6005:6027  _processReport(report) */\n      tag_145\n        /* \"receiver.sol\":6020:6026  report */\n      dup3\n      dup3\n        /* \"receiver.sol\":6005:6019  _processReport */\n      tag_146\n        /* \"receiver.sol\":6005:6027  _processReport(report) */\n      jump\t// in\n    tag_145:\n        /* \"receiver.sol\":3695:6034  function onReport(bytes calldata metadata, bytes calldata report) external override {... */\n      pop\n      pop\n      pop\n      pop\n      jump\t// out\n        /* \"@openzeppelin/contracts/access/Ownable.sol\":1638:1723  function owner() public view virtual returns (address) {... */\n    tag_64:\n        /* \"@openzeppelin/contracts/access/Ownable.sol\":1684:1691  address */\n      0x00\n        /* \"@openzeppelin/contracts/access/Ownable.sol\":1710:1716  _owner */\n      0x00\n      0x00\n      swap1\n      sload\n      swap1\n      0x0100\n      exp\n      swap1\n      div\n      0xffffffffffffffffffffffffffffffffffffffff\n      and\n        /* \"@openzeppelin/contracts/access/Ownable.sol\":1703:1716  return _owner */\n      swap1\n      pop\n        /* \"@openzeppelin/contracts/access/Ownable.sol\":1638:1723  function owner() public view virtual returns (address) {... */\n      swap1\n      jump\t// out\n        /* \"receiver.sol\":3227:3340  function getExpectedWorkflowName() external view returns (bytes10) {... */\n    tag_67:\n        /* \"receiver.sol\":3285:3292  bytes10 */\n      0x00\n        /* \"receiver.sol\":3311:3333  s_expectedWorkflowName */\n      0x02\n      0x14\n      swap1\n      sload\n      swap1\n      0x0100\n      exp\n      swap1\n      div\n      0xb0\n      shl\n        /* \"receiver.sol\":3304:3333  return s_expectedWorkflowName */\n      swap1\n      pop\n        /* \"receiver.sol\":3227:3340  function getExpectedWorkflowName() external view returns (bytes10) {... */\n      swap1\n      jump\t// out\n        /* \"simpleSttorage.sol\":1773:1846  function retrive() public  view returns(uint256){... */\n    tag_71:\n        /* \"simpleSttorage.sol\":1813:1820  uint256 */\n      0x00\n        /* \"simpleSttorage.sol\":1835:1843  myfavnum */\n      sload(0x04)\n        /* \"simpleSttorage.sol\":1828:1843  return myfavnum */\n      swap1\n      pop\n        /* \"simpleSttorage.sol\":1773:1846  function retrive() public  view returns(uint256){... */\n      swap1\n      jump\t// out\n        /* \"receiver.sol\":7934:8788  function setExpectedWorkflowName(string calldata _name) external onlyOwner {... */\n    tag_76:\n        /* \"@openzeppelin/contracts/access/Ownable.sol\":1531:1544  _checkOwner() */\n      tag_151\n        /* \"@openzeppelin/contracts/access/Ownable.sol\":1531:1542  _checkOwner */\n      tag_119\n        /* \"@openzeppelin/contracts/access/Ownable.sol\":1531:1544  _checkOwner() */\n      jump\t// in\n    tag_151:\n        /* \"receiver.sol\":8019:8039  bytes10 previousName */\n      0x00\n        /* \"receiver.sol\":8042:8064  s_expectedWorkflowName */\n      0x02\n      0x14\n      swap1\n      sload\n      swap1\n      0x0100\n      exp\n      swap1\n      div\n      0xb0\n      shl\n        /* \"receiver.sol\":8019:8064  bytes10 previousName = s_expectedWorkflowName */\n      swap1\n      pop\n        /* \"receiver.sol\":8102:8103  0 */\n      0x00\n        /* \"receiver.sol\":8085:8090  _name */\n      dup4\n      dup4\n        /* \"receiver.sol\":8079:8098  bytes(_name).length */\n      swap1\n      pop\n        /* \"receiver.sol\":8079:8103  bytes(_name).length == 0 */\n      sub\n        /* \"receiver.sol\":8075:8257  if (bytes(_name).length == 0) {... */\n      tag_153\n      jumpi\n        /* \"receiver.sol\":8152:8153  0 */\n      0x00\n        /* \"receiver.sol\":8144:8154  bytes10(0) */\n      0xb0\n      shl\n        /* \"receiver.sol\":8119:8141  s_expectedWorkflowName */\n      0x02\n      0x14\n        /* \"receiver.sol\":8119:8154  s_expectedWorkflowName = bytes10(0) */\n      0x0100\n      exp\n      dup2\n      sload\n      dup2\n      0xffffffffffffffffffff\n      mul\n      not\n      and\n      swap1\n      dup4\n      0xb0\n      shr\n      mul\n      or\n      swap1\n      sstore\n      pop\n        /* \"receiver.sol\":8223:8224  0 */\n      0x00\n        /* \"receiver.sol\":8215:8225  bytes10(0) */\n      0xb0\n      shl\n        /* \"receiver.sol\":8173:8226  ExpectedWorkflowNameUpdated(previousName, bytes10(0)) */\n      not(0xffffffffffffffffffffffffffffffffffffffffffff)\n      and\n        /* \"receiver.sol\":8201:8213  previousName */\n      dup2\n        /* \"receiver.sol\":8173:8226  ExpectedWorkflowNameUpdated(previousName, bytes10(0)) */\n      not(0xffffffffffffffffffffffffffffffffffffffffffff)\n      and\n      0x1e7ddd09d504c82dcfc784a464b167469f5aad967606ec4822d848ef9141dfa5\n      mload(0x40)\n      mload(0x40)\n      dup1\n      swap2\n      sub\n      swap1\n      log3\n        /* \"receiver.sol\":8240:8247  return; */\n      pop\n      jump(tag_152)\n        /* \"receiver.sol\":8075:8257  if (bytes(_name).length == 0) {... */\n    tag_153:\n        /* \"receiver.sol\":8401:8413  bytes32 hash */\n      0x00\n        /* \"receiver.sol\":8416:8436  sha256(bytes(_name)) */\n      0x02\n        /* \"receiver.sol\":8429:8434  _name */\n      dup5\n      dup5\n        /* \"receiver.sol\":8416:8436  sha256(bytes(_name)) */\n      mload(0x40)\n      tag_154\n      swap3\n      swap2\n      swap1\n      tag_155\n      jump\t// in\n    tag_154:\n      0x20\n      mload(0x40)\n      dup1\n      dup4\n      sub\n      dup2\n      dup6\n      gas\n      staticcall\n      iszero\n      dup1\n      iszero\n      tag_157\n      jumpi\n      returndatacopy(0x00, 0x00, returndatasize)\n      revert(0x00, returndatasize)\n    tag_157:\n      pop\n      pop\n      pop\n      mload(0x40)\n      returndatasize\n      not(0x1f)\n      0x1f\n      dup3\n      add\n      and\n      dup3\n      add\n      dup1\n      0x40\n      mstore\n      pop\n      dup2\n      add\n      swap1\n      tag_158\n      swap2\n      swap1\n      tag_159\n      jump\t// in\n    tag_158:\n        /* \"receiver.sol\":8401:8436  bytes32 hash = sha256(bytes(_name)) */\n      swap1\n      pop\n        /* \"receiver.sol\":8446:8468  bytes memory hexString */\n      0x00\n        /* \"receiver.sol\":8471:8512  _bytesToHexString(abi.encodePacked(hash)) */\n      tag_160\n        /* \"receiver.sol\":8506:8510  hash */\n      dup3\n        /* \"receiver.sol\":8489:8511  abi.encodePacked(hash) */\n      add(0x20, mload(0x40))\n      tag_161\n      swap2\n      swap1\n      tag_162\n      jump\t// in\n    tag_161:\n      mload(0x40)\n      0x20\n      dup2\n      dup4\n      sub\n      sub\n      dup2\n      mstore\n      swap1\n      0x40\n      mstore\n        /* \"receiver.sol\":8471:8488  _bytesToHexString */\n      tag_163\n        /* \"receiver.sol\":8471:8512  _bytesToHexString(abi.encodePacked(hash)) */\n      jump\t// in\n    tag_160:\n        /* \"receiver.sol\":8446:8512  bytes memory hexString = _bytesToHexString(abi.encodePacked(hash)) */\n      swap1\n      pop\n        /* \"receiver.sol\":8522:8542  bytes memory first10 */\n      0x00\n        /* \"receiver.sol\":8555:8557  10 */\n      0x0a\n        /* \"receiver.sol\":8545:8558  new bytes(10) */\n      0xffffffffffffffff\n      dup2\n      gt\n      iszero\n      tag_164\n      jumpi\n      tag_165\n      tag_166\n      jump\t// in\n    tag_165:\n    tag_164:\n      mload(0x40)\n      swap1\n      dup1\n      dup3\n      mstore\n      dup1\n      0x1f\n      add\n      not(0x1f)\n      and\n      0x20\n      add\n      dup3\n      add\n      0x40\n      mstore\n      dup1\n      iszero\n      tag_167\n      jumpi\n      dup2\n      0x20\n      add\n      0x01\n      dup3\n      mul\n      dup1\n      calldatasize\n      dup4\n      calldatacopy\n      dup1\n      dup3\n      add\n      swap2\n      pop\n      pop\n      swap1\n      pop\n    tag_167:\n      pop\n        /* \"receiver.sol\":8522:8558  bytes memory first10 = new bytes(10) */\n      swap1\n      pop\n        /* \"receiver.sol\":8573:8582  uint256 i */\n      0x00\n        /* \"receiver.sol\":8585:8586  0 */\n      0x00\n        /* \"receiver.sol\":8573:8586  uint256 i = 0 */\n      swap1\n      pop\n        /* \"receiver.sol\":8568:8651  for (uint256 i = 0; i < 10; i++) {... */\n    tag_168:\n        /* \"receiver.sol\":8592:8594  10 */\n      0x0a\n        /* \"receiver.sol\":8588:8589  i */\n      dup2\n        /* \"receiver.sol\":8588:8594  i < 10 */\n      lt\n        /* \"receiver.sol\":8568:8651  for (uint256 i = 0; i < 10; i++) {... */\n      iszero\n      tag_169\n      jumpi\n        /* \"receiver.sol\":8628:8637  hexString */\n      dup3\n        /* \"receiver.sol\":8638:8639  i */\n      dup2\n        /* \"receiver.sol\":8628:8640  hexString[i] */\n      dup2\n      mload\n      dup2\n      lt\n      tag_171\n      jumpi\n      tag_172\n      tag_173\n      jump\t// in\n    tag_172:\n    tag_171:\n      0x20\n      add\n      add\n      mload\n      0xf8\n      shr\n      0xf8\n      shl\n        /* \"receiver.sol\":8615:8622  first10 */\n      dup3\n        /* \"receiver.sol\":8623:8624  i */\n      dup3\n        /* \"receiver.sol\":8615:8625  first10[i] */\n      dup2\n      mload\n      dup2\n      lt\n      tag_174\n      jumpi\n      tag_175\n      tag_173\n      jump\t// in\n    tag_175:\n    tag_174:\n      0x20\n      add\n      add\n        /* \"receiver.sol\":8615:8640  first10[i] = hexString[i] */\n      swap1\n      not(0xffffffffffffffffffffffffffffffffffffffffffffffffffffffffffffff)\n      and\n      swap1\n      dup2\n      0x00\n      byte\n      swap1\n      mstore8\n      pop\n        /* \"receiver.sol\":8596:8599  i++ */\n      dup1\n      dup1\n      0x01\n      add\n      swap2\n      pop\n      pop\n        /* \"receiver.sol\":8568:8651  for (uint256 i = 0; i < 10; i++) {... */\n      jump(tag_168)\n    tag_169:\n      pop\n        /* \"receiver.sol\":8693:8700  first10 */\n      dup1\n        /* \"receiver.sol\":8685:8701  bytes10(first10) */\n      tag_176\n      swap1\n      tag_177\n      jump\t// in\n    tag_176:\n        /* \"receiver.sol\":8660:8682  s_expectedWorkflowName */\n      0x02\n      0x14\n        /* \"receiver.sol\":8660:8701  s_expectedWorkflowName = bytes10(first10) */\n      0x0100\n      exp\n      dup2\n      sload\n      dup2\n      0xffffffffffffffffffff\n      mul\n      not\n      and\n      swap1\n      dup4\n      0xb0\n      shr\n      mul\n      or\n      swap1\n      sstore\n      pop\n        /* \"receiver.sol\":8758:8780  s_expectedWorkflowName */\n      0x02\n      0x14\n      swap1\n      sload\n      swap1\n      0x0100\n      exp\n      swap1\n      div\n      0xb0\n      shl\n        /* \"receiver.sol\":8716:8781  ExpectedWorkflowNameUpdated(previousName, s_expectedWorkflowName) */\n      not(0xffffffffffffffffffffffffffffffffffffffffffff)\n      and\n        /* \"receiver.sol\":8744:8756  previousName */\n      dup5\n        /* \"receiver.sol\":8716:8781  ExpectedWorkflowNameUpdated(previousName, s_expectedWorkflowName) */\n      not(0xffffffffffffffffffffffffffffffffffffffffffff)\n      and\n      0x1e7ddd09d504c82dcfc784a464b167469f5aad967606ec4822d848ef9141dfa5\n      mload(0x40)\n      mload(0x40)\n      dup1\n      swap2\n      sub\n      swap1\n      log3\n        /* \"receiver.sol\":8009:8788  {... */\n      pop\n      pop\n      pop\n      pop\n        /* \"@openzeppelin/contracts/access/Ownable.sol\":1554:1555  _ */\n    tag_152:\n        /* \"receiver.sol\":7934:8788  function setExpectedWorkflowName(string calldata _name) external onlyOwner {... */\n      pop\n      pop\n      jump\t// out\n        /* \"receiver.sol\":8930:9144  function setExpectedWorkflowId(bytes32 _id) external onlyOwner {... */\n    tag_80:\n        /* \"@openzeppelin/contracts/access/Ownable.sol\":1531:1544  _checkOwner() */\n      tag_179\n        /* \"@openzeppelin/contracts/access/Ownable.sol\":1531:1542  _checkOwner */\n      tag_119\n        /* \"@openzeppelin/contracts/access/Ownable.sol\":1531:1544  _checkOwner() */\n      jump\t// in\n    tag_179:\n        /* \"receiver.sol\":9003:9021  bytes32 previousId */\n      0x00\n        /* \"receiver.sol\":9024:9044  s_expectedWorkflowId */\n      sload(0x03)\n        /* \"receiver.sol\":9003:9044  bytes32 previousId = s_expectedWorkflowId */\n      swap1\n      pop\n        /* \"receiver.sol\":9077:9080  _id */\n      dup2\n        /* \"receiver.sol\":9054:9074  s_expectedWorkflowId */\n      0x03\n        /* \"receiver.sol\":9054:9080  s_expectedWorkflowId = _id */\n      dup2\n      swap1\n      sstore\n      pop\n        /* \"receiver.sol\":9133:9136  _id */\n      dup2\n        /* \"receiver.sol\":9121:9131  previousId */\n      dup2\n        /* \"receiver.sol\":9095:9137  ExpectedWorkflowIdUpdated(previousId, _id) */\n      0x0dbedcdf21925e053b4c574eae180d7f2883235ab4976ecc0873598a2a999b03\n      mload(0x40)\n      mload(0x40)\n      dup1\n      swap2\n      sub\n      swap1\n      log3\n        /* \"receiver.sol\":8993:9144  {... */\n      pop\n        /* \"receiver.sol\":8930:9144  function setExpectedWorkflowId(bytes32 _id) external onlyOwner {... */\n      pop\n      jump\t// out\n        /* \"receiver.sol\":7027:7245  function setExpectedAuthor(address _author) external onlyOwner {... */\n    tag_84:\n        /* \"@openzeppelin/contracts/access/Ownable.sol\":1531:1544  _checkOwner() */\n      tag_182\n        /* \"@openzeppelin/contracts/access/Ownable.sol\":1531:1542  _checkOwner */\n      tag_119\n        /* \"@openzeppelin/contracts/access/Ownable.sol\":1531:1544  _checkOwner() */\n      jump\t// in\n    tag_182:\n        /* \"receiver.sol\":7100:7122  address previousAuthor */\n      0x00\n        /* \"receiver.sol\":7125:7141  s_expectedAuthor */\n      0x02\n      0x00\n      swap1\n      sload\n      swap1\n      0x0100\n      exp\n      swap1\n      div\n      0xffffffffffffffffffffffffffffffffffffffff\n      and\n        /* \"receiver.sol\":7100:7141  address previousAuthor = s_expectedAuthor */\n      swap1\n      pop\n        /* \"receiver.sol\":7170:7177  _author */\n      dup2\n        /* \"receiver.sol\":7151:7167  s_expectedAuthor */\n      0x02\n      0x00\n        /* \"receiver.sol\":7151:7177  s_expectedAuthor = _author */\n      0x0100\n      exp\n      dup2\n      sload\n      dup2\n      0xffffffffffffffffffffffffffffffffffffffff\n      mul\n      not\n      and\n      swap1\n      dup4\n      0xffffffffffffffffffffffffffffffffffffffff\n      and\n      mul\n      or\n      swap1\n      sstore\n      pop\n        /* \"receiver.sol\":7230:7237  _author */\n      dup2\n        /* \"receiver.sol\":7192:7238  ExpectedAuthorUpdated(previousAuthor, _author) */\n      0xffffffffffffffffffffffffffffffffffffffff\n      and\n        /* \"receiver.sol\":7214:7228  previousAuthor */\n      dup2\n        /* \"receiver.sol\":7192:7238  ExpectedAuthorUpdated(previousAuthor, _author) */\n      0xffffffffffffffffffffffffffffffffffffffff\n      and\n      0x3321cda85c145617e47418aa14255e9dcbec53a753778e57591703b89a3cad31\n      mload(0x40)\n      mload(0x40)\n      dup1\n      swap2\n      sub\n      swap1\n      log3\n        /* \"receiver.sol\":7090:7245  {... */\n      pop\n        /* \"receiver.sol\":7027:7245  function setExpectedAuthor(address _author) external onlyOwner {... */\n      pop\n      jump\t// out\n        /* \"receiver.sol\":6427:6867  function setForwarderAddress(address _forwarder) external onlyOwner {... */\n    tag_87:\n        /* \"@openzeppelin/contracts/access/Ownable.sol\":1531:1544  _checkOwner() */\n      tag_185\n        /* \"@openzeppelin/contracts/access/Ownable.sol\":1531:1542  _checkOwner */\n      tag_119\n        /* \"@openzeppelin/contracts/access/Ownable.sol\":1531:1544  _checkOwner() */\n      jump\t// in\n    tag_185:\n        /* \"receiver.sol\":6505:6530  address previousForwarder */\n      0x00\n        /* \"receiver.sol\":6533:6551  s_forwarderAddress */\n      0x01\n      0x00\n      swap1\n      sload\n      swap1\n      0x0100\n      exp\n      swap1\n      div\n      0xffffffffffffffffffffffffffffffffffffffff\n      and\n        /* \"receiver.sol\":6505:6551  address previousForwarder = s_forwarderAddress */\n      swap1\n      pop\n        /* \"receiver.sol\":6641:6642  0 */\n      0x00\n        /* \"receiver.sol\":6619:6643  _forwarder == address(0) */\n      0xffffffffffffffffffffffffffffffffffffffff\n      and\n        /* \"receiver.sol\":6619:6629  _forwarder */\n      dup3\n        /* \"receiver.sol\":6619:6643  _forwarder == address(0) */\n      0xffffffffffffffffffffffffffffffffffffffff\n      and\n      sub\n        /* \"receiver.sol\":6615:6750  if (_forwarder == address(0)) {... */\n      tag_187\n      jumpi\n        /* \"receiver.sol\":6664:6739  SecurityWarning(\"Forwarder address set to zero - contract is now INSECURE\") */\n      0x704da7db165c79c1e33d542c079333bbde970a733032d2f95fec8fb7d770cbf7\n      mload(0x40)\n      tag_188\n      swap1\n      tag_189\n      jump\t// in\n    tag_188:\n      mload(0x40)\n      dup1\n      swap2\n      sub\n      swap1\n      log1\n        /* \"receiver.sol\":6615:6750  if (_forwarder == address(0)) {... */\n    tag_187:\n        /* \"receiver.sol\":6781:6791  _forwarder */\n      dup2\n        /* \"receiver.sol\":6760:6778  s_forwarderAddress */\n      0x01\n      0x00\n        /* \"receiver.sol\":6760:6791  s_forwarderAddress = _forwarder */\n      0x0100\n      exp\n      dup2\n      sload\n      dup2\n      0xffffffffffffffffffffffffffffffffffffffff\n      mul\n      not\n      and\n      swap1\n      dup4\n      0xffffffffffffffffffffffffffffffffffffffff\n      and\n      mul\n      or\n      swap1\n      sstore\n      pop\n        /* \"receiver.sol\":6849:6859  _forwarder */\n      dup2\n        /* \"receiver.sol\":6806:6860  ForwarderAddressUpdated(previousForwarder, _forwarder) */\n      0xffffffffffffffffffffffffffffffffffffffff\n      and\n        /* \"receiver.sol\":6830:6847  previousForwarder */\n      dup2\n        /* \"receiver.sol\":6806:6860  ForwarderAddressUpdated(previousForwarder, _forwarder) */\n      0xffffffffffffffffffffffffffffffffffffffff\n      and\n      0x039ad854736757070884dd787ef1a7f58db33546639d1f3efddcf4a33fb8997e\n      mload(0x40)\n      mload(0x40)\n      dup1\n      swap2\n      sub\n      swap1\n      log3\n        /* \"receiver.sol\":6495:6867  {... */\n      pop\n        /* \"receiver.sol\":6427:6867  function setForwarderAddress(address _forwarder) external onlyOwner {... */\n      pop\n      jump\t// out\n        /* \"simpleSttorage.sol\":1850:1925  function retrived() public  view  returns(uint256){... */\n    tag_89:\n        /* \"simpleSttorage.sol\":1892:1899  uint256 */\n      0x00\n        /* \"simpleSttorage.sol\":1914:1922  myfavnum */\n      sload(0x04)\n        /* \"simpleSttorage.sol\":1907:1922  return myfavnum */\n      swap1\n      pop\n        /* \"simpleSttorage.sol\":1850:1925  function retrived() public  view  returns(uint256){... */\n      swap1\n      jump\t// out\n        /* \"@openzeppelin/contracts/access/Ownable.sol\":2543:2758  function transferOwnership(address newOwner) public virtual onlyOwner {... */\n    tag_93:\n        /* \"@openzeppelin/contracts/access/Ownable.sol\":1531:1544  _checkOwner() */\n      tag_192\n        /* \"@openzeppelin/contracts/access/Ownable.sol\":1531:1542  _checkOwner */\n      tag_119\n        /* \"@openzeppelin/contracts/access/Ownable.sol\":1531:1544  _checkOwner() */\n      jump\t// in\n    tag_192:\n        /* \"@openzeppelin/contracts/access/Ownable.sol\":2647:2648  0 */\n      0x00\n        /* \"@openzeppelin/contracts/access/Ownable.sol\":2627:2649  newOwner == address(0) */\n      0xffffffffffffffffffffffffffffffffffffffff\n      and\n        /* \"@openzeppelin/contracts/access/Ownable.sol\":2627:2635  newOwner */\n      dup2\n        /* \"@openzeppelin/contracts/access/Ownable.sol\":2627:2649  newOwner == address(0) */\n      0xffffffffffffffffffffffffffffffffffffffff\n      and\n      sub\n        /* \"@openzeppelin/contracts/access/Ownable.sol\":2623:2714  if (newOwner == address(0)) {... */\n      tag_194\n      jumpi\n        /* \"@openzeppelin/contracts/access/Ownable.sol\":2700:2701  0 */\n      0x00\n        /* \"@openzeppelin/contracts/access/Ownable.sol\":2672:2703  OwnableInvalidOwner(address(0)) */\n      mload(0x40)\n      0x1e4fbdf700000000000000000000000000000000000000000000000000000000\n      dup2\n      mstore\n      0x04\n      add\n      tag_195\n      swap2\n      swap1\n      tag_44\n      jump\t// in\n    tag_195:\n      mload(0x40)\n      dup1\n      swap2\n      sub\n      swap1\n      revert\n        /* \"@openzeppelin/contracts/access/Ownable.sol\":2623:2714  if (newOwner == address(0)) {... */\n    tag_194:\n        /* \"@openzeppelin/contracts/access/Ownable.sol\":2723:2751  _transferOwnership(newOwner) */\n      tag_196\n        /* \"@openzeppelin/contracts/access/Ownable.sol\":2742:2750  newOwner */\n      dup2\n        /* \"@openzeppelin/contracts/access/Ownable.sol\":2723:2741  _transferOwnership */\n      tag_122\n        /* \"@openzeppelin/contracts/access/Ownable.sol\":2723:2751  _transferOwnership(newOwner) */\n      jump\t// in\n    tag_196:\n        /* \"@openzeppelin/contracts/access/Ownable.sol\":2543:2758  function transferOwnership(address newOwner) public virtual onlyOwner {... */\n      pop\n      jump\t// out\n        /* \"receiver.sol\":3460:3569  function getExpectedWorkflowId() external view returns (bytes32) {... */\n    tag_95:\n        /* \"receiver.sol\":3516:3523  bytes32 */\n      0x00\n        /* \"receiver.sol\":3542:3562  s_expectedWorkflowId */\n      sload(0x03)\n        /* \"receiver.sol\":3535:3562  return s_expectedWorkflowId */\n      swap1\n      pop\n        /* \"receiver.sol\":3460:3569  function getExpectedWorkflowId() external view returns (bytes32) {... */\n      swap1\n      jump\t// out\n        /* \"@openzeppelin/contracts/access/Ownable.sol\":1796:1958  function _checkOwner() internal view virtual {... */\n    tag_119:\n        /* \"@openzeppelin/contracts/access/Ownable.sol\":1866:1878  _msgSender() */\n      tag_199\n        /* \"@openzeppelin/contracts/access/Ownable.sol\":1866:1876  _msgSender */\n      tag_200\n        /* \"@openzeppelin/contracts/access/Ownable.sol\":1866:1878  _msgSender() */\n      jump\t// in\n    tag_199:\n        /* \"@openzeppelin/contracts/access/Ownable.sol\":1855:1878  owner() != _msgSender() */\n      0xffffffffffffffffffffffffffffffffffffffff\n      and\n        /* \"@openzeppelin/contracts/access/Ownable.sol\":1855:1862  owner() */\n      tag_201\n        /* \"@openzeppelin/contracts/access/Ownable.sol\":1855:1860  owner */\n      tag_64\n        /* \"@openzeppelin/contracts/access/Ownable.sol\":1855:1862  owner() */\n      jump\t// in\n    tag_201:\n        /* \"@openzeppelin/contracts/access/Ownable.sol\":1855:1878  owner() != _msgSender() */\n      0xffffffffffffffffffffffffffffffffffffffff\n      and\n      eq\n        /* \"@openzeppelin/contracts/access/Ownable.sol\":1851:1952  if (owner() != _msgSender()) {... */\n      tag_202\n      jumpi\n        /* \"@openzeppelin/contracts/access/Ownable.sol\":1928:1940  _msgSender() */\n      tag_203\n        /* \"@openzeppelin/contracts/access/Ownable.sol\":1928:1938  _msgSender */\n      tag_200\n        /* \"@openzeppelin/contracts/access/Ownable.sol\":1928:1940  _msgSender() */\n      jump\t// in\n    tag_203:\n        /* \"@openzeppelin/contracts/access/Ownable.sol\":1901:1941  OwnableUnauthorizedAccount(_msgSender()) */\n      mload(0x40)\n      0x118cdaa700000000000000000000000000000000000000000000000000000000\n      dup2\n      mstore\n      0x04\n      add\n      tag_204\n      swap2\n      swap1\n      tag_44\n      jump\t// in\n    tag_204:\n      mload(0x40)\n      dup1\n      swap2\n      sub\n      swap1\n      revert\n        /* \"@openzeppelin/contracts/access/Ownable.sol\":1851:1952  if (owner() != _msgSender()) {... */\n    tag_202:\n        /* \"@openzeppelin/contracts/access/Ownable.sol\":1796:1958  function _checkOwner() internal view virtual {... */\n      jump\t// out\n        /* \"@openzeppelin/contracts/access/Ownable.sol\":2912:3099  function _transferOwnership(address newOwner) internal virtual {... */\n    tag_122:\n        /* \"@openzeppelin/contracts/access/Ownable.sol\":2985:3001  address oldOwner */\n      0x00\n        /* \"@openzeppelin/contracts/access/Ownable.sol\":3004:3010  _owner */\n      0x00\n      0x00\n      swap1\n      sload\n      swap1\n      0x0100\n      exp\n      swap1\n      div\n      0xffffffffffffffffffffffffffffffffffffffff\n      and\n        /* \"@openzeppelin/contracts/access/Ownable.sol\":2985:3010  address oldOwner = _owner */\n      swap1\n      pop\n        /* \"@openzeppelin/contracts/access/Ownable.sol\":3029:3037  newOwner */\n      dup2\n        /* \"@openzeppelin/contracts/access/Ownable.sol\":3020:3026  _owner */\n      0x00\n      0x00\n        /* \"@openzeppelin/contracts/access/Ownable.sol\":3020:3037  _owner = newOwner */\n      0x0100\n      exp\n      dup2\n      sload\n      dup2\n      0xffffffffffffffffffffffffffffffffffffffff\n      mul\n      not\n      and\n      swap1\n      dup4\n      0xffffffffffffffffffffffffffffffffffffffff\n      and\n      mul\n      or\n      swap1\n      sstore\n      pop\n        /* \"@openzeppelin/contracts/access/Ownable.sol\":3083:3091  newOwner */\n      dup2\n        /* \"@openzeppelin/contracts/access/Ownable.sol\":3052:3092  OwnershipTransferred(oldOwner, newOwner) */\n      0xffffffffffffffffffffffffffffffffffffffff\n      and\n        /* \"@openzeppelin/contracts/access/Ownable.sol\":3073:3081  oldOwner */\n      dup2\n        /* \"@openzeppelin/contracts/access/Ownable.sol\":3052:3092  OwnershipTransferred(oldOwner, newOwner) */\n      0xffffffffffffffffffffffffffffffffffffffff\n      and\n      0x8be0079c531659141344cd1fd0a4f28419497f9722a3daafe3b4186f6b6457e0\n      mload(0x40)\n      mload(0x40)\n      dup1\n      swap2\n      sub\n      swap1\n      log3\n        /* \"@openzeppelin/contracts/access/Ownable.sol\":2975:3099  {... */\n      pop\n        /* \"@openzeppelin/contracts/access/Ownable.sol\":2912:3099  function _transferOwnership(address newOwner) internal virtual {... */\n      pop\n      jump\t// out\n        /* \"receiver.sol\":10078:10845  function _decodeMetadata(bytes memory metadata)... */\n    tag_132:\n        /* \"receiver.sol\":10173:10191  bytes32 workflowId */\n      0x00\n        /* \"receiver.sol\":10193:10213  bytes10 workflowName */\n      0x00\n        /* \"receiver.sol\":10215:10236  address workflowOwner */\n      0x00\n        /* \"receiver.sol\":10643:10645  32 */\n      0x20\n        /* \"receiver.sol\":10633:10641  metadata */\n      dup5\n        /* \"receiver.sol\":10629:10646  add(metadata, 32) */\n      add\n        /* \"receiver.sol\":10623:10647  mload(add(metadata, 32)) */\n      mload\n        /* \"receiver.sol\":10609:10647  workflowId := mload(add(metadata, 32)) */\n      swap3\n      pop\n        /* \"receiver.sol\":10696:10698  64 */\n      0x40\n        /* \"receiver.sol\":10686:10694  metadata */\n      dup5\n        /* \"receiver.sol\":10682:10699  add(metadata, 64) */\n      add\n        /* \"receiver.sol\":10676:10700  mload(add(metadata, 64)) */\n      mload\n        /* \"receiver.sol\":10660:10700  workflowName := mload(add(metadata, 64)) */\n      swap2\n      pop\n        /* \"receiver.sol\":10766:10768  74 */\n      0x4a\n        /* \"receiver.sol\":10756:10764  metadata */\n      dup5\n        /* \"receiver.sol\":10752:10769  add(metadata, 74) */\n      add\n        /* \"receiver.sol\":10746:10770  mload(add(metadata, 74)) */\n      mload\n        /* \"receiver.sol\":10742:10743  8 */\n      0x08\n        /* \"receiver.sol\":10738:10740  12 */\n      0x0c\n        /* \"receiver.sol\":10734:10744  mul(12, 8) */\n      mul\n        /* \"receiver.sol\":10730:10771  shr(mul(12, 8), mload(add(metadata, 74))) */\n      shr\n        /* \"receiver.sol\":10713:10771  workflowOwner := shr(mul(12, 8), mload(add(metadata, 74))) */\n      swap1\n      pop\n        /* \"receiver.sol\":10078:10845  function _decodeMetadata(bytes memory metadata)... */\n      swap2\n      swap4\n      swap1\n      swap3\n      pop\n      jump\t// out\n        /* \"simpleSttorage.sol\":1172:1454  function _processReport(bytes calldata report) internal override {... */\n    tag_146:\n        /* \"simpleSttorage.sol\":1343:1362  string memory _name */\n      0x00\n        /* \"simpleSttorage.sol\":1364:1376  uint256 _num */\n      0x00\n        /* \"simpleSttorage.sol\":1392:1398  report */\n      dup4\n      dup4\n        /* \"simpleSttorage.sol\":1381:1418  abi.decode(report, (string, uint256)) */\n      dup2\n      add\n      swap1\n      tag_208\n      swap2\n      swap1\n      tag_39\n      jump\t// in\n    tag_208:\n        /* \"simpleSttorage.sol\":1342:1418  (string memory _name, uint256 _num ) = abi.decode(report, (string, uint256)) */\n      swap2\n      pop\n      swap2\n      pop\n        /* \"simpleSttorage.sol\":1423:1447  addPersonNum(_name,_num) */\n      tag_209\n        /* \"simpleSttorage.sol\":1436:1441  _name */\n      dup3\n        /* \"simpleSttorage.sol\":1442:1446  _num */\n      dup3\n        /* \"simpleSttorage.sol\":1423:1435  addPersonNum */\n      tag_40\n        /* \"simpleSttorage.sol\":1423:1447  addPersonNum(_name,_num) */\n      jump\t// in\n    tag_209:\n        /* \"simpleSttorage.sol\":1237:1454  {... */\n      pop\n      pop\n        /* \"simpleSttorage.sol\":1172:1454  function _processReport(bytes calldata report) internal override {... */\n      pop\n      pop\n      jump\t// out\n        /* \"receiver.sol\":9300:9672  function _bytesToHexString(bytes memory data) private pure returns (bytes memory) {... */\n    tag_163:\n        /* \"receiver.sol\":9368:9380  bytes memory */\n      0x60\n        /* \"receiver.sol\":9392:9414  bytes memory hexString */\n      0x00\n        /* \"receiver.sol\":9441:9442  2 */\n      0x02\n        /* \"receiver.sol\":9427:9431  data */\n      dup4\n        /* \"receiver.sol\":9427:9438  data.length */\n      mload\n        /* \"receiver.sol\":9427:9442  data.length * 2 */\n      tag_211\n      swap2\n      swap1\n      tag_212\n      jump\t// in\n    tag_211:\n        /* \"receiver.sol\":9417:9443  new bytes(data.length * 2) */\n      0xffffffffffffffff\n      dup2\n      gt\n      iszero\n      tag_213\n      jumpi\n      tag_214\n      tag_166\n      jump\t// in\n    tag_214:\n    tag_213:\n      mload(0x40)\n      swap1\n      dup1\n      dup3\n      mstore\n      dup1\n      0x1f\n      add\n      not(0x1f)\n      and\n      0x20\n      add\n      dup3\n      add\n      0x40\n      mstore\n      dup1\n      iszero\n      tag_215\n      jumpi\n      dup2\n      0x20\n      add\n      0x01\n      dup3\n      mul\n      dup1\n      calldatasize\n      dup4\n      calldatacopy\n      dup1\n      dup3\n      add\n      swap2\n      pop\n      pop\n      swap1\n      pop\n    tag_215:\n      pop\n        /* \"receiver.sol\":9392:9443  bytes memory hexString = new bytes(data.length * 2) */\n      swap1\n      pop\n        /* \"receiver.sol\":9459:9468  uint256 i */\n      0x00\n        /* \"receiver.sol\":9471:9472  0 */\n      0x00\n        /* \"receiver.sol\":9459:9472  uint256 i = 0 */\n      swap1\n      pop\n        /* \"receiver.sol\":9454:9639  for (uint256 i = 0; i < data.length; i++) {... */\n    tag_216:\n        /* \"receiver.sol\":9478:9482  data */\n      dup4\n        /* \"receiver.sol\":9478:9489  data.length */\n      mload\n        /* \"receiver.sol\":9474:9475  i */\n      dup2\n        /* \"receiver.sol\":9474:9489  i < data.length */\n      lt\n        /* \"receiver.sol\":9454:9639  for (uint256 i = 0; i < data.length; i++) {... */\n      iszero\n      tag_217\n      jumpi\n        /* \"receiver.sol\":9529:9538  HEX_CHARS */\n      mload(0x40)\n      dup1\n      0x40\n      add\n      0x40\n      mstore\n      dup1\n      0x10\n      dup2\n      mstore\n      0x20\n      add\n      0x3031323334353637383961626364656600000000000000000000000000000000\n      dup2\n      mstore\n      pop\n        /* \"receiver.sol\":9556:9557  4 */\n      0x04\n        /* \"receiver.sol\":9545:9549  data */\n      dup6\n        /* \"receiver.sol\":9550:9551  i */\n      dup4\n        /* \"receiver.sol\":9545:9552  data[i] */\n      dup2\n      mload\n      dup2\n      lt\n      tag_219\n      jumpi\n      tag_220\n      tag_173\n      jump\t// in\n    tag_220:\n    tag_219:\n      0x20\n      add\n      add\n      mload\n      0xf8\n      shr\n      0xf8\n      shl\n        /* \"receiver.sol\":9545:9557  data[i] >> 4 */\n      not(0xffffffffffffffffffffffffffffffffffffffffffffffffffffffffffffff)\n      and\n      swap1\n      shr\n        /* \"receiver.sol\":9539:9558  uint8(data[i] >> 4) */\n      0xf8\n      shr\n        /* \"receiver.sol\":9529:9559  HEX_CHARS[uint8(data[i] >> 4)] */\n      0xff\n      and\n      dup2\n      mload\n      dup2\n      lt\n      tag_221\n      jumpi\n      tag_222\n      tag_173\n      jump\t// in\n    tag_222:\n    tag_221:\n      0x20\n      add\n      add\n      mload\n      0xf8\n      shr\n      0xf8\n      shl\n        /* \"receiver.sol\":9510:9519  hexString */\n      dup3\n        /* \"receiver.sol\":9524:9525  2 */\n      0x02\n        /* \"receiver.sol\":9520:9521  i */\n      dup4\n        /* \"receiver.sol\":9520:9525  i * 2 */\n      tag_223\n      swap2\n      swap1\n      tag_212\n      jump\t// in\n    tag_223:\n        /* \"receiver.sol\":9510:9526  hexString[i * 2] */\n      dup2\n      mload\n      dup2\n      lt\n      tag_224\n      jumpi\n      tag_225\n      tag_173\n      jump\t// in\n    tag_225:\n    tag_224:\n      0x20\n      add\n      add\n        /* \"receiver.sol\":9510:9559  hexString[i * 2] = HEX_CHARS[uint8(data[i] >> 4)] */\n      swap1\n      not(0xffffffffffffffffffffffffffffffffffffffffffffffffffffffffffffff)\n      and\n      swap1\n      dup2\n      0x00\n      byte\n      swap1\n      mstore8\n      pop\n        /* \"receiver.sol\":9596:9605  HEX_CHARS */\n      mload(0x40)\n      dup1\n      0x40\n      add\n      0x40\n      mstore\n      dup1\n      0x10\n      dup2\n      mstore\n      0x20\n      add\n      0x3031323334353637383961626364656600000000000000000000000000000000\n      dup2\n      mstore\n      pop\n        /* \"receiver.sol\":9622:9626  0x0f */\n      0x0f\n        /* \"receiver.sol\":9612:9626  data[i] & 0x0f */\n      0xf8\n      shl\n        /* \"receiver.sol\":9612:9616  data */\n      dup6\n        /* \"receiver.sol\":9617:9618  i */\n      dup4\n        /* \"receiver.sol\":9612:9619  data[i] */\n      dup2\n      mload\n      dup2\n      lt\n      tag_226\n      jumpi\n      tag_227\n      tag_173\n      jump\t// in\n    tag_227:\n    tag_226:\n      0x20\n      add\n      add\n      mload\n      0xf8\n      shr\n      0xf8\n      shl\n        /* \"receiver.sol\":9612:9626  data[i] & 0x0f */\n      and\n        /* \"receiver.sol\":9606:9627  uint8(data[i] & 0x0f) */\n      0xf8\n      shr\n        /* \"receiver.sol\":9596:9628  HEX_CHARS[uint8(data[i] & 0x0f)] */\n      0xff\n      and\n      dup2\n      mload\n      dup2\n      lt\n      tag_228\n      jumpi\n      tag_229\n      tag_173\n      jump\t// in\n    tag_229:\n    tag_228:\n      0x20\n      add\n      add\n      mload\n      0xf8\n      shr\n      0xf8\n      shl\n        /* \"receiver.sol\":9573:9582  hexString */\n      dup3\n        /* \"receiver.sol\":9591:9592  1 */\n      0x01\n        /* \"receiver.sol\":9587:9588  2 */\n      0x02\n        /* \"receiver.sol\":9583:9584  i */\n      dup5\n        /* \"receiver.sol\":9583:9588  i * 2 */\n      tag_230\n      swap2\n      swap1\n      tag_212\n      jump\t// in\n    tag_230:\n        /* \"receiver.sol\":9583:9592  i * 2 + 1 */\n      tag_231\n      swap2\n      swap1\n      tag_232\n      jump\t// in\n    tag_231:\n        /* \"receiver.sol\":9573:9593  hexString[i * 2 + 1] */\n      dup2\n      mload\n      dup2\n      lt\n      tag_233\n      jumpi\n      tag_234\n      tag_173\n      jump\t// in\n    tag_234:\n    tag_233:\n      0x20\n      add\n      add\n        /* \"receiver.sol\":9573:9628  hexString[i * 2 + 1] = HEX_CHARS[uint8(data[i] & 0x0f)] */\n      swap1\n      not(0xffffffffffffffffffffffffffffffffffffffffffffffffffffffffffffff)\n      and\n      swap1\n      dup2\n      0x00\n      byte\n      swap1\n      mstore8\n      pop\n        /* \"receiver.sol\":9491:9494  i++ */\n      dup1\n      dup1\n      0x01\n      add\n      swap2\n      pop\n      pop\n        /* \"receiver.sol\":9454:9639  for (uint256 i = 0; i < data.length; i++) {... */\n      jump(tag_216)\n    tag_217:\n      pop\n        /* \"receiver.sol\":9656:9665  hexString */\n      dup1\n        /* \"receiver.sol\":9649:9665  return hexString */\n      swap2\n      pop\n      pop\n        /* \"receiver.sol\":9300:9672  function _bytesToHexString(bytes memory data) private pure returns (bytes memory) {... */\n      swap2\n      swap1\n      pop\n      jump\t// out\n        /* \"@openzeppelin/contracts/utils/Context.sol\":656:752  function _msgSender() internal view virtual returns (address) {... */\n    tag_200:\n        /* \"@openzeppelin/contracts/utils/Context.sol\":709:716  address */\n      0x00\n        /* \"@openzeppelin/contracts/utils/Context.sol\":735:745  msg.sender */\n      caller\n        /* \"@openzeppelin/contracts/utils/Context.sol\":728:745  return msg.sender */\n      swap1\n      pop\n        /* \"@openzeppelin/contracts/utils/Context.sol\":656:752  function _msgSender() internal view virtual returns (address) {... */\n      swap1\n      jump\t// out\n        /* \"#utility.yul\":7:82   */\n    tag_236:\n        /* \"#utility.yul\":40:46   */\n      0x00\n        /* \"#utility.yul\":73:75   */\n      0x40\n        /* \"#utility.yul\":67:76   */\n      mload\n        /* \"#utility.yul\":57:76   */\n      swap1\n      pop\n        /* \"#utility.yul\":7:82   */\n      swap1\n      jump\t// out\n        /* \"#utility.yul\":88:205   */\n    tag_237:\n        /* \"#utility.yul\":197:198   */\n      0x00\n        /* \"#utility.yul\":194:195   */\n      0x00\n        /* \"#utility.yul\":187:199   */\n      revert\n        /* \"#utility.yul\":211:328   */\n    tag_238:\n        /* \"#utility.yul\":320:321   */\n      0x00\n        /* \"#utility.yul\":317:318   */\n      0x00\n        /* \"#utility.yul\":310:322   */\n      revert\n        /* \"#utility.yul\":334:483   */\n    tag_239:\n        /* \"#utility.yul\":370:377   */\n      0x00\n        /* \"#utility.yul\":410:476   */\n      0xffffffff00000000000000000000000000000000000000000000000000000000\n        /* \"#utility.yul\":403:408   */\n      dup3\n        /* \"#utility.yul\":399:477   */\n      and\n        /* \"#utility.yul\":388:477   */\n      swap1\n      pop\n        /* \"#utility.yul\":334:483   */\n      swap2\n      swap1\n      pop\n      jump\t// out\n        /* \"#utility.yul\":489:609   */\n    tag_240:\n        /* \"#utility.yul\":561:584   */\n      tag_311\n        /* \"#utility.yul\":578:583   */\n      dup2\n        /* \"#utility.yul\":561:584   */\n      tag_239\n      jump\t// in\n    tag_311:\n        /* \"#utility.yul\":554:559   */\n      dup2\n        /* \"#utility.yul\":551:585   */\n      eq\n        /* \"#utility.yul\":541:603   */\n      tag_312\n      jumpi\n        /* \"#utility.yul\":599:600   */\n      0x00\n        /* \"#utility.yul\":596:597   */\n      0x00\n        /* \"#utility.yul\":589:601   */\n      revert\n        /* \"#utility.yul\":541:603   */\n    tag_312:\n        /* \"#utility.yul\":489:609   */\n      pop\n      jump\t// out\n        /* \"#utility.yul\":615:752   */\n    tag_241:\n        /* \"#utility.yul\":660:665   */\n      0x00\n        /* \"#utility.yul\":698:704   */\n      dup2\n        /* \"#utility.yul\":685:705   */\n      calldataload\n        /* \"#utility.yul\":676:705   */\n      swap1\n      pop\n        /* \"#utility.yul\":714:746   */\n      tag_314\n        /* \"#utility.yul\":740:745   */\n      dup2\n        /* \"#utility.yul\":714:746   */\n      tag_240\n      jump\t// in\n    tag_314:\n        /* \"#utility.yul\":615:752   */\n      swap3\n      swap2\n      pop\n      pop\n      jump\t// out\n        /* \"#utility.yul\":758:1085   */\n    tag_27:\n        /* \"#utility.yul\":816:822   */\n      0x00\n        /* \"#utility.yul\":865:867   */\n      0x20\n        /* \"#utility.yul\":853:862   */\n      dup3\n        /* \"#utility.yul\":844:851   */\n      dup5\n        /* \"#utility.yul\":840:863   */\n      sub\n        /* \"#utility.yul\":836:868   */\n      slt\n        /* \"#utility.yul\":833:952   */\n      iszero\n      tag_316\n      jumpi\n        /* \"#utility.yul\":871:950   */\n      tag_317\n      tag_237\n      jump\t// in\n    tag_317:\n        /* \"#utility.yul\":833:952   */\n    tag_316:\n        /* \"#utility.yul\":991:992   */\n      0x00\n        /* \"#utility.yul\":1016:1068   */\n      tag_318\n        /* \"#utility.yul\":1060:1067   */\n      dup5\n        /* \"#utility.yul\":1051:1057   */\n      dup3\n        /* \"#utility.yul\":1040:1049   */\n      dup6\n        /* \"#utility.yul\":1036:1058   */\n      add\n        /* \"#utility.yul\":1016:1068   */\n      tag_241\n      jump\t// in\n    tag_318:\n        /* \"#utility.yul\":1006:1068   */\n      swap2\n      pop\n        /* \"#utility.yul\":962:1078   */\n      pop\n        /* \"#utility.yul\":758:1085   */\n      swap3\n      swap2\n      pop\n      pop\n      jump\t// out\n        /* \"#utility.yul\":1091:1181   */\n    tag_242:\n        /* \"#utility.yul\":1125:1132   */\n      0x00\n        /* \"#utility.yul\":1168:1173   */\n      dup2\n        /* \"#utility.yul\":1161:1174   */\n      iszero\n        /* \"#utility.yul\":1154:1175   */\n      iszero\n        /* \"#utility.yul\":1143:1175   */\n      swap1\n      pop\n        /* \"#utility.yul\":1091:1181   */\n      swap2\n      swap1\n      pop\n      jump\t// out\n        /* \"#utility.yul\":1187:1296   */\n    tag_243:\n        /* \"#utility.yul\":1268:1289   */\n      tag_321\n        /* \"#utility.yul\":1283:1288   */\n      dup2\n        /* \"#utility.yul\":1268:1289   */\n      tag_242\n      jump\t// in\n    tag_321:\n        /* \"#utility.yul\":1263:1266   */\n      dup3\n        /* \"#utility.yul\":1256:1290   */\n      mstore\n        /* \"#utility.yul\":1187:1296   */\n      pop\n      pop\n      jump\t// out\n        /* \"#utility.yul\":1302:1512   */\n    tag_30:\n        /* \"#utility.yul\":1389:1393   */\n      0x00\n        /* \"#utility.yul\":1427:1429   */\n      0x20\n        /* \"#utility.yul\":1416:1425   */\n      dup3\n        /* \"#utility.yul\":1412:1430   */\n      add\n        /* \"#utility.yul\":1404:1430   */\n      swap1\n      pop\n        /* \"#utility.yul\":1440:1505   */\n      tag_323\n        /* \"#utility.yul\":1502:1503   */\n      0x00\n        /* \"#utility.yul\":1491:1500   */\n      dup4\n        /* \"#utility.yul\":1487:1504   */\n      add\n        /* \"#utility.yul\":1478:1484   */\n      dup5\n        /* \"#utility.yul\":1440:1505   */\n      tag_243\n      jump\t// in\n    tag_323:\n        /* \"#utility.yul\":1302:1512   */\n      swap3\n      swap2\n      pop\n      pop\n      jump\t// out\n        /* \"#utility.yul\":1518:1635   */\n    tag_244:\n        /* \"#utility.yul\":1627:1628   */\n      0x00\n        /* \"#utility.yul\":1624:1625   */\n      0x00\n        /* \"#utility.yul\":1617:1629   */\n      revert\n        /* \"#utility.yul\":1641:1758   */\n    tag_245:\n        /* \"#utility.yul\":1750:1751   */\n      0x00\n        /* \"#utility.yul\":1747:1748   */\n      0x00\n        /* \"#utility.yul\":1740:1752   */\n      revert\n        /* \"#utility.yul\":1764:1866   */\n    tag_246:\n        /* \"#utility.yul\":1805:1811   */\n      0x00\n        /* \"#utility.yul\":1856:1858   */\n      0x1f\n        /* \"#utility.yul\":1852:1859   */\n      not\n        /* \"#utility.yul\":1847:1849   */\n      0x1f\n        /* \"#utility.yul\":1840:1845   */\n      dup4\n        /* \"#utility.yul\":1836:1850   */\n      add\n        /* \"#utility.yul\":1832:1860   */\n      and\n        /* \"#utility.yul\":1822:1860   */\n      swap1\n      pop\n        /* \"#utility.yul\":1764:1866   */\n      swap2\n      swap1\n      pop\n      jump\t// out\n        /* \"#utility.yul\":1872:2052   */\n    tag_166:\n        /* \"#utility.yul\":1920:1997   */\n      0x4e487b7100000000000000000000000000000000000000000000000000000000\n        /* \"#utility.yul\":1917:1918   */\n      0x00\n        /* \"#utility.yul\":1910:1998   */\n      mstore\n        /* \"#utility.yul\":2017:2021   */\n      0x41\n        /* \"#utility.yul\":2014:2015   */\n      0x04\n        /* \"#utility.yul\":2007:2022   */\n      mstore\n        /* \"#utility.yul\":2041:2045   */\n      0x24\n        /* \"#utility.yul\":2038:2039   */\n      0x00\n        /* \"#utility.yul\":2031:2046   */\n      revert\n        /* \"#utility.yul\":2058:2339   */\n    tag_247:\n        /* \"#utility.yul\":2141:2168   */\n      tag_329\n        /* \"#utility.yul\":2163:2167   */\n      dup3\n        /* \"#utility.yul\":2141:2168   */\n      tag_246\n      jump\t// in\n    tag_329:\n        /* \"#utility.yul\":2133:2139   */\n      dup2\n        /* \"#utility.yul\":2129:2169   */\n      add\n        /* \"#utility.yul\":2271:2277   */\n      dup2\n        /* \"#utility.yul\":2259:2269   */\n      dup2\n        /* \"#utility.yul\":2256:2278   */\n      lt\n        /* \"#utility.yul\":2235:2253   */\n      0xffffffffffffffff\n        /* \"#utility.yul\":2223:2233   */\n      dup3\n        /* \"#utility.yul\":2220:2254   */\n      gt\n        /* \"#utility.yul\":2217:2279   */\n      or\n        /* \"#utility.yul\":2214:2302   */\n      iszero\n      tag_330\n      jumpi\n        /* \"#utility.yul\":2282:2300   */\n      tag_331\n      tag_166\n      jump\t// in\n    tag_331:\n        /* \"#utility.yul\":2214:2302   */\n    tag_330:\n        /* \"#utility.yul\":2322:2332   */\n      dup1\n        /* \"#utility.yul\":2318:2320   */\n      0x40\n        /* \"#utility.yul\":2311:2333   */\n      mstore\n        /* \"#utility.yul\":2101:2339   */\n      pop\n        /* \"#utility.yul\":2058:2339   */\n      pop\n      pop\n      jump\t// out\n        /* \"#utility.yul\":2345:2474   */\n    tag_248:\n        /* \"#utility.yul\":2379:2385   */\n      0x00\n        /* \"#utility.yul\":2406:2426   */\n      tag_333\n      tag_236\n      jump\t// in\n    tag_333:\n        /* \"#utility.yul\":2396:2426   */\n      swap1\n      pop\n        /* \"#utility.yul\":2435:2468   */\n      tag_334\n        /* \"#utility.yul\":2463:2467   */\n      dup3\n        /* \"#utility.yul\":2455:2461   */\n      dup3\n        /* \"#utility.yul\":2435:2468   */\n      tag_247\n      jump\t// in\n    tag_334:\n        /* \"#utility.yul\":2345:2474   */\n      swap2\n      swap1\n      pop\n      jump\t// out\n        /* \"#utility.yul\":2480:2788   */\n    tag_249:\n        /* \"#utility.yul\":2542:2546   */\n      0x00\n        /* \"#utility.yul\":2632:2650   */\n      0xffffffffffffffff\n        /* \"#utility.yul\":2624:2630   */\n      dup3\n        /* \"#utility.yul\":2621:2651   */\n      gt\n        /* \"#utility.yul\":2618:2674   */\n      iszero\n      tag_336\n      jumpi\n        /* \"#utility.yul\":2654:2672   */\n      tag_337\n      tag_166\n      jump\t// in\n    tag_337:\n        /* \"#utility.yul\":2618:2674   */\n    tag_336:\n        /* \"#utility.yul\":2692:2721   */\n      tag_338\n        /* \"#utility.yul\":2714:2720   */\n      dup3\n        /* \"#utility.yul\":2692:2721   */\n      tag_246\n      jump\t// in\n    tag_338:\n        /* \"#utility.yul\":2684:2721   */\n      swap1\n      pop\n        /* \"#utility.yul\":2776:2780   */\n      0x20\n        /* \"#utility.yul\":2770:2774   */\n      dup2\n        /* \"#utility.yul\":2766:2781   */\n      add\n        /* \"#utility.yul\":2758:2781   */\n      swap1\n      pop\n        /* \"#utility.yul\":2480:2788   */\n      swap2\n      swap1\n      pop\n      jump\t// out\n        /* \"#utility.yul\":2794:2942   */\n    tag_250:\n        /* \"#utility.yul\":2892:2898   */\n      dup3\n        /* \"#utility.yul\":2887:2890   */\n      dup2\n        /* \"#utility.yul\":2882:2885   */\n      dup4\n        /* \"#utility.yul\":2869:2899   */\n      calldatacopy\n        /* \"#utility.yul\":2933:2934   */\n      0x00\n        /* \"#utility.yul\":2924:2930   */\n      dup4\n        /* \"#utility.yul\":2919:2922   */\n      dup4\n        /* \"#utility.yul\":2915:2931   */\n      add\n        /* \"#utility.yul\":2908:2935   */\n      mstore\n        /* \"#utility.yul\":2794:2942   */\n      pop\n      pop\n      pop\n      jump\t// out\n        /* \"#utility.yul\":2948:3373   */\n    tag_251:\n        /* \"#utility.yul\":3026:3031   */\n      0x00\n        /* \"#utility.yul\":3051:3117   */\n      tag_341\n        /* \"#utility.yul\":3067:3116   */\n      tag_342\n        /* \"#utility.yul\":3109:3115   */\n      dup5\n        /* \"#utility.yul\":3067:3116   */\n      tag_249\n      jump\t// in\n    tag_342:\n        /* \"#utility.yul\":3051:3117   */\n      tag_248\n      jump\t// in\n    tag_341:\n        /* \"#utility.yul\":3042:3117   */\n      swap1\n      pop\n        /* \"#utility.yul\":3140:3146   */\n      dup3\n        /* \"#utility.yul\":3133:3138   */\n      dup2\n        /* \"#utility.yul\":3126:3147   */\n      mstore\n        /* \"#utility.yul\":3178:3182   */\n      0x20\n        /* \"#utility.yul\":3171:3176   */\n      dup2\n        /* \"#utility.yul\":3167:3183   */\n      add\n        /* \"#utility.yul\":3216:3219   */\n      dup5\n        /* \"#utility.yul\":3207:3213   */\n      dup5\n        /* \"#utility.yul\":3202:3205   */\n      dup5\n        /* \"#utility.yul\":3198:3214   */\n      add\n        /* \"#utility.yul\":3195:3220   */\n      gt\n        /* \"#utility.yul\":3192:3304   */\n      iszero\n      tag_343\n      jumpi\n        /* \"#utility.yul\":3223:3302   */\n      tag_344\n      tag_245\n      jump\t// in\n    tag_344:\n        /* \"#utility.yul\":3192:3304   */\n    tag_343:\n        /* \"#utility.yul\":3313:3367   */\n      tag_345\n        /* \"#utility.yul\":3360:3366   */\n      dup5\n        /* \"#utility.yul\":3355:3358   */\n      dup3\n        /* \"#utility.yul\":3350:3353   */\n      dup6\n        /* \"#utility.yul\":3313:3367   */\n      tag_250\n      jump\t// in\n    tag_345:\n        /* \"#utility.yul\":3032:3373   */\n      pop\n        /* \"#utility.yul\":2948:3373   */\n      swap4\n      swap3\n      pop\n      pop\n      pop\n      jump\t// out\n        /* \"#utility.yul\":3393:3733   */\n    tag_252:\n        /* \"#utility.yul\":3449:3454   */\n      0x00\n        /* \"#utility.yul\":3498:3501   */\n      dup3\n        /* \"#utility.yul\":3491:3495   */\n      0x1f\n        /* \"#utility.yul\":3483:3489   */\n      dup4\n        /* \"#utility.yul\":3479:3496   */\n      add\n        /* \"#utility.yul\":3475:3502   */\n      slt\n        /* \"#utility.yul\":3465:3587   */\n      tag_347\n      jumpi\n        /* \"#utility.yul\":3506:3585   */\n      tag_348\n      tag_244\n      jump\t// in\n    tag_348:\n        /* \"#utility.yul\":3465:3587   */\n    tag_347:\n        /* \"#utility.yul\":3623:3629   */\n      dup2\n        /* \"#utility.yul\":3610:3630   */\n      calldataload\n        /* \"#utility.yul\":3648:3727   */\n      tag_349\n        /* \"#utility.yul\":3723:3726   */\n      dup5\n        /* \"#utility.yul\":3715:3721   */\n      dup3\n        /* \"#utility.yul\":3708:3712   */\n      0x20\n        /* \"#utility.yul\":3700:3706   */\n      dup7\n        /* \"#utility.yul\":3696:3713   */\n      add\n        /* \"#utility.yul\":3648:3727   */\n      tag_251\n      jump\t// in\n    tag_349:\n        /* \"#utility.yul\":3639:3727   */\n      swap2\n      pop\n        /* \"#utility.yul\":3455:3733   */\n      pop\n        /* \"#utility.yul\":3393:3733   */\n      swap3\n      swap2\n      pop\n      pop\n      jump\t// out\n        /* \"#utility.yul\":3739:4248   */\n    tag_33:\n        /* \"#utility.yul\":3808:3814   */\n      0x00\n        /* \"#utility.yul\":3857:3859   */\n      0x20\n        /* \"#utility.yul\":3845:3854   */\n      dup3\n        /* \"#utility.yul\":3836:3843   */\n      dup5\n        /* \"#utility.yul\":3832:3855   */\n      sub\n        /* \"#utility.yul\":3828:3860   */\n      slt\n        /* \"#utility.yul\":3825:3944   */\n      iszero\n      tag_351\n      jumpi\n        /* \"#utility.yul\":3863:3942   */\n      tag_352\n      tag_237\n      jump\t// in\n    tag_352:\n        /* \"#utility.yul\":3825:3944   */\n    tag_351:\n        /* \"#utility.yul\":4011:4012   */\n      0x00\n        /* \"#utility.yul\":4000:4009   */\n      dup3\n        /* \"#utility.yul\":3996:4013   */\n      add\n        /* \"#utility.yul\":3983:4014   */\n      calldataload\n        /* \"#utility.yul\":4041:4059   */\n      0xffffffffffffffff\n        /* \"#utility.yul\":4033:4039   */\n      dup2\n        /* \"#utility.yul\":4030:4060   */\n      gt\n        /* \"#utility.yul\":4027:4144   */\n      iszero\n      tag_353\n      jumpi\n        /* \"#utility.yul\":4063:4142   */\n      tag_354\n      tag_238\n      jump\t// in\n    tag_354:\n        /* \"#utility.yul\":4027:4144   */\n    tag_353:\n        /* \"#utility.yul\":4168:4231   */\n      tag_355\n        /* \"#utility.yul\":4223:4230   */\n      dup5\n        /* \"#utility.yul\":4214:4220   */\n      dup3\n        /* \"#utility.yul\":4203:4212   */\n      dup6\n        /* \"#utility.yul\":4199:4221   */\n      add\n        /* \"#utility.yul\":4168:4231   */\n      tag_252\n      jump\t// in\n    tag_355:\n        /* \"#utility.yul\":4158:4231   */\n      swap2\n      pop\n        /* \"#utility.yul\":3954:4241   */\n      pop\n        /* \"#utility.yul\":3739:4248   */\n      swap3\n      swap2\n      pop\n      pop\n      jump\t// out\n        /* \"#utility.yul\":4254:4331   */\n    tag_253:\n        /* \"#utility.yul\":4291:4298   */\n      0x00\n        /* \"#utility.yul\":4320:4325   */\n      dup2\n        /* \"#utility.yul\":4309:4325   */\n      swap1\n      pop\n        /* \"#utility.yul\":4254:4331   */\n      swap2\n      swap1\n      pop\n      jump\t// out\n        /* \"#utility.yul\":4337:4455   */\n    tag_254:\n        /* \"#utility.yul\":4424:4448   */\n      tag_358\n        /* \"#utility.yul\":4442:4447   */\n      dup2\n        /* \"#utility.yul\":4424:4448   */\n      tag_253\n      jump\t// in\n    tag_358:\n        /* \"#utility.yul\":4419:4422   */\n      dup3\n        /* \"#utility.yul\":4412:4449   */\n      mstore\n        /* \"#utility.yul\":4337:4455   */\n      pop\n      pop\n      jump\t// out\n        /* \"#utility.yul\":4461:4683   */\n    tag_36:\n        /* \"#utility.yul\":4554:4558   */\n      0x00\n        /* \"#utility.yul\":4592:4594   */\n      0x20\n        /* \"#utility.yul\":4581:4590   */\n      dup3\n        /* \"#utility.yul\":4577:4595   */\n      add\n        /* \"#utility.yul\":4569:4595   */\n      swap1\n      pop\n        /* \"#utility.yul\":4605:4676   */\n      tag_360\n        /* \"#utility.yul\":4673:4674   */\n      0x00\n        /* \"#utility.yul\":4662:4671   */\n      dup4\n        /* \"#utility.yul\":4658:4675   */\n      add\n        /* \"#utility.yul\":4649:4655   */\n      dup5\n        /* \"#utility.yul\":4605:4676   */\n      tag_254\n      jump\t// in\n    tag_360:\n        /* \"#utility.yul\":4461:4683   */\n      swap3\n      swap2\n      pop\n      pop\n      jump\t// out\n        /* \"#utility.yul\":4689:4811   */\n    tag_255:\n        /* \"#utility.yul\":4762:4786   */\n      tag_362\n        /* \"#utility.yul\":4780:4785   */\n      dup2\n        /* \"#utility.yul\":4762:4786   */\n      tag_253\n      jump\t// in\n    tag_362:\n        /* \"#utility.yul\":4755:4760   */\n      dup2\n        /* \"#utility.yul\":4752:4787   */\n      eq\n        /* \"#utility.yul\":4742:4805   */\n      tag_363\n      jumpi\n        /* \"#utility.yul\":4801:4802   */\n      0x00\n        /* \"#utility.yul\":4798:4799   */\n      0x00\n        /* \"#utility.yul\":4791:4803   */\n      revert\n        /* \"#utility.yul\":4742:4805   */\n    tag_363:\n        /* \"#utility.yul\":4689:4811   */\n      pop\n      jump\t// out\n        /* \"#utility.yul\":4817:4956   */\n    tag_256:\n        /* \"#utility.yul\":4863:4868   */\n      0x00\n        /* \"#utility.yul\":4901:4907   */\n      dup2\n        /* \"#utility.yul\":4888:4908   */\n      calldataload\n        /* \"#utility.yul\":4879:4908   */\n      swap1\n      pop\n        /* \"#utility.yul\":4917:4950   */\n      tag_365\n        /* \"#utility.yul\":4944:4949   */\n      dup2\n        /* \"#utility.yul\":4917:4950   */\n      tag_255\n      jump\t// in\n    tag_365:\n        /* \"#utility.yul\":4817:4956   */\n      swap3\n      swap2\n      pop\n      pop\n      jump\t// out\n        /* \"#utility.yul\":4962:5616   */\n    tag_39:\n        /* \"#utility.yul\":5040:5046   */\n      0x00\n        /* \"#utility.yul\":5048:5054   */\n      0x00\n        /* \"#utility.yul\":5097:5099   */\n      0x40\n        /* \"#utility.yul\":5085:5094   */\n      dup4\n        /* \"#utility.yul\":5076:5083   */\n      dup6\n        /* \"#utility.yul\":5072:5095   */\n      sub\n        /* \"#utility.yul\":5068:5100   */\n      slt\n        /* \"#utility.yul\":5065:5184   */\n      iszero\n      tag_367\n      jumpi\n        /* \"#utility.yul\":5103:5182   */\n      tag_368\n      tag_237\n      jump\t// in\n    tag_368:\n        /* \"#utility.yul\":5065:5184   */\n    tag_367:\n        /* \"#utility.yul\":5251:5252   */\n      0x00\n        /* \"#utility.yul\":5240:5249   */\n      dup4\n        /* \"#utility.yul\":5236:5253   */\n      add\n        /* \"#utility.yul\":5223:5254   */\n      calldataload\n        /* \"#utility.yul\":5281:5299   */\n      0xffffffffffffffff\n        /* \"#utility.yul\":5273:5279   */\n      dup2\n        /* \"#utility.yul\":5270:5300   */\n      gt\n        /* \"#utility.yul\":5267:5384   */\n      iszero\n      tag_369\n      jumpi\n        /* \"#utility.yul\":5303:5382   */\n      tag_370\n      tag_238\n      jump\t// in\n    tag_370:\n        /* \"#utility.yul\":5267:5384   */\n    tag_369:\n        /* \"#utility.yul\":5408:5471   */\n      tag_371\n        /* \"#utility.yul\":5463:5470   */\n      dup6\n        /* \"#utility.yul\":5454:5460   */\n      dup3\n        /* \"#utility.yul\":5443:5452   */\n      dup7\n        /* \"#utility.yul\":5439:5461   */\n      add\n        /* \"#utility.yul\":5408:5471   */\n      tag_252\n      jump\t// in\n    tag_371:\n        /* \"#utility.yul\":5398:5471   */\n      swap3\n      pop\n        /* \"#utility.yul\":5194:5481   */\n      pop\n        /* \"#utility.yul\":5520:5522   */\n      0x20\n        /* \"#utility.yul\":5546:5599   */\n      tag_372\n        /* \"#utility.yul\":5591:5598   */\n      dup6\n        /* \"#utility.yul\":5582:5588   */\n      dup3\n        /* \"#utility.yul\":5571:5580   */\n      dup7\n        /* \"#utility.yul\":5567:5589   */\n      add\n        /* \"#utility.yul\":5546:5599   */\n      tag_256\n      jump\t// in\n    tag_372:\n        /* \"#utility.yul\":5536:5599   */\n      swap2\n      pop\n        /* \"#utility.yul\":5491:5609   */\n      pop\n        /* \"#utility.yul\":4962:5616   */\n      swap3\n      pop\n      swap3\n      swap1\n      pop\n      jump\t// out\n        /* \"#utility.yul\":5622:5748   */\n    tag_257:\n        /* \"#utility.yul\":5659:5666   */\n      0x00\n        /* \"#utility.yul\":5699:5741   */\n      0xffffffffffffffffffffffffffffffffffffffff\n        /* \"#utility.yul\":5692:5697   */\n      dup3\n        /* \"#utility.yul\":5688:5742   */\n      and\n        /* \"#utility.yul\":5677:5742   */\n      swap1\n      pop\n        /* \"#utility.yul\":5622:5748   */\n      swap2\n      swap1\n      pop\n      jump\t// out\n        /* \"#utility.yul\":5754:5850   */\n    tag_258:\n        /* \"#utility.yul\":5791:5798   */\n      0x00\n        /* \"#utility.yul\":5820:5844   */\n      tag_375\n        /* \"#utility.yul\":5838:5843   */\n      dup3\n        /* \"#utility.yul\":5820:5844   */\n      tag_257\n      jump\t// in\n    tag_375:\n        /* \"#utility.yul\":5809:5844   */\n      swap1\n      pop\n        /* \"#utility.yul\":5754:5850   */\n      swap2\n      swap1\n      pop\n      jump\t// out\n        /* \"#utility.yul\":5856:5974   */\n    tag_259:\n        /* \"#utility.yul\":5943:5967   */\n      tag_377\n        /* \"#utility.yul\":5961:5966   */\n      dup2\n        /* \"#utility.yul\":5943:5967   */\n      tag_258\n      jump\t// in\n    tag_377:\n        /* \"#utility.yul\":5938:5941   */\n      dup3\n        /* \"#utility.yul\":5931:5968   */\n      mstore\n        /* \"#utility.yul\":5856:5974   */\n      pop\n      pop\n      jump\t// out\n        /* \"#utility.yul\":5980:6202   */\n    tag_44:\n        /* \"#utility.yul\":6073:6077   */\n      0x00\n        /* \"#utility.yul\":6111:6113   */\n      0x20\n        /* \"#utility.yul\":6100:6109   */\n      dup3\n        /* \"#utility.yul\":6096:6114   */\n      add\n        /* \"#utility.yul\":6088:6114   */\n      swap1\n      pop\n        /* \"#utility.yul\":6124:6195   */\n      tag_379\n        /* \"#utility.yul\":6192:6193   */\n      0x00\n        /* \"#utility.yul\":6181:6190   */\n      dup4\n        /* \"#utility.yul\":6177:6194   */\n      add\n        /* \"#utility.yul\":6168:6174   */\n      dup5\n        /* \"#utility.yul\":6124:6195   */\n      tag_259\n      jump\t// in\n    tag_379:\n        /* \"#utility.yul\":5980:6202   */\n      swap3\n      swap2\n      pop\n      pop\n      jump\t// out\n        /* \"#utility.yul\":6208:6537   */\n    tag_50:\n        /* \"#utility.yul\":6267:6273   */\n      0x00\n        /* \"#utility.yul\":6316:6318   */\n      0x20\n        /* \"#utility.yul\":6304:6313   */\n      dup3\n        /* \"#utility.yul\":6295:6302   */\n      dup5\n        /* \"#utility.yul\":6291:6314   */\n      sub\n        /* \"#utility.yul\":6287:6319   */\n      slt\n        /* \"#utility.yul\":6284:6403   */\n      iszero\n      tag_381\n      jumpi\n        /* \"#utility.yul\":6322:6401   */\n      tag_382\n      tag_237\n      jump\t// in\n    tag_382:\n        /* \"#utility.yul\":6284:6403   */\n    tag_381:\n        /* \"#utility.yul\":6442:6443   */\n      0x00\n        /* \"#utility.yul\":6467:6520   */\n      tag_383\n        /* \"#utility.yul\":6512:6519   */\n      dup5\n        /* \"#utility.yul\":6503:6509   */\n      dup3\n        /* \"#utility.yul\":6492:6501   */\n      dup6\n        /* \"#utility.yul\":6488:6510   */\n      add\n        /* \"#utility.yul\":6467:6520   */\n      tag_256\n      jump\t// in\n    tag_383:\n        /* \"#utility.yul\":6457:6520   */\n      swap2\n      pop\n        /* \"#utility.yul\":6413:6530   */\n      pop\n        /* \"#utility.yul\":6208:6537   */\n      swap3\n      swap2\n      pop\n      pop\n      jump\t// out\n        /* \"#utility.yul\":6543:6642   */\n    tag_260:\n        /* \"#utility.yul\":6595:6601   */\n      0x00\n        /* \"#utility.yul\":6629:6634   */\n      dup2\n        /* \"#utility.yul\":6623:6635   */\n      mload\n        /* \"#utility.yul\":6613:6635   */\n      swap1\n      pop\n        /* \"#utility.yul\":6543:6642   */\n      swap2\n      swap1\n      pop\n      jump\t// out\n        /* \"#utility.yul\":6648:6817   */\n    tag_261:\n        /* \"#utility.yul\":6732:6743   */\n      0x00\n        /* \"#utility.yul\":6766:6772   */\n      dup3\n        /* \"#utility.yul\":6761:6764   */\n      dup3\n        /* \"#utility.yul\":6754:6773   */\n      mstore\n        /* \"#utility.yul\":6806:6810   */\n      0x20\n        /* \"#utility.yul\":6801:6804   */\n      dup3\n        /* \"#utility.yul\":6797:6811   */\n      add\n        /* \"#utility.yul\":6782:6811   */\n      swap1\n      pop\n        /* \"#utility.yul\":6648:6817   */\n      swap3\n      swap2\n      pop\n      pop\n      jump\t// out\n        /* \"#utility.yul\":6823:6962   */\n    tag_262:\n        /* \"#utility.yul\":6912:6918   */\n      dup3\n        /* \"#utility.yul\":6907:6910   */\n      dup2\n        /* \"#utility.yul\":6902:6905   */\n      dup4\n        /* \"#utility.yul\":6896:6919   */\n      mcopy\n        /* \"#utility.yul\":6953:6954   */\n      0x00\n        /* \"#utility.yul\":6944:6950   */\n      dup4\n        /* \"#utility.yul\":6939:6942   */\n      dup4\n        /* \"#utility.yul\":6935:6951   */\n      add\n        /* \"#utility.yul\":6928:6955   */\n      mstore\n        /* \"#utility.yul\":6823:6962   */\n      pop\n      pop\n      pop\n      jump\t// out\n        /* \"#utility.yul\":6968:7345   */\n    tag_263:\n        /* \"#utility.yul\":7056:7059   */\n      0x00\n        /* \"#utility.yul\":7084:7123   */\n      tag_388\n        /* \"#utility.yul\":7117:7122   */\n      dup3\n        /* \"#utility.yul\":7084:7123   */\n      tag_260\n      jump\t// in\n    tag_388:\n        /* \"#utility.yul\":7139:7210   */\n      tag_389\n        /* \"#utility.yul\":7203:7209   */\n      dup2\n        /* \"#utility.yul\":7198:7201   */\n      dup6\n        /* \"#utility.yul\":7139:7210   */\n      tag_261\n      jump\t// in\n    tag_389:\n        /* \"#utility.yul\":7132:7210   */\n      swap4\n      pop\n        /* \"#utility.yul\":7219:7284   */\n      tag_390\n        /* \"#utility.yul\":7277:7283   */\n      dup2\n        /* \"#utility.yul\":7272:7275   */\n      dup6\n        /* \"#utility.yul\":7265:7269   */\n      0x20\n        /* \"#utility.yul\":7258:7263   */\n      dup7\n        /* \"#utility.yul\":7254:7270   */\n      add\n        /* \"#utility.yul\":7219:7284   */\n      tag_262\n      jump\t// in\n    tag_390:\n        /* \"#utility.yul\":7309:7338   */\n      tag_391\n        /* \"#utility.yul\":7331:7337   */\n      dup2\n        /* \"#utility.yul\":7309:7338   */\n      tag_246\n      jump\t// in\n    tag_391:\n        /* \"#utility.yul\":7304:7307   */\n      dup5\n        /* \"#utility.yul\":7300:7339   */\n      add\n        /* \"#utility.yul\":7293:7339   */\n      swap2\n      pop\n        /* \"#utility.yul\":7060:7345   */\n      pop\n        /* \"#utility.yul\":6968:7345   */\n      swap3\n      swap2\n      pop\n      pop\n      jump\t// out\n        /* \"#utility.yul\":7351:7774   */\n    tag_56:\n        /* \"#utility.yul\":7492:7496   */\n      0x00\n        /* \"#utility.yul\":7530:7532   */\n      0x40\n        /* \"#utility.yul\":7519:7528   */\n      dup3\n        /* \"#utility.yul\":7515:7533   */\n      add\n        /* \"#utility.yul\":7507:7533   */\n      swap1\n      pop\n        /* \"#utility.yul\":7543:7614   */\n      tag_393\n        /* \"#utility.yul\":7611:7612   */\n      0x00\n        /* \"#utility.yul\":7600:7609   */\n      dup4\n        /* \"#utility.yul\":7596:7613   */\n      add\n        /* \"#utility.yul\":7587:7593   */\n      dup6\n        /* \"#utility.yul\":7543:7614   */\n      tag_254\n      jump\t// in\n    tag_393:\n        /* \"#utility.yul\":7661:7670   */\n      dup2\n        /* \"#utility.yul\":7655:7659   */\n      dup2\n        /* \"#utility.yul\":7651:7671   */\n      sub\n        /* \"#utility.yul\":7646:7648   */\n      0x20\n        /* \"#utility.yul\":7635:7644   */\n      dup4\n        /* \"#utility.yul\":7631:7649   */\n      add\n        /* \"#utility.yul\":7624:7672   */\n      mstore\n        /* \"#utility.yul\":7689:7767   */\n      tag_394\n        /* \"#utility.yul\":7762:7766   */\n      dup2\n        /* \"#utility.yul\":7753:7759   */\n      dup5\n        /* \"#utility.yul\":7689:7767   */\n      tag_263\n      jump\t// in\n    tag_394:\n        /* \"#utility.yul\":7681:7767   */\n      swap1\n      pop\n        /* \"#utility.yul\":7351:7774   */\n      swap4\n      swap3\n      pop\n      pop\n      pop\n      jump\t// out\n        /* \"#utility.yul\":7780:7897   */\n    tag_264:\n        /* \"#utility.yul\":7889:7890   */\n      0x00\n        /* \"#utility.yul\":7886:7887   */\n      0x00\n        /* \"#utility.yul\":7879:7891   */\n      revert\n        /* \"#utility.yul\":7903:8020   */\n    tag_265:\n        /* \"#utility.yul\":8012:8013   */\n      0x00\n        /* \"#utility.yul\":8009:8010   */\n      0x00\n        /* \"#utility.yul\":8002:8014   */\n      revert\n        /* \"#utility.yul\":8039:8591   */\n    tag_266:\n        /* \"#utility.yul\":8096:8104   */\n      0x00\n        /* \"#utility.yul\":8106:8112   */\n      0x00\n        /* \"#utility.yul\":8156:8159   */\n      dup4\n        /* \"#utility.yul\":8149:8153   */\n      0x1f\n        /* \"#utility.yul\":8141:8147   */\n      dup5\n        /* \"#utility.yul\":8137:8154   */\n      add\n        /* \"#utility.yul\":8133:8160   */\n      slt\n        /* \"#utility.yul\":8123:8245   */\n      tag_398\n      jumpi\n        /* \"#utility.yul\":8164:8243   */\n      tag_399\n      tag_244\n      jump\t// in\n    tag_399:\n        /* \"#utility.yul\":8123:8245   */\n    tag_398:\n        /* \"#utility.yul\":8277:8283   */\n      dup3\n        /* \"#utility.yul\":8264:8284   */\n      calldataload\n        /* \"#utility.yul\":8254:8284   */\n      swap1\n      pop\n        /* \"#utility.yul\":8307:8325   */\n      0xffffffffffffffff\n        /* \"#utility.yul\":8299:8305   */\n      dup2\n        /* \"#utility.yul\":8296:8326   */\n      gt\n        /* \"#utility.yul\":8293:8410   */\n      iszero\n      tag_400\n      jumpi\n        /* \"#utility.yul\":8329:8408   */\n      tag_401\n      tag_264\n      jump\t// in\n    tag_401:\n        /* \"#utility.yul\":8293:8410   */\n    tag_400:\n        /* \"#utility.yul\":8443:8447   */\n      0x20\n        /* \"#utility.yul\":8435:8441   */\n      dup4\n        /* \"#utility.yul\":8431:8448   */\n      add\n        /* \"#utility.yul\":8419:8448   */\n      swap2\n      pop\n        /* \"#utility.yul\":8497:8500   */\n      dup4\n        /* \"#utility.yul\":8489:8493   */\n      0x01\n        /* \"#utility.yul\":8481:8487   */\n      dup3\n        /* \"#utility.yul\":8477:8494   */\n      mul\n        /* \"#utility.yul\":8467:8475   */\n      dup4\n        /* \"#utility.yul\":8463:8495   */\n      add\n        /* \"#utility.yul\":8460:8501   */\n      gt\n        /* \"#utility.yul\":8457:8585   */\n      iszero\n      tag_402\n      jumpi\n        /* \"#utility.yul\":8504:8583   */\n      tag_403\n      tag_265\n      jump\t// in\n    tag_403:\n        /* \"#utility.yul\":8457:8585   */\n    tag_402:\n        /* \"#utility.yul\":8039:8591   */\n      swap3\n      pop\n      swap3\n      swap1\n      pop\n      jump\t// out\n        /* \"#utility.yul\":8597:9467   */\n    tag_61:\n        /* \"#utility.yul\":8687:8693   */\n      0x00\n        /* \"#utility.yul\":8695:8701   */\n      0x00\n        /* \"#utility.yul\":8703:8709   */\n      0x00\n        /* \"#utility.yul\":8711:8717   */\n      0x00\n        /* \"#utility.yul\":8760:8762   */\n      0x40\n        /* \"#utility.yul\":8748:8757   */\n      dup6\n        /* \"#utility.yul\":8739:8746   */\n      dup8\n        /* \"#utility.yul\":8735:8758   */\n      sub\n        /* \"#utility.yul\":8731:8763   */\n      slt\n        /* \"#utility.yul\":8728:8847   */\n      iszero\n      tag_405\n      jumpi\n        /* \"#utility.yul\":8766:8845   */\n      tag_406\n      tag_237\n      jump\t// in\n    tag_406:\n        /* \"#utility.yul\":8728:8847   */\n    tag_405:\n        /* \"#utility.yul\":8914:8915   */\n      0x00\n        /* \"#utility.yul\":8903:8912   */\n      dup6\n        /* \"#utility.yul\":8899:8916   */\n      add\n        /* \"#utility.yul\":8886:8917   */\n      calldataload\n        /* \"#utility.yul\":8944:8962   */\n      0xffffffffffffffff\n        /* \"#utility.yul\":8936:8942   */\n      dup2\n        /* \"#utility.yul\":8933:8963   */\n      gt\n        /* \"#utility.yul\":8930:9047   */\n      iszero\n      tag_407\n      jumpi\n        /* \"#utility.yul\":8966:9045   */\n      tag_408\n      tag_238\n      jump\t// in\n    tag_408:\n        /* \"#utility.yul\":8930:9047   */\n    tag_407:\n        /* \"#utility.yul\":9079:9143   */\n      tag_409\n        /* \"#utility.yul\":9135:9142   */\n      dup8\n        /* \"#utility.yul\":9126:9132   */\n      dup3\n        /* \"#utility.yul\":9115:9124   */\n      dup9\n        /* \"#utility.yul\":9111:9133   */\n      add\n        /* \"#utility.yul\":9079:9143   */\n      tag_266\n      jump\t// in\n    tag_409:\n        /* \"#utility.yul\":9061:9143   */\n      swap5\n      pop\n      swap5\n      pop\n        /* \"#utility.yul\":8857:9153   */\n      pop\n        /* \"#utility.yul\":9220:9222   */\n      0x20\n        /* \"#utility.yul\":9209:9218   */\n      dup6\n        /* \"#utility.yul\":9205:9223   */\n      add\n        /* \"#utility.yul\":9192:9224   */\n      calldataload\n        /* \"#utility.yul\":9251:9269   */\n      0xffffffffffffffff\n        /* \"#utility.yul\":9243:9249   */\n      dup2\n        /* \"#utility.yul\":9240:9270   */\n      gt\n        /* \"#utility.yul\":9237:9354   */\n      iszero\n      tag_410\n      jumpi\n        /* \"#utility.yul\":9273:9352   */\n      tag_411\n      tag_238\n      jump\t// in\n    tag_411:\n        /* \"#utility.yul\":9237:9354   */\n    tag_410:\n        /* \"#utility.yul\":9386:9450   */\n      tag_412\n        /* \"#utility.yul\":9442:9449   */\n      dup8\n        /* \"#utility.yul\":9433:9439   */\n      dup3\n        /* \"#utility.yul\":9422:9431   */\n      dup9\n        /* \"#utility.yul\":9418:9440   */\n      add\n        /* \"#utility.yul\":9386:9450   */\n      tag_266\n      jump\t// in\n    tag_412:\n        /* \"#utility.yul\":9368:9450   */\n      swap3\n      pop\n      swap3\n      pop\n        /* \"#utility.yul\":9163:9460   */\n      pop\n        /* \"#utility.yul\":8597:9467   */\n      swap3\n      swap6\n      swap2\n      swap5\n      pop\n      swap3\n      pop\n      jump\t// out\n        /* \"#utility.yul\":9473:9623   */\n    tag_267:\n        /* \"#utility.yul\":9510:9517   */\n      0x00\n        /* \"#utility.yul\":9550:9616   */\n      0xffffffffffffffffffff00000000000000000000000000000000000000000000\n        /* \"#utility.yul\":9543:9548   */\n      dup3\n        /* \"#utility.yul\":9539:9617   */\n      and\n        /* \"#utility.yul\":9528:9617   */\n      swap1\n      pop\n        /* \"#utility.yul\":9473:9623   */\n      swap2\n      swap1\n      pop\n      jump\t// out\n        /* \"#utility.yul\":9629:9747   */\n    tag_268:\n        /* \"#utility.yul\":9716:9740   */\n      tag_415\n        /* \"#utility.yul\":9734:9739   */\n      dup2\n        /* \"#utility.yul\":9716:9740   */\n      tag_267\n      jump\t// in\n    tag_415:\n        /* \"#utility.yul\":9711:9714   */\n      dup3\n        /* \"#utility.yul\":9704:9741   */\n      mstore\n        /* \"#utility.yul\":9629:9747   */\n      pop\n      pop\n      jump\t// out\n        /* \"#utility.yul\":9753:9975   */\n    tag_69:\n        /* \"#utility.yul\":9846:9850   */\n      0x00\n        /* \"#utility.yul\":9884:9886   */\n      0x20\n        /* \"#utility.yul\":9873:9882   */\n      dup3\n        /* \"#utility.yul\":9869:9887   */\n      add\n        /* \"#utility.yul\":9861:9887   */\n      swap1\n      pop\n        /* \"#utility.yul\":9897:9968   */\n      tag_417\n        /* \"#utility.yul\":9965:9966   */\n      0x00\n        /* \"#utility.yul\":9954:9963   */\n      dup4\n        /* \"#utility.yul\":9950:9967   */\n      add\n        /* \"#utility.yul\":9941:9947   */\n      dup5\n        /* \"#utility.yul\":9897:9968   */\n      tag_268\n      jump\t// in\n    tag_417:\n        /* \"#utility.yul\":9753:9975   */\n      swap3\n      swap2\n      pop\n      pop\n      jump\t// out\n        /* \"#utility.yul\":9995:10548   */\n    tag_269:\n        /* \"#utility.yul\":10053:10061   */\n      0x00\n        /* \"#utility.yul\":10063:10069   */\n      0x00\n        /* \"#utility.yul\":10113:10116   */\n      dup4\n        /* \"#utility.yul\":10106:10110   */\n      0x1f\n        /* \"#utility.yul\":10098:10104   */\n      dup5\n        /* \"#utility.yul\":10094:10111   */\n      add\n        /* \"#utility.yul\":10090:10117   */\n      slt\n        /* \"#utility.yul\":10080:10202   */\n      tag_419\n      jumpi\n        /* \"#utility.yul\":10121:10200   */\n      tag_420\n      tag_244\n      jump\t// in\n    tag_420:\n        /* \"#utility.yul\":10080:10202   */\n    tag_419:\n        /* \"#utility.yul\":10234:10240   */\n      dup3\n        /* \"#utility.yul\":10221:10241   */\n      calldataload\n        /* \"#utility.yul\":10211:10241   */\n      swap1\n      pop\n        /* \"#utility.yul\":10264:10282   */\n      0xffffffffffffffff\n        /* \"#utility.yul\":10256:10262   */\n      dup2\n        /* \"#utility.yul\":10253:10283   */\n      gt\n        /* \"#utility.yul\":10250:10367   */\n      iszero\n      tag_421\n      jumpi\n        /* \"#utility.yul\":10286:10365   */\n      tag_422\n      tag_264\n      jump\t// in\n    tag_422:\n        /* \"#utility.yul\":10250:10367   */\n    tag_421:\n        /* \"#utility.yul\":10400:10404   */\n      0x20\n        /* \"#utility.yul\":10392:10398   */\n      dup4\n        /* \"#utility.yul\":10388:10405   */\n      add\n        /* \"#utility.yul\":10376:10405   */\n      swap2\n      pop\n        /* \"#utility.yul\":10454:10457   */\n      dup4\n        /* \"#utility.yul\":10446:10450   */\n      0x01\n        /* \"#utility.yul\":10438:10444   */\n      dup3\n        /* \"#utility.yul\":10434:10451   */\n      mul\n        /* \"#utility.yul\":10424:10432   */\n      dup4\n        /* \"#utility.yul\":10420:10452   */\n      add\n        /* \"#utility.yul\":10417:10458   */\n      gt\n        /* \"#utility.yul\":10414:10542   */\n      iszero\n      tag_423\n      jumpi\n        /* \"#utility.yul\":10461:10540   */\n      tag_424\n      tag_265\n      jump\t// in\n    tag_424:\n        /* \"#utility.yul\":10414:10542   */\n    tag_423:\n        /* \"#utility.yul\":9995:10548   */\n      swap3\n      pop\n      swap3\n      swap1\n      pop\n      jump\t// out\n        /* \"#utility.yul\":10554:11083   */\n    tag_75:\n        /* \"#utility.yul\":10625:10631   */\n      0x00\n        /* \"#utility.yul\":10633:10639   */\n      0x00\n        /* \"#utility.yul\":10682:10684   */\n      0x20\n        /* \"#utility.yul\":10670:10679   */\n      dup4\n        /* \"#utility.yul\":10661:10668   */\n      dup6\n        /* \"#utility.yul\":10657:10680   */\n      sub\n        /* \"#utility.yul\":10653:10685   */\n      slt\n        /* \"#utility.yul\":10650:10769   */\n      iszero\n      tag_426\n      jumpi\n        /* \"#utility.yul\":10688:10767   */\n      tag_427\n      tag_237\n      jump\t// in\n    tag_427:\n        /* \"#utility.yul\":10650:10769   */\n    tag_426:\n        /* \"#utility.yul\":10836:10837   */\n      0x00\n        /* \"#utility.yul\":10825:10834   */\n      dup4\n        /* \"#utility.yul\":10821:10838   */\n      add\n        /* \"#utility.yul\":10808:10839   */\n      calldataload\n        /* \"#utility.yul\":10866:10884   */\n      0xffffffffffffffff\n        /* \"#utility.yul\":10858:10864   */\n      dup2\n        /* \"#utility.yul\":10855:10885   */\n      gt\n        /* \"#utility.yul\":10852:10969   */\n      iszero\n      tag_428\n      jumpi\n        /* \"#utility.yul\":10888:10967   */\n      tag_429\n      tag_238\n      jump\t// in\n    tag_429:\n        /* \"#utility.yul\":10852:10969   */\n    tag_428:\n        /* \"#utility.yul\":11001:11066   */\n      tag_430\n        /* \"#utility.yul\":11058:11065   */\n      dup6\n        /* \"#utility.yul\":11049:11055   */\n      dup3\n        /* \"#utility.yul\":11038:11047   */\n      dup7\n        /* \"#utility.yul\":11034:11056   */\n      add\n        /* \"#utility.yul\":11001:11066   */\n      tag_269\n      jump\t// in\n    tag_430:\n        /* \"#utility.yul\":10983:11066   */\n      swap3\n      pop\n      swap3\n      pop\n        /* \"#utility.yul\":10779:11076   */\n      pop\n        /* \"#utility.yul\":10554:11083   */\n      swap3\n      pop\n      swap3\n      swap1\n      pop\n      jump\t// out\n        /* \"#utility.yul\":11089:11166   */\n    tag_270:\n        /* \"#utility.yul\":11126:11133   */\n      0x00\n        /* \"#utility.yul\":11155:11160   */\n      dup2\n        /* \"#utility.yul\":11144:11160   */\n      swap1\n      pop\n        /* \"#utility.yul\":11089:11166   */\n      swap2\n      swap1\n      pop\n      jump\t// out\n        /* \"#utility.yul\":11172:11294   */\n    tag_271:\n        /* \"#utility.yul\":11245:11269   */\n      tag_433\n        /* \"#utility.yul\":11263:11268   */\n      dup2\n        /* \"#utility.yul\":11245:11269   */\n      tag_270\n      jump\t// in\n    tag_433:\n        /* \"#utility.yul\":11238:11243   */\n      dup2\n        /* \"#utility.yul\":11235:11270   */\n      eq\n        /* \"#utility.yul\":11225:11288   */\n      tag_434\n      jumpi\n        /* \"#utility.yul\":11284:11285   */\n      0x00\n        /* \"#utility.yul\":11281:11282   */\n      0x00\n        /* \"#utility.yul\":11274:11286   */\n      revert\n        /* \"#utility.yul\":11225:11288   */\n    tag_434:\n        /* \"#utility.yul\":11172:11294   */\n      pop\n      jump\t// out\n        /* \"#utility.yul\":11300:11439   */\n    tag_272:\n        /* \"#utility.yul\":11346:11351   */\n      0x00\n        /* \"#utility.yul\":11384:11390   */\n      dup2\n        /* \"#utility.yul\":11371:11391   */\n      calldataload\n        /* \"#utility.yul\":11362:11391   */\n      swap1\n      pop\n        /* \"#utility.yul\":11400:11433   */\n      tag_436\n        /* \"#utility.yul\":11427:11432   */\n      dup2\n        /* \"#utility.yul\":11400:11433   */\n      tag_271\n      jump\t// in\n    tag_436:\n        /* \"#utility.yul\":11300:11439   */\n      swap3\n      swap2\n      pop\n      pop\n      jump\t// out\n        /* \"#utility.yul\":11445:11774   */\n    tag_79:\n        /* \"#utility.yul\":11504:11510   */\n      0x00\n        /* \"#utility.yul\":11553:11555   */\n      0x20\n        /* \"#utility.yul\":11541:11550   */\n      dup3\n        /* \"#utility.yul\":11532:11539   */\n      dup5\n        /* \"#utility.yul\":11528:11551   */\n      sub\n        /* \"#utility.yul\":11524:11556   */\n      slt\n        /* \"#utility.yul\":11521:11640   */\n      iszero\n      tag_438\n      jumpi\n        /* \"#utility.yul\":11559:11638   */\n      tag_439\n      tag_237\n      jump\t// in\n    tag_439:\n        /* \"#utility.yul\":11521:11640   */\n    tag_438:\n        /* \"#utility.yul\":11679:11680   */\n      0x00\n        /* \"#utility.yul\":11704:11757   */\n      tag_440\n        /* \"#utility.yul\":11749:11756   */\n      dup5\n        /* \"#utility.yul\":11740:11746   */\n      dup3\n        /* \"#utility.yul\":11729:11738   */\n      dup6\n        /* \"#utility.yul\":11725:11747   */\n      add\n        /* \"#utility.yul\":11704:11757   */\n      tag_272\n      jump\t// in\n    tag_440:\n        /* \"#utility.yul\":11694:11757   */\n      swap2\n      pop\n        /* \"#utility.yul\":11650:11767   */\n      pop\n        /* \"#utility.yul\":11445:11774   */\n      swap3\n      swap2\n      pop\n      pop\n      jump\t// out\n        /* \"#utility.yul\":11780:11902   */\n    tag_273:\n        /* \"#utility.yul\":11853:11877   */\n      tag_442\n        /* \"#utility.yul\":11871:11876   */\n      dup2\n        /* \"#utility.yul\":11853:11877   */\n      tag_258\n      jump\t// in\n    tag_442:\n        /* \"#utility.yul\":11846:11851   */\n      dup2\n        /* \"#utility.yul\":11843:11878   */\n      eq\n        /* \"#utility.yul\":11833:11896   */\n      tag_443\n      jumpi\n        /* \"#utility.yul\":11892:11893   */\n      0x00\n        /* \"#utility.yul\":11889:11890   */\n      0x00\n        /* \"#utility.yul\":11882:11894   */\n      revert\n        /* \"#utility.yul\":11833:11896   */\n    tag_443:\n        /* \"#utility.yul\":11780:11902   */\n      pop\n      jump\t// out\n        /* \"#utility.yul\":11908:12047   */\n    tag_274:\n        /* \"#utility.yul\":11954:11959   */\n      0x00\n        /* \"#utility.yul\":11992:11998   */\n      dup2\n        /* \"#utility.yul\":11979:11999   */\n      calldataload\n        /* \"#utility.yul\":11970:11999   */\n      swap1\n      pop\n        /* \"#utility.yul\":12008:12041   */\n      tag_445\n        /* \"#utility.yul\":12035:12040   */\n      dup2\n        /* \"#utility.yul\":12008:12041   */\n      tag_273\n      jump\t// in\n    tag_445:\n        /* \"#utility.yul\":11908:12047   */\n      swap3\n      swap2\n      pop\n      pop\n      jump\t// out\n        /* \"#utility.yul\":12053:12382   */\n    tag_83:\n        /* \"#utility.yul\":12112:12118   */\n      0x00\n        /* \"#utility.yul\":12161:12163   */\n      0x20\n        /* \"#utility.yul\":12149:12158   */\n      dup3\n        /* \"#utility.yul\":12140:12147   */\n      dup5\n        /* \"#utility.yul\":12136:12159   */\n      sub\n        /* \"#utility.yul\":12132:12164   */\n      slt\n        /* \"#utility.yul\":12129:12248   */\n      iszero\n      tag_447\n      jumpi\n        /* \"#utility.yul\":12167:12246   */\n      tag_448\n      tag_237\n      jump\t// in\n    tag_448:\n        /* \"#utility.yul\":12129:12248   */\n    tag_447:\n        /* \"#utility.yul\":12287:12288   */\n      0x00\n        /* \"#utility.yul\":12312:12365   */\n      tag_449\n        /* \"#utility.yul\":12357:12364   */\n      dup5\n        /* \"#utility.yul\":12348:12354   */\n      dup3\n        /* \"#utility.yul\":12337:12346   */\n      dup6\n        /* \"#utility.yul\":12333:12355   */\n      add\n        /* \"#utility.yul\":12312:12365   */\n      tag_274\n      jump\t// in\n    tag_449:\n        /* \"#utility.yul\":12302:12365   */\n      swap2\n      pop\n        /* \"#utility.yul\":12258:12375   */\n      pop\n        /* \"#utility.yul\":12053:12382   */\n      swap3\n      swap2\n      pop\n      pop\n      jump\t// out\n        /* \"#utility.yul\":12388:12506   */\n    tag_275:\n        /* \"#utility.yul\":12475:12499   */\n      tag_451\n        /* \"#utility.yul\":12493:12498   */\n      dup2\n        /* \"#utility.yul\":12475:12499   */\n      tag_270\n      jump\t// in\n    tag_451:\n        /* \"#utility.yul\":12470:12473   */\n      dup3\n        /* \"#utility.yul\":12463:12500   */\n      mstore\n        /* \"#utility.yul\":12388:12506   */\n      pop\n      pop\n      jump\t// out\n        /* \"#utility.yul\":12512:12734   */\n    tag_97:\n        /* \"#utility.yul\":12605:12609   */\n      0x00\n        /* \"#utility.yul\":12643:12645   */\n      0x20\n        /* \"#utility.yul\":12632:12641   */\n      dup3\n        /* \"#utility.yul\":12628:12646   */\n      add\n        /* \"#utility.yul\":12620:12646   */\n      swap1\n      pop\n        /* \"#utility.yul\":12656:12727   */\n      tag_453\n        /* \"#utility.yul\":12724:12725   */\n      0x00\n        /* \"#utility.yul\":12713:12722   */\n      dup4\n        /* \"#utility.yul\":12709:12726   */\n      add\n        /* \"#utility.yul\":12700:12706   */\n      dup5\n        /* \"#utility.yul\":12656:12727   */\n      tag_275\n      jump\t// in\n    tag_453:\n        /* \"#utility.yul\":12512:12734   */\n      swap3\n      swap2\n      pop\n      pop\n      jump\t// out\n        /* \"#utility.yul\":12740:12888   */\n    tag_276:\n        /* \"#utility.yul\":12842:12853   */\n      0x00\n        /* \"#utility.yul\":12879:12882   */\n      dup2\n        /* \"#utility.yul\":12864:12882   */\n      swap1\n      pop\n        /* \"#utility.yul\":12740:12888   */\n      swap3\n      swap2\n      pop\n      pop\n      jump\t// out\n        /* \"#utility.yul\":12894:13284   */\n    tag_277:\n        /* \"#utility.yul\":13000:13003   */\n      0x00\n        /* \"#utility.yul\":13028:13067   */\n      tag_456\n        /* \"#utility.yul\":13061:13066   */\n      dup3\n        /* \"#utility.yul\":13028:13067   */\n      tag_260\n      jump\t// in\n    tag_456:\n        /* \"#utility.yul\":13083:13172   */\n      tag_457\n        /* \"#utility.yul\":13165:13171   */\n      dup2\n        /* \"#utility.yul\":13160:13163   */\n      dup6\n        /* \"#utility.yul\":13083:13172   */\n      tag_276\n      jump\t// in\n    tag_457:\n        /* \"#utility.yul\":13076:13172   */\n      swap4\n      pop\n        /* \"#utility.yul\":13181:13246   */\n      tag_458\n        /* \"#utility.yul\":13239:13245   */\n      dup2\n        /* \"#utility.yul\":13234:13237   */\n      dup6\n        /* \"#utility.yul\":13227:13231   */\n      0x20\n        /* \"#utility.yul\":13220:13225   */\n      dup7\n        /* \"#utility.yul\":13216:13232   */\n      add\n        /* \"#utility.yul\":13181:13246   */\n      tag_262\n      jump\t// in\n    tag_458:\n        /* \"#utility.yul\":13271:13277   */\n      dup1\n        /* \"#utility.yul\":13266:13269   */\n      dup5\n        /* \"#utility.yul\":13262:13278   */\n      add\n        /* \"#utility.yul\":13255:13278   */\n      swap2\n      pop\n        /* \"#utility.yul\":13004:13284   */\n      pop\n        /* \"#utility.yul\":12894:13284   */\n      swap3\n      swap2\n      pop\n      pop\n      jump\t// out\n        /* \"#utility.yul\":13290:13565   */\n    tag_102:\n        /* \"#utility.yul\":13422:13425   */\n      0x00\n        /* \"#utility.yul\":13444:13539   */\n      tag_460\n        /* \"#utility.yul\":13535:13538   */\n      dup3\n        /* \"#utility.yul\":13526:13532   */\n      dup5\n        /* \"#utility.yul\":13444:13539   */\n      tag_277\n      jump\t// in\n    tag_460:\n        /* \"#utility.yul\":13437:13539   */\n      swap2\n      pop\n        /* \"#utility.yul\":13556:13559   */\n      dup2\n        /* \"#utility.yul\":13549:13559   */\n      swap1\n      pop\n        /* \"#utility.yul\":13290:13565   */\n      swap3\n      swap2\n      pop\n      pop\n      jump\t// out\n        /* \"#utility.yul\":13571:13751   */\n    tag_278:\n        /* \"#utility.yul\":13619:13696   */\n      0x4e487b7100000000000000000000000000000000000000000000000000000000\n        /* \"#utility.yul\":13616:13617   */\n      0x00\n        /* \"#utility.yul\":13609:13697   */\n      mstore\n        /* \"#utility.yul\":13716:13720   */\n      0x22\n        /* \"#utility.yul\":13713:13714   */\n      0x04\n        /* \"#utility.yul\":13706:13721   */\n      mstore\n        /* \"#utility.yul\":13740:13744   */\n      0x24\n        /* \"#utility.yul\":13737:13738   */\n      0x00\n        /* \"#utility.yul\":13730:13745   */\n      revert\n        /* \"#utility.yul\":13757:14077   */\n    tag_112:\n        /* \"#utility.yul\":13801:13807   */\n      0x00\n        /* \"#utility.yul\":13838:13839   */\n      0x02\n        /* \"#utility.yul\":13832:13836   */\n      dup3\n        /* \"#utility.yul\":13828:13840   */\n      div\n        /* \"#utility.yul\":13818:13840   */\n      swap1\n      pop\n        /* \"#utility.yul\":13885:13886   */\n      0x01\n        /* \"#utility.yul\":13879:13883   */\n      dup3\n        /* \"#utility.yul\":13875:13887   */\n      and\n        /* \"#utility.yul\":13906:13924   */\n      dup1\n        /* \"#utility.yul\":13896:13977   */\n      tag_463\n      jumpi\n        /* \"#utility.yul\":13962:13966   */\n      0x7f\n        /* \"#utility.yul\":13954:13960   */\n      dup3\n        /* \"#utility.yul\":13950:13967   */\n      and\n        /* \"#utility.yul\":13940:13967   */\n      swap2\n      pop\n        /* \"#utility.yul\":13896:13977   */\n    tag_463:\n        /* \"#utility.yul\":14024:14026   */\n      0x20\n        /* \"#utility.yul\":14016:14022   */\n      dup3\n        /* \"#utility.yul\":14013:14027   */\n      lt\n        /* \"#utility.yul\":13993:14011   */\n      dup2\n        /* \"#utility.yul\":13990:14028   */\n      sub\n        /* \"#utility.yul\":13987:14071   */\n      tag_464\n      jumpi\n        /* \"#utility.yul\":14043:14061   */\n      tag_465\n      tag_278\n      jump\t// in\n    tag_465:\n        /* \"#utility.yul\":13987:14071   */\n    tag_464:\n        /* \"#utility.yul\":13808:14077   */\n      pop\n        /* \"#utility.yul\":13757:14077   */\n      swap2\n      swap1\n      pop\n      jump\t// out\n        /* \"#utility.yul\":14083:14224   */\n    tag_279:\n        /* \"#utility.yul\":14132:14136   */\n      0x00\n        /* \"#utility.yul\":14155:14158   */\n      dup2\n        /* \"#utility.yul\":14147:14158   */\n      swap1\n      pop\n        /* \"#utility.yul\":14178:14181   */\n      dup2\n        /* \"#utility.yul\":14175:14176   */\n      0x00\n        /* \"#utility.yul\":14168:14182   */\n      mstore\n        /* \"#utility.yul\":14212:14216   */\n      0x20\n        /* \"#utility.yul\":14209:14210   */\n      0x00\n        /* \"#utility.yul\":14199:14217   */\n      keccak256\n        /* \"#utility.yul\":14191:14217   */\n      swap1\n      pop\n        /* \"#utility.yul\":14083:14224   */\n      swap2\n      swap1\n      pop\n      jump\t// out\n        /* \"#utility.yul\":14230:14323   */\n    tag_280:\n        /* \"#utility.yul\":14267:14273   */\n      0x00\n        /* \"#utility.yul\":14314:14316   */\n      0x20\n        /* \"#utility.yul\":14309:14311   */\n      0x1f\n        /* \"#utility.yul\":14302:14307   */\n      dup4\n        /* \"#utility.yul\":14298:14312   */\n      add\n        /* \"#utility.yul\":14294:14317   */\n      div\n        /* \"#utility.yul\":14284:14317   */\n      swap1\n      pop\n        /* \"#utility.yul\":14230:14323   */\n      swap2\n      swap1\n      pop\n      jump\t// out\n        /* \"#utility.yul\":14329:14436   */\n    tag_281:\n        /* \"#utility.yul\":14373:14381   */\n      0x00\n        /* \"#utility.yul\":14423:14428   */\n      dup3\n        /* \"#utility.yul\":14417:14421   */\n      dup3\n        /* \"#utility.yul\":14413:14429   */\n      shl\n        /* \"#utility.yul\":14392:14429   */\n      swap1\n      pop\n        /* \"#utility.yul\":14329:14436   */\n      swap3\n      swap2\n      pop\n      pop\n      jump\t// out\n        /* \"#utility.yul\":14442:14835   */\n    tag_282:\n        /* \"#utility.yul\":14511:14517   */\n      0x00\n        /* \"#utility.yul\":14561:14562   */\n      0x08\n        /* \"#utility.yul\":14549:14559   */\n      dup4\n        /* \"#utility.yul\":14545:14563   */\n      mul\n        /* \"#utility.yul\":14584:14681   */\n      tag_470\n        /* \"#utility.yul\":14614:14680   */\n      0xffffffffffffffffffffffffffffffffffffffffffffffffffffffffffffffff\n        /* \"#utility.yul\":14603:14612   */\n      dup3\n        /* \"#utility.yul\":14584:14681   */\n      tag_281\n      jump\t// in\n    tag_470:\n        /* \"#utility.yul\":14702:14741   */\n      tag_471\n        /* \"#utility.yul\":14732:14740   */\n      dup7\n        /* \"#utility.yul\":14721:14730   */\n      dup4\n        /* \"#utility.yul\":14702:14741   */\n      tag_281\n      jump\t// in\n    tag_471:\n        /* \"#utility.yul\":14690:14741   */\n      swap6\n      pop\n        /* \"#utility.yul\":14774:14778   */\n      dup1\n        /* \"#utility.yul\":14770:14779   */\n      not\n        /* \"#utility.yul\":14763:14768   */\n      dup5\n        /* \"#utility.yul\":14759:14780   */\n      and\n        /* \"#utility.yul\":14750:14780   */\n      swap4\n      pop\n        /* \"#utility.yul\":14823:14827   */\n      dup1\n        /* \"#utility.yul\":14813:14821   */\n      dup7\n        /* \"#utility.yul\":14809:14828   */\n      and\n        /* \"#utility.yul\":14802:14807   */\n      dup5\n        /* \"#utility.yul\":14799:14829   */\n      or\n        /* \"#utility.yul\":14789:14829   */\n      swap3\n      pop\n        /* \"#utility.yul\":14518:14835   */\n      pop\n      pop\n        /* \"#utility.yul\":14442:14835   */\n      swap4\n      swap3\n      pop\n      pop\n      pop\n      jump\t// out\n        /* \"#utility.yul\":14841:14901   */\n    tag_283:\n        /* \"#utility.yul\":14869:14872   */\n      0x00\n        /* \"#utility.yul\":14890:14895   */\n      dup2\n        /* \"#utility.yul\":14883:14895   */\n      swap1\n      pop\n        /* \"#utility.yul\":14841:14901   */\n      swap2\n      swap1\n      pop\n      jump\t// out\n        /* \"#utility.yul\":14907:15049   */\n    tag_284:\n        /* \"#utility.yul\":14957:14966   */\n      0x00\n        /* \"#utility.yul\":14990:15043   */\n      tag_474\n        /* \"#utility.yul\":15008:15042   */\n      tag_475\n        /* \"#utility.yul\":15017:15041   */\n      tag_476\n        /* \"#utility.yul\":15035:15040   */\n      dup5\n        /* \"#utility.yul\":15017:15041   */\n      tag_253\n      jump\t// in\n    tag_476:\n        /* \"#utility.yul\":15008:15042   */\n      tag_283\n      jump\t// in\n    tag_475:\n        /* \"#utility.yul\":14990:15043   */\n      tag_253\n      jump\t// in\n    tag_474:\n        /* \"#utility.yul\":14977:15043   */\n      swap1\n      pop\n        /* \"#utility.yul\":14907:15049   */\n      swap2\n      swap1\n      pop\n      jump\t// out\n        /* \"#utility.yul\":15055:15130   */\n    tag_285:\n        /* \"#utility.yul\":15098:15101   */\n      0x00\n        /* \"#utility.yul\":15119:15124   */\n      dup2\n        /* \"#utility.yul\":15112:15124   */\n      swap1\n      pop\n        /* \"#utility.yul\":15055:15130   */\n      swap2\n      swap1\n      pop\n      jump\t// out\n        /* \"#utility.yul\":15136:15405   */\n    tag_286:\n        /* \"#utility.yul\":15246:15285   */\n      tag_479\n        /* \"#utility.yul\":15277:15284   */\n      dup4\n        /* \"#utility.yul\":15246:15285   */\n      tag_284\n      jump\t// in\n    tag_479:\n        /* \"#utility.yul\":15307:15398   */\n      tag_480\n        /* \"#utility.yul\":15356:15397   */\n      tag_481\n        /* \"#utility.yul\":15380:15396   */\n      dup3\n        /* \"#utility.yul\":15356:15397   */\n      tag_285\n      jump\t// in\n    tag_481:\n        /* \"#utility.yul\":15348:15354   */\n      dup5\n        /* \"#utility.yul\":15341:15345   */\n      dup5\n        /* \"#utility.yul\":15335:15346   */\n      sload\n        /* \"#utility.yul\":15307:15398   */\n      tag_282\n      jump\t// in\n    tag_480:\n        /* \"#utility.yul\":15301:15305   */\n      dup3\n        /* \"#utility.yul\":15294:15399   */\n      sstore\n        /* \"#utility.yul\":15212:15405   */\n      pop\n        /* \"#utility.yul\":15136:15405   */\n      pop\n      pop\n      pop\n      jump\t// out\n        /* \"#utility.yul\":15411:15484   */\n    tag_287:\n        /* \"#utility.yul\":15456:15459   */\n      0x00\n        /* \"#utility.yul\":15477:15478   */\n      0x00\n        /* \"#utility.yul\":15470:15478   */\n      swap1\n      pop\n        /* \"#utility.yul\":15411:15484   */\n      swap1\n      jump\t// out\n        /* \"#utility.yul\":15490:15679   */\n    tag_288:\n        /* \"#utility.yul\":15567:15599   */\n      tag_484\n      tag_287\n      jump\t// in\n    tag_484:\n        /* \"#utility.yul\":15608:15673   */\n      tag_485\n        /* \"#utility.yul\":15666:15672   */\n      dup2\n        /* \"#utility.yul\":15658:15664   */\n      dup5\n        /* \"#utility.yul\":15652:15656   */\n      dup5\n        /* \"#utility.yul\":15608:15673   */\n      tag_286\n      jump\t// in\n    tag_485:\n        /* \"#utility.yul\":15543:15679   */\n      pop\n        /* \"#utility.yul\":15490:15679   */\n      pop\n      pop\n      jump\t// out\n        /* \"#utility.yul\":15685:15871   */\n    tag_289:\n        /* \"#utility.yul\":15745:15865   */\n    tag_487:\n        /* \"#utility.yul\":15762:15765   */\n      dup2\n        /* \"#utility.yul\":15755:15760   */\n      dup2\n        /* \"#utility.yul\":15752:15766   */\n      lt\n        /* \"#utility.yul\":15745:15865   */\n      iszero\n      tag_489\n      jumpi\n        /* \"#utility.yul\":15816:15855   */\n      tag_490\n        /* \"#utility.yul\":15853:15854   */\n      0x00\n        /* \"#utility.yul\":15846:15851   */\n      dup3\n        /* \"#utility.yul\":15816:15855   */\n      tag_288\n      jump\t// in\n    tag_490:\n        /* \"#utility.yul\":15789:15790   */\n      0x01\n        /* \"#utility.yul\":15782:15787   */\n      dup2\n        /* \"#utility.yul\":15778:15791   */\n      add\n        /* \"#utility.yul\":15769:15791   */\n      swap1\n      pop\n        /* \"#utility.yul\":15745:15865   */\n      jump(tag_487)\n    tag_489:\n        /* \"#utility.yul\":15685:15871   */\n      pop\n      pop\n      jump\t// out\n        /* \"#utility.yul\":15877:16420   */\n    tag_290:\n        /* \"#utility.yul\":15978:15980   */\n      0x1f\n        /* \"#utility.yul\":15973:15976   */\n      dup3\n        /* \"#utility.yul\":15970:15981   */\n      gt\n        /* \"#utility.yul\":15967:16413   */\n      iszero\n      tag_492\n      jumpi\n        /* \"#utility.yul\":16012:16050   */\n      tag_493\n        /* \"#utility.yul\":16044:16049   */\n      dup2\n        /* \"#utility.yul\":16012:16050   */\n      tag_279\n      jump\t// in\n    tag_493:\n        /* \"#utility.yul\":16096:16125   */\n      tag_494\n        /* \"#utility.yul\":16114:16124   */\n      dup5\n        /* \"#utility.yul\":16096:16125   */\n      tag_280\n      jump\t// in\n    tag_494:\n        /* \"#utility.yul\":16086:16094   */\n      dup2\n        /* \"#utility.yul\":16082:16126   */\n      add\n        /* \"#utility.yul\":16279:16281   */\n      0x20\n        /* \"#utility.yul\":16267:16277   */\n      dup6\n        /* \"#utility.yul\":16264:16282   */\n      lt\n        /* \"#utility.yul\":16261:16310   */\n      iszero\n      tag_495\n      jumpi\n        /* \"#utility.yul\":16300:16308   */\n      dup2\n        /* \"#utility.yul\":16285:16308   */\n      swap1\n      pop\n        /* \"#utility.yul\":16261:16310   */\n    tag_495:\n        /* \"#utility.yul\":16323:16403   */\n      tag_496\n        /* \"#utility.yul\":16379:16401   */\n      tag_497\n        /* \"#utility.yul\":16397:16400   */\n      dup6\n        /* \"#utility.yul\":16379:16401   */\n      tag_280\n      jump\t// in\n    tag_497:\n        /* \"#utility.yul\":16369:16377   */\n      dup4\n        /* \"#utility.yul\":16365:16402   */\n      add\n        /* \"#utility.yul\":16352:16363   */\n      dup3\n        /* \"#utility.yul\":16323:16403   */\n      tag_289\n      jump\t// in\n    tag_496:\n        /* \"#utility.yul\":15982:16413   */\n      pop\n      pop\n        /* \"#utility.yul\":15967:16413   */\n    tag_492:\n        /* \"#utility.yul\":15877:16420   */\n      pop\n      pop\n      pop\n      jump\t// out\n        /* \"#utility.yul\":16426:16543   */\n    tag_291:\n        /* \"#utility.yul\":16480:16488   */\n      0x00\n        /* \"#utility.yul\":16530:16535   */\n      dup3\n        /* \"#utility.yul\":16524:16528   */\n      dup3\n        /* \"#utility.yul\":16520:16536   */\n      shr\n        /* \"#utility.yul\":16499:16536   */\n      swap1\n      pop\n        /* \"#utility.yul\":16426:16543   */\n      swap3\n      swap2\n      pop\n      pop\n      jump\t// out\n        /* \"#utility.yul\":16549:16718   */\n    tag_292:\n        /* \"#utility.yul\":16593:16599   */\n      0x00\n        /* \"#utility.yul\":16626:16677   */\n      tag_500\n        /* \"#utility.yul\":16674:16675   */\n      0x00\n        /* \"#utility.yul\":16670:16676   */\n      not\n        /* \"#utility.yul\":16662:16667   */\n      dup5\n        /* \"#utility.yul\":16659:16660   */\n      0x08\n        /* \"#utility.yul\":16655:16668   */\n      mul\n        /* \"#utility.yul\":16626:16677   */\n      tag_291\n      jump\t// in\n    tag_500:\n        /* \"#utility.yul\":16622:16678   */\n      not\n        /* \"#utility.yul\":16707:16711   */\n      dup1\n        /* \"#utility.yul\":16701:16705   */\n      dup4\n        /* \"#utility.yul\":16697:16712   */\n      and\n        /* \"#utility.yul\":16687:16712   */\n      swap2\n      pop\n        /* \"#utility.yul\":16600:16718   */\n      pop\n        /* \"#utility.yul\":16549:16718   */\n      swap3\n      swap2\n      pop\n      pop\n      jump\t// out\n        /* \"#utility.yul\":16723:17018   */\n    tag_293:\n        /* \"#utility.yul\":16799:16803   */\n      0x00\n        /* \"#utility.yul\":16945:16974   */\n      tag_502\n        /* \"#utility.yul\":16970:16973   */\n      dup4\n        /* \"#utility.yul\":16964:16968   */\n      dup4\n        /* \"#utility.yul\":16945:16974   */\n      tag_292\n      jump\t// in\n    tag_502:\n        /* \"#utility.yul\":16937:16974   */\n      swap2\n      pop\n        /* \"#utility.yul\":17007:17010   */\n      dup3\n        /* \"#utility.yul\":17004:17005   */\n      0x02\n        /* \"#utility.yul\":17000:17011   */\n      mul\n        /* \"#utility.yul\":16994:16998   */\n      dup3\n        /* \"#utility.yul\":16991:17012   */\n      or\n        /* \"#utility.yul\":16983:17012   */\n      swap1\n      pop\n        /* \"#utility.yul\":16723:17018   */\n      swap3\n      swap2\n      pop\n      pop\n      jump\t// out\n        /* \"#utility.yul\":17023:18418   */\n    tag_105:\n        /* \"#utility.yul\":17140:17177   */\n      tag_504\n        /* \"#utility.yul\":17173:17176   */\n      dup3\n        /* \"#utility.yul\":17140:17177   */\n      tag_260\n      jump\t// in\n    tag_504:\n        /* \"#utility.yul\":17242:17260   */\n      0xffffffffffffffff\n        /* \"#utility.yul\":17234:17240   */\n      dup2\n        /* \"#utility.yul\":17231:17261   */\n      gt\n        /* \"#utility.yul\":17228:17284   */\n      iszero\n      tag_505\n      jumpi\n        /* \"#utility.yul\":17264:17282   */\n      tag_506\n      tag_166\n      jump\t// in\n    tag_506:\n        /* \"#utility.yul\":17228:17284   */\n    tag_505:\n        /* \"#utility.yul\":17308:17346   */\n      tag_507\n        /* \"#utility.yul\":17340:17344   */\n      dup3\n        /* \"#utility.yul\":17334:17345   */\n      sload\n        /* \"#utility.yul\":17308:17346   */\n      tag_112\n      jump\t// in\n    tag_507:\n        /* \"#utility.yul\":17393:17460   */\n      tag_508\n        /* \"#utility.yul\":17453:17459   */\n      dup3\n        /* \"#utility.yul\":17445:17451   */\n      dup3\n        /* \"#utility.yul\":17439:17443   */\n      dup6\n        /* \"#utility.yul\":17393:17460   */\n      tag_290\n      jump\t// in\n    tag_508:\n        /* \"#utility.yul\":17487:17488   */\n      0x00\n        /* \"#utility.yul\":17511:17515   */\n      0x20\n        /* \"#utility.yul\":17498:17515   */\n      swap1\n      pop\n        /* \"#utility.yul\":17543:17545   */\n      0x1f\n        /* \"#utility.yul\":17535:17541   */\n      dup4\n        /* \"#utility.yul\":17532:17546   */\n      gt\n        /* \"#utility.yul\":17560:17561   */\n      0x01\n        /* \"#utility.yul\":17555:18173   */\n      dup2\n      eq\n      tag_510\n      jumpi\n        /* \"#utility.yul\":18217:18218   */\n      0x00\n        /* \"#utility.yul\":18234:18240   */\n      dup5\n        /* \"#utility.yul\":18231:18308   */\n      iszero\n      tag_511\n      jumpi\n        /* \"#utility.yul\":18283:18292   */\n      dup3\n        /* \"#utility.yul\":18278:18281   */\n      dup8\n        /* \"#utility.yul\":18274:18293   */\n      add\n        /* \"#utility.yul\":18268:18294   */\n      mload\n        /* \"#utility.yul\":18259:18294   */\n      swap1\n      pop\n        /* \"#utility.yul\":18231:18308   */\n    tag_511:\n        /* \"#utility.yul\":18334:18401   */\n      tag_512\n        /* \"#utility.yul\":18394:18400   */\n      dup6\n        /* \"#utility.yul\":18387:18392   */\n      dup3\n        /* \"#utility.yul\":18334:18401   */\n      tag_293\n      jump\t// in\n    tag_512:\n        /* \"#utility.yul\":18328:18332   */\n      dup7\n        /* \"#utility.yul\":18321:18402   */\n      sstore\n        /* \"#utility.yul\":18190:18412   */\n      pop\n        /* \"#utility.yul\":17525:18412   */\n      jump(tag_509)\n        /* \"#utility.yul\":17555:18173   */\n    tag_510:\n        /* \"#utility.yul\":17607:17611   */\n      0x1f\n        /* \"#utility.yul\":17603:17612   */\n      not\n        /* \"#utility.yul\":17595:17601   */\n      dup5\n        /* \"#utility.yul\":17591:17613   */\n      and\n        /* \"#utility.yul\":17641:17678   */\n      tag_513\n        /* \"#utility.yul\":17673:17677   */\n      dup7\n        /* \"#utility.yul\":17641:17678   */\n      tag_279\n      jump\t// in\n    tag_513:\n        /* \"#utility.yul\":17700:17701   */\n      0x00\n        /* \"#utility.yul\":17714:17922   */\n    tag_514:\n        /* \"#utility.yul\":17728:17735   */\n      dup3\n        /* \"#utility.yul\":17725:17726   */\n      dup2\n        /* \"#utility.yul\":17722:17736   */\n      lt\n        /* \"#utility.yul\":17714:17922   */\n      iszero\n      tag_516\n      jumpi\n        /* \"#utility.yul\":17807:17816   */\n      dup5\n        /* \"#utility.yul\":17802:17805   */\n      dup10\n        /* \"#utility.yul\":17798:17817   */\n      add\n        /* \"#utility.yul\":17792:17818   */\n      mload\n        /* \"#utility.yul\":17784:17790   */\n      dup3\n        /* \"#utility.yul\":17777:17819   */\n      sstore\n        /* \"#utility.yul\":17858:17859   */\n      0x01\n        /* \"#utility.yul\":17850:17856   */\n      dup3\n        /* \"#utility.yul\":17846:17860   */\n      add\n        /* \"#utility.yul\":17836:17860   */\n      swap2\n      pop\n        /* \"#utility.yul\":17905:17907   */\n      0x20\n        /* \"#utility.yul\":17894:17903   */\n      dup6\n        /* \"#utility.yul\":17890:17908   */\n      add\n        /* \"#utility.yul\":17877:17908   */\n      swap5\n      pop\n        /* \"#utility.yul\":17751:17755   */\n      0x20\n        /* \"#utility.yul\":17748:17749   */\n      dup2\n        /* \"#utility.yul\":17744:17756   */\n      add\n        /* \"#utility.yul\":17739:17756   */\n      swap1\n      pop\n        /* \"#utility.yul\":17714:17922   */\n      jump(tag_514)\n    tag_516:\n        /* \"#utility.yul\":17950:17956   */\n      dup7\n        /* \"#utility.yul\":17941:17948   */\n      dup4\n        /* \"#utility.yul\":17938:17957   */\n      lt\n        /* \"#utility.yul\":17935:18114   */\n      iszero\n      tag_517\n      jumpi\n        /* \"#utility.yul\":18008:18017   */\n      dup5\n        /* \"#utility.yul\":18003:18006   */\n      dup10\n        /* \"#utility.yul\":17999:18018   */\n      add\n        /* \"#utility.yul\":17993:18019   */\n      mload\n        /* \"#utility.yul\":18051:18099   */\n      tag_518\n        /* \"#utility.yul\":18093:18097   */\n      0x1f\n        /* \"#utility.yul\":18085:18091   */\n      dup10\n        /* \"#utility.yul\":18081:18098   */\n      and\n        /* \"#utility.yul\":18070:18079   */\n      dup3\n        /* \"#utility.yul\":18051:18099   */\n      tag_292\n      jump\t// in\n    tag_518:\n        /* \"#utility.yul\":18043:18049   */\n      dup4\n        /* \"#utility.yul\":18036:18100   */\n      sstore\n        /* \"#utility.yul\":17958:18114   */\n      pop\n        /* \"#utility.yul\":17935:18114   */\n    tag_517:\n        /* \"#utility.yul\":18160:18161   */\n      0x01\n        /* \"#utility.yul\":18156:18157   */\n      0x02\n        /* \"#utility.yul\":18148:18154   */\n      dup9\n        /* \"#utility.yul\":18144:18158   */\n      mul\n        /* \"#utility.yul\":18140:18162   */\n      add\n        /* \"#utility.yul\":18134:18138   */\n      dup9\n        /* \"#utility.yul\":18127:18163   */\n      sstore\n        /* \"#utility.yul\":17562:18173   */\n      pop\n      pop\n      pop\n        /* \"#utility.yul\":17525:18412   */\n    tag_509:\n      pop\n        /* \"#utility.yul\":17115:18418   */\n      pop\n      pop\n      pop\n        /* \"#utility.yul\":17023:18418   */\n      pop\n      pop\n      jump\t// out\n        /* \"#utility.yul\":18424:18756   */\n    tag_127:\n        /* \"#utility.yul\":18545:18549   */\n      0x00\n        /* \"#utility.yul\":18583:18585   */\n      0x40\n        /* \"#utility.yul\":18572:18581   */\n      dup3\n        /* \"#utility.yul\":18568:18586   */\n      add\n        /* \"#utility.yul\":18560:18586   */\n      swap1\n      pop\n        /* \"#utility.yul\":18596:18667   */\n      tag_520\n        /* \"#utility.yul\":18664:18665   */\n      0x00\n        /* \"#utility.yul\":18653:18662   */\n      dup4\n        /* \"#utility.yul\":18649:18666   */\n      add\n        /* \"#utility.yul\":18640:18646   */\n      dup6\n        /* \"#utility.yul\":18596:18667   */\n      tag_259\n      jump\t// in\n    tag_520:\n        /* \"#utility.yul\":18677:18749   */\n      tag_521\n        /* \"#utility.yul\":18745:18747   */\n      0x20\n        /* \"#utility.yul\":18734:18743   */\n      dup4\n        /* \"#utility.yul\":18730:18748   */\n      add\n        /* \"#utility.yul\":18721:18727   */\n      dup5\n        /* \"#utility.yul\":18677:18749   */\n      tag_259\n      jump\t// in\n    tag_521:\n        /* \"#utility.yul\":18424:18756   */\n      swap4\n      swap3\n      pop\n      pop\n      pop\n      jump\t// out\n        /* \"#utility.yul\":18762:19094   */\n    tag_136:\n        /* \"#utility.yul\":18883:18887   */\n      0x00\n        /* \"#utility.yul\":18921:18923   */\n      0x40\n        /* \"#utility.yul\":18910:18919   */\n      dup3\n        /* \"#utility.yul\":18906:18924   */\n      add\n        /* \"#utility.yul\":18898:18924   */\n      swap1\n      pop\n        /* \"#utility.yul\":18934:19005   */\n      tag_523\n        /* \"#utility.yul\":19002:19003   */\n      0x00\n        /* \"#utility.yul\":18991:19000   */\n      dup4\n        /* \"#utility.yul\":18987:19004   */\n      add\n        /* \"#utility.yul\":18978:18984   */\n      dup6\n        /* \"#utility.yul\":18934:19005   */\n      tag_275\n      jump\t// in\n    tag_523:\n        /* \"#utility.yul\":19015:19087   */\n      tag_524\n        /* \"#utility.yul\":19083:19085   */\n      0x20\n        /* \"#utility.yul\":19072:19081   */\n      dup4\n        /* \"#utility.yul\":19068:19086   */\n      add\n        /* \"#utility.yul\":19059:19065   */\n      dup5\n        /* \"#utility.yul\":19015:19087   */\n      tag_275\n      jump\t// in\n    tag_524:\n        /* \"#utility.yul\":18762:19094   */\n      swap4\n      swap3\n      pop\n      pop\n      pop\n      jump\t// out\n        /* \"#utility.yul\":19100:19432   */\n    tag_144:\n        /* \"#utility.yul\":19221:19225   */\n      0x00\n        /* \"#utility.yul\":19259:19261   */\n      0x40\n        /* \"#utility.yul\":19248:19257   */\n      dup3\n        /* \"#utility.yul\":19244:19262   */\n      add\n        /* \"#utility.yul\":19236:19262   */\n      swap1\n      pop\n        /* \"#utility.yul\":19272:19343   */\n      tag_526\n        /* \"#utility.yul\":19340:19341   */\n      0x00\n        /* \"#utility.yul\":19329:19338   */\n      dup4\n        /* \"#utility.yul\":19325:19342   */\n      add\n        /* \"#utility.yul\":19316:19322   */\n      dup6\n        /* \"#utility.yul\":19272:19343   */\n      tag_268\n      jump\t// in\n    tag_526:\n        /* \"#utility.yul\":19353:19425   */\n      tag_527\n        /* \"#utility.yul\":19421:19423   */\n      0x20\n        /* \"#utility.yul\":19410:19419   */\n      dup4\n        /* \"#utility.yul\":19406:19424   */\n      add\n        /* \"#utility.yul\":19397:19403   */\n      dup5\n        /* \"#utility.yul\":19353:19425   */\n      tag_268\n      jump\t// in\n    tag_527:\n        /* \"#utility.yul\":19100:19432   */\n      swap4\n      swap3\n      pop\n      pop\n      pop\n      jump\t// out\n        /* \"#utility.yul\":19438:19585   */\n    tag_294:\n        /* \"#utility.yul\":19539:19550   */\n      0x00\n        /* \"#utility.yul\":19576:19579   */\n      dup2\n        /* \"#utility.yul\":19561:19579   */\n      swap1\n      pop\n        /* \"#utility.yul\":19438:19585   */\n      swap3\n      swap2\n      pop\n      pop\n      jump\t// out\n        /* \"#utility.yul\":19613:19940   */\n    tag_295:\n        /* \"#utility.yul\":19727:19730   */\n      0x00\n        /* \"#utility.yul\":19748:19836   */\n      tag_530\n        /* \"#utility.yul\":19829:19835   */\n      dup4\n        /* \"#utility.yul\":19824:19827   */\n      dup6\n        /* \"#utility.yul\":19748:19836   */\n      tag_294\n      jump\t// in\n    tag_530:\n        /* \"#utility.yul\":19741:19836   */\n      swap4\n      pop\n        /* \"#utility.yul\":19846:19902   */\n      tag_531\n        /* \"#utility.yul\":19895:19901   */\n      dup4\n        /* \"#utility.yul\":19890:19893   */\n      dup6\n        /* \"#utility.yul\":19883:19888   */\n      dup5\n        /* \"#utility.yul\":19846:19902   */\n      tag_250\n      jump\t// in\n    tag_531:\n        /* \"#utility.yul\":19927:19933   */\n      dup3\n        /* \"#utility.yul\":19922:19925   */\n      dup5\n        /* \"#utility.yul\":19918:19934   */\n      add\n        /* \"#utility.yul\":19911:19934   */\n      swap1\n      pop\n        /* \"#utility.yul\":19613:19940   */\n      swap4\n      swap3\n      pop\n      pop\n      pop\n      jump\t// out\n        /* \"#utility.yul\":19946:20237   */\n    tag_155:\n        /* \"#utility.yul\":20086:20089   */\n      0x00\n        /* \"#utility.yul\":20108:20211   */\n      tag_533\n        /* \"#utility.yul\":20207:20210   */\n      dup3\n        /* \"#utility.yul\":20198:20204   */\n      dup5\n        /* \"#utility.yul\":20190:20196   */\n      dup7\n        /* \"#utility.yul\":20108:20211   */\n      tag_295\n      jump\t// in\n    tag_533:\n        /* \"#utility.yul\":20101:20211   */\n      swap2\n      pop\n        /* \"#utility.yul\":20228:20231   */\n      dup2\n        /* \"#utility.yul\":20221:20231   */\n      swap1\n      pop\n        /* \"#utility.yul\":19946:20237   */\n      swap4\n      swap3\n      pop\n      pop\n      pop\n      jump\t// out\n        /* \"#utility.yul\":20243:20386   */\n    tag_296:\n        /* \"#utility.yul\":20300:20305   */\n      0x00\n        /* \"#utility.yul\":20331:20337   */\n      dup2\n        /* \"#utility.yul\":20325:20338   */\n      mload\n        /* \"#utility.yul\":20316:20338   */\n      swap1\n      pop\n        /* \"#utility.yul\":20347:20380   */\n      tag_535\n        /* \"#utility.yul\":20374:20379   */\n      dup2\n        /* \"#utility.yul\":20347:20380   */\n      tag_271\n      jump\t// in\n    tag_535:\n        /* \"#utility.yul\":20243:20386   */\n      swap3\n      swap2\n      pop\n      pop\n      jump\t// out\n        /* \"#utility.yul\":20392:20743   */\n    tag_159:\n        /* \"#utility.yul\":20462:20468   */\n      0x00\n        /* \"#utility.yul\":20511:20513   */\n      0x20\n        /* \"#utility.yul\":20499:20508   */\n      dup3\n        /* \"#utility.yul\":20490:20497   */\n      dup5\n        /* \"#utility.yul\":20486:20509   */\n      sub\n        /* \"#utility.yul\":20482:20514   */\n      slt\n        /* \"#utility.yul\":20479:20598   */\n      iszero\n      tag_537\n      jumpi\n        /* \"#utility.yul\":20517:20596   */\n      tag_538\n      tag_237\n      jump\t// in\n    tag_538:\n        /* \"#utility.yul\":20479:20598   */\n    tag_537:\n        /* \"#utility.yul\":20637:20638   */\n      0x00\n        /* \"#utility.yul\":20662:20726   */\n      tag_539\n        /* \"#utility.yul\":20718:20725   */\n      dup5\n        /* \"#utility.yul\":20709:20715   */\n      dup3\n        /* \"#utility.yul\":20698:20707   */\n      dup6\n        /* \"#utility.yul\":20694:20716   */\n      add\n        /* \"#utility.yul\":20662:20726   */\n      tag_296\n      jump\t// in\n    tag_539:\n        /* \"#utility.yul\":20652:20726   */\n      swap2\n      pop\n        /* \"#utility.yul\":20608:20736   */\n      pop\n        /* \"#utility.yul\":20392:20743   */\n      swap3\n      swap2\n      pop\n      pop\n      jump\t// out\n        /* \"#utility.yul\":20749:20828   */\n    tag_297:\n        /* \"#utility.yul\":20788:20795   */\n      0x00\n        /* \"#utility.yul\":20817:20822   */\n      dup2\n        /* \"#utility.yul\":20806:20822   */\n      swap1\n      pop\n        /* \"#utility.yul\":20749:20828   */\n      swap2\n      swap1\n      pop\n      jump\t// out\n        /* \"#utility.yul\":20834:20991   */\n    tag_298:\n        /* \"#utility.yul\":20939:20984   */\n      tag_542\n        /* \"#utility.yul\":20959:20983   */\n      tag_543\n        /* \"#utility.yul\":20977:20982   */\n      dup3\n        /* \"#utility.yul\":20959:20983   */\n      tag_270\n      jump\t// in\n    tag_543:\n        /* \"#utility.yul\":20939:20984   */\n      tag_297\n      jump\t// in\n    tag_542:\n        /* \"#utility.yul\":20934:20937   */\n      dup3\n        /* \"#utility.yul\":20927:20985   */\n      mstore\n        /* \"#utility.yul\":20834:20991   */\n      pop\n      pop\n      jump\t// out\n        /* \"#utility.yul\":20997:21253   */\n    tag_162:\n        /* \"#utility.yul\":21109:21112   */\n      0x00\n        /* \"#utility.yul\":21124:21199   */\n      tag_545\n        /* \"#utility.yul\":21195:21198   */\n      dup3\n        /* \"#utility.yul\":21186:21192   */\n      dup5\n        /* \"#utility.yul\":21124:21199   */\n      tag_298\n      jump\t// in\n    tag_545:\n        /* \"#utility.yul\":21224:21226   */\n      0x20\n        /* \"#utility.yul\":21219:21222   */\n      dup3\n        /* \"#utility.yul\":21215:21227   */\n      add\n        /* \"#utility.yul\":21208:21227   */\n      swap2\n      pop\n        /* \"#utility.yul\":21244:21247   */\n      dup2\n        /* \"#utility.yul\":21237:21247   */\n      swap1\n      pop\n        /* \"#utility.yul\":20997:21253   */\n      swap3\n      swap2\n      pop\n      pop\n      jump\t// out\n        /* \"#utility.yul\":21259:21439   */\n    tag_173:\n        /* \"#utility.yul\":21307:21384   */\n      0x4e487b7100000000000000000000000000000000000000000000000000000000\n        /* \"#utility.yul\":21304:21305   */\n      0x00\n        /* \"#utility.yul\":21297:21385   */\n      mstore\n        /* \"#utility.yul\":21404:21408   */\n      0x32\n        /* \"#utility.yul\":21401:21402   */\n      0x04\n        /* \"#utility.yul\":21394:21409   */\n      mstore\n        /* \"#utility.yul\":21428:21432   */\n      0x24\n        /* \"#utility.yul\":21425:21426   */\n      0x00\n        /* \"#utility.yul\":21418:21433   */\n      revert\n        /* \"#utility.yul\":21445:21543   */\n    tag_299:\n        /* \"#utility.yul\":21496:21502   */\n      0x00\n        /* \"#utility.yul\":21530:21535   */\n      dup2\n        /* \"#utility.yul\":21524:21536   */\n      mload\n        /* \"#utility.yul\":21514:21536   */\n      swap1\n      pop\n        /* \"#utility.yul\":21445:21543   */\n      swap2\n      swap1\n      pop\n      jump\t// out\n        /* \"#utility.yul\":21549:21665   */\n    tag_300:\n        /* \"#utility.yul\":21600:21604   */\n      0x00\n        /* \"#utility.yul\":21623:21626   */\n      dup2\n        /* \"#utility.yul\":21615:21626   */\n      swap1\n      pop\n        /* \"#utility.yul\":21653:21657   */\n      0x20\n        /* \"#utility.yul\":21648:21651   */\n      dup3\n        /* \"#utility.yul\":21644:21658   */\n      add\n        /* \"#utility.yul\":21636:21658   */\n      swap1\n      pop\n        /* \"#utility.yul\":21549:21665   */\n      swap2\n      swap1\n      pop\n      jump\t// out\n        /* \"#utility.yul\":21671:21825   */\n    tag_301:\n        /* \"#utility.yul\":21714:21725   */\n      0x00\n        /* \"#utility.yul\":21750:21779   */\n      tag_550\n        /* \"#utility.yul\":21774:21777   */\n      dup3\n        /* \"#utility.yul\":21768:21778   */\n      mload\n        /* \"#utility.yul\":21750:21779   */\n      tag_267\n      jump\t// in\n    tag_550:\n        /* \"#utility.yul\":21813:21818   */\n      dup1\n        /* \"#utility.yul\":21789:21818   */\n      swap2\n      pop\n        /* \"#utility.yul\":21726:21825   */\n      pop\n        /* \"#utility.yul\":21671:21825   */\n      swap2\n      swap1\n      pop\n      jump\t// out\n        /* \"#utility.yul\":21831:22425   */\n    tag_177:\n        /* \"#utility.yul\":21915:21920   */\n      0x00\n        /* \"#utility.yul\":21946:21984   */\n      tag_552\n        /* \"#utility.yul\":21978:21983   */\n      dup3\n        /* \"#utility.yul\":21946:21984   */\n      tag_299\n      jump\t// in\n    tag_552:\n        /* \"#utility.yul\":22009:22014   */\n      dup3\n        /* \"#utility.yul\":22036:22076   */\n      tag_553\n        /* \"#utility.yul\":22070:22075   */\n      dup5\n        /* \"#utility.yul\":22036:22076   */\n      tag_300\n      jump\t// in\n    tag_553:\n        /* \"#utility.yul\":22024:22076   */\n      swap1\n      pop\n        /* \"#utility.yul\":22095:22130   */\n      tag_554\n        /* \"#utility.yul\":22121:22129   */\n      dup2\n        /* \"#utility.yul\":22095:22130   */\n      tag_301\n      jump\t// in\n    tag_554:\n        /* \"#utility.yul\":22086:22130   */\n      swap3\n      pop\n        /* \"#utility.yul\":22154:22156   */\n      0x0a\n        /* \"#utility.yul\":22146:22152   */\n      dup3\n        /* \"#utility.yul\":22143:22157   */\n      lt\n        /* \"#utility.yul\":22140:22418   */\n      iszero\n      tag_555\n      jumpi\n        /* \"#utility.yul\":22225:22394   */\n      tag_556\n        /* \"#utility.yul\":22310:22376   */\n      0xffffffffffffffffffff00000000000000000000000000000000000000000000\n        /* \"#utility.yul\":22280:22286   */\n      dup4\n        /* \"#utility.yul\":22276:22278   */\n      0x0a\n        /* \"#utility.yul\":22272:22287   */\n      sub\n        /* \"#utility.yul\":22269:22270   */\n      0x08\n        /* \"#utility.yul\":22265:22288   */\n      mul\n        /* \"#utility.yul\":22225:22394   */\n      tag_281\n      jump\t// in\n    tag_556:\n        /* \"#utility.yul\":22202:22207   */\n      dup4\n        /* \"#utility.yul\":22181:22408   */\n      and\n        /* \"#utility.yul\":22172:22408   */\n      swap3\n      pop\n        /* \"#utility.yul\":22140:22418   */\n    tag_555:\n        /* \"#utility.yul\":21921:22425   */\n      pop\n      pop\n        /* \"#utility.yul\":21831:22425   */\n      swap2\n      swap1\n      pop\n      jump\t// out\n        /* \"#utility.yul\":22431:22674   */\n    tag_302:\n        /* \"#utility.yul\":22571:22605   */\n      0x466f7277617264657220616464726573732073657420746f207a65726f202d20\n        /* \"#utility.yul\":22567:22568   */\n      0x00\n        /* \"#utility.yul\":22559:22565   */\n      dup3\n        /* \"#utility.yul\":22555:22569   */\n      add\n        /* \"#utility.yul\":22548:22606   */\n      mstore\n        /* \"#utility.yul\":22640:22666   */\n      0x636f6e7472616374206973206e6f7720494e5345435552450000000000000000\n        /* \"#utility.yul\":22635:22637   */\n      0x20\n        /* \"#utility.yul\":22627:22633   */\n      dup3\n        /* \"#utility.yul\":22623:22638   */\n      add\n        /* \"#utility.yul\":22616:22667   */\n      mstore\n        /* \"#utility.yul\":22431:22674   */\n      pop\n      jump\t// out\n        /* \"#utility.yul\":22680:23046   */\n    tag_303:\n        /* \"#utility.yul\":22822:22825   */\n      0x00\n        /* \"#utility.yul\":22843:22910   */\n      tag_559\n        /* \"#utility.yul\":22907:22909   */\n      0x38\n        /* \"#utility.yul\":22902:22905   */\n      dup4\n        /* \"#utility.yul\":22843:22910   */\n      tag_261\n      jump\t// in\n    tag_559:\n        /* \"#utility.yul\":22836:22910   */\n      swap2\n      pop\n        /* \"#utility.yul\":22919:23012   */\n      tag_560\n        /* \"#utility.yul\":23008:23011   */\n      dup3\n        /* \"#utility.yul\":22919:23012   */\n      tag_302\n      jump\t// in\n    tag_560:\n        /* \"#utility.yul\":23037:23039   */\n      0x40\n        /* \"#utility.yul\":23032:23035   */\n      dup3\n        /* \"#utility.yul\":23028:23040   */\n      add\n        /* \"#utility.yul\":23021:23040   */\n      swap1\n      pop\n        /* \"#utility.yul\":22680:23046   */\n      swap2\n      swap1\n      pop\n      jump\t// out\n        /* \"#utility.yul\":23052:23471   */\n    tag_189:\n        /* \"#utility.yul\":23218:23222   */\n      0x00\n        /* \"#utility.yul\":23256:23258   */\n      0x20\n        /* \"#utility.yul\":23245:23254   */\n      dup3\n        /* \"#utility.yul\":23241:23259   */\n      add\n        /* \"#utility.yul\":23233:23259   */\n      swap1\n      pop\n        /* \"#utility.yul\":23305:23314   */\n      dup2\n        /* \"#utility.yul\":23299:23303   */\n      dup2\n        /* \"#utility.yul\":23295:23315   */\n      sub\n        /* \"#utility.yul\":23291:23292   */\n      0x00\n        /* \"#utility.yul\":23280:23289   */\n      dup4\n        /* \"#utility.yul\":23276:23293   */\n      add\n        /* \"#utility.yul\":23269:23316   */\n      mstore\n        /* \"#utility.yul\":23333:23464   */\n      tag_562\n        /* \"#utility.yul\":23459:23463   */\n      dup2\n        /* \"#utility.yul\":23333:23464   */\n      tag_303\n      jump\t// in\n    tag_562:\n        /* \"#utility.yul\":23325:23464   */\n      swap1\n      pop\n        /* \"#utility.yul\":23052:23471   */\n      swap2\n      swap1\n      pop\n      jump\t// out\n        /* \"#utility.yul\":23477:23657   */\n    tag_304:\n        /* \"#utility.yul\":23525:23602   */\n      0x4e487b7100000000000000000000000000000000000000000000000000000000\n        /* \"#utility.yul\":23522:23523   */\n      0x00\n        /* \"#utility.yul\":23515:23603   */\n      mstore\n        /* \"#utility.yul\":23622:23626   */\n      0x11\n        /* \"#utility.yul\":23619:23620   */\n      0x04\n        /* \"#utility.yul\":23612:23627   */\n      mstore\n        /* \"#utility.yul\":23646:23650   */\n      0x24\n        /* \"#utility.yul\":23643:23644   */\n      0x00\n        /* \"#utility.yul\":23636:23651   */\n      revert\n        /* \"#utility.yul\":23663:24073   */\n    tag_212:\n        /* \"#utility.yul\":23703:23710   */\n      0x00\n        /* \"#utility.yul\":23726:23746   */\n      tag_565\n        /* \"#utility.yul\":23744:23745   */\n      dup3\n        /* \"#utility.yul\":23726:23746   */\n      tag_253\n      jump\t// in\n    tag_565:\n        /* \"#utility.yul\":23721:23746   */\n      swap2\n      pop\n        /* \"#utility.yul\":23760:23780   */\n      tag_566\n        /* \"#utility.yul\":23778:23779   */\n      dup4\n        /* \"#utility.yul\":23760:23780   */\n      tag_253\n      jump\t// in\n    tag_566:\n        /* \"#utility.yul\":23755:23780   */\n      swap3\n      pop\n        /* \"#utility.yul\":23815:23816   */\n      dup3\n        /* \"#utility.yul\":23812:23813   */\n      dup3\n        /* \"#utility.yul\":23808:23817   */\n      mul\n        /* \"#utility.yul\":23837:23867   */\n      tag_567\n        /* \"#utility.yul\":23855:23866   */\n      dup2\n        /* \"#utility.yul\":23837:23867   */\n      tag_253\n      jump\t// in\n    tag_567:\n        /* \"#utility.yul\":23826:23867   */\n      swap2\n      pop\n        /* \"#utility.yul\":24016:24017   */\n      dup3\n        /* \"#utility.yul\":24007:24014   */\n      dup3\n        /* \"#utility.yul\":24003:24018   */\n      div\n        /* \"#utility.yul\":24000:24001   */\n      dup5\n        /* \"#utility.yul\":23997:24019   */\n      eq\n        /* \"#utility.yul\":23977:23978   */\n      dup4\n        /* \"#utility.yul\":23970:23979   */\n      iszero\n        /* \"#utility.yul\":23950:24033   */\n      or\n        /* \"#utility.yul\":23927:24066   */\n      tag_568\n      jumpi\n        /* \"#utility.yul\":24046:24064   */\n      tag_569\n      tag_304\n      jump\t// in\n    tag_569:\n        /* \"#utility.yul\":23927:24066   */\n    tag_568:\n        /* \"#utility.yul\":23711:24073   */\n      pop\n        /* \"#utility.yul\":23663:24073   */\n      swap3\n      swap2\n      pop\n      pop\n      jump\t// out\n        /* \"#utility.yul\":24079:24270   */\n    tag_232:\n        /* \"#utility.yul\":24119:24122   */\n      0x00\n        /* \"#utility.yul\":24138:24158   */\n      tag_571\n        /* \"#utility.yul\":24156:24157   */\n      dup3\n        /* \"#utility.yul\":24138:24158   */\n      tag_253\n      jump\t// in\n    tag_571:\n        /* \"#utility.yul\":24133:24158   */\n      swap2\n      pop\n        /* \"#utility.yul\":24172:24192   */\n      tag_572\n        /* \"#utility.yul\":24190:24191   */\n      dup4\n        /* \"#utility.yul\":24172:24192   */\n      tag_253\n      jump\t// in\n    tag_572:\n        /* \"#utility.yul\":24167:24192   */\n      swap3\n      pop\n        /* \"#utility.yul\":24215:24216   */\n      dup3\n        /* \"#utility.yul\":24212:24213   */\n      dup3\n        /* \"#utility.yul\":24208:24217   */\n      add\n        /* \"#utility.yul\":24201:24217   */\n      swap1\n      pop\n        /* \"#utility.yul\":24236:24239   */\n      dup1\n        /* \"#utility.yul\":24233:24234   */\n      dup3\n        /* \"#utility.yul\":24230:24240   */\n      gt\n        /* \"#utility.yul\":24227:24263   */\n      iszero\n      tag_573\n      jumpi\n        /* \"#utility.yul\":24243:24261   */\n      tag_574\n      tag_304\n      jump\t// in\n    tag_574:\n        /* \"#utility.yul\":24227:24263   */\n    tag_573:\n        /* \"#utility.yul\":24079:24270   */\n      swap3\n      swap2\n      pop\n      pop\n      jump\t// out\n\n    auxdata: 0xa264697066735822122080ad3a3a2b2d248d786e393f7140dd2003fc87073451c0526a51e7a067cfb8aa64736f6c634300081f0033\n}\n",
				"bytecode": {
					"linkReferences": {},
					"object": "608060405234801561000f575f5ffd5b5060405161251c38038061251c833981810160405281019061003191906102d8565b80335f73ffffffffffffffffffffffffffffffffffffffff168173ffffffffffffffffffffffffffffffffffffffff16036100a3575f6040517f1e4fbdf700000000000000000000000000000000000000000000000000000000815260040161009a9190610312565b60405180910390fd5b6100b2816101b960201b60201c565b505f73ffffffffffffffffffffffffffffffffffffffff168173ffffffffffffffffffffffffffffffffffffffff1603610118576040517f381dd54000000000000000000000000000000000000000000000000000000000815260040160405180910390fd5b8060015f6101000a81548173ffffffffffffffffffffffffffffffffffffffff021916908373ffffffffffffffffffffffffffffffffffffffff1602179055508073ffffffffffffffffffffffffffffffffffffffff165f73ffffffffffffffffffffffffffffffffffffffff167f039ad854736757070884dd787ef1a7f58db33546639d1f3efddcf4a33fb8997e60405160405180910390a3505061032b565b5f5f5f9054906101000a900473ffffffffffffffffffffffffffffffffffffffff169050815f5f6101000a81548173ffffffffffffffffffffffffffffffffffffffff021916908373ffffffffffffffffffffffffffffffffffffffff1602179055508173ffffffffffffffffffffffffffffffffffffffff168173ffffffffffffffffffffffffffffffffffffffff167f8be0079c531659141344cd1fd0a4f28419497f9722a3daafe3b4186f6b6457e060405160405180910390a35050565b5f5ffd5b5f73ffffffffffffffffffffffffffffffffffffffff82169050919050565b5f6102a78261027e565b9050919050565b6102b78161029d565b81146102c1575f5ffd5b50565b5f815190506102d2816102ae565b92915050565b5f602082840312156102ed576102ec61027a565b5b5f6102fa848285016102c4565b91505092915050565b61030c8161029d565b82525050565b5f6020820190506103255f830184610303565b92915050565b6121e4806103385f395ff3fe608060405234801561000f575f5ffd5b506004361061011f575f3560e01c80638da5cb5b116100ab578063d60c884b1161006f578063d60c884b146102e0578063d777cc6d146102fc578063f209335014610318578063f2fde38b14610336578063f5c793ef146103525761011f565b80638da5cb5b1461024e578063a619d8181461026c578063a6b7fc5b1461028a578063bc1fc27a146102a8578063c3c44ac2146102c45761011f565b80633441856f116100f25780633441856f146101bd5780636057361d146101db5780636b44374d146101f7578063715018a614610228578063805f2132146102325761011f565b806301ffc9a71461012357806306c62c2c1461015357806327422150146101835780633397cf671461019f575b5f5ffd5b61013d6004803603810190610138919061151f565b610370565b60405161014a9190611564565b60405180910390f35b61016d600480360381019061016891906116b9565b610441565b60405161017a9190611718565b60405180910390f35b61019d6004803603810190610198919061175b565b61046e565b005b6101a76104f7565b6040516101b491906117f4565b60405180910390f35b6101c561051f565b6040516101d291906117f4565b60405180910390f35b6101f560048036038101906101f0919061180d565b610547565b005b610211600480360381019061020c919061180d565b610551565b60405161021f929190611898565b60405180910390f35b610230610606565b005b61024c60048036038101906102479190611923565b610619565b005b610256610b18565b60405161026391906117f4565b60405180910390f35b610274610b3f565b60405161028191906119db565b60405180910390f35b610292610b55565b60405161029f9190611718565b60405180910390f35b6102c260048036038101906102bd9190611a49565b610b5e565b005b6102de60048036038101906102d99190611ac7565b610e02565b005b6102fa60048036038101906102f59190611b1c565b610e49565b005b61031660048036038101906103119190611b1c565b610f14565b005b610320611048565b60405161032d9190611718565b60405180910390f35b610350600480360381019061034b9190611b1c565b611051565b005b61035a6110d5565b6040516103679190611b56565b60405180910390f35b5f7f805f2132000000000000000000000000000000000000000000000000000000007bffffffffffffffffffffffffffffffffffffffffffffffffffffffff1916827bffffffffffffffffffffffffffffffffffffffffffffffffffffffff1916148061043a57507f01ffc9a7000000000000000000000000000000000000000000000000000000007bffffffffffffffffffffffffffffffffffffffffffffffffffffffff1916827bffffffffffffffffffffffffffffffffffffffffffffffffffffffff1916145b9050919050565b6006818051602081018201805184825260208301602085012081835280955050505050505f915090505481565b8060068360405161047f9190611ba9565b9081526020016040518091039020819055505f6040518060400160405280838152602001848152509050600581908060018154018082558091505060019003905f5260205f2090600202015f909190919091505f820151815f015560208201518160010190816104ef9190611dbc565b505050505050565b5f60025f9054906101000a900473ffffffffffffffffffffffffffffffffffffffff16905090565b5f60015f9054906101000a900473ffffffffffffffffffffffffffffffffffffffff16905090565b8060048190555050565b60058181548110610560575f80fd5b905f5260205f2090600202015f91509050805f01549080600101805461058590611bec565b80601f01602080910402602001604051908101604052809291908181526020018280546105b190611bec565b80156105fc5780601f106105d3576101008083540402835291602001916105fc565b820191905f5260205f20905b8154815290600101906020018083116105df57829003601f168201915b5050505050905082565b61060e6110de565b6106175f611165565b565b5f73ffffffffffffffffffffffffffffffffffffffff1660015f9054906101000a900473ffffffffffffffffffffffffffffffffffffffff1673ffffffffffffffffffffffffffffffffffffffff16141580156106c3575060015f9054906101000a900473ffffffffffffffffffffffffffffffffffffffff1673ffffffffffffffffffffffffffffffffffffffff163373ffffffffffffffffffffffffffffffffffffffff1614155b15610728573360015f9054906101000a900473ffffffffffffffffffffffffffffffffffffffff166040517fe1130dba00000000000000000000000000000000000000000000000000000000815260040161071f929190611e8b565b60405180910390fd5b5f5f1b60035414158061078857505f73ffffffffffffffffffffffffffffffffffffffff1660025f9054906101000a900473ffffffffffffffffffffffffffffffffffffffff1673ffffffffffffffffffffffffffffffffffffffff1614155b806107d757505f60b01b75ffffffffffffffffffffffffffffffffffffffffffff1916600260149054906101000a900460b01b75ffffffffffffffffffffffffffffffffffffffffffff191614155b15610b08575f5f5f61082b87878080601f0160208091040260200160405190810160405280939291908181526020018383808284375f81840152601f19601f82011690508083019250505050505050611226565b9250925092505f5f1b6003541415801561084757506003548314155b1561088d57826003546040517f9bfa39ba000000000000000000000000000000000000000000000000000000008152600401610884929190611eb2565b60405180910390fd5b5f73ffffffffffffffffffffffffffffffffffffffff1660025f9054906101000a900473ffffffffffffffffffffffffffffffffffffffff1673ffffffffffffffffffffffffffffffffffffffff1614158015610937575060025f9054906101000a900473ffffffffffffffffffffffffffffffffffffffff1673ffffffffffffffffffffffffffffffffffffffff168173ffffffffffffffffffffffffffffffffffffffff1614155b1561099c578060025f9054906101000a900473ffffffffffffffffffffffffffffffffffffffff166040517fb8a98af8000000000000000000000000000000000000000000000000000000008152600401610993929190611e8b565b60405180910390fd5b5f60b01b75ffffffffffffffffffffffffffffffffffffffffffff1916600260149054906101000a900460b01b75ffffffffffffffffffffffffffffffffffffffffffff191614610b04575f73ffffffffffffffffffffffffffffffffffffffff1660025f9054906101000a900473ffffffffffffffffffffffffffffffffffffffff1673ffffffffffffffffffffffffffffffffffffffff1603610a6d576040517f4847901100000000000000000000000000000000000000000000000000000000815260040160405180910390fd5b600260149054906101000a900460b01b75ffffffffffffffffffffffffffffffffffffffffffff19168275ffffffffffffffffffffffffffffffffffffffffffff191614610b035781600260149054906101000a900460b01b6040517f6c4609a6000000000000000000000000000000000000000000000000000000008152600401610afa929190611ed9565b60405180910390fd5b5b5050505b610b12828261124b565b50505050565b5f5f5f9054906101000a900473ffffffffffffffffffffffffffffffffffffffff16905090565b5f600260149054906101000a900460b01b905090565b5f600454905090565b610b666110de565b5f600260149054906101000a900460b01b90505f8383905003610c13575f60b01b600260146101000a81548169ffffffffffffffffffff021916908360b01c02179055505f60b01b75ffffffffffffffffffffffffffffffffffffffffffff19168175ffffffffffffffffffffffffffffffffffffffffffff19167f1e7ddd09d504c82dcfc784a464b167469f5aad967606ec4822d848ef9141dfa560405160405180910390a350610dfe565b5f60028484604051610c26929190611f2e565b602060405180830381855afa158015610c41573d5f5f3e3d5ffd5b5050506040513d601f19601f82011682018060405250810190610c649190611f5a565b90505f610c8f82604051602001610c7b9190611fa5565b604051602081830303815290604052611270565b90505f600a67ffffffffffffffff811115610cad57610cac611595565b5b6040519080825280601f01601f191660200182016040528015610cdf5781602001600182028036833780820191505090505b5090505f5f90505b600a811015610d5c57828181518110610d0357610d02611fbf565b5b602001015160f81c60f81b828281518110610d2157610d20611fbf565b5b60200101907effffffffffffffffffffffffffffffffffffffffffffffffffffffffffffff191690815f1a9053508080600101915050610ce7565b5080610d6790612019565b600260146101000a81548169ffffffffffffffffffff021916908360b01c0217905550600260149054906101000a900460b01b75ffffffffffffffffffffffffffffffffffffffffffff19168475ffffffffffffffffffffffffffffffffffffffffffff19167f1e7ddd09d504c82dcfc784a464b167469f5aad967606ec4822d848ef9141dfa560405160405180910390a3505050505b5050565b610e0a6110de565b5f60035490508160038190555081817f0dbedcdf21925e053b4c574eae180d7f2883235ab4976ecc0873598a2a999b0360405160405180910390a35050565b610e516110de565b5f60025f9054906101000a900473ffffffffffffffffffffffffffffffffffffffff1690508160025f6101000a81548173ffffffffffffffffffffffffffffffffffffffff021916908373ffffffffffffffffffffffffffffffffffffffff1602179055508173ffffffffffffffffffffffffffffffffffffffff168173ffffffffffffffffffffffffffffffffffffffff167f3321cda85c145617e47418aa14255e9dcbec53a753778e57591703b89a3cad3160405160405180910390a35050565b610f1c6110de565b5f60015f9054906101000a900473ffffffffffffffffffffffffffffffffffffffff1690505f73ffffffffffffffffffffffffffffffffffffffff168273ffffffffffffffffffffffffffffffffffffffff1603610faa577f704da7db165c79c1e33d542c079333bbde970a733032d2f95fec8fb7d770cbf7604051610fa1906120ef565b60405180910390a15b8160015f6101000a81548173ffffffffffffffffffffffffffffffffffffffff021916908373ffffffffffffffffffffffffffffffffffffffff1602179055508173ffffffffffffffffffffffffffffffffffffffff168173ffffffffffffffffffffffffffffffffffffffff167f039ad854736757070884dd787ef1a7f58db33546639d1f3efddcf4a33fb8997e60405160405180910390a35050565b5f600454905090565b6110596110de565b5f73ffffffffffffffffffffffffffffffffffffffff168173ffffffffffffffffffffffffffffffffffffffff16036110c9575f6040517f1e4fbdf70000000000000000000000000000000000000000000000000000000081526004016110c091906117f4565b60405180910390fd5b6110d281611165565b50565b5f600354905090565b6110e66114b2565b73ffffffffffffffffffffffffffffffffffffffff16611104610b18565b73ffffffffffffffffffffffffffffffffffffffff1614611163576111276114b2565b6040517f118cdaa700000000000000000000000000000000000000000000000000000000815260040161115a91906117f4565b60405180910390fd5b565b5f5f5f9054906101000a900473ffffffffffffffffffffffffffffffffffffffff169050815f5f6101000a81548173ffffffffffffffffffffffffffffffffffffffff021916908373ffffffffffffffffffffffffffffffffffffffff1602179055508173ffffffffffffffffffffffffffffffffffffffff168173ffffffffffffffffffffffffffffffffffffffff167f8be0079c531659141344cd1fd0a4f28419497f9722a3daafe3b4186f6b6457e060405160405180910390a35050565b5f5f5f6020840151925060408401519150604a8401516008600c021c90509193909250565b5f5f838381019061125c919061175b565b9150915061126a828261046e565b50505050565b60605f60028351611281919061213a565b67ffffffffffffffff81111561129a57611299611595565b5b6040519080825280601f01601f1916602001820160405280156112cc5781602001600182028036833780820191505090505b5090505f5f90505b83518110156114a8576040518060400160405280601081526020017f3031323334353637383961626364656600000000000000000000000000000000815250600485838151811061132857611327611fbf565b5b602001015160f81c60f81b7effffffffffffffffffffffffffffffffffffffffffffffffffffffffffffff1916901c60f81c60ff168151811061136e5761136d611fbf565b5b602001015160f81c60f81b82600283611387919061213a565b8151811061139857611397611fbf565b5b60200101907effffffffffffffffffffffffffffffffffffffffffffffffffffffffffffff191690815f1a9053506040518060400160405280601081526020017f3031323334353637383961626364656600000000000000000000000000000000815250600f60f81b85838151811061141457611413611fbf565b5b602001015160f81c60f81b1660f81c60ff168151811061143757611436611fbf565b5b602001015160f81c60f81b826001600284611452919061213a565b61145c919061217b565b8151811061146d5761146c611fbf565b5b60200101907effffffffffffffffffffffffffffffffffffffffffffffffffffffffffffff191690815f1a90535080806001019150506112d4565b5080915050919050565b5f33905090565b5f604051905090565b5f5ffd5b5f5ffd5b5f7fffffffff0000000000000000000000000000000000000000000000000000000082169050919050565b6114fe816114ca565b8114611508575f5ffd5b50565b5f81359050611519816114f5565b92915050565b5f60208284031215611534576115336114c2565b5b5f6115418482850161150b565b91505092915050565b5f8115159050919050565b61155e8161154a565b82525050565b5f6020820190506115775f830184611555565b92915050565b5f5ffd5b5f5ffd5b5f601f19601f8301169050919050565b7f4e487b71000000000000000000000000000000000000000000000000000000005f52604160045260245ffd5b6115cb82611585565b810181811067ffffffffffffffff821117156115ea576115e9611595565b5b80604052505050565b5f6115fc6114b9565b905061160882826115c2565b919050565b5f67ffffffffffffffff82111561162757611626611595565b5b61163082611585565b9050602081019050919050565b828183375f83830152505050565b5f61165d6116588461160d565b6115f3565b90508281526020810184848401111561167957611678611581565b5b61168484828561163d565b509392505050565b5f82601f8301126116a05761169f61157d565b5b81356116b084826020860161164b565b91505092915050565b5f602082840312156116ce576116cd6114c2565b5b5f82013567ffffffffffffffff8111156116eb576116ea6114c6565b5b6116f78482850161168c565b91505092915050565b5f819050919050565b61171281611700565b82525050565b5f60208201905061172b5f830184611709565b92915050565b61173a81611700565b8114611744575f5ffd5b50565b5f8135905061175581611731565b92915050565b5f5f60408385031215611771576117706114c2565b5b5f83013567ffffffffffffffff81111561178e5761178d6114c6565b5b61179a8582860161168c565b92505060206117ab85828601611747565b9150509250929050565b5f73ffffffffffffffffffffffffffffffffffffffff82169050919050565b5f6117de826117b5565b9050919050565b6117ee816117d4565b82525050565b5f6020820190506118075f8301846117e5565b92915050565b5f60208284031215611822576118216114c2565b5b5f61182f84828501611747565b91505092915050565b5f81519050919050565b5f82825260208201905092915050565b8281835e5f83830152505050565b5f61186a82611838565b6118748185611842565b9350611884818560208601611852565b61188d81611585565b840191505092915050565b5f6040820190506118ab5f830185611709565b81810360208301526118bd8184611860565b90509392505050565b5f5ffd5b5f5ffd5b5f5f83601f8401126118e3576118e261157d565b5b8235905067ffffffffffffffff811115611900576118ff6118c6565b5b60208301915083600182028301111561191c5761191b6118ca565b5b9250929050565b5f5f5f5f6040858703121561193b5761193a6114c2565b5b5f85013567ffffffffffffffff811115611958576119576114c6565b5b611964878288016118ce565b9450945050602085013567ffffffffffffffff811115611987576119866114c6565b5b611993878288016118ce565b925092505092959194509250565b5f7fffffffffffffffffffff0000000000000000000000000000000000000000000082169050919050565b6119d5816119a1565b82525050565b5f6020820190506119ee5f8301846119cc565b92915050565b5f5f83601f840112611a0957611a0861157d565b5b8235905067ffffffffffffffff811115611a2657611a256118c6565b5b602083019150836001820283011115611a4257611a416118ca565b5b9250929050565b5f5f60208385031215611a5f57611a5e6114c2565b5b5f83013567ffffffffffffffff811115611a7c57611a7b6114c6565b5b611a88858286016119f4565b92509250509250929050565b5f819050919050565b611aa681611a94565b8114611ab0575f5ffd5b50565b5f81359050611ac181611a9d565b92915050565b5f60208284031215611adc57611adb6114c2565b5b5f611ae984828501611ab3565b91505092915050565b611afb816117d4565b8114611b05575f5ffd5b50565b5f81359050611b1681611af2565b92915050565b5f60208284031215611b3157611b306114c2565b5b5f611b3e84828501611b08565b91505092915050565b611b5081611a94565b82525050565b5f602082019050611b695f830184611b47565b92915050565b5f81905092915050565b5f611b8382611838565b611b8d8185611b6f565b9350611b9d818560208601611852565b80840191505092915050565b5f611bb48284611b79565b915081905092915050565b7f4e487b71000000000000000000000000000000000000000000000000000000005f52602260045260245ffd5b5f6002820490506001821680611c0357607f821691505b602082108103611c1657611c15611bbf565b5b50919050565b5f819050815f5260205f209050919050565b5f6020601f8301049050919050565b5f82821b905092915050565b5f60088302611c787fffffffffffffffffffffffffffffffffffffffffffffffffffffffffffffffff82611c3d565b611c828683611c3d565b95508019841693508086168417925050509392505050565b5f819050919050565b5f611cbd611cb8611cb384611700565b611c9a565b611700565b9050919050565b5f819050919050565b611cd683611ca3565b611cea611ce282611cc4565b848454611c49565b825550505050565b5f5f905090565b611d01611cf2565b611d0c818484611ccd565b505050565b5b81811015611d2f57611d245f82611cf9565b600181019050611d12565b5050565b601f821115611d7457611d4581611c1c565b611d4e84611c2e565b81016020851015611d5d578190505b611d71611d6985611c2e565b830182611d11565b50505b505050565b5f82821c905092915050565b5f611d945f1984600802611d79565b1980831691505092915050565b5f611dac8383611d85565b9150826002028217905092915050565b611dc582611838565b67ffffffffffffffff811115611dde57611ddd611595565b5b611de88254611bec565b611df3828285611d33565b5f60209050601f831160018114611e24575f8415611e12578287015190505b611e1c8582611da1565b865550611e83565b601f198416611e3286611c1c565b5f5b82811015611e5957848901518255600182019150602085019450602081019050611e34565b86831015611e765784890151611e72601f891682611d85565b8355505b6001600288020188555050505b505050505050565b5f604082019050611e9e5f8301856117e5565b611eab60208301846117e5565b9392505050565b5f604082019050611ec55f830185611b47565b611ed26020830184611b47565b9392505050565b5f604082019050611eec5f8301856119cc565b611ef960208301846119cc565b9392505050565b5f81905092915050565b5f611f158385611f00565b9350611f2283858461163d565b82840190509392505050565b5f611f3a828486611f0a565b91508190509392505050565b5f81519050611f5481611a9d565b92915050565b5f60208284031215611f6f57611f6e6114c2565b5b5f611f7c84828501611f46565b91505092915050565b5f819050919050565b611f9f611f9a82611a94565b611f85565b82525050565b5f611fb08284611f8e565b60208201915081905092915050565b7f4e487b71000000000000000000000000000000000000000000000000000000005f52603260045260245ffd5b5f81519050919050565b5f819050602082019050919050565b5f61201082516119a1565b80915050919050565b5f61202382611fec565b8261202d84611ff6565b905061203881612005565b9250600a821015612078576120737fffffffffffffffffffff0000000000000000000000000000000000000000000083600a03600802611c3d565b831692505b5050919050565b7f466f7277617264657220616464726573732073657420746f207a65726f202d205f8201527f636f6e7472616374206973206e6f7720494e5345435552450000000000000000602082015250565b5f6120d9603883611842565b91506120e48261207f565b604082019050919050565b5f6020820190508181035f830152612106816120cd565b9050919050565b7f4e487b71000000000000000000000000000000000000000000000000000000005f52601160045260245ffd5b5f61214482611700565b915061214f83611700565b925082820261215d81611700565b915082820484148315176121745761217361210d565b5b5092915050565b5f61218582611700565b915061219083611700565b92508282019050808211156121a8576121a761210d565b5b9291505056fea264697066735822122080ad3a3a2b2d248d786e393f7140dd2003fc87073451c0526a51e7a067cfb8aa64736f6c634300081f0033",
					"opcodes": "PUSH1 0x80 PUSH1 0x40 MSTORE CALLVALUE DUP1 ISZERO PUSH2 0xF JUMPI PUSH0 PUSH0 REVERT JUMPDEST POP PUSH1 0x40 MLOAD PUSH2 0x251C CODESIZE SUB DUP1 PUSH2 0x251C DUP4 CODECOPY DUP2 DUP2 ADD PUSH1 0x40 MSTORE DUP2 ADD SWAP1 PUSH2 0x31 SWAP2 SWAP1 PUSH2 0x2D8 JUMP JUMPDEST DUP1 CALLER PUSH0 PUSH20 0xFFFFFFFFFFFFFFFFFFFFFFFFFFFFFFFFFFFFFFFF AND DUP2 PUSH20 0xFFFFFFFFFFFFFFFFFFFFFFFFFFFFFFFFFFFFFFFF AND SUB PUSH2 0xA3 JUMPI PUSH0 PUSH1 0x40 MLOAD PUSH32 0x1E4FBDF700000000000000000000000000000000000000000000000000000000 DUP2 MSTORE PUSH1 0x4 ADD PUSH2 0x9A SWAP2 SWAP1 PUSH2 0x312 JUMP JUMPDEST PUSH1 0x40 MLOAD DUP1 SWAP2 SUB SWAP1 REVERT JUMPDEST PUSH2 0xB2 DUP2 PUSH2 0x1B9 PUSH1 0x20 SHL PUSH1 0x20 SHR JUMP JUMPDEST POP PUSH0 PUSH20 0xFFFFFFFFFFFFFFFFFFFFFFFFFFFFFFFFFFFFFFFF AND DUP2 PUSH20 0xFFFFFFFFFFFFFFFFFFFFFFFFFFFFFFFFFFFFFFFF AND SUB PUSH2 0x118 JUMPI PUSH1 0x40 MLOAD PUSH32 0x381DD54000000000000000000000000000000000000000000000000000000000 DUP2 MSTORE PUSH1 0x4 ADD PUSH1 0x40 MLOAD DUP1 SWAP2 SUB SWAP1 REVERT JUMPDEST DUP1 PUSH1 0x1 PUSH0 PUSH2 0x100 EXP DUP2 SLOAD DUP2 PUSH20 0xFFFFFFFFFFFFFFFFFFFFFFFFFFFFFFFFFFFFFFFF MUL NOT AND SWAP1 DUP4 PUSH20 0xFFFFFFFFFFFFFFFFFFFFFFFFFFFFFFFFFFFFFFFF AND MUL OR SWAP1 SSTORE POP DUP1 PUSH20 0xFFFFFFFFFFFFFFFFFFFFFFFFFFFFFFFFFFFFFFFF AND PUSH0 PUSH20 0xFFFFFFFFFFFFFFFFFFFFFFFFFFFFFFFFFFFFFFFF AND PUSH32 0x39AD854736757070884DD787EF1A7F58DB33546639D1F3EFDDCF4A33FB8997E PUSH1 0x40 MLOAD PUSH1 0x40 MLOAD DUP1 SWAP2 SUB SWAP1 LOG3 POP POP PUSH2 0x32B JUMP JUMPDEST PUSH0 PUSH0 PUSH0 SWAP1 SLOAD SWAP1 PUSH2 0x100 EXP SWAP1 DIV PUSH20 0xFFFFFFFFFFFFFFFFFFFFFFFFFFFFFFFFFFFFFFFF AND SWAP1 POP DUP2 PUSH0 PUSH0 PUSH2 0x100 EXP DUP2 SLOAD DUP2 PUSH20 0xFFFFFFFFFFFFFFFFFFFFFFFFFFFFFFFFFFFFFFFF MUL NOT AND SWAP1 DUP4 PUSH20 0xFFFFFFFFFFFFFFFFFFFFFFFFFFFFFFFFFFFFFFFF AND MUL OR SWAP1 SSTORE POP DUP2 PUSH20 0xFFFFFFFFFFFFFFFFFFFFFFFFFFFFFFFFFFFFFFFF AND DUP2 PUSH20 0xFFFFFFFFFFFFFFFFFFFFFFFFFFFFFFFFFFFFFFFF AND PUSH32 0x8BE0079C531659141344CD1FD0A4F28419497F9722A3DAAFE3B4186F6B6457E0 PUSH1 0x40 MLOAD PUSH1 0x40 MLOAD DUP1 SWAP2 SUB SWAP1 LOG3 POP POP JUMP JUMPDEST PUSH0 PUSH0 REVERT JUMPDEST PUSH0 PUSH20 0xFFFFFFFFFFFFFFFFFFFFFFFFFFFFFFFFFFFFFFFF DUP3 AND SWAP1 POP SWAP2 SWAP1 POP JUMP JUMPDEST PUSH0 PUSH2 0x2A7 DUP3 PUSH2 0x27E JUMP JUMPDEST SWAP1 POP SWAP2 SWAP1 POP JUMP JUMPDEST PUSH2 0x2B7 DUP2 PUSH2 0x29D JUMP JUMPDEST DUP2 EQ PUSH2 0x2C1 JUMPI PUSH0 PUSH0 REVERT JUMPDEST POP JUMP JUMPDEST PUSH0 DUP2 MLOAD SWAP1 POP PUSH2 0x2D2 DUP2 PUSH2 0x2AE JUMP JUMPDEST SWAP3 SWAP2 POP POP JUMP JUMPDEST PUSH0 PUSH1 0x20 DUP3 DUP5 SUB SLT ISZERO PUSH2 0x2ED JUMPI PUSH2 0x2EC PUSH2 0x27A JUMP JUMPDEST JUMPDEST PUSH0 PUSH2 0x2FA DUP5 DUP3 DUP6 ADD PUSH2 0x2C4 JUMP JUMPDEST SWAP2 POP POP SWAP3 SWAP2 POP POP JUMP JUMPDEST PUSH2 0x30C DUP2 PUSH2 0x29D JUMP JUMPDEST DUP3 MSTORE POP POP JUMP JUMPDEST PUSH0 PUSH1 0x20 DUP3 ADD SWAP1 POP PUSH2 0x325 PUSH0 DUP4 ADD DUP5 PUSH2 0x303 JUMP JUMPDEST SWAP3 SWAP2 POP POP JUMP JUMPDEST PUSH2 0x21E4 DUP1 PUSH2 0x338 PUSH0 CODECOPY PUSH0 RETURN INVALID PUSH1 0x80 PUSH1 0x40 MSTORE CALLVALUE DUP1 ISZERO PUSH2 0xF JUMPI PUSH0 PUSH0 REVERT JUMPDEST POP PUSH1 0x4 CALLDATASIZE LT PUSH2 0x11F JUMPI PUSH0 CALLDATALOAD PUSH1 0xE0 SHR DUP1 PUSH4 0x8DA5CB5B GT PUSH2 0xAB JUMPI DUP1 PUSH4 0xD60C884B GT PUSH2 0x6F JUMPI DUP1 PUSH4 0xD60C884B EQ PUSH2 0x2E0 JUMPI DUP1 PUSH4 0xD777CC6D EQ PUSH2 0x2FC JUMPI DUP1 PUSH4 0xF2093350 EQ PUSH2 0x318 JUMPI DUP1 PUSH4 0xF2FDE38B EQ PUSH2 0x336 JUMPI DUP1 PUSH4 0xF5C793EF EQ PUSH2 0x352 JUMPI PUSH2 0x11F JUMP JUMPDEST DUP1 PUSH4 0x8DA5CB5B EQ PUSH2 0x24E JUMPI DUP1 PUSH4 0xA619D818 EQ PUSH2 0x26C JUMPI DUP1 PUSH4 0xA6B7FC5B EQ PUSH2 0x28A JUMPI DUP1 PUSH4 0xBC1FC27A EQ PUSH2 0x2A8 JUMPI DUP1 PUSH4 0xC3C44AC2 EQ PUSH2 0x2C4 JUMPI PUSH2 0x11F JUMP JUMPDEST DUP1 PUSH4 0x3441856F GT PUSH2 0xF2 JUMPI DUP1 PUSH4 0x3441856F EQ PUSH2 0x1BD JUMPI DUP1 PUSH4 0x6057361D EQ PUSH2 0x1DB JUMPI DUP1 PUSH4 0x6B44374D EQ PUSH2 0x1F7 JUMPI DUP1 PUSH4 0x715018A6 EQ PUSH2 0x228 JUMPI DUP1 PUSH4 0x805F2132 EQ PUSH2 0x232 JUMPI PUSH2 0x11F JUMP JUMPDEST DUP1 PUSH4 0x1FFC9A7 EQ PUSH2 0x123 JUMPI DUP1 PUSH4 0x6C62C2C EQ PUSH2 0x153 JUMPI DUP1 PUSH4 0x27422150 EQ PUSH2 0x183 JUMPI DUP1 PUSH4 0x3397CF67 EQ PUSH2 0x19F JUMPI JUMPDEST PUSH0 PUSH0 REVERT JUMPDEST PUSH2 0x13D PUSH1 0x4 DUP1 CALLDATASIZE SUB DUP2 ADD SWAP1 PUSH2 0x138 SWAP2 SWAP1 PUSH2 0x151F JUMP JUMPDEST PUSH2 0x370 JUMP JUMPDEST PUSH1 0x40 MLOAD PUSH2 0x14A SWAP2 SWAP1 PUSH2 0x1564 JUMP JUMPDEST PUSH1 0x40 MLOAD DUP1 SWAP2 SUB SWAP1 RETURN JUMPDEST PUSH2 0x16D PUSH1 0x4 DUP1 CALLDATASIZE SUB DUP2 ADD SWAP1 PUSH2 0x168 SWAP2 SWAP1 PUSH2 0x16B9 JUMP JUMPDEST PUSH2 0x441 JUMP JUMPDEST PUSH1 0x40 MLOAD PUSH2 0x17A SWAP2 SWAP1 PUSH2 0x1718 JUMP JUMPDEST PUSH1 0x40 MLOAD DUP1 SWAP2 SUB SWAP1 RETURN JUMPDEST PUSH2 0x19D PUSH1 0x4 DUP1 CALLDATASIZE SUB DUP2 ADD SWAP1 PUSH2 0x198 SWAP2 SWAP1 PUSH2 0x175B JUMP JUMPDEST PUSH2 0x46E JUMP JUMPDEST STOP JUMPDEST PUSH2 0x1A7 PUSH2 0x4F7 JUMP JUMPDEST PUSH1 0x40 MLOAD PUSH2 0x1B4 SWAP2 SWAP1 PUSH2 0x17F4 JUMP JUMPDEST PUSH1 0x40 MLOAD DUP1 SWAP2 SUB SWAP1 RETURN JUMPDEST PUSH2 0x1C5 PUSH2 0x51F JUMP JUMPDEST PUSH1 0x40 MLOAD PUSH2 0x1D2 SWAP2 SWAP1 PUSH2 0x17F4 JUMP JUMPDEST PUSH1 0x40 MLOAD DUP1 SWAP2 SUB SWAP1 RETURN JUMPDEST PUSH2 0x1F5 PUSH1 0x4 DUP1 CALLDATASIZE SUB DUP2 ADD SWAP1 PUSH2 0x1F0 SWAP2 SWAP1 PUSH2 0x180D JUMP JUMPDEST PUSH2 0x547 JUMP JUMPDEST STOP JUMPDEST PUSH2 0x211 PUSH1 0x4 DUP1 CALLDATASIZE SUB DUP2 ADD SWAP1 PUSH2 0x20C SWAP2 SWAP1 PUSH2 0x180D JUMP JUMPDEST PUSH2 0x551 JUMP JUMPDEST PUSH1 0x40 MLOAD PUSH2 0x21F SWAP3 SWAP2 SWAP1 PUSH2 0x1898 JUMP JUMPDEST PUSH1 0x40 MLOAD DUP1 SWAP2 SUB SWAP1 RETURN JUMPDEST PUSH2 0x230 PUSH2 0x606 JUMP JUMPDEST STOP JUMPDEST PUSH2 0x24C PUSH1 0x4 DUP1 CALLDATASIZE SUB DUP2 ADD SWAP1 PUSH2 0x247 SWAP2 SWAP1 PUSH2 0x1923 JUMP JUMPDEST PUSH2 0x619 JUMP JUMPDEST STOP JUMPDEST PUSH2 0x256 PUSH2 0xB18 JUMP JUMPDEST PUSH1 0x40 MLOAD PUSH2 0x263 SWAP2 SWAP1 PUSH2 0x17F4 JUMP JUMPDEST PUSH1 0x40 MLOAD DUP1 SWAP2 SUB SWAP1 RETURN JUMPDEST PUSH2 0x274 PUSH2 0xB3F JUMP JUMPDEST PUSH1 0x40 MLOAD PUSH2 0x281 SWAP2 SWAP1 PUSH2 0x19DB JUMP JUMPDEST PUSH1 0x40 MLOAD DUP1 SWAP2 SUB SWAP1 RETURN JUMPDEST PUSH2 0x292 PUSH2 0xB55 JUMP JUMPDEST PUSH1 0x40 MLOAD PUSH2 0x29F SWAP2 SWAP1 PUSH2 0x1718 JUMP JUMPDEST PUSH1 0x40 MLOAD DUP1 SWAP2 SUB SWAP1 RETURN JUMPDEST PUSH2 0x2C2 PUSH1 0x4 DUP1 CALLDATASIZE SUB DUP2 ADD SWAP1 PUSH2 0x2BD SWAP2 SWAP1 PUSH2 0x1A49 JUMP JUMPDEST PUSH2 0xB5E JUMP JUMPDEST STOP JUMPDEST PUSH2 0x2DE PUSH1 0x4 DUP1 CALLDATASIZE SUB DUP2 ADD SWAP1 PUSH2 0x2D9 SWAP2 SWAP1 PUSH2 0x1AC7 JUMP JUMPDEST PUSH2 0xE02 JUMP JUMPDEST STOP JUMPDEST PUSH2 0x2FA PUSH1 0x4 DUP1 CALLDATASIZE SUB DUP2 ADD SWAP1 PUSH2 0x2F5 SWAP2 SWAP1 PUSH2 0x1B1C JUMP JUMPDEST PUSH2 0xE49 JUMP JUMPDEST STOP JUMPDEST PUSH2 0x316 PUSH1 0x4 DUP1 CALLDATASIZE SUB DUP2 ADD SWAP1 PUSH2 0x311 SWAP2 SWAP1 PUSH2 0x1B1C JUMP JUMPDEST PUSH2 0xF14 JUMP JUMPDEST STOP JUMPDEST PUSH2 0x320 PUSH2 0x1048 JUMP JUMPDEST PUSH1 0x40 MLOAD PUSH2 0x32D SWAP2 SWAP1 PUSH2 0x1718 JUMP JUMPDEST PUSH1 0x40 MLOAD DUP1 SWAP2 SUB SWAP1 RETURN JUMPDEST PUSH2 0x350 PUSH1 0x4 DUP1 CALLDATASIZE SUB DUP2 ADD SWAP1 PUSH2 0x34B SWAP2 SWAP1 PUSH2 0x1B1C JUMP JUMPDEST PUSH2 0x1051 JUMP JUMPDEST STOP JUMPDEST PUSH2 0x35A PUSH2 0x10D5 JUMP JUMPDEST PUSH1 0x40 MLOAD PUSH2 0x367 SWAP2 SWAP1 PUSH2 0x1B56 JUMP JUMPDEST PUSH1 0x40 MLOAD DUP1 SWAP2 SUB SWAP1 RETURN JUMPDEST PUSH0 PUSH32 0x805F213200000000000000000000000000000000000000000000000000000000 PUSH28 0xFFFFFFFFFFFFFFFFFFFFFFFFFFFFFFFFFFFFFFFFFFFFFFFFFFFFFFFF NOT AND DUP3 PUSH28 0xFFFFFFFFFFFFFFFFFFFFFFFFFFFFFFFFFFFFFFFFFFFFFFFFFFFFFFFF NOT AND EQ DUP1 PUSH2 0x43A JUMPI POP PUSH32 0x1FFC9A700000000000000000000000000000000000000000000000000000000 PUSH28 0xFFFFFFFFFFFFFFFFFFFFFFFFFFFFFFFFFFFFFFFFFFFFFFFFFFFFFFFF NOT AND DUP3 PUSH28 0xFFFFFFFFFFFFFFFFFFFFFFFFFFFFFFFFFFFFFFFFFFFFFFFFFFFFFFFF NOT AND EQ JUMPDEST SWAP1 POP SWAP2 SWAP1 POP JUMP JUMPDEST PUSH1 0x6 DUP2 DUP1 MLOAD PUSH1 0x20 DUP2 ADD DUP3 ADD DUP1 MLOAD DUP5 DUP3 MSTORE PUSH1 0x20 DUP4 ADD PUSH1 0x20 DUP6 ADD KECCAK256 DUP2 DUP4 MSTORE DUP1 SWAP6 POP POP POP POP POP POP PUSH0 SWAP2 POP SWAP1 POP SLOAD DUP2 JUMP JUMPDEST DUP1 PUSH1 0x6 DUP4 PUSH1 0x40 MLOAD PUSH2 0x47F SWAP2 SWAP1 PUSH2 0x1BA9 JUMP JUMPDEST SWAP1 DUP2 MSTORE PUSH1 0x20 ADD PUSH1 0x40 MLOAD DUP1 SWAP2 SUB SWAP1 KECCAK256 DUP2 SWAP1 SSTORE POP PUSH0 PUSH1 0x40 MLOAD DUP1 PUSH1 0x40 ADD PUSH1 0x40 MSTORE DUP1 DUP4 DUP2 MSTORE PUSH1 0x20 ADD DUP5 DUP2 MSTORE POP SWAP1 POP PUSH1 0x5 DUP2 SWAP1 DUP1 PUSH1 0x1 DUP2 SLOAD ADD DUP1 DUP3 SSTORE DUP1 SWAP2 POP POP PUSH1 0x1 SWAP1 SUB SWAP1 PUSH0 MSTORE PUSH1 0x20 PUSH0 KECCAK256 SWAP1 PUSH1 0x2 MUL ADD PUSH0 SWAP1 SWAP2 SWAP1 SWAP2 SWAP1 SWAP2 POP PUSH0 DUP3 ADD MLOAD DUP2 PUSH0 ADD SSTORE PUSH1 0x20 DUP3 ADD MLOAD DUP2 PUSH1 0x1 ADD SWAP1 DUP2 PUSH2 0x4EF SWAP2 SWAP1 PUSH2 0x1DBC JUMP JUMPDEST POP POP POP POP POP POP JUMP JUMPDEST PUSH0 PUSH1 0x2 PUSH0 SWAP1 SLOAD SWAP1 PUSH2 0x100 EXP SWAP1 DIV PUSH20 0xFFFFFFFFFFFFFFFFFFFFFFFFFFFFFFFFFFFFFFFF AND SWAP1 POP SWAP1 JUMP JUMPDEST PUSH0 PUSH1 0x1 PUSH0 SWAP1 SLOAD SWAP1 PUSH2 0x100 EXP SWAP1 DIV PUSH20 0xFFFFFFFFFFFFFFFFFFFFFFFFFFFFFFFFFFFFFFFF AND SWAP1 POP SWAP1 JUMP JUMPDEST DUP1 PUSH1 0x4 DUP2 SWAP1 SSTORE POP POP JUMP JUMPDEST PUSH1 0x5 DUP2 DUP2 SLOAD DUP2 LT PUSH2 0x560 JUMPI PUSH0 DUP1 REVERT JUMPDEST SWAP1 PUSH0 MSTORE PUSH1 0x20 PUSH0 KECCAK256 SWAP1 PUSH1 0x2 MUL ADD PUSH0 SWAP2 POP SWAP1 POP DUP1 PUSH0 ADD SLOAD SWAP1 DUP1 PUSH1 0x1 ADD DUP1 SLOAD PUSH2 0x585 SWAP1 PUSH2 0x1BEC JUMP JUMPDEST DUP1 PUSH1 0x1F ADD PUSH1 0x20 DUP1 SWAP2 DIV MUL PUSH1 0x20 ADD PUSH1 0x40 MLOAD SWAP1 DUP2 ADD PUSH1 0x40 MSTORE DUP1 SWAP3 SWAP2 SWAP1 DUP2 DUP2 MSTORE PUSH1 0x20 ADD DUP3 DUP1 SLOAD PUSH2 0x5B1 SWAP1 PUSH2 0x1BEC JUMP JUMPDEST DUP1 ISZERO PUSH2 0x5FC JUMPI DUP1 PUSH1 0x1F LT PUSH2 0x5D3 JUMPI PUSH2 0x100 DUP1 DUP4 SLOAD DIV MUL DUP4 MSTORE SWAP2 PUSH1 0x20 ADD SWAP2 PUSH2 0x5FC JUMP JUMPDEST DUP3 ADD SWAP2 SWAP1 PUSH0 MSTORE PUSH1 0x20 PUSH0 KECCAK256 SWAP1 JUMPDEST DUP2 SLOAD DUP2 MSTORE SWAP1 PUSH1 0x1 ADD SWAP1 PUSH1 0x20 ADD DUP1 DUP4 GT PUSH2 0x5DF JUMPI DUP3 SWAP1 SUB PUSH1 0x1F AND DUP3 ADD SWAP2 JUMPDEST POP POP POP POP POP SWAP1 POP DUP3 JUMP JUMPDEST PUSH2 0x60E PUSH2 0x10DE JUMP JUMPDEST PUSH2 0x617 PUSH0 PUSH2 0x1165 JUMP JUMPDEST JUMP JUMPDEST PUSH0 PUSH20 0xFFFFFFFFFFFFFFFFFFFFFFFFFFFFFFFFFFFFFFFF AND PUSH1 0x1 PUSH0 SWAP1 SLOAD SWAP1 PUSH2 0x100 EXP SWAP1 DIV PUSH20 0xFFFFFFFFFFFFFFFFFFFFFFFFFFFFFFFFFFFFFFFF AND PUSH20 0xFFFFFFFFFFFFFFFFFFFFFFFFFFFFFFFFFFFFFFFF AND EQ ISZERO DUP1 ISZERO PUSH2 0x6C3 JUMPI POP PUSH1 0x1 PUSH0 SWAP1 SLOAD SWAP1 PUSH2 0x100 EXP SWAP1 DIV PUSH20 0xFFFFFFFFFFFFFFFFFFFFFFFFFFFFFFFFFFFFFFFF AND PUSH20 0xFFFFFFFFFFFFFFFFFFFFFFFFFFFFFFFFFFFFFFFF AND CALLER PUSH20 0xFFFFFFFFFFFFFFFFFFFFFFFFFFFFFFFFFFFFFFFF AND EQ ISZERO JUMPDEST ISZERO PUSH2 0x728 JUMPI CALLER PUSH1 0x1 PUSH0 SWAP1 SLOAD SWAP1 PUSH2 0x100 EXP SWAP1 DIV PUSH20 0xFFFFFFFFFFFFFFFFFFFFFFFFFFFFFFFFFFFFFFFF AND PUSH1 0x40 MLOAD PUSH32 0xE1130DBA00000000000000000000000000000000000000000000000000000000 DUP2 MSTORE PUSH1 0x4 ADD PUSH2 0x71F SWAP3 SWAP2 SWAP1 PUSH2 0x1E8B JUMP JUMPDEST PUSH1 0x40 MLOAD DUP1 SWAP2 SUB SWAP1 REVERT JUMPDEST PUSH0 PUSH0 SHL PUSH1 0x3 SLOAD EQ ISZERO DUP1 PUSH2 0x788 JUMPI POP PUSH0 PUSH20 0xFFFFFFFFFFFFFFFFFFFFFFFFFFFFFFFFFFFFFFFF AND PUSH1 0x2 PUSH0 SWAP1 SLOAD SWAP1 PUSH2 0x100 EXP SWAP1 DIV PUSH20 0xFFFFFFFFFFFFFFFFFFFFFFFFFFFFFFFFFFFFFFFF AND PUSH20 0xFFFFFFFFFFFFFFFFFFFFFFFFFFFFFFFFFFFFFFFF AND EQ ISZERO JUMPDEST DUP1 PUSH2 0x7D7 JUMPI POP PUSH0 PUSH1 0xB0 SHL PUSH22 0xFFFFFFFFFFFFFFFFFFFFFFFFFFFFFFFFFFFFFFFFFFFF NOT AND PUSH1 0x2 PUSH1 0x14 SWAP1 SLOAD SWAP1 PUSH2 0x100 EXP SWAP1 DIV PUSH1 0xB0 SHL PUSH22 0xFFFFFFFFFFFFFFFFFFFFFFFFFFFFFFFFFFFFFFFFFFFF NOT AND EQ ISZERO JUMPDEST ISZERO PUSH2 0xB08 JUMPI PUSH0 PUSH0 PUSH0 PUSH2 0x82B DUP8 DUP8 DUP1 DUP1 PUSH1 0x1F ADD PUSH1 0x20 DUP1 SWAP2 DIV MUL PUSH1 0x20 ADD PUSH1 0x40 MLOAD SWAP1 DUP2 ADD PUSH1 0x40 MSTORE DUP1 SWAP4 SWAP3 SWAP2 SWAP1 DUP2 DUP2 MSTORE PUSH1 0x20 ADD DUP4 DUP4 DUP1 DUP3 DUP5 CALLDATACOPY PUSH0 DUP2 DUP5 ADD MSTORE PUSH1 0x1F NOT PUSH1 0x1F DUP3 ADD AND SWAP1 POP DUP1 DUP4 ADD SWAP3 POP POP POP POP POP POP POP PUSH2 0x1226 JUMP JUMPDEST SWAP3 POP SWAP3 POP SWAP3 POP PUSH0 PUSH0 SHL PUSH1 0x3 SLOAD EQ ISZERO DUP1 ISZERO PUSH2 0x847 JUMPI POP PUSH1 0x3 SLOAD DUP4 EQ ISZERO JUMPDEST ISZERO PUSH2 0x88D JUMPI DUP3 PUSH1 0x3 SLOAD PUSH1 0x40 MLOAD PUSH32 0x9BFA39BA00000000000000000000000000000000000000000000000000000000 DUP2 MSTORE PUSH1 0x4 ADD PUSH2 0x884 SWAP3 SWAP2 SWAP1 PUSH2 0x1EB2 JUMP JUMPDEST PUSH1 0x40 MLOAD DUP1 SWAP2 SUB SWAP1 REVERT JUMPDEST PUSH0 PUSH20 0xFFFFFFFFFFFFFFFFFFFFFFFFFFFFFFFFFFFFFFFF AND PUSH1 0x2 PUSH0 SWAP1 SLOAD SWAP1 PUSH2 0x100 EXP SWAP1 DIV PUSH20 0xFFFFFFFFFFFFFFFFFFFFFFFFFFFFFFFFFFFFFFFF AND PUSH20 0xFFFFFFFFFFFFFFFFFFFFFFFFFFFFFFFFFFFFFFFF AND EQ ISZERO DUP1 ISZERO PUSH2 0x937 JUMPI POP PUSH1 0x2 PUSH0 SWAP1 SLOAD SWAP1 PUSH2 0x100 EXP SWAP1 DIV PUSH20 0xFFFFFFFFFFFFFFFFFFFFFFFFFFFFFFFFFFFFFFFF AND PUSH20 0xFFFFFFFFFFFFFFFFFFFFFFFFFFFFFFFFFFFFFFFF AND DUP2 PUSH20 0xFFFFFFFFFFFFFFFFFFFFFFFFFFFFFFFFFFFFFFFF AND EQ ISZERO JUMPDEST ISZERO PUSH2 0x99C JUMPI DUP1 PUSH1 0x2 PUSH0 SWAP1 SLOAD SWAP1 PUSH2 0x100 EXP SWAP1 DIV PUSH20 0xFFFFFFFFFFFFFFFFFFFFFFFFFFFFFFFFFFFFFFFF AND PUSH1 0x40 MLOAD PUSH32 0xB8A98AF800000000000000000000000000000000000000000000000000000000 DUP2 MSTORE PUSH1 0x4 ADD PUSH2 0x993 SWAP3 SWAP2 SWAP1 PUSH2 0x1E8B JUMP JUMPDEST PUSH1 0x40 MLOAD DUP1 SWAP2 SUB SWAP1 REVERT JUMPDEST PUSH0 PUSH1 0xB0 SHL PUSH22 0xFFFFFFFFFFFFFFFFFFFFFFFFFFFFFFFFFFFFFFFFFFFF NOT AND PUSH1 0x2 PUSH1 0x14 SWAP1 SLOAD SWAP1 PUSH2 0x100 EXP SWAP1 DIV PUSH1 0xB0 SHL PUSH22 0xFFFFFFFFFFFFFFFFFFFFFFFFFFFFFFFFFFFFFFFFFFFF NOT AND EQ PUSH2 0xB04 JUMPI PUSH0 PUSH20 0xFFFFFFFFFFFFFFFFFFFFFFFFFFFFFFFFFFFFFFFF AND PUSH1 0x2 PUSH0 SWAP1 SLOAD SWAP1 PUSH2 0x100 EXP SWAP1 DIV PUSH20 0xFFFFFFFFFFFFFFFFFFFFFFFFFFFFFFFFFFFFFFFF AND PUSH20 0xFFFFFFFFFFFFFFFFFFFFFFFFFFFFFFFFFFFFFFFF AND SUB PUSH2 0xA6D JUMPI PUSH1 0x40 MLOAD PUSH32 0x4847901100000000000000000000000000000000000000000000000000000000 DUP2 MSTORE PUSH1 0x4 ADD PUSH1 0x40 MLOAD DUP1 SWAP2 SUB SWAP1 REVERT JUMPDEST PUSH1 0x2 PUSH1 0x14 SWAP1 SLOAD SWAP1 PUSH2 0x100 EXP SWAP1 DIV PUSH1 0xB0 SHL PUSH22 0xFFFFFFFFFFFFFFFFFFFFFFFFFFFFFFFFFFFFFFFFFFFF NOT AND DUP3 PUSH22 0xFFFFFFFFFFFFFFFFFFFFFFFFFFFFFFFFFFFFFFFFFFFF NOT AND EQ PUSH2 0xB03 JUMPI DUP2 PUSH1 0x2 PUSH1 0x14 SWAP1 SLOAD SWAP1 PUSH2 0x100 EXP SWAP1 DIV PUSH1 0xB0 SHL PUSH1 0x40 MLOAD PUSH32 0x6C4609A600000000000000000000000000000000000000000000000000000000 DUP2 MSTORE PUSH1 0x4 ADD PUSH2 0xAFA SWAP3 SWAP2 SWAP1 PUSH2 0x1ED9 JUMP JUMPDEST PUSH1 0x40 MLOAD DUP1 SWAP2 SUB SWAP1 REVERT JUMPDEST JUMPDEST POP POP POP JUMPDEST PUSH2 0xB12 DUP3 DUP3 PUSH2 0x124B JUMP JUMPDEST POP POP POP POP JUMP JUMPDEST PUSH0 PUSH0 PUSH0 SWAP1 SLOAD SWAP1 PUSH2 0x100 EXP SWAP1 DIV PUSH20 0xFFFFFFFFFFFFFFFFFFFFFFFFFFFFFFFFFFFFFFFF AND SWAP1 POP SWAP1 JUMP JUMPDEST PUSH0 PUSH1 0x2 PUSH1 0x14 SWAP1 SLOAD SWAP1 PUSH2 0x100 EXP SWAP1 DIV PUSH1 0xB0 SHL SWAP1 POP SWAP1 JUMP JUMPDEST PUSH0 PUSH1 0x4 SLOAD SWAP1 POP SWAP1 JUMP JUMPDEST PUSH2 0xB66 PUSH2 0x10DE JUMP JUMPDEST PUSH0 PUSH1 0x2 PUSH1 0x14 SWAP1 SLOAD SWAP1 PUSH2 0x100 EXP SWAP1 DIV PUSH1 0xB0 SHL SWAP1 POP PUSH0 DUP4 DUP4 SWAP1 POP SUB PUSH2 0xC13 JUMPI PUSH0 PUSH1 0xB0 SHL PUSH1 0x2 PUSH1 0x14 PUSH2 0x100 EXP DUP2 SLOAD DUP2 PUSH10 0xFFFFFFFFFFFFFFFFFFFF MUL NOT AND SWAP1 DUP4 PUSH1 0xB0 SHR MUL OR SWAP1 SSTORE POP PUSH0 PUSH1 0xB0 SHL PUSH22 0xFFFFFFFFFFFFFFFFFFFFFFFFFFFFFFFFFFFFFFFFFFFF NOT AND DUP2 PUSH22 0xFFFFFFFFFFFFFFFFFFFFFFFFFFFFFFFFFFFFFFFFFFFF NOT AND PUSH32 0x1E7DDD09D504C82DCFC784A464B167469F5AAD967606EC4822D848EF9141DFA5 PUSH1 0x40 MLOAD PUSH1 0x40 MLOAD DUP1 SWAP2 SUB SWAP1 LOG3 POP PUSH2 0xDFE JUMP JUMPDEST PUSH0 PUSH1 0x2 DUP5 DUP5 PUSH1 0x40 MLOAD PUSH2 0xC26 SWAP3 SWAP2 SWAP1 PUSH2 0x1F2E JUMP JUMPDEST PUSH1 0x20 PUSH1 0x40 MLOAD DUP1 DUP4 SUB DUP2 DUP6 GAS STATICCALL ISZERO DUP1 ISZERO PUSH2 0xC41 JUMPI RETURNDATASIZE PUSH0 PUSH0 RETURNDATACOPY RETURNDATASIZE PUSH0 REVERT JUMPDEST POP POP POP PUSH1 0x40 MLOAD RETURNDATASIZE PUSH1 0x1F NOT PUSH1 0x1F DUP3 ADD AND DUP3 ADD DUP1 PUSH1 0x40 MSTORE POP DUP2 ADD SWAP1 PUSH2 0xC64 SWAP2 SWAP1 PUSH2 0x1F5A JUMP JUMPDEST SWAP1 POP PUSH0 PUSH2 0xC8F DUP3 PUSH1 0x40 MLOAD PUSH1 0x20 ADD PUSH2 0xC7B SWAP2 SWAP1 PUSH2 0x1FA5 JUMP JUMPDEST PUSH1 0x40 MLOAD PUSH1 0x20 DUP2 DUP4 SUB SUB DUP2 MSTORE SWAP1 PUSH1 0x40 MSTORE PUSH2 0x1270 JUMP JUMPDEST SWAP1 POP PUSH0 PUSH1 0xA PUSH8 0xFFFFFFFFFFFFFFFF DUP2 GT ISZERO PUSH2 0xCAD JUMPI PUSH2 0xCAC PUSH2 0x1595 JUMP JUMPDEST JUMPDEST PUSH1 0x40 MLOAD SWAP1 DUP1 DUP3 MSTORE DUP1 PUSH1 0x1F ADD PUSH1 0x1F NOT AND PUSH1 0x20 ADD DUP3 ADD PUSH1 0x40 MSTORE DUP1 ISZERO PUSH2 0xCDF JUMPI DUP2 PUSH1 0x20 ADD PUSH1 0x1 DUP3 MUL DUP1 CALLDATASIZE DUP4 CALLDATACOPY DUP1 DUP3 ADD SWAP2 POP POP SWAP1 POP JUMPDEST POP SWAP1 POP PUSH0 PUSH0 SWAP1 POP JUMPDEST PUSH1 0xA DUP2 LT ISZERO PUSH2 0xD5C JUMPI DUP3 DUP2 DUP2 MLOAD DUP2 LT PUSH2 0xD03 JUMPI PUSH2 0xD02 PUSH2 0x1FBF JUMP JUMPDEST JUMPDEST PUSH1 0x20 ADD ADD MLOAD PUSH1 0xF8 SHR PUSH1 0xF8 SHL DUP3 DUP3 DUP2 MLOAD DUP2 LT PUSH2 0xD21 JUMPI PUSH2 0xD20 PUSH2 0x1FBF JUMP JUMPDEST JUMPDEST PUSH1 0x20 ADD ADD SWAP1 PUSH31 0xFFFFFFFFFFFFFFFFFFFFFFFFFFFFFFFFFFFFFFFFFFFFFFFFFFFFFFFFFFFFFF NOT AND SWAP1 DUP2 PUSH0 BYTE SWAP1 MSTORE8 POP DUP1 DUP1 PUSH1 0x1 ADD SWAP2 POP POP PUSH2 0xCE7 JUMP JUMPDEST POP DUP1 PUSH2 0xD67 SWAP1 PUSH2 0x2019 JUMP JUMPDEST PUSH1 0x2 PUSH1 0x14 PUSH2 0x100 EXP DUP2 SLOAD DUP2 PUSH10 0xFFFFFFFFFFFFFFFFFFFF MUL NOT AND SWAP1 DUP4 PUSH1 0xB0 SHR MUL OR SWAP1 SSTORE POP PUSH1 0x2 PUSH1 0x14 SWAP1 SLOAD SWAP1 PUSH2 0x100 EXP SWAP1 DIV PUSH1 0xB0 SHL PUSH22 0xFFFFFFFFFFFFFFFFFFFFFFFFFFFFFFFFFFFFFFFFFFFF NOT AND DUP5 PUSH22 0xFFFFFFFFFFFFFFFFFFFFFFFFFFFFFFFFFFFFFFFFFFFF NOT AND PUSH32 0x1E7DDD09D504C82DCFC784A464B167469F5AAD967606EC4822D848EF9141DFA5 PUSH1 0x40 MLOAD PUSH1 0x40 MLOAD DUP1 SWAP2 SUB SWAP1 LOG3 POP POP POP POP JUMPDEST POP POP JUMP JUMPDEST PUSH2 0xE0A PUSH2 0x10DE JUMP JUMPDEST PUSH0 PUSH1 0x3 SLOAD SWAP1 POP DUP2 PUSH1 0x3 DUP2 SWAP1 SSTORE POP DUP2 DUP2 PUSH32 0xDBEDCDF21925E053B4C574EAE180D7F2883235AB4976ECC0873598A2A999B03 PUSH1 0x40 MLOAD PUSH1 0x40 MLOAD DUP1 SWAP2 SUB SWAP1 LOG3 POP POP JUMP JUMPDEST PUSH2 0xE51 PUSH2 0x10DE JUMP JUMPDEST PUSH0 PUSH1 0x2 PUSH0 SWAP1 SLOAD SWAP1 PUSH2 0x100 EXP SWAP1 DIV PUSH20 0xFFFFFFFFFFFFFFFFFFFFFFFFFFFFFFFFFFFFFFFF AND SWAP1 POP DUP2 PUSH1 0x2 PUSH0 PUSH2 0x100 EXP DUP2 SLOAD DUP2 PUSH20 0xFFFFFFFFFFFFFFFFFFFFFFFFFFFFFFFFFFFFFFFF MUL NOT AND SWAP1 DUP4 PUSH20 0xFFFFFFFFFFFFFFFFFFFFFFFFFFFFFFFFFFFFFFFF AND MUL OR SWAP1 SSTORE POP DUP2 PUSH20 0xFFFFFFFFFFFFFFFFFFFFFFFFFFFFFFFFFFFFFFFF AND DUP2 PUSH20 0xFFFFFFFFFFFFFFFFFFFFFFFFFFFFFFFFFFFFFFFF AND PUSH32 0x3321CDA85C145617E47418AA14255E9DCBEC53A753778E57591703B89A3CAD31 PUSH1 0x40 MLOAD PUSH1 0x40 MLOAD DUP1 SWAP2 SUB SWAP1 LOG3 POP POP JUMP JUMPDEST PUSH2 0xF1C PUSH2 0x10DE JUMP JUMPDEST PUSH0 PUSH1 0x1 PUSH0 SWAP1 SLOAD SWAP1 PUSH2 0x100 EXP SWAP1 DIV PUSH20 0xFFFFFFFFFFFFFFFFFFFFFFFFFFFFFFFFFFFFFFFF AND SWAP1 POP PUSH0 PUSH20 0xFFFFFFFFFFFFFFFFFFFFFFFFFFFFFFFFFFFFFFFF AND DUP3 PUSH20 0xFFFFFFFFFFFFFFFFFFFFFFFFFFFFFFFFFFFFFFFF AND SUB PUSH2 0xFAA JUMPI PUSH32 0x704DA7DB165C79C1E33D542C079333BBDE970A733032D2F95FEC8FB7D770CBF7 PUSH1 0x40 MLOAD PUSH2 0xFA1 SWAP1 PUSH2 0x20EF JUMP JUMPDEST PUSH1 0x40 MLOAD DUP1 SWAP2 SUB SWAP1 LOG1 JUMPDEST DUP2 PUSH1 0x1 PUSH0 PUSH2 0x100 EXP DUP2 SLOAD DUP2 PUSH20 0xFFFFFFFFFFFFFFFFFFFFFFFFFFFFFFFFFFFFFFFF MUL NOT AND SWAP1 DUP4 PUSH20 0xFFFFFFFFFFFFFFFFFFFFFFFFFFFFFFFFFFFFFFFF AND MUL OR SWAP1 SSTORE POP DUP2 PUSH20 0xFFFFFFFFFFFFFFFFFFFFFFFFFFFFFFFFFFFFFFFF AND DUP2 PUSH20 0xFFFFFFFFFFFFFFFFFFFFFFFFFFFFFFFFFFFFFFFF AND PUSH32 0x39AD854736757070884DD787EF1A7F58DB33546639D1F3EFDDCF4A33FB8997E PUSH1 0x40 MLOAD PUSH1 0x40 MLOAD DUP1 SWAP2 SUB SWAP1 LOG3 POP POP JUMP JUMPDEST PUSH0 PUSH1 0x4 SLOAD SWAP1 POP SWAP1 JUMP JUMPDEST PUSH2 0x1059 PUSH2 0x10DE JUMP JUMPDEST PUSH0 PUSH20 0xFFFFFFFFFFFFFFFFFFFFFFFFFFFFFFFFFFFFFFFF AND DUP2 PUSH20 0xFFFFFFFFFFFFFFFFFFFFFFFFFFFFFFFFFFFFFFFF AND SUB PUSH2 0x10C9 JUMPI PUSH0 PUSH1 0x40 MLOAD PUSH32 0x1E4FBDF700000000000000000000000000000000000000000000000000000000 DUP2 MSTORE PUSH1 0x4 ADD PUSH2 0x10C0 SWAP2 SWAP1 PUSH2 0x17F4 JUMP JUMPDEST PUSH1 0x40 MLOAD DUP1 SWAP2 SUB SWAP1 REVERT JUMPDEST PUSH2 0x10D2 DUP2 PUSH2 0x1165 JUMP JUMPDEST POP JUMP JUMPDEST PUSH0 PUSH1 0x3 SLOAD SWAP1 POP SWAP1 JUMP JUMPDEST PUSH2 0x10E6 PUSH2 0x14B2 JUMP JUMPDEST PUSH20 0xFFFFFFFFFFFFFFFFFFFFFFFFFFFFFFFFFFFFFFFF AND PUSH2 0x1104 PUSH2 0xB18 JUMP JUMPDEST PUSH20 0xFFFFFFFFFFFFFFFFFFFFFFFFFFFFFFFFFFFFFFFF AND EQ PUSH2 0x1163 JUMPI PUSH2 0x1127 PUSH2 0x14B2 JUMP JUMPDEST PUSH1 0x40 MLOAD PUSH32 0x118CDAA700000000000000000000000000000000000000000000000000000000 DUP2 MSTORE PUSH1 0x4 ADD PUSH2 0x115A SWAP2 SWAP1 PUSH2 0x17F4 JUMP JUMPDEST PUSH1 0x40 MLOAD DUP1 SWAP2 SUB SWAP1 REVERT JUMPDEST JUMP JUMPDEST PUSH0 PUSH0 PUSH0 SWAP1 SLOAD SWAP1 PUSH2 0x100 EXP SWAP1 DIV PUSH20 0xFFFFFFFFFFFFFFFFFFFFFFFFFFFFFFFFFFFFFFFF AND SWAP1 POP DUP2 PUSH0 PUSH0 PUSH2 0x100 EXP DUP2 SLOAD DUP2 PUSH20 0xFFFFFFFFFFFFFFFFFFFFFFFFFFFFFFFFFFFFFFFF MUL NOT AND SWAP1 DUP4 PUSH20 0xFFFFFFFFFFFFFFFFFFFFFFFFFFFFFFFFFFFFFFFF AND MUL OR SWAP1 SSTORE POP DUP2 PUSH20 0xFFFFFFFFFFFFFFFFFFFFFFFFFFFFFFFFFFFFFFFF AND DUP2 PUSH20 0xFFFFFFFFFFFFFFFFFFFFFFFFFFFFFFFFFFFFFFFF AND PUSH32 0x8BE0079C531659141344CD1FD0A4F28419497F9722A3DAAFE3B4186F6B6457E0 PUSH1 0x40 MLOAD PUSH1 0x40 MLOAD DUP1 SWAP2 SUB SWAP1 LOG3 POP POP JUMP JUMPDEST PUSH0 PUSH0 PUSH0 PUSH1 0x20 DUP5 ADD MLOAD SWAP3 POP PUSH1 0x40 DUP5 ADD MLOAD SWAP2 POP PUSH1 0x4A DUP5 ADD MLOAD PUSH1 0x8 PUSH1 0xC MUL SHR SWAP1 POP SWAP2 SWAP4 SWAP1 SWAP3 POP JUMP JUMPDEST PUSH0 PUSH0 DUP4 DUP4 DUP2 ADD SWAP1 PUSH2 0x125C SWAP2 SWAP1 PUSH2 0x175B JUMP JUMPDEST SWAP2 POP SWAP2 POP PUSH2 0x126A DUP3 DUP3 PUSH2 0x46E JUMP JUMPDEST POP POP POP POP JUMP JUMPDEST PUSH1 0x60 PUSH0 PUSH1 0x2 DUP4 MLOAD PUSH2 0x1281 SWAP2 SWAP1 PUSH2 0x213A JUMP JUMPDEST PUSH8 0xFFFFFFFFFFFFFFFF DUP2 GT ISZERO PUSH2 0x129A JUMPI PUSH2 0x1299 PUSH2 0x1595 JUMP JUMPDEST JUMPDEST PUSH1 0x40 MLOAD SWAP1 DUP1 DUP3 MSTORE DUP1 PUSH1 0x1F ADD PUSH1 0x1F NOT AND PUSH1 0x20 ADD DUP3 ADD PUSH1 0x40 MSTORE DUP1 ISZERO PUSH2 0x12CC JUMPI DUP2 PUSH1 0x20 ADD PUSH1 0x1 DUP3 MUL DUP1 CALLDATASIZE DUP4 CALLDATACOPY DUP1 DUP3 ADD SWAP2 POP POP SWAP1 POP JUMPDEST POP SWAP1 POP PUSH0 PUSH0 SWAP1 POP JUMPDEST DUP4 MLOAD DUP2 LT ISZERO PUSH2 0x14A8 JUMPI PUSH1 0x40 MLOAD DUP1 PUSH1 0x40 ADD PUSH1 0x40 MSTORE DUP1 PUSH1 0x10 DUP2 MSTORE PUSH1 0x20 ADD PUSH32 0x3031323334353637383961626364656600000000000000000000000000000000 DUP2 MSTORE POP PUSH1 0x4 DUP6 DUP4 DUP2 MLOAD DUP2 LT PUSH2 0x1328 JUMPI PUSH2 0x1327 PUSH2 0x1FBF JUMP JUMPDEST JUMPDEST PUSH1 0x20 ADD ADD MLOAD PUSH1 0xF8 SHR PUSH1 0xF8 SHL PUSH31 0xFFFFFFFFFFFFFFFFFFFFFFFFFFFFFFFFFFFFFFFFFFFFFFFFFFFFFFFFFFFFFF NOT AND SWAP1 SHR PUSH1 0xF8 SHR PUSH1 0xFF AND DUP2 MLOAD DUP2 LT PUSH2 0x136E JUMPI PUSH2 0x136D PUSH2 0x1FBF JUMP JUMPDEST JUMPDEST PUSH1 0x20 ADD ADD MLOAD PUSH1 0xF8 SHR PUSH1 0xF8 SHL DUP3 PUSH1 0x2 DUP4 PUSH2 0x1387 SWAP2 SWAP1 PUSH2 0x213A JUMP JUMPDEST DUP2 MLOAD DUP2 LT PUSH2 0x1398 JUMPI PUSH2 0x1397 PUSH2 0x1FBF JUMP JUMPDEST JUMPDEST PUSH1 0x20 ADD ADD SWAP1 PUSH31 0xFFFFFFFFFFFFFFFFFFFFFFFFFFFFFFFFFFFFFFFFFFFFFFFFFFFFFFFFFFFFFF NOT AND SWAP1 DUP2 PUSH0 BYTE SWAP1 MSTORE8 POP PUSH1 0x40 MLOAD DUP1 PUSH1 0x40 ADD PUSH1 0x40 MSTORE DUP1 PUSH1 0x10 DUP2 MSTORE PUSH1 0x20 ADD PUSH32 0x3031323334353637383961626364656600000000000000000000000000000000 DUP2 MSTORE POP PUSH1 0xF PUSH1 0xF8 SHL DUP6 DUP4 DUP2 MLOAD DUP2 LT PUSH2 0x1414 JUMPI PUSH2 0x1413 PUSH2 0x1FBF JUMP JUMPDEST JUMPDEST PUSH1 0x20 ADD ADD MLOAD PUSH1 0xF8 SHR PUSH1 0xF8 SHL AND PUSH1 0xF8 SHR PUSH1 0xFF AND DUP2 MLOAD DUP2 LT PUSH2 0x1437 JUMPI PUSH2 0x1436 PUSH2 0x1FBF JUMP JUMPDEST JUMPDEST PUSH1 0x20 ADD ADD MLOAD PUSH1 0xF8 SHR PUSH1 0xF8 SHL DUP3 PUSH1 0x1 PUSH1 0x2 DUP5 PUSH2 0x1452 SWAP2 SWAP1 PUSH2 0x213A JUMP JUMPDEST PUSH2 0x145C SWAP2 SWAP1 PUSH2 0x217B JUMP JUMPDEST DUP2 MLOAD DUP2 LT PUSH2 0x146D JUMPI PUSH2 0x146C PUSH2 0x1FBF JUMP JUMPDEST JUMPDEST PUSH1 0x20 ADD ADD SWAP1 PUSH31 0xFFFFFFFFFFFFFFFFFFFFFFFFFFFFFFFFFFFFFFFFFFFFFFFFFFFFFFFFFFFFFF NOT AND SWAP1 DUP2 PUSH0 BYTE SWAP1 MSTORE8 POP DUP1 DUP1 PUSH1 0x1 ADD SWAP2 POP POP PUSH2 0x12D4 JUMP JUMPDEST POP DUP1 SWAP2 POP POP SWAP2 SWAP1 POP JUMP JUMPDEST PUSH0 CALLER SWAP1 POP SWAP1 JUMP JUMPDEST PUSH0 PUSH1 0x40 MLOAD SWAP1 POP SWAP1 JUMP JUMPDEST PUSH0 PUSH0 REVERT JUMPDEST PUSH0 PUSH0 REVERT JUMPDEST PUSH0 PUSH32 0xFFFFFFFF00000000000000000000000000000000000000000000000000000000 DUP3 AND SWAP1 POP SWAP2 SWAP1 POP JUMP JUMPDEST PUSH2 0x14FE DUP2 PUSH2 0x14CA JUMP JUMPDEST DUP2 EQ PUSH2 0x1508 JUMPI PUSH0 PUSH0 REVERT JUMPDEST POP JUMP JUMPDEST PUSH0 DUP2 CALLDATALOAD SWAP1 POP PUSH2 0x1519 DUP2 PUSH2 0x14F5 JUMP JUMPDEST SWAP3 SWAP2 POP POP JUMP JUMPDEST PUSH0 PUSH1 0x20 DUP3 DUP5 SUB SLT ISZERO PUSH2 0x1534 JUMPI PUSH2 0x1533 PUSH2 0x14C2 JUMP JUMPDEST JUMPDEST PUSH0 PUSH2 0x1541 DUP5 DUP3 DUP6 ADD PUSH2 0x150B JUMP JUMPDEST SWAP2 POP POP SWAP3 SWAP2 POP POP JUMP JUMPDEST PUSH0 DUP2 ISZERO ISZERO SWAP1 POP SWAP2 SWAP1 POP JUMP JUMPDEST PUSH2 0x155E DUP2 PUSH2 0x154A JUMP JUMPDEST DUP3 MSTORE POP POP JUMP JUMPDEST PUSH0 PUSH1 0x20 DUP3 ADD SWAP1 POP PUSH2 0x1577 PUSH0 DUP4 ADD DUP5 PUSH2 0x1555 JUMP JUMPDEST SWAP3 SWAP2 POP POP JUMP JUMPDEST PUSH0 PUSH0 REVERT JUMPDEST PUSH0 PUSH0 REVERT JUMPDEST PUSH0 PUSH1 0x1F NOT PUSH1 0x1F DUP4 ADD AND SWAP1 POP SWAP2 SWAP1 POP JUMP JUMPDEST PUSH32 0x4E487B7100000000000000000000000000000000000000000000000000000000 PUSH0 MSTORE PUSH1 0x41 PUSH1 0x4 MSTORE PUSH1 0x24 PUSH0 REVERT JUMPDEST PUSH2 0x15CB DUP3 PUSH2 0x1585 JUMP JUMPDEST DUP2 ADD DUP2 DUP2 LT PUSH8 0xFFFFFFFFFFFFFFFF DUP3 GT OR ISZERO PUSH2 0x15EA JUMPI PUSH2 0x15E9 PUSH2 0x1595 JUMP JUMPDEST JUMPDEST DUP1 PUSH1 0x40 MSTORE POP POP POP JUMP JUMPDEST PUSH0 PUSH2 0x15FC PUSH2 0x14B9 JUMP JUMPDEST SWAP1 POP PUSH2 0x1608 DUP3 DUP3 PUSH2 0x15C2 JUMP JUMPDEST SWAP2 SWAP1 POP JUMP JUMPDEST PUSH0 PUSH8 0xFFFFFFFFFFFFFFFF DUP3 GT ISZERO PUSH2 0x1627 JUMPI PUSH2 0x1626 PUSH2 0x1595 JUMP JUMPDEST JUMPDEST PUSH2 0x1630 DUP3 PUSH2 0x1585 JUMP JUMPDEST SWAP1 POP PUSH1 0x20 DUP2 ADD SWAP1 POP SWAP2 SWAP1 POP JUMP JUMPDEST DUP3 DUP2 DUP4 CALLDATACOPY PUSH0 DUP4 DUP4 ADD MSTORE POP POP POP JUMP JUMPDEST PUSH0 PUSH2 0x165D PUSH2 0x1658 DUP5 PUSH2 0x160D JUMP JUMPDEST PUSH2 0x15F3 JUMP JUMPDEST SWAP1 POP DUP3 DUP2 MSTORE PUSH1 0x20 DUP2 ADD DUP5 DUP5 DUP5 ADD GT ISZERO PUSH2 0x1679 JUMPI PUSH2 0x1678 PUSH2 0x1581 JUMP JUMPDEST JUMPDEST PUSH2 0x1684 DUP5 DUP3 DUP6 PUSH2 0x163D JUMP JUMPDEST POP SWAP4 SWAP3 POP POP POP JUMP JUMPDEST PUSH0 DUP3 PUSH1 0x1F DUP4 ADD SLT PUSH2 0x16A0 JUMPI PUSH2 0x169F PUSH2 0x157D JUMP JUMPDEST JUMPDEST DUP2 CALLDATALOAD PUSH2 0x16B0 DUP5 DUP3 PUSH1 0x20 DUP7 ADD PUSH2 0x164B JUMP JUMPDEST SWAP2 POP POP SWAP3 SWAP2 POP POP JUMP JUMPDEST PUSH0 PUSH1 0x20 DUP3 DUP5 SUB SLT ISZERO PUSH2 0x16CE JUMPI PUSH2 0x16CD PUSH2 0x14C2 JUMP JUMPDEST JUMPDEST PUSH0 DUP3 ADD CALLDATALOAD PUSH8 0xFFFFFFFFFFFFFFFF DUP2 GT ISZERO PUSH2 0x16EB JUMPI PUSH2 0x16EA PUSH2 0x14C6 JUMP JUMPDEST JUMPDEST PUSH2 0x16F7 DUP5 DUP3 DUP6 ADD PUSH2 0x168C JUMP JUMPDEST SWAP2 POP POP SWAP3 SWAP2 POP POP JUMP JUMPDEST PUSH0 DUP2 SWAP1 POP SWAP2 SWAP1 POP JUMP JUMPDEST PUSH2 0x1712 DUP2 PUSH2 0x1700 JUMP JUMPDEST DUP3 MSTORE POP POP JUMP JUMPDEST PUSH0 PUSH1 0x20 DUP3 ADD SWAP1 POP PUSH2 0x172B PUSH0 DUP4 ADD DUP5 PUSH2 0x1709 JUMP JUMPDEST SWAP3 SWAP2 POP POP JUMP JUMPDEST PUSH2 0x173A DUP2 PUSH2 0x1700 JUMP JUMPDEST DUP2 EQ PUSH2 0x1744 JUMPI PUSH0 PUSH0 REVERT JUMPDEST POP JUMP JUMPDEST PUSH0 DUP2 CALLDATALOAD SWAP1 POP PUSH2 0x1755 DUP2 PUSH2 0x1731 JUMP JUMPDEST SWAP3 SWAP2 POP POP JUMP JUMPDEST PUSH0 PUSH0 PUSH1 0x40 DUP4 DUP6 SUB SLT ISZERO PUSH2 0x1771 JUMPI PUSH2 0x1770 PUSH2 0x14C2 JUMP JUMPDEST JUMPDEST PUSH0 DUP4 ADD CALLDATALOAD PUSH8 0xFFFFFFFFFFFFFFFF DUP2 GT ISZERO PUSH2 0x178E JUMPI PUSH2 0x178D PUSH2 0x14C6 JUMP JUMPDEST JUMPDEST PUSH2 0x179A DUP6 DUP3 DUP7 ADD PUSH2 0x168C JUMP JUMPDEST SWAP3 POP POP PUSH1 0x20 PUSH2 0x17AB DUP6 DUP3 DUP7 ADD PUSH2 0x1747 JUMP JUMPDEST SWAP2 POP POP SWAP3 POP SWAP3 SWAP1 POP JUMP JUMPDEST PUSH0 PUSH20 0xFFFFFFFFFFFFFFFFFFFFFFFFFFFFFFFFFFFFFFFF DUP3 AND SWAP1 POP SWAP2 SWAP1 POP JUMP JUMPDEST PUSH0 PUSH2 0x17DE DUP3 PUSH2 0x17B5 JUMP JUMPDEST SWAP1 POP SWAP2 SWAP1 POP JUMP JUMPDEST PUSH2 0x17EE DUP2 PUSH2 0x17D4 JUMP JUMPDEST DUP3 MSTORE POP POP JUMP JUMPDEST PUSH0 PUSH1 0x20 DUP3 ADD SWAP1 POP PUSH2 0x1807 PUSH0 DUP4 ADD DUP5 PUSH2 0x17E5 JUMP JUMPDEST SWAP3 SWAP2 POP POP JUMP JUMPDEST PUSH0 PUSH1 0x20 DUP3 DUP5 SUB SLT ISZERO PUSH2 0x1822 JUMPI PUSH2 0x1821 PUSH2 0x14C2 JUMP JUMPDEST JUMPDEST PUSH0 PUSH2 0x182F DUP5 DUP3 DUP6 ADD PUSH2 0x1747 JUMP JUMPDEST SWAP2 POP POP SWAP3 SWAP2 POP POP JUMP JUMPDEST PUSH0 DUP2 MLOAD SWAP1 POP SWAP2 SWAP1 POP JUMP JUMPDEST PUSH0 DUP3 DUP3 MSTORE PUSH1 0x20 DUP3 ADD SWAP1 POP SWAP3 SWAP2 POP POP JUMP JUMPDEST DUP3 DUP2 DUP4 MCOPY PUSH0 DUP4 DUP4 ADD MSTORE POP POP POP JUMP JUMPDEST PUSH0 PUSH2 0x186A DUP3 PUSH2 0x1838 JUMP JUMPDEST PUSH2 0x1874 DUP2 DUP6 PUSH2 0x1842 JUMP JUMPDEST SWAP4 POP PUSH2 0x1884 DUP2 DUP6 PUSH1 0x20 DUP7 ADD PUSH2 0x1852 JUMP JUMPDEST PUSH2 0x188D DUP2 PUSH2 0x1585 JUMP JUMPDEST DUP5 ADD SWAP2 POP POP SWAP3 SWAP2 POP POP JUMP JUMPDEST PUSH0 PUSH1 0x40 DUP3 ADD SWAP1 POP PUSH2 0x18AB PUSH0 DUP4 ADD DUP6 PUSH2 0x1709 JUMP JUMPDEST DUP2 DUP2 SUB PUSH1 0x20 DUP4 ADD MSTORE PUSH2 0x18BD DUP2 DUP5 PUSH2 0x1860 JUMP JUMPDEST SWAP1 POP SWAP4 SWAP3 POP POP POP JUMP JUMPDEST PUSH0 PUSH0 REVERT JUMPDEST PUSH0 PUSH0 REVERT JUMPDEST PUSH0 PUSH0 DUP4 PUSH1 0x1F DUP5 ADD SLT PUSH2 0x18E3 JUMPI PUSH2 0x18E2 PUSH2 0x157D JUMP JUMPDEST JUMPDEST DUP3 CALLDATALOAD SWAP1 POP PUSH8 0xFFFFFFFFFFFFFFFF DUP2 GT ISZERO PUSH2 0x1900 JUMPI PUSH2 0x18FF PUSH2 0x18C6 JUMP JUMPDEST JUMPDEST PUSH1 0x20 DUP4 ADD SWAP2 POP DUP4 PUSH1 0x1 DUP3 MUL DUP4 ADD GT ISZERO PUSH2 0x191C JUMPI PUSH2 0x191B PUSH2 0x18CA JUMP JUMPDEST JUMPDEST SWAP3 POP SWAP3 SWAP1 POP JUMP JUMPDEST PUSH0 PUSH0 PUSH0 PUSH0 PUSH1 0x40 DUP6 DUP8 SUB SLT ISZERO PUSH2 0x193B JUMPI PUSH2 0x193A PUSH2 0x14C2 JUMP JUMPDEST JUMPDEST PUSH0 DUP6 ADD CALLDATALOAD PUSH8 0xFFFFFFFFFFFFFFFF DUP2 GT ISZERO PUSH2 0x1958 JUMPI PUSH2 0x1957 PUSH2 0x14C6 JUMP JUMPDEST JUMPDEST PUSH2 0x1964 DUP8 DUP3 DUP9 ADD PUSH2 0x18CE JUMP JUMPDEST SWAP5 POP SWAP5 POP POP PUSH1 0x20 DUP6 ADD CALLDATALOAD PUSH8 0xFFFFFFFFFFFFFFFF DUP2 GT ISZERO PUSH2 0x1987 JUMPI PUSH2 0x1986 PUSH2 0x14C6 JUMP JUMPDEST JUMPDEST PUSH2 0x1993 DUP8 DUP3 DUP9 ADD PUSH2 0x18CE JUMP JUMPDEST SWAP3 POP SWAP3 POP POP SWAP3 SWAP6 SWAP2 SWAP5 POP SWAP3 POP JUMP JUMPDEST PUSH0 PUSH32 0xFFFFFFFFFFFFFFFFFFFF00000000000000000000000000000000000000000000 DUP3 AND SWAP1 POP SWAP2 SWAP1 POP JUMP JUMPDEST PUSH2 0x19D5 DUP2 PUSH2 0x19A1 JUMP JUMPDEST DUP3 MSTORE POP POP JUMP JUMPDEST PUSH0 PUSH1 0x20 DUP3 ADD SWAP1 POP PUSH2 0x19EE PUSH0 DUP4 ADD DUP5 PUSH2 0x19CC JUMP JUMPDEST SWAP3 SWAP2 POP POP JUMP JUMPDEST PUSH0 PUSH0 DUP4 PUSH1 0x1F DUP5 ADD SLT PUSH2 0x1A09 JUMPI PUSH2 0x1A08 PUSH2 0x157D JUMP JUMPDEST JUMPDEST DUP3 CALLDATALOAD SWAP1 POP PUSH8 0xFFFFFFFFFFFFFFFF DUP2 GT ISZERO PUSH2 0x1A26 JUMPI PUSH2 0x1A25 PUSH2 0x18C6 JUMP JUMPDEST JUMPDEST PUSH1 0x20 DUP4 ADD SWAP2 POP DUP4 PUSH1 0x1 DUP3 MUL DUP4 ADD GT ISZERO PUSH2 0x1A42 JUMPI PUSH2 0x1A41 PUSH2 0x18CA JUMP JUMPDEST JUMPDEST SWAP3 POP SWAP3 SWAP1 POP JUMP JUMPDEST PUSH0 PUSH0 PUSH1 0x20 DUP4 DUP6 SUB SLT ISZERO PUSH2 0x1A5F JUMPI PUSH2 0x1A5E PUSH2 0x14C2 JUMP JUMPDEST JUMPDEST PUSH0 DUP4 ADD CALLDATALOAD PUSH8 0xFFFFFFFFFFFFFFFF DUP2 GT ISZERO PUSH2 0x1A7C JUMPI PUSH2 0x1A7B PUSH2 0x14C6 JUMP JUMPDEST JUMPDEST PUSH2 0x1A88 DUP6 DUP3 DUP7 ADD PUSH2 0x19F4 JUMP JUMPDEST SWAP3 POP SWAP3 POP POP SWAP3 POP SWAP3 SWAP1 POP JUMP JUMPDEST PUSH0 DUP2 SWAP1 POP SWAP2 SWAP1 POP JUMP JUMPDEST PUSH2 0x1AA6 DUP2 PUSH2 0x1A94 JUMP JUMPDEST DUP2 EQ PUSH2 0x1AB0 JUMPI PUSH0 PUSH0 REVERT JUMPDEST POP JUMP JUMPDEST PUSH0 DUP2 CALLDATALOAD SWAP1 POP PUSH2 0x1AC1 DUP2 PUSH2 0x1A9D JUMP JUMPDEST SWAP3 SWAP2 POP POP JUMP JUMPDEST PUSH0 PUSH1 0x20 DUP3 DUP5 SUB SLT ISZERO PUSH2 0x1ADC JUMPI PUSH2 0x1ADB PUSH2 0x14C2 JUMP JUMPDEST JUMPDEST PUSH0 PUSH2 0x1AE9 DUP5 DUP3 DUP6 ADD PUSH2 0x1AB3 JUMP JUMPDEST SWAP2 POP POP SWAP3 SWAP2 POP POP JUMP JUMPDEST PUSH2 0x1AFB DUP2 PUSH2 0x17D4 JUMP JUMPDEST DUP2 EQ PUSH2 0x1B05 JUMPI PUSH0 PUSH0 REVERT JUMPDEST POP JUMP JUMPDEST PUSH0 DUP2 CALLDATALOAD SWAP1 POP PUSH2 0x1B16 DUP2 PUSH2 0x1AF2 JUMP JUMPDEST SWAP3 SWAP2 POP POP JUMP JUMPDEST PUSH0 PUSH1 0x20 DUP3 DUP5 SUB SLT ISZERO PUSH2 0x1B31 JUMPI PUSH2 0x1B30 PUSH2 0x14C2 JUMP JUMPDEST JUMPDEST PUSH0 PUSH2 0x1B3E DUP5 DUP3 DUP6 ADD PUSH2 0x1B08 JUMP JUMPDEST SWAP2 POP POP SWAP3 SWAP2 POP POP JUMP JUMPDEST PUSH2 0x1B50 DUP2 PUSH2 0x1A94 JUMP JUMPDEST DUP3 MSTORE POP POP JUMP JUMPDEST PUSH0 PUSH1 0x20 DUP3 ADD SWAP1 POP PUSH2 0x1B69 PUSH0 DUP4 ADD DUP5 PUSH2 0x1B47 JUMP JUMPDEST SWAP3 SWAP2 POP POP JUMP JUMPDEST PUSH0 DUP2 SWAP1 POP SWAP3 SWAP2 POP POP JUMP JUMPDEST PUSH0 PUSH2 0x1B83 DUP3 PUSH2 0x1838 JUMP JUMPDEST PUSH2 0x1B8D DUP2 DUP6 PUSH2 0x1B6F JUMP JUMPDEST SWAP4 POP PUSH2 0x1B9D DUP2 DUP6 PUSH1 0x20 DUP7 ADD PUSH2 0x1852 JUMP JUMPDEST DUP1 DUP5 ADD SWAP2 POP POP SWAP3 SWAP2 POP POP JUMP JUMPDEST PUSH0 PUSH2 0x1BB4 DUP3 DUP5 PUSH2 0x1B79 JUMP JUMPDEST SWAP2 POP DUP2 SWAP1 POP SWAP3 SWAP2 POP POP JUMP JUMPDEST PUSH32 0x4E487B7100000000000000000000000000000000000000000000000000000000 PUSH0 MSTORE PUSH1 0x22 PUSH1 0x4 MSTORE PUSH1 0x24 PUSH0 REVERT JUMPDEST PUSH0 PUSH1 0x2 DUP3 DIV SWAP1 POP PUSH1 0x1 DUP3 AND DUP1 PUSH2 0x1C03 JUMPI PUSH1 0x7F DUP3 AND SWAP2 POP JUMPDEST PUSH1 0x20 DUP3 LT DUP2 SUB PUSH2 0x1C16 JUMPI PUSH2 0x1C15 PUSH2 0x1BBF JUMP JUMPDEST JUMPDEST POP SWAP2 SWAP1 POP JUMP JUMPDEST PUSH0 DUP2 SWAP1 POP DUP2 PUSH0 MSTORE PUSH1 0x20 PUSH0 KECCAK256 SWAP1 POP SWAP2 SWAP1 POP JUMP JUMPDEST PUSH0 PUSH1 0x20 PUSH1 0x1F DUP4 ADD DIV SWAP1 POP SWAP2 SWAP1 POP JUMP JUMPDEST PUSH0 DUP3 DUP3 SHL SWAP1 POP SWAP3 SWAP2 POP POP JUMP JUMPDEST PUSH0 PUSH1 0x8 DUP4 MUL PUSH2 0x1C78 PUSH32 0xFFFFFFFFFFFFFFFFFFFFFFFFFFFFFFFFFFFFFFFFFFFFFFFFFFFFFFFFFFFFFFFF DUP3 PUSH2 0x1C3D JUMP JUMPDEST PUSH2 0x1C82 DUP7 DUP4 PUSH2 0x1C3D JUMP JUMPDEST SWAP6 POP DUP1 NOT DUP5 AND SWAP4 POP DUP1 DUP7 AND DUP5 OR SWAP3 POP POP POP SWAP4 SWAP3 POP POP POP JUMP JUMPDEST PUSH0 DUP2 SWAP1 POP SWAP2 SWAP1 POP JUMP JUMPDEST PUSH0 PUSH2 0x1CBD PUSH2 0x1CB8 PUSH2 0x1CB3 DUP5 PUSH2 0x1700 JUMP JUMPDEST PUSH2 0x1C9A JUMP JUMPDEST PUSH2 0x1700 JUMP JUMPDEST SWAP1 POP SWAP2 SWAP1 POP JUMP JUMPDEST PUSH0 DUP2 SWAP1 POP SWAP2 SWAP1 POP JUMP JUMPDEST PUSH2 0x1CD6 DUP4 PUSH2 0x1CA3 JUMP JUMPDEST PUSH2 0x1CEA PUSH2 0x1CE2 DUP3 PUSH2 0x1CC4 JUMP JUMPDEST DUP5 DUP5 SLOAD PUSH2 0x1C49 JUMP JUMPDEST DUP3 SSTORE POP POP POP POP JUMP JUMPDEST PUSH0 PUSH0 SWAP1 POP SWAP1 JUMP JUMPDEST PUSH2 0x1D01 PUSH2 0x1CF2 JUMP JUMPDEST PUSH2 0x1D0C DUP2 DUP5 DUP5 PUSH2 0x1CCD JUMP JUMPDEST POP POP POP JUMP JUMPDEST JUMPDEST DUP2 DUP2 LT ISZERO PUSH2 0x1D2F JUMPI PUSH2 0x1D24 PUSH0 DUP3 PUSH2 0x1CF9 JUMP JUMPDEST PUSH1 0x1 DUP2 ADD SWAP1 POP PUSH2 0x1D12 JUMP JUMPDEST POP POP JUMP JUMPDEST PUSH1 0x1F DUP3 GT ISZERO PUSH2 0x1D74 JUMPI PUSH2 0x1D45 DUP2 PUSH2 0x1C1C JUMP JUMPDEST PUSH2 0x1D4E DUP5 PUSH2 0x1C2E JUMP JUMPDEST DUP2 ADD PUSH1 0x20 DUP6 LT ISZERO PUSH2 0x1D5D JUMPI DUP2 SWAP1 POP JUMPDEST PUSH2 0x1D71 PUSH2 0x1D69 DUP6 PUSH2 0x1C2E JUMP JUMPDEST DUP4 ADD DUP3 PUSH2 0x1D11 JUMP JUMPDEST POP POP JUMPDEST POP POP POP JUMP JUMPDEST PUSH0 DUP3 DUP3 SHR SWAP1 POP SWAP3 SWAP2 POP POP JUMP JUMPDEST PUSH0 PUSH2 0x1D94 PUSH0 NOT DUP5 PUSH1 0x8 MUL PUSH2 0x1D79 JUMP JUMPDEST NOT DUP1 DUP4 AND SWAP2 POP POP SWAP3 SWAP2 POP POP JUMP JUMPDEST PUSH0 PUSH2 0x1DAC DUP4 DUP4 PUSH2 0x1D85 JUMP JUMPDEST SWAP2 POP DUP3 PUSH1 0x2 MUL DUP3 OR SWAP1 POP SWAP3 SWAP2 POP POP JUMP JUMPDEST PUSH2 0x1DC5 DUP3 PUSH2 0x1838 JUMP JUMPDEST PUSH8 0xFFFFFFFFFFFFFFFF DUP2 GT ISZERO PUSH2 0x1DDE JUMPI PUSH2 0x1DDD PUSH2 0x1595 JUMP JUMPDEST JUMPDEST PUSH2 0x1DE8 DUP3 SLOAD PUSH2 0x1BEC JUMP JUMPDEST PUSH2 0x1DF3 DUP3 DUP3 DUP6 PUSH2 0x1D33 JUMP JUMPDEST PUSH0 PUSH1 0x20 SWAP1 POP PUSH1 0x1F DUP4 GT PUSH1 0x1 DUP2 EQ PUSH2 0x1E24 JUMPI PUSH0 DUP5 ISZERO PUSH2 0x1E12 JUMPI DUP3 DUP8 ADD MLOAD SWAP1 POP JUMPDEST PUSH2 0x1E1C DUP6 DUP3 PUSH2 0x1DA1 JUMP JUMPDEST DUP7 SSTORE POP PUSH2 0x1E83 JUMP JUMPDEST PUSH1 0x1F NOT DUP5 AND PUSH2 0x1E32 DUP7 PUSH2 0x1C1C JUMP JUMPDEST PUSH0 JUMPDEST DUP3 DUP2 LT ISZERO PUSH2 0x1E59 JUMPI DUP5 DUP10 ADD MLOAD DUP3 SSTORE PUSH1 0x1 DUP3 ADD SWAP2 POP PUSH1 0x20 DUP6 ADD SWAP5 POP PUSH1 0x20 DUP2 ADD SWAP1 POP PUSH2 0x1E34 JUMP JUMPDEST DUP7 DUP4 LT ISZERO PUSH2 0x1E76 JUMPI DUP5 DUP10 ADD MLOAD PUSH2 0x1E72 PUSH1 0x1F DUP10 AND DUP3 PUSH2 0x1D85 JUMP JUMPDEST DUP4 SSTORE POP JUMPDEST PUSH1 0x1 PUSH1 0x2 DUP9 MUL ADD DUP9 SSTORE POP POP POP JUMPDEST POP POP POP POP POP POP JUMP JUMPDEST PUSH0 PUSH1 0x40 DUP3 ADD SWAP1 POP PUSH2 0x1E9E PUSH0 DUP4 ADD DUP6 PUSH2 0x17E5 JUMP JUMPDEST PUSH2 0x1EAB PUSH1 0x20 DUP4 ADD DUP5 PUSH2 0x17E5 JUMP JUMPDEST SWAP4 SWAP3 POP POP POP JUMP JUMPDEST PUSH0 PUSH1 0x40 DUP3 ADD SWAP1 POP PUSH2 0x1EC5 PUSH0 DUP4 ADD DUP6 PUSH2 0x1B47 JUMP JUMPDEST PUSH2 0x1ED2 PUSH1 0x20 DUP4 ADD DUP5 PUSH2 0x1B47 JUMP JUMPDEST SWAP4 SWAP3 POP POP POP JUMP JUMPDEST PUSH0 PUSH1 0x40 DUP3 ADD SWAP1 POP PUSH2 0x1EEC PUSH0 DUP4 ADD DUP6 PUSH2 0x19CC JUMP JUMPDEST PUSH2 0x1EF9 PUSH1 0x20 DUP4 ADD DUP5 PUSH2 0x19CC JUMP JUMPDEST SWAP4 SWAP3 POP POP POP JUMP JUMPDEST PUSH0 DUP2 SWAP1 POP SWAP3 SWAP2 POP POP JUMP JUMPDEST PUSH0 PUSH2 0x1F15 DUP4 DUP6 PUSH2 0x1F00 JUMP JUMPDEST SWAP4 POP PUSH2 0x1F22 DUP4 DUP6 DUP5 PUSH2 0x163D JUMP JUMPDEST DUP3 DUP5 ADD SWAP1 POP SWAP4 SWAP3 POP POP POP JUMP JUMPDEST PUSH0 PUSH2 0x1F3A DUP3 DUP5 DUP7 PUSH2 0x1F0A JUMP JUMPDEST SWAP2 POP DUP2 SWAP1 POP SWAP4 SWAP3 POP POP POP JUMP JUMPDEST PUSH0 DUP2 MLOAD SWAP1 POP PUSH2 0x1F54 DUP2 PUSH2 0x1A9D JUMP JUMPDEST SWAP3 SWAP2 POP POP JUMP JUMPDEST PUSH0 PUSH1 0x20 DUP3 DUP5 SUB SLT ISZERO PUSH2 0x1F6F JUMPI PUSH2 0x1F6E PUSH2 0x14C2 JUMP JUMPDEST JUMPDEST PUSH0 PUSH2 0x1F7C DUP5 DUP3 DUP6 ADD PUSH2 0x1F46 JUMP JUMPDEST SWAP2 POP POP SWAP3 SWAP2 POP POP JUMP JUMPDEST PUSH0 DUP2 SWAP1 POP SWAP2 SWAP1 POP JUMP JUMPDEST PUSH2 0x1F9F PUSH2 0x1F9A DUP3 PUSH2 0x1A94 JUMP JUMPDEST PUSH2 0x1F85 JUMP JUMPDEST DUP3 MSTORE POP POP JUMP JUMPDEST PUSH0 PUSH2 0x1FB0 DUP3 DUP5 PUSH2 0x1F8E JUMP JUMPDEST PUSH1 0x20 DUP3 ADD SWAP2 POP DUP2 SWAP1 POP SWAP3 SWAP2 POP POP JUMP JUMPDEST PUSH32 0x4E487B7100000000000000000000000000000000000000000000000000000000 PUSH0 MSTORE PUSH1 0x32 PUSH1 0x4 MSTORE PUSH1 0x24 PUSH0 REVERT JUMPDEST PUSH0 DUP2 MLOAD SWAP1 POP SWAP2 SWAP1 POP JUMP JUMPDEST PUSH0 DUP2 SWAP1 POP PUSH1 0x20 DUP3 ADD SWAP1 POP SWAP2 SWAP1 POP JUMP JUMPDEST PUSH0 PUSH2 0x2010 DUP3 MLOAD PUSH2 0x19A1 JUMP JUMPDEST DUP1 SWAP2 POP POP SWAP2 SWAP1 POP JUMP JUMPDEST PUSH0 PUSH2 0x2023 DUP3 PUSH2 0x1FEC JUMP JUMPDEST DUP3 PUSH2 0x202D DUP5 PUSH2 0x1FF6 JUMP JUMPDEST SWAP1 POP PUSH2 0x2038 DUP2 PUSH2 0x2005 JUMP JUMPDEST SWAP3 POP PUSH1 0xA DUP3 LT ISZERO PUSH2 0x2078 JUMPI PUSH2 0x2073 PUSH32 0xFFFFFFFFFFFFFFFFFFFF00000000000000000000000000000000000000000000 DUP4 PUSH1 0xA SUB PUSH1 0x8 MUL PUSH2 0x1C3D JUMP JUMPDEST DUP4 AND SWAP3 POP JUMPDEST POP POP SWAP2 SWAP1 POP JUMP JUMPDEST PUSH32 0x466F7277617264657220616464726573732073657420746F207A65726F202D20 PUSH0 DUP3 ADD MSTORE PUSH32 0x636F6E7472616374206973206E6F7720494E5345435552450000000000000000 PUSH1 0x20 DUP3 ADD MSTORE POP JUMP JUMPDEST PUSH0 PUSH2 0x20D9 PUSH1 0x38 DUP4 PUSH2 0x1842 JUMP JUMPDEST SWAP2 POP PUSH2 0x20E4 DUP3 PUSH2 0x207F JUMP JUMPDEST PUSH1 0x40 DUP3 ADD SWAP1 POP SWAP2 SWAP1 POP JUMP JUMPDEST PUSH0 PUSH1 0x20 DUP3 ADD SWAP1 POP DUP2 DUP2 SUB PUSH0 DUP4 ADD MSTORE PUSH2 0x2106 DUP2 PUSH2 0x20CD JUMP JUMPDEST SWAP1 POP SWAP2 SWAP1 POP JUMP JUMPDEST PUSH32 0x4E487B7100000000000000000000000000000000000000000000000000000000 PUSH0 MSTORE PUSH1 0x11 PUSH1 0x4 MSTORE PUSH1 0x24 PUSH0 REVERT JUMPDEST PUSH0 PUSH2 0x2144 DUP3 PUSH2 0x1700 JUMP JUMPDEST SWAP2 POP PUSH2 0x214F DUP4 PUSH2 0x1700 JUMP JUMPDEST SWAP3 POP DUP3 DUP3 MUL PUSH2 0x215D DUP2 PUSH2 0x1700 JUMP JUMPDEST SWAP2 POP DUP3 DUP3 DIV DUP5 EQ DUP4 ISZERO OR PUSH2 0x2174 JUMPI PUSH2 0x2173 PUSH2 0x210D JUMP JUMPDEST JUMPDEST POP SWAP3 SWAP2 POP POP JUMP JUMPDEST PUSH0 PUSH2 0x2185 DUP3 PUSH2 0x1700 JUMP JUMPDEST SWAP2 POP PUSH2 0x2190 DUP4 PUSH2 0x1700 JUMP JUMPDEST SWAP3 POP DUP3 DUP3 ADD SWAP1 POP DUP1 DUP3 GT ISZERO PUSH2 0x21A8 JUMPI PUSH2 0x21A7 PUSH2 0x210D JUMP JUMPDEST JUMPDEST SWAP3 SWAP2 POP POP JUMP INVALID LOG2 PUSH5 0x6970667358 0x22 SLT KECCAK256 DUP1 0xAD GASPRICE GASPRICE 0x2B 0x2D 0x24 DUP14 PUSH25 0x6E393F7140DD2003FC87073451C0526A51E7A067CFB8AA6473 PUSH16 0x6C634300081F00330000000000000000 "
				},
				"gasEstimates": {
					"creation": {
						"codeDepositCost": "1735200",
						"executionCost": "infinite",
						"totalCost": "infinite"
					},
					"external": {
						"addPersonNum(string,uint256)": "infinite",
						"getExpectedAuthor()": "2605",
						"getExpectedWorkflowId()": "2542",
						"getExpectedWorkflowName()": "2569",
						"getForwarderAddress()": "2538",
						"nameToFavNum(string)": "infinite",
						"onReport(bytes,bytes)": "infinite",
						"owner()": "2537",
						"personList(uint256)": "infinite",
						"renounceOwnership()": "infinite",
						"retrive()": "2499",
						"retrived()": "2498",
						"setExpectedAuthor(address)": "infinite",
						"setExpectedWorkflowId(bytes32)": "infinite",
						"setExpectedWorkflowName(string)": "infinite",
						"setForwarderAddress(address)": "infinite",
						"store(uint256)": "22560",
						"supportsInterface(bytes4)": "699",
						"transferOwnership(address)": "infinite"
					},
					"internal": {
						"_processReport(bytes calldata)": "infinite"
					}
				},
				"methodIdentifiers": {
					"addPersonNum(string,uint256)": "27422150",
					"getExpectedAuthor()": "3397cf67",
					"getExpectedWorkflowId()": "f5c793ef",
					"getExpectedWorkflowName()": "a619d818",
					"getForwarderAddress()": "3441856f",
					"nameToFavNum(string)": "06c62c2c",
					"onReport(bytes,bytes)": "805f2132",
					"owner()": "8da5cb5b",
					"personList(uint256)": "6b44374d",
					"renounceOwnership()": "715018a6",
					"retrive()": "a6b7fc5b",
					"retrived()": "f2093350",
					"setExpectedAuthor(address)": "d60c884b",
					"setExpectedWorkflowId(bytes32)": "c3c44ac2",
					"setExpectedWorkflowName(string)": "bc1fc27a",
					"setForwarderAddress(address)": "d777cc6d",
					"store(uint256)": "6057361d",
					"supportsInterface(bytes4)": "01ffc9a7",
					"transferOwnership(address)": "f2fde38b"
				}
			},
			"storageLayout": {
				"storage": [
					{
						"astId": 8,
						"contract": "simpleSttorage.sol:SimpleStroge",
						"label": "_owner",
						"offset": 0,
						"slot": "0",
						"type": "t_address"
					},
					{
						"astId": 220,
						"contract": "simpleSttorage.sol:SimpleStroge",
						"label": "s_forwarderAddress",
						"offset": 0,
						"slot": "1",
						"type": "t_address"
					},
					{
						"astId": 222,
						"contract": "simpleSttorage.sol:SimpleStroge",
						"label": "s_expectedAuthor",
						"offset": 0,
						"slot": "2",
						"type": "t_address"
					},
					{
						"astId": 224,
						"contract": "simpleSttorage.sol:SimpleStroge",
						"label": "s_expectedWorkflowName",
						"offset": 20,
						"slot": "2",
						"type": "t_bytes10"
					},
					{
						"astId": 226,
						"contract": "simpleSttorage.sol:SimpleStroge",
						"label": "s_expectedWorkflowId",
						"offset": 0,
						"slot": "3",
						"type": "t_bytes32"
					},
					{
						"astId": 793,
						"contract": "simpleSttorage.sol:SimpleStroge",
						"label": "myfavnum",
						"offset": 0,
						"slot": "4",
						"type": "t_uint256"
					},
					{
						"astId": 802,
						"contract": "simpleSttorage.sol:SimpleStroge",
						"label": "personList",
						"offset": 0,
						"slot": "5",
						"type": "t_array(t_struct(Person)798_storage)dyn_storage"
					},
					{
						"astId": 806,
						"contract": "simpleSttorage.sol:SimpleStroge",
						"label": "nameToFavNum",
						"offset": 0,
						"slot": "6",
						"type": "t_mapping(t_string_memory_ptr,t_uint256)"
					}
				],
				"types": {
					"t_address": {
						"encoding": "inplace",
						"label": "address",
						"numberOfBytes": "20"
					},
					"t_array(t_struct(Person)798_storage)dyn_storage": {
						"base": "t_struct(Person)798_storage",
						"encoding": "dynamic_array",
						"label": "struct SimpleStroge.Person[]",
						"numberOfBytes": "32"
					},
					"t_bytes10": {
						"encoding": "inplace",
						"label": "bytes10",
						"numberOfBytes": "10"
					},
					"t_bytes32": {
						"encoding": "inplace",
						"label": "bytes32",
						"numberOfBytes": "32"
					},
					"t_mapping(t_string_memory_ptr,t_uint256)": {
						"encoding": "mapping",
						"key": "t_string_memory_ptr",
						"label": "mapping(string => uint256)",
						"numberOfBytes": "32",
						"value": "t_uint256"
					},
					"t_string_memory_ptr": {
						"encoding": "bytes",
						"label": "string",
						"numberOfBytes": "32"
					},
					"t_string_storage": {
						"encoding": "bytes",
						"label": "string",
						"numberOfBytes": "32"
					},
					"t_struct(Person)798_storage": {
						"encoding": "inplace",
						"label": "struct SimpleStroge.Person",
						"members": [
							{
								"astId": 795,
								"contract": "simpleSttorage.sol:SimpleStroge",
								"label": "favnum",
								"offset": 0,
								"slot": "0",
								"type": "t_uint256"
							},
							{
								"astId": 797,
								"contract": "simpleSttorage.sol:SimpleStroge",
								"label": "name",
								"offset": 0,
								"slot": "1",
								"type": "t_string_storage"
							}
						],
						"numberOfBytes": "64"
					},
					"t_uint256": {
						"encoding": "inplace",
						"label": "uint256",
						"numberOfBytes": "32"
					}
				}
			},
			"userdoc": {
				"kind": "user",
				"methods": {
					"getExpectedAuthor()": {
						"notice": "Returns the expected workflow author address"
					},
					"getExpectedWorkflowId()": {
						"notice": "Returns the expected workflow ID"
					},
					"getExpectedWorkflowName()": {
						"notice": "Returns the expected workflow name"
					},
					"getForwarderAddress()": {
						"notice": "Returns the configured forwarder address"
					},
					"onReport(bytes,bytes)": {
						"notice": "Handles incoming keystone reports."
					},
					"setExpectedAuthor(address)": {
						"notice": "Updates the expected workflow owner address"
					},
					"setExpectedWorkflowId(bytes32)": {
						"notice": "Updates the expected workflow ID"
					},
					"setExpectedWorkflowName(string)": {
						"notice": "Updates the expected workflow name from a plaintext string"
					},
					"setForwarderAddress(address)": {
						"notice": "Updates the forwarder address that is allowed to call onReport"
					}
				},
				"version": 1
			}
		}
	}
}