{
	"data": {
		"bytecode": {
			"linkReferences": {},
			"object": "608060405260215f556001805f6101000a81548160ff02191690831515021790555060196002553480156030575f5ffd5b506102928061003e5f395ff3fe608060405234801561000f575f5ffd5b5060043610610034575f3560e01c80630e99d3b014610038578063b5ef9bfe14610059575b5f5ffd5b610040610079565b60405161005094939291906100f4565b60405180910390f35b6100616100c6565b604051610070939291906101a7565b60405180910390f35b5f5f5f5f5f549350600154925060025491508360405160200161009c91906101ea565b6040516020818303038152906040528060200190518101906100be9190610231565b905090919293565b6060805f5f549250600154915060049050909192565b5f819050919050565b6100ee816100dc565b82525050565b5f6080820190506101075f8301876100e5565b61011460208301866100e5565b61012160408301856100e5565b61012e60608301846100e5565b95945050505050565b5f81519050919050565b5f82825260208201905092915050565b8281835e5f83830152505050565b5f601f19601f8301169050919050565b5f61017982610137565b6101838185610141565b9350610193818560208601610151565b61019c8161015f565b840191505092915050565b5f6060820190508181035f8301526101bf818661016f565b905081810360208301526101d3818561016f565b90506101e260408301846100e5565b949350505050565b5f6020820190506101fd5f8301846100e5565b92915050565b5f5ffd5b610210816100dc565b811461021a575f5ffd5b50565b5f8151905061022b81610207565b92915050565b5f6020828403121561024657610245610203565b5b5f6102538482850161021d565b9150509291505056fea26469706673582212207e7bb5a791052af5526214f5adbc37361def373b6768fccb75c9216bb1df313664736f6c634300081f0033",
			"opcodes": "PUSH1 0x80 PUSH1 0x40 MSTORE PUSH1 0x21 PUSH0 SSTORE PUSH1 0x1 DUP1 PUSH0 PUSH2 0x100 EXP DUP2 SLOAD DUP2 PUSH1 0xFF MUL NOT AND SWAP1 DUP4 ISZERO ISZERO MUL OR SWAP1 SSTORE POP PUSH1 0x19 PUSH1 0x2 SSTORE CALLVALUE DUP1 ISZERO PUSH1 0x30 JUMPI PUSH0 PUSH0 REVERT JUMPDEST POP PUSH2 0x292 DUP1 PUSH2 0x3E PUSH0 CODECOPY PUSH0 RETURN INVALID PUSH1 0x80 PUSH1 0x40 MSTORE CALLVALUE DUP1 ISZERO PUSH2 0xF JUMPI PUSH0 PUSH0 REVERT JUMPDEST POP PUSH1 0x4 CALLDATASIZE LT PUSH2 0x34 JUMPI PUSH0 CALLDATALOAD PUSH1 0xE0 SHR DUP1 PUSH4 0xE99D3B0 EQ PUSH2 0x38 JUMPI DUP1 PUSH4 0xB5EF9BFE EQ PUSH2 0x59 JUMPI JUMPDEST PUSH0 PUSH0 REVERT JUMPDEST PUSH2 0x40 PUSH2 0x79 JUMP JUMPDEST PUSH1 0x40 MLOAD PUSH2 0x50 SWAP5 SWAP4 SWAP3 SWAP2 SWAP1 PUSH2 0xF4 JUMP JUMPDEST PUSH1 0x40 MLOAD DUP1 SWAP2 SUB SWAP1 RETURN JUMPDEST PUSH2 0x61 PUSH2 0xC6 JUMP JUMPDEST PUSH1 0x40 MLOAD PUSH2 0x70 SWAP4 SWAP3 SWAP2 SWAP1 PUSH2 0x1A7 JUMP JUMPDEST PUSH1 0x40 MLOAD DUP1 SWAP2 SUB SWAP1 RETURN JUMPDEST PUSH0 PUSH0 PUSH0 PUSH0 PUSH0 SLOAD SWAP4 POP PUSH1 0x1 SLOAD SWAP3 POP PUSH1 0x2 SLOAD SWAP2 POP DUP4 PUSH1 0x40 MLOAD PUSH1 0x20 ADD PUSH2 0x9C SWAP2 SWAP1 PUSH2 0x1EA JUMP JUMPDEST PUSH1 0x40 MLOAD PUSH1 0x20 DUP2 DUP4 SUB SUB DUP2 MSTORE SWAP1 PUSH1 0x40 MSTORE DUP1 PUSH1 0x20 ADD SWAP1 MLOAD DUP2 ADD SWAP1 PUSH2 0xBE SWAP2 SWAP1 PUSH2 0x231 JUMP JUMPDEST SWAP1 POP SWAP1 SWAP2 SWAP3 SWAP4 JUMP JUMPDEST PUSH1 0x60 DUP1 PUSH0 PUSH0 SLOAD SWAP3 POP PUSH1 0x1 SLOAD SWAP2 POP PUSH1 0x4 SWAP1 POP SWAP1 SWAP2 SWAP3 JUMP JUMPDEST PUSH0 DUP2 SWAP1 POP SWAP2 SWAP1 POP JUMP JUMPDEST PUSH2 0xEE DUP2 PUSH2 0xDC JUMP JUMPDEST DUP3 MSTORE POP POP JUMP JUMPDEST PUSH0 PUSH1 0x80 DUP3 ADD SWAP1 POP PUSH2 0x107 PUSH0 DUP4 ADD DUP8 PUSH2 0xE5 JUMP JUMPDEST PUSH2 0x114 PUSH1 0x20 DUP4 ADD DUP7 PUSH2 0xE5 JUMP JUMPDEST PUSH2 0x121 PUSH1 0x40 DUP4 ADD DUP6 PUSH2 0xE5 JUMP JUMPDEST PUSH2 0x12E PUSH1 0x60 DUP4 ADD DUP5 PUSH2 0xE5 JUMP JUMPDEST SWAP6 SWAP5 POP POP POP POP POP JUMP JUMPDEST PUSH0 DUP2 MLOAD SWAP1 POP SWAP2 SWAP1 POP JUMP JUMPDEST PUSH0 DUP3 DUP3 MSTORE PUSH1 0x20 DUP3 ADD SWAP1 POP SWAP3 SWAP2 POP POP JUMP JUMPDEST DUP3 DUP2 DUP4 MCOPY PUSH0 DUP4 DUP4 ADD MSTORE POP POP POP JUMP JUMPDEST PUSH0 PUSH1 0x1F NOT PUSH1 0x1F DUP4 ADD AND SWAP1 POP SWAP2 SWAP1 POP JUMP JUMPDEST PUSH0 PUSH2 0x179 DUP3 PUSH2 0x137 JUMP JUMPDEST PUSH2 0x183 DUP2 DUP6 PUSH2 0x141 JUMP JUMPDEST SWAP4 POP PUSH2 0x193 DUP2 DUP6 PUSH1 0x20 DUP7 ADD PUSH2 0x151 JUMP JUMPDEST PUSH2 0x19C DUP2 PUSH2 0x15F JUMP JUMPDEST DUP5 ADD SWAP2 POP POP SWAP3 SWAP2 POP POP JUMP JUMPDEST PUSH0 PUSH1 0x60 DUP3 ADD SWAP1 POP DUP2 DUP2 SUB PUSH0 DUP4 ADD MSTORE PUSH2 0x1BF DUP2 DUP7 PUSH2 0x16F JUMP JUMPDEST SWAP1 POP DUP2 DUP2 SUB PUSH1 0x20 DUP4 ADD MSTORE PUSH2 0x1D3 DUP2 DUP6 PUSH2 0x16F JUMP JUMPDEST SWAP1 POP PUSH2 0x1E2 PUSH1 0x40 DUP4 ADD DUP5 PUSH2 0xE5 JUMP JUMPDEST SWAP5 SWAP4 POP POP POP POP JUMP JUMPDEST PUSH0 PUSH1 0x20 DUP3 ADD SWAP1 POP PUSH2 0x1FD PUSH0 DUP4 ADD DUP5 PUSH2 0xE5 JUMP JUMPDEST SWAP3 SWAP2 POP POP JUMP JUMPDEST PUSH0 PUSH0 REVERT JUMPDEST PUSH2 0x210 DUP2 PUSH2 0xDC JUMP JUMPDEST DUP2 EQ PUSH2 0x21A JUMPI PUSH0 PUSH0 REVERT JUMPDEST POP JUMP JUMPDEST PUSH0 DUP2 MLOAD SWAP1 POP PUSH2 0x22B DUP2 PUSH2 0x207 JUMP JUMPDEST SWAP3 SWAP2 POP POP JUMP JUMPDEST PUSH0 PUSH1 0x20 DUP3 DUP5 SUB SLT ISZERO PUSH2 0x246 JUMPI PUSH2 0x245 PUSH2 0x203 JUMP JUMPDEST JUMPDEST PUSH0 PUSH2 0x253 DUP5 DUP3 DUP6 ADD PUSH2 0x21D JUMP JUMPDEST SWAP2 POP POP SWAP3 SWAP2 POP POP JUMP INVALID LOG2 PUSH5 0x6970667358 0x22 SLT KECCAK256 PUSH31 0x7BB5A791052AF5526214F5ADBC37361DEF373B6768FCCB75C9216BB1DF3136 PUSH5 0x736F6C6343 STOP ADDMOD 0x1F STOP CALLER "
		},
		"gasEstimates": {
			"creation": {
				"codeDepositCost": "131600",
				"executionCost": "68652",
				"totalCost": "200252"
			},
			"external": {
				"debugStorage()": "infinite",
				"showPacking()": "infinite"
			}
		},
		"methodIdentifiers": {
			"debugStorage()": "0e99d3b0",
			"showPacking()": "b5ef9bfe"
		}
	},
	"abi": [
		{
			"inputs": [],
			"name": "debugStorage",
			"outputs": [
				{
					"internalType": "uint256",
					"name": "slot0",
					"type": "uint256"
				},
				{
					"internalType": "uint256",
					"name": "slot1",
					"type": "uint256"
				},
				{
					"internalType": "uint256",
					"name": "slot2",
					"type": "uint256"
				},
				{
					"internalType": "uint256",
					"name": "decodedFromSlot0",
					"type": "uint256"
				}
			],
			"stateMutability": "view",
			"type": "function"
		},
		{
			"inputs": [],
			"name": "showPacking",
			"outputs": [
				{
					"internalType": "bytes",
					"name": "slot0",
					"type": "bytes"
				},
				{
					"internalType": "bytes",
					"name": "slot1",
					"type": "bytes"
				},
				{
					"internalType": "uint256",
					"name": "ageReturend",
					"type": "uint256"
				}
			],
			"stateMutability": "view",
			"type": "function"
		}
	]
}