{
	"data": {
		"bytecode": {
			"linkReferences": {},
			"object": "6080604052348015600e575f5ffd5b5061097d8061001c5f395ff3fe608060405234801561000f575f5ffd5b5060043610610060575f3560e01c806306c62c2c1461006457806327422150146100945780636057361d146100b05780636b44374d146100cc578063a6b7fc5b146100fd578063f20933501461011b575b5f5ffd5b61007e60048036038101906100799190610416565b610139565b60405161008b9190610475565b60405180910390f35b6100ae60048036038101906100a991906104b8565b610166565b005b6100ca60048036038101906100c59190610512565b6101ef565b005b6100e660048036038101906100e19190610512565b610204565b6040516100f492919061059d565b60405180910390f35b6101056102b9565b6040516101129190610475565b60405180910390f35b6101236102c1565b6040516101309190610475565b60405180910390f35b6002818051602081018201805184825260208301602085012081835280955050505050505f915090505481565b806002836040516101779190610605565b9081526020016040518091039020819055505f6040518060400160405280838152602001848152509050600181908060018154018082558091505060019003905f5260205f2090600202015f909190919091505f820151815f015560208201518160010190816101e79190610818565b505050505050565b6005816101fc9190610914565b5f8190555050565b60018181548110610213575f80fd5b905f5260205f2090600202015f91509050805f01549080600101805461023890610648565b80601f016020809104026020016040519081016040528092919081815260200182805461026490610648565b80156102af5780601f10610286576101008083540402835291602001916102af565b820191905f5260205f20905b81548152906001019060200180831161029257829003601f168201915b5050505050905082565b5f5f54905090565b5f5f54905090565b5f604051905090565b5f5ffd5b5f5ffd5b5f5ffd5b5f5ffd5b5f601f19601f8301169050919050565b7f4e487b71000000000000000000000000000000000000000000000000000000005f52604160045260245ffd5b610328826102e2565b810181811067ffffffffffffffff82111715610347576103466102f2565b5b80604052505050565b5f6103596102c9565b9050610365828261031f565b919050565b5f67ffffffffffffffff821115610384576103836102f2565b5b61038d826102e2565b9050602081019050919050565b828183375f83830152505050565b5f6103ba6103b58461036a565b610350565b9050828152602081018484840111156103d6576103d56102de565b5b6103e184828561039a565b509392505050565b5f82601f8301126103fd576103fc6102da565b5b813561040d8482602086016103a8565b91505092915050565b5f6020828403121561042b5761042a6102d2565b5b5f82013567ffffffffffffffff811115610448576104476102d6565b5b610454848285016103e9565b91505092915050565b5f819050919050565b61046f8161045d565b82525050565b5f6020820190506104885f830184610466565b92915050565b6104978161045d565b81146104a1575f5ffd5b50565b5f813590506104b28161048e565b92915050565b5f5f604083850312156104ce576104cd6102d2565b5b5f83013567ffffffffffffffff8111156104eb576104ea6102d6565b5b6104f7858286016103e9565b9250506020610508858286016104a4565b9150509250929050565b5f60208284031215610527576105266102d2565b5b5f610534848285016104a4565b91505092915050565b5f81519050919050565b5f82825260208201905092915050565b8281835e5f83830152505050565b5f61056f8261053d565b6105798185610547565b9350610589818560208601610557565b610592816102e2565b840191505092915050565b5f6040820190506105b05f830185610466565b81810360208301526105c28184610565565b90509392505050565b5f81905092915050565b5f6105df8261053d565b6105e981856105cb565b93506105f9818560208601610557565b80840191505092915050565b5f61061082846105d5565b915081905092915050565b7f4e487b71000000000000000000000000000000000000000000000000000000005f52602260045260245ffd5b5f600282049050600182168061065f57607f821691505b6020821081036106725761067161061b565b5b50919050565b5f819050815f5260205f209050919050565b5f6020601f8301049050919050565b5f82821b905092915050565b5f600883026106d47fffffffffffffffffffffffffffffffffffffffffffffffffffffffffffffffff82610699565b6106de8683610699565b95508019841693508086168417925050509392505050565b5f819050919050565b5f61071961071461070f8461045d565b6106f6565b61045d565b9050919050565b5f819050919050565b610732836106ff565b61074661073e82610720565b8484546106a5565b825550505050565b5f5f905090565b61075d61074e565b610768818484610729565b505050565b5b8181101561078b576107805f82610755565b60018101905061076e565b5050565b601f8211156107d0576107a181610678565b6107aa8461068a565b810160208510156107b9578190505b6107cd6107c58561068a565b83018261076d565b50505b505050565b5f82821c905092915050565b5f6107f05f19846008026107d5565b1980831691505092915050565b5f61080883836107e1565b9150826002028217905092915050565b6108218261053d565b67ffffffffffffffff81111561083a576108396102f2565b5b6108448254610648565b61084f82828561078f565b5f60209050601f831160018114610880575f841561086e578287015190505b61087885826107fd565b8655506108df565b601f19841661088e86610678565b5f5b828110156108b557848901518255600182019150602085019450602081019050610890565b868310156108d257848901516108ce601f8916826107e1565b8355505b6001600288020188555050505b505050505050565b7f4e487b71000000000000000000000000000000000000000000000000000000005f52601160045260245ffd5b5f61091e8261045d565b91506109298361045d565b9250828201905080821115610941576109406108e7565b5b9291505056fea2646970667358221220084a0704c88c71498d238e31e506700762d6d987aaed2f1dde5003400ee0a68864736f6c634300081e0033",
			"opcodes": "PUSH1 0x80 PUSH1 0x40 MSTORE CALLVALUE DUP1 ISZERO PUSH1 0xE JUMPI PUSH0 PUSH0 REVERT JUMPDEST POP PUSH2 0x97D DUP1 PUSH2 0x1C PUSH0 CODECOPY PUSH0 RETURN INVALID PUSH1 0x80 PUSH1 0x40 MSTORE CALLVALUE DUP1 ISZERO PUSH2 0xF JUMPI PUSH0 PUSH0 REVERT JUMPDEST POP PUSH1 0x4 CALLDATASIZE LT PUSH2 0x60 JUMPI PUSH0 CALLDATALOAD PUSH1 0xE0 SHR DUP1 PUSH4 0x6C62C2C EQ PUSH2 0x64 JUMPI DUP1 PUSH4 0x27422150 EQ PUSH2 0x94 JUMPI DUP1 PUSH4 0x6057361D EQ PUSH2 0xB0 JUMPI DUP1 PUSH4 0x6B44374D EQ PUSH2 0xCC JUMPI DUP1 PUSH4 0xA6B7FC5B EQ PUSH2 0xFD JUMPI DUP1 PUSH4 0xF2093350 EQ PUSH2 0x11B JUMPI JUMPDEST PUSH0 PUSH0 REVERT JUMPDEST PUSH2 0x7E PUSH1 0x4 DUP1 CALLDATASIZE SUB DUP2 ADD SWAP1 PUSH2 0x79 SWAP2 SWAP1 PUSH2 0x416 JUMP JUMPDEST PUSH2 0x139 JUMP JUMPDEST PUSH1 0x40 MLOAD PUSH2 0x8B SWAP2 SWAP1 PUSH2 0x475 JUMP JUMPDEST PUSH1 0x40 MLOAD DUP1 SWAP2 SUB SWAP1 RETURN JUMPDEST PUSH2 0xAE PUSH1 0x4 DUP1 CALLDATASIZE SUB DUP2 ADD SWAP1 PUSH2 0xA9 SWAP2 SWAP1 PUSH2 0x4B8 JUMP JUMPDEST PUSH2 0x166 JUMP JUMPDEST STOP JUMPDEST PUSH2 0xCA PUSH1 0x4 DUP1 CALLDATASIZE SUB DUP2 ADD SWAP1 PUSH2 0xC5 SWAP2 SWAP1 PUSH2 0x512 JUMP JUMPDEST PUSH2 0x1EF JUMP JUMPDEST STOP JUMPDEST PUSH2 0xE6 PUSH1 0x4 DUP1 CALLDATASIZE SUB DUP2 ADD SWAP1 PUSH2 0xE1 SWAP2 SWAP1 PUSH2 0x512 JUMP JUMPDEST PUSH2 0x204 JUMP JUMPDEST PUSH1 0x40 MLOAD PUSH2 0xF4 SWAP3 SWAP2 SWAP1 PUSH2 0x59D JUMP JUMPDEST PUSH1 0x40 MLOAD DUP1 SWAP2 SUB SWAP1 RETURN JUMPDEST PUSH2 0x105 PUSH2 0x2B9 JUMP JUMPDEST PUSH1 0x40 MLOAD PUSH2 0x112 SWAP2 SWAP1 PUSH2 0x475 JUMP JUMPDEST PUSH1 0x40 MLOAD DUP1 SWAP2 SUB SWAP1 RETURN JUMPDEST PUSH2 0x123 PUSH2 0x2C1 JUMP JUMPDEST PUSH1 0x40 MLOAD PUSH2 0x130 SWAP2 SWAP1 PUSH2 0x475 JUMP JUMPDEST PUSH1 0x40 MLOAD DUP1 SWAP2 SUB SWAP1 RETURN JUMPDEST PUSH1 0x2 DUP2 DUP1 MLOAD PUSH1 0x20 DUP2 ADD DUP3 ADD DUP1 MLOAD DUP5 DUP3 MSTORE PUSH1 0x20 DUP4 ADD PUSH1 0x20 DUP6 ADD KECCAK256 DUP2 DUP4 MSTORE DUP1 SWAP6 POP POP POP POP POP POP PUSH0 SWAP2 POP SWAP1 POP SLOAD DUP2 JUMP JUMPDEST DUP1 PUSH1 0x2 DUP4 PUSH1 0x40 MLOAD PUSH2 0x177 SWAP2 SWAP1 PUSH2 0x605 JUMP JUMPDEST SWAP1 DUP2 MSTORE PUSH1 0x20 ADD PUSH1 0x40 MLOAD DUP1 SWAP2 SUB SWAP1 KECCAK256 DUP2 SWAP1 SSTORE POP PUSH0 PUSH1 0x40 MLOAD DUP1 PUSH1 0x40 ADD PUSH1 0x40 MSTORE DUP1 DUP4 DUP2 MSTORE PUSH1 0x20 ADD DUP5 DUP2 MSTORE POP SWAP1 POP PUSH1 0x1 DUP2 SWAP1 DUP1 PUSH1 0x1 DUP2 SLOAD ADD DUP1 DUP3 SSTORE DUP1 SWAP2 POP POP PUSH1 0x1 SWAP1 SUB SWAP1 PUSH0 MSTORE PUSH1 0x20 PUSH0 KECCAK256 SWAP1 PUSH1 0x2 MUL ADD PUSH0 SWAP1 SWAP2 SWAP1 SWAP2 SWAP1 SWAP2 POP PUSH0 DUP3 ADD MLOAD DUP2 PUSH0 ADD SSTORE PUSH1 0x20 DUP3 ADD MLOAD DUP2 PUSH1 0x1 ADD SWAP1 DUP2 PUSH2 0x1E7 SWAP2 SWAP1 PUSH2 0x818 JUMP JUMPDEST POP POP POP POP POP POP JUMP JUMPDEST PUSH1 0x5 DUP2 PUSH2 0x1FC SWAP2 SWAP1 PUSH2 0x914 JUMP JUMPDEST PUSH0 DUP2 SWAP1 SSTORE POP POP JUMP JUMPDEST PUSH1 0x1 DUP2 DUP2 SLOAD DUP2 LT PUSH2 0x213 JUMPI PUSH0 DUP1 REVERT JUMPDEST SWAP1 PUSH0 MSTORE PUSH1 0x20 PUSH0 KECCAK256 SWAP1 PUSH1 0x2 MUL ADD PUSH0 SWAP2 POP SWAP1 POP DUP1 PUSH0 ADD SLOAD SWAP1 DUP1 PUSH1 0x1 ADD DUP1 SLOAD PUSH2 0x238 SWAP1 PUSH2 0x648 JUMP JUMPDEST DUP1 PUSH1 0x1F ADD PUSH1 0x20 DUP1 SWAP2 DIV MUL PUSH1 0x20 ADD PUSH1 0x40 MLOAD SWAP1 DUP2 ADD PUSH1 0x40 MSTORE DUP1 SWAP3 SWAP2 SWAP1 DUP2 DUP2 MSTORE PUSH1 0x20 ADD DUP3 DUP1 SLOAD PUSH2 0x264 SWAP1 PUSH2 0x648 JUMP JUMPDEST DUP1 ISZERO PUSH2 0x2AF JUMPI DUP1 PUSH1 0x1F LT PUSH2 0x286 JUMPI PUSH2 0x100 DUP1 DUP4 SLOAD DIV MUL DUP4 MSTORE SWAP2 PUSH1 0x20 ADD SWAP2 PUSH2 0x2AF JUMP JUMPDEST DUP3 ADD SWAP2 SWAP1 PUSH0 MSTORE PUSH1 0x20 PUSH0 KECCAK256 SWAP1 JUMPDEST DUP2 SLOAD DUP2 MSTORE SWAP1 PUSH1 0x1 ADD SWAP1 PUSH1 0x20 ADD DUP1 DUP4 GT PUSH2 0x292 JUMPI DUP3 SWAP1 SUB PUSH1 0x1F AND DUP3 ADD SWAP2 JUMPDEST POP POP POP POP POP SWAP1 POP DUP3 JUMP JUMPDEST PUSH0 PUSH0 SLOAD SWAP1 POP SWAP1 JUMP JUMPDEST PUSH0 PUSH0 SLOAD SWAP1 POP SWAP1 JUMP JUMPDEST PUSH0 PUSH1 0x40 MLOAD SWAP1 POP SWAP1 JUMP JUMPDEST PUSH0 PUSH0 REVERT JUMPDEST PUSH0 PUSH0 REVERT JUMPDEST PUSH0 PUSH0 REVERT JUMPDEST PUSH0 PUSH0 REVERT JUMPDEST PUSH0 PUSH1 0x1F NOT PUSH1 0x1F DUP4 ADD AND SWAP1 POP SWAP2 SWAP1 POP JUMP JUMPDEST PUSH32 0x4E487B7100000000000000000000000000000000000000000000000000000000 PUSH0 MSTORE PUSH1 0x41 PUSH1 0x4 MSTORE PUSH1 0x24 PUSH0 REVERT JUMPDEST PUSH2 0x328 DUP3 PUSH2 0x2E2 JUMP JUMPDEST DUP2 ADD DUP2 DUP2 LT PUSH8 0xFFFFFFFFFFFFFFFF DUP3 GT OR ISZERO PUSH2 0x347 JUMPI PUSH2 0x346 PUSH2 0x2F2 JUMP JUMPDEST JUMPDEST DUP1 PUSH1 0x40 MSTORE POP POP POP JUMP JUMPDEST PUSH0 PUSH2 0x359 PUSH2 0x2C9 JUMP JUMPDEST SWAP1 POP PUSH2 0x365 DUP3 DUP3 PUSH2 0x31F JUMP JUMPDEST SWAP2 SWAP1 POP JUMP JUMPDEST PUSH0 PUSH8 0xFFFFFFFFFFFFFFFF DUP3 GT ISZERO PUSH2 0x384 JUMPI PUSH2 0x383 PUSH2 0x2F2 JUMP JUMPDEST JUMPDEST PUSH2 0x38D DUP3 PUSH2 0x2E2 JUMP JUMPDEST SWAP1 POP PUSH1 0x20 DUP2 ADD SWAP1 POP SWAP2 SWAP1 POP JUMP JUMPDEST DUP3 DUP2 DUP4 CALLDATACOPY PUSH0 DUP4 DUP4 ADD MSTORE POP POP POP JUMP JUMPDEST PUSH0 PUSH2 0x3BA PUSH2 0x3B5 DUP5 PUSH2 0x36A JUMP JUMPDEST PUSH2 0x350 JUMP JUMPDEST SWAP1 POP DUP3 DUP2 MSTORE PUSH1 0x20 DUP2 ADD DUP5 DUP5 DUP5 ADD GT ISZERO PUSH2 0x3D6 JUMPI PUSH2 0x3D5 PUSH2 0x2DE JUMP JUMPDEST JUMPDEST PUSH2 0x3E1 DUP5 DUP3 DUP6 PUSH2 0x39A JUMP JUMPDEST POP SWAP4 SWAP3 POP POP POP JUMP JUMPDEST PUSH0 DUP3 PUSH1 0x1F DUP4 ADD SLT PUSH2 0x3FD JUMPI PUSH2 0x3FC PUSH2 0x2DA JUMP JUMPDEST JUMPDEST DUP2 CALLDATALOAD PUSH2 0x40D DUP5 DUP3 PUSH1 0x20 DUP7 ADD PUSH2 0x3A8 JUMP JUMPDEST SWAP2 POP POP SWAP3 SWAP2 POP POP JUMP JUMPDEST PUSH0 PUSH1 0x20 DUP3 DUP5 SUB SLT ISZERO PUSH2 0x42B JUMPI PUSH2 0x42A PUSH2 0x2D2 JUMP JUMPDEST JUMPDEST PUSH0 DUP3 ADD CALLDATALOAD PUSH8 0xFFFFFFFFFFFFFFFF DUP2 GT ISZERO PUSH2 0x448 JUMPI PUSH2 0x447 PUSH2 0x2D6 JUMP JUMPDEST JUMPDEST PUSH2 0x454 DUP5 DUP3 DUP6 ADD PUSH2 0x3E9 JUMP JUMPDEST SWAP2 POP POP SWAP3 SWAP2 POP POP JUMP JUMPDEST PUSH0 DUP2 SWAP1 POP SWAP2 SWAP1 POP JUMP JUMPDEST PUSH2 0x46F DUP2 PUSH2 0x45D JUMP JUMPDEST DUP3 MSTORE POP POP JUMP JUMPDEST PUSH0 PUSH1 0x20 DUP3 ADD SWAP1 POP PUSH2 0x488 PUSH0 DUP4 ADD DUP5 PUSH2 0x466 JUMP JUMPDEST SWAP3 SWAP2 POP POP JUMP JUMPDEST PUSH2 0x497 DUP2 PUSH2 0x45D JUMP JUMPDEST DUP2 EQ PUSH2 0x4A1 JUMPI PUSH0 PUSH0 REVERT JUMPDEST POP JUMP JUMPDEST PUSH0 DUP2 CALLDATALOAD SWAP1 POP PUSH2 0x4B2 DUP2 PUSH2 0x48E JUMP JUMPDEST SWAP3 SWAP2 POP POP JUMP JUMPDEST PUSH0 PUSH0 PUSH1 0x40 DUP4 DUP6 SUB SLT ISZERO PUSH2 0x4CE JUMPI PUSH2 0x4CD PUSH2 0x2D2 JUMP JUMPDEST JUMPDEST PUSH0 DUP4 ADD CALLDATALOAD PUSH8 0xFFFFFFFFFFFFFFFF DUP2 GT ISZERO PUSH2 0x4EB JUMPI PUSH2 0x4EA PUSH2 0x2D6 JUMP JUMPDEST JUMPDEST PUSH2 0x4F7 DUP6 DUP3 DUP7 ADD PUSH2 0x3E9 JUMP JUMPDEST SWAP3 POP POP PUSH1 0x20 PUSH2 0x508 DUP6 DUP3 DUP7 ADD PUSH2 0x4A4 JUMP JUMPDEST SWAP2 POP POP SWAP3 POP SWAP3 SWAP1 POP JUMP JUMPDEST PUSH0 PUSH1 0x20 DUP3 DUP5 SUB SLT ISZERO PUSH2 0x527 JUMPI PUSH2 0x526 PUSH2 0x2D2 JUMP JUMPDEST JUMPDEST PUSH0 PUSH2 0x534 DUP5 DUP3 DUP6 ADD PUSH2 0x4A4 JUMP JUMPDEST SWAP2 POP POP SWAP3 SWAP2 POP POP JUMP JUMPDEST PUSH0 DUP2 MLOAD SWAP1 POP SWAP2 SWAP1 POP JUMP JUMPDEST PUSH0 DUP3 DUP3 MSTORE PUSH1 0x20 DUP3 ADD SWAP1 POP SWAP3 SWAP2 POP POP JUMP JUMPDEST DUP3 DUP2 DUP4 MCOPY PUSH0 DUP4 DUP4 ADD MSTORE POP POP POP JUMP JUMPDEST PUSH0 PUSH2 0x56F DUP3 PUSH2 0x53D JUMP JUMPDEST PUSH2 0x579 DUP2 DUP6 PUSH2 0x547 JUMP JUMPDEST SWAP4 POP PUSH2 0x589 DUP2 DUP6 PUSH1 0x20 DUP7 ADD PUSH2 0x557 JUMP JUMPDEST PUSH2 0x592 DUP2 PUSH2 0x2E2 JUMP JUMPDEST DUP5 ADD SWAP2 POP POP SWAP3 SWAP2 POP POP JUMP JUMPDEST PUSH0 PUSH1 0x40 DUP3 ADD SWAP1 POP PUSH2 0x5B0 PUSH0 DUP4 ADD DUP6 PUSH2 0x466 JUMP JUMPDEST DUP2 DUP2 SUB PUSH1 0x20 DUP4 ADD MSTORE PUSH2 0x5C2 DUP2 DUP5 PUSH2 0x565 JUMP JUMPDEST SWAP1 POP SWAP4 SWAP3 POP POP POP JUMP JUMPDEST PUSH0 DUP2 SWAP1 POP SWAP3 SWAP2 POP POP JUMP JUMPDEST PUSH0 PUSH2 0x5DF DUP3 PUSH2 0x53D JUMP JUMPDEST PUSH2 0x5E9 DUP2 DUP6 PUSH2 0x5CB JUMP JUMPDEST SWAP4 POP PUSH2 0x5F9 DUP2 DUP6 PUSH1 0x20 DUP7 ADD PUSH2 0x557 JUMP JUMPDEST DUP1 DUP5 ADD SWAP2 POP POP SWAP3 SWAP2 POP POP JUMP JUMPDEST PUSH0 PUSH2 0x610 DUP3 DUP5 PUSH2 0x5D5 JUMP JUMPDEST SWAP2 POP DUP2 SWAP1 POP SWAP3 SWAP2 POP POP JUMP JUMPDEST PUSH32 0x4E487B7100000000000000000000000000000000000000000000000000000000 PUSH0 MSTORE PUSH1 0x22 PUSH1 0x4 MSTORE PUSH1 0x24 PUSH0 REVERT JUMPDEST PUSH0 PUSH1 0x2 DUP3 DIV SWAP1 POP PUSH1 0x1 DUP3 AND DUP1 PUSH2 0x65F JUMPI PUSH1 0x7F DUP3 AND SWAP2 POP JUMPDEST PUSH1 0x20 DUP3 LT DUP2 SUB PUSH2 0x672 JUMPI PUSH2 0x671 PUSH2 0x61B JUMP JUMPDEST JUMPDEST POP SWAP2 SWAP1 POP JUMP JUMPDEST PUSH0 DUP2 SWAP1 POP DUP2 PUSH0 MSTORE PUSH1 0x20 PUSH0 KECCAK256 SWAP1 POP SWAP2 SWAP1 POP JUMP JUMPDEST PUSH0 PUSH1 0x20 PUSH1 0x1F DUP4 ADD DIV SWAP1 POP SWAP2 SWAP1 POP JUMP JUMPDEST PUSH0 DUP3 DUP3 SHL SWAP1 POP SWAP3 SWAP2 POP POP JUMP JUMPDEST PUSH0 PUSH1 0x8 DUP4 MUL PUSH2 0x6D4 PUSH32 0xFFFFFFFFFFFFFFFFFFFFFFFFFFFFFFFFFFFFFFFFFFFFFFFFFFFFFFFFFFFFFFFF DUP3 PUSH2 0x699 JUMP JUMPDEST PUSH2 0x6DE DUP7 DUP4 PUSH2 0x699 JUMP JUMPDEST SWAP6 POP DUP1 NOT DUP5 AND SWAP4 POP DUP1 DUP7 AND DUP5 OR SWAP3 POP POP POP SWAP4 SWAP3 POP POP POP JUMP JUMPDEST PUSH0 DUP2 SWAP1 POP SWAP2 SWAP1 POP JUMP JUMPDEST PUSH0 PUSH2 0x719 PUSH2 0x714 PUSH2 0x70F DUP5 PUSH2 0x45D JUMP JUMPDEST PUSH2 0x6F6 JUMP JUMPDEST PUSH2 0x45D JUMP JUMPDEST SWAP1 POP SWAP2 SWAP1 POP JUMP JUMPDEST PUSH0 DUP2 SWAP1 POP SWAP2 SWAP1 POP JUMP JUMPDEST PUSH2 0x732 DUP4 PUSH2 0x6FF JUMP JUMPDEST PUSH2 0x746 PUSH2 0x73E DUP3 PUSH2 0x720 JUMP JUMPDEST DUP5 DUP5 SLOAD PUSH2 0x6A5 JUMP JUMPDEST DUP3 SSTORE POP POP POP POP JUMP JUMPDEST PUSH0 PUSH0 SWAP1 POP SWAP1 JUMP JUMPDEST PUSH2 0x75D PUSH2 0x74E JUMP JUMPDEST PUSH2 0x768 DUP2 DUP5 DUP5 PUSH2 0x729 JUMP JUMPDEST POP POP POP JUMP JUMPDEST JUMPDEST DUP2 DUP2 LT ISZERO PUSH2 0x78B JUMPI PUSH2 0x780 PUSH0 DUP3 PUSH2 0x755 JUMP JUMPDEST PUSH1 0x1 DUP2 ADD SWAP1 POP PUSH2 0x76E JUMP JUMPDEST POP POP JUMP JUMPDEST PUSH1 0x1F DUP3 GT ISZERO PUSH2 0x7D0 JUMPI PUSH2 0x7A1 DUP2 PUSH2 0x678 JUMP JUMPDEST PUSH2 0x7AA DUP5 PUSH2 0x68A JUMP JUMPDEST DUP2 ADD PUSH1 0x20 DUP6 LT ISZERO PUSH2 0x7B9 JUMPI DUP2 SWAP1 POP JUMPDEST PUSH2 0x7CD PUSH2 0x7C5 DUP6 PUSH2 0x68A JUMP JUMPDEST DUP4 ADD DUP3 PUSH2 0x76D JUMP JUMPDEST POP POP JUMPDEST POP POP POP JUMP JUMPDEST PUSH0 DUP3 DUP3 SHR SWAP1 POP SWAP3 SWAP2 POP POP JUMP JUMPDEST PUSH0 PUSH2 0x7F0 PUSH0 NOT DUP5 PUSH1 0x8 MUL PUSH2 0x7D5 JUMP JUMPDEST NOT DUP1 DUP4 AND SWAP2 POP POP SWAP3 SWAP2 POP POP JUMP JUMPDEST PUSH0 PUSH2 0x808 DUP4 DUP4 PUSH2 0x7E1 JUMP JUMPDEST SWAP2 POP DUP3 PUSH1 0x2 MUL DUP3 OR SWAP1 POP SWAP3 SWAP2 POP POP JUMP JUMPDEST PUSH2 0x821 DUP3 PUSH2 0x53D JUMP JUMPDEST PUSH8 0xFFFFFFFFFFFFFFFF DUP2 GT ISZERO PUSH2 0x83A JUMPI PUSH2 0x839 PUSH2 0x2F2 JUMP JUMPDEST JUMPDEST PUSH2 0x844 DUP3 SLOAD PUSH2 0x648 JUMP JUMPDEST PUSH2 0x84F DUP3 DUP3 DUP6 PUSH2 0x78F JUMP JUMPDEST PUSH0 PUSH1 0x20 SWAP1 POP PUSH1 0x1F DUP4 GT PUSH1 0x1 DUP2 EQ PUSH2 0x880 JUMPI PUSH0 DUP5 ISZERO PUSH2 0x86E JUMPI DUP3 DUP8 ADD MLOAD SWAP1 POP JUMPDEST PUSH2 0x878 DUP6 DUP3 PUSH2 0x7FD JUMP JUMPDEST DUP7 SSTORE POP PUSH2 0x8DF JUMP JUMPDEST PUSH1 0x1F NOT DUP5 AND PUSH2 0x88E DUP7 PUSH2 0x678 JUMP JUMPDEST PUSH0 JUMPDEST DUP3 DUP2 LT ISZERO PUSH2 0x8B5 JUMPI DUP5 DUP10 ADD MLOAD DUP3 SSTORE PUSH1 0x1 DUP3 ADD SWAP2 POP PUSH1 0x20 DUP6 ADD SWAP5 POP PUSH1 0x20 DUP2 ADD SWAP1 POP PUSH2 0x890 JUMP JUMPDEST DUP7 DUP4 LT ISZERO PUSH2 0x8D2 JUMPI DUP5 DUP10 ADD MLOAD PUSH2 0x8CE PUSH1 0x1F DUP10 AND DUP3 PUSH2 0x7E1 JUMP JUMPDEST DUP4 SSTORE POP JUMPDEST PUSH1 0x1 PUSH1 0x2 DUP9 MUL ADD DUP9 SSTORE POP POP POP JUMPDEST POP POP POP POP POP POP JUMP JUMPDEST PUSH32 0x4E487B7100000000000000000000000000000000000000000000000000000000 PUSH0 MSTORE PUSH1 0x11 PUSH1 0x4 MSTORE PUSH1 0x24 PUSH0 REVERT JUMPDEST PUSH0 PUSH2 0x91E DUP3 PUSH2 0x45D JUMP JUMPDEST SWAP2 POP PUSH2 0x929 DUP4 PUSH2 0x45D JUMP JUMPDEST SWAP3 POP DUP3 DUP3 ADD SWAP1 POP DUP1 DUP3 GT ISZERO PUSH2 0x941 JUMPI PUSH2 0x940 PUSH2 0x8E7 JUMP JUMPDEST JUMPDEST SWAP3 SWAP2 POP POP JUMP INVALID LOG2 PUSH5 0x6970667358 0x22 SLT KECCAK256 ADDMOD BLOBBASEFEE SMOD DIV 0xC8 DUP13 PUSH18 0x498D238E31E506700762D6D987AAED2F1DDE POP SUB BLOCKHASH 0xE RJUMP 0xA688 PUSH5 0x736F6C6343 STOP ADDMOD 0x1E STOP CALLER "
		},
		"gasEstimates": {
			"creation": {
				"codeDepositCost": "485800",
				"executionCost": "516",
				"totalCost": "486316"
			},
			"external": {
				"addPersonNum(string,uint256)": "infinite",
				"nameToFavNum(string)": "infinite",
				"personList(uint256)": "infinite",
				"retrive()": "2497",
				"retrived()": "2519",
				"store(uint256)": "infinite"
			}
		},
		"methodIdentifiers": {
			"addPersonNum(string,uint256)": "27422150",
			"nameToFavNum(string)": "06c62c2c",
			"personList(uint256)": "6b44374d",
			"retrive()": "a6b7fc5b",
			"retrived()": "f2093350",
			"store(uint256)": "6057361d"
		}
	},
	"abi": [
		{
			"inputs": [
				{
					"internalType": "string",
					"name": "_name",
					"type": "string"
				},
				{
					"internalType": "uint256",
					"name": "_favnum",
					"type": "uint256"
				}
			],
			"name": "addPersonNum",
			"outputs": [],
			"stateMutability": "nonpayable",
			"type": "function"
		},
		{
			"inputs": [
				{
					"internalType": "string",
					"name": "",
					"type": "string"
				}
			],
			"name": "nameToFavNum",
			"outputs": [
				{
					"internalType": "uint256",
					"name": "",
					"type": "uint256"
				}
			],
			"stateMutability": "view",
			"type": "function"
		},
		{
			"inputs": [
				{
					"internalType": "uint256",
					"name": "",
					"type": "uint256"
				}
			],
			"name": "personList",
			"outputs": [
				{
					"internalType": "uint256",
					"name": "favnum",
					"type": "uint256"
				},
				{
					"internalType": "string",
					"name": "name",
					"type": "string"
				}
			],
			"stateMutability": "view",
			"type": "function"
		},
		{
			"inputs": [],
			"name": "retrive",
			"outputs": [
				{
					"internalType": "uint256",
					"name": "",
					"type": "uint256"
				}
			],
			"stateMutability": "view",
			"type": "function"
		},
		{
			"inputs": [],
			"name": "retrived",
			"outputs": [
				{
					"internalType": "uint256",
					"name": "",
					"type": "uint256"
				}
			],
			"stateMutability": "view",
			"type": "function"
		},
		{
			"inputs": [
				{
					"internalType": "uint256",
					"name": "_num",
					"type": "uint256"
				}
			],
			"name": "store",
			"outputs": [],
			"stateMutability": "nonpayable",
			"type": "function"
		}
	]
}