{
	"data": {
		"bytecode": {
			"linkReferences": {},
			"object": "6080604052348015600e575f5ffd5b506104ca8061001c5f395ff3fe608060405234801561000f575f5ffd5b506004361061004a575f3560e01c80631198252a1461004e5780635485c6a11461006c57806386fda78a1461008a578063c0f8940c146100a8575b5f5ffd5b6100566100c6565b60405161006391906101e4565b60405180910390f35b6100746100eb565b60405161008191906101e4565b60405180910390f35b610092610110565b60405161009f91906101e4565b60405180910390f35b6100b061014d565b6040516100bd9190610256565b60405180910390f35b60606040516020016100d7906102ca565b604051602081830303815290604052905090565b60606040516020016100fc90610300565b604051602081830303815290604052905090565b60606040518060400160405280600b81526020017f68656c6c6f20776f726c64000000000000000000000000000000000000000000815250905090565b60605f6101586100eb565b80602001905181019061016b919061044d565b90508091505090565b5f81519050919050565b5f82825260208201905092915050565b8281835e5f83830152505050565b5f601f19601f8301169050919050565b5f6101b682610174565b6101c0818561017e565b93506101d081856020860161018e565b6101d98161019c565b840191505092915050565b5f6020820190508181035f8301526101fc81846101ac565b905092915050565b5f81519050919050565b5f82825260208201905092915050565b5f61022882610204565b610232818561020e565b935061024281856020860161018e565b61024b8161019c565b840191505092915050565b5f6020820190508181035f83015261026e818461021e565b905092915050565b5f81905092915050565b7f68656c6c6f20776f726c640000000000000000000000000000000000000000005f82015250565b5f6102b4600b83610276565b91506102bf82610280565b600b82019050919050565b5f6102d4826102a8565b9150819050919050565b5f6102ea600b8361020e565b91506102f582610280565b602082019050919050565b5f6020820190508181035f830152610317816102de565b9050919050565b5f604051905090565b5f5ffd5b5f5ffd5b5f5ffd5b5f5ffd5b7f4e487b71000000000000000000000000000000000000000000000000000000005f52604160045260245ffd5b61036d8261019c565b810181811067ffffffffffffffff8211171561038c5761038b610337565b5b80604052505050565b5f61039e61031e565b90506103aa8282610364565b919050565b5f67ffffffffffffffff8211156103c9576103c8610337565b5b6103d28261019c565b9050602081019050919050565b5f6103f16103ec846103af565b610395565b90508281526020810184848401111561040d5761040c610333565b5b61041884828561018e565b509392505050565b5f82601f8301126104345761043361032f565b5b81516104448482602086016103df565b91505092915050565b5f6020828403121561046257610461610327565b5b5f82015167ffffffffffffffff81111561047f5761047e61032b565b5b61048b84828501610420565b9150509291505056fea2646970667358221220829df94175f49cc1408f292f0b264065490d7f1d337346e10273d2b9e28d9e4164736f6c634300081e0033",
			"opcodes": "PUSH1 0x80 PUSH1 0x40 MSTORE CALLVALUE DUP1 ISZERO PUSH1 0xE JUMPI PUSH0 PUSH0 REVERT JUMPDEST POP PUSH2 0x4CA DUP1 PUSH2 0x1C PUSH0 CODECOPY PUSH0 RETURN INVALID PUSH1 0x80 PUSH1 0x40 MSTORE CALLVALUE DUP1 ISZERO PUSH2 0xF JUMPI PUSH0 PUSH0 REVERT JUMPDEST POP PUSH1 0x4 CALLDATASIZE LT PUSH2 0x4A JUMPI PUSH0 CALLDATALOAD PUSH1 0xE0 SHR DUP1 PUSH4 0x1198252A EQ PUSH2 0x4E JUMPI DUP1 PUSH4 0x5485C6A1 EQ PUSH2 0x6C JUMPI DUP1 PUSH4 0x86FDA78A EQ PUSH2 0x8A JUMPI DUP1 PUSH4 0xC0F8940C EQ PUSH2 0xA8 JUMPI JUMPDEST PUSH0 PUSH0 REVERT JUMPDEST PUSH2 0x56 PUSH2 0xC6 JUMP JUMPDEST PUSH1 0x40 MLOAD PUSH2 0x63 SWAP2 SWAP1 PUSH2 0x1E4 JUMP JUMPDEST PUSH1 0x40 MLOAD DUP1 SWAP2 SUB SWAP1 RETURN JUMPDEST PUSH2 0x74 PUSH2 0xEB JUMP JUMPDEST PUSH1 0x40 MLOAD PUSH2 0x81 SWAP2 SWAP1 PUSH2 0x1E4 JUMP JUMPDEST PUSH1 0x40 MLOAD DUP1 SWAP2 SUB SWAP1 RETURN JUMPDEST PUSH2 0x92 PUSH2 0x110 JUMP JUMPDEST PUSH1 0x40 MLOAD PUSH2 0x9F SWAP2 SWAP1 PUSH2 0x1E4 JUMP JUMPDEST PUSH1 0x40 MLOAD DUP1 SWAP2 SUB SWAP1 RETURN JUMPDEST PUSH2 0xB0 PUSH2 0x14D JUMP JUMPDEST PUSH1 0x40 MLOAD PUSH2 0xBD SWAP2 SWAP1 PUSH2 0x256 JUMP JUMPDEST PUSH1 0x40 MLOAD DUP1 SWAP2 SUB SWAP1 RETURN JUMPDEST PUSH1 0x60 PUSH1 0x40 MLOAD PUSH1 0x20 ADD PUSH2 0xD7 SWAP1 PUSH2 0x2CA JUMP JUMPDEST PUSH1 0x40 MLOAD PUSH1 0x20 DUP2 DUP4 SUB SUB DUP2 MSTORE SWAP1 PUSH1 0x40 MSTORE SWAP1 POP SWAP1 JUMP JUMPDEST PUSH1 0x60 PUSH1 0x40 MLOAD PUSH1 0x20 ADD PUSH2 0xFC SWAP1 PUSH2 0x300 JUMP JUMPDEST PUSH1 0x40 MLOAD PUSH1 0x20 DUP2 DUP4 SUB SUB DUP2 MSTORE SWAP1 PUSH1 0x40 MSTORE SWAP1 POP SWAP1 JUMP JUMPDEST PUSH1 0x60 PUSH1 0x40 MLOAD DUP1 PUSH1 0x40 ADD PUSH1 0x40 MSTORE DUP1 PUSH1 0xB DUP2 MSTORE PUSH1 0x20 ADD PUSH32 0x68656C6C6F20776F726C64000000000000000000000000000000000000000000 DUP2 MSTORE POP SWAP1 POP SWAP1 JUMP JUMPDEST PUSH1 0x60 PUSH0 PUSH2 0x158 PUSH2 0xEB JUMP JUMPDEST DUP1 PUSH1 0x20 ADD SWAP1 MLOAD DUP2 ADD SWAP1 PUSH2 0x16B SWAP2 SWAP1 PUSH2 0x44D JUMP JUMPDEST SWAP1 POP DUP1 SWAP2 POP POP SWAP1 JUMP JUMPDEST PUSH0 DUP2 MLOAD SWAP1 POP SWAP2 SWAP1 POP JUMP JUMPDEST PUSH0 DUP3 DUP3 MSTORE PUSH1 0x20 DUP3 ADD SWAP1 POP SWAP3 SWAP2 POP POP JUMP JUMPDEST DUP3 DUP2 DUP4 MCOPY PUSH0 DUP4 DUP4 ADD MSTORE POP POP POP JUMP JUMPDEST PUSH0 PUSH1 0x1F NOT PUSH1 0x1F DUP4 ADD AND SWAP1 POP SWAP2 SWAP1 POP JUMP JUMPDEST PUSH0 PUSH2 0x1B6 DUP3 PUSH2 0x174 JUMP JUMPDEST PUSH2 0x1C0 DUP2 DUP6 PUSH2 0x17E JUMP JUMPDEST SWAP4 POP PUSH2 0x1D0 DUP2 DUP6 PUSH1 0x20 DUP7 ADD PUSH2 0x18E JUMP JUMPDEST PUSH2 0x1D9 DUP2 PUSH2 0x19C JUMP JUMPDEST DUP5 ADD SWAP2 POP POP SWAP3 SWAP2 POP POP JUMP JUMPDEST PUSH0 PUSH1 0x20 DUP3 ADD SWAP1 POP DUP2 DUP2 SUB PUSH0 DUP4 ADD MSTORE PUSH2 0x1FC DUP2 DUP5 PUSH2 0x1AC JUMP JUMPDEST SWAP1 POP SWAP3 SWAP2 POP POP JUMP JUMPDEST PUSH0 DUP2 MLOAD SWAP1 POP SWAP2 SWAP1 POP JUMP JUMPDEST PUSH0 DUP3 DUP3 MSTORE PUSH1 0x20 DUP3 ADD SWAP1 POP SWAP3 SWAP2 POP POP JUMP JUMPDEST PUSH0 PUSH2 0x228 DUP3 PUSH2 0x204 JUMP JUMPDEST PUSH2 0x232 DUP2 DUP6 PUSH2 0x20E JUMP JUMPDEST SWAP4 POP PUSH2 0x242 DUP2 DUP6 PUSH1 0x20 DUP7 ADD PUSH2 0x18E JUMP JUMPDEST PUSH2 0x24B DUP2 PUSH2 0x19C JUMP JUMPDEST DUP5 ADD SWAP2 POP POP SWAP3 SWAP2 POP POP JUMP JUMPDEST PUSH0 PUSH1 0x20 DUP3 ADD SWAP1 POP DUP2 DUP2 SUB PUSH0 DUP4 ADD MSTORE PUSH2 0x26E DUP2 DUP5 PUSH2 0x21E JUMP JUMPDEST SWAP1 POP SWAP3 SWAP2 POP POP JUMP JUMPDEST PUSH0 DUP2 SWAP1 POP SWAP3 SWAP2 POP POP JUMP JUMPDEST PUSH32 0x68656C6C6F20776F726C64000000000000000000000000000000000000000000 PUSH0 DUP3 ADD MSTORE POP JUMP JUMPDEST PUSH0 PUSH2 0x2B4 PUSH1 0xB DUP4 PUSH2 0x276 JUMP JUMPDEST SWAP2 POP PUSH2 0x2BF DUP3 PUSH2 0x280 JUMP JUMPDEST PUSH1 0xB DUP3 ADD SWAP1 POP SWAP2 SWAP1 POP JUMP JUMPDEST PUSH0 PUSH2 0x2D4 DUP3 PUSH2 0x2A8 JUMP JUMPDEST SWAP2 POP DUP2 SWAP1 POP SWAP2 SWAP1 POP JUMP JUMPDEST PUSH0 PUSH2 0x2EA PUSH1 0xB DUP4 PUSH2 0x20E JUMP JUMPDEST SWAP2 POP PUSH2 0x2F5 DUP3 PUSH2 0x280 JUMP JUMPDEST PUSH1 0x20 DUP3 ADD SWAP1 POP SWAP2 SWAP1 POP JUMP JUMPDEST PUSH0 PUSH1 0x20 DUP3 ADD SWAP1 POP DUP2 DUP2 SUB PUSH0 DUP4 ADD MSTORE PUSH2 0x317 DUP2 PUSH2 0x2DE JUMP JUMPDEST SWAP1 POP SWAP2 SWAP1 POP JUMP JUMPDEST PUSH0 PUSH1 0x40 MLOAD SWAP1 POP SWAP1 JUMP JUMPDEST PUSH0 PUSH0 REVERT JUMPDEST PUSH0 PUSH0 REVERT JUMPDEST PUSH0 PUSH0 REVERT JUMPDEST PUSH0 PUSH0 REVERT JUMPDEST PUSH32 0x4E487B7100000000000000000000000000000000000000000000000000000000 PUSH0 MSTORE PUSH1 0x41 PUSH1 0x4 MSTORE PUSH1 0x24 PUSH0 REVERT JUMPDEST PUSH2 0x36D DUP3 PUSH2 0x19C JUMP JUMPDEST DUP2 ADD DUP2 DUP2 LT PUSH8 0xFFFFFFFFFFFFFFFF DUP3 GT OR ISZERO PUSH2 0x38C JUMPI PUSH2 0x38B PUSH2 0x337 JUMP JUMPDEST JUMPDEST DUP1 PUSH1 0x40 MSTORE POP POP POP JUMP JUMPDEST PUSH0 PUSH2 0x39E PUSH2 0x31E JUMP JUMPDEST SWAP1 POP PUSH2 0x3AA DUP3 DUP3 PUSH2 0x364 JUMP JUMPDEST SWAP2 SWAP1 POP JUMP JUMPDEST PUSH0 PUSH8 0xFFFFFFFFFFFFFFFF DUP3 GT ISZERO PUSH2 0x3C9 JUMPI PUSH2 0x3C8 PUSH2 0x337 JUMP JUMPDEST JUMPDEST PUSH2 0x3D2 DUP3 PUSH2 0x19C JUMP JUMPDEST SWAP1 POP PUSH1 0x20 DUP2 ADD SWAP1 POP SWAP2 SWAP1 POP JUMP JUMPDEST PUSH0 PUSH2 0x3F1 PUSH2 0x3EC DUP5 PUSH2 0x3AF JUMP JUMPDEST PUSH2 0x395 JUMP JUMPDEST SWAP1 POP DUP3 DUP2 MSTORE PUSH1 0x20 DUP2 ADD DUP5 DUP5 DUP5 ADD GT ISZERO PUSH2 0x40D JUMPI PUSH2 0x40C PUSH2 0x333 JUMP JUMPDEST JUMPDEST PUSH2 0x418 DUP5 DUP3 DUP6 PUSH2 0x18E JUMP JUMPDEST POP SWAP4 SWAP3 POP POP POP JUMP JUMPDEST PUSH0 DUP3 PUSH1 0x1F DUP4 ADD SLT PUSH2 0x434 JUMPI PUSH2 0x433 PUSH2 0x32F JUMP JUMPDEST JUMPDEST DUP2 MLOAD PUSH2 0x444 DUP5 DUP3 PUSH1 0x20 DUP7 ADD PUSH2 0x3DF JUMP JUMPDEST SWAP2 POP POP SWAP3 SWAP2 POP POP JUMP JUMPDEST PUSH0 PUSH1 0x20 DUP3 DUP5 SUB SLT ISZERO PUSH2 0x462 JUMPI PUSH2 0x461 PUSH2 0x327 JUMP JUMPDEST JUMPDEST PUSH0 DUP3 ADD MLOAD PUSH8 0xFFFFFFFFFFFFFFFF DUP2 GT ISZERO PUSH2 0x47F JUMPI PUSH2 0x47E PUSH2 0x32B JUMP JUMPDEST JUMPDEST PUSH2 0x48B DUP5 DUP3 DUP6 ADD PUSH2 0x420 JUMP JUMPDEST SWAP2 POP POP SWAP3 SWAP2 POP POP JUMP INVALID LOG2 PUSH5 0x6970667358 0x22 SLT KECCAK256 DUP3 SWAP14 EXTDELEGATECALL COINBASE PUSH22 0xF49CC1408F292F0B264065490D7F1D337346E10273D2 0xB9 0xE2 DUP14 SWAP15 COINBASE PUSH5 0x736F6C6343 STOP ADDMOD 0x1E STOP CALLER "
		},
		"gasEstimates": {
			"creation": {
				"codeDepositCost": "245200",
				"executionCost": "285",
				"totalCost": "245485"
			},
			"external": {
				"combineStrigBytes()": "infinite",
				"combineStrigEncode()": "infinite",
				"combineString()": "infinite",
				"decode()": "infinite"
			}
		},
		"methodIdentifiers": {
			"combineStrigBytes()": "86fda78a",
			"combineStrigEncode()": "1198252a",
			"combineString()": "5485c6a1",
			"decode()": "c0f8940c"
		}
	},
	"abi": [
		{
			"inputs": [],
			"name": "combineStrigBytes",
			"outputs": [
				{
					"internalType": "bytes",
					"name": "",
					"type": "bytes"
				}
			],
			"stateMutability": "pure",
			"type": "function"
		},
		{
			"inputs": [],
			"name": "combineStrigEncode",
			"outputs": [
				{
					"internalType": "bytes",
					"name": "",
					"type": "bytes"
				}
			],
			"stateMutability": "pure",
			"type": "function"
		},
		{
			"inputs": [],
			"name": "combineString",
			"outputs": [
				{
					"internalType": "bytes",
					"name": "",
					"type": "bytes"
				}
			],
			"stateMutability": "pure",
			"type": "function"
		},
		{
			"inputs": [],
			"name": "decode",
			"outputs": [
				{
					"internalType": "string",
					"name": "",
					"type": "string"
				}
			],
			"stateMutability": "pure",
			"type": "function"
		}
	]
}