{
	"data": {
		"bytecode": {
			"linkReferences": {},
			"object": "608060405234801561001057600080fd5b50610819806100206000396000f3fe608060405234801561001057600080fd5b506004361061004c5760003560e01c806327422150146100515780636057361d1461006d5780636b44374d14610089578063a6b7fc5b146100ba575b600080fd5b61006b600480360381019061006691906103a3565b6100d8565b005b610087600480360381019061008291906103ff565b610144565b005b6100a3600480360381019061009e91906103ff565b61014e565b6040516100b19291906104ba565b60405180910390f35b6100c261020a565b6040516100cf91906104ea565b60405180910390f35b60006040518060400160405280838152602001848152509050600181908060018154018082558091505060019003906000526020600020906002020160009091909190915060008201518160000155602082015181600101908161013c9190610711565b505050505050565b8060008190555050565b6001818154811061015e57600080fd5b906000526020600020906002020160009150905080600001549080600101805461018790610534565b80601f01602080910402602001604051908101604052809291908181526020018280546101b390610534565b80156102005780601f106101d557610100808354040283529160200191610200565b820191906000526020600020905b8154815290600101906020018083116101e357829003601f168201915b5050505050905082565b60008054905090565b6000604051905090565b600080fd5b600080fd5b600080fd5b600080fd5b6000601f19601f8301169050919050565b7f4e487b7100000000000000000000000000000000000000000000000000000000600052604160045260246000fd5b61027a82610231565b810181811067ffffffffffffffff8211171561029957610298610242565b5b80604052505050565b60006102ac610213565b90506102b88282610271565b919050565b600067ffffffffffffffff8211156102d8576102d7610242565b5b6102e182610231565b9050602081019050919050565b82818337600083830152505050565b600061031061030b846102bd565b6102a2565b90508281526020810184848401111561032c5761032b61022c565b5b6103378482856102ee565b509392505050565b600082601f83011261035457610353610227565b5b81356103648482602086016102fd565b91505092915050565b6000819050919050565b6103808161036d565b811461038b57600080fd5b50565b60008135905061039d81610377565b92915050565b600080604083850312156103ba576103b961021d565b5b600083013567ffffffffffffffff8111156103d8576103d7610222565b5b6103e48582860161033f565b92505060206103f58582860161038e565b9150509250929050565b6000602082840312156104155761041461021d565b5b60006104238482850161038e565b91505092915050565b6104358161036d565b82525050565b600081519050919050565b600082825260208201905092915050565b60005b8381101561047557808201518184015260208101905061045a565b60008484015250505050565b600061048c8261043b565b6104968185610446565b93506104a6818560208601610457565b6104af81610231565b840191505092915050565b60006040820190506104cf600083018561042c565b81810360208301526104e18184610481565b90509392505050565b60006020820190506104ff600083018461042c565b92915050565b7f4e487b7100000000000000000000000000000000000000000000000000000000600052602260045260246000fd5b6000600282049050600182168061054c57607f821691505b60208210810361055f5761055e610505565b5b50919050565b60008190508160005260206000209050919050565b60006020601f8301049050919050565b600082821b905092915050565b6000600883026105c77fffffffffffffffffffffffffffffffffffffffffffffffffffffffffffffffff8261058a565b6105d1868361058a565b95508019841693508086168417925050509392505050565b6000819050919050565b600061060e6106096106048461036d565b6105e9565b61036d565b9050919050565b6000819050919050565b610628836105f3565b61063c61063482610615565b848454610597565b825550505050565b600090565b610651610644565b61065c81848461061f565b505050565b5b8181101561068057610675600082610649565b600181019050610662565b5050565b601f8211156106c55761069681610565565b61069f8461057a565b810160208510156106ae578190505b6106c26106ba8561057a565b830182610661565b50505b505050565b600082821c905092915050565b60006106e8600019846008026106ca565b1980831691505092915050565b600061070183836106d7565b9150826002028217905092915050565b61071a8261043b565b67ffffffffffffffff81111561073357610732610242565b5b61073d8254610534565b610748828285610684565b600060209050601f83116001811461077b5760008415610769578287015190505b61077385826106f5565b8655506107db565b601f19841661078986610565565b60005b828110156107b15784890151825560018201915060208501945060208101905061078c565b868310156107ce57848901516107ca601f8916826106d7565b8355505b6001600288020188555050505b50505050505056fea2646970667358221220f384e075f1098d541735594a40ce5e17bded28ea9ee701f21996e2c85a8174bd64736f6c63430008120033",
			"opcodes": "PUSH1 0x80 PUSH1 0x40 MSTORE CALLVALUE DUP1 ISZERO PUSH2 0x10 JUMPI PUSH1 0x0 DUP1 REVERT JUMPDEST POP PUSH2 0x819 DUP1 PUSH2 0x20 PUSH1 0x0 CODECOPY PUSH1 0x0 RETURN INVALID PUSH1 0x80 PUSH1 0x40 MSTORE CALLVALUE DUP1 ISZERO PUSH2 0x10 JUMPI PUSH1 0x0 DUP1 REVERT JUMPDEST POP PUSH1 0x4 CALLDATASIZE LT PUSH2 0x4C JUMPI PUSH1 0x0 CALLDATALOAD PUSH1 0xE0 SHR DUP1 PUSH4 0x27422150 EQ PUSH2 0x51 JUMPI DUP1 PUSH4 0x6057361D EQ PUSH2 0x6D JUMPI DUP1 PUSH4 0x6B44374D EQ PUSH2 0x89 JUMPI DUP1 PUSH4 0xA6B7FC5B EQ PUSH2 0xBA JUMPI JUMPDEST PUSH1 0x0 DUP1 REVERT JUMPDEST PUSH2 0x6B PUSH1 0x4 DUP1 CALLDATASIZE SUB DUP2 ADD SWAP1 PUSH2 0x66 SWAP2 SWAP1 PUSH2 0x3A3 JUMP JUMPDEST PUSH2 0xD8 JUMP JUMPDEST STOP JUMPDEST PUSH2 0x87 PUSH1 0x4 DUP1 CALLDATASIZE SUB DUP2 ADD SWAP1 PUSH2 0x82 SWAP2 SWAP1 PUSH2 0x3FF JUMP JUMPDEST PUSH2 0x144 JUMP JUMPDEST STOP JUMPDEST PUSH2 0xA3 PUSH1 0x4 DUP1 CALLDATASIZE SUB DUP2 ADD SWAP1 PUSH2 0x9E SWAP2 SWAP1 PUSH2 0x3FF JUMP JUMPDEST PUSH2 0x14E JUMP JUMPDEST PUSH1 0x40 MLOAD PUSH2 0xB1 SWAP3 SWAP2 SWAP1 PUSH2 0x4BA JUMP JUMPDEST PUSH1 0x40 MLOAD DUP1 SWAP2 SUB SWAP1 RETURN JUMPDEST PUSH2 0xC2 PUSH2 0x20A JUMP JUMPDEST PUSH1 0x40 MLOAD PUSH2 0xCF SWAP2 SWAP1 PUSH2 0x4EA JUMP JUMPDEST PUSH1 0x40 MLOAD DUP1 SWAP2 SUB SWAP1 RETURN JUMPDEST PUSH1 0x0 PUSH1 0x40 MLOAD DUP1 PUSH1 0x40 ADD PUSH1 0x40 MSTORE DUP1 DUP4 DUP2 MSTORE PUSH1 0x20 ADD DUP5 DUP2 MSTORE POP SWAP1 POP PUSH1 0x1 DUP2 SWAP1 DUP1 PUSH1 0x1 DUP2 SLOAD ADD DUP1 DUP3 SSTORE DUP1 SWAP2 POP POP PUSH1 0x1 SWAP1 SUB SWAP1 PUSH1 0x0 MSTORE PUSH1 0x20 PUSH1 0x0 KECCAK256 SWAP1 PUSH1 0x2 MUL ADD PUSH1 0x0 SWAP1 SWAP2 SWAP1 SWAP2 SWAP1 SWAP2 POP PUSH1 0x0 DUP3 ADD MLOAD DUP2 PUSH1 0x0 ADD SSTORE PUSH1 0x20 DUP3 ADD MLOAD DUP2 PUSH1 0x1 ADD SWAP1 DUP2 PUSH2 0x13C SWAP2 SWAP1 PUSH2 0x711 JUMP JUMPDEST POP POP POP POP POP POP JUMP JUMPDEST DUP1 PUSH1 0x0 DUP2 SWAP1 SSTORE POP POP JUMP JUMPDEST PUSH1 0x1 DUP2 DUP2 SLOAD DUP2 LT PUSH2 0x15E JUMPI PUSH1 0x0 DUP1 REVERT JUMPDEST SWAP1 PUSH1 0x0 MSTORE PUSH1 0x20 PUSH1 0x0 KECCAK256 SWAP1 PUSH1 0x2 MUL ADD PUSH1 0x0 SWAP2 POP SWAP1 POP DUP1 PUSH1 0x0 ADD SLOAD SWAP1 DUP1 PUSH1 0x1 ADD DUP1 SLOAD PUSH2 0x187 SWAP1 PUSH2 0x534 JUMP JUMPDEST DUP1 PUSH1 0x1F ADD PUSH1 0x20 DUP1 SWAP2 DIV MUL PUSH1 0x20 ADD PUSH1 0x40 MLOAD SWAP1 DUP2 ADD PUSH1 0x40 MSTORE DUP1 SWAP3 SWAP2 SWAP1 DUP2 DUP2 MSTORE PUSH1 0x20 ADD DUP3 DUP1 SLOAD PUSH2 0x1B3 SWAP1 PUSH2 0x534 JUMP JUMPDEST DUP1 ISZERO PUSH2 0x200 JUMPI DUP1 PUSH1 0x1F LT PUSH2 0x1D5 JUMPI PUSH2 0x100 DUP1 DUP4 SLOAD DIV MUL DUP4 MSTORE SWAP2 PUSH1 0x20 ADD SWAP2 PUSH2 0x200 JUMP JUMPDEST DUP3 ADD SWAP2 SWAP1 PUSH1 0x0 MSTORE PUSH1 0x20 PUSH1 0x0 KECCAK256 SWAP1 JUMPDEST DUP2 SLOAD DUP2 MSTORE SWAP1 PUSH1 0x1 ADD SWAP1 PUSH1 0x20 ADD DUP1 DUP4 GT PUSH2 0x1E3 JUMPI DUP3 SWAP1 SUB PUSH1 0x1F AND DUP3 ADD SWAP2 JUMPDEST POP POP POP POP POP SWAP1 POP DUP3 JUMP JUMPDEST PUSH1 0x0 DUP1 SLOAD SWAP1 POP SWAP1 JUMP JUMPDEST PUSH1 0x0 PUSH1 0x40 MLOAD SWAP1 POP SWAP1 JUMP JUMPDEST PUSH1 0x0 DUP1 REVERT JUMPDEST PUSH1 0x0 DUP1 REVERT JUMPDEST PUSH1 0x0 DUP1 REVERT JUMPDEST PUSH1 0x0 DUP1 REVERT JUMPDEST PUSH1 0x0 PUSH1 0x1F NOT PUSH1 0x1F DUP4 ADD AND SWAP1 POP SWAP2 SWAP1 POP JUMP JUMPDEST PUSH32 0x4E487B7100000000000000000000000000000000000000000000000000000000 PUSH1 0x0 MSTORE PUSH1 0x41 PUSH1 0x4 MSTORE PUSH1 0x24 PUSH1 0x0 REVERT JUMPDEST PUSH2 0x27A DUP3 PUSH2 0x231 JUMP JUMPDEST DUP2 ADD DUP2 DUP2 LT PUSH8 0xFFFFFFFFFFFFFFFF DUP3 GT OR ISZERO PUSH2 0x299 JUMPI PUSH2 0x298 PUSH2 0x242 JUMP JUMPDEST JUMPDEST DUP1 PUSH1 0x40 MSTORE POP POP POP JUMP JUMPDEST PUSH1 0x0 PUSH2 0x2AC PUSH2 0x213 JUMP JUMPDEST SWAP1 POP PUSH2 0x2B8 DUP3 DUP3 PUSH2 0x271 JUMP JUMPDEST SWAP2 SWAP1 POP JUMP JUMPDEST PUSH1 0x0 PUSH8 0xFFFFFFFFFFFFFFFF DUP3 GT ISZERO PUSH2 0x2D8 JUMPI PUSH2 0x2D7 PUSH2 0x242 JUMP JUMPDEST JUMPDEST PUSH2 0x2E1 DUP3 PUSH2 0x231 JUMP JUMPDEST SWAP1 POP PUSH1 0x20 DUP2 ADD SWAP1 POP SWAP2 SWAP1 POP JUMP JUMPDEST DUP3 DUP2 DUP4 CALLDATACOPY PUSH1 0x0 DUP4 DUP4 ADD MSTORE POP POP POP JUMP JUMPDEST PUSH1 0x0 PUSH2 0x310 PUSH2 0x30B DUP5 PUSH2 0x2BD JUMP JUMPDEST PUSH2 0x2A2 JUMP JUMPDEST SWAP1 POP DUP3 DUP2 MSTORE PUSH1 0x20 DUP2 ADD DUP5 DUP5 DUP5 ADD GT ISZERO PUSH2 0x32C JUMPI PUSH2 0x32B PUSH2 0x22C JUMP JUMPDEST JUMPDEST PUSH2 0x337 DUP5 DUP3 DUP6 PUSH2 0x2EE JUMP JUMPDEST POP SWAP4 SWAP3 POP POP POP JUMP JUMPDEST PUSH1 0x0 DUP3 PUSH1 0x1F DUP4 ADD SLT PUSH2 0x354 JUMPI PUSH2 0x353 PUSH2 0x227 JUMP JUMPDEST JUMPDEST DUP2 CALLDATALOAD PUSH2 0x364 DUP5 DUP3 PUSH1 0x20 DUP7 ADD PUSH2 0x2FD JUMP JUMPDEST SWAP2 POP POP SWAP3 SWAP2 POP POP JUMP JUMPDEST PUSH1 0x0 DUP2 SWAP1 POP SWAP2 SWAP1 POP JUMP JUMPDEST PUSH2 0x380 DUP2 PUSH2 0x36D JUMP JUMPDEST DUP2 EQ PUSH2 0x38B JUMPI PUSH1 0x0 DUP1 REVERT JUMPDEST POP JUMP JUMPDEST PUSH1 0x0 DUP2 CALLDATALOAD SWAP1 POP PUSH2 0x39D DUP2 PUSH2 0x377 JUMP JUMPDEST SWAP3 SWAP2 POP POP JUMP JUMPDEST PUSH1 0x0 DUP1 PUSH1 0x40 DUP4 DUP6 SUB SLT ISZERO PUSH2 0x3BA JUMPI PUSH2 0x3B9 PUSH2 0x21D JUMP JUMPDEST JUMPDEST PUSH1 0x0 DUP4 ADD CALLDATALOAD PUSH8 0xFFFFFFFFFFFFFFFF DUP2 GT ISZERO PUSH2 0x3D8 JUMPI PUSH2 0x3D7 PUSH2 0x222 JUMP JUMPDEST JUMPDEST PUSH2 0x3E4 DUP6 DUP3 DUP7 ADD PUSH2 0x33F JUMP JUMPDEST SWAP3 POP POP PUSH1 0x20 PUSH2 0x3F5 DUP6 DUP3 DUP7 ADD PUSH2 0x38E JUMP JUMPDEST SWAP2 POP POP SWAP3 POP SWAP3 SWAP1 POP JUMP JUMPDEST PUSH1 0x0 PUSH1 0x20 DUP3 DUP5 SUB SLT ISZERO PUSH2 0x415 JUMPI PUSH2 0x414 PUSH2 0x21D JUMP JUMPDEST JUMPDEST PUSH1 0x0 PUSH2 0x423 DUP5 DUP3 DUP6 ADD PUSH2 0x38E JUMP JUMPDEST SWAP2 POP POP SWAP3 SWAP2 POP POP JUMP JUMPDEST PUSH2 0x435 DUP2 PUSH2 0x36D JUMP JUMPDEST DUP3 MSTORE POP POP JUMP JUMPDEST PUSH1 0x0 DUP2 MLOAD SWAP1 POP SWAP2 SWAP1 POP JUMP JUMPDEST PUSH1 0x0 DUP3 DUP3 MSTORE PUSH1 0x20 DUP3 ADD SWAP1 POP SWAP3 SWAP2 POP POP JUMP JUMPDEST PUSH1 0x0 JUMPDEST DUP4 DUP2 LT ISZERO PUSH2 0x475 JUMPI DUP1 DUP3 ADD MLOAD DUP2 DUP5 ADD MSTORE PUSH1 0x20 DUP2 ADD SWAP1 POP PUSH2 0x45A JUMP JUMPDEST PUSH1 0x0 DUP5 DUP5 ADD MSTORE POP POP POP POP JUMP JUMPDEST PUSH1 0x0 PUSH2 0x48C DUP3 PUSH2 0x43B JUMP JUMPDEST PUSH2 0x496 DUP2 DUP6 PUSH2 0x446 JUMP JUMPDEST SWAP4 POP PUSH2 0x4A6 DUP2 DUP6 PUSH1 0x20 DUP7 ADD PUSH2 0x457 JUMP JUMPDEST PUSH2 0x4AF DUP2 PUSH2 0x231 JUMP JUMPDEST DUP5 ADD SWAP2 POP POP SWAP3 SWAP2 POP POP JUMP JUMPDEST PUSH1 0x0 PUSH1 0x40 DUP3 ADD SWAP1 POP PUSH2 0x4CF PUSH1 0x0 DUP4 ADD DUP6 PUSH2 0x42C JUMP JUMPDEST DUP2 DUP2 SUB PUSH1 0x20 DUP4 ADD MSTORE PUSH2 0x4E1 DUP2 DUP5 PUSH2 0x481 JUMP JUMPDEST SWAP1 POP SWAP4 SWAP3 POP POP POP JUMP JUMPDEST PUSH1 0x0 PUSH1 0x20 DUP3 ADD SWAP1 POP PUSH2 0x4FF PUSH1 0x0 DUP4 ADD DUP5 PUSH2 0x42C JUMP JUMPDEST SWAP3 SWAP2 POP POP JUMP JUMPDEST PUSH32 0x4E487B7100000000000000000000000000000000000000000000000000000000 PUSH1 0x0 MSTORE PUSH1 0x22 PUSH1 0x4 MSTORE PUSH1 0x24 PUSH1 0x0 REVERT JUMPDEST PUSH1 0x0 PUSH1 0x2 DUP3 DIV SWAP1 POP PUSH1 0x1 DUP3 AND DUP1 PUSH2 0x54C JUMPI PUSH1 0x7F DUP3 AND SWAP2 POP JUMPDEST PUSH1 0x20 DUP3 LT DUP2 SUB PUSH2 0x55F JUMPI PUSH2 0x55E PUSH2 0x505 JUMP JUMPDEST JUMPDEST POP SWAP2 SWAP1 POP JUMP JUMPDEST PUSH1 0x0 DUP2 SWAP1 POP DUP2 PUSH1 0x0 MSTORE PUSH1 0x20 PUSH1 0x0 KECCAK256 SWAP1 POP SWAP2 SWAP1 POP JUMP JUMPDEST PUSH1 0x0 PUSH1 0x20 PUSH1 0x1F DUP4 ADD DIV SWAP1 POP SWAP2 SWAP1 POP JUMP JUMPDEST PUSH1 0x0 DUP3 DUP3 SHL SWAP1 POP SWAP3 SWAP2 POP POP JUMP JUMPDEST PUSH1 0x0 PUSH1 0x8 DUP4 MUL PUSH2 0x5C7 PUSH32 0xFFFFFFFFFFFFFFFFFFFFFFFFFFFFFFFFFFFFFFFFFFFFFFFFFFFFFFFFFFFFFFFF DUP3 PUSH2 0x58A JUMP JUMPDEST PUSH2 0x5D1 DUP7 DUP4 PUSH2 0x58A JUMP JUMPDEST SWAP6 POP DUP1 NOT DUP5 AND SWAP4 POP DUP1 DUP7 AND DUP5 OR SWAP3 POP POP POP SWAP4 SWAP3 POP POP POP JUMP JUMPDEST PUSH1 0x0 DUP2 SWAP1 POP SWAP2 SWAP1 POP JUMP JUMPDEST PUSH1 0x0 PUSH2 0x60E PUSH2 0x609 PUSH2 0x604 DUP5 PUSH2 0x36D JUMP JUMPDEST PUSH2 0x5E9 JUMP JUMPDEST PUSH2 0x36D JUMP JUMPDEST SWAP1 POP SWAP2 SWAP1 POP JUMP JUMPDEST PUSH1 0x0 DUP2 SWAP1 POP SWAP2 SWAP1 POP JUMP JUMPDEST PUSH2 0x628 DUP4 PUSH2 0x5F3 JUMP JUMPDEST PUSH2 0x63C PUSH2 0x634 DUP3 PUSH2 0x615 JUMP JUMPDEST DUP5 DUP5 SLOAD PUSH2 0x597 JUMP JUMPDEST DUP3 SSTORE POP POP POP POP JUMP JUMPDEST PUSH1 0x0 SWAP1 JUMP JUMPDEST PUSH2 0x651 PUSH2 0x644 JUMP JUMPDEST PUSH2 0x65C DUP2 DUP5 DUP5 PUSH2 0x61F JUMP JUMPDEST POP POP POP JUMP JUMPDEST JUMPDEST DUP2 DUP2 LT ISZERO PUSH2 0x680 JUMPI PUSH2 0x675 PUSH1 0x0 DUP3 PUSH2 0x649 JUMP JUMPDEST PUSH1 0x1 DUP2 ADD SWAP1 POP PUSH2 0x662 JUMP JUMPDEST POP POP JUMP JUMPDEST PUSH1 0x1F DUP3 GT ISZERO PUSH2 0x6C5 JUMPI PUSH2 0x696 DUP2 PUSH2 0x565 JUMP JUMPDEST PUSH2 0x69F DUP5 PUSH2 0x57A JUMP JUMPDEST DUP2 ADD PUSH1 0x20 DUP6 LT ISZERO PUSH2 0x6AE JUMPI DUP2 SWAP1 POP JUMPDEST PUSH2 0x6C2 PUSH2 0x6BA DUP6 PUSH2 0x57A JUMP JUMPDEST DUP4 ADD DUP3 PUSH2 0x661 JUMP JUMPDEST POP POP JUMPDEST POP POP POP JUMP JUMPDEST PUSH1 0x0 DUP3 DUP3 SHR SWAP1 POP SWAP3 SWAP2 POP POP JUMP JUMPDEST PUSH1 0x0 PUSH2 0x6E8 PUSH1 0x0 NOT DUP5 PUSH1 0x8 MUL PUSH2 0x6CA JUMP JUMPDEST NOT DUP1 DUP4 AND SWAP2 POP POP SWAP3 SWAP2 POP POP JUMP JUMPDEST PUSH1 0x0 PUSH2 0x701 DUP4 DUP4 PUSH2 0x6D7 JUMP JUMPDEST SWAP2 POP DUP3 PUSH1 0x2 MUL DUP3 OR SWAP1 POP SWAP3 SWAP2 POP POP JUMP JUMPDEST PUSH2 0x71A DUP3 PUSH2 0x43B JUMP JUMPDEST PUSH8 0xFFFFFFFFFFFFFFFF DUP2 GT ISZERO PUSH2 0x733 JUMPI PUSH2 0x732 PUSH2 0x242 JUMP JUMPDEST JUMPDEST PUSH2 0x73D DUP3 SLOAD PUSH2 0x534 JUMP JUMPDEST PUSH2 0x748 DUP3 DUP3 DUP6 PUSH2 0x684 JUMP JUMPDEST PUSH1 0x0 PUSH1 0x20 SWAP1 POP PUSH1 0x1F DUP4 GT PUSH1 0x1 DUP2 EQ PUSH2 0x77B JUMPI PUSH1 0x0 DUP5 ISZERO PUSH2 0x769 JUMPI DUP3 DUP8 ADD MLOAD SWAP1 POP JUMPDEST PUSH2 0x773 DUP6 DUP3 PUSH2 0x6F5 JUMP JUMPDEST DUP7 SSTORE POP PUSH2 0x7DB JUMP JUMPDEST PUSH1 0x1F NOT DUP5 AND PUSH2 0x789 DUP7 PUSH2 0x565 JUMP JUMPDEST PUSH1 0x0 JUMPDEST DUP3 DUP2 LT ISZERO PUSH2 0x7B1 JUMPI DUP5 DUP10 ADD MLOAD DUP3 SSTORE PUSH1 0x1 DUP3 ADD SWAP2 POP PUSH1 0x20 DUP6 ADD SWAP5 POP PUSH1 0x20 DUP2 ADD SWAP1 POP PUSH2 0x78C JUMP JUMPDEST DUP7 DUP4 LT ISZERO PUSH2 0x7CE JUMPI DUP5 DUP10 ADD MLOAD PUSH2 0x7CA PUSH1 0x1F DUP10 AND DUP3 PUSH2 0x6D7 JUMP JUMPDEST DUP4 SSTORE POP JUMPDEST PUSH1 0x1 PUSH1 0x2 DUP9 MUL ADD DUP9 SSTORE POP POP POP JUMPDEST POP POP POP POP POP POP JUMP INVALID LOG2 PUSH5 0x6970667358 0x22 SLT KECCAK256 RETURN DUP5 0xE0 PUSH22 0xF1098D541735594A40CE5E17BDED28EA9EE701F21996 0xE2 0xC8 GAS DUP2 PUSH21 0xBD64736F6C63430008120033000000000000000000 "
		},
		"gasEstimates": {
			"creation": {
				"codeDepositCost": "414600",
				"executionCost": "449",
				"totalCost": "415049"
			},
			"external": {
				"addPersonNum(string,uint256)": "infinite",
				"personList(uint256)": "infinite",
				"retrive()": "2481",
				"store(uint256)": "22520"
			}
		},
		"methodIdentifiers": {
			"addPersonNum(string,uint256)": "27422150",
			"personList(uint256)": "6b44374d",
			"retrive()": "a6b7fc5b",
			"store(uint256)": "6057361d"
		}
	},
	"abi": [
		{
			"inputs": [
				{
					"internalType": "string",
					"name": "_name",
					"type": "string"
				},
				{
					"internalType": "uint256",
					"name": "_favnum",
					"type": "uint256"
				}
			],
			"name": "addPersonNum",
			"outputs": [],
			"stateMutability": "nonpayable",
			"type": "function"
		},
		{
			"inputs": [
				{
					"internalType": "uint256",
					"name": "",
					"type": "uint256"
				}
			],
			"name": "personList",
			"outputs": [
				{
					"internalType": "uint256",
					"name": "favnum",
					"type": "uint256"
				},
				{
					"internalType": "string",
					"name": "name",
					"type": "string"
				}
			],
			"stateMutability": "view",
			"type": "function"
		},
		{
			"inputs": [],
			"name": "retrive",
			"outputs": [
				{
					"internalType": "uint256",
					"name": "",
					"type": "uint256"
				}
			],
			"stateMutability": "view",
			"type": "function"
		},
		{
			"inputs": [
				{
					"internalType": "uint256",
					"name": "_favnum",
					"type": "uint256"
				}
			],
			"name": "store",
			"outputs": [],
			"stateMutability": "nonpayable",
			"type": "function"
		}
	]
}