{
	"data": {
		"bytecode": {
			"linkReferences": {},
			"object": "608060405234801561000f575f5ffd5b5060405161251c38038061251c833981810160405281019061003191906102d8565b80335f73ffffffffffffffffffffffffffffffffffffffff168173ffffffffffffffffffffffffffffffffffffffff16036100a3575f6040517f1e4fbdf700000000000000000000000000000000000000000000000000000000815260040161009a9190610312565b60405180910390fd5b6100b2816101b960201b60201c565b505f73ffffffffffffffffffffffffffffffffffffffff168173ffffffffffffffffffffffffffffffffffffffff1603610118576040517f381dd54000000000000000000000000000000000000000000000000000000000815260040160405180910390fd5b8060015f6101000a81548173ffffffffffffffffffffffffffffffffffffffff021916908373ffffffffffffffffffffffffffffffffffffffff1602179055508073ffffffffffffffffffffffffffffffffffffffff165f73ffffffffffffffffffffffffffffffffffffffff167f039ad854736757070884dd787ef1a7f58db33546639d1f3efddcf4a33fb8997e60405160405180910390a3505061032b565b5f5f5f9054906101000a900473ffffffffffffffffffffffffffffffffffffffff169050815f5f6101000a81548173ffffffffffffffffffffffffffffffffffffffff021916908373ffffffffffffffffffffffffffffffffffffffff1602179055508173ffffffffffffffffffffffffffffffffffffffff168173ffffffffffffffffffffffffffffffffffffffff167f8be0079c531659141344cd1fd0a4f28419497f9722a3daafe3b4186f6b6457e060405160405180910390a35050565b5f5ffd5b5f73ffffffffffffffffffffffffffffffffffffffff82169050919050565b5f6102a78261027e565b9050919050565b6102b78161029d565b81146102c1575f5ffd5b50565b5f815190506102d2816102ae565b92915050565b5f602082840312156102ed576102ec61027a565b5b5f6102fa848285016102c4565b91505092915050565b61030c8161029d565b82525050565b5f6020820190506103255f830184610303565b92915050565b6121e4806103385f395ff3fe608060405234801561000f575f5ffd5b506004361061011f575f3560e01c80638da5cb5b116100ab578063d60c884b1161006f578063d60c884b146102e0578063d777cc6d146102fc578063f209335014610318578063f2fde38b14610336578063f5c793ef146103525761011f565b80638da5cb5b1461024e578063a619d8181461026c578063a6b7fc5b1461028a578063bc1fc27a146102a8578063c3c44ac2146102c45761011f565b80633441856f116100f25780633441856f146101bd5780636057361d146101db5780636b44374d146101f7578063715018a614610228578063805f2132146102325761011f565b806301ffc9a71461012357806306c62c2c1461015357806327422150146101835780633397cf671461019f575b5f5ffd5b61013d6004803603810190610138919061151f565b610370565b60405161014a9190611564565b60405180910390f35b61016d600480360381019061016891906116b9565b610441565b60405161017a9190611718565b60405180910390f35b61019d6004803603810190610198919061175b565b61046e565b005b6101a76104f7565b6040516101b491906117f4565b60405180910390f35b6101c561051f565b6040516101d291906117f4565b60405180910390f35b6101f560048036038101906101f0919061180d565b610547565b005b610211600480360381019061020c919061180d565b610551565b60405161021f929190611898565b60405180910390f35b610230610606565b005b61024c60048036038101906102479190611923565b610619565b005b610256610b18565b60405161026391906117f4565b60405180910390f35b610274610b3f565b60405161028191906119db565b60405180910390f35b610292610b55565b60405161029f9190611718565b60405180910390f35b6102c260048036038101906102bd9190611a49565b610b5e565b005b6102de60048036038101906102d99190611ac7565b610e02565b005b6102fa60048036038101906102f59190611b1c565b610e49565b005b61031660048036038101906103119190611b1c565b610f14565b005b610320611048565b60405161032d9190611718565b60405180910390f35b610350600480360381019061034b9190611b1c565b611051565b005b61035a6110d5565b6040516103679190611b56565b60405180910390f35b5f7f805f2132000000000000000000000000000000000000000000000000000000007bffffffffffffffffffffffffffffffffffffffffffffffffffffffff1916827bffffffffffffffffffffffffffffffffffffffffffffffffffffffff1916148061043a57507f01ffc9a7000000000000000000000000000000000000000000000000000000007bffffffffffffffffffffffffffffffffffffffffffffffffffffffff1916827bffffffffffffffffffffffffffffffffffffffffffffffffffffffff1916145b9050919050565b6006818051602081018201805184825260208301602085012081835280955050505050505f915090505481565b8060068360405161047f9190611ba9565b9081526020016040518091039020819055505f6040518060400160405280838152602001848152509050600581908060018154018082558091505060019003905f5260205f2090600202015f909190919091505f820151815f015560208201518160010190816104ef9190611dbc565b505050505050565b5f60025f9054906101000a900473ffffffffffffffffffffffffffffffffffffffff16905090565b5f60015f9054906101000a900473ffffffffffffffffffffffffffffffffffffffff16905090565b8060048190555050565b60058181548110610560575f80fd5b905f5260205f2090600202015f91509050805f01549080600101805461058590611bec565b80601f01602080910402602001604051908101604052809291908181526020018280546105b190611bec565b80156105fc5780601f106105d3576101008083540402835291602001916105fc565b820191905f5260205f20905b8154815290600101906020018083116105df57829003601f168201915b5050505050905082565b61060e6110de565b6106175f611165565b565b5f73ffffffffffffffffffffffffffffffffffffffff1660015f9054906101000a900473ffffffffffffffffffffffffffffffffffffffff1673ffffffffffffffffffffffffffffffffffffffff16141580156106c3575060015f9054906101000a900473ffffffffffffffffffffffffffffffffffffffff1673ffffffffffffffffffffffffffffffffffffffff163373ffffffffffffffffffffffffffffffffffffffff1614155b15610728573360015f9054906101000a900473ffffffffffffffffffffffffffffffffffffffff166040517fe1130dba00000000000000000000000000000000000000000000000000000000815260040161071f929190611e8b565b60405180910390fd5b5f5f1b60035414158061078857505f73ffffffffffffffffffffffffffffffffffffffff1660025f9054906101000a900473ffffffffffffffffffffffffffffffffffffffff1673ffffffffffffffffffffffffffffffffffffffff1614155b806107d757505f60b01b75ffffffffffffffffffffffffffffffffffffffffffff1916600260149054906101000a900460b01b75ffffffffffffffffffffffffffffffffffffffffffff191614155b15610b08575f5f5f61082b87878080601f0160208091040260200160405190810160405280939291908181526020018383808284375f81840152601f19601f82011690508083019250505050505050611226565b9250925092505f5f1b6003541415801561084757506003548314155b1561088d57826003546040517f9bfa39ba000000000000000000000000000000000000000000000000000000008152600401610884929190611eb2565b60405180910390fd5b5f73ffffffffffffffffffffffffffffffffffffffff1660025f9054906101000a900473ffffffffffffffffffffffffffffffffffffffff1673ffffffffffffffffffffffffffffffffffffffff1614158015610937575060025f9054906101000a900473ffffffffffffffffffffffffffffffffffffffff1673ffffffffffffffffffffffffffffffffffffffff168173ffffffffffffffffffffffffffffffffffffffff1614155b1561099c578060025f9054906101000a900473ffffffffffffffffffffffffffffffffffffffff166040517fb8a98af8000000000000000000000000000000000000000000000000000000008152600401610993929190611e8b565b60405180910390fd5b5f60b01b75ffffffffffffffffffffffffffffffffffffffffffff1916600260149054906101000a900460b01b75ffffffffffffffffffffffffffffffffffffffffffff191614610b04575f73ffffffffffffffffffffffffffffffffffffffff1660025f9054906101000a900473ffffffffffffffffffffffffffffffffffffffff1673ffffffffffffffffffffffffffffffffffffffff1603610a6d576040517f4847901100000000000000000000000000000000000000000000000000000000815260040160405180910390fd5b600260149054906101000a900460b01b75ffffffffffffffffffffffffffffffffffffffffffff19168275ffffffffffffffffffffffffffffffffffffffffffff191614610b035781600260149054906101000a900460b01b6040517f6c4609a6000000000000000000000000000000000000000000000000000000008152600401610afa929190611ed9565b60405180910390fd5b5b5050505b610b12828261124b565b50505050565b5f5f5f9054906101000a900473ffffffffffffffffffffffffffffffffffffffff16905090565b5f600260149054906101000a900460b01b905090565b5f600454905090565b610b666110de565b5f600260149054906101000a900460b01b90505f8383905003610c13575f60b01b600260146101000a81548169ffffffffffffffffffff021916908360b01c02179055505f60b01b75ffffffffffffffffffffffffffffffffffffffffffff19168175ffffffffffffffffffffffffffffffffffffffffffff19167f1e7ddd09d504c82dcfc784a464b167469f5aad967606ec4822d848ef9141dfa560405160405180910390a350610dfe565b5f60028484604051610c26929190611f2e565b602060405180830381855afa158015610c41573d5f5f3e3d5ffd5b5050506040513d601f19601f82011682018060405250810190610c649190611f5a565b90505f610c8f82604051602001610c7b9190611fa5565b604051602081830303815290604052611270565b90505f600a67ffffffffffffffff811115610cad57610cac611595565b5b6040519080825280601f01601f191660200182016040528015610cdf5781602001600182028036833780820191505090505b5090505f5f90505b600a811015610d5c57828181518110610d0357610d02611fbf565b5b602001015160f81c60f81b828281518110610d2157610d20611fbf565b5b60200101907effffffffffffffffffffffffffffffffffffffffffffffffffffffffffffff191690815f1a9053508080600101915050610ce7565b5080610d6790612019565b600260146101000a81548169ffffffffffffffffffff021916908360b01c0217905550600260149054906101000a900460b01b75ffffffffffffffffffffffffffffffffffffffffffff19168475ffffffffffffffffffffffffffffffffffffffffffff19167f1e7ddd09d504c82dcfc784a464b167469f5aad967606ec4822d848ef9141dfa560405160405180910390a3505050505b5050565b610e0a6110de565b5f60035490508160038190555081817f0dbedcdf21925e053b4c574eae180d7f2883235ab4976ecc0873598a2a999b0360405160405180910390a35050565b610e516110de565b5f60025f9054906101000a900473ffffffffffffffffffffffffffffffffffffffff1690508160025f6101000a81548173ffffffffffffffffffffffffffffffffffffffff021916908373ffffffffffffffffffffffffffffffffffffffff1602179055508173ffffffffffffffffffffffffffffffffffffffff168173ffffffffffffffffffffffffffffffffffffffff167f3321cda85c145617e47418aa14255e9dcbec53a753778e57591703b89a3cad3160405160405180910390a35050565b610f1c6110de565b5f60015f9054906101000a900473ffffffffffffffffffffffffffffffffffffffff1690505f73ffffffffffffffffffffffffffffffffffffffff168273ffffffffffffffffffffffffffffffffffffffff1603610faa577f704da7db165c79c1e33d542c079333bbde970a733032d2f95fec8fb7d770cbf7604051610fa1906120ef565b60405180910390a15b8160015f6101000a81548173ffffffffffffffffffffffffffffffffffffffff021916908373ffffffffffffffffffffffffffffffffffffffff1602179055508173ffffffffffffffffffffffffffffffffffffffff168173ffffffffffffffffffffffffffffffffffffffff167f039ad854736757070884dd787ef1a7f58db33546639d1f3efddcf4a33fb8997e60405160405180910390a35050565b5f600454905090565b6110596110de565b5f73ffffffffffffffffffffffffffffffffffffffff168173ffffffffffffffffffffffffffffffffffffffff16036110c9575f6040517f1e4fbdf70000000000000000000000000000000000000000000000000000000081526004016110c091906117f4565b60405180910390fd5b6110d281611165565b50565b5f600354905090565b6110e66114b2565b73ffffffffffffffffffffffffffffffffffffffff16611104610b18565b73ffffffffffffffffffffffffffffffffffffffff1614611163576111276114b2565b6040517f118cdaa700000000000000000000000000000000000000000000000000000000815260040161115a91906117f4565b60405180910390fd5b565b5f5f5f9054906101000a900473ffffffffffffffffffffffffffffffffffffffff169050815f5f6101000a81548173ffffffffffffffffffffffffffffffffffffffff021916908373ffffffffffffffffffffffffffffffffffffffff1602179055508173ffffffffffffffffffffffffffffffffffffffff168173ffffffffffffffffffffffffffffffffffffffff167f8be0079c531659141344cd1fd0a4f28419497f9722a3daafe3b4186f6b6457e060405160405180910390a35050565b5f5f5f6020840151925060408401519150604a8401516008600c021c90509193909250565b5f5f838381019061125c919061175b565b9150915061126a828261046e565b50505050565b60605f60028351611281919061213a565b67ffffffffffffffff81111561129a57611299611595565b5b6040519080825280601f01601f1916602001820160405280156112cc5781602001600182028036833780820191505090505b5090505f5f90505b83518110156114a8576040518060400160405280601081526020017f3031323334353637383961626364656600000000000000000000000000000000815250600485838151811061132857611327611fbf565b5b602001015160f81c60f81b7effffffffffffffffffffffffffffffffffffffffffffffffffffffffffffff1916901c60f81c60ff168151811061136e5761136d611fbf565b5b602001015160f81c60f81b82600283611387919061213a565b8151811061139857611397611fbf565b5b60200101907effffffffffffffffffffffffffffffffffffffffffffffffffffffffffffff191690815f1a9053506040518060400160405280601081526020017f3031323334353637383961626364656600000000000000000000000000000000815250600f60f81b85838151811061141457611413611fbf565b5b602001015160f81c60f81b1660f81c60ff168151811061143757611436611fbf565b5b602001015160f81c60f81b826001600284611452919061213a565b61145c919061217b565b8151811061146d5761146c611fbf565b5b60200101907effffffffffffffffffffffffffffffffffffffffffffffffffffffffffffff191690815f1a90535080806001019150506112d4565b5080915050919050565b5f33905090565b5f604051905090565b5f5ffd5b5f5ffd5b5f7fffffffff0000000000000000000000000000000000000000000000000000000082169050919050565b6114fe816114ca565b8114611508575f5ffd5b50565b5f81359050611519816114f5565b92915050565b5f60208284031215611534576115336114c2565b5b5f6115418482850161150b565b91505092915050565b5f8115159050919050565b61155e8161154a565b82525050565b5f6020820190506115775f830184611555565b92915050565b5f5ffd5b5f5ffd5b5f601f19601f8301169050919050565b7f4e487b71000000000000000000000000000000000000000000000000000000005f52604160045260245ffd5b6115cb82611585565b810181811067ffffffffffffffff821117156115ea576115e9611595565b5b80604052505050565b5f6115fc6114b9565b905061160882826115c2565b919050565b5f67ffffffffffffffff82111561162757611626611595565b5b61163082611585565b9050602081019050919050565b828183375f83830152505050565b5f61165d6116588461160d565b6115f3565b90508281526020810184848401111561167957611678611581565b5b61168484828561163d565b509392505050565b5f82601f8301126116a05761169f61157d565b5b81356116b084826020860161164b565b91505092915050565b5f602082840312156116ce576116cd6114c2565b5b5f82013567ffffffffffffffff8111156116eb576116ea6114c6565b5b6116f78482850161168c565b91505092915050565b5f819050919050565b61171281611700565b82525050565b5f60208201905061172b5f830184611709565b92915050565b61173a81611700565b8114611744575f5ffd5b50565b5f8135905061175581611731565b92915050565b5f5f60408385031215611771576117706114c2565b5b5f83013567ffffffffffffffff81111561178e5761178d6114c6565b5b61179a8582860161168c565b92505060206117ab85828601611747565b9150509250929050565b5f73ffffffffffffffffffffffffffffffffffffffff82169050919050565b5f6117de826117b5565b9050919050565b6117ee816117d4565b82525050565b5f6020820190506118075f8301846117e5565b92915050565b5f60208284031215611822576118216114c2565b5b5f61182f84828501611747565b91505092915050565b5f81519050919050565b5f82825260208201905092915050565b8281835e5f83830152505050565b5f61186a82611838565b6118748185611842565b9350611884818560208601611852565b61188d81611585565b840191505092915050565b5f6040820190506118ab5f830185611709565b81810360208301526118bd8184611860565b90509392505050565b5f5ffd5b5f5ffd5b5f5f83601f8401126118e3576118e261157d565b5b8235905067ffffffffffffffff811115611900576118ff6118c6565b5b60208301915083600182028301111561191c5761191b6118ca565b5b9250929050565b5f5f5f5f6040858703121561193b5761193a6114c2565b5b5f85013567ffffffffffffffff811115611958576119576114c6565b5b611964878288016118ce565b9450945050602085013567ffffffffffffffff811115611987576119866114c6565b5b611993878288016118ce565b925092505092959194509250565b5f7fffffffffffffffffffff0000000000000000000000000000000000000000000082169050919050565b6119d5816119a1565b82525050565b5f6020820190506119ee5f8301846119cc565b92915050565b5f5f83601f840112611a0957611a0861157d565b5b8235905067ffffffffffffffff811115611a2657611a256118c6565b5b602083019150836001820283011115611a4257611a416118ca565b5b9250929050565b5f5f60208385031215611a5f57611a5e6114c2565b5b5f83013567ffffffffffffffff811115611a7c57611a7b6114c6565b5b611a88858286016119f4565b92509250509250929050565b5f819050919050565b611aa681611a94565b8114611ab0575f5ffd5b50565b5f81359050611ac181611a9d565b92915050565b5f60208284031215611adc57611adb6114c2565b5b5f611ae984828501611ab3565b91505092915050565b611afb816117d4565b8114611b05575f5ffd5b50565b5f81359050611b1681611af2565b92915050565b5f60208284031215611b3157611b306114c2565b5b5f611b3e84828501611b08565b91505092915050565b611b5081611a94565b82525050565b5f602082019050611b695f830184611b47565b92915050565b5f81905092915050565b5f611b8382611838565b611b8d8185611b6f565b9350611b9d818560208601611852565b80840191505092915050565b5f611bb48284611b79565b915081905092915050565b7f4e487b71000000000000000000000000000000000000000000000000000000005f52602260045260245ffd5b5f6002820490506001821680611c0357607f821691505b602082108103611c1657611c15611bbf565b5b50919050565b5f819050815f5260205f209050919050565b5f6020601f8301049050919050565b5f82821b905092915050565b5f60088302611c787fffffffffffffffffffffffffffffffffffffffffffffffffffffffffffffffff82611c3d565b611c828683611c3d565b95508019841693508086168417925050509392505050565b5f819050919050565b5f611cbd611cb8611cb384611700565b611c9a565b611700565b9050919050565b5f819050919050565b611cd683611ca3565b611cea611ce282611cc4565b848454611c49565b825550505050565b5f5f905090565b611d01611cf2565b611d0c818484611ccd565b505050565b5b81811015611d2f57611d245f82611cf9565b600181019050611d12565b5050565b601f821115611d7457611d4581611c1c565b611d4e84611c2e565b81016020851015611d5d578190505b611d71611d6985611c2e565b830182611d11565b50505b505050565b5f82821c905092915050565b5f611d945f1984600802611d79565b1980831691505092915050565b5f611dac8383611d85565b9150826002028217905092915050565b611dc582611838565b67ffffffffffffffff811115611dde57611ddd611595565b5b611de88254611bec565b611df3828285611d33565b5f60209050601f831160018114611e24575f8415611e12578287015190505b611e1c8582611da1565b865550611e83565b601f198416611e3286611c1c565b5f5b82811015611e5957848901518255600182019150602085019450602081019050611e34565b86831015611e765784890151611e72601f891682611d85565b8355505b6001600288020188555050505b505050505050565b5f604082019050611e9e5f8301856117e5565b611eab60208301846117e5565b9392505050565b5f604082019050611ec55f830185611b47565b611ed26020830184611b47565b9392505050565b5f604082019050611eec5f8301856119cc565b611ef960208301846119cc565b9392505050565b5f81905092915050565b5f611f158385611f00565b9350611f2283858461163d565b82840190509392505050565b5f611f3a828486611f0a565b91508190509392505050565b5f81519050611f5481611a9d565b92915050565b5f60208284031215611f6f57611f6e6114c2565b5b5f611f7c84828501611f46565b91505092915050565b5f819050919050565b611f9f611f9a82611a94565b611f85565b82525050565b5f611fb08284611f8e565b60208201915081905092915050565b7f4e487b71000000000000000000000000000000000000000000000000000000005f52603260045260245ffd5b5f81519050919050565b5f819050602082019050919050565b5f61201082516119a1565b80915050919050565b5f61202382611fec565b8261202d84611ff6565b905061203881612005565b9250600a821015612078576120737fffffffffffffffffffff0000000000000000000000000000000000000000000083600a03600802611c3d565b831692505b5050919050565b7f466f7277617264657220616464726573732073657420746f207a65726f202d205f8201527f636f6e7472616374206973206e6f7720494e5345435552450000000000000000602082015250565b5f6120d9603883611842565b91506120e48261207f565b604082019050919050565b5f6020820190508181035f830152612106816120cd565b9050919050565b7f4e487b71000000000000000000000000000000000000000000000000000000005f52601160045260245ffd5b5f61214482611700565b915061214f83611700565b925082820261215d81611700565b915082820484148315176121745761217361210d565b5b5092915050565b5f61218582611700565b915061219083611700565b92508282019050808211156121a8576121a761210d565b5b9291505056fea264697066735822122080ad3a3a2b2d248d786e393f7140dd2003fc87073451c0526a51e7a067cfb8aa64736f6c634300081f0033",
			"opcodes": "PUSH1 0x80 PUSH1 0x40 MSTORE CALLVALUE DUP1 ISZERO PUSH2 0xF JUMPI PUSH0 PUSH0 REVERT JUMPDEST POP PUSH1 0x40 MLOAD PUSH2 0x251C CODESIZE SUB DUP1 PUSH2 0x251C DUP4 CODECOPY DUP2 DUP2 ADD PUSH1 0x40 MSTORE DUP2 ADD SWAP1 PUSH2 0x31 SWAP2 SWAP1 PUSH2 0x2D8 JUMP JUMPDEST DUP1 CALLER PUSH0 PUSH20 0xFFFFFFFFFFFFFFFFFFFFFFFFFFFFFFFFFFFFFFFF AND DUP2 PUSH20 0xFFFFFFFFFFFFFFFFFFFFFFFFFFFFFFFFFFFFFFFF AND SUB PUSH2 0xA3 JUMPI PUSH0 PUSH1 0x40 MLOAD PUSH32 0x1E4FBDF700000000000000000000000000000000000000000000000000000000 DUP2 MSTORE PUSH1 0x4 ADD PUSH2 0x9A SWAP2 SWAP1 PUSH2 0x312 JUMP JUMPDEST PUSH1 0x40 MLOAD DUP1 SWAP2 SUB SWAP1 REVERT JUMPDEST PUSH2 0xB2 DUP2 PUSH2 0x1B9 PUSH1 0x20 SHL PUSH1 0x20 SHR JUMP JUMPDEST POP PUSH0 PUSH20 0xFFFFFFFFFFFFFFFFFFFFFFFFFFFFFFFFFFFFFFFF AND DUP2 PUSH20 0xFFFFFFFFFFFFFFFFFFFFFFFFFFFFFFFFFFFFFFFF AND SUB PUSH2 0x118 JUMPI PUSH1 0x40 MLOAD PUSH32 0x381DD54000000000000000000000000000000000000000000000000000000000 DUP2 MSTORE PUSH1 0x4 ADD PUSH1 0x40 MLOAD DUP1 SWAP2 SUB SWAP1 REVERT JUMPDEST DUP1 PUSH1 0x1 PUSH0 PUSH2 0x100 EXP DUP2 SLOAD DUP2 PUSH20 0xFFFFFFFFFFFFFFFFFFFFFFFFFFFFFFFFFFFFFFFF MUL NOT AND SWAP1 DUP4 PUSH20 0xFFFFFFFFFFFFFFFFFFFFFFFFFFFFFFFFFFFFFFFF AND MUL OR SWAP1 SSTORE POP DUP1 PUSH20 0xFFFFFFFFFFFFFFFFFFFFFFFFFFFFFFFFFFFFFFFF AND PUSH0 PUSH20 0xFFFFFFFFFFFFFFFFFFFFFFFFFFFFFFFFFFFFFFFF AND PUSH32 0x39AD854736757070884DD787EF1A7F58DB33546639D1F3EFDDCF4A33FB8997E PUSH1 0x40 MLOAD PUSH1 0x40 MLOAD DUP1 SWAP2 SUB SWAP1 LOG3 POP POP PUSH2 0x32B JUMP JUMPDEST PUSH0 PUSH0 PUSH0 SWAP1 SLOAD SWAP1 PUSH2 0x100 EXP SWAP1 DIV PUSH20 0xFFFFFFFFFFFFFFFFFFFFFFFFFFFFFFFFFFFFFFFF AND SWAP1 POP DUP2 PUSH0 PUSH0 PUSH2 0x100 EXP DUP2 SLOAD DUP2 PUSH20 0xFFFFFFFFFFFFFFFFFFFFFFFFFFFFFFFFFFFFFFFF MUL NOT AND SWAP1 DUP4 PUSH20 0xFFFFFFFFFFFFFFFFFFFFFFFFFFFFFFFFFFFFFFFF AND MUL OR SWAP1 SSTORE POP DUP2 PUSH20 0xFFFFFFFFFFFFFFFFFFFFFFFFFFFFFFFFFFFFFFFF AND DUP2 PUSH20 0xFFFFFFFFFFFFFFFFFFFFFFFFFFFFFFFFFFFFFFFF AND PUSH32 0x8BE0079C531659141344CD1FD0A4F28419497F9722A3DAAFE3B4186F6B6457E0 PUSH1 0x40 MLOAD PUSH1 0x40 MLOAD DUP1 SWAP2 SUB SWAP1 LOG3 POP POP JUMP JUMPDEST PUSH0 PUSH0 REVERT JUMPDEST PUSH0 PUSH20 0xFFFFFFFFFFFFFFFFFFFFFFFFFFFFFFFFFFFFFFFF DUP3 AND SWAP1 POP SWAP2 SWAP1 POP JUMP JUMPDEST PUSH0 PUSH2 0x2A7 DUP3 PUSH2 0x27E JUMP JUMPDEST SWAP1 POP SWAP2 SWAP1 POP JUMP JUMPDEST PUSH2 0x2B7 DUP2 PUSH2 0x29D JUMP JUMPDEST DUP2 EQ PUSH2 0x2C1 JUMPI PUSH0 PUSH0 REVERT JUMPDEST POP JUMP JUMPDEST PUSH0 DUP2 MLOAD SWAP1 POP PUSH2 0x2D2 DUP2 PUSH2 0x2AE JUMP JUMPDEST SWAP3 SWAP2 POP POP JUMP JUMPDEST PUSH0 PUSH1 0x20 DUP3 DUP5 SUB SLT ISZERO PUSH2 0x2ED JUMPI PUSH2 0x2EC PUSH2 0x27A JUMP JUMPDEST JUMPDEST PUSH0 PUSH2 0x2FA DUP5 DUP3 DUP6 ADD PUSH2 0x2C4 JUMP JUMPDEST SWAP2 POP POP SWAP3 SWAP2 POP POP JUMP JUMPDEST PUSH2 0x30C DUP2 PUSH2 0x29D JUMP JUMPDEST DUP3 MSTORE POP POP JUMP JUMPDEST PUSH0 PUSH1 0x20 DUP3 ADD SWAP1 POP PUSH2 0x325 PUSH0 DUP4 ADD DUP5 PUSH2 0x303 JUMP JUMPDEST SWAP3 SWAP2 POP POP JUMP JUMPDEST PUSH2 0x21E4 DUP1 PUSH2 0x338 PUSH0 CODECOPY PUSH0 RETURN INVALID PUSH1 0x80 PUSH1 0x40 MSTORE CALLVALUE DUP1 ISZERO PUSH2 0xF JUMPI PUSH0 PUSH0 REVERT JUMPDEST POP PUSH1 0x4 CALLDATASIZE LT PUSH2 0x11F JUMPI PUSH0 CALLDATALOAD PUSH1 0xE0 SHR DUP1 PUSH4 0x8DA5CB5B GT PUSH2 0xAB JUMPI DUP1 PUSH4 0xD60C884B GT PUSH2 0x6F JUMPI DUP1 PUSH4 0xD60C884B EQ PUSH2 0x2E0 JUMPI DUP1 PUSH4 0xD777CC6D EQ PUSH2 0x2FC JUMPI DUP1 PUSH4 0xF2093350 EQ PUSH2 0x318 JUMPI DUP1 PUSH4 0xF2FDE38B EQ PUSH2 0x336 JUMPI DUP1 PUSH4 0xF5C793EF EQ PUSH2 0x352 JUMPI PUSH2 0x11F JUMP JUMPDEST DUP1 PUSH4 0x8DA5CB5B EQ PUSH2 0x24E JUMPI DUP1 PUSH4 0xA619D818 EQ PUSH2 0x26C JUMPI DUP1 PUSH4 0xA6B7FC5B EQ PUSH2 0x28A JUMPI DUP1 PUSH4 0xBC1FC27A EQ PUSH2 0x2A8 JUMPI DUP1 PUSH4 0xC3C44AC2 EQ PUSH2 0x2C4 JUMPI PUSH2 0x11F JUMP JUMPDEST DUP1 PUSH4 0x3441856F GT PUSH2 0xF2 JUMPI DUP1 PUSH4 0x3441856F EQ PUSH2 0x1BD JUMPI DUP1 PUSH4 0x6057361D EQ PUSH2 0x1DB JUMPI DUP1 PUSH4 0x6B44374D EQ PUSH2 0x1F7 JUMPI DUP1 PUSH4 0x715018A6 EQ PUSH2 0x228 JUMPI DUP1 PUSH4 0x805F2132 EQ PUSH2 0x232 JUMPI PUSH2 0x11F JUMP JUMPDEST DUP1 PUSH4 0x1FFC9A7 EQ PUSH2 0x123 JUMPI DUP1 PUSH4 0x6C62C2C EQ PUSH2 0x153 JUMPI DUP1 PUSH4 0x27422150 EQ PUSH2 0x183 JUMPI DUP1 PUSH4 0x3397CF67 EQ PUSH2 0x19F JUMPI JUMPDEST PUSH0 PUSH0 REVERT JUMPDEST PUSH2 0x13D PUSH1 0x4 DUP1 CALLDATASIZE SUB DUP2 ADD SWAP1 PUSH2 0x138 SWAP2 SWAP1 PUSH2 0x151F JUMP JUMPDEST PUSH2 0x370 JUMP JUMPDEST PUSH1 0x40 MLOAD PUSH2 0x14A SWAP2 SWAP1 PUSH2 0x1564 JUMP JUMPDEST PUSH1 0x40 MLOAD DUP1 SWAP2 SUB SWAP1 RETURN JUMPDEST PUSH2 0x16D PUSH1 0x4 DUP1 CALLDATASIZE SUB DUP2 ADD SWAP1 PUSH2 0x168 SWAP2 SWAP1 PUSH2 0x16B9 JUMP JUMPDEST PUSH2 0x441 JUMP JUMPDEST PUSH1 0x40 MLOAD PUSH2 0x17A SWAP2 SWAP1 PUSH2 0x1718 JUMP JUMPDEST PUSH1 0x40 MLOAD DUP1 SWAP2 SUB SWAP1 RETURN JUMPDEST PUSH2 0x19D PUSH1 0x4 DUP1 CALLDATASIZE SUB DUP2 ADD SWAP1 PUSH2 0x198 SWAP2 SWAP1 PUSH2 0x175B JUMP JUMPDEST PUSH2 0x46E JUMP JUMPDEST STOP JUMPDEST PUSH2 0x1A7 PUSH2 0x4F7 JUMP JUMPDEST PUSH1 0x40 MLOAD PUSH2 0x1B4 SWAP2 SWAP1 PUSH2 0x17F4 JUMP JUMPDEST PUSH1 0x40 MLOAD DUP1 SWAP2 SUB SWAP1 RETURN JUMPDEST PUSH2 0x1C5 PUSH2 0x51F JUMP JUMPDEST PUSH1 0x40 MLOAD PUSH2 0x1D2 SWAP2 SWAP1 PUSH2 0x17F4 JUMP JUMPDEST PUSH1 0x40 MLOAD DUP1 SWAP2 SUB SWAP1 RETURN JUMPDEST PUSH2 0x1F5 PUSH1 0x4 DUP1 CALLDATASIZE SUB DUP2 ADD SWAP1 PUSH2 0x1F0 SWAP2 SWAP1 PUSH2 0x180D JUMP JUMPDEST PUSH2 0x547 JUMP JUMPDEST STOP JUMPDEST PUSH2 0x211 PUSH1 0x4 DUP1 CALLDATASIZE SUB DUP2 ADD SWAP1 PUSH2 0x20C SWAP2 SWAP1 PUSH2 0x180D JUMP JUMPDEST PUSH2 0x551 JUMP JUMPDEST PUSH1 0x40 MLOAD PUSH2 0x21F SWAP3 SWAP2 SWAP1 PUSH2 0x1898 JUMP JUMPDEST PUSH1 0x40 MLOAD DUP1 SWAP2 SUB SWAP1 RETURN JUMPDEST PUSH2 0x230 PUSH2 0x606 JUMP JUMPDEST STOP JUMPDEST PUSH2 0x24C PUSH1 0x4 DUP1 CALLDATASIZE SUB DUP2 ADD SWAP1 PUSH2 0x247 SWAP2 SWAP1 PUSH2 0x1923 JUMP JUMPDEST PUSH2 0x619 JUMP JUMPDEST STOP JUMPDEST PUSH2 0x256 PUSH2 0xB18 JUMP JUMPDEST PUSH1 0x40 MLOAD PUSH2 0x263 SWAP2 SWAP1 PUSH2 0x17F4 JUMP JUMPDEST PUSH1 0x40 MLOAD DUP1 SWAP2 SUB SWAP1 RETURN JUMPDEST PUSH2 0x274 PUSH2 0xB3F JUMP JUMPDEST PUSH1 0x40 MLOAD PUSH2 0x281 SWAP2 SWAP1 PUSH2 0x19DB JUMP JUMPDEST PUSH1 0x40 MLOAD DUP1 SWAP2 SUB SWAP1 RETURN JUMPDEST PUSH2 0x292 PUSH2 0xB55 JUMP JUMPDEST PUSH1 0x40 MLOAD PUSH2 0x29F SWAP2 SWAP1 PUSH2 0x1718 JUMP JUMPDEST PUSH1 0x40 MLOAD DUP1 SWAP2 SUB SWAP1 RETURN JUMPDEST PUSH2 0x2C2 PUSH1 0x4 DUP1 CALLDATASIZE SUB DUP2 ADD SWAP1 PUSH2 0x2BD SWAP2 SWAP1 PUSH2 0x1A49 JUMP JUMPDEST PUSH2 0xB5E JUMP JUMPDEST STOP JUMPDEST PUSH2 0x2DE PUSH1 0x4 DUP1 CALLDATASIZE SUB DUP2 ADD SWAP1 PUSH2 0x2D9 SWAP2 SWAP1 PUSH2 0x1AC7 JUMP JUMPDEST PUSH2 0xE02 JUMP JUMPDEST STOP JUMPDEST PUSH2 0x2FA PUSH1 0x4 DUP1 CALLDATASIZE SUB DUP2 ADD SWAP1 PUSH2 0x2F5 SWAP2 SWAP1 PUSH2 0x1B1C JUMP JUMPDEST PUSH2 0xE49 JUMP JUMPDEST STOP JUMPDEST PUSH2 0x316 PUSH1 0x4 DUP1 CALLDATASIZE SUB DUP2 ADD SWAP1 PUSH2 0x311 SWAP2 SWAP1 PUSH2 0x1B1C JUMP JUMPDEST PUSH2 0xF14 JUMP JUMPDEST STOP JUMPDEST PUSH2 0x320 PUSH2 0x1048 JUMP JUMPDEST PUSH1 0x40 MLOAD PUSH2 0x32D SWAP2 SWAP1 PUSH2 0x1718 JUMP JUMPDEST PUSH1 0x40 MLOAD DUP1 SWAP2 SUB SWAP1 RETURN JUMPDEST PUSH2 0x350 PUSH1 0x4 DUP1 CALLDATASIZE SUB DUP2 ADD SWAP1 PUSH2 0x34B SWAP2 SWAP1 PUSH2 0x1B1C JUMP JUMPDEST PUSH2 0x1051 JUMP JUMPDEST STOP JUMPDEST PUSH2 0x35A PUSH2 0x10D5 JUMP JUMPDEST PUSH1 0x40 MLOAD PUSH2 0x367 SWAP2 SWAP1 PUSH2 0x1B56 JUMP JUMPDEST PUSH1 0x40 MLOAD DUP1 SWAP2 SUB SWAP1 RETURN JUMPDEST PUSH0 PUSH32 0x805F213200000000000000000000000000000000000000000000000000000000 PUSH28 0xFFFFFFFFFFFFFFFFFFFFFFFFFFFFFFFFFFFFFFFFFFFFFFFFFFFFFFFF NOT AND DUP3 PUSH28 0xFFFFFFFFFFFFFFFFFFFFFFFFFFFFFFFFFFFFFFFFFFFFFFFFFFFFFFFF NOT AND EQ DUP1 PUSH2 0x43A JUMPI POP PUSH32 0x1FFC9A700000000000000000000000000000000000000000000000000000000 PUSH28 0xFFFFFFFFFFFFFFFFFFFFFFFFFFFFFFFFFFFFFFFFFFFFFFFFFFFFFFFF NOT AND DUP3 PUSH28 0xFFFFFFFFFFFFFFFFFFFFFFFFFFFFFFFFFFFFFFFFFFFFFFFFFFFFFFFF NOT AND EQ JUMPDEST SWAP1 POP SWAP2 SWAP1 POP JUMP JUMPDEST PUSH1 0x6 DUP2 DUP1 MLOAD PUSH1 0x20 DUP2 ADD DUP3 ADD DUP1 MLOAD DUP5 DUP3 MSTORE PUSH1 0x20 DUP4 ADD PUSH1 0x20 DUP6 ADD KECCAK256 DUP2 DUP4 MSTORE DUP1 SWAP6 POP POP POP POP POP POP PUSH0 SWAP2 POP SWAP1 POP SLOAD DUP2 JUMP JUMPDEST DUP1 PUSH1 0x6 DUP4 PUSH1 0x40 MLOAD PUSH2 0x47F SWAP2 SWAP1 PUSH2 0x1BA9 JUMP JUMPDEST SWAP1 DUP2 MSTORE PUSH1 0x20 ADD PUSH1 0x40 MLOAD DUP1 SWAP2 SUB SWAP1 KECCAK256 DUP2 SWAP1 SSTORE POP PUSH0 PUSH1 0x40 MLOAD DUP1 PUSH1 0x40 ADD PUSH1 0x40 MSTORE DUP1 DUP4 DUP2 MSTORE PUSH1 0x20 ADD DUP5 DUP2 MSTORE POP SWAP1 POP PUSH1 0x5 DUP2 SWAP1 DUP1 PUSH1 0x1 DUP2 SLOAD ADD DUP1 DUP3 SSTORE DUP1 SWAP2 POP POP PUSH1 0x1 SWAP1 SUB SWAP1 PUSH0 MSTORE PUSH1 0x20 PUSH0 KECCAK256 SWAP1 PUSH1 0x2 MUL ADD PUSH0 SWAP1 SWAP2 SWAP1 SWAP2 SWAP1 SWAP2 POP PUSH0 DUP3 ADD MLOAD DUP2 PUSH0 ADD SSTORE PUSH1 0x20 DUP3 ADD MLOAD DUP2 PUSH1 0x1 ADD SWAP1 DUP2 PUSH2 0x4EF SWAP2 SWAP1 PUSH2 0x1DBC JUMP JUMPDEST POP POP POP POP POP POP JUMP JUMPDEST PUSH0 PUSH1 0x2 PUSH0 SWAP1 SLOAD SWAP1 PUSH2 0x100 EXP SWAP1 DIV PUSH20 0xFFFFFFFFFFFFFFFFFFFFFFFFFFFFFFFFFFFFFFFF AND SWAP1 POP SWAP1 JUMP JUMPDEST PUSH0 PUSH1 0x1 PUSH0 SWAP1 SLOAD SWAP1 PUSH2 0x100 EXP SWAP1 DIV PUSH20 0xFFFFFFFFFFFFFFFFFFFFFFFFFFFFFFFFFFFFFFFF AND SWAP1 POP SWAP1 JUMP JUMPDEST DUP1 PUSH1 0x4 DUP2 SWAP1 SSTORE POP POP JUMP JUMPDEST PUSH1 0x5 DUP2 DUP2 SLOAD DUP2 LT PUSH2 0x560 JUMPI PUSH0 DUP1 REVERT JUMPDEST SWAP1 PUSH0 MSTORE PUSH1 0x20 PUSH0 KECCAK256 SWAP1 PUSH1 0x2 MUL ADD PUSH0 SWAP2 POP SWAP1 POP DUP1 PUSH0 ADD SLOAD SWAP1 DUP1 PUSH1 0x1 ADD DUP1 SLOAD PUSH2 0x585 SWAP1 PUSH2 0x1BEC JUMP JUMPDEST DUP1 PUSH1 0x1F ADD PUSH1 0x20 DUP1 SWAP2 DIV MUL PUSH1 0x20 ADD PUSH1 0x40 MLOAD SWAP1 DUP2 ADD PUSH1 0x40 MSTORE DUP1 SWAP3 SWAP2 SWAP1 DUP2 DUP2 MSTORE PUSH1 0x20 ADD DUP3 DUP1 SLOAD PUSH2 0x5B1 SWAP1 PUSH2 0x1BEC JUMP JUMPDEST DUP1 ISZERO PUSH2 0x5FC JUMPI DUP1 PUSH1 0x1F LT PUSH2 0x5D3 JUMPI PUSH2 0x100 DUP1 DUP4 SLOAD DIV MUL DUP4 MSTORE SWAP2 PUSH1 0x20 ADD SWAP2 PUSH2 0x5FC JUMP JUMPDEST DUP3 ADD SWAP2 SWAP1 PUSH0 MSTORE PUSH1 0x20 PUSH0 KECCAK256 SWAP1 JUMPDEST DUP2 SLOAD DUP2 MSTORE SWAP1 PUSH1 0x1 ADD SWAP1 PUSH1 0x20 ADD DUP1 DUP4 GT PUSH2 0x5DF JUMPI DUP3 SWAP1 SUB PUSH1 0x1F AND DUP3 ADD SWAP2 JUMPDEST POP POP POP POP POP SWAP1 POP DUP3 JUMP JUMPDEST PUSH2 0x60E PUSH2 0x10DE JUMP JUMPDEST PUSH2 0x617 PUSH0 PUSH2 0x1165 JUMP JUMPDEST JUMP JUMPDEST PUSH0 PUSH20 0xFFFFFFFFFFFFFFFFFFFFFFFFFFFFFFFFFFFFFFFF AND PUSH1 0x1 PUSH0 SWAP1 SLOAD SWAP1 PUSH2 0x100 EXP SWAP1 DIV PUSH20 0xFFFFFFFFFFFFFFFFFFFFFFFFFFFFFFFFFFFFFFFF AND PUSH20 0xFFFFFFFFFFFFFFFFFFFFFFFFFFFFFFFFFFFFFFFF AND EQ ISZERO DUP1 ISZERO PUSH2 0x6C3 JUMPI POP PUSH1 0x1 PUSH0 SWAP1 SLOAD SWAP1 PUSH2 0x100 EXP SWAP1 DIV PUSH20 0xFFFFFFFFFFFFFFFFFFFFFFFFFFFFFFFFFFFFFFFF AND PUSH20 0xFFFFFFFFFFFFFFFFFFFFFFFFFFFFFFFFFFFFFFFF AND CALLER PUSH20 0xFFFFFFFFFFFFFFFFFFFFFFFFFFFFFFFFFFFFFFFF AND EQ ISZERO JUMPDEST ISZERO PUSH2 0x728 JUMPI CALLER PUSH1 0x1 PUSH0 SWAP1 SLOAD SWAP1 PUSH2 0x100 EXP SWAP1 DIV PUSH20 0xFFFFFFFFFFFFFFFFFFFFFFFFFFFFFFFFFFFFFFFF AND PUSH1 0x40 MLOAD PUSH32 0xE1130DBA00000000000000000000000000000000000000000000000000000000 DUP2 MSTORE PUSH1 0x4 ADD PUSH2 0x71F SWAP3 SWAP2 SWAP1 PUSH2 0x1E8B JUMP JUMPDEST PUSH1 0x40 MLOAD DUP1 SWAP2 SUB SWAP1 REVERT JUMPDEST PUSH0 PUSH0 SHL PUSH1 0x3 SLOAD EQ ISZERO DUP1 PUSH2 0x788 JUMPI POP PUSH0 PUSH20 0xFFFFFFFFFFFFFFFFFFFFFFFFFFFFFFFFFFFFFFFF AND PUSH1 0x2 PUSH0 SWAP1 SLOAD SWAP1 PUSH2 0x100 EXP SWAP1 DIV PUSH20 0xFFFFFFFFFFFFFFFFFFFFFFFFFFFFFFFFFFFFFFFF AND PUSH20 0xFFFFFFFFFFFFFFFFFFFFFFFFFFFFFFFFFFFFFFFF AND EQ ISZERO JUMPDEST DUP1 PUSH2 0x7D7 JUMPI POP PUSH0 PUSH1 0xB0 SHL PUSH22 0xFFFFFFFFFFFFFFFFFFFFFFFFFFFFFFFFFFFFFFFFFFFF NOT AND PUSH1 0x2 PUSH1 0x14 SWAP1 SLOAD SWAP1 PUSH2 0x100 EXP SWAP1 DIV PUSH1 0xB0 SHL PUSH22 0xFFFFFFFFFFFFFFFFFFFFFFFFFFFFFFFFFFFFFFFFFFFF NOT AND EQ ISZERO JUMPDEST ISZERO PUSH2 0xB08 JUMPI PUSH0 PUSH0 PUSH0 PUSH2 0x82B DUP8 DUP8 DUP1 DUP1 PUSH1 0x1F ADD PUSH1 0x20 DUP1 SWAP2 DIV MUL PUSH1 0x20 ADD PUSH1 0x40 MLOAD SWAP1 DUP2 ADD PUSH1 0x40 MSTORE DUP1 SWAP4 SWAP3 SWAP2 SWAP1 DUP2 DUP2 MSTORE PUSH1 0x20 ADD DUP4 DUP4 DUP1 DUP3 DUP5 CALLDATACOPY PUSH0 DUP2 DUP5 ADD MSTORE PUSH1 0x1F NOT PUSH1 0x1F DUP3 ADD AND SWAP1 POP DUP1 DUP4 ADD SWAP3 POP POP POP POP POP POP POP PUSH2 0x1226 JUMP JUMPDEST SWAP3 POP SWAP3 POP SWAP3 POP PUSH0 PUSH0 SHL PUSH1 0x3 SLOAD EQ ISZERO DUP1 ISZERO PUSH2 0x847 JUMPI POP PUSH1 0x3 SLOAD DUP4 EQ ISZERO JUMPDEST ISZERO PUSH2 0x88D JUMPI DUP3 PUSH1 0x3 SLOAD PUSH1 0x40 MLOAD PUSH32 0x9BFA39BA00000000000000000000000000000000000000000000000000000000 DUP2 MSTORE PUSH1 0x4 ADD PUSH2 0x884 SWAP3 SWAP2 SWAP1 PUSH2 0x1EB2 JUMP JUMPDEST PUSH1 0x40 MLOAD DUP1 SWAP2 SUB SWAP1 REVERT JUMPDEST PUSH0 PUSH20 0xFFFFFFFFFFFFFFFFFFFFFFFFFFFFFFFFFFFFFFFF AND PUSH1 0x2 PUSH0 SWAP1 SLOAD SWAP1 PUSH2 0x100 EXP SWAP1 DIV PUSH20 0xFFFFFFFFFFFFFFFFFFFFFFFFFFFFFFFFFFFFFFFF AND PUSH20 0xFFFFFFFFFFFFFFFFFFFFFFFFFFFFFFFFFFFFFFFF AND EQ ISZERO DUP1 ISZERO PUSH2 0x937 JUMPI POP PUSH1 0x2 PUSH0 SWAP1 SLOAD SWAP1 PUSH2 0x100 EXP SWAP1 DIV PUSH20 0xFFFFFFFFFFFFFFFFFFFFFFFFFFFFFFFFFFFFFFFF AND PUSH20 0xFFFFFFFFFFFFFFFFFFFFFFFFFFFFFFFFFFFFFFFF AND DUP2 PUSH20 0xFFFFFFFFFFFFFFFFFFFFFFFFFFFFFFFFFFFFFFFF AND EQ ISZERO JUMPDEST ISZERO PUSH2 0x99C JUMPI DUP1 PUSH1 0x2 PUSH0 SWAP1 SLOAD SWAP1 PUSH2 0x100 EXP SWAP1 DIV PUSH20 0xFFFFFFFFFFFFFFFFFFFFFFFFFFFFFFFFFFFFFFFF AND PUSH1 0x40 MLOAD PUSH32 0xB8A98AF800000000000000000000000000000000000000000000000000000000 DUP2 MSTORE PUSH1 0x4 ADD PUSH2 0x993 SWAP3 SWAP2 SWAP1 PUSH2 0x1E8B JUMP JUMPDEST PUSH1 0x40 MLOAD DUP1 SWAP2 SUB SWAP1 REVERT JUMPDEST PUSH0 PUSH1 0xB0 SHL PUSH22 0xFFFFFFFFFFFFFFFFFFFFFFFFFFFFFFFFFFFFFFFFFFFF NOT AND PUSH1 0x2 PUSH1 0x14 SWAP1 SLOAD SWAP1 PUSH2 0x100 EXP SWAP1 DIV PUSH1 0xB0 SHL PUSH22 0xFFFFFFFFFFFFFFFFFFFFFFFFFFFFFFFFFFFFFFFFFFFF NOT AND EQ PUSH2 0xB04 JUMPI PUSH0 PUSH20 0xFFFFFFFFFFFFFFFFFFFFFFFFFFFFFFFFFFFFFFFF AND PUSH1 0x2 PUSH0 SWAP1 SLOAD SWAP1 PUSH2 0x100 EXP SWAP1 DIV PUSH20 0xFFFFFFFFFFFFFFFFFFFFFFFFFFFFFFFFFFFFFFFF AND PUSH20 0xFFFFFFFFFFFFFFFFFFFFFFFFFFFFFFFFFFFFFFFF AND SUB PUSH2 0xA6D JUMPI PUSH1 0x40 MLOAD PUSH32 0x4847901100000000000000000000000000000000000000000000000000000000 DUP2 MSTORE PUSH1 0x4 ADD PUSH1 0x40 MLOAD DUP1 SWAP2 SUB SWAP1 REVERT JUMPDEST PUSH1 0x2 PUSH1 0x14 SWAP1 SLOAD SWAP1 PUSH2 0x100 EXP SWAP1 DIV PUSH1 0xB0 SHL PUSH22 0xFFFFFFFFFFFFFFFFFFFFFFFFFFFFFFFFFFFFFFFFFFFF NOT AND DUP3 PUSH22 0xFFFFFFFFFFFFFFFFFFFFFFFFFFFFFFFFFFFFFFFFFFFF NOT AND EQ PUSH2 0xB03 JUMPI DUP2 PUSH1 0x2 PUSH1 0x14 SWAP1 SLOAD SWAP1 PUSH2 0x100 EXP SWAP1 DIV PUSH1 0xB0 SHL PUSH1 0x40 MLOAD PUSH32 0x6C4609A600000000000000000000000000000000000000000000000000000000 DUP2 MSTORE PUSH1 0x4 ADD PUSH2 0xAFA SWAP3 SWAP2 SWAP1 PUSH2 0x1ED9 JUMP JUMPDEST PUSH1 0x40 MLOAD DUP1 SWAP2 SUB SWAP1 REVERT JUMPDEST JUMPDEST POP POP POP JUMPDEST PUSH2 0xB12 DUP3 DUP3 PUSH2 0x124B JUMP JUMPDEST POP POP POP POP JUMP JUMPDEST PUSH0 PUSH0 PUSH0 SWAP1 SLOAD SWAP1 PUSH2 0x100 EXP SWAP1 DIV PUSH20 0xFFFFFFFFFFFFFFFFFFFFFFFFFFFFFFFFFFFFFFFF AND SWAP1 POP SWAP1 JUMP JUMPDEST PUSH0 PUSH1 0x2 PUSH1 0x14 SWAP1 SLOAD SWAP1 PUSH2 0x100 EXP SWAP1 DIV PUSH1 0xB0 SHL SWAP1 POP SWAP1 JUMP JUMPDEST PUSH0 PUSH1 0x4 SLOAD SWAP1 POP SWAP1 JUMP JUMPDEST PUSH2 0xB66 PUSH2 0x10DE JUMP JUMPDEST PUSH0 PUSH1 0x2 PUSH1 0x14 SWAP1 SLOAD SWAP1 PUSH2 0x100 EXP SWAP1 DIV PUSH1 0xB0 SHL SWAP1 POP PUSH0 DUP4 DUP4 SWAP1 POP SUB PUSH2 0xC13 JUMPI PUSH0 PUSH1 0xB0 SHL PUSH1 0x2 PUSH1 0x14 PUSH2 0x100 EXP DUP2 SLOAD DUP2 PUSH10 0xFFFFFFFFFFFFFFFFFFFF MUL NOT AND SWAP1 DUP4 PUSH1 0xB0 SHR MUL OR SWAP1 SSTORE POP PUSH0 PUSH1 0xB0 SHL PUSH22 0xFFFFFFFFFFFFFFFFFFFFFFFFFFFFFFFFFFFFFFFFFFFF NOT AND DUP2 PUSH22 0xFFFFFFFFFFFFFFFFFFFFFFFFFFFFFFFFFFFFFFFFFFFF NOT AND PUSH32 0x1E7DDD09D504C82DCFC784A464B167469F5AAD967606EC4822D848EF9141DFA5 PUSH1 0x40 MLOAD PUSH1 0x40 MLOAD DUP1 SWAP2 SUB SWAP1 LOG3 POP PUSH2 0xDFE JUMP JUMPDEST PUSH0 PUSH1 0x2 DUP5 DUP5 PUSH1 0x40 MLOAD PUSH2 0xC26 SWAP3 SWAP2 SWAP1 PUSH2 0x1F2E JUMP JUMPDEST PUSH1 0x20 PUSH1 0x40 MLOAD DUP1 DUP4 SUB DUP2 DUP6 GAS STATICCALL ISZERO DUP1 ISZERO PUSH2 0xC41 JUMPI RETURNDATASIZE PUSH0 PUSH0 RETURNDATACOPY RETURNDATASIZE PUSH0 REVERT JUMPDEST POP POP POP PUSH1 0x40 MLOAD RETURNDATASIZE PUSH1 0x1F NOT PUSH1 0x1F DUP3 ADD AND DUP3 ADD DUP1 PUSH1 0x40 MSTORE POP DUP2 ADD SWAP1 PUSH2 0xC64 SWAP2 SWAP1 PUSH2 0x1F5A JUMP JUMPDEST SWAP1 POP PUSH0 PUSH2 0xC8F DUP3 PUSH1 0x40 MLOAD PUSH1 0x20 ADD PUSH2 0xC7B SWAP2 SWAP1 PUSH2 0x1FA5 JUMP JUMPDEST PUSH1 0x40 MLOAD PUSH1 0x20 DUP2 DUP4 SUB SUB DUP2 MSTORE SWAP1 PUSH1 0x40 MSTORE PUSH2 0x1270 JUMP JUMPDEST SWAP1 POP PUSH0 PUSH1 0xA PUSH8 0xFFFFFFFFFFFFFFFF DUP2 GT ISZERO PUSH2 0xCAD JUMPI PUSH2 0xCAC PUSH2 0x1595 JUMP JUMPDEST JUMPDEST PUSH1 0x40 MLOAD SWAP1 DUP1 DUP3 MSTORE DUP1 PUSH1 0x1F ADD PUSH1 0x1F NOT AND PUSH1 0x20 ADD DUP3 ADD PUSH1 0x40 MSTORE DUP1 ISZERO PUSH2 0xCDF JUMPI DUP2 PUSH1 0x20 ADD PUSH1 0x1 DUP3 MUL DUP1 CALLDATASIZE DUP4 CALLDATACOPY DUP1 DUP3 ADD SWAP2 POP POP SWAP1 POP JUMPDEST POP SWAP1 POP PUSH0 PUSH0 SWAP1 POP JUMPDEST PUSH1 0xA DUP2 LT ISZERO PUSH2 0xD5C JUMPI DUP3 DUP2 DUP2 MLOAD DUP2 LT PUSH2 0xD03 JUMPI PUSH2 0xD02 PUSH2 0x1FBF JUMP JUMPDEST JUMPDEST PUSH1 0x20 ADD ADD MLOAD PUSH1 0xF8 SHR PUSH1 0xF8 SHL DUP3 DUP3 DUP2 MLOAD DUP2 LT PUSH2 0xD21 JUMPI PUSH2 0xD20 PUSH2 0x1FBF JUMP JUMPDEST JUMPDEST PUSH1 0x20 ADD ADD SWAP1 PUSH31 0xFFFFFFFFFFFFFFFFFFFFFFFFFFFFFFFFFFFFFFFFFFFFFFFFFFFFFFFFFFFFFF NOT AND SWAP1 DUP2 PUSH0 BYTE SWAP1 MSTORE8 POP DUP1 DUP1 PUSH1 0x1 ADD SWAP2 POP POP PUSH2 0xCE7 JUMP JUMPDEST POP DUP1 PUSH2 0xD67 SWAP1 PUSH2 0x2019 JUMP JUMPDEST PUSH1 0x2 PUSH1 0x14 PUSH2 0x100 EXP DUP2 SLOAD DUP2 PUSH10 0xFFFFFFFFFFFFFFFFFFFF MUL NOT AND SWAP1 DUP4 PUSH1 0xB0 SHR MUL OR SWAP1 SSTORE POP PUSH1 0x2 PUSH1 0x14 SWAP1 SLOAD SWAP1 PUSH2 0x100 EXP SWAP1 DIV PUSH1 0xB0 SHL PUSH22 0xFFFFFFFFFFFFFFFFFFFFFFFFFFFFFFFFFFFFFFFFFFFF NOT AND DUP5 PUSH22 0xFFFFFFFFFFFFFFFFFFFFFFFFFFFFFFFFFFFFFFFFFFFF NOT AND PUSH32 0x1E7DDD09D504C82DCFC784A464B167469F5AAD967606EC4822D848EF9141DFA5 PUSH1 0x40 MLOAD PUSH1 0x40 MLOAD DUP1 SWAP2 SUB SWAP1 LOG3 POP POP POP POP JUMPDEST POP POP JUMP JUMPDEST PUSH2 0xE0A PUSH2 0x10DE JUMP JUMPDEST PUSH0 PUSH1 0x3 SLOAD SWAP1 POP DUP2 PUSH1 0x3 DUP2 SWAP1 SSTORE POP DUP2 DUP2 PUSH32 0xDBEDCDF21925E053B4C574EAE180D7F2883235AB4976ECC0873598A2A999B03 PUSH1 0x40 MLOAD PUSH1 0x40 MLOAD DUP1 SWAP2 SUB SWAP1 LOG3 POP POP JUMP JUMPDEST PUSH2 0xE51 PUSH2 0x10DE JUMP JUMPDEST PUSH0 PUSH1 0x2 PUSH0 SWAP1 SLOAD SWAP1 PUSH2 0x100 EXP SWAP1 DIV PUSH20 0xFFFFFFFFFFFFFFFFFFFFFFFFFFFFFFFFFFFFFFFF AND SWAP1 POP DUP2 PUSH1 0x2 PUSH0 PUSH2 0x100 EXP DUP2 SLOAD DUP2 PUSH20 0xFFFFFFFFFFFFFFFFFFFFFFFFFFFFFFFFFFFFFFFF MUL NOT AND SWAP1 DUP4 PUSH20 0xFFFFFFFFFFFFFFFFFFFFFFFFFFFFFFFFFFFFFFFF AND MUL OR SWAP1 SSTORE POP DUP2 PUSH20 0xFFFFFFFFFFFFFFFFFFFFFFFFFFFFFFFFFFFFFFFF AND DUP2 PUSH20 0xFFFFFFFFFFFFFFFFFFFFFFFFFFFFFFFFFFFFFFFF AND PUSH32 0x3321CDA85C145617E47418AA14255E9DCBEC53A753778E57591703B89A3CAD31 PUSH1 0x40 MLOAD PUSH1 0x40 MLOAD DUP1 SWAP2 SUB SWAP1 LOG3 POP POP JUMP JUMPDEST PUSH2 0xF1C PUSH2 0x10DE JUMP JUMPDEST PUSH0 PUSH1 0x1 PUSH0 SWAP1 SLOAD SWAP1 PUSH2 0x100 EXP SWAP1 DIV PUSH20 0xFFFFFFFFFFFFFFFFFFFFFFFFFFFFFFFFFFFFFFFF AND SWAP1 POP PUSH0 PUSH20 0xFFFFFFFFFFFFFFFFFFFFFFFFFFFFFFFFFFFFFFFF AND DUP3 PUSH20 0xFFFFFFFFFFFFFFFFFFFFFFFFFFFFFFFFFFFFFFFF AND SUB PUSH2 0xFAA JUMPI PUSH32 0x704DA7DB165C79C1E33D542C079333BBDE970A733032D2F95FEC8FB7D770CBF7 PUSH1 0x40 MLOAD PUSH2 0xFA1 SWAP1 PUSH2 0x20EF JUMP JUMPDEST PUSH1 0x40 MLOAD DUP1 SWAP2 SUB SWAP1 LOG1 JUMPDEST DUP2 PUSH1 0x1 PUSH0 PUSH2 0x100 EXP DUP2 SLOAD DUP2 PUSH20 0xFFFFFFFFFFFFFFFFFFFFFFFFFFFFFFFFFFFFFFFF MUL NOT AND SWAP1 DUP4 PUSH20 0xFFFFFFFFFFFFFFFFFFFFFFFFFFFFFFFFFFFFFFFF AND MUL OR SWAP1 SSTORE POP DUP2 PUSH20 0xFFFFFFFFFFFFFFFFFFFFFFFFFFFFFFFFFFFFFFFF AND DUP2 PUSH20 0xFFFFFFFFFFFFFFFFFFFFFFFFFFFFFFFFFFFFFFFF AND PUSH32 0x39AD854736757070884DD787EF1A7F58DB33546639D1F3EFDDCF4A33FB8997E PUSH1 0x40 MLOAD PUSH1 0x40 MLOAD DUP1 SWAP2 SUB SWAP1 LOG3 POP POP JUMP JUMPDEST PUSH0 PUSH1 0x4 SLOAD SWAP1 POP SWAP1 JUMP JUMPDEST PUSH2 0x1059 PUSH2 0x10DE JUMP JUMPDEST PUSH0 PUSH20 0xFFFFFFFFFFFFFFFFFFFFFFFFFFFFFFFFFFFFFFFF AND DUP2 PUSH20 0xFFFFFFFFFFFFFFFFFFFFFFFFFFFFFFFFFFFFFFFF AND SUB PUSH2 0x10C9 JUMPI PUSH0 PUSH1 0x40 MLOAD PUSH32 0x1E4FBDF700000000000000000000000000000000000000000000000000000000 DUP2 MSTORE PUSH1 0x4 ADD PUSH2 0x10C0 SWAP2 SWAP1 PUSH2 0x17F4 JUMP JUMPDEST PUSH1 0x40 MLOAD DUP1 SWAP2 SUB SWAP1 REVERT JUMPDEST PUSH2 0x10D2 DUP2 PUSH2 0x1165 JUMP JUMPDEST POP JUMP JUMPDEST PUSH0 PUSH1 0x3 SLOAD SWAP1 POP SWAP1 JUMP JUMPDEST PUSH2 0x10E6 PUSH2 0x14B2 JUMP JUMPDEST PUSH20 0xFFFFFFFFFFFFFFFFFFFFFFFFFFFFFFFFFFFFFFFF AND PUSH2 0x1104 PUSH2 0xB18 JUMP JUMPDEST PUSH20 0xFFFFFFFFFFFFFFFFFFFFFFFFFFFFFFFFFFFFFFFF AND EQ PUSH2 0x1163 JUMPI PUSH2 0x1127 PUSH2 0x14B2 JUMP JUMPDEST PUSH1 0x40 MLOAD PUSH32 0x118CDAA700000000000000000000000000000000000000000000000000000000 DUP2 MSTORE PUSH1 0x4 ADD PUSH2 0x115A SWAP2 SWAP1 PUSH2 0x17F4 JUMP JUMPDEST PUSH1 0x40 MLOAD DUP1 SWAP2 SUB SWAP1 REVERT JUMPDEST JUMP JUMPDEST PUSH0 PUSH0 PUSH0 SWAP1 SLOAD SWAP1 PUSH2 0x100 EXP SWAP1 DIV PUSH20 0xFFFFFFFFFFFFFFFFFFFFFFFFFFFFFFFFFFFFFFFF AND SWAP1 POP DUP2 PUSH0 PUSH0 PUSH2 0x100 EXP DUP2 SLOAD DUP2 PUSH20 0xFFFFFFFFFFFFFFFFFFFFFFFFFFFFFFFFFFFFFFFF MUL NOT AND SWAP1 DUP4 PUSH20 0xFFFFFFFFFFFFFFFFFFFFFFFFFFFFFFFFFFFFFFFF AND MUL OR SWAP1 SSTORE POP DUP2 PUSH20 0xFFFFFFFFFFFFFFFFFFFFFFFFFFFFFFFFFFFFFFFF AND DUP2 PUSH20 0xFFFFFFFFFFFFFFFFFFFFFFFFFFFFFFFFFFFFFFFF AND PUSH32 0x8BE0079C531659141344CD1FD0A4F28419497F9722A3DAAFE3B4186F6B6457E0 PUSH1 0x40 MLOAD PUSH1 0x40 MLOAD DUP1 SWAP2 SUB SWAP1 LOG3 POP POP JUMP JUMPDEST PUSH0 PUSH0 PUSH0 PUSH1 0x20 DUP5 ADD MLOAD SWAP3 POP PUSH1 0x40 DUP5 ADD MLOAD SWAP2 POP PUSH1 0x4A DUP5 ADD MLOAD PUSH1 0x8 PUSH1 0xC MUL SHR SWAP1 POP SWAP2 SWAP4 SWAP1 SWAP3 POP JUMP JUMPDEST PUSH0 PUSH0 DUP4 DUP4 DUP2 ADD SWAP1 PUSH2 0x125C SWAP2 SWAP1 PUSH2 0x175B JUMP JUMPDEST SWAP2 POP SWAP2 POP PUSH2 0x126A DUP3 DUP3 PUSH2 0x46E JUMP JUMPDEST POP POP POP POP JUMP JUMPDEST PUSH1 0x60 PUSH0 PUSH1 0x2 DUP4 MLOAD PUSH2 0x1281 SWAP2 SWAP1 PUSH2 0x213A JUMP JUMPDEST PUSH8 0xFFFFFFFFFFFFFFFF DUP2 GT ISZERO PUSH2 0x129A JUMPI PUSH2 0x1299 PUSH2 0x1595 JUMP JUMPDEST JUMPDEST PUSH1 0x40 MLOAD SWAP1 DUP1 DUP3 MSTORE DUP1 PUSH1 0x1F ADD PUSH1 0x1F NOT AND PUSH1 0x20 ADD DUP3 ADD PUSH1 0x40 MSTORE DUP1 ISZERO PUSH2 0x12CC JUMPI DUP2 PUSH1 0x20 ADD PUSH1 0x1 DUP3 MUL DUP1 CALLDATASIZE DUP4 CALLDATACOPY DUP1 DUP3 ADD SWAP2 POP POP SWAP1 POP JUMPDEST POP SWAP1 POP PUSH0 PUSH0 SWAP1 POP JUMPDEST DUP4 MLOAD DUP2 LT ISZERO PUSH2 0x14A8 JUMPI PUSH1 0x40 MLOAD DUP1 PUSH1 0x40 ADD PUSH1 0x40 MSTORE DUP1 PUSH1 0x10 DUP2 MSTORE PUSH1 0x20 ADD PUSH32 0x3031323334353637383961626364656600000000000000000000000000000000 DUP2 MSTORE POP PUSH1 0x4 DUP6 DUP4 DUP2 MLOAD DUP2 LT PUSH2 0x1328 JUMPI PUSH2 0x1327 PUSH2 0x1FBF JUMP JUMPDEST JUMPDEST PUSH1 0x20 ADD ADD MLOAD PUSH1 0xF8 SHR PUSH1 0xF8 SHL PUSH31 0xFFFFFFFFFFFFFFFFFFFFFFFFFFFFFFFFFFFFFFFFFFFFFFFFFFFFFFFFFFFFFF NOT AND SWAP1 SHR PUSH1 0xF8 SHR PUSH1 0xFF AND DUP2 MLOAD DUP2 LT PUSH2 0x136E JUMPI PUSH2 0x136D PUSH2 0x1FBF JUMP JUMPDEST JUMPDEST PUSH1 0x20 ADD ADD MLOAD PUSH1 0xF8 SHR PUSH1 0xF8 SHL DUP3 PUSH1 0x2 DUP4 PUSH2 0x1387 SWAP2 SWAP1 PUSH2 0x213A JUMP JUMPDEST DUP2 MLOAD DUP2 LT PUSH2 0x1398 JUMPI PUSH2 0x1397 PUSH2 0x1FBF JUMP JUMPDEST JUMPDEST PUSH1 0x20 ADD ADD SWAP1 PUSH31 0xFFFFFFFFFFFFFFFFFFFFFFFFFFFFFFFFFFFFFFFFFFFFFFFFFFFFFFFFFFFFFF NOT AND SWAP1 DUP2 PUSH0 BYTE SWAP1 MSTORE8 POP PUSH1 0x40 MLOAD DUP1 PUSH1 0x40 ADD PUSH1 0x40 MSTORE DUP1 PUSH1 0x10 DUP2 MSTORE PUSH1 0x20 ADD PUSH32 0x3031323334353637383961626364656600000000000000000000000000000000 DUP2 MSTORE POP PUSH1 0xF PUSH1 0xF8 SHL DUP6 DUP4 DUP2 MLOAD DUP2 LT PUSH2 0x1414 JUMPI PUSH2 0x1413 PUSH2 0x1FBF JUMP JUMPDEST JUMPDEST PUSH1 0x20 ADD ADD MLOAD PUSH1 0xF8 SHR PUSH1 0xF8 SHL AND PUSH1 0xF8 SHR PUSH1 0xFF AND DUP2 MLOAD DUP2 LT PUSH2 0x1437 JUMPI PUSH2 0x1436 PUSH2 0x1FBF JUMP JUMPDEST JUMPDEST PUSH1 0x20 ADD ADD MLOAD PUSH1 0xF8 SHR PUSH1 0xF8 SHL DUP3 PUSH1 0x1 PUSH1 0x2 DUP5 PUSH2 0x1452 SWAP2 SWAP1 PUSH2 0x213A JUMP JUMPDEST PUSH2 0x145C SWAP2 SWAP1 PUSH2 0x217B JUMP JUMPDEST DUP2 MLOAD DUP2 LT PUSH2 0x146D JUMPI PUSH2 0x146C PUSH2 0x1FBF JUMP JUMPDEST JUMPDEST PUSH1 0x20 ADD ADD SWAP1 PUSH31 0xFFFFFFFFFFFFFFFFFFFFFFFFFFFFFFFFFFFFFFFFFFFFFFFFFFFFFFFFFFFFFF NOT AND SWAP1 DUP2 PUSH0 BYTE SWAP1 MSTORE8 POP DUP1 DUP1 PUSH1 0x1 ADD SWAP2 POP POP PUSH2 0x12D4 JUMP JUMPDEST POP DUP1 SWAP2 POP POP SWAP2 SWAP1 POP JUMP JUMPDEST PUSH0 CALLER SWAP1 POP SWAP1 JUMP JUMPDEST PUSH0 PUSH1 0x40 MLOAD SWAP1 POP SWAP1 JUMP JUMPDEST PUSH0 PUSH0 REVERT JUMPDEST PUSH0 PUSH0 REVERT JUMPDEST PUSH0 PUSH32 0xFFFFFFFF00000000000000000000000000000000000000000000000000000000 DUP3 AND SWAP1 POP SWAP2 SWAP1 POP JUMP JUMPDEST PUSH2 0x14FE DUP2 PUSH2 0x14CA JUMP JUMPDEST DUP2 EQ PUSH2 0x1508 JUMPI PUSH0 PUSH0 REVERT JUMPDEST POP JUMP JUMPDEST PUSH0 DUP2 CALLDATALOAD SWAP1 POP PUSH2 0x1519 DUP2 PUSH2 0x14F5 JUMP JUMPDEST SWAP3 SWAP2 POP POP JUMP JUMPDEST PUSH0 PUSH1 0x20 DUP3 DUP5 SUB SLT ISZERO PUSH2 0x1534 JUMPI PUSH2 0x1533 PUSH2 0x14C2 JUMP JUMPDEST JUMPDEST PUSH0 PUSH2 0x1541 DUP5 DUP3 DUP6 ADD PUSH2 0x150B JUMP JUMPDEST SWAP2 POP POP SWAP3 SWAP2 POP POP JUMP JUMPDEST PUSH0 DUP2 ISZERO ISZERO SWAP1 POP SWAP2 SWAP1 POP JUMP JUMPDEST PUSH2 0x155E DUP2 PUSH2 0x154A JUMP JUMPDEST DUP3 MSTORE POP POP JUMP JUMPDEST PUSH0 PUSH1 0x20 DUP3 ADD SWAP1 POP PUSH2 0x1577 PUSH0 DUP4 ADD DUP5 PUSH2 0x1555 JUMP JUMPDEST SWAP3 SWAP2 POP POP JUMP JUMPDEST PUSH0 PUSH0 REVERT JUMPDEST PUSH0 PUSH0 REVERT JUMPDEST PUSH0 PUSH1 0x1F NOT PUSH1 0x1F DUP4 ADD AND SWAP1 POP SWAP2 SWAP1 POP JUMP JUMPDEST PUSH32 0x4E487B7100000000000000000000000000000000000000000000000000000000 PUSH0 MSTORE PUSH1 0x41 PUSH1 0x4 MSTORE PUSH1 0x24 PUSH0 REVERT JUMPDEST PUSH2 0x15CB DUP3 PUSH2 0x1585 JUMP JUMPDEST DUP2 ADD DUP2 DUP2 LT PUSH8 0xFFFFFFFFFFFFFFFF DUP3 GT OR ISZERO PUSH2 0x15EA JUMPI PUSH2 0x15E9 PUSH2 0x1595 JUMP JUMPDEST JUMPDEST DUP1 PUSH1 0x40 MSTORE POP POP POP JUMP JUMPDEST PUSH0 PUSH2 0x15FC PUSH2 0x14B9 JUMP JUMPDEST SWAP1 POP PUSH2 0x1608 DUP3 DUP3 PUSH2 0x15C2 JUMP JUMPDEST SWAP2 SWAP1 POP JUMP JUMPDEST PUSH0 PUSH8 0xFFFFFFFFFFFFFFFF DUP3 GT ISZERO PUSH2 0x1627 JUMPI PUSH2 0x1626 PUSH2 0x1595 JUMP JUMPDEST JUMPDEST PUSH2 0x1630 DUP3 PUSH2 0x1585 JUMP JUMPDEST SWAP1 POP PUSH1 0x20 DUP2 ADD SWAP1 POP SWAP2 SWAP1 POP JUMP JUMPDEST DUP3 DUP2 DUP4 CALLDATACOPY PUSH0 DUP4 DUP4 ADD MSTORE POP POP POP JUMP JUMPDEST PUSH0 PUSH2 0x165D PUSH2 0x1658 DUP5 PUSH2 0x160D JUMP JUMPDEST PUSH2 0x15F3 JUMP JUMPDEST SWAP1 POP DUP3 DUP2 MSTORE PUSH1 0x20 DUP2 ADD DUP5 DUP5 DUP5 ADD GT ISZERO PUSH2 0x1679 JUMPI PUSH2 0x1678 PUSH2 0x1581 JUMP JUMPDEST JUMPDEST PUSH2 0x1684 DUP5 DUP3 DUP6 PUSH2 0x163D JUMP JUMPDEST POP SWAP4 SWAP3 POP POP POP JUMP JUMPDEST PUSH0 DUP3 PUSH1 0x1F DUP4 ADD SLT PUSH2 0x16A0 JUMPI PUSH2 0x169F PUSH2 0x157D JUMP JUMPDEST JUMPDEST DUP2 CALLDATALOAD PUSH2 0x16B0 DUP5 DUP3 PUSH1 0x20 DUP7 ADD PUSH2 0x164B JUMP JUMPDEST SWAP2 POP POP SWAP3 SWAP2 POP POP JUMP JUMPDEST PUSH0 PUSH1 0x20 DUP3 DUP5 SUB SLT ISZERO PUSH2 0x16CE JUMPI PUSH2 0x16CD PUSH2 0x14C2 JUMP JUMPDEST JUMPDEST PUSH0 DUP3 ADD CALLDATALOAD PUSH8 0xFFFFFFFFFFFFFFFF DUP2 GT ISZERO PUSH2 0x16EB JUMPI PUSH2 0x16EA PUSH2 0x14C6 JUMP JUMPDEST JUMPDEST PUSH2 0x16F7 DUP5 DUP3 DUP6 ADD PUSH2 0x168C JUMP JUMPDEST SWAP2 POP POP SWAP3 SWAP2 POP POP JUMP JUMPDEST PUSH0 DUP2 SWAP1 POP SWAP2 SWAP1 POP JUMP JUMPDEST PUSH2 0x1712 DUP2 PUSH2 0x1700 JUMP JUMPDEST DUP3 MSTORE POP POP JUMP JUMPDEST PUSH0 PUSH1 0x20 DUP3 ADD SWAP1 POP PUSH2 0x172B PUSH0 DUP4 ADD DUP5 PUSH2 0x1709 JUMP JUMPDEST SWAP3 SWAP2 POP POP JUMP JUMPDEST PUSH2 0x173A DUP2 PUSH2 0x1700 JUMP JUMPDEST DUP2 EQ PUSH2 0x1744 JUMPI PUSH0 PUSH0 REVERT JUMPDEST POP JUMP JUMPDEST PUSH0 DUP2 CALLDATALOAD SWAP1 POP PUSH2 0x1755 DUP2 PUSH2 0x1731 JUMP JUMPDEST SWAP3 SWAP2 POP POP JUMP JUMPDEST PUSH0 PUSH0 PUSH1 0x40 DUP4 DUP6 SUB SLT ISZERO PUSH2 0x1771 JUMPI PUSH2 0x1770 PUSH2 0x14C2 JUMP JUMPDEST JUMPDEST PUSH0 DUP4 ADD CALLDATALOAD PUSH8 0xFFFFFFFFFFFFFFFF DUP2 GT ISZERO PUSH2 0x178E JUMPI PUSH2 0x178D PUSH2 0x14C6 JUMP JUMPDEST JUMPDEST PUSH2 0x179A DUP6 DUP3 DUP7 ADD PUSH2 0x168C JUMP JUMPDEST SWAP3 POP POP PUSH1 0x20 PUSH2 0x17AB DUP6 DUP3 DUP7 ADD PUSH2 0x1747 JUMP JUMPDEST SWAP2 POP POP SWAP3 POP SWAP3 SWAP1 POP JUMP JUMPDEST PUSH0 PUSH20 0xFFFFFFFFFFFFFFFFFFFFFFFFFFFFFFFFFFFFFFFF DUP3 AND SWAP1 POP SWAP2 SWAP1 POP JUMP JUMPDEST PUSH0 PUSH2 0x17DE DUP3 PUSH2 0x17B5 JUMP JUMPDEST SWAP1 POP SWAP2 SWAP1 POP JUMP JUMPDEST PUSH2 0x17EE DUP2 PUSH2 0x17D4 JUMP JUMPDEST DUP3 MSTORE POP POP JUMP JUMPDEST PUSH0 PUSH1 0x20 DUP3 ADD SWAP1 POP PUSH2 0x1807 PUSH0 DUP4 ADD DUP5 PUSH2 0x17E5 JUMP JUMPDEST SWAP3 SWAP2 POP POP JUMP JUMPDEST PUSH0 PUSH1 0x20 DUP3 DUP5 SUB SLT ISZERO PUSH2 0x1822 JUMPI PUSH2 0x1821 PUSH2 0x14C2 JUMP JUMPDEST JUMPDEST PUSH0 PUSH2 0x182F DUP5 DUP3 DUP6 ADD PUSH2 0x1747 JUMP JUMPDEST SWAP2 POP POP SWAP3 SWAP2 POP POP JUMP JUMPDEST PUSH0 DUP2 MLOAD SWAP1 POP SWAP2 SWAP1 POP JUMP JUMPDEST PUSH0 DUP3 DUP3 MSTORE PUSH1 0x20 DUP3 ADD SWAP1 POP SWAP3 SWAP2 POP POP JUMP JUMPDEST DUP3 DUP2 DUP4 MCOPY PUSH0 DUP4 DUP4 ADD MSTORE POP POP POP JUMP JUMPDEST PUSH0 PUSH2 0x186A DUP3 PUSH2 0x1838 JUMP JUMPDEST PUSH2 0x1874 DUP2 DUP6 PUSH2 0x1842 JUMP JUMPDEST SWAP4 POP PUSH2 0x1884 DUP2 DUP6 PUSH1 0x20 DUP7 ADD PUSH2 0x1852 JUMP JUMPDEST PUSH2 0x188D DUP2 PUSH2 0x1585 JUMP JUMPDEST DUP5 ADD SWAP2 POP POP SWAP3 SWAP2 POP POP JUMP JUMPDEST PUSH0 PUSH1 0x40 DUP3 ADD SWAP1 POP PUSH2 0x18AB PUSH0 DUP4 ADD DUP6 PUSH2 0x1709 JUMP JUMPDEST DUP2 DUP2 SUB PUSH1 0x20 DUP4 ADD MSTORE PUSH2 0x18BD DUP2 DUP5 PUSH2 0x1860 JUMP JUMPDEST SWAP1 POP SWAP4 SWAP3 POP POP POP JUMP JUMPDEST PUSH0 PUSH0 REVERT JUMPDEST PUSH0 PUSH0 REVERT JUMPDEST PUSH0 PUSH0 DUP4 PUSH1 0x1F DUP5 ADD SLT PUSH2 0x18E3 JUMPI PUSH2 0x18E2 PUSH2 0x157D JUMP JUMPDEST JUMPDEST DUP3 CALLDATALOAD SWAP1 POP PUSH8 0xFFFFFFFFFFFFFFFF DUP2 GT ISZERO PUSH2 0x1900 JUMPI PUSH2 0x18FF PUSH2 0x18C6 JUMP JUMPDEST JUMPDEST PUSH1 0x20 DUP4 ADD SWAP2 POP DUP4 PUSH1 0x1 DUP3 MUL DUP4 ADD GT ISZERO PUSH2 0x191C JUMPI PUSH2 0x191B PUSH2 0x18CA JUMP JUMPDEST JUMPDEST SWAP3 POP SWAP3 SWAP1 POP JUMP JUMPDEST PUSH0 PUSH0 PUSH0 PUSH0 PUSH1 0x40 DUP6 DUP8 SUB SLT ISZERO PUSH2 0x193B JUMPI PUSH2 0x193A PUSH2 0x14C2 JUMP JUMPDEST JUMPDEST PUSH0 DUP6 ADD CALLDATALOAD PUSH8 0xFFFFFFFFFFFFFFFF DUP2 GT ISZERO PUSH2 0x1958 JUMPI PUSH2 0x1957 PUSH2 0x14C6 JUMP JUMPDEST JUMPDEST PUSH2 0x1964 DUP8 DUP3 DUP9 ADD PUSH2 0x18CE JUMP JUMPDEST SWAP5 POP SWAP5 POP POP PUSH1 0x20 DUP6 ADD CALLDATALOAD PUSH8 0xFFFFFFFFFFFFFFFF DUP2 GT ISZERO PUSH2 0x1987 JUMPI PUSH2 0x1986 PUSH2 0x14C6 JUMP JUMPDEST JUMPDEST PUSH2 0x1993 DUP8 DUP3 DUP9 ADD PUSH2 0x18CE JUMP JUMPDEST SWAP3 POP SWAP3 POP POP SWAP3 SWAP6 SWAP2 SWAP5 POP SWAP3 POP JUMP JUMPDEST PUSH0 PUSH32 0xFFFFFFFFFFFFFFFFFFFF00000000000000000000000000000000000000000000 DUP3 AND SWAP1 POP SWAP2 SWAP1 POP JUMP JUMPDEST PUSH2 0x19D5 DUP2 PUSH2 0x19A1 JUMP JUMPDEST DUP3 MSTORE POP POP JUMP JUMPDEST PUSH0 PUSH1 0x20 DUP3 ADD SWAP1 POP PUSH2 0x19EE PUSH0 DUP4 ADD DUP5 PUSH2 0x19CC JUMP JUMPDEST SWAP3 SWAP2 POP POP JUMP JUMPDEST PUSH0 PUSH0 DUP4 PUSH1 0x1F DUP5 ADD SLT PUSH2 0x1A09 JUMPI PUSH2 0x1A08 PUSH2 0x157D JUMP JUMPDEST JUMPDEST DUP3 CALLDATALOAD SWAP1 POP PUSH8 0xFFFFFFFFFFFFFFFF DUP2 GT ISZERO PUSH2 0x1A26 JUMPI PUSH2 0x1A25 PUSH2 0x18C6 JUMP JUMPDEST JUMPDEST PUSH1 0x20 DUP4 ADD SWAP2 POP DUP4 PUSH1 0x1 DUP3 MUL DUP4 ADD GT ISZERO PUSH2 0x1A42 JUMPI PUSH2 0x1A41 PUSH2 0x18CA JUMP JUMPDEST JUMPDEST SWAP3 POP SWAP3 SWAP1 POP JUMP JUMPDEST PUSH0 PUSH0 PUSH1 0x20 DUP4 DUP6 SUB SLT ISZERO PUSH2 0x1A5F JUMPI PUSH2 0x1A5E PUSH2 0x14C2 JUMP JUMPDEST JUMPDEST PUSH0 DUP4 ADD CALLDATALOAD PUSH8 0xFFFFFFFFFFFFFFFF DUP2 GT ISZERO PUSH2 0x1A7C JUMPI PUSH2 0x1A7B PUSH2 0x14C6 JUMP JUMPDEST JUMPDEST PUSH2 0x1A88 DUP6 DUP3 DUP7 ADD PUSH2 0x19F4 JUMP JUMPDEST SWAP3 POP SWAP3 POP POP SWAP3 POP SWAP3 SWAP1 POP JUMP JUMPDEST PUSH0 DUP2 SWAP1 POP SWAP2 SWAP1 POP JUMP JUMPDEST PUSH2 0x1AA6 DUP2 PUSH2 0x1A94 JUMP JUMPDEST DUP2 EQ PUSH2 0x1AB0 JUMPI PUSH0 PUSH0 REVERT JUMPDEST POP JUMP JUMPDEST PUSH0 DUP2 CALLDATALOAD SWAP1 POP PUSH2 0x1AC1 DUP2 PUSH2 0x1A9D JUMP JUMPDEST SWAP3 SWAP2 POP POP JUMP JUMPDEST PUSH0 PUSH1 0x20 DUP3 DUP5 SUB SLT ISZERO PUSH2 0x1ADC JUMPI PUSH2 0x1ADB PUSH2 0x14C2 JUMP JUMPDEST JUMPDEST PUSH0 PUSH2 0x1AE9 DUP5 DUP3 DUP6 ADD PUSH2 0x1AB3 JUMP JUMPDEST SWAP2 POP POP SWAP3 SWAP2 POP POP JUMP JUMPDEST PUSH2 0x1AFB DUP2 PUSH2 0x17D4 JUMP JUMPDEST DUP2 EQ PUSH2 0x1B05 JUMPI PUSH0 PUSH0 REVERT JUMPDEST POP JUMP JUMPDEST PUSH0 DUP2 CALLDATALOAD SWAP1 POP PUSH2 0x1B16 DUP2 PUSH2 0x1AF2 JUMP JUMPDEST SWAP3 SWAP2 POP POP JUMP JUMPDEST PUSH0 PUSH1 0x20 DUP3 DUP5 SUB SLT ISZERO PUSH2 0x1B31 JUMPI PUSH2 0x1B30 PUSH2 0x14C2 JUMP JUMPDEST JUMPDEST PUSH0 PUSH2 0x1B3E DUP5 DUP3 DUP6 ADD PUSH2 0x1B08 JUMP JUMPDEST SWAP2 POP POP SWAP3 SWAP2 POP POP JUMP JUMPDEST PUSH2 0x1B50 DUP2 PUSH2 0x1A94 JUMP JUMPDEST DUP3 MSTORE POP POP JUMP JUMPDEST PUSH0 PUSH1 0x20 DUP3 ADD SWAP1 POP PUSH2 0x1B69 PUSH0 DUP4 ADD DUP5 PUSH2 0x1B47 JUMP JUMPDEST SWAP3 SWAP2 POP POP JUMP JUMPDEST PUSH0 DUP2 SWAP1 POP SWAP3 SWAP2 POP POP JUMP JUMPDEST PUSH0 PUSH2 0x1B83 DUP3 PUSH2 0x1838 JUMP JUMPDEST PUSH2 0x1B8D DUP2 DUP6 PUSH2 0x1B6F JUMP JUMPDEST SWAP4 POP PUSH2 0x1B9D DUP2 DUP6 PUSH1 0x20 DUP7 ADD PUSH2 0x1852 JUMP JUMPDEST DUP1 DUP5 ADD SWAP2 POP POP SWAP3 SWAP2 POP POP JUMP JUMPDEST PUSH0 PUSH2 0x1BB4 DUP3 DUP5 PUSH2 0x1B79 JUMP JUMPDEST SWAP2 POP DUP2 SWAP1 POP SWAP3 SWAP2 POP POP JUMP JUMPDEST PUSH32 0x4E487B7100000000000000000000000000000000000000000000000000000000 PUSH0 MSTORE PUSH1 0x22 PUSH1 0x4 MSTORE PUSH1 0x24 PUSH0 REVERT JUMPDEST PUSH0 PUSH1 0x2 DUP3 DIV SWAP1 POP PUSH1 0x1 DUP3 AND DUP1 PUSH2 0x1C03 JUMPI PUSH1 0x7F DUP3 AND SWAP2 POP JUMPDEST PUSH1 0x20 DUP3 LT DUP2 SUB PUSH2 0x1C16 JUMPI PUSH2 0x1C15 PUSH2 0x1BBF JUMP JUMPDEST JUMPDEST POP SWAP2 SWAP1 POP JUMP JUMPDEST PUSH0 DUP2 SWAP1 POP DUP2 PUSH0 MSTORE PUSH1 0x20 PUSH0 KECCAK256 SWAP1 POP SWAP2 SWAP1 POP JUMP JUMPDEST PUSH0 PUSH1 0x20 PUSH1 0x1F DUP4 ADD DIV SWAP1 POP SWAP2 SWAP1 POP JUMP JUMPDEST PUSH0 DUP3 DUP3 SHL SWAP1 POP SWAP3 SWAP2 POP POP JUMP JUMPDEST PUSH0 PUSH1 0x8 DUP4 MUL PUSH2 0x1C78 PUSH32 0xFFFFFFFFFFFFFFFFFFFFFFFFFFFFFFFFFFFFFFFFFFFFFFFFFFFFFFFFFFFFFFFF DUP3 PUSH2 0x1C3D JUMP JUMPDEST PUSH2 0x1C82 DUP7 DUP4 PUSH2 0x1C3D JUMP JUMPDEST SWAP6 POP DUP1 NOT DUP5 AND SWAP4 POP DUP1 DUP7 AND DUP5 OR SWAP3 POP POP POP SWAP4 SWAP3 POP POP POP JUMP JUMPDEST PUSH0 DUP2 SWAP1 POP SWAP2 SWAP1 POP JUMP JUMPDEST PUSH0 PUSH2 0x1CBD PUSH2 0x1CB8 PUSH2 0x1CB3 DUP5 PUSH2 0x1700 JUMP JUMPDEST PUSH2 0x1C9A JUMP JUMPDEST PUSH2 0x1700 JUMP JUMPDEST SWAP1 POP SWAP2 SWAP1 POP JUMP JUMPDEST PUSH0 DUP2 SWAP1 POP SWAP2 SWAP1 POP JUMP JUMPDEST PUSH2 0x1CD6 DUP4 PUSH2 0x1CA3 JUMP JUMPDEST PUSH2 0x1CEA PUSH2 0x1CE2 DUP3 PUSH2 0x1CC4 JUMP JUMPDEST DUP5 DUP5 SLOAD PUSH2 0x1C49 JUMP JUMPDEST DUP3 SSTORE POP POP POP POP JUMP JUMPDEST PUSH0 PUSH0 SWAP1 POP SWAP1 JUMP JUMPDEST PUSH2 0x1D01 PUSH2 0x1CF2 JUMP JUMPDEST PUSH2 0x1D0C DUP2 DUP5 DUP5 PUSH2 0x1CCD JUMP JUMPDEST POP POP POP JUMP JUMPDEST JUMPDEST DUP2 DUP2 LT ISZERO PUSH2 0x1D2F JUMPI PUSH2 0x1D24 PUSH0 DUP3 PUSH2 0x1CF9 JUMP JUMPDEST PUSH1 0x1 DUP2 ADD SWAP1 POP PUSH2 0x1D12 JUMP JUMPDEST POP POP JUMP JUMPDEST PUSH1 0x1F DUP3 GT ISZERO PUSH2 0x1D74 JUMPI PUSH2 0x1D45 DUP2 PUSH2 0x1C1C JUMP JUMPDEST PUSH2 0x1D4E DUP5 PUSH2 0x1C2E JUMP JUMPDEST DUP2 ADD PUSH1 0x20 DUP6 LT ISZERO PUSH2 0x1D5D JUMPI DUP2 SWAP1 POP JUMPDEST PUSH2 0x1D71 PUSH2 0x1D69 DUP6 PUSH2 0x1C2E JUMP JUMPDEST DUP4 ADD DUP3 PUSH2 0x1D11 JUMP JUMPDEST POP POP JUMPDEST POP POP POP JUMP JUMPDEST PUSH0 DUP3 DUP3 SHR SWAP1 POP SWAP3 SWAP2 POP POP JUMP JUMPDEST PUSH0 PUSH2 0x1D94 PUSH0 NOT DUP5 PUSH1 0x8 MUL PUSH2 0x1D79 JUMP JUMPDEST NOT DUP1 DUP4 AND SWAP2 POP POP SWAP3 SWAP2 POP POP JUMP JUMPDEST PUSH0 PUSH2 0x1DAC DUP4 DUP4 PUSH2 0x1D85 JUMP JUMPDEST SWAP2 POP DUP3 PUSH1 0x2 MUL DUP3 OR SWAP1 POP SWAP3 SWAP2 POP POP JUMP JUMPDEST PUSH2 0x1DC5 DUP3 PUSH2 0x1838 JUMP JUMPDEST PUSH8 0xFFFFFFFFFFFFFFFF DUP2 GT ISZERO PUSH2 0x1DDE JUMPI PUSH2 0x1DDD PUSH2 0x1595 JUMP JUMPDEST JUMPDEST PUSH2 0x1DE8 DUP3 SLOAD PUSH2 0x1BEC JUMP JUMPDEST PUSH2 0x1DF3 DUP3 DUP3 DUP6 PUSH2 0x1D33 JUMP JUMPDEST PUSH0 PUSH1 0x20 SWAP1 POP PUSH1 0x1F DUP4 GT PUSH1 0x1 DUP2 EQ PUSH2 0x1E24 JUMPI PUSH0 DUP5 ISZERO PUSH2 0x1E12 JUMPI DUP3 DUP8 ADD MLOAD SWAP1 POP JUMPDEST PUSH2 0x1E1C DUP6 DUP3 PUSH2 0x1DA1 JUMP JUMPDEST DUP7 SSTORE POP PUSH2 0x1E83 JUMP JUMPDEST PUSH1 0x1F NOT DUP5 AND PUSH2 0x1E32 DUP7 PUSH2 0x1C1C JUMP JUMPDEST PUSH0 JUMPDEST DUP3 DUP2 LT ISZERO PUSH2 0x1E59 JUMPI DUP5 DUP10 ADD MLOAD DUP3 SSTORE PUSH1 0x1 DUP3 ADD SWAP2 POP PUSH1 0x20 DUP6 ADD SWAP5 POP PUSH1 0x20 DUP2 ADD SWAP1 POP PUSH2 0x1E34 JUMP JUMPDEST DUP7 DUP4 LT ISZERO PUSH2 0x1E76 JUMPI DUP5 DUP10 ADD MLOAD PUSH2 0x1E72 PUSH1 0x1F DUP10 AND DUP3 PUSH2 0x1D85 JUMP JUMPDEST DUP4 SSTORE POP JUMPDEST PUSH1 0x1 PUSH1 0x2 DUP9 MUL ADD DUP9 SSTORE POP POP POP JUMPDEST POP POP POP POP POP POP JUMP JUMPDEST PUSH0 PUSH1 0x40 DUP3 ADD SWAP1 POP PUSH2 0x1E9E PUSH0 DUP4 ADD DUP6 PUSH2 0x17E5 JUMP JUMPDEST PUSH2 0x1EAB PUSH1 0x20 DUP4 ADD DUP5 PUSH2 0x17E5 JUMP JUMPDEST SWAP4 SWAP3 POP POP POP JUMP JUMPDEST PUSH0 PUSH1 0x40 DUP3 ADD SWAP1 POP PUSH2 0x1EC5 PUSH0 DUP4 ADD DUP6 PUSH2 0x1B47 JUMP JUMPDEST PUSH2 0x1ED2 PUSH1 0x20 DUP4 ADD DUP5 PUSH2 0x1B47 JUMP JUMPDEST SWAP4 SWAP3 POP POP POP JUMP JUMPDEST PUSH0 PUSH1 0x40 DUP3 ADD SWAP1 POP PUSH2 0x1EEC PUSH0 DUP4 ADD DUP6 PUSH2 0x19CC JUMP JUMPDEST PUSH2 0x1EF9 PUSH1 0x20 DUP4 ADD DUP5 PUSH2 0x19CC JUMP JUMPDEST SWAP4 SWAP3 POP POP POP JUMP JUMPDEST PUSH0 DUP2 SWAP1 POP SWAP3 SWAP2 POP POP JUMP JUMPDEST PUSH0 PUSH2 0x1F15 DUP4 DUP6 PUSH2 0x1F00 JUMP JUMPDEST SWAP4 POP PUSH2 0x1F22 DUP4 DUP6 DUP5 PUSH2 0x163D JUMP JUMPDEST DUP3 DUP5 ADD SWAP1 POP SWAP4 SWAP3 POP POP POP JUMP JUMPDEST PUSH0 PUSH2 0x1F3A DUP3 DUP5 DUP7 PUSH2 0x1F0A JUMP JUMPDEST SWAP2 POP DUP2 SWAP1 POP SWAP4 SWAP3 POP POP POP JUMP JUMPDEST PUSH0 DUP2 MLOAD SWAP1 POP PUSH2 0x1F54 DUP2 PUSH2 0x1A9D JUMP JUMPDEST SWAP3 SWAP2 POP POP JUMP JUMPDEST PUSH0 PUSH1 0x20 DUP3 DUP5 SUB SLT ISZERO PUSH2 0x1F6F JUMPI PUSH2 0x1F6E PUSH2 0x14C2 JUMP JUMPDEST JUMPDEST PUSH0 PUSH2 0x1F7C DUP5 DUP3 DUP6 ADD PUSH2 0x1F46 JUMP JUMPDEST SWAP2 POP POP SWAP3 SWAP2 POP POP JUMP JUMPDEST PUSH0 DUP2 SWAP1 POP SWAP2 SWAP1 POP JUMP JUMPDEST PUSH2 0x1F9F PUSH2 0x1F9A DUP3 PUSH2 0x1A94 JUMP JUMPDEST PUSH2 0x1F85 JUMP JUMPDEST DUP3 MSTORE POP POP JUMP JUMPDEST PUSH0 PUSH2 0x1FB0 DUP3 DUP5 PUSH2 0x1F8E JUMP JUMPDEST PUSH1 0x20 DUP3 ADD SWAP2 POP DUP2 SWAP1 POP SWAP3 SWAP2 POP POP JUMP JUMPDEST PUSH32 0x4E487B7100000000000000000000000000000000000000000000000000000000 PUSH0 MSTORE PUSH1 0x32 PUSH1 0x4 MSTORE PUSH1 0x24 PUSH0 REVERT JUMPDEST PUSH0 DUP2 MLOAD SWAP1 POP SWAP2 SWAP1 POP JUMP JUMPDEST PUSH0 DUP2 SWAP1 POP PUSH1 0x20 DUP3 ADD SWAP1 POP SWAP2 SWAP1 POP JUMP JUMPDEST PUSH0 PUSH2 0x2010 DUP3 MLOAD PUSH2 0x19A1 JUMP JUMPDEST DUP1 SWAP2 POP POP SWAP2 SWAP1 POP JUMP JUMPDEST PUSH0 PUSH2 0x2023 DUP3 PUSH2 0x1FEC JUMP JUMPDEST DUP3 PUSH2 0x202D DUP5 PUSH2 0x1FF6 JUMP JUMPDEST SWAP1 POP PUSH2 0x2038 DUP2 PUSH2 0x2005 JUMP JUMPDEST SWAP3 POP PUSH1 0xA DUP3 LT ISZERO PUSH2 0x2078 JUMPI PUSH2 0x2073 PUSH32 0xFFFFFFFFFFFFFFFFFFFF00000000000000000000000000000000000000000000 DUP4 PUSH1 0xA SUB PUSH1 0x8 MUL PUSH2 0x1C3D JUMP JUMPDEST DUP4 AND SWAP3 POP JUMPDEST POP POP SWAP2 SWAP1 POP JUMP JUMPDEST PUSH32 0x466F7277617264657220616464726573732073657420746F207A65726F202D20 PUSH0 DUP3 ADD MSTORE PUSH32 0x636F6E7472616374206973206E6F7720494E5345435552450000000000000000 PUSH1 0x20 DUP3 ADD MSTORE POP JUMP JUMPDEST PUSH0 PUSH2 0x20D9 PUSH1 0x38 DUP4 PUSH2 0x1842 JUMP JUMPDEST SWAP2 POP PUSH2 0x20E4 DUP3 PUSH2 0x207F JUMP JUMPDEST PUSH1 0x40 DUP3 ADD SWAP1 POP SWAP2 SWAP1 POP JUMP JUMPDEST PUSH0 PUSH1 0x20 DUP3 ADD SWAP1 POP DUP2 DUP2 SUB PUSH0 DUP4 ADD MSTORE PUSH2 0x2106 DUP2 PUSH2 0x20CD JUMP JUMPDEST SWAP1 POP SWAP2 SWAP1 POP JUMP JUMPDEST PUSH32 0x4E487B7100000000000000000000000000000000000000000000000000000000 PUSH0 MSTORE PUSH1 0x11 PUSH1 0x4 MSTORE PUSH1 0x24 PUSH0 REVERT JUMPDEST PUSH0 PUSH2 0x2144 DUP3 PUSH2 0x1700 JUMP JUMPDEST SWAP2 POP PUSH2 0x214F DUP4 PUSH2 0x1700 JUMP JUMPDEST SWAP3 POP DUP3 DUP3 MUL PUSH2 0x215D DUP2 PUSH2 0x1700 JUMP JUMPDEST SWAP2 POP DUP3 DUP3 DIV DUP5 EQ DUP4 ISZERO OR PUSH2 0x2174 JUMPI PUSH2 0x2173 PUSH2 0x210D JUMP JUMPDEST JUMPDEST POP SWAP3 SWAP2 POP POP JUMP JUMPDEST PUSH0 PUSH2 0x2185 DUP3 PUSH2 0x1700 JUMP JUMPDEST SWAP2 POP PUSH2 0x2190 DUP4 PUSH2 0x1700 JUMP JUMPDEST SWAP3 POP DUP3 DUP3 ADD SWAP1 POP DUP1 DUP3 GT ISZERO PUSH2 0x21A8 JUMPI PUSH2 0x21A7 PUSH2 0x210D JUMP JUMPDEST JUMPDEST SWAP3 SWAP2 POP POP JUMP INVALID LOG2 PUSH5 0x6970667358 0x22 SLT KECCAK256 DUP1 0xAD GASPRICE GASPRICE 0x2B 0x2D 0x24 DUP14 PUSH25 0x6E393F7140DD2003FC87073451C0526A51E7A067CFB8AA6473 PUSH16 0x6C634300081F00330000000000000000 "
		},
		"gasEstimates": {
			"creation": {
				"codeDepositCost": "1735200",
				"executionCost": "infinite",
				"totalCost": "infinite"
			},
			"external": {
				"addPersonNum(string,uint256)": "infinite",
				"getExpectedAuthor()": "2605",
				"getExpectedWorkflowId()": "2542",
				"getExpectedWorkflowName()": "2569",
				"getForwarderAddress()": "2538",
				"nameToFavNum(string)": "infinite",
				"onReport(bytes,bytes)": "infinite",
				"owner()": "2537",
				"personList(uint256)": "infinite",
				"renounceOwnership()": "infinite",
				"retrive()": "2499",
				"retrived()": "2498",
				"setExpectedAuthor(address)": "infinite",
				"setExpectedWorkflowId(bytes32)": "infinite",
				"setExpectedWorkflowName(string)": "infinite",
				"setForwarderAddress(address)": "infinite",
				"store(uint256)": "22560",
				"supportsInterface(bytes4)": "699",
				"transferOwnership(address)": "infinite"
			},
			"internal": {
				"_processReport(bytes calldata)": "infinite"
			}
		},
		"methodIdentifiers": {
			"addPersonNum(string,uint256)": "27422150",
			"getExpectedAuthor()": "3397cf67",
			"getExpectedWorkflowId()": "f5c793ef",
			"getExpectedWorkflowName()": "a619d818",
			"getForwarderAddress()": "3441856f",
			"nameToFavNum(string)": "06c62c2c",
			"onReport(bytes,bytes)": "805f2132",
			"owner()": "8da5cb5b",
			"personList(uint256)": "6b44374d",
			"renounceOwnership()": "715018a6",
			"retrive()": "a6b7fc5b",
			"retrived()": "f2093350",
			"setExpectedAuthor(address)": "d60c884b",
			"setExpectedWorkflowId(bytes32)": "c3c44ac2",
			"setExpectedWorkflowName(string)": "bc1fc27a",
			"setForwarderAddress(address)": "d777cc6d",
			"store(uint256)": "6057361d",
			"supportsInterface(bytes4)": "01ffc9a7",
			"transferOwnership(address)": "f2fde38b"
		}
	},
	"abi": [
		{
			"inputs": [
				{
					"internalType": "address",
					"name": "_forwarder",
					"type": "address"
				}
			],
			"stateMutability": "nonpayable",
			"type": "constructor"
		},
		{
			"inputs": [
				{
					"internalType": "address",
					"name": "received",
					"type": "address"
				},
				{
					"internalType": "address",
					"name": "expected",
					"type": "address"
				}
			],
			"name": "InvalidAuthor",
			"type": "error"
		},
		{
			"inputs": [],
			"name": "InvalidForwarderAddress",
			"type": "error"
		},
		{
			"inputs": [
				{
					"internalType": "address",
					"name": "sender",
					"type": "address"
				},
				{
					"internalType": "address",
					"name": "expected",
					"type": "address"
				}
			],
			"name": "InvalidSender",
			"type": "error"
		},
		{
			"inputs": [
				{
					"internalType": "bytes32",
					"name": "received",
					"type": "bytes32"
				},
				{
					"internalType": "bytes32",
					"name": "expected",
					"type": "bytes32"
				}
			],
			"name": "InvalidWorkflowId",
			"type": "error"
		},
		{
			"inputs": [
				{
					"internalType": "bytes10",
					"name": "received",
					"type": "bytes10"
				},
				{
					"internalType": "bytes10",
					"name": "expected",
					"type": "bytes10"
				}
			],
			"name": "InvalidWorkflowName",
			"type": "error"
		},
		{
			"inputs": [
				{
					"internalType": "address",
					"name": "owner",
					"type": "address"
				}
			],
			"name": "OwnableInvalidOwner",
			"type": "error"
		},
		{
			"inputs": [
				{
					"internalType": "address",
					"name": "account",
					"type": "address"
				}
			],
			"name": "OwnableUnauthorizedAccount",
			"type": "error"
		},
		{
			"inputs": [],
			"name": "WorkflowNameRequiresAuthorValidation",
			"type": "error"
		},
		{
			"anonymous": false,
			"inputs": [
				{
					"indexed": true,
					"internalType": "address",
					"name": "previousAuthor",
					"type": "address"
				},
				{
					"indexed": true,
					"internalType": "address",
					"name": "newAuthor",
					"type": "address"
				}
			],
			"name": "ExpectedAuthorUpdated",
			"type": "event"
		},
		{
			"anonymous": false,
			"inputs": [
				{
					"indexed": true,
					"internalType": "bytes32",
					"name": "previousId",
					"type": "bytes32"
				},
				{
					"indexed": true,
					"internalType": "bytes32",
					"name": "newId",
					"type": "bytes32"
				}
			],
			"name": "ExpectedWorkflowIdUpdated",
			"type": "event"
		},
		{
			"anonymous": false,
			"inputs": [
				{
					"indexed": true,
					"internalType": "bytes10",
					"name": "previousName",
					"type": "bytes10"
				},
				{
					"indexed": true,
					"internalType": "bytes10",
					"name": "newName",
					"type": "bytes10"
				}
			],
			"name": "ExpectedWorkflowNameUpdated",
			"type": "event"
		},
		{
			"anonymous": false,
			"inputs": [
				{
					"indexed": true,
					"internalType": "address",
					"name": "previousForwarder",
					"type": "address"
				},
				{
					"indexed": true,
					"internalType": "address",
					"name": "newForwarder",
					"type": "address"
				}
			],
			"name": "ForwarderAddressUpdated",
			"type": "event"
		},
		{
			"anonymous": false,
			"inputs": [
				{
					"indexed": true,
					"internalType": "address",
					"name": "previousOwner",
					"type": "address"
				},
				{
					"indexed": true,
					"internalType": "address",
					"name": "newOwner",
					"type": "address"
				}
			],
			"name": "OwnershipTransferred",
			"type": "event"
		},
		{
			"anonymous": false,
			"inputs": [
				{
					"indexed": false,
					"internalType": "string",
					"name": "message",
					"type": "string"
				}
			],
			"name": "SecurityWarning",
			"type": "event"
		},
		{
			"inputs": [
				{
					"internalType": "string",
					"name": "_name",
					"type": "string"
				},
				{
					"internalType": "uint256",
					"name": "_favnum",
					"type": "uint256"
				}
			],
			"name": "addPersonNum",
			"outputs": [],
			"stateMutability": "nonpayable",
			"type": "function"
		},
		{
			"inputs": [],
			"name": "getExpectedAuthor",
			"outputs": [
				{
					"internalType": "address",
					"name": "",
					"type": "address"
				}
			],
			"stateMutability": "view",
			"type": "function"
		},
		{
			"inputs": [],
			"name": "getExpectedWorkflowId",
			"outputs": [
				{
					"internalType": "bytes32",
					"name": "",
					"type": "bytes32"
				}
			],
			"stateMutability": "view",
			"type": "function"
		},
		{
			"inputs": [],
			"name": "getExpectedWorkflowName",
			"outputs": [
				{
					"internalType": "bytes10",
					"name": "",
					"type": "bytes10"
				}
			],
			"stateMutability": "view",
			"type": "function"
		},
		{
			"inputs": [],
			"name": "getForwarderAddress",
			"outputs": [
				{
					"internalType": "address",
					"name": "",
					"type": "address"
				}
			],
			"stateMutability": "view",
			"type": "function"
		},
		{
			"inputs": [
				{
					"internalType": "string",
					"name": "",
					"type": "string"
				}
			],
			"name": "nameToFavNum",
			"outputs": [
				{
					"internalType": "uint256",
					"name": "",
					"type": "uint256"
				}
			],
			"stateMutability": "view",
			"type": "function"
		},
		{
			"inputs": [
				{
					"internalType": "bytes",
					"name": "metadata",
					"type": "bytes"
				},
				{
					"internalType": "bytes",
					"name": "report",
					"type": "bytes"
				}
			],
			"name": "onReport",
			"outputs": [],
			"stateMutability": "nonpayable",
			"type": "function"
		},
		{
			"inputs": [],
			"name": "owner",
			"outputs": [
				{
					"internalType": "address",
					"name": "",
					"type": "address"
				}
			],
			"stateMutability": "view",
			"type": "function"
		},
		{
			"inputs": [
				{
					"internalType": "uint256",
					"name": "",
					"type": "uint256"
				}
			],
			"name": "personList",
			"outputs": [
				{
					"internalType": "uint256",
					"name": "favnum",
					"type": "uint256"
				},
				{
					"internalType": "string",
					"name": "name",
					"type": "string"
				}
			],
			"stateMutability": "view",
			"type": "function"
		},
		{
			"inputs": [],
			"name": "renounceOwnership",
			"outputs": [],
			"stateMutability": "nonpayable",
			"type": "function"
		},
		{
			"inputs": [],
			"name": "retrive",
			"outputs": [
				{
					"internalType": "uint256",
					"name": "",
					"type": "uint256"
				}
			],
			"stateMutability": "view",
			"type": "function"
		},
		{
			"inputs": [],
			"name": "retrived",
			"outputs": [
				{
					"internalType": "uint256",
					"name": "",
					"type": "uint256"
				}
			],
			"stateMutability": "view",
			"type": "function"
		},
		{
			"inputs": [
				{
					"internalType": "address",
					"name": "_author",
					"type": "address"
				}
			],
			"name": "setExpectedAuthor",
			"outputs": [],
			"stateMutability": "nonpayable",
			"type": "function"
		},
		{
			"inputs": [
				{
					"internalType": "bytes32",
					"name": "_id",
					"type": "bytes32"
				}
			],
			"name": "setExpectedWorkflowId",
			"outputs": [],
			"stateMutability": "nonpayable",
			"type": "function"
		},
		{
			"inputs": [
				{
					"internalType": "string",
					"name": "_name",
					"type": "string"
				}
			],
			"name": "setExpectedWorkflowName",
			"outputs": [],
			"stateMutability": "nonpayable",
			"type": "function"
		},
		{
			"inputs": [
				{
					"internalType": "address",
					"name": "_forwarder",
					"type": "address"
				}
			],
			"name": "setForwarderAddress",
			"outputs": [],
			"stateMutability": "nonpayable",
			"type": "function"
		},
		{
			"inputs": [
				{
					"internalType": "uint256",
					"name": "_favnum",
					"type": "uint256"
				}
			],
			"name": "store",
			"outputs": [],
			"stateMutability": "nonpayable",
			"type": "function"
		},
		{
			"inputs": [
				{
					"internalType": "bytes4",
					"name": "interfaceId",
					"type": "bytes4"
				}
			],
			"name": "supportsInterface",
			"outputs": [
				{
					"internalType": "bool",
					"name": "",
					"type": "bool"
				}
			],
			"stateMutability": "pure",
			"type": "function"
		},
		{
			"inputs": [
				{
					"internalType": "address",
					"name": "newOwner",
					"type": "address"
				}
			],
			"name": "transferOwnership",
			"outputs": [],
			"stateMutability": "nonpayable",
			"type": "function"
		}
	]
}