{
	"data": {
		"bytecode": {
			"linkReferences": {},
			"object": "60a060405234801561000f575f5ffd5b5061012c8073ffffffffffffffffffffffffffffffffffffffff1660808173ffffffffffffffffffffffffffffffffffffffff168152505060015f5f6101000a81548160ff0219169083600381111561006b5761006a6106ff565b5b021790555060055f60016101000a81548160ff021916908360ff16021790555060645f60026101000a81548161ffff021916908361ffff1602179055507f12345678901234567890123456789012345678901234567890123456789012345f1b6001819055506040518060400160405280600681526020017fdeadbeefcafe000000000000000000000000000000000000000000000000000081525060029081610115919061097a565b506040518060400160405280601181526020017f416476616e63656420436f6e74726163740000000000000000000000000000008152506003908161015a9190610aae565b5060046040518060800160405280600167ffffffffffffffff16815260200163499602d267ffffffffffffffff1681526020013373ffffffffffffffffffffffffffffffffffffffff1681526020015f1515815250908060018154018082558091505060019003905f5260205f2090600202015f909190919091505f820151815f015f6101000a81548167ffffffffffffffff021916908367ffffffffffffffff1602179055506020820151815f0160086101000a81548167ffffffffffffffff021916908367ffffffffffffffff1602179055506040820151816001015f6101000a81548173ffffffffffffffffffffffffffffffffffffffff021916908373ffffffffffffffffffffffffffffffffffffffff16021790555060608201518160010160146101000a81548160ff021916908315150217905550505060046040518060800160405280600267ffffffffffffffff16815260200163499602d367ffffffffffffffff16815260200173742d35cc6634c0532925a3b844bc9e759f3b3b5773ffffffffffffffffffffffffffffffffffffffff16815260200160011515815250908060018154018082558091505060019003905f5260205f2090600202015f909190919091505f820151815f015f6101000a81548167ffffffffffffffff021916908367ffffffffffffffff1602179055506020820151815f0160086101000a81548167ffffffffffffffff021916908367ffffffffffffffff1602179055506040820151816001015f6101000a81548173ffffffffffffffffffffffffffffffffffffffff021916908373ffffffffffffffffffffffffffffffffffffffff16021790555060608201518160010160146101000a81548160ff02191690831515021790555050506040518060a00160405280683635c9adc5dea000006fffffffffffffffffffffffffffffffff168152602001681b1ae4d6e2ef5000006fffffffffffffffffffffffffffffffff168152602001428152602001600a67ffffffffffffffff1681526020016001151581525060055f3373ffffffffffffffffffffffffffffffffffffffff1673ffffffffffffffffffffffffffffffffffffffff1681526020019081526020015f205f820151815f015f6101000a8154816fffffffffffffffffffffffffffffffff02191690836fffffffffffffffffffffffffffffffff1602179055506020820151815f0160106101000a8154816fffffffffffffffffffffffffffffffff02191690836fffffffffffffffffffffffffffffffff160217905550604082015181600101556060820151816002015f6101000a81548167ffffffffffffffff021916908367ffffffffffffffff16021790555060808201518160020160086101000a81548160ff02191690831515021790555090505060066040518060600160405280600160ff168152602001600260ff168152602001600360ff16815250908060018154018082558091505060019003905f5260205f20015f9091909190915090816105bc9190610c78565b5060066040518060600160405280600460ff168152602001600560ff168152602001600660ff16815250908060018154018082558091505060019003905f5260205f20015f9091909190915090816106149190610c78565b507fffffffffffffffffffffffffffffffffffffffffffffffffffffffffffffffff60075f5f81526020019081526020015f2081905550600160075f600181526020019081526020015f20819055505060016008819055503360095f6101000a81548173ffffffffffffffffffffffffffffffffffffffff021916908373ffffffffffffffffffffffffffffffffffffffff1602179055506103e8600a819055506040518060400160405280601181526020017f53746f726167652056657273696f6e2031000000000000000000000000000000815250600c90816106f99190610aae565b50610cfc565b7f4e487b71000000000000000000000000000000000000000000000000000000005f52602160045260245ffd5b5f81519050919050565b7f4e487b71000000000000000000000000000000000000000000000000000000005f52604160045260245ffd5b7f4e487b71000000000000000000000000000000000000000000000000000000005f52602260045260245ffd5b5f60028204905060018216806107a757607f821691505b6020821081036107ba576107b9610763565b5b50919050565b5f819050815f5260205f209050919050565b5f6020601f8301049050919050565b5f82821b905092915050565b5f6008830261081c7fffffffffffffffffffffffffffffffffffffffffffffffffffffffffffffffff826107e1565b61082686836107e1565b95508019841693508086168417925050509392505050565b5f819050919050565b5f819050919050565b5f61086a6108656108608461083e565b610847565b61083e565b9050919050565b5f819050919050565b61088383610850565b61089761088f82610871565b8484546107ed565b825550505050565b5f5f905090565b6108ae61089f565b6108b981848461087a565b505050565b5f5b828110156108df576108d45f8284016108a6565b6001810190506108c0565b505050565b601f8211156109325782821115610931576108fe816107c0565b610907836107d2565b610910856107d2565b602086101561091d575f90505b80830161092c828403826108be565b505050505b5b505050565b5f82821c905092915050565b5f6109525f1984600802610937565b1980831691505092915050565b5f61096a8383610943565b9150826002028217905092915050565b6109838261072c565b67ffffffffffffffff81111561099c5761099b610736565b5b6109a68254610790565b6109b18282856108e4565b5f60209050601f8311600181146109e2575f84156109d0578287015190505b6109da858261095f565b865550610a41565b601f1984166109f0866107c0565b5f5b82811015610a17578489015182556001820191506020850194506020810190506109f2565b86831015610a345784890151610a30601f891682610943565b8355505b6001600288020188555050505b505050505050565b5f819050815f5260205f209050919050565b601f821115610aa95782821115610aa857610a7581610a49565b610a7e836107d2565b610a87856107d2565b6020861015610a94575f90505b808301610aa3828403826108be565b505050505b5b505050565b610ab78261072c565b67ffffffffffffffff811115610ad057610acf610736565b5b610ada8254610790565b610ae5828285610a5b565b5f60209050601f831160018114610b16575f8415610b04578287015190505b610b0e858261095f565b865550610b75565b601f198416610b2486610a49565b5f5b82811015610b4b57848901518255600182019150602085019450602081019050610b26565b86831015610b685784890151610b64601f891682610943565b8355505b6001600288020188555050505b505050505050565b5f81549050919050565b5f8190506001806001038301049050919050565b5f819050815f5260205f209050919050565b5f5b82811015610bce57610bc35f8284016108a6565b600181019050610baf565b505050565b81831015610c0a57610be482610b87565b610bed84610b87565b610bf683610b9b565b818101610c0583850382610bad565b505050505b505050565b68010000000000000000821115610c2957610c28610736565b5b610c3281610b7d565b828255610c40838284610bd3565b505050565b5f60039050919050565b5f60ff82169050919050565b5f610c668251610c4f565b80915050919050565b5f819050919050565b610c8182610c45565b67ffffffffffffffff811115610c9a57610c99610736565b5b610ca48183610c0f565b610cad83610c6f565b610cb683610b9b565b600183045f5b81811015610cf3575f610cce85610c5b565b610cd781610871565b8092506020870196505050808285015550600181019050610cbc565b50505050505050565b608051610f09610d145f395f61085f0152610f095ff3fe608060405234801561000f575f5ffd5b506004361061014b575f3560e01c80636fd5ae15116100c1578063a87430ba1161007a578063a87430ba14610382578063c45a0155146103b6578063d9a38d64146103d4578063ecb2b5cb14610404578063fa44f58914610434578063ffa1ad74146104525761014b565b80636fd5ae15146102a95780637091a9f6146102c75780638da5cb5b146102e357806390daba0a14610301578063a2f4bb2614610331578063a85c38ef1461034f5761014b565b80633545b494116101135780633545b494146101f557806354fd4d50146102135780635a0a4a64146102315780635c975abb1461024f57806361bc221a1461026d5780636670cde01461028b5761014b565b8063056da0481461014f57806306fdde031461016d57806314336b851461018b578063200d2ed2146101a757806327e235e3146101c5575b5f5ffd5b610157610470565b6040516101649190610954565b60405180910390f35b6101756104fc565b6040516101829190610954565b60405180910390f35b6101a560048036038101906101a09190610a16565b610588565b005b6101af6105e4565b6040516101bc9190610ad9565b60405180910390f35b6101df60048036038101906101da9190610b4c565b6105f5565b6040516101ec9190610b86565b60405180910390f35b6101fd61060a565b60405161020a9190610bb7565b60405180910390f35b61021b610610565b6040516102289190610b86565b60405180910390f35b610239610616565b6040516102469190610c22565b60405180910390f35b6102576106a2565b6040516102649190610c51565b60405180910390f35b6102756106b4565b6040516102829190610c79565b60405180910390f35b6102936106c7565b6040516102a09190610cae565b60405180910390f35b6102b16106db565b6040516102be9190610c79565b60405180910390f35b6102e160048036038101906102dc9190610cc7565b6106ed565b005b6102eb6106f7565b6040516102f89190610d01565b60405180910390f35b61031b60048036038101906103169190610d1a565b61071c565b6040516103289190610c51565b60405180910390f35b610339610742565b6040516103469190610b86565b60405180910390f35b61036960048036038101906103649190610cc7565b610748565b6040516103799493929190610d7a565b60405180910390f35b61039c60048036038101906103979190610b4c565b6107d5565b6040516103ad959493929190610de7565b60405180910390f35b6103be61085d565b6040516103cb9190610d01565b60405180910390f35b6103ee60048036038101906103e99190610e38565b610881565b6040516103fb9190610b86565b60405180910390f35b61041e60048036038101906104199190610cc7565b6108b7565b60405161042b9190610b86565b60405180910390f35b61043c6108cc565b6040516104499190610cae565b60405180910390f35b61045a6108df565b6040516104679190610b86565b60405180910390f35b6003805461047d90610ea3565b80601f01602080910402602001604051908101604052809291908181526020018280546104a990610ea3565b80156104f45780601f106104cb576101008083540402835291602001916104f4565b820191905f5260205f20905b8154815290600101906020018083116104d757829003601f168201915b505050505081565b600c805461050990610ea3565b80601f016020809104026020016040519081016040528092919081815260200182805461053590610ea3565b80156105805780601f1061055757610100808354040283529160200191610580565b820191905f5260205f20905b81548152906001019060200180831161056357829003601f168201915b505050505081565b80156105b8578160ff166001901b60075f8581526020019081526020015f205f82825417925050819055506105df565b8160ff166001901b1960075f8581526020019081526020015f205f82825416925050819055505b505050565b5f5f9054906101000a900460ff1681565b600d602052805f5260405f205f915090505481565b60015481565b60085481565b6002805461062390610ea3565b80601f016020809104026020016040519081016040528092919081815260200182805461064f90610ea3565b801561069a5780601f106106715761010080835404028352916020019161069a565b820191905f5260205f20905b81548152906001019060200180831161067d57829003601f168201915b505050505081565b600b5f9054906101000a900460ff1681565b600b60019054906101000a900460ff1681565b600b60029054906101000a900461ffff1681565b5f60019054906101000a900460ff1681565b80600a8190555050565b60095f9054906101000a900473ffffffffffffffffffffffffffffffffffffffff1681565b5f6001808360ff1660075f8781526020019081526020015f2054901c1614905092915050565b600a5481565b60048181548110610757575f80fd5b905f5260205f2090600202015f91509050805f015f9054906101000a900467ffffffffffffffff1690805f0160089054906101000a900467ffffffffffffffff1690806001015f9054906101000a900473ffffffffffffffffffffffffffffffffffffffff16908060010160149054906101000a900460ff16905084565b6005602052805f5260405f205f91509050805f015f9054906101000a90046fffffffffffffffffffffffffffffffff1690805f0160109054906101000a90046fffffffffffffffffffffffffffffffff1690806001015490806002015f9054906101000a900467ffffffffffffffff16908060020160089054906101000a900460ff16905085565b7f000000000000000000000000000000000000000000000000000000000000000081565b60068281548110610890575f80fd5b905f5260205f200181815481106108a5575f80fd5b905f5260205f20015f91509150505481565b6007602052805f5260405f205f915090505481565b5f60029054906101000a900461ffff1681565b600181565b5f81519050919050565b5f82825260208201905092915050565b8281835e5f83830152505050565b5f601f19601f8301169050919050565b5f610926826108e4565b61093081856108ee565b93506109408185602086016108fe565b6109498161090c565b840191505092915050565b5f6020820190508181035f83015261096c818461091c565b905092915050565b5f5ffd5b5f819050919050565b61098a81610978565b8114610994575f5ffd5b50565b5f813590506109a581610981565b92915050565b5f60ff82169050919050565b6109c0816109ab565b81146109ca575f5ffd5b50565b5f813590506109db816109b7565b92915050565b5f8115159050919050565b6109f5816109e1565b81146109ff575f5ffd5b50565b5f81359050610a10816109ec565b92915050565b5f5f5f60608486031215610a2d57610a2c610974565b5b5f610a3a86828701610997565b9350506020610a4b868287016109cd565b9250506040610a5c86828701610a02565b9150509250925092565b7f4e487b71000000000000000000000000000000000000000000000000000000005f52602160045260245ffd5b60048110610aa457610aa3610a66565b5b50565b5f819050610ab482610a93565b919050565b5f610ac382610aa7565b9050919050565b610ad381610ab9565b82525050565b5f602082019050610aec5f830184610aca565b92915050565b5f73ffffffffffffffffffffffffffffffffffffffff82169050919050565b5f610b1b82610af2565b9050919050565b610b2b81610b11565b8114610b35575f5ffd5b50565b5f81359050610b4681610b22565b92915050565b5f60208284031215610b6157610b60610974565b5b5f610b6e84828501610b38565b91505092915050565b610b8081610978565b82525050565b5f602082019050610b995f830184610b77565b92915050565b5f819050919050565b610bb181610b9f565b82525050565b5f602082019050610bca5f830184610ba8565b92915050565b5f81519050919050565b5f82825260208201905092915050565b5f610bf482610bd0565b610bfe8185610bda565b9350610c0e8185602086016108fe565b610c178161090c565b840191505092915050565b5f6020820190508181035f830152610c3a8184610bea565b905092915050565b610c4b816109e1565b82525050565b5f602082019050610c645f830184610c42565b92915050565b610c73816109ab565b82525050565b5f602082019050610c8c5f830184610c6a565b92915050565b5f61ffff82169050919050565b610ca881610c92565b82525050565b5f602082019050610cc15f830184610c9f565b92915050565b5f60208284031215610cdc57610cdb610974565b5b5f610ce984828501610997565b91505092915050565b610cfb81610b11565b82525050565b5f602082019050610d145f830184610cf2565b92915050565b5f5f60408385031215610d3057610d2f610974565b5b5f610d3d85828601610997565b9250506020610d4e858286016109cd565b9150509250929050565b5f67ffffffffffffffff82169050919050565b610d7481610d58565b82525050565b5f608082019050610d8d5f830187610d6b565b610d9a6020830186610d6b565b610da76040830185610cf2565b610db46060830184610c42565b95945050505050565b5f6fffffffffffffffffffffffffffffffff82169050919050565b610de181610dbd565b82525050565b5f60a082019050610dfa5f830188610dd8565b610e076020830187610dd8565b610e146040830186610b77565b610e216060830185610d6b565b610e2e6080830184610c42565b9695505050505050565b5f5f60408385031215610e4e57610e4d610974565b5b5f610e5b85828601610997565b9250506020610e6c85828601610997565b9150509250929050565b7f4e487b71000000000000000000000000000000000000000000000000000000005f52602260045260245ffd5b5f6002820490506001821680610eba57607f821691505b602082108103610ecd57610ecc610e76565b5b5091905056fea26469706673582212206911b8690b6451611a4c04a2b85e305291540e96a4455eb5bf272926c3553e2464736f6c63430008220033",
			"opcodes": "PUSH1 0xA0 PUSH1 0x40 MSTORE CALLVALUE DUP1 ISZERO PUSH2 0xF JUMPI PUSH0 PUSH0 REVERT JUMPDEST POP PUSH2 0x12C DUP1 PUSH20 0xFFFFFFFFFFFFFFFFFFFFFFFFFFFFFFFFFFFFFFFF AND PUSH1 0x80 DUP2 PUSH20 0xFFFFFFFFFFFFFFFFFFFFFFFFFFFFFFFFFFFFFFFF AND DUP2 MSTORE POP POP PUSH1 0x1 PUSH0 PUSH0 PUSH2 0x100 EXP DUP2 SLOAD DUP2 PUSH1 0xFF MUL NOT AND SWAP1 DUP4 PUSH1 0x3 DUP2 GT ISZERO PUSH2 0x6B JUMPI PUSH2 0x6A PUSH2 0x6FF JUMP JUMPDEST JUMPDEST MUL OR SWAP1 SSTORE POP PUSH1 0x5 PUSH0 PUSH1 0x1 PUSH2 0x100 EXP DUP2 SLOAD DUP2 PUSH1 0xFF MUL NOT AND SWAP1 DUP4 PUSH1 0xFF AND MUL OR SWAP1 SSTORE POP PUSH1 0x64 PUSH0 PUSH1 0x2 PUSH2 0x100 EXP DUP2 SLOAD DUP2 PUSH2 0xFFFF MUL NOT AND SWAP1 DUP4 PUSH2 0xFFFF AND MUL OR SWAP1 SSTORE POP PUSH32 0x1234567890123456789012345678901234567890123456789012345678901234 PUSH0 SHL PUSH1 0x1 DUP2 SWAP1 SSTORE POP PUSH1 0x40 MLOAD DUP1 PUSH1 0x40 ADD PUSH1 0x40 MSTORE DUP1 PUSH1 0x6 DUP2 MSTORE PUSH1 0x20 ADD PUSH32 0xDEADBEEFCAFE0000000000000000000000000000000000000000000000000000 DUP2 MSTORE POP PUSH1 0x2 SWAP1 DUP2 PUSH2 0x115 SWAP2 SWAP1 PUSH2 0x97A JUMP JUMPDEST POP PUSH1 0x40 MLOAD DUP1 PUSH1 0x40 ADD PUSH1 0x40 MSTORE DUP1 PUSH1 0x11 DUP2 MSTORE PUSH1 0x20 ADD PUSH32 0x416476616E63656420436F6E7472616374000000000000000000000000000000 DUP2 MSTORE POP PUSH1 0x3 SWAP1 DUP2 PUSH2 0x15A SWAP2 SWAP1 PUSH2 0xAAE JUMP JUMPDEST POP PUSH1 0x4 PUSH1 0x40 MLOAD DUP1 PUSH1 0x80 ADD PUSH1 0x40 MSTORE DUP1 PUSH1 0x1 PUSH8 0xFFFFFFFFFFFFFFFF AND DUP2 MSTORE PUSH1 0x20 ADD PUSH4 0x499602D2 PUSH8 0xFFFFFFFFFFFFFFFF AND DUP2 MSTORE PUSH1 0x20 ADD CALLER PUSH20 0xFFFFFFFFFFFFFFFFFFFFFFFFFFFFFFFFFFFFFFFF AND DUP2 MSTORE PUSH1 0x20 ADD PUSH0 ISZERO ISZERO DUP2 MSTORE POP SWAP1 DUP1 PUSH1 0x1 DUP2 SLOAD ADD DUP1 DUP3 SSTORE DUP1 SWAP2 POP POP PUSH1 0x1 SWAP1 SUB SWAP1 PUSH0 MSTORE PUSH1 0x20 PUSH0 KECCAK256 SWAP1 PUSH1 0x2 MUL ADD PUSH0 SWAP1 SWAP2 SWAP1 SWAP2 SWAP1 SWAP2 POP PUSH0 DUP3 ADD MLOAD DUP2 PUSH0 ADD PUSH0 PUSH2 0x100 EXP DUP2 SLOAD DUP2 PUSH8 0xFFFFFFFFFFFFFFFF MUL NOT AND SWAP1 DUP4 PUSH8 0xFFFFFFFFFFFFFFFF AND MUL OR SWAP1 SSTORE POP PUSH1 0x20 DUP3 ADD MLOAD DUP2 PUSH0 ADD PUSH1 0x8 PUSH2 0x100 EXP DUP2 SLOAD DUP2 PUSH8 0xFFFFFFFFFFFFFFFF MUL NOT AND SWAP1 DUP4 PUSH8 0xFFFFFFFFFFFFFFFF AND MUL OR SWAP1 SSTORE POP PUSH1 0x40 DUP3 ADD MLOAD DUP2 PUSH1 0x1 ADD PUSH0 PUSH2 0x100 EXP DUP2 SLOAD DUP2 PUSH20 0xFFFFFFFFFFFFFFFFFFFFFFFFFFFFFFFFFFFFFFFF MUL NOT AND SWAP1 DUP4 PUSH20 0xFFFFFFFFFFFFFFFFFFFFFFFFFFFFFFFFFFFFFFFF AND MUL OR SWAP1 SSTORE POP PUSH1 0x60 DUP3 ADD MLOAD DUP2 PUSH1 0x1 ADD PUSH1 0x14 PUSH2 0x100 EXP DUP2 SLOAD DUP2 PUSH1 0xFF MUL NOT AND SWAP1 DUP4 ISZERO ISZERO MUL OR SWAP1 SSTORE POP POP POP PUSH1 0x4 PUSH1 0x40 MLOAD DUP1 PUSH1 0x80 ADD PUSH1 0x40 MSTORE DUP1 PUSH1 0x2 PUSH8 0xFFFFFFFFFFFFFFFF AND DUP2 MSTORE PUSH1 0x20 ADD PUSH4 0x499602D3 PUSH8 0xFFFFFFFFFFFFFFFF AND DUP2 MSTORE PUSH1 0x20 ADD PUSH20 0x742D35CC6634C0532925A3B844BC9E759F3B3B57 PUSH20 0xFFFFFFFFFFFFFFFFFFFFFFFFFFFFFFFFFFFFFFFF AND DUP2 MSTORE PUSH1 0x20 ADD PUSH1 0x1 ISZERO ISZERO DUP2 MSTORE POP SWAP1 DUP1 PUSH1 0x1 DUP2 SLOAD ADD DUP1 DUP3 SSTORE DUP1 SWAP2 POP POP PUSH1 0x1 SWAP1 SUB SWAP1 PUSH0 MSTORE PUSH1 0x20 PUSH0 KECCAK256 SWAP1 PUSH1 0x2 MUL ADD PUSH0 SWAP1 SWAP2 SWAP1 SWAP2 SWAP1 SWAP2 POP PUSH0 DUP3 ADD MLOAD DUP2 PUSH0 ADD PUSH0 PUSH2 0x100 EXP DUP2 SLOAD DUP2 PUSH8 0xFFFFFFFFFFFFFFFF MUL NOT AND SWAP1 DUP4 PUSH8 0xFFFFFFFFFFFFFFFF AND MUL OR SWAP1 SSTORE POP PUSH1 0x20 DUP3 ADD MLOAD DUP2 PUSH0 ADD PUSH1 0x8 PUSH2 0x100 EXP DUP2 SLOAD DUP2 PUSH8 0xFFFFFFFFFFFFFFFF MUL NOT AND SWAP1 DUP4 PUSH8 0xFFFFFFFFFFFFFFFF AND MUL OR SWAP1 SSTORE POP PUSH1 0x40 DUP3 ADD MLOAD DUP2 PUSH1 0x1 ADD PUSH0 PUSH2 0x100 EXP DUP2 SLOAD DUP2 PUSH20 0xFFFFFFFFFFFFFFFFFFFFFFFFFFFFFFFFFFFFFFFF MUL NOT AND SWAP1 DUP4 PUSH20 0xFFFFFFFFFFFFFFFFFFFFFFFFFFFFFFFFFFFFFFFF AND MUL OR SWAP1 SSTORE POP PUSH1 0x60 DUP3 ADD MLOAD DUP2 PUSH1 0x1 ADD PUSH1 0x14 PUSH2 0x100 EXP DUP2 SLOAD DUP2 PUSH1 0xFF MUL NOT AND SWAP1 DUP4 ISZERO ISZERO MUL OR SWAP1 SSTORE POP POP POP PUSH1 0x40 MLOAD DUP1 PUSH1 0xA0 ADD PUSH1 0x40 MSTORE DUP1 PUSH9 0x3635C9ADC5DEA00000 PUSH16 0xFFFFFFFFFFFFFFFFFFFFFFFFFFFFFFFF AND DUP2 MSTORE PUSH1 0x20 ADD PUSH9 0x1B1AE4D6E2EF500000 PUSH16 0xFFFFFFFFFFFFFFFFFFFFFFFFFFFFFFFF AND DUP2 MSTORE PUSH1 0x20 ADD TIMESTAMP DUP2 MSTORE PUSH1 0x20 ADD PUSH1 0xA PUSH8 0xFFFFFFFFFFFFFFFF AND DUP2 MSTORE PUSH1 0x20 ADD PUSH1 0x1 ISZERO ISZERO DUP2 MSTORE POP PUSH1 0x5 PUSH0 CALLER PUSH20 0xFFFFFFFFFFFFFFFFFFFFFFFFFFFFFFFFFFFFFFFF AND PUSH20 0xFFFFFFFFFFFFFFFFFFFFFFFFFFFFFFFFFFFFFFFF AND DUP2 MSTORE PUSH1 0x20 ADD SWAP1 DUP2 MSTORE PUSH1 0x20 ADD PUSH0 KECCAK256 PUSH0 DUP3 ADD MLOAD DUP2 PUSH0 ADD PUSH0 PUSH2 0x100 EXP DUP2 SLOAD DUP2 PUSH16 0xFFFFFFFFFFFFFFFFFFFFFFFFFFFFFFFF MUL NOT AND SWAP1 DUP4 PUSH16 0xFFFFFFFFFFFFFFFFFFFFFFFFFFFFFFFF AND MUL OR SWAP1 SSTORE POP PUSH1 0x20 DUP3 ADD MLOAD DUP2 PUSH0 ADD PUSH1 0x10 PUSH2 0x100 EXP DUP2 SLOAD DUP2 PUSH16 0xFFFFFFFFFFFFFFFFFFFFFFFFFFFFFFFF MUL NOT AND SWAP1 DUP4 PUSH16 0xFFFFFFFFFFFFFFFFFFFFFFFFFFFFFFFF AND MUL OR SWAP1 SSTORE POP PUSH1 0x40 DUP3 ADD MLOAD DUP2 PUSH1 0x1 ADD SSTORE PUSH1 0x60 DUP3 ADD MLOAD DUP2 PUSH1 0x2 ADD PUSH0 PUSH2 0x100 EXP DUP2 SLOAD DUP2 PUSH8 0xFFFFFFFFFFFFFFFF MUL NOT AND SWAP1 DUP4 PUSH8 0xFFFFFFFFFFFFFFFF AND MUL OR SWAP1 SSTORE POP PUSH1 0x80 DUP3 ADD MLOAD DUP2 PUSH1 0x2 ADD PUSH1 0x8 PUSH2 0x100 EXP DUP2 SLOAD DUP2 PUSH1 0xFF MUL NOT AND SWAP1 DUP4 ISZERO ISZERO MUL OR SWAP1 SSTORE POP SWAP1 POP POP PUSH1 0x6 PUSH1 0x40 MLOAD DUP1 PUSH1 0x60 ADD PUSH1 0x40 MSTORE DUP1 PUSH1 0x1 PUSH1 0xFF AND DUP2 MSTORE PUSH1 0x20 ADD PUSH1 0x2 PUSH1 0xFF AND DUP2 MSTORE PUSH1 0x20 ADD PUSH1 0x3 PUSH1 0xFF AND DUP2 MSTORE POP SWAP1 DUP1 PUSH1 0x1 DUP2 SLOAD ADD DUP1 DUP3 SSTORE DUP1 SWAP2 POP POP PUSH1 0x1 SWAP1 SUB SWAP1 PUSH0 MSTORE PUSH1 0x20 PUSH0 KECCAK256 ADD PUSH0 SWAP1 SWAP2 SWAP1 SWAP2 SWAP1 SWAP2 POP SWAP1 DUP2 PUSH2 0x5BC SWAP2 SWAP1 PUSH2 0xC78 JUMP JUMPDEST POP PUSH1 0x6 PUSH1 0x40 MLOAD DUP1 PUSH1 0x60 ADD PUSH1 0x40 MSTORE DUP1 PUSH1 0x4 PUSH1 0xFF AND DUP2 MSTORE PUSH1 0x20 ADD PUSH1 0x5 PUSH1 0xFF AND DUP2 MSTORE PUSH1 0x20 ADD PUSH1 0x6 PUSH1 0xFF AND DUP2 MSTORE POP SWAP1 DUP1 PUSH1 0x1 DUP2 SLOAD ADD DUP1 DUP3 SSTORE DUP1 SWAP2 POP POP PUSH1 0x1 SWAP1 SUB SWAP1 PUSH0 MSTORE PUSH1 0x20 PUSH0 KECCAK256 ADD PUSH0 SWAP1 SWAP2 SWAP1 SWAP2 SWAP1 SWAP2 POP SWAP1 DUP2 PUSH2 0x614 SWAP2 SWAP1 PUSH2 0xC78 JUMP JUMPDEST POP PUSH32 0xFFFFFFFFFFFFFFFFFFFFFFFFFFFFFFFFFFFFFFFFFFFFFFFFFFFFFFFFFFFFFFFF PUSH1 0x7 PUSH0 PUSH0 DUP2 MSTORE PUSH1 0x20 ADD SWAP1 DUP2 MSTORE PUSH1 0x20 ADD PUSH0 KECCAK256 DUP2 SWAP1 SSTORE POP PUSH1 0x1 PUSH1 0x7 PUSH0 PUSH1 0x1 DUP2 MSTORE PUSH1 0x20 ADD SWAP1 DUP2 MSTORE PUSH1 0x20 ADD PUSH0 KECCAK256 DUP2 SWAP1 SSTORE POP POP PUSH1 0x1 PUSH1 0x8 DUP2 SWAP1 SSTORE POP CALLER PUSH1 0x9 PUSH0 PUSH2 0x100 EXP DUP2 SLOAD DUP2 PUSH20 0xFFFFFFFFFFFFFFFFFFFFFFFFFFFFFFFFFFFFFFFF MUL NOT AND SWAP1 DUP4 PUSH20 0xFFFFFFFFFFFFFFFFFFFFFFFFFFFFFFFFFFFFFFFF AND MUL OR SWAP1 SSTORE POP PUSH2 0x3E8 PUSH1 0xA DUP2 SWAP1 SSTORE POP PUSH1 0x40 MLOAD DUP1 PUSH1 0x40 ADD PUSH1 0x40 MSTORE DUP1 PUSH1 0x11 DUP2 MSTORE PUSH1 0x20 ADD PUSH32 0x53746F726167652056657273696F6E2031000000000000000000000000000000 DUP2 MSTORE POP PUSH1 0xC SWAP1 DUP2 PUSH2 0x6F9 SWAP2 SWAP1 PUSH2 0xAAE JUMP JUMPDEST POP PUSH2 0xCFC JUMP JUMPDEST PUSH32 0x4E487B7100000000000000000000000000000000000000000000000000000000 PUSH0 MSTORE PUSH1 0x21 PUSH1 0x4 MSTORE PUSH1 0x24 PUSH0 REVERT JUMPDEST PUSH0 DUP2 MLOAD SWAP1 POP SWAP2 SWAP1 POP JUMP JUMPDEST PUSH32 0x4E487B7100000000000000000000000000000000000000000000000000000000 PUSH0 MSTORE PUSH1 0x41 PUSH1 0x4 MSTORE PUSH1 0x24 PUSH0 REVERT JUMPDEST PUSH32 0x4E487B7100000000000000000000000000000000000000000000000000000000 PUSH0 MSTORE PUSH1 0x22 PUSH1 0x4 MSTORE PUSH1 0x24 PUSH0 REVERT JUMPDEST PUSH0 PUSH1 0x2 DUP3 DIV SWAP1 POP PUSH1 0x1 DUP3 AND DUP1 PUSH2 0x7A7 JUMPI PUSH1 0x7F DUP3 AND SWAP2 POP JUMPDEST PUSH1 0x20 DUP3 LT DUP2 SUB PUSH2 0x7BA JUMPI PUSH2 0x7B9 PUSH2 0x763 JUMP JUMPDEST JUMPDEST POP SWAP2 SWAP1 POP JUMP JUMPDEST PUSH0 DUP2 SWAP1 POP DUP2 PUSH0 MSTORE PUSH1 0x20 PUSH0 KECCAK256 SWAP1 POP SWAP2 SWAP1 POP JUMP JUMPDEST PUSH0 PUSH1 0x20 PUSH1 0x1F DUP4 ADD DIV SWAP1 POP SWAP2 SWAP1 POP JUMP JUMPDEST PUSH0 DUP3 DUP3 SHL SWAP1 POP SWAP3 SWAP2 POP POP JUMP JUMPDEST PUSH0 PUSH1 0x8 DUP4 MUL PUSH2 0x81C PUSH32 0xFFFFFFFFFFFFFFFFFFFFFFFFFFFFFFFFFFFFFFFFFFFFFFFFFFFFFFFFFFFFFFFF DUP3 PUSH2 0x7E1 JUMP JUMPDEST PUSH2 0x826 DUP7 DUP4 PUSH2 0x7E1 JUMP JUMPDEST SWAP6 POP DUP1 NOT DUP5 AND SWAP4 POP DUP1 DUP7 AND DUP5 OR SWAP3 POP POP POP SWAP4 SWAP3 POP POP POP JUMP JUMPDEST PUSH0 DUP2 SWAP1 POP SWAP2 SWAP1 POP JUMP JUMPDEST PUSH0 DUP2 SWAP1 POP SWAP2 SWAP1 POP JUMP JUMPDEST PUSH0 PUSH2 0x86A PUSH2 0x865 PUSH2 0x860 DUP5 PUSH2 0x83E JUMP JUMPDEST PUSH2 0x847 JUMP JUMPDEST PUSH2 0x83E JUMP JUMPDEST SWAP1 POP SWAP2 SWAP1 POP JUMP JUMPDEST PUSH0 DUP2 SWAP1 POP SWAP2 SWAP1 POP JUMP JUMPDEST PUSH2 0x883 DUP4 PUSH2 0x850 JUMP JUMPDEST PUSH2 0x897 PUSH2 0x88F DUP3 PUSH2 0x871 JUMP JUMPDEST DUP5 DUP5 SLOAD PUSH2 0x7ED JUMP JUMPDEST DUP3 SSTORE POP POP POP POP JUMP JUMPDEST PUSH0 PUSH0 SWAP1 POP SWAP1 JUMP JUMPDEST PUSH2 0x8AE PUSH2 0x89F JUMP JUMPDEST PUSH2 0x8B9 DUP2 DUP5 DUP5 PUSH2 0x87A JUMP JUMPDEST POP POP POP JUMP JUMPDEST PUSH0 JUMPDEST DUP3 DUP2 LT ISZERO PUSH2 0x8DF JUMPI PUSH2 0x8D4 PUSH0 DUP3 DUP5 ADD PUSH2 0x8A6 JUMP JUMPDEST PUSH1 0x1 DUP2 ADD SWAP1 POP PUSH2 0x8C0 JUMP JUMPDEST POP POP POP JUMP JUMPDEST PUSH1 0x1F DUP3 GT ISZERO PUSH2 0x932 JUMPI DUP3 DUP3 GT ISZERO PUSH2 0x931 JUMPI PUSH2 0x8FE DUP2 PUSH2 0x7C0 JUMP JUMPDEST PUSH2 0x907 DUP4 PUSH2 0x7D2 JUMP JUMPDEST PUSH2 0x910 DUP6 PUSH2 0x7D2 JUMP JUMPDEST PUSH1 0x20 DUP7 LT ISZERO PUSH2 0x91D JUMPI PUSH0 SWAP1 POP JUMPDEST DUP1 DUP4 ADD PUSH2 0x92C DUP3 DUP5 SUB DUP3 PUSH2 0x8BE JUMP JUMPDEST POP POP POP POP JUMPDEST JUMPDEST POP POP POP JUMP JUMPDEST PUSH0 DUP3 DUP3 SHR SWAP1 POP SWAP3 SWAP2 POP POP JUMP JUMPDEST PUSH0 PUSH2 0x952 PUSH0 NOT DUP5 PUSH1 0x8 MUL PUSH2 0x937 JUMP JUMPDEST NOT DUP1 DUP4 AND SWAP2 POP POP SWAP3 SWAP2 POP POP JUMP JUMPDEST PUSH0 PUSH2 0x96A DUP4 DUP4 PUSH2 0x943 JUMP JUMPDEST SWAP2 POP DUP3 PUSH1 0x2 MUL DUP3 OR SWAP1 POP SWAP3 SWAP2 POP POP JUMP JUMPDEST PUSH2 0x983 DUP3 PUSH2 0x72C JUMP JUMPDEST PUSH8 0xFFFFFFFFFFFFFFFF DUP2 GT ISZERO PUSH2 0x99C JUMPI PUSH2 0x99B PUSH2 0x736 JUMP JUMPDEST JUMPDEST PUSH2 0x9A6 DUP3 SLOAD PUSH2 0x790 JUMP JUMPDEST PUSH2 0x9B1 DUP3 DUP3 DUP6 PUSH2 0x8E4 JUMP JUMPDEST PUSH0 PUSH1 0x20 SWAP1 POP PUSH1 0x1F DUP4 GT PUSH1 0x1 DUP2 EQ PUSH2 0x9E2 JUMPI PUSH0 DUP5 ISZERO PUSH2 0x9D0 JUMPI DUP3 DUP8 ADD MLOAD SWAP1 POP JUMPDEST PUSH2 0x9DA DUP6 DUP3 PUSH2 0x95F JUMP JUMPDEST DUP7 SSTORE POP PUSH2 0xA41 JUMP JUMPDEST PUSH1 0x1F NOT DUP5 AND PUSH2 0x9F0 DUP7 PUSH2 0x7C0 JUMP JUMPDEST PUSH0 JUMPDEST DUP3 DUP2 LT ISZERO PUSH2 0xA17 JUMPI DUP5 DUP10 ADD MLOAD DUP3 SSTORE PUSH1 0x1 DUP3 ADD SWAP2 POP PUSH1 0x20 DUP6 ADD SWAP5 POP PUSH1 0x20 DUP2 ADD SWAP1 POP PUSH2 0x9F2 JUMP JUMPDEST DUP7 DUP4 LT ISZERO PUSH2 0xA34 JUMPI DUP5 DUP10 ADD MLOAD PUSH2 0xA30 PUSH1 0x1F DUP10 AND DUP3 PUSH2 0x943 JUMP JUMPDEST DUP4 SSTORE POP JUMPDEST PUSH1 0x1 PUSH1 0x2 DUP9 MUL ADD DUP9 SSTORE POP POP POP JUMPDEST POP POP POP POP POP POP JUMP JUMPDEST PUSH0 DUP2 SWAP1 POP DUP2 PUSH0 MSTORE PUSH1 0x20 PUSH0 KECCAK256 SWAP1 POP SWAP2 SWAP1 POP JUMP JUMPDEST PUSH1 0x1F DUP3 GT ISZERO PUSH2 0xAA9 JUMPI DUP3 DUP3 GT ISZERO PUSH2 0xAA8 JUMPI PUSH2 0xA75 DUP2 PUSH2 0xA49 JUMP JUMPDEST PUSH2 0xA7E DUP4 PUSH2 0x7D2 JUMP JUMPDEST PUSH2 0xA87 DUP6 PUSH2 0x7D2 JUMP JUMPDEST PUSH1 0x20 DUP7 LT ISZERO PUSH2 0xA94 JUMPI PUSH0 SWAP1 POP JUMPDEST DUP1 DUP4 ADD PUSH2 0xAA3 DUP3 DUP5 SUB DUP3 PUSH2 0x8BE JUMP JUMPDEST POP POP POP POP JUMPDEST JUMPDEST POP POP POP JUMP JUMPDEST PUSH2 0xAB7 DUP3 PUSH2 0x72C JUMP JUMPDEST PUSH8 0xFFFFFFFFFFFFFFFF DUP2 GT ISZERO PUSH2 0xAD0 JUMPI PUSH2 0xACF PUSH2 0x736 JUMP JUMPDEST JUMPDEST PUSH2 0xADA DUP3 SLOAD PUSH2 0x790 JUMP JUMPDEST PUSH2 0xAE5 DUP3 DUP3 DUP6 PUSH2 0xA5B JUMP JUMPDEST PUSH0 PUSH1 0x20 SWAP1 POP PUSH1 0x1F DUP4 GT PUSH1 0x1 DUP2 EQ PUSH2 0xB16 JUMPI PUSH0 DUP5 ISZERO PUSH2 0xB04 JUMPI DUP3 DUP8 ADD MLOAD SWAP1 POP JUMPDEST PUSH2 0xB0E DUP6 DUP3 PUSH2 0x95F JUMP JUMPDEST DUP7 SSTORE POP PUSH2 0xB75 JUMP JUMPDEST PUSH1 0x1F NOT DUP5 AND PUSH2 0xB24 DUP7 PUSH2 0xA49 JUMP JUMPDEST PUSH0 JUMPDEST DUP3 DUP2 LT ISZERO PUSH2 0xB4B JUMPI DUP5 DUP10 ADD MLOAD DUP3 SSTORE PUSH1 0x1 DUP3 ADD SWAP2 POP PUSH1 0x20 DUP6 ADD SWAP5 POP PUSH1 0x20 DUP2 ADD SWAP1 POP PUSH2 0xB26 JUMP JUMPDEST DUP7 DUP4 LT ISZERO PUSH2 0xB68 JUMPI DUP5 DUP10 ADD MLOAD PUSH2 0xB64 PUSH1 0x1F DUP10 AND DUP3 PUSH2 0x943 JUMP JUMPDEST DUP4 SSTORE POP JUMPDEST PUSH1 0x1 PUSH1 0x2 DUP9 MUL ADD DUP9 SSTORE POP POP POP JUMPDEST POP POP POP POP POP POP JUMP JUMPDEST PUSH0 DUP2 SLOAD SWAP1 POP SWAP2 SWAP1 POP JUMP JUMPDEST PUSH0 DUP2 SWAP1 POP PUSH1 0x1 DUP1 PUSH1 0x1 SUB DUP4 ADD DIV SWAP1 POP SWAP2 SWAP1 POP JUMP JUMPDEST PUSH0 DUP2 SWAP1 POP DUP2 PUSH0 MSTORE PUSH1 0x20 PUSH0 KECCAK256 SWAP1 POP SWAP2 SWAP1 POP JUMP JUMPDEST PUSH0 JUMPDEST DUP3 DUP2 LT ISZERO PUSH2 0xBCE JUMPI PUSH2 0xBC3 PUSH0 DUP3 DUP5 ADD PUSH2 0x8A6 JUMP JUMPDEST PUSH1 0x1 DUP2 ADD SWAP1 POP PUSH2 0xBAF JUMP JUMPDEST POP POP POP JUMP JUMPDEST DUP2 DUP4 LT ISZERO PUSH2 0xC0A JUMPI PUSH2 0xBE4 DUP3 PUSH2 0xB87 JUMP JUMPDEST PUSH2 0xBED DUP5 PUSH2 0xB87 JUMP JUMPDEST PUSH2 0xBF6 DUP4 PUSH2 0xB9B JUMP JUMPDEST DUP2 DUP2 ADD PUSH2 0xC05 DUP4 DUP6 SUB DUP3 PUSH2 0xBAD JUMP JUMPDEST POP POP POP POP JUMPDEST POP POP POP JUMP JUMPDEST PUSH9 0x10000000000000000 DUP3 GT ISZERO PUSH2 0xC29 JUMPI PUSH2 0xC28 PUSH2 0x736 JUMP JUMPDEST JUMPDEST PUSH2 0xC32 DUP2 PUSH2 0xB7D JUMP JUMPDEST DUP3 DUP3 SSTORE PUSH2 0xC40 DUP4 DUP3 DUP5 PUSH2 0xBD3 JUMP JUMPDEST POP POP POP JUMP JUMPDEST PUSH0 PUSH1 0x3 SWAP1 POP SWAP2 SWAP1 POP JUMP JUMPDEST PUSH0 PUSH1 0xFF DUP3 AND SWAP1 POP SWAP2 SWAP1 POP JUMP JUMPDEST PUSH0 PUSH2 0xC66 DUP3 MLOAD PUSH2 0xC4F JUMP JUMPDEST DUP1 SWAP2 POP POP SWAP2 SWAP1 POP JUMP JUMPDEST PUSH0 DUP2 SWAP1 POP SWAP2 SWAP1 POP JUMP JUMPDEST PUSH2 0xC81 DUP3 PUSH2 0xC45 JUMP JUMPDEST PUSH8 0xFFFFFFFFFFFFFFFF DUP2 GT ISZERO PUSH2 0xC9A JUMPI PUSH2 0xC99 PUSH2 0x736 JUMP JUMPDEST JUMPDEST PUSH2 0xCA4 DUP2 DUP4 PUSH2 0xC0F JUMP JUMPDEST PUSH2 0xCAD DUP4 PUSH2 0xC6F JUMP JUMPDEST PUSH2 0xCB6 DUP4 PUSH2 0xB9B JUMP JUMPDEST PUSH1 0x1 DUP4 DIV PUSH0 JUMPDEST DUP2 DUP2 LT ISZERO PUSH2 0xCF3 JUMPI PUSH0 PUSH2 0xCCE DUP6 PUSH2 0xC5B JUMP JUMPDEST PUSH2 0xCD7 DUP2 PUSH2 0x871 JUMP JUMPDEST DUP1 SWAP3 POP PUSH1 0x20 DUP8 ADD SWAP7 POP POP POP DUP1 DUP3 DUP6 ADD SSTORE POP PUSH1 0x1 DUP2 ADD SWAP1 POP PUSH2 0xCBC JUMP JUMPDEST POP POP POP POP POP POP POP JUMP JUMPDEST PUSH1 0x80 MLOAD PUSH2 0xF09 PUSH2 0xD14 PUSH0 CODECOPY PUSH0 PUSH2 0x85F ADD MSTORE PUSH2 0xF09 PUSH0 RETURN INVALID PUSH1 0x80 PUSH1 0x40 MSTORE CALLVALUE DUP1 ISZERO PUSH2 0xF JUMPI PUSH0 PUSH0 REVERT JUMPDEST POP PUSH1 0x4 CALLDATASIZE LT PUSH2 0x14B JUMPI PUSH0 CALLDATALOAD PUSH1 0xE0 SHR DUP1 PUSH4 0x6FD5AE15 GT PUSH2 0xC1 JUMPI DUP1 PUSH4 0xA87430BA GT PUSH2 0x7A JUMPI DUP1 PUSH4 0xA87430BA EQ PUSH2 0x382 JUMPI DUP1 PUSH4 0xC45A0155 EQ PUSH2 0x3B6 JUMPI DUP1 PUSH4 0xD9A38D64 EQ PUSH2 0x3D4 JUMPI DUP1 PUSH4 0xECB2B5CB EQ PUSH2 0x404 JUMPI DUP1 PUSH4 0xFA44F589 EQ PUSH2 0x434 JUMPI DUP1 PUSH4 0xFFA1AD74 EQ PUSH2 0x452 JUMPI PUSH2 0x14B JUMP JUMPDEST DUP1 PUSH4 0x6FD5AE15 EQ PUSH2 0x2A9 JUMPI DUP1 PUSH4 0x7091A9F6 EQ PUSH2 0x2C7 JUMPI DUP1 PUSH4 0x8DA5CB5B EQ PUSH2 0x2E3 JUMPI DUP1 PUSH4 0x90DABA0A EQ PUSH2 0x301 JUMPI DUP1 PUSH4 0xA2F4BB26 EQ PUSH2 0x331 JUMPI DUP1 PUSH4 0xA85C38EF EQ PUSH2 0x34F JUMPI PUSH2 0x14B JUMP JUMPDEST DUP1 PUSH4 0x3545B494 GT PUSH2 0x113 JUMPI DUP1 PUSH4 0x3545B494 EQ PUSH2 0x1F5 JUMPI DUP1 PUSH4 0x54FD4D50 EQ PUSH2 0x213 JUMPI DUP1 PUSH4 0x5A0A4A64 EQ PUSH2 0x231 JUMPI DUP1 PUSH4 0x5C975ABB EQ PUSH2 0x24F JUMPI DUP1 PUSH4 0x61BC221A EQ PUSH2 0x26D JUMPI DUP1 PUSH4 0x6670CDE0 EQ PUSH2 0x28B JUMPI PUSH2 0x14B JUMP JUMPDEST DUP1 PUSH4 0x56DA048 EQ PUSH2 0x14F JUMPI DUP1 PUSH4 0x6FDDE03 EQ PUSH2 0x16D JUMPI DUP1 PUSH4 0x14336B85 EQ PUSH2 0x18B JUMPI DUP1 PUSH4 0x200D2ED2 EQ PUSH2 0x1A7 JUMPI DUP1 PUSH4 0x27E235E3 EQ PUSH2 0x1C5 JUMPI JUMPDEST PUSH0 PUSH0 REVERT JUMPDEST PUSH2 0x157 PUSH2 0x470 JUMP JUMPDEST PUSH1 0x40 MLOAD PUSH2 0x164 SWAP2 SWAP1 PUSH2 0x954 JUMP JUMPDEST PUSH1 0x40 MLOAD DUP1 SWAP2 SUB SWAP1 RETURN JUMPDEST PUSH2 0x175 PUSH2 0x4FC JUMP JUMPDEST PUSH1 0x40 MLOAD PUSH2 0x182 SWAP2 SWAP1 PUSH2 0x954 JUMP JUMPDEST PUSH1 0x40 MLOAD DUP1 SWAP2 SUB SWAP1 RETURN JUMPDEST PUSH2 0x1A5 PUSH1 0x4 DUP1 CALLDATASIZE SUB DUP2 ADD SWAP1 PUSH2 0x1A0 SWAP2 SWAP1 PUSH2 0xA16 JUMP JUMPDEST PUSH2 0x588 JUMP JUMPDEST STOP JUMPDEST PUSH2 0x1AF PUSH2 0x5E4 JUMP JUMPDEST PUSH1 0x40 MLOAD PUSH2 0x1BC SWAP2 SWAP1 PUSH2 0xAD9 JUMP JUMPDEST PUSH1 0x40 MLOAD DUP1 SWAP2 SUB SWAP1 RETURN JUMPDEST PUSH2 0x1DF PUSH1 0x4 DUP1 CALLDATASIZE SUB DUP2 ADD SWAP1 PUSH2 0x1DA SWAP2 SWAP1 PUSH2 0xB4C JUMP JUMPDEST PUSH2 0x5F5 JUMP JUMPDEST PUSH1 0x40 MLOAD PUSH2 0x1EC SWAP2 SWAP1 PUSH2 0xB86 JUMP JUMPDEST PUSH1 0x40 MLOAD DUP1 SWAP2 SUB SWAP1 RETURN JUMPDEST PUSH2 0x1FD PUSH2 0x60A JUMP JUMPDEST PUSH1 0x40 MLOAD PUSH2 0x20A SWAP2 SWAP1 PUSH2 0xBB7 JUMP JUMPDEST PUSH1 0x40 MLOAD DUP1 SWAP2 SUB SWAP1 RETURN JUMPDEST PUSH2 0x21B PUSH2 0x610 JUMP JUMPDEST PUSH1 0x40 MLOAD PUSH2 0x228 SWAP2 SWAP1 PUSH2 0xB86 JUMP JUMPDEST PUSH1 0x40 MLOAD DUP1 SWAP2 SUB SWAP1 RETURN JUMPDEST PUSH2 0x239 PUSH2 0x616 JUMP JUMPDEST PUSH1 0x40 MLOAD PUSH2 0x246 SWAP2 SWAP1 PUSH2 0xC22 JUMP JUMPDEST PUSH1 0x40 MLOAD DUP1 SWAP2 SUB SWAP1 RETURN JUMPDEST PUSH2 0x257 PUSH2 0x6A2 JUMP JUMPDEST PUSH1 0x40 MLOAD PUSH2 0x264 SWAP2 SWAP1 PUSH2 0xC51 JUMP JUMPDEST PUSH1 0x40 MLOAD DUP1 SWAP2 SUB SWAP1 RETURN JUMPDEST PUSH2 0x275 PUSH2 0x6B4 JUMP JUMPDEST PUSH1 0x40 MLOAD PUSH2 0x282 SWAP2 SWAP1 PUSH2 0xC79 JUMP JUMPDEST PUSH1 0x40 MLOAD DUP1 SWAP2 SUB SWAP1 RETURN JUMPDEST PUSH2 0x293 PUSH2 0x6C7 JUMP JUMPDEST PUSH1 0x40 MLOAD PUSH2 0x2A0 SWAP2 SWAP1 PUSH2 0xCAE JUMP JUMPDEST PUSH1 0x40 MLOAD DUP1 SWAP2 SUB SWAP1 RETURN JUMPDEST PUSH2 0x2B1 PUSH2 0x6DB JUMP JUMPDEST PUSH1 0x40 MLOAD PUSH2 0x2BE SWAP2 SWAP1 PUSH2 0xC79 JUMP JUMPDEST PUSH1 0x40 MLOAD DUP1 SWAP2 SUB SWAP1 RETURN JUMPDEST PUSH2 0x2E1 PUSH1 0x4 DUP1 CALLDATASIZE SUB DUP2 ADD SWAP1 PUSH2 0x2DC SWAP2 SWAP1 PUSH2 0xCC7 JUMP JUMPDEST PUSH2 0x6ED JUMP JUMPDEST STOP JUMPDEST PUSH2 0x2EB PUSH2 0x6F7 JUMP JUMPDEST PUSH1 0x40 MLOAD PUSH2 0x2F8 SWAP2 SWAP1 PUSH2 0xD01 JUMP JUMPDEST PUSH1 0x40 MLOAD DUP1 SWAP2 SUB SWAP1 RETURN JUMPDEST PUSH2 0x31B PUSH1 0x4 DUP1 CALLDATASIZE SUB DUP2 ADD SWAP1 PUSH2 0x316 SWAP2 SWAP1 PUSH2 0xD1A JUMP JUMPDEST PUSH2 0x71C JUMP JUMPDEST PUSH1 0x40 MLOAD PUSH2 0x328 SWAP2 SWAP1 PUSH2 0xC51 JUMP JUMPDEST PUSH1 0x40 MLOAD DUP1 SWAP2 SUB SWAP1 RETURN JUMPDEST PUSH2 0x339 PUSH2 0x742 JUMP JUMPDEST PUSH1 0x40 MLOAD PUSH2 0x346 SWAP2 SWAP1 PUSH2 0xB86 JUMP JUMPDEST PUSH1 0x40 MLOAD DUP1 SWAP2 SUB SWAP1 RETURN JUMPDEST PUSH2 0x369 PUSH1 0x4 DUP1 CALLDATASIZE SUB DUP2 ADD SWAP1 PUSH2 0x364 SWAP2 SWAP1 PUSH2 0xCC7 JUMP JUMPDEST PUSH2 0x748 JUMP JUMPDEST PUSH1 0x40 MLOAD PUSH2 0x379 SWAP5 SWAP4 SWAP3 SWAP2 SWAP1 PUSH2 0xD7A JUMP JUMPDEST PUSH1 0x40 MLOAD DUP1 SWAP2 SUB SWAP1 RETURN JUMPDEST PUSH2 0x39C PUSH1 0x4 DUP1 CALLDATASIZE SUB DUP2 ADD SWAP1 PUSH2 0x397 SWAP2 SWAP1 PUSH2 0xB4C JUMP JUMPDEST PUSH2 0x7D5 JUMP JUMPDEST PUSH1 0x40 MLOAD PUSH2 0x3AD SWAP6 SWAP5 SWAP4 SWAP3 SWAP2 SWAP1 PUSH2 0xDE7 JUMP JUMPDEST PUSH1 0x40 MLOAD DUP1 SWAP2 SUB SWAP1 RETURN JUMPDEST PUSH2 0x3BE PUSH2 0x85D JUMP JUMPDEST PUSH1 0x40 MLOAD PUSH2 0x3CB SWAP2 SWAP1 PUSH2 0xD01 JUMP JUMPDEST PUSH1 0x40 MLOAD DUP1 SWAP2 SUB SWAP1 RETURN JUMPDEST PUSH2 0x3EE PUSH1 0x4 DUP1 CALLDATASIZE SUB DUP2 ADD SWAP1 PUSH2 0x3E9 SWAP2 SWAP1 PUSH2 0xE38 JUMP JUMPDEST PUSH2 0x881 JUMP JUMPDEST PUSH1 0x40 MLOAD PUSH2 0x3FB SWAP2 SWAP1 PUSH2 0xB86 JUMP JUMPDEST PUSH1 0x40 MLOAD DUP1 SWAP2 SUB SWAP1 RETURN JUMPDEST PUSH2 0x41E PUSH1 0x4 DUP1 CALLDATASIZE SUB DUP2 ADD SWAP1 PUSH2 0x419 SWAP2 SWAP1 PUSH2 0xCC7 JUMP JUMPDEST PUSH2 0x8B7 JUMP JUMPDEST PUSH1 0x40 MLOAD PUSH2 0x42B SWAP2 SWAP1 PUSH2 0xB86 JUMP JUMPDEST PUSH1 0x40 MLOAD DUP1 SWAP2 SUB SWAP1 RETURN JUMPDEST PUSH2 0x43C PUSH2 0x8CC JUMP JUMPDEST PUSH1 0x40 MLOAD PUSH2 0x449 SWAP2 SWAP1 PUSH2 0xCAE JUMP JUMPDEST PUSH1 0x40 MLOAD DUP1 SWAP2 SUB SWAP1 RETURN JUMPDEST PUSH2 0x45A PUSH2 0x8DF JUMP JUMPDEST PUSH1 0x40 MLOAD PUSH2 0x467 SWAP2 SWAP1 PUSH2 0xB86 JUMP JUMPDEST PUSH1 0x40 MLOAD DUP1 SWAP2 SUB SWAP1 RETURN JUMPDEST PUSH1 0x3 DUP1 SLOAD PUSH2 0x47D SWAP1 PUSH2 0xEA3 JUMP JUMPDEST DUP1 PUSH1 0x1F ADD PUSH1 0x20 DUP1 SWAP2 DIV MUL PUSH1 0x20 ADD PUSH1 0x40 MLOAD SWAP1 DUP2 ADD PUSH1 0x40 MSTORE DUP1 SWAP3 SWAP2 SWAP1 DUP2 DUP2 MSTORE PUSH1 0x20 ADD DUP3 DUP1 SLOAD PUSH2 0x4A9 SWAP1 PUSH2 0xEA3 JUMP JUMPDEST DUP1 ISZERO PUSH2 0x4F4 JUMPI DUP1 PUSH1 0x1F LT PUSH2 0x4CB JUMPI PUSH2 0x100 DUP1 DUP4 SLOAD DIV MUL DUP4 MSTORE SWAP2 PUSH1 0x20 ADD SWAP2 PUSH2 0x4F4 JUMP JUMPDEST DUP3 ADD SWAP2 SWAP1 PUSH0 MSTORE PUSH1 0x20 PUSH0 KECCAK256 SWAP1 JUMPDEST DUP2 SLOAD DUP2 MSTORE SWAP1 PUSH1 0x1 ADD SWAP1 PUSH1 0x20 ADD DUP1 DUP4 GT PUSH2 0x4D7 JUMPI DUP3 SWAP1 SUB PUSH1 0x1F AND DUP3 ADD SWAP2 JUMPDEST POP POP POP POP POP DUP2 JUMP JUMPDEST PUSH1 0xC DUP1 SLOAD PUSH2 0x509 SWAP1 PUSH2 0xEA3 JUMP JUMPDEST DUP1 PUSH1 0x1F ADD PUSH1 0x20 DUP1 SWAP2 DIV MUL PUSH1 0x20 ADD PUSH1 0x40 MLOAD SWAP1 DUP2 ADD PUSH1 0x40 MSTORE DUP1 SWAP3 SWAP2 SWAP1 DUP2 DUP2 MSTORE PUSH1 0x20 ADD DUP3 DUP1 SLOAD PUSH2 0x535 SWAP1 PUSH2 0xEA3 JUMP JUMPDEST DUP1 ISZERO PUSH2 0x580 JUMPI DUP1 PUSH1 0x1F LT PUSH2 0x557 JUMPI PUSH2 0x100 DUP1 DUP4 SLOAD DIV MUL DUP4 MSTORE SWAP2 PUSH1 0x20 ADD SWAP2 PUSH2 0x580 JUMP JUMPDEST DUP3 ADD SWAP2 SWAP1 PUSH0 MSTORE PUSH1 0x20 PUSH0 KECCAK256 SWAP1 JUMPDEST DUP2 SLOAD DUP2 MSTORE SWAP1 PUSH1 0x1 ADD SWAP1 PUSH1 0x20 ADD DUP1 DUP4 GT PUSH2 0x563 JUMPI DUP3 SWAP1 SUB PUSH1 0x1F AND DUP3 ADD SWAP2 JUMPDEST POP POP POP POP POP DUP2 JUMP JUMPDEST DUP1 ISZERO PUSH2 0x5B8 JUMPI DUP2 PUSH1 0xFF AND PUSH1 0x1 SWAP1 SHL PUSH1 0x7 PUSH0 DUP6 DUP2 MSTORE PUSH1 0x20 ADD SWAP1 DUP2 MSTORE PUSH1 0x20 ADD PUSH0 KECCAK256 PUSH0 DUP3 DUP3 SLOAD OR SWAP3 POP POP DUP2 SWAP1 SSTORE POP PUSH2 0x5DF JUMP JUMPDEST DUP2 PUSH1 0xFF AND PUSH1 0x1 SWAP1 SHL NOT PUSH1 0x7 PUSH0 DUP6 DUP2 MSTORE PUSH1 0x20 ADD SWAP1 DUP2 MSTORE PUSH1 0x20 ADD PUSH0 KECCAK256 PUSH0 DUP3 DUP3 SLOAD AND SWAP3 POP POP DUP2 SWAP1 SSTORE POP JUMPDEST POP POP POP JUMP JUMPDEST PUSH0 PUSH0 SWAP1 SLOAD SWAP1 PUSH2 0x100 EXP SWAP1 DIV PUSH1 0xFF AND DUP2 JUMP JUMPDEST PUSH1 0xD PUSH1 0x20 MSTORE DUP1 PUSH0 MSTORE PUSH1 0x40 PUSH0 KECCAK256 PUSH0 SWAP2 POP SWAP1 POP SLOAD DUP2 JUMP JUMPDEST PUSH1 0x1 SLOAD DUP2 JUMP JUMPDEST PUSH1 0x8 SLOAD DUP2 JUMP JUMPDEST PUSH1 0x2 DUP1 SLOAD PUSH2 0x623 SWAP1 PUSH2 0xEA3 JUMP JUMPDEST DUP1 PUSH1 0x1F ADD PUSH1 0x20 DUP1 SWAP2 DIV MUL PUSH1 0x20 ADD PUSH1 0x40 MLOAD SWAP1 DUP2 ADD PUSH1 0x40 MSTORE DUP1 SWAP3 SWAP2 SWAP1 DUP2 DUP2 MSTORE PUSH1 0x20 ADD DUP3 DUP1 SLOAD PUSH2 0x64F SWAP1 PUSH2 0xEA3 JUMP JUMPDEST DUP1 ISZERO PUSH2 0x69A JUMPI DUP1 PUSH1 0x1F LT PUSH2 0x671 JUMPI PUSH2 0x100 DUP1 DUP4 SLOAD DIV MUL DUP4 MSTORE SWAP2 PUSH1 0x20 ADD SWAP2 PUSH2 0x69A JUMP JUMPDEST DUP3 ADD SWAP2 SWAP1 PUSH0 MSTORE PUSH1 0x20 PUSH0 KECCAK256 SWAP1 JUMPDEST DUP2 SLOAD DUP2 MSTORE SWAP1 PUSH1 0x1 ADD SWAP1 PUSH1 0x20 ADD DUP1 DUP4 GT PUSH2 0x67D JUMPI DUP3 SWAP1 SUB PUSH1 0x1F AND DUP3 ADD SWAP2 JUMPDEST POP POP POP POP POP DUP2 JUMP JUMPDEST PUSH1 0xB PUSH0 SWAP1 SLOAD SWAP1 PUSH2 0x100 EXP SWAP1 DIV PUSH1 0xFF AND DUP2 JUMP JUMPDEST PUSH1 0xB PUSH1 0x1 SWAP1 SLOAD SWAP1 PUSH2 0x100 EXP SWAP1 DIV PUSH1 0xFF AND DUP2 JUMP JUMPDEST PUSH1 0xB PUSH1 0x2 SWAP1 SLOAD SWAP1 PUSH2 0x100 EXP SWAP1 DIV PUSH2 0xFFFF AND DUP2 JUMP JUMPDEST PUSH0 PUSH1 0x1 SWAP1 SLOAD SWAP1 PUSH2 0x100 EXP SWAP1 DIV PUSH1 0xFF AND DUP2 JUMP JUMPDEST DUP1 PUSH1 0xA DUP2 SWAP1 SSTORE POP POP JUMP JUMPDEST PUSH1 0x9 PUSH0 SWAP1 SLOAD SWAP1 PUSH2 0x100 EXP SWAP1 DIV PUSH20 0xFFFFFFFFFFFFFFFFFFFFFFFFFFFFFFFFFFFFFFFF AND DUP2 JUMP JUMPDEST PUSH0 PUSH1 0x1 DUP1 DUP4 PUSH1 0xFF AND PUSH1 0x7 PUSH0 DUP8 DUP2 MSTORE PUSH1 0x20 ADD SWAP1 DUP2 MSTORE PUSH1 0x20 ADD PUSH0 KECCAK256 SLOAD SWAP1 SHR AND EQ SWAP1 POP SWAP3 SWAP2 POP POP JUMP JUMPDEST PUSH1 0xA SLOAD DUP2 JUMP JUMPDEST PUSH1 0x4 DUP2 DUP2 SLOAD DUP2 LT PUSH2 0x757 JUMPI PUSH0 DUP1 REVERT JUMPDEST SWAP1 PUSH0 MSTORE PUSH1 0x20 PUSH0 KECCAK256 SWAP1 PUSH1 0x2 MUL ADD PUSH0 SWAP2 POP SWAP1 POP DUP1 PUSH0 ADD PUSH0 SWAP1 SLOAD SWAP1 PUSH2 0x100 EXP SWAP1 DIV PUSH8 0xFFFFFFFFFFFFFFFF AND SWAP1 DUP1 PUSH0 ADD PUSH1 0x8 SWAP1 SLOAD SWAP1 PUSH2 0x100 EXP SWAP1 DIV PUSH8 0xFFFFFFFFFFFFFFFF AND SWAP1 DUP1 PUSH1 0x1 ADD PUSH0 SWAP1 SLOAD SWAP1 PUSH2 0x100 EXP SWAP1 DIV PUSH20 0xFFFFFFFFFFFFFFFFFFFFFFFFFFFFFFFFFFFFFFFF AND SWAP1 DUP1 PUSH1 0x1 ADD PUSH1 0x14 SWAP1 SLOAD SWAP1 PUSH2 0x100 EXP SWAP1 DIV PUSH1 0xFF AND SWAP1 POP DUP5 JUMP JUMPDEST PUSH1 0x5 PUSH1 0x20 MSTORE DUP1 PUSH0 MSTORE PUSH1 0x40 PUSH0 KECCAK256 PUSH0 SWAP2 POP SWAP1 POP DUP1 PUSH0 ADD PUSH0 SWAP1 SLOAD SWAP1 PUSH2 0x100 EXP SWAP1 DIV PUSH16 0xFFFFFFFFFFFFFFFFFFFFFFFFFFFFFFFF AND SWAP1 DUP1 PUSH0 ADD PUSH1 0x10 SWAP1 SLOAD SWAP1 PUSH2 0x100 EXP SWAP1 DIV PUSH16 0xFFFFFFFFFFFFFFFFFFFFFFFFFFFFFFFF AND SWAP1 DUP1 PUSH1 0x1 ADD SLOAD SWAP1 DUP1 PUSH1 0x2 ADD PUSH0 SWAP1 SLOAD SWAP1 PUSH2 0x100 EXP SWAP1 DIV PUSH8 0xFFFFFFFFFFFFFFFF AND SWAP1 DUP1 PUSH1 0x2 ADD PUSH1 0x8 SWAP1 SLOAD SWAP1 PUSH2 0x100 EXP SWAP1 DIV PUSH1 0xFF AND SWAP1 POP DUP6 JUMP JUMPDEST PUSH32 0x0 DUP2 JUMP JUMPDEST PUSH1 0x6 DUP3 DUP2 SLOAD DUP2 LT PUSH2 0x890 JUMPI PUSH0 DUP1 REVERT JUMPDEST SWAP1 PUSH0 MSTORE PUSH1 0x20 PUSH0 KECCAK256 ADD DUP2 DUP2 SLOAD DUP2 LT PUSH2 0x8A5 JUMPI PUSH0 DUP1 REVERT JUMPDEST SWAP1 PUSH0 MSTORE PUSH1 0x20 PUSH0 KECCAK256 ADD PUSH0 SWAP2 POP SWAP2 POP POP SLOAD DUP2 JUMP JUMPDEST PUSH1 0x7 PUSH1 0x20 MSTORE DUP1 PUSH0 MSTORE PUSH1 0x40 PUSH0 KECCAK256 PUSH0 SWAP2 POP SWAP1 POP SLOAD DUP2 JUMP JUMPDEST PUSH0 PUSH1 0x2 SWAP1 SLOAD SWAP1 PUSH2 0x100 EXP SWAP1 DIV PUSH2 0xFFFF AND DUP2 JUMP JUMPDEST PUSH1 0x1 DUP2 JUMP JUMPDEST PUSH0 DUP2 MLOAD SWAP1 POP SWAP2 SWAP1 POP JUMP JUMPDEST PUSH0 DUP3 DUP3 MSTORE PUSH1 0x20 DUP3 ADD SWAP1 POP SWAP3 SWAP2 POP POP JUMP JUMPDEST DUP3 DUP2 DUP4 MCOPY PUSH0 DUP4 DUP4 ADD MSTORE POP POP POP JUMP JUMPDEST PUSH0 PUSH1 0x1F NOT PUSH1 0x1F DUP4 ADD AND SWAP1 POP SWAP2 SWAP1 POP JUMP JUMPDEST PUSH0 PUSH2 0x926 DUP3 PUSH2 0x8E4 JUMP JUMPDEST PUSH2 0x930 DUP2 DUP6 PUSH2 0x8EE JUMP JUMPDEST SWAP4 POP PUSH2 0x940 DUP2 DUP6 PUSH1 0x20 DUP7 ADD PUSH2 0x8FE JUMP JUMPDEST PUSH2 0x949 DUP2 PUSH2 0x90C JUMP JUMPDEST DUP5 ADD SWAP2 POP POP SWAP3 SWAP2 POP POP JUMP JUMPDEST PUSH0 PUSH1 0x20 DUP3 ADD SWAP1 POP DUP2 DUP2 SUB PUSH0 DUP4 ADD MSTORE PUSH2 0x96C DUP2 DUP5 PUSH2 0x91C JUMP JUMPDEST SWAP1 POP SWAP3 SWAP2 POP POP JUMP JUMPDEST PUSH0 PUSH0 REVERT JUMPDEST PUSH0 DUP2 SWAP1 POP SWAP2 SWAP1 POP JUMP JUMPDEST PUSH2 0x98A DUP2 PUSH2 0x978 JUMP JUMPDEST DUP2 EQ PUSH2 0x994 JUMPI PUSH0 PUSH0 REVERT JUMPDEST POP JUMP JUMPDEST PUSH0 DUP2 CALLDATALOAD SWAP1 POP PUSH2 0x9A5 DUP2 PUSH2 0x981 JUMP JUMPDEST SWAP3 SWAP2 POP POP JUMP JUMPDEST PUSH0 PUSH1 0xFF DUP3 AND SWAP1 POP SWAP2 SWAP1 POP JUMP JUMPDEST PUSH2 0x9C0 DUP2 PUSH2 0x9AB JUMP JUMPDEST DUP2 EQ PUSH2 0x9CA JUMPI PUSH0 PUSH0 REVERT JUMPDEST POP JUMP JUMPDEST PUSH0 DUP2 CALLDATALOAD SWAP1 POP PUSH2 0x9DB DUP2 PUSH2 0x9B7 JUMP JUMPDEST SWAP3 SWAP2 POP POP JUMP JUMPDEST PUSH0 DUP2 ISZERO ISZERO SWAP1 POP SWAP2 SWAP1 POP JUMP JUMPDEST PUSH2 0x9F5 DUP2 PUSH2 0x9E1 JUMP JUMPDEST DUP2 EQ PUSH2 0x9FF JUMPI PUSH0 PUSH0 REVERT JUMPDEST POP JUMP JUMPDEST PUSH0 DUP2 CALLDATALOAD SWAP1 POP PUSH2 0xA10 DUP2 PUSH2 0x9EC JUMP JUMPDEST SWAP3 SWAP2 POP POP JUMP JUMPDEST PUSH0 PUSH0 PUSH0 PUSH1 0x60 DUP5 DUP7 SUB SLT ISZERO PUSH2 0xA2D JUMPI PUSH2 0xA2C PUSH2 0x974 JUMP JUMPDEST JUMPDEST PUSH0 PUSH2 0xA3A DUP7 DUP3 DUP8 ADD PUSH2 0x997 JUMP JUMPDEST SWAP4 POP POP PUSH1 0x20 PUSH2 0xA4B DUP7 DUP3 DUP8 ADD PUSH2 0x9CD JUMP JUMPDEST SWAP3 POP POP PUSH1 0x40 PUSH2 0xA5C DUP7 DUP3 DUP8 ADD PUSH2 0xA02 JUMP JUMPDEST SWAP2 POP POP SWAP3 POP SWAP3 POP SWAP3 JUMP JUMPDEST PUSH32 0x4E487B7100000000000000000000000000000000000000000000000000000000 PUSH0 MSTORE PUSH1 0x21 PUSH1 0x4 MSTORE PUSH1 0x24 PUSH0 REVERT JUMPDEST PUSH1 0x4 DUP2 LT PUSH2 0xAA4 JUMPI PUSH2 0xAA3 PUSH2 0xA66 JUMP JUMPDEST JUMPDEST POP JUMP JUMPDEST PUSH0 DUP2 SWAP1 POP PUSH2 0xAB4 DUP3 PUSH2 0xA93 JUMP JUMPDEST SWAP2 SWAP1 POP JUMP JUMPDEST PUSH0 PUSH2 0xAC3 DUP3 PUSH2 0xAA7 JUMP JUMPDEST SWAP1 POP SWAP2 SWAP1 POP JUMP JUMPDEST PUSH2 0xAD3 DUP2 PUSH2 0xAB9 JUMP JUMPDEST DUP3 MSTORE POP POP JUMP JUMPDEST PUSH0 PUSH1 0x20 DUP3 ADD SWAP1 POP PUSH2 0xAEC PUSH0 DUP4 ADD DUP5 PUSH2 0xACA JUMP JUMPDEST SWAP3 SWAP2 POP POP JUMP JUMPDEST PUSH0 PUSH20 0xFFFFFFFFFFFFFFFFFFFFFFFFFFFFFFFFFFFFFFFF DUP3 AND SWAP1 POP SWAP2 SWAP1 POP JUMP JUMPDEST PUSH0 PUSH2 0xB1B DUP3 PUSH2 0xAF2 JUMP JUMPDEST SWAP1 POP SWAP2 SWAP1 POP JUMP JUMPDEST PUSH2 0xB2B DUP2 PUSH2 0xB11 JUMP JUMPDEST DUP2 EQ PUSH2 0xB35 JUMPI PUSH0 PUSH0 REVERT JUMPDEST POP JUMP JUMPDEST PUSH0 DUP2 CALLDATALOAD SWAP1 POP PUSH2 0xB46 DUP2 PUSH2 0xB22 JUMP JUMPDEST SWAP3 SWAP2 POP POP JUMP JUMPDEST PUSH0 PUSH1 0x20 DUP3 DUP5 SUB SLT ISZERO PUSH2 0xB61 JUMPI PUSH2 0xB60 PUSH2 0x974 JUMP JUMPDEST JUMPDEST PUSH0 PUSH2 0xB6E DUP5 DUP3 DUP6 ADD PUSH2 0xB38 JUMP JUMPDEST SWAP2 POP POP SWAP3 SWAP2 POP POP JUMP JUMPDEST PUSH2 0xB80 DUP2 PUSH2 0x978 JUMP JUMPDEST DUP3 MSTORE POP POP JUMP JUMPDEST PUSH0 PUSH1 0x20 DUP3 ADD SWAP1 POP PUSH2 0xB99 PUSH0 DUP4 ADD DUP5 PUSH2 0xB77 JUMP JUMPDEST SWAP3 SWAP2 POP POP JUMP JUMPDEST PUSH0 DUP2 SWAP1 POP SWAP2 SWAP1 POP JUMP JUMPDEST PUSH2 0xBB1 DUP2 PUSH2 0xB9F JUMP JUMPDEST DUP3 MSTORE POP POP JUMP JUMPDEST PUSH0 PUSH1 0x20 DUP3 ADD SWAP1 POP PUSH2 0xBCA PUSH0 DUP4 ADD DUP5 PUSH2 0xBA8 JUMP JUMPDEST SWAP3 SWAP2 POP POP JUMP JUMPDEST PUSH0 DUP2 MLOAD SWAP1 POP SWAP2 SWAP1 POP JUMP JUMPDEST PUSH0 DUP3 DUP3 MSTORE PUSH1 0x20 DUP3 ADD SWAP1 POP SWAP3 SWAP2 POP POP JUMP JUMPDEST PUSH0 PUSH2 0xBF4 DUP3 PUSH2 0xBD0 JUMP JUMPDEST PUSH2 0xBFE DUP2 DUP6 PUSH2 0xBDA JUMP JUMPDEST SWAP4 POP PUSH2 0xC0E DUP2 DUP6 PUSH1 0x20 DUP7 ADD PUSH2 0x8FE JUMP JUMPDEST PUSH2 0xC17 DUP2 PUSH2 0x90C JUMP JUMPDEST DUP5 ADD SWAP2 POP POP SWAP3 SWAP2 POP POP JUMP JUMPDEST PUSH0 PUSH1 0x20 DUP3 ADD SWAP1 POP DUP2 DUP2 SUB PUSH0 DUP4 ADD MSTORE PUSH2 0xC3A DUP2 DUP5 PUSH2 0xBEA JUMP JUMPDEST SWAP1 POP SWAP3 SWAP2 POP POP JUMP JUMPDEST PUSH2 0xC4B DUP2 PUSH2 0x9E1 JUMP JUMPDEST DUP3 MSTORE POP POP JUMP JUMPDEST PUSH0 PUSH1 0x20 DUP3 ADD SWAP1 POP PUSH2 0xC64 PUSH0 DUP4 ADD DUP5 PUSH2 0xC42 JUMP JUMPDEST SWAP3 SWAP2 POP POP JUMP JUMPDEST PUSH2 0xC73 DUP2 PUSH2 0x9AB JUMP JUMPDEST DUP3 MSTORE POP POP JUMP JUMPDEST PUSH0 PUSH1 0x20 DUP3 ADD SWAP1 POP PUSH2 0xC8C PUSH0 DUP4 ADD DUP5 PUSH2 0xC6A JUMP JUMPDEST SWAP3 SWAP2 POP POP JUMP JUMPDEST PUSH0 PUSH2 0xFFFF DUP3 AND SWAP1 POP SWAP2 SWAP1 POP JUMP JUMPDEST PUSH2 0xCA8 DUP2 PUSH2 0xC92 JUMP JUMPDEST DUP3 MSTORE POP POP JUMP JUMPDEST PUSH0 PUSH1 0x20 DUP3 ADD SWAP1 POP PUSH2 0xCC1 PUSH0 DUP4 ADD DUP5 PUSH2 0xC9F JUMP JUMPDEST SWAP3 SWAP2 POP POP JUMP JUMPDEST PUSH0 PUSH1 0x20 DUP3 DUP5 SUB SLT ISZERO PUSH2 0xCDC JUMPI PUSH2 0xCDB PUSH2 0x974 JUMP JUMPDEST JUMPDEST PUSH0 PUSH2 0xCE9 DUP5 DUP3 DUP6 ADD PUSH2 0x997 JUMP JUMPDEST SWAP2 POP POP SWAP3 SWAP2 POP POP JUMP JUMPDEST PUSH2 0xCFB DUP2 PUSH2 0xB11 JUMP JUMPDEST DUP3 MSTORE POP POP JUMP JUMPDEST PUSH0 PUSH1 0x20 DUP3 ADD SWAP1 POP PUSH2 0xD14 PUSH0 DUP4 ADD DUP5 PUSH2 0xCF2 JUMP JUMPDEST SWAP3 SWAP2 POP POP JUMP JUMPDEST PUSH0 PUSH0 PUSH1 0x40 DUP4 DUP6 SUB SLT ISZERO PUSH2 0xD30 JUMPI PUSH2 0xD2F PUSH2 0x974 JUMP JUMPDEST JUMPDEST PUSH0 PUSH2 0xD3D DUP6 DUP3 DUP7 ADD PUSH2 0x997 JUMP JUMPDEST SWAP3 POP POP PUSH1 0x20 PUSH2 0xD4E DUP6 DUP3 DUP7 ADD PUSH2 0x9CD JUMP JUMPDEST SWAP2 POP POP SWAP3 POP SWAP3 SWAP1 POP JUMP JUMPDEST PUSH0 PUSH8 0xFFFFFFFFFFFFFFFF DUP3 AND SWAP1 POP SWAP2 SWAP1 POP JUMP JUMPDEST PUSH2 0xD74 DUP2 PUSH2 0xD58 JUMP JUMPDEST DUP3 MSTORE POP POP JUMP JUMPDEST PUSH0 PUSH1 0x80 DUP3 ADD SWAP1 POP PUSH2 0xD8D PUSH0 DUP4 ADD DUP8 PUSH2 0xD6B JUMP JUMPDEST PUSH2 0xD9A PUSH1 0x20 DUP4 ADD DUP7 PUSH2 0xD6B JUMP JUMPDEST PUSH2 0xDA7 PUSH1 0x40 DUP4 ADD DUP6 PUSH2 0xCF2 JUMP JUMPDEST PUSH2 0xDB4 PUSH1 0x60 DUP4 ADD DUP5 PUSH2 0xC42 JUMP JUMPDEST SWAP6 SWAP5 POP POP POP POP POP JUMP JUMPDEST PUSH0 PUSH16 0xFFFFFFFFFFFFFFFFFFFFFFFFFFFFFFFF DUP3 AND SWAP1 POP SWAP2 SWAP1 POP JUMP JUMPDEST PUSH2 0xDE1 DUP2 PUSH2 0xDBD JUMP JUMPDEST DUP3 MSTORE POP POP JUMP JUMPDEST PUSH0 PUSH1 0xA0 DUP3 ADD SWAP1 POP PUSH2 0xDFA PUSH0 DUP4 ADD DUP9 PUSH2 0xDD8 JUMP JUMPDEST PUSH2 0xE07 PUSH1 0x20 DUP4 ADD DUP8 PUSH2 0xDD8 JUMP JUMPDEST PUSH2 0xE14 PUSH1 0x40 DUP4 ADD DUP7 PUSH2 0xB77 JUMP JUMPDEST PUSH2 0xE21 PUSH1 0x60 DUP4 ADD DUP6 PUSH2 0xD6B JUMP JUMPDEST PUSH2 0xE2E PUSH1 0x80 DUP4 ADD DUP5 PUSH2 0xC42 JUMP JUMPDEST SWAP7 SWAP6 POP POP POP POP POP POP JUMP JUMPDEST PUSH0 PUSH0 PUSH1 0x40 DUP4 DUP6 SUB SLT ISZERO PUSH2 0xE4E JUMPI PUSH2 0xE4D PUSH2 0x974 JUMP JUMPDEST JUMPDEST PUSH0 PUSH2 0xE5B DUP6 DUP3 DUP7 ADD PUSH2 0x997 JUMP JUMPDEST SWAP3 POP POP PUSH1 0x20 PUSH2 0xE6C DUP6 DUP3 DUP7 ADD PUSH2 0x997 JUMP JUMPDEST SWAP2 POP POP SWAP3 POP SWAP3 SWAP1 POP JUMP JUMPDEST PUSH32 0x4E487B7100000000000000000000000000000000000000000000000000000000 PUSH0 MSTORE PUSH1 0x22 PUSH1 0x4 MSTORE PUSH1 0x24 PUSH0 REVERT JUMPDEST PUSH0 PUSH1 0x2 DUP3 DIV SWAP1 POP PUSH1 0x1 DUP3 AND DUP1 PUSH2 0xEBA JUMPI PUSH1 0x7F DUP3 AND SWAP2 POP JUMPDEST PUSH1 0x20 DUP3 LT DUP2 SUB PUSH2 0xECD JUMPI PUSH2 0xECC PUSH2 0xE76 JUMP JUMPDEST JUMPDEST POP SWAP2 SWAP1 POP JUMP INVALID LOG2 PUSH5 0x6970667358 0x22 SLT KECCAK256 PUSH10 0x11B8690B6451611A4C04 LOG2 0xB8 MCOPY ADDRESS MSTORE SWAP2 SLOAD 0xE SWAP7 LOG4 GASLIMIT MCOPY 0xB5 0xBF 0x27 0x29 0x26 0xC3 SSTORE RETURNDATACOPY 0x24 PUSH5 0x736F6C6343 STOP ADDMOD 0x22 STOP CALLER "
		},
		"gasEstimates": {
			"creation": {
				"codeDepositCost": "769800",
				"executionCost": "infinite",
				"totalCost": "infinite"
			},
			"external": {
				"VERSION()": "457",
				"balances(address)": "2914",
				"constantId()": "2448",
				"countdowns()": "2626",
				"counter()": "2628",
				"dynamicData()": "infinite",
				"factory()": "infinite",
				"getFlag(uint256,uint8)": "3067",
				"importantValue()": "2536",
				"level()": "2539",
				"matrix(uint256,uint256)": "infinite",
				"name()": "infinite",
				"names()": "infinite",
				"orders(uint256)": "infinite",
				"owner()": "2575",
				"packedFlags(uint256)": "infinite",
				"paused()": "2555",
				"setFlag(uint256,uint8,bool)": "25172",
				"setImportantValue(uint256)": "22560",
				"smallNumber()": "2650",
				"status()": "2643",
				"users(address)": "infinite",
				"version()": "2470"
			}
		},
		"methodIdentifiers": {
			"VERSION()": "ffa1ad74",
			"balances(address)": "27e235e3",
			"constantId()": "3545b494",
			"countdowns()": "fa44f589",
			"counter()": "61bc221a",
			"dynamicData()": "5a0a4a64",
			"factory()": "c45a0155",
			"getFlag(uint256,uint8)": "90daba0a",
			"importantValue()": "a2f4bb26",
			"level()": "6fd5ae15",
			"matrix(uint256,uint256)": "d9a38d64",
			"name()": "06fdde03",
			"names()": "056da048",
			"orders(uint256)": "a85c38ef",
			"owner()": "8da5cb5b",
			"packedFlags(uint256)": "ecb2b5cb",
			"paused()": "5c975abb",
			"setFlag(uint256,uint8,bool)": "14336b85",
			"setImportantValue(uint256)": "7091a9f6",
			"smallNumber()": "6670cde0",
			"status()": "200d2ed2",
			"users(address)": "a87430ba",
			"version()": "54fd4d50"
		}
	},
	"abi": [
		{
			"inputs": [],
			"stateMutability": "nonpayable",
			"type": "constructor"
		},
		{
			"inputs": [],
			"name": "VERSION",
			"outputs": [
				{
					"internalType": "uint256",
					"name": "",
					"type": "uint256"
				}
			],
			"stateMutability": "view",
			"type": "function"
		},
		{
			"inputs": [
				{
					"internalType": "address",
					"name": "",
					"type": "address"
				}
			],
			"name": "balances",
			"outputs": [
				{
					"internalType": "uint256",
					"name": "",
					"type": "uint256"
				}
			],
			"stateMutability": "view",
			"type": "function"
		},
		{
			"inputs": [],
			"name": "constantId",
			"outputs": [
				{
					"internalType": "bytes32",
					"name": "",
					"type": "bytes32"
				}
			],
			"stateMutability": "view",
			"type": "function"
		},
		{
			"inputs": [],
			"name": "countdowns",
			"outputs": [
				{
					"internalType": "uint16",
					"name": "",
					"type": "uint16"
				}
			],
			"stateMutability": "view",
			"type": "function"
		},
		{
			"inputs": [],
			"name": "counter",
			"outputs": [
				{
					"internalType": "uint8",
					"name": "",
					"type": "uint8"
				}
			],
			"stateMutability": "view",
			"type": "function"
		},
		{
			"inputs": [],
			"name": "dynamicData",
			"outputs": [
				{
					"internalType": "bytes",
					"name": "",
					"type": "bytes"
				}
			],
			"stateMutability": "view",
			"type": "function"
		},
		{
			"inputs": [],
			"name": "factory",
			"outputs": [
				{
					"internalType": "address",
					"name": "",
					"type": "address"
				}
			],
			"stateMutability": "view",
			"type": "function"
		},
		{
			"inputs": [
				{
					"internalType": "uint256",
					"name": "bucket",
					"type": "uint256"
				},
				{
					"internalType": "uint8",
					"name": "bit",
					"type": "uint8"
				}
			],
			"name": "getFlag",
			"outputs": [
				{
					"internalType": "bool",
					"name": "",
					"type": "bool"
				}
			],
			"stateMutability": "view",
			"type": "function"
		},
		{
			"inputs": [],
			"name": "importantValue",
			"outputs": [
				{
					"internalType": "uint256",
					"name": "",
					"type": "uint256"
				}
			],
			"stateMutability": "view",
			"type": "function"
		},
		{
			"inputs": [],
			"name": "level",
			"outputs": [
				{
					"internalType": "uint8",
					"name": "",
					"type": "uint8"
				}
			],
			"stateMutability": "view",
			"type": "function"
		},
		{
			"inputs": [
				{
					"internalType": "uint256",
					"name": "",
					"type": "uint256"
				},
				{
					"internalType": "uint256",
					"name": "",
					"type": "uint256"
				}
			],
			"name": "matrix",
			"outputs": [
				{
					"internalType": "uint256",
					"name": "",
					"type": "uint256"
				}
			],
			"stateMutability": "view",
			"type": "function"
		},
		{
			"inputs": [],
			"name": "name",
			"outputs": [
				{
					"internalType": "string",
					"name": "",
					"type": "string"
				}
			],
			"stateMutability": "view",
			"type": "function"
		},
		{
			"inputs": [],
			"name": "names",
			"outputs": [
				{
					"internalType": "string",
					"name": "",
					"type": "string"
				}
			],
			"stateMutability": "view",
			"type": "function"
		},
		{
			"inputs": [
				{
					"internalType": "uint256",
					"name": "",
					"type": "uint256"
				}
			],
			"name": "orders",
			"outputs": [
				{
					"internalType": "uint64",
					"name": "id",
					"type": "uint64"
				},
				{
					"internalType": "uint64",
					"name": "timestamp",
					"type": "uint64"
				},
				{
					"internalType": "address",
					"name": "buyer",
					"type": "address"
				},
				{
					"internalType": "bool",
					"name": "fulfilled",
					"type": "bool"
				}
			],
			"stateMutability": "view",
			"type": "function"
		},
		{
			"inputs": [],
			"name": "owner",
			"outputs": [
				{
					"internalType": "address",
					"name": "",
					"type": "address"
				}
			],
			"stateMutability": "view",
			"type": "function"
		},
		{
			"inputs": [
				{
					"internalType": "uint256",
					"name": "",
					"type": "uint256"
				}
			],
			"name": "packedFlags",
			"outputs": [
				{
					"internalType": "uint256",
					"name": "",
					"type": "uint256"
				}
			],
			"stateMutability": "view",
			"type": "function"
		},
		{
			"inputs": [],
			"name": "paused",
			"outputs": [
				{
					"internalType": "bool",
					"name": "",
					"type": "bool"
				}
			],
			"stateMutability": "view",
			"type": "function"
		},
		{
			"inputs": [
				{
					"internalType": "uint256",
					"name": "bucket",
					"type": "uint256"
				},
				{
					"internalType": "uint8",
					"name": "bit",
					"type": "uint8"
				},
				{
					"internalType": "bool",
					"name": "value",
					"type": "bool"
				}
			],
			"name": "setFlag",
			"outputs": [],
			"stateMutability": "nonpayable",
			"type": "function"
		},
		{
			"inputs": [
				{
					"internalType": "uint256",
					"name": "_newValue",
					"type": "uint256"
				}
			],
			"name": "setImportantValue",
			"outputs": [],
			"stateMutability": "nonpayable",
			"type": "function"
		},
		{
			"inputs": [],
			"name": "smallNumber",
			"outputs": [
				{
					"internalType": "uint16",
					"name": "",
					"type": "uint16"
				}
			],
			"stateMutability": "view",
			"type": "function"
		},
		{
			"inputs": [],
			"name": "status",
			"outputs": [
				{
					"internalType": "enum AdvancedStorage.Status",
					"name": "",
					"type": "uint8"
				}
			],
			"stateMutability": "view",
			"type": "function"
		},
		{
			"inputs": [
				{
					"internalType": "address",
					"name": "",
					"type": "address"
				}
			],
			"name": "users",
			"outputs": [
				{
					"internalType": "uint128",
					"name": "balance",
					"type": "uint128"
				},
				{
					"internalType": "uint128",
					"name": "locked",
					"type": "uint128"
				},
				{
					"internalType": "uint256",
					"name": "lastActive",
					"type": "uint256"
				},
				{
					"internalType": "uint64",
					"name": "referralCount",
					"type": "uint64"
				},
				{
					"internalType": "bool",
					"name": "isVerified",
					"type": "bool"
				}
			],
			"stateMutability": "view",
			"type": "function"
		},
		{
			"inputs": [],
			"name": "version",
			"outputs": [
				{
					"internalType": "uint256",
					"name": "",
					"type": "uint256"
				}
			],
			"stateMutability": "view",
			"type": "function"
		}
	]
}